{
	"contracts/protocol/Vault.sol": {
		"Vault": {
			"abi": [
				{
					"anonymous": false,
					"inputs": [
						{
							"indexed": true,
							"internalType": "address",
							"name": "owner",
							"type": "address"
						},
						{
							"indexed": true,
							"internalType": "address",
							"name": "spender",
							"type": "address"
						},
						{
							"indexed": false,
							"internalType": "uint256",
							"name": "value",
							"type": "uint256"
						}
					],
					"name": "Approval",
					"type": "event"
				},
				{
					"anonymous": false,
					"inputs": [
						{
							"indexed": true,
							"internalType": "address",
							"name": "caller",
							"type": "address"
						},
						{
							"indexed": true,
							"internalType": "address",
							"name": "owner",
							"type": "address"
						},
						{
							"indexed": false,
							"internalType": "uint256",
							"name": "assets",
							"type": "uint256"
						},
						{
							"indexed": false,
							"internalType": "uint256",
							"name": "shares",
							"type": "uint256"
						}
					],
					"name": "Deposit",
					"type": "event"
				},
				{
					"anonymous": false,
					"inputs": [
						{
							"indexed": true,
							"internalType": "address",
							"name": "from",
							"type": "address"
						},
						{
							"indexed": true,
							"internalType": "address",
							"name": "to",
							"type": "address"
						},
						{
							"indexed": false,
							"internalType": "uint256",
							"name": "value",
							"type": "uint256"
						}
					],
					"name": "Transfer",
					"type": "event"
				},
				{
					"anonymous": false,
					"inputs": [
						{
							"indexed": true,
							"internalType": "address",
							"name": "caller",
							"type": "address"
						},
						{
							"indexed": true,
							"internalType": "address",
							"name": "receiver",
							"type": "address"
						},
						{
							"indexed": true,
							"internalType": "address",
							"name": "owner",
							"type": "address"
						},
						{
							"indexed": false,
							"internalType": "uint256",
							"name": "assets",
							"type": "uint256"
						},
						{
							"indexed": false,
							"internalType": "uint256",
							"name": "shares",
							"type": "uint256"
						}
					],
					"name": "Withdraw",
					"type": "event"
				},
				{
					"inputs": [
						{
							"internalType": "address",
							"name": "market_",
							"type": "address"
						}
					],
					"name": "addMarket",
					"outputs": [],
					"stateMutability": "nonpayable",
					"type": "function"
				},
				{
					"inputs": [
						{
							"internalType": "address",
							"name": "market_",
							"type": "address"
						},
						{
							"internalType": "uint256",
							"name": "amount",
							"type": "uint256"
						}
					],
					"name": "allocateToMarket",
					"outputs": [],
					"stateMutability": "nonpayable",
					"type": "function"
				},
				{
					"inputs": [
						{
							"internalType": "address",
							"name": "owner",
							"type": "address"
						},
						{
							"internalType": "address",
							"name": "spender",
							"type": "address"
						}
					],
					"name": "allowance",
					"outputs": [
						{
							"internalType": "uint256",
							"name": "",
							"type": "uint256"
						}
					],
					"stateMutability": "view",
					"type": "function"
				},
				{
					"inputs": [
						{
							"internalType": "address",
							"name": "spender",
							"type": "address"
						},
						{
							"internalType": "uint256",
							"name": "amount",
							"type": "uint256"
						}
					],
					"name": "approve",
					"outputs": [
						{
							"internalType": "bool",
							"name": "",
							"type": "bool"
						}
					],
					"stateMutability": "nonpayable",
					"type": "function"
				},
				{
					"inputs": [],
					"name": "apy",
					"outputs": [
						{
							"internalType": "uint256",
							"name": "",
							"type": "uint256"
						}
					],
					"stateMutability": "view",
					"type": "function"
				},
				{
					"inputs": [],
					"name": "asset",
					"outputs": [
						{
							"internalType": "address",
							"name": "",
							"type": "address"
						}
					],
					"stateMutability": "view",
					"type": "function"
				},
				{
					"inputs": [
						{
							"internalType": "address",
							"name": "account",
							"type": "address"
						}
					],
					"name": "balanceOf",
					"outputs": [
						{
							"internalType": "uint256",
							"name": "",
							"type": "uint256"
						}
					],
					"stateMutability": "view",
					"type": "function"
				},
				{
					"inputs": [
						{
							"internalType": "uint256",
							"name": "shares",
							"type": "uint256"
						}
					],
					"name": "convertToAssets",
					"outputs": [
						{
							"internalType": "uint256",
							"name": "",
							"type": "uint256"
						}
					],
					"stateMutability": "view",
					"type": "function"
				},
				{
					"inputs": [
						{
							"internalType": "uint256",
							"name": "assets_",
							"type": "uint256"
						}
					],
					"name": "convertToShares",
					"outputs": [
						{
							"internalType": "uint256",
							"name": "",
							"type": "uint256"
						}
					],
					"stateMutability": "view",
					"type": "function"
				},
				{
					"inputs": [
						{
							"internalType": "address",
							"name": "market_",
							"type": "address"
						},
						{
							"internalType": "uint256",
							"name": "amount",
							"type": "uint256"
						}
					],
					"name": "deallocateToMarket",
					"outputs": [],
					"stateMutability": "nonpayable",
					"type": "function"
				},
				{
					"inputs": [],
					"name": "decimals",
					"outputs": [
						{
							"internalType": "uint8",
							"name": "",
							"type": "uint8"
						}
					],
					"stateMutability": "view",
					"type": "function"
				},
				{
					"inputs": [
						{
							"internalType": "uint256",
							"name": "assets_",
							"type": "uint256"
						},
						{
							"internalType": "address",
							"name": "receiver",
							"type": "address"
						}
					],
					"name": "deposit",
					"outputs": [
						{
							"internalType": "uint256",
							"name": "shares",
							"type": "uint256"
						}
					],
					"stateMutability": "nonpayable",
					"type": "function"
				},
				{
					"inputs": [],
					"name": "idleLiquidity",
					"outputs": [
						{
							"internalType": "uint256",
							"name": "shares",
							"type": "uint256"
						}
					],
					"stateMutability": "view",
					"type": "function"
				},
				{
					"inputs": [
						{
							"internalType": "address",
							"name": "owner_",
							"type": "address"
						},
						{
							"internalType": "address",
							"name": "asset_",
							"type": "address"
						},
						{
							"internalType": "string",
							"name": "title_",
							"type": "string"
						},
						{
							"internalType": "string",
							"name": "shareName_",
							"type": "string"
						},
						{
							"internalType": "string",
							"name": "shareSymbol_",
							"type": "string"
						},
						{
							"internalType": "uint256",
							"name": "apy_",
							"type": "uint256"
						},
						{
							"internalType": "uint256",
							"name": "minDeposit_",
							"type": "uint256"
						}
					],
					"name": "initialize",
					"outputs": [],
					"stateMutability": "nonpayable",
					"type": "function"
				},
				{
					"inputs": [
						{
							"internalType": "address",
							"name": "",
							"type": "address"
						}
					],
					"name": "isMarket",
					"outputs": [
						{
							"internalType": "bool",
							"name": "",
							"type": "bool"
						}
					],
					"stateMutability": "view",
					"type": "function"
				},
				{
					"inputs": [
						{
							"internalType": "uint256",
							"name": "",
							"type": "uint256"
						}
					],
					"name": "markets",
					"outputs": [
						{
							"internalType": "address",
							"name": "",
							"type": "address"
						}
					],
					"stateMutability": "view",
					"type": "function"
				},
				{
					"inputs": [],
					"name": "minDeposit",
					"outputs": [
						{
							"internalType": "uint256",
							"name": "",
							"type": "uint256"
						}
					],
					"stateMutability": "view",
					"type": "function"
				},
				{
					"inputs": [
						{
							"internalType": "uint256",
							"name": "shares",
							"type": "uint256"
						},
						{
							"internalType": "address",
							"name": "receiver",
							"type": "address"
						}
					],
					"name": "mint",
					"outputs": [
						{
							"internalType": "uint256",
							"name": "assets_",
							"type": "uint256"
						}
					],
					"stateMutability": "nonpayable",
					"type": "function"
				},
				{
					"inputs": [],
					"name": "name",
					"outputs": [
						{
							"internalType": "string",
							"name": "",
							"type": "string"
						}
					],
					"stateMutability": "view",
					"type": "function"
				},
				{
					"inputs": [],
					"name": "owner",
					"outputs": [
						{
							"internalType": "address",
							"name": "",
							"type": "address"
						}
					],
					"stateMutability": "view",
					"type": "function"
				},
				{
					"inputs": [
						{
							"internalType": "address",
							"name": "newOwner",
							"type": "address"
						}
					],
					"name": "ownershipTransfer",
					"outputs": [],
					"stateMutability": "nonpayable",
					"type": "function"
				},
				{
					"inputs": [
						{
							"internalType": "uint256",
							"name": "shares",
							"type": "uint256"
						},
						{
							"internalType": "address",
							"name": "receiver",
							"type": "address"
						},
						{
							"internalType": "address",
							"name": "owner",
							"type": "address"
						}
					],
					"name": "redeem",
					"outputs": [
						{
							"internalType": "uint256",
							"name": "assets_",
							"type": "uint256"
						}
					],
					"stateMutability": "nonpayable",
					"type": "function"
				},
				{
					"inputs": [],
					"name": "symbol",
					"outputs": [
						{
							"internalType": "string",
							"name": "",
							"type": "string"
						}
					],
					"stateMutability": "view",
					"type": "function"
				},
				{
					"inputs": [],
					"name": "title",
					"outputs": [
						{
							"internalType": "string",
							"name": "",
							"type": "string"
						}
					],
					"stateMutability": "view",
					"type": "function"
				},
				{
					"inputs": [],
					"name": "totalAssets",
					"outputs": [
						{
							"internalType": "uint256",
							"name": "total",
							"type": "uint256"
						}
					],
					"stateMutability": "view",
					"type": "function"
				},
				{
					"inputs": [],
					"name": "totalSupply",
					"outputs": [
						{
							"internalType": "uint256",
							"name": "",
							"type": "uint256"
						}
					],
					"stateMutability": "view",
					"type": "function"
				},
				{
					"inputs": [
						{
							"internalType": "address",
							"name": "to",
							"type": "address"
						},
						{
							"internalType": "uint256",
							"name": "amount",
							"type": "uint256"
						}
					],
					"name": "transfer",
					"outputs": [
						{
							"internalType": "bool",
							"name": "",
							"type": "bool"
						}
					],
					"stateMutability": "nonpayable",
					"type": "function"
				},
				{
					"inputs": [
						{
							"internalType": "address",
							"name": "from",
							"type": "address"
						},
						{
							"internalType": "address",
							"name": "to",
							"type": "address"
						},
						{
							"internalType": "uint256",
							"name": "amount",
							"type": "uint256"
						}
					],
					"name": "transferFrom",
					"outputs": [
						{
							"internalType": "bool",
							"name": "",
							"type": "bool"
						}
					],
					"stateMutability": "nonpayable",
					"type": "function"
				},
				{
					"inputs": [
						{
							"internalType": "uint256",
							"name": "assets_",
							"type": "uint256"
						},
						{
							"internalType": "address",
							"name": "receiver",
							"type": "address"
						},
						{
							"internalType": "address",
							"name": "owner",
							"type": "address"
						}
					],
					"name": "withdraw",
					"outputs": [
						{
							"internalType": "uint256",
							"name": "shares",
							"type": "uint256"
						}
					],
					"stateMutability": "nonpayable",
					"type": "function"
				}
			],
			"devdoc": {
				"events": {
					"Approval(address,address,uint256)": {
						"details": "Срабатывает при изменении allowance."
					},
					"Deposit(address,address,uint256,uint256)": {
						"details": "Событие при deposit/mint."
					},
					"Transfer(address,address,uint256)": {
						"details": "Срабатывает при переводе токенов."
					},
					"Withdraw(address,address,address,uint256,uint256)": {
						"details": "Событие при withdraw/redeem."
					}
				},
				"kind": "dev",
				"methods": {},
				"version": 1
			},
			"evm": {
				"assembly": "    /* \"contracts/protocol/Vault.sol\":315:2294  contract Vault is Ownable, ERC4626Upgradeable {... */\n  mstore(0x40, 0x80)\n  callvalue\n  dup1\n  iszero\n  tag_1\n  jumpi\n  revert(0x00, 0x00)\ntag_1:\n  pop\n  dataSize(sub_0)\n  dup1\n  dataOffset(sub_0)\n  0x00\n  codecopy\n  0x00\n  return\nstop\n\nsub_0: assembly {\n        /* \"contracts/protocol/Vault.sol\":315:2294  contract Vault is Ownable, ERC4626Upgradeable {... */\n      mstore(0x40, 0x80)\n      callvalue\n      dup1\n      iszero\n      tag_1\n      jumpi\n      revert(0x00, 0x00)\n    tag_1:\n      pop\n      jumpi(tag_2, lt(calldatasize, 0x04))\n      shr(0xe0, calldataload(0x00))\n      dup1\n      0x6ec934da\n      gt\n      tag_32\n      jumpi\n      dup1\n      0xa9059cbb\n      gt\n      tag_33\n      jumpi\n      dup1\n      0xc30e9811\n      gt\n      tag_34\n      jumpi\n      dup1\n      0xc30e9811\n      eq\n      tag_28\n      jumpi\n      dup1\n      0xc6e6f592\n      eq\n      tag_29\n      jumpi\n      dup1\n      0xd3a417a2\n      eq\n      tag_30\n      jumpi\n      dup1\n      0xdd62ed3e\n      eq\n      tag_31\n      jumpi\n      jump(tag_2)\n    tag_34:\n      dup1\n      0xa9059cbb\n      eq\n      tag_24\n      jumpi\n      dup1\n      0xb1283e77\n      eq\n      tag_25\n      jumpi\n      dup1\n      0xb460af94\n      eq\n      tag_26\n      jumpi\n      dup1\n      0xba087652\n      eq\n      tag_27\n      jumpi\n      jump(tag_2)\n    tag_33:\n      dup1\n      0x92f6b31c\n      gt\n      tag_35\n      jumpi\n      dup1\n      0x92f6b31c\n      eq\n      tag_20\n      jumpi\n      dup1\n      0x93e30633\n      eq\n      tag_21\n      jumpi\n      dup1\n      0x94bf804d\n      eq\n      tag_22\n      jumpi\n      dup1\n      0x95d89b41\n      eq\n      tag_23\n      jumpi\n      jump(tag_2)\n    tag_35:\n      dup1\n      0x6ec934da\n      eq\n      tag_17\n      jumpi\n      dup1\n      0x70a08231\n      eq\n      tag_18\n      jumpi\n      dup1\n      0x8da5cb5b\n      eq\n      tag_19\n      jumpi\n      jump(tag_2)\n    tag_32:\n      dup1\n      0x38d52e0f\n      gt\n      tag_36\n      jumpi\n      dup1\n      0x41b3d185\n      gt\n      tag_37\n      jumpi\n      dup1\n      0x41b3d185\n      eq\n      tag_13\n      jumpi\n      dup1\n      0x4a79d50c\n      eq\n      tag_14\n      jumpi\n      dup1\n      0x66adf46a\n      eq\n      tag_15\n      jumpi\n      dup1\n      0x6e553f65\n      eq\n      tag_16\n      jumpi\n      jump(tag_2)\n    tag_37:\n      dup1\n      0x38d52e0f\n      eq\n      tag_10\n      jumpi\n      dup1\n      0x3bcfc4b8\n      eq\n      tag_11\n      jumpi\n      dup1\n      0x3dce8b38\n      eq\n      tag_12\n      jumpi\n      jump(tag_2)\n    tag_36:\n      dup1\n      0x095ea7b3\n      gt\n      tag_38\n      jumpi\n      dup1\n      0x095ea7b3\n      eq\n      tag_6\n      jumpi\n      dup1\n      0x18160ddd\n      eq\n      tag_7\n      jumpi\n      dup1\n      0x23b872dd\n      eq\n      tag_8\n      jumpi\n      dup1\n      0x313ce567\n      eq\n      tag_9\n      jumpi\n      jump(tag_2)\n    tag_38:\n      dup1\n      0x01e1d114\n      eq\n      tag_3\n      jumpi\n      dup1\n      0x06fdde03\n      eq\n      tag_4\n      jumpi\n      dup1\n      0x07a2d13a\n      eq\n      tag_5\n      jumpi\n    tag_2:\n      revert(0x00, 0x00)\n        /* \"contracts/protocol/Vault.sol\":957:1303  function totalAssets() public view override returns (uint total) {... */\n    tag_3:\n      tag_39\n      tag_40\n      jump\t// in\n    tag_39:\n      mload(0x40)\n      tag_41\n      swap2\n      swap1\n      tag_42\n      jump\t// in\n    tag_41:\n      mload(0x40)\n      dup1\n      swap2\n      sub\n      swap1\n      return\n        /* \"contracts/token/ERC20Upgradeable.sol\":1510:1593  function name() external view returns (string memory) {... */\n    tag_4:\n      tag_43\n      tag_44\n      jump\t// in\n    tag_43:\n      mload(0x40)\n      tag_45\n      swap2\n      swap1\n      tag_46\n      jump\t// in\n    tag_45:\n      mload(0x40)\n      dup1\n      swap2\n      sub\n      swap1\n      return\n        /* \"contracts/token/ERC4626Upgradeable.sol\":1827:2190  function convertToAssets(uint256 shares) public view returns (uint256) {... */\n    tag_5:\n      tag_47\n      0x04\n      dup1\n      calldatasize\n      sub\n      dup2\n      add\n      swap1\n      tag_48\n      swap2\n      swap1\n      tag_49\n      jump\t// in\n    tag_48:\n      tag_50\n      jump\t// in\n    tag_47:\n      mload(0x40)\n      tag_51\n      swap2\n      swap1\n      tag_42\n      jump\t// in\n    tag_51:\n      mload(0x40)\n      dup1\n      swap2\n      sub\n      swap1\n      return\n        /* \"contracts/token/ERC20Upgradeable.sol\":2287:2436  function approve(address spender, uint256 amount) external returns (bool) {... */\n    tag_6:\n      tag_52\n      0x04\n      dup1\n      calldatasize\n      sub\n      dup2\n      add\n      swap1\n      tag_53\n      swap2\n      swap1\n      tag_54\n      jump\t// in\n    tag_53:\n      tag_55\n      jump\t// in\n    tag_52:\n      mload(0x40)\n      tag_56\n      swap2\n      swap1\n      tag_57\n      jump\t// in\n    tag_56:\n      mload(0x40)\n      dup1\n      swap2\n      sub\n      swap1\n      return\n        /* \"contracts/token/ERC20Upgradeable.sol\":1781:1872  function totalSupply() external view returns (uint256) {... */\n    tag_7:\n      tag_58\n      tag_59\n      jump\t// in\n    tag_58:\n      mload(0x40)\n      tag_60\n      swap2\n      swap1\n      tag_42\n      jump\t// in\n    tag_60:\n      mload(0x40)\n      dup1\n      swap2\n      sub\n      swap1\n      return\n        /* \"contracts/token/ERC20Upgradeable.sol\":2442:2961  function transferFrom(address from, address to, uint256 amount) external returns (bool) {... */\n    tag_8:\n      tag_61\n      0x04\n      dup1\n      calldatasize\n      sub\n      dup2\n      add\n      swap1\n      tag_62\n      swap2\n      swap1\n      tag_63\n      jump\t// in\n    tag_62:\n      tag_64\n      jump\t// in\n    tag_61:\n      mload(0x40)\n      tag_65\n      swap2\n      swap1\n      tag_57\n      jump\t// in\n    tag_65:\n      mload(0x40)\n      dup1\n      swap2\n      sub\n      swap1\n      return\n        /* \"contracts/token/ERC20Upgradeable.sol\":1692:1775  function decimals() external view returns (uint8) {... */\n    tag_9:\n      tag_66\n      tag_67\n      jump\t// in\n    tag_66:\n      mload(0x40)\n      tag_68\n      swap2\n      swap1\n      tag_69\n      jump\t// in\n    tag_68:\n      mload(0x40)\n      dup1\n      swap2\n      sub\n      swap1\n      return\n        /* \"contracts/token/ERC4626Upgradeable.sol\":1296:1382  function asset() public view returns (address) {... */\n    tag_10:\n      tag_70\n      tag_71\n      jump\t// in\n    tag_70:\n      mload(0x40)\n      tag_72\n      swap2\n      swap1\n      tag_73\n      jump\t// in\n    tag_72:\n      mload(0x40)\n      dup1\n      swap2\n      sub\n      swap1\n      return\n        /* \"contracts/protocol/Vault.sol\":392:410  uint256 public apy */\n    tag_11:\n      tag_74\n      tag_75\n      jump\t// in\n    tag_74:\n      mload(0x40)\n      tag_76\n      swap2\n      swap1\n      tag_42\n      jump\t// in\n    tag_76:\n      mload(0x40)\n      dup1\n      swap2\n      sub\n      swap1\n      return\n        /* \"contracts/protocol/Vault.sol\":524:951  function initialize(... */\n    tag_12:\n      tag_77\n      0x04\n      dup1\n      calldatasize\n      sub\n      dup2\n      add\n      swap1\n      tag_78\n      swap2\n      swap1\n      tag_79\n      jump\t// in\n    tag_78:\n      tag_80\n      jump\t// in\n    tag_77:\n      stop\n        /* \"contracts/protocol/Vault.sol\":416:441  uint256 public minDeposit */\n    tag_13:\n      tag_81\n      tag_82\n      jump\t// in\n    tag_81:\n      mload(0x40)\n      tag_83\n      swap2\n      swap1\n      tag_42\n      jump\t// in\n    tag_83:\n      mload(0x40)\n      dup1\n      swap2\n      sub\n      swap1\n      return\n        /* \"contracts/protocol/Vault.sol\":367:386  string public title */\n    tag_14:\n      tag_84\n      tag_85\n      jump\t// in\n    tag_84:\n      mload(0x40)\n      tag_86\n      swap2\n      swap1\n      tag_46\n      jump\t// in\n    tag_86:\n      mload(0x40)\n      dup1\n      swap2\n      sub\n      swap1\n      return\n        /* \"contracts/protocol/Vault.sol\":1815:1997  function allocateToMarket(address market_, uint amount) external onlyOwner {... */\n    tag_15:\n      tag_87\n      0x04\n      dup1\n      calldatasize\n      sub\n      dup2\n      add\n      swap1\n      tag_88\n      swap2\n      swap1\n      tag_54\n      jump\t// in\n    tag_88:\n      tag_89\n      jump\t// in\n    tag_87:\n      stop\n        /* \"contracts/protocol/Vault.sol\":1437:1604  function deposit(... */\n    tag_16:\n      tag_90\n      0x04\n      dup1\n      calldatasize\n      sub\n      dup2\n      add\n      swap1\n      tag_91\n      swap2\n      swap1\n      tag_92\n      jump\t// in\n    tag_91:\n      tag_93\n      jump\t// in\n    tag_90:\n      mload(0x40)\n      tag_94\n      swap2\n      swap1\n      tag_42\n      jump\t// in\n    tag_94:\n      mload(0x40)\n      dup1\n      swap2\n      sub\n      swap1\n      return\n        /* \"contracts/protocol/Vault.sol\":477:517  mapping(address => bool) public isMarket */\n    tag_17:\n      tag_95\n      0x04\n      dup1\n      calldatasize\n      sub\n      dup2\n      add\n      swap1\n      tag_96\n      swap2\n      swap1\n      tag_97\n      jump\t// in\n    tag_96:\n      tag_98\n      jump\t// in\n    tag_95:\n      mload(0x40)\n      tag_99\n      swap2\n      swap1\n      tag_57\n      jump\t// in\n    tag_99:\n      mload(0x40)\n      dup1\n      swap2\n      sub\n      swap1\n      return\n        /* \"contracts/token/ERC20Upgradeable.sol\":1878:1988  function balanceOf(address account) external view returns (uint256) {... */\n    tag_18:\n      tag_100\n      0x04\n      dup1\n      calldatasize\n      sub\n      dup2\n      add\n      swap1\n      tag_101\n      swap2\n      swap1\n      tag_97\n      jump\t// in\n    tag_101:\n      tag_102\n      jump\t// in\n    tag_100:\n      mload(0x40)\n      tag_103\n      swap2\n      swap1\n      tag_42\n      jump\t// in\n    tag_103:\n      mload(0x40)\n      dup1\n      swap2\n      sub\n      swap1\n      return\n        /* \"contracts/acess/Ownable.sol\":133:153  address public owner */\n    tag_19:\n      tag_104\n      tag_105\n      jump\t// in\n    tag_104:\n      mload(0x40)\n      tag_106\n      swap2\n      swap1\n      tag_73\n      jump\t// in\n    tag_106:\n      mload(0x40)\n      dup1\n      swap2\n      sub\n      swap1\n      return\n        /* \"contracts/protocol/Vault.sol\":1308:1431  function idleLiquidity() public view returns (uint shares) {... */\n    tag_20:\n      tag_107\n      tag_108\n      jump\t// in\n    tag_107:\n      mload(0x40)\n      tag_109\n      swap2\n      swap1\n      tag_42\n      jump\t// in\n    tag_109:\n      mload(0x40)\n      dup1\n      swap2\n      sub\n      swap1\n      return\n        /* \"contracts/protocol/Vault.sol\":2165:2292  function addMarket(address market_) external onlyOwner {... */\n    tag_21:\n      tag_110\n      0x04\n      dup1\n      calldatasize\n      sub\n      dup2\n      add\n      swap1\n      tag_111\n      swap2\n      swap1\n      tag_97\n      jump\t// in\n    tag_111:\n      tag_112\n      jump\t// in\n    tag_110:\n      stop\n        /* \"contracts/token/ERC4626Upgradeable.sol\":2595:2985  function mint(uint256 shares, address receiver) public virtual returns (uint256 assets_) {... */\n    tag_22:\n      tag_113\n      0x04\n      dup1\n      calldatasize\n      sub\n      dup2\n      add\n      swap1\n      tag_114\n      swap2\n      swap1\n      tag_92\n      jump\t// in\n    tag_114:\n      tag_115\n      jump\t// in\n    tag_113:\n      mload(0x40)\n      tag_116\n      swap2\n      swap1\n      tag_42\n      jump\t// in\n    tag_116:\n      mload(0x40)\n      dup1\n      swap2\n      sub\n      swap1\n      return\n        /* \"contracts/token/ERC20Upgradeable.sol\":1599:1686  function symbol() external view returns (string memory) {... */\n    tag_23:\n      tag_117\n      tag_118\n      jump\t// in\n    tag_117:\n      mload(0x40)\n      tag_119\n      swap2\n      swap1\n      tag_46\n      jump\t// in\n    tag_119:\n      mload(0x40)\n      dup1\n      swap2\n      sub\n      swap1\n      return\n        /* \"contracts/token/ERC20Upgradeable.sol\":2140:2281  function transfer(address to, uint256 amount) external returns (bool) {... */\n    tag_24:\n      tag_120\n      0x04\n      dup1\n      calldatasize\n      sub\n      dup2\n      add\n      swap1\n      tag_121\n      swap2\n      swap1\n      tag_54\n      jump\t// in\n    tag_121:\n      tag_122\n      jump\t// in\n    tag_120:\n      mload(0x40)\n      tag_123\n      swap2\n      swap1\n      tag_57\n      jump\t// in\n    tag_123:\n      mload(0x40)\n      dup1\n      swap2\n      sub\n      swap1\n      return\n        /* \"contracts/protocol/Vault.sol\":447:471  address[] public markets */\n    tag_25:\n      tag_124\n      0x04\n      dup1\n      calldatasize\n      sub\n      dup2\n      add\n      swap1\n      tag_125\n      swap2\n      swap1\n      tag_49\n      jump\t// in\n    tag_125:\n      tag_126\n      jump\t// in\n    tag_124:\n      mload(0x40)\n      tag_127\n      swap2\n      swap1\n      tag_73\n      jump\t// in\n    tag_127:\n      mload(0x40)\n      dup1\n      swap2\n      sub\n      swap1\n      return\n        /* \"contracts/protocol/Vault.sol\":1610:1809  function withdraw(... */\n    tag_26:\n      tag_128\n      0x04\n      dup1\n      calldatasize\n      sub\n      dup2\n      add\n      swap1\n      tag_129\n      swap2\n      swap1\n      tag_130\n      jump\t// in\n    tag_129:\n      tag_131\n      jump\t// in\n    tag_128:\n      mload(0x40)\n      tag_132\n      swap2\n      swap1\n      tag_42\n      jump\t// in\n    tag_132:\n      mload(0x40)\n      dup1\n      swap2\n      sub\n      swap1\n      return\n        /* \"contracts/token/ERC4626Upgradeable.sol\":3833:4476  function redeem(uint256 shares, address receiver, address owner) public virtual returns (uint256 assets_) {... */\n    tag_27:\n      tag_133\n      0x04\n      dup1\n      calldatasize\n      sub\n      dup2\n      add\n      swap1\n      tag_134\n      swap2\n      swap1\n      tag_130\n      jump\t// in\n    tag_134:\n      tag_135\n      jump\t// in\n    tag_133:\n      mload(0x40)\n      tag_136\n      swap2\n      swap1\n      tag_42\n      jump\t// in\n    tag_136:\n      mload(0x40)\n      dup1\n      swap2\n      sub\n      swap1\n      return\n        /* \"contracts/protocol/Vault.sol\":2003:2159  function deallocateToMarket(... */\n    tag_28:\n      tag_137\n      0x04\n      dup1\n      calldatasize\n      sub\n      dup2\n      add\n      swap1\n      tag_138\n      swap2\n      swap1\n      tag_54\n      jump\t// in\n    tag_138:\n      tag_139\n      jump\t// in\n    tag_137:\n      stop\n        /* \"contracts/token/ERC4626Upgradeable.sol\":1455:1821  function convertToShares(uint256 assets_) public view returns (uint256) {... */\n    tag_29:\n      tag_140\n      0x04\n      dup1\n      calldatasize\n      sub\n      dup2\n      add\n      swap1\n      tag_141\n      swap2\n      swap1\n      tag_49\n      jump\t// in\n    tag_141:\n      tag_142\n      jump\t// in\n    tag_140:\n      mload(0x40)\n      tag_143\n      swap2\n      swap1\n      tag_42\n      jump\t// in\n    tag_143:\n      mload(0x40)\n      dup1\n      swap2\n      sub\n      swap1\n      return\n        /* \"contracts/acess/Ownable.sol\":394:532  function ownershipTransfer(address newOwner) external onlyOwner {... */\n    tag_30:\n      tag_144\n      0x04\n      dup1\n      calldatasize\n      sub\n      dup2\n      add\n      swap1\n      tag_145\n      swap2\n      swap1\n      tag_97\n      jump\t// in\n    tag_145:\n      tag_146\n      jump\t// in\n    tag_144:\n      stop\n        /* \"contracts/token/ERC20Upgradeable.sol\":1994:2134  function allowance(address owner, address spender) public view virtual returns (uint256) {... */\n    tag_31:\n      tag_147\n      0x04\n      dup1\n      calldatasize\n      sub\n      dup2\n      add\n      swap1\n      tag_148\n      swap2\n      swap1\n      tag_149\n      jump\t// in\n    tag_148:\n      tag_150\n      jump\t// in\n    tag_147:\n      mload(0x40)\n      tag_151\n      swap2\n      swap1\n      tag_42\n      jump\t// in\n    tag_151:\n      mload(0x40)\n      dup1\n      swap2\n      sub\n      swap1\n      return\n        /* \"contracts/protocol/Vault.sol\":957:1303  function totalAssets() public view override returns (uint total) {... */\n    tag_40:\n        /* \"contracts/protocol/Vault.sol\":1010:1020  uint total */\n      0x00\n        /* \"contracts/protocol/Vault.sol\":1047:1054  asset() */\n      tag_153\n        /* \"contracts/protocol/Vault.sol\":1047:1052  asset */\n      tag_71\n        /* \"contracts/protocol/Vault.sol\":1047:1054  asset() */\n      jump\t// in\n    tag_153:\n        /* \"contracts/protocol/Vault.sol\":1040:1065  IERC20(asset()).balanceOf */\n      0xffffffffffffffffffffffffffffffffffffffff\n      and\n      0x70a08231\n        /* \"contracts/protocol/Vault.sol\":1074:1078  this */\n      address\n        /* \"contracts/protocol/Vault.sol\":1040:1080  IERC20(asset()).balanceOf(address(this)) */\n      mload(0x40)\n      dup3\n      0xffffffff\n      and\n      0xe0\n      shl\n      dup2\n      mstore\n      0x04\n      add\n      tag_154\n      swap2\n      swap1\n      tag_73\n      jump\t// in\n    tag_154:\n      0x20\n      mload(0x40)\n      dup1\n      dup4\n      sub\n      dup2\n      dup7\n      gas\n      staticcall\n      iszero\n      dup1\n      iszero\n      tag_156\n      jumpi\n      returndatacopy(0x00, 0x00, returndatasize)\n      revert(0x00, returndatasize)\n    tag_156:\n      pop\n      pop\n      pop\n      pop\n      mload(0x40)\n      returndatasize\n      not(0x1f)\n      0x1f\n      dup3\n      add\n      and\n      dup3\n      add\n      dup1\n      0x40\n      mstore\n      pop\n      dup2\n      add\n      swap1\n      tag_157\n      swap2\n      swap1\n      tag_158\n      jump\t// in\n    tag_157:\n        /* \"contracts/protocol/Vault.sol\":1032:1080  total = IERC20(asset()).balanceOf(address(this)) */\n      swap1\n      pop\n        /* \"contracts/protocol/Vault.sol\":1095:1101  uint i */\n      0x00\n        /* \"contracts/protocol/Vault.sol\":1104:1105  0 */\n      0x00\n        /* \"contracts/protocol/Vault.sol\":1095:1105  uint i = 0 */\n      swap1\n      pop\n        /* \"contracts/protocol/Vault.sol\":1090:1297  for (uint i = 0; i < markets.length; ) {... */\n    tag_159:\n        /* \"contracts/protocol/Vault.sol\":1111:1118  markets */\n      0x0b\n        /* \"contracts/protocol/Vault.sol\":1111:1125  markets.length */\n      dup1\n      sload\n      swap1\n      pop\n        /* \"contracts/protocol/Vault.sol\":1107:1108  i */\n      dup2\n        /* \"contracts/protocol/Vault.sol\":1107:1125  i < markets.length */\n      lt\n        /* \"contracts/protocol/Vault.sol\":1090:1297  for (uint i = 0; i < markets.length; ) {... */\n      iszero\n      tag_160\n      jumpi\n        /* \"contracts/protocol/Vault.sol\":1147:1155  isMarket */\n      0x0c\n        /* \"contracts/protocol/Vault.sol\":1147:1167  isMarket[markets[i]] */\n      0x00\n        /* \"contracts/protocol/Vault.sol\":1156:1163  markets */\n      0x0b\n        /* \"contracts/protocol/Vault.sol\":1164:1165  i */\n      dup4\n        /* \"contracts/protocol/Vault.sol\":1156:1166  markets[i] */\n      dup2\n      sload\n      dup2\n      lt\n      tag_162\n      jumpi\n      tag_163\n      tag_164\n      jump\t// in\n    tag_163:\n    tag_162:\n      swap1\n      0x00\n      mstore\n      keccak256(0x00, 0x20)\n      add\n      0x00\n      swap1\n      sload\n      swap1\n      0x0100\n      exp\n      swap1\n      div\n      0xffffffffffffffffffffffffffffffffffffffff\n      and\n        /* \"contracts/protocol/Vault.sol\":1147:1167  isMarket[markets[i]] */\n      0xffffffffffffffffffffffffffffffffffffffff\n      and\n      0xffffffffffffffffffffffffffffffffffffffff\n      and\n      dup2\n      mstore\n      0x20\n      add\n      swap1\n      dup2\n      mstore\n      0x20\n      add\n      0x00\n      keccak256\n      0x00\n      swap1\n      sload\n      swap1\n      0x0100\n      exp\n      swap1\n      div\n      0xff\n      and\n        /* \"contracts/protocol/Vault.sol\":1143:1227  if (isMarket[markets[i]])... */\n      iszero\n      tag_166\n      jumpi\n        /* \"contracts/protocol/Vault.sol\":1202:1209  markets */\n      0x0b\n        /* \"contracts/protocol/Vault.sol\":1210:1211  i */\n      dup2\n        /* \"contracts/protocol/Vault.sol\":1202:1212  markets[i] */\n      dup2\n      sload\n      dup2\n      lt\n      tag_167\n      jumpi\n      tag_168\n      tag_164\n      jump\t// in\n    tag_168:\n    tag_167:\n      swap1\n      0x00\n      mstore\n      keccak256(0x00, 0x20)\n      add\n      0x00\n      swap1\n      sload\n      swap1\n      0x0100\n      exp\n      swap1\n      div\n      0xffffffffffffffffffffffffffffffffffffffff\n      and\n        /* \"contracts/protocol/Vault.sol\":1194:1225  IMarket(markets[i]).assetManage */\n      0xffffffffffffffffffffffffffffffffffffffff\n      and\n      0xc82f6d2f\n        /* \"contracts/protocol/Vault.sol\":1194:1227  IMarket(markets[i]).assetManage() */\n      mload(0x40)\n      dup2\n      0xffffffff\n      and\n      0xe0\n      shl\n      dup2\n      mstore\n      0x04\n      add\n      0x20\n      mload(0x40)\n      dup1\n      dup4\n      sub\n      dup2\n      dup7\n      gas\n      staticcall\n      iszero\n      dup1\n      iszero\n      tag_171\n      jumpi\n      returndatacopy(0x00, 0x00, returndatasize)\n      revert(0x00, returndatasize)\n    tag_171:\n      pop\n      pop\n      pop\n      pop\n      mload(0x40)\n      returndatasize\n      not(0x1f)\n      0x1f\n      dup3\n      add\n      and\n      dup3\n      add\n      dup1\n      0x40\n      mstore\n      pop\n      dup2\n      add\n      swap1\n      tag_172\n      swap2\n      swap1\n      tag_158\n      jump\t// in\n    tag_172:\n        /* \"contracts/protocol/Vault.sol\":1185:1227  total += IMarket(markets[i]).assetManage() */\n      dup3\n      tag_173\n      swap2\n      swap1\n      tag_174\n      jump\t// in\n    tag_173:\n      swap2\n      pop\n        /* \"contracts/protocol/Vault.sol\":1143:1227  if (isMarket[markets[i]])... */\n    tag_166:\n        /* \"contracts/protocol/Vault.sol\":1269:1272  ++i */\n      dup1\n      0x01\n      add\n      swap1\n      pop\n        /* \"contracts/protocol/Vault.sol\":1090:1297  for (uint i = 0; i < markets.length; ) {... */\n      jump(tag_159)\n    tag_160:\n      pop\n        /* \"contracts/protocol/Vault.sol\":957:1303  function totalAssets() public view override returns (uint total) {... */\n      swap1\n      jump\t// out\n        /* \"contracts/token/ERC20Upgradeable.sol\":1510:1593  function name() external view returns (string memory) {... */\n    tag_44:\n        /* \"contracts/token/ERC20Upgradeable.sol\":1549:1562  string memory */\n      0x60\n        /* \"contracts/token/ERC20Upgradeable.sol\":1581:1586  _name */\n      0x01\n        /* \"contracts/token/ERC20Upgradeable.sol\":1574:1586  return _name */\n      dup1\n      sload\n      tag_176\n      swap1\n      tag_177\n      jump\t// in\n    tag_176:\n      dup1\n      0x1f\n      add\n      0x20\n      dup1\n      swap2\n      div\n      mul\n      0x20\n      add\n      mload(0x40)\n      swap1\n      dup2\n      add\n      0x40\n      mstore\n      dup1\n      swap3\n      swap2\n      swap1\n      dup2\n      dup2\n      mstore\n      0x20\n      add\n      dup3\n      dup1\n      sload\n      tag_178\n      swap1\n      tag_177\n      jump\t// in\n    tag_178:\n      dup1\n      iszero\n      tag_179\n      jumpi\n      dup1\n      0x1f\n      lt\n      tag_180\n      jumpi\n      0x0100\n      dup1\n      dup4\n      sload\n      div\n      mul\n      dup4\n      mstore\n      swap2\n      0x20\n      add\n      swap2\n      jump(tag_179)\n    tag_180:\n      dup3\n      add\n      swap2\n      swap1\n      0x00\n      mstore\n      keccak256(0x00, 0x20)\n      swap1\n    tag_181:\n      dup2\n      sload\n      dup2\n      mstore\n      swap1\n      0x01\n      add\n      swap1\n      0x20\n      add\n      dup1\n      dup4\n      gt\n      tag_181\n      jumpi\n      dup3\n      swap1\n      sub\n      0x1f\n      and\n      dup3\n      add\n      swap2\n    tag_179:\n      pop\n      pop\n      pop\n      pop\n      pop\n      swap1\n      pop\n        /* \"contracts/token/ERC20Upgradeable.sol\":1510:1593  function name() external view returns (string memory) {... */\n      swap1\n      jump\t// out\n        /* \"contracts/token/ERC4626Upgradeable.sol\":1827:2190  function convertToAssets(uint256 shares) public view returns (uint256) {... */\n    tag_50:\n        /* \"contracts/token/ERC4626Upgradeable.sol\":1889:1896  uint256 */\n      0x00\n        /* \"contracts/token/ERC4626Upgradeable.sol\":1908:1922  uint256 supply */\n      0x00\n        /* \"contracts/token/ERC4626Upgradeable.sol\":1925:1929  this */\n      address\n        /* \"contracts/token/ERC4626Upgradeable.sol\":1925:1941  this.totalSupply */\n      0xffffffffffffffffffffffffffffffffffffffff\n      and\n      0x18160ddd\n        /* \"contracts/token/ERC4626Upgradeable.sol\":1925:1943  this.totalSupply() */\n      mload(0x40)\n      dup2\n      0xffffffff\n      and\n      0xe0\n      shl\n      dup2\n      mstore\n      0x04\n      add\n      0x20\n      mload(0x40)\n      dup1\n      dup4\n      sub\n      dup2\n      dup7\n      gas\n      staticcall\n      iszero\n      dup1\n      iszero\n      tag_184\n      jumpi\n      returndatacopy(0x00, 0x00, returndatasize)\n      revert(0x00, returndatasize)\n    tag_184:\n      pop\n      pop\n      pop\n      pop\n      mload(0x40)\n      returndatasize\n      not(0x1f)\n      0x1f\n      dup3\n      add\n      and\n      dup3\n      add\n      dup1\n      0x40\n      mstore\n      pop\n      dup2\n      add\n      swap1\n      tag_185\n      swap2\n      swap1\n      tag_158\n      jump\t// in\n    tag_185:\n        /* \"contracts/token/ERC4626Upgradeable.sol\":1908:1943  uint256 supply = this.totalSupply() */\n      swap1\n      pop\n        /* \"contracts/token/ERC4626Upgradeable.sol\":1953:1972  uint256 assetsTotal */\n      0x00\n        /* \"contracts/token/ERC4626Upgradeable.sol\":1975:1988  totalAssets() */\n      tag_186\n        /* \"contracts/token/ERC4626Upgradeable.sol\":1975:1986  totalAssets */\n      tag_40\n        /* \"contracts/token/ERC4626Upgradeable.sol\":1975:1988  totalAssets() */\n      jump\t// in\n    tag_186:\n        /* \"contracts/token/ERC4626Upgradeable.sol\":1953:1988  uint256 assetsTotal = totalAssets() */\n      swap1\n      pop\n        /* \"contracts/token/ERC4626Upgradeable.sol\":2074:2075  0 */\n      0x00\n        /* \"contracts/token/ERC4626Upgradeable.sol\":2064:2070  supply */\n      dup3\n        /* \"contracts/token/ERC4626Upgradeable.sol\":2064:2075  supply == 0 */\n      eq\n        /* \"contracts/token/ERC4626Upgradeable.sol\":2064:2095  supply == 0 || assetsTotal == 0 */\n      dup1\n      tag_187\n      jumpi\n      pop\n        /* \"contracts/token/ERC4626Upgradeable.sol\":2094:2095  0 */\n      0x00\n        /* \"contracts/token/ERC4626Upgradeable.sol\":2079:2090  assetsTotal */\n      dup2\n        /* \"contracts/token/ERC4626Upgradeable.sol\":2079:2095  assetsTotal == 0 */\n      eq\n        /* \"contracts/token/ERC4626Upgradeable.sol\":2064:2095  supply == 0 || assetsTotal == 0 */\n    tag_187:\n        /* \"contracts/token/ERC4626Upgradeable.sol\":2060:2135  if (supply == 0 || assetsTotal == 0) {... */\n      iszero\n      tag_188\n      jumpi\n        /* \"contracts/token/ERC4626Upgradeable.sol\":2118:2124  shares */\n      dup4\n        /* \"contracts/token/ERC4626Upgradeable.sol\":2111:2124  return shares */\n      swap3\n      pop\n      pop\n      pop\n      jump(tag_182)\n        /* \"contracts/token/ERC4626Upgradeable.sol\":2060:2135  if (supply == 0 || assetsTotal == 0) {... */\n    tag_188:\n        /* \"contracts/token/ERC4626Upgradeable.sol\":2177:2183  supply */\n      dup2\n        /* \"contracts/token/ERC4626Upgradeable.sol\":2162:2173  assetsTotal */\n      dup2\n        /* \"contracts/token/ERC4626Upgradeable.sol\":2153:2159  shares */\n      dup6\n        /* \"contracts/token/ERC4626Upgradeable.sol\":2153:2173  shares * assetsTotal */\n      tag_189\n      swap2\n      swap1\n      tag_190\n      jump\t// in\n    tag_189:\n        /* \"contracts/token/ERC4626Upgradeable.sol\":2152:2183  (shares * assetsTotal) / supply */\n      tag_191\n      swap2\n      swap1\n      tag_192\n      jump\t// in\n    tag_191:\n        /* \"contracts/token/ERC4626Upgradeable.sol\":2145:2183  return (shares * assetsTotal) / supply */\n      swap3\n      pop\n      pop\n      pop\n        /* \"contracts/token/ERC4626Upgradeable.sol\":1827:2190  function convertToAssets(uint256 shares) public view returns (uint256) {... */\n    tag_182:\n      swap2\n      swap1\n      pop\n      jump\t// out\n        /* \"contracts/token/ERC20Upgradeable.sol\":2287:2436  function approve(address spender, uint256 amount) external returns (bool) {... */\n    tag_55:\n        /* \"contracts/token/ERC20Upgradeable.sol\":2355:2359  bool */\n      0x00\n        /* \"contracts/token/ERC20Upgradeable.sol\":2371:2408  _approve(msg.sender, spender, amount) */\n      tag_194\n        /* \"contracts/token/ERC20Upgradeable.sol\":2380:2390  msg.sender */\n      caller\n        /* \"contracts/token/ERC20Upgradeable.sol\":2392:2399  spender */\n      dup5\n        /* \"contracts/token/ERC20Upgradeable.sol\":2401:2407  amount */\n      dup5\n        /* \"contracts/token/ERC20Upgradeable.sol\":2371:2379  _approve */\n      tag_195\n        /* \"contracts/token/ERC20Upgradeable.sol\":2371:2408  _approve(msg.sender, spender, amount) */\n      jump\t// in\n    tag_194:\n        /* \"contracts/token/ERC20Upgradeable.sol\":2425:2429  true */\n      0x01\n        /* \"contracts/token/ERC20Upgradeable.sol\":2418:2429  return true */\n      swap1\n      pop\n        /* \"contracts/token/ERC20Upgradeable.sol\":2287:2436  function approve(address spender, uint256 amount) external returns (bool) {... */\n      swap3\n      swap2\n      pop\n      pop\n      jump\t// out\n        /* \"contracts/token/ERC20Upgradeable.sol\":1781:1872  function totalSupply() external view returns (uint256) {... */\n    tag_59:\n        /* \"contracts/token/ERC20Upgradeable.sol\":1827:1834  uint256 */\n      0x00\n        /* \"contracts/token/ERC20Upgradeable.sol\":1853:1865  _totalSupply */\n      sload(0x04)\n        /* \"contracts/token/ERC20Upgradeable.sol\":1846:1865  return _totalSupply */\n      swap1\n      pop\n        /* \"contracts/token/ERC20Upgradeable.sol\":1781:1872  function totalSupply() external view returns (uint256) {... */\n      swap1\n      jump\t// out\n        /* \"contracts/token/ERC20Upgradeable.sol\":2442:2961  function transferFrom(address from, address to, uint256 amount) external returns (bool) {... */\n    tag_64:\n        /* \"contracts/token/ERC20Upgradeable.sol\":2524:2528  bool */\n      0x00\n        /* \"contracts/token/ERC20Upgradeable.sol\":2540:2564  uint256 currentAllowance */\n      0x00\n        /* \"contracts/token/ERC20Upgradeable.sol\":2567:2578  _allowances */\n      0x06\n        /* \"contracts/token/ERC20Upgradeable.sol\":2567:2584  _allowances[from] */\n      0x00\n        /* \"contracts/token/ERC20Upgradeable.sol\":2579:2583  from */\n      dup7\n        /* \"contracts/token/ERC20Upgradeable.sol\":2567:2584  _allowances[from] */\n      0xffffffffffffffffffffffffffffffffffffffff\n      and\n      0xffffffffffffffffffffffffffffffffffffffff\n      and\n      dup2\n      mstore\n      0x20\n      add\n      swap1\n      dup2\n      mstore\n      0x20\n      add\n      0x00\n      keccak256\n        /* \"contracts/token/ERC20Upgradeable.sol\":2567:2596  _allowances[from][msg.sender] */\n      0x00\n        /* \"contracts/token/ERC20Upgradeable.sol\":2585:2595  msg.sender */\n      caller\n        /* \"contracts/token/ERC20Upgradeable.sol\":2567:2596  _allowances[from][msg.sender] */\n      0xffffffffffffffffffffffffffffffffffffffff\n      and\n      0xffffffffffffffffffffffffffffffffffffffff\n      and\n      dup2\n      mstore\n      0x20\n      add\n      swap1\n      dup2\n      mstore\n      0x20\n      add\n      0x00\n      keccak256\n      sload\n        /* \"contracts/token/ERC20Upgradeable.sol\":2540:2596  uint256 currentAllowance = _allowances[from][msg.sender] */\n      swap1\n      pop\n        /* \"contracts/token/ERC20Upgradeable.sol\":2724:2741  type(uint256).max */\n      0xffffffffffffffffffffffffffffffffffffffffffffffffffffffffffffffff\n        /* \"contracts/token/ERC20Upgradeable.sol\":2704:2720  currentAllowance */\n      dup2\n        /* \"contracts/token/ERC20Upgradeable.sol\":2704:2741  currentAllowance != type(uint256).max */\n      eq\n        /* \"contracts/token/ERC20Upgradeable.sol\":2700:2896  if (currentAllowance != type(uint256).max) {... */\n      tag_198\n      jumpi\n        /* \"contracts/token/ERC20Upgradeable.sol\":2785:2791  amount */\n      dup3\n        /* \"contracts/token/ERC20Upgradeable.sol\":2765:2781  currentAllowance */\n      dup2\n        /* \"contracts/token/ERC20Upgradeable.sol\":2765:2791  currentAllowance >= amount */\n      lt\n      iszero\n        /* \"contracts/token/ERC20Upgradeable.sol\":2757:2818  require(currentAllowance >= amount, \"INSUFFICIENT_ALLOWANCE\") */\n      tag_199\n      jumpi\n      mload(0x40)\n      0x08c379a000000000000000000000000000000000000000000000000000000000\n      dup2\n      mstore\n      0x04\n      add\n      tag_200\n      swap1\n      tag_201\n      jump\t// in\n    tag_200:\n      mload(0x40)\n      dup1\n      swap2\n      sub\n      swap1\n      revert\n    tag_199:\n        /* \"contracts/token/ERC20Upgradeable.sol\":2832:2885  _approve(from, msg.sender, currentAllowance - amount) */\n      tag_202\n        /* \"contracts/token/ERC20Upgradeable.sol\":2841:2845  from */\n      dup6\n        /* \"contracts/token/ERC20Upgradeable.sol\":2847:2857  msg.sender */\n      caller\n        /* \"contracts/token/ERC20Upgradeable.sol\":2878:2884  amount */\n      dup6\n        /* \"contracts/token/ERC20Upgradeable.sol\":2859:2875  currentAllowance */\n      dup5\n        /* \"contracts/token/ERC20Upgradeable.sol\":2859:2884  currentAllowance - amount */\n      tag_203\n      swap2\n      swap1\n      tag_204\n      jump\t// in\n    tag_203:\n        /* \"contracts/token/ERC20Upgradeable.sol\":2832:2840  _approve */\n      tag_195\n        /* \"contracts/token/ERC20Upgradeable.sol\":2832:2885  _approve(from, msg.sender, currentAllowance - amount) */\n      jump\t// in\n    tag_202:\n        /* \"contracts/token/ERC20Upgradeable.sol\":2700:2896  if (currentAllowance != type(uint256).max) {... */\n    tag_198:\n        /* \"contracts/token/ERC20Upgradeable.sol\":2906:2933  _transfer(from, to, amount) */\n      tag_205\n        /* \"contracts/token/ERC20Upgradeable.sol\":2916:2920  from */\n      dup6\n        /* \"contracts/token/ERC20Upgradeable.sol\":2922:2924  to */\n      dup6\n        /* \"contracts/token/ERC20Upgradeable.sol\":2926:2932  amount */\n      dup6\n        /* \"contracts/token/ERC20Upgradeable.sol\":2906:2915  _transfer */\n      tag_206\n        /* \"contracts/token/ERC20Upgradeable.sol\":2906:2933  _transfer(from, to, amount) */\n      jump\t// in\n    tag_205:\n        /* \"contracts/token/ERC20Upgradeable.sol\":2950:2954  true */\n      0x01\n        /* \"contracts/token/ERC20Upgradeable.sol\":2943:2954  return true */\n      swap2\n      pop\n      pop\n        /* \"contracts/token/ERC20Upgradeable.sol\":2442:2961  function transferFrom(address from, address to, uint256 amount) external returns (bool) {... */\n      swap4\n      swap3\n      pop\n      pop\n      pop\n      jump\t// out\n        /* \"contracts/token/ERC20Upgradeable.sol\":1692:1775  function decimals() external view returns (uint8) {... */\n    tag_67:\n        /* \"contracts/token/ERC20Upgradeable.sol\":1735:1740  uint8 */\n      0x00\n        /* \"contracts/token/ERC20Upgradeable.sol\":1759:1768  _decimals */\n      0x03\n      0x00\n      swap1\n      sload\n      swap1\n      0x0100\n      exp\n      swap1\n      div\n      0xff\n      and\n        /* \"contracts/token/ERC20Upgradeable.sol\":1752:1768  return _decimals */\n      swap1\n      pop\n        /* \"contracts/token/ERC20Upgradeable.sol\":1692:1775  function decimals() external view returns (uint8) {... */\n      swap1\n      jump\t// out\n        /* \"contracts/token/ERC4626Upgradeable.sol\":1296:1382  function asset() public view returns (address) {... */\n    tag_71:\n        /* \"contracts/token/ERC4626Upgradeable.sol\":1334:1341  address */\n      0x00\n        /* \"contracts/token/ERC4626Upgradeable.sol\":1368:1374  _asset */\n      0x07\n      0x00\n      swap1\n      sload\n      swap1\n      0x0100\n      exp\n      swap1\n      div\n      0xffffffffffffffffffffffffffffffffffffffff\n      and\n        /* \"contracts/token/ERC4626Upgradeable.sol\":1353:1375  return address(_asset) */\n      swap1\n      pop\n        /* \"contracts/token/ERC4626Upgradeable.sol\":1296:1382  function asset() public view returns (address) {... */\n      swap1\n      jump\t// out\n        /* \"contracts/protocol/Vault.sol\":392:410  uint256 public apy */\n    tag_75:\n      sload(0x09)\n      dup2\n      jump\t// out\n        /* \"contracts/protocol/Vault.sol\":524:951  function initialize(... */\n    tag_80:\n        /* \"contracts/utils/Init.sol\":1076:1088  _initialized */\n      0x00\n      0x00\n      swap1\n      sload\n      swap1\n      0x0100\n      exp\n      swap1\n      div\n      0xff\n      and\n        /* \"contracts/utils/Init.sol\":1075:1088  !_initialized */\n      iszero\n        /* \"contracts/utils/Init.sol\":1075:1105  !_initialized || _initializing */\n      dup1\n      tag_210\n      jumpi\n      pop\n        /* \"contracts/utils/Init.sol\":1092:1105  _initializing */\n      0x00\n      0x01\n      swap1\n      sload\n      swap1\n      0x0100\n      exp\n      swap1\n      div\n      0xff\n      and\n        /* \"contracts/utils/Init.sol\":1075:1105  !_initialized || _initializing */\n    tag_210:\n        /* \"contracts/utils/Init.sol\":1067:1129  require(!_initialized || _initializing, \"ALREADY_INITIALIZED\") */\n      tag_211\n      jumpi\n      mload(0x40)\n      0x08c379a000000000000000000000000000000000000000000000000000000000\n      dup2\n      mstore\n      0x04\n      add\n      tag_212\n      swap1\n      tag_213\n      jump\t// in\n    tag_212:\n      mload(0x40)\n      dup1\n      swap2\n      sub\n      swap1\n      revert\n    tag_211:\n        /* \"contracts/utils/Init.sol\":1139:1154  bool isTopLevel */\n      0x00\n        /* \"contracts/utils/Init.sol\":1158:1171  _initializing */\n      0x00\n      0x01\n      swap1\n      sload\n      swap1\n      0x0100\n      exp\n      swap1\n      div\n      0xff\n      and\n        /* \"contracts/utils/Init.sol\":1157:1171  !_initializing */\n      iszero\n        /* \"contracts/utils/Init.sol\":1139:1171  bool isTopLevel = !_initializing */\n      swap1\n      pop\n        /* \"contracts/utils/Init.sol\":1186:1196  isTopLevel */\n      dup1\n        /* \"contracts/utils/Init.sol\":1182:1244  if (isTopLevel) { _initializing = true; _initialized = true; } */\n      iszero\n      tag_214\n      jumpi\n        /* \"contracts/utils/Init.sol\":1216:1220  true */\n      0x01\n        /* \"contracts/utils/Init.sol\":1200:1213  _initializing */\n      0x00\n      0x01\n        /* \"contracts/utils/Init.sol\":1200:1220  _initializing = true */\n      0x0100\n      exp\n      dup2\n      sload\n      dup2\n      0xff\n      mul\n      not\n      and\n      swap1\n      dup4\n      iszero\n      iszero\n      mul\n      or\n      swap1\n      sstore\n      pop\n        /* \"contracts/utils/Init.sol\":1237:1241  true */\n      0x01\n        /* \"contracts/utils/Init.sol\":1222:1234  _initialized */\n      0x00\n      0x00\n        /* \"contracts/utils/Init.sol\":1222:1241  _initialized = true */\n      0x0100\n      exp\n      dup2\n      sload\n      dup2\n      0xff\n      mul\n      not\n      and\n      swap1\n      dup4\n      iszero\n      iszero\n      mul\n      or\n      swap1\n      sstore\n      pop\n        /* \"contracts/utils/Init.sol\":1182:1244  if (isTopLevel) { _initializing = true; _initialized = true; } */\n    tag_214:\n        /* \"contracts/protocol/Vault.sol\":786:808  __Ownable_init(owner_) */\n      tag_216\n        /* \"contracts/protocol/Vault.sol\":801:807  owner_ */\n      dup12\n        /* \"contracts/protocol/Vault.sol\":786:800  __Ownable_init */\n      tag_217\n        /* \"contracts/protocol/Vault.sol\":786:808  __Ownable_init(owner_) */\n      jump\t// in\n    tag_216:\n        /* \"contracts/protocol/Vault.sol\":818:866  __ERC4626_init(asset_, shareName_, shareSymbol_) */\n      tag_218\n        /* \"contracts/protocol/Vault.sol\":833:839  asset_ */\n      dup11\n        /* \"contracts/protocol/Vault.sol\":841:851  shareName_ */\n      dup9\n      dup9\n        /* \"contracts/protocol/Vault.sol\":818:866  __ERC4626_init(asset_, shareName_, shareSymbol_) */\n      dup1\n      dup1\n      0x1f\n      add\n      0x20\n      dup1\n      swap2\n      div\n      mul\n      0x20\n      add\n      mload(0x40)\n      swap1\n      dup2\n      add\n      0x40\n      mstore\n      dup1\n      swap4\n      swap3\n      swap2\n      swap1\n      dup2\n      dup2\n      mstore\n      0x20\n      add\n      dup4\n      dup4\n      dup1\n      dup3\n      dup5\n      calldatacopy\n      0x00\n      dup2\n      dup5\n      add\n      mstore\n      not(0x1f)\n      0x1f\n      dup3\n      add\n      and\n      swap1\n      pop\n      dup1\n      dup4\n      add\n      swap3\n      pop\n      pop\n      pop\n      pop\n      pop\n      pop\n      pop\n        /* \"contracts/protocol/Vault.sol\":853:865  shareSymbol_ */\n      dup8\n      dup8\n        /* \"contracts/protocol/Vault.sol\":818:866  __ERC4626_init(asset_, shareName_, shareSymbol_) */\n      dup1\n      dup1\n      0x1f\n      add\n      0x20\n      dup1\n      swap2\n      div\n      mul\n      0x20\n      add\n      mload(0x40)\n      swap1\n      dup2\n      add\n      0x40\n      mstore\n      dup1\n      swap4\n      swap3\n      swap2\n      swap1\n      dup2\n      dup2\n      mstore\n      0x20\n      add\n      dup4\n      dup4\n      dup1\n      dup3\n      dup5\n      calldatacopy\n      0x00\n      dup2\n      dup5\n      add\n      mstore\n      not(0x1f)\n      0x1f\n      dup3\n      add\n      and\n      swap1\n      pop\n      dup1\n      dup4\n      add\n      swap3\n      pop\n      pop\n      pop\n      pop\n      pop\n      pop\n      pop\n        /* \"contracts/protocol/Vault.sol\":818:832  __ERC4626_init */\n      tag_219\n        /* \"contracts/protocol/Vault.sol\":818:866  __ERC4626_init(asset_, shareName_, shareSymbol_) */\n      jump\t// in\n    tag_218:\n        /* \"contracts/protocol/Vault.sol\":884:890  title_ */\n      dup9\n      dup9\n        /* \"contracts/protocol/Vault.sol\":876:881  title */\n      0x08\n        /* \"contracts/protocol/Vault.sol\":876:890  title = title_ */\n      swap2\n      dup3\n      tag_220\n      swap3\n      swap2\n      swap1\n      tag_221\n      jump\t// in\n    tag_220:\n      pop\n        /* \"contracts/protocol/Vault.sol\":906:910  apy_ */\n      dup3\n        /* \"contracts/protocol/Vault.sol\":900:903  apy */\n      0x09\n        /* \"contracts/protocol/Vault.sol\":900:910  apy = apy_ */\n      dup2\n      swap1\n      sstore\n      pop\n        /* \"contracts/protocol/Vault.sol\":933:944  minDeposit_ */\n      dup2\n        /* \"contracts/protocol/Vault.sol\":920:930  minDeposit */\n      0x0a\n        /* \"contracts/protocol/Vault.sol\":920:944  minDeposit = minDeposit_ */\n      dup2\n      swap1\n      sstore\n      pop\n        /* \"contracts/utils/Init.sol\":1270:1280  isTopLevel */\n      dup1\n        /* \"contracts/utils/Init.sol\":1266:1303  if (isTopLevel) _initializing = false */\n      iszero\n      tag_222\n      jumpi\n        /* \"contracts/utils/Init.sol\":1298:1303  false */\n      0x00\n        /* \"contracts/utils/Init.sol\":1282:1295  _initializing */\n      0x00\n      0x01\n        /* \"contracts/utils/Init.sol\":1282:1303  _initializing = false */\n      0x0100\n      exp\n      dup2\n      sload\n      dup2\n      0xff\n      mul\n      not\n      and\n      swap1\n      dup4\n      iszero\n      iszero\n      mul\n      or\n      swap1\n      sstore\n      pop\n        /* \"contracts/utils/Init.sol\":1266:1303  if (isTopLevel) _initializing = false */\n    tag_222:\n        /* \"contracts/utils/Init.sol\":1057:1310  {... */\n      pop\n        /* \"contracts/protocol/Vault.sol\":524:951  function initialize(... */\n      pop\n      pop\n      pop\n      pop\n      pop\n      pop\n      pop\n      pop\n      pop\n      pop\n      jump\t// out\n        /* \"contracts/protocol/Vault.sol\":416:441  uint256 public minDeposit */\n    tag_82:\n      sload(0x0a)\n      dup2\n      jump\t// out\n        /* \"contracts/protocol/Vault.sol\":367:386  string public title */\n    tag_85:\n      0x08\n      dup1\n      sload\n      tag_223\n      swap1\n      tag_177\n      jump\t// in\n    tag_223:\n      dup1\n      0x1f\n      add\n      0x20\n      dup1\n      swap2\n      div\n      mul\n      0x20\n      add\n      mload(0x40)\n      swap1\n      dup2\n      add\n      0x40\n      mstore\n      dup1\n      swap3\n      swap2\n      swap1\n      dup2\n      dup2\n      mstore\n      0x20\n      add\n      dup3\n      dup1\n      sload\n      tag_224\n      swap1\n      tag_177\n      jump\t// in\n    tag_224:\n      dup1\n      iszero\n      tag_225\n      jumpi\n      dup1\n      0x1f\n      lt\n      tag_226\n      jumpi\n      0x0100\n      dup1\n      dup4\n      sload\n      div\n      mul\n      dup4\n      mstore\n      swap2\n      0x20\n      add\n      swap2\n      jump(tag_225)\n    tag_226:\n      dup3\n      add\n      swap2\n      swap1\n      0x00\n      mstore\n      keccak256(0x00, 0x20)\n      swap1\n    tag_227:\n      dup2\n      sload\n      dup2\n      mstore\n      swap1\n      0x01\n      add\n      swap1\n      0x20\n      add\n      dup1\n      dup4\n      gt\n      tag_227\n      jumpi\n      dup3\n      swap1\n      sub\n      0x1f\n      and\n      dup3\n      add\n      swap2\n    tag_225:\n      pop\n      pop\n      pop\n      pop\n      pop\n      dup2\n      jump\t// out\n        /* \"contracts/protocol/Vault.sol\":1815:1997  function allocateToMarket(address market_, uint amount) external onlyOwner {... */\n    tag_89:\n        /* \"contracts/acess/Ownable.sol\":213:218  owner */\n      0x00\n      0x02\n      swap1\n      sload\n      swap1\n      0x0100\n      exp\n      swap1\n      div\n      0xffffffffffffffffffffffffffffffffffffffff\n      and\n        /* \"contracts/acess/Ownable.sol\":199:218  msg.sender == owner */\n      0xffffffffffffffffffffffffffffffffffffffff\n      and\n        /* \"contracts/acess/Ownable.sol\":199:209  msg.sender */\n      caller\n        /* \"contracts/acess/Ownable.sol\":199:218  msg.sender == owner */\n      0xffffffffffffffffffffffffffffffffffffffff\n      and\n      eq\n        /* \"contracts/acess/Ownable.sol\":191:219  require(msg.sender == owner) */\n      tag_229\n      jumpi\n      revert(0x00, 0x00)\n    tag_229:\n        /* \"contracts/protocol/Vault.sol\":1907:1914  asset() */\n      tag_231\n        /* \"contracts/protocol/Vault.sol\":1907:1912  asset */\n      tag_71\n        /* \"contracts/protocol/Vault.sol\":1907:1914  asset() */\n      jump\t// in\n    tag_231:\n        /* \"contracts/protocol/Vault.sol\":1900:1924  IERC20(asset()).transfer */\n      0xffffffffffffffffffffffffffffffffffffffff\n      and\n      0xa9059cbb\n        /* \"contracts/protocol/Vault.sol\":1925:1932  market_ */\n      dup4\n        /* \"contracts/protocol/Vault.sol\":1934:1940  amount */\n      dup4\n        /* \"contracts/protocol/Vault.sol\":1900:1941  IERC20(asset()).transfer(market_, amount) */\n      mload(0x40)\n      dup4\n      0xffffffff\n      and\n      0xe0\n      shl\n      dup2\n      mstore\n      0x04\n      add\n      tag_232\n      swap3\n      swap2\n      swap1\n      tag_233\n      jump\t// in\n    tag_232:\n      0x20\n      mload(0x40)\n      dup1\n      dup4\n      sub\n      dup2\n      0x00\n      dup8\n      gas\n      call\n      iszero\n      dup1\n      iszero\n      tag_235\n      jumpi\n      returndatacopy(0x00, 0x00, returndatasize)\n      revert(0x00, returndatasize)\n    tag_235:\n      pop\n      pop\n      pop\n      pop\n      mload(0x40)\n      returndatasize\n      not(0x1f)\n      0x1f\n      dup3\n      add\n      and\n      dup3\n      add\n      dup1\n      0x40\n      mstore\n      pop\n      dup2\n      add\n      swap1\n      tag_236\n      swap2\n      swap1\n      tag_237\n      jump\t// in\n    tag_236:\n      pop\n        /* \"contracts/protocol/Vault.sol\":1959:1966  market_ */\n      dup2\n        /* \"contracts/protocol/Vault.sol\":1951:1982  IMarket(market_).onVaultDeposit */\n      0xffffffffffffffffffffffffffffffffffffffff\n      and\n      0x4b92917a\n        /* \"contracts/protocol/Vault.sol\":1983:1989  amount */\n      dup3\n        /* \"contracts/protocol/Vault.sol\":1951:1990  IMarket(market_).onVaultDeposit(amount) */\n      mload(0x40)\n      dup3\n      0xffffffff\n      and\n      0xe0\n      shl\n      dup2\n      mstore\n      0x04\n      add\n      tag_238\n      swap2\n      swap1\n      tag_42\n      jump\t// in\n    tag_238:\n      0x00\n      mload(0x40)\n      dup1\n      dup4\n      sub\n      dup2\n      0x00\n      dup8\n      dup1\n      extcodesize\n      iszero\n      dup1\n      iszero\n      tag_239\n      jumpi\n      revert(0x00, 0x00)\n    tag_239:\n      pop\n      gas\n      call\n      iszero\n      dup1\n      iszero\n      tag_241\n      jumpi\n      returndatacopy(0x00, 0x00, returndatasize)\n      revert(0x00, returndatasize)\n    tag_241:\n      pop\n      pop\n      pop\n      pop\n        /* \"contracts/protocol/Vault.sol\":1815:1997  function allocateToMarket(address market_, uint amount) external onlyOwner {... */\n      pop\n      pop\n      jump\t// out\n        /* \"contracts/protocol/Vault.sol\":1437:1604  function deposit(... */\n    tag_93:\n        /* \"contracts/protocol/Vault.sol\":1533:1544  uint shares */\n      0x00\n        /* \"contracts/protocol/Vault.sol\":1565:1597  super.deposit(assets_, receiver) */\n      tag_243\n        /* \"contracts/protocol/Vault.sol\":1579:1586  assets_ */\n      dup4\n        /* \"contracts/protocol/Vault.sol\":1588:1596  receiver */\n      dup4\n        /* \"contracts/protocol/Vault.sol\":1565:1578  super.deposit */\n      tag_244\n        /* \"contracts/protocol/Vault.sol\":1565:1597  super.deposit(assets_, receiver) */\n      jump\t// in\n    tag_243:\n        /* \"contracts/protocol/Vault.sol\":1556:1597  shares = super.deposit(assets_, receiver) */\n      swap1\n      pop\n        /* \"contracts/protocol/Vault.sol\":1437:1604  function deposit(... */\n      swap3\n      swap2\n      pop\n      pop\n      jump\t// out\n        /* \"contracts/protocol/Vault.sol\":477:517  mapping(address => bool) public isMarket */\n    tag_98:\n      mstore(0x20, 0x0c)\n      dup1\n      0x00\n      mstore\n      keccak256(0x00, 0x40)\n      0x00\n      swap2\n      pop\n      sload\n      swap1\n      0x0100\n      exp\n      swap1\n      div\n      0xff\n      and\n      dup2\n      jump\t// out\n        /* \"contracts/token/ERC20Upgradeable.sol\":1878:1988  function balanceOf(address account) external view returns (uint256) {... */\n    tag_102:\n        /* \"contracts/token/ERC20Upgradeable.sol\":1937:1944  uint256 */\n      0x00\n        /* \"contracts/token/ERC20Upgradeable.sol\":1963:1972  _balances */\n      0x05\n        /* \"contracts/token/ERC20Upgradeable.sol\":1963:1981  _balances[account] */\n      0x00\n        /* \"contracts/token/ERC20Upgradeable.sol\":1973:1980  account */\n      dup4\n        /* \"contracts/token/ERC20Upgradeable.sol\":1963:1981  _balances[account] */\n      0xffffffffffffffffffffffffffffffffffffffff\n      and\n      0xffffffffffffffffffffffffffffffffffffffff\n      and\n      dup2\n      mstore\n      0x20\n      add\n      swap1\n      dup2\n      mstore\n      0x20\n      add\n      0x00\n      keccak256\n      sload\n        /* \"contracts/token/ERC20Upgradeable.sol\":1956:1981  return _balances[account] */\n      swap1\n      pop\n        /* \"contracts/token/ERC20Upgradeable.sol\":1878:1988  function balanceOf(address account) external view returns (uint256) {... */\n      swap2\n      swap1\n      pop\n      jump\t// out\n        /* \"contracts/acess/Ownable.sol\":133:153  address public owner */\n    tag_105:\n      0x00\n      0x02\n      swap1\n      sload\n      swap1\n      0x0100\n      exp\n      swap1\n      div\n      0xffffffffffffffffffffffffffffffffffffffff\n      and\n      dup2\n      jump\t// out\n        /* \"contracts/protocol/Vault.sol\":1308:1431  function idleLiquidity() public view returns (uint shares) {... */\n    tag_108:\n        /* \"contracts/protocol/Vault.sol\":1354:1365  uint shares */\n      0x00\n        /* \"contracts/protocol/Vault.sol\":1391:1398  asset() */\n      tag_247\n        /* \"contracts/protocol/Vault.sol\":1391:1396  asset */\n      tag_71\n        /* \"contracts/protocol/Vault.sol\":1391:1398  asset() */\n      jump\t// in\n    tag_247:\n        /* \"contracts/protocol/Vault.sol\":1384:1409  IERC20(asset()).balanceOf */\n      0xffffffffffffffffffffffffffffffffffffffff\n      and\n      0x70a08231\n        /* \"contracts/protocol/Vault.sol\":1418:1422  this */\n      address\n        /* \"contracts/protocol/Vault.sol\":1384:1424  IERC20(asset()).balanceOf(address(this)) */\n      mload(0x40)\n      dup3\n      0xffffffff\n      and\n      0xe0\n      shl\n      dup2\n      mstore\n      0x04\n      add\n      tag_248\n      swap2\n      swap1\n      tag_73\n      jump\t// in\n    tag_248:\n      0x20\n      mload(0x40)\n      dup1\n      dup4\n      sub\n      dup2\n      dup7\n      gas\n      staticcall\n      iszero\n      dup1\n      iszero\n      tag_250\n      jumpi\n      returndatacopy(0x00, 0x00, returndatasize)\n      revert(0x00, returndatasize)\n    tag_250:\n      pop\n      pop\n      pop\n      pop\n      mload(0x40)\n      returndatasize\n      not(0x1f)\n      0x1f\n      dup3\n      add\n      and\n      dup3\n      add\n      dup1\n      0x40\n      mstore\n      pop\n      dup2\n      add\n      swap1\n      tag_251\n      swap2\n      swap1\n      tag_158\n      jump\t// in\n    tag_251:\n        /* \"contracts/protocol/Vault.sol\":1377:1424  return IERC20(asset()).balanceOf(address(this)) */\n      swap1\n      pop\n        /* \"contracts/protocol/Vault.sol\":1308:1431  function idleLiquidity() public view returns (uint shares) {... */\n      swap1\n      jump\t// out\n        /* \"contracts/protocol/Vault.sol\":2165:2292  function addMarket(address market_) external onlyOwner {... */\n    tag_112:\n        /* \"contracts/acess/Ownable.sol\":213:218  owner */\n      0x00\n      0x02\n      swap1\n      sload\n      swap1\n      0x0100\n      exp\n      swap1\n      div\n      0xffffffffffffffffffffffffffffffffffffffff\n      and\n        /* \"contracts/acess/Ownable.sol\":199:218  msg.sender == owner */\n      0xffffffffffffffffffffffffffffffffffffffff\n      and\n        /* \"contracts/acess/Ownable.sol\":199:209  msg.sender */\n      caller\n        /* \"contracts/acess/Ownable.sol\":199:218  msg.sender == owner */\n      0xffffffffffffffffffffffffffffffffffffffff\n      and\n      eq\n        /* \"contracts/acess/Ownable.sol\":191:219  require(msg.sender == owner) */\n      tag_253\n      jumpi\n      revert(0x00, 0x00)\n    tag_253:\n        /* \"contracts/protocol/Vault.sol\":2250:2254  true */\n      0x01\n        /* \"contracts/protocol/Vault.sol\":2230:2238  isMarket */\n      0x0c\n        /* \"contracts/protocol/Vault.sol\":2230:2247  isMarket[market_] */\n      0x00\n        /* \"contracts/protocol/Vault.sol\":2239:2246  market_ */\n      dup4\n        /* \"contracts/protocol/Vault.sol\":2230:2247  isMarket[market_] */\n      0xffffffffffffffffffffffffffffffffffffffff\n      and\n      0xffffffffffffffffffffffffffffffffffffffff\n      and\n      dup2\n      mstore\n      0x20\n      add\n      swap1\n      dup2\n      mstore\n      0x20\n      add\n      0x00\n      keccak256\n      0x00\n        /* \"contracts/protocol/Vault.sol\":2230:2254  isMarket[market_] = true */\n      0x0100\n      exp\n      dup2\n      sload\n      dup2\n      0xff\n      mul\n      not\n      and\n      swap1\n      dup4\n      iszero\n      iszero\n      mul\n      or\n      swap1\n      sstore\n      pop\n        /* \"contracts/protocol/Vault.sol\":2264:2271  markets */\n      0x0b\n        /* \"contracts/protocol/Vault.sol\":2277:2284  market_ */\n      dup2\n        /* \"contracts/protocol/Vault.sol\":2264:2285  markets.push(market_) */\n      swap1\n      dup1\n      0x01\n      dup2\n      sload\n      add\n      dup1\n      dup3\n      sstore\n      dup1\n      swap2\n      pop\n      pop\n      0x01\n      swap1\n      sub\n      swap1\n      0x00\n      mstore\n      keccak256(0x00, 0x20)\n      add\n      0x00\n      swap1\n      swap2\n      swap1\n      swap2\n      swap1\n      swap2\n      0x0100\n      exp\n      dup2\n      sload\n      dup2\n      0xffffffffffffffffffffffffffffffffffffffff\n      mul\n      not\n      and\n      swap1\n      dup4\n      0xffffffffffffffffffffffffffffffffffffffff\n      and\n      mul\n      or\n      swap1\n      sstore\n      pop\n        /* \"contracts/protocol/Vault.sol\":2165:2292  function addMarket(address market_) external onlyOwner {... */\n      pop\n      jump\t// out\n        /* \"contracts/token/ERC4626Upgradeable.sol\":2595:2985  function mint(uint256 shares, address receiver) public virtual returns (uint256 assets_) {... */\n    tag_115:\n        /* \"contracts/token/ERC4626Upgradeable.sol\":2667:2682  uint256 assets_ */\n      0x00\n        /* \"contracts/token/ERC4626Upgradeable.sol\":2711:2712  0 */\n      0x00\n        /* \"contracts/token/ERC4626Upgradeable.sol\":2702:2708  shares */\n      dup4\n        /* \"contracts/token/ERC4626Upgradeable.sol\":2702:2712  shares > 0 */\n      gt\n        /* \"contracts/token/ERC4626Upgradeable.sol\":2694:2728  require(shares > 0, \"ZERO_SHARES\") */\n      tag_257\n      jumpi\n      mload(0x40)\n      0x08c379a000000000000000000000000000000000000000000000000000000000\n      dup2\n      mstore\n      0x04\n      add\n      tag_258\n      swap1\n      tag_259\n      jump\t// in\n    tag_258:\n      mload(0x40)\n      dup1\n      swap2\n      sub\n      swap1\n      revert\n    tag_257:\n        /* \"contracts/token/ERC4626Upgradeable.sol\":2749:2772  convertToAssets(shares) */\n      tag_260\n        /* \"contracts/token/ERC4626Upgradeable.sol\":2765:2771  shares */\n      dup4\n        /* \"contracts/token/ERC4626Upgradeable.sol\":2749:2764  convertToAssets */\n      tag_50\n        /* \"contracts/token/ERC4626Upgradeable.sol\":2749:2772  convertToAssets(shares) */\n      jump\t// in\n    tag_260:\n        /* \"contracts/token/ERC4626Upgradeable.sol\":2739:2772  assets_ = convertToAssets(shares) */\n      swap1\n      pop\n        /* \"contracts/token/ERC4626Upgradeable.sol\":2800:2801  0 */\n      0x00\n        /* \"contracts/token/ERC4626Upgradeable.sol\":2790:2797  assets_ */\n      dup2\n        /* \"contracts/token/ERC4626Upgradeable.sol\":2790:2801  assets_ > 0 */\n      gt\n        /* \"contracts/token/ERC4626Upgradeable.sol\":2782:2817  require(assets_ > 0, \"ZERO_ASSETS\") */\n      tag_261\n      jumpi\n      mload(0x40)\n      0x08c379a000000000000000000000000000000000000000000000000000000000\n      dup2\n      mstore\n      0x04\n      add\n      tag_262\n      swap1\n      tag_263\n      jump\t// in\n    tag_262:\n      mload(0x40)\n      dup1\n      swap2\n      sub\n      swap1\n      revert\n    tag_261:\n        /* \"contracts/token/ERC4626Upgradeable.sol\":2828:2834  _asset */\n      0x07\n      0x00\n      swap1\n      sload\n      swap1\n      0x0100\n      exp\n      swap1\n      div\n      0xffffffffffffffffffffffffffffffffffffffff\n      and\n        /* \"contracts/token/ERC4626Upgradeable.sol\":2828:2847  _asset.transferFrom */\n      0xffffffffffffffffffffffffffffffffffffffff\n      and\n      0x23b872dd\n        /* \"contracts/token/ERC4626Upgradeable.sol\":2848:2858  msg.sender */\n      caller\n        /* \"contracts/token/ERC4626Upgradeable.sol\":2868:2872  this */\n      address\n        /* \"contracts/token/ERC4626Upgradeable.sol\":2875:2882  assets_ */\n      dup5\n        /* \"contracts/token/ERC4626Upgradeable.sol\":2828:2883  _asset.transferFrom(msg.sender, address(this), assets_) */\n      mload(0x40)\n      dup5\n      0xffffffff\n      and\n      0xe0\n      shl\n      dup2\n      mstore\n      0x04\n      add\n      tag_264\n      swap4\n      swap3\n      swap2\n      swap1\n      tag_265\n      jump\t// in\n    tag_264:\n      0x20\n      mload(0x40)\n      dup1\n      dup4\n      sub\n      dup2\n      0x00\n      dup8\n      gas\n      call\n      iszero\n      dup1\n      iszero\n      tag_267\n      jumpi\n      returndatacopy(0x00, 0x00, returndatasize)\n      revert(0x00, returndatasize)\n    tag_267:\n      pop\n      pop\n      pop\n      pop\n      mload(0x40)\n      returndatasize\n      not(0x1f)\n      0x1f\n      dup3\n      add\n      and\n      dup3\n      add\n      dup1\n      0x40\n      mstore\n      pop\n      dup2\n      add\n      swap1\n      tag_268\n      swap2\n      swap1\n      tag_237\n      jump\t// in\n    tag_268:\n      pop\n        /* \"contracts/token/ERC4626Upgradeable.sol\":2893:2916  _mint(receiver, shares) */\n      tag_269\n        /* \"contracts/token/ERC4626Upgradeable.sol\":2899:2907  receiver */\n      dup3\n        /* \"contracts/token/ERC4626Upgradeable.sol\":2909:2915  shares */\n      dup5\n        /* \"contracts/token/ERC4626Upgradeable.sol\":2893:2898  _mint */\n      tag_270\n        /* \"contracts/token/ERC4626Upgradeable.sol\":2893:2916  _mint(receiver, shares) */\n      jump\t// in\n    tag_269:\n        /* \"contracts/token/ERC4626Upgradeable.sol\":2952:2960  receiver */\n      dup2\n        /* \"contracts/token/ERC4626Upgradeable.sol\":2932:2978  Deposit(msg.sender, receiver, assets_, shares) */\n      0xffffffffffffffffffffffffffffffffffffffff\n      and\n        /* \"contracts/token/ERC4626Upgradeable.sol\":2940:2950  msg.sender */\n      caller\n        /* \"contracts/token/ERC4626Upgradeable.sol\":2932:2978  Deposit(msg.sender, receiver, assets_, shares) */\n      0xffffffffffffffffffffffffffffffffffffffff\n      and\n      0xdcbc1c05240f31ff3ad067ef1ee35ce4997762752e3a095284754544f4c709d7\n        /* \"contracts/token/ERC4626Upgradeable.sol\":2962:2969  assets_ */\n      dup4\n        /* \"contracts/token/ERC4626Upgradeable.sol\":2971:2977  shares */\n      dup7\n        /* \"contracts/token/ERC4626Upgradeable.sol\":2932:2978  Deposit(msg.sender, receiver, assets_, shares) */\n      mload(0x40)\n      tag_271\n      swap3\n      swap2\n      swap1\n      tag_272\n      jump\t// in\n    tag_271:\n      mload(0x40)\n      dup1\n      swap2\n      sub\n      swap1\n      log3\n        /* \"contracts/token/ERC4626Upgradeable.sol\":2595:2985  function mint(uint256 shares, address receiver) public virtual returns (uint256 assets_) {... */\n      swap3\n      swap2\n      pop\n      pop\n      jump\t// out\n        /* \"contracts/token/ERC20Upgradeable.sol\":1599:1686  function symbol() external view returns (string memory) {... */\n    tag_118:\n        /* \"contracts/token/ERC20Upgradeable.sol\":1640:1653  string memory */\n      0x60\n        /* \"contracts/token/ERC20Upgradeable.sol\":1672:1679  _symbol */\n      0x02\n        /* \"contracts/token/ERC20Upgradeable.sol\":1665:1679  return _symbol */\n      dup1\n      sload\n      tag_274\n      swap1\n      tag_177\n      jump\t// in\n    tag_274:\n      dup1\n      0x1f\n      add\n      0x20\n      dup1\n      swap2\n      div\n      mul\n      0x20\n      add\n      mload(0x40)\n      swap1\n      dup2\n      add\n      0x40\n      mstore\n      dup1\n      swap3\n      swap2\n      swap1\n      dup2\n      dup2\n      mstore\n      0x20\n      add\n      dup3\n      dup1\n      sload\n      tag_275\n      swap1\n      tag_177\n      jump\t// in\n    tag_275:\n      dup1\n      iszero\n      tag_276\n      jumpi\n      dup1\n      0x1f\n      lt\n      tag_277\n      jumpi\n      0x0100\n      dup1\n      dup4\n      sload\n      div\n      mul\n      dup4\n      mstore\n      swap2\n      0x20\n      add\n      swap2\n      jump(tag_276)\n    tag_277:\n      dup3\n      add\n      swap2\n      swap1\n      0x00\n      mstore\n      keccak256(0x00, 0x20)\n      swap1\n    tag_278:\n      dup2\n      sload\n      dup2\n      mstore\n      swap1\n      0x01\n      add\n      swap1\n      0x20\n      add\n      dup1\n      dup4\n      gt\n      tag_278\n      jumpi\n      dup3\n      swap1\n      sub\n      0x1f\n      and\n      dup3\n      add\n      swap2\n    tag_276:\n      pop\n      pop\n      pop\n      pop\n      pop\n      swap1\n      pop\n        /* \"contracts/token/ERC20Upgradeable.sol\":1599:1686  function symbol() external view returns (string memory) {... */\n      swap1\n      jump\t// out\n        /* \"contracts/token/ERC20Upgradeable.sol\":2140:2281  function transfer(address to, uint256 amount) external returns (bool) {... */\n    tag_122:\n        /* \"contracts/token/ERC20Upgradeable.sol\":2204:2208  bool */\n      0x00\n        /* \"contracts/token/ERC20Upgradeable.sol\":2220:2253  _transfer(msg.sender, to, amount) */\n      tag_280\n        /* \"contracts/token/ERC20Upgradeable.sol\":2230:2240  msg.sender */\n      caller\n        /* \"contracts/token/ERC20Upgradeable.sol\":2242:2244  to */\n      dup5\n        /* \"contracts/token/ERC20Upgradeable.sol\":2246:2252  amount */\n      dup5\n        /* \"contracts/token/ERC20Upgradeable.sol\":2220:2229  _transfer */\n      tag_206\n        /* \"contracts/token/ERC20Upgradeable.sol\":2220:2253  _transfer(msg.sender, to, amount) */\n      jump\t// in\n    tag_280:\n        /* \"contracts/token/ERC20Upgradeable.sol\":2270:2274  true */\n      0x01\n        /* \"contracts/token/ERC20Upgradeable.sol\":2263:2274  return true */\n      swap1\n      pop\n        /* \"contracts/token/ERC20Upgradeable.sol\":2140:2281  function transfer(address to, uint256 amount) external returns (bool) {... */\n      swap3\n      swap2\n      pop\n      pop\n      jump\t// out\n        /* \"contracts/protocol/Vault.sol\":447:471  address[] public markets */\n    tag_126:\n      0x0b\n      dup2\n      dup2\n      sload\n      dup2\n      lt\n      tag_281\n      jumpi\n      0x00\n      dup1\n      revert\n    tag_281:\n      swap1\n      0x00\n      mstore\n      keccak256(0x00, 0x20)\n      add\n      0x00\n      swap2\n      pop\n      sload\n      swap1\n      0x0100\n      exp\n      swap1\n      div\n      0xffffffffffffffffffffffffffffffffffffffff\n      and\n      dup2\n      jump\t// out\n        /* \"contracts/protocol/Vault.sol\":1610:1809  function withdraw(... */\n    tag_131:\n        /* \"contracts/protocol/Vault.sol\":1730:1741  uint shares */\n      0x00\n        /* \"contracts/protocol/Vault.sol\":1762:1802  super.withdraw(assets_, receiver, owner) */\n      tag_284\n        /* \"contracts/protocol/Vault.sol\":1777:1784  assets_ */\n      dup5\n        /* \"contracts/protocol/Vault.sol\":1786:1794  receiver */\n      dup5\n        /* \"contracts/protocol/Vault.sol\":1796:1801  owner */\n      dup5\n        /* \"contracts/protocol/Vault.sol\":1762:1776  super.withdraw */\n      tag_285\n        /* \"contracts/protocol/Vault.sol\":1762:1802  super.withdraw(assets_, receiver, owner) */\n      jump\t// in\n    tag_284:\n        /* \"contracts/protocol/Vault.sol\":1753:1802  shares = super.withdraw(assets_, receiver, owner) */\n      swap1\n      pop\n        /* \"contracts/protocol/Vault.sol\":1610:1809  function withdraw(... */\n      swap4\n      swap3\n      pop\n      pop\n      pop\n      jump\t// out\n        /* \"contracts/token/ERC4626Upgradeable.sol\":3833:4476  function redeem(uint256 shares, address receiver, address owner) public virtual returns (uint256 assets_) {... */\n    tag_135:\n        /* \"contracts/token/ERC4626Upgradeable.sol\":3922:3937  uint256 assets_ */\n      0x00\n        /* \"contracts/token/ERC4626Upgradeable.sol\":3966:3967  0 */\n      0x00\n        /* \"contracts/token/ERC4626Upgradeable.sol\":3957:3963  shares */\n      dup5\n        /* \"contracts/token/ERC4626Upgradeable.sol\":3957:3967  shares > 0 */\n      gt\n        /* \"contracts/token/ERC4626Upgradeable.sol\":3949:3983  require(shares > 0, \"ZERO_SHARES\") */\n      tag_287\n      jumpi\n      mload(0x40)\n      0x08c379a000000000000000000000000000000000000000000000000000000000\n      dup2\n      mstore\n      0x04\n      add\n      tag_288\n      swap1\n      tag_259\n      jump\t// in\n    tag_288:\n      mload(0x40)\n      dup1\n      swap2\n      sub\n      swap1\n      revert\n    tag_287:\n        /* \"contracts/token/ERC4626Upgradeable.sol\":4004:4027  convertToAssets(shares) */\n      tag_289\n        /* \"contracts/token/ERC4626Upgradeable.sol\":4020:4026  shares */\n      dup5\n        /* \"contracts/token/ERC4626Upgradeable.sol\":4004:4019  convertToAssets */\n      tag_50\n        /* \"contracts/token/ERC4626Upgradeable.sol\":4004:4027  convertToAssets(shares) */\n      jump\t// in\n    tag_289:\n        /* \"contracts/token/ERC4626Upgradeable.sol\":3994:4027  assets_ = convertToAssets(shares) */\n      swap1\n      pop\n        /* \"contracts/token/ERC4626Upgradeable.sol\":4051:4061  msg.sender */\n      caller\n        /* \"contracts/token/ERC4626Upgradeable.sol\":4042:4061  owner != msg.sender */\n      0xffffffffffffffffffffffffffffffffffffffff\n      and\n        /* \"contracts/token/ERC4626Upgradeable.sol\":4042:4047  owner */\n      dup3\n        /* \"contracts/token/ERC4626Upgradeable.sol\":4042:4061  owner != msg.sender */\n      0xffffffffffffffffffffffffffffffffffffffff\n      and\n      eq\n        /* \"contracts/token/ERC4626Upgradeable.sol\":4038:4325  if (owner != msg.sender) {... */\n      tag_290\n      jumpi\n        /* \"contracts/token/ERC4626Upgradeable.sol\":4077:4092  uint256 allowed */\n      0x00\n        /* \"contracts/token/ERC4626Upgradeable.sol\":4095:4123  allowance(owner, msg.sender) */\n      tag_291\n        /* \"contracts/token/ERC4626Upgradeable.sol\":4105:4110  owner */\n      dup4\n        /* \"contracts/token/ERC4626Upgradeable.sol\":4112:4122  msg.sender */\n      caller\n        /* \"contracts/token/ERC4626Upgradeable.sol\":4095:4104  allowance */\n      tag_150\n        /* \"contracts/token/ERC4626Upgradeable.sol\":4095:4123  allowance(owner, msg.sender) */\n      jump\t// in\n    tag_291:\n        /* \"contracts/token/ERC4626Upgradeable.sol\":4077:4123  uint256 allowed = allowance(owner, msg.sender) */\n      swap1\n      pop\n        /* \"contracts/token/ERC4626Upgradeable.sol\":4156:4162  shares */\n      dup5\n        /* \"contracts/token/ERC4626Upgradeable.sol\":4145:4152  allowed */\n      dup2\n        /* \"contracts/token/ERC4626Upgradeable.sol\":4145:4162  allowed >= shares */\n      lt\n      iszero\n        /* \"contracts/token/ERC4626Upgradeable.sol\":4137:4189  require(allowed >= shares, \"INSUFFICIENT_ALLOWANCE\") */\n      tag_292\n      jumpi\n      mload(0x40)\n      0x08c379a000000000000000000000000000000000000000000000000000000000\n      dup2\n      mstore\n      0x04\n      add\n      tag_293\n      swap1\n      tag_201\n      jump\t// in\n    tag_293:\n      mload(0x40)\n      dup1\n      swap2\n      sub\n      swap1\n      revert\n    tag_292:\n        /* \"contracts/token/ERC4626Upgradeable.sol\":4218:4235  type(uint256).max */\n      0xffffffffffffffffffffffffffffffffffffffffffffffffffffffffffffffff\n        /* \"contracts/token/ERC4626Upgradeable.sol\":4207:4214  allowed */\n      dup2\n        /* \"contracts/token/ERC4626Upgradeable.sol\":4207:4235  allowed != type(uint256).max */\n      eq\n        /* \"contracts/token/ERC4626Upgradeable.sol\":4203:4315  if (allowed != type(uint256).max) {... */\n      tag_294\n      jumpi\n        /* \"contracts/token/ERC4626Upgradeable.sol\":4255:4300  _approve(owner, msg.sender, allowed - shares) */\n      tag_295\n        /* \"contracts/token/ERC4626Upgradeable.sol\":4264:4269  owner */\n      dup4\n        /* \"contracts/token/ERC4626Upgradeable.sol\":4271:4281  msg.sender */\n      caller\n        /* \"contracts/token/ERC4626Upgradeable.sol\":4293:4299  shares */\n      dup8\n        /* \"contracts/token/ERC4626Upgradeable.sol\":4283:4290  allowed */\n      dup5\n        /* \"contracts/token/ERC4626Upgradeable.sol\":4283:4299  allowed - shares */\n      tag_296\n      swap2\n      swap1\n      tag_204\n      jump\t// in\n    tag_296:\n        /* \"contracts/token/ERC4626Upgradeable.sol\":4255:4263  _approve */\n      tag_195\n        /* \"contracts/token/ERC4626Upgradeable.sol\":4255:4300  _approve(owner, msg.sender, allowed - shares) */\n      jump\t// in\n    tag_295:\n        /* \"contracts/token/ERC4626Upgradeable.sol\":4203:4315  if (allowed != type(uint256).max) {... */\n    tag_294:\n        /* \"contracts/token/ERC4626Upgradeable.sol\":4063:4325  {... */\n      pop\n        /* \"contracts/token/ERC4626Upgradeable.sol\":4038:4325  if (owner != msg.sender) {... */\n    tag_290:\n        /* \"contracts/token/ERC4626Upgradeable.sol\":4335:4355  _burn(owner, shares) */\n      tag_297\n        /* \"contracts/token/ERC4626Upgradeable.sol\":4341:4346  owner */\n      dup3\n        /* \"contracts/token/ERC4626Upgradeable.sol\":4348:4354  shares */\n      dup6\n        /* \"contracts/token/ERC4626Upgradeable.sol\":4335:4340  _burn */\n      tag_298\n        /* \"contracts/token/ERC4626Upgradeable.sol\":4335:4355  _burn(owner, shares) */\n      jump\t// in\n    tag_297:\n        /* \"contracts/token/ERC4626Upgradeable.sol\":4365:4371  _asset */\n      0x07\n      0x00\n      swap1\n      sload\n      swap1\n      0x0100\n      exp\n      swap1\n      div\n      0xffffffffffffffffffffffffffffffffffffffff\n      and\n        /* \"contracts/token/ERC4626Upgradeable.sol\":4365:4380  _asset.transfer */\n      0xffffffffffffffffffffffffffffffffffffffff\n      and\n      0xa9059cbb\n        /* \"contracts/token/ERC4626Upgradeable.sol\":4381:4389  receiver */\n      dup5\n        /* \"contracts/token/ERC4626Upgradeable.sol\":4391:4398  assets_ */\n      dup4\n        /* \"contracts/token/ERC4626Upgradeable.sol\":4365:4399  _asset.transfer(receiver, assets_) */\n      mload(0x40)\n      dup4\n      0xffffffff\n      and\n      0xe0\n      shl\n      dup2\n      mstore\n      0x04\n      add\n      tag_299\n      swap3\n      swap2\n      swap1\n      tag_233\n      jump\t// in\n    tag_299:\n      0x20\n      mload(0x40)\n      dup1\n      dup4\n      sub\n      dup2\n      0x00\n      dup8\n      gas\n      call\n      iszero\n      dup1\n      iszero\n      tag_301\n      jumpi\n      returndatacopy(0x00, 0x00, returndatasize)\n      revert(0x00, returndatasize)\n    tag_301:\n      pop\n      pop\n      pop\n      pop\n      mload(0x40)\n      returndatasize\n      not(0x1f)\n      0x1f\n      dup3\n      add\n      and\n      dup3\n      add\n      dup1\n      0x40\n      mstore\n      pop\n      dup2\n      add\n      swap1\n      tag_302\n      swap2\n      swap1\n      tag_237\n      jump\t// in\n    tag_302:\n      pop\n        /* \"contracts/token/ERC4626Upgradeable.sol\":4446:4451  owner */\n      dup2\n        /* \"contracts/token/ERC4626Upgradeable.sol\":4415:4469  Withdraw(msg.sender, receiver, owner, assets_, shares) */\n      0xffffffffffffffffffffffffffffffffffffffff\n      and\n        /* \"contracts/token/ERC4626Upgradeable.sol\":4436:4444  receiver */\n      dup4\n        /* \"contracts/token/ERC4626Upgradeable.sol\":4415:4469  Withdraw(msg.sender, receiver, owner, assets_, shares) */\n      0xffffffffffffffffffffffffffffffffffffffff\n      and\n        /* \"contracts/token/ERC4626Upgradeable.sol\":4424:4434  msg.sender */\n      caller\n        /* \"contracts/token/ERC4626Upgradeable.sol\":4415:4469  Withdraw(msg.sender, receiver, owner, assets_, shares) */\n      0xffffffffffffffffffffffffffffffffffffffff\n      and\n      0xfbde797d201c681b91056529119e0b02407c7bb96a4a2c75c01fc9667232c8db\n        /* \"contracts/token/ERC4626Upgradeable.sol\":4453:4460  assets_ */\n      dup5\n        /* \"contracts/token/ERC4626Upgradeable.sol\":4462:4468  shares */\n      dup9\n        /* \"contracts/token/ERC4626Upgradeable.sol\":4415:4469  Withdraw(msg.sender, receiver, owner, assets_, shares) */\n      mload(0x40)\n      tag_303\n      swap3\n      swap2\n      swap1\n      tag_272\n      jump\t// in\n    tag_303:\n      mload(0x40)\n      dup1\n      swap2\n      sub\n      swap1\n      log4\n        /* \"contracts/token/ERC4626Upgradeable.sol\":3833:4476  function redeem(uint256 shares, address receiver, address owner) public virtual returns (uint256 assets_) {... */\n      swap4\n      swap3\n      pop\n      pop\n      pop\n      jump\t// out\n        /* \"contracts/protocol/Vault.sol\":2003:2159  function deallocateToMarket(... */\n    tag_139:\n        /* \"contracts/acess/Ownable.sol\":213:218  owner */\n      0x00\n      0x02\n      swap1\n      sload\n      swap1\n      0x0100\n      exp\n      swap1\n      div\n      0xffffffffffffffffffffffffffffffffffffffff\n      and\n        /* \"contracts/acess/Ownable.sol\":199:218  msg.sender == owner */\n      0xffffffffffffffffffffffffffffffffffffffff\n      and\n        /* \"contracts/acess/Ownable.sol\":199:209  msg.sender */\n      caller\n        /* \"contracts/acess/Ownable.sol\":199:218  msg.sender == owner */\n      0xffffffffffffffffffffffffffffffffffffffff\n      and\n      eq\n        /* \"contracts/acess/Ownable.sol\":191:219  require(msg.sender == owner) */\n      tag_305\n      jumpi\n      revert(0x00, 0x00)\n    tag_305:\n        /* \"contracts/protocol/Vault.sol\":2120:2127  market_ */\n      dup2\n        /* \"contracts/protocol/Vault.sol\":2112:2144  IMarket(market_).onVaultWithdraw */\n      0xffffffffffffffffffffffffffffffffffffffff\n      and\n      0x3e3722b6\n        /* \"contracts/protocol/Vault.sol\":2145:2151  amount */\n      dup3\n        /* \"contracts/protocol/Vault.sol\":2112:2152  IMarket(market_).onVaultWithdraw(amount) */\n      mload(0x40)\n      dup3\n      0xffffffff\n      and\n      0xe0\n      shl\n      dup2\n      mstore\n      0x04\n      add\n      tag_307\n      swap2\n      swap1\n      tag_42\n      jump\t// in\n    tag_307:\n      0x00\n      mload(0x40)\n      dup1\n      dup4\n      sub\n      dup2\n      0x00\n      dup8\n      dup1\n      extcodesize\n      iszero\n      dup1\n      iszero\n      tag_308\n      jumpi\n      revert(0x00, 0x00)\n    tag_308:\n      pop\n      gas\n      call\n      iszero\n      dup1\n      iszero\n      tag_310\n      jumpi\n      returndatacopy(0x00, 0x00, returndatasize)\n      revert(0x00, returndatasize)\n    tag_310:\n      pop\n      pop\n      pop\n      pop\n        /* \"contracts/protocol/Vault.sol\":2003:2159  function deallocateToMarket(... */\n      pop\n      pop\n      jump\t// out\n        /* \"contracts/token/ERC4626Upgradeable.sol\":1455:1821  function convertToShares(uint256 assets_) public view returns (uint256) {... */\n    tag_142:\n        /* \"contracts/token/ERC4626Upgradeable.sol\":1518:1525  uint256 */\n      0x00\n        /* \"contracts/token/ERC4626Upgradeable.sol\":1537:1551  uint256 supply */\n      0x00\n        /* \"contracts/token/ERC4626Upgradeable.sol\":1554:1558  this */\n      address\n        /* \"contracts/token/ERC4626Upgradeable.sol\":1554:1570  this.totalSupply */\n      0xffffffffffffffffffffffffffffffffffffffff\n      and\n      0x18160ddd\n        /* \"contracts/token/ERC4626Upgradeable.sol\":1554:1572  this.totalSupply() */\n      mload(0x40)\n      dup2\n      0xffffffff\n      and\n      0xe0\n      shl\n      dup2\n      mstore\n      0x04\n      add\n      0x20\n      mload(0x40)\n      dup1\n      dup4\n      sub\n      dup2\n      dup7\n      gas\n      staticcall\n      iszero\n      dup1\n      iszero\n      tag_313\n      jumpi\n      returndatacopy(0x00, 0x00, returndatasize)\n      revert(0x00, returndatasize)\n    tag_313:\n      pop\n      pop\n      pop\n      pop\n      mload(0x40)\n      returndatasize\n      not(0x1f)\n      0x1f\n      dup3\n      add\n      and\n      dup3\n      add\n      dup1\n      0x40\n      mstore\n      pop\n      dup2\n      add\n      swap1\n      tag_314\n      swap2\n      swap1\n      tag_158\n      jump\t// in\n    tag_314:\n        /* \"contracts/token/ERC4626Upgradeable.sol\":1537:1572  uint256 supply = this.totalSupply() */\n      swap1\n      pop\n        /* \"contracts/token/ERC4626Upgradeable.sol\":1582:1601  uint256 assetsTotal */\n      0x00\n        /* \"contracts/token/ERC4626Upgradeable.sol\":1604:1617  totalAssets() */\n      tag_315\n        /* \"contracts/token/ERC4626Upgradeable.sol\":1604:1615  totalAssets */\n      tag_40\n        /* \"contracts/token/ERC4626Upgradeable.sol\":1604:1617  totalAssets() */\n      jump\t// in\n    tag_315:\n        /* \"contracts/token/ERC4626Upgradeable.sol\":1582:1617  uint256 assetsTotal = totalAssets() */\n      swap1\n      pop\n        /* \"contracts/token/ERC4626Upgradeable.sol\":1703:1704  0 */\n      0x00\n        /* \"contracts/token/ERC4626Upgradeable.sol\":1693:1699  supply */\n      dup3\n        /* \"contracts/token/ERC4626Upgradeable.sol\":1693:1704  supply == 0 */\n      eq\n        /* \"contracts/token/ERC4626Upgradeable.sol\":1693:1724  supply == 0 || assetsTotal == 0 */\n      dup1\n      tag_316\n      jumpi\n      pop\n        /* \"contracts/token/ERC4626Upgradeable.sol\":1723:1724  0 */\n      0x00\n        /* \"contracts/token/ERC4626Upgradeable.sol\":1708:1719  assetsTotal */\n      dup2\n        /* \"contracts/token/ERC4626Upgradeable.sol\":1708:1724  assetsTotal == 0 */\n      eq\n        /* \"contracts/token/ERC4626Upgradeable.sol\":1693:1724  supply == 0 || assetsTotal == 0 */\n    tag_316:\n        /* \"contracts/token/ERC4626Upgradeable.sol\":1689:1765  if (supply == 0 || assetsTotal == 0) {... */\n      iszero\n      tag_317\n      jumpi\n        /* \"contracts/token/ERC4626Upgradeable.sol\":1747:1754  assets_ */\n      dup4\n        /* \"contracts/token/ERC4626Upgradeable.sol\":1740:1754  return assets_ */\n      swap3\n      pop\n      pop\n      pop\n      jump(tag_311)\n        /* \"contracts/token/ERC4626Upgradeable.sol\":1689:1765  if (supply == 0 || assetsTotal == 0) {... */\n    tag_317:\n        /* \"contracts/token/ERC4626Upgradeable.sol\":1803:1814  assetsTotal */\n      dup1\n        /* \"contracts/token/ERC4626Upgradeable.sol\":1793:1799  supply */\n      dup3\n        /* \"contracts/token/ERC4626Upgradeable.sol\":1783:1790  assets_ */\n      dup6\n        /* \"contracts/token/ERC4626Upgradeable.sol\":1783:1799  assets_ * supply */\n      tag_318\n      swap2\n      swap1\n      tag_190\n      jump\t// in\n    tag_318:\n        /* \"contracts/token/ERC4626Upgradeable.sol\":1782:1814  (assets_ * supply) / assetsTotal */\n      tag_319\n      swap2\n      swap1\n      tag_192\n      jump\t// in\n    tag_319:\n        /* \"contracts/token/ERC4626Upgradeable.sol\":1775:1814  return (assets_ * supply) / assetsTotal */\n      swap3\n      pop\n      pop\n      pop\n        /* \"contracts/token/ERC4626Upgradeable.sol\":1455:1821  function convertToShares(uint256 assets_) public view returns (uint256) {... */\n    tag_311:\n      swap2\n      swap1\n      pop\n      jump\t// out\n        /* \"contracts/acess/Ownable.sol\":394:532  function ownershipTransfer(address newOwner) external onlyOwner {... */\n    tag_146:\n        /* \"contracts/acess/Ownable.sol\":213:218  owner */\n      0x00\n      0x02\n      swap1\n      sload\n      swap1\n      0x0100\n      exp\n      swap1\n      div\n      0xffffffffffffffffffffffffffffffffffffffff\n      and\n        /* \"contracts/acess/Ownable.sol\":199:218  msg.sender == owner */\n      0xffffffffffffffffffffffffffffffffffffffff\n      and\n        /* \"contracts/acess/Ownable.sol\":199:209  msg.sender */\n      caller\n        /* \"contracts/acess/Ownable.sol\":199:218  msg.sender == owner */\n      0xffffffffffffffffffffffffffffffffffffffff\n      and\n      eq\n        /* \"contracts/acess/Ownable.sol\":191:219  require(msg.sender == owner) */\n      tag_321\n      jumpi\n      revert(0x00, 0x00)\n    tag_321:\n        /* \"contracts/acess/Ownable.sol\":496:497  0 */\n      0x00\n        /* \"contracts/acess/Ownable.sol\":476:498  newOwner != address(0) */\n      0xffffffffffffffffffffffffffffffffffffffff\n      and\n        /* \"contracts/acess/Ownable.sol\":476:484  newOwner */\n      dup2\n        /* \"contracts/acess/Ownable.sol\":476:498  newOwner != address(0) */\n      0xffffffffffffffffffffffffffffffffffffffff\n      and\n      sub\n        /* \"contracts/acess/Ownable.sol\":468:499  require(newOwner != address(0)) */\n      tag_323\n      jumpi\n      revert(0x00, 0x00)\n    tag_323:\n        /* \"contracts/acess/Ownable.sol\":517:525  newOwner */\n      dup1\n        /* \"contracts/acess/Ownable.sol\":509:514  owner */\n      0x00\n      0x02\n        /* \"contracts/acess/Ownable.sol\":509:525  owner = newOwner */\n      0x0100\n      exp\n      dup2\n      sload\n      dup2\n      0xffffffffffffffffffffffffffffffffffffffff\n      mul\n      not\n      and\n      swap1\n      dup4\n      0xffffffffffffffffffffffffffffffffffffffff\n      and\n      mul\n      or\n      swap1\n      sstore\n      pop\n        /* \"contracts/acess/Ownable.sol\":394:532  function ownershipTransfer(address newOwner) external onlyOwner {... */\n      pop\n      jump\t// out\n        /* \"contracts/token/ERC20Upgradeable.sol\":1994:2134  function allowance(address owner, address spender) public view virtual returns (uint256) {... */\n    tag_150:\n        /* \"contracts/token/ERC20Upgradeable.sol\":2074:2081  uint256 */\n      0x00\n        /* \"contracts/token/ERC20Upgradeable.sol\":2100:2111  _allowances */\n      0x06\n        /* \"contracts/token/ERC20Upgradeable.sol\":2100:2118  _allowances[owner] */\n      0x00\n        /* \"contracts/token/ERC20Upgradeable.sol\":2112:2117  owner */\n      dup5\n        /* \"contracts/token/ERC20Upgradeable.sol\":2100:2118  _allowances[owner] */\n      0xffffffffffffffffffffffffffffffffffffffff\n      and\n      0xffffffffffffffffffffffffffffffffffffffff\n      and\n      dup2\n      mstore\n      0x20\n      add\n      swap1\n      dup2\n      mstore\n      0x20\n      add\n      0x00\n      keccak256\n        /* \"contracts/token/ERC20Upgradeable.sol\":2100:2127  _allowances[owner][spender] */\n      0x00\n        /* \"contracts/token/ERC20Upgradeable.sol\":2119:2126  spender */\n      dup4\n        /* \"contracts/token/ERC20Upgradeable.sol\":2100:2127  _allowances[owner][spender] */\n      0xffffffffffffffffffffffffffffffffffffffff\n      and\n      0xffffffffffffffffffffffffffffffffffffffff\n      and\n      dup2\n      mstore\n      0x20\n      add\n      swap1\n      dup2\n      mstore\n      0x20\n      add\n      0x00\n      keccak256\n      sload\n        /* \"contracts/token/ERC20Upgradeable.sol\":2093:2127  return _allowances[owner][spender] */\n      swap1\n      pop\n        /* \"contracts/token/ERC20Upgradeable.sol\":1994:2134  function allowance(address owner, address spender) public view virtual returns (uint256) {... */\n      swap3\n      swap2\n      pop\n      pop\n      jump\t// out\n        /* \"contracts/token/ERC20Upgradeable.sol\":3031:3217  function _approve(address owner_, address spender, uint256 amount) internal virtual {... */\n    tag_195:\n        /* \"contracts/token/ERC20Upgradeable.sol\":3156:3162  amount */\n      dup1\n        /* \"contracts/token/ERC20Upgradeable.sol\":3125:3136  _allowances */\n      0x06\n        /* \"contracts/token/ERC20Upgradeable.sol\":3125:3144  _allowances[owner_] */\n      0x00\n        /* \"contracts/token/ERC20Upgradeable.sol\":3137:3143  owner_ */\n      dup6\n        /* \"contracts/token/ERC20Upgradeable.sol\":3125:3144  _allowances[owner_] */\n      0xffffffffffffffffffffffffffffffffffffffff\n      and\n      0xffffffffffffffffffffffffffffffffffffffff\n      and\n      dup2\n      mstore\n      0x20\n      add\n      swap1\n      dup2\n      mstore\n      0x20\n      add\n      0x00\n      keccak256\n        /* \"contracts/token/ERC20Upgradeable.sol\":3125:3153  _allowances[owner_][spender] */\n      0x00\n        /* \"contracts/token/ERC20Upgradeable.sol\":3145:3152  spender */\n      dup5\n        /* \"contracts/token/ERC20Upgradeable.sol\":3125:3153  _allowances[owner_][spender] */\n      0xffffffffffffffffffffffffffffffffffffffff\n      and\n      0xffffffffffffffffffffffffffffffffffffffff\n      and\n      dup2\n      mstore\n      0x20\n      add\n      swap1\n      dup2\n      mstore\n      0x20\n      add\n      0x00\n      keccak256\n        /* \"contracts/token/ERC20Upgradeable.sol\":3125:3162  _allowances[owner_][spender] = amount */\n      dup2\n      swap1\n      sstore\n      pop\n        /* \"contracts/token/ERC20Upgradeable.sol\":3194:3201  spender */\n      dup2\n        /* \"contracts/token/ERC20Upgradeable.sol\":3177:3210  Approval(owner_, spender, amount) */\n      0xffffffffffffffffffffffffffffffffffffffff\n      and\n        /* \"contracts/token/ERC20Upgradeable.sol\":3186:3192  owner_ */\n      dup4\n        /* \"contracts/token/ERC20Upgradeable.sol\":3177:3210  Approval(owner_, spender, amount) */\n      0xffffffffffffffffffffffffffffffffffffffff\n      and\n      0x8c5be1e5ebec7d5bd14f71427d1e84f3dd0314c0f7b2291e5b200ac8c7c3b925\n        /* \"contracts/token/ERC20Upgradeable.sol\":3203:3209  amount */\n      dup4\n        /* \"contracts/token/ERC20Upgradeable.sol\":3177:3210  Approval(owner_, spender, amount) */\n      mload(0x40)\n      tag_326\n      swap2\n      swap1\n      tag_42\n      jump\t// in\n    tag_326:\n      mload(0x40)\n      dup1\n      swap2\n      sub\n      swap1\n      log3\n        /* \"contracts/token/ERC20Upgradeable.sol\":3031:3217  function _approve(address owner_, address spender, uint256 amount) internal virtual {... */\n      pop\n      pop\n      pop\n      jump\t// out\n        /* \"contracts/token/ERC20Upgradeable.sol\":3273:3665  function _transfer(address from, address to, uint256 amount) internal {... */\n    tag_206:\n        /* \"contracts/token/ERC20Upgradeable.sol\":3375:3376  0 */\n      0x00\n        /* \"contracts/token/ERC20Upgradeable.sol\":3361:3377  to != address(0) */\n      0xffffffffffffffffffffffffffffffffffffffff\n      and\n        /* \"contracts/token/ERC20Upgradeable.sol\":3361:3363  to */\n      dup3\n        /* \"contracts/token/ERC20Upgradeable.sol\":3361:3377  to != address(0) */\n      0xffffffffffffffffffffffffffffffffffffffff\n      and\n      sub\n        /* \"contracts/token/ERC20Upgradeable.sol\":3353:3389  require(to != address(0), \"ZERO_TO\") */\n      tag_328\n      jumpi\n      mload(0x40)\n      0x08c379a000000000000000000000000000000000000000000000000000000000\n      dup2\n      mstore\n      0x04\n      add\n      tag_329\n      swap1\n      tag_330\n      jump\t// in\n    tag_329:\n      mload(0x40)\n      dup1\n      swap2\n      sub\n      swap1\n      revert\n    tag_328:\n        /* \"contracts/token/ERC20Upgradeable.sol\":3399:3418  uint256 fromBalance */\n      0x00\n        /* \"contracts/token/ERC20Upgradeable.sol\":3421:3430  _balances */\n      0x05\n        /* \"contracts/token/ERC20Upgradeable.sol\":3421:3436  _balances[from] */\n      0x00\n        /* \"contracts/token/ERC20Upgradeable.sol\":3431:3435  from */\n      dup6\n        /* \"contracts/token/ERC20Upgradeable.sol\":3421:3436  _balances[from] */\n      0xffffffffffffffffffffffffffffffffffffffff\n      and\n      0xffffffffffffffffffffffffffffffffffffffff\n      and\n      dup2\n      mstore\n      0x20\n      add\n      swap1\n      dup2\n      mstore\n      0x20\n      add\n      0x00\n      keccak256\n      sload\n        /* \"contracts/token/ERC20Upgradeable.sol\":3399:3436  uint256 fromBalance = _balances[from] */\n      swap1\n      pop\n        /* \"contracts/token/ERC20Upgradeable.sol\":3469:3475  amount */\n      dup2\n        /* \"contracts/token/ERC20Upgradeable.sol\":3454:3465  fromBalance */\n      dup2\n        /* \"contracts/token/ERC20Upgradeable.sol\":3454:3475  fromBalance >= amount */\n      lt\n      iszero\n        /* \"contracts/token/ERC20Upgradeable.sol\":3446:3500  require(fromBalance >= amount, \"INSUFFICIENT_BALANCE\") */\n      tag_331\n      jumpi\n      mload(0x40)\n      0x08c379a000000000000000000000000000000000000000000000000000000000\n      dup2\n      mstore\n      0x04\n      add\n      tag_332\n      swap1\n      tag_333\n      jump\t// in\n    tag_332:\n      mload(0x40)\n      dup1\n      swap2\n      sub\n      swap1\n      revert\n    tag_331:\n        /* \"contracts/token/ERC20Upgradeable.sol\":3567:3573  amount */\n      dup2\n        /* \"contracts/token/ERC20Upgradeable.sol\":3553:3564  fromBalance */\n      dup2\n        /* \"contracts/token/ERC20Upgradeable.sol\":3553:3573  fromBalance - amount */\n      sub\n        /* \"contracts/token/ERC20Upgradeable.sol\":3535:3544  _balances */\n      0x05\n        /* \"contracts/token/ERC20Upgradeable.sol\":3535:3550  _balances[from] */\n      0x00\n        /* \"contracts/token/ERC20Upgradeable.sol\":3545:3549  from */\n      dup7\n        /* \"contracts/token/ERC20Upgradeable.sol\":3535:3550  _balances[from] */\n      0xffffffffffffffffffffffffffffffffffffffff\n      and\n      0xffffffffffffffffffffffffffffffffffffffff\n      and\n      dup2\n      mstore\n      0x20\n      add\n      swap1\n      dup2\n      mstore\n      0x20\n      add\n      0x00\n      keccak256\n        /* \"contracts/token/ERC20Upgradeable.sol\":3535:3573  _balances[from] = fromBalance - amount */\n      dup2\n      swap1\n      sstore\n      pop\n        /* \"contracts/token/ERC20Upgradeable.sol\":3611:3617  amount */\n      dup2\n        /* \"contracts/token/ERC20Upgradeable.sol\":3594:3603  _balances */\n      0x05\n        /* \"contracts/token/ERC20Upgradeable.sol\":3594:3607  _balances[to] */\n      0x00\n        /* \"contracts/token/ERC20Upgradeable.sol\":3604:3606  to */\n      dup6\n        /* \"contracts/token/ERC20Upgradeable.sol\":3594:3607  _balances[to] */\n      0xffffffffffffffffffffffffffffffffffffffff\n      and\n      0xffffffffffffffffffffffffffffffffffffffff\n      and\n      dup2\n      mstore\n      0x20\n      add\n      swap1\n      dup2\n      mstore\n      0x20\n      add\n      0x00\n      keccak256\n      0x00\n        /* \"contracts/token/ERC20Upgradeable.sol\":3594:3617  _balances[to] += amount */\n      dup3\n      dup3\n      sload\n      tag_334\n      swap2\n      swap1\n      tag_174\n      jump\t// in\n    tag_334:\n      swap3\n      pop\n      pop\n      dup2\n      swap1\n      sstore\n      pop\n        /* \"contracts/token/ERC20Upgradeable.sol\":3647:3649  to */\n      dup3\n        /* \"contracts/token/ERC20Upgradeable.sol\":3632:3658  Transfer(from, to, amount) */\n      0xffffffffffffffffffffffffffffffffffffffff\n      and\n        /* \"contracts/token/ERC20Upgradeable.sol\":3641:3645  from */\n      dup5\n        /* \"contracts/token/ERC20Upgradeable.sol\":3632:3658  Transfer(from, to, amount) */\n      0xffffffffffffffffffffffffffffffffffffffff\n      and\n      0xddf252ad1be2c89b69c2b068fc378daa952ba7f163c4a11628f55a4df523b3ef\n        /* \"contracts/token/ERC20Upgradeable.sol\":3651:3657  amount */\n      dup5\n        /* \"contracts/token/ERC20Upgradeable.sol\":3632:3658  Transfer(from, to, amount) */\n      mload(0x40)\n      tag_335\n      swap2\n      swap1\n      tag_42\n      jump\t// in\n    tag_335:\n      mload(0x40)\n      dup1\n      swap2\n      sub\n      swap1\n      log3\n        /* \"contracts/token/ERC20Upgradeable.sol\":3343:3665  {... */\n      pop\n        /* \"contracts/token/ERC20Upgradeable.sol\":3273:3665  function _transfer(address from, address to, uint256 amount) internal {... */\n      pop\n      pop\n      pop\n      jump\t// out\n        /* \"contracts/acess/Ownable.sol\":243:389  function __Ownable_init(address initializeOwner) internal {... */\n    tag_217:\n        /* \"contracts/acess/Ownable.sol\":346:347  0 */\n      0x00\n        /* \"contracts/acess/Ownable.sol\":319:348  initializeOwner != address(0) */\n      0xffffffffffffffffffffffffffffffffffffffff\n      and\n        /* \"contracts/acess/Ownable.sol\":319:334  initializeOwner */\n      dup2\n        /* \"contracts/acess/Ownable.sol\":319:348  initializeOwner != address(0) */\n      0xffffffffffffffffffffffffffffffffffffffff\n      and\n      sub\n        /* \"contracts/acess/Ownable.sol\":311:349  require(initializeOwner != address(0)) */\n      tag_337\n      jumpi\n      revert(0x00, 0x00)\n    tag_337:\n        /* \"contracts/acess/Ownable.sol\":367:382  initializeOwner */\n      dup1\n        /* \"contracts/acess/Ownable.sol\":359:364  owner */\n      0x00\n      0x02\n        /* \"contracts/acess/Ownable.sol\":359:382  owner = initializeOwner */\n      0x0100\n      exp\n      dup2\n      sload\n      dup2\n      0xffffffffffffffffffffffffffffffffffffffff\n      mul\n      not\n      and\n      swap1\n      dup4\n      0xffffffffffffffffffffffffffffffffffffffff\n      and\n      mul\n      or\n      swap1\n      sstore\n      pop\n        /* \"contracts/acess/Ownable.sol\":243:389  function __Ownable_init(address initializeOwner) internal {... */\n      pop\n      jump\t// out\n        /* \"contracts/token/ERC4626Upgradeable.sol\":1033:1290  function __ERC4626_init(... */\n    tag_219:\n        /* \"contracts/token/ERC4626Upgradeable.sol\":1192:1193  0 */\n      0x00\n        /* \"contracts/token/ERC4626Upgradeable.sol\":1174:1194  asset_ != address(0) */\n      0xffffffffffffffffffffffffffffffffffffffff\n      and\n        /* \"contracts/token/ERC4626Upgradeable.sol\":1174:1180  asset_ */\n      dup4\n        /* \"contracts/token/ERC4626Upgradeable.sol\":1174:1194  asset_ != address(0) */\n      0xffffffffffffffffffffffffffffffffffffffff\n      and\n      sub\n        /* \"contracts/token/ERC4626Upgradeable.sol\":1166:1209  require(asset_ != address(0), \"ZERO_ASSET\") */\n      tag_339\n      jumpi\n      mload(0x40)\n      0x08c379a000000000000000000000000000000000000000000000000000000000\n      dup2\n      mstore\n      0x04\n      add\n      tag_340\n      swap1\n      tag_341\n      jump\t// in\n    tag_340:\n      mload(0x40)\n      dup1\n      swap2\n      sub\n      swap1\n      revert\n    tag_339:\n        /* \"contracts/token/ERC4626Upgradeable.sol\":1219:1250  __ERC20_init(name_, symbol_, 6) */\n      tag_342\n        /* \"contracts/token/ERC4626Upgradeable.sol\":1232:1237  name_ */\n      dup3\n        /* \"contracts/token/ERC4626Upgradeable.sol\":1239:1246  symbol_ */\n      dup3\n        /* \"contracts/token/ERC4626Upgradeable.sol\":1248:1249  6 */\n      0x06\n        /* \"contracts/token/ERC4626Upgradeable.sol\":1219:1231  __ERC20_init */\n      tag_343\n        /* \"contracts/token/ERC4626Upgradeable.sol\":1219:1250  __ERC20_init(name_, symbol_, 6) */\n      jump\t// in\n    tag_342:\n        /* \"contracts/token/ERC4626Upgradeable.sol\":1276:1282  asset_ */\n      dup3\n        /* \"contracts/token/ERC4626Upgradeable.sol\":1260:1266  _asset */\n      0x07\n      0x00\n        /* \"contracts/token/ERC4626Upgradeable.sol\":1260:1283  _asset = IERC20(asset_) */\n      0x0100\n      exp\n      dup2\n      sload\n      dup2\n      0xffffffffffffffffffffffffffffffffffffffff\n      mul\n      not\n      and\n      swap1\n      dup4\n      0xffffffffffffffffffffffffffffffffffffffff\n      and\n      mul\n      or\n      swap1\n      sstore\n      pop\n        /* \"contracts/token/ERC4626Upgradeable.sol\":1033:1290  function __ERC4626_init(... */\n      pop\n      pop\n      pop\n      jump\t// out\n        /* \"contracts/token/ERC4626Upgradeable.sol\":2196:2589  function deposit(uint256 assets_, address receiver) public virtual returns (uint256 shares) {... */\n    tag_244:\n        /* \"contracts/token/ERC4626Upgradeable.sol\":2272:2286  uint256 shares */\n      0x00\n        /* \"contracts/token/ERC4626Upgradeable.sol\":2316:2317  0 */\n      0x00\n        /* \"contracts/token/ERC4626Upgradeable.sol\":2306:2313  assets_ */\n      dup4\n        /* \"contracts/token/ERC4626Upgradeable.sol\":2306:2317  assets_ > 0 */\n      gt\n        /* \"contracts/token/ERC4626Upgradeable.sol\":2298:2333  require(assets_ > 0, \"ZERO_ASSETS\") */\n      tag_345\n      jumpi\n      mload(0x40)\n      0x08c379a000000000000000000000000000000000000000000000000000000000\n      dup2\n      mstore\n      0x04\n      add\n      tag_346\n      swap1\n      tag_263\n      jump\t// in\n    tag_346:\n      mload(0x40)\n      dup1\n      swap2\n      sub\n      swap1\n      revert\n    tag_345:\n        /* \"contracts/token/ERC4626Upgradeable.sol\":2353:2377  convertToShares(assets_) */\n      tag_347\n        /* \"contracts/token/ERC4626Upgradeable.sol\":2369:2376  assets_ */\n      dup4\n        /* \"contracts/token/ERC4626Upgradeable.sol\":2353:2368  convertToShares */\n      tag_142\n        /* \"contracts/token/ERC4626Upgradeable.sol\":2353:2377  convertToShares(assets_) */\n      jump\t// in\n    tag_347:\n        /* \"contracts/token/ERC4626Upgradeable.sol\":2344:2377  shares = convertToShares(assets_) */\n      swap1\n      pop\n        /* \"contracts/token/ERC4626Upgradeable.sol\":2404:2405  0 */\n      0x00\n        /* \"contracts/token/ERC4626Upgradeable.sol\":2395:2401  shares */\n      dup2\n        /* \"contracts/token/ERC4626Upgradeable.sol\":2395:2405  shares > 0 */\n      gt\n        /* \"contracts/token/ERC4626Upgradeable.sol\":2387:2421  require(shares > 0, \"ZERO_SHARES\") */\n      tag_348\n      jumpi\n      mload(0x40)\n      0x08c379a000000000000000000000000000000000000000000000000000000000\n      dup2\n      mstore\n      0x04\n      add\n      tag_349\n      swap1\n      tag_259\n      jump\t// in\n    tag_349:\n      mload(0x40)\n      dup1\n      swap2\n      sub\n      swap1\n      revert\n    tag_348:\n        /* \"contracts/token/ERC4626Upgradeable.sol\":2432:2438  _asset */\n      0x07\n      0x00\n      swap1\n      sload\n      swap1\n      0x0100\n      exp\n      swap1\n      div\n      0xffffffffffffffffffffffffffffffffffffffff\n      and\n        /* \"contracts/token/ERC4626Upgradeable.sol\":2432:2451  _asset.transferFrom */\n      0xffffffffffffffffffffffffffffffffffffffff\n      and\n      0x23b872dd\n        /* \"contracts/token/ERC4626Upgradeable.sol\":2452:2462  msg.sender */\n      caller\n        /* \"contracts/token/ERC4626Upgradeable.sol\":2472:2476  this */\n      address\n        /* \"contracts/token/ERC4626Upgradeable.sol\":2479:2486  assets_ */\n      dup7\n        /* \"contracts/token/ERC4626Upgradeable.sol\":2432:2487  _asset.transferFrom(msg.sender, address(this), assets_) */\n      mload(0x40)\n      dup5\n      0xffffffff\n      and\n      0xe0\n      shl\n      dup2\n      mstore\n      0x04\n      add\n      tag_350\n      swap4\n      swap3\n      swap2\n      swap1\n      tag_265\n      jump\t// in\n    tag_350:\n      0x20\n      mload(0x40)\n      dup1\n      dup4\n      sub\n      dup2\n      0x00\n      dup8\n      gas\n      call\n      iszero\n      dup1\n      iszero\n      tag_352\n      jumpi\n      returndatacopy(0x00, 0x00, returndatasize)\n      revert(0x00, returndatasize)\n    tag_352:\n      pop\n      pop\n      pop\n      pop\n      mload(0x40)\n      returndatasize\n      not(0x1f)\n      0x1f\n      dup3\n      add\n      and\n      dup3\n      add\n      dup1\n      0x40\n      mstore\n      pop\n      dup2\n      add\n      swap1\n      tag_353\n      swap2\n      swap1\n      tag_237\n      jump\t// in\n    tag_353:\n      pop\n        /* \"contracts/token/ERC4626Upgradeable.sol\":2497:2520  _mint(receiver, shares) */\n      tag_354\n        /* \"contracts/token/ERC4626Upgradeable.sol\":2503:2511  receiver */\n      dup3\n        /* \"contracts/token/ERC4626Upgradeable.sol\":2513:2519  shares */\n      dup3\n        /* \"contracts/token/ERC4626Upgradeable.sol\":2497:2502  _mint */\n      tag_270\n        /* \"contracts/token/ERC4626Upgradeable.sol\":2497:2520  _mint(receiver, shares) */\n      jump\t// in\n    tag_354:\n        /* \"contracts/token/ERC4626Upgradeable.sol\":2556:2564  receiver */\n      dup2\n        /* \"contracts/token/ERC4626Upgradeable.sol\":2536:2582  Deposit(msg.sender, receiver, assets_, shares) */\n      0xffffffffffffffffffffffffffffffffffffffff\n      and\n        /* \"contracts/token/ERC4626Upgradeable.sol\":2544:2554  msg.sender */\n      caller\n        /* \"contracts/token/ERC4626Upgradeable.sol\":2536:2582  Deposit(msg.sender, receiver, assets_, shares) */\n      0xffffffffffffffffffffffffffffffffffffffff\n      and\n      0xdcbc1c05240f31ff3ad067ef1ee35ce4997762752e3a095284754544f4c709d7\n        /* \"contracts/token/ERC4626Upgradeable.sol\":2566:2573  assets_ */\n      dup6\n        /* \"contracts/token/ERC4626Upgradeable.sol\":2575:2581  shares */\n      dup5\n        /* \"contracts/token/ERC4626Upgradeable.sol\":2536:2582  Deposit(msg.sender, receiver, assets_, shares) */\n      mload(0x40)\n      tag_355\n      swap3\n      swap2\n      swap1\n      tag_272\n      jump\t// in\n    tag_355:\n      mload(0x40)\n      dup1\n      swap2\n      sub\n      swap1\n      log3\n        /* \"contracts/token/ERC4626Upgradeable.sol\":2196:2589  function deposit(uint256 assets_, address receiver) public virtual returns (uint256 shares) {... */\n      swap3\n      swap2\n      pop\n      pop\n      jump\t// out\n        /* \"contracts/token/ERC20Upgradeable.sol\":3711:3936  function _mint(address to, uint256 amount) internal virtual {... */\n    tag_270:\n        /* \"contracts/token/ERC20Upgradeable.sol\":3803:3804  0 */\n      0x00\n        /* \"contracts/token/ERC20Upgradeable.sol\":3789:3805  to != address(0) */\n      0xffffffffffffffffffffffffffffffffffffffff\n      and\n        /* \"contracts/token/ERC20Upgradeable.sol\":3789:3791  to */\n      dup3\n        /* \"contracts/token/ERC20Upgradeable.sol\":3789:3805  to != address(0) */\n      0xffffffffffffffffffffffffffffffffffffffff\n      and\n      sub\n        /* \"contracts/token/ERC20Upgradeable.sol\":3781:3817  require(to != address(0), \"ZERO_TO\") */\n      tag_357\n      jumpi\n      mload(0x40)\n      0x08c379a000000000000000000000000000000000000000000000000000000000\n      dup2\n      mstore\n      0x04\n      add\n      tag_358\n      swap1\n      tag_330\n      jump\t// in\n    tag_358:\n      mload(0x40)\n      dup1\n      swap2\n      sub\n      swap1\n      revert\n    tag_357:\n        /* \"contracts/token/ERC20Upgradeable.sol\":3843:3849  amount */\n      dup1\n        /* \"contracts/token/ERC20Upgradeable.sol\":3827:3839  _totalSupply */\n      0x04\n      0x00\n        /* \"contracts/token/ERC20Upgradeable.sol\":3827:3849  _totalSupply += amount */\n      dup3\n      dup3\n      sload\n      tag_359\n      swap2\n      swap1\n      tag_174\n      jump\t// in\n    tag_359:\n      swap3\n      pop\n      pop\n      dup2\n      swap1\n      sstore\n      pop\n        /* \"contracts/token/ERC20Upgradeable.sol\":3876:3882  amount */\n      dup1\n        /* \"contracts/token/ERC20Upgradeable.sol\":3859:3868  _balances */\n      0x05\n        /* \"contracts/token/ERC20Upgradeable.sol\":3859:3872  _balances[to] */\n      0x00\n        /* \"contracts/token/ERC20Upgradeable.sol\":3869:3871  to */\n      dup5\n        /* \"contracts/token/ERC20Upgradeable.sol\":3859:3872  _balances[to] */\n      0xffffffffffffffffffffffffffffffffffffffff\n      and\n      0xffffffffffffffffffffffffffffffffffffffff\n      and\n      dup2\n      mstore\n      0x20\n      add\n      swap1\n      dup2\n      mstore\n      0x20\n      add\n      0x00\n      keccak256\n      0x00\n        /* \"contracts/token/ERC20Upgradeable.sol\":3859:3882  _balances[to] += amount */\n      dup3\n      dup3\n      sload\n      tag_360\n      swap2\n      swap1\n      tag_174\n      jump\t// in\n    tag_360:\n      swap3\n      pop\n      pop\n      dup2\n      swap1\n      sstore\n      pop\n        /* \"contracts/token/ERC20Upgradeable.sol\":3918:3920  to */\n      dup2\n        /* \"contracts/token/ERC20Upgradeable.sol\":3897:3929  Transfer(address(0), to, amount) */\n      0xffffffffffffffffffffffffffffffffffffffff\n      and\n        /* \"contracts/token/ERC20Upgradeable.sol\":3914:3915  0 */\n      0x00\n        /* \"contracts/token/ERC20Upgradeable.sol\":3897:3929  Transfer(address(0), to, amount) */\n      0xffffffffffffffffffffffffffffffffffffffff\n      and\n      0xddf252ad1be2c89b69c2b068fc378daa952ba7f163c4a11628f55a4df523b3ef\n        /* \"contracts/token/ERC20Upgradeable.sol\":3922:3928  amount */\n      dup4\n        /* \"contracts/token/ERC20Upgradeable.sol\":3897:3929  Transfer(address(0), to, amount) */\n      mload(0x40)\n      tag_361\n      swap2\n      swap1\n      tag_42\n      jump\t// in\n    tag_361:\n      mload(0x40)\n      dup1\n      swap2\n      sub\n      swap1\n      log3\n        /* \"contracts/token/ERC20Upgradeable.sol\":3711:3936  function _mint(address to, uint256 amount) internal virtual {... */\n      pop\n      pop\n      jump\t// out\n        /* \"contracts/token/ERC4626Upgradeable.sol\":2991:3827  function withdraw(uint256 assets_, address receiver, address owner) public virtual returns (uint256 shares) {... */\n    tag_285:\n        /* \"contracts/token/ERC4626Upgradeable.sol\":3083:3097  uint256 shares */\n      0x00\n        /* \"contracts/token/ERC4626Upgradeable.sol\":3127:3128  0 */\n      0x00\n        /* \"contracts/token/ERC4626Upgradeable.sol\":3117:3124  assets_ */\n      dup5\n        /* \"contracts/token/ERC4626Upgradeable.sol\":3117:3128  assets_ > 0 */\n      gt\n        /* \"contracts/token/ERC4626Upgradeable.sol\":3109:3144  require(assets_ > 0, \"ZERO_ASSETS\") */\n      tag_363\n      jumpi\n      mload(0x40)\n      0x08c379a000000000000000000000000000000000000000000000000000000000\n      dup2\n      mstore\n      0x04\n      add\n      tag_364\n      swap1\n      tag_263\n      jump\t// in\n    tag_364:\n      mload(0x40)\n      dup1\n      swap2\n      sub\n      swap1\n      revert\n    tag_363:\n        /* \"contracts/token/ERC4626Upgradeable.sol\":3270:3294  convertToShares(assets_) */\n      tag_365\n        /* \"contracts/token/ERC4626Upgradeable.sol\":3286:3293  assets_ */\n      dup5\n        /* \"contracts/token/ERC4626Upgradeable.sol\":3270:3285  convertToShares */\n      tag_142\n        /* \"contracts/token/ERC4626Upgradeable.sol\":3270:3294  convertToShares(assets_) */\n      jump\t// in\n    tag_365:\n        /* \"contracts/token/ERC4626Upgradeable.sol\":3261:3294  shares = convertToShares(assets_) */\n      swap1\n      pop\n        /* \"contracts/token/ERC4626Upgradeable.sol\":3334:3341  assets_ */\n      dup4\n        /* \"contracts/token/ERC4626Upgradeable.sol\":3308:3331  convertToAssets(shares) */\n      tag_366\n        /* \"contracts/token/ERC4626Upgradeable.sol\":3324:3330  shares */\n      dup3\n        /* \"contracts/token/ERC4626Upgradeable.sol\":3308:3323  convertToAssets */\n      tag_50\n        /* \"contracts/token/ERC4626Upgradeable.sol\":3308:3331  convertToAssets(shares) */\n      jump\t// in\n    tag_366:\n        /* \"contracts/token/ERC4626Upgradeable.sol\":3308:3341  convertToAssets(shares) < assets_ */\n      lt\n        /* \"contracts/token/ERC4626Upgradeable.sol\":3304:3379  if (convertToAssets(shares) < assets_) {... */\n      iszero\n      tag_367\n      jumpi\n        /* \"contracts/token/ERC4626Upgradeable.sol\":3367:3368  1 */\n      0x01\n        /* \"contracts/token/ERC4626Upgradeable.sol\":3357:3368  shares += 1 */\n      dup2\n      tag_368\n      swap2\n      swap1\n      tag_174\n      jump\t// in\n    tag_368:\n      swap1\n      pop\n        /* \"contracts/token/ERC4626Upgradeable.sol\":3304:3379  if (convertToAssets(shares) < assets_) {... */\n    tag_367:\n        /* \"contracts/token/ERC4626Upgradeable.sol\":3402:3412  msg.sender */\n      caller\n        /* \"contracts/token/ERC4626Upgradeable.sol\":3393:3412  owner != msg.sender */\n      0xffffffffffffffffffffffffffffffffffffffff\n      and\n        /* \"contracts/token/ERC4626Upgradeable.sol\":3393:3398  owner */\n      dup3\n        /* \"contracts/token/ERC4626Upgradeable.sol\":3393:3412  owner != msg.sender */\n      0xffffffffffffffffffffffffffffffffffffffff\n      and\n      eq\n        /* \"contracts/token/ERC4626Upgradeable.sol\":3389:3676  if (owner != msg.sender) {... */\n      tag_369\n      jumpi\n        /* \"contracts/token/ERC4626Upgradeable.sol\":3428:3443  uint256 allowed */\n      0x00\n        /* \"contracts/token/ERC4626Upgradeable.sol\":3446:3474  allowance(owner, msg.sender) */\n      tag_370\n        /* \"contracts/token/ERC4626Upgradeable.sol\":3456:3461  owner */\n      dup4\n        /* \"contracts/token/ERC4626Upgradeable.sol\":3463:3473  msg.sender */\n      caller\n        /* \"contracts/token/ERC4626Upgradeable.sol\":3446:3455  allowance */\n      tag_150\n        /* \"contracts/token/ERC4626Upgradeable.sol\":3446:3474  allowance(owner, msg.sender) */\n      jump\t// in\n    tag_370:\n        /* \"contracts/token/ERC4626Upgradeable.sol\":3428:3474  uint256 allowed = allowance(owner, msg.sender) */\n      swap1\n      pop\n        /* \"contracts/token/ERC4626Upgradeable.sol\":3507:3513  shares */\n      dup2\n        /* \"contracts/token/ERC4626Upgradeable.sol\":3496:3503  allowed */\n      dup2\n        /* \"contracts/token/ERC4626Upgradeable.sol\":3496:3513  allowed >= shares */\n      lt\n      iszero\n        /* \"contracts/token/ERC4626Upgradeable.sol\":3488:3540  require(allowed >= shares, \"INSUFFICIENT_ALLOWANCE\") */\n      tag_371\n      jumpi\n      mload(0x40)\n      0x08c379a000000000000000000000000000000000000000000000000000000000\n      dup2\n      mstore\n      0x04\n      add\n      tag_372\n      swap1\n      tag_201\n      jump\t// in\n    tag_372:\n      mload(0x40)\n      dup1\n      swap2\n      sub\n      swap1\n      revert\n    tag_371:\n        /* \"contracts/token/ERC4626Upgradeable.sol\":3569:3586  type(uint256).max */\n      0xffffffffffffffffffffffffffffffffffffffffffffffffffffffffffffffff\n        /* \"contracts/token/ERC4626Upgradeable.sol\":3558:3565  allowed */\n      dup2\n        /* \"contracts/token/ERC4626Upgradeable.sol\":3558:3586  allowed != type(uint256).max */\n      eq\n        /* \"contracts/token/ERC4626Upgradeable.sol\":3554:3666  if (allowed != type(uint256).max) {... */\n      tag_373\n      jumpi\n        /* \"contracts/token/ERC4626Upgradeable.sol\":3606:3651  _approve(owner, msg.sender, allowed - shares) */\n      tag_374\n        /* \"contracts/token/ERC4626Upgradeable.sol\":3615:3620  owner */\n      dup4\n        /* \"contracts/token/ERC4626Upgradeable.sol\":3622:3632  msg.sender */\n      caller\n        /* \"contracts/token/ERC4626Upgradeable.sol\":3644:3650  shares */\n      dup5\n        /* \"contracts/token/ERC4626Upgradeable.sol\":3634:3641  allowed */\n      dup5\n        /* \"contracts/token/ERC4626Upgradeable.sol\":3634:3650  allowed - shares */\n      tag_375\n      swap2\n      swap1\n      tag_204\n      jump\t// in\n    tag_375:\n        /* \"contracts/token/ERC4626Upgradeable.sol\":3606:3614  _approve */\n      tag_195\n        /* \"contracts/token/ERC4626Upgradeable.sol\":3606:3651  _approve(owner, msg.sender, allowed - shares) */\n      jump\t// in\n    tag_374:\n        /* \"contracts/token/ERC4626Upgradeable.sol\":3554:3666  if (allowed != type(uint256).max) {... */\n    tag_373:\n        /* \"contracts/token/ERC4626Upgradeable.sol\":3414:3676  {... */\n      pop\n        /* \"contracts/token/ERC4626Upgradeable.sol\":3389:3676  if (owner != msg.sender) {... */\n    tag_369:\n        /* \"contracts/token/ERC4626Upgradeable.sol\":3686:3706  _burn(owner, shares) */\n      tag_376\n        /* \"contracts/token/ERC4626Upgradeable.sol\":3692:3697  owner */\n      dup3\n        /* \"contracts/token/ERC4626Upgradeable.sol\":3699:3705  shares */\n      dup3\n        /* \"contracts/token/ERC4626Upgradeable.sol\":3686:3691  _burn */\n      tag_298\n        /* \"contracts/token/ERC4626Upgradeable.sol\":3686:3706  _burn(owner, shares) */\n      jump\t// in\n    tag_376:\n        /* \"contracts/token/ERC4626Upgradeable.sol\":3716:3722  _asset */\n      0x07\n      0x00\n      swap1\n      sload\n      swap1\n      0x0100\n      exp\n      swap1\n      div\n      0xffffffffffffffffffffffffffffffffffffffff\n      and\n        /* \"contracts/token/ERC4626Upgradeable.sol\":3716:3731  _asset.transfer */\n      0xffffffffffffffffffffffffffffffffffffffff\n      and\n      0xa9059cbb\n        /* \"contracts/token/ERC4626Upgradeable.sol\":3732:3740  receiver */\n      dup5\n        /* \"contracts/token/ERC4626Upgradeable.sol\":3742:3749  assets_ */\n      dup7\n        /* \"contracts/token/ERC4626Upgradeable.sol\":3716:3750  _asset.transfer(receiver, assets_) */\n      mload(0x40)\n      dup4\n      0xffffffff\n      and\n      0xe0\n      shl\n      dup2\n      mstore\n      0x04\n      add\n      tag_377\n      swap3\n      swap2\n      swap1\n      tag_233\n      jump\t// in\n    tag_377:\n      0x20\n      mload(0x40)\n      dup1\n      dup4\n      sub\n      dup2\n      0x00\n      dup8\n      gas\n      call\n      iszero\n      dup1\n      iszero\n      tag_379\n      jumpi\n      returndatacopy(0x00, 0x00, returndatasize)\n      revert(0x00, returndatasize)\n    tag_379:\n      pop\n      pop\n      pop\n      pop\n      mload(0x40)\n      returndatasize\n      not(0x1f)\n      0x1f\n      dup3\n      add\n      and\n      dup3\n      add\n      dup1\n      0x40\n      mstore\n      pop\n      dup2\n      add\n      swap1\n      tag_380\n      swap2\n      swap1\n      tag_237\n      jump\t// in\n    tag_380:\n      pop\n        /* \"contracts/token/ERC4626Upgradeable.sol\":3797:3802  owner */\n      dup2\n        /* \"contracts/token/ERC4626Upgradeable.sol\":3766:3820  Withdraw(msg.sender, receiver, owner, assets_, shares) */\n      0xffffffffffffffffffffffffffffffffffffffff\n      and\n        /* \"contracts/token/ERC4626Upgradeable.sol\":3787:3795  receiver */\n      dup4\n        /* \"contracts/token/ERC4626Upgradeable.sol\":3766:3820  Withdraw(msg.sender, receiver, owner, assets_, shares) */\n      0xffffffffffffffffffffffffffffffffffffffff\n      and\n        /* \"contracts/token/ERC4626Upgradeable.sol\":3775:3785  msg.sender */\n      caller\n        /* \"contracts/token/ERC4626Upgradeable.sol\":3766:3820  Withdraw(msg.sender, receiver, owner, assets_, shares) */\n      0xffffffffffffffffffffffffffffffffffffffff\n      and\n      0xfbde797d201c681b91056529119e0b02407c7bb96a4a2c75c01fc9667232c8db\n        /* \"contracts/token/ERC4626Upgradeable.sol\":3804:3811  assets_ */\n      dup8\n        /* \"contracts/token/ERC4626Upgradeable.sol\":3813:3819  shares */\n      dup6\n        /* \"contracts/token/ERC4626Upgradeable.sol\":3766:3820  Withdraw(msg.sender, receiver, owner, assets_, shares) */\n      mload(0x40)\n      tag_381\n      swap3\n      swap2\n      swap1\n      tag_272\n      jump\t// in\n    tag_381:\n      mload(0x40)\n      dup1\n      swap2\n      sub\n      swap1\n      log4\n        /* \"contracts/token/ERC4626Upgradeable.sol\":2991:3827  function withdraw(uint256 assets_, address receiver, address owner) public virtual returns (uint256 shares) {... */\n      swap4\n      swap3\n      pop\n      pop\n      pop\n      jump\t// out\n        /* \"contracts/token/ERC20Upgradeable.sol\":3982:4327  function _burn(address from, uint256 amount) internal virtual {... */\n    tag_298:\n        /* \"contracts/token/ERC20Upgradeable.sol\":4054:4073  uint256 fromBalance */\n      0x00\n        /* \"contracts/token/ERC20Upgradeable.sol\":4076:4085  _balances */\n      0x05\n        /* \"contracts/token/ERC20Upgradeable.sol\":4076:4091  _balances[from] */\n      0x00\n        /* \"contracts/token/ERC20Upgradeable.sol\":4086:4090  from */\n      dup5\n        /* \"contracts/token/ERC20Upgradeable.sol\":4076:4091  _balances[from] */\n      0xffffffffffffffffffffffffffffffffffffffff\n      and\n      0xffffffffffffffffffffffffffffffffffffffff\n      and\n      dup2\n      mstore\n      0x20\n      add\n      swap1\n      dup2\n      mstore\n      0x20\n      add\n      0x00\n      keccak256\n      sload\n        /* \"contracts/token/ERC20Upgradeable.sol\":4054:4091  uint256 fromBalance = _balances[from] */\n      swap1\n      pop\n        /* \"contracts/token/ERC20Upgradeable.sol\":4124:4130  amount */\n      dup2\n        /* \"contracts/token/ERC20Upgradeable.sol\":4109:4120  fromBalance */\n      dup2\n        /* \"contracts/token/ERC20Upgradeable.sol\":4109:4130  fromBalance >= amount */\n      lt\n      iszero\n        /* \"contracts/token/ERC20Upgradeable.sol\":4101:4155  require(fromBalance >= amount, \"INSUFFICIENT_BALANCE\") */\n      tag_383\n      jumpi\n      mload(0x40)\n      0x08c379a000000000000000000000000000000000000000000000000000000000\n      dup2\n      mstore\n      0x04\n      add\n      tag_384\n      swap1\n      tag_333\n      jump\t// in\n    tag_384:\n      mload(0x40)\n      dup1\n      swap2\n      sub\n      swap1\n      revert\n    tag_383:\n        /* \"contracts/token/ERC20Upgradeable.sol\":4222:4228  amount */\n      dup2\n        /* \"contracts/token/ERC20Upgradeable.sol\":4208:4219  fromBalance */\n      dup2\n        /* \"contracts/token/ERC20Upgradeable.sol\":4208:4228  fromBalance - amount */\n      sub\n        /* \"contracts/token/ERC20Upgradeable.sol\":4190:4199  _balances */\n      0x05\n        /* \"contracts/token/ERC20Upgradeable.sol\":4190:4205  _balances[from] */\n      0x00\n        /* \"contracts/token/ERC20Upgradeable.sol\":4200:4204  from */\n      dup6\n        /* \"contracts/token/ERC20Upgradeable.sol\":4190:4205  _balances[from] */\n      0xffffffffffffffffffffffffffffffffffffffff\n      and\n      0xffffffffffffffffffffffffffffffffffffffff\n      and\n      dup2\n      mstore\n      0x20\n      add\n      swap1\n      dup2\n      mstore\n      0x20\n      add\n      0x00\n      keccak256\n        /* \"contracts/token/ERC20Upgradeable.sol\":4190:4228  _balances[from] = fromBalance - amount */\n      dup2\n      swap1\n      sstore\n      pop\n        /* \"contracts/token/ERC20Upgradeable.sol\":4265:4271  amount */\n      dup2\n        /* \"contracts/token/ERC20Upgradeable.sol\":4249:4261  _totalSupply */\n      0x04\n      0x00\n        /* \"contracts/token/ERC20Upgradeable.sol\":4249:4271  _totalSupply -= amount */\n      dup3\n      dup3\n      sload\n      tag_385\n      swap2\n      swap1\n      tag_204\n      jump\t// in\n    tag_385:\n      swap3\n      pop\n      pop\n      dup2\n      swap1\n      sstore\n      pop\n        /* \"contracts/token/ERC20Upgradeable.sol\":4309:4310  0 */\n      0x00\n        /* \"contracts/token/ERC20Upgradeable.sol\":4286:4320  Transfer(from, address(0), amount) */\n      0xffffffffffffffffffffffffffffffffffffffff\n      and\n        /* \"contracts/token/ERC20Upgradeable.sol\":4295:4299  from */\n      dup4\n        /* \"contracts/token/ERC20Upgradeable.sol\":4286:4320  Transfer(from, address(0), amount) */\n      0xffffffffffffffffffffffffffffffffffffffff\n      and\n      0xddf252ad1be2c89b69c2b068fc378daa952ba7f163c4a11628f55a4df523b3ef\n        /* \"contracts/token/ERC20Upgradeable.sol\":4313:4319  amount */\n      dup5\n        /* \"contracts/token/ERC20Upgradeable.sol\":4286:4320  Transfer(from, address(0), amount) */\n      mload(0x40)\n      tag_386\n      swap2\n      swap1\n      tag_42\n      jump\t// in\n    tag_386:\n      mload(0x40)\n      dup1\n      swap2\n      sub\n      swap1\n      log3\n        /* \"contracts/token/ERC20Upgradeable.sol\":4044:4327  {... */\n      pop\n        /* \"contracts/token/ERC20Upgradeable.sol\":3982:4327  function _burn(address from, uint256 amount) internal virtual {... */\n      pop\n      pop\n      jump\t// out\n        /* \"contracts/token/ERC20Upgradeable.sol\":1258:1504  function __ERC20_init(string memory name_, string memory symbol_, uint8 decimals_) internal {... */\n    tag_343:\n        /* \"contracts/token/ERC20Upgradeable.sol\":1391:1392  0 */\n      0x00\n        /* \"contracts/token/ERC20Upgradeable.sol\":1374:1379  _name */\n      0x01\n        /* \"contracts/token/ERC20Upgradeable.sol\":1368:1387  bytes(_name).length */\n      dup1\n      sload\n      tag_388\n      swap1\n      tag_177\n      jump\t// in\n    tag_388:\n      swap1\n      pop\n        /* \"contracts/token/ERC20Upgradeable.sol\":1368:1392  bytes(_name).length == 0 */\n      eq\n        /* \"contracts/token/ERC20Upgradeable.sol\":1360:1416  require(bytes(_name).length == 0, \"ALREADY_INITIALIZED\") */\n      tag_389\n      jumpi\n      mload(0x40)\n      0x08c379a000000000000000000000000000000000000000000000000000000000\n      dup2\n      mstore\n      0x04\n      add\n      tag_390\n      swap1\n      tag_213\n      jump\t// in\n    tag_390:\n      mload(0x40)\n      dup1\n      swap2\n      sub\n      swap1\n      revert\n    tag_389:\n        /* \"contracts/token/ERC20Upgradeable.sol\":1434:1439  name_ */\n      dup3\n        /* \"contracts/token/ERC20Upgradeable.sol\":1426:1431  _name */\n      0x01\n        /* \"contracts/token/ERC20Upgradeable.sol\":1426:1439  _name = name_ */\n      swap1\n      dup2\n      tag_391\n      swap2\n      swap1\n      tag_392\n      jump\t// in\n    tag_391:\n      pop\n        /* \"contracts/token/ERC20Upgradeable.sol\":1459:1466  symbol_ */\n      dup2\n        /* \"contracts/token/ERC20Upgradeable.sol\":1449:1456  _symbol */\n      0x02\n        /* \"contracts/token/ERC20Upgradeable.sol\":1449:1466  _symbol = symbol_ */\n      swap1\n      dup2\n      tag_393\n      swap2\n      swap1\n      tag_392\n      jump\t// in\n    tag_393:\n      pop\n        /* \"contracts/token/ERC20Upgradeable.sol\":1488:1497  decimals_ */\n      dup1\n        /* \"contracts/token/ERC20Upgradeable.sol\":1476:1485  _decimals */\n      0x03\n      0x00\n        /* \"contracts/token/ERC20Upgradeable.sol\":1476:1497  _decimals = decimals_ */\n      0x0100\n      exp\n      dup2\n      sload\n      dup2\n      0xff\n      mul\n      not\n      and\n      swap1\n      dup4\n      0xff\n      and\n      mul\n      or\n      swap1\n      sstore\n      pop\n        /* \"contracts/token/ERC20Upgradeable.sol\":1258:1504  function __ERC20_init(string memory name_, string memory symbol_, uint8 decimals_) internal {... */\n      pop\n      pop\n      pop\n      jump\t// out\n        /* \"#utility.yul\":7:84   */\n    tag_394:\n        /* \"#utility.yul\":44:51   */\n      0x00\n        /* \"#utility.yul\":73:78   */\n      dup2\n        /* \"#utility.yul\":62:78   */\n      swap1\n      pop\n        /* \"#utility.yul\":7:84   */\n      swap2\n      swap1\n      pop\n      jump\t// out\n        /* \"#utility.yul\":90:208   */\n    tag_395:\n        /* \"#utility.yul\":177:201   */\n      tag_459\n        /* \"#utility.yul\":195:200   */\n      dup2\n        /* \"#utility.yul\":177:201   */\n      tag_394\n      jump\t// in\n    tag_459:\n        /* \"#utility.yul\":172:175   */\n      dup3\n        /* \"#utility.yul\":165:202   */\n      mstore\n        /* \"#utility.yul\":90:208   */\n      pop\n      pop\n      jump\t// out\n        /* \"#utility.yul\":214:436   */\n    tag_42:\n        /* \"#utility.yul\":307:311   */\n      0x00\n        /* \"#utility.yul\":345:347   */\n      0x20\n        /* \"#utility.yul\":334:343   */\n      dup3\n        /* \"#utility.yul\":330:348   */\n      add\n        /* \"#utility.yul\":322:348   */\n      swap1\n      pop\n        /* \"#utility.yul\":358:429   */\n      tag_461\n        /* \"#utility.yul\":426:427   */\n      0x00\n        /* \"#utility.yul\":415:424   */\n      dup4\n        /* \"#utility.yul\":411:428   */\n      add\n        /* \"#utility.yul\":402:408   */\n      dup5\n        /* \"#utility.yul\":358:429   */\n      tag_395\n      jump\t// in\n    tag_461:\n        /* \"#utility.yul\":214:436   */\n      swap3\n      swap2\n      pop\n      pop\n      jump\t// out\n        /* \"#utility.yul\":442:541   */\n    tag_396:\n        /* \"#utility.yul\":494:500   */\n      0x00\n        /* \"#utility.yul\":528:533   */\n      dup2\n        /* \"#utility.yul\":522:534   */\n      mload\n        /* \"#utility.yul\":512:534   */\n      swap1\n      pop\n        /* \"#utility.yul\":442:541   */\n      swap2\n      swap1\n      pop\n      jump\t// out\n        /* \"#utility.yul\":547:716   */\n    tag_397:\n        /* \"#utility.yul\":631:642   */\n      0x00\n        /* \"#utility.yul\":665:671   */\n      dup3\n        /* \"#utility.yul\":660:663   */\n      dup3\n        /* \"#utility.yul\":653:672   */\n      mstore\n        /* \"#utility.yul\":705:709   */\n      0x20\n        /* \"#utility.yul\":700:703   */\n      dup3\n        /* \"#utility.yul\":696:710   */\n      add\n        /* \"#utility.yul\":681:710   */\n      swap1\n      pop\n        /* \"#utility.yul\":547:716   */\n      swap3\n      swap2\n      pop\n      pop\n      jump\t// out\n        /* \"#utility.yul\":722:861   */\n    tag_398:\n        /* \"#utility.yul\":811:817   */\n      dup3\n        /* \"#utility.yul\":806:809   */\n      dup2\n        /* \"#utility.yul\":801:804   */\n      dup4\n        /* \"#utility.yul\":795:818   */\n      mcopy\n        /* \"#utility.yul\":852:853   */\n      0x00\n        /* \"#utility.yul\":843:849   */\n      dup4\n        /* \"#utility.yul\":838:841   */\n      dup4\n        /* \"#utility.yul\":834:850   */\n      add\n        /* \"#utility.yul\":827:854   */\n      mstore\n        /* \"#utility.yul\":722:861   */\n      pop\n      pop\n      pop\n      jump\t// out\n        /* \"#utility.yul\":867:969   */\n    tag_399:\n        /* \"#utility.yul\":908:914   */\n      0x00\n        /* \"#utility.yul\":959:961   */\n      0x1f\n        /* \"#utility.yul\":955:962   */\n      not\n        /* \"#utility.yul\":950:952   */\n      0x1f\n        /* \"#utility.yul\":943:948   */\n      dup4\n        /* \"#utility.yul\":939:953   */\n      add\n        /* \"#utility.yul\":935:963   */\n      and\n        /* \"#utility.yul\":925:963   */\n      swap1\n      pop\n        /* \"#utility.yul\":867:969   */\n      swap2\n      swap1\n      pop\n      jump\t// out\n        /* \"#utility.yul\":975:1352   */\n    tag_400:\n        /* \"#utility.yul\":1063:1066   */\n      0x00\n        /* \"#utility.yul\":1091:1130   */\n      tag_467\n        /* \"#utility.yul\":1124:1129   */\n      dup3\n        /* \"#utility.yul\":1091:1130   */\n      tag_396\n      jump\t// in\n    tag_467:\n        /* \"#utility.yul\":1146:1217   */\n      tag_468\n        /* \"#utility.yul\":1210:1216   */\n      dup2\n        /* \"#utility.yul\":1205:1208   */\n      dup6\n        /* \"#utility.yul\":1146:1217   */\n      tag_397\n      jump\t// in\n    tag_468:\n        /* \"#utility.yul\":1139:1217   */\n      swap4\n      pop\n        /* \"#utility.yul\":1226:1291   */\n      tag_469\n        /* \"#utility.yul\":1284:1290   */\n      dup2\n        /* \"#utility.yul\":1279:1282   */\n      dup6\n        /* \"#utility.yul\":1272:1276   */\n      0x20\n        /* \"#utility.yul\":1265:1270   */\n      dup7\n        /* \"#utility.yul\":1261:1277   */\n      add\n        /* \"#utility.yul\":1226:1291   */\n      tag_398\n      jump\t// in\n    tag_469:\n        /* \"#utility.yul\":1316:1345   */\n      tag_470\n        /* \"#utility.yul\":1338:1344   */\n      dup2\n        /* \"#utility.yul\":1316:1345   */\n      tag_399\n      jump\t// in\n    tag_470:\n        /* \"#utility.yul\":1311:1314   */\n      dup5\n        /* \"#utility.yul\":1307:1346   */\n      add\n        /* \"#utility.yul\":1300:1346   */\n      swap2\n      pop\n        /* \"#utility.yul\":1067:1352   */\n      pop\n        /* \"#utility.yul\":975:1352   */\n      swap3\n      swap2\n      pop\n      pop\n      jump\t// out\n        /* \"#utility.yul\":1358:1671   */\n    tag_46:\n        /* \"#utility.yul\":1471:1475   */\n      0x00\n        /* \"#utility.yul\":1509:1511   */\n      0x20\n        /* \"#utility.yul\":1498:1507   */\n      dup3\n        /* \"#utility.yul\":1494:1512   */\n      add\n        /* \"#utility.yul\":1486:1512   */\n      swap1\n      pop\n        /* \"#utility.yul\":1558:1567   */\n      dup2\n        /* \"#utility.yul\":1552:1556   */\n      dup2\n        /* \"#utility.yul\":1548:1568   */\n      sub\n        /* \"#utility.yul\":1544:1545   */\n      0x00\n        /* \"#utility.yul\":1533:1542   */\n      dup4\n        /* \"#utility.yul\":1529:1546   */\n      add\n        /* \"#utility.yul\":1522:1569   */\n      mstore\n        /* \"#utility.yul\":1586:1664   */\n      tag_472\n        /* \"#utility.yul\":1659:1663   */\n      dup2\n        /* \"#utility.yul\":1650:1656   */\n      dup5\n        /* \"#utility.yul\":1586:1664   */\n      tag_400\n      jump\t// in\n    tag_472:\n        /* \"#utility.yul\":1578:1664   */\n      swap1\n      pop\n        /* \"#utility.yul\":1358:1671   */\n      swap3\n      swap2\n      pop\n      pop\n      jump\t// out\n        /* \"#utility.yul\":1758:1875   */\n    tag_402:\n        /* \"#utility.yul\":1867:1868   */\n      0x00\n        /* \"#utility.yul\":1864:1865   */\n      0x00\n        /* \"#utility.yul\":1857:1869   */\n      revert\n        /* \"#utility.yul\":1881:1998   */\n    tag_403:\n        /* \"#utility.yul\":1990:1991   */\n      0x00\n        /* \"#utility.yul\":1987:1988   */\n      0x00\n        /* \"#utility.yul\":1980:1992   */\n      revert\n        /* \"#utility.yul\":2004:2126   */\n    tag_404:\n        /* \"#utility.yul\":2077:2101   */\n      tag_477\n        /* \"#utility.yul\":2095:2100   */\n      dup2\n        /* \"#utility.yul\":2077:2101   */\n      tag_394\n      jump\t// in\n    tag_477:\n        /* \"#utility.yul\":2070:2075   */\n      dup2\n        /* \"#utility.yul\":2067:2102   */\n      eq\n        /* \"#utility.yul\":2057:2120   */\n      tag_478\n      jumpi\n        /* \"#utility.yul\":2116:2117   */\n      0x00\n        /* \"#utility.yul\":2113:2114   */\n      0x00\n        /* \"#utility.yul\":2106:2118   */\n      revert\n        /* \"#utility.yul\":2057:2120   */\n    tag_478:\n        /* \"#utility.yul\":2004:2126   */\n      pop\n      jump\t// out\n        /* \"#utility.yul\":2132:2271   */\n    tag_405:\n        /* \"#utility.yul\":2178:2183   */\n      0x00\n        /* \"#utility.yul\":2216:2222   */\n      dup2\n        /* \"#utility.yul\":2203:2223   */\n      calldataload\n        /* \"#utility.yul\":2194:2223   */\n      swap1\n      pop\n        /* \"#utility.yul\":2232:2265   */\n      tag_480\n        /* \"#utility.yul\":2259:2264   */\n      dup2\n        /* \"#utility.yul\":2232:2265   */\n      tag_404\n      jump\t// in\n    tag_480:\n        /* \"#utility.yul\":2132:2271   */\n      swap3\n      swap2\n      pop\n      pop\n      jump\t// out\n        /* \"#utility.yul\":2277:2606   */\n    tag_49:\n        /* \"#utility.yul\":2336:2342   */\n      0x00\n        /* \"#utility.yul\":2385:2387   */\n      0x20\n        /* \"#utility.yul\":2373:2382   */\n      dup3\n        /* \"#utility.yul\":2364:2371   */\n      dup5\n        /* \"#utility.yul\":2360:2383   */\n      sub\n        /* \"#utility.yul\":2356:2388   */\n      slt\n        /* \"#utility.yul\":2353:2472   */\n      iszero\n      tag_482\n      jumpi\n        /* \"#utility.yul\":2391:2470   */\n      tag_483\n      tag_402\n      jump\t// in\n    tag_483:\n        /* \"#utility.yul\":2353:2472   */\n    tag_482:\n        /* \"#utility.yul\":2511:2512   */\n      0x00\n        /* \"#utility.yul\":2536:2589   */\n      tag_484\n        /* \"#utility.yul\":2581:2588   */\n      dup5\n        /* \"#utility.yul\":2572:2578   */\n      dup3\n        /* \"#utility.yul\":2561:2570   */\n      dup6\n        /* \"#utility.yul\":2557:2579   */\n      add\n        /* \"#utility.yul\":2536:2589   */\n      tag_405\n      jump\t// in\n    tag_484:\n        /* \"#utility.yul\":2526:2589   */\n      swap2\n      pop\n        /* \"#utility.yul\":2482:2599   */\n      pop\n        /* \"#utility.yul\":2277:2606   */\n      swap3\n      swap2\n      pop\n      pop\n      jump\t// out\n        /* \"#utility.yul\":2612:2738   */\n    tag_406:\n        /* \"#utility.yul\":2649:2656   */\n      0x00\n        /* \"#utility.yul\":2689:2731   */\n      0xffffffffffffffffffffffffffffffffffffffff\n        /* \"#utility.yul\":2682:2687   */\n      dup3\n        /* \"#utility.yul\":2678:2732   */\n      and\n        /* \"#utility.yul\":2667:2732   */\n      swap1\n      pop\n        /* \"#utility.yul\":2612:2738   */\n      swap2\n      swap1\n      pop\n      jump\t// out\n        /* \"#utility.yul\":2744:2840   */\n    tag_407:\n        /* \"#utility.yul\":2781:2788   */\n      0x00\n        /* \"#utility.yul\":2810:2834   */\n      tag_487\n        /* \"#utility.yul\":2828:2833   */\n      dup3\n        /* \"#utility.yul\":2810:2834   */\n      tag_406\n      jump\t// in\n    tag_487:\n        /* \"#utility.yul\":2799:2834   */\n      swap1\n      pop\n        /* \"#utility.yul\":2744:2840   */\n      swap2\n      swap1\n      pop\n      jump\t// out\n        /* \"#utility.yul\":2846:2968   */\n    tag_408:\n        /* \"#utility.yul\":2919:2943   */\n      tag_489\n        /* \"#utility.yul\":2937:2942   */\n      dup2\n        /* \"#utility.yul\":2919:2943   */\n      tag_407\n      jump\t// in\n    tag_489:\n        /* \"#utility.yul\":2912:2917   */\n      dup2\n        /* \"#utility.yul\":2909:2944   */\n      eq\n        /* \"#utility.yul\":2899:2962   */\n      tag_490\n      jumpi\n        /* \"#utility.yul\":2958:2959   */\n      0x00\n        /* \"#utility.yul\":2955:2956   */\n      0x00\n        /* \"#utility.yul\":2948:2960   */\n      revert\n        /* \"#utility.yul\":2899:2962   */\n    tag_490:\n        /* \"#utility.yul\":2846:2968   */\n      pop\n      jump\t// out\n        /* \"#utility.yul\":2974:3113   */\n    tag_409:\n        /* \"#utility.yul\":3020:3025   */\n      0x00\n        /* \"#utility.yul\":3058:3064   */\n      dup2\n        /* \"#utility.yul\":3045:3065   */\n      calldataload\n        /* \"#utility.yul\":3036:3065   */\n      swap1\n      pop\n        /* \"#utility.yul\":3074:3107   */\n      tag_492\n        /* \"#utility.yul\":3101:3106   */\n      dup2\n        /* \"#utility.yul\":3074:3107   */\n      tag_408\n      jump\t// in\n    tag_492:\n        /* \"#utility.yul\":2974:3113   */\n      swap3\n      swap2\n      pop\n      pop\n      jump\t// out\n        /* \"#utility.yul\":3119:3593   */\n    tag_54:\n        /* \"#utility.yul\":3187:3193   */\n      0x00\n        /* \"#utility.yul\":3195:3201   */\n      0x00\n        /* \"#utility.yul\":3244:3246   */\n      0x40\n        /* \"#utility.yul\":3232:3241   */\n      dup4\n        /* \"#utility.yul\":3223:3230   */\n      dup6\n        /* \"#utility.yul\":3219:3242   */\n      sub\n        /* \"#utility.yul\":3215:3247   */\n      slt\n        /* \"#utility.yul\":3212:3331   */\n      iszero\n      tag_494\n      jumpi\n        /* \"#utility.yul\":3250:3329   */\n      tag_495\n      tag_402\n      jump\t// in\n    tag_495:\n        /* \"#utility.yul\":3212:3331   */\n    tag_494:\n        /* \"#utility.yul\":3370:3371   */\n      0x00\n        /* \"#utility.yul\":3395:3448   */\n      tag_496\n        /* \"#utility.yul\":3440:3447   */\n      dup6\n        /* \"#utility.yul\":3431:3437   */\n      dup3\n        /* \"#utility.yul\":3420:3429   */\n      dup7\n        /* \"#utility.yul\":3416:3438   */\n      add\n        /* \"#utility.yul\":3395:3448   */\n      tag_409\n      jump\t// in\n    tag_496:\n        /* \"#utility.yul\":3385:3448   */\n      swap3\n      pop\n        /* \"#utility.yul\":3341:3458   */\n      pop\n        /* \"#utility.yul\":3497:3499   */\n      0x20\n        /* \"#utility.yul\":3523:3576   */\n      tag_497\n        /* \"#utility.yul\":3568:3575   */\n      dup6\n        /* \"#utility.yul\":3559:3565   */\n      dup3\n        /* \"#utility.yul\":3548:3557   */\n      dup7\n        /* \"#utility.yul\":3544:3566   */\n      add\n        /* \"#utility.yul\":3523:3576   */\n      tag_405\n      jump\t// in\n    tag_497:\n        /* \"#utility.yul\":3513:3576   */\n      swap2\n      pop\n        /* \"#utility.yul\":3468:3586   */\n      pop\n        /* \"#utility.yul\":3119:3593   */\n      swap3\n      pop\n      swap3\n      swap1\n      pop\n      jump\t// out\n        /* \"#utility.yul\":3599:3689   */\n    tag_410:\n        /* \"#utility.yul\":3633:3640   */\n      0x00\n        /* \"#utility.yul\":3676:3681   */\n      dup2\n        /* \"#utility.yul\":3669:3682   */\n      iszero\n        /* \"#utility.yul\":3662:3683   */\n      iszero\n        /* \"#utility.yul\":3651:3683   */\n      swap1\n      pop\n        /* \"#utility.yul\":3599:3689   */\n      swap2\n      swap1\n      pop\n      jump\t// out\n        /* \"#utility.yul\":3695:3804   */\n    tag_411:\n        /* \"#utility.yul\":3776:3797   */\n      tag_500\n        /* \"#utility.yul\":3791:3796   */\n      dup2\n        /* \"#utility.yul\":3776:3797   */\n      tag_410\n      jump\t// in\n    tag_500:\n        /* \"#utility.yul\":3771:3774   */\n      dup3\n        /* \"#utility.yul\":3764:3798   */\n      mstore\n        /* \"#utility.yul\":3695:3804   */\n      pop\n      pop\n      jump\t// out\n        /* \"#utility.yul\":3810:4020   */\n    tag_57:\n        /* \"#utility.yul\":3897:3901   */\n      0x00\n        /* \"#utility.yul\":3935:3937   */\n      0x20\n        /* \"#utility.yul\":3924:3933   */\n      dup3\n        /* \"#utility.yul\":3920:3938   */\n      add\n        /* \"#utility.yul\":3912:3938   */\n      swap1\n      pop\n        /* \"#utility.yul\":3948:4013   */\n      tag_502\n        /* \"#utility.yul\":4010:4011   */\n      0x00\n        /* \"#utility.yul\":3999:4008   */\n      dup4\n        /* \"#utility.yul\":3995:4012   */\n      add\n        /* \"#utility.yul\":3986:3992   */\n      dup5\n        /* \"#utility.yul\":3948:4013   */\n      tag_411\n      jump\t// in\n    tag_502:\n        /* \"#utility.yul\":3810:4020   */\n      swap3\n      swap2\n      pop\n      pop\n      jump\t// out\n        /* \"#utility.yul\":4026:4645   */\n    tag_63:\n        /* \"#utility.yul\":4103:4109   */\n      0x00\n        /* \"#utility.yul\":4111:4117   */\n      0x00\n        /* \"#utility.yul\":4119:4125   */\n      0x00\n        /* \"#utility.yul\":4168:4170   */\n      0x60\n        /* \"#utility.yul\":4156:4165   */\n      dup5\n        /* \"#utility.yul\":4147:4154   */\n      dup7\n        /* \"#utility.yul\":4143:4166   */\n      sub\n        /* \"#utility.yul\":4139:4171   */\n      slt\n        /* \"#utility.yul\":4136:4255   */\n      iszero\n      tag_504\n      jumpi\n        /* \"#utility.yul\":4174:4253   */\n      tag_505\n      tag_402\n      jump\t// in\n    tag_505:\n        /* \"#utility.yul\":4136:4255   */\n    tag_504:\n        /* \"#utility.yul\":4294:4295   */\n      0x00\n        /* \"#utility.yul\":4319:4372   */\n      tag_506\n        /* \"#utility.yul\":4364:4371   */\n      dup7\n        /* \"#utility.yul\":4355:4361   */\n      dup3\n        /* \"#utility.yul\":4344:4353   */\n      dup8\n        /* \"#utility.yul\":4340:4362   */\n      add\n        /* \"#utility.yul\":4319:4372   */\n      tag_409\n      jump\t// in\n    tag_506:\n        /* \"#utility.yul\":4309:4372   */\n      swap4\n      pop\n        /* \"#utility.yul\":4265:4382   */\n      pop\n        /* \"#utility.yul\":4421:4423   */\n      0x20\n        /* \"#utility.yul\":4447:4500   */\n      tag_507\n        /* \"#utility.yul\":4492:4499   */\n      dup7\n        /* \"#utility.yul\":4483:4489   */\n      dup3\n        /* \"#utility.yul\":4472:4481   */\n      dup8\n        /* \"#utility.yul\":4468:4490   */\n      add\n        /* \"#utility.yul\":4447:4500   */\n      tag_409\n      jump\t// in\n    tag_507:\n        /* \"#utility.yul\":4437:4500   */\n      swap3\n      pop\n        /* \"#utility.yul\":4392:4510   */\n      pop\n        /* \"#utility.yul\":4549:4551   */\n      0x40\n        /* \"#utility.yul\":4575:4628   */\n      tag_508\n        /* \"#utility.yul\":4620:4627   */\n      dup7\n        /* \"#utility.yul\":4611:4617   */\n      dup3\n        /* \"#utility.yul\":4600:4609   */\n      dup8\n        /* \"#utility.yul\":4596:4618   */\n      add\n        /* \"#utility.yul\":4575:4628   */\n      tag_405\n      jump\t// in\n    tag_508:\n        /* \"#utility.yul\":4565:4628   */\n      swap2\n      pop\n        /* \"#utility.yul\":4520:4638   */\n      pop\n        /* \"#utility.yul\":4026:4645   */\n      swap3\n      pop\n      swap3\n      pop\n      swap3\n      jump\t// out\n        /* \"#utility.yul\":4651:4737   */\n    tag_412:\n        /* \"#utility.yul\":4686:4693   */\n      0x00\n        /* \"#utility.yul\":4726:4730   */\n      0xff\n        /* \"#utility.yul\":4719:4724   */\n      dup3\n        /* \"#utility.yul\":4715:4731   */\n      and\n        /* \"#utility.yul\":4704:4731   */\n      swap1\n      pop\n        /* \"#utility.yul\":4651:4737   */\n      swap2\n      swap1\n      pop\n      jump\t// out\n        /* \"#utility.yul\":4743:4855   */\n    tag_413:\n        /* \"#utility.yul\":4826:4848   */\n      tag_511\n        /* \"#utility.yul\":4842:4847   */\n      dup2\n        /* \"#utility.yul\":4826:4848   */\n      tag_412\n      jump\t// in\n    tag_511:\n        /* \"#utility.yul\":4821:4824   */\n      dup3\n        /* \"#utility.yul\":4814:4849   */\n      mstore\n        /* \"#utility.yul\":4743:4855   */\n      pop\n      pop\n      jump\t// out\n        /* \"#utility.yul\":4861:5075   */\n    tag_69:\n        /* \"#utility.yul\":4950:4954   */\n      0x00\n        /* \"#utility.yul\":4988:4990   */\n      0x20\n        /* \"#utility.yul\":4977:4986   */\n      dup3\n        /* \"#utility.yul\":4973:4991   */\n      add\n        /* \"#utility.yul\":4965:4991   */\n      swap1\n      pop\n        /* \"#utility.yul\":5001:5068   */\n      tag_513\n        /* \"#utility.yul\":5065:5066   */\n      0x00\n        /* \"#utility.yul\":5054:5063   */\n      dup4\n        /* \"#utility.yul\":5050:5067   */\n      add\n        /* \"#utility.yul\":5041:5047   */\n      dup5\n        /* \"#utility.yul\":5001:5068   */\n      tag_413\n      jump\t// in\n    tag_513:\n        /* \"#utility.yul\":4861:5075   */\n      swap3\n      swap2\n      pop\n      pop\n      jump\t// out\n        /* \"#utility.yul\":5081:5199   */\n    tag_414:\n        /* \"#utility.yul\":5168:5192   */\n      tag_515\n        /* \"#utility.yul\":5186:5191   */\n      dup2\n        /* \"#utility.yul\":5168:5192   */\n      tag_407\n      jump\t// in\n    tag_515:\n        /* \"#utility.yul\":5163:5166   */\n      dup3\n        /* \"#utility.yul\":5156:5193   */\n      mstore\n        /* \"#utility.yul\":5081:5199   */\n      pop\n      pop\n      jump\t// out\n        /* \"#utility.yul\":5205:5427   */\n    tag_73:\n        /* \"#utility.yul\":5298:5302   */\n      0x00\n        /* \"#utility.yul\":5336:5338   */\n      0x20\n        /* \"#utility.yul\":5325:5334   */\n      dup3\n        /* \"#utility.yul\":5321:5339   */\n      add\n        /* \"#utility.yul\":5313:5339   */\n      swap1\n      pop\n        /* \"#utility.yul\":5349:5420   */\n      tag_517\n        /* \"#utility.yul\":5417:5418   */\n      0x00\n        /* \"#utility.yul\":5406:5415   */\n      dup4\n        /* \"#utility.yul\":5402:5419   */\n      add\n        /* \"#utility.yul\":5393:5399   */\n      dup5\n        /* \"#utility.yul\":5349:5420   */\n      tag_414\n      jump\t// in\n    tag_517:\n        /* \"#utility.yul\":5205:5427   */\n      swap3\n      swap2\n      pop\n      pop\n      jump\t// out\n        /* \"#utility.yul\":5433:5550   */\n    tag_415:\n        /* \"#utility.yul\":5542:5543   */\n      0x00\n        /* \"#utility.yul\":5539:5540   */\n      0x00\n        /* \"#utility.yul\":5532:5544   */\n      revert\n        /* \"#utility.yul\":5556:5673   */\n    tag_416:\n        /* \"#utility.yul\":5665:5666   */\n      0x00\n        /* \"#utility.yul\":5662:5663   */\n      0x00\n        /* \"#utility.yul\":5655:5667   */\n      revert\n        /* \"#utility.yul\":5679:5796   */\n    tag_417:\n        /* \"#utility.yul\":5788:5789   */\n      0x00\n        /* \"#utility.yul\":5785:5786   */\n      0x00\n        /* \"#utility.yul\":5778:5790   */\n      revert\n        /* \"#utility.yul\":5816:6369   */\n    tag_418:\n        /* \"#utility.yul\":5874:5882   */\n      0x00\n        /* \"#utility.yul\":5884:5890   */\n      0x00\n        /* \"#utility.yul\":5934:5937   */\n      dup4\n        /* \"#utility.yul\":5927:5931   */\n      0x1f\n        /* \"#utility.yul\":5919:5925   */\n      dup5\n        /* \"#utility.yul\":5915:5932   */\n      add\n        /* \"#utility.yul\":5911:5938   */\n      slt\n        /* \"#utility.yul\":5901:6023   */\n      tag_522\n      jumpi\n        /* \"#utility.yul\":5942:6021   */\n      tag_523\n      tag_415\n      jump\t// in\n    tag_523:\n        /* \"#utility.yul\":5901:6023   */\n    tag_522:\n        /* \"#utility.yul\":6055:6061   */\n      dup3\n        /* \"#utility.yul\":6042:6062   */\n      calldataload\n        /* \"#utility.yul\":6032:6062   */\n      swap1\n      pop\n        /* \"#utility.yul\":6085:6103   */\n      0xffffffffffffffff\n        /* \"#utility.yul\":6077:6083   */\n      dup2\n        /* \"#utility.yul\":6074:6104   */\n      gt\n        /* \"#utility.yul\":6071:6188   */\n      iszero\n      tag_524\n      jumpi\n        /* \"#utility.yul\":6107:6186   */\n      tag_525\n      tag_416\n      jump\t// in\n    tag_525:\n        /* \"#utility.yul\":6071:6188   */\n    tag_524:\n        /* \"#utility.yul\":6221:6225   */\n      0x20\n        /* \"#utility.yul\":6213:6219   */\n      dup4\n        /* \"#utility.yul\":6209:6226   */\n      add\n        /* \"#utility.yul\":6197:6226   */\n      swap2\n      pop\n        /* \"#utility.yul\":6275:6278   */\n      dup4\n        /* \"#utility.yul\":6267:6271   */\n      0x01\n        /* \"#utility.yul\":6259:6265   */\n      dup3\n        /* \"#utility.yul\":6255:6272   */\n      mul\n        /* \"#utility.yul\":6245:6253   */\n      dup4\n        /* \"#utility.yul\":6241:6273   */\n      add\n        /* \"#utility.yul\":6238:6279   */\n      gt\n        /* \"#utility.yul\":6235:6363   */\n      iszero\n      tag_526\n      jumpi\n        /* \"#utility.yul\":6282:6361   */\n      tag_527\n      tag_417\n      jump\t// in\n    tag_527:\n        /* \"#utility.yul\":6235:6363   */\n    tag_526:\n        /* \"#utility.yul\":5816:6369   */\n      swap3\n      pop\n      swap3\n      swap1\n      pop\n      jump\t// out\n        /* \"#utility.yul\":6375:8178   */\n    tag_79:\n        /* \"#utility.yul\":6524:6530   */\n      0x00\n        /* \"#utility.yul\":6532:6538   */\n      0x00\n        /* \"#utility.yul\":6540:6546   */\n      0x00\n        /* \"#utility.yul\":6548:6554   */\n      0x00\n        /* \"#utility.yul\":6556:6562   */\n      0x00\n        /* \"#utility.yul\":6564:6570   */\n      0x00\n        /* \"#utility.yul\":6572:6578   */\n      0x00\n        /* \"#utility.yul\":6580:6586   */\n      0x00\n        /* \"#utility.yul\":6588:6594   */\n      0x00\n        /* \"#utility.yul\":6596:6602   */\n      0x00\n        /* \"#utility.yul\":6645:6648   */\n      0xe0\n        /* \"#utility.yul\":6633:6642   */\n      dup12\n        /* \"#utility.yul\":6624:6631   */\n      dup14\n        /* \"#utility.yul\":6620:6643   */\n      sub\n        /* \"#utility.yul\":6616:6649   */\n      slt\n        /* \"#utility.yul\":6613:6733   */\n      iszero\n      tag_529\n      jumpi\n        /* \"#utility.yul\":6652:6731   */\n      tag_530\n      tag_402\n      jump\t// in\n    tag_530:\n        /* \"#utility.yul\":6613:6733   */\n    tag_529:\n        /* \"#utility.yul\":6772:6773   */\n      0x00\n        /* \"#utility.yul\":6797:6850   */\n      tag_531\n        /* \"#utility.yul\":6842:6849   */\n      dup14\n        /* \"#utility.yul\":6833:6839   */\n      dup3\n        /* \"#utility.yul\":6822:6831   */\n      dup15\n        /* \"#utility.yul\":6818:6840   */\n      add\n        /* \"#utility.yul\":6797:6850   */\n      tag_409\n      jump\t// in\n    tag_531:\n        /* \"#utility.yul\":6787:6850   */\n      swap11\n      pop\n        /* \"#utility.yul\":6743:6860   */\n      pop\n        /* \"#utility.yul\":6899:6901   */\n      0x20\n        /* \"#utility.yul\":6925:6978   */\n      tag_532\n        /* \"#utility.yul\":6970:6977   */\n      dup14\n        /* \"#utility.yul\":6961:6967   */\n      dup3\n        /* \"#utility.yul\":6950:6959   */\n      dup15\n        /* \"#utility.yul\":6946:6968   */\n      add\n        /* \"#utility.yul\":6925:6978   */\n      tag_409\n      jump\t// in\n    tag_532:\n        /* \"#utility.yul\":6915:6978   */\n      swap10\n      pop\n        /* \"#utility.yul\":6870:6988   */\n      pop\n        /* \"#utility.yul\":7055:7057   */\n      0x40\n        /* \"#utility.yul\":7044:7053   */\n      dup12\n        /* \"#utility.yul\":7040:7058   */\n      add\n        /* \"#utility.yul\":7027:7059   */\n      calldataload\n        /* \"#utility.yul\":7086:7104   */\n      0xffffffffffffffff\n        /* \"#utility.yul\":7078:7084   */\n      dup2\n        /* \"#utility.yul\":7075:7105   */\n      gt\n        /* \"#utility.yul\":7072:7189   */\n      iszero\n      tag_533\n      jumpi\n        /* \"#utility.yul\":7108:7187   */\n      tag_534\n      tag_403\n      jump\t// in\n    tag_534:\n        /* \"#utility.yul\":7072:7189   */\n    tag_533:\n        /* \"#utility.yul\":7221:7286   */\n      tag_535\n        /* \"#utility.yul\":7278:7285   */\n      dup14\n        /* \"#utility.yul\":7269:7275   */\n      dup3\n        /* \"#utility.yul\":7258:7267   */\n      dup15\n        /* \"#utility.yul\":7254:7276   */\n      add\n        /* \"#utility.yul\":7221:7286   */\n      tag_418\n      jump\t// in\n    tag_535:\n        /* \"#utility.yul\":7203:7286   */\n      swap9\n      pop\n      swap9\n      pop\n        /* \"#utility.yul\":6998:7296   */\n      pop\n        /* \"#utility.yul\":7363:7365   */\n      0x60\n        /* \"#utility.yul\":7352:7361   */\n      dup12\n        /* \"#utility.yul\":7348:7366   */\n      add\n        /* \"#utility.yul\":7335:7367   */\n      calldataload\n        /* \"#utility.yul\":7394:7412   */\n      0xffffffffffffffff\n        /* \"#utility.yul\":7386:7392   */\n      dup2\n        /* \"#utility.yul\":7383:7413   */\n      gt\n        /* \"#utility.yul\":7380:7497   */\n      iszero\n      tag_536\n      jumpi\n        /* \"#utility.yul\":7416:7495   */\n      tag_537\n      tag_403\n      jump\t// in\n    tag_537:\n        /* \"#utility.yul\":7380:7497   */\n    tag_536:\n        /* \"#utility.yul\":7529:7594   */\n      tag_538\n        /* \"#utility.yul\":7586:7593   */\n      dup14\n        /* \"#utility.yul\":7577:7583   */\n      dup3\n        /* \"#utility.yul\":7566:7575   */\n      dup15\n        /* \"#utility.yul\":7562:7584   */\n      add\n        /* \"#utility.yul\":7529:7594   */\n      tag_418\n      jump\t// in\n    tag_538:\n        /* \"#utility.yul\":7511:7594   */\n      swap7\n      pop\n      swap7\n      pop\n        /* \"#utility.yul\":7306:7604   */\n      pop\n        /* \"#utility.yul\":7671:7674   */\n      0x80\n        /* \"#utility.yul\":7660:7669   */\n      dup12\n        /* \"#utility.yul\":7656:7675   */\n      add\n        /* \"#utility.yul\":7643:7676   */\n      calldataload\n        /* \"#utility.yul\":7703:7721   */\n      0xffffffffffffffff\n        /* \"#utility.yul\":7695:7701   */\n      dup2\n        /* \"#utility.yul\":7692:7722   */\n      gt\n        /* \"#utility.yul\":7689:7806   */\n      iszero\n      tag_539\n      jumpi\n        /* \"#utility.yul\":7725:7804   */\n      tag_540\n      tag_403\n      jump\t// in\n    tag_540:\n        /* \"#utility.yul\":7689:7806   */\n    tag_539:\n        /* \"#utility.yul\":7838:7903   */\n      tag_541\n        /* \"#utility.yul\":7895:7902   */\n      dup14\n        /* \"#utility.yul\":7886:7892   */\n      dup3\n        /* \"#utility.yul\":7875:7884   */\n      dup15\n        /* \"#utility.yul\":7871:7893   */\n      add\n        /* \"#utility.yul\":7838:7903   */\n      tag_418\n      jump\t// in\n    tag_541:\n        /* \"#utility.yul\":7820:7903   */\n      swap5\n      pop\n      swap5\n      pop\n        /* \"#utility.yul\":7614:7913   */\n      pop\n        /* \"#utility.yul\":7952:7955   */\n      0xa0\n        /* \"#utility.yul\":7979:8032   */\n      tag_542\n        /* \"#utility.yul\":8024:8031   */\n      dup14\n        /* \"#utility.yul\":8015:8021   */\n      dup3\n        /* \"#utility.yul\":8004:8013   */\n      dup15\n        /* \"#utility.yul\":8000:8022   */\n      add\n        /* \"#utility.yul\":7979:8032   */\n      tag_405\n      jump\t// in\n    tag_542:\n        /* \"#utility.yul\":7969:8032   */\n      swap3\n      pop\n        /* \"#utility.yul\":7923:8042   */\n      pop\n        /* \"#utility.yul\":8081:8084   */\n      0xc0\n        /* \"#utility.yul\":8108:8161   */\n      tag_543\n        /* \"#utility.yul\":8153:8160   */\n      dup14\n        /* \"#utility.yul\":8144:8150   */\n      dup3\n        /* \"#utility.yul\":8133:8142   */\n      dup15\n        /* \"#utility.yul\":8129:8151   */\n      add\n        /* \"#utility.yul\":8108:8161   */\n      tag_405\n      jump\t// in\n    tag_543:\n        /* \"#utility.yul\":8098:8161   */\n      swap2\n      pop\n        /* \"#utility.yul\":8052:8171   */\n      pop\n        /* \"#utility.yul\":6375:8178   */\n      swap3\n      swap6\n      swap9\n      swap12\n      swap2\n      swap5\n      swap8\n      swap11\n      pop\n      swap3\n      swap6\n      swap9\n      pop\n      jump\t// out\n        /* \"#utility.yul\":8184:8658   */\n    tag_92:\n        /* \"#utility.yul\":8252:8258   */\n      0x00\n        /* \"#utility.yul\":8260:8266   */\n      0x00\n        /* \"#utility.yul\":8309:8311   */\n      0x40\n        /* \"#utility.yul\":8297:8306   */\n      dup4\n        /* \"#utility.yul\":8288:8295   */\n      dup6\n        /* \"#utility.yul\":8284:8307   */\n      sub\n        /* \"#utility.yul\":8280:8312   */\n      slt\n        /* \"#utility.yul\":8277:8396   */\n      iszero\n      tag_545\n      jumpi\n        /* \"#utility.yul\":8315:8394   */\n      tag_546\n      tag_402\n      jump\t// in\n    tag_546:\n        /* \"#utility.yul\":8277:8396   */\n    tag_545:\n        /* \"#utility.yul\":8435:8436   */\n      0x00\n        /* \"#utility.yul\":8460:8513   */\n      tag_547\n        /* \"#utility.yul\":8505:8512   */\n      dup6\n        /* \"#utility.yul\":8496:8502   */\n      dup3\n        /* \"#utility.yul\":8485:8494   */\n      dup7\n        /* \"#utility.yul\":8481:8503   */\n      add\n        /* \"#utility.yul\":8460:8513   */\n      tag_405\n      jump\t// in\n    tag_547:\n        /* \"#utility.yul\":8450:8513   */\n      swap3\n      pop\n        /* \"#utility.yul\":8406:8523   */\n      pop\n        /* \"#utility.yul\":8562:8564   */\n      0x20\n        /* \"#utility.yul\":8588:8641   */\n      tag_548\n        /* \"#utility.yul\":8633:8640   */\n      dup6\n        /* \"#utility.yul\":8624:8630   */\n      dup3\n        /* \"#utility.yul\":8613:8622   */\n      dup7\n        /* \"#utility.yul\":8609:8631   */\n      add\n        /* \"#utility.yul\":8588:8641   */\n      tag_409\n      jump\t// in\n    tag_548:\n        /* \"#utility.yul\":8578:8641   */\n      swap2\n      pop\n        /* \"#utility.yul\":8533:8651   */\n      pop\n        /* \"#utility.yul\":8184:8658   */\n      swap3\n      pop\n      swap3\n      swap1\n      pop\n      jump\t// out\n        /* \"#utility.yul\":8664:8993   */\n    tag_97:\n        /* \"#utility.yul\":8723:8729   */\n      0x00\n        /* \"#utility.yul\":8772:8774   */\n      0x20\n        /* \"#utility.yul\":8760:8769   */\n      dup3\n        /* \"#utility.yul\":8751:8758   */\n      dup5\n        /* \"#utility.yul\":8747:8770   */\n      sub\n        /* \"#utility.yul\":8743:8775   */\n      slt\n        /* \"#utility.yul\":8740:8859   */\n      iszero\n      tag_550\n      jumpi\n        /* \"#utility.yul\":8778:8857   */\n      tag_551\n      tag_402\n      jump\t// in\n    tag_551:\n        /* \"#utility.yul\":8740:8859   */\n    tag_550:\n        /* \"#utility.yul\":8898:8899   */\n      0x00\n        /* \"#utility.yul\":8923:8976   */\n      tag_552\n        /* \"#utility.yul\":8968:8975   */\n      dup5\n        /* \"#utility.yul\":8959:8965   */\n      dup3\n        /* \"#utility.yul\":8948:8957   */\n      dup6\n        /* \"#utility.yul\":8944:8966   */\n      add\n        /* \"#utility.yul\":8923:8976   */\n      tag_409\n      jump\t// in\n    tag_552:\n        /* \"#utility.yul\":8913:8976   */\n      swap2\n      pop\n        /* \"#utility.yul\":8869:8986   */\n      pop\n        /* \"#utility.yul\":8664:8993   */\n      swap3\n      swap2\n      pop\n      pop\n      jump\t// out\n        /* \"#utility.yul\":8999:9618   */\n    tag_130:\n        /* \"#utility.yul\":9076:9082   */\n      0x00\n        /* \"#utility.yul\":9084:9090   */\n      0x00\n        /* \"#utility.yul\":9092:9098   */\n      0x00\n        /* \"#utility.yul\":9141:9143   */\n      0x60\n        /* \"#utility.yul\":9129:9138   */\n      dup5\n        /* \"#utility.yul\":9120:9127   */\n      dup7\n        /* \"#utility.yul\":9116:9139   */\n      sub\n        /* \"#utility.yul\":9112:9144   */\n      slt\n        /* \"#utility.yul\":9109:9228   */\n      iszero\n      tag_554\n      jumpi\n        /* \"#utility.yul\":9147:9226   */\n      tag_555\n      tag_402\n      jump\t// in\n    tag_555:\n        /* \"#utility.yul\":9109:9228   */\n    tag_554:\n        /* \"#utility.yul\":9267:9268   */\n      0x00\n        /* \"#utility.yul\":9292:9345   */\n      tag_556\n        /* \"#utility.yul\":9337:9344   */\n      dup7\n        /* \"#utility.yul\":9328:9334   */\n      dup3\n        /* \"#utility.yul\":9317:9326   */\n      dup8\n        /* \"#utility.yul\":9313:9335   */\n      add\n        /* \"#utility.yul\":9292:9345   */\n      tag_405\n      jump\t// in\n    tag_556:\n        /* \"#utility.yul\":9282:9345   */\n      swap4\n      pop\n        /* \"#utility.yul\":9238:9355   */\n      pop\n        /* \"#utility.yul\":9394:9396   */\n      0x20\n        /* \"#utility.yul\":9420:9473   */\n      tag_557\n        /* \"#utility.yul\":9465:9472   */\n      dup7\n        /* \"#utility.yul\":9456:9462   */\n      dup3\n        /* \"#utility.yul\":9445:9454   */\n      dup8\n        /* \"#utility.yul\":9441:9463   */\n      add\n        /* \"#utility.yul\":9420:9473   */\n      tag_409\n      jump\t// in\n    tag_557:\n        /* \"#utility.yul\":9410:9473   */\n      swap3\n      pop\n        /* \"#utility.yul\":9365:9483   */\n      pop\n        /* \"#utility.yul\":9522:9524   */\n      0x40\n        /* \"#utility.yul\":9548:9601   */\n      tag_558\n        /* \"#utility.yul\":9593:9600   */\n      dup7\n        /* \"#utility.yul\":9584:9590   */\n      dup3\n        /* \"#utility.yul\":9573:9582   */\n      dup8\n        /* \"#utility.yul\":9569:9591   */\n      add\n        /* \"#utility.yul\":9548:9601   */\n      tag_409\n      jump\t// in\n    tag_558:\n        /* \"#utility.yul\":9538:9601   */\n      swap2\n      pop\n        /* \"#utility.yul\":9493:9611   */\n      pop\n        /* \"#utility.yul\":8999:9618   */\n      swap3\n      pop\n      swap3\n      pop\n      swap3\n      jump\t// out\n        /* \"#utility.yul\":9624:10098   */\n    tag_149:\n        /* \"#utility.yul\":9692:9698   */\n      0x00\n        /* \"#utility.yul\":9700:9706   */\n      0x00\n        /* \"#utility.yul\":9749:9751   */\n      0x40\n        /* \"#utility.yul\":9737:9746   */\n      dup4\n        /* \"#utility.yul\":9728:9735   */\n      dup6\n        /* \"#utility.yul\":9724:9747   */\n      sub\n        /* \"#utility.yul\":9720:9752   */\n      slt\n        /* \"#utility.yul\":9717:9836   */\n      iszero\n      tag_560\n      jumpi\n        /* \"#utility.yul\":9755:9834   */\n      tag_561\n      tag_402\n      jump\t// in\n    tag_561:\n        /* \"#utility.yul\":9717:9836   */\n    tag_560:\n        /* \"#utility.yul\":9875:9876   */\n      0x00\n        /* \"#utility.yul\":9900:9953   */\n      tag_562\n        /* \"#utility.yul\":9945:9952   */\n      dup6\n        /* \"#utility.yul\":9936:9942   */\n      dup3\n        /* \"#utility.yul\":9925:9934   */\n      dup7\n        /* \"#utility.yul\":9921:9943   */\n      add\n        /* \"#utility.yul\":9900:9953   */\n      tag_409\n      jump\t// in\n    tag_562:\n        /* \"#utility.yul\":9890:9953   */\n      swap3\n      pop\n        /* \"#utility.yul\":9846:9963   */\n      pop\n        /* \"#utility.yul\":10002:10004   */\n      0x20\n        /* \"#utility.yul\":10028:10081   */\n      tag_563\n        /* \"#utility.yul\":10073:10080   */\n      dup6\n        /* \"#utility.yul\":10064:10070   */\n      dup3\n        /* \"#utility.yul\":10053:10062   */\n      dup7\n        /* \"#utility.yul\":10049:10071   */\n      add\n        /* \"#utility.yul\":10028:10081   */\n      tag_409\n      jump\t// in\n    tag_563:\n        /* \"#utility.yul\":10018:10081   */\n      swap2\n      pop\n        /* \"#utility.yul\":9973:10091   */\n      pop\n        /* \"#utility.yul\":9624:10098   */\n      swap3\n      pop\n      swap3\n      swap1\n      pop\n      jump\t// out\n        /* \"#utility.yul\":10104:10247   */\n    tag_419:\n        /* \"#utility.yul\":10161:10166   */\n      0x00\n        /* \"#utility.yul\":10192:10198   */\n      dup2\n        /* \"#utility.yul\":10186:10199   */\n      mload\n        /* \"#utility.yul\":10177:10199   */\n      swap1\n      pop\n        /* \"#utility.yul\":10208:10241   */\n      tag_565\n        /* \"#utility.yul\":10235:10240   */\n      dup2\n        /* \"#utility.yul\":10208:10241   */\n      tag_404\n      jump\t// in\n    tag_565:\n        /* \"#utility.yul\":10104:10247   */\n      swap3\n      swap2\n      pop\n      pop\n      jump\t// out\n        /* \"#utility.yul\":10253:10604   */\n    tag_158:\n        /* \"#utility.yul\":10323:10329   */\n      0x00\n        /* \"#utility.yul\":10372:10374   */\n      0x20\n        /* \"#utility.yul\":10360:10369   */\n      dup3\n        /* \"#utility.yul\":10351:10358   */\n      dup5\n        /* \"#utility.yul\":10347:10370   */\n      sub\n        /* \"#utility.yul\":10343:10375   */\n      slt\n        /* \"#utility.yul\":10340:10459   */\n      iszero\n      tag_567\n      jumpi\n        /* \"#utility.yul\":10378:10457   */\n      tag_568\n      tag_402\n      jump\t// in\n    tag_568:\n        /* \"#utility.yul\":10340:10459   */\n    tag_567:\n        /* \"#utility.yul\":10498:10499   */\n      0x00\n        /* \"#utility.yul\":10523:10587   */\n      tag_569\n        /* \"#utility.yul\":10579:10586   */\n      dup5\n        /* \"#utility.yul\":10570:10576   */\n      dup3\n        /* \"#utility.yul\":10559:10568   */\n      dup6\n        /* \"#utility.yul\":10555:10577   */\n      add\n        /* \"#utility.yul\":10523:10587   */\n      tag_419\n      jump\t// in\n    tag_569:\n        /* \"#utility.yul\":10513:10587   */\n      swap2\n      pop\n        /* \"#utility.yul\":10469:10597   */\n      pop\n        /* \"#utility.yul\":10253:10604   */\n      swap3\n      swap2\n      pop\n      pop\n      jump\t// out\n        /* \"#utility.yul\":10610:10790   */\n    tag_164:\n        /* \"#utility.yul\":10658:10735   */\n      0x4e487b7100000000000000000000000000000000000000000000000000000000\n        /* \"#utility.yul\":10655:10656   */\n      0x00\n        /* \"#utility.yul\":10648:10736   */\n      mstore\n        /* \"#utility.yul\":10755:10759   */\n      0x32\n        /* \"#utility.yul\":10752:10753   */\n      0x04\n        /* \"#utility.yul\":10745:10760   */\n      mstore\n        /* \"#utility.yul\":10779:10783   */\n      0x24\n        /* \"#utility.yul\":10776:10777   */\n      0x00\n        /* \"#utility.yul\":10769:10784   */\n      revert\n        /* \"#utility.yul\":10796:10976   */\n    tag_420:\n        /* \"#utility.yul\":10844:10921   */\n      0x4e487b7100000000000000000000000000000000000000000000000000000000\n        /* \"#utility.yul\":10841:10842   */\n      0x00\n        /* \"#utility.yul\":10834:10922   */\n      mstore\n        /* \"#utility.yul\":10941:10945   */\n      0x11\n        /* \"#utility.yul\":10938:10939   */\n      0x04\n        /* \"#utility.yul\":10931:10946   */\n      mstore\n        /* \"#utility.yul\":10965:10969   */\n      0x24\n        /* \"#utility.yul\":10962:10963   */\n      0x00\n        /* \"#utility.yul\":10955:10970   */\n      revert\n        /* \"#utility.yul\":10982:11173   */\n    tag_174:\n        /* \"#utility.yul\":11022:11025   */\n      0x00\n        /* \"#utility.yul\":11041:11061   */\n      tag_573\n        /* \"#utility.yul\":11059:11060   */\n      dup3\n        /* \"#utility.yul\":11041:11061   */\n      tag_394\n      jump\t// in\n    tag_573:\n        /* \"#utility.yul\":11036:11061   */\n      swap2\n      pop\n        /* \"#utility.yul\":11075:11095   */\n      tag_574\n        /* \"#utility.yul\":11093:11094   */\n      dup4\n        /* \"#utility.yul\":11075:11095   */\n      tag_394\n      jump\t// in\n    tag_574:\n        /* \"#utility.yul\":11070:11095   */\n      swap3\n      pop\n        /* \"#utility.yul\":11118:11119   */\n      dup3\n        /* \"#utility.yul\":11115:11116   */\n      dup3\n        /* \"#utility.yul\":11111:11120   */\n      add\n        /* \"#utility.yul\":11104:11120   */\n      swap1\n      pop\n        /* \"#utility.yul\":11139:11142   */\n      dup1\n        /* \"#utility.yul\":11136:11137   */\n      dup3\n        /* \"#utility.yul\":11133:11143   */\n      gt\n        /* \"#utility.yul\":11130:11166   */\n      iszero\n      tag_575\n      jumpi\n        /* \"#utility.yul\":11146:11164   */\n      tag_576\n      tag_420\n      jump\t// in\n    tag_576:\n        /* \"#utility.yul\":11130:11166   */\n    tag_575:\n        /* \"#utility.yul\":10982:11173   */\n      swap3\n      swap2\n      pop\n      pop\n      jump\t// out\n        /* \"#utility.yul\":11179:11359   */\n    tag_421:\n        /* \"#utility.yul\":11227:11304   */\n      0x4e487b7100000000000000000000000000000000000000000000000000000000\n        /* \"#utility.yul\":11224:11225   */\n      0x00\n        /* \"#utility.yul\":11217:11305   */\n      mstore\n        /* \"#utility.yul\":11324:11328   */\n      0x22\n        /* \"#utility.yul\":11321:11322   */\n      0x04\n        /* \"#utility.yul\":11314:11329   */\n      mstore\n        /* \"#utility.yul\":11348:11352   */\n      0x24\n        /* \"#utility.yul\":11345:11346   */\n      0x00\n        /* \"#utility.yul\":11338:11353   */\n      revert\n        /* \"#utility.yul\":11365:11685   */\n    tag_177:\n        /* \"#utility.yul\":11409:11415   */\n      0x00\n        /* \"#utility.yul\":11446:11447   */\n      0x02\n        /* \"#utility.yul\":11440:11444   */\n      dup3\n        /* \"#utility.yul\":11436:11448   */\n      div\n        /* \"#utility.yul\":11426:11448   */\n      swap1\n      pop\n        /* \"#utility.yul\":11493:11494   */\n      0x01\n        /* \"#utility.yul\":11487:11491   */\n      dup3\n        /* \"#utility.yul\":11483:11495   */\n      and\n        /* \"#utility.yul\":11514:11532   */\n      dup1\n        /* \"#utility.yul\":11504:11585   */\n      tag_579\n      jumpi\n        /* \"#utility.yul\":11570:11574   */\n      0x7f\n        /* \"#utility.yul\":11562:11568   */\n      dup3\n        /* \"#utility.yul\":11558:11575   */\n      and\n        /* \"#utility.yul\":11548:11575   */\n      swap2\n      pop\n        /* \"#utility.yul\":11504:11585   */\n    tag_579:\n        /* \"#utility.yul\":11632:11634   */\n      0x20\n        /* \"#utility.yul\":11624:11630   */\n      dup3\n        /* \"#utility.yul\":11621:11635   */\n      lt\n        /* \"#utility.yul\":11601:11619   */\n      dup2\n        /* \"#utility.yul\":11598:11636   */\n      sub\n        /* \"#utility.yul\":11595:11679   */\n      tag_580\n      jumpi\n        /* \"#utility.yul\":11651:11669   */\n      tag_581\n      tag_421\n      jump\t// in\n    tag_581:\n        /* \"#utility.yul\":11595:11679   */\n    tag_580:\n        /* \"#utility.yul\":11416:11685   */\n      pop\n        /* \"#utility.yul\":11365:11685   */\n      swap2\n      swap1\n      pop\n      jump\t// out\n        /* \"#utility.yul\":11691:12101   */\n    tag_190:\n        /* \"#utility.yul\":11731:11738   */\n      0x00\n        /* \"#utility.yul\":11754:11774   */\n      tag_583\n        /* \"#utility.yul\":11772:11773   */\n      dup3\n        /* \"#utility.yul\":11754:11774   */\n      tag_394\n      jump\t// in\n    tag_583:\n        /* \"#utility.yul\":11749:11774   */\n      swap2\n      pop\n        /* \"#utility.yul\":11788:11808   */\n      tag_584\n        /* \"#utility.yul\":11806:11807   */\n      dup4\n        /* \"#utility.yul\":11788:11808   */\n      tag_394\n      jump\t// in\n    tag_584:\n        /* \"#utility.yul\":11783:11808   */\n      swap3\n      pop\n        /* \"#utility.yul\":11843:11844   */\n      dup3\n        /* \"#utility.yul\":11840:11841   */\n      dup3\n        /* \"#utility.yul\":11836:11845   */\n      mul\n        /* \"#utility.yul\":11865:11895   */\n      tag_585\n        /* \"#utility.yul\":11883:11894   */\n      dup2\n        /* \"#utility.yul\":11865:11895   */\n      tag_394\n      jump\t// in\n    tag_585:\n        /* \"#utility.yul\":11854:11895   */\n      swap2\n      pop\n        /* \"#utility.yul\":12044:12045   */\n      dup3\n        /* \"#utility.yul\":12035:12042   */\n      dup3\n        /* \"#utility.yul\":12031:12046   */\n      div\n        /* \"#utility.yul\":12028:12029   */\n      dup5\n        /* \"#utility.yul\":12025:12047   */\n      eq\n        /* \"#utility.yul\":12005:12006   */\n      dup4\n        /* \"#utility.yul\":11998:12007   */\n      iszero\n        /* \"#utility.yul\":11978:12061   */\n      or\n        /* \"#utility.yul\":11955:12094   */\n      tag_586\n      jumpi\n        /* \"#utility.yul\":12074:12092   */\n      tag_587\n      tag_420\n      jump\t// in\n    tag_587:\n        /* \"#utility.yul\":11955:12094   */\n    tag_586:\n        /* \"#utility.yul\":11739:12101   */\n      pop\n        /* \"#utility.yul\":11691:12101   */\n      swap3\n      swap2\n      pop\n      pop\n      jump\t// out\n        /* \"#utility.yul\":12107:12287   */\n    tag_422:\n        /* \"#utility.yul\":12155:12232   */\n      0x4e487b7100000000000000000000000000000000000000000000000000000000\n        /* \"#utility.yul\":12152:12153   */\n      0x00\n        /* \"#utility.yul\":12145:12233   */\n      mstore\n        /* \"#utility.yul\":12252:12256   */\n      0x12\n        /* \"#utility.yul\":12249:12250   */\n      0x04\n        /* \"#utility.yul\":12242:12257   */\n      mstore\n        /* \"#utility.yul\":12276:12280   */\n      0x24\n        /* \"#utility.yul\":12273:12274   */\n      0x00\n        /* \"#utility.yul\":12266:12281   */\n      revert\n        /* \"#utility.yul\":12293:12478   */\n    tag_192:\n        /* \"#utility.yul\":12333:12334   */\n      0x00\n        /* \"#utility.yul\":12350:12370   */\n      tag_590\n        /* \"#utility.yul\":12368:12369   */\n      dup3\n        /* \"#utility.yul\":12350:12370   */\n      tag_394\n      jump\t// in\n    tag_590:\n        /* \"#utility.yul\":12345:12370   */\n      swap2\n      pop\n        /* \"#utility.yul\":12384:12404   */\n      tag_591\n        /* \"#utility.yul\":12402:12403   */\n      dup4\n        /* \"#utility.yul\":12384:12404   */\n      tag_394\n      jump\t// in\n    tag_591:\n        /* \"#utility.yul\":12379:12404   */\n      swap3\n      pop\n        /* \"#utility.yul\":12423:12424   */\n      dup3\n        /* \"#utility.yul\":12413:12448   */\n      tag_592\n      jumpi\n        /* \"#utility.yul\":12428:12446   */\n      tag_593\n      tag_422\n      jump\t// in\n    tag_593:\n        /* \"#utility.yul\":12413:12448   */\n    tag_592:\n        /* \"#utility.yul\":12470:12471   */\n      dup3\n        /* \"#utility.yul\":12467:12468   */\n      dup3\n        /* \"#utility.yul\":12463:12472   */\n      div\n        /* \"#utility.yul\":12458:12472   */\n      swap1\n      pop\n        /* \"#utility.yul\":12293:12478   */\n      swap3\n      swap2\n      pop\n      pop\n      jump\t// out\n        /* \"#utility.yul\":12484:12656   */\n    tag_423:\n        /* \"#utility.yul\":12624:12648   */\n      0x494e53554646494349454e545f414c4c4f57414e434500000000000000000000\n        /* \"#utility.yul\":12620:12621   */\n      0x00\n        /* \"#utility.yul\":12612:12618   */\n      dup3\n        /* \"#utility.yul\":12608:12622   */\n      add\n        /* \"#utility.yul\":12601:12649   */\n      mstore\n        /* \"#utility.yul\":12484:12656   */\n      pop\n      jump\t// out\n        /* \"#utility.yul\":12662:13028   */\n    tag_424:\n        /* \"#utility.yul\":12804:12807   */\n      0x00\n        /* \"#utility.yul\":12825:12892   */\n      tag_596\n        /* \"#utility.yul\":12889:12891   */\n      0x16\n        /* \"#utility.yul\":12884:12887   */\n      dup4\n        /* \"#utility.yul\":12825:12892   */\n      tag_397\n      jump\t// in\n    tag_596:\n        /* \"#utility.yul\":12818:12892   */\n      swap2\n      pop\n        /* \"#utility.yul\":12901:12994   */\n      tag_597\n        /* \"#utility.yul\":12990:12993   */\n      dup3\n        /* \"#utility.yul\":12901:12994   */\n      tag_423\n      jump\t// in\n    tag_597:\n        /* \"#utility.yul\":13019:13021   */\n      0x20\n        /* \"#utility.yul\":13014:13017   */\n      dup3\n        /* \"#utility.yul\":13010:13022   */\n      add\n        /* \"#utility.yul\":13003:13022   */\n      swap1\n      pop\n        /* \"#utility.yul\":12662:13028   */\n      swap2\n      swap1\n      pop\n      jump\t// out\n        /* \"#utility.yul\":13034:13453   */\n    tag_201:\n        /* \"#utility.yul\":13200:13204   */\n      0x00\n        /* \"#utility.yul\":13238:13240   */\n      0x20\n        /* \"#utility.yul\":13227:13236   */\n      dup3\n        /* \"#utility.yul\":13223:13241   */\n      add\n        /* \"#utility.yul\":13215:13241   */\n      swap1\n      pop\n        /* \"#utility.yul\":13287:13296   */\n      dup2\n        /* \"#utility.yul\":13281:13285   */\n      dup2\n        /* \"#utility.yul\":13277:13297   */\n      sub\n        /* \"#utility.yul\":13273:13274   */\n      0x00\n        /* \"#utility.yul\":13262:13271   */\n      dup4\n        /* \"#utility.yul\":13258:13275   */\n      add\n        /* \"#utility.yul\":13251:13298   */\n      mstore\n        /* \"#utility.yul\":13315:13446   */\n      tag_599\n        /* \"#utility.yul\":13441:13445   */\n      dup2\n        /* \"#utility.yul\":13315:13446   */\n      tag_424\n      jump\t// in\n    tag_599:\n        /* \"#utility.yul\":13307:13446   */\n      swap1\n      pop\n        /* \"#utility.yul\":13034:13453   */\n      swap2\n      swap1\n      pop\n      jump\t// out\n        /* \"#utility.yul\":13459:13653   */\n    tag_204:\n        /* \"#utility.yul\":13499:13503   */\n      0x00\n        /* \"#utility.yul\":13519:13539   */\n      tag_601\n        /* \"#utility.yul\":13537:13538   */\n      dup3\n        /* \"#utility.yul\":13519:13539   */\n      tag_394\n      jump\t// in\n    tag_601:\n        /* \"#utility.yul\":13514:13539   */\n      swap2\n      pop\n        /* \"#utility.yul\":13553:13573   */\n      tag_602\n        /* \"#utility.yul\":13571:13572   */\n      dup4\n        /* \"#utility.yul\":13553:13573   */\n      tag_394\n      jump\t// in\n    tag_602:\n        /* \"#utility.yul\":13548:13573   */\n      swap3\n      pop\n        /* \"#utility.yul\":13597:13598   */\n      dup3\n        /* \"#utility.yul\":13594:13595   */\n      dup3\n        /* \"#utility.yul\":13590:13599   */\n      sub\n        /* \"#utility.yul\":13582:13599   */\n      swap1\n      pop\n        /* \"#utility.yul\":13621:13622   */\n      dup2\n        /* \"#utility.yul\":13615:13619   */\n      dup2\n        /* \"#utility.yul\":13612:13623   */\n      gt\n        /* \"#utility.yul\":13609:13646   */\n      iszero\n      tag_603\n      jumpi\n        /* \"#utility.yul\":13626:13644   */\n      tag_604\n      tag_420\n      jump\t// in\n    tag_604:\n        /* \"#utility.yul\":13609:13646   */\n    tag_603:\n        /* \"#utility.yul\":13459:13653   */\n      swap3\n      swap2\n      pop\n      pop\n      jump\t// out\n        /* \"#utility.yul\":13659:13828   */\n    tag_425:\n        /* \"#utility.yul\":13799:13820   */\n      0x414c52454144595f494e495449414c495a454400000000000000000000000000\n        /* \"#utility.yul\":13795:13796   */\n      0x00\n        /* \"#utility.yul\":13787:13793   */\n      dup3\n        /* \"#utility.yul\":13783:13797   */\n      add\n        /* \"#utility.yul\":13776:13821   */\n      mstore\n        /* \"#utility.yul\":13659:13828   */\n      pop\n      jump\t// out\n        /* \"#utility.yul\":13834:14200   */\n    tag_426:\n        /* \"#utility.yul\":13976:13979   */\n      0x00\n        /* \"#utility.yul\":13997:14064   */\n      tag_607\n        /* \"#utility.yul\":14061:14063   */\n      0x13\n        /* \"#utility.yul\":14056:14059   */\n      dup4\n        /* \"#utility.yul\":13997:14064   */\n      tag_397\n      jump\t// in\n    tag_607:\n        /* \"#utility.yul\":13990:14064   */\n      swap2\n      pop\n        /* \"#utility.yul\":14073:14166   */\n      tag_608\n        /* \"#utility.yul\":14162:14165   */\n      dup3\n        /* \"#utility.yul\":14073:14166   */\n      tag_425\n      jump\t// in\n    tag_608:\n        /* \"#utility.yul\":14191:14193   */\n      0x20\n        /* \"#utility.yul\":14186:14189   */\n      dup3\n        /* \"#utility.yul\":14182:14194   */\n      add\n        /* \"#utility.yul\":14175:14194   */\n      swap1\n      pop\n        /* \"#utility.yul\":13834:14200   */\n      swap2\n      swap1\n      pop\n      jump\t// out\n        /* \"#utility.yul\":14206:14625   */\n    tag_213:\n        /* \"#utility.yul\":14372:14376   */\n      0x00\n        /* \"#utility.yul\":14410:14412   */\n      0x20\n        /* \"#utility.yul\":14399:14408   */\n      dup3\n        /* \"#utility.yul\":14395:14413   */\n      add\n        /* \"#utility.yul\":14387:14413   */\n      swap1\n      pop\n        /* \"#utility.yul\":14459:14468   */\n      dup2\n        /* \"#utility.yul\":14453:14457   */\n      dup2\n        /* \"#utility.yul\":14449:14469   */\n      sub\n        /* \"#utility.yul\":14445:14446   */\n      0x00\n        /* \"#utility.yul\":14434:14443   */\n      dup4\n        /* \"#utility.yul\":14430:14447   */\n      add\n        /* \"#utility.yul\":14423:14470   */\n      mstore\n        /* \"#utility.yul\":14487:14618   */\n      tag_610\n        /* \"#utility.yul\":14613:14617   */\n      dup2\n        /* \"#utility.yul\":14487:14618   */\n      tag_426\n      jump\t// in\n    tag_610:\n        /* \"#utility.yul\":14479:14618   */\n      swap1\n      pop\n        /* \"#utility.yul\":14206:14625   */\n      swap2\n      swap1\n      pop\n      jump\t// out\n        /* \"#utility.yul\":14631:14728   */\n    tag_427:\n        /* \"#utility.yul\":14690:14696   */\n      0x00\n        /* \"#utility.yul\":14718:14721   */\n      dup3\n        /* \"#utility.yul\":14708:14721   */\n      swap1\n      pop\n        /* \"#utility.yul\":14631:14728   */\n      swap3\n      swap2\n      pop\n      pop\n      jump\t// out\n        /* \"#utility.yul\":14734:14914   */\n    tag_428:\n        /* \"#utility.yul\":14782:14859   */\n      0x4e487b7100000000000000000000000000000000000000000000000000000000\n        /* \"#utility.yul\":14779:14780   */\n      0x00\n        /* \"#utility.yul\":14772:14860   */\n      mstore\n        /* \"#utility.yul\":14879:14883   */\n      0x41\n        /* \"#utility.yul\":14876:14877   */\n      0x04\n        /* \"#utility.yul\":14869:14884   */\n      mstore\n        /* \"#utility.yul\":14903:14907   */\n      0x24\n        /* \"#utility.yul\":14900:14901   */\n      0x00\n        /* \"#utility.yul\":14893:14908   */\n      revert\n        /* \"#utility.yul\":14920:15061   */\n    tag_429:\n        /* \"#utility.yul\":14969:14973   */\n      0x00\n        /* \"#utility.yul\":14992:14995   */\n      dup2\n        /* \"#utility.yul\":14984:14995   */\n      swap1\n      pop\n        /* \"#utility.yul\":15015:15018   */\n      dup2\n        /* \"#utility.yul\":15012:15013   */\n      0x00\n        /* \"#utility.yul\":15005:15019   */\n      mstore\n        /* \"#utility.yul\":15049:15053   */\n      0x20\n        /* \"#utility.yul\":15046:15047   */\n      0x00\n        /* \"#utility.yul\":15036:15054   */\n      keccak256\n        /* \"#utility.yul\":15028:15054   */\n      swap1\n      pop\n        /* \"#utility.yul\":14920:15061   */\n      swap2\n      swap1\n      pop\n      jump\t// out\n        /* \"#utility.yul\":15067:15160   */\n    tag_430:\n        /* \"#utility.yul\":15104:15110   */\n      0x00\n        /* \"#utility.yul\":15151:15153   */\n      0x20\n        /* \"#utility.yul\":15146:15148   */\n      0x1f\n        /* \"#utility.yul\":15139:15144   */\n      dup4\n        /* \"#utility.yul\":15135:15149   */\n      add\n        /* \"#utility.yul\":15131:15154   */\n      div\n        /* \"#utility.yul\":15121:15154   */\n      swap1\n      pop\n        /* \"#utility.yul\":15067:15160   */\n      swap2\n      swap1\n      pop\n      jump\t// out\n        /* \"#utility.yul\":15166:15273   */\n    tag_431:\n        /* \"#utility.yul\":15210:15218   */\n      0x00\n        /* \"#utility.yul\":15260:15265   */\n      dup3\n        /* \"#utility.yul\":15254:15258   */\n      dup3\n        /* \"#utility.yul\":15250:15266   */\n      shl\n        /* \"#utility.yul\":15229:15266   */\n      swap1\n      pop\n        /* \"#utility.yul\":15166:15273   */\n      swap3\n      swap2\n      pop\n      pop\n      jump\t// out\n        /* \"#utility.yul\":15279:15672   */\n    tag_432:\n        /* \"#utility.yul\":15348:15354   */\n      0x00\n        /* \"#utility.yul\":15398:15399   */\n      0x08\n        /* \"#utility.yul\":15386:15396   */\n      dup4\n        /* \"#utility.yul\":15382:15400   */\n      mul\n        /* \"#utility.yul\":15421:15518   */\n      tag_617\n        /* \"#utility.yul\":15451:15517   */\n      0xffffffffffffffffffffffffffffffffffffffffffffffffffffffffffffffff\n        /* \"#utility.yul\":15440:15449   */\n      dup3\n        /* \"#utility.yul\":15421:15518   */\n      tag_431\n      jump\t// in\n    tag_617:\n        /* \"#utility.yul\":15539:15578   */\n      tag_618\n        /* \"#utility.yul\":15569:15577   */\n      dup7\n        /* \"#utility.yul\":15558:15567   */\n      dup4\n        /* \"#utility.yul\":15539:15578   */\n      tag_431\n      jump\t// in\n    tag_618:\n        /* \"#utility.yul\":15527:15578   */\n      swap6\n      pop\n        /* \"#utility.yul\":15611:15615   */\n      dup1\n        /* \"#utility.yul\":15607:15616   */\n      not\n        /* \"#utility.yul\":15600:15605   */\n      dup5\n        /* \"#utility.yul\":15596:15617   */\n      and\n        /* \"#utility.yul\":15587:15617   */\n      swap4\n      pop\n        /* \"#utility.yul\":15660:15664   */\n      dup1\n        /* \"#utility.yul\":15650:15658   */\n      dup7\n        /* \"#utility.yul\":15646:15665   */\n      and\n        /* \"#utility.yul\":15639:15644   */\n      dup5\n        /* \"#utility.yul\":15636:15666   */\n      or\n        /* \"#utility.yul\":15626:15666   */\n      swap3\n      pop\n        /* \"#utility.yul\":15355:15672   */\n      pop\n      pop\n        /* \"#utility.yul\":15279:15672   */\n      swap4\n      swap3\n      pop\n      pop\n      pop\n      jump\t// out\n        /* \"#utility.yul\":15678:15738   */\n    tag_433:\n        /* \"#utility.yul\":15706:15709   */\n      0x00\n        /* \"#utility.yul\":15727:15732   */\n      dup2\n        /* \"#utility.yul\":15720:15732   */\n      swap1\n      pop\n        /* \"#utility.yul\":15678:15738   */\n      swap2\n      swap1\n      pop\n      jump\t// out\n        /* \"#utility.yul\":15744:15886   */\n    tag_434:\n        /* \"#utility.yul\":15794:15803   */\n      0x00\n        /* \"#utility.yul\":15827:15880   */\n      tag_621\n        /* \"#utility.yul\":15845:15879   */\n      tag_622\n        /* \"#utility.yul\":15854:15878   */\n      tag_623\n        /* \"#utility.yul\":15872:15877   */\n      dup5\n        /* \"#utility.yul\":15854:15878   */\n      tag_394\n      jump\t// in\n    tag_623:\n        /* \"#utility.yul\":15845:15879   */\n      tag_433\n      jump\t// in\n    tag_622:\n        /* \"#utility.yul\":15827:15880   */\n      tag_394\n      jump\t// in\n    tag_621:\n        /* \"#utility.yul\":15814:15880   */\n      swap1\n      pop\n        /* \"#utility.yul\":15744:15886   */\n      swap2\n      swap1\n      pop\n      jump\t// out\n        /* \"#utility.yul\":15892:15967   */\n    tag_435:\n        /* \"#utility.yul\":15935:15938   */\n      0x00\n        /* \"#utility.yul\":15956:15961   */\n      dup2\n        /* \"#utility.yul\":15949:15961   */\n      swap1\n      pop\n        /* \"#utility.yul\":15892:15967   */\n      swap2\n      swap1\n      pop\n      jump\t// out\n        /* \"#utility.yul\":15973:16242   */\n    tag_436:\n        /* \"#utility.yul\":16083:16122   */\n      tag_626\n        /* \"#utility.yul\":16114:16121   */\n      dup4\n        /* \"#utility.yul\":16083:16122   */\n      tag_434\n      jump\t// in\n    tag_626:\n        /* \"#utility.yul\":16144:16235   */\n      tag_627\n        /* \"#utility.yul\":16193:16234   */\n      tag_628\n        /* \"#utility.yul\":16217:16233   */\n      dup3\n        /* \"#utility.yul\":16193:16234   */\n      tag_435\n      jump\t// in\n    tag_628:\n        /* \"#utility.yul\":16185:16191   */\n      dup5\n        /* \"#utility.yul\":16178:16182   */\n      dup5\n        /* \"#utility.yul\":16172:16183   */\n      sload\n        /* \"#utility.yul\":16144:16235   */\n      tag_432\n      jump\t// in\n    tag_627:\n        /* \"#utility.yul\":16138:16142   */\n      dup3\n        /* \"#utility.yul\":16131:16236   */\n      sstore\n        /* \"#utility.yul\":16049:16242   */\n      pop\n        /* \"#utility.yul\":15973:16242   */\n      pop\n      pop\n      pop\n      jump\t// out\n        /* \"#utility.yul\":16248:16321   */\n    tag_437:\n        /* \"#utility.yul\":16293:16296   */\n      0x00\n        /* \"#utility.yul\":16314:16315   */\n      0x00\n        /* \"#utility.yul\":16307:16315   */\n      swap1\n      pop\n        /* \"#utility.yul\":16248:16321   */\n      swap1\n      jump\t// out\n        /* \"#utility.yul\":16327:16516   */\n    tag_438:\n        /* \"#utility.yul\":16404:16436   */\n      tag_631\n      tag_437\n      jump\t// in\n    tag_631:\n        /* \"#utility.yul\":16445:16510   */\n      tag_632\n        /* \"#utility.yul\":16503:16509   */\n      dup2\n        /* \"#utility.yul\":16495:16501   */\n      dup5\n        /* \"#utility.yul\":16489:16493   */\n      dup5\n        /* \"#utility.yul\":16445:16510   */\n      tag_436\n      jump\t// in\n    tag_632:\n        /* \"#utility.yul\":16380:16516   */\n      pop\n        /* \"#utility.yul\":16327:16516   */\n      pop\n      pop\n      jump\t// out\n        /* \"#utility.yul\":16522:16708   */\n    tag_439:\n        /* \"#utility.yul\":16582:16702   */\n    tag_634:\n        /* \"#utility.yul\":16599:16602   */\n      dup2\n        /* \"#utility.yul\":16592:16597   */\n      dup2\n        /* \"#utility.yul\":16589:16603   */\n      lt\n        /* \"#utility.yul\":16582:16702   */\n      iszero\n      tag_636\n      jumpi\n        /* \"#utility.yul\":16653:16692   */\n      tag_637\n        /* \"#utility.yul\":16690:16691   */\n      0x00\n        /* \"#utility.yul\":16683:16688   */\n      dup3\n        /* \"#utility.yul\":16653:16692   */\n      tag_438\n      jump\t// in\n    tag_637:\n        /* \"#utility.yul\":16626:16627   */\n      0x01\n        /* \"#utility.yul\":16619:16624   */\n      dup2\n        /* \"#utility.yul\":16615:16628   */\n      add\n        /* \"#utility.yul\":16606:16628   */\n      swap1\n      pop\n        /* \"#utility.yul\":16582:16702   */\n      jump(tag_634)\n    tag_636:\n        /* \"#utility.yul\":16522:16708   */\n      pop\n      pop\n      jump\t// out\n        /* \"#utility.yul\":16714:17257   */\n    tag_440:\n        /* \"#utility.yul\":16815:16817   */\n      0x1f\n        /* \"#utility.yul\":16810:16813   */\n      dup3\n        /* \"#utility.yul\":16807:16818   */\n      gt\n        /* \"#utility.yul\":16804:17250   */\n      iszero\n      tag_639\n      jumpi\n        /* \"#utility.yul\":16849:16887   */\n      tag_640\n        /* \"#utility.yul\":16881:16886   */\n      dup2\n        /* \"#utility.yul\":16849:16887   */\n      tag_429\n      jump\t// in\n    tag_640:\n        /* \"#utility.yul\":16933:16962   */\n      tag_641\n        /* \"#utility.yul\":16951:16961   */\n      dup5\n        /* \"#utility.yul\":16933:16962   */\n      tag_430\n      jump\t// in\n    tag_641:\n        /* \"#utility.yul\":16923:16931   */\n      dup2\n        /* \"#utility.yul\":16919:16963   */\n      add\n        /* \"#utility.yul\":17116:17118   */\n      0x20\n        /* \"#utility.yul\":17104:17114   */\n      dup6\n        /* \"#utility.yul\":17101:17119   */\n      lt\n        /* \"#utility.yul\":17098:17147   */\n      iszero\n      tag_642\n      jumpi\n        /* \"#utility.yul\":17137:17145   */\n      dup2\n        /* \"#utility.yul\":17122:17145   */\n      swap1\n      pop\n        /* \"#utility.yul\":17098:17147   */\n    tag_642:\n        /* \"#utility.yul\":17160:17240   */\n      tag_643\n        /* \"#utility.yul\":17216:17238   */\n      tag_644\n        /* \"#utility.yul\":17234:17237   */\n      dup6\n        /* \"#utility.yul\":17216:17238   */\n      tag_430\n      jump\t// in\n    tag_644:\n        /* \"#utility.yul\":17206:17214   */\n      dup4\n        /* \"#utility.yul\":17202:17239   */\n      add\n        /* \"#utility.yul\":17189:17200   */\n      dup3\n        /* \"#utility.yul\":17160:17240   */\n      tag_439\n      jump\t// in\n    tag_643:\n        /* \"#utility.yul\":16819:17250   */\n      pop\n      pop\n        /* \"#utility.yul\":16804:17250   */\n    tag_639:\n        /* \"#utility.yul\":16714:17257   */\n      pop\n      pop\n      pop\n      jump\t// out\n        /* \"#utility.yul\":17263:17380   */\n    tag_441:\n        /* \"#utility.yul\":17317:17325   */\n      0x00\n        /* \"#utility.yul\":17367:17372   */\n      dup3\n        /* \"#utility.yul\":17361:17365   */\n      dup3\n        /* \"#utility.yul\":17357:17373   */\n      shr\n        /* \"#utility.yul\":17336:17373   */\n      swap1\n      pop\n        /* \"#utility.yul\":17263:17380   */\n      swap3\n      swap2\n      pop\n      pop\n      jump\t// out\n        /* \"#utility.yul\":17386:17555   */\n    tag_442:\n        /* \"#utility.yul\":17430:17436   */\n      0x00\n        /* \"#utility.yul\":17463:17514   */\n      tag_647\n        /* \"#utility.yul\":17511:17512   */\n      0x00\n        /* \"#utility.yul\":17507:17513   */\n      not\n        /* \"#utility.yul\":17499:17504   */\n      dup5\n        /* \"#utility.yul\":17496:17497   */\n      0x08\n        /* \"#utility.yul\":17492:17505   */\n      mul\n        /* \"#utility.yul\":17463:17514   */\n      tag_441\n      jump\t// in\n    tag_647:\n        /* \"#utility.yul\":17459:17515   */\n      not\n        /* \"#utility.yul\":17544:17548   */\n      dup1\n        /* \"#utility.yul\":17538:17542   */\n      dup4\n        /* \"#utility.yul\":17534:17549   */\n      and\n        /* \"#utility.yul\":17524:17549   */\n      swap2\n      pop\n        /* \"#utility.yul\":17437:17555   */\n      pop\n        /* \"#utility.yul\":17386:17555   */\n      swap3\n      swap2\n      pop\n      pop\n      jump\t// out\n        /* \"#utility.yul\":17560:17855   */\n    tag_443:\n        /* \"#utility.yul\":17636:17640   */\n      0x00\n        /* \"#utility.yul\":17782:17811   */\n      tag_649\n        /* \"#utility.yul\":17807:17810   */\n      dup4\n        /* \"#utility.yul\":17801:17805   */\n      dup4\n        /* \"#utility.yul\":17782:17811   */\n      tag_442\n      jump\t// in\n    tag_649:\n        /* \"#utility.yul\":17774:17811   */\n      swap2\n      pop\n        /* \"#utility.yul\":17844:17847   */\n      dup3\n        /* \"#utility.yul\":17841:17842   */\n      0x02\n        /* \"#utility.yul\":17837:17848   */\n      mul\n        /* \"#utility.yul\":17831:17835   */\n      dup3\n        /* \"#utility.yul\":17828:17849   */\n      or\n        /* \"#utility.yul\":17820:17849   */\n      swap1\n      pop\n        /* \"#utility.yul\":17560:17855   */\n      swap3\n      swap2\n      pop\n      pop\n      jump\t// out\n        /* \"#utility.yul\":17860:19263   */\n    tag_221:\n        /* \"#utility.yul\":17984:18028   */\n      tag_651\n        /* \"#utility.yul\":18024:18027   */\n      dup4\n        /* \"#utility.yul\":18019:18022   */\n      dup4\n        /* \"#utility.yul\":17984:18028   */\n      tag_427\n      jump\t// in\n    tag_651:\n        /* \"#utility.yul\":18093:18111   */\n      0xffffffffffffffff\n        /* \"#utility.yul\":18085:18091   */\n      dup2\n        /* \"#utility.yul\":18082:18112   */\n      gt\n        /* \"#utility.yul\":18079:18135   */\n      iszero\n      tag_652\n      jumpi\n        /* \"#utility.yul\":18115:18133   */\n      tag_653\n      tag_428\n      jump\t// in\n    tag_653:\n        /* \"#utility.yul\":18079:18135   */\n    tag_652:\n        /* \"#utility.yul\":18159:18197   */\n      tag_654\n        /* \"#utility.yul\":18191:18195   */\n      dup3\n        /* \"#utility.yul\":18185:18196   */\n      sload\n        /* \"#utility.yul\":18159:18197   */\n      tag_177\n      jump\t// in\n    tag_654:\n        /* \"#utility.yul\":18244:18311   */\n      tag_655\n        /* \"#utility.yul\":18304:18310   */\n      dup3\n        /* \"#utility.yul\":18296:18302   */\n      dup3\n        /* \"#utility.yul\":18290:18294   */\n      dup6\n        /* \"#utility.yul\":18244:18311   */\n      tag_440\n      jump\t// in\n    tag_655:\n        /* \"#utility.yul\":18338:18339   */\n      0x00\n        /* \"#utility.yul\":18367:18369   */\n      0x1f\n        /* \"#utility.yul\":18359:18365   */\n      dup4\n        /* \"#utility.yul\":18356:18370   */\n      gt\n        /* \"#utility.yul\":18384:18385   */\n      0x01\n        /* \"#utility.yul\":18379:19011   */\n      dup2\n      eq\n      tag_657\n      jumpi\n        /* \"#utility.yul\":19055:19056   */\n      0x00\n        /* \"#utility.yul\":19072:19078   */\n      dup5\n        /* \"#utility.yul\":19069:19153   */\n      iszero\n      tag_658\n      jumpi\n        /* \"#utility.yul\":19128:19137   */\n      dup3\n        /* \"#utility.yul\":19123:19126   */\n      dup8\n        /* \"#utility.yul\":19119:19138   */\n      add\n        /* \"#utility.yul\":19106:19139   */\n      calldataload\n        /* \"#utility.yul\":19097:19139   */\n      swap1\n      pop\n        /* \"#utility.yul\":19069:19153   */\n    tag_658:\n        /* \"#utility.yul\":19179:19246   */\n      tag_659\n        /* \"#utility.yul\":19239:19245   */\n      dup6\n        /* \"#utility.yul\":19232:19237   */\n      dup3\n        /* \"#utility.yul\":19179:19246   */\n      tag_443\n      jump\t// in\n    tag_659:\n        /* \"#utility.yul\":19173:19177   */\n      dup7\n        /* \"#utility.yul\":19166:19247   */\n      sstore\n        /* \"#utility.yul\":19028:19257   */\n      pop\n        /* \"#utility.yul\":18349:19257   */\n      jump(tag_656)\n        /* \"#utility.yul\":18379:19011   */\n    tag_657:\n        /* \"#utility.yul\":18431:18435   */\n      0x1f\n        /* \"#utility.yul\":18427:18436   */\n      not\n        /* \"#utility.yul\":18419:18425   */\n      dup5\n        /* \"#utility.yul\":18415:18437   */\n      and\n        /* \"#utility.yul\":18465:18502   */\n      tag_660\n        /* \"#utility.yul\":18497:18501   */\n      dup7\n        /* \"#utility.yul\":18465:18502   */\n      tag_429\n      jump\t// in\n    tag_660:\n        /* \"#utility.yul\":18524:18525   */\n      0x00\n        /* \"#utility.yul\":18538:18753   */\n    tag_661:\n        /* \"#utility.yul\":18552:18559   */\n      dup3\n        /* \"#utility.yul\":18549:18550   */\n      dup2\n        /* \"#utility.yul\":18546:18560   */\n      lt\n        /* \"#utility.yul\":18538:18753   */\n      iszero\n      tag_663\n      jumpi\n        /* \"#utility.yul\":18638:18647   */\n      dup5\n        /* \"#utility.yul\":18633:18636   */\n      dup10\n        /* \"#utility.yul\":18629:18648   */\n      add\n        /* \"#utility.yul\":18616:18649   */\n      calldataload\n        /* \"#utility.yul\":18608:18614   */\n      dup3\n        /* \"#utility.yul\":18601:18650   */\n      sstore\n        /* \"#utility.yul\":18689:18690   */\n      0x01\n        /* \"#utility.yul\":18681:18687   */\n      dup3\n        /* \"#utility.yul\":18677:18691   */\n      add\n        /* \"#utility.yul\":18667:18691   */\n      swap2\n      pop\n        /* \"#utility.yul\":18736:18738   */\n      0x20\n        /* \"#utility.yul\":18725:18734   */\n      dup6\n        /* \"#utility.yul\":18721:18739   */\n      add\n        /* \"#utility.yul\":18708:18739   */\n      swap5\n      pop\n        /* \"#utility.yul\":18575:18579   */\n      0x20\n        /* \"#utility.yul\":18572:18573   */\n      dup2\n        /* \"#utility.yul\":18568:18580   */\n      add\n        /* \"#utility.yul\":18563:18580   */\n      swap1\n      pop\n        /* \"#utility.yul\":18538:18753   */\n      jump(tag_661)\n    tag_663:\n        /* \"#utility.yul\":18781:18787   */\n      dup7\n        /* \"#utility.yul\":18772:18779   */\n      dup4\n        /* \"#utility.yul\":18769:18788   */\n      lt\n        /* \"#utility.yul\":18766:18952   */\n      iszero\n      tag_664\n      jumpi\n        /* \"#utility.yul\":18846:18855   */\n      dup5\n        /* \"#utility.yul\":18841:18844   */\n      dup10\n        /* \"#utility.yul\":18837:18856   */\n      add\n        /* \"#utility.yul\":18824:18857   */\n      calldataload\n        /* \"#utility.yul\":18889:18937   */\n      tag_665\n        /* \"#utility.yul\":18931:18935   */\n      0x1f\n        /* \"#utility.yul\":18923:18929   */\n      dup10\n        /* \"#utility.yul\":18919:18936   */\n      and\n        /* \"#utility.yul\":18908:18917   */\n      dup3\n        /* \"#utility.yul\":18889:18937   */\n      tag_442\n      jump\t// in\n    tag_665:\n        /* \"#utility.yul\":18881:18887   */\n      dup4\n        /* \"#utility.yul\":18874:18938   */\n      sstore\n        /* \"#utility.yul\":18789:18952   */\n      pop\n        /* \"#utility.yul\":18766:18952   */\n    tag_664:\n        /* \"#utility.yul\":18998:18999   */\n      0x01\n        /* \"#utility.yul\":18994:18995   */\n      0x02\n        /* \"#utility.yul\":18986:18992   */\n      dup9\n        /* \"#utility.yul\":18982:18996   */\n      mul\n        /* \"#utility.yul\":18978:19000   */\n      add\n        /* \"#utility.yul\":18972:18976   */\n      dup9\n        /* \"#utility.yul\":18965:19001   */\n      sstore\n        /* \"#utility.yul\":18386:19011   */\n      pop\n      pop\n      pop\n        /* \"#utility.yul\":18349:19257   */\n    tag_656:\n      pop\n        /* \"#utility.yul\":17959:19263   */\n      pop\n      pop\n      pop\n        /* \"#utility.yul\":17860:19263   */\n      pop\n      pop\n      pop\n      jump\t// out\n        /* \"#utility.yul\":19269:19601   */\n    tag_233:\n        /* \"#utility.yul\":19390:19394   */\n      0x00\n        /* \"#utility.yul\":19428:19430   */\n      0x40\n        /* \"#utility.yul\":19417:19426   */\n      dup3\n        /* \"#utility.yul\":19413:19431   */\n      add\n        /* \"#utility.yul\":19405:19431   */\n      swap1\n      pop\n        /* \"#utility.yul\":19441:19512   */\n      tag_667\n        /* \"#utility.yul\":19509:19510   */\n      0x00\n        /* \"#utility.yul\":19498:19507   */\n      dup4\n        /* \"#utility.yul\":19494:19511   */\n      add\n        /* \"#utility.yul\":19485:19491   */\n      dup6\n        /* \"#utility.yul\":19441:19512   */\n      tag_414\n      jump\t// in\n    tag_667:\n        /* \"#utility.yul\":19522:19594   */\n      tag_668\n        /* \"#utility.yul\":19590:19592   */\n      0x20\n        /* \"#utility.yul\":19579:19588   */\n      dup4\n        /* \"#utility.yul\":19575:19593   */\n      add\n        /* \"#utility.yul\":19566:19572   */\n      dup5\n        /* \"#utility.yul\":19522:19594   */\n      tag_395\n      jump\t// in\n    tag_668:\n        /* \"#utility.yul\":19269:19601   */\n      swap4\n      swap3\n      pop\n      pop\n      pop\n      jump\t// out\n        /* \"#utility.yul\":19607:19723   */\n    tag_444:\n        /* \"#utility.yul\":19677:19698   */\n      tag_670\n        /* \"#utility.yul\":19692:19697   */\n      dup2\n        /* \"#utility.yul\":19677:19698   */\n      tag_410\n      jump\t// in\n    tag_670:\n        /* \"#utility.yul\":19670:19675   */\n      dup2\n        /* \"#utility.yul\":19667:19699   */\n      eq\n        /* \"#utility.yul\":19657:19717   */\n      tag_671\n      jumpi\n        /* \"#utility.yul\":19713:19714   */\n      0x00\n        /* \"#utility.yul\":19710:19711   */\n      0x00\n        /* \"#utility.yul\":19703:19715   */\n      revert\n        /* \"#utility.yul\":19657:19717   */\n    tag_671:\n        /* \"#utility.yul\":19607:19723   */\n      pop\n      jump\t// out\n        /* \"#utility.yul\":19729:19866   */\n    tag_445:\n        /* \"#utility.yul\":19783:19788   */\n      0x00\n        /* \"#utility.yul\":19814:19820   */\n      dup2\n        /* \"#utility.yul\":19808:19821   */\n      mload\n        /* \"#utility.yul\":19799:19821   */\n      swap1\n      pop\n        /* \"#utility.yul\":19830:19860   */\n      tag_673\n        /* \"#utility.yul\":19854:19859   */\n      dup2\n        /* \"#utility.yul\":19830:19860   */\n      tag_444\n      jump\t// in\n    tag_673:\n        /* \"#utility.yul\":19729:19866   */\n      swap3\n      swap2\n      pop\n      pop\n      jump\t// out\n        /* \"#utility.yul\":19872:20217   */\n    tag_237:\n        /* \"#utility.yul\":19939:19945   */\n      0x00\n        /* \"#utility.yul\":19988:19990   */\n      0x20\n        /* \"#utility.yul\":19976:19985   */\n      dup3\n        /* \"#utility.yul\":19967:19974   */\n      dup5\n        /* \"#utility.yul\":19963:19986   */\n      sub\n        /* \"#utility.yul\":19959:19991   */\n      slt\n        /* \"#utility.yul\":19956:20075   */\n      iszero\n      tag_675\n      jumpi\n        /* \"#utility.yul\":19994:20073   */\n      tag_676\n      tag_402\n      jump\t// in\n    tag_676:\n        /* \"#utility.yul\":19956:20075   */\n    tag_675:\n        /* \"#utility.yul\":20114:20115   */\n      0x00\n        /* \"#utility.yul\":20139:20200   */\n      tag_677\n        /* \"#utility.yul\":20192:20199   */\n      dup5\n        /* \"#utility.yul\":20183:20189   */\n      dup3\n        /* \"#utility.yul\":20172:20181   */\n      dup6\n        /* \"#utility.yul\":20168:20190   */\n      add\n        /* \"#utility.yul\":20139:20200   */\n      tag_445\n      jump\t// in\n    tag_677:\n        /* \"#utility.yul\":20129:20200   */\n      swap2\n      pop\n        /* \"#utility.yul\":20085:20210   */\n      pop\n        /* \"#utility.yul\":19872:20217   */\n      swap3\n      swap2\n      pop\n      pop\n      jump\t// out\n        /* \"#utility.yul\":20223:20384   */\n    tag_446:\n        /* \"#utility.yul\":20363:20376   */\n      0x5a45524f5f534841524553000000000000000000000000000000000000000000\n        /* \"#utility.yul\":20359:20360   */\n      0x00\n        /* \"#utility.yul\":20351:20357   */\n      dup3\n        /* \"#utility.yul\":20347:20361   */\n      add\n        /* \"#utility.yul\":20340:20377   */\n      mstore\n        /* \"#utility.yul\":20223:20384   */\n      pop\n      jump\t// out\n        /* \"#utility.yul\":20390:20756   */\n    tag_447:\n        /* \"#utility.yul\":20532:20535   */\n      0x00\n        /* \"#utility.yul\":20553:20620   */\n      tag_680\n        /* \"#utility.yul\":20617:20619   */\n      0x0b\n        /* \"#utility.yul\":20612:20615   */\n      dup4\n        /* \"#utility.yul\":20553:20620   */\n      tag_397\n      jump\t// in\n    tag_680:\n        /* \"#utility.yul\":20546:20620   */\n      swap2\n      pop\n        /* \"#utility.yul\":20629:20722   */\n      tag_681\n        /* \"#utility.yul\":20718:20721   */\n      dup3\n        /* \"#utility.yul\":20629:20722   */\n      tag_446\n      jump\t// in\n    tag_681:\n        /* \"#utility.yul\":20747:20749   */\n      0x20\n        /* \"#utility.yul\":20742:20745   */\n      dup3\n        /* \"#utility.yul\":20738:20750   */\n      add\n        /* \"#utility.yul\":20731:20750   */\n      swap1\n      pop\n        /* \"#utility.yul\":20390:20756   */\n      swap2\n      swap1\n      pop\n      jump\t// out\n        /* \"#utility.yul\":20762:21181   */\n    tag_259:\n        /* \"#utility.yul\":20928:20932   */\n      0x00\n        /* \"#utility.yul\":20966:20968   */\n      0x20\n        /* \"#utility.yul\":20955:20964   */\n      dup3\n        /* \"#utility.yul\":20951:20969   */\n      add\n        /* \"#utility.yul\":20943:20969   */\n      swap1\n      pop\n        /* \"#utility.yul\":21015:21024   */\n      dup2\n        /* \"#utility.yul\":21009:21013   */\n      dup2\n        /* \"#utility.yul\":21005:21025   */\n      sub\n        /* \"#utility.yul\":21001:21002   */\n      0x00\n        /* \"#utility.yul\":20990:20999   */\n      dup4\n        /* \"#utility.yul\":20986:21003   */\n      add\n        /* \"#utility.yul\":20979:21026   */\n      mstore\n        /* \"#utility.yul\":21043:21174   */\n      tag_683\n        /* \"#utility.yul\":21169:21173   */\n      dup2\n        /* \"#utility.yul\":21043:21174   */\n      tag_447\n      jump\t// in\n    tag_683:\n        /* \"#utility.yul\":21035:21174   */\n      swap1\n      pop\n        /* \"#utility.yul\":20762:21181   */\n      swap2\n      swap1\n      pop\n      jump\t// out\n        /* \"#utility.yul\":21187:21348   */\n    tag_448:\n        /* \"#utility.yul\":21327:21340   */\n      0x5a45524f5f415353455453000000000000000000000000000000000000000000\n        /* \"#utility.yul\":21323:21324   */\n      0x00\n        /* \"#utility.yul\":21315:21321   */\n      dup3\n        /* \"#utility.yul\":21311:21325   */\n      add\n        /* \"#utility.yul\":21304:21341   */\n      mstore\n        /* \"#utility.yul\":21187:21348   */\n      pop\n      jump\t// out\n        /* \"#utility.yul\":21354:21720   */\n    tag_449:\n        /* \"#utility.yul\":21496:21499   */\n      0x00\n        /* \"#utility.yul\":21517:21584   */\n      tag_686\n        /* \"#utility.yul\":21581:21583   */\n      0x0b\n        /* \"#utility.yul\":21576:21579   */\n      dup4\n        /* \"#utility.yul\":21517:21584   */\n      tag_397\n      jump\t// in\n    tag_686:\n        /* \"#utility.yul\":21510:21584   */\n      swap2\n      pop\n        /* \"#utility.yul\":21593:21686   */\n      tag_687\n        /* \"#utility.yul\":21682:21685   */\n      dup3\n        /* \"#utility.yul\":21593:21686   */\n      tag_448\n      jump\t// in\n    tag_687:\n        /* \"#utility.yul\":21711:21713   */\n      0x20\n        /* \"#utility.yul\":21706:21709   */\n      dup3\n        /* \"#utility.yul\":21702:21714   */\n      add\n        /* \"#utility.yul\":21695:21714   */\n      swap1\n      pop\n        /* \"#utility.yul\":21354:21720   */\n      swap2\n      swap1\n      pop\n      jump\t// out\n        /* \"#utility.yul\":21726:22145   */\n    tag_263:\n        /* \"#utility.yul\":21892:21896   */\n      0x00\n        /* \"#utility.yul\":21930:21932   */\n      0x20\n        /* \"#utility.yul\":21919:21928   */\n      dup3\n        /* \"#utility.yul\":21915:21933   */\n      add\n        /* \"#utility.yul\":21907:21933   */\n      swap1\n      pop\n        /* \"#utility.yul\":21979:21988   */\n      dup2\n        /* \"#utility.yul\":21973:21977   */\n      dup2\n        /* \"#utility.yul\":21969:21989   */\n      sub\n        /* \"#utility.yul\":21965:21966   */\n      0x00\n        /* \"#utility.yul\":21954:21963   */\n      dup4\n        /* \"#utility.yul\":21950:21967   */\n      add\n        /* \"#utility.yul\":21943:21990   */\n      mstore\n        /* \"#utility.yul\":22007:22138   */\n      tag_689\n        /* \"#utility.yul\":22133:22137   */\n      dup2\n        /* \"#utility.yul\":22007:22138   */\n      tag_449\n      jump\t// in\n    tag_689:\n        /* \"#utility.yul\":21999:22138   */\n      swap1\n      pop\n        /* \"#utility.yul\":21726:22145   */\n      swap2\n      swap1\n      pop\n      jump\t// out\n        /* \"#utility.yul\":22151:22593   */\n    tag_265:\n        /* \"#utility.yul\":22300:22304   */\n      0x00\n        /* \"#utility.yul\":22338:22340   */\n      0x60\n        /* \"#utility.yul\":22327:22336   */\n      dup3\n        /* \"#utility.yul\":22323:22341   */\n      add\n        /* \"#utility.yul\":22315:22341   */\n      swap1\n      pop\n        /* \"#utility.yul\":22351:22422   */\n      tag_691\n        /* \"#utility.yul\":22419:22420   */\n      0x00\n        /* \"#utility.yul\":22408:22417   */\n      dup4\n        /* \"#utility.yul\":22404:22421   */\n      add\n        /* \"#utility.yul\":22395:22401   */\n      dup7\n        /* \"#utility.yul\":22351:22422   */\n      tag_414\n      jump\t// in\n    tag_691:\n        /* \"#utility.yul\":22432:22504   */\n      tag_692\n        /* \"#utility.yul\":22500:22502   */\n      0x20\n        /* \"#utility.yul\":22489:22498   */\n      dup4\n        /* \"#utility.yul\":22485:22503   */\n      add\n        /* \"#utility.yul\":22476:22482   */\n      dup6\n        /* \"#utility.yul\":22432:22504   */\n      tag_414\n      jump\t// in\n    tag_692:\n        /* \"#utility.yul\":22514:22586   */\n      tag_693\n        /* \"#utility.yul\":22582:22584   */\n      0x40\n        /* \"#utility.yul\":22571:22580   */\n      dup4\n        /* \"#utility.yul\":22567:22585   */\n      add\n        /* \"#utility.yul\":22558:22564   */\n      dup5\n        /* \"#utility.yul\":22514:22586   */\n      tag_395\n      jump\t// in\n    tag_693:\n        /* \"#utility.yul\":22151:22593   */\n      swap5\n      swap4\n      pop\n      pop\n      pop\n      pop\n      jump\t// out\n        /* \"#utility.yul\":22599:22931   */\n    tag_272:\n        /* \"#utility.yul\":22720:22724   */\n      0x00\n        /* \"#utility.yul\":22758:22760   */\n      0x40\n        /* \"#utility.yul\":22747:22756   */\n      dup3\n        /* \"#utility.yul\":22743:22761   */\n      add\n        /* \"#utility.yul\":22735:22761   */\n      swap1\n      pop\n        /* \"#utility.yul\":22771:22842   */\n      tag_695\n        /* \"#utility.yul\":22839:22840   */\n      0x00\n        /* \"#utility.yul\":22828:22837   */\n      dup4\n        /* \"#utility.yul\":22824:22841   */\n      add\n        /* \"#utility.yul\":22815:22821   */\n      dup6\n        /* \"#utility.yul\":22771:22842   */\n      tag_395\n      jump\t// in\n    tag_695:\n        /* \"#utility.yul\":22852:22924   */\n      tag_696\n        /* \"#utility.yul\":22920:22922   */\n      0x20\n        /* \"#utility.yul\":22909:22918   */\n      dup4\n        /* \"#utility.yul\":22905:22923   */\n      add\n        /* \"#utility.yul\":22896:22902   */\n      dup5\n        /* \"#utility.yul\":22852:22924   */\n      tag_395\n      jump\t// in\n    tag_696:\n        /* \"#utility.yul\":22599:22931   */\n      swap4\n      swap3\n      pop\n      pop\n      pop\n      jump\t// out\n        /* \"#utility.yul\":22937:23094   */\n    tag_450:\n        /* \"#utility.yul\":23077:23086   */\n      0x5a45524f5f544f00000000000000000000000000000000000000000000000000\n        /* \"#utility.yul\":23073:23074   */\n      0x00\n        /* \"#utility.yul\":23065:23071   */\n      dup3\n        /* \"#utility.yul\":23061:23075   */\n      add\n        /* \"#utility.yul\":23054:23087   */\n      mstore\n        /* \"#utility.yul\":22937:23094   */\n      pop\n      jump\t// out\n        /* \"#utility.yul\":23100:23465   */\n    tag_451:\n        /* \"#utility.yul\":23242:23245   */\n      0x00\n        /* \"#utility.yul\":23263:23329   */\n      tag_699\n        /* \"#utility.yul\":23327:23328   */\n      0x07\n        /* \"#utility.yul\":23322:23325   */\n      dup4\n        /* \"#utility.yul\":23263:23329   */\n      tag_397\n      jump\t// in\n    tag_699:\n        /* \"#utility.yul\":23256:23329   */\n      swap2\n      pop\n        /* \"#utility.yul\":23338:23431   */\n      tag_700\n        /* \"#utility.yul\":23427:23430   */\n      dup3\n        /* \"#utility.yul\":23338:23431   */\n      tag_450\n      jump\t// in\n    tag_700:\n        /* \"#utility.yul\":23456:23458   */\n      0x20\n        /* \"#utility.yul\":23451:23454   */\n      dup3\n        /* \"#utility.yul\":23447:23459   */\n      add\n        /* \"#utility.yul\":23440:23459   */\n      swap1\n      pop\n        /* \"#utility.yul\":23100:23465   */\n      swap2\n      swap1\n      pop\n      jump\t// out\n        /* \"#utility.yul\":23471:23890   */\n    tag_330:\n        /* \"#utility.yul\":23637:23641   */\n      0x00\n        /* \"#utility.yul\":23675:23677   */\n      0x20\n        /* \"#utility.yul\":23664:23673   */\n      dup3\n        /* \"#utility.yul\":23660:23678   */\n      add\n        /* \"#utility.yul\":23652:23678   */\n      swap1\n      pop\n        /* \"#utility.yul\":23724:23733   */\n      dup2\n        /* \"#utility.yul\":23718:23722   */\n      dup2\n        /* \"#utility.yul\":23714:23734   */\n      sub\n        /* \"#utility.yul\":23710:23711   */\n      0x00\n        /* \"#utility.yul\":23699:23708   */\n      dup4\n        /* \"#utility.yul\":23695:23712   */\n      add\n        /* \"#utility.yul\":23688:23735   */\n      mstore\n        /* \"#utility.yul\":23752:23883   */\n      tag_702\n        /* \"#utility.yul\":23878:23882   */\n      dup2\n        /* \"#utility.yul\":23752:23883   */\n      tag_451\n      jump\t// in\n    tag_702:\n        /* \"#utility.yul\":23744:23883   */\n      swap1\n      pop\n        /* \"#utility.yul\":23471:23890   */\n      swap2\n      swap1\n      pop\n      jump\t// out\n        /* \"#utility.yul\":23896:24066   */\n    tag_452:\n        /* \"#utility.yul\":24036:24058   */\n      0x494e53554646494349454e545f42414c414e4345000000000000000000000000\n        /* \"#utility.yul\":24032:24033   */\n      0x00\n        /* \"#utility.yul\":24024:24030   */\n      dup3\n        /* \"#utility.yul\":24020:24034   */\n      add\n        /* \"#utility.yul\":24013:24059   */\n      mstore\n        /* \"#utility.yul\":23896:24066   */\n      pop\n      jump\t// out\n        /* \"#utility.yul\":24072:24438   */\n    tag_453:\n        /* \"#utility.yul\":24214:24217   */\n      0x00\n        /* \"#utility.yul\":24235:24302   */\n      tag_705\n        /* \"#utility.yul\":24299:24301   */\n      0x14\n        /* \"#utility.yul\":24294:24297   */\n      dup4\n        /* \"#utility.yul\":24235:24302   */\n      tag_397\n      jump\t// in\n    tag_705:\n        /* \"#utility.yul\":24228:24302   */\n      swap2\n      pop\n        /* \"#utility.yul\":24311:24404   */\n      tag_706\n        /* \"#utility.yul\":24400:24403   */\n      dup3\n        /* \"#utility.yul\":24311:24404   */\n      tag_452\n      jump\t// in\n    tag_706:\n        /* \"#utility.yul\":24429:24431   */\n      0x20\n        /* \"#utility.yul\":24424:24427   */\n      dup3\n        /* \"#utility.yul\":24420:24432   */\n      add\n        /* \"#utility.yul\":24413:24432   */\n      swap1\n      pop\n        /* \"#utility.yul\":24072:24438   */\n      swap2\n      swap1\n      pop\n      jump\t// out\n        /* \"#utility.yul\":24444:24863   */\n    tag_333:\n        /* \"#utility.yul\":24610:24614   */\n      0x00\n        /* \"#utility.yul\":24648:24650   */\n      0x20\n        /* \"#utility.yul\":24637:24646   */\n      dup3\n        /* \"#utility.yul\":24633:24651   */\n      add\n        /* \"#utility.yul\":24625:24651   */\n      swap1\n      pop\n        /* \"#utility.yul\":24697:24706   */\n      dup2\n        /* \"#utility.yul\":24691:24695   */\n      dup2\n        /* \"#utility.yul\":24687:24707   */\n      sub\n        /* \"#utility.yul\":24683:24684   */\n      0x00\n        /* \"#utility.yul\":24672:24681   */\n      dup4\n        /* \"#utility.yul\":24668:24685   */\n      add\n        /* \"#utility.yul\":24661:24708   */\n      mstore\n        /* \"#utility.yul\":24725:24856   */\n      tag_708\n        /* \"#utility.yul\":24851:24855   */\n      dup2\n        /* \"#utility.yul\":24725:24856   */\n      tag_453\n      jump\t// in\n    tag_708:\n        /* \"#utility.yul\":24717:24856   */\n      swap1\n      pop\n        /* \"#utility.yul\":24444:24863   */\n      swap2\n      swap1\n      pop\n      jump\t// out\n        /* \"#utility.yul\":24869:25029   */\n    tag_454:\n        /* \"#utility.yul\":25009:25021   */\n      0x5a45524f5f415353455400000000000000000000000000000000000000000000\n        /* \"#utility.yul\":25005:25006   */\n      0x00\n        /* \"#utility.yul\":24997:25003   */\n      dup3\n        /* \"#utility.yul\":24993:25007   */\n      add\n        /* \"#utility.yul\":24986:25022   */\n      mstore\n        /* \"#utility.yul\":24869:25029   */\n      pop\n      jump\t// out\n        /* \"#utility.yul\":25035:25401   */\n    tag_455:\n        /* \"#utility.yul\":25177:25180   */\n      0x00\n        /* \"#utility.yul\":25198:25265   */\n      tag_711\n        /* \"#utility.yul\":25262:25264   */\n      0x0a\n        /* \"#utility.yul\":25257:25260   */\n      dup4\n        /* \"#utility.yul\":25198:25265   */\n      tag_397\n      jump\t// in\n    tag_711:\n        /* \"#utility.yul\":25191:25265   */\n      swap2\n      pop\n        /* \"#utility.yul\":25274:25367   */\n      tag_712\n        /* \"#utility.yul\":25363:25366   */\n      dup3\n        /* \"#utility.yul\":25274:25367   */\n      tag_454\n      jump\t// in\n    tag_712:\n        /* \"#utility.yul\":25392:25394   */\n      0x20\n        /* \"#utility.yul\":25387:25390   */\n      dup3\n        /* \"#utility.yul\":25383:25395   */\n      add\n        /* \"#utility.yul\":25376:25395   */\n      swap1\n      pop\n        /* \"#utility.yul\":25035:25401   */\n      swap2\n      swap1\n      pop\n      jump\t// out\n        /* \"#utility.yul\":25407:25826   */\n    tag_341:\n        /* \"#utility.yul\":25573:25577   */\n      0x00\n        /* \"#utility.yul\":25611:25613   */\n      0x20\n        /* \"#utility.yul\":25600:25609   */\n      dup3\n        /* \"#utility.yul\":25596:25614   */\n      add\n        /* \"#utility.yul\":25588:25614   */\n      swap1\n      pop\n        /* \"#utility.yul\":25660:25669   */\n      dup2\n        /* \"#utility.yul\":25654:25658   */\n      dup2\n        /* \"#utility.yul\":25650:25670   */\n      sub\n        /* \"#utility.yul\":25646:25647   */\n      0x00\n        /* \"#utility.yul\":25635:25644   */\n      dup4\n        /* \"#utility.yul\":25631:25648   */\n      add\n        /* \"#utility.yul\":25624:25671   */\n      mstore\n        /* \"#utility.yul\":25688:25819   */\n      tag_714\n        /* \"#utility.yul\":25814:25818   */\n      dup2\n        /* \"#utility.yul\":25688:25819   */\n      tag_455\n      jump\t// in\n    tag_714:\n        /* \"#utility.yul\":25680:25819   */\n      swap1\n      pop\n        /* \"#utility.yul\":25407:25826   */\n      swap2\n      swap1\n      pop\n      jump\t// out\n        /* \"#utility.yul\":25832:27227   */\n    tag_392:\n        /* \"#utility.yul\":25949:25986   */\n      tag_716\n        /* \"#utility.yul\":25982:25985   */\n      dup3\n        /* \"#utility.yul\":25949:25986   */\n      tag_396\n      jump\t// in\n    tag_716:\n        /* \"#utility.yul\":26051:26069   */\n      0xffffffffffffffff\n        /* \"#utility.yul\":26043:26049   */\n      dup2\n        /* \"#utility.yul\":26040:26070   */\n      gt\n        /* \"#utility.yul\":26037:26093   */\n      iszero\n      tag_717\n      jumpi\n        /* \"#utility.yul\":26073:26091   */\n      tag_718\n      tag_428\n      jump\t// in\n    tag_718:\n        /* \"#utility.yul\":26037:26093   */\n    tag_717:\n        /* \"#utility.yul\":26117:26155   */\n      tag_719\n        /* \"#utility.yul\":26149:26153   */\n      dup3\n        /* \"#utility.yul\":26143:26154   */\n      sload\n        /* \"#utility.yul\":26117:26155   */\n      tag_177\n      jump\t// in\n    tag_719:\n        /* \"#utility.yul\":26202:26269   */\n      tag_720\n        /* \"#utility.yul\":26262:26268   */\n      dup3\n        /* \"#utility.yul\":26254:26260   */\n      dup3\n        /* \"#utility.yul\":26248:26252   */\n      dup6\n        /* \"#utility.yul\":26202:26269   */\n      tag_440\n      jump\t// in\n    tag_720:\n        /* \"#utility.yul\":26296:26297   */\n      0x00\n        /* \"#utility.yul\":26320:26324   */\n      0x20\n        /* \"#utility.yul\":26307:26324   */\n      swap1\n      pop\n        /* \"#utility.yul\":26352:26354   */\n      0x1f\n        /* \"#utility.yul\":26344:26350   */\n      dup4\n        /* \"#utility.yul\":26341:26355   */\n      gt\n        /* \"#utility.yul\":26369:26370   */\n      0x01\n        /* \"#utility.yul\":26364:26982   */\n      dup2\n      eq\n      tag_722\n      jumpi\n        /* \"#utility.yul\":27026:27027   */\n      0x00\n        /* \"#utility.yul\":27043:27049   */\n      dup5\n        /* \"#utility.yul\":27040:27117   */\n      iszero\n      tag_723\n      jumpi\n        /* \"#utility.yul\":27092:27101   */\n      dup3\n        /* \"#utility.yul\":27087:27090   */\n      dup8\n        /* \"#utility.yul\":27083:27102   */\n      add\n        /* \"#utility.yul\":27077:27103   */\n      mload\n        /* \"#utility.yul\":27068:27103   */\n      swap1\n      pop\n        /* \"#utility.yul\":27040:27117   */\n    tag_723:\n        /* \"#utility.yul\":27143:27210   */\n      tag_724\n        /* \"#utility.yul\":27203:27209   */\n      dup6\n        /* \"#utility.yul\":27196:27201   */\n      dup3\n        /* \"#utility.yul\":27143:27210   */\n      tag_443\n      jump\t// in\n    tag_724:\n        /* \"#utility.yul\":27137:27141   */\n      dup7\n        /* \"#utility.yul\":27130:27211   */\n      sstore\n        /* \"#utility.yul\":26999:27221   */\n      pop\n        /* \"#utility.yul\":26334:27221   */\n      jump(tag_721)\n        /* \"#utility.yul\":26364:26982   */\n    tag_722:\n        /* \"#utility.yul\":26416:26420   */\n      0x1f\n        /* \"#utility.yul\":26412:26421   */\n      not\n        /* \"#utility.yul\":26404:26410   */\n      dup5\n        /* \"#utility.yul\":26400:26422   */\n      and\n        /* \"#utility.yul\":26450:26487   */\n      tag_725\n        /* \"#utility.yul\":26482:26486   */\n      dup7\n        /* \"#utility.yul\":26450:26487   */\n      tag_429\n      jump\t// in\n    tag_725:\n        /* \"#utility.yul\":26509:26510   */\n      0x00\n        /* \"#utility.yul\":26523:26731   */\n    tag_726:\n        /* \"#utility.yul\":26537:26544   */\n      dup3\n        /* \"#utility.yul\":26534:26535   */\n      dup2\n        /* \"#utility.yul\":26531:26545   */\n      lt\n        /* \"#utility.yul\":26523:26731   */\n      iszero\n      tag_728\n      jumpi\n        /* \"#utility.yul\":26616:26625   */\n      dup5\n        /* \"#utility.yul\":26611:26614   */\n      dup10\n        /* \"#utility.yul\":26607:26626   */\n      add\n        /* \"#utility.yul\":26601:26627   */\n      mload\n        /* \"#utility.yul\":26593:26599   */\n      dup3\n        /* \"#utility.yul\":26586:26628   */\n      sstore\n        /* \"#utility.yul\":26667:26668   */\n      0x01\n        /* \"#utility.yul\":26659:26665   */\n      dup3\n        /* \"#utility.yul\":26655:26669   */\n      add\n        /* \"#utility.yul\":26645:26669   */\n      swap2\n      pop\n        /* \"#utility.yul\":26714:26716   */\n      0x20\n        /* \"#utility.yul\":26703:26712   */\n      dup6\n        /* \"#utility.yul\":26699:26717   */\n      add\n        /* \"#utility.yul\":26686:26717   */\n      swap5\n      pop\n        /* \"#utility.yul\":26560:26564   */\n      0x20\n        /* \"#utility.yul\":26557:26558   */\n      dup2\n        /* \"#utility.yul\":26553:26565   */\n      add\n        /* \"#utility.yul\":26548:26565   */\n      swap1\n      pop\n        /* \"#utility.yul\":26523:26731   */\n      jump(tag_726)\n    tag_728:\n        /* \"#utility.yul\":26759:26765   */\n      dup7\n        /* \"#utility.yul\":26750:26757   */\n      dup4\n        /* \"#utility.yul\":26747:26766   */\n      lt\n        /* \"#utility.yul\":26744:26923   */\n      iszero\n      tag_729\n      jumpi\n        /* \"#utility.yul\":26817:26826   */\n      dup5\n        /* \"#utility.yul\":26812:26815   */\n      dup10\n        /* \"#utility.yul\":26808:26827   */\n      add\n        /* \"#utility.yul\":26802:26828   */\n      mload\n        /* \"#utility.yul\":26860:26908   */\n      tag_730\n        /* \"#utility.yul\":26902:26906   */\n      0x1f\n        /* \"#utility.yul\":26894:26900   */\n      dup10\n        /* \"#utility.yul\":26890:26907   */\n      and\n        /* \"#utility.yul\":26879:26888   */\n      dup3\n        /* \"#utility.yul\":26860:26908   */\n      tag_442\n      jump\t// in\n    tag_730:\n        /* \"#utility.yul\":26852:26858   */\n      dup4\n        /* \"#utility.yul\":26845:26909   */\n      sstore\n        /* \"#utility.yul\":26767:26923   */\n      pop\n        /* \"#utility.yul\":26744:26923   */\n    tag_729:\n        /* \"#utility.yul\":26969:26970   */\n      0x01\n        /* \"#utility.yul\":26965:26966   */\n      0x02\n        /* \"#utility.yul\":26957:26963   */\n      dup9\n        /* \"#utility.yul\":26953:26967   */\n      mul\n        /* \"#utility.yul\":26949:26971   */\n      add\n        /* \"#utility.yul\":26943:26947   */\n      dup9\n        /* \"#utility.yul\":26936:26972   */\n      sstore\n        /* \"#utility.yul\":26371:26982   */\n      pop\n      pop\n      pop\n        /* \"#utility.yul\":26334:27221   */\n    tag_721:\n      pop\n        /* \"#utility.yul\":25924:27227   */\n      pop\n      pop\n      pop\n        /* \"#utility.yul\":25832:27227   */\n      pop\n      pop\n      jump\t// out\n\n    auxdata: 0xa264697066735822122086424f4515cb1da6294599560c1670880e0296cdcf3c96655ce6ec0db428900d64736f6c634300081e0033\n}\n",
				"bytecode": {
					"linkReferences": {},
					"object": "6080604052348015600e575f5ffd5b506131708061001c5f395ff3fe608060405234801561000f575f5ffd5b50600436106101cd575f3560e01c80636ec934da11610102578063a9059cbb116100a0578063c30e98111161006f578063c30e98111461057f578063c6e6f5921461059b578063d3a417a2146105cb578063dd62ed3e146105e7576101cd565b8063a9059cbb146104bf578063b1283e77146104ef578063b460af941461051f578063ba0876521461054f576101cd565b806392f6b31c116100dc57806392f6b31c1461043757806393e306331461045557806394bf804d1461047157806395d89b41146104a1576101cd565b80636ec934da146103b957806370a08231146103e95780638da5cb5b14610419576101cd565b806338d52e0f1161016f57806341b3d1851161014957806341b3d185146103315780634a79d50c1461034f57806366adf46a1461036d5780636e553f6514610389576101cd565b806338d52e0f146102d95780633bcfc4b8146102f75780633dce8b3814610315576101cd565b8063095ea7b3116101ab578063095ea7b31461023d57806318160ddd1461026d57806323b872dd1461028b578063313ce567146102bb576101cd565b806301e1d114146101d157806306fdde03146101ef57806307a2d13a1461020d575b5f5ffd5b6101d9610617565b6040516101e6919061234b565b60405180910390f35b6101f76107fa565b60405161020491906123d4565b60405180910390f35b61022760048036038101906102229190612426565b61088a565b604051610234919061234b565b60405180910390f35b610257600480360381019061025291906124ab565b610943565b6040516102649190612503565b60405180910390f35b610275610959565b604051610282919061234b565b60405180910390f35b6102a560048036038101906102a0919061251c565b610962565b6040516102b29190612503565b60405180910390f35b6102c3610a77565b6040516102d09190612587565b60405180910390f35b6102e1610a8c565b6040516102ee91906125af565b60405180910390f35b6102ff610ab4565b60405161030c919061234b565b60405180910390f35b61032f600480360381019061032a9190612629565b610aba565b005b610339610c52565b604051610346919061234b565b60405180910390f35b610357610c58565b60405161036491906123d4565b60405180910390f35b610387600480360381019061038291906124ab565b610ce4565b005b6103a3600480360381019061039e9190612726565b610e29565b6040516103b0919061234b565b60405180910390f35b6103d360048036038101906103ce9190612764565b610e3c565b6040516103e09190612503565b60405180910390f35b61040360048036038101906103fe9190612764565b610e59565b604051610410919061234b565b60405180910390f35b610421610e9f565b60405161042e91906125af565b60405180910390f35b61043f610ec4565b60405161044c919061234b565b60405180910390f35b61046f600480360381019061046a9190612764565b610f49565b005b61048b60048036038101906104869190612726565b611059565b604051610498919061234b565b60405180910390f35b6104a96111ff565b6040516104b691906123d4565b60405180910390f35b6104d960048036038101906104d491906124ab565b61128f565b6040516104e69190612503565b60405180910390f35b61050960048036038101906105049190612426565b6112a5565b60405161051691906125af565b60405180910390f35b6105396004803603810190610534919061278f565b6112e0565b604051610546919061234b565b60405180910390f35b6105696004803603810190610564919061278f565b6112f5565b604051610576919061234b565b60405180910390f35b610599600480360381019061059491906124ab565b611532565b005b6105b560048036038101906105b09190612426565b6115f4565b6040516105c2919061234b565b60405180910390f35b6105e560048036038101906105e09190612764565b6116ad565b005b61060160048036038101906105fc91906127df565b61177f565b60405161060e919061234b565b60405180910390f35b5f610620610a8c565b73ffffffffffffffffffffffffffffffffffffffff166370a08231306040518263ffffffff1660e01b815260040161065891906125af565b602060405180830381865afa158015610673573d5f5f3e3d5ffd5b505050506040513d601f19601f820116820180604052508101906106979190612831565b90505f5f90505b600b805490508110156107f657600c5f600b83815481106106c2576106c161285c565b5b905f5260205f20015f9054906101000a900473ffffffffffffffffffffffffffffffffffffffff1673ffffffffffffffffffffffffffffffffffffffff1673ffffffffffffffffffffffffffffffffffffffff1681526020019081526020015f205f9054906101000a900460ff16156107eb57600b81815481106107495761074861285c565b5b905f5260205f20015f9054906101000a900473ffffffffffffffffffffffffffffffffffffffff1673ffffffffffffffffffffffffffffffffffffffff1663c82f6d2f6040518163ffffffff1660e01b8152600401602060405180830381865afa1580156107b9573d5f5f3e3d5ffd5b505050506040513d601f19601f820116820180604052508101906107dd9190612831565b826107e891906128b6565b91505b80600101905061069e565b5090565b60606001805461080990612916565b80601f016020809104026020016040519081016040528092919081815260200182805461083590612916565b80156108805780601f1061085757610100808354040283529160200191610880565b820191905f5260205f20905b81548152906001019060200180831161086357829003601f168201915b5050505050905090565b5f5f3073ffffffffffffffffffffffffffffffffffffffff166318160ddd6040518163ffffffff1660e01b8152600401602060405180830381865afa1580156108d5573d5f5f3e3d5ffd5b505050506040513d601f19601f820116820180604052508101906108f99190612831565b90505f610904610617565b90505f82148061091357505f81145b1561092257839250505061093e565b81818561092f9190612946565b61093991906129b4565b925050505b919050565b5f61094f338484611801565b6001905092915050565b5f600454905090565b5f5f60065f8673ffffffffffffffffffffffffffffffffffffffff1673ffffffffffffffffffffffffffffffffffffffff1681526020019081526020015f205f3373ffffffffffffffffffffffffffffffffffffffff1673ffffffffffffffffffffffffffffffffffffffff1681526020019081526020015f205490507fffffffffffffffffffffffffffffffffffffffffffffffffffffffffffffffff8114610a605782811015610a49576040517f08c379a0000000000000000000000000000000000000000000000000000000008152600401610a4090612a2e565b60405180910390fd5b610a5f85338584610a5a9190612a4c565b611801565b5b610a6b8585856118e8565b60019150509392505050565b5f60035f9054906101000a900460ff16905090565b5f60075f9054906101000a900473ffffffffffffffffffffffffffffffffffffffff16905090565b60095481565b5f5f9054906101000a900460ff161580610adf57505f60019054906101000a900460ff165b610b1e576040517f08c379a0000000000000000000000000000000000000000000000000000000008152600401610b1590612ac9565b60405180910390fd5b5f5f60019054906101000a900460ff161590508015610b6b5760015f60016101000a81548160ff02191690831515021790555060015f5f6101000a81548160ff0219169083151502179055505b610b748b611adc565b610c058a88888080601f0160208091040260200160405190810160405280939291908181526020018383808284375f81840152601f19601f8201169050808301925050505050505087878080601f0160208091040260200160405190810160405280939291908181526020018383808284375f81840152601f19601f82011690508083019250505050505050611b56565b888860089182610c16929190612cbe565b508260098190555081600a819055508015610c45575f5f60016101000a81548160ff0219169083151502179055505b5050505050505050505050565b600a5481565b60088054610c6590612916565b80601f0160208091040260200160405190810160405280929190818152602001828054610c9190612916565b8015610cdc5780601f10610cb357610100808354040283529160200191610cdc565b820191905f5260205f20905b815481529060010190602001808311610cbf57829003601f168201915b505050505081565b5f60029054906101000a900473ffffffffffffffffffffffffffffffffffffffff1673ffffffffffffffffffffffffffffffffffffffff163373ffffffffffffffffffffffffffffffffffffffff1614610d3c575f5ffd5b610d44610a8c565b73ffffffffffffffffffffffffffffffffffffffff1663a9059cbb83836040518363ffffffff1660e01b8152600401610d7e929190612d8b565b6020604051808303815f875af1158015610d9a573d5f5f3e3d5ffd5b505050506040513d601f19601f82011682018060405250810190610dbe9190612ddc565b508173ffffffffffffffffffffffffffffffffffffffff16634b92917a826040518263ffffffff1660e01b8152600401610df8919061234b565b5f604051808303815f87803b158015610e0f575f5ffd5b505af1158015610e21573d5f5f3e3d5ffd5b505050505050565b5f610e348383611c15565b905092915050565b600c602052805f5260405f205f915054906101000a900460ff1681565b5f60055f8373ffffffffffffffffffffffffffffffffffffffff1673ffffffffffffffffffffffffffffffffffffffff1681526020019081526020015f20549050919050565b5f60029054906101000a900473ffffffffffffffffffffffffffffffffffffffff1681565b5f610ecd610a8c565b73ffffffffffffffffffffffffffffffffffffffff166370a08231306040518263ffffffff1660e01b8152600401610f0591906125af565b602060405180830381865afa158015610f20573d5f5f3e3d5ffd5b505050506040513d601f19601f82011682018060405250810190610f449190612831565b905090565b5f60029054906101000a900473ffffffffffffffffffffffffffffffffffffffff1673ffffffffffffffffffffffffffffffffffffffff163373ffffffffffffffffffffffffffffffffffffffff1614610fa1575f5ffd5b6001600c5f8373ffffffffffffffffffffffffffffffffffffffff1673ffffffffffffffffffffffffffffffffffffffff1681526020019081526020015f205f6101000a81548160ff021916908315150217905550600b81908060018154018082558091505060019003905f5260205f20015f9091909190916101000a81548173ffffffffffffffffffffffffffffffffffffffff021916908373ffffffffffffffffffffffffffffffffffffffff16021790555050565b5f5f831161109c576040517f08c379a000000000000000000000000000000000000000000000000000000000815260040161109390612e51565b60405180910390fd5b6110a58361088a565b90505f81116110e9576040517f08c379a00000000000000000000000000000000000000000000000000000000081526004016110e090612eb9565b60405180910390fd5b60075f9054906101000a900473ffffffffffffffffffffffffffffffffffffffff1673ffffffffffffffffffffffffffffffffffffffff166323b872dd3330846040518463ffffffff1660e01b815260040161114793929190612ed7565b6020604051808303815f875af1158015611163573d5f5f3e3d5ffd5b505050506040513d601f19601f820116820180604052508101906111879190612ddc565b506111928284611dbb565b8173ffffffffffffffffffffffffffffffffffffffff163373ffffffffffffffffffffffffffffffffffffffff167fdcbc1c05240f31ff3ad067ef1ee35ce4997762752e3a095284754544f4c709d783866040516111f1929190612f0c565b60405180910390a392915050565b60606002805461120e90612916565b80601f016020809104026020016040519081016040528092919081815260200182805461123a90612916565b80156112855780601f1061125c57610100808354040283529160200191611285565b820191905f5260205f20905b81548152906001019060200180831161126857829003601f168201915b5050505050905090565b5f61129b3384846118e8565b6001905092915050565b600b81815481106112b4575f80fd5b905f5260205f20015f915054906101000a900473ffffffffffffffffffffffffffffffffffffffff1681565b5f6112ec848484611efd565b90509392505050565b5f5f8411611338576040517f08c379a000000000000000000000000000000000000000000000000000000000815260040161132f90612e51565b60405180910390fd5b6113418461088a565b90503373ffffffffffffffffffffffffffffffffffffffff168273ffffffffffffffffffffffffffffffffffffffff1614611406575f611381833361177f565b9050848110156113c6576040517f08c379a00000000000000000000000000000000000000000000000000000000081526004016113bd90612a2e565b60405180910390fd5b7fffffffffffffffffffffffffffffffffffffffffffffffffffffffffffffffff811461140457611403833387846113fe9190612a4c565b611801565b5b505b611410828561215a565b60075f9054906101000a900473ffffffffffffffffffffffffffffffffffffffff1673ffffffffffffffffffffffffffffffffffffffff1663a9059cbb84836040518363ffffffff1660e01b815260040161146c929190612d8b565b6020604051808303815f875af1158015611488573d5f5f3e3d5ffd5b505050506040513d601f19601f820116820180604052508101906114ac9190612ddc565b508173ffffffffffffffffffffffffffffffffffffffff168373ffffffffffffffffffffffffffffffffffffffff163373ffffffffffffffffffffffffffffffffffffffff167ffbde797d201c681b91056529119e0b02407c7bb96a4a2c75c01fc9667232c8db8488604051611523929190612f0c565b60405180910390a49392505050565b5f60029054906101000a900473ffffffffffffffffffffffffffffffffffffffff1673ffffffffffffffffffffffffffffffffffffffff163373ffffffffffffffffffffffffffffffffffffffff161461158a575f5ffd5b8173ffffffffffffffffffffffffffffffffffffffff16633e3722b6826040518263ffffffff1660e01b81526004016115c3919061234b565b5f604051808303815f87803b1580156115da575f5ffd5b505af11580156115ec573d5f5f3e3d5ffd5b505050505050565b5f5f3073ffffffffffffffffffffffffffffffffffffffff166318160ddd6040518163ffffffff1660e01b8152600401602060405180830381865afa15801561163f573d5f5f3e3d5ffd5b505050506040513d601f19601f820116820180604052508101906116639190612831565b90505f61166e610617565b90505f82148061167d57505f81145b1561168c5783925050506116a8565b8082856116999190612946565b6116a391906129b4565b925050505b919050565b5f60029054906101000a900473ffffffffffffffffffffffffffffffffffffffff1673ffffffffffffffffffffffffffffffffffffffff163373ffffffffffffffffffffffffffffffffffffffff1614611705575f5ffd5b5f73ffffffffffffffffffffffffffffffffffffffff168173ffffffffffffffffffffffffffffffffffffffff160361173c575f5ffd5b805f60026101000a81548173ffffffffffffffffffffffffffffffffffffffff021916908373ffffffffffffffffffffffffffffffffffffffff16021790555050565b5f60065f8473ffffffffffffffffffffffffffffffffffffffff1673ffffffffffffffffffffffffffffffffffffffff1681526020019081526020015f205f8373ffffffffffffffffffffffffffffffffffffffff1673ffffffffffffffffffffffffffffffffffffffff1681526020019081526020015f2054905092915050565b8060065f8573ffffffffffffffffffffffffffffffffffffffff1673ffffffffffffffffffffffffffffffffffffffff1681526020019081526020015f205f8473ffffffffffffffffffffffffffffffffffffffff1673ffffffffffffffffffffffffffffffffffffffff1681526020019081526020015f20819055508173ffffffffffffffffffffffffffffffffffffffff168373ffffffffffffffffffffffffffffffffffffffff167f8c5be1e5ebec7d5bd14f71427d1e84f3dd0314c0f7b2291e5b200ac8c7c3b925836040516118db919061234b565b60405180910390a3505050565b5f73ffffffffffffffffffffffffffffffffffffffff168273ffffffffffffffffffffffffffffffffffffffff1603611956576040517f08c379a000000000000000000000000000000000000000000000000000000000815260040161194d90612f7d565b60405180910390fd5b5f60055f8573ffffffffffffffffffffffffffffffffffffffff1673ffffffffffffffffffffffffffffffffffffffff1681526020019081526020015f20549050818110156119da576040517f08c379a00000000000000000000000000000000000000000000000000000000081526004016119d190612fe5565b60405180910390fd5b81810360055f8673ffffffffffffffffffffffffffffffffffffffff1673ffffffffffffffffffffffffffffffffffffffff1681526020019081526020015f20819055508160055f8573ffffffffffffffffffffffffffffffffffffffff1673ffffffffffffffffffffffffffffffffffffffff1681526020019081526020015f205f828254611a6a91906128b6565b925050819055508273ffffffffffffffffffffffffffffffffffffffff168473ffffffffffffffffffffffffffffffffffffffff167fddf252ad1be2c89b69c2b068fc378daa952ba7f163c4a11628f55a4df523b3ef84604051611ace919061234b565b60405180910390a350505050565b5f73ffffffffffffffffffffffffffffffffffffffff168173ffffffffffffffffffffffffffffffffffffffff1603611b13575f5ffd5b805f60026101000a81548173ffffffffffffffffffffffffffffffffffffffff021916908373ffffffffffffffffffffffffffffffffffffffff16021790555050565b5f73ffffffffffffffffffffffffffffffffffffffff168373ffffffffffffffffffffffffffffffffffffffff1603611bc4576040517f08c379a0000000000000000000000000000000000000000000000000000000008152600401611bbb9061304d565b60405180910390fd5b611bd0828260066122a4565b8260075f6101000a81548173ffffffffffffffffffffffffffffffffffffffff021916908373ffffffffffffffffffffffffffffffffffffffff160217905550505050565b5f5f8311611c58576040517f08c379a0000000000000000000000000000000000000000000000000000000008152600401611c4f90612eb9565b60405180910390fd5b611c61836115f4565b90505f8111611ca5576040517f08c379a0000000000000000000000000000000000000000000000000000000008152600401611c9c90612e51565b60405180910390fd5b60075f9054906101000a900473ffffffffffffffffffffffffffffffffffffffff1673ffffffffffffffffffffffffffffffffffffffff166323b872dd3330866040518463ffffffff1660e01b8152600401611d0393929190612ed7565b6020604051808303815f875af1158015611d1f573d5f5f3e3d5ffd5b505050506040513d601f19601f82011682018060405250810190611d439190612ddc565b50611d4e8282611dbb565b8173ffffffffffffffffffffffffffffffffffffffff163373ffffffffffffffffffffffffffffffffffffffff167fdcbc1c05240f31ff3ad067ef1ee35ce4997762752e3a095284754544f4c709d78584604051611dad929190612f0c565b60405180910390a392915050565b5f73ffffffffffffffffffffffffffffffffffffffff168273ffffffffffffffffffffffffffffffffffffffff1603611e29576040517f08c379a0000000000000000000000000000000000000000000000000000000008152600401611e2090612f7d565b60405180910390fd5b8060045f828254611e3a91906128b6565b925050819055508060055f8473ffffffffffffffffffffffffffffffffffffffff1673ffffffffffffffffffffffffffffffffffffffff1681526020019081526020015f205f828254611e8d91906128b6565b925050819055508173ffffffffffffffffffffffffffffffffffffffff165f73ffffffffffffffffffffffffffffffffffffffff167fddf252ad1be2c89b69c2b068fc378daa952ba7f163c4a11628f55a4df523b3ef83604051611ef1919061234b565b60405180910390a35050565b5f5f8411611f40576040517f08c379a0000000000000000000000000000000000000000000000000000000008152600401611f3790612eb9565b60405180910390fd5b611f49846115f4565b905083611f558261088a565b1015611f6b57600181611f6891906128b6565b90505b3373ffffffffffffffffffffffffffffffffffffffff168273ffffffffffffffffffffffffffffffffffffffff161461202e575f611fa9833361177f565b905081811015611fee576040517f08c379a0000000000000000000000000000000000000000000000000000000008152600401611fe590612a2e565b60405180910390fd5b7fffffffffffffffffffffffffffffffffffffffffffffffffffffffffffffffff811461202c5761202b833384846120269190612a4c565b611801565b5b505b612038828261215a565b60075f9054906101000a900473ffffffffffffffffffffffffffffffffffffffff1673ffffffffffffffffffffffffffffffffffffffff1663a9059cbb84866040518363ffffffff1660e01b8152600401612094929190612d8b565b6020604051808303815f875af11580156120b0573d5f5f3e3d5ffd5b505050506040513d601f19601f820116820180604052508101906120d49190612ddc565b508173ffffffffffffffffffffffffffffffffffffffff168373ffffffffffffffffffffffffffffffffffffffff163373ffffffffffffffffffffffffffffffffffffffff167ffbde797d201c681b91056529119e0b02407c7bb96a4a2c75c01fc9667232c8db878560405161214b929190612f0c565b60405180910390a49392505050565b5f60055f8473ffffffffffffffffffffffffffffffffffffffff1673ffffffffffffffffffffffffffffffffffffffff1681526020019081526020015f20549050818110156121de576040517f08c379a00000000000000000000000000000000000000000000000000000000081526004016121d590612fe5565b60405180910390fd5b81810360055f8573ffffffffffffffffffffffffffffffffffffffff1673ffffffffffffffffffffffffffffffffffffffff1681526020019081526020015f20819055508160045f8282546122339190612a4c565b925050819055505f73ffffffffffffffffffffffffffffffffffffffff168373ffffffffffffffffffffffffffffffffffffffff167fddf252ad1be2c89b69c2b068fc378daa952ba7f163c4a11628f55a4df523b3ef84604051612297919061234b565b60405180910390a3505050565b5f600180546122b290612916565b9050146122f4576040517f08c379a00000000000000000000000000000000000000000000000000000000081526004016122eb90612ac9565b60405180910390fd5b8260019081612303919061306b565b508160029081612313919061306b565b508060035f6101000a81548160ff021916908360ff160217905550505050565b5f819050919050565b61234581612333565b82525050565b5f60208201905061235e5f83018461233c565b92915050565b5f81519050919050565b5f82825260208201905092915050565b8281835e5f83830152505050565b5f601f19601f8301169050919050565b5f6123a682612364565b6123b0818561236e565b93506123c081856020860161237e565b6123c98161238c565b840191505092915050565b5f6020820190508181035f8301526123ec818461239c565b905092915050565b5f5ffd5b5f5ffd5b61240581612333565b811461240f575f5ffd5b50565b5f81359050612420816123fc565b92915050565b5f6020828403121561243b5761243a6123f4565b5b5f61244884828501612412565b91505092915050565b5f73ffffffffffffffffffffffffffffffffffffffff82169050919050565b5f61247a82612451565b9050919050565b61248a81612470565b8114612494575f5ffd5b50565b5f813590506124a581612481565b92915050565b5f5f604083850312156124c1576124c06123f4565b5b5f6124ce85828601612497565b92505060206124df85828601612412565b9150509250929050565b5f8115159050919050565b6124fd816124e9565b82525050565b5f6020820190506125165f8301846124f4565b92915050565b5f5f5f60608486031215612533576125326123f4565b5b5f61254086828701612497565b935050602061255186828701612497565b925050604061256286828701612412565b9150509250925092565b5f60ff82169050919050565b6125818161256c565b82525050565b5f60208201905061259a5f830184612578565b92915050565b6125a981612470565b82525050565b5f6020820190506125c25f8301846125a0565b92915050565b5f5ffd5b5f5ffd5b5f5ffd5b5f5f83601f8401126125e9576125e86125c8565b5b8235905067ffffffffffffffff811115612606576126056125cc565b5b602083019150836001820283011115612622576126216125d0565b5b9250929050565b5f5f5f5f5f5f5f5f5f5f60e08b8d031215612647576126466123f4565b5b5f6126548d828e01612497565b9a505060206126658d828e01612497565b99505060408b013567ffffffffffffffff811115612686576126856123f8565b5b6126928d828e016125d4565b985098505060608b013567ffffffffffffffff8111156126b5576126b46123f8565b5b6126c18d828e016125d4565b965096505060808b013567ffffffffffffffff8111156126e4576126e36123f8565b5b6126f08d828e016125d4565b945094505060a06127038d828e01612412565b92505060c06127148d828e01612412565b9150509295989b9194979a5092959850565b5f5f6040838503121561273c5761273b6123f4565b5b5f61274985828601612412565b925050602061275a85828601612497565b9150509250929050565b5f60208284031215612779576127786123f4565b5b5f61278684828501612497565b91505092915050565b5f5f5f606084860312156127a6576127a56123f4565b5b5f6127b386828701612412565b93505060206127c486828701612497565b92505060406127d586828701612497565b9150509250925092565b5f5f604083850312156127f5576127f46123f4565b5b5f61280285828601612497565b925050602061281385828601612497565b9150509250929050565b5f8151905061282b816123fc565b92915050565b5f60208284031215612846576128456123f4565b5b5f6128538482850161281d565b91505092915050565b7f4e487b71000000000000000000000000000000000000000000000000000000005f52603260045260245ffd5b7f4e487b71000000000000000000000000000000000000000000000000000000005f52601160045260245ffd5b5f6128c082612333565b91506128cb83612333565b92508282019050808211156128e3576128e2612889565b5b92915050565b7f4e487b71000000000000000000000000000000000000000000000000000000005f52602260045260245ffd5b5f600282049050600182168061292d57607f821691505b6020821081036129405761293f6128e9565b5b50919050565b5f61295082612333565b915061295b83612333565b925082820261296981612333565b915082820484148315176129805761297f612889565b5b5092915050565b7f4e487b71000000000000000000000000000000000000000000000000000000005f52601260045260245ffd5b5f6129be82612333565b91506129c983612333565b9250826129d9576129d8612987565b5b828204905092915050565b7f494e53554646494349454e545f414c4c4f57414e4345000000000000000000005f82015250565b5f612a1860168361236e565b9150612a23826129e4565b602082019050919050565b5f6020820190508181035f830152612a4581612a0c565b9050919050565b5f612a5682612333565b9150612a6183612333565b9250828203905081811115612a7957612a78612889565b5b92915050565b7f414c52454144595f494e495449414c495a4544000000000000000000000000005f82015250565b5f612ab360138361236e565b9150612abe82612a7f565b602082019050919050565b5f6020820190508181035f830152612ae081612aa7565b9050919050565b5f82905092915050565b7f4e487b71000000000000000000000000000000000000000000000000000000005f52604160045260245ffd5b5f819050815f5260205f209050919050565b5f6020601f8301049050919050565b5f82821b905092915050565b5f60088302612b7a7fffffffffffffffffffffffffffffffffffffffffffffffffffffffffffffffff82612b3f565b612b848683612b3f565b95508019841693508086168417925050509392505050565b5f819050919050565b5f612bbf612bba612bb584612333565b612b9c565b612333565b9050919050565b5f819050919050565b612bd883612ba5565b612bec612be482612bc6565b848454612b4b565b825550505050565b5f5f905090565b612c03612bf4565b612c0e818484612bcf565b505050565b5b81811015612c3157612c265f82612bfb565b600181019050612c14565b5050565b601f821115612c7657612c4781612b1e565b612c5084612b30565b81016020851015612c5f578190505b612c73612c6b85612b30565b830182612c13565b50505b505050565b5f82821c905092915050565b5f612c965f1984600802612c7b565b1980831691505092915050565b5f612cae8383612c87565b9150826002028217905092915050565b612cc88383612ae7565b67ffffffffffffffff811115612ce157612ce0612af1565b5b612ceb8254612916565b612cf6828285612c35565b5f601f831160018114612d23575f8415612d11578287013590505b612d1b8582612ca3565b865550612d82565b601f198416612d3186612b1e565b5f5b82811015612d5857848901358255600182019150602085019450602081019050612d33565b86831015612d755784890135612d71601f891682612c87565b8355505b6001600288020188555050505b50505050505050565b5f604082019050612d9e5f8301856125a0565b612dab602083018461233c565b9392505050565b612dbb816124e9565b8114612dc5575f5ffd5b50565b5f81519050612dd681612db2565b92915050565b5f60208284031215612df157612df06123f4565b5b5f612dfe84828501612dc8565b91505092915050565b7f5a45524f5f5348415245530000000000000000000000000000000000000000005f82015250565b5f612e3b600b8361236e565b9150612e4682612e07565b602082019050919050565b5f6020820190508181035f830152612e6881612e2f565b9050919050565b7f5a45524f5f4153534554530000000000000000000000000000000000000000005f82015250565b5f612ea3600b8361236e565b9150612eae82612e6f565b602082019050919050565b5f6020820190508181035f830152612ed081612e97565b9050919050565b5f606082019050612eea5f8301866125a0565b612ef760208301856125a0565b612f04604083018461233c565b949350505050565b5f604082019050612f1f5f83018561233c565b612f2c602083018461233c565b9392505050565b7f5a45524f5f544f000000000000000000000000000000000000000000000000005f82015250565b5f612f6760078361236e565b9150612f7282612f33565b602082019050919050565b5f6020820190508181035f830152612f9481612f5b565b9050919050565b7f494e53554646494349454e545f42414c414e43450000000000000000000000005f82015250565b5f612fcf60148361236e565b9150612fda82612f9b565b602082019050919050565b5f6020820190508181035f830152612ffc81612fc3565b9050919050565b7f5a45524f5f4153534554000000000000000000000000000000000000000000005f82015250565b5f613037600a8361236e565b915061304282613003565b602082019050919050565b5f6020820190508181035f8301526130648161302b565b9050919050565b61307482612364565b67ffffffffffffffff81111561308d5761308c612af1565b5b6130978254612916565b6130a2828285612c35565b5f60209050601f8311600181146130d3575f84156130c1578287015190505b6130cb8582612ca3565b865550613132565b601f1984166130e186612b1e565b5f5b82811015613108578489015182556001820191506020850194506020810190506130e3565b868310156131255784890151613121601f891682612c87565b8355505b6001600288020188555050505b50505050505056fea264697066735822122086424f4515cb1da6294599560c1670880e0296cdcf3c96655ce6ec0db428900d64736f6c634300081e0033",
					"opcodes": "PUSH1 0x80 PUSH1 0x40 MSTORE CALLVALUE DUP1 ISZERO PUSH1 0xE JUMPI PUSH0 PUSH0 REVERT JUMPDEST POP PUSH2 0x3170 DUP1 PUSH2 0x1C PUSH0 CODECOPY PUSH0 RETURN INVALID PUSH1 0x80 PUSH1 0x40 MSTORE CALLVALUE DUP1 ISZERO PUSH2 0xF JUMPI PUSH0 PUSH0 REVERT JUMPDEST POP PUSH1 0x4 CALLDATASIZE LT PUSH2 0x1CD JUMPI PUSH0 CALLDATALOAD PUSH1 0xE0 SHR DUP1 PUSH4 0x6EC934DA GT PUSH2 0x102 JUMPI DUP1 PUSH4 0xA9059CBB GT PUSH2 0xA0 JUMPI DUP1 PUSH4 0xC30E9811 GT PUSH2 0x6F JUMPI DUP1 PUSH4 0xC30E9811 EQ PUSH2 0x57F JUMPI DUP1 PUSH4 0xC6E6F592 EQ PUSH2 0x59B JUMPI DUP1 PUSH4 0xD3A417A2 EQ PUSH2 0x5CB JUMPI DUP1 PUSH4 0xDD62ED3E EQ PUSH2 0x5E7 JUMPI PUSH2 0x1CD JUMP JUMPDEST DUP1 PUSH4 0xA9059CBB EQ PUSH2 0x4BF JUMPI DUP1 PUSH4 0xB1283E77 EQ PUSH2 0x4EF JUMPI DUP1 PUSH4 0xB460AF94 EQ PUSH2 0x51F JUMPI DUP1 PUSH4 0xBA087652 EQ PUSH2 0x54F JUMPI PUSH2 0x1CD JUMP JUMPDEST DUP1 PUSH4 0x92F6B31C GT PUSH2 0xDC JUMPI DUP1 PUSH4 0x92F6B31C EQ PUSH2 0x437 JUMPI DUP1 PUSH4 0x93E30633 EQ PUSH2 0x455 JUMPI DUP1 PUSH4 0x94BF804D EQ PUSH2 0x471 JUMPI DUP1 PUSH4 0x95D89B41 EQ PUSH2 0x4A1 JUMPI PUSH2 0x1CD JUMP JUMPDEST DUP1 PUSH4 0x6EC934DA EQ PUSH2 0x3B9 JUMPI DUP1 PUSH4 0x70A08231 EQ PUSH2 0x3E9 JUMPI DUP1 PUSH4 0x8DA5CB5B EQ PUSH2 0x419 JUMPI PUSH2 0x1CD JUMP JUMPDEST DUP1 PUSH4 0x38D52E0F GT PUSH2 0x16F JUMPI DUP1 PUSH4 0x41B3D185 GT PUSH2 0x149 JUMPI DUP1 PUSH4 0x41B3D185 EQ PUSH2 0x331 JUMPI DUP1 PUSH4 0x4A79D50C EQ PUSH2 0x34F JUMPI DUP1 PUSH4 0x66ADF46A EQ PUSH2 0x36D JUMPI DUP1 PUSH4 0x6E553F65 EQ PUSH2 0x389 JUMPI PUSH2 0x1CD JUMP JUMPDEST DUP1 PUSH4 0x38D52E0F EQ PUSH2 0x2D9 JUMPI DUP1 PUSH4 0x3BCFC4B8 EQ PUSH2 0x2F7 JUMPI DUP1 PUSH4 0x3DCE8B38 EQ PUSH2 0x315 JUMPI PUSH2 0x1CD JUMP JUMPDEST DUP1 PUSH4 0x95EA7B3 GT PUSH2 0x1AB JUMPI DUP1 PUSH4 0x95EA7B3 EQ PUSH2 0x23D JUMPI DUP1 PUSH4 0x18160DDD EQ PUSH2 0x26D JUMPI DUP1 PUSH4 0x23B872DD EQ PUSH2 0x28B JUMPI DUP1 PUSH4 0x313CE567 EQ PUSH2 0x2BB JUMPI PUSH2 0x1CD JUMP JUMPDEST DUP1 PUSH4 0x1E1D114 EQ PUSH2 0x1D1 JUMPI DUP1 PUSH4 0x6FDDE03 EQ PUSH2 0x1EF JUMPI DUP1 PUSH4 0x7A2D13A EQ PUSH2 0x20D JUMPI JUMPDEST PUSH0 PUSH0 REVERT JUMPDEST PUSH2 0x1D9 PUSH2 0x617 JUMP JUMPDEST PUSH1 0x40 MLOAD PUSH2 0x1E6 SWAP2 SWAP1 PUSH2 0x234B JUMP JUMPDEST PUSH1 0x40 MLOAD DUP1 SWAP2 SUB SWAP1 RETURN JUMPDEST PUSH2 0x1F7 PUSH2 0x7FA JUMP JUMPDEST PUSH1 0x40 MLOAD PUSH2 0x204 SWAP2 SWAP1 PUSH2 0x23D4 JUMP JUMPDEST PUSH1 0x40 MLOAD DUP1 SWAP2 SUB SWAP1 RETURN JUMPDEST PUSH2 0x227 PUSH1 0x4 DUP1 CALLDATASIZE SUB DUP2 ADD SWAP1 PUSH2 0x222 SWAP2 SWAP1 PUSH2 0x2426 JUMP JUMPDEST PUSH2 0x88A JUMP JUMPDEST PUSH1 0x40 MLOAD PUSH2 0x234 SWAP2 SWAP1 PUSH2 0x234B JUMP JUMPDEST PUSH1 0x40 MLOAD DUP1 SWAP2 SUB SWAP1 RETURN JUMPDEST PUSH2 0x257 PUSH1 0x4 DUP1 CALLDATASIZE SUB DUP2 ADD SWAP1 PUSH2 0x252 SWAP2 SWAP1 PUSH2 0x24AB JUMP JUMPDEST PUSH2 0x943 JUMP JUMPDEST PUSH1 0x40 MLOAD PUSH2 0x264 SWAP2 SWAP1 PUSH2 0x2503 JUMP JUMPDEST PUSH1 0x40 MLOAD DUP1 SWAP2 SUB SWAP1 RETURN JUMPDEST PUSH2 0x275 PUSH2 0x959 JUMP JUMPDEST PUSH1 0x40 MLOAD PUSH2 0x282 SWAP2 SWAP1 PUSH2 0x234B JUMP JUMPDEST PUSH1 0x40 MLOAD DUP1 SWAP2 SUB SWAP1 RETURN JUMPDEST PUSH2 0x2A5 PUSH1 0x4 DUP1 CALLDATASIZE SUB DUP2 ADD SWAP1 PUSH2 0x2A0 SWAP2 SWAP1 PUSH2 0x251C JUMP JUMPDEST PUSH2 0x962 JUMP JUMPDEST PUSH1 0x40 MLOAD PUSH2 0x2B2 SWAP2 SWAP1 PUSH2 0x2503 JUMP JUMPDEST PUSH1 0x40 MLOAD DUP1 SWAP2 SUB SWAP1 RETURN JUMPDEST PUSH2 0x2C3 PUSH2 0xA77 JUMP JUMPDEST PUSH1 0x40 MLOAD PUSH2 0x2D0 SWAP2 SWAP1 PUSH2 0x2587 JUMP JUMPDEST PUSH1 0x40 MLOAD DUP1 SWAP2 SUB SWAP1 RETURN JUMPDEST PUSH2 0x2E1 PUSH2 0xA8C JUMP JUMPDEST PUSH1 0x40 MLOAD PUSH2 0x2EE SWAP2 SWAP1 PUSH2 0x25AF JUMP JUMPDEST PUSH1 0x40 MLOAD DUP1 SWAP2 SUB SWAP1 RETURN JUMPDEST PUSH2 0x2FF PUSH2 0xAB4 JUMP JUMPDEST PUSH1 0x40 MLOAD PUSH2 0x30C SWAP2 SWAP1 PUSH2 0x234B JUMP JUMPDEST PUSH1 0x40 MLOAD DUP1 SWAP2 SUB SWAP1 RETURN JUMPDEST PUSH2 0x32F PUSH1 0x4 DUP1 CALLDATASIZE SUB DUP2 ADD SWAP1 PUSH2 0x32A SWAP2 SWAP1 PUSH2 0x2629 JUMP JUMPDEST PUSH2 0xABA JUMP JUMPDEST STOP JUMPDEST PUSH2 0x339 PUSH2 0xC52 JUMP JUMPDEST PUSH1 0x40 MLOAD PUSH2 0x346 SWAP2 SWAP1 PUSH2 0x234B JUMP JUMPDEST PUSH1 0x40 MLOAD DUP1 SWAP2 SUB SWAP1 RETURN JUMPDEST PUSH2 0x357 PUSH2 0xC58 JUMP JUMPDEST PUSH1 0x40 MLOAD PUSH2 0x364 SWAP2 SWAP1 PUSH2 0x23D4 JUMP JUMPDEST PUSH1 0x40 MLOAD DUP1 SWAP2 SUB SWAP1 RETURN JUMPDEST PUSH2 0x387 PUSH1 0x4 DUP1 CALLDATASIZE SUB DUP2 ADD SWAP1 PUSH2 0x382 SWAP2 SWAP1 PUSH2 0x24AB JUMP JUMPDEST PUSH2 0xCE4 JUMP JUMPDEST STOP JUMPDEST PUSH2 0x3A3 PUSH1 0x4 DUP1 CALLDATASIZE SUB DUP2 ADD SWAP1 PUSH2 0x39E SWAP2 SWAP1 PUSH2 0x2726 JUMP JUMPDEST PUSH2 0xE29 JUMP JUMPDEST PUSH1 0x40 MLOAD PUSH2 0x3B0 SWAP2 SWAP1 PUSH2 0x234B JUMP JUMPDEST PUSH1 0x40 MLOAD DUP1 SWAP2 SUB SWAP1 RETURN JUMPDEST PUSH2 0x3D3 PUSH1 0x4 DUP1 CALLDATASIZE SUB DUP2 ADD SWAP1 PUSH2 0x3CE SWAP2 SWAP1 PUSH2 0x2764 JUMP JUMPDEST PUSH2 0xE3C JUMP JUMPDEST PUSH1 0x40 MLOAD PUSH2 0x3E0 SWAP2 SWAP1 PUSH2 0x2503 JUMP JUMPDEST PUSH1 0x40 MLOAD DUP1 SWAP2 SUB SWAP1 RETURN JUMPDEST PUSH2 0x403 PUSH1 0x4 DUP1 CALLDATASIZE SUB DUP2 ADD SWAP1 PUSH2 0x3FE SWAP2 SWAP1 PUSH2 0x2764 JUMP JUMPDEST PUSH2 0xE59 JUMP JUMPDEST PUSH1 0x40 MLOAD PUSH2 0x410 SWAP2 SWAP1 PUSH2 0x234B JUMP JUMPDEST PUSH1 0x40 MLOAD DUP1 SWAP2 SUB SWAP1 RETURN JUMPDEST PUSH2 0x421 PUSH2 0xE9F JUMP JUMPDEST PUSH1 0x40 MLOAD PUSH2 0x42E SWAP2 SWAP1 PUSH2 0x25AF JUMP JUMPDEST PUSH1 0x40 MLOAD DUP1 SWAP2 SUB SWAP1 RETURN JUMPDEST PUSH2 0x43F PUSH2 0xEC4 JUMP JUMPDEST PUSH1 0x40 MLOAD PUSH2 0x44C SWAP2 SWAP1 PUSH2 0x234B JUMP JUMPDEST PUSH1 0x40 MLOAD DUP1 SWAP2 SUB SWAP1 RETURN JUMPDEST PUSH2 0x46F PUSH1 0x4 DUP1 CALLDATASIZE SUB DUP2 ADD SWAP1 PUSH2 0x46A SWAP2 SWAP1 PUSH2 0x2764 JUMP JUMPDEST PUSH2 0xF49 JUMP JUMPDEST STOP JUMPDEST PUSH2 0x48B PUSH1 0x4 DUP1 CALLDATASIZE SUB DUP2 ADD SWAP1 PUSH2 0x486 SWAP2 SWAP1 PUSH2 0x2726 JUMP JUMPDEST PUSH2 0x1059 JUMP JUMPDEST PUSH1 0x40 MLOAD PUSH2 0x498 SWAP2 SWAP1 PUSH2 0x234B JUMP JUMPDEST PUSH1 0x40 MLOAD DUP1 SWAP2 SUB SWAP1 RETURN JUMPDEST PUSH2 0x4A9 PUSH2 0x11FF JUMP JUMPDEST PUSH1 0x40 MLOAD PUSH2 0x4B6 SWAP2 SWAP1 PUSH2 0x23D4 JUMP JUMPDEST PUSH1 0x40 MLOAD DUP1 SWAP2 SUB SWAP1 RETURN JUMPDEST PUSH2 0x4D9 PUSH1 0x4 DUP1 CALLDATASIZE SUB DUP2 ADD SWAP1 PUSH2 0x4D4 SWAP2 SWAP1 PUSH2 0x24AB JUMP JUMPDEST PUSH2 0x128F JUMP JUMPDEST PUSH1 0x40 MLOAD PUSH2 0x4E6 SWAP2 SWAP1 PUSH2 0x2503 JUMP JUMPDEST PUSH1 0x40 MLOAD DUP1 SWAP2 SUB SWAP1 RETURN JUMPDEST PUSH2 0x509 PUSH1 0x4 DUP1 CALLDATASIZE SUB DUP2 ADD SWAP1 PUSH2 0x504 SWAP2 SWAP1 PUSH2 0x2426 JUMP JUMPDEST PUSH2 0x12A5 JUMP JUMPDEST PUSH1 0x40 MLOAD PUSH2 0x516 SWAP2 SWAP1 PUSH2 0x25AF JUMP JUMPDEST PUSH1 0x40 MLOAD DUP1 SWAP2 SUB SWAP1 RETURN JUMPDEST PUSH2 0x539 PUSH1 0x4 DUP1 CALLDATASIZE SUB DUP2 ADD SWAP1 PUSH2 0x534 SWAP2 SWAP1 PUSH2 0x278F JUMP JUMPDEST PUSH2 0x12E0 JUMP JUMPDEST PUSH1 0x40 MLOAD PUSH2 0x546 SWAP2 SWAP1 PUSH2 0x234B JUMP JUMPDEST PUSH1 0x40 MLOAD DUP1 SWAP2 SUB SWAP1 RETURN JUMPDEST PUSH2 0x569 PUSH1 0x4 DUP1 CALLDATASIZE SUB DUP2 ADD SWAP1 PUSH2 0x564 SWAP2 SWAP1 PUSH2 0x278F JUMP JUMPDEST PUSH2 0x12F5 JUMP JUMPDEST PUSH1 0x40 MLOAD PUSH2 0x576 SWAP2 SWAP1 PUSH2 0x234B JUMP JUMPDEST PUSH1 0x40 MLOAD DUP1 SWAP2 SUB SWAP1 RETURN JUMPDEST PUSH2 0x599 PUSH1 0x4 DUP1 CALLDATASIZE SUB DUP2 ADD SWAP1 PUSH2 0x594 SWAP2 SWAP1 PUSH2 0x24AB JUMP JUMPDEST PUSH2 0x1532 JUMP JUMPDEST STOP JUMPDEST PUSH2 0x5B5 PUSH1 0x4 DUP1 CALLDATASIZE SUB DUP2 ADD SWAP1 PUSH2 0x5B0 SWAP2 SWAP1 PUSH2 0x2426 JUMP JUMPDEST PUSH2 0x15F4 JUMP JUMPDEST PUSH1 0x40 MLOAD PUSH2 0x5C2 SWAP2 SWAP1 PUSH2 0x234B JUMP JUMPDEST PUSH1 0x40 MLOAD DUP1 SWAP2 SUB SWAP1 RETURN JUMPDEST PUSH2 0x5E5 PUSH1 0x4 DUP1 CALLDATASIZE SUB DUP2 ADD SWAP1 PUSH2 0x5E0 SWAP2 SWAP1 PUSH2 0x2764 JUMP JUMPDEST PUSH2 0x16AD JUMP JUMPDEST STOP JUMPDEST PUSH2 0x601 PUSH1 0x4 DUP1 CALLDATASIZE SUB DUP2 ADD SWAP1 PUSH2 0x5FC SWAP2 SWAP1 PUSH2 0x27DF JUMP JUMPDEST PUSH2 0x177F JUMP JUMPDEST PUSH1 0x40 MLOAD PUSH2 0x60E SWAP2 SWAP1 PUSH2 0x234B JUMP JUMPDEST PUSH1 0x40 MLOAD DUP1 SWAP2 SUB SWAP1 RETURN JUMPDEST PUSH0 PUSH2 0x620 PUSH2 0xA8C JUMP JUMPDEST PUSH20 0xFFFFFFFFFFFFFFFFFFFFFFFFFFFFFFFFFFFFFFFF AND PUSH4 0x70A08231 ADDRESS PUSH1 0x40 MLOAD DUP3 PUSH4 0xFFFFFFFF AND PUSH1 0xE0 SHL DUP2 MSTORE PUSH1 0x4 ADD PUSH2 0x658 SWAP2 SWAP1 PUSH2 0x25AF JUMP JUMPDEST PUSH1 0x20 PUSH1 0x40 MLOAD DUP1 DUP4 SUB DUP2 DUP7 GAS STATICCALL ISZERO DUP1 ISZERO PUSH2 0x673 JUMPI RETURNDATASIZE PUSH0 PUSH0 RETURNDATACOPY RETURNDATASIZE PUSH0 REVERT JUMPDEST POP POP POP POP PUSH1 0x40 MLOAD RETURNDATASIZE PUSH1 0x1F NOT PUSH1 0x1F DUP3 ADD AND DUP3 ADD DUP1 PUSH1 0x40 MSTORE POP DUP2 ADD SWAP1 PUSH2 0x697 SWAP2 SWAP1 PUSH2 0x2831 JUMP JUMPDEST SWAP1 POP PUSH0 PUSH0 SWAP1 POP JUMPDEST PUSH1 0xB DUP1 SLOAD SWAP1 POP DUP2 LT ISZERO PUSH2 0x7F6 JUMPI PUSH1 0xC PUSH0 PUSH1 0xB DUP4 DUP2 SLOAD DUP2 LT PUSH2 0x6C2 JUMPI PUSH2 0x6C1 PUSH2 0x285C JUMP JUMPDEST JUMPDEST SWAP1 PUSH0 MSTORE PUSH1 0x20 PUSH0 KECCAK256 ADD PUSH0 SWAP1 SLOAD SWAP1 PUSH2 0x100 EXP SWAP1 DIV PUSH20 0xFFFFFFFFFFFFFFFFFFFFFFFFFFFFFFFFFFFFFFFF AND PUSH20 0xFFFFFFFFFFFFFFFFFFFFFFFFFFFFFFFFFFFFFFFF AND PUSH20 0xFFFFFFFFFFFFFFFFFFFFFFFFFFFFFFFFFFFFFFFF AND DUP2 MSTORE PUSH1 0x20 ADD SWAP1 DUP2 MSTORE PUSH1 0x20 ADD PUSH0 KECCAK256 PUSH0 SWAP1 SLOAD SWAP1 PUSH2 0x100 EXP SWAP1 DIV PUSH1 0xFF AND ISZERO PUSH2 0x7EB JUMPI PUSH1 0xB DUP2 DUP2 SLOAD DUP2 LT PUSH2 0x749 JUMPI PUSH2 0x748 PUSH2 0x285C JUMP JUMPDEST JUMPDEST SWAP1 PUSH0 MSTORE PUSH1 0x20 PUSH0 KECCAK256 ADD PUSH0 SWAP1 SLOAD SWAP1 PUSH2 0x100 EXP SWAP1 DIV PUSH20 0xFFFFFFFFFFFFFFFFFFFFFFFFFFFFFFFFFFFFFFFF AND PUSH20 0xFFFFFFFFFFFFFFFFFFFFFFFFFFFFFFFFFFFFFFFF AND PUSH4 0xC82F6D2F PUSH1 0x40 MLOAD DUP2 PUSH4 0xFFFFFFFF AND PUSH1 0xE0 SHL DUP2 MSTORE PUSH1 0x4 ADD PUSH1 0x20 PUSH1 0x40 MLOAD DUP1 DUP4 SUB DUP2 DUP7 GAS STATICCALL ISZERO DUP1 ISZERO PUSH2 0x7B9 JUMPI RETURNDATASIZE PUSH0 PUSH0 RETURNDATACOPY RETURNDATASIZE PUSH0 REVERT JUMPDEST POP POP POP POP PUSH1 0x40 MLOAD RETURNDATASIZE PUSH1 0x1F NOT PUSH1 0x1F DUP3 ADD AND DUP3 ADD DUP1 PUSH1 0x40 MSTORE POP DUP2 ADD SWAP1 PUSH2 0x7DD SWAP2 SWAP1 PUSH2 0x2831 JUMP JUMPDEST DUP3 PUSH2 0x7E8 SWAP2 SWAP1 PUSH2 0x28B6 JUMP JUMPDEST SWAP2 POP JUMPDEST DUP1 PUSH1 0x1 ADD SWAP1 POP PUSH2 0x69E JUMP JUMPDEST POP SWAP1 JUMP JUMPDEST PUSH1 0x60 PUSH1 0x1 DUP1 SLOAD PUSH2 0x809 SWAP1 PUSH2 0x2916 JUMP JUMPDEST DUP1 PUSH1 0x1F ADD PUSH1 0x20 DUP1 SWAP2 DIV MUL PUSH1 0x20 ADD PUSH1 0x40 MLOAD SWAP1 DUP2 ADD PUSH1 0x40 MSTORE DUP1 SWAP3 SWAP2 SWAP1 DUP2 DUP2 MSTORE PUSH1 0x20 ADD DUP3 DUP1 SLOAD PUSH2 0x835 SWAP1 PUSH2 0x2916 JUMP JUMPDEST DUP1 ISZERO PUSH2 0x880 JUMPI DUP1 PUSH1 0x1F LT PUSH2 0x857 JUMPI PUSH2 0x100 DUP1 DUP4 SLOAD DIV MUL DUP4 MSTORE SWAP2 PUSH1 0x20 ADD SWAP2 PUSH2 0x880 JUMP JUMPDEST DUP3 ADD SWAP2 SWAP1 PUSH0 MSTORE PUSH1 0x20 PUSH0 KECCAK256 SWAP1 JUMPDEST DUP2 SLOAD DUP2 MSTORE SWAP1 PUSH1 0x1 ADD SWAP1 PUSH1 0x20 ADD DUP1 DUP4 GT PUSH2 0x863 JUMPI DUP3 SWAP1 SUB PUSH1 0x1F AND DUP3 ADD SWAP2 JUMPDEST POP POP POP POP POP SWAP1 POP SWAP1 JUMP JUMPDEST PUSH0 PUSH0 ADDRESS PUSH20 0xFFFFFFFFFFFFFFFFFFFFFFFFFFFFFFFFFFFFFFFF AND PUSH4 0x18160DDD PUSH1 0x40 MLOAD DUP2 PUSH4 0xFFFFFFFF AND PUSH1 0xE0 SHL DUP2 MSTORE PUSH1 0x4 ADD PUSH1 0x20 PUSH1 0x40 MLOAD DUP1 DUP4 SUB DUP2 DUP7 GAS STATICCALL ISZERO DUP1 ISZERO PUSH2 0x8D5 JUMPI RETURNDATASIZE PUSH0 PUSH0 RETURNDATACOPY RETURNDATASIZE PUSH0 REVERT JUMPDEST POP POP POP POP PUSH1 0x40 MLOAD RETURNDATASIZE PUSH1 0x1F NOT PUSH1 0x1F DUP3 ADD AND DUP3 ADD DUP1 PUSH1 0x40 MSTORE POP DUP2 ADD SWAP1 PUSH2 0x8F9 SWAP2 SWAP1 PUSH2 0x2831 JUMP JUMPDEST SWAP1 POP PUSH0 PUSH2 0x904 PUSH2 0x617 JUMP JUMPDEST SWAP1 POP PUSH0 DUP3 EQ DUP1 PUSH2 0x913 JUMPI POP PUSH0 DUP2 EQ JUMPDEST ISZERO PUSH2 0x922 JUMPI DUP4 SWAP3 POP POP POP PUSH2 0x93E JUMP JUMPDEST DUP2 DUP2 DUP6 PUSH2 0x92F SWAP2 SWAP1 PUSH2 0x2946 JUMP JUMPDEST PUSH2 0x939 SWAP2 SWAP1 PUSH2 0x29B4 JUMP JUMPDEST SWAP3 POP POP POP JUMPDEST SWAP2 SWAP1 POP JUMP JUMPDEST PUSH0 PUSH2 0x94F CALLER DUP5 DUP5 PUSH2 0x1801 JUMP JUMPDEST PUSH1 0x1 SWAP1 POP SWAP3 SWAP2 POP POP JUMP JUMPDEST PUSH0 PUSH1 0x4 SLOAD SWAP1 POP SWAP1 JUMP JUMPDEST PUSH0 PUSH0 PUSH1 0x6 PUSH0 DUP7 PUSH20 0xFFFFFFFFFFFFFFFFFFFFFFFFFFFFFFFFFFFFFFFF AND PUSH20 0xFFFFFFFFFFFFFFFFFFFFFFFFFFFFFFFFFFFFFFFF AND DUP2 MSTORE PUSH1 0x20 ADD SWAP1 DUP2 MSTORE PUSH1 0x20 ADD PUSH0 KECCAK256 PUSH0 CALLER PUSH20 0xFFFFFFFFFFFFFFFFFFFFFFFFFFFFFFFFFFFFFFFF AND PUSH20 0xFFFFFFFFFFFFFFFFFFFFFFFFFFFFFFFFFFFFFFFF AND DUP2 MSTORE PUSH1 0x20 ADD SWAP1 DUP2 MSTORE PUSH1 0x20 ADD PUSH0 KECCAK256 SLOAD SWAP1 POP PUSH32 0xFFFFFFFFFFFFFFFFFFFFFFFFFFFFFFFFFFFFFFFFFFFFFFFFFFFFFFFFFFFFFFFF DUP2 EQ PUSH2 0xA60 JUMPI DUP3 DUP2 LT ISZERO PUSH2 0xA49 JUMPI PUSH1 0x40 MLOAD PUSH32 0x8C379A000000000000000000000000000000000000000000000000000000000 DUP2 MSTORE PUSH1 0x4 ADD PUSH2 0xA40 SWAP1 PUSH2 0x2A2E JUMP JUMPDEST PUSH1 0x40 MLOAD DUP1 SWAP2 SUB SWAP1 REVERT JUMPDEST PUSH2 0xA5F DUP6 CALLER DUP6 DUP5 PUSH2 0xA5A SWAP2 SWAP1 PUSH2 0x2A4C JUMP JUMPDEST PUSH2 0x1801 JUMP JUMPDEST JUMPDEST PUSH2 0xA6B DUP6 DUP6 DUP6 PUSH2 0x18E8 JUMP JUMPDEST PUSH1 0x1 SWAP2 POP POP SWAP4 SWAP3 POP POP POP JUMP JUMPDEST PUSH0 PUSH1 0x3 PUSH0 SWAP1 SLOAD SWAP1 PUSH2 0x100 EXP SWAP1 DIV PUSH1 0xFF AND SWAP1 POP SWAP1 JUMP JUMPDEST PUSH0 PUSH1 0x7 PUSH0 SWAP1 SLOAD SWAP1 PUSH2 0x100 EXP SWAP1 DIV PUSH20 0xFFFFFFFFFFFFFFFFFFFFFFFFFFFFFFFFFFFFFFFF AND SWAP1 POP SWAP1 JUMP JUMPDEST PUSH1 0x9 SLOAD DUP2 JUMP JUMPDEST PUSH0 PUSH0 SWAP1 SLOAD SWAP1 PUSH2 0x100 EXP SWAP1 DIV PUSH1 0xFF AND ISZERO DUP1 PUSH2 0xADF JUMPI POP PUSH0 PUSH1 0x1 SWAP1 SLOAD SWAP1 PUSH2 0x100 EXP SWAP1 DIV PUSH1 0xFF AND JUMPDEST PUSH2 0xB1E JUMPI PUSH1 0x40 MLOAD PUSH32 0x8C379A000000000000000000000000000000000000000000000000000000000 DUP2 MSTORE PUSH1 0x4 ADD PUSH2 0xB15 SWAP1 PUSH2 0x2AC9 JUMP JUMPDEST PUSH1 0x40 MLOAD DUP1 SWAP2 SUB SWAP1 REVERT JUMPDEST PUSH0 PUSH0 PUSH1 0x1 SWAP1 SLOAD SWAP1 PUSH2 0x100 EXP SWAP1 DIV PUSH1 0xFF AND ISZERO SWAP1 POP DUP1 ISZERO PUSH2 0xB6B JUMPI PUSH1 0x1 PUSH0 PUSH1 0x1 PUSH2 0x100 EXP DUP2 SLOAD DUP2 PUSH1 0xFF MUL NOT AND SWAP1 DUP4 ISZERO ISZERO MUL OR SWAP1 SSTORE POP PUSH1 0x1 PUSH0 PUSH0 PUSH2 0x100 EXP DUP2 SLOAD DUP2 PUSH1 0xFF MUL NOT AND SWAP1 DUP4 ISZERO ISZERO MUL OR SWAP1 SSTORE POP JUMPDEST PUSH2 0xB74 DUP12 PUSH2 0x1ADC JUMP JUMPDEST PUSH2 0xC05 DUP11 DUP9 DUP9 DUP1 DUP1 PUSH1 0x1F ADD PUSH1 0x20 DUP1 SWAP2 DIV MUL PUSH1 0x20 ADD PUSH1 0x40 MLOAD SWAP1 DUP2 ADD PUSH1 0x40 MSTORE DUP1 SWAP4 SWAP3 SWAP2 SWAP1 DUP2 DUP2 MSTORE PUSH1 0x20 ADD DUP4 DUP4 DUP1 DUP3 DUP5 CALLDATACOPY PUSH0 DUP2 DUP5 ADD MSTORE PUSH1 0x1F NOT PUSH1 0x1F DUP3 ADD AND SWAP1 POP DUP1 DUP4 ADD SWAP3 POP POP POP POP POP POP POP DUP8 DUP8 DUP1 DUP1 PUSH1 0x1F ADD PUSH1 0x20 DUP1 SWAP2 DIV MUL PUSH1 0x20 ADD PUSH1 0x40 MLOAD SWAP1 DUP2 ADD PUSH1 0x40 MSTORE DUP1 SWAP4 SWAP3 SWAP2 SWAP1 DUP2 DUP2 MSTORE PUSH1 0x20 ADD DUP4 DUP4 DUP1 DUP3 DUP5 CALLDATACOPY PUSH0 DUP2 DUP5 ADD MSTORE PUSH1 0x1F NOT PUSH1 0x1F DUP3 ADD AND SWAP1 POP DUP1 DUP4 ADD SWAP3 POP POP POP POP POP POP POP PUSH2 0x1B56 JUMP JUMPDEST DUP9 DUP9 PUSH1 0x8 SWAP2 DUP3 PUSH2 0xC16 SWAP3 SWAP2 SWAP1 PUSH2 0x2CBE JUMP JUMPDEST POP DUP3 PUSH1 0x9 DUP2 SWAP1 SSTORE POP DUP2 PUSH1 0xA DUP2 SWAP1 SSTORE POP DUP1 ISZERO PUSH2 0xC45 JUMPI PUSH0 PUSH0 PUSH1 0x1 PUSH2 0x100 EXP DUP2 SLOAD DUP2 PUSH1 0xFF MUL NOT AND SWAP1 DUP4 ISZERO ISZERO MUL OR SWAP1 SSTORE POP JUMPDEST POP POP POP POP POP POP POP POP POP POP POP JUMP JUMPDEST PUSH1 0xA SLOAD DUP2 JUMP JUMPDEST PUSH1 0x8 DUP1 SLOAD PUSH2 0xC65 SWAP1 PUSH2 0x2916 JUMP JUMPDEST DUP1 PUSH1 0x1F ADD PUSH1 0x20 DUP1 SWAP2 DIV MUL PUSH1 0x20 ADD PUSH1 0x40 MLOAD SWAP1 DUP2 ADD PUSH1 0x40 MSTORE DUP1 SWAP3 SWAP2 SWAP1 DUP2 DUP2 MSTORE PUSH1 0x20 ADD DUP3 DUP1 SLOAD PUSH2 0xC91 SWAP1 PUSH2 0x2916 JUMP JUMPDEST DUP1 ISZERO PUSH2 0xCDC JUMPI DUP1 PUSH1 0x1F LT PUSH2 0xCB3 JUMPI PUSH2 0x100 DUP1 DUP4 SLOAD DIV MUL DUP4 MSTORE SWAP2 PUSH1 0x20 ADD SWAP2 PUSH2 0xCDC JUMP JUMPDEST DUP3 ADD SWAP2 SWAP1 PUSH0 MSTORE PUSH1 0x20 PUSH0 KECCAK256 SWAP1 JUMPDEST DUP2 SLOAD DUP2 MSTORE SWAP1 PUSH1 0x1 ADD SWAP1 PUSH1 0x20 ADD DUP1 DUP4 GT PUSH2 0xCBF JUMPI DUP3 SWAP1 SUB PUSH1 0x1F AND DUP3 ADD SWAP2 JUMPDEST POP POP POP POP POP DUP2 JUMP JUMPDEST PUSH0 PUSH1 0x2 SWAP1 SLOAD SWAP1 PUSH2 0x100 EXP SWAP1 DIV PUSH20 0xFFFFFFFFFFFFFFFFFFFFFFFFFFFFFFFFFFFFFFFF AND PUSH20 0xFFFFFFFFFFFFFFFFFFFFFFFFFFFFFFFFFFFFFFFF AND CALLER PUSH20 0xFFFFFFFFFFFFFFFFFFFFFFFFFFFFFFFFFFFFFFFF AND EQ PUSH2 0xD3C JUMPI PUSH0 PUSH0 REVERT JUMPDEST PUSH2 0xD44 PUSH2 0xA8C JUMP JUMPDEST PUSH20 0xFFFFFFFFFFFFFFFFFFFFFFFFFFFFFFFFFFFFFFFF AND PUSH4 0xA9059CBB DUP4 DUP4 PUSH1 0x40 MLOAD DUP4 PUSH4 0xFFFFFFFF AND PUSH1 0xE0 SHL DUP2 MSTORE PUSH1 0x4 ADD PUSH2 0xD7E SWAP3 SWAP2 SWAP1 PUSH2 0x2D8B JUMP JUMPDEST PUSH1 0x20 PUSH1 0x40 MLOAD DUP1 DUP4 SUB DUP2 PUSH0 DUP8 GAS CALL ISZERO DUP1 ISZERO PUSH2 0xD9A JUMPI RETURNDATASIZE PUSH0 PUSH0 RETURNDATACOPY RETURNDATASIZE PUSH0 REVERT JUMPDEST POP POP POP POP PUSH1 0x40 MLOAD RETURNDATASIZE PUSH1 0x1F NOT PUSH1 0x1F DUP3 ADD AND DUP3 ADD DUP1 PUSH1 0x40 MSTORE POP DUP2 ADD SWAP1 PUSH2 0xDBE SWAP2 SWAP1 PUSH2 0x2DDC JUMP JUMPDEST POP DUP2 PUSH20 0xFFFFFFFFFFFFFFFFFFFFFFFFFFFFFFFFFFFFFFFF AND PUSH4 0x4B92917A DUP3 PUSH1 0x40 MLOAD DUP3 PUSH4 0xFFFFFFFF AND PUSH1 0xE0 SHL DUP2 MSTORE PUSH1 0x4 ADD PUSH2 0xDF8 SWAP2 SWAP1 PUSH2 0x234B JUMP JUMPDEST PUSH0 PUSH1 0x40 MLOAD DUP1 DUP4 SUB DUP2 PUSH0 DUP8 DUP1 EXTCODESIZE ISZERO DUP1 ISZERO PUSH2 0xE0F JUMPI PUSH0 PUSH0 REVERT JUMPDEST POP GAS CALL ISZERO DUP1 ISZERO PUSH2 0xE21 JUMPI RETURNDATASIZE PUSH0 PUSH0 RETURNDATACOPY RETURNDATASIZE PUSH0 REVERT JUMPDEST POP POP POP POP POP POP JUMP JUMPDEST PUSH0 PUSH2 0xE34 DUP4 DUP4 PUSH2 0x1C15 JUMP JUMPDEST SWAP1 POP SWAP3 SWAP2 POP POP JUMP JUMPDEST PUSH1 0xC PUSH1 0x20 MSTORE DUP1 PUSH0 MSTORE PUSH1 0x40 PUSH0 KECCAK256 PUSH0 SWAP2 POP SLOAD SWAP1 PUSH2 0x100 EXP SWAP1 DIV PUSH1 0xFF AND DUP2 JUMP JUMPDEST PUSH0 PUSH1 0x5 PUSH0 DUP4 PUSH20 0xFFFFFFFFFFFFFFFFFFFFFFFFFFFFFFFFFFFFFFFF AND PUSH20 0xFFFFFFFFFFFFFFFFFFFFFFFFFFFFFFFFFFFFFFFF AND DUP2 MSTORE PUSH1 0x20 ADD SWAP1 DUP2 MSTORE PUSH1 0x20 ADD PUSH0 KECCAK256 SLOAD SWAP1 POP SWAP2 SWAP1 POP JUMP JUMPDEST PUSH0 PUSH1 0x2 SWAP1 SLOAD SWAP1 PUSH2 0x100 EXP SWAP1 DIV PUSH20 0xFFFFFFFFFFFFFFFFFFFFFFFFFFFFFFFFFFFFFFFF AND DUP2 JUMP JUMPDEST PUSH0 PUSH2 0xECD PUSH2 0xA8C JUMP JUMPDEST PUSH20 0xFFFFFFFFFFFFFFFFFFFFFFFFFFFFFFFFFFFFFFFF AND PUSH4 0x70A08231 ADDRESS PUSH1 0x40 MLOAD DUP3 PUSH4 0xFFFFFFFF AND PUSH1 0xE0 SHL DUP2 MSTORE PUSH1 0x4 ADD PUSH2 0xF05 SWAP2 SWAP1 PUSH2 0x25AF JUMP JUMPDEST PUSH1 0x20 PUSH1 0x40 MLOAD DUP1 DUP4 SUB DUP2 DUP7 GAS STATICCALL ISZERO DUP1 ISZERO PUSH2 0xF20 JUMPI RETURNDATASIZE PUSH0 PUSH0 RETURNDATACOPY RETURNDATASIZE PUSH0 REVERT JUMPDEST POP POP POP POP PUSH1 0x40 MLOAD RETURNDATASIZE PUSH1 0x1F NOT PUSH1 0x1F DUP3 ADD AND DUP3 ADD DUP1 PUSH1 0x40 MSTORE POP DUP2 ADD SWAP1 PUSH2 0xF44 SWAP2 SWAP1 PUSH2 0x2831 JUMP JUMPDEST SWAP1 POP SWAP1 JUMP JUMPDEST PUSH0 PUSH1 0x2 SWAP1 SLOAD SWAP1 PUSH2 0x100 EXP SWAP1 DIV PUSH20 0xFFFFFFFFFFFFFFFFFFFFFFFFFFFFFFFFFFFFFFFF AND PUSH20 0xFFFFFFFFFFFFFFFFFFFFFFFFFFFFFFFFFFFFFFFF AND CALLER PUSH20 0xFFFFFFFFFFFFFFFFFFFFFFFFFFFFFFFFFFFFFFFF AND EQ PUSH2 0xFA1 JUMPI PUSH0 PUSH0 REVERT JUMPDEST PUSH1 0x1 PUSH1 0xC PUSH0 DUP4 PUSH20 0xFFFFFFFFFFFFFFFFFFFFFFFFFFFFFFFFFFFFFFFF AND PUSH20 0xFFFFFFFFFFFFFFFFFFFFFFFFFFFFFFFFFFFFFFFF AND DUP2 MSTORE PUSH1 0x20 ADD SWAP1 DUP2 MSTORE PUSH1 0x20 ADD PUSH0 KECCAK256 PUSH0 PUSH2 0x100 EXP DUP2 SLOAD DUP2 PUSH1 0xFF MUL NOT AND SWAP1 DUP4 ISZERO ISZERO MUL OR SWAP1 SSTORE POP PUSH1 0xB DUP2 SWAP1 DUP1 PUSH1 0x1 DUP2 SLOAD ADD DUP1 DUP3 SSTORE DUP1 SWAP2 POP POP PUSH1 0x1 SWAP1 SUB SWAP1 PUSH0 MSTORE PUSH1 0x20 PUSH0 KECCAK256 ADD PUSH0 SWAP1 SWAP2 SWAP1 SWAP2 SWAP1 SWAP2 PUSH2 0x100 EXP DUP2 SLOAD DUP2 PUSH20 0xFFFFFFFFFFFFFFFFFFFFFFFFFFFFFFFFFFFFFFFF MUL NOT AND SWAP1 DUP4 PUSH20 0xFFFFFFFFFFFFFFFFFFFFFFFFFFFFFFFFFFFFFFFF AND MUL OR SWAP1 SSTORE POP POP JUMP JUMPDEST PUSH0 PUSH0 DUP4 GT PUSH2 0x109C JUMPI PUSH1 0x40 MLOAD PUSH32 0x8C379A000000000000000000000000000000000000000000000000000000000 DUP2 MSTORE PUSH1 0x4 ADD PUSH2 0x1093 SWAP1 PUSH2 0x2E51 JUMP JUMPDEST PUSH1 0x40 MLOAD DUP1 SWAP2 SUB SWAP1 REVERT JUMPDEST PUSH2 0x10A5 DUP4 PUSH2 0x88A JUMP JUMPDEST SWAP1 POP PUSH0 DUP2 GT PUSH2 0x10E9 JUMPI PUSH1 0x40 MLOAD PUSH32 0x8C379A000000000000000000000000000000000000000000000000000000000 DUP2 MSTORE PUSH1 0x4 ADD PUSH2 0x10E0 SWAP1 PUSH2 0x2EB9 JUMP JUMPDEST PUSH1 0x40 MLOAD DUP1 SWAP2 SUB SWAP1 REVERT JUMPDEST PUSH1 0x7 PUSH0 SWAP1 SLOAD SWAP1 PUSH2 0x100 EXP SWAP1 DIV PUSH20 0xFFFFFFFFFFFFFFFFFFFFFFFFFFFFFFFFFFFFFFFF AND PUSH20 0xFFFFFFFFFFFFFFFFFFFFFFFFFFFFFFFFFFFFFFFF AND PUSH4 0x23B872DD CALLER ADDRESS DUP5 PUSH1 0x40 MLOAD DUP5 PUSH4 0xFFFFFFFF AND PUSH1 0xE0 SHL DUP2 MSTORE PUSH1 0x4 ADD PUSH2 0x1147 SWAP4 SWAP3 SWAP2 SWAP1 PUSH2 0x2ED7 JUMP JUMPDEST PUSH1 0x20 PUSH1 0x40 MLOAD DUP1 DUP4 SUB DUP2 PUSH0 DUP8 GAS CALL ISZERO DUP1 ISZERO PUSH2 0x1163 JUMPI RETURNDATASIZE PUSH0 PUSH0 RETURNDATACOPY RETURNDATASIZE PUSH0 REVERT JUMPDEST POP POP POP POP PUSH1 0x40 MLOAD RETURNDATASIZE PUSH1 0x1F NOT PUSH1 0x1F DUP3 ADD AND DUP3 ADD DUP1 PUSH1 0x40 MSTORE POP DUP2 ADD SWAP1 PUSH2 0x1187 SWAP2 SWAP1 PUSH2 0x2DDC JUMP JUMPDEST POP PUSH2 0x1192 DUP3 DUP5 PUSH2 0x1DBB JUMP JUMPDEST DUP2 PUSH20 0xFFFFFFFFFFFFFFFFFFFFFFFFFFFFFFFFFFFFFFFF AND CALLER PUSH20 0xFFFFFFFFFFFFFFFFFFFFFFFFFFFFFFFFFFFFFFFF AND PUSH32 0xDCBC1C05240F31FF3AD067EF1EE35CE4997762752E3A095284754544F4C709D7 DUP4 DUP7 PUSH1 0x40 MLOAD PUSH2 0x11F1 SWAP3 SWAP2 SWAP1 PUSH2 0x2F0C JUMP JUMPDEST PUSH1 0x40 MLOAD DUP1 SWAP2 SUB SWAP1 LOG3 SWAP3 SWAP2 POP POP JUMP JUMPDEST PUSH1 0x60 PUSH1 0x2 DUP1 SLOAD PUSH2 0x120E SWAP1 PUSH2 0x2916 JUMP JUMPDEST DUP1 PUSH1 0x1F ADD PUSH1 0x20 DUP1 SWAP2 DIV MUL PUSH1 0x20 ADD PUSH1 0x40 MLOAD SWAP1 DUP2 ADD PUSH1 0x40 MSTORE DUP1 SWAP3 SWAP2 SWAP1 DUP2 DUP2 MSTORE PUSH1 0x20 ADD DUP3 DUP1 SLOAD PUSH2 0x123A SWAP1 PUSH2 0x2916 JUMP JUMPDEST DUP1 ISZERO PUSH2 0x1285 JUMPI DUP1 PUSH1 0x1F LT PUSH2 0x125C JUMPI PUSH2 0x100 DUP1 DUP4 SLOAD DIV MUL DUP4 MSTORE SWAP2 PUSH1 0x20 ADD SWAP2 PUSH2 0x1285 JUMP JUMPDEST DUP3 ADD SWAP2 SWAP1 PUSH0 MSTORE PUSH1 0x20 PUSH0 KECCAK256 SWAP1 JUMPDEST DUP2 SLOAD DUP2 MSTORE SWAP1 PUSH1 0x1 ADD SWAP1 PUSH1 0x20 ADD DUP1 DUP4 GT PUSH2 0x1268 JUMPI DUP3 SWAP1 SUB PUSH1 0x1F AND DUP3 ADD SWAP2 JUMPDEST POP POP POP POP POP SWAP1 POP SWAP1 JUMP JUMPDEST PUSH0 PUSH2 0x129B CALLER DUP5 DUP5 PUSH2 0x18E8 JUMP JUMPDEST PUSH1 0x1 SWAP1 POP SWAP3 SWAP2 POP POP JUMP JUMPDEST PUSH1 0xB DUP2 DUP2 SLOAD DUP2 LT PUSH2 0x12B4 JUMPI PUSH0 DUP1 REVERT JUMPDEST SWAP1 PUSH0 MSTORE PUSH1 0x20 PUSH0 KECCAK256 ADD PUSH0 SWAP2 POP SLOAD SWAP1 PUSH2 0x100 EXP SWAP1 DIV PUSH20 0xFFFFFFFFFFFFFFFFFFFFFFFFFFFFFFFFFFFFFFFF AND DUP2 JUMP JUMPDEST PUSH0 PUSH2 0x12EC DUP5 DUP5 DUP5 PUSH2 0x1EFD JUMP JUMPDEST SWAP1 POP SWAP4 SWAP3 POP POP POP JUMP JUMPDEST PUSH0 PUSH0 DUP5 GT PUSH2 0x1338 JUMPI PUSH1 0x40 MLOAD PUSH32 0x8C379A000000000000000000000000000000000000000000000000000000000 DUP2 MSTORE PUSH1 0x4 ADD PUSH2 0x132F SWAP1 PUSH2 0x2E51 JUMP JUMPDEST PUSH1 0x40 MLOAD DUP1 SWAP2 SUB SWAP1 REVERT JUMPDEST PUSH2 0x1341 DUP5 PUSH2 0x88A JUMP JUMPDEST SWAP1 POP CALLER PUSH20 0xFFFFFFFFFFFFFFFFFFFFFFFFFFFFFFFFFFFFFFFF AND DUP3 PUSH20 0xFFFFFFFFFFFFFFFFFFFFFFFFFFFFFFFFFFFFFFFF AND EQ PUSH2 0x1406 JUMPI PUSH0 PUSH2 0x1381 DUP4 CALLER PUSH2 0x177F JUMP JUMPDEST SWAP1 POP DUP5 DUP2 LT ISZERO PUSH2 0x13C6 JUMPI PUSH1 0x40 MLOAD PUSH32 0x8C379A000000000000000000000000000000000000000000000000000000000 DUP2 MSTORE PUSH1 0x4 ADD PUSH2 0x13BD SWAP1 PUSH2 0x2A2E JUMP JUMPDEST PUSH1 0x40 MLOAD DUP1 SWAP2 SUB SWAP1 REVERT JUMPDEST PUSH32 0xFFFFFFFFFFFFFFFFFFFFFFFFFFFFFFFFFFFFFFFFFFFFFFFFFFFFFFFFFFFFFFFF DUP2 EQ PUSH2 0x1404 JUMPI PUSH2 0x1403 DUP4 CALLER DUP8 DUP5 PUSH2 0x13FE SWAP2 SWAP1 PUSH2 0x2A4C JUMP JUMPDEST PUSH2 0x1801 JUMP JUMPDEST JUMPDEST POP JUMPDEST PUSH2 0x1410 DUP3 DUP6 PUSH2 0x215A JUMP JUMPDEST PUSH1 0x7 PUSH0 SWAP1 SLOAD SWAP1 PUSH2 0x100 EXP SWAP1 DIV PUSH20 0xFFFFFFFFFFFFFFFFFFFFFFFFFFFFFFFFFFFFFFFF AND PUSH20 0xFFFFFFFFFFFFFFFFFFFFFFFFFFFFFFFFFFFFFFFF AND PUSH4 0xA9059CBB DUP5 DUP4 PUSH1 0x40 MLOAD DUP4 PUSH4 0xFFFFFFFF AND PUSH1 0xE0 SHL DUP2 MSTORE PUSH1 0x4 ADD PUSH2 0x146C SWAP3 SWAP2 SWAP1 PUSH2 0x2D8B JUMP JUMPDEST PUSH1 0x20 PUSH1 0x40 MLOAD DUP1 DUP4 SUB DUP2 PUSH0 DUP8 GAS CALL ISZERO DUP1 ISZERO PUSH2 0x1488 JUMPI RETURNDATASIZE PUSH0 PUSH0 RETURNDATACOPY RETURNDATASIZE PUSH0 REVERT JUMPDEST POP POP POP POP PUSH1 0x40 MLOAD RETURNDATASIZE PUSH1 0x1F NOT PUSH1 0x1F DUP3 ADD AND DUP3 ADD DUP1 PUSH1 0x40 MSTORE POP DUP2 ADD SWAP1 PUSH2 0x14AC SWAP2 SWAP1 PUSH2 0x2DDC JUMP JUMPDEST POP DUP2 PUSH20 0xFFFFFFFFFFFFFFFFFFFFFFFFFFFFFFFFFFFFFFFF AND DUP4 PUSH20 0xFFFFFFFFFFFFFFFFFFFFFFFFFFFFFFFFFFFFFFFF AND CALLER PUSH20 0xFFFFFFFFFFFFFFFFFFFFFFFFFFFFFFFFFFFFFFFF AND PUSH32 0xFBDE797D201C681B91056529119E0B02407C7BB96A4A2C75C01FC9667232C8DB DUP5 DUP9 PUSH1 0x40 MLOAD PUSH2 0x1523 SWAP3 SWAP2 SWAP1 PUSH2 0x2F0C JUMP JUMPDEST PUSH1 0x40 MLOAD DUP1 SWAP2 SUB SWAP1 LOG4 SWAP4 SWAP3 POP POP POP JUMP JUMPDEST PUSH0 PUSH1 0x2 SWAP1 SLOAD SWAP1 PUSH2 0x100 EXP SWAP1 DIV PUSH20 0xFFFFFFFFFFFFFFFFFFFFFFFFFFFFFFFFFFFFFFFF AND PUSH20 0xFFFFFFFFFFFFFFFFFFFFFFFFFFFFFFFFFFFFFFFF AND CALLER PUSH20 0xFFFFFFFFFFFFFFFFFFFFFFFFFFFFFFFFFFFFFFFF AND EQ PUSH2 0x158A JUMPI PUSH0 PUSH0 REVERT JUMPDEST DUP2 PUSH20 0xFFFFFFFFFFFFFFFFFFFFFFFFFFFFFFFFFFFFFFFF AND PUSH4 0x3E3722B6 DUP3 PUSH1 0x40 MLOAD DUP3 PUSH4 0xFFFFFFFF AND PUSH1 0xE0 SHL DUP2 MSTORE PUSH1 0x4 ADD PUSH2 0x15C3 SWAP2 SWAP1 PUSH2 0x234B JUMP JUMPDEST PUSH0 PUSH1 0x40 MLOAD DUP1 DUP4 SUB DUP2 PUSH0 DUP8 DUP1 EXTCODESIZE ISZERO DUP1 ISZERO PUSH2 0x15DA JUMPI PUSH0 PUSH0 REVERT JUMPDEST POP GAS CALL ISZERO DUP1 ISZERO PUSH2 0x15EC JUMPI RETURNDATASIZE PUSH0 PUSH0 RETURNDATACOPY RETURNDATASIZE PUSH0 REVERT JUMPDEST POP POP POP POP POP POP JUMP JUMPDEST PUSH0 PUSH0 ADDRESS PUSH20 0xFFFFFFFFFFFFFFFFFFFFFFFFFFFFFFFFFFFFFFFF AND PUSH4 0x18160DDD PUSH1 0x40 MLOAD DUP2 PUSH4 0xFFFFFFFF AND PUSH1 0xE0 SHL DUP2 MSTORE PUSH1 0x4 ADD PUSH1 0x20 PUSH1 0x40 MLOAD DUP1 DUP4 SUB DUP2 DUP7 GAS STATICCALL ISZERO DUP1 ISZERO PUSH2 0x163F JUMPI RETURNDATASIZE PUSH0 PUSH0 RETURNDATACOPY RETURNDATASIZE PUSH0 REVERT JUMPDEST POP POP POP POP PUSH1 0x40 MLOAD RETURNDATASIZE PUSH1 0x1F NOT PUSH1 0x1F DUP3 ADD AND DUP3 ADD DUP1 PUSH1 0x40 MSTORE POP DUP2 ADD SWAP1 PUSH2 0x1663 SWAP2 SWAP1 PUSH2 0x2831 JUMP JUMPDEST SWAP1 POP PUSH0 PUSH2 0x166E PUSH2 0x617 JUMP JUMPDEST SWAP1 POP PUSH0 DUP3 EQ DUP1 PUSH2 0x167D JUMPI POP PUSH0 DUP2 EQ JUMPDEST ISZERO PUSH2 0x168C JUMPI DUP4 SWAP3 POP POP POP PUSH2 0x16A8 JUMP JUMPDEST DUP1 DUP3 DUP6 PUSH2 0x1699 SWAP2 SWAP1 PUSH2 0x2946 JUMP JUMPDEST PUSH2 0x16A3 SWAP2 SWAP1 PUSH2 0x29B4 JUMP JUMPDEST SWAP3 POP POP POP JUMPDEST SWAP2 SWAP1 POP JUMP JUMPDEST PUSH0 PUSH1 0x2 SWAP1 SLOAD SWAP1 PUSH2 0x100 EXP SWAP1 DIV PUSH20 0xFFFFFFFFFFFFFFFFFFFFFFFFFFFFFFFFFFFFFFFF AND PUSH20 0xFFFFFFFFFFFFFFFFFFFFFFFFFFFFFFFFFFFFFFFF AND CALLER PUSH20 0xFFFFFFFFFFFFFFFFFFFFFFFFFFFFFFFFFFFFFFFF AND EQ PUSH2 0x1705 JUMPI PUSH0 PUSH0 REVERT JUMPDEST PUSH0 PUSH20 0xFFFFFFFFFFFFFFFFFFFFFFFFFFFFFFFFFFFFFFFF AND DUP2 PUSH20 0xFFFFFFFFFFFFFFFFFFFFFFFFFFFFFFFFFFFFFFFF AND SUB PUSH2 0x173C JUMPI PUSH0 PUSH0 REVERT JUMPDEST DUP1 PUSH0 PUSH1 0x2 PUSH2 0x100 EXP DUP2 SLOAD DUP2 PUSH20 0xFFFFFFFFFFFFFFFFFFFFFFFFFFFFFFFFFFFFFFFF MUL NOT AND SWAP1 DUP4 PUSH20 0xFFFFFFFFFFFFFFFFFFFFFFFFFFFFFFFFFFFFFFFF AND MUL OR SWAP1 SSTORE POP POP JUMP JUMPDEST PUSH0 PUSH1 0x6 PUSH0 DUP5 PUSH20 0xFFFFFFFFFFFFFFFFFFFFFFFFFFFFFFFFFFFFFFFF AND PUSH20 0xFFFFFFFFFFFFFFFFFFFFFFFFFFFFFFFFFFFFFFFF AND DUP2 MSTORE PUSH1 0x20 ADD SWAP1 DUP2 MSTORE PUSH1 0x20 ADD PUSH0 KECCAK256 PUSH0 DUP4 PUSH20 0xFFFFFFFFFFFFFFFFFFFFFFFFFFFFFFFFFFFFFFFF AND PUSH20 0xFFFFFFFFFFFFFFFFFFFFFFFFFFFFFFFFFFFFFFFF AND DUP2 MSTORE PUSH1 0x20 ADD SWAP1 DUP2 MSTORE PUSH1 0x20 ADD PUSH0 KECCAK256 SLOAD SWAP1 POP SWAP3 SWAP2 POP POP JUMP JUMPDEST DUP1 PUSH1 0x6 PUSH0 DUP6 PUSH20 0xFFFFFFFFFFFFFFFFFFFFFFFFFFFFFFFFFFFFFFFF AND PUSH20 0xFFFFFFFFFFFFFFFFFFFFFFFFFFFFFFFFFFFFFFFF AND DUP2 MSTORE PUSH1 0x20 ADD SWAP1 DUP2 MSTORE PUSH1 0x20 ADD PUSH0 KECCAK256 PUSH0 DUP5 PUSH20 0xFFFFFFFFFFFFFFFFFFFFFFFFFFFFFFFFFFFFFFFF AND PUSH20 0xFFFFFFFFFFFFFFFFFFFFFFFFFFFFFFFFFFFFFFFF AND DUP2 MSTORE PUSH1 0x20 ADD SWAP1 DUP2 MSTORE PUSH1 0x20 ADD PUSH0 KECCAK256 DUP2 SWAP1 SSTORE POP DUP2 PUSH20 0xFFFFFFFFFFFFFFFFFFFFFFFFFFFFFFFFFFFFFFFF AND DUP4 PUSH20 0xFFFFFFFFFFFFFFFFFFFFFFFFFFFFFFFFFFFFFFFF AND PUSH32 0x8C5BE1E5EBEC7D5BD14F71427D1E84F3DD0314C0F7B2291E5B200AC8C7C3B925 DUP4 PUSH1 0x40 MLOAD PUSH2 0x18DB SWAP2 SWAP1 PUSH2 0x234B JUMP JUMPDEST PUSH1 0x40 MLOAD DUP1 SWAP2 SUB SWAP1 LOG3 POP POP POP JUMP JUMPDEST PUSH0 PUSH20 0xFFFFFFFFFFFFFFFFFFFFFFFFFFFFFFFFFFFFFFFF AND DUP3 PUSH20 0xFFFFFFFFFFFFFFFFFFFFFFFFFFFFFFFFFFFFFFFF AND SUB PUSH2 0x1956 JUMPI PUSH1 0x40 MLOAD PUSH32 0x8C379A000000000000000000000000000000000000000000000000000000000 DUP2 MSTORE PUSH1 0x4 ADD PUSH2 0x194D SWAP1 PUSH2 0x2F7D JUMP JUMPDEST PUSH1 0x40 MLOAD DUP1 SWAP2 SUB SWAP1 REVERT JUMPDEST PUSH0 PUSH1 0x5 PUSH0 DUP6 PUSH20 0xFFFFFFFFFFFFFFFFFFFFFFFFFFFFFFFFFFFFFFFF AND PUSH20 0xFFFFFFFFFFFFFFFFFFFFFFFFFFFFFFFFFFFFFFFF AND DUP2 MSTORE PUSH1 0x20 ADD SWAP1 DUP2 MSTORE PUSH1 0x20 ADD PUSH0 KECCAK256 SLOAD SWAP1 POP DUP2 DUP2 LT ISZERO PUSH2 0x19DA JUMPI PUSH1 0x40 MLOAD PUSH32 0x8C379A000000000000000000000000000000000000000000000000000000000 DUP2 MSTORE PUSH1 0x4 ADD PUSH2 0x19D1 SWAP1 PUSH2 0x2FE5 JUMP JUMPDEST PUSH1 0x40 MLOAD DUP1 SWAP2 SUB SWAP1 REVERT JUMPDEST DUP2 DUP2 SUB PUSH1 0x5 PUSH0 DUP7 PUSH20 0xFFFFFFFFFFFFFFFFFFFFFFFFFFFFFFFFFFFFFFFF AND PUSH20 0xFFFFFFFFFFFFFFFFFFFFFFFFFFFFFFFFFFFFFFFF AND DUP2 MSTORE PUSH1 0x20 ADD SWAP1 DUP2 MSTORE PUSH1 0x20 ADD PUSH0 KECCAK256 DUP2 SWAP1 SSTORE POP DUP2 PUSH1 0x5 PUSH0 DUP6 PUSH20 0xFFFFFFFFFFFFFFFFFFFFFFFFFFFFFFFFFFFFFFFF AND PUSH20 0xFFFFFFFFFFFFFFFFFFFFFFFFFFFFFFFFFFFFFFFF AND DUP2 MSTORE PUSH1 0x20 ADD SWAP1 DUP2 MSTORE PUSH1 0x20 ADD PUSH0 KECCAK256 PUSH0 DUP3 DUP3 SLOAD PUSH2 0x1A6A SWAP2 SWAP1 PUSH2 0x28B6 JUMP JUMPDEST SWAP3 POP POP DUP2 SWAP1 SSTORE POP DUP3 PUSH20 0xFFFFFFFFFFFFFFFFFFFFFFFFFFFFFFFFFFFFFFFF AND DUP5 PUSH20 0xFFFFFFFFFFFFFFFFFFFFFFFFFFFFFFFFFFFFFFFF AND PUSH32 0xDDF252AD1BE2C89B69C2B068FC378DAA952BA7F163C4A11628F55A4DF523B3EF DUP5 PUSH1 0x40 MLOAD PUSH2 0x1ACE SWAP2 SWAP1 PUSH2 0x234B JUMP JUMPDEST PUSH1 0x40 MLOAD DUP1 SWAP2 SUB SWAP1 LOG3 POP POP POP POP JUMP JUMPDEST PUSH0 PUSH20 0xFFFFFFFFFFFFFFFFFFFFFFFFFFFFFFFFFFFFFFFF AND DUP2 PUSH20 0xFFFFFFFFFFFFFFFFFFFFFFFFFFFFFFFFFFFFFFFF AND SUB PUSH2 0x1B13 JUMPI PUSH0 PUSH0 REVERT JUMPDEST DUP1 PUSH0 PUSH1 0x2 PUSH2 0x100 EXP DUP2 SLOAD DUP2 PUSH20 0xFFFFFFFFFFFFFFFFFFFFFFFFFFFFFFFFFFFFFFFF MUL NOT AND SWAP1 DUP4 PUSH20 0xFFFFFFFFFFFFFFFFFFFFFFFFFFFFFFFFFFFFFFFF AND MUL OR SWAP1 SSTORE POP POP JUMP JUMPDEST PUSH0 PUSH20 0xFFFFFFFFFFFFFFFFFFFFFFFFFFFFFFFFFFFFFFFF AND DUP4 PUSH20 0xFFFFFFFFFFFFFFFFFFFFFFFFFFFFFFFFFFFFFFFF AND SUB PUSH2 0x1BC4 JUMPI PUSH1 0x40 MLOAD PUSH32 0x8C379A000000000000000000000000000000000000000000000000000000000 DUP2 MSTORE PUSH1 0x4 ADD PUSH2 0x1BBB SWAP1 PUSH2 0x304D JUMP JUMPDEST PUSH1 0x40 MLOAD DUP1 SWAP2 SUB SWAP1 REVERT JUMPDEST PUSH2 0x1BD0 DUP3 DUP3 PUSH1 0x6 PUSH2 0x22A4 JUMP JUMPDEST DUP3 PUSH1 0x7 PUSH0 PUSH2 0x100 EXP DUP2 SLOAD DUP2 PUSH20 0xFFFFFFFFFFFFFFFFFFFFFFFFFFFFFFFFFFFFFFFF MUL NOT AND SWAP1 DUP4 PUSH20 0xFFFFFFFFFFFFFFFFFFFFFFFFFFFFFFFFFFFFFFFF AND MUL OR SWAP1 SSTORE POP POP POP POP JUMP JUMPDEST PUSH0 PUSH0 DUP4 GT PUSH2 0x1C58 JUMPI PUSH1 0x40 MLOAD PUSH32 0x8C379A000000000000000000000000000000000000000000000000000000000 DUP2 MSTORE PUSH1 0x4 ADD PUSH2 0x1C4F SWAP1 PUSH2 0x2EB9 JUMP JUMPDEST PUSH1 0x40 MLOAD DUP1 SWAP2 SUB SWAP1 REVERT JUMPDEST PUSH2 0x1C61 DUP4 PUSH2 0x15F4 JUMP JUMPDEST SWAP1 POP PUSH0 DUP2 GT PUSH2 0x1CA5 JUMPI PUSH1 0x40 MLOAD PUSH32 0x8C379A000000000000000000000000000000000000000000000000000000000 DUP2 MSTORE PUSH1 0x4 ADD PUSH2 0x1C9C SWAP1 PUSH2 0x2E51 JUMP JUMPDEST PUSH1 0x40 MLOAD DUP1 SWAP2 SUB SWAP1 REVERT JUMPDEST PUSH1 0x7 PUSH0 SWAP1 SLOAD SWAP1 PUSH2 0x100 EXP SWAP1 DIV PUSH20 0xFFFFFFFFFFFFFFFFFFFFFFFFFFFFFFFFFFFFFFFF AND PUSH20 0xFFFFFFFFFFFFFFFFFFFFFFFFFFFFFFFFFFFFFFFF AND PUSH4 0x23B872DD CALLER ADDRESS DUP7 PUSH1 0x40 MLOAD DUP5 PUSH4 0xFFFFFFFF AND PUSH1 0xE0 SHL DUP2 MSTORE PUSH1 0x4 ADD PUSH2 0x1D03 SWAP4 SWAP3 SWAP2 SWAP1 PUSH2 0x2ED7 JUMP JUMPDEST PUSH1 0x20 PUSH1 0x40 MLOAD DUP1 DUP4 SUB DUP2 PUSH0 DUP8 GAS CALL ISZERO DUP1 ISZERO PUSH2 0x1D1F JUMPI RETURNDATASIZE PUSH0 PUSH0 RETURNDATACOPY RETURNDATASIZE PUSH0 REVERT JUMPDEST POP POP POP POP PUSH1 0x40 MLOAD RETURNDATASIZE PUSH1 0x1F NOT PUSH1 0x1F DUP3 ADD AND DUP3 ADD DUP1 PUSH1 0x40 MSTORE POP DUP2 ADD SWAP1 PUSH2 0x1D43 SWAP2 SWAP1 PUSH2 0x2DDC JUMP JUMPDEST POP PUSH2 0x1D4E DUP3 DUP3 PUSH2 0x1DBB JUMP JUMPDEST DUP2 PUSH20 0xFFFFFFFFFFFFFFFFFFFFFFFFFFFFFFFFFFFFFFFF AND CALLER PUSH20 0xFFFFFFFFFFFFFFFFFFFFFFFFFFFFFFFFFFFFFFFF AND PUSH32 0xDCBC1C05240F31FF3AD067EF1EE35CE4997762752E3A095284754544F4C709D7 DUP6 DUP5 PUSH1 0x40 MLOAD PUSH2 0x1DAD SWAP3 SWAP2 SWAP1 PUSH2 0x2F0C JUMP JUMPDEST PUSH1 0x40 MLOAD DUP1 SWAP2 SUB SWAP1 LOG3 SWAP3 SWAP2 POP POP JUMP JUMPDEST PUSH0 PUSH20 0xFFFFFFFFFFFFFFFFFFFFFFFFFFFFFFFFFFFFFFFF AND DUP3 PUSH20 0xFFFFFFFFFFFFFFFFFFFFFFFFFFFFFFFFFFFFFFFF AND SUB PUSH2 0x1E29 JUMPI PUSH1 0x40 MLOAD PUSH32 0x8C379A000000000000000000000000000000000000000000000000000000000 DUP2 MSTORE PUSH1 0x4 ADD PUSH2 0x1E20 SWAP1 PUSH2 0x2F7D JUMP JUMPDEST PUSH1 0x40 MLOAD DUP1 SWAP2 SUB SWAP1 REVERT JUMPDEST DUP1 PUSH1 0x4 PUSH0 DUP3 DUP3 SLOAD PUSH2 0x1E3A SWAP2 SWAP1 PUSH2 0x28B6 JUMP JUMPDEST SWAP3 POP POP DUP2 SWAP1 SSTORE POP DUP1 PUSH1 0x5 PUSH0 DUP5 PUSH20 0xFFFFFFFFFFFFFFFFFFFFFFFFFFFFFFFFFFFFFFFF AND PUSH20 0xFFFFFFFFFFFFFFFFFFFFFFFFFFFFFFFFFFFFFFFF AND DUP2 MSTORE PUSH1 0x20 ADD SWAP1 DUP2 MSTORE PUSH1 0x20 ADD PUSH0 KECCAK256 PUSH0 DUP3 DUP3 SLOAD PUSH2 0x1E8D SWAP2 SWAP1 PUSH2 0x28B6 JUMP JUMPDEST SWAP3 POP POP DUP2 SWAP1 SSTORE POP DUP2 PUSH20 0xFFFFFFFFFFFFFFFFFFFFFFFFFFFFFFFFFFFFFFFF AND PUSH0 PUSH20 0xFFFFFFFFFFFFFFFFFFFFFFFFFFFFFFFFFFFFFFFF AND PUSH32 0xDDF252AD1BE2C89B69C2B068FC378DAA952BA7F163C4A11628F55A4DF523B3EF DUP4 PUSH1 0x40 MLOAD PUSH2 0x1EF1 SWAP2 SWAP1 PUSH2 0x234B JUMP JUMPDEST PUSH1 0x40 MLOAD DUP1 SWAP2 SUB SWAP1 LOG3 POP POP JUMP JUMPDEST PUSH0 PUSH0 DUP5 GT PUSH2 0x1F40 JUMPI PUSH1 0x40 MLOAD PUSH32 0x8C379A000000000000000000000000000000000000000000000000000000000 DUP2 MSTORE PUSH1 0x4 ADD PUSH2 0x1F37 SWAP1 PUSH2 0x2EB9 JUMP JUMPDEST PUSH1 0x40 MLOAD DUP1 SWAP2 SUB SWAP1 REVERT JUMPDEST PUSH2 0x1F49 DUP5 PUSH2 0x15F4 JUMP JUMPDEST SWAP1 POP DUP4 PUSH2 0x1F55 DUP3 PUSH2 0x88A JUMP JUMPDEST LT ISZERO PUSH2 0x1F6B JUMPI PUSH1 0x1 DUP2 PUSH2 0x1F68 SWAP2 SWAP1 PUSH2 0x28B6 JUMP JUMPDEST SWAP1 POP JUMPDEST CALLER PUSH20 0xFFFFFFFFFFFFFFFFFFFFFFFFFFFFFFFFFFFFFFFF AND DUP3 PUSH20 0xFFFFFFFFFFFFFFFFFFFFFFFFFFFFFFFFFFFFFFFF AND EQ PUSH2 0x202E JUMPI PUSH0 PUSH2 0x1FA9 DUP4 CALLER PUSH2 0x177F JUMP JUMPDEST SWAP1 POP DUP2 DUP2 LT ISZERO PUSH2 0x1FEE JUMPI PUSH1 0x40 MLOAD PUSH32 0x8C379A000000000000000000000000000000000000000000000000000000000 DUP2 MSTORE PUSH1 0x4 ADD PUSH2 0x1FE5 SWAP1 PUSH2 0x2A2E JUMP JUMPDEST PUSH1 0x40 MLOAD DUP1 SWAP2 SUB SWAP1 REVERT JUMPDEST PUSH32 0xFFFFFFFFFFFFFFFFFFFFFFFFFFFFFFFFFFFFFFFFFFFFFFFFFFFFFFFFFFFFFFFF DUP2 EQ PUSH2 0x202C JUMPI PUSH2 0x202B DUP4 CALLER DUP5 DUP5 PUSH2 0x2026 SWAP2 SWAP1 PUSH2 0x2A4C JUMP JUMPDEST PUSH2 0x1801 JUMP JUMPDEST JUMPDEST POP JUMPDEST PUSH2 0x2038 DUP3 DUP3 PUSH2 0x215A JUMP JUMPDEST PUSH1 0x7 PUSH0 SWAP1 SLOAD SWAP1 PUSH2 0x100 EXP SWAP1 DIV PUSH20 0xFFFFFFFFFFFFFFFFFFFFFFFFFFFFFFFFFFFFFFFF AND PUSH20 0xFFFFFFFFFFFFFFFFFFFFFFFFFFFFFFFFFFFFFFFF AND PUSH4 0xA9059CBB DUP5 DUP7 PUSH1 0x40 MLOAD DUP4 PUSH4 0xFFFFFFFF AND PUSH1 0xE0 SHL DUP2 MSTORE PUSH1 0x4 ADD PUSH2 0x2094 SWAP3 SWAP2 SWAP1 PUSH2 0x2D8B JUMP JUMPDEST PUSH1 0x20 PUSH1 0x40 MLOAD DUP1 DUP4 SUB DUP2 PUSH0 DUP8 GAS CALL ISZERO DUP1 ISZERO PUSH2 0x20B0 JUMPI RETURNDATASIZE PUSH0 PUSH0 RETURNDATACOPY RETURNDATASIZE PUSH0 REVERT JUMPDEST POP POP POP POP PUSH1 0x40 MLOAD RETURNDATASIZE PUSH1 0x1F NOT PUSH1 0x1F DUP3 ADD AND DUP3 ADD DUP1 PUSH1 0x40 MSTORE POP DUP2 ADD SWAP1 PUSH2 0x20D4 SWAP2 SWAP1 PUSH2 0x2DDC JUMP JUMPDEST POP DUP2 PUSH20 0xFFFFFFFFFFFFFFFFFFFFFFFFFFFFFFFFFFFFFFFF AND DUP4 PUSH20 0xFFFFFFFFFFFFFFFFFFFFFFFFFFFFFFFFFFFFFFFF AND CALLER PUSH20 0xFFFFFFFFFFFFFFFFFFFFFFFFFFFFFFFFFFFFFFFF AND PUSH32 0xFBDE797D201C681B91056529119E0B02407C7BB96A4A2C75C01FC9667232C8DB DUP8 DUP6 PUSH1 0x40 MLOAD PUSH2 0x214B SWAP3 SWAP2 SWAP1 PUSH2 0x2F0C JUMP JUMPDEST PUSH1 0x40 MLOAD DUP1 SWAP2 SUB SWAP1 LOG4 SWAP4 SWAP3 POP POP POP JUMP JUMPDEST PUSH0 PUSH1 0x5 PUSH0 DUP5 PUSH20 0xFFFFFFFFFFFFFFFFFFFFFFFFFFFFFFFFFFFFFFFF AND PUSH20 0xFFFFFFFFFFFFFFFFFFFFFFFFFFFFFFFFFFFFFFFF AND DUP2 MSTORE PUSH1 0x20 ADD SWAP1 DUP2 MSTORE PUSH1 0x20 ADD PUSH0 KECCAK256 SLOAD SWAP1 POP DUP2 DUP2 LT ISZERO PUSH2 0x21DE JUMPI PUSH1 0x40 MLOAD PUSH32 0x8C379A000000000000000000000000000000000000000000000000000000000 DUP2 MSTORE PUSH1 0x4 ADD PUSH2 0x21D5 SWAP1 PUSH2 0x2FE5 JUMP JUMPDEST PUSH1 0x40 MLOAD DUP1 SWAP2 SUB SWAP1 REVERT JUMPDEST DUP2 DUP2 SUB PUSH1 0x5 PUSH0 DUP6 PUSH20 0xFFFFFFFFFFFFFFFFFFFFFFFFFFFFFFFFFFFFFFFF AND PUSH20 0xFFFFFFFFFFFFFFFFFFFFFFFFFFFFFFFFFFFFFFFF AND DUP2 MSTORE PUSH1 0x20 ADD SWAP1 DUP2 MSTORE PUSH1 0x20 ADD PUSH0 KECCAK256 DUP2 SWAP1 SSTORE POP DUP2 PUSH1 0x4 PUSH0 DUP3 DUP3 SLOAD PUSH2 0x2233 SWAP2 SWAP1 PUSH2 0x2A4C JUMP JUMPDEST SWAP3 POP POP DUP2 SWAP1 SSTORE POP PUSH0 PUSH20 0xFFFFFFFFFFFFFFFFFFFFFFFFFFFFFFFFFFFFFFFF AND DUP4 PUSH20 0xFFFFFFFFFFFFFFFFFFFFFFFFFFFFFFFFFFFFFFFF AND PUSH32 0xDDF252AD1BE2C89B69C2B068FC378DAA952BA7F163C4A11628F55A4DF523B3EF DUP5 PUSH1 0x40 MLOAD PUSH2 0x2297 SWAP2 SWAP1 PUSH2 0x234B JUMP JUMPDEST PUSH1 0x40 MLOAD DUP1 SWAP2 SUB SWAP1 LOG3 POP POP POP JUMP JUMPDEST PUSH0 PUSH1 0x1 DUP1 SLOAD PUSH2 0x22B2 SWAP1 PUSH2 0x2916 JUMP JUMPDEST SWAP1 POP EQ PUSH2 0x22F4 JUMPI PUSH1 0x40 MLOAD PUSH32 0x8C379A000000000000000000000000000000000000000000000000000000000 DUP2 MSTORE PUSH1 0x4 ADD PUSH2 0x22EB SWAP1 PUSH2 0x2AC9 JUMP JUMPDEST PUSH1 0x40 MLOAD DUP1 SWAP2 SUB SWAP1 REVERT JUMPDEST DUP3 PUSH1 0x1 SWAP1 DUP2 PUSH2 0x2303 SWAP2 SWAP1 PUSH2 0x306B JUMP JUMPDEST POP DUP2 PUSH1 0x2 SWAP1 DUP2 PUSH2 0x2313 SWAP2 SWAP1 PUSH2 0x306B JUMP JUMPDEST POP DUP1 PUSH1 0x3 PUSH0 PUSH2 0x100 EXP DUP2 SLOAD DUP2 PUSH1 0xFF MUL NOT AND SWAP1 DUP4 PUSH1 0xFF AND MUL OR SWAP1 SSTORE POP POP POP POP JUMP JUMPDEST PUSH0 DUP2 SWAP1 POP SWAP2 SWAP1 POP JUMP JUMPDEST PUSH2 0x2345 DUP2 PUSH2 0x2333 JUMP JUMPDEST DUP3 MSTORE POP POP JUMP JUMPDEST PUSH0 PUSH1 0x20 DUP3 ADD SWAP1 POP PUSH2 0x235E PUSH0 DUP4 ADD DUP5 PUSH2 0x233C JUMP JUMPDEST SWAP3 SWAP2 POP POP JUMP JUMPDEST PUSH0 DUP2 MLOAD SWAP1 POP SWAP2 SWAP1 POP JUMP JUMPDEST PUSH0 DUP3 DUP3 MSTORE PUSH1 0x20 DUP3 ADD SWAP1 POP SWAP3 SWAP2 POP POP JUMP JUMPDEST DUP3 DUP2 DUP4 MCOPY PUSH0 DUP4 DUP4 ADD MSTORE POP POP POP JUMP JUMPDEST PUSH0 PUSH1 0x1F NOT PUSH1 0x1F DUP4 ADD AND SWAP1 POP SWAP2 SWAP1 POP JUMP JUMPDEST PUSH0 PUSH2 0x23A6 DUP3 PUSH2 0x2364 JUMP JUMPDEST PUSH2 0x23B0 DUP2 DUP6 PUSH2 0x236E JUMP JUMPDEST SWAP4 POP PUSH2 0x23C0 DUP2 DUP6 PUSH1 0x20 DUP7 ADD PUSH2 0x237E JUMP JUMPDEST PUSH2 0x23C9 DUP2 PUSH2 0x238C JUMP JUMPDEST DUP5 ADD SWAP2 POP POP SWAP3 SWAP2 POP POP JUMP JUMPDEST PUSH0 PUSH1 0x20 DUP3 ADD SWAP1 POP DUP2 DUP2 SUB PUSH0 DUP4 ADD MSTORE PUSH2 0x23EC DUP2 DUP5 PUSH2 0x239C JUMP JUMPDEST SWAP1 POP SWAP3 SWAP2 POP POP JUMP JUMPDEST PUSH0 PUSH0 REVERT JUMPDEST PUSH0 PUSH0 REVERT JUMPDEST PUSH2 0x2405 DUP2 PUSH2 0x2333 JUMP JUMPDEST DUP2 EQ PUSH2 0x240F JUMPI PUSH0 PUSH0 REVERT JUMPDEST POP JUMP JUMPDEST PUSH0 DUP2 CALLDATALOAD SWAP1 POP PUSH2 0x2420 DUP2 PUSH2 0x23FC JUMP JUMPDEST SWAP3 SWAP2 POP POP JUMP JUMPDEST PUSH0 PUSH1 0x20 DUP3 DUP5 SUB SLT ISZERO PUSH2 0x243B JUMPI PUSH2 0x243A PUSH2 0x23F4 JUMP JUMPDEST JUMPDEST PUSH0 PUSH2 0x2448 DUP5 DUP3 DUP6 ADD PUSH2 0x2412 JUMP JUMPDEST SWAP2 POP POP SWAP3 SWAP2 POP POP JUMP JUMPDEST PUSH0 PUSH20 0xFFFFFFFFFFFFFFFFFFFFFFFFFFFFFFFFFFFFFFFF DUP3 AND SWAP1 POP SWAP2 SWAP1 POP JUMP JUMPDEST PUSH0 PUSH2 0x247A DUP3 PUSH2 0x2451 JUMP JUMPDEST SWAP1 POP SWAP2 SWAP1 POP JUMP JUMPDEST PUSH2 0x248A DUP2 PUSH2 0x2470 JUMP JUMPDEST DUP2 EQ PUSH2 0x2494 JUMPI PUSH0 PUSH0 REVERT JUMPDEST POP JUMP JUMPDEST PUSH0 DUP2 CALLDATALOAD SWAP1 POP PUSH2 0x24A5 DUP2 PUSH2 0x2481 JUMP JUMPDEST SWAP3 SWAP2 POP POP JUMP JUMPDEST PUSH0 PUSH0 PUSH1 0x40 DUP4 DUP6 SUB SLT ISZERO PUSH2 0x24C1 JUMPI PUSH2 0x24C0 PUSH2 0x23F4 JUMP JUMPDEST JUMPDEST PUSH0 PUSH2 0x24CE DUP6 DUP3 DUP7 ADD PUSH2 0x2497 JUMP JUMPDEST SWAP3 POP POP PUSH1 0x20 PUSH2 0x24DF DUP6 DUP3 DUP7 ADD PUSH2 0x2412 JUMP JUMPDEST SWAP2 POP POP SWAP3 POP SWAP3 SWAP1 POP JUMP JUMPDEST PUSH0 DUP2 ISZERO ISZERO SWAP1 POP SWAP2 SWAP1 POP JUMP JUMPDEST PUSH2 0x24FD DUP2 PUSH2 0x24E9 JUMP JUMPDEST DUP3 MSTORE POP POP JUMP JUMPDEST PUSH0 PUSH1 0x20 DUP3 ADD SWAP1 POP PUSH2 0x2516 PUSH0 DUP4 ADD DUP5 PUSH2 0x24F4 JUMP JUMPDEST SWAP3 SWAP2 POP POP JUMP JUMPDEST PUSH0 PUSH0 PUSH0 PUSH1 0x60 DUP5 DUP7 SUB SLT ISZERO PUSH2 0x2533 JUMPI PUSH2 0x2532 PUSH2 0x23F4 JUMP JUMPDEST JUMPDEST PUSH0 PUSH2 0x2540 DUP7 DUP3 DUP8 ADD PUSH2 0x2497 JUMP JUMPDEST SWAP4 POP POP PUSH1 0x20 PUSH2 0x2551 DUP7 DUP3 DUP8 ADD PUSH2 0x2497 JUMP JUMPDEST SWAP3 POP POP PUSH1 0x40 PUSH2 0x2562 DUP7 DUP3 DUP8 ADD PUSH2 0x2412 JUMP JUMPDEST SWAP2 POP POP SWAP3 POP SWAP3 POP SWAP3 JUMP JUMPDEST PUSH0 PUSH1 0xFF DUP3 AND SWAP1 POP SWAP2 SWAP1 POP JUMP JUMPDEST PUSH2 0x2581 DUP2 PUSH2 0x256C JUMP JUMPDEST DUP3 MSTORE POP POP JUMP JUMPDEST PUSH0 PUSH1 0x20 DUP3 ADD SWAP1 POP PUSH2 0x259A PUSH0 DUP4 ADD DUP5 PUSH2 0x2578 JUMP JUMPDEST SWAP3 SWAP2 POP POP JUMP JUMPDEST PUSH2 0x25A9 DUP2 PUSH2 0x2470 JUMP JUMPDEST DUP3 MSTORE POP POP JUMP JUMPDEST PUSH0 PUSH1 0x20 DUP3 ADD SWAP1 POP PUSH2 0x25C2 PUSH0 DUP4 ADD DUP5 PUSH2 0x25A0 JUMP JUMPDEST SWAP3 SWAP2 POP POP JUMP JUMPDEST PUSH0 PUSH0 REVERT JUMPDEST PUSH0 PUSH0 REVERT JUMPDEST PUSH0 PUSH0 REVERT JUMPDEST PUSH0 PUSH0 DUP4 PUSH1 0x1F DUP5 ADD SLT PUSH2 0x25E9 JUMPI PUSH2 0x25E8 PUSH2 0x25C8 JUMP JUMPDEST JUMPDEST DUP3 CALLDATALOAD SWAP1 POP PUSH8 0xFFFFFFFFFFFFFFFF DUP2 GT ISZERO PUSH2 0x2606 JUMPI PUSH2 0x2605 PUSH2 0x25CC JUMP JUMPDEST JUMPDEST PUSH1 0x20 DUP4 ADD SWAP2 POP DUP4 PUSH1 0x1 DUP3 MUL DUP4 ADD GT ISZERO PUSH2 0x2622 JUMPI PUSH2 0x2621 PUSH2 0x25D0 JUMP JUMPDEST JUMPDEST SWAP3 POP SWAP3 SWAP1 POP JUMP JUMPDEST PUSH0 PUSH0 PUSH0 PUSH0 PUSH0 PUSH0 PUSH0 PUSH0 PUSH0 PUSH0 PUSH1 0xE0 DUP12 DUP14 SUB SLT ISZERO PUSH2 0x2647 JUMPI PUSH2 0x2646 PUSH2 0x23F4 JUMP JUMPDEST JUMPDEST PUSH0 PUSH2 0x2654 DUP14 DUP3 DUP15 ADD PUSH2 0x2497 JUMP JUMPDEST SWAP11 POP POP PUSH1 0x20 PUSH2 0x2665 DUP14 DUP3 DUP15 ADD PUSH2 0x2497 JUMP JUMPDEST SWAP10 POP POP PUSH1 0x40 DUP12 ADD CALLDATALOAD PUSH8 0xFFFFFFFFFFFFFFFF DUP2 GT ISZERO PUSH2 0x2686 JUMPI PUSH2 0x2685 PUSH2 0x23F8 JUMP JUMPDEST JUMPDEST PUSH2 0x2692 DUP14 DUP3 DUP15 ADD PUSH2 0x25D4 JUMP JUMPDEST SWAP9 POP SWAP9 POP POP PUSH1 0x60 DUP12 ADD CALLDATALOAD PUSH8 0xFFFFFFFFFFFFFFFF DUP2 GT ISZERO PUSH2 0x26B5 JUMPI PUSH2 0x26B4 PUSH2 0x23F8 JUMP JUMPDEST JUMPDEST PUSH2 0x26C1 DUP14 DUP3 DUP15 ADD PUSH2 0x25D4 JUMP JUMPDEST SWAP7 POP SWAP7 POP POP PUSH1 0x80 DUP12 ADD CALLDATALOAD PUSH8 0xFFFFFFFFFFFFFFFF DUP2 GT ISZERO PUSH2 0x26E4 JUMPI PUSH2 0x26E3 PUSH2 0x23F8 JUMP JUMPDEST JUMPDEST PUSH2 0x26F0 DUP14 DUP3 DUP15 ADD PUSH2 0x25D4 JUMP JUMPDEST SWAP5 POP SWAP5 POP POP PUSH1 0xA0 PUSH2 0x2703 DUP14 DUP3 DUP15 ADD PUSH2 0x2412 JUMP JUMPDEST SWAP3 POP POP PUSH1 0xC0 PUSH2 0x2714 DUP14 DUP3 DUP15 ADD PUSH2 0x2412 JUMP JUMPDEST SWAP2 POP POP SWAP3 SWAP6 SWAP9 SWAP12 SWAP2 SWAP5 SWAP8 SWAP11 POP SWAP3 SWAP6 SWAP9 POP JUMP JUMPDEST PUSH0 PUSH0 PUSH1 0x40 DUP4 DUP6 SUB SLT ISZERO PUSH2 0x273C JUMPI PUSH2 0x273B PUSH2 0x23F4 JUMP JUMPDEST JUMPDEST PUSH0 PUSH2 0x2749 DUP6 DUP3 DUP7 ADD PUSH2 0x2412 JUMP JUMPDEST SWAP3 POP POP PUSH1 0x20 PUSH2 0x275A DUP6 DUP3 DUP7 ADD PUSH2 0x2497 JUMP JUMPDEST SWAP2 POP POP SWAP3 POP SWAP3 SWAP1 POP JUMP JUMPDEST PUSH0 PUSH1 0x20 DUP3 DUP5 SUB SLT ISZERO PUSH2 0x2779 JUMPI PUSH2 0x2778 PUSH2 0x23F4 JUMP JUMPDEST JUMPDEST PUSH0 PUSH2 0x2786 DUP5 DUP3 DUP6 ADD PUSH2 0x2497 JUMP JUMPDEST SWAP2 POP POP SWAP3 SWAP2 POP POP JUMP JUMPDEST PUSH0 PUSH0 PUSH0 PUSH1 0x60 DUP5 DUP7 SUB SLT ISZERO PUSH2 0x27A6 JUMPI PUSH2 0x27A5 PUSH2 0x23F4 JUMP JUMPDEST JUMPDEST PUSH0 PUSH2 0x27B3 DUP7 DUP3 DUP8 ADD PUSH2 0x2412 JUMP JUMPDEST SWAP4 POP POP PUSH1 0x20 PUSH2 0x27C4 DUP7 DUP3 DUP8 ADD PUSH2 0x2497 JUMP JUMPDEST SWAP3 POP POP PUSH1 0x40 PUSH2 0x27D5 DUP7 DUP3 DUP8 ADD PUSH2 0x2497 JUMP JUMPDEST SWAP2 POP POP SWAP3 POP SWAP3 POP SWAP3 JUMP JUMPDEST PUSH0 PUSH0 PUSH1 0x40 DUP4 DUP6 SUB SLT ISZERO PUSH2 0x27F5 JUMPI PUSH2 0x27F4 PUSH2 0x23F4 JUMP JUMPDEST JUMPDEST PUSH0 PUSH2 0x2802 DUP6 DUP3 DUP7 ADD PUSH2 0x2497 JUMP JUMPDEST SWAP3 POP POP PUSH1 0x20 PUSH2 0x2813 DUP6 DUP3 DUP7 ADD PUSH2 0x2497 JUMP JUMPDEST SWAP2 POP POP SWAP3 POP SWAP3 SWAP1 POP JUMP JUMPDEST PUSH0 DUP2 MLOAD SWAP1 POP PUSH2 0x282B DUP2 PUSH2 0x23FC JUMP JUMPDEST SWAP3 SWAP2 POP POP JUMP JUMPDEST PUSH0 PUSH1 0x20 DUP3 DUP5 SUB SLT ISZERO PUSH2 0x2846 JUMPI PUSH2 0x2845 PUSH2 0x23F4 JUMP JUMPDEST JUMPDEST PUSH0 PUSH2 0x2853 DUP5 DUP3 DUP6 ADD PUSH2 0x281D JUMP JUMPDEST SWAP2 POP POP SWAP3 SWAP2 POP POP JUMP JUMPDEST PUSH32 0x4E487B7100000000000000000000000000000000000000000000000000000000 PUSH0 MSTORE PUSH1 0x32 PUSH1 0x4 MSTORE PUSH1 0x24 PUSH0 REVERT JUMPDEST PUSH32 0x4E487B7100000000000000000000000000000000000000000000000000000000 PUSH0 MSTORE PUSH1 0x11 PUSH1 0x4 MSTORE PUSH1 0x24 PUSH0 REVERT JUMPDEST PUSH0 PUSH2 0x28C0 DUP3 PUSH2 0x2333 JUMP JUMPDEST SWAP2 POP PUSH2 0x28CB DUP4 PUSH2 0x2333 JUMP JUMPDEST SWAP3 POP DUP3 DUP3 ADD SWAP1 POP DUP1 DUP3 GT ISZERO PUSH2 0x28E3 JUMPI PUSH2 0x28E2 PUSH2 0x2889 JUMP JUMPDEST JUMPDEST SWAP3 SWAP2 POP POP JUMP JUMPDEST PUSH32 0x4E487B7100000000000000000000000000000000000000000000000000000000 PUSH0 MSTORE PUSH1 0x22 PUSH1 0x4 MSTORE PUSH1 0x24 PUSH0 REVERT JUMPDEST PUSH0 PUSH1 0x2 DUP3 DIV SWAP1 POP PUSH1 0x1 DUP3 AND DUP1 PUSH2 0x292D JUMPI PUSH1 0x7F DUP3 AND SWAP2 POP JUMPDEST PUSH1 0x20 DUP3 LT DUP2 SUB PUSH2 0x2940 JUMPI PUSH2 0x293F PUSH2 0x28E9 JUMP JUMPDEST JUMPDEST POP SWAP2 SWAP1 POP JUMP JUMPDEST PUSH0 PUSH2 0x2950 DUP3 PUSH2 0x2333 JUMP JUMPDEST SWAP2 POP PUSH2 0x295B DUP4 PUSH2 0x2333 JUMP JUMPDEST SWAP3 POP DUP3 DUP3 MUL PUSH2 0x2969 DUP2 PUSH2 0x2333 JUMP JUMPDEST SWAP2 POP DUP3 DUP3 DIV DUP5 EQ DUP4 ISZERO OR PUSH2 0x2980 JUMPI PUSH2 0x297F PUSH2 0x2889 JUMP JUMPDEST JUMPDEST POP SWAP3 SWAP2 POP POP JUMP JUMPDEST PUSH32 0x4E487B7100000000000000000000000000000000000000000000000000000000 PUSH0 MSTORE PUSH1 0x12 PUSH1 0x4 MSTORE PUSH1 0x24 PUSH0 REVERT JUMPDEST PUSH0 PUSH2 0x29BE DUP3 PUSH2 0x2333 JUMP JUMPDEST SWAP2 POP PUSH2 0x29C9 DUP4 PUSH2 0x2333 JUMP JUMPDEST SWAP3 POP DUP3 PUSH2 0x29D9 JUMPI PUSH2 0x29D8 PUSH2 0x2987 JUMP JUMPDEST JUMPDEST DUP3 DUP3 DIV SWAP1 POP SWAP3 SWAP2 POP POP JUMP JUMPDEST PUSH32 0x494E53554646494349454E545F414C4C4F57414E434500000000000000000000 PUSH0 DUP3 ADD MSTORE POP JUMP JUMPDEST PUSH0 PUSH2 0x2A18 PUSH1 0x16 DUP4 PUSH2 0x236E JUMP JUMPDEST SWAP2 POP PUSH2 0x2A23 DUP3 PUSH2 0x29E4 JUMP JUMPDEST PUSH1 0x20 DUP3 ADD SWAP1 POP SWAP2 SWAP1 POP JUMP JUMPDEST PUSH0 PUSH1 0x20 DUP3 ADD SWAP1 POP DUP2 DUP2 SUB PUSH0 DUP4 ADD MSTORE PUSH2 0x2A45 DUP2 PUSH2 0x2A0C JUMP JUMPDEST SWAP1 POP SWAP2 SWAP1 POP JUMP JUMPDEST PUSH0 PUSH2 0x2A56 DUP3 PUSH2 0x2333 JUMP JUMPDEST SWAP2 POP PUSH2 0x2A61 DUP4 PUSH2 0x2333 JUMP JUMPDEST SWAP3 POP DUP3 DUP3 SUB SWAP1 POP DUP2 DUP2 GT ISZERO PUSH2 0x2A79 JUMPI PUSH2 0x2A78 PUSH2 0x2889 JUMP JUMPDEST JUMPDEST SWAP3 SWAP2 POP POP JUMP JUMPDEST PUSH32 0x414C52454144595F494E495449414C495A454400000000000000000000000000 PUSH0 DUP3 ADD MSTORE POP JUMP JUMPDEST PUSH0 PUSH2 0x2AB3 PUSH1 0x13 DUP4 PUSH2 0x236E JUMP JUMPDEST SWAP2 POP PUSH2 0x2ABE DUP3 PUSH2 0x2A7F JUMP JUMPDEST PUSH1 0x20 DUP3 ADD SWAP1 POP SWAP2 SWAP1 POP JUMP JUMPDEST PUSH0 PUSH1 0x20 DUP3 ADD SWAP1 POP DUP2 DUP2 SUB PUSH0 DUP4 ADD MSTORE PUSH2 0x2AE0 DUP2 PUSH2 0x2AA7 JUMP JUMPDEST SWAP1 POP SWAP2 SWAP1 POP JUMP JUMPDEST PUSH0 DUP3 SWAP1 POP SWAP3 SWAP2 POP POP JUMP JUMPDEST PUSH32 0x4E487B7100000000000000000000000000000000000000000000000000000000 PUSH0 MSTORE PUSH1 0x41 PUSH1 0x4 MSTORE PUSH1 0x24 PUSH0 REVERT JUMPDEST PUSH0 DUP2 SWAP1 POP DUP2 PUSH0 MSTORE PUSH1 0x20 PUSH0 KECCAK256 SWAP1 POP SWAP2 SWAP1 POP JUMP JUMPDEST PUSH0 PUSH1 0x20 PUSH1 0x1F DUP4 ADD DIV SWAP1 POP SWAP2 SWAP1 POP JUMP JUMPDEST PUSH0 DUP3 DUP3 SHL SWAP1 POP SWAP3 SWAP2 POP POP JUMP JUMPDEST PUSH0 PUSH1 0x8 DUP4 MUL PUSH2 0x2B7A PUSH32 0xFFFFFFFFFFFFFFFFFFFFFFFFFFFFFFFFFFFFFFFFFFFFFFFFFFFFFFFFFFFFFFFF DUP3 PUSH2 0x2B3F JUMP JUMPDEST PUSH2 0x2B84 DUP7 DUP4 PUSH2 0x2B3F JUMP JUMPDEST SWAP6 POP DUP1 NOT DUP5 AND SWAP4 POP DUP1 DUP7 AND DUP5 OR SWAP3 POP POP POP SWAP4 SWAP3 POP POP POP JUMP JUMPDEST PUSH0 DUP2 SWAP1 POP SWAP2 SWAP1 POP JUMP JUMPDEST PUSH0 PUSH2 0x2BBF PUSH2 0x2BBA PUSH2 0x2BB5 DUP5 PUSH2 0x2333 JUMP JUMPDEST PUSH2 0x2B9C JUMP JUMPDEST PUSH2 0x2333 JUMP JUMPDEST SWAP1 POP SWAP2 SWAP1 POP JUMP JUMPDEST PUSH0 DUP2 SWAP1 POP SWAP2 SWAP1 POP JUMP JUMPDEST PUSH2 0x2BD8 DUP4 PUSH2 0x2BA5 JUMP JUMPDEST PUSH2 0x2BEC PUSH2 0x2BE4 DUP3 PUSH2 0x2BC6 JUMP JUMPDEST DUP5 DUP5 SLOAD PUSH2 0x2B4B JUMP JUMPDEST DUP3 SSTORE POP POP POP POP JUMP JUMPDEST PUSH0 PUSH0 SWAP1 POP SWAP1 JUMP JUMPDEST PUSH2 0x2C03 PUSH2 0x2BF4 JUMP JUMPDEST PUSH2 0x2C0E DUP2 DUP5 DUP5 PUSH2 0x2BCF JUMP JUMPDEST POP POP POP JUMP JUMPDEST JUMPDEST DUP2 DUP2 LT ISZERO PUSH2 0x2C31 JUMPI PUSH2 0x2C26 PUSH0 DUP3 PUSH2 0x2BFB JUMP JUMPDEST PUSH1 0x1 DUP2 ADD SWAP1 POP PUSH2 0x2C14 JUMP JUMPDEST POP POP JUMP JUMPDEST PUSH1 0x1F DUP3 GT ISZERO PUSH2 0x2C76 JUMPI PUSH2 0x2C47 DUP2 PUSH2 0x2B1E JUMP JUMPDEST PUSH2 0x2C50 DUP5 PUSH2 0x2B30 JUMP JUMPDEST DUP2 ADD PUSH1 0x20 DUP6 LT ISZERO PUSH2 0x2C5F JUMPI DUP2 SWAP1 POP JUMPDEST PUSH2 0x2C73 PUSH2 0x2C6B DUP6 PUSH2 0x2B30 JUMP JUMPDEST DUP4 ADD DUP3 PUSH2 0x2C13 JUMP JUMPDEST POP POP JUMPDEST POP POP POP JUMP JUMPDEST PUSH0 DUP3 DUP3 SHR SWAP1 POP SWAP3 SWAP2 POP POP JUMP JUMPDEST PUSH0 PUSH2 0x2C96 PUSH0 NOT DUP5 PUSH1 0x8 MUL PUSH2 0x2C7B JUMP JUMPDEST NOT DUP1 DUP4 AND SWAP2 POP POP SWAP3 SWAP2 POP POP JUMP JUMPDEST PUSH0 PUSH2 0x2CAE DUP4 DUP4 PUSH2 0x2C87 JUMP JUMPDEST SWAP2 POP DUP3 PUSH1 0x2 MUL DUP3 OR SWAP1 POP SWAP3 SWAP2 POP POP JUMP JUMPDEST PUSH2 0x2CC8 DUP4 DUP4 PUSH2 0x2AE7 JUMP JUMPDEST PUSH8 0xFFFFFFFFFFFFFFFF DUP2 GT ISZERO PUSH2 0x2CE1 JUMPI PUSH2 0x2CE0 PUSH2 0x2AF1 JUMP JUMPDEST JUMPDEST PUSH2 0x2CEB DUP3 SLOAD PUSH2 0x2916 JUMP JUMPDEST PUSH2 0x2CF6 DUP3 DUP3 DUP6 PUSH2 0x2C35 JUMP JUMPDEST PUSH0 PUSH1 0x1F DUP4 GT PUSH1 0x1 DUP2 EQ PUSH2 0x2D23 JUMPI PUSH0 DUP5 ISZERO PUSH2 0x2D11 JUMPI DUP3 DUP8 ADD CALLDATALOAD SWAP1 POP JUMPDEST PUSH2 0x2D1B DUP6 DUP3 PUSH2 0x2CA3 JUMP JUMPDEST DUP7 SSTORE POP PUSH2 0x2D82 JUMP JUMPDEST PUSH1 0x1F NOT DUP5 AND PUSH2 0x2D31 DUP7 PUSH2 0x2B1E JUMP JUMPDEST PUSH0 JUMPDEST DUP3 DUP2 LT ISZERO PUSH2 0x2D58 JUMPI DUP5 DUP10 ADD CALLDATALOAD DUP3 SSTORE PUSH1 0x1 DUP3 ADD SWAP2 POP PUSH1 0x20 DUP6 ADD SWAP5 POP PUSH1 0x20 DUP2 ADD SWAP1 POP PUSH2 0x2D33 JUMP JUMPDEST DUP7 DUP4 LT ISZERO PUSH2 0x2D75 JUMPI DUP5 DUP10 ADD CALLDATALOAD PUSH2 0x2D71 PUSH1 0x1F DUP10 AND DUP3 PUSH2 0x2C87 JUMP JUMPDEST DUP4 SSTORE POP JUMPDEST PUSH1 0x1 PUSH1 0x2 DUP9 MUL ADD DUP9 SSTORE POP POP POP JUMPDEST POP POP POP POP POP POP POP JUMP JUMPDEST PUSH0 PUSH1 0x40 DUP3 ADD SWAP1 POP PUSH2 0x2D9E PUSH0 DUP4 ADD DUP6 PUSH2 0x25A0 JUMP JUMPDEST PUSH2 0x2DAB PUSH1 0x20 DUP4 ADD DUP5 PUSH2 0x233C JUMP JUMPDEST SWAP4 SWAP3 POP POP POP JUMP JUMPDEST PUSH2 0x2DBB DUP2 PUSH2 0x24E9 JUMP JUMPDEST DUP2 EQ PUSH2 0x2DC5 JUMPI PUSH0 PUSH0 REVERT JUMPDEST POP JUMP JUMPDEST PUSH0 DUP2 MLOAD SWAP1 POP PUSH2 0x2DD6 DUP2 PUSH2 0x2DB2 JUMP JUMPDEST SWAP3 SWAP2 POP POP JUMP JUMPDEST PUSH0 PUSH1 0x20 DUP3 DUP5 SUB SLT ISZERO PUSH2 0x2DF1 JUMPI PUSH2 0x2DF0 PUSH2 0x23F4 JUMP JUMPDEST JUMPDEST PUSH0 PUSH2 0x2DFE DUP5 DUP3 DUP6 ADD PUSH2 0x2DC8 JUMP JUMPDEST SWAP2 POP POP SWAP3 SWAP2 POP POP JUMP JUMPDEST PUSH32 0x5A45524F5F534841524553000000000000000000000000000000000000000000 PUSH0 DUP3 ADD MSTORE POP JUMP JUMPDEST PUSH0 PUSH2 0x2E3B PUSH1 0xB DUP4 PUSH2 0x236E JUMP JUMPDEST SWAP2 POP PUSH2 0x2E46 DUP3 PUSH2 0x2E07 JUMP JUMPDEST PUSH1 0x20 DUP3 ADD SWAP1 POP SWAP2 SWAP1 POP JUMP JUMPDEST PUSH0 PUSH1 0x20 DUP3 ADD SWAP1 POP DUP2 DUP2 SUB PUSH0 DUP4 ADD MSTORE PUSH2 0x2E68 DUP2 PUSH2 0x2E2F JUMP JUMPDEST SWAP1 POP SWAP2 SWAP1 POP JUMP JUMPDEST PUSH32 0x5A45524F5F415353455453000000000000000000000000000000000000000000 PUSH0 DUP3 ADD MSTORE POP JUMP JUMPDEST PUSH0 PUSH2 0x2EA3 PUSH1 0xB DUP4 PUSH2 0x236E JUMP JUMPDEST SWAP2 POP PUSH2 0x2EAE DUP3 PUSH2 0x2E6F JUMP JUMPDEST PUSH1 0x20 DUP3 ADD SWAP1 POP SWAP2 SWAP1 POP JUMP JUMPDEST PUSH0 PUSH1 0x20 DUP3 ADD SWAP1 POP DUP2 DUP2 SUB PUSH0 DUP4 ADD MSTORE PUSH2 0x2ED0 DUP2 PUSH2 0x2E97 JUMP JUMPDEST SWAP1 POP SWAP2 SWAP1 POP JUMP JUMPDEST PUSH0 PUSH1 0x60 DUP3 ADD SWAP1 POP PUSH2 0x2EEA PUSH0 DUP4 ADD DUP7 PUSH2 0x25A0 JUMP JUMPDEST PUSH2 0x2EF7 PUSH1 0x20 DUP4 ADD DUP6 PUSH2 0x25A0 JUMP JUMPDEST PUSH2 0x2F04 PUSH1 0x40 DUP4 ADD DUP5 PUSH2 0x233C JUMP JUMPDEST SWAP5 SWAP4 POP POP POP POP JUMP JUMPDEST PUSH0 PUSH1 0x40 DUP3 ADD SWAP1 POP PUSH2 0x2F1F PUSH0 DUP4 ADD DUP6 PUSH2 0x233C JUMP JUMPDEST PUSH2 0x2F2C PUSH1 0x20 DUP4 ADD DUP5 PUSH2 0x233C JUMP JUMPDEST SWAP4 SWAP3 POP POP POP JUMP JUMPDEST PUSH32 0x5A45524F5F544F00000000000000000000000000000000000000000000000000 PUSH0 DUP3 ADD MSTORE POP JUMP JUMPDEST PUSH0 PUSH2 0x2F67 PUSH1 0x7 DUP4 PUSH2 0x236E JUMP JUMPDEST SWAP2 POP PUSH2 0x2F72 DUP3 PUSH2 0x2F33 JUMP JUMPDEST PUSH1 0x20 DUP3 ADD SWAP1 POP SWAP2 SWAP1 POP JUMP JUMPDEST PUSH0 PUSH1 0x20 DUP3 ADD SWAP1 POP DUP2 DUP2 SUB PUSH0 DUP4 ADD MSTORE PUSH2 0x2F94 DUP2 PUSH2 0x2F5B JUMP JUMPDEST SWAP1 POP SWAP2 SWAP1 POP JUMP JUMPDEST PUSH32 0x494E53554646494349454E545F42414C414E4345000000000000000000000000 PUSH0 DUP3 ADD MSTORE POP JUMP JUMPDEST PUSH0 PUSH2 0x2FCF PUSH1 0x14 DUP4 PUSH2 0x236E JUMP JUMPDEST SWAP2 POP PUSH2 0x2FDA DUP3 PUSH2 0x2F9B JUMP JUMPDEST PUSH1 0x20 DUP3 ADD SWAP1 POP SWAP2 SWAP1 POP JUMP JUMPDEST PUSH0 PUSH1 0x20 DUP3 ADD SWAP1 POP DUP2 DUP2 SUB PUSH0 DUP4 ADD MSTORE PUSH2 0x2FFC DUP2 PUSH2 0x2FC3 JUMP JUMPDEST SWAP1 POP SWAP2 SWAP1 POP JUMP JUMPDEST PUSH32 0x5A45524F5F415353455400000000000000000000000000000000000000000000 PUSH0 DUP3 ADD MSTORE POP JUMP JUMPDEST PUSH0 PUSH2 0x3037 PUSH1 0xA DUP4 PUSH2 0x236E JUMP JUMPDEST SWAP2 POP PUSH2 0x3042 DUP3 PUSH2 0x3003 JUMP JUMPDEST PUSH1 0x20 DUP3 ADD SWAP1 POP SWAP2 SWAP1 POP JUMP JUMPDEST PUSH0 PUSH1 0x20 DUP3 ADD SWAP1 POP DUP2 DUP2 SUB PUSH0 DUP4 ADD MSTORE PUSH2 0x3064 DUP2 PUSH2 0x302B JUMP JUMPDEST SWAP1 POP SWAP2 SWAP1 POP JUMP JUMPDEST PUSH2 0x3074 DUP3 PUSH2 0x2364 JUMP JUMPDEST PUSH8 0xFFFFFFFFFFFFFFFF DUP2 GT ISZERO PUSH2 0x308D JUMPI PUSH2 0x308C PUSH2 0x2AF1 JUMP JUMPDEST JUMPDEST PUSH2 0x3097 DUP3 SLOAD PUSH2 0x2916 JUMP JUMPDEST PUSH2 0x30A2 DUP3 DUP3 DUP6 PUSH2 0x2C35 JUMP JUMPDEST PUSH0 PUSH1 0x20 SWAP1 POP PUSH1 0x1F DUP4 GT PUSH1 0x1 DUP2 EQ PUSH2 0x30D3 JUMPI PUSH0 DUP5 ISZERO PUSH2 0x30C1 JUMPI DUP3 DUP8 ADD MLOAD SWAP1 POP JUMPDEST PUSH2 0x30CB DUP6 DUP3 PUSH2 0x2CA3 JUMP JUMPDEST DUP7 SSTORE POP PUSH2 0x3132 JUMP JUMPDEST PUSH1 0x1F NOT DUP5 AND PUSH2 0x30E1 DUP7 PUSH2 0x2B1E JUMP JUMPDEST PUSH0 JUMPDEST DUP3 DUP2 LT ISZERO PUSH2 0x3108 JUMPI DUP5 DUP10 ADD MLOAD DUP3 SSTORE PUSH1 0x1 DUP3 ADD SWAP2 POP PUSH1 0x20 DUP6 ADD SWAP5 POP PUSH1 0x20 DUP2 ADD SWAP1 POP PUSH2 0x30E3 JUMP JUMPDEST DUP7 DUP4 LT ISZERO PUSH2 0x3125 JUMPI DUP5 DUP10 ADD MLOAD PUSH2 0x3121 PUSH1 0x1F DUP10 AND DUP3 PUSH2 0x2C87 JUMP JUMPDEST DUP4 SSTORE POP JUMPDEST PUSH1 0x1 PUSH1 0x2 DUP9 MUL ADD DUP9 SSTORE POP POP POP JUMPDEST POP POP POP POP POP POP JUMP INVALID LOG2 PUSH5 0x6970667358 0x22 SLT KECCAK256 DUP7 TIMESTAMP 0x4F GASLIMIT ISZERO 0xCB SAR 0xA6 0x29 GASLIMIT SWAP10 JUMP 0xC AND PUSH17 0x880E0296CDCF3C96655CE6EC0DB428900D PUSH5 0x736F6C6343 STOP ADDMOD 0x1E STOP CALLER "
				},
				"gasEstimates": {
					"creation": {
						"codeDepositCost": "2531200",
						"executionCost": "2731",
						"totalCost": "2533931"
					},
					"external": {
						"addMarket(address)": "75665",
						"allocateToMarket(address,uint256)": "infinite",
						"allowance(address,address)": "infinite",
						"approve(address,uint256)": "infinite",
						"apy()": "2493",
						"asset()": "2561",
						"balanceOf(address)": "2897",
						"convertToAssets(uint256)": "infinite",
						"convertToShares(uint256)": "infinite",
						"deallocateToMarket(address,uint256)": "infinite",
						"decimals()": "2585",
						"deposit(uint256,address)": "infinite",
						"idleLiquidity()": "infinite",
						"initialize(address,address,string,string,string,uint256,uint256)": "infinite",
						"isMarket(address)": "2879",
						"markets(uint256)": "5011",
						"minDeposit()": "2470",
						"mint(uint256,address)": "infinite",
						"name()": "infinite",
						"owner()": "2648",
						"ownershipTransfer(address)": "27106",
						"redeem(uint256,address,address)": "infinite",
						"symbol()": "infinite",
						"title()": "infinite",
						"totalAssets()": "infinite",
						"totalSupply()": "2500",
						"transfer(address,uint256)": "infinite",
						"transferFrom(address,address,uint256)": "infinite",
						"withdraw(uint256,address,address)": "infinite"
					}
				},
				"methodIdentifiers": {
					"addMarket(address)": "93e30633",
					"allocateToMarket(address,uint256)": "66adf46a",
					"allowance(address,address)": "dd62ed3e",
					"approve(address,uint256)": "095ea7b3",
					"apy()": "3bcfc4b8",
					"asset()": "38d52e0f",
					"balanceOf(address)": "70a08231",
					"convertToAssets(uint256)": "07a2d13a",
					"convertToShares(uint256)": "c6e6f592",
					"deallocateToMarket(address,uint256)": "c30e9811",
					"decimals()": "313ce567",
					"deposit(uint256,address)": "6e553f65",
					"idleLiquidity()": "92f6b31c",
					"initialize(address,address,string,string,string,uint256,uint256)": "3dce8b38",
					"isMarket(address)": "6ec934da",
					"markets(uint256)": "b1283e77",
					"minDeposit()": "41b3d185",
					"mint(uint256,address)": "94bf804d",
					"name()": "06fdde03",
					"owner()": "8da5cb5b",
					"ownershipTransfer(address)": "d3a417a2",
					"redeem(uint256,address,address)": "ba087652",
					"symbol()": "95d89b41",
					"title()": "4a79d50c",
					"totalAssets()": "01e1d114",
					"totalSupply()": "18160ddd",
					"transfer(address,uint256)": "a9059cbb",
					"transferFrom(address,address,uint256)": "23b872dd",
					"withdraw(uint256,address,address)": "b460af94"
				}
			},
			"storageLayout": {
				"storage": [
					{
						"astId": 1341,
						"contract": "contracts/protocol/Vault.sol:Vault",
						"label": "_initialized",
						"offset": 0,
						"slot": "0",
						"type": "t_bool"
					},
					{
						"astId": 1344,
						"contract": "contracts/protocol/Vault.sol:Vault",
						"label": "_initializing",
						"offset": 1,
						"slot": "0",
						"type": "t_bool"
					},
					{
						"astId": 7,
						"contract": "contracts/protocol/Vault.sol:Vault",
						"label": "owner",
						"offset": 2,
						"slot": "0",
						"type": "t_address"
					},
					{
						"astId": 537,
						"contract": "contracts/protocol/Vault.sol:Vault",
						"label": "_name",
						"offset": 0,
						"slot": "1",
						"type": "t_string_storage"
					},
					{
						"astId": 539,
						"contract": "contracts/protocol/Vault.sol:Vault",
						"label": "_symbol",
						"offset": 0,
						"slot": "2",
						"type": "t_string_storage"
					},
					{
						"astId": 541,
						"contract": "contracts/protocol/Vault.sol:Vault",
						"label": "_decimals",
						"offset": 0,
						"slot": "3",
						"type": "t_uint8"
					},
					{
						"astId": 544,
						"contract": "contracts/protocol/Vault.sol:Vault",
						"label": "_totalSupply",
						"offset": 0,
						"slot": "4",
						"type": "t_uint256"
					},
					{
						"astId": 548,
						"contract": "contracts/protocol/Vault.sol:Vault",
						"label": "_balances",
						"offset": 0,
						"slot": "5",
						"type": "t_mapping(t_address,t_uint256)"
					},
					{
						"astId": 554,
						"contract": "contracts/protocol/Vault.sol:Vault",
						"label": "_allowances",
						"offset": 0,
						"slot": "6",
						"type": "t_mapping(t_address,t_mapping(t_address,t_uint256))"
					},
					{
						"astId": 920,
						"contract": "contracts/protocol/Vault.sol:Vault",
						"label": "_asset",
						"offset": 0,
						"slot": "7",
						"type": "t_contract(IERC20)137"
					},
					{
						"astId": 298,
						"contract": "contracts/protocol/Vault.sol:Vault",
						"label": "title",
						"offset": 0,
						"slot": "8",
						"type": "t_string_storage"
					},
					{
						"astId": 300,
						"contract": "contracts/protocol/Vault.sol:Vault",
						"label": "apy",
						"offset": 0,
						"slot": "9",
						"type": "t_uint256"
					},
					{
						"astId": 302,
						"contract": "contracts/protocol/Vault.sol:Vault",
						"label": "minDeposit",
						"offset": 0,
						"slot": "10",
						"type": "t_uint256"
					},
					{
						"astId": 305,
						"contract": "contracts/protocol/Vault.sol:Vault",
						"label": "markets",
						"offset": 0,
						"slot": "11",
						"type": "t_array(t_address)dyn_storage"
					},
					{
						"astId": 309,
						"contract": "contracts/protocol/Vault.sol:Vault",
						"label": "isMarket",
						"offset": 0,
						"slot": "12",
						"type": "t_mapping(t_address,t_bool)"
					}
				],
				"types": {
					"t_address": {
						"encoding": "inplace",
						"label": "address",
						"numberOfBytes": "20"
					},
					"t_array(t_address)dyn_storage": {
						"base": "t_address",
						"encoding": "dynamic_array",
						"label": "address[]",
						"numberOfBytes": "32"
					},
					"t_bool": {
						"encoding": "inplace",
						"label": "bool",
						"numberOfBytes": "1"
					},
					"t_contract(IERC20)137": {
						"encoding": "inplace",
						"label": "contract IERC20",
						"numberOfBytes": "20"
					},
					"t_mapping(t_address,t_bool)": {
						"encoding": "mapping",
						"key": "t_address",
						"label": "mapping(address => bool)",
						"numberOfBytes": "32",
						"value": "t_bool"
					},
					"t_mapping(t_address,t_mapping(t_address,t_uint256))": {
						"encoding": "mapping",
						"key": "t_address",
						"label": "mapping(address => mapping(address => uint256))",
						"numberOfBytes": "32",
						"value": "t_mapping(t_address,t_uint256)"
					},
					"t_mapping(t_address,t_uint256)": {
						"encoding": "mapping",
						"key": "t_address",
						"label": "mapping(address => uint256)",
						"numberOfBytes": "32",
						"value": "t_uint256"
					},
					"t_string_storage": {
						"encoding": "bytes",
						"label": "string",
						"numberOfBytes": "32"
					},
					"t_uint256": {
						"encoding": "inplace",
						"label": "uint256",
						"numberOfBytes": "32"
					},
					"t_uint8": {
						"encoding": "inplace",
						"label": "uint8",
						"numberOfBytes": "1"
					}
				}
			},
			"userdoc": {
				"kind": "user",
				"methods": {
					"allowance(address,address)": {
						"notice": "Текущий allowance от owner к spender."
					},
					"approve(address,uint256)": {
						"notice": "Установка allowance для spender."
					},
					"asset()": {
						"notice": "Адрес базового актива."
					},
					"balanceOf(address)": {
						"notice": "Баланс аккаунта."
					},
					"convertToAssets(uint256)": {
						"notice": "Конвертация shares в активы."
					},
					"mint(uint256,address)": {
						"notice": "Выпуск shares за соответствующее количество активов."
					},
					"redeem(uint256,address,address)": {
						"notice": "Погашение shares в актив."
					},
					"totalAssets()": {
						"notice": "Общие активы под управлением."
					},
					"totalSupply()": {
						"notice": "Общее количество токенов."
					},
					"transfer(address,uint256)": {
						"notice": "Перевод токенов получателю."
					},
					"transferFrom(address,address,uint256)": {
						"notice": "Перевод токенов по allowance."
					}
				},
				"version": 1
			}
		}
	}
}