{
	"protocol/PriceOracle.sol": {
		"PriceOracle": {
			"abi": [
				{
					"inputs": [],
					"name": "PRICE_SCALE",
					"outputs": [
						{
							"internalType": "uint256",
							"name": "",
							"type": "uint256"
						}
					],
					"stateMutability": "view",
					"type": "function"
				},
				{
					"inputs": [
						{
							"internalType": "address",
							"name": "owner_",
							"type": "address"
						}
					],
					"name": "initialize",
					"outputs": [],
					"stateMutability": "nonpayable",
					"type": "function"
				},
				{
					"inputs": [],
					"name": "owner",
					"outputs": [
						{
							"internalType": "address",
							"name": "",
							"type": "address"
						}
					],
					"stateMutability": "view",
					"type": "function"
				},
				{
					"inputs": [
						{
							"internalType": "address",
							"name": "newOwner",
							"type": "address"
						}
					],
					"name": "ownershipTransfer",
					"outputs": [],
					"stateMutability": "nonpayable",
					"type": "function"
				},
				{
					"inputs": [
						{
							"internalType": "address",
							"name": "",
							"type": "address"
						}
					],
					"name": "prices",
					"outputs": [
						{
							"internalType": "uint256",
							"name": "",
							"type": "uint256"
						}
					],
					"stateMutability": "view",
					"type": "function"
				},
				{
					"inputs": [],
					"name": "proxiableUUID",
					"outputs": [
						{
							"internalType": "bytes32",
							"name": "",
							"type": "bytes32"
						}
					],
					"stateMutability": "view",
					"type": "function"
				},
				{
					"inputs": [
						{
							"internalType": "address",
							"name": "token",
							"type": "address"
						},
						{
							"internalType": "uint256",
							"name": "price",
							"type": "uint256"
						}
					],
					"name": "setPrice",
					"outputs": [],
					"stateMutability": "nonpayable",
					"type": "function"
				},
				{
					"inputs": [
						{
							"internalType": "address",
							"name": "newImplementation",
							"type": "address"
						}
					],
					"name": "upgradeTo",
					"outputs": [],
					"stateMutability": "nonpayable",
					"type": "function"
				},
				{
					"inputs": [
						{
							"internalType": "address",
							"name": "newImplementation",
							"type": "address"
						},
						{
							"internalType": "bytes",
							"name": "data",
							"type": "bytes"
						}
					],
					"name": "upgradeToAndCall",
					"outputs": [],
					"stateMutability": "payable",
					"type": "function"
				}
			],
			"devdoc": {
				"kind": "dev",
				"methods": {},
				"version": 1
			},
			"evm": {
				"assembly": "    /* \"protocol/PriceOracle.sol\":167:657  contract PriceOracle is Ownable, UUPSUpgradeable {... */\n  mstore(0x40, 0xa0)\n    /* \"proxy/UUPSUpgradeable.sol\":1021:1025  this */\n  address\n    /* \"proxy/UUPSUpgradeable.sol\":978:1026  address private immutable __self = address(this) */\n  0xffffffffffffffffffffffffffffffffffffffff\n  and\n  0x80\n  swap1\n  0xffffffffffffffffffffffffffffffffffffffff\n  and\n  dup2\n  mstore\n  pop\n    /* \"protocol/PriceOracle.sol\":167:657  contract PriceOracle is Ownable, UUPSUpgradeable {... */\n  callvalue\n  dup1\n  iszero\n  tag_1\n  jumpi\n  revert(0x00, 0x00)\ntag_1:\n  pop\n  mload(0x80)\n  codecopy(0x00, dataOffset(sub_0), dataSize(sub_0))\n  0x00\n  assignImmutable(\"0xcfe93e00cbaaf37bad5f0b2ff3ab98072b4f3a2656e148b3bcccb553f2fa678f\")\n  return(0x00, dataSize(sub_0))\nstop\n\nsub_0: assembly {\n        /* \"protocol/PriceOracle.sol\":167:657  contract PriceOracle is Ownable, UUPSUpgradeable {... */\n      mstore(0x40, 0x80)\n      jumpi(tag_1, lt(calldatasize, 0x04))\n      shr(0xe0, calldataload(0x00))\n      dup1\n      0x8da5cb5b\n      gt\n      tag_11\n      jumpi\n      dup1\n      0x8da5cb5b\n      eq\n      tag_6\n      jumpi\n      dup1\n      0xc33f59d3\n      eq\n      tag_7\n      jumpi\n      dup1\n      0xc4d66de8\n      eq\n      tag_8\n      jumpi\n      dup1\n      0xcfed246b\n      eq\n      tag_9\n      jumpi\n      dup1\n      0xd3a417a2\n      eq\n      tag_10\n      jumpi\n      jump(tag_1)\n    tag_11:\n      dup1\n      0xe4768b\n      eq\n      tag_2\n      jumpi\n      dup1\n      0x3659cfe6\n      eq\n      tag_3\n      jumpi\n      dup1\n      0x4f1ef286\n      eq\n      tag_4\n      jumpi\n      dup1\n      0x52d1902d\n      eq\n      tag_5\n      jumpi\n    tag_1:\n      revert(0x00, 0x00)\n        /* \"protocol/PriceOracle.sol\":415:584  function setPrice(address token, uint price) external onlyOwner {... */\n    tag_2:\n      callvalue\n      dup1\n      iszero\n      tag_12\n      jumpi\n      revert(0x00, 0x00)\n    tag_12:\n      pop\n      tag_13\n      0x04\n      dup1\n      calldatasize\n      sub\n      dup2\n      add\n      swap1\n      tag_14\n      swap2\n      swap1\n      tag_15\n      jump\t// in\n    tag_14:\n      tag_16\n      jump\t// in\n    tag_13:\n      stop\n        /* \"proxy/UUPSUpgradeable.sol\":1745:1927  function upgradeTo(address newImplementation) external onlyProxy {... */\n    tag_3:\n      callvalue\n      dup1\n      iszero\n      tag_17\n      jumpi\n      revert(0x00, 0x00)\n    tag_17:\n      pop\n      tag_18\n      0x04\n      dup1\n      calldatasize\n      sub\n      dup2\n      add\n      swap1\n      tag_19\n      swap2\n      swap1\n      tag_20\n      jump\t// in\n    tag_19:\n      tag_21\n      jump\t// in\n    tag_18:\n      stop\n        /* \"proxy/UUPSUpgradeable.sol\":2028:2240  function upgradeToAndCall(address newImplementation, bytes calldata data) external payable onlyProxy {... */\n    tag_4:\n      tag_22\n      0x04\n      dup1\n      calldatasize\n      sub\n      dup2\n      add\n      swap1\n      tag_23\n      swap2\n      swap1\n      tag_24\n      jump\t// in\n    tag_23:\n      tag_25\n      jump\t// in\n    tag_22:\n      stop\n        /* \"proxy/UUPSUpgradeable.sol\":1577:1690  function proxiableUUID() external view notDelegated returns (bytes32) {... */\n    tag_5:\n      callvalue\n      dup1\n      iszero\n      tag_26\n      jumpi\n      revert(0x00, 0x00)\n    tag_26:\n      pop\n      tag_27\n      tag_28\n      jump\t// in\n    tag_27:\n      mload(0x40)\n      tag_29\n      swap2\n      swap1\n      tag_30\n      jump\t// in\n    tag_29:\n      mload(0x40)\n      dup1\n      swap2\n      sub\n      swap1\n      return\n        /* \"acess/Ownable.sol\":133:153  address public owner */\n    tag_6:\n      callvalue\n      dup1\n      iszero\n      tag_31\n      jumpi\n      revert(0x00, 0x00)\n    tag_31:\n      pop\n      tag_32\n      tag_33\n      jump\t// in\n    tag_32:\n      mload(0x40)\n      tag_34\n      swap2\n      swap1\n      tag_35\n      jump\t// in\n    tag_34:\n      mload(0x40)\n      dup1\n      swap2\n      sub\n      swap1\n      return\n        /* \"protocol/PriceOracle.sol\":222:261  uint public constant PRICE_SCALE = 1e18 */\n    tag_7:\n      callvalue\n      dup1\n      iszero\n      tag_36\n      jumpi\n      revert(0x00, 0x00)\n    tag_36:\n      pop\n      tag_37\n      tag_38\n      jump\t// in\n    tag_37:\n      mload(0x40)\n      tag_39\n      swap2\n      swap1\n      tag_40\n      jump\t// in\n    tag_39:\n      mload(0x40)\n      dup1\n      swap2\n      sub\n      swap1\n      return\n        /* \"protocol/PriceOracle.sol\":313:409  function initialize(address owner_) external initializer {... */\n    tag_8:\n      callvalue\n      dup1\n      iszero\n      tag_41\n      jumpi\n      revert(0x00, 0x00)\n    tag_41:\n      pop\n      tag_42\n      0x04\n      dup1\n      calldatasize\n      sub\n      dup2\n      add\n      swap1\n      tag_43\n      swap2\n      swap1\n      tag_20\n      jump\t// in\n    tag_43:\n      tag_44\n      jump\t// in\n    tag_42:\n      stop\n        /* \"protocol/PriceOracle.sol\":268:306  mapping(address => uint) public prices */\n    tag_9:\n      callvalue\n      dup1\n      iszero\n      tag_45\n      jumpi\n      revert(0x00, 0x00)\n    tag_45:\n      pop\n      tag_46\n      0x04\n      dup1\n      calldatasize\n      sub\n      dup2\n      add\n      swap1\n      tag_47\n      swap2\n      swap1\n      tag_20\n      jump\t// in\n    tag_47:\n      tag_48\n      jump\t// in\n    tag_46:\n      mload(0x40)\n      tag_49\n      swap2\n      swap1\n      tag_40\n      jump\t// in\n    tag_49:\n      mload(0x40)\n      dup1\n      swap2\n      sub\n      swap1\n      return\n        /* \"acess/Ownable.sol\":394:532  function ownershipTransfer(address newOwner) external onlyOwner {... */\n    tag_10:\n      callvalue\n      dup1\n      iszero\n      tag_50\n      jumpi\n      revert(0x00, 0x00)\n    tag_50:\n      pop\n      tag_51\n      0x04\n      dup1\n      calldatasize\n      sub\n      dup2\n      add\n      swap1\n      tag_52\n      swap2\n      swap1\n      tag_20\n      jump\t// in\n    tag_52:\n      tag_53\n      jump\t// in\n    tag_51:\n      stop\n        /* \"protocol/PriceOracle.sol\":415:584  function setPrice(address token, uint price) external onlyOwner {... */\n    tag_16:\n        /* \"acess/Ownable.sol\":213:218  owner */\n      0x00\n      0x02\n      swap1\n      sload\n      swap1\n      0x0100\n      exp\n      swap1\n      div\n      0xffffffffffffffffffffffffffffffffffffffff\n      and\n        /* \"acess/Ownable.sol\":199:218  msg.sender == owner */\n      0xffffffffffffffffffffffffffffffffffffffff\n      and\n        /* \"acess/Ownable.sol\":199:209  msg.sender */\n      caller\n        /* \"acess/Ownable.sol\":199:218  msg.sender == owner */\n      0xffffffffffffffffffffffffffffffffffffffff\n      and\n      eq\n        /* \"acess/Ownable.sol\":191:219  require(msg.sender == owner) */\n      tag_55\n      jumpi\n      revert(0x00, 0x00)\n    tag_55:\n        /* \"protocol/PriceOracle.sol\":514:515  0 */\n      0x00\n        /* \"protocol/PriceOracle.sol\":497:516  token != address(0) */\n      0xffffffffffffffffffffffffffffffffffffffff\n      and\n        /* \"protocol/PriceOracle.sol\":497:502  token */\n      dup3\n        /* \"protocol/PriceOracle.sol\":497:516  token != address(0) */\n      0xffffffffffffffffffffffffffffffffffffffff\n      and\n      sub\n        /* \"protocol/PriceOracle.sol\":489:517  require(token != address(0)) */\n      tag_57\n      jumpi\n      revert(0x00, 0x00)\n    tag_57:\n        /* \"protocol/PriceOracle.sol\":544:545  0 */\n      0x00\n        /* \"protocol/PriceOracle.sol\":535:540  price */\n      dup2\n        /* \"protocol/PriceOracle.sol\":535:545  price != 0 */\n      sub\n        /* \"protocol/PriceOracle.sol\":527:546  require(price != 0) */\n      tag_58\n      jumpi\n      revert(0x00, 0x00)\n    tag_58:\n        /* \"protocol/PriceOracle.sol\":572:577  price */\n      dup1\n        /* \"protocol/PriceOracle.sol\":556:562  prices */\n      0x01\n        /* \"protocol/PriceOracle.sol\":556:569  prices[token] */\n      0x00\n        /* \"protocol/PriceOracle.sol\":563:568  token */\n      dup5\n        /* \"protocol/PriceOracle.sol\":556:569  prices[token] */\n      0xffffffffffffffffffffffffffffffffffffffff\n      and\n      0xffffffffffffffffffffffffffffffffffffffff\n      and\n      dup2\n      mstore\n      0x20\n      add\n      swap1\n      dup2\n      mstore\n      0x20\n      add\n      0x00\n      keccak256\n        /* \"protocol/PriceOracle.sol\":556:577  prices[token] = price */\n      dup2\n      swap1\n      sstore\n      pop\n        /* \"protocol/PriceOracle.sol\":415:584  function setPrice(address token, uint price) external onlyOwner {... */\n      pop\n      pop\n      jump\t// out\n        /* \"proxy/UUPSUpgradeable.sol\":1745:1927  function upgradeTo(address newImplementation) external onlyProxy {... */\n    tag_21:\n        /* \"proxy/UUPSUpgradeable.sol\":1200:1206  __self */\n      immutable(\"0xcfe93e00cbaaf37bad5f0b2ff3ab98072b4f3a2656e148b3bcccb553f2fa678f\")\n        /* \"proxy/UUPSUpgradeable.sol\":1183:1206  address(this) != __self */\n      0xffffffffffffffffffffffffffffffffffffffff\n      and\n        /* \"proxy/UUPSUpgradeable.sol\":1191:1195  this */\n      address\n        /* \"proxy/UUPSUpgradeable.sol\":1183:1206  address(this) != __self */\n      0xffffffffffffffffffffffffffffffffffffffff\n      and\n      sub\n        /* \"proxy/UUPSUpgradeable.sol\":1175:1227  require(address(this) != __self, \"NOT_DELEGATECALL\") */\n      tag_60\n      jumpi\n      mload(0x40)\n      0x08c379a000000000000000000000000000000000000000000000000000000000\n      dup2\n      mstore\n      0x04\n      add\n      tag_61\n      swap1\n      tag_62\n      jump\t// in\n    tag_61:\n      mload(0x40)\n      dup1\n      swap2\n      sub\n      swap1\n      revert\n    tag_60:\n        /* \"proxy/UUPSUpgradeable.sol\":1269:1275  __self */\n      immutable(\"0xcfe93e00cbaaf37bad5f0b2ff3ab98072b4f3a2656e148b3bcccb553f2fa678f\")\n        /* \"proxy/UUPSUpgradeable.sol\":1245:1275  _getImplementation() == __self */\n      0xffffffffffffffffffffffffffffffffffffffff\n      and\n        /* \"proxy/UUPSUpgradeable.sol\":1245:1265  _getImplementation() */\n      tag_63\n        /* \"proxy/UUPSUpgradeable.sol\":1245:1263  _getImplementation */\n      tag_64\n        /* \"proxy/UUPSUpgradeable.sol\":1245:1265  _getImplementation() */\n      jump\t// in\n    tag_63:\n        /* \"proxy/UUPSUpgradeable.sol\":1245:1275  _getImplementation() == __self */\n      0xffffffffffffffffffffffffffffffffffffffff\n      and\n      eq\n        /* \"proxy/UUPSUpgradeable.sol\":1237:1294  require(_getImplementation() == __self, \"INACTIVE_PROXY\") */\n      tag_65\n      jumpi\n      mload(0x40)\n      0x08c379a000000000000000000000000000000000000000000000000000000000\n      dup2\n      mstore\n      0x04\n      add\n      tag_66\n      swap1\n      tag_67\n      jump\t// in\n    tag_66:\n      mload(0x40)\n      dup1\n      swap2\n      sub\n      swap1\n      revert\n    tag_65:\n        /* \"proxy/UUPSUpgradeable.sol\":1820:1856  _authorizeUpgrade(newImplementation) */\n      tag_69\n        /* \"proxy/UUPSUpgradeable.sol\":1838:1855  newImplementation */\n      dup2\n        /* \"proxy/UUPSUpgradeable.sol\":1820:1837  _authorizeUpgrade */\n      tag_70\n        /* \"proxy/UUPSUpgradeable.sol\":1820:1856  _authorizeUpgrade(newImplementation) */\n      jump\t// in\n    tag_69:\n        /* \"proxy/UUPSUpgradeable.sol\":1866:1920  _upgradeToAndCall(newImplementation, bytes(\"\"), false) */\n      tag_71\n        /* \"proxy/UUPSUpgradeable.sol\":1884:1901  newImplementation */\n      dup2\n        /* \"proxy/UUPSUpgradeable.sol\":1903:1912  bytes(\"\") */\n      mload(0x40)\n      dup1\n      0x20\n      add\n      0x40\n      mstore\n      dup1\n      0x00\n      dup2\n      mstore\n      pop\n        /* \"proxy/UUPSUpgradeable.sol\":1914:1919  false */\n      0x00\n        /* \"proxy/UUPSUpgradeable.sol\":1866:1883  _upgradeToAndCall */\n      tag_72\n        /* \"proxy/UUPSUpgradeable.sol\":1866:1920  _upgradeToAndCall(newImplementation, bytes(\"\"), false) */\n      jump\t// in\n    tag_71:\n        /* \"proxy/UUPSUpgradeable.sol\":1745:1927  function upgradeTo(address newImplementation) external onlyProxy {... */\n      pop\n      jump\t// out\n        /* \"proxy/UUPSUpgradeable.sol\":2028:2240  function upgradeToAndCall(address newImplementation, bytes calldata data) external payable onlyProxy {... */\n    tag_25:\n        /* \"proxy/UUPSUpgradeable.sol\":1200:1206  __self */\n      immutable(\"0xcfe93e00cbaaf37bad5f0b2ff3ab98072b4f3a2656e148b3bcccb553f2fa678f\")\n        /* \"proxy/UUPSUpgradeable.sol\":1183:1206  address(this) != __self */\n      0xffffffffffffffffffffffffffffffffffffffff\n      and\n        /* \"proxy/UUPSUpgradeable.sol\":1191:1195  this */\n      address\n        /* \"proxy/UUPSUpgradeable.sol\":1183:1206  address(this) != __self */\n      0xffffffffffffffffffffffffffffffffffffffff\n      and\n      sub\n        /* \"proxy/UUPSUpgradeable.sol\":1175:1227  require(address(this) != __self, \"NOT_DELEGATECALL\") */\n      tag_74\n      jumpi\n      mload(0x40)\n      0x08c379a000000000000000000000000000000000000000000000000000000000\n      dup2\n      mstore\n      0x04\n      add\n      tag_75\n      swap1\n      tag_62\n      jump\t// in\n    tag_75:\n      mload(0x40)\n      dup1\n      swap2\n      sub\n      swap1\n      revert\n    tag_74:\n        /* \"proxy/UUPSUpgradeable.sol\":1269:1275  __self */\n      immutable(\"0xcfe93e00cbaaf37bad5f0b2ff3ab98072b4f3a2656e148b3bcccb553f2fa678f\")\n        /* \"proxy/UUPSUpgradeable.sol\":1245:1275  _getImplementation() == __self */\n      0xffffffffffffffffffffffffffffffffffffffff\n      and\n        /* \"proxy/UUPSUpgradeable.sol\":1245:1265  _getImplementation() */\n      tag_76\n        /* \"proxy/UUPSUpgradeable.sol\":1245:1263  _getImplementation */\n      tag_64\n        /* \"proxy/UUPSUpgradeable.sol\":1245:1265  _getImplementation() */\n      jump\t// in\n    tag_76:\n        /* \"proxy/UUPSUpgradeable.sol\":1245:1275  _getImplementation() == __self */\n      0xffffffffffffffffffffffffffffffffffffffff\n      and\n      eq\n        /* \"proxy/UUPSUpgradeable.sol\":1237:1294  require(_getImplementation() == __self, \"INACTIVE_PROXY\") */\n      tag_77\n      jumpi\n      mload(0x40)\n      0x08c379a000000000000000000000000000000000000000000000000000000000\n      dup2\n      mstore\n      0x04\n      add\n      tag_78\n      swap1\n      tag_67\n      jump\t// in\n    tag_78:\n      mload(0x40)\n      dup1\n      swap2\n      sub\n      swap1\n      revert\n    tag_77:\n        /* \"proxy/UUPSUpgradeable.sol\":2139:2175  _authorizeUpgrade(newImplementation) */\n      tag_80\n        /* \"proxy/UUPSUpgradeable.sol\":2157:2174  newImplementation */\n      dup4\n        /* \"proxy/UUPSUpgradeable.sol\":2139:2156  _authorizeUpgrade */\n      tag_70\n        /* \"proxy/UUPSUpgradeable.sol\":2139:2175  _authorizeUpgrade(newImplementation) */\n      jump\t// in\n    tag_80:\n        /* \"proxy/UUPSUpgradeable.sol\":2185:2233  _upgradeToAndCall(newImplementation, data, true) */\n      tag_81\n        /* \"proxy/UUPSUpgradeable.sol\":2203:2220  newImplementation */\n      dup4\n        /* \"proxy/UUPSUpgradeable.sol\":2222:2226  data */\n      dup4\n      dup4\n        /* \"proxy/UUPSUpgradeable.sol\":2185:2233  _upgradeToAndCall(newImplementation, data, true) */\n      dup1\n      dup1\n      0x1f\n      add\n      0x20\n      dup1\n      swap2\n      div\n      mul\n      0x20\n      add\n      mload(0x40)\n      swap1\n      dup2\n      add\n      0x40\n      mstore\n      dup1\n      swap4\n      swap3\n      swap2\n      swap1\n      dup2\n      dup2\n      mstore\n      0x20\n      add\n      dup4\n      dup4\n      dup1\n      dup3\n      dup5\n      calldatacopy\n      0x00\n      dup2\n      dup5\n      add\n      mstore\n      not(0x1f)\n      0x1f\n      dup3\n      add\n      and\n      swap1\n      pop\n      dup1\n      dup4\n      add\n      swap3\n      pop\n      pop\n      pop\n      pop\n      pop\n      pop\n      pop\n        /* \"proxy/UUPSUpgradeable.sol\":2228:2232  true */\n      0x01\n        /* \"proxy/UUPSUpgradeable.sol\":2185:2202  _upgradeToAndCall */\n      tag_72\n        /* \"proxy/UUPSUpgradeable.sol\":2185:2233  _upgradeToAndCall(newImplementation, data, true) */\n      jump\t// in\n    tag_81:\n        /* \"proxy/UUPSUpgradeable.sol\":2028:2240  function upgradeToAndCall(address newImplementation, bytes calldata data) external payable onlyProxy {... */\n      pop\n      pop\n      pop\n      jump\t// out\n        /* \"proxy/UUPSUpgradeable.sol\":1577:1690  function proxiableUUID() external view notDelegated returns (bytes32) {... */\n    tag_28:\n        /* \"proxy/UUPSUpgradeable.sol\":1638:1645  bytes32 */\n      0x00\n        /* \"proxy/UUPSUpgradeable.sol\":1471:1477  __self */\n      immutable(\"0xcfe93e00cbaaf37bad5f0b2ff3ab98072b4f3a2656e148b3bcccb553f2fa678f\")\n        /* \"proxy/UUPSUpgradeable.sol\":1454:1477  address(this) == __self */\n      0xffffffffffffffffffffffffffffffffffffffff\n      and\n        /* \"proxy/UUPSUpgradeable.sol\":1462:1466  this */\n      address\n        /* \"proxy/UUPSUpgradeable.sol\":1454:1477  address(this) == __self */\n      0xffffffffffffffffffffffffffffffffffffffff\n      and\n      eq\n        /* \"proxy/UUPSUpgradeable.sol\":1446:1501  require(address(this) == __self, \"ONLY_IMPLEMENTATION\") */\n      tag_83\n      jumpi\n      mload(0x40)\n      0x08c379a000000000000000000000000000000000000000000000000000000000\n      dup2\n      mstore\n      0x04\n      add\n      tag_84\n      swap1\n      tag_85\n      jump\t// in\n    tag_84:\n      mload(0x40)\n      dup1\n      swap2\n      sub\n      swap1\n      revert\n    tag_83:\n        /* \"proxy/UUPSUpgradeable.sol\":793:859  0x360894A13BA1A3210667C828492DB98DCA3E2076CC3735A920A3CA505D382BBC */\n      0x360894a13ba1a3210667c828492db98dca3e2076cc3735a920a3ca505d382bbc\n        /* \"proxy/UUPSUpgradeable.sol\":1664:1683  IMPLEMENTATION_SLOT */\n      0x00\n      shl\n        /* \"proxy/UUPSUpgradeable.sol\":1657:1683  return IMPLEMENTATION_SLOT */\n      swap1\n      pop\n        /* \"proxy/UUPSUpgradeable.sol\":1577:1690  function proxiableUUID() external view notDelegated returns (bytes32) {... */\n      swap1\n      jump\t// out\n        /* \"acess/Ownable.sol\":133:153  address public owner */\n    tag_33:\n      0x00\n      0x02\n      swap1\n      sload\n      swap1\n      0x0100\n      exp\n      swap1\n      div\n      0xffffffffffffffffffffffffffffffffffffffff\n      and\n      dup2\n      jump\t// out\n        /* \"protocol/PriceOracle.sol\":222:261  uint public constant PRICE_SCALE = 1e18 */\n    tag_38:\n        /* \"protocol/PriceOracle.sol\":257:261  1e18 */\n      0x0de0b6b3a7640000\n        /* \"protocol/PriceOracle.sol\":222:261  uint public constant PRICE_SCALE = 1e18 */\n      dup2\n      jump\t// out\n        /* \"protocol/PriceOracle.sol\":313:409  function initialize(address owner_) external initializer {... */\n    tag_44:\n        /* \"utils/Init.sol\":1076:1088  _initialized */\n      0x00\n      0x00\n      swap1\n      sload\n      swap1\n      0x0100\n      exp\n      swap1\n      div\n      0xff\n      and\n        /* \"utils/Init.sol\":1075:1088  !_initialized */\n      iszero\n        /* \"utils/Init.sol\":1075:1105  !_initialized || _initializing */\n      dup1\n      tag_88\n      jumpi\n      pop\n        /* \"utils/Init.sol\":1092:1105  _initializing */\n      0x00\n      0x01\n      swap1\n      sload\n      swap1\n      0x0100\n      exp\n      swap1\n      div\n      0xff\n      and\n        /* \"utils/Init.sol\":1075:1105  !_initialized || _initializing */\n    tag_88:\n        /* \"utils/Init.sol\":1067:1129  require(!_initialized || _initializing, \"ALREADY_INITIALIZED\") */\n      tag_89\n      jumpi\n      mload(0x40)\n      0x08c379a000000000000000000000000000000000000000000000000000000000\n      dup2\n      mstore\n      0x04\n      add\n      tag_90\n      swap1\n      tag_91\n      jump\t// in\n    tag_90:\n      mload(0x40)\n      dup1\n      swap2\n      sub\n      swap1\n      revert\n    tag_89:\n        /* \"utils/Init.sol\":1139:1154  bool isTopLevel */\n      0x00\n        /* \"utils/Init.sol\":1158:1171  _initializing */\n      0x00\n      0x01\n      swap1\n      sload\n      swap1\n      0x0100\n      exp\n      swap1\n      div\n      0xff\n      and\n        /* \"utils/Init.sol\":1157:1171  !_initializing */\n      iszero\n        /* \"utils/Init.sol\":1139:1171  bool isTopLevel = !_initializing */\n      swap1\n      pop\n        /* \"utils/Init.sol\":1186:1196  isTopLevel */\n      dup1\n        /* \"utils/Init.sol\":1182:1244  if (isTopLevel) { _initializing = true; _initialized = true; } */\n      iszero\n      tag_92\n      jumpi\n        /* \"utils/Init.sol\":1216:1220  true */\n      0x01\n        /* \"utils/Init.sol\":1200:1213  _initializing */\n      0x00\n      0x01\n        /* \"utils/Init.sol\":1200:1220  _initializing = true */\n      0x0100\n      exp\n      dup2\n      sload\n      dup2\n      0xff\n      mul\n      not\n      and\n      swap1\n      dup4\n      iszero\n      iszero\n      mul\n      or\n      swap1\n      sstore\n      pop\n        /* \"utils/Init.sol\":1237:1241  true */\n      0x01\n        /* \"utils/Init.sol\":1222:1234  _initialized */\n      0x00\n      0x00\n        /* \"utils/Init.sol\":1222:1241  _initialized = true */\n      0x0100\n      exp\n      dup2\n      sload\n      dup2\n      0xff\n      mul\n      not\n      and\n      swap1\n      dup4\n      iszero\n      iszero\n      mul\n      or\n      swap1\n      sstore\n      pop\n        /* \"utils/Init.sol\":1182:1244  if (isTopLevel) { _initializing = true; _initialized = true; } */\n    tag_92:\n        /* \"protocol/PriceOracle.sol\":380:402  __Ownable_init(owner_) */\n      tag_94\n        /* \"protocol/PriceOracle.sol\":395:401  owner_ */\n      dup3\n        /* \"protocol/PriceOracle.sol\":380:394  __Ownable_init */\n      tag_95\n        /* \"protocol/PriceOracle.sol\":380:402  __Ownable_init(owner_) */\n      jump\t// in\n    tag_94:\n        /* \"utils/Init.sol\":1270:1280  isTopLevel */\n      dup1\n        /* \"utils/Init.sol\":1266:1303  if (isTopLevel) _initializing = false */\n      iszero\n      tag_96\n      jumpi\n        /* \"utils/Init.sol\":1298:1303  false */\n      0x00\n        /* \"utils/Init.sol\":1282:1295  _initializing */\n      0x00\n      0x01\n        /* \"utils/Init.sol\":1282:1303  _initializing = false */\n      0x0100\n      exp\n      dup2\n      sload\n      dup2\n      0xff\n      mul\n      not\n      and\n      swap1\n      dup4\n      iszero\n      iszero\n      mul\n      or\n      swap1\n      sstore\n      pop\n        /* \"utils/Init.sol\":1266:1303  if (isTopLevel) _initializing = false */\n    tag_96:\n        /* \"utils/Init.sol\":1057:1310  {... */\n      pop\n        /* \"protocol/PriceOracle.sol\":313:409  function initialize(address owner_) external initializer {... */\n      pop\n      jump\t// out\n        /* \"protocol/PriceOracle.sol\":268:306  mapping(address => uint) public prices */\n    tag_48:\n      mstore(0x20, 0x01)\n      dup1\n      0x00\n      mstore\n      keccak256(0x00, 0x40)\n      0x00\n      swap2\n      pop\n      swap1\n      pop\n      sload\n      dup2\n      jump\t// out\n        /* \"acess/Ownable.sol\":394:532  function ownershipTransfer(address newOwner) external onlyOwner {... */\n    tag_53:\n        /* \"acess/Ownable.sol\":213:218  owner */\n      0x00\n      0x02\n      swap1\n      sload\n      swap1\n      0x0100\n      exp\n      swap1\n      div\n      0xffffffffffffffffffffffffffffffffffffffff\n      and\n        /* \"acess/Ownable.sol\":199:218  msg.sender == owner */\n      0xffffffffffffffffffffffffffffffffffffffff\n      and\n        /* \"acess/Ownable.sol\":199:209  msg.sender */\n      caller\n        /* \"acess/Ownable.sol\":199:218  msg.sender == owner */\n      0xffffffffffffffffffffffffffffffffffffffff\n      and\n      eq\n        /* \"acess/Ownable.sol\":191:219  require(msg.sender == owner) */\n      tag_98\n      jumpi\n      revert(0x00, 0x00)\n    tag_98:\n        /* \"acess/Ownable.sol\":496:497  0 */\n      0x00\n        /* \"acess/Ownable.sol\":476:498  newOwner != address(0) */\n      0xffffffffffffffffffffffffffffffffffffffff\n      and\n        /* \"acess/Ownable.sol\":476:484  newOwner */\n      dup2\n        /* \"acess/Ownable.sol\":476:498  newOwner != address(0) */\n      0xffffffffffffffffffffffffffffffffffffffff\n      and\n      sub\n        /* \"acess/Ownable.sol\":468:499  require(newOwner != address(0)) */\n      tag_100\n      jumpi\n      revert(0x00, 0x00)\n    tag_100:\n        /* \"acess/Ownable.sol\":517:525  newOwner */\n      dup1\n        /* \"acess/Ownable.sol\":509:514  owner */\n      0x00\n      0x02\n        /* \"acess/Ownable.sol\":509:525  owner = newOwner */\n      0x0100\n      exp\n      dup2\n      sload\n      dup2\n      0xffffffffffffffffffffffffffffffffffffffff\n      mul\n      not\n      and\n      swap1\n      dup4\n      0xffffffffffffffffffffffffffffffffffffffff\n      and\n      mul\n      or\n      swap1\n      sstore\n      pop\n        /* \"acess/Ownable.sol\":394:532  function ownershipTransfer(address newOwner) external onlyOwner {... */\n      pop\n      jump\t// out\n        /* \"proxy/UUPSUpgradeable.sol\":2514:2693  function _getImplementation() internal view returns (address impl) {... */\n    tag_64:\n        /* \"proxy/UUPSUpgradeable.sol\":2567:2579  address impl */\n      0x00\n        /* \"proxy/UUPSUpgradeable.sol\":2591:2603  bytes32 slot */\n      0x00\n        /* \"proxy/UUPSUpgradeable.sol\":793:859  0x360894A13BA1A3210667C828492DB98DCA3E2076CC3735A920A3CA505D382BBC */\n      0x360894a13ba1a3210667c828492db98dca3e2076cc3735a920a3ca505d382bbc\n        /* \"proxy/UUPSUpgradeable.sol\":2606:2625  IMPLEMENTATION_SLOT */\n      0x00\n      shl\n        /* \"proxy/UUPSUpgradeable.sol\":2591:2625  bytes32 slot = IMPLEMENTATION_SLOT */\n      swap1\n      pop\n        /* \"proxy/UUPSUpgradeable.sol\":2672:2676  slot */\n      dup1\n        /* \"proxy/UUPSUpgradeable.sol\":2666:2677  sload(slot) */\n      sload\n        /* \"proxy/UUPSUpgradeable.sol\":2658:2677  impl := sload(slot) */\n      swap2\n      pop\n        /* \"proxy/UUPSUpgradeable.sol\":2644:2687  {... */\n      pop\n        /* \"proxy/UUPSUpgradeable.sol\":2514:2693  function _getImplementation() internal view returns (address impl) {... */\n      swap1\n      jump\t// out\n        /* \"protocol/PriceOracle.sol\":589:655  function _authorizeUpgrade(address) internal override onlyOwner {} */\n    tag_70:\n        /* \"acess/Ownable.sol\":213:218  owner */\n      0x00\n      0x02\n      swap1\n      sload\n      swap1\n      0x0100\n      exp\n      swap1\n      div\n      0xffffffffffffffffffffffffffffffffffffffff\n      and\n        /* \"acess/Ownable.sol\":199:218  msg.sender == owner */\n      0xffffffffffffffffffffffffffffffffffffffff\n      and\n        /* \"acess/Ownable.sol\":199:209  msg.sender */\n      caller\n        /* \"acess/Ownable.sol\":199:218  msg.sender == owner */\n      0xffffffffffffffffffffffffffffffffffffffff\n      and\n      eq\n        /* \"acess/Ownable.sol\":191:219  require(msg.sender == owner) */\n      tag_103\n      jumpi\n      revert(0x00, 0x00)\n    tag_103:\n        /* \"protocol/PriceOracle.sol\":589:655  function _authorizeUpgrade(address) internal override onlyOwner {} */\n      pop\n      jump\t// out\n        /* \"proxy/UUPSUpgradeable.sol\":2809:3197  function _upgradeToAndCall(address newImplementation, bytes memory data, bool forceCall) internal {... */\n    tag_72:\n        /* \"proxy/UUPSUpgradeable.sol\":2954:2955  0 */\n      0x00\n        /* \"proxy/UUPSUpgradeable.sol\":2925:2956  newImplementation != address(0) */\n      0xffffffffffffffffffffffffffffffffffffffff\n      and\n        /* \"proxy/UUPSUpgradeable.sol\":2925:2942  newImplementation */\n      dup4\n        /* \"proxy/UUPSUpgradeable.sol\":2925:2956  newImplementation != address(0) */\n      0xffffffffffffffffffffffffffffffffffffffff\n      and\n      sub\n        /* \"proxy/UUPSUpgradeable.sol\":2917:2970  require(newImplementation != address(0), \"ZERO_IMPL\") */\n      tag_106\n      jumpi\n      mload(0x40)\n      0x08c379a000000000000000000000000000000000000000000000000000000000\n      dup2\n      mstore\n      0x04\n      add\n      tag_107\n      swap1\n      tag_108\n      jump\t// in\n    tag_107:\n      mload(0x40)\n      dup1\n      swap2\n      sub\n      swap1\n      revert\n    tag_106:\n        /* \"proxy/UUPSUpgradeable.sol\":2980:3017  _setImplementation(newImplementation) */\n      tag_109\n        /* \"proxy/UUPSUpgradeable.sol\":2999:3016  newImplementation */\n      dup4\n        /* \"proxy/UUPSUpgradeable.sol\":2980:2998  _setImplementation */\n      tag_110\n        /* \"proxy/UUPSUpgradeable.sol\":2980:3017  _setImplementation(newImplementation) */\n      jump\t// in\n    tag_109:\n        /* \"proxy/UUPSUpgradeable.sol\":3032:3041  forceCall */\n      dup1\n        /* \"proxy/UUPSUpgradeable.sol\":3032:3060  forceCall || data.length > 0 */\n      dup1\n      tag_111\n      jumpi\n      pop\n        /* \"proxy/UUPSUpgradeable.sol\":3059:3060  0 */\n      0x00\n        /* \"proxy/UUPSUpgradeable.sol\":3045:3049  data */\n      dup3\n        /* \"proxy/UUPSUpgradeable.sol\":3045:3056  data.length */\n      mload\n        /* \"proxy/UUPSUpgradeable.sol\":3045:3060  data.length > 0 */\n      gt\n        /* \"proxy/UUPSUpgradeable.sol\":3032:3060  forceCall || data.length > 0 */\n    tag_111:\n        /* \"proxy/UUPSUpgradeable.sol\":3028:3191  if (forceCall || data.length > 0) {... */\n      iszero\n      tag_112\n      jumpi\n        /* \"proxy/UUPSUpgradeable.sol\":3077:3084  bool ok */\n      0x00\n        /* \"proxy/UUPSUpgradeable.sol\":3086:3102  bytes memory err */\n      0x00\n        /* \"proxy/UUPSUpgradeable.sol\":3106:3123  newImplementation */\n      dup5\n        /* \"proxy/UUPSUpgradeable.sol\":3106:3136  newImplementation.delegatecall */\n      0xffffffffffffffffffffffffffffffffffffffff\n      and\n        /* \"proxy/UUPSUpgradeable.sol\":3137:3141  data */\n      dup5\n        /* \"proxy/UUPSUpgradeable.sol\":3106:3142  newImplementation.delegatecall(data) */\n      mload(0x40)\n      tag_113\n      swap2\n      swap1\n      tag_114\n      jump\t// in\n    tag_113:\n      0x00\n      mload(0x40)\n      dup1\n      dup4\n      sub\n      dup2\n      dup6\n      gas\n      delegatecall\n      swap2\n      pop\n      pop\n      returndatasize\n      dup1\n      0x00\n      dup2\n      eq\n      tag_117\n      jumpi\n      mload(0x40)\n      swap2\n      pop\n      and(add(returndatasize, 0x3f), not(0x1f))\n      dup3\n      add\n      0x40\n      mstore\n      returndatasize\n      dup3\n      mstore\n      returndatasize\n      0x00\n      0x20\n      dup5\n      add\n      returndatacopy\n      jump(tag_116)\n    tag_117:\n      0x60\n      swap2\n      pop\n    tag_116:\n      pop\n        /* \"proxy/UUPSUpgradeable.sol\":3076:3142  (bool ok, bytes memory err) = newImplementation.delegatecall(data) */\n      swap2\n      pop\n      swap2\n      pop\n        /* \"proxy/UUPSUpgradeable.sol\":3164:3166  ok */\n      dup2\n        /* \"proxy/UUPSUpgradeable.sol\":3175:3178  err */\n      dup2\n        /* \"proxy/UUPSUpgradeable.sol\":3156:3180  require(ok, string(err)) */\n      swap1\n      tag_118\n      jumpi\n      mload(0x40)\n      0x08c379a000000000000000000000000000000000000000000000000000000000\n      dup2\n      mstore\n      0x04\n      add\n      tag_119\n      swap2\n      swap1\n      tag_120\n      jump\t// in\n    tag_119:\n      mload(0x40)\n      dup1\n      swap2\n      sub\n      swap1\n      revert\n    tag_118:\n      pop\n        /* \"proxy/UUPSUpgradeable.sol\":3062:3191  {... */\n      pop\n      pop\n        /* \"proxy/UUPSUpgradeable.sol\":3028:3191  if (forceCall || data.length > 0) {... */\n    tag_112:\n        /* \"proxy/UUPSUpgradeable.sol\":2809:3197  function _upgradeToAndCall(address newImplementation, bytes memory data, bool forceCall) internal {... */\n      pop\n      pop\n      pop\n      jump\t// out\n        /* \"acess/Ownable.sol\":243:389  function __Ownable_init(address initializeOwner) internal {... */\n    tag_95:\n        /* \"acess/Ownable.sol\":346:347  0 */\n      0x00\n        /* \"acess/Ownable.sol\":319:348  initializeOwner != address(0) */\n      0xffffffffffffffffffffffffffffffffffffffff\n      and\n        /* \"acess/Ownable.sol\":319:334  initializeOwner */\n      dup2\n        /* \"acess/Ownable.sol\":319:348  initializeOwner != address(0) */\n      0xffffffffffffffffffffffffffffffffffffffff\n      and\n      sub\n        /* \"acess/Ownable.sol\":311:349  require(initializeOwner != address(0)) */\n      tag_122\n      jumpi\n      revert(0x00, 0x00)\n    tag_122:\n        /* \"acess/Ownable.sol\":367:382  initializeOwner */\n      dup1\n        /* \"acess/Ownable.sol\":359:364  owner */\n      0x00\n      0x02\n        /* \"acess/Ownable.sol\":359:382  owner = initializeOwner */\n      0x0100\n      exp\n      dup2\n      sload\n      dup2\n      0xffffffffffffffffffffffffffffffffffffffff\n      mul\n      not\n      and\n      swap1\n      dup4\n      0xffffffffffffffffffffffffffffffffffffffff\n      and\n      mul\n      or\n      swap1\n      sstore\n      pop\n        /* \"acess/Ownable.sol\":243:389  function __Ownable_init(address initializeOwner) internal {... */\n      pop\n      jump\t// out\n        /* \"proxy/UUPSUpgradeable.sol\":3266:3453  function _setImplementation(address newImplementation) private {... */\n    tag_110:\n        /* \"proxy/UUPSUpgradeable.sol\":3339:3351  bytes32 slot */\n      0x00\n        /* \"proxy/UUPSUpgradeable.sol\":793:859  0x360894A13BA1A3210667C828492DB98DCA3E2076CC3735A920A3CA505D382BBC */\n      0x360894a13ba1a3210667c828492db98dca3e2076cc3735a920a3ca505d382bbc\n        /* \"proxy/UUPSUpgradeable.sol\":3354:3373  IMPLEMENTATION_SLOT */\n      0x00\n      shl\n        /* \"proxy/UUPSUpgradeable.sol\":3339:3373  bytes32 slot = IMPLEMENTATION_SLOT */\n      swap1\n      pop\n        /* \"proxy/UUPSUpgradeable.sol\":3419:3436  newImplementation */\n      dup2\n        /* \"proxy/UUPSUpgradeable.sol\":3413:3417  slot */\n      dup2\n        /* \"proxy/UUPSUpgradeable.sol\":3406:3437  sstore(slot, newImplementation) */\n      sstore\n        /* \"proxy/UUPSUpgradeable.sol\":3392:3447  {... */\n      pop\n        /* \"proxy/UUPSUpgradeable.sol\":3266:3453  function _setImplementation(address newImplementation) private {... */\n      pop\n      jump\t// out\n        /* \"#utility.yul\":88:205   */\n    tag_125:\n        /* \"#utility.yul\":197:198   */\n      0x00\n        /* \"#utility.yul\":194:195   */\n      0x00\n        /* \"#utility.yul\":187:199   */\n      revert\n        /* \"#utility.yul\":211:328   */\n    tag_126:\n        /* \"#utility.yul\":320:321   */\n      0x00\n        /* \"#utility.yul\":317:318   */\n      0x00\n        /* \"#utility.yul\":310:322   */\n      revert\n        /* \"#utility.yul\":334:460   */\n    tag_127:\n        /* \"#utility.yul\":371:378   */\n      0x00\n        /* \"#utility.yul\":411:453   */\n      0xffffffffffffffffffffffffffffffffffffffff\n        /* \"#utility.yul\":404:409   */\n      dup3\n        /* \"#utility.yul\":400:454   */\n      and\n        /* \"#utility.yul\":389:454   */\n      swap1\n      pop\n        /* \"#utility.yul\":334:460   */\n      swap2\n      swap1\n      pop\n      jump\t// out\n        /* \"#utility.yul\":466:562   */\n    tag_128:\n        /* \"#utility.yul\":503:510   */\n      0x00\n        /* \"#utility.yul\":532:556   */\n      tag_166\n        /* \"#utility.yul\":550:555   */\n      dup3\n        /* \"#utility.yul\":532:556   */\n      tag_127\n      jump\t// in\n    tag_166:\n        /* \"#utility.yul\":521:556   */\n      swap1\n      pop\n        /* \"#utility.yul\":466:562   */\n      swap2\n      swap1\n      pop\n      jump\t// out\n        /* \"#utility.yul\":568:690   */\n    tag_129:\n        /* \"#utility.yul\":641:665   */\n      tag_168\n        /* \"#utility.yul\":659:664   */\n      dup2\n        /* \"#utility.yul\":641:665   */\n      tag_128\n      jump\t// in\n    tag_168:\n        /* \"#utility.yul\":634:639   */\n      dup2\n        /* \"#utility.yul\":631:666   */\n      eq\n        /* \"#utility.yul\":621:684   */\n      tag_169\n      jumpi\n        /* \"#utility.yul\":680:681   */\n      0x00\n        /* \"#utility.yul\":677:678   */\n      0x00\n        /* \"#utility.yul\":670:682   */\n      revert\n        /* \"#utility.yul\":621:684   */\n    tag_169:\n        /* \"#utility.yul\":568:690   */\n      pop\n      jump\t// out\n        /* \"#utility.yul\":696:835   */\n    tag_130:\n        /* \"#utility.yul\":742:747   */\n      0x00\n        /* \"#utility.yul\":780:786   */\n      dup2\n        /* \"#utility.yul\":767:787   */\n      calldataload\n        /* \"#utility.yul\":758:787   */\n      swap1\n      pop\n        /* \"#utility.yul\":796:829   */\n      tag_171\n        /* \"#utility.yul\":823:828   */\n      dup2\n        /* \"#utility.yul\":796:829   */\n      tag_129\n      jump\t// in\n    tag_171:\n        /* \"#utility.yul\":696:835   */\n      swap3\n      swap2\n      pop\n      pop\n      jump\t// out\n        /* \"#utility.yul\":841:918   */\n    tag_131:\n        /* \"#utility.yul\":878:885   */\n      0x00\n        /* \"#utility.yul\":907:912   */\n      dup2\n        /* \"#utility.yul\":896:912   */\n      swap1\n      pop\n        /* \"#utility.yul\":841:918   */\n      swap2\n      swap1\n      pop\n      jump\t// out\n        /* \"#utility.yul\":924:1046   */\n    tag_132:\n        /* \"#utility.yul\":997:1021   */\n      tag_174\n        /* \"#utility.yul\":1015:1020   */\n      dup2\n        /* \"#utility.yul\":997:1021   */\n      tag_131\n      jump\t// in\n    tag_174:\n        /* \"#utility.yul\":990:995   */\n      dup2\n        /* \"#utility.yul\":987:1022   */\n      eq\n        /* \"#utility.yul\":977:1040   */\n      tag_175\n      jumpi\n        /* \"#utility.yul\":1036:1037   */\n      0x00\n        /* \"#utility.yul\":1033:1034   */\n      0x00\n        /* \"#utility.yul\":1026:1038   */\n      revert\n        /* \"#utility.yul\":977:1040   */\n    tag_175:\n        /* \"#utility.yul\":924:1046   */\n      pop\n      jump\t// out\n        /* \"#utility.yul\":1052:1191   */\n    tag_133:\n        /* \"#utility.yul\":1098:1103   */\n      0x00\n        /* \"#utility.yul\":1136:1142   */\n      dup2\n        /* \"#utility.yul\":1123:1143   */\n      calldataload\n        /* \"#utility.yul\":1114:1143   */\n      swap1\n      pop\n        /* \"#utility.yul\":1152:1185   */\n      tag_177\n        /* \"#utility.yul\":1179:1184   */\n      dup2\n        /* \"#utility.yul\":1152:1185   */\n      tag_132\n      jump\t// in\n    tag_177:\n        /* \"#utility.yul\":1052:1191   */\n      swap3\n      swap2\n      pop\n      pop\n      jump\t// out\n        /* \"#utility.yul\":1197:1671   */\n    tag_15:\n        /* \"#utility.yul\":1265:1271   */\n      0x00\n        /* \"#utility.yul\":1273:1279   */\n      0x00\n        /* \"#utility.yul\":1322:1324   */\n      0x40\n        /* \"#utility.yul\":1310:1319   */\n      dup4\n        /* \"#utility.yul\":1301:1308   */\n      dup6\n        /* \"#utility.yul\":1297:1320   */\n      sub\n        /* \"#utility.yul\":1293:1325   */\n      slt\n        /* \"#utility.yul\":1290:1409   */\n      iszero\n      tag_179\n      jumpi\n        /* \"#utility.yul\":1328:1407   */\n      tag_180\n      tag_125\n      jump\t// in\n    tag_180:\n        /* \"#utility.yul\":1290:1409   */\n    tag_179:\n        /* \"#utility.yul\":1448:1449   */\n      0x00\n        /* \"#utility.yul\":1473:1526   */\n      tag_181\n        /* \"#utility.yul\":1518:1525   */\n      dup6\n        /* \"#utility.yul\":1509:1515   */\n      dup3\n        /* \"#utility.yul\":1498:1507   */\n      dup7\n        /* \"#utility.yul\":1494:1516   */\n      add\n        /* \"#utility.yul\":1473:1526   */\n      tag_130\n      jump\t// in\n    tag_181:\n        /* \"#utility.yul\":1463:1526   */\n      swap3\n      pop\n        /* \"#utility.yul\":1419:1536   */\n      pop\n        /* \"#utility.yul\":1575:1577   */\n      0x20\n        /* \"#utility.yul\":1601:1654   */\n      tag_182\n        /* \"#utility.yul\":1646:1653   */\n      dup6\n        /* \"#utility.yul\":1637:1643   */\n      dup3\n        /* \"#utility.yul\":1626:1635   */\n      dup7\n        /* \"#utility.yul\":1622:1644   */\n      add\n        /* \"#utility.yul\":1601:1654   */\n      tag_133\n      jump\t// in\n    tag_182:\n        /* \"#utility.yul\":1591:1654   */\n      swap2\n      pop\n        /* \"#utility.yul\":1546:1664   */\n      pop\n        /* \"#utility.yul\":1197:1671   */\n      swap3\n      pop\n      swap3\n      swap1\n      pop\n      jump\t// out\n        /* \"#utility.yul\":1677:2006   */\n    tag_20:\n        /* \"#utility.yul\":1736:1742   */\n      0x00\n        /* \"#utility.yul\":1785:1787   */\n      0x20\n        /* \"#utility.yul\":1773:1782   */\n      dup3\n        /* \"#utility.yul\":1764:1771   */\n      dup5\n        /* \"#utility.yul\":1760:1783   */\n      sub\n        /* \"#utility.yul\":1756:1788   */\n      slt\n        /* \"#utility.yul\":1753:1872   */\n      iszero\n      tag_184\n      jumpi\n        /* \"#utility.yul\":1791:1870   */\n      tag_185\n      tag_125\n      jump\t// in\n    tag_185:\n        /* \"#utility.yul\":1753:1872   */\n    tag_184:\n        /* \"#utility.yul\":1911:1912   */\n      0x00\n        /* \"#utility.yul\":1936:1989   */\n      tag_186\n        /* \"#utility.yul\":1981:1988   */\n      dup5\n        /* \"#utility.yul\":1972:1978   */\n      dup3\n        /* \"#utility.yul\":1961:1970   */\n      dup6\n        /* \"#utility.yul\":1957:1979   */\n      add\n        /* \"#utility.yul\":1936:1989   */\n      tag_130\n      jump\t// in\n    tag_186:\n        /* \"#utility.yul\":1926:1989   */\n      swap2\n      pop\n        /* \"#utility.yul\":1882:1999   */\n      pop\n        /* \"#utility.yul\":1677:2006   */\n      swap3\n      swap2\n      pop\n      pop\n      jump\t// out\n        /* \"#utility.yul\":2012:2129   */\n    tag_134:\n        /* \"#utility.yul\":2121:2122   */\n      0x00\n        /* \"#utility.yul\":2118:2119   */\n      0x00\n        /* \"#utility.yul\":2111:2123   */\n      revert\n        /* \"#utility.yul\":2135:2252   */\n    tag_135:\n        /* \"#utility.yul\":2244:2245   */\n      0x00\n        /* \"#utility.yul\":2241:2242   */\n      0x00\n        /* \"#utility.yul\":2234:2246   */\n      revert\n        /* \"#utility.yul\":2258:2375   */\n    tag_136:\n        /* \"#utility.yul\":2367:2368   */\n      0x00\n        /* \"#utility.yul\":2364:2365   */\n      0x00\n        /* \"#utility.yul\":2357:2369   */\n      revert\n        /* \"#utility.yul\":2394:2946   */\n    tag_137:\n        /* \"#utility.yul\":2451:2459   */\n      0x00\n        /* \"#utility.yul\":2461:2467   */\n      0x00\n        /* \"#utility.yul\":2511:2514   */\n      dup4\n        /* \"#utility.yul\":2504:2508   */\n      0x1f\n        /* \"#utility.yul\":2496:2502   */\n      dup5\n        /* \"#utility.yul\":2492:2509   */\n      add\n        /* \"#utility.yul\":2488:2515   */\n      slt\n        /* \"#utility.yul\":2478:2600   */\n      tag_191\n      jumpi\n        /* \"#utility.yul\":2519:2598   */\n      tag_192\n      tag_134\n      jump\t// in\n    tag_192:\n        /* \"#utility.yul\":2478:2600   */\n    tag_191:\n        /* \"#utility.yul\":2632:2638   */\n      dup3\n        /* \"#utility.yul\":2619:2639   */\n      calldataload\n        /* \"#utility.yul\":2609:2639   */\n      swap1\n      pop\n        /* \"#utility.yul\":2662:2680   */\n      0xffffffffffffffff\n        /* \"#utility.yul\":2654:2660   */\n      dup2\n        /* \"#utility.yul\":2651:2681   */\n      gt\n        /* \"#utility.yul\":2648:2765   */\n      iszero\n      tag_193\n      jumpi\n        /* \"#utility.yul\":2684:2763   */\n      tag_194\n      tag_135\n      jump\t// in\n    tag_194:\n        /* \"#utility.yul\":2648:2765   */\n    tag_193:\n        /* \"#utility.yul\":2798:2802   */\n      0x20\n        /* \"#utility.yul\":2790:2796   */\n      dup4\n        /* \"#utility.yul\":2786:2803   */\n      add\n        /* \"#utility.yul\":2774:2803   */\n      swap2\n      pop\n        /* \"#utility.yul\":2852:2855   */\n      dup4\n        /* \"#utility.yul\":2844:2848   */\n      0x01\n        /* \"#utility.yul\":2836:2842   */\n      dup3\n        /* \"#utility.yul\":2832:2849   */\n      mul\n        /* \"#utility.yul\":2822:2830   */\n      dup4\n        /* \"#utility.yul\":2818:2850   */\n      add\n        /* \"#utility.yul\":2815:2856   */\n      gt\n        /* \"#utility.yul\":2812:2940   */\n      iszero\n      tag_195\n      jumpi\n        /* \"#utility.yul\":2859:2938   */\n      tag_196\n      tag_136\n      jump\t// in\n    tag_196:\n        /* \"#utility.yul\":2812:2940   */\n    tag_195:\n        /* \"#utility.yul\":2394:2946   */\n      swap3\n      pop\n      swap3\n      swap1\n      pop\n      jump\t// out\n        /* \"#utility.yul\":2952:3624   */\n    tag_24:\n        /* \"#utility.yul\":3031:3037   */\n      0x00\n        /* \"#utility.yul\":3039:3045   */\n      0x00\n        /* \"#utility.yul\":3047:3053   */\n      0x00\n        /* \"#utility.yul\":3096:3098   */\n      0x40\n        /* \"#utility.yul\":3084:3093   */\n      dup5\n        /* \"#utility.yul\":3075:3082   */\n      dup7\n        /* \"#utility.yul\":3071:3094   */\n      sub\n        /* \"#utility.yul\":3067:3099   */\n      slt\n        /* \"#utility.yul\":3064:3183   */\n      iszero\n      tag_198\n      jumpi\n        /* \"#utility.yul\":3102:3181   */\n      tag_199\n      tag_125\n      jump\t// in\n    tag_199:\n        /* \"#utility.yul\":3064:3183   */\n    tag_198:\n        /* \"#utility.yul\":3222:3223   */\n      0x00\n        /* \"#utility.yul\":3247:3300   */\n      tag_200\n        /* \"#utility.yul\":3292:3299   */\n      dup7\n        /* \"#utility.yul\":3283:3289   */\n      dup3\n        /* \"#utility.yul\":3272:3281   */\n      dup8\n        /* \"#utility.yul\":3268:3290   */\n      add\n        /* \"#utility.yul\":3247:3300   */\n      tag_130\n      jump\t// in\n    tag_200:\n        /* \"#utility.yul\":3237:3300   */\n      swap4\n      pop\n        /* \"#utility.yul\":3193:3310   */\n      pop\n        /* \"#utility.yul\":3377:3379   */\n      0x20\n        /* \"#utility.yul\":3366:3375   */\n      dup5\n        /* \"#utility.yul\":3362:3380   */\n      add\n        /* \"#utility.yul\":3349:3381   */\n      calldataload\n        /* \"#utility.yul\":3408:3426   */\n      0xffffffffffffffff\n        /* \"#utility.yul\":3400:3406   */\n      dup2\n        /* \"#utility.yul\":3397:3427   */\n      gt\n        /* \"#utility.yul\":3394:3511   */\n      iszero\n      tag_201\n      jumpi\n        /* \"#utility.yul\":3430:3509   */\n      tag_202\n      tag_126\n      jump\t// in\n    tag_202:\n        /* \"#utility.yul\":3394:3511   */\n    tag_201:\n        /* \"#utility.yul\":3543:3607   */\n      tag_203\n        /* \"#utility.yul\":3599:3606   */\n      dup7\n        /* \"#utility.yul\":3590:3596   */\n      dup3\n        /* \"#utility.yul\":3579:3588   */\n      dup8\n        /* \"#utility.yul\":3575:3597   */\n      add\n        /* \"#utility.yul\":3543:3607   */\n      tag_137\n      jump\t// in\n    tag_203:\n        /* \"#utility.yul\":3525:3607   */\n      swap3\n      pop\n      swap3\n      pop\n        /* \"#utility.yul\":3320:3617   */\n      pop\n        /* \"#utility.yul\":2952:3624   */\n      swap3\n      pop\n      swap3\n      pop\n      swap3\n      jump\t// out\n        /* \"#utility.yul\":3630:3707   */\n    tag_138:\n        /* \"#utility.yul\":3667:3674   */\n      0x00\n        /* \"#utility.yul\":3696:3701   */\n      dup2\n        /* \"#utility.yul\":3685:3701   */\n      swap1\n      pop\n        /* \"#utility.yul\":3630:3707   */\n      swap2\n      swap1\n      pop\n      jump\t// out\n        /* \"#utility.yul\":3713:3831   */\n    tag_139:\n        /* \"#utility.yul\":3800:3824   */\n      tag_206\n        /* \"#utility.yul\":3818:3823   */\n      dup2\n        /* \"#utility.yul\":3800:3824   */\n      tag_138\n      jump\t// in\n    tag_206:\n        /* \"#utility.yul\":3795:3798   */\n      dup3\n        /* \"#utility.yul\":3788:3825   */\n      mstore\n        /* \"#utility.yul\":3713:3831   */\n      pop\n      pop\n      jump\t// out\n        /* \"#utility.yul\":3837:4059   */\n    tag_30:\n        /* \"#utility.yul\":3930:3934   */\n      0x00\n        /* \"#utility.yul\":3968:3970   */\n      0x20\n        /* \"#utility.yul\":3957:3966   */\n      dup3\n        /* \"#utility.yul\":3953:3971   */\n      add\n        /* \"#utility.yul\":3945:3971   */\n      swap1\n      pop\n        /* \"#utility.yul\":3981:4052   */\n      tag_208\n        /* \"#utility.yul\":4049:4050   */\n      0x00\n        /* \"#utility.yul\":4038:4047   */\n      dup4\n        /* \"#utility.yul\":4034:4051   */\n      add\n        /* \"#utility.yul\":4025:4031   */\n      dup5\n        /* \"#utility.yul\":3981:4052   */\n      tag_139\n      jump\t// in\n    tag_208:\n        /* \"#utility.yul\":3837:4059   */\n      swap3\n      swap2\n      pop\n      pop\n      jump\t// out\n        /* \"#utility.yul\":4065:4183   */\n    tag_140:\n        /* \"#utility.yul\":4152:4176   */\n      tag_210\n        /* \"#utility.yul\":4170:4175   */\n      dup2\n        /* \"#utility.yul\":4152:4176   */\n      tag_128\n      jump\t// in\n    tag_210:\n        /* \"#utility.yul\":4147:4150   */\n      dup3\n        /* \"#utility.yul\":4140:4177   */\n      mstore\n        /* \"#utility.yul\":4065:4183   */\n      pop\n      pop\n      jump\t// out\n        /* \"#utility.yul\":4189:4411   */\n    tag_35:\n        /* \"#utility.yul\":4282:4286   */\n      0x00\n        /* \"#utility.yul\":4320:4322   */\n      0x20\n        /* \"#utility.yul\":4309:4318   */\n      dup3\n        /* \"#utility.yul\":4305:4323   */\n      add\n        /* \"#utility.yul\":4297:4323   */\n      swap1\n      pop\n        /* \"#utility.yul\":4333:4404   */\n      tag_212\n        /* \"#utility.yul\":4401:4402   */\n      0x00\n        /* \"#utility.yul\":4390:4399   */\n      dup4\n        /* \"#utility.yul\":4386:4403   */\n      add\n        /* \"#utility.yul\":4377:4383   */\n      dup5\n        /* \"#utility.yul\":4333:4404   */\n      tag_140\n      jump\t// in\n    tag_212:\n        /* \"#utility.yul\":4189:4411   */\n      swap3\n      swap2\n      pop\n      pop\n      jump\t// out\n        /* \"#utility.yul\":4417:4535   */\n    tag_141:\n        /* \"#utility.yul\":4504:4528   */\n      tag_214\n        /* \"#utility.yul\":4522:4527   */\n      dup2\n        /* \"#utility.yul\":4504:4528   */\n      tag_131\n      jump\t// in\n    tag_214:\n        /* \"#utility.yul\":4499:4502   */\n      dup3\n        /* \"#utility.yul\":4492:4529   */\n      mstore\n        /* \"#utility.yul\":4417:4535   */\n      pop\n      pop\n      jump\t// out\n        /* \"#utility.yul\":4541:4763   */\n    tag_40:\n        /* \"#utility.yul\":4634:4638   */\n      0x00\n        /* \"#utility.yul\":4672:4674   */\n      0x20\n        /* \"#utility.yul\":4661:4670   */\n      dup3\n        /* \"#utility.yul\":4657:4675   */\n      add\n        /* \"#utility.yul\":4649:4675   */\n      swap1\n      pop\n        /* \"#utility.yul\":4685:4756   */\n      tag_216\n        /* \"#utility.yul\":4753:4754   */\n      0x00\n        /* \"#utility.yul\":4742:4751   */\n      dup4\n        /* \"#utility.yul\":4738:4755   */\n      add\n        /* \"#utility.yul\":4729:4735   */\n      dup5\n        /* \"#utility.yul\":4685:4756   */\n      tag_141\n      jump\t// in\n    tag_216:\n        /* \"#utility.yul\":4541:4763   */\n      swap3\n      swap2\n      pop\n      pop\n      jump\t// out\n        /* \"#utility.yul\":4769:4938   */\n    tag_142:\n        /* \"#utility.yul\":4853:4864   */\n      0x00\n        /* \"#utility.yul\":4887:4893   */\n      dup3\n        /* \"#utility.yul\":4882:4885   */\n      dup3\n        /* \"#utility.yul\":4875:4894   */\n      mstore\n        /* \"#utility.yul\":4927:4931   */\n      0x20\n        /* \"#utility.yul\":4922:4925   */\n      dup3\n        /* \"#utility.yul\":4918:4932   */\n      add\n        /* \"#utility.yul\":4903:4932   */\n      swap1\n      pop\n        /* \"#utility.yul\":4769:4938   */\n      swap3\n      swap2\n      pop\n      pop\n      jump\t// out\n        /* \"#utility.yul\":4944:5110   */\n    tag_143:\n        /* \"#utility.yul\":5084:5102   */\n      0x4e4f545f44454c454741544543414c4c00000000000000000000000000000000\n        /* \"#utility.yul\":5080:5081   */\n      0x00\n        /* \"#utility.yul\":5072:5078   */\n      dup3\n        /* \"#utility.yul\":5068:5082   */\n      add\n        /* \"#utility.yul\":5061:5103   */\n      mstore\n        /* \"#utility.yul\":4944:5110   */\n      pop\n      jump\t// out\n        /* \"#utility.yul\":5116:5482   */\n    tag_144:\n        /* \"#utility.yul\":5258:5261   */\n      0x00\n        /* \"#utility.yul\":5279:5346   */\n      tag_220\n        /* \"#utility.yul\":5343:5345   */\n      0x10\n        /* \"#utility.yul\":5338:5341   */\n      dup4\n        /* \"#utility.yul\":5279:5346   */\n      tag_142\n      jump\t// in\n    tag_220:\n        /* \"#utility.yul\":5272:5346   */\n      swap2\n      pop\n        /* \"#utility.yul\":5355:5448   */\n      tag_221\n        /* \"#utility.yul\":5444:5447   */\n      dup3\n        /* \"#utility.yul\":5355:5448   */\n      tag_143\n      jump\t// in\n    tag_221:\n        /* \"#utility.yul\":5473:5475   */\n      0x20\n        /* \"#utility.yul\":5468:5471   */\n      dup3\n        /* \"#utility.yul\":5464:5476   */\n      add\n        /* \"#utility.yul\":5457:5476   */\n      swap1\n      pop\n        /* \"#utility.yul\":5116:5482   */\n      swap2\n      swap1\n      pop\n      jump\t// out\n        /* \"#utility.yul\":5488:5907   */\n    tag_62:\n        /* \"#utility.yul\":5654:5658   */\n      0x00\n        /* \"#utility.yul\":5692:5694   */\n      0x20\n        /* \"#utility.yul\":5681:5690   */\n      dup3\n        /* \"#utility.yul\":5677:5695   */\n      add\n        /* \"#utility.yul\":5669:5695   */\n      swap1\n      pop\n        /* \"#utility.yul\":5741:5750   */\n      dup2\n        /* \"#utility.yul\":5735:5739   */\n      dup2\n        /* \"#utility.yul\":5731:5751   */\n      sub\n        /* \"#utility.yul\":5727:5728   */\n      0x00\n        /* \"#utility.yul\":5716:5725   */\n      dup4\n        /* \"#utility.yul\":5712:5729   */\n      add\n        /* \"#utility.yul\":5705:5752   */\n      mstore\n        /* \"#utility.yul\":5769:5900   */\n      tag_223\n        /* \"#utility.yul\":5895:5899   */\n      dup2\n        /* \"#utility.yul\":5769:5900   */\n      tag_144\n      jump\t// in\n    tag_223:\n        /* \"#utility.yul\":5761:5900   */\n      swap1\n      pop\n        /* \"#utility.yul\":5488:5907   */\n      swap2\n      swap1\n      pop\n      jump\t// out\n        /* \"#utility.yul\":5913:6077   */\n    tag_145:\n        /* \"#utility.yul\":6053:6069   */\n      0x494e4143544956455f50524f5859000000000000000000000000000000000000\n        /* \"#utility.yul\":6049:6050   */\n      0x00\n        /* \"#utility.yul\":6041:6047   */\n      dup3\n        /* \"#utility.yul\":6037:6051   */\n      add\n        /* \"#utility.yul\":6030:6070   */\n      mstore\n        /* \"#utility.yul\":5913:6077   */\n      pop\n      jump\t// out\n        /* \"#utility.yul\":6083:6449   */\n    tag_146:\n        /* \"#utility.yul\":6225:6228   */\n      0x00\n        /* \"#utility.yul\":6246:6313   */\n      tag_226\n        /* \"#utility.yul\":6310:6312   */\n      0x0e\n        /* \"#utility.yul\":6305:6308   */\n      dup4\n        /* \"#utility.yul\":6246:6313   */\n      tag_142\n      jump\t// in\n    tag_226:\n        /* \"#utility.yul\":6239:6313   */\n      swap2\n      pop\n        /* \"#utility.yul\":6322:6415   */\n      tag_227\n        /* \"#utility.yul\":6411:6414   */\n      dup3\n        /* \"#utility.yul\":6322:6415   */\n      tag_145\n      jump\t// in\n    tag_227:\n        /* \"#utility.yul\":6440:6442   */\n      0x20\n        /* \"#utility.yul\":6435:6438   */\n      dup3\n        /* \"#utility.yul\":6431:6443   */\n      add\n        /* \"#utility.yul\":6424:6443   */\n      swap1\n      pop\n        /* \"#utility.yul\":6083:6449   */\n      swap2\n      swap1\n      pop\n      jump\t// out\n        /* \"#utility.yul\":6455:6874   */\n    tag_67:\n        /* \"#utility.yul\":6621:6625   */\n      0x00\n        /* \"#utility.yul\":6659:6661   */\n      0x20\n        /* \"#utility.yul\":6648:6657   */\n      dup3\n        /* \"#utility.yul\":6644:6662   */\n      add\n        /* \"#utility.yul\":6636:6662   */\n      swap1\n      pop\n        /* \"#utility.yul\":6708:6717   */\n      dup2\n        /* \"#utility.yul\":6702:6706   */\n      dup2\n        /* \"#utility.yul\":6698:6718   */\n      sub\n        /* \"#utility.yul\":6694:6695   */\n      0x00\n        /* \"#utility.yul\":6683:6692   */\n      dup4\n        /* \"#utility.yul\":6679:6696   */\n      add\n        /* \"#utility.yul\":6672:6719   */\n      mstore\n        /* \"#utility.yul\":6736:6867   */\n      tag_229\n        /* \"#utility.yul\":6862:6866   */\n      dup2\n        /* \"#utility.yul\":6736:6867   */\n      tag_146\n      jump\t// in\n    tag_229:\n        /* \"#utility.yul\":6728:6867   */\n      swap1\n      pop\n        /* \"#utility.yul\":6455:6874   */\n      swap2\n      swap1\n      pop\n      jump\t// out\n        /* \"#utility.yul\":6880:7049   */\n    tag_147:\n        /* \"#utility.yul\":7020:7041   */\n      0x4f4e4c595f494d504c454d454e544154494f4e00000000000000000000000000\n        /* \"#utility.yul\":7016:7017   */\n      0x00\n        /* \"#utility.yul\":7008:7014   */\n      dup3\n        /* \"#utility.yul\":7004:7018   */\n      add\n        /* \"#utility.yul\":6997:7042   */\n      mstore\n        /* \"#utility.yul\":6880:7049   */\n      pop\n      jump\t// out\n        /* \"#utility.yul\":7055:7421   */\n    tag_148:\n        /* \"#utility.yul\":7197:7200   */\n      0x00\n        /* \"#utility.yul\":7218:7285   */\n      tag_232\n        /* \"#utility.yul\":7282:7284   */\n      0x13\n        /* \"#utility.yul\":7277:7280   */\n      dup4\n        /* \"#utility.yul\":7218:7285   */\n      tag_142\n      jump\t// in\n    tag_232:\n        /* \"#utility.yul\":7211:7285   */\n      swap2\n      pop\n        /* \"#utility.yul\":7294:7387   */\n      tag_233\n        /* \"#utility.yul\":7383:7386   */\n      dup3\n        /* \"#utility.yul\":7294:7387   */\n      tag_147\n      jump\t// in\n    tag_233:\n        /* \"#utility.yul\":7412:7414   */\n      0x20\n        /* \"#utility.yul\":7407:7410   */\n      dup3\n        /* \"#utility.yul\":7403:7415   */\n      add\n        /* \"#utility.yul\":7396:7415   */\n      swap1\n      pop\n        /* \"#utility.yul\":7055:7421   */\n      swap2\n      swap1\n      pop\n      jump\t// out\n        /* \"#utility.yul\":7427:7846   */\n    tag_85:\n        /* \"#utility.yul\":7593:7597   */\n      0x00\n        /* \"#utility.yul\":7631:7633   */\n      0x20\n        /* \"#utility.yul\":7620:7629   */\n      dup3\n        /* \"#utility.yul\":7616:7634   */\n      add\n        /* \"#utility.yul\":7608:7634   */\n      swap1\n      pop\n        /* \"#utility.yul\":7680:7689   */\n      dup2\n        /* \"#utility.yul\":7674:7678   */\n      dup2\n        /* \"#utility.yul\":7670:7690   */\n      sub\n        /* \"#utility.yul\":7666:7667   */\n      0x00\n        /* \"#utility.yul\":7655:7664   */\n      dup4\n        /* \"#utility.yul\":7651:7668   */\n      add\n        /* \"#utility.yul\":7644:7691   */\n      mstore\n        /* \"#utility.yul\":7708:7839   */\n      tag_235\n        /* \"#utility.yul\":7834:7838   */\n      dup2\n        /* \"#utility.yul\":7708:7839   */\n      tag_148\n      jump\t// in\n    tag_235:\n        /* \"#utility.yul\":7700:7839   */\n      swap1\n      pop\n        /* \"#utility.yul\":7427:7846   */\n      swap2\n      swap1\n      pop\n      jump\t// out\n        /* \"#utility.yul\":7852:8021   */\n    tag_149:\n        /* \"#utility.yul\":7992:8013   */\n      0x414c52454144595f494e495449414c495a454400000000000000000000000000\n        /* \"#utility.yul\":7988:7989   */\n      0x00\n        /* \"#utility.yul\":7980:7986   */\n      dup3\n        /* \"#utility.yul\":7976:7990   */\n      add\n        /* \"#utility.yul\":7969:8014   */\n      mstore\n        /* \"#utility.yul\":7852:8021   */\n      pop\n      jump\t// out\n        /* \"#utility.yul\":8027:8393   */\n    tag_150:\n        /* \"#utility.yul\":8169:8172   */\n      0x00\n        /* \"#utility.yul\":8190:8257   */\n      tag_238\n        /* \"#utility.yul\":8254:8256   */\n      0x13\n        /* \"#utility.yul\":8249:8252   */\n      dup4\n        /* \"#utility.yul\":8190:8257   */\n      tag_142\n      jump\t// in\n    tag_238:\n        /* \"#utility.yul\":8183:8257   */\n      swap2\n      pop\n        /* \"#utility.yul\":8266:8359   */\n      tag_239\n        /* \"#utility.yul\":8355:8358   */\n      dup3\n        /* \"#utility.yul\":8266:8359   */\n      tag_149\n      jump\t// in\n    tag_239:\n        /* \"#utility.yul\":8384:8386   */\n      0x20\n        /* \"#utility.yul\":8379:8382   */\n      dup3\n        /* \"#utility.yul\":8375:8387   */\n      add\n        /* \"#utility.yul\":8368:8387   */\n      swap1\n      pop\n        /* \"#utility.yul\":8027:8393   */\n      swap2\n      swap1\n      pop\n      jump\t// out\n        /* \"#utility.yul\":8399:8818   */\n    tag_91:\n        /* \"#utility.yul\":8565:8569   */\n      0x00\n        /* \"#utility.yul\":8603:8605   */\n      0x20\n        /* \"#utility.yul\":8592:8601   */\n      dup3\n        /* \"#utility.yul\":8588:8606   */\n      add\n        /* \"#utility.yul\":8580:8606   */\n      swap1\n      pop\n        /* \"#utility.yul\":8652:8661   */\n      dup2\n        /* \"#utility.yul\":8646:8650   */\n      dup2\n        /* \"#utility.yul\":8642:8662   */\n      sub\n        /* \"#utility.yul\":8638:8639   */\n      0x00\n        /* \"#utility.yul\":8627:8636   */\n      dup4\n        /* \"#utility.yul\":8623:8640   */\n      add\n        /* \"#utility.yul\":8616:8663   */\n      mstore\n        /* \"#utility.yul\":8680:8811   */\n      tag_241\n        /* \"#utility.yul\":8806:8810   */\n      dup2\n        /* \"#utility.yul\":8680:8811   */\n      tag_150\n      jump\t// in\n    tag_241:\n        /* \"#utility.yul\":8672:8811   */\n      swap1\n      pop\n        /* \"#utility.yul\":8399:8818   */\n      swap2\n      swap1\n      pop\n      jump\t// out\n        /* \"#utility.yul\":8824:8983   */\n    tag_151:\n        /* \"#utility.yul\":8964:8975   */\n      0x5a45524f5f494d504c0000000000000000000000000000000000000000000000\n        /* \"#utility.yul\":8960:8961   */\n      0x00\n        /* \"#utility.yul\":8952:8958   */\n      dup3\n        /* \"#utility.yul\":8948:8962   */\n      add\n        /* \"#utility.yul\":8941:8976   */\n      mstore\n        /* \"#utility.yul\":8824:8983   */\n      pop\n      jump\t// out\n        /* \"#utility.yul\":8989:9354   */\n    tag_152:\n        /* \"#utility.yul\":9131:9134   */\n      0x00\n        /* \"#utility.yul\":9152:9218   */\n      tag_244\n        /* \"#utility.yul\":9216:9217   */\n      0x09\n        /* \"#utility.yul\":9211:9214   */\n      dup4\n        /* \"#utility.yul\":9152:9218   */\n      tag_142\n      jump\t// in\n    tag_244:\n        /* \"#utility.yul\":9145:9218   */\n      swap2\n      pop\n        /* \"#utility.yul\":9227:9320   */\n      tag_245\n        /* \"#utility.yul\":9316:9319   */\n      dup3\n        /* \"#utility.yul\":9227:9320   */\n      tag_151\n      jump\t// in\n    tag_245:\n        /* \"#utility.yul\":9345:9347   */\n      0x20\n        /* \"#utility.yul\":9340:9343   */\n      dup3\n        /* \"#utility.yul\":9336:9348   */\n      add\n        /* \"#utility.yul\":9329:9348   */\n      swap1\n      pop\n        /* \"#utility.yul\":8989:9354   */\n      swap2\n      swap1\n      pop\n      jump\t// out\n        /* \"#utility.yul\":9360:9779   */\n    tag_108:\n        /* \"#utility.yul\":9526:9530   */\n      0x00\n        /* \"#utility.yul\":9564:9566   */\n      0x20\n        /* \"#utility.yul\":9553:9562   */\n      dup3\n        /* \"#utility.yul\":9549:9567   */\n      add\n        /* \"#utility.yul\":9541:9567   */\n      swap1\n      pop\n        /* \"#utility.yul\":9613:9622   */\n      dup2\n        /* \"#utility.yul\":9607:9611   */\n      dup2\n        /* \"#utility.yul\":9603:9623   */\n      sub\n        /* \"#utility.yul\":9599:9600   */\n      0x00\n        /* \"#utility.yul\":9588:9597   */\n      dup4\n        /* \"#utility.yul\":9584:9601   */\n      add\n        /* \"#utility.yul\":9577:9624   */\n      mstore\n        /* \"#utility.yul\":9641:9772   */\n      tag_247\n        /* \"#utility.yul\":9767:9771   */\n      dup2\n        /* \"#utility.yul\":9641:9772   */\n      tag_152\n      jump\t// in\n    tag_247:\n        /* \"#utility.yul\":9633:9772   */\n      swap1\n      pop\n        /* \"#utility.yul\":9360:9779   */\n      swap2\n      swap1\n      pop\n      jump\t// out\n        /* \"#utility.yul\":9785:9883   */\n    tag_153:\n        /* \"#utility.yul\":9836:9842   */\n      0x00\n        /* \"#utility.yul\":9870:9875   */\n      dup2\n        /* \"#utility.yul\":9864:9876   */\n      mload\n        /* \"#utility.yul\":9854:9876   */\n      swap1\n      pop\n        /* \"#utility.yul\":9785:9883   */\n      swap2\n      swap1\n      pop\n      jump\t// out\n        /* \"#utility.yul\":9889:10036   */\n    tag_154:\n        /* \"#utility.yul\":9990:10001   */\n      0x00\n        /* \"#utility.yul\":10027:10030   */\n      dup2\n        /* \"#utility.yul\":10012:10030   */\n      swap1\n      pop\n        /* \"#utility.yul\":9889:10036   */\n      swap3\n      swap2\n      pop\n      pop\n      jump\t// out\n        /* \"#utility.yul\":10042:10181   */\n    tag_155:\n        /* \"#utility.yul\":10131:10137   */\n      dup3\n        /* \"#utility.yul\":10126:10129   */\n      dup2\n        /* \"#utility.yul\":10121:10124   */\n      dup4\n        /* \"#utility.yul\":10115:10138   */\n      mcopy\n        /* \"#utility.yul\":10172:10173   */\n      0x00\n        /* \"#utility.yul\":10163:10169   */\n      dup4\n        /* \"#utility.yul\":10158:10161   */\n      dup4\n        /* \"#utility.yul\":10154:10170   */\n      add\n        /* \"#utility.yul\":10147:10174   */\n      mstore\n        /* \"#utility.yul\":10042:10181   */\n      pop\n      pop\n      pop\n      jump\t// out\n        /* \"#utility.yul\":10187:10573   */\n    tag_156:\n        /* \"#utility.yul\":10291:10294   */\n      0x00\n        /* \"#utility.yul\":10319:10357   */\n      tag_252\n        /* \"#utility.yul\":10351:10356   */\n      dup3\n        /* \"#utility.yul\":10319:10357   */\n      tag_153\n      jump\t// in\n    tag_252:\n        /* \"#utility.yul\":10373:10461   */\n      tag_253\n        /* \"#utility.yul\":10454:10460   */\n      dup2\n        /* \"#utility.yul\":10449:10452   */\n      dup6\n        /* \"#utility.yul\":10373:10461   */\n      tag_154\n      jump\t// in\n    tag_253:\n        /* \"#utility.yul\":10366:10461   */\n      swap4\n      pop\n        /* \"#utility.yul\":10470:10535   */\n      tag_254\n        /* \"#utility.yul\":10528:10534   */\n      dup2\n        /* \"#utility.yul\":10523:10526   */\n      dup6\n        /* \"#utility.yul\":10516:10520   */\n      0x20\n        /* \"#utility.yul\":10509:10514   */\n      dup7\n        /* \"#utility.yul\":10505:10521   */\n      add\n        /* \"#utility.yul\":10470:10535   */\n      tag_155\n      jump\t// in\n    tag_254:\n        /* \"#utility.yul\":10560:10566   */\n      dup1\n        /* \"#utility.yul\":10555:10558   */\n      dup5\n        /* \"#utility.yul\":10551:10567   */\n      add\n        /* \"#utility.yul\":10544:10567   */\n      swap2\n      pop\n        /* \"#utility.yul\":10295:10573   */\n      pop\n        /* \"#utility.yul\":10187:10573   */\n      swap3\n      swap2\n      pop\n      pop\n      jump\t// out\n        /* \"#utility.yul\":10579:10850   */\n    tag_114:\n        /* \"#utility.yul\":10709:10712   */\n      0x00\n        /* \"#utility.yul\":10731:10824   */\n      tag_256\n        /* \"#utility.yul\":10820:10823   */\n      dup3\n        /* \"#utility.yul\":10811:10817   */\n      dup5\n        /* \"#utility.yul\":10731:10824   */\n      tag_156\n      jump\t// in\n    tag_256:\n        /* \"#utility.yul\":10724:10824   */\n      swap2\n      pop\n        /* \"#utility.yul\":10841:10844   */\n      dup2\n        /* \"#utility.yul\":10834:10844   */\n      swap1\n      pop\n        /* \"#utility.yul\":10579:10850   */\n      swap3\n      swap2\n      pop\n      pop\n      jump\t// out\n        /* \"#utility.yul\":10856:10955   */\n    tag_157:\n        /* \"#utility.yul\":10908:10914   */\n      0x00\n        /* \"#utility.yul\":10942:10947   */\n      dup2\n        /* \"#utility.yul\":10936:10948   */\n      mload\n        /* \"#utility.yul\":10926:10948   */\n      swap1\n      pop\n        /* \"#utility.yul\":10856:10955   */\n      swap2\n      swap1\n      pop\n      jump\t// out\n        /* \"#utility.yul\":10961:11063   */\n    tag_158:\n        /* \"#utility.yul\":11002:11008   */\n      0x00\n        /* \"#utility.yul\":11053:11055   */\n      0x1f\n        /* \"#utility.yul\":11049:11056   */\n      not\n        /* \"#utility.yul\":11044:11046   */\n      0x1f\n        /* \"#utility.yul\":11037:11042   */\n      dup4\n        /* \"#utility.yul\":11033:11047   */\n      add\n        /* \"#utility.yul\":11029:11057   */\n      and\n        /* \"#utility.yul\":11019:11057   */\n      swap1\n      pop\n        /* \"#utility.yul\":10961:11063   */\n      swap2\n      swap1\n      pop\n      jump\t// out\n        /* \"#utility.yul\":11069:11446   */\n    tag_159:\n        /* \"#utility.yul\":11157:11160   */\n      0x00\n        /* \"#utility.yul\":11185:11224   */\n      tag_260\n        /* \"#utility.yul\":11218:11223   */\n      dup3\n        /* \"#utility.yul\":11185:11224   */\n      tag_157\n      jump\t// in\n    tag_260:\n        /* \"#utility.yul\":11240:11311   */\n      tag_261\n        /* \"#utility.yul\":11304:11310   */\n      dup2\n        /* \"#utility.yul\":11299:11302   */\n      dup6\n        /* \"#utility.yul\":11240:11311   */\n      tag_142\n      jump\t// in\n    tag_261:\n        /* \"#utility.yul\":11233:11311   */\n      swap4\n      pop\n        /* \"#utility.yul\":11320:11385   */\n      tag_262\n        /* \"#utility.yul\":11378:11384   */\n      dup2\n        /* \"#utility.yul\":11373:11376   */\n      dup6\n        /* \"#utility.yul\":11366:11370   */\n      0x20\n        /* \"#utility.yul\":11359:11364   */\n      dup7\n        /* \"#utility.yul\":11355:11371   */\n      add\n        /* \"#utility.yul\":11320:11385   */\n      tag_155\n      jump\t// in\n    tag_262:\n        /* \"#utility.yul\":11410:11439   */\n      tag_263\n        /* \"#utility.yul\":11432:11438   */\n      dup2\n        /* \"#utility.yul\":11410:11439   */\n      tag_158\n      jump\t// in\n    tag_263:\n        /* \"#utility.yul\":11405:11408   */\n      dup5\n        /* \"#utility.yul\":11401:11440   */\n      add\n        /* \"#utility.yul\":11394:11440   */\n      swap2\n      pop\n        /* \"#utility.yul\":11161:11446   */\n      pop\n        /* \"#utility.yul\":11069:11446   */\n      swap3\n      swap2\n      pop\n      pop\n      jump\t// out\n        /* \"#utility.yul\":11452:11765   */\n    tag_120:\n        /* \"#utility.yul\":11565:11569   */\n      0x00\n        /* \"#utility.yul\":11603:11605   */\n      0x20\n        /* \"#utility.yul\":11592:11601   */\n      dup3\n        /* \"#utility.yul\":11588:11606   */\n      add\n        /* \"#utility.yul\":11580:11606   */\n      swap1\n      pop\n        /* \"#utility.yul\":11652:11661   */\n      dup2\n        /* \"#utility.yul\":11646:11650   */\n      dup2\n        /* \"#utility.yul\":11642:11662   */\n      sub\n        /* \"#utility.yul\":11638:11639   */\n      0x00\n        /* \"#utility.yul\":11627:11636   */\n      dup4\n        /* \"#utility.yul\":11623:11640   */\n      add\n        /* \"#utility.yul\":11616:11663   */\n      mstore\n        /* \"#utility.yul\":11680:11758   */\n      tag_265\n        /* \"#utility.yul\":11753:11757   */\n      dup2\n        /* \"#utility.yul\":11744:11750   */\n      dup5\n        /* \"#utility.yul\":11680:11758   */\n      tag_159\n      jump\t// in\n    tag_265:\n        /* \"#utility.yul\":11672:11758   */\n      swap1\n      pop\n        /* \"#utility.yul\":11452:11765   */\n      swap3\n      swap2\n      pop\n      pop\n      jump\t// out\n\n    auxdata: 0xa2646970667358221220823e94d3479088f96526b980de04c48a9236d945ed9efc04be47250dac660af164736f6c634300081e0033\n}\n",
				"bytecode": {
					"linkReferences": {},
					"object": "60a06040523073ffffffffffffffffffffffffffffffffffffffff1660809073ffffffffffffffffffffffffffffffffffffffff16815250348015610042575f5ffd5b506080516110266100775f395f81816102e00152818161036e01528181610428015281816104b601526105a901526110265ff3fe608060405260043610610084575f3560e01c80638da5cb5b116100585780638da5cb5b1461011e578063c33f59d314610148578063c4d66de814610172578063cfed246b1461019a578063d3a417a2146101d657610084565b8062e4768b146100885780633659cfe6146100b05780634f1ef286146100d857806352d1902d146100f4575b5f5ffd5b348015610093575f5ffd5b506100ae60048036038101906100a99190610b56565b6101fe565b005b3480156100bb575f5ffd5b506100d660048036038101906100d19190610b94565b6102de565b005b6100f260048036038101906100ed9190610c20565b610426565b005b3480156100ff575f5ffd5b506101086105a6565b6040516101159190610c95565b60405180910390f35b348015610129575f5ffd5b5061013261065d565b60405161013f9190610cbd565b60405180910390f35b348015610153575f5ffd5b5061015c610682565b6040516101699190610ce5565b60405180910390f35b34801561017d575f5ffd5b5061019860048036038101906101939190610b94565b61068e565b005b3480156101a5575f5ffd5b506101c060048036038101906101bb9190610b94565b61076c565b6040516101cd9190610ce5565b60405180910390f35b3480156101e1575f5ffd5b506101fc60048036038101906101f79190610b94565b610781565b005b5f60029054906101000a900473ffffffffffffffffffffffffffffffffffffffff1673ffffffffffffffffffffffffffffffffffffffff163373ffffffffffffffffffffffffffffffffffffffff1614610256575f5ffd5b5f73ffffffffffffffffffffffffffffffffffffffff168273ffffffffffffffffffffffffffffffffffffffff160361028d575f5ffd5b5f8103610298575f5ffd5b8060015f8473ffffffffffffffffffffffffffffffffffffffff1673ffffffffffffffffffffffffffffffffffffffff1681526020019081526020015f20819055505050565b7f000000000000000000000000000000000000000000000000000000000000000073ffffffffffffffffffffffffffffffffffffffff163073ffffffffffffffffffffffffffffffffffffffff160361036c576040517f08c379a000000000000000000000000000000000000000000000000000000000815260040161036390610d58565b60405180910390fd5b7f000000000000000000000000000000000000000000000000000000000000000073ffffffffffffffffffffffffffffffffffffffff166103ab610853565b73ffffffffffffffffffffffffffffffffffffffff1614610401576040517f08c379a00000000000000000000000000000000000000000000000000000000081526004016103f890610dc0565b60405180910390fd5b61040a81610882565b6104238160405180602001604052805f8152505f6108dd565b50565b7f000000000000000000000000000000000000000000000000000000000000000073ffffffffffffffffffffffffffffffffffffffff163073ffffffffffffffffffffffffffffffffffffffff16036104b4576040517f08c379a00000000000000000000000000000000000000000000000000000000081526004016104ab90610d58565b60405180910390fd5b7f000000000000000000000000000000000000000000000000000000000000000073ffffffffffffffffffffffffffffffffffffffff166104f3610853565b73ffffffffffffffffffffffffffffffffffffffff1614610549576040517f08c379a000000000000000000000000000000000000000000000000000000000815260040161054090610dc0565b60405180910390fd5b61055283610882565b6105a18383838080601f0160208091040260200160405190810160405280939291908181526020018383808284375f81840152601f19601f8201169050808301925050505050505060016108dd565b505050565b5f7f000000000000000000000000000000000000000000000000000000000000000073ffffffffffffffffffffffffffffffffffffffff163073ffffffffffffffffffffffffffffffffffffffff1614610635576040517f08c379a000000000000000000000000000000000000000000000000000000000815260040161062c90610e28565b60405180910390fd5b7f360894a13ba1a3210667c828492db98dca3e2076cc3735a920a3ca505d382bbc5f1b905090565b5f60029054906101000a900473ffffffffffffffffffffffffffffffffffffffff1681565b670de0b6b3a764000081565b5f5f9054906101000a900460ff1615806106b357505f60019054906101000a900460ff165b6106f2576040517f08c379a00000000000000000000000000000000000000000000000000000000081526004016106e990610e90565b60405180910390fd5b5f5f60019054906101000a900460ff16159050801561073f5760015f60016101000a81548160ff02191690831515021790555060015f5f6101000a81548160ff0219169083151502179055505b61074882610a1a565b8015610768575f5f60016101000a81548160ff0219169083151502179055505b5050565b6001602052805f5260405f205f915090505481565b5f60029054906101000a900473ffffffffffffffffffffffffffffffffffffffff1673ffffffffffffffffffffffffffffffffffffffff163373ffffffffffffffffffffffffffffffffffffffff16146107d9575f5ffd5b5f73ffffffffffffffffffffffffffffffffffffffff168173ffffffffffffffffffffffffffffffffffffffff1603610810575f5ffd5b805f60026101000a81548173ffffffffffffffffffffffffffffffffffffffff021916908373ffffffffffffffffffffffffffffffffffffffff16021790555050565b5f5f7f360894a13ba1a3210667c828492db98dca3e2076cc3735a920a3ca505d382bbc5f1b9050805491505090565b5f60029054906101000a900473ffffffffffffffffffffffffffffffffffffffff1673ffffffffffffffffffffffffffffffffffffffff163373ffffffffffffffffffffffffffffffffffffffff16146108da575f5ffd5b50565b5f73ffffffffffffffffffffffffffffffffffffffff168373ffffffffffffffffffffffffffffffffffffffff160361094b576040517f08c379a000000000000000000000000000000000000000000000000000000000815260040161094290610ef8565b60405180910390fd5b61095483610a94565b808061096057505f8251115b15610a15575f5f8473ffffffffffffffffffffffffffffffffffffffff168460405161098c9190610f68565b5f60405180830381855af49150503d805f81146109c4576040519150601f19603f3d011682016040523d82523d5f602084013e6109c9565b606091505b5091509150818190610a11576040517f08c379a0000000000000000000000000000000000000000000000000000000008152600401610a089190610fd0565b60405180910390fd5b5050505b505050565b5f73ffffffffffffffffffffffffffffffffffffffff168173ffffffffffffffffffffffffffffffffffffffff1603610a51575f5ffd5b805f60026101000a81548173ffffffffffffffffffffffffffffffffffffffff021916908373ffffffffffffffffffffffffffffffffffffffff16021790555050565b5f7f360894a13ba1a3210667c828492db98dca3e2076cc3735a920a3ca505d382bbc5f1b90508181555050565b5f5ffd5b5f5ffd5b5f73ffffffffffffffffffffffffffffffffffffffff82169050919050565b5f610af282610ac9565b9050919050565b610b0281610ae8565b8114610b0c575f5ffd5b50565b5f81359050610b1d81610af9565b92915050565b5f819050919050565b610b3581610b23565b8114610b3f575f5ffd5b50565b5f81359050610b5081610b2c565b92915050565b5f5f60408385031215610b6c57610b6b610ac1565b5b5f610b7985828601610b0f565b9250506020610b8a85828601610b42565b9150509250929050565b5f60208284031215610ba957610ba8610ac1565b5b5f610bb684828501610b0f565b91505092915050565b5f5ffd5b5f5ffd5b5f5ffd5b5f5f83601f840112610be057610bdf610bbf565b5b8235905067ffffffffffffffff811115610bfd57610bfc610bc3565b5b602083019150836001820283011115610c1957610c18610bc7565b5b9250929050565b5f5f5f60408486031215610c3757610c36610ac1565b5b5f610c4486828701610b0f565b935050602084013567ffffffffffffffff811115610c6557610c64610ac5565b5b610c7186828701610bcb565b92509250509250925092565b5f819050919050565b610c8f81610c7d565b82525050565b5f602082019050610ca85f830184610c86565b92915050565b610cb781610ae8565b82525050565b5f602082019050610cd05f830184610cae565b92915050565b610cdf81610b23565b82525050565b5f602082019050610cf85f830184610cd6565b92915050565b5f82825260208201905092915050565b7f4e4f545f44454c454741544543414c4c000000000000000000000000000000005f82015250565b5f610d42601083610cfe565b9150610d4d82610d0e565b602082019050919050565b5f6020820190508181035f830152610d6f81610d36565b9050919050565b7f494e4143544956455f50524f58590000000000000000000000000000000000005f82015250565b5f610daa600e83610cfe565b9150610db582610d76565b602082019050919050565b5f6020820190508181035f830152610dd781610d9e565b9050919050565b7f4f4e4c595f494d504c454d454e544154494f4e000000000000000000000000005f82015250565b5f610e12601383610cfe565b9150610e1d82610dde565b602082019050919050565b5f6020820190508181035f830152610e3f81610e06565b9050919050565b7f414c52454144595f494e495449414c495a4544000000000000000000000000005f82015250565b5f610e7a601383610cfe565b9150610e8582610e46565b602082019050919050565b5f6020820190508181035f830152610ea781610e6e565b9050919050565b7f5a45524f5f494d504c00000000000000000000000000000000000000000000005f82015250565b5f610ee2600983610cfe565b9150610eed82610eae565b602082019050919050565b5f6020820190508181035f830152610f0f81610ed6565b9050919050565b5f81519050919050565b5f81905092915050565b8281835e5f83830152505050565b5f610f4282610f16565b610f4c8185610f20565b9350610f5c818560208601610f2a565b80840191505092915050565b5f610f738284610f38565b915081905092915050565b5f81519050919050565b5f601f19601f8301169050919050565b5f610fa282610f7e565b610fac8185610cfe565b9350610fbc818560208601610f2a565b610fc581610f88565b840191505092915050565b5f6020820190508181035f830152610fe88184610f98565b90509291505056fea2646970667358221220823e94d3479088f96526b980de04c48a9236d945ed9efc04be47250dac660af164736f6c634300081e0033",
					"opcodes": "PUSH1 0xA0 PUSH1 0x40 MSTORE ADDRESS PUSH20 0xFFFFFFFFFFFFFFFFFFFFFFFFFFFFFFFFFFFFFFFF AND PUSH1 0x80 SWAP1 PUSH20 0xFFFFFFFFFFFFFFFFFFFFFFFFFFFFFFFFFFFFFFFF AND DUP2 MSTORE POP CALLVALUE DUP1 ISZERO PUSH2 0x42 JUMPI PUSH0 PUSH0 REVERT JUMPDEST POP PUSH1 0x80 MLOAD PUSH2 0x1026 PUSH2 0x77 PUSH0 CODECOPY PUSH0 DUP2 DUP2 PUSH2 0x2E0 ADD MSTORE DUP2 DUP2 PUSH2 0x36E ADD MSTORE DUP2 DUP2 PUSH2 0x428 ADD MSTORE DUP2 DUP2 PUSH2 0x4B6 ADD MSTORE PUSH2 0x5A9 ADD MSTORE PUSH2 0x1026 PUSH0 RETURN INVALID PUSH1 0x80 PUSH1 0x40 MSTORE PUSH1 0x4 CALLDATASIZE LT PUSH2 0x84 JUMPI PUSH0 CALLDATALOAD PUSH1 0xE0 SHR DUP1 PUSH4 0x8DA5CB5B GT PUSH2 0x58 JUMPI DUP1 PUSH4 0x8DA5CB5B EQ PUSH2 0x11E JUMPI DUP1 PUSH4 0xC33F59D3 EQ PUSH2 0x148 JUMPI DUP1 PUSH4 0xC4D66DE8 EQ PUSH2 0x172 JUMPI DUP1 PUSH4 0xCFED246B EQ PUSH2 0x19A JUMPI DUP1 PUSH4 0xD3A417A2 EQ PUSH2 0x1D6 JUMPI PUSH2 0x84 JUMP JUMPDEST DUP1 PUSH3 0xE4768B EQ PUSH2 0x88 JUMPI DUP1 PUSH4 0x3659CFE6 EQ PUSH2 0xB0 JUMPI DUP1 PUSH4 0x4F1EF286 EQ PUSH2 0xD8 JUMPI DUP1 PUSH4 0x52D1902D EQ PUSH2 0xF4 JUMPI JUMPDEST PUSH0 PUSH0 REVERT JUMPDEST CALLVALUE DUP1 ISZERO PUSH2 0x93 JUMPI PUSH0 PUSH0 REVERT JUMPDEST POP PUSH2 0xAE PUSH1 0x4 DUP1 CALLDATASIZE SUB DUP2 ADD SWAP1 PUSH2 0xA9 SWAP2 SWAP1 PUSH2 0xB56 JUMP JUMPDEST PUSH2 0x1FE JUMP JUMPDEST STOP JUMPDEST CALLVALUE DUP1 ISZERO PUSH2 0xBB JUMPI PUSH0 PUSH0 REVERT JUMPDEST POP PUSH2 0xD6 PUSH1 0x4 DUP1 CALLDATASIZE SUB DUP2 ADD SWAP1 PUSH2 0xD1 SWAP2 SWAP1 PUSH2 0xB94 JUMP JUMPDEST PUSH2 0x2DE JUMP JUMPDEST STOP JUMPDEST PUSH2 0xF2 PUSH1 0x4 DUP1 CALLDATASIZE SUB DUP2 ADD SWAP1 PUSH2 0xED SWAP2 SWAP1 PUSH2 0xC20 JUMP JUMPDEST PUSH2 0x426 JUMP JUMPDEST STOP JUMPDEST CALLVALUE DUP1 ISZERO PUSH2 0xFF JUMPI PUSH0 PUSH0 REVERT JUMPDEST POP PUSH2 0x108 PUSH2 0x5A6 JUMP JUMPDEST PUSH1 0x40 MLOAD PUSH2 0x115 SWAP2 SWAP1 PUSH2 0xC95 JUMP JUMPDEST PUSH1 0x40 MLOAD DUP1 SWAP2 SUB SWAP1 RETURN JUMPDEST CALLVALUE DUP1 ISZERO PUSH2 0x129 JUMPI PUSH0 PUSH0 REVERT JUMPDEST POP PUSH2 0x132 PUSH2 0x65D JUMP JUMPDEST PUSH1 0x40 MLOAD PUSH2 0x13F SWAP2 SWAP1 PUSH2 0xCBD JUMP JUMPDEST PUSH1 0x40 MLOAD DUP1 SWAP2 SUB SWAP1 RETURN JUMPDEST CALLVALUE DUP1 ISZERO PUSH2 0x153 JUMPI PUSH0 PUSH0 REVERT JUMPDEST POP PUSH2 0x15C PUSH2 0x682 JUMP JUMPDEST PUSH1 0x40 MLOAD PUSH2 0x169 SWAP2 SWAP1 PUSH2 0xCE5 JUMP JUMPDEST PUSH1 0x40 MLOAD DUP1 SWAP2 SUB SWAP1 RETURN JUMPDEST CALLVALUE DUP1 ISZERO PUSH2 0x17D JUMPI PUSH0 PUSH0 REVERT JUMPDEST POP PUSH2 0x198 PUSH1 0x4 DUP1 CALLDATASIZE SUB DUP2 ADD SWAP1 PUSH2 0x193 SWAP2 SWAP1 PUSH2 0xB94 JUMP JUMPDEST PUSH2 0x68E JUMP JUMPDEST STOP JUMPDEST CALLVALUE DUP1 ISZERO PUSH2 0x1A5 JUMPI PUSH0 PUSH0 REVERT JUMPDEST POP PUSH2 0x1C0 PUSH1 0x4 DUP1 CALLDATASIZE SUB DUP2 ADD SWAP1 PUSH2 0x1BB SWAP2 SWAP1 PUSH2 0xB94 JUMP JUMPDEST PUSH2 0x76C JUMP JUMPDEST PUSH1 0x40 MLOAD PUSH2 0x1CD SWAP2 SWAP1 PUSH2 0xCE5 JUMP JUMPDEST PUSH1 0x40 MLOAD DUP1 SWAP2 SUB SWAP1 RETURN JUMPDEST CALLVALUE DUP1 ISZERO PUSH2 0x1E1 JUMPI PUSH0 PUSH0 REVERT JUMPDEST POP PUSH2 0x1FC PUSH1 0x4 DUP1 CALLDATASIZE SUB DUP2 ADD SWAP1 PUSH2 0x1F7 SWAP2 SWAP1 PUSH2 0xB94 JUMP JUMPDEST PUSH2 0x781 JUMP JUMPDEST STOP JUMPDEST PUSH0 PUSH1 0x2 SWAP1 SLOAD SWAP1 PUSH2 0x100 EXP SWAP1 DIV PUSH20 0xFFFFFFFFFFFFFFFFFFFFFFFFFFFFFFFFFFFFFFFF AND PUSH20 0xFFFFFFFFFFFFFFFFFFFFFFFFFFFFFFFFFFFFFFFF AND CALLER PUSH20 0xFFFFFFFFFFFFFFFFFFFFFFFFFFFFFFFFFFFFFFFF AND EQ PUSH2 0x256 JUMPI PUSH0 PUSH0 REVERT JUMPDEST PUSH0 PUSH20 0xFFFFFFFFFFFFFFFFFFFFFFFFFFFFFFFFFFFFFFFF AND DUP3 PUSH20 0xFFFFFFFFFFFFFFFFFFFFFFFFFFFFFFFFFFFFFFFF AND SUB PUSH2 0x28D JUMPI PUSH0 PUSH0 REVERT JUMPDEST PUSH0 DUP2 SUB PUSH2 0x298 JUMPI PUSH0 PUSH0 REVERT JUMPDEST DUP1 PUSH1 0x1 PUSH0 DUP5 PUSH20 0xFFFFFFFFFFFFFFFFFFFFFFFFFFFFFFFFFFFFFFFF AND PUSH20 0xFFFFFFFFFFFFFFFFFFFFFFFFFFFFFFFFFFFFFFFF AND DUP2 MSTORE PUSH1 0x20 ADD SWAP1 DUP2 MSTORE PUSH1 0x20 ADD PUSH0 KECCAK256 DUP2 SWAP1 SSTORE POP POP POP JUMP JUMPDEST PUSH32 0x0 PUSH20 0xFFFFFFFFFFFFFFFFFFFFFFFFFFFFFFFFFFFFFFFF AND ADDRESS PUSH20 0xFFFFFFFFFFFFFFFFFFFFFFFFFFFFFFFFFFFFFFFF AND SUB PUSH2 0x36C JUMPI PUSH1 0x40 MLOAD PUSH32 0x8C379A000000000000000000000000000000000000000000000000000000000 DUP2 MSTORE PUSH1 0x4 ADD PUSH2 0x363 SWAP1 PUSH2 0xD58 JUMP JUMPDEST PUSH1 0x40 MLOAD DUP1 SWAP2 SUB SWAP1 REVERT JUMPDEST PUSH32 0x0 PUSH20 0xFFFFFFFFFFFFFFFFFFFFFFFFFFFFFFFFFFFFFFFF AND PUSH2 0x3AB PUSH2 0x853 JUMP JUMPDEST PUSH20 0xFFFFFFFFFFFFFFFFFFFFFFFFFFFFFFFFFFFFFFFF AND EQ PUSH2 0x401 JUMPI PUSH1 0x40 MLOAD PUSH32 0x8C379A000000000000000000000000000000000000000000000000000000000 DUP2 MSTORE PUSH1 0x4 ADD PUSH2 0x3F8 SWAP1 PUSH2 0xDC0 JUMP JUMPDEST PUSH1 0x40 MLOAD DUP1 SWAP2 SUB SWAP1 REVERT JUMPDEST PUSH2 0x40A DUP2 PUSH2 0x882 JUMP JUMPDEST PUSH2 0x423 DUP2 PUSH1 0x40 MLOAD DUP1 PUSH1 0x20 ADD PUSH1 0x40 MSTORE DUP1 PUSH0 DUP2 MSTORE POP PUSH0 PUSH2 0x8DD JUMP JUMPDEST POP JUMP JUMPDEST PUSH32 0x0 PUSH20 0xFFFFFFFFFFFFFFFFFFFFFFFFFFFFFFFFFFFFFFFF AND ADDRESS PUSH20 0xFFFFFFFFFFFFFFFFFFFFFFFFFFFFFFFFFFFFFFFF AND SUB PUSH2 0x4B4 JUMPI PUSH1 0x40 MLOAD PUSH32 0x8C379A000000000000000000000000000000000000000000000000000000000 DUP2 MSTORE PUSH1 0x4 ADD PUSH2 0x4AB SWAP1 PUSH2 0xD58 JUMP JUMPDEST PUSH1 0x40 MLOAD DUP1 SWAP2 SUB SWAP1 REVERT JUMPDEST PUSH32 0x0 PUSH20 0xFFFFFFFFFFFFFFFFFFFFFFFFFFFFFFFFFFFFFFFF AND PUSH2 0x4F3 PUSH2 0x853 JUMP JUMPDEST PUSH20 0xFFFFFFFFFFFFFFFFFFFFFFFFFFFFFFFFFFFFFFFF AND EQ PUSH2 0x549 JUMPI PUSH1 0x40 MLOAD PUSH32 0x8C379A000000000000000000000000000000000000000000000000000000000 DUP2 MSTORE PUSH1 0x4 ADD PUSH2 0x540 SWAP1 PUSH2 0xDC0 JUMP JUMPDEST PUSH1 0x40 MLOAD DUP1 SWAP2 SUB SWAP1 REVERT JUMPDEST PUSH2 0x552 DUP4 PUSH2 0x882 JUMP JUMPDEST PUSH2 0x5A1 DUP4 DUP4 DUP4 DUP1 DUP1 PUSH1 0x1F ADD PUSH1 0x20 DUP1 SWAP2 DIV MUL PUSH1 0x20 ADD PUSH1 0x40 MLOAD SWAP1 DUP2 ADD PUSH1 0x40 MSTORE DUP1 SWAP4 SWAP3 SWAP2 SWAP1 DUP2 DUP2 MSTORE PUSH1 0x20 ADD DUP4 DUP4 DUP1 DUP3 DUP5 CALLDATACOPY PUSH0 DUP2 DUP5 ADD MSTORE PUSH1 0x1F NOT PUSH1 0x1F DUP3 ADD AND SWAP1 POP DUP1 DUP4 ADD SWAP3 POP POP POP POP POP POP POP PUSH1 0x1 PUSH2 0x8DD JUMP JUMPDEST POP POP POP JUMP JUMPDEST PUSH0 PUSH32 0x0 PUSH20 0xFFFFFFFFFFFFFFFFFFFFFFFFFFFFFFFFFFFFFFFF AND ADDRESS PUSH20 0xFFFFFFFFFFFFFFFFFFFFFFFFFFFFFFFFFFFFFFFF AND EQ PUSH2 0x635 JUMPI PUSH1 0x40 MLOAD PUSH32 0x8C379A000000000000000000000000000000000000000000000000000000000 DUP2 MSTORE PUSH1 0x4 ADD PUSH2 0x62C SWAP1 PUSH2 0xE28 JUMP JUMPDEST PUSH1 0x40 MLOAD DUP1 SWAP2 SUB SWAP1 REVERT JUMPDEST PUSH32 0x360894A13BA1A3210667C828492DB98DCA3E2076CC3735A920A3CA505D382BBC PUSH0 SHL SWAP1 POP SWAP1 JUMP JUMPDEST PUSH0 PUSH1 0x2 SWAP1 SLOAD SWAP1 PUSH2 0x100 EXP SWAP1 DIV PUSH20 0xFFFFFFFFFFFFFFFFFFFFFFFFFFFFFFFFFFFFFFFF AND DUP2 JUMP JUMPDEST PUSH8 0xDE0B6B3A7640000 DUP2 JUMP JUMPDEST PUSH0 PUSH0 SWAP1 SLOAD SWAP1 PUSH2 0x100 EXP SWAP1 DIV PUSH1 0xFF AND ISZERO DUP1 PUSH2 0x6B3 JUMPI POP PUSH0 PUSH1 0x1 SWAP1 SLOAD SWAP1 PUSH2 0x100 EXP SWAP1 DIV PUSH1 0xFF AND JUMPDEST PUSH2 0x6F2 JUMPI PUSH1 0x40 MLOAD PUSH32 0x8C379A000000000000000000000000000000000000000000000000000000000 DUP2 MSTORE PUSH1 0x4 ADD PUSH2 0x6E9 SWAP1 PUSH2 0xE90 JUMP JUMPDEST PUSH1 0x40 MLOAD DUP1 SWAP2 SUB SWAP1 REVERT JUMPDEST PUSH0 PUSH0 PUSH1 0x1 SWAP1 SLOAD SWAP1 PUSH2 0x100 EXP SWAP1 DIV PUSH1 0xFF AND ISZERO SWAP1 POP DUP1 ISZERO PUSH2 0x73F JUMPI PUSH1 0x1 PUSH0 PUSH1 0x1 PUSH2 0x100 EXP DUP2 SLOAD DUP2 PUSH1 0xFF MUL NOT AND SWAP1 DUP4 ISZERO ISZERO MUL OR SWAP1 SSTORE POP PUSH1 0x1 PUSH0 PUSH0 PUSH2 0x100 EXP DUP2 SLOAD DUP2 PUSH1 0xFF MUL NOT AND SWAP1 DUP4 ISZERO ISZERO MUL OR SWAP1 SSTORE POP JUMPDEST PUSH2 0x748 DUP3 PUSH2 0xA1A JUMP JUMPDEST DUP1 ISZERO PUSH2 0x768 JUMPI PUSH0 PUSH0 PUSH1 0x1 PUSH2 0x100 EXP DUP2 SLOAD DUP2 PUSH1 0xFF MUL NOT AND SWAP1 DUP4 ISZERO ISZERO MUL OR SWAP1 SSTORE POP JUMPDEST POP POP JUMP JUMPDEST PUSH1 0x1 PUSH1 0x20 MSTORE DUP1 PUSH0 MSTORE PUSH1 0x40 PUSH0 KECCAK256 PUSH0 SWAP2 POP SWAP1 POP SLOAD DUP2 JUMP JUMPDEST PUSH0 PUSH1 0x2 SWAP1 SLOAD SWAP1 PUSH2 0x100 EXP SWAP1 DIV PUSH20 0xFFFFFFFFFFFFFFFFFFFFFFFFFFFFFFFFFFFFFFFF AND PUSH20 0xFFFFFFFFFFFFFFFFFFFFFFFFFFFFFFFFFFFFFFFF AND CALLER PUSH20 0xFFFFFFFFFFFFFFFFFFFFFFFFFFFFFFFFFFFFFFFF AND EQ PUSH2 0x7D9 JUMPI PUSH0 PUSH0 REVERT JUMPDEST PUSH0 PUSH20 0xFFFFFFFFFFFFFFFFFFFFFFFFFFFFFFFFFFFFFFFF AND DUP2 PUSH20 0xFFFFFFFFFFFFFFFFFFFFFFFFFFFFFFFFFFFFFFFF AND SUB PUSH2 0x810 JUMPI PUSH0 PUSH0 REVERT JUMPDEST DUP1 PUSH0 PUSH1 0x2 PUSH2 0x100 EXP DUP2 SLOAD DUP2 PUSH20 0xFFFFFFFFFFFFFFFFFFFFFFFFFFFFFFFFFFFFFFFF MUL NOT AND SWAP1 DUP4 PUSH20 0xFFFFFFFFFFFFFFFFFFFFFFFFFFFFFFFFFFFFFFFF AND MUL OR SWAP1 SSTORE POP POP JUMP JUMPDEST PUSH0 PUSH0 PUSH32 0x360894A13BA1A3210667C828492DB98DCA3E2076CC3735A920A3CA505D382BBC PUSH0 SHL SWAP1 POP DUP1 SLOAD SWAP2 POP POP SWAP1 JUMP JUMPDEST PUSH0 PUSH1 0x2 SWAP1 SLOAD SWAP1 PUSH2 0x100 EXP SWAP1 DIV PUSH20 0xFFFFFFFFFFFFFFFFFFFFFFFFFFFFFFFFFFFFFFFF AND PUSH20 0xFFFFFFFFFFFFFFFFFFFFFFFFFFFFFFFFFFFFFFFF AND CALLER PUSH20 0xFFFFFFFFFFFFFFFFFFFFFFFFFFFFFFFFFFFFFFFF AND EQ PUSH2 0x8DA JUMPI PUSH0 PUSH0 REVERT JUMPDEST POP JUMP JUMPDEST PUSH0 PUSH20 0xFFFFFFFFFFFFFFFFFFFFFFFFFFFFFFFFFFFFFFFF AND DUP4 PUSH20 0xFFFFFFFFFFFFFFFFFFFFFFFFFFFFFFFFFFFFFFFF AND SUB PUSH2 0x94B JUMPI PUSH1 0x40 MLOAD PUSH32 0x8C379A000000000000000000000000000000000000000000000000000000000 DUP2 MSTORE PUSH1 0x4 ADD PUSH2 0x942 SWAP1 PUSH2 0xEF8 JUMP JUMPDEST PUSH1 0x40 MLOAD DUP1 SWAP2 SUB SWAP1 REVERT JUMPDEST PUSH2 0x954 DUP4 PUSH2 0xA94 JUMP JUMPDEST DUP1 DUP1 PUSH2 0x960 JUMPI POP PUSH0 DUP3 MLOAD GT JUMPDEST ISZERO PUSH2 0xA15 JUMPI PUSH0 PUSH0 DUP5 PUSH20 0xFFFFFFFFFFFFFFFFFFFFFFFFFFFFFFFFFFFFFFFF AND DUP5 PUSH1 0x40 MLOAD PUSH2 0x98C SWAP2 SWAP1 PUSH2 0xF68 JUMP JUMPDEST PUSH0 PUSH1 0x40 MLOAD DUP1 DUP4 SUB DUP2 DUP6 GAS DELEGATECALL SWAP2 POP POP RETURNDATASIZE DUP1 PUSH0 DUP2 EQ PUSH2 0x9C4 JUMPI PUSH1 0x40 MLOAD SWAP2 POP PUSH1 0x1F NOT PUSH1 0x3F RETURNDATASIZE ADD AND DUP3 ADD PUSH1 0x40 MSTORE RETURNDATASIZE DUP3 MSTORE RETURNDATASIZE PUSH0 PUSH1 0x20 DUP5 ADD RETURNDATACOPY PUSH2 0x9C9 JUMP JUMPDEST PUSH1 0x60 SWAP2 POP JUMPDEST POP SWAP2 POP SWAP2 POP DUP2 DUP2 SWAP1 PUSH2 0xA11 JUMPI PUSH1 0x40 MLOAD PUSH32 0x8C379A000000000000000000000000000000000000000000000000000000000 DUP2 MSTORE PUSH1 0x4 ADD PUSH2 0xA08 SWAP2 SWAP1 PUSH2 0xFD0 JUMP JUMPDEST PUSH1 0x40 MLOAD DUP1 SWAP2 SUB SWAP1 REVERT JUMPDEST POP POP POP JUMPDEST POP POP POP JUMP JUMPDEST PUSH0 PUSH20 0xFFFFFFFFFFFFFFFFFFFFFFFFFFFFFFFFFFFFFFFF AND DUP2 PUSH20 0xFFFFFFFFFFFFFFFFFFFFFFFFFFFFFFFFFFFFFFFF AND SUB PUSH2 0xA51 JUMPI PUSH0 PUSH0 REVERT JUMPDEST DUP1 PUSH0 PUSH1 0x2 PUSH2 0x100 EXP DUP2 SLOAD DUP2 PUSH20 0xFFFFFFFFFFFFFFFFFFFFFFFFFFFFFFFFFFFFFFFF MUL NOT AND SWAP1 DUP4 PUSH20 0xFFFFFFFFFFFFFFFFFFFFFFFFFFFFFFFFFFFFFFFF AND MUL OR SWAP1 SSTORE POP POP JUMP JUMPDEST PUSH0 PUSH32 0x360894A13BA1A3210667C828492DB98DCA3E2076CC3735A920A3CA505D382BBC PUSH0 SHL SWAP1 POP DUP2 DUP2 SSTORE POP POP JUMP JUMPDEST PUSH0 PUSH0 REVERT JUMPDEST PUSH0 PUSH0 REVERT JUMPDEST PUSH0 PUSH20 0xFFFFFFFFFFFFFFFFFFFFFFFFFFFFFFFFFFFFFFFF DUP3 AND SWAP1 POP SWAP2 SWAP1 POP JUMP JUMPDEST PUSH0 PUSH2 0xAF2 DUP3 PUSH2 0xAC9 JUMP JUMPDEST SWAP1 POP SWAP2 SWAP1 POP JUMP JUMPDEST PUSH2 0xB02 DUP2 PUSH2 0xAE8 JUMP JUMPDEST DUP2 EQ PUSH2 0xB0C JUMPI PUSH0 PUSH0 REVERT JUMPDEST POP JUMP JUMPDEST PUSH0 DUP2 CALLDATALOAD SWAP1 POP PUSH2 0xB1D DUP2 PUSH2 0xAF9 JUMP JUMPDEST SWAP3 SWAP2 POP POP JUMP JUMPDEST PUSH0 DUP2 SWAP1 POP SWAP2 SWAP1 POP JUMP JUMPDEST PUSH2 0xB35 DUP2 PUSH2 0xB23 JUMP JUMPDEST DUP2 EQ PUSH2 0xB3F JUMPI PUSH0 PUSH0 REVERT JUMPDEST POP JUMP JUMPDEST PUSH0 DUP2 CALLDATALOAD SWAP1 POP PUSH2 0xB50 DUP2 PUSH2 0xB2C JUMP JUMPDEST SWAP3 SWAP2 POP POP JUMP JUMPDEST PUSH0 PUSH0 PUSH1 0x40 DUP4 DUP6 SUB SLT ISZERO PUSH2 0xB6C JUMPI PUSH2 0xB6B PUSH2 0xAC1 JUMP JUMPDEST JUMPDEST PUSH0 PUSH2 0xB79 DUP6 DUP3 DUP7 ADD PUSH2 0xB0F JUMP JUMPDEST SWAP3 POP POP PUSH1 0x20 PUSH2 0xB8A DUP6 DUP3 DUP7 ADD PUSH2 0xB42 JUMP JUMPDEST SWAP2 POP POP SWAP3 POP SWAP3 SWAP1 POP JUMP JUMPDEST PUSH0 PUSH1 0x20 DUP3 DUP5 SUB SLT ISZERO PUSH2 0xBA9 JUMPI PUSH2 0xBA8 PUSH2 0xAC1 JUMP JUMPDEST JUMPDEST PUSH0 PUSH2 0xBB6 DUP5 DUP3 DUP6 ADD PUSH2 0xB0F JUMP JUMPDEST SWAP2 POP POP SWAP3 SWAP2 POP POP JUMP JUMPDEST PUSH0 PUSH0 REVERT JUMPDEST PUSH0 PUSH0 REVERT JUMPDEST PUSH0 PUSH0 REVERT JUMPDEST PUSH0 PUSH0 DUP4 PUSH1 0x1F DUP5 ADD SLT PUSH2 0xBE0 JUMPI PUSH2 0xBDF PUSH2 0xBBF JUMP JUMPDEST JUMPDEST DUP3 CALLDATALOAD SWAP1 POP PUSH8 0xFFFFFFFFFFFFFFFF DUP2 GT ISZERO PUSH2 0xBFD JUMPI PUSH2 0xBFC PUSH2 0xBC3 JUMP JUMPDEST JUMPDEST PUSH1 0x20 DUP4 ADD SWAP2 POP DUP4 PUSH1 0x1 DUP3 MUL DUP4 ADD GT ISZERO PUSH2 0xC19 JUMPI PUSH2 0xC18 PUSH2 0xBC7 JUMP JUMPDEST JUMPDEST SWAP3 POP SWAP3 SWAP1 POP JUMP JUMPDEST PUSH0 PUSH0 PUSH0 PUSH1 0x40 DUP5 DUP7 SUB SLT ISZERO PUSH2 0xC37 JUMPI PUSH2 0xC36 PUSH2 0xAC1 JUMP JUMPDEST JUMPDEST PUSH0 PUSH2 0xC44 DUP7 DUP3 DUP8 ADD PUSH2 0xB0F JUMP JUMPDEST SWAP4 POP POP PUSH1 0x20 DUP5 ADD CALLDATALOAD PUSH8 0xFFFFFFFFFFFFFFFF DUP2 GT ISZERO PUSH2 0xC65 JUMPI PUSH2 0xC64 PUSH2 0xAC5 JUMP JUMPDEST JUMPDEST PUSH2 0xC71 DUP7 DUP3 DUP8 ADD PUSH2 0xBCB JUMP JUMPDEST SWAP3 POP SWAP3 POP POP SWAP3 POP SWAP3 POP SWAP3 JUMP JUMPDEST PUSH0 DUP2 SWAP1 POP SWAP2 SWAP1 POP JUMP JUMPDEST PUSH2 0xC8F DUP2 PUSH2 0xC7D JUMP JUMPDEST DUP3 MSTORE POP POP JUMP JUMPDEST PUSH0 PUSH1 0x20 DUP3 ADD SWAP1 POP PUSH2 0xCA8 PUSH0 DUP4 ADD DUP5 PUSH2 0xC86 JUMP JUMPDEST SWAP3 SWAP2 POP POP JUMP JUMPDEST PUSH2 0xCB7 DUP2 PUSH2 0xAE8 JUMP JUMPDEST DUP3 MSTORE POP POP JUMP JUMPDEST PUSH0 PUSH1 0x20 DUP3 ADD SWAP1 POP PUSH2 0xCD0 PUSH0 DUP4 ADD DUP5 PUSH2 0xCAE JUMP JUMPDEST SWAP3 SWAP2 POP POP JUMP JUMPDEST PUSH2 0xCDF DUP2 PUSH2 0xB23 JUMP JUMPDEST DUP3 MSTORE POP POP JUMP JUMPDEST PUSH0 PUSH1 0x20 DUP3 ADD SWAP1 POP PUSH2 0xCF8 PUSH0 DUP4 ADD DUP5 PUSH2 0xCD6 JUMP JUMPDEST SWAP3 SWAP2 POP POP JUMP JUMPDEST PUSH0 DUP3 DUP3 MSTORE PUSH1 0x20 DUP3 ADD SWAP1 POP SWAP3 SWAP2 POP POP JUMP JUMPDEST PUSH32 0x4E4F545F44454C454741544543414C4C00000000000000000000000000000000 PUSH0 DUP3 ADD MSTORE POP JUMP JUMPDEST PUSH0 PUSH2 0xD42 PUSH1 0x10 DUP4 PUSH2 0xCFE JUMP JUMPDEST SWAP2 POP PUSH2 0xD4D DUP3 PUSH2 0xD0E JUMP JUMPDEST PUSH1 0x20 DUP3 ADD SWAP1 POP SWAP2 SWAP1 POP JUMP JUMPDEST PUSH0 PUSH1 0x20 DUP3 ADD SWAP1 POP DUP2 DUP2 SUB PUSH0 DUP4 ADD MSTORE PUSH2 0xD6F DUP2 PUSH2 0xD36 JUMP JUMPDEST SWAP1 POP SWAP2 SWAP1 POP JUMP JUMPDEST PUSH32 0x494E4143544956455F50524F5859000000000000000000000000000000000000 PUSH0 DUP3 ADD MSTORE POP JUMP JUMPDEST PUSH0 PUSH2 0xDAA PUSH1 0xE DUP4 PUSH2 0xCFE JUMP JUMPDEST SWAP2 POP PUSH2 0xDB5 DUP3 PUSH2 0xD76 JUMP JUMPDEST PUSH1 0x20 DUP3 ADD SWAP1 POP SWAP2 SWAP1 POP JUMP JUMPDEST PUSH0 PUSH1 0x20 DUP3 ADD SWAP1 POP DUP2 DUP2 SUB PUSH0 DUP4 ADD MSTORE PUSH2 0xDD7 DUP2 PUSH2 0xD9E JUMP JUMPDEST SWAP1 POP SWAP2 SWAP1 POP JUMP JUMPDEST PUSH32 0x4F4E4C595F494D504C454D454E544154494F4E00000000000000000000000000 PUSH0 DUP3 ADD MSTORE POP JUMP JUMPDEST PUSH0 PUSH2 0xE12 PUSH1 0x13 DUP4 PUSH2 0xCFE JUMP JUMPDEST SWAP2 POP PUSH2 0xE1D DUP3 PUSH2 0xDDE JUMP JUMPDEST PUSH1 0x20 DUP3 ADD SWAP1 POP SWAP2 SWAP1 POP JUMP JUMPDEST PUSH0 PUSH1 0x20 DUP3 ADD SWAP1 POP DUP2 DUP2 SUB PUSH0 DUP4 ADD MSTORE PUSH2 0xE3F DUP2 PUSH2 0xE06 JUMP JUMPDEST SWAP1 POP SWAP2 SWAP1 POP JUMP JUMPDEST PUSH32 0x414C52454144595F494E495449414C495A454400000000000000000000000000 PUSH0 DUP3 ADD MSTORE POP JUMP JUMPDEST PUSH0 PUSH2 0xE7A PUSH1 0x13 DUP4 PUSH2 0xCFE JUMP JUMPDEST SWAP2 POP PUSH2 0xE85 DUP3 PUSH2 0xE46 JUMP JUMPDEST PUSH1 0x20 DUP3 ADD SWAP1 POP SWAP2 SWAP1 POP JUMP JUMPDEST PUSH0 PUSH1 0x20 DUP3 ADD SWAP1 POP DUP2 DUP2 SUB PUSH0 DUP4 ADD MSTORE PUSH2 0xEA7 DUP2 PUSH2 0xE6E JUMP JUMPDEST SWAP1 POP SWAP2 SWAP1 POP JUMP JUMPDEST PUSH32 0x5A45524F5F494D504C0000000000000000000000000000000000000000000000 PUSH0 DUP3 ADD MSTORE POP JUMP JUMPDEST PUSH0 PUSH2 0xEE2 PUSH1 0x9 DUP4 PUSH2 0xCFE JUMP JUMPDEST SWAP2 POP PUSH2 0xEED DUP3 PUSH2 0xEAE JUMP JUMPDEST PUSH1 0x20 DUP3 ADD SWAP1 POP SWAP2 SWAP1 POP JUMP JUMPDEST PUSH0 PUSH1 0x20 DUP3 ADD SWAP1 POP DUP2 DUP2 SUB PUSH0 DUP4 ADD MSTORE PUSH2 0xF0F DUP2 PUSH2 0xED6 JUMP JUMPDEST SWAP1 POP SWAP2 SWAP1 POP JUMP JUMPDEST PUSH0 DUP2 MLOAD SWAP1 POP SWAP2 SWAP1 POP JUMP JUMPDEST PUSH0 DUP2 SWAP1 POP SWAP3 SWAP2 POP POP JUMP JUMPDEST DUP3 DUP2 DUP4 MCOPY PUSH0 DUP4 DUP4 ADD MSTORE POP POP POP JUMP JUMPDEST PUSH0 PUSH2 0xF42 DUP3 PUSH2 0xF16 JUMP JUMPDEST PUSH2 0xF4C DUP2 DUP6 PUSH2 0xF20 JUMP JUMPDEST SWAP4 POP PUSH2 0xF5C DUP2 DUP6 PUSH1 0x20 DUP7 ADD PUSH2 0xF2A JUMP JUMPDEST DUP1 DUP5 ADD SWAP2 POP POP SWAP3 SWAP2 POP POP JUMP JUMPDEST PUSH0 PUSH2 0xF73 DUP3 DUP5 PUSH2 0xF38 JUMP JUMPDEST SWAP2 POP DUP2 SWAP1 POP SWAP3 SWAP2 POP POP JUMP JUMPDEST PUSH0 DUP2 MLOAD SWAP1 POP SWAP2 SWAP1 POP JUMP JUMPDEST PUSH0 PUSH1 0x1F NOT PUSH1 0x1F DUP4 ADD AND SWAP1 POP SWAP2 SWAP1 POP JUMP JUMPDEST PUSH0 PUSH2 0xFA2 DUP3 PUSH2 0xF7E JUMP JUMPDEST PUSH2 0xFAC DUP2 DUP6 PUSH2 0xCFE JUMP JUMPDEST SWAP4 POP PUSH2 0xFBC DUP2 DUP6 PUSH1 0x20 DUP7 ADD PUSH2 0xF2A JUMP JUMPDEST PUSH2 0xFC5 DUP2 PUSH2 0xF88 JUMP JUMPDEST DUP5 ADD SWAP2 POP POP SWAP3 SWAP2 POP POP JUMP JUMPDEST PUSH0 PUSH1 0x20 DUP3 ADD SWAP1 POP DUP2 DUP2 SUB PUSH0 DUP4 ADD MSTORE PUSH2 0xFE8 DUP2 DUP5 PUSH2 0xF98 JUMP JUMPDEST SWAP1 POP SWAP3 SWAP2 POP POP JUMP INVALID LOG2 PUSH5 0x6970667358 0x22 SLT KECCAK256 DUP3 RETURNDATACOPY SWAP5 0xD3 SELFBALANCE SWAP1 DUP9 EXTDELEGATECALL PUSH6 0x26B980DE04C4 DUP11 SWAP3 CALLDATASIZE 0xD9 GASLIMIT 0xED SWAP15 0xFC DIV 0xBE SELFBALANCE 0x25 0xD 0xAC PUSH7 0xAF164736F6C63 NUMBER STOP ADDMOD 0x1E STOP CALLER "
				},
				"gasEstimates": {
					"creation": {
						"codeDepositCost": "826800",
						"executionCost": "infinite",
						"totalCost": "infinite"
					},
					"external": {
						"PRICE_SCALE()": "347",
						"initialize(address)": "104369",
						"owner()": "2558",
						"ownershipTransfer(address)": "27106",
						"prices(address)": "2868",
						"proxiableUUID()": "infinite",
						"setPrice(address,uint256)": "25097",
						"upgradeTo(address)": "infinite",
						"upgradeToAndCall(address,bytes)": "infinite"
					},
					"internal": {
						"_authorizeUpgrade(address)": "2230"
					}
				},
				"methodIdentifiers": {
					"PRICE_SCALE()": "c33f59d3",
					"initialize(address)": "c4d66de8",
					"owner()": "8da5cb5b",
					"ownershipTransfer(address)": "d3a417a2",
					"prices(address)": "cfed246b",
					"proxiableUUID()": "52d1902d",
					"setPrice(address,uint256)": "00e4768b",
					"upgradeTo(address)": "3659cfe6",
					"upgradeToAndCall(address,bytes)": "4f1ef286"
				}
			},
			"storageLayout": {
				"storage": [
					{
						"astId": 322,
						"contract": "protocol/PriceOracle.sol:PriceOracle",
						"label": "_initialized",
						"offset": 0,
						"slot": "0",
						"type": "t_bool"
					},
					{
						"astId": 325,
						"contract": "protocol/PriceOracle.sol:PriceOracle",
						"label": "_initializing",
						"offset": 1,
						"slot": "0",
						"type": "t_bool"
					},
					{
						"astId": 7,
						"contract": "protocol/PriceOracle.sol:PriceOracle",
						"label": "owner",
						"offset": 2,
						"slot": "0",
						"type": "t_address"
					},
					{
						"astId": 76,
						"contract": "protocol/PriceOracle.sol:PriceOracle",
						"label": "prices",
						"offset": 0,
						"slot": "1",
						"type": "t_mapping(t_address,t_uint256)"
					}
				],
				"types": {
					"t_address": {
						"encoding": "inplace",
						"label": "address",
						"numberOfBytes": "20"
					},
					"t_bool": {
						"encoding": "inplace",
						"label": "bool",
						"numberOfBytes": "1"
					},
					"t_mapping(t_address,t_uint256)": {
						"encoding": "mapping",
						"key": "t_address",
						"label": "mapping(address => uint256)",
						"numberOfBytes": "32",
						"value": "t_uint256"
					},
					"t_uint256": {
						"encoding": "inplace",
						"label": "uint256",
						"numberOfBytes": "32"
					}
				}
			},
			"userdoc": {
				"kind": "user",
				"methods": {
					"proxiableUUID()": {
						"notice": "UUID UUPS-слота по EIP-1822."
					},
					"upgradeTo(address)": {
						"notice": "Обновить implementation."
					},
					"upgradeToAndCall(address,bytes)": {
						"notice": "Обновить implementation и сразу вызвать migration-хук."
					}
				},
				"version": 1
			}
		}
	}
}