{
	"contracts/protocol/Vault.sol": {
		"Vault": {
			"abi": [
				{
					"anonymous": false,
					"inputs": [
						{
							"indexed": true,
							"internalType": "address",
							"name": "owner",
							"type": "address"
						},
						{
							"indexed": true,
							"internalType": "address",
							"name": "spender",
							"type": "address"
						},
						{
							"indexed": false,
							"internalType": "uint256",
							"name": "value",
							"type": "uint256"
						}
					],
					"name": "Approval",
					"type": "event"
				},
				{
					"anonymous": false,
					"inputs": [
						{
							"indexed": true,
							"internalType": "address",
							"name": "caller",
							"type": "address"
						},
						{
							"indexed": true,
							"internalType": "address",
							"name": "owner",
							"type": "address"
						},
						{
							"indexed": false,
							"internalType": "uint256",
							"name": "assets",
							"type": "uint256"
						},
						{
							"indexed": false,
							"internalType": "uint256",
							"name": "shares",
							"type": "uint256"
						}
					],
					"name": "Deposit",
					"type": "event"
				},
				{
					"anonymous": false,
					"inputs": [
						{
							"indexed": true,
							"internalType": "address",
							"name": "from",
							"type": "address"
						},
						{
							"indexed": true,
							"internalType": "address",
							"name": "to",
							"type": "address"
						},
						{
							"indexed": false,
							"internalType": "uint256",
							"name": "value",
							"type": "uint256"
						}
					],
					"name": "Transfer",
					"type": "event"
				},
				{
					"anonymous": false,
					"inputs": [
						{
							"indexed": true,
							"internalType": "address",
							"name": "caller",
							"type": "address"
						},
						{
							"indexed": true,
							"internalType": "address",
							"name": "receiver",
							"type": "address"
						},
						{
							"indexed": true,
							"internalType": "address",
							"name": "owner",
							"type": "address"
						},
						{
							"indexed": false,
							"internalType": "uint256",
							"name": "assets",
							"type": "uint256"
						},
						{
							"indexed": false,
							"internalType": "uint256",
							"name": "shares",
							"type": "uint256"
						}
					],
					"name": "Withdraw",
					"type": "event"
				},
				{
					"inputs": [
						{
							"internalType": "address",
							"name": "market_",
							"type": "address"
						}
					],
					"name": "addMarket",
					"outputs": [],
					"stateMutability": "nonpayable",
					"type": "function"
				},
				{
					"inputs": [
						{
							"internalType": "address",
							"name": "market_",
							"type": "address"
						},
						{
							"internalType": "uint256",
							"name": "amount",
							"type": "uint256"
						}
					],
					"name": "allocateToMarket",
					"outputs": [],
					"stateMutability": "nonpayable",
					"type": "function"
				},
				{
					"inputs": [
						{
							"internalType": "address",
							"name": "owner",
							"type": "address"
						},
						{
							"internalType": "address",
							"name": "spender",
							"type": "address"
						}
					],
					"name": "allowance",
					"outputs": [
						{
							"internalType": "uint256",
							"name": "",
							"type": "uint256"
						}
					],
					"stateMutability": "view",
					"type": "function"
				},
				{
					"inputs": [
						{
							"internalType": "address",
							"name": "spender",
							"type": "address"
						},
						{
							"internalType": "uint256",
							"name": "amount",
							"type": "uint256"
						}
					],
					"name": "approve",
					"outputs": [
						{
							"internalType": "bool",
							"name": "",
							"type": "bool"
						}
					],
					"stateMutability": "nonpayable",
					"type": "function"
				},
				{
					"inputs": [],
					"name": "apy",
					"outputs": [
						{
							"internalType": "uint256",
							"name": "",
							"type": "uint256"
						}
					],
					"stateMutability": "view",
					"type": "function"
				},
				{
					"inputs": [],
					"name": "asset",
					"outputs": [
						{
							"internalType": "address",
							"name": "",
							"type": "address"
						}
					],
					"stateMutability": "view",
					"type": "function"
				},
				{
					"inputs": [
						{
							"internalType": "address",
							"name": "account",
							"type": "address"
						}
					],
					"name": "balanceOf",
					"outputs": [
						{
							"internalType": "uint256",
							"name": "",
							"type": "uint256"
						}
					],
					"stateMutability": "view",
					"type": "function"
				},
				{
					"inputs": [
						{
							"internalType": "uint256",
							"name": "shares",
							"type": "uint256"
						}
					],
					"name": "convertToAssets",
					"outputs": [
						{
							"internalType": "uint256",
							"name": "",
							"type": "uint256"
						}
					],
					"stateMutability": "view",
					"type": "function"
				},
				{
					"inputs": [
						{
							"internalType": "uint256",
							"name": "assets_",
							"type": "uint256"
						}
					],
					"name": "convertToShares",
					"outputs": [
						{
							"internalType": "uint256",
							"name": "",
							"type": "uint256"
						}
					],
					"stateMutability": "view",
					"type": "function"
				},
				{
					"inputs": [
						{
							"internalType": "address",
							"name": "market_",
							"type": "address"
						},
						{
							"internalType": "uint256",
							"name": "amount",
							"type": "uint256"
						}
					],
					"name": "deallocateFromMarket",
					"outputs": [],
					"stateMutability": "nonpayable",
					"type": "function"
				},
				{
					"inputs": [],
					"name": "decimals",
					"outputs": [
						{
							"internalType": "uint256",
							"name": "",
							"type": "uint256"
						}
					],
					"stateMutability": "view",
					"type": "function"
				},
				{
					"inputs": [
						{
							"internalType": "uint256",
							"name": "assets_",
							"type": "uint256"
						},
						{
							"internalType": "address",
							"name": "receiver",
							"type": "address"
						}
					],
					"name": "deposit",
					"outputs": [
						{
							"internalType": "uint256",
							"name": "shares",
							"type": "uint256"
						}
					],
					"stateMutability": "nonpayable",
					"type": "function"
				},
				{
					"inputs": [],
					"name": "idleLiquidity",
					"outputs": [
						{
							"internalType": "uint256",
							"name": "",
							"type": "uint256"
						}
					],
					"stateMutability": "view",
					"type": "function"
				},
				{
					"inputs": [
						{
							"internalType": "address",
							"name": "owner_",
							"type": "address"
						},
						{
							"internalType": "address",
							"name": "asset_",
							"type": "address"
						},
						{
							"internalType": "string",
							"name": "title_",
							"type": "string"
						},
						{
							"internalType": "string",
							"name": "shareName_",
							"type": "string"
						},
						{
							"internalType": "string",
							"name": "shareSymbol_",
							"type": "string"
						},
						{
							"internalType": "uint256",
							"name": "apy_",
							"type": "uint256"
						},
						{
							"internalType": "uint256",
							"name": "minDeposit_",
							"type": "uint256"
						}
					],
					"name": "initialize",
					"outputs": [],
					"stateMutability": "nonpayable",
					"type": "function"
				},
				{
					"inputs": [
						{
							"internalType": "address",
							"name": "",
							"type": "address"
						}
					],
					"name": "isMarket",
					"outputs": [
						{
							"internalType": "bool",
							"name": "",
							"type": "bool"
						}
					],
					"stateMutability": "view",
					"type": "function"
				},
				{
					"inputs": [
						{
							"internalType": "uint256",
							"name": "",
							"type": "uint256"
						}
					],
					"name": "markets",
					"outputs": [
						{
							"internalType": "address",
							"name": "",
							"type": "address"
						}
					],
					"stateMutability": "view",
					"type": "function"
				},
				{
					"inputs": [],
					"name": "minDeposit",
					"outputs": [
						{
							"internalType": "uint256",
							"name": "",
							"type": "uint256"
						}
					],
					"stateMutability": "view",
					"type": "function"
				},
				{
					"inputs": [
						{
							"internalType": "uint256",
							"name": "shares",
							"type": "uint256"
						},
						{
							"internalType": "address",
							"name": "receiver",
							"type": "address"
						}
					],
					"name": "mint",
					"outputs": [
						{
							"internalType": "uint256",
							"name": "assets_",
							"type": "uint256"
						}
					],
					"stateMutability": "nonpayable",
					"type": "function"
				},
				{
					"inputs": [],
					"name": "name",
					"outputs": [
						{
							"internalType": "string",
							"name": "",
							"type": "string"
						}
					],
					"stateMutability": "view",
					"type": "function"
				},
				{
					"inputs": [],
					"name": "owner",
					"outputs": [
						{
							"internalType": "address",
							"name": "",
							"type": "address"
						}
					],
					"stateMutability": "view",
					"type": "function"
				},
				{
					"inputs": [
						{
							"internalType": "address",
							"name": "newOwner",
							"type": "address"
						}
					],
					"name": "ownershipTransfer",
					"outputs": [],
					"stateMutability": "nonpayable",
					"type": "function"
				},
				{
					"inputs": [],
					"name": "proxiableUUID",
					"outputs": [
						{
							"internalType": "bytes32",
							"name": "",
							"type": "bytes32"
						}
					],
					"stateMutability": "view",
					"type": "function"
				},
				{
					"inputs": [
						{
							"internalType": "uint256",
							"name": "shares",
							"type": "uint256"
						},
						{
							"internalType": "address",
							"name": "receiver",
							"type": "address"
						},
						{
							"internalType": "address",
							"name": "owner",
							"type": "address"
						}
					],
					"name": "redeem",
					"outputs": [
						{
							"internalType": "uint256",
							"name": "assets_",
							"type": "uint256"
						}
					],
					"stateMutability": "nonpayable",
					"type": "function"
				},
				{
					"inputs": [],
					"name": "symbol",
					"outputs": [
						{
							"internalType": "string",
							"name": "",
							"type": "string"
						}
					],
					"stateMutability": "view",
					"type": "function"
				},
				{
					"inputs": [],
					"name": "title",
					"outputs": [
						{
							"internalType": "string",
							"name": "",
							"type": "string"
						}
					],
					"stateMutability": "view",
					"type": "function"
				},
				{
					"inputs": [],
					"name": "totalAssets",
					"outputs": [
						{
							"internalType": "uint256",
							"name": "total",
							"type": "uint256"
						}
					],
					"stateMutability": "view",
					"type": "function"
				},
				{
					"inputs": [],
					"name": "totalSupply",
					"outputs": [
						{
							"internalType": "uint256",
							"name": "",
							"type": "uint256"
						}
					],
					"stateMutability": "view",
					"type": "function"
				},
				{
					"inputs": [
						{
							"internalType": "address",
							"name": "to",
							"type": "address"
						},
						{
							"internalType": "uint256",
							"name": "amount",
							"type": "uint256"
						}
					],
					"name": "transfer",
					"outputs": [
						{
							"internalType": "bool",
							"name": "",
							"type": "bool"
						}
					],
					"stateMutability": "nonpayable",
					"type": "function"
				},
				{
					"inputs": [
						{
							"internalType": "address",
							"name": "from",
							"type": "address"
						},
						{
							"internalType": "address",
							"name": "to",
							"type": "address"
						},
						{
							"internalType": "uint256",
							"name": "amount",
							"type": "uint256"
						}
					],
					"name": "transferFrom",
					"outputs": [
						{
							"internalType": "bool",
							"name": "",
							"type": "bool"
						}
					],
					"stateMutability": "nonpayable",
					"type": "function"
				},
				{
					"inputs": [
						{
							"internalType": "address",
							"name": "newImplementation",
							"type": "address"
						}
					],
					"name": "upgradeTo",
					"outputs": [],
					"stateMutability": "nonpayable",
					"type": "function"
				},
				{
					"inputs": [
						{
							"internalType": "address",
							"name": "newImplementation",
							"type": "address"
						},
						{
							"internalType": "bytes",
							"name": "data",
							"type": "bytes"
						}
					],
					"name": "upgradeToAndCall",
					"outputs": [],
					"stateMutability": "payable",
					"type": "function"
				},
				{
					"inputs": [
						{
							"internalType": "uint256",
							"name": "assets_",
							"type": "uint256"
						},
						{
							"internalType": "address",
							"name": "receiver",
							"type": "address"
						},
						{
							"internalType": "address",
							"name": "owner_",
							"type": "address"
						}
					],
					"name": "withdraw",
					"outputs": [
						{
							"internalType": "uint256",
							"name": "shares",
							"type": "uint256"
						}
					],
					"stateMutability": "nonpayable",
					"type": "function"
				}
			],
			"devdoc": {
				"events": {
					"Approval(address,address,uint256)": {
						"details": "Срабатывает при изменении allowance."
					},
					"Deposit(address,address,uint256,uint256)": {
						"details": "Событие при deposit/mint."
					},
					"Transfer(address,address,uint256)": {
						"details": "Срабатывает при переводе токенов."
					},
					"Withdraw(address,address,address,uint256,uint256)": {
						"details": "Событие при withdraw/redeem."
					}
				},
				"kind": "dev",
				"methods": {},
				"version": 1
			},
			"evm": {
				"assembly": "    /* \"contracts/protocol/Vault.sol\":377:2822  contract Vault is Ownable, ERC4626Upgradeable, UUPSUpgradeable {... */\n  mstore(0x40, 0xa0)\n    /* \"contracts/proxy/UUPSUpgradeable.sol\":1021:1025  this */\n  address\n    /* \"contracts/proxy/UUPSUpgradeable.sol\":978:1026  address private immutable __self = address(this) */\n  0xffffffffffffffffffffffffffffffffffffffff\n  and\n  0x80\n  swap1\n  0xffffffffffffffffffffffffffffffffffffffff\n  and\n  dup2\n  mstore\n  pop\n    /* \"contracts/protocol/Vault.sol\":377:2822  contract Vault is Ownable, ERC4626Upgradeable, UUPSUpgradeable {... */\n  callvalue\n  dup1\n  iszero\n  tag_1\n  jumpi\n  revert(0x00, 0x00)\ntag_1:\n  pop\n  mload(0x80)\n  codecopy(0x00, dataOffset(sub_0), dataSize(sub_0))\n  0x00\n  assignImmutable(\"0x24f23eb2b7ec20f09b3b2a21f8addc5e0a93cdf731b4f8ae02783fb7a15edd99\")\n  return(0x00, dataSize(sub_0))\nstop\n\nsub_0: assembly {\n        /* \"contracts/protocol/Vault.sol\":377:2822  contract Vault is Ownable, ERC4626Upgradeable, UUPSUpgradeable {... */\n      mstore(0x40, 0x80)\n      jumpi(tag_1, lt(calldatasize, 0x04))\n      shr(0xe0, calldataload(0x00))\n      dup1\n      0x6ceb1570\n      gt\n      tag_34\n      jumpi\n      dup1\n      0x95d89b41\n      gt\n      tag_35\n      jumpi\n      dup1\n      0xba087652\n      gt\n      tag_36\n      jumpi\n      dup1\n      0xba087652\n      eq\n      tag_30\n      jumpi\n      dup1\n      0xc6e6f592\n      eq\n      tag_31\n      jumpi\n      dup1\n      0xd3a417a2\n      eq\n      tag_32\n      jumpi\n      dup1\n      0xdd62ed3e\n      eq\n      tag_33\n      jumpi\n      jump(tag_1)\n    tag_36:\n      dup1\n      0x95d89b41\n      eq\n      tag_26\n      jumpi\n      dup1\n      0xa9059cbb\n      eq\n      tag_27\n      jumpi\n      dup1\n      0xb1283e77\n      eq\n      tag_28\n      jumpi\n      dup1\n      0xb460af94\n      eq\n      tag_29\n      jumpi\n      jump(tag_1)\n    tag_35:\n      dup1\n      0x8da5cb5b\n      gt\n      tag_37\n      jumpi\n      dup1\n      0x8da5cb5b\n      eq\n      tag_22\n      jumpi\n      dup1\n      0x92f6b31c\n      eq\n      tag_23\n      jumpi\n      dup1\n      0x93e30633\n      eq\n      tag_24\n      jumpi\n      dup1\n      0x94bf804d\n      eq\n      tag_25\n      jumpi\n      jump(tag_1)\n    tag_37:\n      dup1\n      0x6ceb1570\n      eq\n      tag_18\n      jumpi\n      dup1\n      0x6e553f65\n      eq\n      tag_19\n      jumpi\n      dup1\n      0x6ec934da\n      eq\n      tag_20\n      jumpi\n      dup1\n      0x70a08231\n      eq\n      tag_21\n      jumpi\n      jump(tag_1)\n    tag_34:\n      dup1\n      0x38d52e0f\n      gt\n      tag_38\n      jumpi\n      dup1\n      0x4a79d50c\n      gt\n      tag_39\n      jumpi\n      dup1\n      0x4a79d50c\n      eq\n      tag_14\n      jumpi\n      dup1\n      0x4f1ef286\n      eq\n      tag_15\n      jumpi\n      dup1\n      0x52d1902d\n      eq\n      tag_16\n      jumpi\n      dup1\n      0x66adf46a\n      eq\n      tag_17\n      jumpi\n      jump(tag_1)\n    tag_39:\n      dup1\n      0x38d52e0f\n      eq\n      tag_10\n      jumpi\n      dup1\n      0x3bcfc4b8\n      eq\n      tag_11\n      jumpi\n      dup1\n      0x3dce8b38\n      eq\n      tag_12\n      jumpi\n      dup1\n      0x41b3d185\n      eq\n      tag_13\n      jumpi\n      jump(tag_1)\n    tag_38:\n      dup1\n      0x18160ddd\n      gt\n      tag_40\n      jumpi\n      dup1\n      0x18160ddd\n      eq\n      tag_6\n      jumpi\n      dup1\n      0x23b872dd\n      eq\n      tag_7\n      jumpi\n      dup1\n      0x313ce567\n      eq\n      tag_8\n      jumpi\n      dup1\n      0x3659cfe6\n      eq\n      tag_9\n      jumpi\n      jump(tag_1)\n    tag_40:\n      dup1\n      0x01e1d114\n      eq\n      tag_2\n      jumpi\n      dup1\n      0x06fdde03\n      eq\n      tag_3\n      jumpi\n      dup1\n      0x07a2d13a\n      eq\n      tag_4\n      jumpi\n      dup1\n      0x095ea7b3\n      eq\n      tag_5\n      jumpi\n    tag_1:\n      revert(0x00, 0x00)\n        /* \"contracts/protocol/Vault.sol\":1042:1405  function totalAssets() public view override returns (uint256 total) {... */\n    tag_2:\n      callvalue\n      dup1\n      iszero\n      tag_41\n      jumpi\n      revert(0x00, 0x00)\n    tag_41:\n      pop\n      tag_42\n      tag_43\n      jump\t// in\n    tag_42:\n      mload(0x40)\n      tag_44\n      swap2\n      swap1\n      tag_45\n      jump\t// in\n    tag_44:\n      mload(0x40)\n      dup1\n      swap2\n      sub\n      swap1\n      return\n        /* \"contracts/token/ERC20Upgradeable.sol\":1510:1593  function name() external view returns (string memory) {... */\n    tag_3:\n      callvalue\n      dup1\n      iszero\n      tag_46\n      jumpi\n      revert(0x00, 0x00)\n    tag_46:\n      pop\n      tag_47\n      tag_48\n      jump\t// in\n    tag_47:\n      mload(0x40)\n      tag_49\n      swap2\n      swap1\n      tag_50\n      jump\t// in\n    tag_49:\n      mload(0x40)\n      dup1\n      swap2\n      sub\n      swap1\n      return\n        /* \"contracts/token/ERC4626Upgradeable.sol\":1827:2190  function convertToAssets(uint256 shares) public view returns (uint256) {... */\n    tag_4:\n      callvalue\n      dup1\n      iszero\n      tag_51\n      jumpi\n      revert(0x00, 0x00)\n    tag_51:\n      pop\n      tag_52\n      0x04\n      dup1\n      calldatasize\n      sub\n      dup2\n      add\n      swap1\n      tag_53\n      swap2\n      swap1\n      tag_54\n      jump\t// in\n    tag_53:\n      tag_55\n      jump\t// in\n    tag_52:\n      mload(0x40)\n      tag_56\n      swap2\n      swap1\n      tag_45\n      jump\t// in\n    tag_56:\n      mload(0x40)\n      dup1\n      swap2\n      sub\n      swap1\n      return\n        /* \"contracts/token/ERC20Upgradeable.sol\":2286:2435  function approve(address spender, uint256 amount) external returns (bool) {... */\n    tag_5:\n      callvalue\n      dup1\n      iszero\n      tag_57\n      jumpi\n      revert(0x00, 0x00)\n    tag_57:\n      pop\n      tag_58\n      0x04\n      dup1\n      calldatasize\n      sub\n      dup2\n      add\n      swap1\n      tag_59\n      swap2\n      swap1\n      tag_60\n      jump\t// in\n    tag_59:\n      tag_61\n      jump\t// in\n    tag_58:\n      mload(0x40)\n      tag_62\n      swap2\n      swap1\n      tag_63\n      jump\t// in\n    tag_62:\n      mload(0x40)\n      dup1\n      swap2\n      sub\n      swap1\n      return\n        /* \"contracts/token/ERC20Upgradeable.sol\":1780:1871  function totalSupply() external view returns (uint256) {... */\n    tag_6:\n      callvalue\n      dup1\n      iszero\n      tag_64\n      jumpi\n      revert(0x00, 0x00)\n    tag_64:\n      pop\n      tag_65\n      tag_66\n      jump\t// in\n    tag_65:\n      mload(0x40)\n      tag_67\n      swap2\n      swap1\n      tag_45\n      jump\t// in\n    tag_67:\n      mload(0x40)\n      dup1\n      swap2\n      sub\n      swap1\n      return\n        /* \"contracts/token/ERC20Upgradeable.sol\":2441:2960  function transferFrom(address from, address to, uint256 amount) external returns (bool) {... */\n    tag_7:\n      callvalue\n      dup1\n      iszero\n      tag_68\n      jumpi\n      revert(0x00, 0x00)\n    tag_68:\n      pop\n      tag_69\n      0x04\n      dup1\n      calldatasize\n      sub\n      dup2\n      add\n      swap1\n      tag_70\n      swap2\n      swap1\n      tag_71\n      jump\t// in\n    tag_70:\n      tag_72\n      jump\t// in\n    tag_69:\n      mload(0x40)\n      tag_73\n      swap2\n      swap1\n      tag_63\n      jump\t// in\n    tag_73:\n      mload(0x40)\n      dup1\n      swap2\n      sub\n      swap1\n      return\n        /* \"contracts/token/ERC20Upgradeable.sol\":1692:1774  function decimals() external view returns (uint) {... */\n    tag_8:\n      callvalue\n      dup1\n      iszero\n      tag_74\n      jumpi\n      revert(0x00, 0x00)\n    tag_74:\n      pop\n      tag_75\n      tag_76\n      jump\t// in\n    tag_75:\n      mload(0x40)\n      tag_77\n      swap2\n      swap1\n      tag_45\n      jump\t// in\n    tag_77:\n      mload(0x40)\n      dup1\n      swap2\n      sub\n      swap1\n      return\n        /* \"contracts/proxy/UUPSUpgradeable.sol\":1745:1927  function upgradeTo(address newImplementation) external onlyProxy {... */\n    tag_9:\n      callvalue\n      dup1\n      iszero\n      tag_78\n      jumpi\n      revert(0x00, 0x00)\n    tag_78:\n      pop\n      tag_79\n      0x04\n      dup1\n      calldatasize\n      sub\n      dup2\n      add\n      swap1\n      tag_80\n      swap2\n      swap1\n      tag_81\n      jump\t// in\n    tag_80:\n      tag_82\n      jump\t// in\n    tag_79:\n      stop\n        /* \"contracts/token/ERC4626Upgradeable.sol\":1296:1382  function asset() public view returns (address) {... */\n    tag_10:\n      callvalue\n      dup1\n      iszero\n      tag_83\n      jumpi\n      revert(0x00, 0x00)\n    tag_83:\n      pop\n      tag_84\n      tag_85\n      jump\t// in\n    tag_84:\n      mload(0x40)\n      tag_86\n      swap2\n      swap1\n      tag_87\n      jump\t// in\n    tag_86:\n      mload(0x40)\n      dup1\n      swap2\n      sub\n      swap1\n      return\n        /* \"contracts/protocol/Vault.sol\":477:495  uint256 public apy */\n    tag_11:\n      callvalue\n      dup1\n      iszero\n      tag_88\n      jumpi\n      revert(0x00, 0x00)\n    tag_88:\n      pop\n      tag_89\n      tag_90\n      jump\t// in\n    tag_89:\n      mload(0x40)\n      tag_91\n      swap2\n      swap1\n      tag_45\n      jump\t// in\n    tag_91:\n      mload(0x40)\n      dup1\n      swap2\n      sub\n      swap1\n      return\n        /* \"contracts/protocol/Vault.sol\":609:1036  function initialize(... */\n    tag_12:\n      callvalue\n      dup1\n      iszero\n      tag_92\n      jumpi\n      revert(0x00, 0x00)\n    tag_92:\n      pop\n      tag_93\n      0x04\n      dup1\n      calldatasize\n      sub\n      dup2\n      add\n      swap1\n      tag_94\n      swap2\n      swap1\n      tag_95\n      jump\t// in\n    tag_94:\n      tag_96\n      jump\t// in\n    tag_93:\n      stop\n        /* \"contracts/protocol/Vault.sol\":501:526  uint256 public minDeposit */\n    tag_13:\n      callvalue\n      dup1\n      iszero\n      tag_97\n      jumpi\n      revert(0x00, 0x00)\n    tag_97:\n      pop\n      tag_98\n      tag_99\n      jump\t// in\n    tag_98:\n      mload(0x40)\n      tag_100\n      swap2\n      swap1\n      tag_45\n      jump\t// in\n    tag_100:\n      mload(0x40)\n      dup1\n      swap2\n      sub\n      swap1\n      return\n        /* \"contracts/protocol/Vault.sol\":452:471  string public title */\n    tag_14:\n      callvalue\n      dup1\n      iszero\n      tag_101\n      jumpi\n      revert(0x00, 0x00)\n    tag_101:\n      pop\n      tag_102\n      tag_103\n      jump\t// in\n    tag_102:\n      mload(0x40)\n      tag_104\n      swap2\n      swap1\n      tag_50\n      jump\t// in\n    tag_104:\n      mload(0x40)\n      dup1\n      swap2\n      sub\n      swap1\n      return\n        /* \"contracts/proxy/UUPSUpgradeable.sol\":2028:2240  function upgradeToAndCall(address newImplementation, bytes calldata data) external payable onlyProxy {... */\n    tag_15:\n      tag_105\n      0x04\n      dup1\n      calldatasize\n      sub\n      dup2\n      add\n      swap1\n      tag_106\n      swap2\n      swap1\n      tag_107\n      jump\t// in\n    tag_106:\n      tag_108\n      jump\t// in\n    tag_105:\n      stop\n        /* \"contracts/proxy/UUPSUpgradeable.sol\":1577:1690  function proxiableUUID() external view notDelegated returns (bytes32) {... */\n    tag_16:\n      callvalue\n      dup1\n      iszero\n      tag_109\n      jumpi\n      revert(0x00, 0x00)\n    tag_109:\n      pop\n      tag_110\n      tag_111\n      jump\t// in\n    tag_110:\n      mload(0x40)\n      tag_112\n      swap2\n      swap1\n      tag_113\n      jump\t// in\n    tag_112:\n      mload(0x40)\n      dup1\n      swap2\n      sub\n      swap1\n      return\n        /* \"contracts/protocol/Vault.sol\":2003:2307  function allocateToMarket(address market_, uint256 amount) external onlyOwner {... */\n    tag_17:\n      callvalue\n      dup1\n      iszero\n      tag_114\n      jumpi\n      revert(0x00, 0x00)\n    tag_114:\n      pop\n      tag_115\n      0x04\n      dup1\n      calldatasize\n      sub\n      dup2\n      add\n      swap1\n      tag_116\n      swap2\n      swap1\n      tag_60\n      jump\t// in\n    tag_116:\n      tag_117\n      jump\t// in\n    tag_115:\n      stop\n        /* \"contracts/protocol/Vault.sol\":2313:2506  function deallocateFromMarket(address market_, uint256 amount) external onlyOwner {... */\n    tag_18:\n      callvalue\n      dup1\n      iszero\n      tag_118\n      jumpi\n      revert(0x00, 0x00)\n    tag_118:\n      pop\n      tag_119\n      0x04\n      dup1\n      calldatasize\n      sub\n      dup2\n      add\n      swap1\n      tag_120\n      swap2\n      swap1\n      tag_60\n      jump\t// in\n    tag_120:\n      tag_121\n      jump\t// in\n    tag_119:\n      stop\n        /* \"contracts/protocol/Vault.sol\":1536:1748  function deposit(uint256 assets_, address receiver) public override returns (uint256 shares) {... */\n    tag_19:\n      callvalue\n      dup1\n      iszero\n      tag_122\n      jumpi\n      revert(0x00, 0x00)\n    tag_122:\n      pop\n      tag_123\n      0x04\n      dup1\n      calldatasize\n      sub\n      dup2\n      add\n      swap1\n      tag_124\n      swap2\n      swap1\n      tag_125\n      jump\t// in\n    tag_124:\n      tag_126\n      jump\t// in\n    tag_123:\n      mload(0x40)\n      tag_127\n      swap2\n      swap1\n      tag_45\n      jump\t// in\n    tag_127:\n      mload(0x40)\n      dup1\n      swap2\n      sub\n      swap1\n      return\n        /* \"contracts/protocol/Vault.sol\":562:602  mapping(address => bool) public isMarket */\n    tag_20:\n      callvalue\n      dup1\n      iszero\n      tag_128\n      jumpi\n      revert(0x00, 0x00)\n    tag_128:\n      pop\n      tag_129\n      0x04\n      dup1\n      calldatasize\n      sub\n      dup2\n      add\n      swap1\n      tag_130\n      swap2\n      swap1\n      tag_81\n      jump\t// in\n    tag_130:\n      tag_131\n      jump\t// in\n    tag_129:\n      mload(0x40)\n      tag_132\n      swap2\n      swap1\n      tag_63\n      jump\t// in\n    tag_132:\n      mload(0x40)\n      dup1\n      swap2\n      sub\n      swap1\n      return\n        /* \"contracts/token/ERC20Upgradeable.sol\":1877:1987  function balanceOf(address account) external view returns (uint256) {... */\n    tag_21:\n      callvalue\n      dup1\n      iszero\n      tag_133\n      jumpi\n      revert(0x00, 0x00)\n    tag_133:\n      pop\n      tag_134\n      0x04\n      dup1\n      calldatasize\n      sub\n      dup2\n      add\n      swap1\n      tag_135\n      swap2\n      swap1\n      tag_81\n      jump\t// in\n    tag_135:\n      tag_136\n      jump\t// in\n    tag_134:\n      mload(0x40)\n      tag_137\n      swap2\n      swap1\n      tag_45\n      jump\t// in\n    tag_137:\n      mload(0x40)\n      dup1\n      swap2\n      sub\n      swap1\n      return\n        /* \"contracts/acess/Ownable.sol\":133:153  address public owner */\n    tag_22:\n      callvalue\n      dup1\n      iszero\n      tag_138\n      jumpi\n      revert(0x00, 0x00)\n    tag_138:\n      pop\n      tag_139\n      tag_140\n      jump\t// in\n    tag_139:\n      mload(0x40)\n      tag_141\n      swap2\n      swap1\n      tag_87\n      jump\t// in\n    tag_141:\n      mload(0x40)\n      dup1\n      swap2\n      sub\n      swap1\n      return\n        /* \"contracts/protocol/Vault.sol\":1411:1530  function idleLiquidity() public view returns (uint256) {... */\n    tag_23:\n      callvalue\n      dup1\n      iszero\n      tag_142\n      jumpi\n      revert(0x00, 0x00)\n    tag_142:\n      pop\n      tag_143\n      tag_144\n      jump\t// in\n    tag_143:\n      mload(0x40)\n      tag_145\n      swap2\n      swap1\n      tag_45\n      jump\t// in\n    tag_145:\n      mload(0x40)\n      dup1\n      swap2\n      sub\n      swap1\n      return\n        /* \"contracts/protocol/Vault.sol\":2512:2748  function addMarket(address market_) external onlyOwner {... */\n    tag_24:\n      callvalue\n      dup1\n      iszero\n      tag_146\n      jumpi\n      revert(0x00, 0x00)\n    tag_146:\n      pop\n      tag_147\n      0x04\n      dup1\n      calldatasize\n      sub\n      dup2\n      add\n      swap1\n      tag_148\n      swap2\n      swap1\n      tag_81\n      jump\t// in\n    tag_148:\n      tag_149\n      jump\t// in\n    tag_147:\n      stop\n        /* \"contracts/token/ERC4626Upgradeable.sol\":2595:2985  function mint(uint256 shares, address receiver) public virtual returns (uint256 assets_) {... */\n    tag_25:\n      callvalue\n      dup1\n      iszero\n      tag_150\n      jumpi\n      revert(0x00, 0x00)\n    tag_150:\n      pop\n      tag_151\n      0x04\n      dup1\n      calldatasize\n      sub\n      dup2\n      add\n      swap1\n      tag_152\n      swap2\n      swap1\n      tag_125\n      jump\t// in\n    tag_152:\n      tag_153\n      jump\t// in\n    tag_151:\n      mload(0x40)\n      tag_154\n      swap2\n      swap1\n      tag_45\n      jump\t// in\n    tag_154:\n      mload(0x40)\n      dup1\n      swap2\n      sub\n      swap1\n      return\n        /* \"contracts/token/ERC20Upgradeable.sol\":1599:1686  function symbol() external view returns (string memory) {... */\n    tag_26:\n      callvalue\n      dup1\n      iszero\n      tag_155\n      jumpi\n      revert(0x00, 0x00)\n    tag_155:\n      pop\n      tag_156\n      tag_157\n      jump\t// in\n    tag_156:\n      mload(0x40)\n      tag_158\n      swap2\n      swap1\n      tag_50\n      jump\t// in\n    tag_158:\n      mload(0x40)\n      dup1\n      swap2\n      sub\n      swap1\n      return\n        /* \"contracts/token/ERC20Upgradeable.sol\":2139:2280  function transfer(address to, uint256 amount) external returns (bool) {... */\n    tag_27:\n      callvalue\n      dup1\n      iszero\n      tag_159\n      jumpi\n      revert(0x00, 0x00)\n    tag_159:\n      pop\n      tag_160\n      0x04\n      dup1\n      calldatasize\n      sub\n      dup2\n      add\n      swap1\n      tag_161\n      swap2\n      swap1\n      tag_60\n      jump\t// in\n    tag_161:\n      tag_162\n      jump\t// in\n    tag_160:\n      mload(0x40)\n      tag_163\n      swap2\n      swap1\n      tag_63\n      jump\t// in\n    tag_163:\n      mload(0x40)\n      dup1\n      swap2\n      sub\n      swap1\n      return\n        /* \"contracts/protocol/Vault.sol\":532:556  address[] public markets */\n    tag_28:\n      callvalue\n      dup1\n      iszero\n      tag_164\n      jumpi\n      revert(0x00, 0x00)\n    tag_164:\n      pop\n      tag_165\n      0x04\n      dup1\n      calldatasize\n      sub\n      dup2\n      add\n      swap1\n      tag_166\n      swap2\n      swap1\n      tag_54\n      jump\t// in\n    tag_166:\n      tag_167\n      jump\t// in\n    tag_165:\n      mload(0x40)\n      tag_168\n      swap2\n      swap1\n      tag_87\n      jump\t// in\n    tag_168:\n      mload(0x40)\n      dup1\n      swap2\n      sub\n      swap1\n      return\n        /* \"contracts/protocol/Vault.sol\":1754:1997  function withdraw(uint256 assets_, address receiver, address owner_) public override returns (uint256 shares) {... */\n    tag_29:\n      callvalue\n      dup1\n      iszero\n      tag_169\n      jumpi\n      revert(0x00, 0x00)\n    tag_169:\n      pop\n      tag_170\n      0x04\n      dup1\n      calldatasize\n      sub\n      dup2\n      add\n      swap1\n      tag_171\n      swap2\n      swap1\n      tag_172\n      jump\t// in\n    tag_171:\n      tag_173\n      jump\t// in\n    tag_170:\n      mload(0x40)\n      tag_174\n      swap2\n      swap1\n      tag_45\n      jump\t// in\n    tag_174:\n      mload(0x40)\n      dup1\n      swap2\n      sub\n      swap1\n      return\n        /* \"contracts/token/ERC4626Upgradeable.sol\":3833:4476  function redeem(uint256 shares, address receiver, address owner) public virtual returns (uint256 assets_) {... */\n    tag_30:\n      callvalue\n      dup1\n      iszero\n      tag_175\n      jumpi\n      revert(0x00, 0x00)\n    tag_175:\n      pop\n      tag_176\n      0x04\n      dup1\n      calldatasize\n      sub\n      dup2\n      add\n      swap1\n      tag_177\n      swap2\n      swap1\n      tag_172\n      jump\t// in\n    tag_177:\n      tag_178\n      jump\t// in\n    tag_176:\n      mload(0x40)\n      tag_179\n      swap2\n      swap1\n      tag_45\n      jump\t// in\n    tag_179:\n      mload(0x40)\n      dup1\n      swap2\n      sub\n      swap1\n      return\n        /* \"contracts/token/ERC4626Upgradeable.sol\":1455:1821  function convertToShares(uint256 assets_) public view returns (uint256) {... */\n    tag_31:\n      callvalue\n      dup1\n      iszero\n      tag_180\n      jumpi\n      revert(0x00, 0x00)\n    tag_180:\n      pop\n      tag_181\n      0x04\n      dup1\n      calldatasize\n      sub\n      dup2\n      add\n      swap1\n      tag_182\n      swap2\n      swap1\n      tag_54\n      jump\t// in\n    tag_182:\n      tag_183\n      jump\t// in\n    tag_181:\n      mload(0x40)\n      tag_184\n      swap2\n      swap1\n      tag_45\n      jump\t// in\n    tag_184:\n      mload(0x40)\n      dup1\n      swap2\n      sub\n      swap1\n      return\n        /* \"contracts/acess/Ownable.sol\":394:532  function ownershipTransfer(address newOwner) external onlyOwner {... */\n    tag_32:\n      callvalue\n      dup1\n      iszero\n      tag_185\n      jumpi\n      revert(0x00, 0x00)\n    tag_185:\n      pop\n      tag_186\n      0x04\n      dup1\n      calldatasize\n      sub\n      dup2\n      add\n      swap1\n      tag_187\n      swap2\n      swap1\n      tag_81\n      jump\t// in\n    tag_187:\n      tag_188\n      jump\t// in\n    tag_186:\n      stop\n        /* \"contracts/token/ERC20Upgradeable.sol\":1993:2133  function allowance(address owner, address spender) public view virtual returns (uint256) {... */\n    tag_33:\n      callvalue\n      dup1\n      iszero\n      tag_189\n      jumpi\n      revert(0x00, 0x00)\n    tag_189:\n      pop\n      tag_190\n      0x04\n      dup1\n      calldatasize\n      sub\n      dup2\n      add\n      swap1\n      tag_191\n      swap2\n      swap1\n      tag_192\n      jump\t// in\n    tag_191:\n      tag_193\n      jump\t// in\n    tag_190:\n      mload(0x40)\n      tag_194\n      swap2\n      swap1\n      tag_45\n      jump\t// in\n    tag_194:\n      mload(0x40)\n      dup1\n      swap2\n      sub\n      swap1\n      return\n        /* \"contracts/protocol/Vault.sol\":1042:1405  function totalAssets() public view override returns (uint256 total) {... */\n    tag_43:\n        /* \"contracts/protocol/Vault.sol\":1095:1108  uint256 total */\n      0x00\n        /* \"contracts/protocol/Vault.sol\":1135:1142  asset() */\n      tag_196\n        /* \"contracts/protocol/Vault.sol\":1135:1140  asset */\n      tag_85\n        /* \"contracts/protocol/Vault.sol\":1135:1142  asset() */\n      jump\t// in\n    tag_196:\n        /* \"contracts/protocol/Vault.sol\":1128:1153  IERC20(asset()).balanceOf */\n      0xffffffffffffffffffffffffffffffffffffffff\n      and\n      0x70a08231\n        /* \"contracts/protocol/Vault.sol\":1162:1166  this */\n      address\n        /* \"contracts/protocol/Vault.sol\":1128:1168  IERC20(asset()).balanceOf(address(this)) */\n      mload(0x40)\n      dup3\n      0xffffffff\n      and\n      0xe0\n      shl\n      dup2\n      mstore\n      0x04\n      add\n      tag_197\n      swap2\n      swap1\n      tag_87\n      jump\t// in\n    tag_197:\n      0x20\n      mload(0x40)\n      dup1\n      dup4\n      sub\n      dup2\n      dup7\n      gas\n      staticcall\n      iszero\n      dup1\n      iszero\n      tag_199\n      jumpi\n      returndatacopy(0x00, 0x00, returndatasize)\n      revert(0x00, returndatasize)\n    tag_199:\n      pop\n      pop\n      pop\n      pop\n      mload(0x40)\n      returndatasize\n      not(0x1f)\n      0x1f\n      dup3\n      add\n      and\n      dup3\n      add\n      dup1\n      0x40\n      mstore\n      pop\n      dup2\n      add\n      swap1\n      tag_200\n      swap2\n      swap1\n      tag_201\n      jump\t// in\n    tag_200:\n        /* \"contracts/protocol/Vault.sol\":1120:1168  total = IERC20(asset()).balanceOf(address(this)) */\n      swap1\n      pop\n        /* \"contracts/protocol/Vault.sol\":1178:1189  uint256 len */\n      0x00\n        /* \"contracts/protocol/Vault.sol\":1192:1199  markets */\n      0x0b\n        /* \"contracts/protocol/Vault.sol\":1192:1206  markets.length */\n      dup1\n      sload\n      swap1\n      pop\n        /* \"contracts/protocol/Vault.sol\":1178:1206  uint256 len = markets.length */\n      swap1\n      pop\n        /* \"contracts/protocol/Vault.sol\":1221:1230  uint256 i */\n      0x00\n        /* \"contracts/protocol/Vault.sol\":1233:1234  0 */\n      0x00\n        /* \"contracts/protocol/Vault.sol\":1221:1234  uint256 i = 0 */\n      swap1\n      pop\n        /* \"contracts/protocol/Vault.sol\":1216:1399  for (uint256 i = 0; i < len; ) {... */\n    tag_202:\n        /* \"contracts/protocol/Vault.sol\":1240:1243  len */\n      dup2\n        /* \"contracts/protocol/Vault.sol\":1236:1237  i */\n      dup2\n        /* \"contracts/protocol/Vault.sol\":1236:1243  i < len */\n      lt\n        /* \"contracts/protocol/Vault.sol\":1216:1399  for (uint256 i = 0; i < len; ) {... */\n      iszero\n      tag_203\n      jumpi\n        /* \"contracts/protocol/Vault.sol\":1265:1273  isMarket */\n      0x0c\n        /* \"contracts/protocol/Vault.sol\":1265:1285  isMarket[markets[i]] */\n      0x00\n        /* \"contracts/protocol/Vault.sol\":1274:1281  markets */\n      0x0b\n        /* \"contracts/protocol/Vault.sol\":1282:1283  i */\n      dup4\n        /* \"contracts/protocol/Vault.sol\":1274:1284  markets[i] */\n      dup2\n      sload\n      dup2\n      lt\n      tag_205\n      jumpi\n      tag_206\n      tag_207\n      jump\t// in\n    tag_206:\n    tag_205:\n      swap1\n      0x00\n      mstore\n      keccak256(0x00, 0x20)\n      add\n      0x00\n      swap1\n      sload\n      swap1\n      0x0100\n      exp\n      swap1\n      div\n      0xffffffffffffffffffffffffffffffffffffffff\n      and\n        /* \"contracts/protocol/Vault.sol\":1265:1285  isMarket[markets[i]] */\n      0xffffffffffffffffffffffffffffffffffffffff\n      and\n      0xffffffffffffffffffffffffffffffffffffffff\n      and\n      dup2\n      mstore\n      0x20\n      add\n      swap1\n      dup2\n      mstore\n      0x20\n      add\n      0x00\n      keccak256\n      0x00\n      swap1\n      sload\n      swap1\n      0x0100\n      exp\n      swap1\n      div\n      0xff\n      and\n        /* \"contracts/protocol/Vault.sol\":1261:1329  if (isMarket[markets[i]]) total += IMarket(markets[i]).assetManage() */\n      iszero\n      tag_209\n      jumpi\n        /* \"contracts/protocol/Vault.sol\":1304:1311  markets */\n      0x0b\n        /* \"contracts/protocol/Vault.sol\":1312:1313  i */\n      dup2\n        /* \"contracts/protocol/Vault.sol\":1304:1314  markets[i] */\n      dup2\n      sload\n      dup2\n      lt\n      tag_210\n      jumpi\n      tag_211\n      tag_207\n      jump\t// in\n    tag_211:\n    tag_210:\n      swap1\n      0x00\n      mstore\n      keccak256(0x00, 0x20)\n      add\n      0x00\n      swap1\n      sload\n      swap1\n      0x0100\n      exp\n      swap1\n      div\n      0xffffffffffffffffffffffffffffffffffffffff\n      and\n        /* \"contracts/protocol/Vault.sol\":1296:1327  IMarket(markets[i]).assetManage */\n      0xffffffffffffffffffffffffffffffffffffffff\n      and\n      0xc82f6d2f\n        /* \"contracts/protocol/Vault.sol\":1296:1329  IMarket(markets[i]).assetManage() */\n      mload(0x40)\n      dup2\n      0xffffffff\n      and\n      0xe0\n      shl\n      dup2\n      mstore\n      0x04\n      add\n      0x20\n      mload(0x40)\n      dup1\n      dup4\n      sub\n      dup2\n      dup7\n      gas\n      staticcall\n      iszero\n      dup1\n      iszero\n      tag_214\n      jumpi\n      returndatacopy(0x00, 0x00, returndatasize)\n      revert(0x00, returndatasize)\n    tag_214:\n      pop\n      pop\n      pop\n      pop\n      mload(0x40)\n      returndatasize\n      not(0x1f)\n      0x1f\n      dup3\n      add\n      and\n      dup3\n      add\n      dup1\n      0x40\n      mstore\n      pop\n      dup2\n      add\n      swap1\n      tag_215\n      swap2\n      swap1\n      tag_201\n      jump\t// in\n    tag_215:\n        /* \"contracts/protocol/Vault.sol\":1287:1329  total += IMarket(markets[i]).assetManage() */\n      dup4\n      tag_216\n      swap2\n      swap1\n      tag_217\n      jump\t// in\n    tag_216:\n      swap3\n      pop\n        /* \"contracts/protocol/Vault.sol\":1261:1329  if (isMarket[markets[i]]) total += IMarket(markets[i]).assetManage() */\n    tag_209:\n        /* \"contracts/protocol/Vault.sol\":1371:1374  ++i */\n      dup1\n      0x01\n      add\n      swap1\n      pop\n        /* \"contracts/protocol/Vault.sol\":1216:1399  for (uint256 i = 0; i < len; ) {... */\n      jump(tag_202)\n    tag_203:\n      pop\n        /* \"contracts/protocol/Vault.sol\":1110:1405  {... */\n      pop\n        /* \"contracts/protocol/Vault.sol\":1042:1405  function totalAssets() public view override returns (uint256 total) {... */\n      swap1\n      jump\t// out\n        /* \"contracts/token/ERC20Upgradeable.sol\":1510:1593  function name() external view returns (string memory) {... */\n    tag_48:\n        /* \"contracts/token/ERC20Upgradeable.sol\":1549:1562  string memory */\n      0x60\n        /* \"contracts/token/ERC20Upgradeable.sol\":1581:1586  _name */\n      0x01\n        /* \"contracts/token/ERC20Upgradeable.sol\":1574:1586  return _name */\n      dup1\n      sload\n      tag_219\n      swap1\n      tag_220\n      jump\t// in\n    tag_219:\n      dup1\n      0x1f\n      add\n      0x20\n      dup1\n      swap2\n      div\n      mul\n      0x20\n      add\n      mload(0x40)\n      swap1\n      dup2\n      add\n      0x40\n      mstore\n      dup1\n      swap3\n      swap2\n      swap1\n      dup2\n      dup2\n      mstore\n      0x20\n      add\n      dup3\n      dup1\n      sload\n      tag_221\n      swap1\n      tag_220\n      jump\t// in\n    tag_221:\n      dup1\n      iszero\n      tag_222\n      jumpi\n      dup1\n      0x1f\n      lt\n      tag_223\n      jumpi\n      0x0100\n      dup1\n      dup4\n      sload\n      div\n      mul\n      dup4\n      mstore\n      swap2\n      0x20\n      add\n      swap2\n      jump(tag_222)\n    tag_223:\n      dup3\n      add\n      swap2\n      swap1\n      0x00\n      mstore\n      keccak256(0x00, 0x20)\n      swap1\n    tag_224:\n      dup2\n      sload\n      dup2\n      mstore\n      swap1\n      0x01\n      add\n      swap1\n      0x20\n      add\n      dup1\n      dup4\n      gt\n      tag_224\n      jumpi\n      dup3\n      swap1\n      sub\n      0x1f\n      and\n      dup3\n      add\n      swap2\n    tag_222:\n      pop\n      pop\n      pop\n      pop\n      pop\n      swap1\n      pop\n        /* \"contracts/token/ERC20Upgradeable.sol\":1510:1593  function name() external view returns (string memory) {... */\n      swap1\n      jump\t// out\n        /* \"contracts/token/ERC4626Upgradeable.sol\":1827:2190  function convertToAssets(uint256 shares) public view returns (uint256) {... */\n    tag_55:\n        /* \"contracts/token/ERC4626Upgradeable.sol\":1889:1896  uint256 */\n      0x00\n        /* \"contracts/token/ERC4626Upgradeable.sol\":1908:1922  uint256 supply */\n      0x00\n        /* \"contracts/token/ERC4626Upgradeable.sol\":1925:1929  this */\n      address\n        /* \"contracts/token/ERC4626Upgradeable.sol\":1925:1941  this.totalSupply */\n      0xffffffffffffffffffffffffffffffffffffffff\n      and\n      0x18160ddd\n        /* \"contracts/token/ERC4626Upgradeable.sol\":1925:1943  this.totalSupply() */\n      mload(0x40)\n      dup2\n      0xffffffff\n      and\n      0xe0\n      shl\n      dup2\n      mstore\n      0x04\n      add\n      0x20\n      mload(0x40)\n      dup1\n      dup4\n      sub\n      dup2\n      dup7\n      gas\n      staticcall\n      iszero\n      dup1\n      iszero\n      tag_227\n      jumpi\n      returndatacopy(0x00, 0x00, returndatasize)\n      revert(0x00, returndatasize)\n    tag_227:\n      pop\n      pop\n      pop\n      pop\n      mload(0x40)\n      returndatasize\n      not(0x1f)\n      0x1f\n      dup3\n      add\n      and\n      dup3\n      add\n      dup1\n      0x40\n      mstore\n      pop\n      dup2\n      add\n      swap1\n      tag_228\n      swap2\n      swap1\n      tag_201\n      jump\t// in\n    tag_228:\n        /* \"contracts/token/ERC4626Upgradeable.sol\":1908:1943  uint256 supply = this.totalSupply() */\n      swap1\n      pop\n        /* \"contracts/token/ERC4626Upgradeable.sol\":1953:1972  uint256 assetsTotal */\n      0x00\n        /* \"contracts/token/ERC4626Upgradeable.sol\":1975:1988  totalAssets() */\n      tag_229\n        /* \"contracts/token/ERC4626Upgradeable.sol\":1975:1986  totalAssets */\n      tag_43\n        /* \"contracts/token/ERC4626Upgradeable.sol\":1975:1988  totalAssets() */\n      jump\t// in\n    tag_229:\n        /* \"contracts/token/ERC4626Upgradeable.sol\":1953:1988  uint256 assetsTotal = totalAssets() */\n      swap1\n      pop\n        /* \"contracts/token/ERC4626Upgradeable.sol\":2074:2075  0 */\n      0x00\n        /* \"contracts/token/ERC4626Upgradeable.sol\":2064:2070  supply */\n      dup3\n        /* \"contracts/token/ERC4626Upgradeable.sol\":2064:2075  supply == 0 */\n      eq\n        /* \"contracts/token/ERC4626Upgradeable.sol\":2064:2095  supply == 0 || assetsTotal == 0 */\n      dup1\n      tag_230\n      jumpi\n      pop\n        /* \"contracts/token/ERC4626Upgradeable.sol\":2094:2095  0 */\n      0x00\n        /* \"contracts/token/ERC4626Upgradeable.sol\":2079:2090  assetsTotal */\n      dup2\n        /* \"contracts/token/ERC4626Upgradeable.sol\":2079:2095  assetsTotal == 0 */\n      eq\n        /* \"contracts/token/ERC4626Upgradeable.sol\":2064:2095  supply == 0 || assetsTotal == 0 */\n    tag_230:\n        /* \"contracts/token/ERC4626Upgradeable.sol\":2060:2135  if (supply == 0 || assetsTotal == 0) {... */\n      iszero\n      tag_231\n      jumpi\n        /* \"contracts/token/ERC4626Upgradeable.sol\":2118:2124  shares */\n      dup4\n        /* \"contracts/token/ERC4626Upgradeable.sol\":2111:2124  return shares */\n      swap3\n      pop\n      pop\n      pop\n      jump(tag_225)\n        /* \"contracts/token/ERC4626Upgradeable.sol\":2060:2135  if (supply == 0 || assetsTotal == 0) {... */\n    tag_231:\n        /* \"contracts/token/ERC4626Upgradeable.sol\":2177:2183  supply */\n      dup2\n        /* \"contracts/token/ERC4626Upgradeable.sol\":2162:2173  assetsTotal */\n      dup2\n        /* \"contracts/token/ERC4626Upgradeable.sol\":2153:2159  shares */\n      dup6\n        /* \"contracts/token/ERC4626Upgradeable.sol\":2153:2173  shares * assetsTotal */\n      tag_232\n      swap2\n      swap1\n      tag_233\n      jump\t// in\n    tag_232:\n        /* \"contracts/token/ERC4626Upgradeable.sol\":2152:2183  (shares * assetsTotal) / supply */\n      tag_234\n      swap2\n      swap1\n      tag_235\n      jump\t// in\n    tag_234:\n        /* \"contracts/token/ERC4626Upgradeable.sol\":2145:2183  return (shares * assetsTotal) / supply */\n      swap3\n      pop\n      pop\n      pop\n        /* \"contracts/token/ERC4626Upgradeable.sol\":1827:2190  function convertToAssets(uint256 shares) public view returns (uint256) {... */\n    tag_225:\n      swap2\n      swap1\n      pop\n      jump\t// out\n        /* \"contracts/token/ERC20Upgradeable.sol\":2286:2435  function approve(address spender, uint256 amount) external returns (bool) {... */\n    tag_61:\n        /* \"contracts/token/ERC20Upgradeable.sol\":2354:2358  bool */\n      0x00\n        /* \"contracts/token/ERC20Upgradeable.sol\":2370:2407  _approve(msg.sender, spender, amount) */\n      tag_237\n        /* \"contracts/token/ERC20Upgradeable.sol\":2379:2389  msg.sender */\n      caller\n        /* \"contracts/token/ERC20Upgradeable.sol\":2391:2398  spender */\n      dup5\n        /* \"contracts/token/ERC20Upgradeable.sol\":2400:2406  amount */\n      dup5\n        /* \"contracts/token/ERC20Upgradeable.sol\":2370:2378  _approve */\n      tag_238\n        /* \"contracts/token/ERC20Upgradeable.sol\":2370:2407  _approve(msg.sender, spender, amount) */\n      jump\t// in\n    tag_237:\n        /* \"contracts/token/ERC20Upgradeable.sol\":2424:2428  true */\n      0x01\n        /* \"contracts/token/ERC20Upgradeable.sol\":2417:2428  return true */\n      swap1\n      pop\n        /* \"contracts/token/ERC20Upgradeable.sol\":2286:2435  function approve(address spender, uint256 amount) external returns (bool) {... */\n      swap3\n      swap2\n      pop\n      pop\n      jump\t// out\n        /* \"contracts/token/ERC20Upgradeable.sol\":1780:1871  function totalSupply() external view returns (uint256) {... */\n    tag_66:\n        /* \"contracts/token/ERC20Upgradeable.sol\":1826:1833  uint256 */\n      0x00\n        /* \"contracts/token/ERC20Upgradeable.sol\":1852:1864  _totalSupply */\n      sload(0x04)\n        /* \"contracts/token/ERC20Upgradeable.sol\":1845:1864  return _totalSupply */\n      swap1\n      pop\n        /* \"contracts/token/ERC20Upgradeable.sol\":1780:1871  function totalSupply() external view returns (uint256) {... */\n      swap1\n      jump\t// out\n        /* \"contracts/token/ERC20Upgradeable.sol\":2441:2960  function transferFrom(address from, address to, uint256 amount) external returns (bool) {... */\n    tag_72:\n        /* \"contracts/token/ERC20Upgradeable.sol\":2523:2527  bool */\n      0x00\n        /* \"contracts/token/ERC20Upgradeable.sol\":2539:2563  uint256 currentAllowance */\n      0x00\n        /* \"contracts/token/ERC20Upgradeable.sol\":2566:2577  _allowances */\n      0x06\n        /* \"contracts/token/ERC20Upgradeable.sol\":2566:2583  _allowances[from] */\n      0x00\n        /* \"contracts/token/ERC20Upgradeable.sol\":2578:2582  from */\n      dup7\n        /* \"contracts/token/ERC20Upgradeable.sol\":2566:2583  _allowances[from] */\n      0xffffffffffffffffffffffffffffffffffffffff\n      and\n      0xffffffffffffffffffffffffffffffffffffffff\n      and\n      dup2\n      mstore\n      0x20\n      add\n      swap1\n      dup2\n      mstore\n      0x20\n      add\n      0x00\n      keccak256\n        /* \"contracts/token/ERC20Upgradeable.sol\":2566:2595  _allowances[from][msg.sender] */\n      0x00\n        /* \"contracts/token/ERC20Upgradeable.sol\":2584:2594  msg.sender */\n      caller\n        /* \"contracts/token/ERC20Upgradeable.sol\":2566:2595  _allowances[from][msg.sender] */\n      0xffffffffffffffffffffffffffffffffffffffff\n      and\n      0xffffffffffffffffffffffffffffffffffffffff\n      and\n      dup2\n      mstore\n      0x20\n      add\n      swap1\n      dup2\n      mstore\n      0x20\n      add\n      0x00\n      keccak256\n      sload\n        /* \"contracts/token/ERC20Upgradeable.sol\":2539:2595  uint256 currentAllowance = _allowances[from][msg.sender] */\n      swap1\n      pop\n        /* \"contracts/token/ERC20Upgradeable.sol\":2723:2740  type(uint256).max */\n      0xffffffffffffffffffffffffffffffffffffffffffffffffffffffffffffffff\n        /* \"contracts/token/ERC20Upgradeable.sol\":2703:2719  currentAllowance */\n      dup2\n        /* \"contracts/token/ERC20Upgradeable.sol\":2703:2740  currentAllowance != type(uint256).max */\n      eq\n        /* \"contracts/token/ERC20Upgradeable.sol\":2699:2895  if (currentAllowance != type(uint256).max) {... */\n      tag_241\n      jumpi\n        /* \"contracts/token/ERC20Upgradeable.sol\":2784:2790  amount */\n      dup3\n        /* \"contracts/token/ERC20Upgradeable.sol\":2764:2780  currentAllowance */\n      dup2\n        /* \"contracts/token/ERC20Upgradeable.sol\":2764:2790  currentAllowance >= amount */\n      lt\n      iszero\n        /* \"contracts/token/ERC20Upgradeable.sol\":2756:2817  require(currentAllowance >= amount, \"INSUFFICIENT_ALLOWANCE\") */\n      tag_242\n      jumpi\n      mload(0x40)\n      0x08c379a000000000000000000000000000000000000000000000000000000000\n      dup2\n      mstore\n      0x04\n      add\n      tag_243\n      swap1\n      tag_244\n      jump\t// in\n    tag_243:\n      mload(0x40)\n      dup1\n      swap2\n      sub\n      swap1\n      revert\n    tag_242:\n        /* \"contracts/token/ERC20Upgradeable.sol\":2831:2884  _approve(from, msg.sender, currentAllowance - amount) */\n      tag_245\n        /* \"contracts/token/ERC20Upgradeable.sol\":2840:2844  from */\n      dup6\n        /* \"contracts/token/ERC20Upgradeable.sol\":2846:2856  msg.sender */\n      caller\n        /* \"contracts/token/ERC20Upgradeable.sol\":2877:2883  amount */\n      dup6\n        /* \"contracts/token/ERC20Upgradeable.sol\":2858:2874  currentAllowance */\n      dup5\n        /* \"contracts/token/ERC20Upgradeable.sol\":2858:2883  currentAllowance - amount */\n      tag_246\n      swap2\n      swap1\n      tag_247\n      jump\t// in\n    tag_246:\n        /* \"contracts/token/ERC20Upgradeable.sol\":2831:2839  _approve */\n      tag_238\n        /* \"contracts/token/ERC20Upgradeable.sol\":2831:2884  _approve(from, msg.sender, currentAllowance - amount) */\n      jump\t// in\n    tag_245:\n        /* \"contracts/token/ERC20Upgradeable.sol\":2699:2895  if (currentAllowance != type(uint256).max) {... */\n    tag_241:\n        /* \"contracts/token/ERC20Upgradeable.sol\":2905:2932  _transfer(from, to, amount) */\n      tag_248\n        /* \"contracts/token/ERC20Upgradeable.sol\":2915:2919  from */\n      dup6\n        /* \"contracts/token/ERC20Upgradeable.sol\":2921:2923  to */\n      dup6\n        /* \"contracts/token/ERC20Upgradeable.sol\":2925:2931  amount */\n      dup6\n        /* \"contracts/token/ERC20Upgradeable.sol\":2905:2914  _transfer */\n      tag_249\n        /* \"contracts/token/ERC20Upgradeable.sol\":2905:2932  _transfer(from, to, amount) */\n      jump\t// in\n    tag_248:\n        /* \"contracts/token/ERC20Upgradeable.sol\":2949:2953  true */\n      0x01\n        /* \"contracts/token/ERC20Upgradeable.sol\":2942:2953  return true */\n      swap2\n      pop\n      pop\n        /* \"contracts/token/ERC20Upgradeable.sol\":2441:2960  function transferFrom(address from, address to, uint256 amount) external returns (bool) {... */\n      swap4\n      swap3\n      pop\n      pop\n      pop\n      jump\t// out\n        /* \"contracts/token/ERC20Upgradeable.sol\":1692:1774  function decimals() external view returns (uint) {... */\n    tag_76:\n        /* \"contracts/token/ERC20Upgradeable.sol\":1735:1739  uint */\n      0x00\n        /* \"contracts/token/ERC20Upgradeable.sol\":1758:1767  _decimals */\n      0x03\n      0x00\n      swap1\n      sload\n      swap1\n      0x0100\n      exp\n      swap1\n      div\n      0xff\n      and\n        /* \"contracts/token/ERC20Upgradeable.sol\":1751:1767  return _decimals */\n      0xff\n      and\n      swap1\n      pop\n        /* \"contracts/token/ERC20Upgradeable.sol\":1692:1774  function decimals() external view returns (uint) {... */\n      swap1\n      jump\t// out\n        /* \"contracts/proxy/UUPSUpgradeable.sol\":1745:1927  function upgradeTo(address newImplementation) external onlyProxy {... */\n    tag_82:\n        /* \"contracts/proxy/UUPSUpgradeable.sol\":1200:1206  __self */\n      immutable(\"0x24f23eb2b7ec20f09b3b2a21f8addc5e0a93cdf731b4f8ae02783fb7a15edd99\")\n        /* \"contracts/proxy/UUPSUpgradeable.sol\":1183:1206  address(this) != __self */\n      0xffffffffffffffffffffffffffffffffffffffff\n      and\n        /* \"contracts/proxy/UUPSUpgradeable.sol\":1191:1195  this */\n      address\n        /* \"contracts/proxy/UUPSUpgradeable.sol\":1183:1206  address(this) != __self */\n      0xffffffffffffffffffffffffffffffffffffffff\n      and\n      sub\n        /* \"contracts/proxy/UUPSUpgradeable.sol\":1175:1227  require(address(this) != __self, \"NOT_DELEGATECALL\") */\n      tag_252\n      jumpi\n      mload(0x40)\n      0x08c379a000000000000000000000000000000000000000000000000000000000\n      dup2\n      mstore\n      0x04\n      add\n      tag_253\n      swap1\n      tag_254\n      jump\t// in\n    tag_253:\n      mload(0x40)\n      dup1\n      swap2\n      sub\n      swap1\n      revert\n    tag_252:\n        /* \"contracts/proxy/UUPSUpgradeable.sol\":1269:1275  __self */\n      immutable(\"0x24f23eb2b7ec20f09b3b2a21f8addc5e0a93cdf731b4f8ae02783fb7a15edd99\")\n        /* \"contracts/proxy/UUPSUpgradeable.sol\":1245:1275  _getImplementation() == __self */\n      0xffffffffffffffffffffffffffffffffffffffff\n      and\n        /* \"contracts/proxy/UUPSUpgradeable.sol\":1245:1265  _getImplementation() */\n      tag_255\n        /* \"contracts/proxy/UUPSUpgradeable.sol\":1245:1263  _getImplementation */\n      tag_256\n        /* \"contracts/proxy/UUPSUpgradeable.sol\":1245:1265  _getImplementation() */\n      jump\t// in\n    tag_255:\n        /* \"contracts/proxy/UUPSUpgradeable.sol\":1245:1275  _getImplementation() == __self */\n      0xffffffffffffffffffffffffffffffffffffffff\n      and\n      eq\n        /* \"contracts/proxy/UUPSUpgradeable.sol\":1237:1294  require(_getImplementation() == __self, \"INACTIVE_PROXY\") */\n      tag_257\n      jumpi\n      mload(0x40)\n      0x08c379a000000000000000000000000000000000000000000000000000000000\n      dup2\n      mstore\n      0x04\n      add\n      tag_258\n      swap1\n      tag_259\n      jump\t// in\n    tag_258:\n      mload(0x40)\n      dup1\n      swap2\n      sub\n      swap1\n      revert\n    tag_257:\n        /* \"contracts/proxy/UUPSUpgradeable.sol\":1820:1856  _authorizeUpgrade(newImplementation) */\n      tag_261\n        /* \"contracts/proxy/UUPSUpgradeable.sol\":1838:1855  newImplementation */\n      dup2\n        /* \"contracts/proxy/UUPSUpgradeable.sol\":1820:1837  _authorizeUpgrade */\n      tag_262\n        /* \"contracts/proxy/UUPSUpgradeable.sol\":1820:1856  _authorizeUpgrade(newImplementation) */\n      jump\t// in\n    tag_261:\n        /* \"contracts/proxy/UUPSUpgradeable.sol\":1866:1920  _upgradeToAndCall(newImplementation, bytes(\"\"), false) */\n      tag_263\n        /* \"contracts/proxy/UUPSUpgradeable.sol\":1884:1901  newImplementation */\n      dup2\n        /* \"contracts/proxy/UUPSUpgradeable.sol\":1903:1912  bytes(\"\") */\n      mload(0x40)\n      dup1\n      0x20\n      add\n      0x40\n      mstore\n      dup1\n      0x00\n      dup2\n      mstore\n      pop\n        /* \"contracts/proxy/UUPSUpgradeable.sol\":1914:1919  false */\n      0x00\n        /* \"contracts/proxy/UUPSUpgradeable.sol\":1866:1883  _upgradeToAndCall */\n      tag_264\n        /* \"contracts/proxy/UUPSUpgradeable.sol\":1866:1920  _upgradeToAndCall(newImplementation, bytes(\"\"), false) */\n      jump\t// in\n    tag_263:\n        /* \"contracts/proxy/UUPSUpgradeable.sol\":1745:1927  function upgradeTo(address newImplementation) external onlyProxy {... */\n      pop\n      jump\t// out\n        /* \"contracts/token/ERC4626Upgradeable.sol\":1296:1382  function asset() public view returns (address) {... */\n    tag_85:\n        /* \"contracts/token/ERC4626Upgradeable.sol\":1334:1341  address */\n      0x00\n        /* \"contracts/token/ERC4626Upgradeable.sol\":1368:1374  _asset */\n      0x07\n      0x00\n      swap1\n      sload\n      swap1\n      0x0100\n      exp\n      swap1\n      div\n      0xffffffffffffffffffffffffffffffffffffffff\n      and\n        /* \"contracts/token/ERC4626Upgradeable.sol\":1353:1375  return address(_asset) */\n      swap1\n      pop\n        /* \"contracts/token/ERC4626Upgradeable.sol\":1296:1382  function asset() public view returns (address) {... */\n      swap1\n      jump\t// out\n        /* \"contracts/protocol/Vault.sol\":477:495  uint256 public apy */\n    tag_90:\n      sload(0x09)\n      dup2\n      jump\t// out\n        /* \"contracts/protocol/Vault.sol\":609:1036  function initialize(... */\n    tag_96:\n        /* \"contracts/utils/Init.sol\":1076:1088  _initialized */\n      0x00\n      0x00\n      swap1\n      sload\n      swap1\n      0x0100\n      exp\n      swap1\n      div\n      0xff\n      and\n        /* \"contracts/utils/Init.sol\":1075:1088  !_initialized */\n      iszero\n        /* \"contracts/utils/Init.sol\":1075:1105  !_initialized || _initializing */\n      dup1\n      tag_267\n      jumpi\n      pop\n        /* \"contracts/utils/Init.sol\":1092:1105  _initializing */\n      0x00\n      0x01\n      swap1\n      sload\n      swap1\n      0x0100\n      exp\n      swap1\n      div\n      0xff\n      and\n        /* \"contracts/utils/Init.sol\":1075:1105  !_initialized || _initializing */\n    tag_267:\n        /* \"contracts/utils/Init.sol\":1067:1129  require(!_initialized || _initializing, \"ALREADY_INITIALIZED\") */\n      tag_268\n      jumpi\n      mload(0x40)\n      0x08c379a000000000000000000000000000000000000000000000000000000000\n      dup2\n      mstore\n      0x04\n      add\n      tag_269\n      swap1\n      tag_270\n      jump\t// in\n    tag_269:\n      mload(0x40)\n      dup1\n      swap2\n      sub\n      swap1\n      revert\n    tag_268:\n        /* \"contracts/utils/Init.sol\":1139:1154  bool isTopLevel */\n      0x00\n        /* \"contracts/utils/Init.sol\":1158:1171  _initializing */\n      0x00\n      0x01\n      swap1\n      sload\n      swap1\n      0x0100\n      exp\n      swap1\n      div\n      0xff\n      and\n        /* \"contracts/utils/Init.sol\":1157:1171  !_initializing */\n      iszero\n        /* \"contracts/utils/Init.sol\":1139:1171  bool isTopLevel = !_initializing */\n      swap1\n      pop\n        /* \"contracts/utils/Init.sol\":1186:1196  isTopLevel */\n      dup1\n        /* \"contracts/utils/Init.sol\":1182:1244  if (isTopLevel) { _initializing = true; _initialized = true; } */\n      iszero\n      tag_271\n      jumpi\n        /* \"contracts/utils/Init.sol\":1216:1220  true */\n      0x01\n        /* \"contracts/utils/Init.sol\":1200:1213  _initializing */\n      0x00\n      0x01\n        /* \"contracts/utils/Init.sol\":1200:1220  _initializing = true */\n      0x0100\n      exp\n      dup2\n      sload\n      dup2\n      0xff\n      mul\n      not\n      and\n      swap1\n      dup4\n      iszero\n      iszero\n      mul\n      or\n      swap1\n      sstore\n      pop\n        /* \"contracts/utils/Init.sol\":1237:1241  true */\n      0x01\n        /* \"contracts/utils/Init.sol\":1222:1234  _initialized */\n      0x00\n      0x00\n        /* \"contracts/utils/Init.sol\":1222:1241  _initialized = true */\n      0x0100\n      exp\n      dup2\n      sload\n      dup2\n      0xff\n      mul\n      not\n      and\n      swap1\n      dup4\n      iszero\n      iszero\n      mul\n      or\n      swap1\n      sstore\n      pop\n        /* \"contracts/utils/Init.sol\":1182:1244  if (isTopLevel) { _initializing = true; _initialized = true; } */\n    tag_271:\n        /* \"contracts/protocol/Vault.sol\":871:893  __Ownable_init(owner_) */\n      tag_273\n        /* \"contracts/protocol/Vault.sol\":886:892  owner_ */\n      dup12\n        /* \"contracts/protocol/Vault.sol\":871:885  __Ownable_init */\n      tag_274\n        /* \"contracts/protocol/Vault.sol\":871:893  __Ownable_init(owner_) */\n      jump\t// in\n    tag_273:\n        /* \"contracts/protocol/Vault.sol\":903:951  __ERC4626_init(asset_, shareName_, shareSymbol_) */\n      tag_275\n        /* \"contracts/protocol/Vault.sol\":918:924  asset_ */\n      dup11\n        /* \"contracts/protocol/Vault.sol\":926:936  shareName_ */\n      dup9\n      dup9\n        /* \"contracts/protocol/Vault.sol\":903:951  __ERC4626_init(asset_, shareName_, shareSymbol_) */\n      dup1\n      dup1\n      0x1f\n      add\n      0x20\n      dup1\n      swap2\n      div\n      mul\n      0x20\n      add\n      mload(0x40)\n      swap1\n      dup2\n      add\n      0x40\n      mstore\n      dup1\n      swap4\n      swap3\n      swap2\n      swap1\n      dup2\n      dup2\n      mstore\n      0x20\n      add\n      dup4\n      dup4\n      dup1\n      dup3\n      dup5\n      calldatacopy\n      0x00\n      dup2\n      dup5\n      add\n      mstore\n      not(0x1f)\n      0x1f\n      dup3\n      add\n      and\n      swap1\n      pop\n      dup1\n      dup4\n      add\n      swap3\n      pop\n      pop\n      pop\n      pop\n      pop\n      pop\n      pop\n        /* \"contracts/protocol/Vault.sol\":938:950  shareSymbol_ */\n      dup8\n      dup8\n        /* \"contracts/protocol/Vault.sol\":903:951  __ERC4626_init(asset_, shareName_, shareSymbol_) */\n      dup1\n      dup1\n      0x1f\n      add\n      0x20\n      dup1\n      swap2\n      div\n      mul\n      0x20\n      add\n      mload(0x40)\n      swap1\n      dup2\n      add\n      0x40\n      mstore\n      dup1\n      swap4\n      swap3\n      swap2\n      swap1\n      dup2\n      dup2\n      mstore\n      0x20\n      add\n      dup4\n      dup4\n      dup1\n      dup3\n      dup5\n      calldatacopy\n      0x00\n      dup2\n      dup5\n      add\n      mstore\n      not(0x1f)\n      0x1f\n      dup3\n      add\n      and\n      swap1\n      pop\n      dup1\n      dup4\n      add\n      swap3\n      pop\n      pop\n      pop\n      pop\n      pop\n      pop\n      pop\n        /* \"contracts/protocol/Vault.sol\":903:917  __ERC4626_init */\n      tag_276\n        /* \"contracts/protocol/Vault.sol\":903:951  __ERC4626_init(asset_, shareName_, shareSymbol_) */\n      jump\t// in\n    tag_275:\n        /* \"contracts/protocol/Vault.sol\":969:975  title_ */\n      dup9\n      dup9\n        /* \"contracts/protocol/Vault.sol\":961:966  title */\n      0x08\n        /* \"contracts/protocol/Vault.sol\":961:975  title = title_ */\n      swap2\n      dup3\n      tag_277\n      swap3\n      swap2\n      swap1\n      tag_278\n      jump\t// in\n    tag_277:\n      pop\n        /* \"contracts/protocol/Vault.sol\":991:995  apy_ */\n      dup3\n        /* \"contracts/protocol/Vault.sol\":985:988  apy */\n      0x09\n        /* \"contracts/protocol/Vault.sol\":985:995  apy = apy_ */\n      dup2\n      swap1\n      sstore\n      pop\n        /* \"contracts/protocol/Vault.sol\":1018:1029  minDeposit_ */\n      dup2\n        /* \"contracts/protocol/Vault.sol\":1005:1015  minDeposit */\n      0x0a\n        /* \"contracts/protocol/Vault.sol\":1005:1029  minDeposit = minDeposit_ */\n      dup2\n      swap1\n      sstore\n      pop\n        /* \"contracts/utils/Init.sol\":1270:1280  isTopLevel */\n      dup1\n        /* \"contracts/utils/Init.sol\":1266:1303  if (isTopLevel) _initializing = false */\n      iszero\n      tag_279\n      jumpi\n        /* \"contracts/utils/Init.sol\":1298:1303  false */\n      0x00\n        /* \"contracts/utils/Init.sol\":1282:1295  _initializing */\n      0x00\n      0x01\n        /* \"contracts/utils/Init.sol\":1282:1303  _initializing = false */\n      0x0100\n      exp\n      dup2\n      sload\n      dup2\n      0xff\n      mul\n      not\n      and\n      swap1\n      dup4\n      iszero\n      iszero\n      mul\n      or\n      swap1\n      sstore\n      pop\n        /* \"contracts/utils/Init.sol\":1266:1303  if (isTopLevel) _initializing = false */\n    tag_279:\n        /* \"contracts/utils/Init.sol\":1057:1310  {... */\n      pop\n        /* \"contracts/protocol/Vault.sol\":609:1036  function initialize(... */\n      pop\n      pop\n      pop\n      pop\n      pop\n      pop\n      pop\n      pop\n      pop\n      pop\n      jump\t// out\n        /* \"contracts/protocol/Vault.sol\":501:526  uint256 public minDeposit */\n    tag_99:\n      sload(0x0a)\n      dup2\n      jump\t// out\n        /* \"contracts/protocol/Vault.sol\":452:471  string public title */\n    tag_103:\n      0x08\n      dup1\n      sload\n      tag_280\n      swap1\n      tag_220\n      jump\t// in\n    tag_280:\n      dup1\n      0x1f\n      add\n      0x20\n      dup1\n      swap2\n      div\n      mul\n      0x20\n      add\n      mload(0x40)\n      swap1\n      dup2\n      add\n      0x40\n      mstore\n      dup1\n      swap3\n      swap2\n      swap1\n      dup2\n      dup2\n      mstore\n      0x20\n      add\n      dup3\n      dup1\n      sload\n      tag_281\n      swap1\n      tag_220\n      jump\t// in\n    tag_281:\n      dup1\n      iszero\n      tag_282\n      jumpi\n      dup1\n      0x1f\n      lt\n      tag_283\n      jumpi\n      0x0100\n      dup1\n      dup4\n      sload\n      div\n      mul\n      dup4\n      mstore\n      swap2\n      0x20\n      add\n      swap2\n      jump(tag_282)\n    tag_283:\n      dup3\n      add\n      swap2\n      swap1\n      0x00\n      mstore\n      keccak256(0x00, 0x20)\n      swap1\n    tag_284:\n      dup2\n      sload\n      dup2\n      mstore\n      swap1\n      0x01\n      add\n      swap1\n      0x20\n      add\n      dup1\n      dup4\n      gt\n      tag_284\n      jumpi\n      dup3\n      swap1\n      sub\n      0x1f\n      and\n      dup3\n      add\n      swap2\n    tag_282:\n      pop\n      pop\n      pop\n      pop\n      pop\n      dup2\n      jump\t// out\n        /* \"contracts/proxy/UUPSUpgradeable.sol\":2028:2240  function upgradeToAndCall(address newImplementation, bytes calldata data) external payable onlyProxy {... */\n    tag_108:\n        /* \"contracts/proxy/UUPSUpgradeable.sol\":1200:1206  __self */\n      immutable(\"0x24f23eb2b7ec20f09b3b2a21f8addc5e0a93cdf731b4f8ae02783fb7a15edd99\")\n        /* \"contracts/proxy/UUPSUpgradeable.sol\":1183:1206  address(this) != __self */\n      0xffffffffffffffffffffffffffffffffffffffff\n      and\n        /* \"contracts/proxy/UUPSUpgradeable.sol\":1191:1195  this */\n      address\n        /* \"contracts/proxy/UUPSUpgradeable.sol\":1183:1206  address(this) != __self */\n      0xffffffffffffffffffffffffffffffffffffffff\n      and\n      sub\n        /* \"contracts/proxy/UUPSUpgradeable.sol\":1175:1227  require(address(this) != __self, \"NOT_DELEGATECALL\") */\n      tag_286\n      jumpi\n      mload(0x40)\n      0x08c379a000000000000000000000000000000000000000000000000000000000\n      dup2\n      mstore\n      0x04\n      add\n      tag_287\n      swap1\n      tag_254\n      jump\t// in\n    tag_287:\n      mload(0x40)\n      dup1\n      swap2\n      sub\n      swap1\n      revert\n    tag_286:\n        /* \"contracts/proxy/UUPSUpgradeable.sol\":1269:1275  __self */\n      immutable(\"0x24f23eb2b7ec20f09b3b2a21f8addc5e0a93cdf731b4f8ae02783fb7a15edd99\")\n        /* \"contracts/proxy/UUPSUpgradeable.sol\":1245:1275  _getImplementation() == __self */\n      0xffffffffffffffffffffffffffffffffffffffff\n      and\n        /* \"contracts/proxy/UUPSUpgradeable.sol\":1245:1265  _getImplementation() */\n      tag_288\n        /* \"contracts/proxy/UUPSUpgradeable.sol\":1245:1263  _getImplementation */\n      tag_256\n        /* \"contracts/proxy/UUPSUpgradeable.sol\":1245:1265  _getImplementation() */\n      jump\t// in\n    tag_288:\n        /* \"contracts/proxy/UUPSUpgradeable.sol\":1245:1275  _getImplementation() == __self */\n      0xffffffffffffffffffffffffffffffffffffffff\n      and\n      eq\n        /* \"contracts/proxy/UUPSUpgradeable.sol\":1237:1294  require(_getImplementation() == __self, \"INACTIVE_PROXY\") */\n      tag_289\n      jumpi\n      mload(0x40)\n      0x08c379a000000000000000000000000000000000000000000000000000000000\n      dup2\n      mstore\n      0x04\n      add\n      tag_290\n      swap1\n      tag_259\n      jump\t// in\n    tag_290:\n      mload(0x40)\n      dup1\n      swap2\n      sub\n      swap1\n      revert\n    tag_289:\n        /* \"contracts/proxy/UUPSUpgradeable.sol\":2139:2175  _authorizeUpgrade(newImplementation) */\n      tag_292\n        /* \"contracts/proxy/UUPSUpgradeable.sol\":2157:2174  newImplementation */\n      dup4\n        /* \"contracts/proxy/UUPSUpgradeable.sol\":2139:2156  _authorizeUpgrade */\n      tag_262\n        /* \"contracts/proxy/UUPSUpgradeable.sol\":2139:2175  _authorizeUpgrade(newImplementation) */\n      jump\t// in\n    tag_292:\n        /* \"contracts/proxy/UUPSUpgradeable.sol\":2185:2233  _upgradeToAndCall(newImplementation, data, true) */\n      tag_293\n        /* \"contracts/proxy/UUPSUpgradeable.sol\":2203:2220  newImplementation */\n      dup4\n        /* \"contracts/proxy/UUPSUpgradeable.sol\":2222:2226  data */\n      dup4\n      dup4\n        /* \"contracts/proxy/UUPSUpgradeable.sol\":2185:2233  _upgradeToAndCall(newImplementation, data, true) */\n      dup1\n      dup1\n      0x1f\n      add\n      0x20\n      dup1\n      swap2\n      div\n      mul\n      0x20\n      add\n      mload(0x40)\n      swap1\n      dup2\n      add\n      0x40\n      mstore\n      dup1\n      swap4\n      swap3\n      swap2\n      swap1\n      dup2\n      dup2\n      mstore\n      0x20\n      add\n      dup4\n      dup4\n      dup1\n      dup3\n      dup5\n      calldatacopy\n      0x00\n      dup2\n      dup5\n      add\n      mstore\n      not(0x1f)\n      0x1f\n      dup3\n      add\n      and\n      swap1\n      pop\n      dup1\n      dup4\n      add\n      swap3\n      pop\n      pop\n      pop\n      pop\n      pop\n      pop\n      pop\n        /* \"contracts/proxy/UUPSUpgradeable.sol\":2228:2232  true */\n      0x01\n        /* \"contracts/proxy/UUPSUpgradeable.sol\":2185:2202  _upgradeToAndCall */\n      tag_264\n        /* \"contracts/proxy/UUPSUpgradeable.sol\":2185:2233  _upgradeToAndCall(newImplementation, data, true) */\n      jump\t// in\n    tag_293:\n        /* \"contracts/proxy/UUPSUpgradeable.sol\":2028:2240  function upgradeToAndCall(address newImplementation, bytes calldata data) external payable onlyProxy {... */\n      pop\n      pop\n      pop\n      jump\t// out\n        /* \"contracts/proxy/UUPSUpgradeable.sol\":1577:1690  function proxiableUUID() external view notDelegated returns (bytes32) {... */\n    tag_111:\n        /* \"contracts/proxy/UUPSUpgradeable.sol\":1638:1645  bytes32 */\n      0x00\n        /* \"contracts/proxy/UUPSUpgradeable.sol\":1471:1477  __self */\n      immutable(\"0x24f23eb2b7ec20f09b3b2a21f8addc5e0a93cdf731b4f8ae02783fb7a15edd99\")\n        /* \"contracts/proxy/UUPSUpgradeable.sol\":1454:1477  address(this) == __self */\n      0xffffffffffffffffffffffffffffffffffffffff\n      and\n        /* \"contracts/proxy/UUPSUpgradeable.sol\":1462:1466  this */\n      address\n        /* \"contracts/proxy/UUPSUpgradeable.sol\":1454:1477  address(this) == __self */\n      0xffffffffffffffffffffffffffffffffffffffff\n      and\n      eq\n        /* \"contracts/proxy/UUPSUpgradeable.sol\":1446:1501  require(address(this) == __self, \"ONLY_IMPLEMENTATION\") */\n      tag_295\n      jumpi\n      mload(0x40)\n      0x08c379a000000000000000000000000000000000000000000000000000000000\n      dup2\n      mstore\n      0x04\n      add\n      tag_296\n      swap1\n      tag_297\n      jump\t// in\n    tag_296:\n      mload(0x40)\n      dup1\n      swap2\n      sub\n      swap1\n      revert\n    tag_295:\n        /* \"contracts/proxy/UUPSUpgradeable.sol\":793:859  0x360894A13BA1A3210667C828492DB98DCA3E2076CC3735A920A3CA505D382BBC */\n      0x360894a13ba1a3210667c828492db98dca3e2076cc3735a920a3ca505d382bbc\n        /* \"contracts/proxy/UUPSUpgradeable.sol\":1664:1683  IMPLEMENTATION_SLOT */\n      0x00\n      shl\n        /* \"contracts/proxy/UUPSUpgradeable.sol\":1657:1683  return IMPLEMENTATION_SLOT */\n      swap1\n      pop\n        /* \"contracts/proxy/UUPSUpgradeable.sol\":1577:1690  function proxiableUUID() external view notDelegated returns (bytes32) {... */\n      swap1\n      jump\t// out\n        /* \"contracts/protocol/Vault.sol\":2003:2307  function allocateToMarket(address market_, uint256 amount) external onlyOwner {... */\n    tag_117:\n        /* \"contracts/acess/Ownable.sol\":213:218  owner */\n      0x00\n      0x02\n      swap1\n      sload\n      swap1\n      0x0100\n      exp\n      swap1\n      div\n      0xffffffffffffffffffffffffffffffffffffffff\n      and\n        /* \"contracts/acess/Ownable.sol\":199:218  msg.sender == owner */\n      0xffffffffffffffffffffffffffffffffffffffff\n      and\n        /* \"contracts/acess/Ownable.sol\":199:209  msg.sender */\n      caller\n        /* \"contracts/acess/Ownable.sol\":199:218  msg.sender == owner */\n      0xffffffffffffffffffffffffffffffffffffffff\n      and\n      eq\n        /* \"contracts/acess/Ownable.sol\":191:219  require(msg.sender == owner) */\n      tag_300\n      jumpi\n      revert(0x00, 0x00)\n    tag_300:\n        /* \"contracts/protocol/Vault.sol\":2099:2107  isMarket */\n      0x0c\n        /* \"contracts/protocol/Vault.sol\":2099:2116  isMarket[market_] */\n      0x00\n        /* \"contracts/protocol/Vault.sol\":2108:2115  market_ */\n      dup4\n        /* \"contracts/protocol/Vault.sol\":2099:2116  isMarket[market_] */\n      0xffffffffffffffffffffffffffffffffffffffff\n      and\n      0xffffffffffffffffffffffffffffffffffffffff\n      and\n      dup2\n      mstore\n      0x20\n      add\n      swap1\n      dup2\n      mstore\n      0x20\n      add\n      0x00\n      keccak256\n      0x00\n      swap1\n      sload\n      swap1\n      0x0100\n      exp\n      swap1\n      div\n      0xff\n      and\n        /* \"contracts/protocol/Vault.sol\":2091:2135  require(isMarket[market_], \"UNKNOWN_MARKET\") */\n      tag_302\n      jumpi\n      mload(0x40)\n      0x08c379a000000000000000000000000000000000000000000000000000000000\n      dup2\n      mstore\n      0x04\n      add\n      tag_303\n      swap1\n      tag_304\n      jump\t// in\n    tag_303:\n      mload(0x40)\n      dup1\n      swap2\n      sub\n      swap1\n      revert\n    tag_302:\n        /* \"contracts/protocol/Vault.sol\":2163:2178  idleLiquidity() */\n      tag_305\n        /* \"contracts/protocol/Vault.sol\":2163:2176  idleLiquidity */\n      tag_144\n        /* \"contracts/protocol/Vault.sol\":2163:2178  idleLiquidity() */\n      jump\t// in\n    tag_305:\n        /* \"contracts/protocol/Vault.sol\":2153:2159  amount */\n      dup2\n        /* \"contracts/protocol/Vault.sol\":2153:2178  amount <= idleLiquidity() */\n      gt\n      iszero\n        /* \"contracts/protocol/Vault.sol\":2145:2200  require(amount <= idleLiquidity(), \"NO_FREE_LIQUIDITY\") */\n      tag_306\n      jumpi\n      mload(0x40)\n      0x08c379a000000000000000000000000000000000000000000000000000000000\n      dup2\n      mstore\n      0x04\n      add\n      tag_307\n      swap1\n      tag_308\n      jump\t// in\n    tag_307:\n      mload(0x40)\n      dup1\n      swap2\n      sub\n      swap1\n      revert\n    tag_306:\n        /* \"contracts/protocol/Vault.sol\":2217:2224  asset() */\n      tag_309\n        /* \"contracts/protocol/Vault.sol\":2217:2222  asset */\n      tag_85\n        /* \"contracts/protocol/Vault.sol\":2217:2224  asset() */\n      jump\t// in\n    tag_309:\n        /* \"contracts/protocol/Vault.sol\":2210:2234  IERC20(asset()).transfer */\n      0xffffffffffffffffffffffffffffffffffffffff\n      and\n      0xa9059cbb\n        /* \"contracts/protocol/Vault.sol\":2235:2242  market_ */\n      dup4\n        /* \"contracts/protocol/Vault.sol\":2244:2250  amount */\n      dup4\n        /* \"contracts/protocol/Vault.sol\":2210:2251  IERC20(asset()).transfer(market_, amount) */\n      mload(0x40)\n      dup4\n      0xffffffff\n      and\n      0xe0\n      shl\n      dup2\n      mstore\n      0x04\n      add\n      tag_310\n      swap3\n      swap2\n      swap1\n      tag_311\n      jump\t// in\n    tag_310:\n      0x20\n      mload(0x40)\n      dup1\n      dup4\n      sub\n      dup2\n      0x00\n      dup8\n      gas\n      call\n      iszero\n      dup1\n      iszero\n      tag_313\n      jumpi\n      returndatacopy(0x00, 0x00, returndatasize)\n      revert(0x00, returndatasize)\n    tag_313:\n      pop\n      pop\n      pop\n      pop\n      mload(0x40)\n      returndatasize\n      not(0x1f)\n      0x1f\n      dup3\n      add\n      and\n      dup3\n      add\n      dup1\n      0x40\n      mstore\n      pop\n      dup2\n      add\n      swap1\n      tag_314\n      swap2\n      swap1\n      tag_315\n      jump\t// in\n    tag_314:\n      pop\n        /* \"contracts/protocol/Vault.sol\":2269:2276  market_ */\n      dup2\n        /* \"contracts/protocol/Vault.sol\":2261:2292  IMarket(market_).onVaultDeposit */\n      0xffffffffffffffffffffffffffffffffffffffff\n      and\n      0x4b92917a\n        /* \"contracts/protocol/Vault.sol\":2293:2299  amount */\n      dup3\n        /* \"contracts/protocol/Vault.sol\":2261:2300  IMarket(market_).onVaultDeposit(amount) */\n      mload(0x40)\n      dup3\n      0xffffffff\n      and\n      0xe0\n      shl\n      dup2\n      mstore\n      0x04\n      add\n      tag_316\n      swap2\n      swap1\n      tag_45\n      jump\t// in\n    tag_316:\n      0x00\n      mload(0x40)\n      dup1\n      dup4\n      sub\n      dup2\n      0x00\n      dup8\n      dup1\n      extcodesize\n      iszero\n      dup1\n      iszero\n      tag_317\n      jumpi\n      revert(0x00, 0x00)\n    tag_317:\n      pop\n      gas\n      call\n      iszero\n      dup1\n      iszero\n      tag_319\n      jumpi\n      returndatacopy(0x00, 0x00, returndatasize)\n      revert(0x00, returndatasize)\n    tag_319:\n      pop\n      pop\n      pop\n      pop\n        /* \"contracts/protocol/Vault.sol\":2003:2307  function allocateToMarket(address market_, uint256 amount) external onlyOwner {... */\n      pop\n      pop\n      jump\t// out\n        /* \"contracts/protocol/Vault.sol\":2313:2506  function deallocateFromMarket(address market_, uint256 amount) external onlyOwner {... */\n    tag_121:\n        /* \"contracts/acess/Ownable.sol\":213:218  owner */\n      0x00\n      0x02\n      swap1\n      sload\n      swap1\n      0x0100\n      exp\n      swap1\n      div\n      0xffffffffffffffffffffffffffffffffffffffff\n      and\n        /* \"contracts/acess/Ownable.sol\":199:218  msg.sender == owner */\n      0xffffffffffffffffffffffffffffffffffffffff\n      and\n        /* \"contracts/acess/Ownable.sol\":199:209  msg.sender */\n      caller\n        /* \"contracts/acess/Ownable.sol\":199:218  msg.sender == owner */\n      0xffffffffffffffffffffffffffffffffffffffff\n      and\n      eq\n        /* \"contracts/acess/Ownable.sol\":191:219  require(msg.sender == owner) */\n      tag_321\n      jumpi\n      revert(0x00, 0x00)\n    tag_321:\n        /* \"contracts/protocol/Vault.sol\":2413:2421  isMarket */\n      0x0c\n        /* \"contracts/protocol/Vault.sol\":2413:2430  isMarket[market_] */\n      0x00\n        /* \"contracts/protocol/Vault.sol\":2422:2429  market_ */\n      dup4\n        /* \"contracts/protocol/Vault.sol\":2413:2430  isMarket[market_] */\n      0xffffffffffffffffffffffffffffffffffffffff\n      and\n      0xffffffffffffffffffffffffffffffffffffffff\n      and\n      dup2\n      mstore\n      0x20\n      add\n      swap1\n      dup2\n      mstore\n      0x20\n      add\n      0x00\n      keccak256\n      0x00\n      swap1\n      sload\n      swap1\n      0x0100\n      exp\n      swap1\n      div\n      0xff\n      and\n        /* \"contracts/protocol/Vault.sol\":2405:2449  require(isMarket[market_], \"UNKNOWN_MARKET\") */\n      tag_323\n      jumpi\n      mload(0x40)\n      0x08c379a000000000000000000000000000000000000000000000000000000000\n      dup2\n      mstore\n      0x04\n      add\n      tag_324\n      swap1\n      tag_304\n      jump\t// in\n    tag_324:\n      mload(0x40)\n      dup1\n      swap2\n      sub\n      swap1\n      revert\n    tag_323:\n        /* \"contracts/protocol/Vault.sol\":2467:2474  market_ */\n      dup2\n        /* \"contracts/protocol/Vault.sol\":2459:2491  IMarket(market_).onVaultWithdraw */\n      0xffffffffffffffffffffffffffffffffffffffff\n      and\n      0x3e3722b6\n        /* \"contracts/protocol/Vault.sol\":2492:2498  amount */\n      dup3\n        /* \"contracts/protocol/Vault.sol\":2459:2499  IMarket(market_).onVaultWithdraw(amount) */\n      mload(0x40)\n      dup3\n      0xffffffff\n      and\n      0xe0\n      shl\n      dup2\n      mstore\n      0x04\n      add\n      tag_325\n      swap2\n      swap1\n      tag_45\n      jump\t// in\n    tag_325:\n      0x00\n      mload(0x40)\n      dup1\n      dup4\n      sub\n      dup2\n      0x00\n      dup8\n      dup1\n      extcodesize\n      iszero\n      dup1\n      iszero\n      tag_326\n      jumpi\n      revert(0x00, 0x00)\n    tag_326:\n      pop\n      gas\n      call\n      iszero\n      dup1\n      iszero\n      tag_328\n      jumpi\n      returndatacopy(0x00, 0x00, returndatasize)\n      revert(0x00, returndatasize)\n    tag_328:\n      pop\n      pop\n      pop\n      pop\n        /* \"contracts/protocol/Vault.sol\":2313:2506  function deallocateFromMarket(address market_, uint256 amount) external onlyOwner {... */\n      pop\n      pop\n      jump\t// out\n        /* \"contracts/protocol/Vault.sol\":1536:1748  function deposit(uint256 assets_, address receiver) public override returns (uint256 shares) {... */\n    tag_126:\n        /* \"contracts/protocol/Vault.sol\":1613:1627  uint256 shares */\n      0x00\n        /* \"contracts/protocol/Vault.sol\":1658:1668  minDeposit */\n      sload(0x0a)\n        /* \"contracts/protocol/Vault.sol\":1647:1654  assets_ */\n      dup4\n        /* \"contracts/protocol/Vault.sol\":1647:1668  assets_ >= minDeposit */\n      lt\n      iszero\n        /* \"contracts/protocol/Vault.sol\":1639:1690  require(assets_ >= minDeposit, \"DEPOSIT_TOO_SMALL\") */\n      tag_330\n      jumpi\n      mload(0x40)\n      0x08c379a000000000000000000000000000000000000000000000000000000000\n      dup2\n      mstore\n      0x04\n      add\n      tag_331\n      swap1\n      tag_332\n      jump\t// in\n    tag_331:\n      mload(0x40)\n      dup1\n      swap2\n      sub\n      swap1\n      revert\n    tag_330:\n        /* \"contracts/protocol/Vault.sol\":1709:1741  super.deposit(assets_, receiver) */\n      tag_333\n        /* \"contracts/protocol/Vault.sol\":1723:1730  assets_ */\n      dup4\n        /* \"contracts/protocol/Vault.sol\":1732:1740  receiver */\n      dup4\n        /* \"contracts/protocol/Vault.sol\":1709:1722  super.deposit */\n      tag_334\n        /* \"contracts/protocol/Vault.sol\":1709:1741  super.deposit(assets_, receiver) */\n      jump\t// in\n    tag_333:\n        /* \"contracts/protocol/Vault.sol\":1700:1741  shares = super.deposit(assets_, receiver) */\n      swap1\n      pop\n        /* \"contracts/protocol/Vault.sol\":1536:1748  function deposit(uint256 assets_, address receiver) public override returns (uint256 shares) {... */\n      swap3\n      swap2\n      pop\n      pop\n      jump\t// out\n        /* \"contracts/protocol/Vault.sol\":562:602  mapping(address => bool) public isMarket */\n    tag_131:\n      mstore(0x20, 0x0c)\n      dup1\n      0x00\n      mstore\n      keccak256(0x00, 0x40)\n      0x00\n      swap2\n      pop\n      sload\n      swap1\n      0x0100\n      exp\n      swap1\n      div\n      0xff\n      and\n      dup2\n      jump\t// out\n        /* \"contracts/token/ERC20Upgradeable.sol\":1877:1987  function balanceOf(address account) external view returns (uint256) {... */\n    tag_136:\n        /* \"contracts/token/ERC20Upgradeable.sol\":1936:1943  uint256 */\n      0x00\n        /* \"contracts/token/ERC20Upgradeable.sol\":1962:1971  _balances */\n      0x05\n        /* \"contracts/token/ERC20Upgradeable.sol\":1962:1980  _balances[account] */\n      0x00\n        /* \"contracts/token/ERC20Upgradeable.sol\":1972:1979  account */\n      dup4\n        /* \"contracts/token/ERC20Upgradeable.sol\":1962:1980  _balances[account] */\n      0xffffffffffffffffffffffffffffffffffffffff\n      and\n      0xffffffffffffffffffffffffffffffffffffffff\n      and\n      dup2\n      mstore\n      0x20\n      add\n      swap1\n      dup2\n      mstore\n      0x20\n      add\n      0x00\n      keccak256\n      sload\n        /* \"contracts/token/ERC20Upgradeable.sol\":1955:1980  return _balances[account] */\n      swap1\n      pop\n        /* \"contracts/token/ERC20Upgradeable.sol\":1877:1987  function balanceOf(address account) external view returns (uint256) {... */\n      swap2\n      swap1\n      pop\n      jump\t// out\n        /* \"contracts/acess/Ownable.sol\":133:153  address public owner */\n    tag_140:\n      0x00\n      0x02\n      swap1\n      sload\n      swap1\n      0x0100\n      exp\n      swap1\n      div\n      0xffffffffffffffffffffffffffffffffffffffff\n      and\n      dup2\n      jump\t// out\n        /* \"contracts/protocol/Vault.sol\":1411:1530  function idleLiquidity() public view returns (uint256) {... */\n    tag_144:\n        /* \"contracts/protocol/Vault.sol\":1457:1464  uint256 */\n      0x00\n        /* \"contracts/protocol/Vault.sol\":1490:1497  asset() */\n      tag_337\n        /* \"contracts/protocol/Vault.sol\":1490:1495  asset */\n      tag_85\n        /* \"contracts/protocol/Vault.sol\":1490:1497  asset() */\n      jump\t// in\n    tag_337:\n        /* \"contracts/protocol/Vault.sol\":1483:1508  IERC20(asset()).balanceOf */\n      0xffffffffffffffffffffffffffffffffffffffff\n      and\n      0x70a08231\n        /* \"contracts/protocol/Vault.sol\":1517:1521  this */\n      address\n        /* \"contracts/protocol/Vault.sol\":1483:1523  IERC20(asset()).balanceOf(address(this)) */\n      mload(0x40)\n      dup3\n      0xffffffff\n      and\n      0xe0\n      shl\n      dup2\n      mstore\n      0x04\n      add\n      tag_338\n      swap2\n      swap1\n      tag_87\n      jump\t// in\n    tag_338:\n      0x20\n      mload(0x40)\n      dup1\n      dup4\n      sub\n      dup2\n      dup7\n      gas\n      staticcall\n      iszero\n      dup1\n      iszero\n      tag_340\n      jumpi\n      returndatacopy(0x00, 0x00, returndatasize)\n      revert(0x00, returndatasize)\n    tag_340:\n      pop\n      pop\n      pop\n      pop\n      mload(0x40)\n      returndatasize\n      not(0x1f)\n      0x1f\n      dup3\n      add\n      and\n      dup3\n      add\n      dup1\n      0x40\n      mstore\n      pop\n      dup2\n      add\n      swap1\n      tag_341\n      swap2\n      swap1\n      tag_201\n      jump\t// in\n    tag_341:\n        /* \"contracts/protocol/Vault.sol\":1476:1523  return IERC20(asset()).balanceOf(address(this)) */\n      swap1\n      pop\n        /* \"contracts/protocol/Vault.sol\":1411:1530  function idleLiquidity() public view returns (uint256) {... */\n      swap1\n      jump\t// out\n        /* \"contracts/protocol/Vault.sol\":2512:2748  function addMarket(address market_) external onlyOwner {... */\n    tag_149:\n        /* \"contracts/acess/Ownable.sol\":213:218  owner */\n      0x00\n      0x02\n      swap1\n      sload\n      swap1\n      0x0100\n      exp\n      swap1\n      div\n      0xffffffffffffffffffffffffffffffffffffffff\n      and\n        /* \"contracts/acess/Ownable.sol\":199:218  msg.sender == owner */\n      0xffffffffffffffffffffffffffffffffffffffff\n      and\n        /* \"contracts/acess/Ownable.sol\":199:209  msg.sender */\n      caller\n        /* \"contracts/acess/Ownable.sol\":199:218  msg.sender == owner */\n      0xffffffffffffffffffffffffffffffffffffffff\n      and\n      eq\n        /* \"contracts/acess/Ownable.sol\":191:219  require(msg.sender == owner) */\n      tag_343\n      jumpi\n      revert(0x00, 0x00)\n    tag_343:\n        /* \"contracts/protocol/Vault.sol\":2604:2605  0 */\n      0x00\n        /* \"contracts/protocol/Vault.sol\":2585:2606  market_ != address(0) */\n      0xffffffffffffffffffffffffffffffffffffffff\n      and\n        /* \"contracts/protocol/Vault.sol\":2585:2592  market_ */\n      dup2\n        /* \"contracts/protocol/Vault.sol\":2585:2606  market_ != address(0) */\n      0xffffffffffffffffffffffffffffffffffffffff\n      and\n      sub\n        /* \"contracts/protocol/Vault.sol\":2577:2622  require(market_ != address(0), \"ZERO_MARKET\") */\n      tag_345\n      jumpi\n      mload(0x40)\n      0x08c379a000000000000000000000000000000000000000000000000000000000\n      dup2\n      mstore\n      0x04\n      add\n      tag_346\n      swap1\n      tag_347\n      jump\t// in\n    tag_346:\n      mload(0x40)\n      dup1\n      swap2\n      sub\n      swap1\n      revert\n    tag_345:\n        /* \"contracts/protocol/Vault.sol\":2641:2649  isMarket */\n      0x0c\n        /* \"contracts/protocol/Vault.sol\":2641:2658  isMarket[market_] */\n      0x00\n        /* \"contracts/protocol/Vault.sol\":2650:2657  market_ */\n      dup3\n        /* \"contracts/protocol/Vault.sol\":2641:2658  isMarket[market_] */\n      0xffffffffffffffffffffffffffffffffffffffff\n      and\n      0xffffffffffffffffffffffffffffffffffffffff\n      and\n      dup2\n      mstore\n      0x20\n      add\n      swap1\n      dup2\n      mstore\n      0x20\n      add\n      0x00\n      keccak256\n      0x00\n      swap1\n      sload\n      swap1\n      0x0100\n      exp\n      swap1\n      div\n      0xff\n      and\n        /* \"contracts/protocol/Vault.sol\":2640:2658  !isMarket[market_] */\n      iszero\n        /* \"contracts/protocol/Vault.sol\":2632:2676  require(!isMarket[market_], \"MARKET_EXISTS\") */\n      tag_348\n      jumpi\n      mload(0x40)\n      0x08c379a000000000000000000000000000000000000000000000000000000000\n      dup2\n      mstore\n      0x04\n      add\n      tag_349\n      swap1\n      tag_350\n      jump\t// in\n    tag_349:\n      mload(0x40)\n      dup1\n      swap2\n      sub\n      swap1\n      revert\n    tag_348:\n        /* \"contracts/protocol/Vault.sol\":2706:2710  true */\n      0x01\n        /* \"contracts/protocol/Vault.sol\":2686:2694  isMarket */\n      0x0c\n        /* \"contracts/protocol/Vault.sol\":2686:2703  isMarket[market_] */\n      0x00\n        /* \"contracts/protocol/Vault.sol\":2695:2702  market_ */\n      dup4\n        /* \"contracts/protocol/Vault.sol\":2686:2703  isMarket[market_] */\n      0xffffffffffffffffffffffffffffffffffffffff\n      and\n      0xffffffffffffffffffffffffffffffffffffffff\n      and\n      dup2\n      mstore\n      0x20\n      add\n      swap1\n      dup2\n      mstore\n      0x20\n      add\n      0x00\n      keccak256\n      0x00\n        /* \"contracts/protocol/Vault.sol\":2686:2710  isMarket[market_] = true */\n      0x0100\n      exp\n      dup2\n      sload\n      dup2\n      0xff\n      mul\n      not\n      and\n      swap1\n      dup4\n      iszero\n      iszero\n      mul\n      or\n      swap1\n      sstore\n      pop\n        /* \"contracts/protocol/Vault.sol\":2720:2727  markets */\n      0x0b\n        /* \"contracts/protocol/Vault.sol\":2733:2740  market_ */\n      dup2\n        /* \"contracts/protocol/Vault.sol\":2720:2741  markets.push(market_) */\n      swap1\n      dup1\n      0x01\n      dup2\n      sload\n      add\n      dup1\n      dup3\n      sstore\n      dup1\n      swap2\n      pop\n      pop\n      0x01\n      swap1\n      sub\n      swap1\n      0x00\n      mstore\n      keccak256(0x00, 0x20)\n      add\n      0x00\n      swap1\n      swap2\n      swap1\n      swap2\n      swap1\n      swap2\n      0x0100\n      exp\n      dup2\n      sload\n      dup2\n      0xffffffffffffffffffffffffffffffffffffffff\n      mul\n      not\n      and\n      swap1\n      dup4\n      0xffffffffffffffffffffffffffffffffffffffff\n      and\n      mul\n      or\n      swap1\n      sstore\n      pop\n        /* \"contracts/protocol/Vault.sol\":2512:2748  function addMarket(address market_) external onlyOwner {... */\n      pop\n      jump\t// out\n        /* \"contracts/token/ERC4626Upgradeable.sol\":2595:2985  function mint(uint256 shares, address receiver) public virtual returns (uint256 assets_) {... */\n    tag_153:\n        /* \"contracts/token/ERC4626Upgradeable.sol\":2667:2682  uint256 assets_ */\n      0x00\n        /* \"contracts/token/ERC4626Upgradeable.sol\":2711:2712  0 */\n      0x00\n        /* \"contracts/token/ERC4626Upgradeable.sol\":2702:2708  shares */\n      dup4\n        /* \"contracts/token/ERC4626Upgradeable.sol\":2702:2712  shares > 0 */\n      gt\n        /* \"contracts/token/ERC4626Upgradeable.sol\":2694:2728  require(shares > 0, \"ZERO_SHARES\") */\n      tag_353\n      jumpi\n      mload(0x40)\n      0x08c379a000000000000000000000000000000000000000000000000000000000\n      dup2\n      mstore\n      0x04\n      add\n      tag_354\n      swap1\n      tag_355\n      jump\t// in\n    tag_354:\n      mload(0x40)\n      dup1\n      swap2\n      sub\n      swap1\n      revert\n    tag_353:\n        /* \"contracts/token/ERC4626Upgradeable.sol\":2749:2772  convertToAssets(shares) */\n      tag_356\n        /* \"contracts/token/ERC4626Upgradeable.sol\":2765:2771  shares */\n      dup4\n        /* \"contracts/token/ERC4626Upgradeable.sol\":2749:2764  convertToAssets */\n      tag_55\n        /* \"contracts/token/ERC4626Upgradeable.sol\":2749:2772  convertToAssets(shares) */\n      jump\t// in\n    tag_356:\n        /* \"contracts/token/ERC4626Upgradeable.sol\":2739:2772  assets_ = convertToAssets(shares) */\n      swap1\n      pop\n        /* \"contracts/token/ERC4626Upgradeable.sol\":2800:2801  0 */\n      0x00\n        /* \"contracts/token/ERC4626Upgradeable.sol\":2790:2797  assets_ */\n      dup2\n        /* \"contracts/token/ERC4626Upgradeable.sol\":2790:2801  assets_ > 0 */\n      gt\n        /* \"contracts/token/ERC4626Upgradeable.sol\":2782:2817  require(assets_ > 0, \"ZERO_ASSETS\") */\n      tag_357\n      jumpi\n      mload(0x40)\n      0x08c379a000000000000000000000000000000000000000000000000000000000\n      dup2\n      mstore\n      0x04\n      add\n      tag_358\n      swap1\n      tag_359\n      jump\t// in\n    tag_358:\n      mload(0x40)\n      dup1\n      swap2\n      sub\n      swap1\n      revert\n    tag_357:\n        /* \"contracts/token/ERC4626Upgradeable.sol\":2828:2834  _asset */\n      0x07\n      0x00\n      swap1\n      sload\n      swap1\n      0x0100\n      exp\n      swap1\n      div\n      0xffffffffffffffffffffffffffffffffffffffff\n      and\n        /* \"contracts/token/ERC4626Upgradeable.sol\":2828:2847  _asset.transferFrom */\n      0xffffffffffffffffffffffffffffffffffffffff\n      and\n      0x23b872dd\n        /* \"contracts/token/ERC4626Upgradeable.sol\":2848:2858  msg.sender */\n      caller\n        /* \"contracts/token/ERC4626Upgradeable.sol\":2868:2872  this */\n      address\n        /* \"contracts/token/ERC4626Upgradeable.sol\":2875:2882  assets_ */\n      dup5\n        /* \"contracts/token/ERC4626Upgradeable.sol\":2828:2883  _asset.transferFrom(msg.sender, address(this), assets_) */\n      mload(0x40)\n      dup5\n      0xffffffff\n      and\n      0xe0\n      shl\n      dup2\n      mstore\n      0x04\n      add\n      tag_360\n      swap4\n      swap3\n      swap2\n      swap1\n      tag_361\n      jump\t// in\n    tag_360:\n      0x20\n      mload(0x40)\n      dup1\n      dup4\n      sub\n      dup2\n      0x00\n      dup8\n      gas\n      call\n      iszero\n      dup1\n      iszero\n      tag_363\n      jumpi\n      returndatacopy(0x00, 0x00, returndatasize)\n      revert(0x00, returndatasize)\n    tag_363:\n      pop\n      pop\n      pop\n      pop\n      mload(0x40)\n      returndatasize\n      not(0x1f)\n      0x1f\n      dup3\n      add\n      and\n      dup3\n      add\n      dup1\n      0x40\n      mstore\n      pop\n      dup2\n      add\n      swap1\n      tag_364\n      swap2\n      swap1\n      tag_315\n      jump\t// in\n    tag_364:\n      pop\n        /* \"contracts/token/ERC4626Upgradeable.sol\":2893:2916  _mint(receiver, shares) */\n      tag_365\n        /* \"contracts/token/ERC4626Upgradeable.sol\":2899:2907  receiver */\n      dup3\n        /* \"contracts/token/ERC4626Upgradeable.sol\":2909:2915  shares */\n      dup5\n        /* \"contracts/token/ERC4626Upgradeable.sol\":2893:2898  _mint */\n      tag_366\n        /* \"contracts/token/ERC4626Upgradeable.sol\":2893:2916  _mint(receiver, shares) */\n      jump\t// in\n    tag_365:\n        /* \"contracts/token/ERC4626Upgradeable.sol\":2952:2960  receiver */\n      dup2\n        /* \"contracts/token/ERC4626Upgradeable.sol\":2932:2978  Deposit(msg.sender, receiver, assets_, shares) */\n      0xffffffffffffffffffffffffffffffffffffffff\n      and\n        /* \"contracts/token/ERC4626Upgradeable.sol\":2940:2950  msg.sender */\n      caller\n        /* \"contracts/token/ERC4626Upgradeable.sol\":2932:2978  Deposit(msg.sender, receiver, assets_, shares) */\n      0xffffffffffffffffffffffffffffffffffffffff\n      and\n      0xdcbc1c05240f31ff3ad067ef1ee35ce4997762752e3a095284754544f4c709d7\n        /* \"contracts/token/ERC4626Upgradeable.sol\":2962:2969  assets_ */\n      dup4\n        /* \"contracts/token/ERC4626Upgradeable.sol\":2971:2977  shares */\n      dup7\n        /* \"contracts/token/ERC4626Upgradeable.sol\":2932:2978  Deposit(msg.sender, receiver, assets_, shares) */\n      mload(0x40)\n      tag_367\n      swap3\n      swap2\n      swap1\n      tag_368\n      jump\t// in\n    tag_367:\n      mload(0x40)\n      dup1\n      swap2\n      sub\n      swap1\n      log3\n        /* \"contracts/token/ERC4626Upgradeable.sol\":2595:2985  function mint(uint256 shares, address receiver) public virtual returns (uint256 assets_) {... */\n      swap3\n      swap2\n      pop\n      pop\n      jump\t// out\n        /* \"contracts/token/ERC20Upgradeable.sol\":1599:1686  function symbol() external view returns (string memory) {... */\n    tag_157:\n        /* \"contracts/token/ERC20Upgradeable.sol\":1640:1653  string memory */\n      0x60\n        /* \"contracts/token/ERC20Upgradeable.sol\":1672:1679  _symbol */\n      0x02\n        /* \"contracts/token/ERC20Upgradeable.sol\":1665:1679  return _symbol */\n      dup1\n      sload\n      tag_370\n      swap1\n      tag_220\n      jump\t// in\n    tag_370:\n      dup1\n      0x1f\n      add\n      0x20\n      dup1\n      swap2\n      div\n      mul\n      0x20\n      add\n      mload(0x40)\n      swap1\n      dup2\n      add\n      0x40\n      mstore\n      dup1\n      swap3\n      swap2\n      swap1\n      dup2\n      dup2\n      mstore\n      0x20\n      add\n      dup3\n      dup1\n      sload\n      tag_371\n      swap1\n      tag_220\n      jump\t// in\n    tag_371:\n      dup1\n      iszero\n      tag_372\n      jumpi\n      dup1\n      0x1f\n      lt\n      tag_373\n      jumpi\n      0x0100\n      dup1\n      dup4\n      sload\n      div\n      mul\n      dup4\n      mstore\n      swap2\n      0x20\n      add\n      swap2\n      jump(tag_372)\n    tag_373:\n      dup3\n      add\n      swap2\n      swap1\n      0x00\n      mstore\n      keccak256(0x00, 0x20)\n      swap1\n    tag_374:\n      dup2\n      sload\n      dup2\n      mstore\n      swap1\n      0x01\n      add\n      swap1\n      0x20\n      add\n      dup1\n      dup4\n      gt\n      tag_374\n      jumpi\n      dup3\n      swap1\n      sub\n      0x1f\n      and\n      dup3\n      add\n      swap2\n    tag_372:\n      pop\n      pop\n      pop\n      pop\n      pop\n      swap1\n      pop\n        /* \"contracts/token/ERC20Upgradeable.sol\":1599:1686  function symbol() external view returns (string memory) {... */\n      swap1\n      jump\t// out\n        /* \"contracts/token/ERC20Upgradeable.sol\":2139:2280  function transfer(address to, uint256 amount) external returns (bool) {... */\n    tag_162:\n        /* \"contracts/token/ERC20Upgradeable.sol\":2203:2207  bool */\n      0x00\n        /* \"contracts/token/ERC20Upgradeable.sol\":2219:2252  _transfer(msg.sender, to, amount) */\n      tag_376\n        /* \"contracts/token/ERC20Upgradeable.sol\":2229:2239  msg.sender */\n      caller\n        /* \"contracts/token/ERC20Upgradeable.sol\":2241:2243  to */\n      dup5\n        /* \"contracts/token/ERC20Upgradeable.sol\":2245:2251  amount */\n      dup5\n        /* \"contracts/token/ERC20Upgradeable.sol\":2219:2228  _transfer */\n      tag_249\n        /* \"contracts/token/ERC20Upgradeable.sol\":2219:2252  _transfer(msg.sender, to, amount) */\n      jump\t// in\n    tag_376:\n        /* \"contracts/token/ERC20Upgradeable.sol\":2269:2273  true */\n      0x01\n        /* \"contracts/token/ERC20Upgradeable.sol\":2262:2273  return true */\n      swap1\n      pop\n        /* \"contracts/token/ERC20Upgradeable.sol\":2139:2280  function transfer(address to, uint256 amount) external returns (bool) {... */\n      swap3\n      swap2\n      pop\n      pop\n      jump\t// out\n        /* \"contracts/protocol/Vault.sol\":532:556  address[] public markets */\n    tag_167:\n      0x0b\n      dup2\n      dup2\n      sload\n      dup2\n      lt\n      tag_377\n      jumpi\n      0x00\n      dup1\n      revert\n    tag_377:\n      swap1\n      0x00\n      mstore\n      keccak256(0x00, 0x20)\n      add\n      0x00\n      swap2\n      pop\n      sload\n      swap1\n      0x0100\n      exp\n      swap1\n      div\n      0xffffffffffffffffffffffffffffffffffffffff\n      and\n      dup2\n      jump\t// out\n        /* \"contracts/protocol/Vault.sol\":1754:1997  function withdraw(uint256 assets_, address receiver, address owner_) public override returns (uint256 shares) {... */\n    tag_173:\n        /* \"contracts/protocol/Vault.sol\":1848:1862  uint256 shares */\n      0x00\n        /* \"contracts/protocol/Vault.sol\":1893:1908  idleLiquidity() */\n      tag_380\n        /* \"contracts/protocol/Vault.sol\":1893:1906  idleLiquidity */\n      tag_144\n        /* \"contracts/protocol/Vault.sol\":1893:1908  idleLiquidity() */\n      jump\t// in\n    tag_380:\n        /* \"contracts/protocol/Vault.sol\":1882:1889  assets_ */\n      dup5\n        /* \"contracts/protocol/Vault.sol\":1882:1908  assets_ <= idleLiquidity() */\n      gt\n      iszero\n        /* \"contracts/protocol/Vault.sol\":1874:1930  require(assets_ <= idleLiquidity(), \"NO_FREE_LIQUIDITY\") */\n      tag_381\n      jumpi\n      mload(0x40)\n      0x08c379a000000000000000000000000000000000000000000000000000000000\n      dup2\n      mstore\n      0x04\n      add\n      tag_382\n      swap1\n      tag_308\n      jump\t// in\n    tag_382:\n      mload(0x40)\n      dup1\n      swap2\n      sub\n      swap1\n      revert\n    tag_381:\n        /* \"contracts/protocol/Vault.sol\":1949:1990  super.withdraw(assets_, receiver, owner_) */\n      tag_383\n        /* \"contracts/protocol/Vault.sol\":1964:1971  assets_ */\n      dup5\n        /* \"contracts/protocol/Vault.sol\":1973:1981  receiver */\n      dup5\n        /* \"contracts/protocol/Vault.sol\":1983:1989  owner_ */\n      dup5\n        /* \"contracts/protocol/Vault.sol\":1949:1963  super.withdraw */\n      tag_384\n        /* \"contracts/protocol/Vault.sol\":1949:1990  super.withdraw(assets_, receiver, owner_) */\n      jump\t// in\n    tag_383:\n        /* \"contracts/protocol/Vault.sol\":1940:1990  shares = super.withdraw(assets_, receiver, owner_) */\n      swap1\n      pop\n        /* \"contracts/protocol/Vault.sol\":1754:1997  function withdraw(uint256 assets_, address receiver, address owner_) public override returns (uint256 shares) {... */\n      swap4\n      swap3\n      pop\n      pop\n      pop\n      jump\t// out\n        /* \"contracts/token/ERC4626Upgradeable.sol\":3833:4476  function redeem(uint256 shares, address receiver, address owner) public virtual returns (uint256 assets_) {... */\n    tag_178:\n        /* \"contracts/token/ERC4626Upgradeable.sol\":3922:3937  uint256 assets_ */\n      0x00\n        /* \"contracts/token/ERC4626Upgradeable.sol\":3966:3967  0 */\n      0x00\n        /* \"contracts/token/ERC4626Upgradeable.sol\":3957:3963  shares */\n      dup5\n        /* \"contracts/token/ERC4626Upgradeable.sol\":3957:3967  shares > 0 */\n      gt\n        /* \"contracts/token/ERC4626Upgradeable.sol\":3949:3983  require(shares > 0, \"ZERO_SHARES\") */\n      tag_386\n      jumpi\n      mload(0x40)\n      0x08c379a000000000000000000000000000000000000000000000000000000000\n      dup2\n      mstore\n      0x04\n      add\n      tag_387\n      swap1\n      tag_355\n      jump\t// in\n    tag_387:\n      mload(0x40)\n      dup1\n      swap2\n      sub\n      swap1\n      revert\n    tag_386:\n        /* \"contracts/token/ERC4626Upgradeable.sol\":4004:4027  convertToAssets(shares) */\n      tag_388\n        /* \"contracts/token/ERC4626Upgradeable.sol\":4020:4026  shares */\n      dup5\n        /* \"contracts/token/ERC4626Upgradeable.sol\":4004:4019  convertToAssets */\n      tag_55\n        /* \"contracts/token/ERC4626Upgradeable.sol\":4004:4027  convertToAssets(shares) */\n      jump\t// in\n    tag_388:\n        /* \"contracts/token/ERC4626Upgradeable.sol\":3994:4027  assets_ = convertToAssets(shares) */\n      swap1\n      pop\n        /* \"contracts/token/ERC4626Upgradeable.sol\":4051:4061  msg.sender */\n      caller\n        /* \"contracts/token/ERC4626Upgradeable.sol\":4042:4061  owner != msg.sender */\n      0xffffffffffffffffffffffffffffffffffffffff\n      and\n        /* \"contracts/token/ERC4626Upgradeable.sol\":4042:4047  owner */\n      dup3\n        /* \"contracts/token/ERC4626Upgradeable.sol\":4042:4061  owner != msg.sender */\n      0xffffffffffffffffffffffffffffffffffffffff\n      and\n      eq\n        /* \"contracts/token/ERC4626Upgradeable.sol\":4038:4325  if (owner != msg.sender) {... */\n      tag_389\n      jumpi\n        /* \"contracts/token/ERC4626Upgradeable.sol\":4077:4092  uint256 allowed */\n      0x00\n        /* \"contracts/token/ERC4626Upgradeable.sol\":4095:4123  allowance(owner, msg.sender) */\n      tag_390\n        /* \"contracts/token/ERC4626Upgradeable.sol\":4105:4110  owner */\n      dup4\n        /* \"contracts/token/ERC4626Upgradeable.sol\":4112:4122  msg.sender */\n      caller\n        /* \"contracts/token/ERC4626Upgradeable.sol\":4095:4104  allowance */\n      tag_193\n        /* \"contracts/token/ERC4626Upgradeable.sol\":4095:4123  allowance(owner, msg.sender) */\n      jump\t// in\n    tag_390:\n        /* \"contracts/token/ERC4626Upgradeable.sol\":4077:4123  uint256 allowed = allowance(owner, msg.sender) */\n      swap1\n      pop\n        /* \"contracts/token/ERC4626Upgradeable.sol\":4156:4162  shares */\n      dup5\n        /* \"contracts/token/ERC4626Upgradeable.sol\":4145:4152  allowed */\n      dup2\n        /* \"contracts/token/ERC4626Upgradeable.sol\":4145:4162  allowed >= shares */\n      lt\n      iszero\n        /* \"contracts/token/ERC4626Upgradeable.sol\":4137:4189  require(allowed >= shares, \"INSUFFICIENT_ALLOWANCE\") */\n      tag_391\n      jumpi\n      mload(0x40)\n      0x08c379a000000000000000000000000000000000000000000000000000000000\n      dup2\n      mstore\n      0x04\n      add\n      tag_392\n      swap1\n      tag_244\n      jump\t// in\n    tag_392:\n      mload(0x40)\n      dup1\n      swap2\n      sub\n      swap1\n      revert\n    tag_391:\n        /* \"contracts/token/ERC4626Upgradeable.sol\":4218:4235  type(uint256).max */\n      0xffffffffffffffffffffffffffffffffffffffffffffffffffffffffffffffff\n        /* \"contracts/token/ERC4626Upgradeable.sol\":4207:4214  allowed */\n      dup2\n        /* \"contracts/token/ERC4626Upgradeable.sol\":4207:4235  allowed != type(uint256).max */\n      eq\n        /* \"contracts/token/ERC4626Upgradeable.sol\":4203:4315  if (allowed != type(uint256).max) {... */\n      tag_393\n      jumpi\n        /* \"contracts/token/ERC4626Upgradeable.sol\":4255:4300  _approve(owner, msg.sender, allowed - shares) */\n      tag_394\n        /* \"contracts/token/ERC4626Upgradeable.sol\":4264:4269  owner */\n      dup4\n        /* \"contracts/token/ERC4626Upgradeable.sol\":4271:4281  msg.sender */\n      caller\n        /* \"contracts/token/ERC4626Upgradeable.sol\":4293:4299  shares */\n      dup8\n        /* \"contracts/token/ERC4626Upgradeable.sol\":4283:4290  allowed */\n      dup5\n        /* \"contracts/token/ERC4626Upgradeable.sol\":4283:4299  allowed - shares */\n      tag_395\n      swap2\n      swap1\n      tag_247\n      jump\t// in\n    tag_395:\n        /* \"contracts/token/ERC4626Upgradeable.sol\":4255:4263  _approve */\n      tag_238\n        /* \"contracts/token/ERC4626Upgradeable.sol\":4255:4300  _approve(owner, msg.sender, allowed - shares) */\n      jump\t// in\n    tag_394:\n        /* \"contracts/token/ERC4626Upgradeable.sol\":4203:4315  if (allowed != type(uint256).max) {... */\n    tag_393:\n        /* \"contracts/token/ERC4626Upgradeable.sol\":4063:4325  {... */\n      pop\n        /* \"contracts/token/ERC4626Upgradeable.sol\":4038:4325  if (owner != msg.sender) {... */\n    tag_389:\n        /* \"contracts/token/ERC4626Upgradeable.sol\":4335:4355  _burn(owner, shares) */\n      tag_396\n        /* \"contracts/token/ERC4626Upgradeable.sol\":4341:4346  owner */\n      dup3\n        /* \"contracts/token/ERC4626Upgradeable.sol\":4348:4354  shares */\n      dup6\n        /* \"contracts/token/ERC4626Upgradeable.sol\":4335:4340  _burn */\n      tag_397\n        /* \"contracts/token/ERC4626Upgradeable.sol\":4335:4355  _burn(owner, shares) */\n      jump\t// in\n    tag_396:\n        /* \"contracts/token/ERC4626Upgradeable.sol\":4365:4371  _asset */\n      0x07\n      0x00\n      swap1\n      sload\n      swap1\n      0x0100\n      exp\n      swap1\n      div\n      0xffffffffffffffffffffffffffffffffffffffff\n      and\n        /* \"contracts/token/ERC4626Upgradeable.sol\":4365:4380  _asset.transfer */\n      0xffffffffffffffffffffffffffffffffffffffff\n      and\n      0xa9059cbb\n        /* \"contracts/token/ERC4626Upgradeable.sol\":4381:4389  receiver */\n      dup5\n        /* \"contracts/token/ERC4626Upgradeable.sol\":4391:4398  assets_ */\n      dup4\n        /* \"contracts/token/ERC4626Upgradeable.sol\":4365:4399  _asset.transfer(receiver, assets_) */\n      mload(0x40)\n      dup4\n      0xffffffff\n      and\n      0xe0\n      shl\n      dup2\n      mstore\n      0x04\n      add\n      tag_398\n      swap3\n      swap2\n      swap1\n      tag_311\n      jump\t// in\n    tag_398:\n      0x20\n      mload(0x40)\n      dup1\n      dup4\n      sub\n      dup2\n      0x00\n      dup8\n      gas\n      call\n      iszero\n      dup1\n      iszero\n      tag_400\n      jumpi\n      returndatacopy(0x00, 0x00, returndatasize)\n      revert(0x00, returndatasize)\n    tag_400:\n      pop\n      pop\n      pop\n      pop\n      mload(0x40)\n      returndatasize\n      not(0x1f)\n      0x1f\n      dup3\n      add\n      and\n      dup3\n      add\n      dup1\n      0x40\n      mstore\n      pop\n      dup2\n      add\n      swap1\n      tag_401\n      swap2\n      swap1\n      tag_315\n      jump\t// in\n    tag_401:\n      pop\n        /* \"contracts/token/ERC4626Upgradeable.sol\":4446:4451  owner */\n      dup2\n        /* \"contracts/token/ERC4626Upgradeable.sol\":4415:4469  Withdraw(msg.sender, receiver, owner, assets_, shares) */\n      0xffffffffffffffffffffffffffffffffffffffff\n      and\n        /* \"contracts/token/ERC4626Upgradeable.sol\":4436:4444  receiver */\n      dup4\n        /* \"contracts/token/ERC4626Upgradeable.sol\":4415:4469  Withdraw(msg.sender, receiver, owner, assets_, shares) */\n      0xffffffffffffffffffffffffffffffffffffffff\n      and\n        /* \"contracts/token/ERC4626Upgradeable.sol\":4424:4434  msg.sender */\n      caller\n        /* \"contracts/token/ERC4626Upgradeable.sol\":4415:4469  Withdraw(msg.sender, receiver, owner, assets_, shares) */\n      0xffffffffffffffffffffffffffffffffffffffff\n      and\n      0xfbde797d201c681b91056529119e0b02407c7bb96a4a2c75c01fc9667232c8db\n        /* \"contracts/token/ERC4626Upgradeable.sol\":4453:4460  assets_ */\n      dup5\n        /* \"contracts/token/ERC4626Upgradeable.sol\":4462:4468  shares */\n      dup9\n        /* \"contracts/token/ERC4626Upgradeable.sol\":4415:4469  Withdraw(msg.sender, receiver, owner, assets_, shares) */\n      mload(0x40)\n      tag_402\n      swap3\n      swap2\n      swap1\n      tag_368\n      jump\t// in\n    tag_402:\n      mload(0x40)\n      dup1\n      swap2\n      sub\n      swap1\n      log4\n        /* \"contracts/token/ERC4626Upgradeable.sol\":3833:4476  function redeem(uint256 shares, address receiver, address owner) public virtual returns (uint256 assets_) {... */\n      swap4\n      swap3\n      pop\n      pop\n      pop\n      jump\t// out\n        /* \"contracts/token/ERC4626Upgradeable.sol\":1455:1821  function convertToShares(uint256 assets_) public view returns (uint256) {... */\n    tag_183:\n        /* \"contracts/token/ERC4626Upgradeable.sol\":1518:1525  uint256 */\n      0x00\n        /* \"contracts/token/ERC4626Upgradeable.sol\":1537:1551  uint256 supply */\n      0x00\n        /* \"contracts/token/ERC4626Upgradeable.sol\":1554:1558  this */\n      address\n        /* \"contracts/token/ERC4626Upgradeable.sol\":1554:1570  this.totalSupply */\n      0xffffffffffffffffffffffffffffffffffffffff\n      and\n      0x18160ddd\n        /* \"contracts/token/ERC4626Upgradeable.sol\":1554:1572  this.totalSupply() */\n      mload(0x40)\n      dup2\n      0xffffffff\n      and\n      0xe0\n      shl\n      dup2\n      mstore\n      0x04\n      add\n      0x20\n      mload(0x40)\n      dup1\n      dup4\n      sub\n      dup2\n      dup7\n      gas\n      staticcall\n      iszero\n      dup1\n      iszero\n      tag_405\n      jumpi\n      returndatacopy(0x00, 0x00, returndatasize)\n      revert(0x00, returndatasize)\n    tag_405:\n      pop\n      pop\n      pop\n      pop\n      mload(0x40)\n      returndatasize\n      not(0x1f)\n      0x1f\n      dup3\n      add\n      and\n      dup3\n      add\n      dup1\n      0x40\n      mstore\n      pop\n      dup2\n      add\n      swap1\n      tag_406\n      swap2\n      swap1\n      tag_201\n      jump\t// in\n    tag_406:\n        /* \"contracts/token/ERC4626Upgradeable.sol\":1537:1572  uint256 supply = this.totalSupply() */\n      swap1\n      pop\n        /* \"contracts/token/ERC4626Upgradeable.sol\":1582:1601  uint256 assetsTotal */\n      0x00\n        /* \"contracts/token/ERC4626Upgradeable.sol\":1604:1617  totalAssets() */\n      tag_407\n        /* \"contracts/token/ERC4626Upgradeable.sol\":1604:1615  totalAssets */\n      tag_43\n        /* \"contracts/token/ERC4626Upgradeable.sol\":1604:1617  totalAssets() */\n      jump\t// in\n    tag_407:\n        /* \"contracts/token/ERC4626Upgradeable.sol\":1582:1617  uint256 assetsTotal = totalAssets() */\n      swap1\n      pop\n        /* \"contracts/token/ERC4626Upgradeable.sol\":1703:1704  0 */\n      0x00\n        /* \"contracts/token/ERC4626Upgradeable.sol\":1693:1699  supply */\n      dup3\n        /* \"contracts/token/ERC4626Upgradeable.sol\":1693:1704  supply == 0 */\n      eq\n        /* \"contracts/token/ERC4626Upgradeable.sol\":1693:1724  supply == 0 || assetsTotal == 0 */\n      dup1\n      tag_408\n      jumpi\n      pop\n        /* \"contracts/token/ERC4626Upgradeable.sol\":1723:1724  0 */\n      0x00\n        /* \"contracts/token/ERC4626Upgradeable.sol\":1708:1719  assetsTotal */\n      dup2\n        /* \"contracts/token/ERC4626Upgradeable.sol\":1708:1724  assetsTotal == 0 */\n      eq\n        /* \"contracts/token/ERC4626Upgradeable.sol\":1693:1724  supply == 0 || assetsTotal == 0 */\n    tag_408:\n        /* \"contracts/token/ERC4626Upgradeable.sol\":1689:1765  if (supply == 0 || assetsTotal == 0) {... */\n      iszero\n      tag_409\n      jumpi\n        /* \"contracts/token/ERC4626Upgradeable.sol\":1747:1754  assets_ */\n      dup4\n        /* \"contracts/token/ERC4626Upgradeable.sol\":1740:1754  return assets_ */\n      swap3\n      pop\n      pop\n      pop\n      jump(tag_403)\n        /* \"contracts/token/ERC4626Upgradeable.sol\":1689:1765  if (supply == 0 || assetsTotal == 0) {... */\n    tag_409:\n        /* \"contracts/token/ERC4626Upgradeable.sol\":1803:1814  assetsTotal */\n      dup1\n        /* \"contracts/token/ERC4626Upgradeable.sol\":1793:1799  supply */\n      dup3\n        /* \"contracts/token/ERC4626Upgradeable.sol\":1783:1790  assets_ */\n      dup6\n        /* \"contracts/token/ERC4626Upgradeable.sol\":1783:1799  assets_ * supply */\n      tag_410\n      swap2\n      swap1\n      tag_233\n      jump\t// in\n    tag_410:\n        /* \"contracts/token/ERC4626Upgradeable.sol\":1782:1814  (assets_ * supply) / assetsTotal */\n      tag_411\n      swap2\n      swap1\n      tag_235\n      jump\t// in\n    tag_411:\n        /* \"contracts/token/ERC4626Upgradeable.sol\":1775:1814  return (assets_ * supply) / assetsTotal */\n      swap3\n      pop\n      pop\n      pop\n        /* \"contracts/token/ERC4626Upgradeable.sol\":1455:1821  function convertToShares(uint256 assets_) public view returns (uint256) {... */\n    tag_403:\n      swap2\n      swap1\n      pop\n      jump\t// out\n        /* \"contracts/acess/Ownable.sol\":394:532  function ownershipTransfer(address newOwner) external onlyOwner {... */\n    tag_188:\n        /* \"contracts/acess/Ownable.sol\":213:218  owner */\n      0x00\n      0x02\n      swap1\n      sload\n      swap1\n      0x0100\n      exp\n      swap1\n      div\n      0xffffffffffffffffffffffffffffffffffffffff\n      and\n        /* \"contracts/acess/Ownable.sol\":199:218  msg.sender == owner */\n      0xffffffffffffffffffffffffffffffffffffffff\n      and\n        /* \"contracts/acess/Ownable.sol\":199:209  msg.sender */\n      caller\n        /* \"contracts/acess/Ownable.sol\":199:218  msg.sender == owner */\n      0xffffffffffffffffffffffffffffffffffffffff\n      and\n      eq\n        /* \"contracts/acess/Ownable.sol\":191:219  require(msg.sender == owner) */\n      tag_413\n      jumpi\n      revert(0x00, 0x00)\n    tag_413:\n        /* \"contracts/acess/Ownable.sol\":496:497  0 */\n      0x00\n        /* \"contracts/acess/Ownable.sol\":476:498  newOwner != address(0) */\n      0xffffffffffffffffffffffffffffffffffffffff\n      and\n        /* \"contracts/acess/Ownable.sol\":476:484  newOwner */\n      dup2\n        /* \"contracts/acess/Ownable.sol\":476:498  newOwner != address(0) */\n      0xffffffffffffffffffffffffffffffffffffffff\n      and\n      sub\n        /* \"contracts/acess/Ownable.sol\":468:499  require(newOwner != address(0)) */\n      tag_415\n      jumpi\n      revert(0x00, 0x00)\n    tag_415:\n        /* \"contracts/acess/Ownable.sol\":517:525  newOwner */\n      dup1\n        /* \"contracts/acess/Ownable.sol\":509:514  owner */\n      0x00\n      0x02\n        /* \"contracts/acess/Ownable.sol\":509:525  owner = newOwner */\n      0x0100\n      exp\n      dup2\n      sload\n      dup2\n      0xffffffffffffffffffffffffffffffffffffffff\n      mul\n      not\n      and\n      swap1\n      dup4\n      0xffffffffffffffffffffffffffffffffffffffff\n      and\n      mul\n      or\n      swap1\n      sstore\n      pop\n        /* \"contracts/acess/Ownable.sol\":394:532  function ownershipTransfer(address newOwner) external onlyOwner {... */\n      pop\n      jump\t// out\n        /* \"contracts/token/ERC20Upgradeable.sol\":1993:2133  function allowance(address owner, address spender) public view virtual returns (uint256) {... */\n    tag_193:\n        /* \"contracts/token/ERC20Upgradeable.sol\":2073:2080  uint256 */\n      0x00\n        /* \"contracts/token/ERC20Upgradeable.sol\":2099:2110  _allowances */\n      0x06\n        /* \"contracts/token/ERC20Upgradeable.sol\":2099:2117  _allowances[owner] */\n      0x00\n        /* \"contracts/token/ERC20Upgradeable.sol\":2111:2116  owner */\n      dup5\n        /* \"contracts/token/ERC20Upgradeable.sol\":2099:2117  _allowances[owner] */\n      0xffffffffffffffffffffffffffffffffffffffff\n      and\n      0xffffffffffffffffffffffffffffffffffffffff\n      and\n      dup2\n      mstore\n      0x20\n      add\n      swap1\n      dup2\n      mstore\n      0x20\n      add\n      0x00\n      keccak256\n        /* \"contracts/token/ERC20Upgradeable.sol\":2099:2126  _allowances[owner][spender] */\n      0x00\n        /* \"contracts/token/ERC20Upgradeable.sol\":2118:2125  spender */\n      dup4\n        /* \"contracts/token/ERC20Upgradeable.sol\":2099:2126  _allowances[owner][spender] */\n      0xffffffffffffffffffffffffffffffffffffffff\n      and\n      0xffffffffffffffffffffffffffffffffffffffff\n      and\n      dup2\n      mstore\n      0x20\n      add\n      swap1\n      dup2\n      mstore\n      0x20\n      add\n      0x00\n      keccak256\n      sload\n        /* \"contracts/token/ERC20Upgradeable.sol\":2092:2126  return _allowances[owner][spender] */\n      swap1\n      pop\n        /* \"contracts/token/ERC20Upgradeable.sol\":1993:2133  function allowance(address owner, address spender) public view virtual returns (uint256) {... */\n      swap3\n      swap2\n      pop\n      pop\n      jump\t// out\n        /* \"contracts/token/ERC20Upgradeable.sol\":3030:3216  function _approve(address owner_, address spender, uint256 amount) internal virtual {... */\n    tag_238:\n        /* \"contracts/token/ERC20Upgradeable.sol\":3155:3161  amount */\n      dup1\n        /* \"contracts/token/ERC20Upgradeable.sol\":3124:3135  _allowances */\n      0x06\n        /* \"contracts/token/ERC20Upgradeable.sol\":3124:3143  _allowances[owner_] */\n      0x00\n        /* \"contracts/token/ERC20Upgradeable.sol\":3136:3142  owner_ */\n      dup6\n        /* \"contracts/token/ERC20Upgradeable.sol\":3124:3143  _allowances[owner_] */\n      0xffffffffffffffffffffffffffffffffffffffff\n      and\n      0xffffffffffffffffffffffffffffffffffffffff\n      and\n      dup2\n      mstore\n      0x20\n      add\n      swap1\n      dup2\n      mstore\n      0x20\n      add\n      0x00\n      keccak256\n        /* \"contracts/token/ERC20Upgradeable.sol\":3124:3152  _allowances[owner_][spender] */\n      0x00\n        /* \"contracts/token/ERC20Upgradeable.sol\":3144:3151  spender */\n      dup5\n        /* \"contracts/token/ERC20Upgradeable.sol\":3124:3152  _allowances[owner_][spender] */\n      0xffffffffffffffffffffffffffffffffffffffff\n      and\n      0xffffffffffffffffffffffffffffffffffffffff\n      and\n      dup2\n      mstore\n      0x20\n      add\n      swap1\n      dup2\n      mstore\n      0x20\n      add\n      0x00\n      keccak256\n        /* \"contracts/token/ERC20Upgradeable.sol\":3124:3161  _allowances[owner_][spender] = amount */\n      dup2\n      swap1\n      sstore\n      pop\n        /* \"contracts/token/ERC20Upgradeable.sol\":3193:3200  spender */\n      dup2\n        /* \"contracts/token/ERC20Upgradeable.sol\":3176:3209  Approval(owner_, spender, amount) */\n      0xffffffffffffffffffffffffffffffffffffffff\n      and\n        /* \"contracts/token/ERC20Upgradeable.sol\":3185:3191  owner_ */\n      dup4\n        /* \"contracts/token/ERC20Upgradeable.sol\":3176:3209  Approval(owner_, spender, amount) */\n      0xffffffffffffffffffffffffffffffffffffffff\n      and\n      0x8c5be1e5ebec7d5bd14f71427d1e84f3dd0314c0f7b2291e5b200ac8c7c3b925\n        /* \"contracts/token/ERC20Upgradeable.sol\":3202:3208  amount */\n      dup4\n        /* \"contracts/token/ERC20Upgradeable.sol\":3176:3209  Approval(owner_, spender, amount) */\n      mload(0x40)\n      tag_418\n      swap2\n      swap1\n      tag_45\n      jump\t// in\n    tag_418:\n      mload(0x40)\n      dup1\n      swap2\n      sub\n      swap1\n      log3\n        /* \"contracts/token/ERC20Upgradeable.sol\":3030:3216  function _approve(address owner_, address spender, uint256 amount) internal virtual {... */\n      pop\n      pop\n      pop\n      jump\t// out\n        /* \"contracts/token/ERC20Upgradeable.sol\":3272:3664  function _transfer(address from, address to, uint256 amount) internal {... */\n    tag_249:\n        /* \"contracts/token/ERC20Upgradeable.sol\":3374:3375  0 */\n      0x00\n        /* \"contracts/token/ERC20Upgradeable.sol\":3360:3376  to != address(0) */\n      0xffffffffffffffffffffffffffffffffffffffff\n      and\n        /* \"contracts/token/ERC20Upgradeable.sol\":3360:3362  to */\n      dup3\n        /* \"contracts/token/ERC20Upgradeable.sol\":3360:3376  to != address(0) */\n      0xffffffffffffffffffffffffffffffffffffffff\n      and\n      sub\n        /* \"contracts/token/ERC20Upgradeable.sol\":3352:3388  require(to != address(0), \"ZERO_TO\") */\n      tag_420\n      jumpi\n      mload(0x40)\n      0x08c379a000000000000000000000000000000000000000000000000000000000\n      dup2\n      mstore\n      0x04\n      add\n      tag_421\n      swap1\n      tag_422\n      jump\t// in\n    tag_421:\n      mload(0x40)\n      dup1\n      swap2\n      sub\n      swap1\n      revert\n    tag_420:\n        /* \"contracts/token/ERC20Upgradeable.sol\":3398:3417  uint256 fromBalance */\n      0x00\n        /* \"contracts/token/ERC20Upgradeable.sol\":3420:3429  _balances */\n      0x05\n        /* \"contracts/token/ERC20Upgradeable.sol\":3420:3435  _balances[from] */\n      0x00\n        /* \"contracts/token/ERC20Upgradeable.sol\":3430:3434  from */\n      dup6\n        /* \"contracts/token/ERC20Upgradeable.sol\":3420:3435  _balances[from] */\n      0xffffffffffffffffffffffffffffffffffffffff\n      and\n      0xffffffffffffffffffffffffffffffffffffffff\n      and\n      dup2\n      mstore\n      0x20\n      add\n      swap1\n      dup2\n      mstore\n      0x20\n      add\n      0x00\n      keccak256\n      sload\n        /* \"contracts/token/ERC20Upgradeable.sol\":3398:3435  uint256 fromBalance = _balances[from] */\n      swap1\n      pop\n        /* \"contracts/token/ERC20Upgradeable.sol\":3468:3474  amount */\n      dup2\n        /* \"contracts/token/ERC20Upgradeable.sol\":3453:3464  fromBalance */\n      dup2\n        /* \"contracts/token/ERC20Upgradeable.sol\":3453:3474  fromBalance >= amount */\n      lt\n      iszero\n        /* \"contracts/token/ERC20Upgradeable.sol\":3445:3499  require(fromBalance >= amount, \"INSUFFICIENT_BALANCE\") */\n      tag_423\n      jumpi\n      mload(0x40)\n      0x08c379a000000000000000000000000000000000000000000000000000000000\n      dup2\n      mstore\n      0x04\n      add\n      tag_424\n      swap1\n      tag_425\n      jump\t// in\n    tag_424:\n      mload(0x40)\n      dup1\n      swap2\n      sub\n      swap1\n      revert\n    tag_423:\n        /* \"contracts/token/ERC20Upgradeable.sol\":3566:3572  amount */\n      dup2\n        /* \"contracts/token/ERC20Upgradeable.sol\":3552:3563  fromBalance */\n      dup2\n        /* \"contracts/token/ERC20Upgradeable.sol\":3552:3572  fromBalance - amount */\n      sub\n        /* \"contracts/token/ERC20Upgradeable.sol\":3534:3543  _balances */\n      0x05\n        /* \"contracts/token/ERC20Upgradeable.sol\":3534:3549  _balances[from] */\n      0x00\n        /* \"contracts/token/ERC20Upgradeable.sol\":3544:3548  from */\n      dup7\n        /* \"contracts/token/ERC20Upgradeable.sol\":3534:3549  _balances[from] */\n      0xffffffffffffffffffffffffffffffffffffffff\n      and\n      0xffffffffffffffffffffffffffffffffffffffff\n      and\n      dup2\n      mstore\n      0x20\n      add\n      swap1\n      dup2\n      mstore\n      0x20\n      add\n      0x00\n      keccak256\n        /* \"contracts/token/ERC20Upgradeable.sol\":3534:3572  _balances[from] = fromBalance - amount */\n      dup2\n      swap1\n      sstore\n      pop\n        /* \"contracts/token/ERC20Upgradeable.sol\":3610:3616  amount */\n      dup2\n        /* \"contracts/token/ERC20Upgradeable.sol\":3593:3602  _balances */\n      0x05\n        /* \"contracts/token/ERC20Upgradeable.sol\":3593:3606  _balances[to] */\n      0x00\n        /* \"contracts/token/ERC20Upgradeable.sol\":3603:3605  to */\n      dup6\n        /* \"contracts/token/ERC20Upgradeable.sol\":3593:3606  _balances[to] */\n      0xffffffffffffffffffffffffffffffffffffffff\n      and\n      0xffffffffffffffffffffffffffffffffffffffff\n      and\n      dup2\n      mstore\n      0x20\n      add\n      swap1\n      dup2\n      mstore\n      0x20\n      add\n      0x00\n      keccak256\n      0x00\n        /* \"contracts/token/ERC20Upgradeable.sol\":3593:3616  _balances[to] += amount */\n      dup3\n      dup3\n      sload\n      tag_426\n      swap2\n      swap1\n      tag_217\n      jump\t// in\n    tag_426:\n      swap3\n      pop\n      pop\n      dup2\n      swap1\n      sstore\n      pop\n        /* \"contracts/token/ERC20Upgradeable.sol\":3646:3648  to */\n      dup3\n        /* \"contracts/token/ERC20Upgradeable.sol\":3631:3657  Transfer(from, to, amount) */\n      0xffffffffffffffffffffffffffffffffffffffff\n      and\n        /* \"contracts/token/ERC20Upgradeable.sol\":3640:3644  from */\n      dup5\n        /* \"contracts/token/ERC20Upgradeable.sol\":3631:3657  Transfer(from, to, amount) */\n      0xffffffffffffffffffffffffffffffffffffffff\n      and\n      0xddf252ad1be2c89b69c2b068fc378daa952ba7f163c4a11628f55a4df523b3ef\n        /* \"contracts/token/ERC20Upgradeable.sol\":3650:3656  amount */\n      dup5\n        /* \"contracts/token/ERC20Upgradeable.sol\":3631:3657  Transfer(from, to, amount) */\n      mload(0x40)\n      tag_427\n      swap2\n      swap1\n      tag_45\n      jump\t// in\n    tag_427:\n      mload(0x40)\n      dup1\n      swap2\n      sub\n      swap1\n      log3\n        /* \"contracts/token/ERC20Upgradeable.sol\":3342:3664  {... */\n      pop\n        /* \"contracts/token/ERC20Upgradeable.sol\":3272:3664  function _transfer(address from, address to, uint256 amount) internal {... */\n      pop\n      pop\n      pop\n      jump\t// out\n        /* \"contracts/proxy/UUPSUpgradeable.sol\":2514:2693  function _getImplementation() internal view returns (address impl) {... */\n    tag_256:\n        /* \"contracts/proxy/UUPSUpgradeable.sol\":2567:2579  address impl */\n      0x00\n        /* \"contracts/proxy/UUPSUpgradeable.sol\":2591:2603  bytes32 slot */\n      0x00\n        /* \"contracts/proxy/UUPSUpgradeable.sol\":793:859  0x360894A13BA1A3210667C828492DB98DCA3E2076CC3735A920A3CA505D382BBC */\n      0x360894a13ba1a3210667c828492db98dca3e2076cc3735a920a3ca505d382bbc\n        /* \"contracts/proxy/UUPSUpgradeable.sol\":2606:2625  IMPLEMENTATION_SLOT */\n      0x00\n      shl\n        /* \"contracts/proxy/UUPSUpgradeable.sol\":2591:2625  bytes32 slot = IMPLEMENTATION_SLOT */\n      swap1\n      pop\n        /* \"contracts/proxy/UUPSUpgradeable.sol\":2672:2676  slot */\n      dup1\n        /* \"contracts/proxy/UUPSUpgradeable.sol\":2666:2677  sload(slot) */\n      sload\n        /* \"contracts/proxy/UUPSUpgradeable.sol\":2658:2677  impl := sload(slot) */\n      swap2\n      pop\n        /* \"contracts/proxy/UUPSUpgradeable.sol\":2644:2687  {... */\n      pop\n        /* \"contracts/proxy/UUPSUpgradeable.sol\":2514:2693  function _getImplementation() internal view returns (address impl) {... */\n      swap1\n      jump\t// out\n        /* \"contracts/protocol/Vault.sol\":2754:2820  function _authorizeUpgrade(address) internal override onlyOwner {} */\n    tag_262:\n        /* \"contracts/acess/Ownable.sol\":213:218  owner */\n      0x00\n      0x02\n      swap1\n      sload\n      swap1\n      0x0100\n      exp\n      swap1\n      div\n      0xffffffffffffffffffffffffffffffffffffffff\n      and\n        /* \"contracts/acess/Ownable.sol\":199:218  msg.sender == owner */\n      0xffffffffffffffffffffffffffffffffffffffff\n      and\n        /* \"contracts/acess/Ownable.sol\":199:209  msg.sender */\n      caller\n        /* \"contracts/acess/Ownable.sol\":199:218  msg.sender == owner */\n      0xffffffffffffffffffffffffffffffffffffffff\n      and\n      eq\n        /* \"contracts/acess/Ownable.sol\":191:219  require(msg.sender == owner) */\n      tag_430\n      jumpi\n      revert(0x00, 0x00)\n    tag_430:\n        /* \"contracts/protocol/Vault.sol\":2754:2820  function _authorizeUpgrade(address) internal override onlyOwner {} */\n      pop\n      jump\t// out\n        /* \"contracts/proxy/UUPSUpgradeable.sol\":2809:3197  function _upgradeToAndCall(address newImplementation, bytes memory data, bool forceCall) internal {... */\n    tag_264:\n        /* \"contracts/proxy/UUPSUpgradeable.sol\":2954:2955  0 */\n      0x00\n        /* \"contracts/proxy/UUPSUpgradeable.sol\":2925:2956  newImplementation != address(0) */\n      0xffffffffffffffffffffffffffffffffffffffff\n      and\n        /* \"contracts/proxy/UUPSUpgradeable.sol\":2925:2942  newImplementation */\n      dup4\n        /* \"contracts/proxy/UUPSUpgradeable.sol\":2925:2956  newImplementation != address(0) */\n      0xffffffffffffffffffffffffffffffffffffffff\n      and\n      sub\n        /* \"contracts/proxy/UUPSUpgradeable.sol\":2917:2970  require(newImplementation != address(0), \"ZERO_IMPL\") */\n      tag_433\n      jumpi\n      mload(0x40)\n      0x08c379a000000000000000000000000000000000000000000000000000000000\n      dup2\n      mstore\n      0x04\n      add\n      tag_434\n      swap1\n      tag_435\n      jump\t// in\n    tag_434:\n      mload(0x40)\n      dup1\n      swap2\n      sub\n      swap1\n      revert\n    tag_433:\n        /* \"contracts/proxy/UUPSUpgradeable.sol\":2980:3017  _setImplementation(newImplementation) */\n      tag_436\n        /* \"contracts/proxy/UUPSUpgradeable.sol\":2999:3016  newImplementation */\n      dup4\n        /* \"contracts/proxy/UUPSUpgradeable.sol\":2980:2998  _setImplementation */\n      tag_437\n        /* \"contracts/proxy/UUPSUpgradeable.sol\":2980:3017  _setImplementation(newImplementation) */\n      jump\t// in\n    tag_436:\n        /* \"contracts/proxy/UUPSUpgradeable.sol\":3032:3041  forceCall */\n      dup1\n        /* \"contracts/proxy/UUPSUpgradeable.sol\":3032:3060  forceCall || data.length > 0 */\n      dup1\n      tag_438\n      jumpi\n      pop\n        /* \"contracts/proxy/UUPSUpgradeable.sol\":3059:3060  0 */\n      0x00\n        /* \"contracts/proxy/UUPSUpgradeable.sol\":3045:3049  data */\n      dup3\n        /* \"contracts/proxy/UUPSUpgradeable.sol\":3045:3056  data.length */\n      mload\n        /* \"contracts/proxy/UUPSUpgradeable.sol\":3045:3060  data.length > 0 */\n      gt\n        /* \"contracts/proxy/UUPSUpgradeable.sol\":3032:3060  forceCall || data.length > 0 */\n    tag_438:\n        /* \"contracts/proxy/UUPSUpgradeable.sol\":3028:3191  if (forceCall || data.length > 0) {... */\n      iszero\n      tag_439\n      jumpi\n        /* \"contracts/proxy/UUPSUpgradeable.sol\":3077:3084  bool ok */\n      0x00\n        /* \"contracts/proxy/UUPSUpgradeable.sol\":3086:3102  bytes memory err */\n      0x00\n        /* \"contracts/proxy/UUPSUpgradeable.sol\":3106:3123  newImplementation */\n      dup5\n        /* \"contracts/proxy/UUPSUpgradeable.sol\":3106:3136  newImplementation.delegatecall */\n      0xffffffffffffffffffffffffffffffffffffffff\n      and\n        /* \"contracts/proxy/UUPSUpgradeable.sol\":3137:3141  data */\n      dup5\n        /* \"contracts/proxy/UUPSUpgradeable.sol\":3106:3142  newImplementation.delegatecall(data) */\n      mload(0x40)\n      tag_440\n      swap2\n      swap1\n      tag_441\n      jump\t// in\n    tag_440:\n      0x00\n      mload(0x40)\n      dup1\n      dup4\n      sub\n      dup2\n      dup6\n      gas\n      delegatecall\n      swap2\n      pop\n      pop\n      returndatasize\n      dup1\n      0x00\n      dup2\n      eq\n      tag_444\n      jumpi\n      mload(0x40)\n      swap2\n      pop\n      and(add(returndatasize, 0x3f), not(0x1f))\n      dup3\n      add\n      0x40\n      mstore\n      returndatasize\n      dup3\n      mstore\n      returndatasize\n      0x00\n      0x20\n      dup5\n      add\n      returndatacopy\n      jump(tag_443)\n    tag_444:\n      0x60\n      swap2\n      pop\n    tag_443:\n      pop\n        /* \"contracts/proxy/UUPSUpgradeable.sol\":3076:3142  (bool ok, bytes memory err) = newImplementation.delegatecall(data) */\n      swap2\n      pop\n      swap2\n      pop\n        /* \"contracts/proxy/UUPSUpgradeable.sol\":3164:3166  ok */\n      dup2\n        /* \"contracts/proxy/UUPSUpgradeable.sol\":3175:3178  err */\n      dup2\n        /* \"contracts/proxy/UUPSUpgradeable.sol\":3156:3180  require(ok, string(err)) */\n      swap1\n      tag_445\n      jumpi\n      mload(0x40)\n      0x08c379a000000000000000000000000000000000000000000000000000000000\n      dup2\n      mstore\n      0x04\n      add\n      tag_446\n      swap2\n      swap1\n      tag_50\n      jump\t// in\n    tag_446:\n      mload(0x40)\n      dup1\n      swap2\n      sub\n      swap1\n      revert\n    tag_445:\n      pop\n        /* \"contracts/proxy/UUPSUpgradeable.sol\":3062:3191  {... */\n      pop\n      pop\n        /* \"contracts/proxy/UUPSUpgradeable.sol\":3028:3191  if (forceCall || data.length > 0) {... */\n    tag_439:\n        /* \"contracts/proxy/UUPSUpgradeable.sol\":2809:3197  function _upgradeToAndCall(address newImplementation, bytes memory data, bool forceCall) internal {... */\n      pop\n      pop\n      pop\n      jump\t// out\n        /* \"contracts/acess/Ownable.sol\":243:389  function __Ownable_init(address initializeOwner) internal {... */\n    tag_274:\n        /* \"contracts/acess/Ownable.sol\":346:347  0 */\n      0x00\n        /* \"contracts/acess/Ownable.sol\":319:348  initializeOwner != address(0) */\n      0xffffffffffffffffffffffffffffffffffffffff\n      and\n        /* \"contracts/acess/Ownable.sol\":319:334  initializeOwner */\n      dup2\n        /* \"contracts/acess/Ownable.sol\":319:348  initializeOwner != address(0) */\n      0xffffffffffffffffffffffffffffffffffffffff\n      and\n      sub\n        /* \"contracts/acess/Ownable.sol\":311:349  require(initializeOwner != address(0)) */\n      tag_448\n      jumpi\n      revert(0x00, 0x00)\n    tag_448:\n        /* \"contracts/acess/Ownable.sol\":367:382  initializeOwner */\n      dup1\n        /* \"contracts/acess/Ownable.sol\":359:364  owner */\n      0x00\n      0x02\n        /* \"contracts/acess/Ownable.sol\":359:382  owner = initializeOwner */\n      0x0100\n      exp\n      dup2\n      sload\n      dup2\n      0xffffffffffffffffffffffffffffffffffffffff\n      mul\n      not\n      and\n      swap1\n      dup4\n      0xffffffffffffffffffffffffffffffffffffffff\n      and\n      mul\n      or\n      swap1\n      sstore\n      pop\n        /* \"contracts/acess/Ownable.sol\":243:389  function __Ownable_init(address initializeOwner) internal {... */\n      pop\n      jump\t// out\n        /* \"contracts/token/ERC4626Upgradeable.sol\":1033:1290  function __ERC4626_init(... */\n    tag_276:\n        /* \"contracts/token/ERC4626Upgradeable.sol\":1192:1193  0 */\n      0x00\n        /* \"contracts/token/ERC4626Upgradeable.sol\":1174:1194  asset_ != address(0) */\n      0xffffffffffffffffffffffffffffffffffffffff\n      and\n        /* \"contracts/token/ERC4626Upgradeable.sol\":1174:1180  asset_ */\n      dup4\n        /* \"contracts/token/ERC4626Upgradeable.sol\":1174:1194  asset_ != address(0) */\n      0xffffffffffffffffffffffffffffffffffffffff\n      and\n      sub\n        /* \"contracts/token/ERC4626Upgradeable.sol\":1166:1209  require(asset_ != address(0), \"ZERO_ASSET\") */\n      tag_450\n      jumpi\n      mload(0x40)\n      0x08c379a000000000000000000000000000000000000000000000000000000000\n      dup2\n      mstore\n      0x04\n      add\n      tag_451\n      swap1\n      tag_452\n      jump\t// in\n    tag_451:\n      mload(0x40)\n      dup1\n      swap2\n      sub\n      swap1\n      revert\n    tag_450:\n        /* \"contracts/token/ERC4626Upgradeable.sol\":1219:1250  __ERC20_init(name_, symbol_, 6) */\n      tag_453\n        /* \"contracts/token/ERC4626Upgradeable.sol\":1232:1237  name_ */\n      dup3\n        /* \"contracts/token/ERC4626Upgradeable.sol\":1239:1246  symbol_ */\n      dup3\n        /* \"contracts/token/ERC4626Upgradeable.sol\":1248:1249  6 */\n      0x06\n        /* \"contracts/token/ERC4626Upgradeable.sol\":1219:1231  __ERC20_init */\n      tag_454\n        /* \"contracts/token/ERC4626Upgradeable.sol\":1219:1250  __ERC20_init(name_, symbol_, 6) */\n      jump\t// in\n    tag_453:\n        /* \"contracts/token/ERC4626Upgradeable.sol\":1276:1282  asset_ */\n      dup3\n        /* \"contracts/token/ERC4626Upgradeable.sol\":1260:1266  _asset */\n      0x07\n      0x00\n        /* \"contracts/token/ERC4626Upgradeable.sol\":1260:1283  _asset = IERC20(asset_) */\n      0x0100\n      exp\n      dup2\n      sload\n      dup2\n      0xffffffffffffffffffffffffffffffffffffffff\n      mul\n      not\n      and\n      swap1\n      dup4\n      0xffffffffffffffffffffffffffffffffffffffff\n      and\n      mul\n      or\n      swap1\n      sstore\n      pop\n        /* \"contracts/token/ERC4626Upgradeable.sol\":1033:1290  function __ERC4626_init(... */\n      pop\n      pop\n      pop\n      jump\t// out\n        /* \"contracts/token/ERC4626Upgradeable.sol\":2196:2589  function deposit(uint256 assets_, address receiver) public virtual returns (uint256 shares) {... */\n    tag_334:\n        /* \"contracts/token/ERC4626Upgradeable.sol\":2272:2286  uint256 shares */\n      0x00\n        /* \"contracts/token/ERC4626Upgradeable.sol\":2316:2317  0 */\n      0x00\n        /* \"contracts/token/ERC4626Upgradeable.sol\":2306:2313  assets_ */\n      dup4\n        /* \"contracts/token/ERC4626Upgradeable.sol\":2306:2317  assets_ > 0 */\n      gt\n        /* \"contracts/token/ERC4626Upgradeable.sol\":2298:2333  require(assets_ > 0, \"ZERO_ASSETS\") */\n      tag_456\n      jumpi\n      mload(0x40)\n      0x08c379a000000000000000000000000000000000000000000000000000000000\n      dup2\n      mstore\n      0x04\n      add\n      tag_457\n      swap1\n      tag_359\n      jump\t// in\n    tag_457:\n      mload(0x40)\n      dup1\n      swap2\n      sub\n      swap1\n      revert\n    tag_456:\n        /* \"contracts/token/ERC4626Upgradeable.sol\":2353:2377  convertToShares(assets_) */\n      tag_458\n        /* \"contracts/token/ERC4626Upgradeable.sol\":2369:2376  assets_ */\n      dup4\n        /* \"contracts/token/ERC4626Upgradeable.sol\":2353:2368  convertToShares */\n      tag_183\n        /* \"contracts/token/ERC4626Upgradeable.sol\":2353:2377  convertToShares(assets_) */\n      jump\t// in\n    tag_458:\n        /* \"contracts/token/ERC4626Upgradeable.sol\":2344:2377  shares = convertToShares(assets_) */\n      swap1\n      pop\n        /* \"contracts/token/ERC4626Upgradeable.sol\":2404:2405  0 */\n      0x00\n        /* \"contracts/token/ERC4626Upgradeable.sol\":2395:2401  shares */\n      dup2\n        /* \"contracts/token/ERC4626Upgradeable.sol\":2395:2405  shares > 0 */\n      gt\n        /* \"contracts/token/ERC4626Upgradeable.sol\":2387:2421  require(shares > 0, \"ZERO_SHARES\") */\n      tag_459\n      jumpi\n      mload(0x40)\n      0x08c379a000000000000000000000000000000000000000000000000000000000\n      dup2\n      mstore\n      0x04\n      add\n      tag_460\n      swap1\n      tag_355\n      jump\t// in\n    tag_460:\n      mload(0x40)\n      dup1\n      swap2\n      sub\n      swap1\n      revert\n    tag_459:\n        /* \"contracts/token/ERC4626Upgradeable.sol\":2432:2438  _asset */\n      0x07\n      0x00\n      swap1\n      sload\n      swap1\n      0x0100\n      exp\n      swap1\n      div\n      0xffffffffffffffffffffffffffffffffffffffff\n      and\n        /* \"contracts/token/ERC4626Upgradeable.sol\":2432:2451  _asset.transferFrom */\n      0xffffffffffffffffffffffffffffffffffffffff\n      and\n      0x23b872dd\n        /* \"contracts/token/ERC4626Upgradeable.sol\":2452:2462  msg.sender */\n      caller\n        /* \"contracts/token/ERC4626Upgradeable.sol\":2472:2476  this */\n      address\n        /* \"contracts/token/ERC4626Upgradeable.sol\":2479:2486  assets_ */\n      dup7\n        /* \"contracts/token/ERC4626Upgradeable.sol\":2432:2487  _asset.transferFrom(msg.sender, address(this), assets_) */\n      mload(0x40)\n      dup5\n      0xffffffff\n      and\n      0xe0\n      shl\n      dup2\n      mstore\n      0x04\n      add\n      tag_461\n      swap4\n      swap3\n      swap2\n      swap1\n      tag_361\n      jump\t// in\n    tag_461:\n      0x20\n      mload(0x40)\n      dup1\n      dup4\n      sub\n      dup2\n      0x00\n      dup8\n      gas\n      call\n      iszero\n      dup1\n      iszero\n      tag_463\n      jumpi\n      returndatacopy(0x00, 0x00, returndatasize)\n      revert(0x00, returndatasize)\n    tag_463:\n      pop\n      pop\n      pop\n      pop\n      mload(0x40)\n      returndatasize\n      not(0x1f)\n      0x1f\n      dup3\n      add\n      and\n      dup3\n      add\n      dup1\n      0x40\n      mstore\n      pop\n      dup2\n      add\n      swap1\n      tag_464\n      swap2\n      swap1\n      tag_315\n      jump\t// in\n    tag_464:\n      pop\n        /* \"contracts/token/ERC4626Upgradeable.sol\":2497:2520  _mint(receiver, shares) */\n      tag_465\n        /* \"contracts/token/ERC4626Upgradeable.sol\":2503:2511  receiver */\n      dup3\n        /* \"contracts/token/ERC4626Upgradeable.sol\":2513:2519  shares */\n      dup3\n        /* \"contracts/token/ERC4626Upgradeable.sol\":2497:2502  _mint */\n      tag_366\n        /* \"contracts/token/ERC4626Upgradeable.sol\":2497:2520  _mint(receiver, shares) */\n      jump\t// in\n    tag_465:\n        /* \"contracts/token/ERC4626Upgradeable.sol\":2556:2564  receiver */\n      dup2\n        /* \"contracts/token/ERC4626Upgradeable.sol\":2536:2582  Deposit(msg.sender, receiver, assets_, shares) */\n      0xffffffffffffffffffffffffffffffffffffffff\n      and\n        /* \"contracts/token/ERC4626Upgradeable.sol\":2544:2554  msg.sender */\n      caller\n        /* \"contracts/token/ERC4626Upgradeable.sol\":2536:2582  Deposit(msg.sender, receiver, assets_, shares) */\n      0xffffffffffffffffffffffffffffffffffffffff\n      and\n      0xdcbc1c05240f31ff3ad067ef1ee35ce4997762752e3a095284754544f4c709d7\n        /* \"contracts/token/ERC4626Upgradeable.sol\":2566:2573  assets_ */\n      dup6\n        /* \"contracts/token/ERC4626Upgradeable.sol\":2575:2581  shares */\n      dup5\n        /* \"contracts/token/ERC4626Upgradeable.sol\":2536:2582  Deposit(msg.sender, receiver, assets_, shares) */\n      mload(0x40)\n      tag_466\n      swap3\n      swap2\n      swap1\n      tag_368\n      jump\t// in\n    tag_466:\n      mload(0x40)\n      dup1\n      swap2\n      sub\n      swap1\n      log3\n        /* \"contracts/token/ERC4626Upgradeable.sol\":2196:2589  function deposit(uint256 assets_, address receiver) public virtual returns (uint256 shares) {... */\n      swap3\n      swap2\n      pop\n      pop\n      jump\t// out\n        /* \"contracts/token/ERC20Upgradeable.sol\":3710:3935  function _mint(address to, uint256 amount) internal virtual {... */\n    tag_366:\n        /* \"contracts/token/ERC20Upgradeable.sol\":3802:3803  0 */\n      0x00\n        /* \"contracts/token/ERC20Upgradeable.sol\":3788:3804  to != address(0) */\n      0xffffffffffffffffffffffffffffffffffffffff\n      and\n        /* \"contracts/token/ERC20Upgradeable.sol\":3788:3790  to */\n      dup3\n        /* \"contracts/token/ERC20Upgradeable.sol\":3788:3804  to != address(0) */\n      0xffffffffffffffffffffffffffffffffffffffff\n      and\n      sub\n        /* \"contracts/token/ERC20Upgradeable.sol\":3780:3816  require(to != address(0), \"ZERO_TO\") */\n      tag_468\n      jumpi\n      mload(0x40)\n      0x08c379a000000000000000000000000000000000000000000000000000000000\n      dup2\n      mstore\n      0x04\n      add\n      tag_469\n      swap1\n      tag_422\n      jump\t// in\n    tag_469:\n      mload(0x40)\n      dup1\n      swap2\n      sub\n      swap1\n      revert\n    tag_468:\n        /* \"contracts/token/ERC20Upgradeable.sol\":3842:3848  amount */\n      dup1\n        /* \"contracts/token/ERC20Upgradeable.sol\":3826:3838  _totalSupply */\n      0x04\n      0x00\n        /* \"contracts/token/ERC20Upgradeable.sol\":3826:3848  _totalSupply += amount */\n      dup3\n      dup3\n      sload\n      tag_470\n      swap2\n      swap1\n      tag_217\n      jump\t// in\n    tag_470:\n      swap3\n      pop\n      pop\n      dup2\n      swap1\n      sstore\n      pop\n        /* \"contracts/token/ERC20Upgradeable.sol\":3875:3881  amount */\n      dup1\n        /* \"contracts/token/ERC20Upgradeable.sol\":3858:3867  _balances */\n      0x05\n        /* \"contracts/token/ERC20Upgradeable.sol\":3858:3871  _balances[to] */\n      0x00\n        /* \"contracts/token/ERC20Upgradeable.sol\":3868:3870  to */\n      dup5\n        /* \"contracts/token/ERC20Upgradeable.sol\":3858:3871  _balances[to] */\n      0xffffffffffffffffffffffffffffffffffffffff\n      and\n      0xffffffffffffffffffffffffffffffffffffffff\n      and\n      dup2\n      mstore\n      0x20\n      add\n      swap1\n      dup2\n      mstore\n      0x20\n      add\n      0x00\n      keccak256\n      0x00\n        /* \"contracts/token/ERC20Upgradeable.sol\":3858:3881  _balances[to] += amount */\n      dup3\n      dup3\n      sload\n      tag_471\n      swap2\n      swap1\n      tag_217\n      jump\t// in\n    tag_471:\n      swap3\n      pop\n      pop\n      dup2\n      swap1\n      sstore\n      pop\n        /* \"contracts/token/ERC20Upgradeable.sol\":3917:3919  to */\n      dup2\n        /* \"contracts/token/ERC20Upgradeable.sol\":3896:3928  Transfer(address(0), to, amount) */\n      0xffffffffffffffffffffffffffffffffffffffff\n      and\n        /* \"contracts/token/ERC20Upgradeable.sol\":3913:3914  0 */\n      0x00\n        /* \"contracts/token/ERC20Upgradeable.sol\":3896:3928  Transfer(address(0), to, amount) */\n      0xffffffffffffffffffffffffffffffffffffffff\n      and\n      0xddf252ad1be2c89b69c2b068fc378daa952ba7f163c4a11628f55a4df523b3ef\n        /* \"contracts/token/ERC20Upgradeable.sol\":3921:3927  amount */\n      dup4\n        /* \"contracts/token/ERC20Upgradeable.sol\":3896:3928  Transfer(address(0), to, amount) */\n      mload(0x40)\n      tag_472\n      swap2\n      swap1\n      tag_45\n      jump\t// in\n    tag_472:\n      mload(0x40)\n      dup1\n      swap2\n      sub\n      swap1\n      log3\n        /* \"contracts/token/ERC20Upgradeable.sol\":3710:3935  function _mint(address to, uint256 amount) internal virtual {... */\n      pop\n      pop\n      jump\t// out\n        /* \"contracts/token/ERC4626Upgradeable.sol\":2991:3827  function withdraw(uint256 assets_, address receiver, address owner) public virtual returns (uint256 shares) {... */\n    tag_384:\n        /* \"contracts/token/ERC4626Upgradeable.sol\":3083:3097  uint256 shares */\n      0x00\n        /* \"contracts/token/ERC4626Upgradeable.sol\":3127:3128  0 */\n      0x00\n        /* \"contracts/token/ERC4626Upgradeable.sol\":3117:3124  assets_ */\n      dup5\n        /* \"contracts/token/ERC4626Upgradeable.sol\":3117:3128  assets_ > 0 */\n      gt\n        /* \"contracts/token/ERC4626Upgradeable.sol\":3109:3144  require(assets_ > 0, \"ZERO_ASSETS\") */\n      tag_474\n      jumpi\n      mload(0x40)\n      0x08c379a000000000000000000000000000000000000000000000000000000000\n      dup2\n      mstore\n      0x04\n      add\n      tag_475\n      swap1\n      tag_359\n      jump\t// in\n    tag_475:\n      mload(0x40)\n      dup1\n      swap2\n      sub\n      swap1\n      revert\n    tag_474:\n        /* \"contracts/token/ERC4626Upgradeable.sol\":3270:3294  convertToShares(assets_) */\n      tag_476\n        /* \"contracts/token/ERC4626Upgradeable.sol\":3286:3293  assets_ */\n      dup5\n        /* \"contracts/token/ERC4626Upgradeable.sol\":3270:3285  convertToShares */\n      tag_183\n        /* \"contracts/token/ERC4626Upgradeable.sol\":3270:3294  convertToShares(assets_) */\n      jump\t// in\n    tag_476:\n        /* \"contracts/token/ERC4626Upgradeable.sol\":3261:3294  shares = convertToShares(assets_) */\n      swap1\n      pop\n        /* \"contracts/token/ERC4626Upgradeable.sol\":3334:3341  assets_ */\n      dup4\n        /* \"contracts/token/ERC4626Upgradeable.sol\":3308:3331  convertToAssets(shares) */\n      tag_477\n        /* \"contracts/token/ERC4626Upgradeable.sol\":3324:3330  shares */\n      dup3\n        /* \"contracts/token/ERC4626Upgradeable.sol\":3308:3323  convertToAssets */\n      tag_55\n        /* \"contracts/token/ERC4626Upgradeable.sol\":3308:3331  convertToAssets(shares) */\n      jump\t// in\n    tag_477:\n        /* \"contracts/token/ERC4626Upgradeable.sol\":3308:3341  convertToAssets(shares) < assets_ */\n      lt\n        /* \"contracts/token/ERC4626Upgradeable.sol\":3304:3379  if (convertToAssets(shares) < assets_) {... */\n      iszero\n      tag_478\n      jumpi\n        /* \"contracts/token/ERC4626Upgradeable.sol\":3367:3368  1 */\n      0x01\n        /* \"contracts/token/ERC4626Upgradeable.sol\":3357:3368  shares += 1 */\n      dup2\n      tag_479\n      swap2\n      swap1\n      tag_217\n      jump\t// in\n    tag_479:\n      swap1\n      pop\n        /* \"contracts/token/ERC4626Upgradeable.sol\":3304:3379  if (convertToAssets(shares) < assets_) {... */\n    tag_478:\n        /* \"contracts/token/ERC4626Upgradeable.sol\":3402:3412  msg.sender */\n      caller\n        /* \"contracts/token/ERC4626Upgradeable.sol\":3393:3412  owner != msg.sender */\n      0xffffffffffffffffffffffffffffffffffffffff\n      and\n        /* \"contracts/token/ERC4626Upgradeable.sol\":3393:3398  owner */\n      dup3\n        /* \"contracts/token/ERC4626Upgradeable.sol\":3393:3412  owner != msg.sender */\n      0xffffffffffffffffffffffffffffffffffffffff\n      and\n      eq\n        /* \"contracts/token/ERC4626Upgradeable.sol\":3389:3676  if (owner != msg.sender) {... */\n      tag_480\n      jumpi\n        /* \"contracts/token/ERC4626Upgradeable.sol\":3428:3443  uint256 allowed */\n      0x00\n        /* \"contracts/token/ERC4626Upgradeable.sol\":3446:3474  allowance(owner, msg.sender) */\n      tag_481\n        /* \"contracts/token/ERC4626Upgradeable.sol\":3456:3461  owner */\n      dup4\n        /* \"contracts/token/ERC4626Upgradeable.sol\":3463:3473  msg.sender */\n      caller\n        /* \"contracts/token/ERC4626Upgradeable.sol\":3446:3455  allowance */\n      tag_193\n        /* \"contracts/token/ERC4626Upgradeable.sol\":3446:3474  allowance(owner, msg.sender) */\n      jump\t// in\n    tag_481:\n        /* \"contracts/token/ERC4626Upgradeable.sol\":3428:3474  uint256 allowed = allowance(owner, msg.sender) */\n      swap1\n      pop\n        /* \"contracts/token/ERC4626Upgradeable.sol\":3507:3513  shares */\n      dup2\n        /* \"contracts/token/ERC4626Upgradeable.sol\":3496:3503  allowed */\n      dup2\n        /* \"contracts/token/ERC4626Upgradeable.sol\":3496:3513  allowed >= shares */\n      lt\n      iszero\n        /* \"contracts/token/ERC4626Upgradeable.sol\":3488:3540  require(allowed >= shares, \"INSUFFICIENT_ALLOWANCE\") */\n      tag_482\n      jumpi\n      mload(0x40)\n      0x08c379a000000000000000000000000000000000000000000000000000000000\n      dup2\n      mstore\n      0x04\n      add\n      tag_483\n      swap1\n      tag_244\n      jump\t// in\n    tag_483:\n      mload(0x40)\n      dup1\n      swap2\n      sub\n      swap1\n      revert\n    tag_482:\n        /* \"contracts/token/ERC4626Upgradeable.sol\":3569:3586  type(uint256).max */\n      0xffffffffffffffffffffffffffffffffffffffffffffffffffffffffffffffff\n        /* \"contracts/token/ERC4626Upgradeable.sol\":3558:3565  allowed */\n      dup2\n        /* \"contracts/token/ERC4626Upgradeable.sol\":3558:3586  allowed != type(uint256).max */\n      eq\n        /* \"contracts/token/ERC4626Upgradeable.sol\":3554:3666  if (allowed != type(uint256).max) {... */\n      tag_484\n      jumpi\n        /* \"contracts/token/ERC4626Upgradeable.sol\":3606:3651  _approve(owner, msg.sender, allowed - shares) */\n      tag_485\n        /* \"contracts/token/ERC4626Upgradeable.sol\":3615:3620  owner */\n      dup4\n        /* \"contracts/token/ERC4626Upgradeable.sol\":3622:3632  msg.sender */\n      caller\n        /* \"contracts/token/ERC4626Upgradeable.sol\":3644:3650  shares */\n      dup5\n        /* \"contracts/token/ERC4626Upgradeable.sol\":3634:3641  allowed */\n      dup5\n        /* \"contracts/token/ERC4626Upgradeable.sol\":3634:3650  allowed - shares */\n      tag_486\n      swap2\n      swap1\n      tag_247\n      jump\t// in\n    tag_486:\n        /* \"contracts/token/ERC4626Upgradeable.sol\":3606:3614  _approve */\n      tag_238\n        /* \"contracts/token/ERC4626Upgradeable.sol\":3606:3651  _approve(owner, msg.sender, allowed - shares) */\n      jump\t// in\n    tag_485:\n        /* \"contracts/token/ERC4626Upgradeable.sol\":3554:3666  if (allowed != type(uint256).max) {... */\n    tag_484:\n        /* \"contracts/token/ERC4626Upgradeable.sol\":3414:3676  {... */\n      pop\n        /* \"contracts/token/ERC4626Upgradeable.sol\":3389:3676  if (owner != msg.sender) {... */\n    tag_480:\n        /* \"contracts/token/ERC4626Upgradeable.sol\":3686:3706  _burn(owner, shares) */\n      tag_487\n        /* \"contracts/token/ERC4626Upgradeable.sol\":3692:3697  owner */\n      dup3\n        /* \"contracts/token/ERC4626Upgradeable.sol\":3699:3705  shares */\n      dup3\n        /* \"contracts/token/ERC4626Upgradeable.sol\":3686:3691  _burn */\n      tag_397\n        /* \"contracts/token/ERC4626Upgradeable.sol\":3686:3706  _burn(owner, shares) */\n      jump\t// in\n    tag_487:\n        /* \"contracts/token/ERC4626Upgradeable.sol\":3716:3722  _asset */\n      0x07\n      0x00\n      swap1\n      sload\n      swap1\n      0x0100\n      exp\n      swap1\n      div\n      0xffffffffffffffffffffffffffffffffffffffff\n      and\n        /* \"contracts/token/ERC4626Upgradeable.sol\":3716:3731  _asset.transfer */\n      0xffffffffffffffffffffffffffffffffffffffff\n      and\n      0xa9059cbb\n        /* \"contracts/token/ERC4626Upgradeable.sol\":3732:3740  receiver */\n      dup5\n        /* \"contracts/token/ERC4626Upgradeable.sol\":3742:3749  assets_ */\n      dup7\n        /* \"contracts/token/ERC4626Upgradeable.sol\":3716:3750  _asset.transfer(receiver, assets_) */\n      mload(0x40)\n      dup4\n      0xffffffff\n      and\n      0xe0\n      shl\n      dup2\n      mstore\n      0x04\n      add\n      tag_488\n      swap3\n      swap2\n      swap1\n      tag_311\n      jump\t// in\n    tag_488:\n      0x20\n      mload(0x40)\n      dup1\n      dup4\n      sub\n      dup2\n      0x00\n      dup8\n      gas\n      call\n      iszero\n      dup1\n      iszero\n      tag_490\n      jumpi\n      returndatacopy(0x00, 0x00, returndatasize)\n      revert(0x00, returndatasize)\n    tag_490:\n      pop\n      pop\n      pop\n      pop\n      mload(0x40)\n      returndatasize\n      not(0x1f)\n      0x1f\n      dup3\n      add\n      and\n      dup3\n      add\n      dup1\n      0x40\n      mstore\n      pop\n      dup2\n      add\n      swap1\n      tag_491\n      swap2\n      swap1\n      tag_315\n      jump\t// in\n    tag_491:\n      pop\n        /* \"contracts/token/ERC4626Upgradeable.sol\":3797:3802  owner */\n      dup2\n        /* \"contracts/token/ERC4626Upgradeable.sol\":3766:3820  Withdraw(msg.sender, receiver, owner, assets_, shares) */\n      0xffffffffffffffffffffffffffffffffffffffff\n      and\n        /* \"contracts/token/ERC4626Upgradeable.sol\":3787:3795  receiver */\n      dup4\n        /* \"contracts/token/ERC4626Upgradeable.sol\":3766:3820  Withdraw(msg.sender, receiver, owner, assets_, shares) */\n      0xffffffffffffffffffffffffffffffffffffffff\n      and\n        /* \"contracts/token/ERC4626Upgradeable.sol\":3775:3785  msg.sender */\n      caller\n        /* \"contracts/token/ERC4626Upgradeable.sol\":3766:3820  Withdraw(msg.sender, receiver, owner, assets_, shares) */\n      0xffffffffffffffffffffffffffffffffffffffff\n      and\n      0xfbde797d201c681b91056529119e0b02407c7bb96a4a2c75c01fc9667232c8db\n        /* \"contracts/token/ERC4626Upgradeable.sol\":3804:3811  assets_ */\n      dup8\n        /* \"contracts/token/ERC4626Upgradeable.sol\":3813:3819  shares */\n      dup6\n        /* \"contracts/token/ERC4626Upgradeable.sol\":3766:3820  Withdraw(msg.sender, receiver, owner, assets_, shares) */\n      mload(0x40)\n      tag_492\n      swap3\n      swap2\n      swap1\n      tag_368\n      jump\t// in\n    tag_492:\n      mload(0x40)\n      dup1\n      swap2\n      sub\n      swap1\n      log4\n        /* \"contracts/token/ERC4626Upgradeable.sol\":2991:3827  function withdraw(uint256 assets_, address receiver, address owner) public virtual returns (uint256 shares) {... */\n      swap4\n      swap3\n      pop\n      pop\n      pop\n      jump\t// out\n        /* \"contracts/token/ERC20Upgradeable.sol\":3981:4326  function _burn(address from, uint256 amount) internal virtual {... */\n    tag_397:\n        /* \"contracts/token/ERC20Upgradeable.sol\":4053:4072  uint256 fromBalance */\n      0x00\n        /* \"contracts/token/ERC20Upgradeable.sol\":4075:4084  _balances */\n      0x05\n        /* \"contracts/token/ERC20Upgradeable.sol\":4075:4090  _balances[from] */\n      0x00\n        /* \"contracts/token/ERC20Upgradeable.sol\":4085:4089  from */\n      dup5\n        /* \"contracts/token/ERC20Upgradeable.sol\":4075:4090  _balances[from] */\n      0xffffffffffffffffffffffffffffffffffffffff\n      and\n      0xffffffffffffffffffffffffffffffffffffffff\n      and\n      dup2\n      mstore\n      0x20\n      add\n      swap1\n      dup2\n      mstore\n      0x20\n      add\n      0x00\n      keccak256\n      sload\n        /* \"contracts/token/ERC20Upgradeable.sol\":4053:4090  uint256 fromBalance = _balances[from] */\n      swap1\n      pop\n        /* \"contracts/token/ERC20Upgradeable.sol\":4123:4129  amount */\n      dup2\n        /* \"contracts/token/ERC20Upgradeable.sol\":4108:4119  fromBalance */\n      dup2\n        /* \"contracts/token/ERC20Upgradeable.sol\":4108:4129  fromBalance >= amount */\n      lt\n      iszero\n        /* \"contracts/token/ERC20Upgradeable.sol\":4100:4154  require(fromBalance >= amount, \"INSUFFICIENT_BALANCE\") */\n      tag_494\n      jumpi\n      mload(0x40)\n      0x08c379a000000000000000000000000000000000000000000000000000000000\n      dup2\n      mstore\n      0x04\n      add\n      tag_495\n      swap1\n      tag_425\n      jump\t// in\n    tag_495:\n      mload(0x40)\n      dup1\n      swap2\n      sub\n      swap1\n      revert\n    tag_494:\n        /* \"contracts/token/ERC20Upgradeable.sol\":4221:4227  amount */\n      dup2\n        /* \"contracts/token/ERC20Upgradeable.sol\":4207:4218  fromBalance */\n      dup2\n        /* \"contracts/token/ERC20Upgradeable.sol\":4207:4227  fromBalance - amount */\n      sub\n        /* \"contracts/token/ERC20Upgradeable.sol\":4189:4198  _balances */\n      0x05\n        /* \"contracts/token/ERC20Upgradeable.sol\":4189:4204  _balances[from] */\n      0x00\n        /* \"contracts/token/ERC20Upgradeable.sol\":4199:4203  from */\n      dup6\n        /* \"contracts/token/ERC20Upgradeable.sol\":4189:4204  _balances[from] */\n      0xffffffffffffffffffffffffffffffffffffffff\n      and\n      0xffffffffffffffffffffffffffffffffffffffff\n      and\n      dup2\n      mstore\n      0x20\n      add\n      swap1\n      dup2\n      mstore\n      0x20\n      add\n      0x00\n      keccak256\n        /* \"contracts/token/ERC20Upgradeable.sol\":4189:4227  _balances[from] = fromBalance - amount */\n      dup2\n      swap1\n      sstore\n      pop\n        /* \"contracts/token/ERC20Upgradeable.sol\":4264:4270  amount */\n      dup2\n        /* \"contracts/token/ERC20Upgradeable.sol\":4248:4260  _totalSupply */\n      0x04\n      0x00\n        /* \"contracts/token/ERC20Upgradeable.sol\":4248:4270  _totalSupply -= amount */\n      dup3\n      dup3\n      sload\n      tag_496\n      swap2\n      swap1\n      tag_247\n      jump\t// in\n    tag_496:\n      swap3\n      pop\n      pop\n      dup2\n      swap1\n      sstore\n      pop\n        /* \"contracts/token/ERC20Upgradeable.sol\":4308:4309  0 */\n      0x00\n        /* \"contracts/token/ERC20Upgradeable.sol\":4285:4319  Transfer(from, address(0), amount) */\n      0xffffffffffffffffffffffffffffffffffffffff\n      and\n        /* \"contracts/token/ERC20Upgradeable.sol\":4294:4298  from */\n      dup4\n        /* \"contracts/token/ERC20Upgradeable.sol\":4285:4319  Transfer(from, address(0), amount) */\n      0xffffffffffffffffffffffffffffffffffffffff\n      and\n      0xddf252ad1be2c89b69c2b068fc378daa952ba7f163c4a11628f55a4df523b3ef\n        /* \"contracts/token/ERC20Upgradeable.sol\":4312:4318  amount */\n      dup5\n        /* \"contracts/token/ERC20Upgradeable.sol\":4285:4319  Transfer(from, address(0), amount) */\n      mload(0x40)\n      tag_497\n      swap2\n      swap1\n      tag_45\n      jump\t// in\n    tag_497:\n      mload(0x40)\n      dup1\n      swap2\n      sub\n      swap1\n      log3\n        /* \"contracts/token/ERC20Upgradeable.sol\":4043:4326  {... */\n      pop\n        /* \"contracts/token/ERC20Upgradeable.sol\":3981:4326  function _burn(address from, uint256 amount) internal virtual {... */\n      pop\n      pop\n      jump\t// out\n        /* \"contracts/proxy/UUPSUpgradeable.sol\":3266:3453  function _setImplementation(address newImplementation) private {... */\n    tag_437:\n        /* \"contracts/proxy/UUPSUpgradeable.sol\":3339:3351  bytes32 slot */\n      0x00\n        /* \"contracts/proxy/UUPSUpgradeable.sol\":793:859  0x360894A13BA1A3210667C828492DB98DCA3E2076CC3735A920A3CA505D382BBC */\n      0x360894a13ba1a3210667c828492db98dca3e2076cc3735a920a3ca505d382bbc\n        /* \"contracts/proxy/UUPSUpgradeable.sol\":3354:3373  IMPLEMENTATION_SLOT */\n      0x00\n      shl\n        /* \"contracts/proxy/UUPSUpgradeable.sol\":3339:3373  bytes32 slot = IMPLEMENTATION_SLOT */\n      swap1\n      pop\n        /* \"contracts/proxy/UUPSUpgradeable.sol\":3419:3436  newImplementation */\n      dup2\n        /* \"contracts/proxy/UUPSUpgradeable.sol\":3413:3417  slot */\n      dup2\n        /* \"contracts/proxy/UUPSUpgradeable.sol\":3406:3437  sstore(slot, newImplementation) */\n      sstore\n        /* \"contracts/proxy/UUPSUpgradeable.sol\":3392:3447  {... */\n      pop\n        /* \"contracts/proxy/UUPSUpgradeable.sol\":3266:3453  function _setImplementation(address newImplementation) private {... */\n      pop\n      jump\t// out\n        /* \"contracts/token/ERC20Upgradeable.sol\":1258:1504  function __ERC20_init(string memory name_, string memory symbol_, uint8 decimals_) internal {... */\n    tag_454:\n        /* \"contracts/token/ERC20Upgradeable.sol\":1391:1392  0 */\n      0x00\n        /* \"contracts/token/ERC20Upgradeable.sol\":1374:1379  _name */\n      0x01\n        /* \"contracts/token/ERC20Upgradeable.sol\":1368:1387  bytes(_name).length */\n      dup1\n      sload\n      tag_500\n      swap1\n      tag_220\n      jump\t// in\n    tag_500:\n      swap1\n      pop\n        /* \"contracts/token/ERC20Upgradeable.sol\":1368:1392  bytes(_name).length == 0 */\n      eq\n        /* \"contracts/token/ERC20Upgradeable.sol\":1360:1416  require(bytes(_name).length == 0, \"ALREADY_INITIALIZED\") */\n      tag_501\n      jumpi\n      mload(0x40)\n      0x08c379a000000000000000000000000000000000000000000000000000000000\n      dup2\n      mstore\n      0x04\n      add\n      tag_502\n      swap1\n      tag_270\n      jump\t// in\n    tag_502:\n      mload(0x40)\n      dup1\n      swap2\n      sub\n      swap1\n      revert\n    tag_501:\n        /* \"contracts/token/ERC20Upgradeable.sol\":1434:1439  name_ */\n      dup3\n        /* \"contracts/token/ERC20Upgradeable.sol\":1426:1431  _name */\n      0x01\n        /* \"contracts/token/ERC20Upgradeable.sol\":1426:1439  _name = name_ */\n      swap1\n      dup2\n      tag_503\n      swap2\n      swap1\n      tag_504\n      jump\t// in\n    tag_503:\n      pop\n        /* \"contracts/token/ERC20Upgradeable.sol\":1459:1466  symbol_ */\n      dup2\n        /* \"contracts/token/ERC20Upgradeable.sol\":1449:1456  _symbol */\n      0x02\n        /* \"contracts/token/ERC20Upgradeable.sol\":1449:1466  _symbol = symbol_ */\n      swap1\n      dup2\n      tag_505\n      swap2\n      swap1\n      tag_504\n      jump\t// in\n    tag_505:\n      pop\n        /* \"contracts/token/ERC20Upgradeable.sol\":1488:1497  decimals_ */\n      dup1\n        /* \"contracts/token/ERC20Upgradeable.sol\":1476:1485  _decimals */\n      0x03\n      0x00\n        /* \"contracts/token/ERC20Upgradeable.sol\":1476:1497  _decimals = decimals_ */\n      0x0100\n      exp\n      dup2\n      sload\n      dup2\n      0xff\n      mul\n      not\n      and\n      swap1\n      dup4\n      0xff\n      and\n      mul\n      or\n      swap1\n      sstore\n      pop\n        /* \"contracts/token/ERC20Upgradeable.sol\":1258:1504  function __ERC20_init(string memory name_, string memory symbol_, uint8 decimals_) internal {... */\n      pop\n      pop\n      pop\n      jump\t// out\n        /* \"#utility.yul\":7:84   */\n    tag_506:\n        /* \"#utility.yul\":44:51   */\n      0x00\n        /* \"#utility.yul\":73:78   */\n      dup2\n        /* \"#utility.yul\":62:78   */\n      swap1\n      pop\n        /* \"#utility.yul\":7:84   */\n      swap2\n      swap1\n      pop\n      jump\t// out\n        /* \"#utility.yul\":90:208   */\n    tag_507:\n        /* \"#utility.yul\":177:201   */\n      tag_593\n        /* \"#utility.yul\":195:200   */\n      dup2\n        /* \"#utility.yul\":177:201   */\n      tag_506\n      jump\t// in\n    tag_593:\n        /* \"#utility.yul\":172:175   */\n      dup3\n        /* \"#utility.yul\":165:202   */\n      mstore\n        /* \"#utility.yul\":90:208   */\n      pop\n      pop\n      jump\t// out\n        /* \"#utility.yul\":214:436   */\n    tag_45:\n        /* \"#utility.yul\":307:311   */\n      0x00\n        /* \"#utility.yul\":345:347   */\n      0x20\n        /* \"#utility.yul\":334:343   */\n      dup3\n        /* \"#utility.yul\":330:348   */\n      add\n        /* \"#utility.yul\":322:348   */\n      swap1\n      pop\n        /* \"#utility.yul\":358:429   */\n      tag_595\n        /* \"#utility.yul\":426:427   */\n      0x00\n        /* \"#utility.yul\":415:424   */\n      dup4\n        /* \"#utility.yul\":411:428   */\n      add\n        /* \"#utility.yul\":402:408   */\n      dup5\n        /* \"#utility.yul\":358:429   */\n      tag_507\n      jump\t// in\n    tag_595:\n        /* \"#utility.yul\":214:436   */\n      swap3\n      swap2\n      pop\n      pop\n      jump\t// out\n        /* \"#utility.yul\":442:541   */\n    tag_508:\n        /* \"#utility.yul\":494:500   */\n      0x00\n        /* \"#utility.yul\":528:533   */\n      dup2\n        /* \"#utility.yul\":522:534   */\n      mload\n        /* \"#utility.yul\":512:534   */\n      swap1\n      pop\n        /* \"#utility.yul\":442:541   */\n      swap2\n      swap1\n      pop\n      jump\t// out\n        /* \"#utility.yul\":547:716   */\n    tag_509:\n        /* \"#utility.yul\":631:642   */\n      0x00\n        /* \"#utility.yul\":665:671   */\n      dup3\n        /* \"#utility.yul\":660:663   */\n      dup3\n        /* \"#utility.yul\":653:672   */\n      mstore\n        /* \"#utility.yul\":705:709   */\n      0x20\n        /* \"#utility.yul\":700:703   */\n      dup3\n        /* \"#utility.yul\":696:710   */\n      add\n        /* \"#utility.yul\":681:710   */\n      swap1\n      pop\n        /* \"#utility.yul\":547:716   */\n      swap3\n      swap2\n      pop\n      pop\n      jump\t// out\n        /* \"#utility.yul\":722:861   */\n    tag_510:\n        /* \"#utility.yul\":811:817   */\n      dup3\n        /* \"#utility.yul\":806:809   */\n      dup2\n        /* \"#utility.yul\":801:804   */\n      dup4\n        /* \"#utility.yul\":795:818   */\n      mcopy\n        /* \"#utility.yul\":852:853   */\n      0x00\n        /* \"#utility.yul\":843:849   */\n      dup4\n        /* \"#utility.yul\":838:841   */\n      dup4\n        /* \"#utility.yul\":834:850   */\n      add\n        /* \"#utility.yul\":827:854   */\n      mstore\n        /* \"#utility.yul\":722:861   */\n      pop\n      pop\n      pop\n      jump\t// out\n        /* \"#utility.yul\":867:969   */\n    tag_511:\n        /* \"#utility.yul\":908:914   */\n      0x00\n        /* \"#utility.yul\":959:961   */\n      0x1f\n        /* \"#utility.yul\":955:962   */\n      not\n        /* \"#utility.yul\":950:952   */\n      0x1f\n        /* \"#utility.yul\":943:948   */\n      dup4\n        /* \"#utility.yul\":939:953   */\n      add\n        /* \"#utility.yul\":935:963   */\n      and\n        /* \"#utility.yul\":925:963   */\n      swap1\n      pop\n        /* \"#utility.yul\":867:969   */\n      swap2\n      swap1\n      pop\n      jump\t// out\n        /* \"#utility.yul\":975:1352   */\n    tag_512:\n        /* \"#utility.yul\":1063:1066   */\n      0x00\n        /* \"#utility.yul\":1091:1130   */\n      tag_601\n        /* \"#utility.yul\":1124:1129   */\n      dup3\n        /* \"#utility.yul\":1091:1130   */\n      tag_508\n      jump\t// in\n    tag_601:\n        /* \"#utility.yul\":1146:1217   */\n      tag_602\n        /* \"#utility.yul\":1210:1216   */\n      dup2\n        /* \"#utility.yul\":1205:1208   */\n      dup6\n        /* \"#utility.yul\":1146:1217   */\n      tag_509\n      jump\t// in\n    tag_602:\n        /* \"#utility.yul\":1139:1217   */\n      swap4\n      pop\n        /* \"#utility.yul\":1226:1291   */\n      tag_603\n        /* \"#utility.yul\":1284:1290   */\n      dup2\n        /* \"#utility.yul\":1279:1282   */\n      dup6\n        /* \"#utility.yul\":1272:1276   */\n      0x20\n        /* \"#utility.yul\":1265:1270   */\n      dup7\n        /* \"#utility.yul\":1261:1277   */\n      add\n        /* \"#utility.yul\":1226:1291   */\n      tag_510\n      jump\t// in\n    tag_603:\n        /* \"#utility.yul\":1316:1345   */\n      tag_604\n        /* \"#utility.yul\":1338:1344   */\n      dup2\n        /* \"#utility.yul\":1316:1345   */\n      tag_511\n      jump\t// in\n    tag_604:\n        /* \"#utility.yul\":1311:1314   */\n      dup5\n        /* \"#utility.yul\":1307:1346   */\n      add\n        /* \"#utility.yul\":1300:1346   */\n      swap2\n      pop\n        /* \"#utility.yul\":1067:1352   */\n      pop\n        /* \"#utility.yul\":975:1352   */\n      swap3\n      swap2\n      pop\n      pop\n      jump\t// out\n        /* \"#utility.yul\":1358:1671   */\n    tag_50:\n        /* \"#utility.yul\":1471:1475   */\n      0x00\n        /* \"#utility.yul\":1509:1511   */\n      0x20\n        /* \"#utility.yul\":1498:1507   */\n      dup3\n        /* \"#utility.yul\":1494:1512   */\n      add\n        /* \"#utility.yul\":1486:1512   */\n      swap1\n      pop\n        /* \"#utility.yul\":1558:1567   */\n      dup2\n        /* \"#utility.yul\":1552:1556   */\n      dup2\n        /* \"#utility.yul\":1548:1568   */\n      sub\n        /* \"#utility.yul\":1544:1545   */\n      0x00\n        /* \"#utility.yul\":1533:1542   */\n      dup4\n        /* \"#utility.yul\":1529:1546   */\n      add\n        /* \"#utility.yul\":1522:1569   */\n      mstore\n        /* \"#utility.yul\":1586:1664   */\n      tag_606\n        /* \"#utility.yul\":1659:1663   */\n      dup2\n        /* \"#utility.yul\":1650:1656   */\n      dup5\n        /* \"#utility.yul\":1586:1664   */\n      tag_512\n      jump\t// in\n    tag_606:\n        /* \"#utility.yul\":1578:1664   */\n      swap1\n      pop\n        /* \"#utility.yul\":1358:1671   */\n      swap3\n      swap2\n      pop\n      pop\n      jump\t// out\n        /* \"#utility.yul\":1758:1875   */\n    tag_514:\n        /* \"#utility.yul\":1867:1868   */\n      0x00\n        /* \"#utility.yul\":1864:1865   */\n      0x00\n        /* \"#utility.yul\":1857:1869   */\n      revert\n        /* \"#utility.yul\":1881:1998   */\n    tag_515:\n        /* \"#utility.yul\":1990:1991   */\n      0x00\n        /* \"#utility.yul\":1987:1988   */\n      0x00\n        /* \"#utility.yul\":1980:1992   */\n      revert\n        /* \"#utility.yul\":2004:2126   */\n    tag_516:\n        /* \"#utility.yul\":2077:2101   */\n      tag_611\n        /* \"#utility.yul\":2095:2100   */\n      dup2\n        /* \"#utility.yul\":2077:2101   */\n      tag_506\n      jump\t// in\n    tag_611:\n        /* \"#utility.yul\":2070:2075   */\n      dup2\n        /* \"#utility.yul\":2067:2102   */\n      eq\n        /* \"#utility.yul\":2057:2120   */\n      tag_612\n      jumpi\n        /* \"#utility.yul\":2116:2117   */\n      0x00\n        /* \"#utility.yul\":2113:2114   */\n      0x00\n        /* \"#utility.yul\":2106:2118   */\n      revert\n        /* \"#utility.yul\":2057:2120   */\n    tag_612:\n        /* \"#utility.yul\":2004:2126   */\n      pop\n      jump\t// out\n        /* \"#utility.yul\":2132:2271   */\n    tag_517:\n        /* \"#utility.yul\":2178:2183   */\n      0x00\n        /* \"#utility.yul\":2216:2222   */\n      dup2\n        /* \"#utility.yul\":2203:2223   */\n      calldataload\n        /* \"#utility.yul\":2194:2223   */\n      swap1\n      pop\n        /* \"#utility.yul\":2232:2265   */\n      tag_614\n        /* \"#utility.yul\":2259:2264   */\n      dup2\n        /* \"#utility.yul\":2232:2265   */\n      tag_516\n      jump\t// in\n    tag_614:\n        /* \"#utility.yul\":2132:2271   */\n      swap3\n      swap2\n      pop\n      pop\n      jump\t// out\n        /* \"#utility.yul\":2277:2606   */\n    tag_54:\n        /* \"#utility.yul\":2336:2342   */\n      0x00\n        /* \"#utility.yul\":2385:2387   */\n      0x20\n        /* \"#utility.yul\":2373:2382   */\n      dup3\n        /* \"#utility.yul\":2364:2371   */\n      dup5\n        /* \"#utility.yul\":2360:2383   */\n      sub\n        /* \"#utility.yul\":2356:2388   */\n      slt\n        /* \"#utility.yul\":2353:2472   */\n      iszero\n      tag_616\n      jumpi\n        /* \"#utility.yul\":2391:2470   */\n      tag_617\n      tag_514\n      jump\t// in\n    tag_617:\n        /* \"#utility.yul\":2353:2472   */\n    tag_616:\n        /* \"#utility.yul\":2511:2512   */\n      0x00\n        /* \"#utility.yul\":2536:2589   */\n      tag_618\n        /* \"#utility.yul\":2581:2588   */\n      dup5\n        /* \"#utility.yul\":2572:2578   */\n      dup3\n        /* \"#utility.yul\":2561:2570   */\n      dup6\n        /* \"#utility.yul\":2557:2579   */\n      add\n        /* \"#utility.yul\":2536:2589   */\n      tag_517\n      jump\t// in\n    tag_618:\n        /* \"#utility.yul\":2526:2589   */\n      swap2\n      pop\n        /* \"#utility.yul\":2482:2599   */\n      pop\n        /* \"#utility.yul\":2277:2606   */\n      swap3\n      swap2\n      pop\n      pop\n      jump\t// out\n        /* \"#utility.yul\":2612:2738   */\n    tag_518:\n        /* \"#utility.yul\":2649:2656   */\n      0x00\n        /* \"#utility.yul\":2689:2731   */\n      0xffffffffffffffffffffffffffffffffffffffff\n        /* \"#utility.yul\":2682:2687   */\n      dup3\n        /* \"#utility.yul\":2678:2732   */\n      and\n        /* \"#utility.yul\":2667:2732   */\n      swap1\n      pop\n        /* \"#utility.yul\":2612:2738   */\n      swap2\n      swap1\n      pop\n      jump\t// out\n        /* \"#utility.yul\":2744:2840   */\n    tag_519:\n        /* \"#utility.yul\":2781:2788   */\n      0x00\n        /* \"#utility.yul\":2810:2834   */\n      tag_621\n        /* \"#utility.yul\":2828:2833   */\n      dup3\n        /* \"#utility.yul\":2810:2834   */\n      tag_518\n      jump\t// in\n    tag_621:\n        /* \"#utility.yul\":2799:2834   */\n      swap1\n      pop\n        /* \"#utility.yul\":2744:2840   */\n      swap2\n      swap1\n      pop\n      jump\t// out\n        /* \"#utility.yul\":2846:2968   */\n    tag_520:\n        /* \"#utility.yul\":2919:2943   */\n      tag_623\n        /* \"#utility.yul\":2937:2942   */\n      dup2\n        /* \"#utility.yul\":2919:2943   */\n      tag_519\n      jump\t// in\n    tag_623:\n        /* \"#utility.yul\":2912:2917   */\n      dup2\n        /* \"#utility.yul\":2909:2944   */\n      eq\n        /* \"#utility.yul\":2899:2962   */\n      tag_624\n      jumpi\n        /* \"#utility.yul\":2958:2959   */\n      0x00\n        /* \"#utility.yul\":2955:2956   */\n      0x00\n        /* \"#utility.yul\":2948:2960   */\n      revert\n        /* \"#utility.yul\":2899:2962   */\n    tag_624:\n        /* \"#utility.yul\":2846:2968   */\n      pop\n      jump\t// out\n        /* \"#utility.yul\":2974:3113   */\n    tag_521:\n        /* \"#utility.yul\":3020:3025   */\n      0x00\n        /* \"#utility.yul\":3058:3064   */\n      dup2\n        /* \"#utility.yul\":3045:3065   */\n      calldataload\n        /* \"#utility.yul\":3036:3065   */\n      swap1\n      pop\n        /* \"#utility.yul\":3074:3107   */\n      tag_626\n        /* \"#utility.yul\":3101:3106   */\n      dup2\n        /* \"#utility.yul\":3074:3107   */\n      tag_520\n      jump\t// in\n    tag_626:\n        /* \"#utility.yul\":2974:3113   */\n      swap3\n      swap2\n      pop\n      pop\n      jump\t// out\n        /* \"#utility.yul\":3119:3593   */\n    tag_60:\n        /* \"#utility.yul\":3187:3193   */\n      0x00\n        /* \"#utility.yul\":3195:3201   */\n      0x00\n        /* \"#utility.yul\":3244:3246   */\n      0x40\n        /* \"#utility.yul\":3232:3241   */\n      dup4\n        /* \"#utility.yul\":3223:3230   */\n      dup6\n        /* \"#utility.yul\":3219:3242   */\n      sub\n        /* \"#utility.yul\":3215:3247   */\n      slt\n        /* \"#utility.yul\":3212:3331   */\n      iszero\n      tag_628\n      jumpi\n        /* \"#utility.yul\":3250:3329   */\n      tag_629\n      tag_514\n      jump\t// in\n    tag_629:\n        /* \"#utility.yul\":3212:3331   */\n    tag_628:\n        /* \"#utility.yul\":3370:3371   */\n      0x00\n        /* \"#utility.yul\":3395:3448   */\n      tag_630\n        /* \"#utility.yul\":3440:3447   */\n      dup6\n        /* \"#utility.yul\":3431:3437   */\n      dup3\n        /* \"#utility.yul\":3420:3429   */\n      dup7\n        /* \"#utility.yul\":3416:3438   */\n      add\n        /* \"#utility.yul\":3395:3448   */\n      tag_521\n      jump\t// in\n    tag_630:\n        /* \"#utility.yul\":3385:3448   */\n      swap3\n      pop\n        /* \"#utility.yul\":3341:3458   */\n      pop\n        /* \"#utility.yul\":3497:3499   */\n      0x20\n        /* \"#utility.yul\":3523:3576   */\n      tag_631\n        /* \"#utility.yul\":3568:3575   */\n      dup6\n        /* \"#utility.yul\":3559:3565   */\n      dup3\n        /* \"#utility.yul\":3548:3557   */\n      dup7\n        /* \"#utility.yul\":3544:3566   */\n      add\n        /* \"#utility.yul\":3523:3576   */\n      tag_517\n      jump\t// in\n    tag_631:\n        /* \"#utility.yul\":3513:3576   */\n      swap2\n      pop\n        /* \"#utility.yul\":3468:3586   */\n      pop\n        /* \"#utility.yul\":3119:3593   */\n      swap3\n      pop\n      swap3\n      swap1\n      pop\n      jump\t// out\n        /* \"#utility.yul\":3599:3689   */\n    tag_522:\n        /* \"#utility.yul\":3633:3640   */\n      0x00\n        /* \"#utility.yul\":3676:3681   */\n      dup2\n        /* \"#utility.yul\":3669:3682   */\n      iszero\n        /* \"#utility.yul\":3662:3683   */\n      iszero\n        /* \"#utility.yul\":3651:3683   */\n      swap1\n      pop\n        /* \"#utility.yul\":3599:3689   */\n      swap2\n      swap1\n      pop\n      jump\t// out\n        /* \"#utility.yul\":3695:3804   */\n    tag_523:\n        /* \"#utility.yul\":3776:3797   */\n      tag_634\n        /* \"#utility.yul\":3791:3796   */\n      dup2\n        /* \"#utility.yul\":3776:3797   */\n      tag_522\n      jump\t// in\n    tag_634:\n        /* \"#utility.yul\":3771:3774   */\n      dup3\n        /* \"#utility.yul\":3764:3798   */\n      mstore\n        /* \"#utility.yul\":3695:3804   */\n      pop\n      pop\n      jump\t// out\n        /* \"#utility.yul\":3810:4020   */\n    tag_63:\n        /* \"#utility.yul\":3897:3901   */\n      0x00\n        /* \"#utility.yul\":3935:3937   */\n      0x20\n        /* \"#utility.yul\":3924:3933   */\n      dup3\n        /* \"#utility.yul\":3920:3938   */\n      add\n        /* \"#utility.yul\":3912:3938   */\n      swap1\n      pop\n        /* \"#utility.yul\":3948:4013   */\n      tag_636\n        /* \"#utility.yul\":4010:4011   */\n      0x00\n        /* \"#utility.yul\":3999:4008   */\n      dup4\n        /* \"#utility.yul\":3995:4012   */\n      add\n        /* \"#utility.yul\":3986:3992   */\n      dup5\n        /* \"#utility.yul\":3948:4013   */\n      tag_523\n      jump\t// in\n    tag_636:\n        /* \"#utility.yul\":3810:4020   */\n      swap3\n      swap2\n      pop\n      pop\n      jump\t// out\n        /* \"#utility.yul\":4026:4645   */\n    tag_71:\n        /* \"#utility.yul\":4103:4109   */\n      0x00\n        /* \"#utility.yul\":4111:4117   */\n      0x00\n        /* \"#utility.yul\":4119:4125   */\n      0x00\n        /* \"#utility.yul\":4168:4170   */\n      0x60\n        /* \"#utility.yul\":4156:4165   */\n      dup5\n        /* \"#utility.yul\":4147:4154   */\n      dup7\n        /* \"#utility.yul\":4143:4166   */\n      sub\n        /* \"#utility.yul\":4139:4171   */\n      slt\n        /* \"#utility.yul\":4136:4255   */\n      iszero\n      tag_638\n      jumpi\n        /* \"#utility.yul\":4174:4253   */\n      tag_639\n      tag_514\n      jump\t// in\n    tag_639:\n        /* \"#utility.yul\":4136:4255   */\n    tag_638:\n        /* \"#utility.yul\":4294:4295   */\n      0x00\n        /* \"#utility.yul\":4319:4372   */\n      tag_640\n        /* \"#utility.yul\":4364:4371   */\n      dup7\n        /* \"#utility.yul\":4355:4361   */\n      dup3\n        /* \"#utility.yul\":4344:4353   */\n      dup8\n        /* \"#utility.yul\":4340:4362   */\n      add\n        /* \"#utility.yul\":4319:4372   */\n      tag_521\n      jump\t// in\n    tag_640:\n        /* \"#utility.yul\":4309:4372   */\n      swap4\n      pop\n        /* \"#utility.yul\":4265:4382   */\n      pop\n        /* \"#utility.yul\":4421:4423   */\n      0x20\n        /* \"#utility.yul\":4447:4500   */\n      tag_641\n        /* \"#utility.yul\":4492:4499   */\n      dup7\n        /* \"#utility.yul\":4483:4489   */\n      dup3\n        /* \"#utility.yul\":4472:4481   */\n      dup8\n        /* \"#utility.yul\":4468:4490   */\n      add\n        /* \"#utility.yul\":4447:4500   */\n      tag_521\n      jump\t// in\n    tag_641:\n        /* \"#utility.yul\":4437:4500   */\n      swap3\n      pop\n        /* \"#utility.yul\":4392:4510   */\n      pop\n        /* \"#utility.yul\":4549:4551   */\n      0x40\n        /* \"#utility.yul\":4575:4628   */\n      tag_642\n        /* \"#utility.yul\":4620:4627   */\n      dup7\n        /* \"#utility.yul\":4611:4617   */\n      dup3\n        /* \"#utility.yul\":4600:4609   */\n      dup8\n        /* \"#utility.yul\":4596:4618   */\n      add\n        /* \"#utility.yul\":4575:4628   */\n      tag_517\n      jump\t// in\n    tag_642:\n        /* \"#utility.yul\":4565:4628   */\n      swap2\n      pop\n        /* \"#utility.yul\":4520:4638   */\n      pop\n        /* \"#utility.yul\":4026:4645   */\n      swap3\n      pop\n      swap3\n      pop\n      swap3\n      jump\t// out\n        /* \"#utility.yul\":4651:4980   */\n    tag_81:\n        /* \"#utility.yul\":4710:4716   */\n      0x00\n        /* \"#utility.yul\":4759:4761   */\n      0x20\n        /* \"#utility.yul\":4747:4756   */\n      dup3\n        /* \"#utility.yul\":4738:4745   */\n      dup5\n        /* \"#utility.yul\":4734:4757   */\n      sub\n        /* \"#utility.yul\":4730:4762   */\n      slt\n        /* \"#utility.yul\":4727:4846   */\n      iszero\n      tag_644\n      jumpi\n        /* \"#utility.yul\":4765:4844   */\n      tag_645\n      tag_514\n      jump\t// in\n    tag_645:\n        /* \"#utility.yul\":4727:4846   */\n    tag_644:\n        /* \"#utility.yul\":4885:4886   */\n      0x00\n        /* \"#utility.yul\":4910:4963   */\n      tag_646\n        /* \"#utility.yul\":4955:4962   */\n      dup5\n        /* \"#utility.yul\":4946:4952   */\n      dup3\n        /* \"#utility.yul\":4935:4944   */\n      dup6\n        /* \"#utility.yul\":4931:4953   */\n      add\n        /* \"#utility.yul\":4910:4963   */\n      tag_521\n      jump\t// in\n    tag_646:\n        /* \"#utility.yul\":4900:4963   */\n      swap2\n      pop\n        /* \"#utility.yul\":4856:4973   */\n      pop\n        /* \"#utility.yul\":4651:4980   */\n      swap3\n      swap2\n      pop\n      pop\n      jump\t// out\n        /* \"#utility.yul\":4986:5104   */\n    tag_524:\n        /* \"#utility.yul\":5073:5097   */\n      tag_648\n        /* \"#utility.yul\":5091:5096   */\n      dup2\n        /* \"#utility.yul\":5073:5097   */\n      tag_519\n      jump\t// in\n    tag_648:\n        /* \"#utility.yul\":5068:5071   */\n      dup3\n        /* \"#utility.yul\":5061:5098   */\n      mstore\n        /* \"#utility.yul\":4986:5104   */\n      pop\n      pop\n      jump\t// out\n        /* \"#utility.yul\":5110:5332   */\n    tag_87:\n        /* \"#utility.yul\":5203:5207   */\n      0x00\n        /* \"#utility.yul\":5241:5243   */\n      0x20\n        /* \"#utility.yul\":5230:5239   */\n      dup3\n        /* \"#utility.yul\":5226:5244   */\n      add\n        /* \"#utility.yul\":5218:5244   */\n      swap1\n      pop\n        /* \"#utility.yul\":5254:5325   */\n      tag_650\n        /* \"#utility.yul\":5322:5323   */\n      0x00\n        /* \"#utility.yul\":5311:5320   */\n      dup4\n        /* \"#utility.yul\":5307:5324   */\n      add\n        /* \"#utility.yul\":5298:5304   */\n      dup5\n        /* \"#utility.yul\":5254:5325   */\n      tag_524\n      jump\t// in\n    tag_650:\n        /* \"#utility.yul\":5110:5332   */\n      swap3\n      swap2\n      pop\n      pop\n      jump\t// out\n        /* \"#utility.yul\":5338:5455   */\n    tag_525:\n        /* \"#utility.yul\":5447:5448   */\n      0x00\n        /* \"#utility.yul\":5444:5445   */\n      0x00\n        /* \"#utility.yul\":5437:5449   */\n      revert\n        /* \"#utility.yul\":5461:5578   */\n    tag_526:\n        /* \"#utility.yul\":5570:5571   */\n      0x00\n        /* \"#utility.yul\":5567:5568   */\n      0x00\n        /* \"#utility.yul\":5560:5572   */\n      revert\n        /* \"#utility.yul\":5584:5701   */\n    tag_527:\n        /* \"#utility.yul\":5693:5694   */\n      0x00\n        /* \"#utility.yul\":5690:5691   */\n      0x00\n        /* \"#utility.yul\":5683:5695   */\n      revert\n        /* \"#utility.yul\":5721:6274   */\n    tag_528:\n        /* \"#utility.yul\":5779:5787   */\n      0x00\n        /* \"#utility.yul\":5789:5795   */\n      0x00\n        /* \"#utility.yul\":5839:5842   */\n      dup4\n        /* \"#utility.yul\":5832:5836   */\n      0x1f\n        /* \"#utility.yul\":5824:5830   */\n      dup5\n        /* \"#utility.yul\":5820:5837   */\n      add\n        /* \"#utility.yul\":5816:5843   */\n      slt\n        /* \"#utility.yul\":5806:5928   */\n      tag_655\n      jumpi\n        /* \"#utility.yul\":5847:5926   */\n      tag_656\n      tag_525\n      jump\t// in\n    tag_656:\n        /* \"#utility.yul\":5806:5928   */\n    tag_655:\n        /* \"#utility.yul\":5960:5966   */\n      dup3\n        /* \"#utility.yul\":5947:5967   */\n      calldataload\n        /* \"#utility.yul\":5937:5967   */\n      swap1\n      pop\n        /* \"#utility.yul\":5990:6008   */\n      0xffffffffffffffff\n        /* \"#utility.yul\":5982:5988   */\n      dup2\n        /* \"#utility.yul\":5979:6009   */\n      gt\n        /* \"#utility.yul\":5976:6093   */\n      iszero\n      tag_657\n      jumpi\n        /* \"#utility.yul\":6012:6091   */\n      tag_658\n      tag_526\n      jump\t// in\n    tag_658:\n        /* \"#utility.yul\":5976:6093   */\n    tag_657:\n        /* \"#utility.yul\":6126:6130   */\n      0x20\n        /* \"#utility.yul\":6118:6124   */\n      dup4\n        /* \"#utility.yul\":6114:6131   */\n      add\n        /* \"#utility.yul\":6102:6131   */\n      swap2\n      pop\n        /* \"#utility.yul\":6180:6183   */\n      dup4\n        /* \"#utility.yul\":6172:6176   */\n      0x01\n        /* \"#utility.yul\":6164:6170   */\n      dup3\n        /* \"#utility.yul\":6160:6177   */\n      mul\n        /* \"#utility.yul\":6150:6158   */\n      dup4\n        /* \"#utility.yul\":6146:6178   */\n      add\n        /* \"#utility.yul\":6143:6184   */\n      gt\n        /* \"#utility.yul\":6140:6268   */\n      iszero\n      tag_659\n      jumpi\n        /* \"#utility.yul\":6187:6266   */\n      tag_660\n      tag_527\n      jump\t// in\n    tag_660:\n        /* \"#utility.yul\":6140:6268   */\n    tag_659:\n        /* \"#utility.yul\":5721:6274   */\n      swap3\n      pop\n      swap3\n      swap1\n      pop\n      jump\t// out\n        /* \"#utility.yul\":6280:8083   */\n    tag_95:\n        /* \"#utility.yul\":6429:6435   */\n      0x00\n        /* \"#utility.yul\":6437:6443   */\n      0x00\n        /* \"#utility.yul\":6445:6451   */\n      0x00\n        /* \"#utility.yul\":6453:6459   */\n      0x00\n        /* \"#utility.yul\":6461:6467   */\n      0x00\n        /* \"#utility.yul\":6469:6475   */\n      0x00\n        /* \"#utility.yul\":6477:6483   */\n      0x00\n        /* \"#utility.yul\":6485:6491   */\n      0x00\n        /* \"#utility.yul\":6493:6499   */\n      0x00\n        /* \"#utility.yul\":6501:6507   */\n      0x00\n        /* \"#utility.yul\":6550:6553   */\n      0xe0\n        /* \"#utility.yul\":6538:6547   */\n      dup12\n        /* \"#utility.yul\":6529:6536   */\n      dup14\n        /* \"#utility.yul\":6525:6548   */\n      sub\n        /* \"#utility.yul\":6521:6554   */\n      slt\n        /* \"#utility.yul\":6518:6638   */\n      iszero\n      tag_662\n      jumpi\n        /* \"#utility.yul\":6557:6636   */\n      tag_663\n      tag_514\n      jump\t// in\n    tag_663:\n        /* \"#utility.yul\":6518:6638   */\n    tag_662:\n        /* \"#utility.yul\":6677:6678   */\n      0x00\n        /* \"#utility.yul\":6702:6755   */\n      tag_664\n        /* \"#utility.yul\":6747:6754   */\n      dup14\n        /* \"#utility.yul\":6738:6744   */\n      dup3\n        /* \"#utility.yul\":6727:6736   */\n      dup15\n        /* \"#utility.yul\":6723:6745   */\n      add\n        /* \"#utility.yul\":6702:6755   */\n      tag_521\n      jump\t// in\n    tag_664:\n        /* \"#utility.yul\":6692:6755   */\n      swap11\n      pop\n        /* \"#utility.yul\":6648:6765   */\n      pop\n        /* \"#utility.yul\":6804:6806   */\n      0x20\n        /* \"#utility.yul\":6830:6883   */\n      tag_665\n        /* \"#utility.yul\":6875:6882   */\n      dup14\n        /* \"#utility.yul\":6866:6872   */\n      dup3\n        /* \"#utility.yul\":6855:6864   */\n      dup15\n        /* \"#utility.yul\":6851:6873   */\n      add\n        /* \"#utility.yul\":6830:6883   */\n      tag_521\n      jump\t// in\n    tag_665:\n        /* \"#utility.yul\":6820:6883   */\n      swap10\n      pop\n        /* \"#utility.yul\":6775:6893   */\n      pop\n        /* \"#utility.yul\":6960:6962   */\n      0x40\n        /* \"#utility.yul\":6949:6958   */\n      dup12\n        /* \"#utility.yul\":6945:6963   */\n      add\n        /* \"#utility.yul\":6932:6964   */\n      calldataload\n        /* \"#utility.yul\":6991:7009   */\n      0xffffffffffffffff\n        /* \"#utility.yul\":6983:6989   */\n      dup2\n        /* \"#utility.yul\":6980:7010   */\n      gt\n        /* \"#utility.yul\":6977:7094   */\n      iszero\n      tag_666\n      jumpi\n        /* \"#utility.yul\":7013:7092   */\n      tag_667\n      tag_515\n      jump\t// in\n    tag_667:\n        /* \"#utility.yul\":6977:7094   */\n    tag_666:\n        /* \"#utility.yul\":7126:7191   */\n      tag_668\n        /* \"#utility.yul\":7183:7190   */\n      dup14\n        /* \"#utility.yul\":7174:7180   */\n      dup3\n        /* \"#utility.yul\":7163:7172   */\n      dup15\n        /* \"#utility.yul\":7159:7181   */\n      add\n        /* \"#utility.yul\":7126:7191   */\n      tag_528\n      jump\t// in\n    tag_668:\n        /* \"#utility.yul\":7108:7191   */\n      swap9\n      pop\n      swap9\n      pop\n        /* \"#utility.yul\":6903:7201   */\n      pop\n        /* \"#utility.yul\":7268:7270   */\n      0x60\n        /* \"#utility.yul\":7257:7266   */\n      dup12\n        /* \"#utility.yul\":7253:7271   */\n      add\n        /* \"#utility.yul\":7240:7272   */\n      calldataload\n        /* \"#utility.yul\":7299:7317   */\n      0xffffffffffffffff\n        /* \"#utility.yul\":7291:7297   */\n      dup2\n        /* \"#utility.yul\":7288:7318   */\n      gt\n        /* \"#utility.yul\":7285:7402   */\n      iszero\n      tag_669\n      jumpi\n        /* \"#utility.yul\":7321:7400   */\n      tag_670\n      tag_515\n      jump\t// in\n    tag_670:\n        /* \"#utility.yul\":7285:7402   */\n    tag_669:\n        /* \"#utility.yul\":7434:7499   */\n      tag_671\n        /* \"#utility.yul\":7491:7498   */\n      dup14\n        /* \"#utility.yul\":7482:7488   */\n      dup3\n        /* \"#utility.yul\":7471:7480   */\n      dup15\n        /* \"#utility.yul\":7467:7489   */\n      add\n        /* \"#utility.yul\":7434:7499   */\n      tag_528\n      jump\t// in\n    tag_671:\n        /* \"#utility.yul\":7416:7499   */\n      swap7\n      pop\n      swap7\n      pop\n        /* \"#utility.yul\":7211:7509   */\n      pop\n        /* \"#utility.yul\":7576:7579   */\n      0x80\n        /* \"#utility.yul\":7565:7574   */\n      dup12\n        /* \"#utility.yul\":7561:7580   */\n      add\n        /* \"#utility.yul\":7548:7581   */\n      calldataload\n        /* \"#utility.yul\":7608:7626   */\n      0xffffffffffffffff\n        /* \"#utility.yul\":7600:7606   */\n      dup2\n        /* \"#utility.yul\":7597:7627   */\n      gt\n        /* \"#utility.yul\":7594:7711   */\n      iszero\n      tag_672\n      jumpi\n        /* \"#utility.yul\":7630:7709   */\n      tag_673\n      tag_515\n      jump\t// in\n    tag_673:\n        /* \"#utility.yul\":7594:7711   */\n    tag_672:\n        /* \"#utility.yul\":7743:7808   */\n      tag_674\n        /* \"#utility.yul\":7800:7807   */\n      dup14\n        /* \"#utility.yul\":7791:7797   */\n      dup3\n        /* \"#utility.yul\":7780:7789   */\n      dup15\n        /* \"#utility.yul\":7776:7798   */\n      add\n        /* \"#utility.yul\":7743:7808   */\n      tag_528\n      jump\t// in\n    tag_674:\n        /* \"#utility.yul\":7725:7808   */\n      swap5\n      pop\n      swap5\n      pop\n        /* \"#utility.yul\":7519:7818   */\n      pop\n        /* \"#utility.yul\":7857:7860   */\n      0xa0\n        /* \"#utility.yul\":7884:7937   */\n      tag_675\n        /* \"#utility.yul\":7929:7936   */\n      dup14\n        /* \"#utility.yul\":7920:7926   */\n      dup3\n        /* \"#utility.yul\":7909:7918   */\n      dup15\n        /* \"#utility.yul\":7905:7927   */\n      add\n        /* \"#utility.yul\":7884:7937   */\n      tag_517\n      jump\t// in\n    tag_675:\n        /* \"#utility.yul\":7874:7937   */\n      swap3\n      pop\n        /* \"#utility.yul\":7828:7947   */\n      pop\n        /* \"#utility.yul\":7986:7989   */\n      0xc0\n        /* \"#utility.yul\":8013:8066   */\n      tag_676\n        /* \"#utility.yul\":8058:8065   */\n      dup14\n        /* \"#utility.yul\":8049:8055   */\n      dup3\n        /* \"#utility.yul\":8038:8047   */\n      dup15\n        /* \"#utility.yul\":8034:8056   */\n      add\n        /* \"#utility.yul\":8013:8066   */\n      tag_517\n      jump\t// in\n    tag_676:\n        /* \"#utility.yul\":8003:8066   */\n      swap2\n      pop\n        /* \"#utility.yul\":7957:8076   */\n      pop\n        /* \"#utility.yul\":6280:8083   */\n      swap3\n      swap6\n      swap9\n      swap12\n      swap2\n      swap5\n      swap8\n      swap11\n      pop\n      swap3\n      swap6\n      swap9\n      pop\n      jump\t// out\n        /* \"#utility.yul\":8102:8654   */\n    tag_529:\n        /* \"#utility.yul\":8159:8167   */\n      0x00\n        /* \"#utility.yul\":8169:8175   */\n      0x00\n        /* \"#utility.yul\":8219:8222   */\n      dup4\n        /* \"#utility.yul\":8212:8216   */\n      0x1f\n        /* \"#utility.yul\":8204:8210   */\n      dup5\n        /* \"#utility.yul\":8200:8217   */\n      add\n        /* \"#utility.yul\":8196:8223   */\n      slt\n        /* \"#utility.yul\":8186:8308   */\n      tag_678\n      jumpi\n        /* \"#utility.yul\":8227:8306   */\n      tag_679\n      tag_525\n      jump\t// in\n    tag_679:\n        /* \"#utility.yul\":8186:8308   */\n    tag_678:\n        /* \"#utility.yul\":8340:8346   */\n      dup3\n        /* \"#utility.yul\":8327:8347   */\n      calldataload\n        /* \"#utility.yul\":8317:8347   */\n      swap1\n      pop\n        /* \"#utility.yul\":8370:8388   */\n      0xffffffffffffffff\n        /* \"#utility.yul\":8362:8368   */\n      dup2\n        /* \"#utility.yul\":8359:8389   */\n      gt\n        /* \"#utility.yul\":8356:8473   */\n      iszero\n      tag_680\n      jumpi\n        /* \"#utility.yul\":8392:8471   */\n      tag_681\n      tag_526\n      jump\t// in\n    tag_681:\n        /* \"#utility.yul\":8356:8473   */\n    tag_680:\n        /* \"#utility.yul\":8506:8510   */\n      0x20\n        /* \"#utility.yul\":8498:8504   */\n      dup4\n        /* \"#utility.yul\":8494:8511   */\n      add\n        /* \"#utility.yul\":8482:8511   */\n      swap2\n      pop\n        /* \"#utility.yul\":8560:8563   */\n      dup4\n        /* \"#utility.yul\":8552:8556   */\n      0x01\n        /* \"#utility.yul\":8544:8550   */\n      dup3\n        /* \"#utility.yul\":8540:8557   */\n      mul\n        /* \"#utility.yul\":8530:8538   */\n      dup4\n        /* \"#utility.yul\":8526:8558   */\n      add\n        /* \"#utility.yul\":8523:8564   */\n      gt\n        /* \"#utility.yul\":8520:8648   */\n      iszero\n      tag_682\n      jumpi\n        /* \"#utility.yul\":8567:8646   */\n      tag_683\n      tag_527\n      jump\t// in\n    tag_683:\n        /* \"#utility.yul\":8520:8648   */\n    tag_682:\n        /* \"#utility.yul\":8102:8654   */\n      swap3\n      pop\n      swap3\n      swap1\n      pop\n      jump\t// out\n        /* \"#utility.yul\":8660:9332   */\n    tag_107:\n        /* \"#utility.yul\":8739:8745   */\n      0x00\n        /* \"#utility.yul\":8747:8753   */\n      0x00\n        /* \"#utility.yul\":8755:8761   */\n      0x00\n        /* \"#utility.yul\":8804:8806   */\n      0x40\n        /* \"#utility.yul\":8792:8801   */\n      dup5\n        /* \"#utility.yul\":8783:8790   */\n      dup7\n        /* \"#utility.yul\":8779:8802   */\n      sub\n        /* \"#utility.yul\":8775:8807   */\n      slt\n        /* \"#utility.yul\":8772:8891   */\n      iszero\n      tag_685\n      jumpi\n        /* \"#utility.yul\":8810:8889   */\n      tag_686\n      tag_514\n      jump\t// in\n    tag_686:\n        /* \"#utility.yul\":8772:8891   */\n    tag_685:\n        /* \"#utility.yul\":8930:8931   */\n      0x00\n        /* \"#utility.yul\":8955:9008   */\n      tag_687\n        /* \"#utility.yul\":9000:9007   */\n      dup7\n        /* \"#utility.yul\":8991:8997   */\n      dup3\n        /* \"#utility.yul\":8980:8989   */\n      dup8\n        /* \"#utility.yul\":8976:8998   */\n      add\n        /* \"#utility.yul\":8955:9008   */\n      tag_521\n      jump\t// in\n    tag_687:\n        /* \"#utility.yul\":8945:9008   */\n      swap4\n      pop\n        /* \"#utility.yul\":8901:9018   */\n      pop\n        /* \"#utility.yul\":9085:9087   */\n      0x20\n        /* \"#utility.yul\":9074:9083   */\n      dup5\n        /* \"#utility.yul\":9070:9088   */\n      add\n        /* \"#utility.yul\":9057:9089   */\n      calldataload\n        /* \"#utility.yul\":9116:9134   */\n      0xffffffffffffffff\n        /* \"#utility.yul\":9108:9114   */\n      dup2\n        /* \"#utility.yul\":9105:9135   */\n      gt\n        /* \"#utility.yul\":9102:9219   */\n      iszero\n      tag_688\n      jumpi\n        /* \"#utility.yul\":9138:9217   */\n      tag_689\n      tag_515\n      jump\t// in\n    tag_689:\n        /* \"#utility.yul\":9102:9219   */\n    tag_688:\n        /* \"#utility.yul\":9251:9315   */\n      tag_690\n        /* \"#utility.yul\":9307:9314   */\n      dup7\n        /* \"#utility.yul\":9298:9304   */\n      dup3\n        /* \"#utility.yul\":9287:9296   */\n      dup8\n        /* \"#utility.yul\":9283:9305   */\n      add\n        /* \"#utility.yul\":9251:9315   */\n      tag_529\n      jump\t// in\n    tag_690:\n        /* \"#utility.yul\":9233:9315   */\n      swap3\n      pop\n      swap3\n      pop\n        /* \"#utility.yul\":9028:9325   */\n      pop\n        /* \"#utility.yul\":8660:9332   */\n      swap3\n      pop\n      swap3\n      pop\n      swap3\n      jump\t// out\n        /* \"#utility.yul\":9338:9415   */\n    tag_530:\n        /* \"#utility.yul\":9375:9382   */\n      0x00\n        /* \"#utility.yul\":9404:9409   */\n      dup2\n        /* \"#utility.yul\":9393:9409   */\n      swap1\n      pop\n        /* \"#utility.yul\":9338:9415   */\n      swap2\n      swap1\n      pop\n      jump\t// out\n        /* \"#utility.yul\":9421:9539   */\n    tag_531:\n        /* \"#utility.yul\":9508:9532   */\n      tag_693\n        /* \"#utility.yul\":9526:9531   */\n      dup2\n        /* \"#utility.yul\":9508:9532   */\n      tag_530\n      jump\t// in\n    tag_693:\n        /* \"#utility.yul\":9503:9506   */\n      dup3\n        /* \"#utility.yul\":9496:9533   */\n      mstore\n        /* \"#utility.yul\":9421:9539   */\n      pop\n      pop\n      jump\t// out\n        /* \"#utility.yul\":9545:9767   */\n    tag_113:\n        /* \"#utility.yul\":9638:9642   */\n      0x00\n        /* \"#utility.yul\":9676:9678   */\n      0x20\n        /* \"#utility.yul\":9665:9674   */\n      dup3\n        /* \"#utility.yul\":9661:9679   */\n      add\n        /* \"#utility.yul\":9653:9679   */\n      swap1\n      pop\n        /* \"#utility.yul\":9689:9760   */\n      tag_695\n        /* \"#utility.yul\":9757:9758   */\n      0x00\n        /* \"#utility.yul\":9746:9755   */\n      dup4\n        /* \"#utility.yul\":9742:9759   */\n      add\n        /* \"#utility.yul\":9733:9739   */\n      dup5\n        /* \"#utility.yul\":9689:9760   */\n      tag_531\n      jump\t// in\n    tag_695:\n        /* \"#utility.yul\":9545:9767   */\n      swap3\n      swap2\n      pop\n      pop\n      jump\t// out\n        /* \"#utility.yul\":9773:10247   */\n    tag_125:\n        /* \"#utility.yul\":9841:9847   */\n      0x00\n        /* \"#utility.yul\":9849:9855   */\n      0x00\n        /* \"#utility.yul\":9898:9900   */\n      0x40\n        /* \"#utility.yul\":9886:9895   */\n      dup4\n        /* \"#utility.yul\":9877:9884   */\n      dup6\n        /* \"#utility.yul\":9873:9896   */\n      sub\n        /* \"#utility.yul\":9869:9901   */\n      slt\n        /* \"#utility.yul\":9866:9985   */\n      iszero\n      tag_697\n      jumpi\n        /* \"#utility.yul\":9904:9983   */\n      tag_698\n      tag_514\n      jump\t// in\n    tag_698:\n        /* \"#utility.yul\":9866:9985   */\n    tag_697:\n        /* \"#utility.yul\":10024:10025   */\n      0x00\n        /* \"#utility.yul\":10049:10102   */\n      tag_699\n        /* \"#utility.yul\":10094:10101   */\n      dup6\n        /* \"#utility.yul\":10085:10091   */\n      dup3\n        /* \"#utility.yul\":10074:10083   */\n      dup7\n        /* \"#utility.yul\":10070:10092   */\n      add\n        /* \"#utility.yul\":10049:10102   */\n      tag_517\n      jump\t// in\n    tag_699:\n        /* \"#utility.yul\":10039:10102   */\n      swap3\n      pop\n        /* \"#utility.yul\":9995:10112   */\n      pop\n        /* \"#utility.yul\":10151:10153   */\n      0x20\n        /* \"#utility.yul\":10177:10230   */\n      tag_700\n        /* \"#utility.yul\":10222:10229   */\n      dup6\n        /* \"#utility.yul\":10213:10219   */\n      dup3\n        /* \"#utility.yul\":10202:10211   */\n      dup7\n        /* \"#utility.yul\":10198:10220   */\n      add\n        /* \"#utility.yul\":10177:10230   */\n      tag_521\n      jump\t// in\n    tag_700:\n        /* \"#utility.yul\":10167:10230   */\n      swap2\n      pop\n        /* \"#utility.yul\":10122:10240   */\n      pop\n        /* \"#utility.yul\":9773:10247   */\n      swap3\n      pop\n      swap3\n      swap1\n      pop\n      jump\t// out\n        /* \"#utility.yul\":10253:10872   */\n    tag_172:\n        /* \"#utility.yul\":10330:10336   */\n      0x00\n        /* \"#utility.yul\":10338:10344   */\n      0x00\n        /* \"#utility.yul\":10346:10352   */\n      0x00\n        /* \"#utility.yul\":10395:10397   */\n      0x60\n        /* \"#utility.yul\":10383:10392   */\n      dup5\n        /* \"#utility.yul\":10374:10381   */\n      dup7\n        /* \"#utility.yul\":10370:10393   */\n      sub\n        /* \"#utility.yul\":10366:10398   */\n      slt\n        /* \"#utility.yul\":10363:10482   */\n      iszero\n      tag_702\n      jumpi\n        /* \"#utility.yul\":10401:10480   */\n      tag_703\n      tag_514\n      jump\t// in\n    tag_703:\n        /* \"#utility.yul\":10363:10482   */\n    tag_702:\n        /* \"#utility.yul\":10521:10522   */\n      0x00\n        /* \"#utility.yul\":10546:10599   */\n      tag_704\n        /* \"#utility.yul\":10591:10598   */\n      dup7\n        /* \"#utility.yul\":10582:10588   */\n      dup3\n        /* \"#utility.yul\":10571:10580   */\n      dup8\n        /* \"#utility.yul\":10567:10589   */\n      add\n        /* \"#utility.yul\":10546:10599   */\n      tag_517\n      jump\t// in\n    tag_704:\n        /* \"#utility.yul\":10536:10599   */\n      swap4\n      pop\n        /* \"#utility.yul\":10492:10609   */\n      pop\n        /* \"#utility.yul\":10648:10650   */\n      0x20\n        /* \"#utility.yul\":10674:10727   */\n      tag_705\n        /* \"#utility.yul\":10719:10726   */\n      dup7\n        /* \"#utility.yul\":10710:10716   */\n      dup3\n        /* \"#utility.yul\":10699:10708   */\n      dup8\n        /* \"#utility.yul\":10695:10717   */\n      add\n        /* \"#utility.yul\":10674:10727   */\n      tag_521\n      jump\t// in\n    tag_705:\n        /* \"#utility.yul\":10664:10727   */\n      swap3\n      pop\n        /* \"#utility.yul\":10619:10737   */\n      pop\n        /* \"#utility.yul\":10776:10778   */\n      0x40\n        /* \"#utility.yul\":10802:10855   */\n      tag_706\n        /* \"#utility.yul\":10847:10854   */\n      dup7\n        /* \"#utility.yul\":10838:10844   */\n      dup3\n        /* \"#utility.yul\":10827:10836   */\n      dup8\n        /* \"#utility.yul\":10823:10845   */\n      add\n        /* \"#utility.yul\":10802:10855   */\n      tag_521\n      jump\t// in\n    tag_706:\n        /* \"#utility.yul\":10792:10855   */\n      swap2\n      pop\n        /* \"#utility.yul\":10747:10865   */\n      pop\n        /* \"#utility.yul\":10253:10872   */\n      swap3\n      pop\n      swap3\n      pop\n      swap3\n      jump\t// out\n        /* \"#utility.yul\":10878:11352   */\n    tag_192:\n        /* \"#utility.yul\":10946:10952   */\n      0x00\n        /* \"#utility.yul\":10954:10960   */\n      0x00\n        /* \"#utility.yul\":11003:11005   */\n      0x40\n        /* \"#utility.yul\":10991:11000   */\n      dup4\n        /* \"#utility.yul\":10982:10989   */\n      dup6\n        /* \"#utility.yul\":10978:11001   */\n      sub\n        /* \"#utility.yul\":10974:11006   */\n      slt\n        /* \"#utility.yul\":10971:11090   */\n      iszero\n      tag_708\n      jumpi\n        /* \"#utility.yul\":11009:11088   */\n      tag_709\n      tag_514\n      jump\t// in\n    tag_709:\n        /* \"#utility.yul\":10971:11090   */\n    tag_708:\n        /* \"#utility.yul\":11129:11130   */\n      0x00\n        /* \"#utility.yul\":11154:11207   */\n      tag_710\n        /* \"#utility.yul\":11199:11206   */\n      dup6\n        /* \"#utility.yul\":11190:11196   */\n      dup3\n        /* \"#utility.yul\":11179:11188   */\n      dup7\n        /* \"#utility.yul\":11175:11197   */\n      add\n        /* \"#utility.yul\":11154:11207   */\n      tag_521\n      jump\t// in\n    tag_710:\n        /* \"#utility.yul\":11144:11207   */\n      swap3\n      pop\n        /* \"#utility.yul\":11100:11217   */\n      pop\n        /* \"#utility.yul\":11256:11258   */\n      0x20\n        /* \"#utility.yul\":11282:11335   */\n      tag_711\n        /* \"#utility.yul\":11327:11334   */\n      dup6\n        /* \"#utility.yul\":11318:11324   */\n      dup3\n        /* \"#utility.yul\":11307:11316   */\n      dup7\n        /* \"#utility.yul\":11303:11325   */\n      add\n        /* \"#utility.yul\":11282:11335   */\n      tag_521\n      jump\t// in\n    tag_711:\n        /* \"#utility.yul\":11272:11335   */\n      swap2\n      pop\n        /* \"#utility.yul\":11227:11345   */\n      pop\n        /* \"#utility.yul\":10878:11352   */\n      swap3\n      pop\n      swap3\n      swap1\n      pop\n      jump\t// out\n        /* \"#utility.yul\":11358:11501   */\n    tag_532:\n        /* \"#utility.yul\":11415:11420   */\n      0x00\n        /* \"#utility.yul\":11446:11452   */\n      dup2\n        /* \"#utility.yul\":11440:11453   */\n      mload\n        /* \"#utility.yul\":11431:11453   */\n      swap1\n      pop\n        /* \"#utility.yul\":11462:11495   */\n      tag_713\n        /* \"#utility.yul\":11489:11494   */\n      dup2\n        /* \"#utility.yul\":11462:11495   */\n      tag_516\n      jump\t// in\n    tag_713:\n        /* \"#utility.yul\":11358:11501   */\n      swap3\n      swap2\n      pop\n      pop\n      jump\t// out\n        /* \"#utility.yul\":11507:11858   */\n    tag_201:\n        /* \"#utility.yul\":11577:11583   */\n      0x00\n        /* \"#utility.yul\":11626:11628   */\n      0x20\n        /* \"#utility.yul\":11614:11623   */\n      dup3\n        /* \"#utility.yul\":11605:11612   */\n      dup5\n        /* \"#utility.yul\":11601:11624   */\n      sub\n        /* \"#utility.yul\":11597:11629   */\n      slt\n        /* \"#utility.yul\":11594:11713   */\n      iszero\n      tag_715\n      jumpi\n        /* \"#utility.yul\":11632:11711   */\n      tag_716\n      tag_514\n      jump\t// in\n    tag_716:\n        /* \"#utility.yul\":11594:11713   */\n    tag_715:\n        /* \"#utility.yul\":11752:11753   */\n      0x00\n        /* \"#utility.yul\":11777:11841   */\n      tag_717\n        /* \"#utility.yul\":11833:11840   */\n      dup5\n        /* \"#utility.yul\":11824:11830   */\n      dup3\n        /* \"#utility.yul\":11813:11822   */\n      dup6\n        /* \"#utility.yul\":11809:11831   */\n      add\n        /* \"#utility.yul\":11777:11841   */\n      tag_532\n      jump\t// in\n    tag_717:\n        /* \"#utility.yul\":11767:11841   */\n      swap2\n      pop\n        /* \"#utility.yul\":11723:11851   */\n      pop\n        /* \"#utility.yul\":11507:11858   */\n      swap3\n      swap2\n      pop\n      pop\n      jump\t// out\n        /* \"#utility.yul\":11864:12044   */\n    tag_207:\n        /* \"#utility.yul\":11912:11989   */\n      0x4e487b7100000000000000000000000000000000000000000000000000000000\n        /* \"#utility.yul\":11909:11910   */\n      0x00\n        /* \"#utility.yul\":11902:11990   */\n      mstore\n        /* \"#utility.yul\":12009:12013   */\n      0x32\n        /* \"#utility.yul\":12006:12007   */\n      0x04\n        /* \"#utility.yul\":11999:12014   */\n      mstore\n        /* \"#utility.yul\":12033:12037   */\n      0x24\n        /* \"#utility.yul\":12030:12031   */\n      0x00\n        /* \"#utility.yul\":12023:12038   */\n      revert\n        /* \"#utility.yul\":12050:12230   */\n    tag_533:\n        /* \"#utility.yul\":12098:12175   */\n      0x4e487b7100000000000000000000000000000000000000000000000000000000\n        /* \"#utility.yul\":12095:12096   */\n      0x00\n        /* \"#utility.yul\":12088:12176   */\n      mstore\n        /* \"#utility.yul\":12195:12199   */\n      0x11\n        /* \"#utility.yul\":12192:12193   */\n      0x04\n        /* \"#utility.yul\":12185:12200   */\n      mstore\n        /* \"#utility.yul\":12219:12223   */\n      0x24\n        /* \"#utility.yul\":12216:12217   */\n      0x00\n        /* \"#utility.yul\":12209:12224   */\n      revert\n        /* \"#utility.yul\":12236:12427   */\n    tag_217:\n        /* \"#utility.yul\":12276:12279   */\n      0x00\n        /* \"#utility.yul\":12295:12315   */\n      tag_721\n        /* \"#utility.yul\":12313:12314   */\n      dup3\n        /* \"#utility.yul\":12295:12315   */\n      tag_506\n      jump\t// in\n    tag_721:\n        /* \"#utility.yul\":12290:12315   */\n      swap2\n      pop\n        /* \"#utility.yul\":12329:12349   */\n      tag_722\n        /* \"#utility.yul\":12347:12348   */\n      dup4\n        /* \"#utility.yul\":12329:12349   */\n      tag_506\n      jump\t// in\n    tag_722:\n        /* \"#utility.yul\":12324:12349   */\n      swap3\n      pop\n        /* \"#utility.yul\":12372:12373   */\n      dup3\n        /* \"#utility.yul\":12369:12370   */\n      dup3\n        /* \"#utility.yul\":12365:12374   */\n      add\n        /* \"#utility.yul\":12358:12374   */\n      swap1\n      pop\n        /* \"#utility.yul\":12393:12396   */\n      dup1\n        /* \"#utility.yul\":12390:12391   */\n      dup3\n        /* \"#utility.yul\":12387:12397   */\n      gt\n        /* \"#utility.yul\":12384:12420   */\n      iszero\n      tag_723\n      jumpi\n        /* \"#utility.yul\":12400:12418   */\n      tag_724\n      tag_533\n      jump\t// in\n    tag_724:\n        /* \"#utility.yul\":12384:12420   */\n    tag_723:\n        /* \"#utility.yul\":12236:12427   */\n      swap3\n      swap2\n      pop\n      pop\n      jump\t// out\n        /* \"#utility.yul\":12433:12613   */\n    tag_534:\n        /* \"#utility.yul\":12481:12558   */\n      0x4e487b7100000000000000000000000000000000000000000000000000000000\n        /* \"#utility.yul\":12478:12479   */\n      0x00\n        /* \"#utility.yul\":12471:12559   */\n      mstore\n        /* \"#utility.yul\":12578:12582   */\n      0x22\n        /* \"#utility.yul\":12575:12576   */\n      0x04\n        /* \"#utility.yul\":12568:12583   */\n      mstore\n        /* \"#utility.yul\":12602:12606   */\n      0x24\n        /* \"#utility.yul\":12599:12600   */\n      0x00\n        /* \"#utility.yul\":12592:12607   */\n      revert\n        /* \"#utility.yul\":12619:12939   */\n    tag_220:\n        /* \"#utility.yul\":12663:12669   */\n      0x00\n        /* \"#utility.yul\":12700:12701   */\n      0x02\n        /* \"#utility.yul\":12694:12698   */\n      dup3\n        /* \"#utility.yul\":12690:12702   */\n      div\n        /* \"#utility.yul\":12680:12702   */\n      swap1\n      pop\n        /* \"#utility.yul\":12747:12748   */\n      0x01\n        /* \"#utility.yul\":12741:12745   */\n      dup3\n        /* \"#utility.yul\":12737:12749   */\n      and\n        /* \"#utility.yul\":12768:12786   */\n      dup1\n        /* \"#utility.yul\":12758:12839   */\n      tag_727\n      jumpi\n        /* \"#utility.yul\":12824:12828   */\n      0x7f\n        /* \"#utility.yul\":12816:12822   */\n      dup3\n        /* \"#utility.yul\":12812:12829   */\n      and\n        /* \"#utility.yul\":12802:12829   */\n      swap2\n      pop\n        /* \"#utility.yul\":12758:12839   */\n    tag_727:\n        /* \"#utility.yul\":12886:12888   */\n      0x20\n        /* \"#utility.yul\":12878:12884   */\n      dup3\n        /* \"#utility.yul\":12875:12889   */\n      lt\n        /* \"#utility.yul\":12855:12873   */\n      dup2\n        /* \"#utility.yul\":12852:12890   */\n      sub\n        /* \"#utility.yul\":12849:12933   */\n      tag_728\n      jumpi\n        /* \"#utility.yul\":12905:12923   */\n      tag_729\n      tag_534\n      jump\t// in\n    tag_729:\n        /* \"#utility.yul\":12849:12933   */\n    tag_728:\n        /* \"#utility.yul\":12670:12939   */\n      pop\n        /* \"#utility.yul\":12619:12939   */\n      swap2\n      swap1\n      pop\n      jump\t// out\n        /* \"#utility.yul\":12945:13355   */\n    tag_233:\n        /* \"#utility.yul\":12985:12992   */\n      0x00\n        /* \"#utility.yul\":13008:13028   */\n      tag_731\n        /* \"#utility.yul\":13026:13027   */\n      dup3\n        /* \"#utility.yul\":13008:13028   */\n      tag_506\n      jump\t// in\n    tag_731:\n        /* \"#utility.yul\":13003:13028   */\n      swap2\n      pop\n        /* \"#utility.yul\":13042:13062   */\n      tag_732\n        /* \"#utility.yul\":13060:13061   */\n      dup4\n        /* \"#utility.yul\":13042:13062   */\n      tag_506\n      jump\t// in\n    tag_732:\n        /* \"#utility.yul\":13037:13062   */\n      swap3\n      pop\n        /* \"#utility.yul\":13097:13098   */\n      dup3\n        /* \"#utility.yul\":13094:13095   */\n      dup3\n        /* \"#utility.yul\":13090:13099   */\n      mul\n        /* \"#utility.yul\":13119:13149   */\n      tag_733\n        /* \"#utility.yul\":13137:13148   */\n      dup2\n        /* \"#utility.yul\":13119:13149   */\n      tag_506\n      jump\t// in\n    tag_733:\n        /* \"#utility.yul\":13108:13149   */\n      swap2\n      pop\n        /* \"#utility.yul\":13298:13299   */\n      dup3\n        /* \"#utility.yul\":13289:13296   */\n      dup3\n        /* \"#utility.yul\":13285:13300   */\n      div\n        /* \"#utility.yul\":13282:13283   */\n      dup5\n        /* \"#utility.yul\":13279:13301   */\n      eq\n        /* \"#utility.yul\":13259:13260   */\n      dup4\n        /* \"#utility.yul\":13252:13261   */\n      iszero\n        /* \"#utility.yul\":13232:13315   */\n      or\n        /* \"#utility.yul\":13209:13348   */\n      tag_734\n      jumpi\n        /* \"#utility.yul\":13328:13346   */\n      tag_735\n      tag_533\n      jump\t// in\n    tag_735:\n        /* \"#utility.yul\":13209:13348   */\n    tag_734:\n        /* \"#utility.yul\":12993:13355   */\n      pop\n        /* \"#utility.yul\":12945:13355   */\n      swap3\n      swap2\n      pop\n      pop\n      jump\t// out\n        /* \"#utility.yul\":13361:13541   */\n    tag_535:\n        /* \"#utility.yul\":13409:13486   */\n      0x4e487b7100000000000000000000000000000000000000000000000000000000\n        /* \"#utility.yul\":13406:13407   */\n      0x00\n        /* \"#utility.yul\":13399:13487   */\n      mstore\n        /* \"#utility.yul\":13506:13510   */\n      0x12\n        /* \"#utility.yul\":13503:13504   */\n      0x04\n        /* \"#utility.yul\":13496:13511   */\n      mstore\n        /* \"#utility.yul\":13530:13534   */\n      0x24\n        /* \"#utility.yul\":13527:13528   */\n      0x00\n        /* \"#utility.yul\":13520:13535   */\n      revert\n        /* \"#utility.yul\":13547:13732   */\n    tag_235:\n        /* \"#utility.yul\":13587:13588   */\n      0x00\n        /* \"#utility.yul\":13604:13624   */\n      tag_738\n        /* \"#utility.yul\":13622:13623   */\n      dup3\n        /* \"#utility.yul\":13604:13624   */\n      tag_506\n      jump\t// in\n    tag_738:\n        /* \"#utility.yul\":13599:13624   */\n      swap2\n      pop\n        /* \"#utility.yul\":13638:13658   */\n      tag_739\n        /* \"#utility.yul\":13656:13657   */\n      dup4\n        /* \"#utility.yul\":13638:13658   */\n      tag_506\n      jump\t// in\n    tag_739:\n        /* \"#utility.yul\":13633:13658   */\n      swap3\n      pop\n        /* \"#utility.yul\":13677:13678   */\n      dup3\n        /* \"#utility.yul\":13667:13702   */\n      tag_740\n      jumpi\n        /* \"#utility.yul\":13682:13700   */\n      tag_741\n      tag_535\n      jump\t// in\n    tag_741:\n        /* \"#utility.yul\":13667:13702   */\n    tag_740:\n        /* \"#utility.yul\":13724:13725   */\n      dup3\n        /* \"#utility.yul\":13721:13722   */\n      dup3\n        /* \"#utility.yul\":13717:13726   */\n      div\n        /* \"#utility.yul\":13712:13726   */\n      swap1\n      pop\n        /* \"#utility.yul\":13547:13732   */\n      swap3\n      swap2\n      pop\n      pop\n      jump\t// out\n        /* \"#utility.yul\":13738:13910   */\n    tag_536:\n        /* \"#utility.yul\":13878:13902   */\n      0x494e53554646494349454e545f414c4c4f57414e434500000000000000000000\n        /* \"#utility.yul\":13874:13875   */\n      0x00\n        /* \"#utility.yul\":13866:13872   */\n      dup3\n        /* \"#utility.yul\":13862:13876   */\n      add\n        /* \"#utility.yul\":13855:13903   */\n      mstore\n        /* \"#utility.yul\":13738:13910   */\n      pop\n      jump\t// out\n        /* \"#utility.yul\":13916:14282   */\n    tag_537:\n        /* \"#utility.yul\":14058:14061   */\n      0x00\n        /* \"#utility.yul\":14079:14146   */\n      tag_744\n        /* \"#utility.yul\":14143:14145   */\n      0x16\n        /* \"#utility.yul\":14138:14141   */\n      dup4\n        /* \"#utility.yul\":14079:14146   */\n      tag_509\n      jump\t// in\n    tag_744:\n        /* \"#utility.yul\":14072:14146   */\n      swap2\n      pop\n        /* \"#utility.yul\":14155:14248   */\n      tag_745\n        /* \"#utility.yul\":14244:14247   */\n      dup3\n        /* \"#utility.yul\":14155:14248   */\n      tag_536\n      jump\t// in\n    tag_745:\n        /* \"#utility.yul\":14273:14275   */\n      0x20\n        /* \"#utility.yul\":14268:14271   */\n      dup3\n        /* \"#utility.yul\":14264:14276   */\n      add\n        /* \"#utility.yul\":14257:14276   */\n      swap1\n      pop\n        /* \"#utility.yul\":13916:14282   */\n      swap2\n      swap1\n      pop\n      jump\t// out\n        /* \"#utility.yul\":14288:14707   */\n    tag_244:\n        /* \"#utility.yul\":14454:14458   */\n      0x00\n        /* \"#utility.yul\":14492:14494   */\n      0x20\n        /* \"#utility.yul\":14481:14490   */\n      dup3\n        /* \"#utility.yul\":14477:14495   */\n      add\n        /* \"#utility.yul\":14469:14495   */\n      swap1\n      pop\n        /* \"#utility.yul\":14541:14550   */\n      dup2\n        /* \"#utility.yul\":14535:14539   */\n      dup2\n        /* \"#utility.yul\":14531:14551   */\n      sub\n        /* \"#utility.yul\":14527:14528   */\n      0x00\n        /* \"#utility.yul\":14516:14525   */\n      dup4\n        /* \"#utility.yul\":14512:14529   */\n      add\n        /* \"#utility.yul\":14505:14552   */\n      mstore\n        /* \"#utility.yul\":14569:14700   */\n      tag_747\n        /* \"#utility.yul\":14695:14699   */\n      dup2\n        /* \"#utility.yul\":14569:14700   */\n      tag_537\n      jump\t// in\n    tag_747:\n        /* \"#utility.yul\":14561:14700   */\n      swap1\n      pop\n        /* \"#utility.yul\":14288:14707   */\n      swap2\n      swap1\n      pop\n      jump\t// out\n        /* \"#utility.yul\":14713:14907   */\n    tag_247:\n        /* \"#utility.yul\":14753:14757   */\n      0x00\n        /* \"#utility.yul\":14773:14793   */\n      tag_749\n        /* \"#utility.yul\":14791:14792   */\n      dup3\n        /* \"#utility.yul\":14773:14793   */\n      tag_506\n      jump\t// in\n    tag_749:\n        /* \"#utility.yul\":14768:14793   */\n      swap2\n      pop\n        /* \"#utility.yul\":14807:14827   */\n      tag_750\n        /* \"#utility.yul\":14825:14826   */\n      dup4\n        /* \"#utility.yul\":14807:14827   */\n      tag_506\n      jump\t// in\n    tag_750:\n        /* \"#utility.yul\":14802:14827   */\n      swap3\n      pop\n        /* \"#utility.yul\":14851:14852   */\n      dup3\n        /* \"#utility.yul\":14848:14849   */\n      dup3\n        /* \"#utility.yul\":14844:14853   */\n      sub\n        /* \"#utility.yul\":14836:14853   */\n      swap1\n      pop\n        /* \"#utility.yul\":14875:14876   */\n      dup2\n        /* \"#utility.yul\":14869:14873   */\n      dup2\n        /* \"#utility.yul\":14866:14877   */\n      gt\n        /* \"#utility.yul\":14863:14900   */\n      iszero\n      tag_751\n      jumpi\n        /* \"#utility.yul\":14880:14898   */\n      tag_752\n      tag_533\n      jump\t// in\n    tag_752:\n        /* \"#utility.yul\":14863:14900   */\n    tag_751:\n        /* \"#utility.yul\":14713:14907   */\n      swap3\n      swap2\n      pop\n      pop\n      jump\t// out\n        /* \"#utility.yul\":14913:15079   */\n    tag_538:\n        /* \"#utility.yul\":15053:15071   */\n      0x4e4f545f44454c454741544543414c4c00000000000000000000000000000000\n        /* \"#utility.yul\":15049:15050   */\n      0x00\n        /* \"#utility.yul\":15041:15047   */\n      dup3\n        /* \"#utility.yul\":15037:15051   */\n      add\n        /* \"#utility.yul\":15030:15072   */\n      mstore\n        /* \"#utility.yul\":14913:15079   */\n      pop\n      jump\t// out\n        /* \"#utility.yul\":15085:15451   */\n    tag_539:\n        /* \"#utility.yul\":15227:15230   */\n      0x00\n        /* \"#utility.yul\":15248:15315   */\n      tag_755\n        /* \"#utility.yul\":15312:15314   */\n      0x10\n        /* \"#utility.yul\":15307:15310   */\n      dup4\n        /* \"#utility.yul\":15248:15315   */\n      tag_509\n      jump\t// in\n    tag_755:\n        /* \"#utility.yul\":15241:15315   */\n      swap2\n      pop\n        /* \"#utility.yul\":15324:15417   */\n      tag_756\n        /* \"#utility.yul\":15413:15416   */\n      dup3\n        /* \"#utility.yul\":15324:15417   */\n      tag_538\n      jump\t// in\n    tag_756:\n        /* \"#utility.yul\":15442:15444   */\n      0x20\n        /* \"#utility.yul\":15437:15440   */\n      dup3\n        /* \"#utility.yul\":15433:15445   */\n      add\n        /* \"#utility.yul\":15426:15445   */\n      swap1\n      pop\n        /* \"#utility.yul\":15085:15451   */\n      swap2\n      swap1\n      pop\n      jump\t// out\n        /* \"#utility.yul\":15457:15876   */\n    tag_254:\n        /* \"#utility.yul\":15623:15627   */\n      0x00\n        /* \"#utility.yul\":15661:15663   */\n      0x20\n        /* \"#utility.yul\":15650:15659   */\n      dup3\n        /* \"#utility.yul\":15646:15664   */\n      add\n        /* \"#utility.yul\":15638:15664   */\n      swap1\n      pop\n        /* \"#utility.yul\":15710:15719   */\n      dup2\n        /* \"#utility.yul\":15704:15708   */\n      dup2\n        /* \"#utility.yul\":15700:15720   */\n      sub\n        /* \"#utility.yul\":15696:15697   */\n      0x00\n        /* \"#utility.yul\":15685:15694   */\n      dup4\n        /* \"#utility.yul\":15681:15698   */\n      add\n        /* \"#utility.yul\":15674:15721   */\n      mstore\n        /* \"#utility.yul\":15738:15869   */\n      tag_758\n        /* \"#utility.yul\":15864:15868   */\n      dup2\n        /* \"#utility.yul\":15738:15869   */\n      tag_539\n      jump\t// in\n    tag_758:\n        /* \"#utility.yul\":15730:15869   */\n      swap1\n      pop\n        /* \"#utility.yul\":15457:15876   */\n      swap2\n      swap1\n      pop\n      jump\t// out\n        /* \"#utility.yul\":15882:16046   */\n    tag_540:\n        /* \"#utility.yul\":16022:16038   */\n      0x494e4143544956455f50524f5859000000000000000000000000000000000000\n        /* \"#utility.yul\":16018:16019   */\n      0x00\n        /* \"#utility.yul\":16010:16016   */\n      dup3\n        /* \"#utility.yul\":16006:16020   */\n      add\n        /* \"#utility.yul\":15999:16039   */\n      mstore\n        /* \"#utility.yul\":15882:16046   */\n      pop\n      jump\t// out\n        /* \"#utility.yul\":16052:16418   */\n    tag_541:\n        /* \"#utility.yul\":16194:16197   */\n      0x00\n        /* \"#utility.yul\":16215:16282   */\n      tag_761\n        /* \"#utility.yul\":16279:16281   */\n      0x0e\n        /* \"#utility.yul\":16274:16277   */\n      dup4\n        /* \"#utility.yul\":16215:16282   */\n      tag_509\n      jump\t// in\n    tag_761:\n        /* \"#utility.yul\":16208:16282   */\n      swap2\n      pop\n        /* \"#utility.yul\":16291:16384   */\n      tag_762\n        /* \"#utility.yul\":16380:16383   */\n      dup3\n        /* \"#utility.yul\":16291:16384   */\n      tag_540\n      jump\t// in\n    tag_762:\n        /* \"#utility.yul\":16409:16411   */\n      0x20\n        /* \"#utility.yul\":16404:16407   */\n      dup3\n        /* \"#utility.yul\":16400:16412   */\n      add\n        /* \"#utility.yul\":16393:16412   */\n      swap1\n      pop\n        /* \"#utility.yul\":16052:16418   */\n      swap2\n      swap1\n      pop\n      jump\t// out\n        /* \"#utility.yul\":16424:16843   */\n    tag_259:\n        /* \"#utility.yul\":16590:16594   */\n      0x00\n        /* \"#utility.yul\":16628:16630   */\n      0x20\n        /* \"#utility.yul\":16617:16626   */\n      dup3\n        /* \"#utility.yul\":16613:16631   */\n      add\n        /* \"#utility.yul\":16605:16631   */\n      swap1\n      pop\n        /* \"#utility.yul\":16677:16686   */\n      dup2\n        /* \"#utility.yul\":16671:16675   */\n      dup2\n        /* \"#utility.yul\":16667:16687   */\n      sub\n        /* \"#utility.yul\":16663:16664   */\n      0x00\n        /* \"#utility.yul\":16652:16661   */\n      dup4\n        /* \"#utility.yul\":16648:16665   */\n      add\n        /* \"#utility.yul\":16641:16688   */\n      mstore\n        /* \"#utility.yul\":16705:16836   */\n      tag_764\n        /* \"#utility.yul\":16831:16835   */\n      dup2\n        /* \"#utility.yul\":16705:16836   */\n      tag_541\n      jump\t// in\n    tag_764:\n        /* \"#utility.yul\":16697:16836   */\n      swap1\n      pop\n        /* \"#utility.yul\":16424:16843   */\n      swap2\n      swap1\n      pop\n      jump\t// out\n        /* \"#utility.yul\":16849:17018   */\n    tag_542:\n        /* \"#utility.yul\":16989:17010   */\n      0x414c52454144595f494e495449414c495a454400000000000000000000000000\n        /* \"#utility.yul\":16985:16986   */\n      0x00\n        /* \"#utility.yul\":16977:16983   */\n      dup3\n        /* \"#utility.yul\":16973:16987   */\n      add\n        /* \"#utility.yul\":16966:17011   */\n      mstore\n        /* \"#utility.yul\":16849:17018   */\n      pop\n      jump\t// out\n        /* \"#utility.yul\":17024:17390   */\n    tag_543:\n        /* \"#utility.yul\":17166:17169   */\n      0x00\n        /* \"#utility.yul\":17187:17254   */\n      tag_767\n        /* \"#utility.yul\":17251:17253   */\n      0x13\n        /* \"#utility.yul\":17246:17249   */\n      dup4\n        /* \"#utility.yul\":17187:17254   */\n      tag_509\n      jump\t// in\n    tag_767:\n        /* \"#utility.yul\":17180:17254   */\n      swap2\n      pop\n        /* \"#utility.yul\":17263:17356   */\n      tag_768\n        /* \"#utility.yul\":17352:17355   */\n      dup3\n        /* \"#utility.yul\":17263:17356   */\n      tag_542\n      jump\t// in\n    tag_768:\n        /* \"#utility.yul\":17381:17383   */\n      0x20\n        /* \"#utility.yul\":17376:17379   */\n      dup3\n        /* \"#utility.yul\":17372:17384   */\n      add\n        /* \"#utility.yul\":17365:17384   */\n      swap1\n      pop\n        /* \"#utility.yul\":17024:17390   */\n      swap2\n      swap1\n      pop\n      jump\t// out\n        /* \"#utility.yul\":17396:17815   */\n    tag_270:\n        /* \"#utility.yul\":17562:17566   */\n      0x00\n        /* \"#utility.yul\":17600:17602   */\n      0x20\n        /* \"#utility.yul\":17589:17598   */\n      dup3\n        /* \"#utility.yul\":17585:17603   */\n      add\n        /* \"#utility.yul\":17577:17603   */\n      swap1\n      pop\n        /* \"#utility.yul\":17649:17658   */\n      dup2\n        /* \"#utility.yul\":17643:17647   */\n      dup2\n        /* \"#utility.yul\":17639:17659   */\n      sub\n        /* \"#utility.yul\":17635:17636   */\n      0x00\n        /* \"#utility.yul\":17624:17633   */\n      dup4\n        /* \"#utility.yul\":17620:17637   */\n      add\n        /* \"#utility.yul\":17613:17660   */\n      mstore\n        /* \"#utility.yul\":17677:17808   */\n      tag_770\n        /* \"#utility.yul\":17803:17807   */\n      dup2\n        /* \"#utility.yul\":17677:17808   */\n      tag_543\n      jump\t// in\n    tag_770:\n        /* \"#utility.yul\":17669:17808   */\n      swap1\n      pop\n        /* \"#utility.yul\":17396:17815   */\n      swap2\n      swap1\n      pop\n      jump\t// out\n        /* \"#utility.yul\":17821:17918   */\n    tag_544:\n        /* \"#utility.yul\":17880:17886   */\n      0x00\n        /* \"#utility.yul\":17908:17911   */\n      dup3\n        /* \"#utility.yul\":17898:17911   */\n      swap1\n      pop\n        /* \"#utility.yul\":17821:17918   */\n      swap3\n      swap2\n      pop\n      pop\n      jump\t// out\n        /* \"#utility.yul\":17924:18104   */\n    tag_545:\n        /* \"#utility.yul\":17972:18049   */\n      0x4e487b7100000000000000000000000000000000000000000000000000000000\n        /* \"#utility.yul\":17969:17970   */\n      0x00\n        /* \"#utility.yul\":17962:18050   */\n      mstore\n        /* \"#utility.yul\":18069:18073   */\n      0x41\n        /* \"#utility.yul\":18066:18067   */\n      0x04\n        /* \"#utility.yul\":18059:18074   */\n      mstore\n        /* \"#utility.yul\":18093:18097   */\n      0x24\n        /* \"#utility.yul\":18090:18091   */\n      0x00\n        /* \"#utility.yul\":18083:18098   */\n      revert\n        /* \"#utility.yul\":18110:18251   */\n    tag_546:\n        /* \"#utility.yul\":18159:18163   */\n      0x00\n        /* \"#utility.yul\":18182:18185   */\n      dup2\n        /* \"#utility.yul\":18174:18185   */\n      swap1\n      pop\n        /* \"#utility.yul\":18205:18208   */\n      dup2\n        /* \"#utility.yul\":18202:18203   */\n      0x00\n        /* \"#utility.yul\":18195:18209   */\n      mstore\n        /* \"#utility.yul\":18239:18243   */\n      0x20\n        /* \"#utility.yul\":18236:18237   */\n      0x00\n        /* \"#utility.yul\":18226:18244   */\n      keccak256\n        /* \"#utility.yul\":18218:18244   */\n      swap1\n      pop\n        /* \"#utility.yul\":18110:18251   */\n      swap2\n      swap1\n      pop\n      jump\t// out\n        /* \"#utility.yul\":18257:18350   */\n    tag_547:\n        /* \"#utility.yul\":18294:18300   */\n      0x00\n        /* \"#utility.yul\":18341:18343   */\n      0x20\n        /* \"#utility.yul\":18336:18338   */\n      0x1f\n        /* \"#utility.yul\":18329:18334   */\n      dup4\n        /* \"#utility.yul\":18325:18339   */\n      add\n        /* \"#utility.yul\":18321:18344   */\n      div\n        /* \"#utility.yul\":18311:18344   */\n      swap1\n      pop\n        /* \"#utility.yul\":18257:18350   */\n      swap2\n      swap1\n      pop\n      jump\t// out\n        /* \"#utility.yul\":18356:18463   */\n    tag_548:\n        /* \"#utility.yul\":18400:18408   */\n      0x00\n        /* \"#utility.yul\":18450:18455   */\n      dup3\n        /* \"#utility.yul\":18444:18448   */\n      dup3\n        /* \"#utility.yul\":18440:18456   */\n      shl\n        /* \"#utility.yul\":18419:18456   */\n      swap1\n      pop\n        /* \"#utility.yul\":18356:18463   */\n      swap3\n      swap2\n      pop\n      pop\n      jump\t// out\n        /* \"#utility.yul\":18469:18862   */\n    tag_549:\n        /* \"#utility.yul\":18538:18544   */\n      0x00\n        /* \"#utility.yul\":18588:18589   */\n      0x08\n        /* \"#utility.yul\":18576:18586   */\n      dup4\n        /* \"#utility.yul\":18572:18590   */\n      mul\n        /* \"#utility.yul\":18611:18708   */\n      tag_777\n        /* \"#utility.yul\":18641:18707   */\n      0xffffffffffffffffffffffffffffffffffffffffffffffffffffffffffffffff\n        /* \"#utility.yul\":18630:18639   */\n      dup3\n        /* \"#utility.yul\":18611:18708   */\n      tag_548\n      jump\t// in\n    tag_777:\n        /* \"#utility.yul\":18729:18768   */\n      tag_778\n        /* \"#utility.yul\":18759:18767   */\n      dup7\n        /* \"#utility.yul\":18748:18757   */\n      dup4\n        /* \"#utility.yul\":18729:18768   */\n      tag_548\n      jump\t// in\n    tag_778:\n        /* \"#utility.yul\":18717:18768   */\n      swap6\n      pop\n        /* \"#utility.yul\":18801:18805   */\n      dup1\n        /* \"#utility.yul\":18797:18806   */\n      not\n        /* \"#utility.yul\":18790:18795   */\n      dup5\n        /* \"#utility.yul\":18786:18807   */\n      and\n        /* \"#utility.yul\":18777:18807   */\n      swap4\n      pop\n        /* \"#utility.yul\":18850:18854   */\n      dup1\n        /* \"#utility.yul\":18840:18848   */\n      dup7\n        /* \"#utility.yul\":18836:18855   */\n      and\n        /* \"#utility.yul\":18829:18834   */\n      dup5\n        /* \"#utility.yul\":18826:18856   */\n      or\n        /* \"#utility.yul\":18816:18856   */\n      swap3\n      pop\n        /* \"#utility.yul\":18545:18862   */\n      pop\n      pop\n        /* \"#utility.yul\":18469:18862   */\n      swap4\n      swap3\n      pop\n      pop\n      pop\n      jump\t// out\n        /* \"#utility.yul\":18868:18928   */\n    tag_550:\n        /* \"#utility.yul\":18896:18899   */\n      0x00\n        /* \"#utility.yul\":18917:18922   */\n      dup2\n        /* \"#utility.yul\":18910:18922   */\n      swap1\n      pop\n        /* \"#utility.yul\":18868:18928   */\n      swap2\n      swap1\n      pop\n      jump\t// out\n        /* \"#utility.yul\":18934:19076   */\n    tag_551:\n        /* \"#utility.yul\":18984:18993   */\n      0x00\n        /* \"#utility.yul\":19017:19070   */\n      tag_781\n        /* \"#utility.yul\":19035:19069   */\n      tag_782\n        /* \"#utility.yul\":19044:19068   */\n      tag_783\n        /* \"#utility.yul\":19062:19067   */\n      dup5\n        /* \"#utility.yul\":19044:19068   */\n      tag_506\n      jump\t// in\n    tag_783:\n        /* \"#utility.yul\":19035:19069   */\n      tag_550\n      jump\t// in\n    tag_782:\n        /* \"#utility.yul\":19017:19070   */\n      tag_506\n      jump\t// in\n    tag_781:\n        /* \"#utility.yul\":19004:19070   */\n      swap1\n      pop\n        /* \"#utility.yul\":18934:19076   */\n      swap2\n      swap1\n      pop\n      jump\t// out\n        /* \"#utility.yul\":19082:19157   */\n    tag_552:\n        /* \"#utility.yul\":19125:19128   */\n      0x00\n        /* \"#utility.yul\":19146:19151   */\n      dup2\n        /* \"#utility.yul\":19139:19151   */\n      swap1\n      pop\n        /* \"#utility.yul\":19082:19157   */\n      swap2\n      swap1\n      pop\n      jump\t// out\n        /* \"#utility.yul\":19163:19432   */\n    tag_553:\n        /* \"#utility.yul\":19273:19312   */\n      tag_786\n        /* \"#utility.yul\":19304:19311   */\n      dup4\n        /* \"#utility.yul\":19273:19312   */\n      tag_551\n      jump\t// in\n    tag_786:\n        /* \"#utility.yul\":19334:19425   */\n      tag_787\n        /* \"#utility.yul\":19383:19424   */\n      tag_788\n        /* \"#utility.yul\":19407:19423   */\n      dup3\n        /* \"#utility.yul\":19383:19424   */\n      tag_552\n      jump\t// in\n    tag_788:\n        /* \"#utility.yul\":19375:19381   */\n      dup5\n        /* \"#utility.yul\":19368:19372   */\n      dup5\n        /* \"#utility.yul\":19362:19373   */\n      sload\n        /* \"#utility.yul\":19334:19425   */\n      tag_549\n      jump\t// in\n    tag_787:\n        /* \"#utility.yul\":19328:19332   */\n      dup3\n        /* \"#utility.yul\":19321:19426   */\n      sstore\n        /* \"#utility.yul\":19239:19432   */\n      pop\n        /* \"#utility.yul\":19163:19432   */\n      pop\n      pop\n      pop\n      jump\t// out\n        /* \"#utility.yul\":19438:19511   */\n    tag_554:\n        /* \"#utility.yul\":19483:19486   */\n      0x00\n        /* \"#utility.yul\":19504:19505   */\n      0x00\n        /* \"#utility.yul\":19497:19505   */\n      swap1\n      pop\n        /* \"#utility.yul\":19438:19511   */\n      swap1\n      jump\t// out\n        /* \"#utility.yul\":19517:19706   */\n    tag_555:\n        /* \"#utility.yul\":19594:19626   */\n      tag_791\n      tag_554\n      jump\t// in\n    tag_791:\n        /* \"#utility.yul\":19635:19700   */\n      tag_792\n        /* \"#utility.yul\":19693:19699   */\n      dup2\n        /* \"#utility.yul\":19685:19691   */\n      dup5\n        /* \"#utility.yul\":19679:19683   */\n      dup5\n        /* \"#utility.yul\":19635:19700   */\n      tag_553\n      jump\t// in\n    tag_792:\n        /* \"#utility.yul\":19570:19706   */\n      pop\n        /* \"#utility.yul\":19517:19706   */\n      pop\n      pop\n      jump\t// out\n        /* \"#utility.yul\":19712:19898   */\n    tag_556:\n        /* \"#utility.yul\":19772:19892   */\n    tag_794:\n        /* \"#utility.yul\":19789:19792   */\n      dup2\n        /* \"#utility.yul\":19782:19787   */\n      dup2\n        /* \"#utility.yul\":19779:19793   */\n      lt\n        /* \"#utility.yul\":19772:19892   */\n      iszero\n      tag_796\n      jumpi\n        /* \"#utility.yul\":19843:19882   */\n      tag_797\n        /* \"#utility.yul\":19880:19881   */\n      0x00\n        /* \"#utility.yul\":19873:19878   */\n      dup3\n        /* \"#utility.yul\":19843:19882   */\n      tag_555\n      jump\t// in\n    tag_797:\n        /* \"#utility.yul\":19816:19817   */\n      0x01\n        /* \"#utility.yul\":19809:19814   */\n      dup2\n        /* \"#utility.yul\":19805:19818   */\n      add\n        /* \"#utility.yul\":19796:19818   */\n      swap1\n      pop\n        /* \"#utility.yul\":19772:19892   */\n      jump(tag_794)\n    tag_796:\n        /* \"#utility.yul\":19712:19898   */\n      pop\n      pop\n      jump\t// out\n        /* \"#utility.yul\":19904:20447   */\n    tag_557:\n        /* \"#utility.yul\":20005:20007   */\n      0x1f\n        /* \"#utility.yul\":20000:20003   */\n      dup3\n        /* \"#utility.yul\":19997:20008   */\n      gt\n        /* \"#utility.yul\":19994:20440   */\n      iszero\n      tag_799\n      jumpi\n        /* \"#utility.yul\":20039:20077   */\n      tag_800\n        /* \"#utility.yul\":20071:20076   */\n      dup2\n        /* \"#utility.yul\":20039:20077   */\n      tag_546\n      jump\t// in\n    tag_800:\n        /* \"#utility.yul\":20123:20152   */\n      tag_801\n        /* \"#utility.yul\":20141:20151   */\n      dup5\n        /* \"#utility.yul\":20123:20152   */\n      tag_547\n      jump\t// in\n    tag_801:\n        /* \"#utility.yul\":20113:20121   */\n      dup2\n        /* \"#utility.yul\":20109:20153   */\n      add\n        /* \"#utility.yul\":20306:20308   */\n      0x20\n        /* \"#utility.yul\":20294:20304   */\n      dup6\n        /* \"#utility.yul\":20291:20309   */\n      lt\n        /* \"#utility.yul\":20288:20337   */\n      iszero\n      tag_802\n      jumpi\n        /* \"#utility.yul\":20327:20335   */\n      dup2\n        /* \"#utility.yul\":20312:20335   */\n      swap1\n      pop\n        /* \"#utility.yul\":20288:20337   */\n    tag_802:\n        /* \"#utility.yul\":20350:20430   */\n      tag_803\n        /* \"#utility.yul\":20406:20428   */\n      tag_804\n        /* \"#utility.yul\":20424:20427   */\n      dup6\n        /* \"#utility.yul\":20406:20428   */\n      tag_547\n      jump\t// in\n    tag_804:\n        /* \"#utility.yul\":20396:20404   */\n      dup4\n        /* \"#utility.yul\":20392:20429   */\n      add\n        /* \"#utility.yul\":20379:20390   */\n      dup3\n        /* \"#utility.yul\":20350:20430   */\n      tag_556\n      jump\t// in\n    tag_803:\n        /* \"#utility.yul\":20009:20440   */\n      pop\n      pop\n        /* \"#utility.yul\":19994:20440   */\n    tag_799:\n        /* \"#utility.yul\":19904:20447   */\n      pop\n      pop\n      pop\n      jump\t// out\n        /* \"#utility.yul\":20453:20570   */\n    tag_558:\n        /* \"#utility.yul\":20507:20515   */\n      0x00\n        /* \"#utility.yul\":20557:20562   */\n      dup3\n        /* \"#utility.yul\":20551:20555   */\n      dup3\n        /* \"#utility.yul\":20547:20563   */\n      shr\n        /* \"#utility.yul\":20526:20563   */\n      swap1\n      pop\n        /* \"#utility.yul\":20453:20570   */\n      swap3\n      swap2\n      pop\n      pop\n      jump\t// out\n        /* \"#utility.yul\":20576:20745   */\n    tag_559:\n        /* \"#utility.yul\":20620:20626   */\n      0x00\n        /* \"#utility.yul\":20653:20704   */\n      tag_807\n        /* \"#utility.yul\":20701:20702   */\n      0x00\n        /* \"#utility.yul\":20697:20703   */\n      not\n        /* \"#utility.yul\":20689:20694   */\n      dup5\n        /* \"#utility.yul\":20686:20687   */\n      0x08\n        /* \"#utility.yul\":20682:20695   */\n      mul\n        /* \"#utility.yul\":20653:20704   */\n      tag_558\n      jump\t// in\n    tag_807:\n        /* \"#utility.yul\":20649:20705   */\n      not\n        /* \"#utility.yul\":20734:20738   */\n      dup1\n        /* \"#utility.yul\":20728:20732   */\n      dup4\n        /* \"#utility.yul\":20724:20739   */\n      and\n        /* \"#utility.yul\":20714:20739   */\n      swap2\n      pop\n        /* \"#utility.yul\":20627:20745   */\n      pop\n        /* \"#utility.yul\":20576:20745   */\n      swap3\n      swap2\n      pop\n      pop\n      jump\t// out\n        /* \"#utility.yul\":20750:21045   */\n    tag_560:\n        /* \"#utility.yul\":20826:20830   */\n      0x00\n        /* \"#utility.yul\":20972:21001   */\n      tag_809\n        /* \"#utility.yul\":20997:21000   */\n      dup4\n        /* \"#utility.yul\":20991:20995   */\n      dup4\n        /* \"#utility.yul\":20972:21001   */\n      tag_559\n      jump\t// in\n    tag_809:\n        /* \"#utility.yul\":20964:21001   */\n      swap2\n      pop\n        /* \"#utility.yul\":21034:21037   */\n      dup3\n        /* \"#utility.yul\":21031:21032   */\n      0x02\n        /* \"#utility.yul\":21027:21038   */\n      mul\n        /* \"#utility.yul\":21021:21025   */\n      dup3\n        /* \"#utility.yul\":21018:21039   */\n      or\n        /* \"#utility.yul\":21010:21039   */\n      swap1\n      pop\n        /* \"#utility.yul\":20750:21045   */\n      swap3\n      swap2\n      pop\n      pop\n      jump\t// out\n        /* \"#utility.yul\":21050:22453   */\n    tag_278:\n        /* \"#utility.yul\":21174:21218   */\n      tag_811\n        /* \"#utility.yul\":21214:21217   */\n      dup4\n        /* \"#utility.yul\":21209:21212   */\n      dup4\n        /* \"#utility.yul\":21174:21218   */\n      tag_544\n      jump\t// in\n    tag_811:\n        /* \"#utility.yul\":21283:21301   */\n      0xffffffffffffffff\n        /* \"#utility.yul\":21275:21281   */\n      dup2\n        /* \"#utility.yul\":21272:21302   */\n      gt\n        /* \"#utility.yul\":21269:21325   */\n      iszero\n      tag_812\n      jumpi\n        /* \"#utility.yul\":21305:21323   */\n      tag_813\n      tag_545\n      jump\t// in\n    tag_813:\n        /* \"#utility.yul\":21269:21325   */\n    tag_812:\n        /* \"#utility.yul\":21349:21387   */\n      tag_814\n        /* \"#utility.yul\":21381:21385   */\n      dup3\n        /* \"#utility.yul\":21375:21386   */\n      sload\n        /* \"#utility.yul\":21349:21387   */\n      tag_220\n      jump\t// in\n    tag_814:\n        /* \"#utility.yul\":21434:21501   */\n      tag_815\n        /* \"#utility.yul\":21494:21500   */\n      dup3\n        /* \"#utility.yul\":21486:21492   */\n      dup3\n        /* \"#utility.yul\":21480:21484   */\n      dup6\n        /* \"#utility.yul\":21434:21501   */\n      tag_557\n      jump\t// in\n    tag_815:\n        /* \"#utility.yul\":21528:21529   */\n      0x00\n        /* \"#utility.yul\":21557:21559   */\n      0x1f\n        /* \"#utility.yul\":21549:21555   */\n      dup4\n        /* \"#utility.yul\":21546:21560   */\n      gt\n        /* \"#utility.yul\":21574:21575   */\n      0x01\n        /* \"#utility.yul\":21569:22201   */\n      dup2\n      eq\n      tag_817\n      jumpi\n        /* \"#utility.yul\":22245:22246   */\n      0x00\n        /* \"#utility.yul\":22262:22268   */\n      dup5\n        /* \"#utility.yul\":22259:22343   */\n      iszero\n      tag_818\n      jumpi\n        /* \"#utility.yul\":22318:22327   */\n      dup3\n        /* \"#utility.yul\":22313:22316   */\n      dup8\n        /* \"#utility.yul\":22309:22328   */\n      add\n        /* \"#utility.yul\":22296:22329   */\n      calldataload\n        /* \"#utility.yul\":22287:22329   */\n      swap1\n      pop\n        /* \"#utility.yul\":22259:22343   */\n    tag_818:\n        /* \"#utility.yul\":22369:22436   */\n      tag_819\n        /* \"#utility.yul\":22429:22435   */\n      dup6\n        /* \"#utility.yul\":22422:22427   */\n      dup3\n        /* \"#utility.yul\":22369:22436   */\n      tag_560\n      jump\t// in\n    tag_819:\n        /* \"#utility.yul\":22363:22367   */\n      dup7\n        /* \"#utility.yul\":22356:22437   */\n      sstore\n        /* \"#utility.yul\":22218:22447   */\n      pop\n        /* \"#utility.yul\":21539:22447   */\n      jump(tag_816)\n        /* \"#utility.yul\":21569:22201   */\n    tag_817:\n        /* \"#utility.yul\":21621:21625   */\n      0x1f\n        /* \"#utility.yul\":21617:21626   */\n      not\n        /* \"#utility.yul\":21609:21615   */\n      dup5\n        /* \"#utility.yul\":21605:21627   */\n      and\n        /* \"#utility.yul\":21655:21692   */\n      tag_820\n        /* \"#utility.yul\":21687:21691   */\n      dup7\n        /* \"#utility.yul\":21655:21692   */\n      tag_546\n      jump\t// in\n    tag_820:\n        /* \"#utility.yul\":21714:21715   */\n      0x00\n        /* \"#utility.yul\":21728:21943   */\n    tag_821:\n        /* \"#utility.yul\":21742:21749   */\n      dup3\n        /* \"#utility.yul\":21739:21740   */\n      dup2\n        /* \"#utility.yul\":21736:21750   */\n      lt\n        /* \"#utility.yul\":21728:21943   */\n      iszero\n      tag_823\n      jumpi\n        /* \"#utility.yul\":21828:21837   */\n      dup5\n        /* \"#utility.yul\":21823:21826   */\n      dup10\n        /* \"#utility.yul\":21819:21838   */\n      add\n        /* \"#utility.yul\":21806:21839   */\n      calldataload\n        /* \"#utility.yul\":21798:21804   */\n      dup3\n        /* \"#utility.yul\":21791:21840   */\n      sstore\n        /* \"#utility.yul\":21879:21880   */\n      0x01\n        /* \"#utility.yul\":21871:21877   */\n      dup3\n        /* \"#utility.yul\":21867:21881   */\n      add\n        /* \"#utility.yul\":21857:21881   */\n      swap2\n      pop\n        /* \"#utility.yul\":21926:21928   */\n      0x20\n        /* \"#utility.yul\":21915:21924   */\n      dup6\n        /* \"#utility.yul\":21911:21929   */\n      add\n        /* \"#utility.yul\":21898:21929   */\n      swap5\n      pop\n        /* \"#utility.yul\":21765:21769   */\n      0x20\n        /* \"#utility.yul\":21762:21763   */\n      dup2\n        /* \"#utility.yul\":21758:21770   */\n      add\n        /* \"#utility.yul\":21753:21770   */\n      swap1\n      pop\n        /* \"#utility.yul\":21728:21943   */\n      jump(tag_821)\n    tag_823:\n        /* \"#utility.yul\":21971:21977   */\n      dup7\n        /* \"#utility.yul\":21962:21969   */\n      dup4\n        /* \"#utility.yul\":21959:21978   */\n      lt\n        /* \"#utility.yul\":21956:22142   */\n      iszero\n      tag_824\n      jumpi\n        /* \"#utility.yul\":22036:22045   */\n      dup5\n        /* \"#utility.yul\":22031:22034   */\n      dup10\n        /* \"#utility.yul\":22027:22046   */\n      add\n        /* \"#utility.yul\":22014:22047   */\n      calldataload\n        /* \"#utility.yul\":22079:22127   */\n      tag_825\n        /* \"#utility.yul\":22121:22125   */\n      0x1f\n        /* \"#utility.yul\":22113:22119   */\n      dup10\n        /* \"#utility.yul\":22109:22126   */\n      and\n        /* \"#utility.yul\":22098:22107   */\n      dup3\n        /* \"#utility.yul\":22079:22127   */\n      tag_559\n      jump\t// in\n    tag_825:\n        /* \"#utility.yul\":22071:22077   */\n      dup4\n        /* \"#utility.yul\":22064:22128   */\n      sstore\n        /* \"#utility.yul\":21979:22142   */\n      pop\n        /* \"#utility.yul\":21956:22142   */\n    tag_824:\n        /* \"#utility.yul\":22188:22189   */\n      0x01\n        /* \"#utility.yul\":22184:22185   */\n      0x02\n        /* \"#utility.yul\":22176:22182   */\n      dup9\n        /* \"#utility.yul\":22172:22186   */\n      mul\n        /* \"#utility.yul\":22168:22190   */\n      add\n        /* \"#utility.yul\":22162:22166   */\n      dup9\n        /* \"#utility.yul\":22155:22191   */\n      sstore\n        /* \"#utility.yul\":21576:22201   */\n      pop\n      pop\n      pop\n        /* \"#utility.yul\":21539:22447   */\n    tag_816:\n      pop\n        /* \"#utility.yul\":21149:22453   */\n      pop\n      pop\n      pop\n        /* \"#utility.yul\":21050:22453   */\n      pop\n      pop\n      pop\n      jump\t// out\n        /* \"#utility.yul\":22459:22628   */\n    tag_561:\n        /* \"#utility.yul\":22599:22620   */\n      0x4f4e4c595f494d504c454d454e544154494f4e00000000000000000000000000\n        /* \"#utility.yul\":22595:22596   */\n      0x00\n        /* \"#utility.yul\":22587:22593   */\n      dup3\n        /* \"#utility.yul\":22583:22597   */\n      add\n        /* \"#utility.yul\":22576:22621   */\n      mstore\n        /* \"#utility.yul\":22459:22628   */\n      pop\n      jump\t// out\n        /* \"#utility.yul\":22634:23000   */\n    tag_562:\n        /* \"#utility.yul\":22776:22779   */\n      0x00\n        /* \"#utility.yul\":22797:22864   */\n      tag_828\n        /* \"#utility.yul\":22861:22863   */\n      0x13\n        /* \"#utility.yul\":22856:22859   */\n      dup4\n        /* \"#utility.yul\":22797:22864   */\n      tag_509\n      jump\t// in\n    tag_828:\n        /* \"#utility.yul\":22790:22864   */\n      swap2\n      pop\n        /* \"#utility.yul\":22873:22966   */\n      tag_829\n        /* \"#utility.yul\":22962:22965   */\n      dup3\n        /* \"#utility.yul\":22873:22966   */\n      tag_561\n      jump\t// in\n    tag_829:\n        /* \"#utility.yul\":22991:22993   */\n      0x20\n        /* \"#utility.yul\":22986:22989   */\n      dup3\n        /* \"#utility.yul\":22982:22994   */\n      add\n        /* \"#utility.yul\":22975:22994   */\n      swap1\n      pop\n        /* \"#utility.yul\":22634:23000   */\n      swap2\n      swap1\n      pop\n      jump\t// out\n        /* \"#utility.yul\":23006:23425   */\n    tag_297:\n        /* \"#utility.yul\":23172:23176   */\n      0x00\n        /* \"#utility.yul\":23210:23212   */\n      0x20\n        /* \"#utility.yul\":23199:23208   */\n      dup3\n        /* \"#utility.yul\":23195:23213   */\n      add\n        /* \"#utility.yul\":23187:23213   */\n      swap1\n      pop\n        /* \"#utility.yul\":23259:23268   */\n      dup2\n        /* \"#utility.yul\":23253:23257   */\n      dup2\n        /* \"#utility.yul\":23249:23269   */\n      sub\n        /* \"#utility.yul\":23245:23246   */\n      0x00\n        /* \"#utility.yul\":23234:23243   */\n      dup4\n        /* \"#utility.yul\":23230:23247   */\n      add\n        /* \"#utility.yul\":23223:23270   */\n      mstore\n        /* \"#utility.yul\":23287:23418   */\n      tag_831\n        /* \"#utility.yul\":23413:23417   */\n      dup2\n        /* \"#utility.yul\":23287:23418   */\n      tag_562\n      jump\t// in\n    tag_831:\n        /* \"#utility.yul\":23279:23418   */\n      swap1\n      pop\n        /* \"#utility.yul\":23006:23425   */\n      swap2\n      swap1\n      pop\n      jump\t// out\n        /* \"#utility.yul\":23431:23595   */\n    tag_563:\n        /* \"#utility.yul\":23571:23587   */\n      0x554e4b4e4f574e5f4d41524b4554000000000000000000000000000000000000\n        /* \"#utility.yul\":23567:23568   */\n      0x00\n        /* \"#utility.yul\":23559:23565   */\n      dup3\n        /* \"#utility.yul\":23555:23569   */\n      add\n        /* \"#utility.yul\":23548:23588   */\n      mstore\n        /* \"#utility.yul\":23431:23595   */\n      pop\n      jump\t// out\n        /* \"#utility.yul\":23601:23967   */\n    tag_564:\n        /* \"#utility.yul\":23743:23746   */\n      0x00\n        /* \"#utility.yul\":23764:23831   */\n      tag_834\n        /* \"#utility.yul\":23828:23830   */\n      0x0e\n        /* \"#utility.yul\":23823:23826   */\n      dup4\n        /* \"#utility.yul\":23764:23831   */\n      tag_509\n      jump\t// in\n    tag_834:\n        /* \"#utility.yul\":23757:23831   */\n      swap2\n      pop\n        /* \"#utility.yul\":23840:23933   */\n      tag_835\n        /* \"#utility.yul\":23929:23932   */\n      dup3\n        /* \"#utility.yul\":23840:23933   */\n      tag_563\n      jump\t// in\n    tag_835:\n        /* \"#utility.yul\":23958:23960   */\n      0x20\n        /* \"#utility.yul\":23953:23956   */\n      dup3\n        /* \"#utility.yul\":23949:23961   */\n      add\n        /* \"#utility.yul\":23942:23961   */\n      swap1\n      pop\n        /* \"#utility.yul\":23601:23967   */\n      swap2\n      swap1\n      pop\n      jump\t// out\n        /* \"#utility.yul\":23973:24392   */\n    tag_304:\n        /* \"#utility.yul\":24139:24143   */\n      0x00\n        /* \"#utility.yul\":24177:24179   */\n      0x20\n        /* \"#utility.yul\":24166:24175   */\n      dup3\n        /* \"#utility.yul\":24162:24180   */\n      add\n        /* \"#utility.yul\":24154:24180   */\n      swap1\n      pop\n        /* \"#utility.yul\":24226:24235   */\n      dup2\n        /* \"#utility.yul\":24220:24224   */\n      dup2\n        /* \"#utility.yul\":24216:24236   */\n      sub\n        /* \"#utility.yul\":24212:24213   */\n      0x00\n        /* \"#utility.yul\":24201:24210   */\n      dup4\n        /* \"#utility.yul\":24197:24214   */\n      add\n        /* \"#utility.yul\":24190:24237   */\n      mstore\n        /* \"#utility.yul\":24254:24385   */\n      tag_837\n        /* \"#utility.yul\":24380:24384   */\n      dup2\n        /* \"#utility.yul\":24254:24385   */\n      tag_564\n      jump\t// in\n    tag_837:\n        /* \"#utility.yul\":24246:24385   */\n      swap1\n      pop\n        /* \"#utility.yul\":23973:24392   */\n      swap2\n      swap1\n      pop\n      jump\t// out\n        /* \"#utility.yul\":24398:24565   */\n    tag_565:\n        /* \"#utility.yul\":24538:24557   */\n      0x4e4f5f465245455f4c4951554944495459000000000000000000000000000000\n        /* \"#utility.yul\":24534:24535   */\n      0x00\n        /* \"#utility.yul\":24526:24532   */\n      dup3\n        /* \"#utility.yul\":24522:24536   */\n      add\n        /* \"#utility.yul\":24515:24558   */\n      mstore\n        /* \"#utility.yul\":24398:24565   */\n      pop\n      jump\t// out\n        /* \"#utility.yul\":24571:24937   */\n    tag_566:\n        /* \"#utility.yul\":24713:24716   */\n      0x00\n        /* \"#utility.yul\":24734:24801   */\n      tag_840\n        /* \"#utility.yul\":24798:24800   */\n      0x11\n        /* \"#utility.yul\":24793:24796   */\n      dup4\n        /* \"#utility.yul\":24734:24801   */\n      tag_509\n      jump\t// in\n    tag_840:\n        /* \"#utility.yul\":24727:24801   */\n      swap2\n      pop\n        /* \"#utility.yul\":24810:24903   */\n      tag_841\n        /* \"#utility.yul\":24899:24902   */\n      dup3\n        /* \"#utility.yul\":24810:24903   */\n      tag_565\n      jump\t// in\n    tag_841:\n        /* \"#utility.yul\":24928:24930   */\n      0x20\n        /* \"#utility.yul\":24923:24926   */\n      dup3\n        /* \"#utility.yul\":24919:24931   */\n      add\n        /* \"#utility.yul\":24912:24931   */\n      swap1\n      pop\n        /* \"#utility.yul\":24571:24937   */\n      swap2\n      swap1\n      pop\n      jump\t// out\n        /* \"#utility.yul\":24943:25362   */\n    tag_308:\n        /* \"#utility.yul\":25109:25113   */\n      0x00\n        /* \"#utility.yul\":25147:25149   */\n      0x20\n        /* \"#utility.yul\":25136:25145   */\n      dup3\n        /* \"#utility.yul\":25132:25150   */\n      add\n        /* \"#utility.yul\":25124:25150   */\n      swap1\n      pop\n        /* \"#utility.yul\":25196:25205   */\n      dup2\n        /* \"#utility.yul\":25190:25194   */\n      dup2\n        /* \"#utility.yul\":25186:25206   */\n      sub\n        /* \"#utility.yul\":25182:25183   */\n      0x00\n        /* \"#utility.yul\":25171:25180   */\n      dup4\n        /* \"#utility.yul\":25167:25184   */\n      add\n        /* \"#utility.yul\":25160:25207   */\n      mstore\n        /* \"#utility.yul\":25224:25355   */\n      tag_843\n        /* \"#utility.yul\":25350:25354   */\n      dup2\n        /* \"#utility.yul\":25224:25355   */\n      tag_566\n      jump\t// in\n    tag_843:\n        /* \"#utility.yul\":25216:25355   */\n      swap1\n      pop\n        /* \"#utility.yul\":24943:25362   */\n      swap2\n      swap1\n      pop\n      jump\t// out\n        /* \"#utility.yul\":25368:25700   */\n    tag_311:\n        /* \"#utility.yul\":25489:25493   */\n      0x00\n        /* \"#utility.yul\":25527:25529   */\n      0x40\n        /* \"#utility.yul\":25516:25525   */\n      dup3\n        /* \"#utility.yul\":25512:25530   */\n      add\n        /* \"#utility.yul\":25504:25530   */\n      swap1\n      pop\n        /* \"#utility.yul\":25540:25611   */\n      tag_845\n        /* \"#utility.yul\":25608:25609   */\n      0x00\n        /* \"#utility.yul\":25597:25606   */\n      dup4\n        /* \"#utility.yul\":25593:25610   */\n      add\n        /* \"#utility.yul\":25584:25590   */\n      dup6\n        /* \"#utility.yul\":25540:25611   */\n      tag_524\n      jump\t// in\n    tag_845:\n        /* \"#utility.yul\":25621:25693   */\n      tag_846\n        /* \"#utility.yul\":25689:25691   */\n      0x20\n        /* \"#utility.yul\":25678:25687   */\n      dup4\n        /* \"#utility.yul\":25674:25692   */\n      add\n        /* \"#utility.yul\":25665:25671   */\n      dup5\n        /* \"#utility.yul\":25621:25693   */\n      tag_507\n      jump\t// in\n    tag_846:\n        /* \"#utility.yul\":25368:25700   */\n      swap4\n      swap3\n      pop\n      pop\n      pop\n      jump\t// out\n        /* \"#utility.yul\":25706:25822   */\n    tag_567:\n        /* \"#utility.yul\":25776:25797   */\n      tag_848\n        /* \"#utility.yul\":25791:25796   */\n      dup2\n        /* \"#utility.yul\":25776:25797   */\n      tag_522\n      jump\t// in\n    tag_848:\n        /* \"#utility.yul\":25769:25774   */\n      dup2\n        /* \"#utility.yul\":25766:25798   */\n      eq\n        /* \"#utility.yul\":25756:25816   */\n      tag_849\n      jumpi\n        /* \"#utility.yul\":25812:25813   */\n      0x00\n        /* \"#utility.yul\":25809:25810   */\n      0x00\n        /* \"#utility.yul\":25802:25814   */\n      revert\n        /* \"#utility.yul\":25756:25816   */\n    tag_849:\n        /* \"#utility.yul\":25706:25822   */\n      pop\n      jump\t// out\n        /* \"#utility.yul\":25828:25965   */\n    tag_568:\n        /* \"#utility.yul\":25882:25887   */\n      0x00\n        /* \"#utility.yul\":25913:25919   */\n      dup2\n        /* \"#utility.yul\":25907:25920   */\n      mload\n        /* \"#utility.yul\":25898:25920   */\n      swap1\n      pop\n        /* \"#utility.yul\":25929:25959   */\n      tag_851\n        /* \"#utility.yul\":25953:25958   */\n      dup2\n        /* \"#utility.yul\":25929:25959   */\n      tag_567\n      jump\t// in\n    tag_851:\n        /* \"#utility.yul\":25828:25965   */\n      swap3\n      swap2\n      pop\n      pop\n      jump\t// out\n        /* \"#utility.yul\":25971:26316   */\n    tag_315:\n        /* \"#utility.yul\":26038:26044   */\n      0x00\n        /* \"#utility.yul\":26087:26089   */\n      0x20\n        /* \"#utility.yul\":26075:26084   */\n      dup3\n        /* \"#utility.yul\":26066:26073   */\n      dup5\n        /* \"#utility.yul\":26062:26085   */\n      sub\n        /* \"#utility.yul\":26058:26090   */\n      slt\n        /* \"#utility.yul\":26055:26174   */\n      iszero\n      tag_853\n      jumpi\n        /* \"#utility.yul\":26093:26172   */\n      tag_854\n      tag_514\n      jump\t// in\n    tag_854:\n        /* \"#utility.yul\":26055:26174   */\n    tag_853:\n        /* \"#utility.yul\":26213:26214   */\n      0x00\n        /* \"#utility.yul\":26238:26299   */\n      tag_855\n        /* \"#utility.yul\":26291:26298   */\n      dup5\n        /* \"#utility.yul\":26282:26288   */\n      dup3\n        /* \"#utility.yul\":26271:26280   */\n      dup6\n        /* \"#utility.yul\":26267:26289   */\n      add\n        /* \"#utility.yul\":26238:26299   */\n      tag_568\n      jump\t// in\n    tag_855:\n        /* \"#utility.yul\":26228:26299   */\n      swap2\n      pop\n        /* \"#utility.yul\":26184:26309   */\n      pop\n        /* \"#utility.yul\":25971:26316   */\n      swap3\n      swap2\n      pop\n      pop\n      jump\t// out\n        /* \"#utility.yul\":26322:26489   */\n    tag_569:\n        /* \"#utility.yul\":26462:26481   */\n      0x4445504f5349545f544f4f5f534d414c4c000000000000000000000000000000\n        /* \"#utility.yul\":26458:26459   */\n      0x00\n        /* \"#utility.yul\":26450:26456   */\n      dup3\n        /* \"#utility.yul\":26446:26460   */\n      add\n        /* \"#utility.yul\":26439:26482   */\n      mstore\n        /* \"#utility.yul\":26322:26489   */\n      pop\n      jump\t// out\n        /* \"#utility.yul\":26495:26861   */\n    tag_570:\n        /* \"#utility.yul\":26637:26640   */\n      0x00\n        /* \"#utility.yul\":26658:26725   */\n      tag_858\n        /* \"#utility.yul\":26722:26724   */\n      0x11\n        /* \"#utility.yul\":26717:26720   */\n      dup4\n        /* \"#utility.yul\":26658:26725   */\n      tag_509\n      jump\t// in\n    tag_858:\n        /* \"#utility.yul\":26651:26725   */\n      swap2\n      pop\n        /* \"#utility.yul\":26734:26827   */\n      tag_859\n        /* \"#utility.yul\":26823:26826   */\n      dup3\n        /* \"#utility.yul\":26734:26827   */\n      tag_569\n      jump\t// in\n    tag_859:\n        /* \"#utility.yul\":26852:26854   */\n      0x20\n        /* \"#utility.yul\":26847:26850   */\n      dup3\n        /* \"#utility.yul\":26843:26855   */\n      add\n        /* \"#utility.yul\":26836:26855   */\n      swap1\n      pop\n        /* \"#utility.yul\":26495:26861   */\n      swap2\n      swap1\n      pop\n      jump\t// out\n        /* \"#utility.yul\":26867:27286   */\n    tag_332:\n        /* \"#utility.yul\":27033:27037   */\n      0x00\n        /* \"#utility.yul\":27071:27073   */\n      0x20\n        /* \"#utility.yul\":27060:27069   */\n      dup3\n        /* \"#utility.yul\":27056:27074   */\n      add\n        /* \"#utility.yul\":27048:27074   */\n      swap1\n      pop\n        /* \"#utility.yul\":27120:27129   */\n      dup2\n        /* \"#utility.yul\":27114:27118   */\n      dup2\n        /* \"#utility.yul\":27110:27130   */\n      sub\n        /* \"#utility.yul\":27106:27107   */\n      0x00\n        /* \"#utility.yul\":27095:27104   */\n      dup4\n        /* \"#utility.yul\":27091:27108   */\n      add\n        /* \"#utility.yul\":27084:27131   */\n      mstore\n        /* \"#utility.yul\":27148:27279   */\n      tag_861\n        /* \"#utility.yul\":27274:27278   */\n      dup2\n        /* \"#utility.yul\":27148:27279   */\n      tag_570\n      jump\t// in\n    tag_861:\n        /* \"#utility.yul\":27140:27279   */\n      swap1\n      pop\n        /* \"#utility.yul\":26867:27286   */\n      swap2\n      swap1\n      pop\n      jump\t// out\n        /* \"#utility.yul\":27292:27453   */\n    tag_571:\n        /* \"#utility.yul\":27432:27445   */\n      0x5a45524f5f4d41524b4554000000000000000000000000000000000000000000\n        /* \"#utility.yul\":27428:27429   */\n      0x00\n        /* \"#utility.yul\":27420:27426   */\n      dup3\n        /* \"#utility.yul\":27416:27430   */\n      add\n        /* \"#utility.yul\":27409:27446   */\n      mstore\n        /* \"#utility.yul\":27292:27453   */\n      pop\n      jump\t// out\n        /* \"#utility.yul\":27459:27825   */\n    tag_572:\n        /* \"#utility.yul\":27601:27604   */\n      0x00\n        /* \"#utility.yul\":27622:27689   */\n      tag_864\n        /* \"#utility.yul\":27686:27688   */\n      0x0b\n        /* \"#utility.yul\":27681:27684   */\n      dup4\n        /* \"#utility.yul\":27622:27689   */\n      tag_509\n      jump\t// in\n    tag_864:\n        /* \"#utility.yul\":27615:27689   */\n      swap2\n      pop\n        /* \"#utility.yul\":27698:27791   */\n      tag_865\n        /* \"#utility.yul\":27787:27790   */\n      dup3\n        /* \"#utility.yul\":27698:27791   */\n      tag_571\n      jump\t// in\n    tag_865:\n        /* \"#utility.yul\":27816:27818   */\n      0x20\n        /* \"#utility.yul\":27811:27814   */\n      dup3\n        /* \"#utility.yul\":27807:27819   */\n      add\n        /* \"#utility.yul\":27800:27819   */\n      swap1\n      pop\n        /* \"#utility.yul\":27459:27825   */\n      swap2\n      swap1\n      pop\n      jump\t// out\n        /* \"#utility.yul\":27831:28250   */\n    tag_347:\n        /* \"#utility.yul\":27997:28001   */\n      0x00\n        /* \"#utility.yul\":28035:28037   */\n      0x20\n        /* \"#utility.yul\":28024:28033   */\n      dup3\n        /* \"#utility.yul\":28020:28038   */\n      add\n        /* \"#utility.yul\":28012:28038   */\n      swap1\n      pop\n        /* \"#utility.yul\":28084:28093   */\n      dup2\n        /* \"#utility.yul\":28078:28082   */\n      dup2\n        /* \"#utility.yul\":28074:28094   */\n      sub\n        /* \"#utility.yul\":28070:28071   */\n      0x00\n        /* \"#utility.yul\":28059:28068   */\n      dup4\n        /* \"#utility.yul\":28055:28072   */\n      add\n        /* \"#utility.yul\":28048:28095   */\n      mstore\n        /* \"#utility.yul\":28112:28243   */\n      tag_867\n        /* \"#utility.yul\":28238:28242   */\n      dup2\n        /* \"#utility.yul\":28112:28243   */\n      tag_572\n      jump\t// in\n    tag_867:\n        /* \"#utility.yul\":28104:28243   */\n      swap1\n      pop\n        /* \"#utility.yul\":27831:28250   */\n      swap2\n      swap1\n      pop\n      jump\t// out\n        /* \"#utility.yul\":28256:28419   */\n    tag_573:\n        /* \"#utility.yul\":28396:28411   */\n      0x4d41524b45545f45584953545300000000000000000000000000000000000000\n        /* \"#utility.yul\":28392:28393   */\n      0x00\n        /* \"#utility.yul\":28384:28390   */\n      dup3\n        /* \"#utility.yul\":28380:28394   */\n      add\n        /* \"#utility.yul\":28373:28412   */\n      mstore\n        /* \"#utility.yul\":28256:28419   */\n      pop\n      jump\t// out\n        /* \"#utility.yul\":28425:28791   */\n    tag_574:\n        /* \"#utility.yul\":28567:28570   */\n      0x00\n        /* \"#utility.yul\":28588:28655   */\n      tag_870\n        /* \"#utility.yul\":28652:28654   */\n      0x0d\n        /* \"#utility.yul\":28647:28650   */\n      dup4\n        /* \"#utility.yul\":28588:28655   */\n      tag_509\n      jump\t// in\n    tag_870:\n        /* \"#utility.yul\":28581:28655   */\n      swap2\n      pop\n        /* \"#utility.yul\":28664:28757   */\n      tag_871\n        /* \"#utility.yul\":28753:28756   */\n      dup3\n        /* \"#utility.yul\":28664:28757   */\n      tag_573\n      jump\t// in\n    tag_871:\n        /* \"#utility.yul\":28782:28784   */\n      0x20\n        /* \"#utility.yul\":28777:28780   */\n      dup3\n        /* \"#utility.yul\":28773:28785   */\n      add\n        /* \"#utility.yul\":28766:28785   */\n      swap1\n      pop\n        /* \"#utility.yul\":28425:28791   */\n      swap2\n      swap1\n      pop\n      jump\t// out\n        /* \"#utility.yul\":28797:29216   */\n    tag_350:\n        /* \"#utility.yul\":28963:28967   */\n      0x00\n        /* \"#utility.yul\":29001:29003   */\n      0x20\n        /* \"#utility.yul\":28990:28999   */\n      dup3\n        /* \"#utility.yul\":28986:29004   */\n      add\n        /* \"#utility.yul\":28978:29004   */\n      swap1\n      pop\n        /* \"#utility.yul\":29050:29059   */\n      dup2\n        /* \"#utility.yul\":29044:29048   */\n      dup2\n        /* \"#utility.yul\":29040:29060   */\n      sub\n        /* \"#utility.yul\":29036:29037   */\n      0x00\n        /* \"#utility.yul\":29025:29034   */\n      dup4\n        /* \"#utility.yul\":29021:29038   */\n      add\n        /* \"#utility.yul\":29014:29061   */\n      mstore\n        /* \"#utility.yul\":29078:29209   */\n      tag_873\n        /* \"#utility.yul\":29204:29208   */\n      dup2\n        /* \"#utility.yul\":29078:29209   */\n      tag_574\n      jump\t// in\n    tag_873:\n        /* \"#utility.yul\":29070:29209   */\n      swap1\n      pop\n        /* \"#utility.yul\":28797:29216   */\n      swap2\n      swap1\n      pop\n      jump\t// out\n        /* \"#utility.yul\":29222:29383   */\n    tag_575:\n        /* \"#utility.yul\":29362:29375   */\n      0x5a45524f5f534841524553000000000000000000000000000000000000000000\n        /* \"#utility.yul\":29358:29359   */\n      0x00\n        /* \"#utility.yul\":29350:29356   */\n      dup3\n        /* \"#utility.yul\":29346:29360   */\n      add\n        /* \"#utility.yul\":29339:29376   */\n      mstore\n        /* \"#utility.yul\":29222:29383   */\n      pop\n      jump\t// out\n        /* \"#utility.yul\":29389:29755   */\n    tag_576:\n        /* \"#utility.yul\":29531:29534   */\n      0x00\n        /* \"#utility.yul\":29552:29619   */\n      tag_876\n        /* \"#utility.yul\":29616:29618   */\n      0x0b\n        /* \"#utility.yul\":29611:29614   */\n      dup4\n        /* \"#utility.yul\":29552:29619   */\n      tag_509\n      jump\t// in\n    tag_876:\n        /* \"#utility.yul\":29545:29619   */\n      swap2\n      pop\n        /* \"#utility.yul\":29628:29721   */\n      tag_877\n        /* \"#utility.yul\":29717:29720   */\n      dup3\n        /* \"#utility.yul\":29628:29721   */\n      tag_575\n      jump\t// in\n    tag_877:\n        /* \"#utility.yul\":29746:29748   */\n      0x20\n        /* \"#utility.yul\":29741:29744   */\n      dup3\n        /* \"#utility.yul\":29737:29749   */\n      add\n        /* \"#utility.yul\":29730:29749   */\n      swap1\n      pop\n        /* \"#utility.yul\":29389:29755   */\n      swap2\n      swap1\n      pop\n      jump\t// out\n        /* \"#utility.yul\":29761:30180   */\n    tag_355:\n        /* \"#utility.yul\":29927:29931   */\n      0x00\n        /* \"#utility.yul\":29965:29967   */\n      0x20\n        /* \"#utility.yul\":29954:29963   */\n      dup3\n        /* \"#utility.yul\":29950:29968   */\n      add\n        /* \"#utility.yul\":29942:29968   */\n      swap1\n      pop\n        /* \"#utility.yul\":30014:30023   */\n      dup2\n        /* \"#utility.yul\":30008:30012   */\n      dup2\n        /* \"#utility.yul\":30004:30024   */\n      sub\n        /* \"#utility.yul\":30000:30001   */\n      0x00\n        /* \"#utility.yul\":29989:29998   */\n      dup4\n        /* \"#utility.yul\":29985:30002   */\n      add\n        /* \"#utility.yul\":29978:30025   */\n      mstore\n        /* \"#utility.yul\":30042:30173   */\n      tag_879\n        /* \"#utility.yul\":30168:30172   */\n      dup2\n        /* \"#utility.yul\":30042:30173   */\n      tag_576\n      jump\t// in\n    tag_879:\n        /* \"#utility.yul\":30034:30173   */\n      swap1\n      pop\n        /* \"#utility.yul\":29761:30180   */\n      swap2\n      swap1\n      pop\n      jump\t// out\n        /* \"#utility.yul\":30186:30347   */\n    tag_577:\n        /* \"#utility.yul\":30326:30339   */\n      0x5a45524f5f415353455453000000000000000000000000000000000000000000\n        /* \"#utility.yul\":30322:30323   */\n      0x00\n        /* \"#utility.yul\":30314:30320   */\n      dup3\n        /* \"#utility.yul\":30310:30324   */\n      add\n        /* \"#utility.yul\":30303:30340   */\n      mstore\n        /* \"#utility.yul\":30186:30347   */\n      pop\n      jump\t// out\n        /* \"#utility.yul\":30353:30719   */\n    tag_578:\n        /* \"#utility.yul\":30495:30498   */\n      0x00\n        /* \"#utility.yul\":30516:30583   */\n      tag_882\n        /* \"#utility.yul\":30580:30582   */\n      0x0b\n        /* \"#utility.yul\":30575:30578   */\n      dup4\n        /* \"#utility.yul\":30516:30583   */\n      tag_509\n      jump\t// in\n    tag_882:\n        /* \"#utility.yul\":30509:30583   */\n      swap2\n      pop\n        /* \"#utility.yul\":30592:30685   */\n      tag_883\n        /* \"#utility.yul\":30681:30684   */\n      dup3\n        /* \"#utility.yul\":30592:30685   */\n      tag_577\n      jump\t// in\n    tag_883:\n        /* \"#utility.yul\":30710:30712   */\n      0x20\n        /* \"#utility.yul\":30705:30708   */\n      dup3\n        /* \"#utility.yul\":30701:30713   */\n      add\n        /* \"#utility.yul\":30694:30713   */\n      swap1\n      pop\n        /* \"#utility.yul\":30353:30719   */\n      swap2\n      swap1\n      pop\n      jump\t// out\n        /* \"#utility.yul\":30725:31144   */\n    tag_359:\n        /* \"#utility.yul\":30891:30895   */\n      0x00\n        /* \"#utility.yul\":30929:30931   */\n      0x20\n        /* \"#utility.yul\":30918:30927   */\n      dup3\n        /* \"#utility.yul\":30914:30932   */\n      add\n        /* \"#utility.yul\":30906:30932   */\n      swap1\n      pop\n        /* \"#utility.yul\":30978:30987   */\n      dup2\n        /* \"#utility.yul\":30972:30976   */\n      dup2\n        /* \"#utility.yul\":30968:30988   */\n      sub\n        /* \"#utility.yul\":30964:30965   */\n      0x00\n        /* \"#utility.yul\":30953:30962   */\n      dup4\n        /* \"#utility.yul\":30949:30966   */\n      add\n        /* \"#utility.yul\":30942:30989   */\n      mstore\n        /* \"#utility.yul\":31006:31137   */\n      tag_885\n        /* \"#utility.yul\":31132:31136   */\n      dup2\n        /* \"#utility.yul\":31006:31137   */\n      tag_578\n      jump\t// in\n    tag_885:\n        /* \"#utility.yul\":30998:31137   */\n      swap1\n      pop\n        /* \"#utility.yul\":30725:31144   */\n      swap2\n      swap1\n      pop\n      jump\t// out\n        /* \"#utility.yul\":31150:31592   */\n    tag_361:\n        /* \"#utility.yul\":31299:31303   */\n      0x00\n        /* \"#utility.yul\":31337:31339   */\n      0x60\n        /* \"#utility.yul\":31326:31335   */\n      dup3\n        /* \"#utility.yul\":31322:31340   */\n      add\n        /* \"#utility.yul\":31314:31340   */\n      swap1\n      pop\n        /* \"#utility.yul\":31350:31421   */\n      tag_887\n        /* \"#utility.yul\":31418:31419   */\n      0x00\n        /* \"#utility.yul\":31407:31416   */\n      dup4\n        /* \"#utility.yul\":31403:31420   */\n      add\n        /* \"#utility.yul\":31394:31400   */\n      dup7\n        /* \"#utility.yul\":31350:31421   */\n      tag_524\n      jump\t// in\n    tag_887:\n        /* \"#utility.yul\":31431:31503   */\n      tag_888\n        /* \"#utility.yul\":31499:31501   */\n      0x20\n        /* \"#utility.yul\":31488:31497   */\n      dup4\n        /* \"#utility.yul\":31484:31502   */\n      add\n        /* \"#utility.yul\":31475:31481   */\n      dup6\n        /* \"#utility.yul\":31431:31503   */\n      tag_524\n      jump\t// in\n    tag_888:\n        /* \"#utility.yul\":31513:31585   */\n      tag_889\n        /* \"#utility.yul\":31581:31583   */\n      0x40\n        /* \"#utility.yul\":31570:31579   */\n      dup4\n        /* \"#utility.yul\":31566:31584   */\n      add\n        /* \"#utility.yul\":31557:31563   */\n      dup5\n        /* \"#utility.yul\":31513:31585   */\n      tag_507\n      jump\t// in\n    tag_889:\n        /* \"#utility.yul\":31150:31592   */\n      swap5\n      swap4\n      pop\n      pop\n      pop\n      pop\n      jump\t// out\n        /* \"#utility.yul\":31598:31930   */\n    tag_368:\n        /* \"#utility.yul\":31719:31723   */\n      0x00\n        /* \"#utility.yul\":31757:31759   */\n      0x40\n        /* \"#utility.yul\":31746:31755   */\n      dup3\n        /* \"#utility.yul\":31742:31760   */\n      add\n        /* \"#utility.yul\":31734:31760   */\n      swap1\n      pop\n        /* \"#utility.yul\":31770:31841   */\n      tag_891\n        /* \"#utility.yul\":31838:31839   */\n      0x00\n        /* \"#utility.yul\":31827:31836   */\n      dup4\n        /* \"#utility.yul\":31823:31840   */\n      add\n        /* \"#utility.yul\":31814:31820   */\n      dup6\n        /* \"#utility.yul\":31770:31841   */\n      tag_507\n      jump\t// in\n    tag_891:\n        /* \"#utility.yul\":31851:31923   */\n      tag_892\n        /* \"#utility.yul\":31919:31921   */\n      0x20\n        /* \"#utility.yul\":31908:31917   */\n      dup4\n        /* \"#utility.yul\":31904:31922   */\n      add\n        /* \"#utility.yul\":31895:31901   */\n      dup5\n        /* \"#utility.yul\":31851:31923   */\n      tag_507\n      jump\t// in\n    tag_892:\n        /* \"#utility.yul\":31598:31930   */\n      swap4\n      swap3\n      pop\n      pop\n      pop\n      jump\t// out\n        /* \"#utility.yul\":31936:32093   */\n    tag_579:\n        /* \"#utility.yul\":32076:32085   */\n      0x5a45524f5f544f00000000000000000000000000000000000000000000000000\n        /* \"#utility.yul\":32072:32073   */\n      0x00\n        /* \"#utility.yul\":32064:32070   */\n      dup3\n        /* \"#utility.yul\":32060:32074   */\n      add\n        /* \"#utility.yul\":32053:32086   */\n      mstore\n        /* \"#utility.yul\":31936:32093   */\n      pop\n      jump\t// out\n        /* \"#utility.yul\":32099:32464   */\n    tag_580:\n        /* \"#utility.yul\":32241:32244   */\n      0x00\n        /* \"#utility.yul\":32262:32328   */\n      tag_895\n        /* \"#utility.yul\":32326:32327   */\n      0x07\n        /* \"#utility.yul\":32321:32324   */\n      dup4\n        /* \"#utility.yul\":32262:32328   */\n      tag_509\n      jump\t// in\n    tag_895:\n        /* \"#utility.yul\":32255:32328   */\n      swap2\n      pop\n        /* \"#utility.yul\":32337:32430   */\n      tag_896\n        /* \"#utility.yul\":32426:32429   */\n      dup3\n        /* \"#utility.yul\":32337:32430   */\n      tag_579\n      jump\t// in\n    tag_896:\n        /* \"#utility.yul\":32455:32457   */\n      0x20\n        /* \"#utility.yul\":32450:32453   */\n      dup3\n        /* \"#utility.yul\":32446:32458   */\n      add\n        /* \"#utility.yul\":32439:32458   */\n      swap1\n      pop\n        /* \"#utility.yul\":32099:32464   */\n      swap2\n      swap1\n      pop\n      jump\t// out\n        /* \"#utility.yul\":32470:32889   */\n    tag_422:\n        /* \"#utility.yul\":32636:32640   */\n      0x00\n        /* \"#utility.yul\":32674:32676   */\n      0x20\n        /* \"#utility.yul\":32663:32672   */\n      dup3\n        /* \"#utility.yul\":32659:32677   */\n      add\n        /* \"#utility.yul\":32651:32677   */\n      swap1\n      pop\n        /* \"#utility.yul\":32723:32732   */\n      dup2\n        /* \"#utility.yul\":32717:32721   */\n      dup2\n        /* \"#utility.yul\":32713:32733   */\n      sub\n        /* \"#utility.yul\":32709:32710   */\n      0x00\n        /* \"#utility.yul\":32698:32707   */\n      dup4\n        /* \"#utility.yul\":32694:32711   */\n      add\n        /* \"#utility.yul\":32687:32734   */\n      mstore\n        /* \"#utility.yul\":32751:32882   */\n      tag_898\n        /* \"#utility.yul\":32877:32881   */\n      dup2\n        /* \"#utility.yul\":32751:32882   */\n      tag_580\n      jump\t// in\n    tag_898:\n        /* \"#utility.yul\":32743:32882   */\n      swap1\n      pop\n        /* \"#utility.yul\":32470:32889   */\n      swap2\n      swap1\n      pop\n      jump\t// out\n        /* \"#utility.yul\":32895:33065   */\n    tag_581:\n        /* \"#utility.yul\":33035:33057   */\n      0x494e53554646494349454e545f42414c414e4345000000000000000000000000\n        /* \"#utility.yul\":33031:33032   */\n      0x00\n        /* \"#utility.yul\":33023:33029   */\n      dup3\n        /* \"#utility.yul\":33019:33033   */\n      add\n        /* \"#utility.yul\":33012:33058   */\n      mstore\n        /* \"#utility.yul\":32895:33065   */\n      pop\n      jump\t// out\n        /* \"#utility.yul\":33071:33437   */\n    tag_582:\n        /* \"#utility.yul\":33213:33216   */\n      0x00\n        /* \"#utility.yul\":33234:33301   */\n      tag_901\n        /* \"#utility.yul\":33298:33300   */\n      0x14\n        /* \"#utility.yul\":33293:33296   */\n      dup4\n        /* \"#utility.yul\":33234:33301   */\n      tag_509\n      jump\t// in\n    tag_901:\n        /* \"#utility.yul\":33227:33301   */\n      swap2\n      pop\n        /* \"#utility.yul\":33310:33403   */\n      tag_902\n        /* \"#utility.yul\":33399:33402   */\n      dup3\n        /* \"#utility.yul\":33310:33403   */\n      tag_581\n      jump\t// in\n    tag_902:\n        /* \"#utility.yul\":33428:33430   */\n      0x20\n        /* \"#utility.yul\":33423:33426   */\n      dup3\n        /* \"#utility.yul\":33419:33431   */\n      add\n        /* \"#utility.yul\":33412:33431   */\n      swap1\n      pop\n        /* \"#utility.yul\":33071:33437   */\n      swap2\n      swap1\n      pop\n      jump\t// out\n        /* \"#utility.yul\":33443:33862   */\n    tag_425:\n        /* \"#utility.yul\":33609:33613   */\n      0x00\n        /* \"#utility.yul\":33647:33649   */\n      0x20\n        /* \"#utility.yul\":33636:33645   */\n      dup3\n        /* \"#utility.yul\":33632:33650   */\n      add\n        /* \"#utility.yul\":33624:33650   */\n      swap1\n      pop\n        /* \"#utility.yul\":33696:33705   */\n      dup2\n        /* \"#utility.yul\":33690:33694   */\n      dup2\n        /* \"#utility.yul\":33686:33706   */\n      sub\n        /* \"#utility.yul\":33682:33683   */\n      0x00\n        /* \"#utility.yul\":33671:33680   */\n      dup4\n        /* \"#utility.yul\":33667:33684   */\n      add\n        /* \"#utility.yul\":33660:33707   */\n      mstore\n        /* \"#utility.yul\":33724:33855   */\n      tag_904\n        /* \"#utility.yul\":33850:33854   */\n      dup2\n        /* \"#utility.yul\":33724:33855   */\n      tag_582\n      jump\t// in\n    tag_904:\n        /* \"#utility.yul\":33716:33855   */\n      swap1\n      pop\n        /* \"#utility.yul\":33443:33862   */\n      swap2\n      swap1\n      pop\n      jump\t// out\n        /* \"#utility.yul\":33868:34027   */\n    tag_583:\n        /* \"#utility.yul\":34008:34019   */\n      0x5a45524f5f494d504c0000000000000000000000000000000000000000000000\n        /* \"#utility.yul\":34004:34005   */\n      0x00\n        /* \"#utility.yul\":33996:34002   */\n      dup3\n        /* \"#utility.yul\":33992:34006   */\n      add\n        /* \"#utility.yul\":33985:34020   */\n      mstore\n        /* \"#utility.yul\":33868:34027   */\n      pop\n      jump\t// out\n        /* \"#utility.yul\":34033:34398   */\n    tag_584:\n        /* \"#utility.yul\":34175:34178   */\n      0x00\n        /* \"#utility.yul\":34196:34262   */\n      tag_907\n        /* \"#utility.yul\":34260:34261   */\n      0x09\n        /* \"#utility.yul\":34255:34258   */\n      dup4\n        /* \"#utility.yul\":34196:34262   */\n      tag_509\n      jump\t// in\n    tag_907:\n        /* \"#utility.yul\":34189:34262   */\n      swap2\n      pop\n        /* \"#utility.yul\":34271:34364   */\n      tag_908\n        /* \"#utility.yul\":34360:34363   */\n      dup3\n        /* \"#utility.yul\":34271:34364   */\n      tag_583\n      jump\t// in\n    tag_908:\n        /* \"#utility.yul\":34389:34391   */\n      0x20\n        /* \"#utility.yul\":34384:34387   */\n      dup3\n        /* \"#utility.yul\":34380:34392   */\n      add\n        /* \"#utility.yul\":34373:34392   */\n      swap1\n      pop\n        /* \"#utility.yul\":34033:34398   */\n      swap2\n      swap1\n      pop\n      jump\t// out\n        /* \"#utility.yul\":34404:34823   */\n    tag_435:\n        /* \"#utility.yul\":34570:34574   */\n      0x00\n        /* \"#utility.yul\":34608:34610   */\n      0x20\n        /* \"#utility.yul\":34597:34606   */\n      dup3\n        /* \"#utility.yul\":34593:34611   */\n      add\n        /* \"#utility.yul\":34585:34611   */\n      swap1\n      pop\n        /* \"#utility.yul\":34657:34666   */\n      dup2\n        /* \"#utility.yul\":34651:34655   */\n      dup2\n        /* \"#utility.yul\":34647:34667   */\n      sub\n        /* \"#utility.yul\":34643:34644   */\n      0x00\n        /* \"#utility.yul\":34632:34641   */\n      dup4\n        /* \"#utility.yul\":34628:34645   */\n      add\n        /* \"#utility.yul\":34621:34668   */\n      mstore\n        /* \"#utility.yul\":34685:34816   */\n      tag_910\n        /* \"#utility.yul\":34811:34815   */\n      dup2\n        /* \"#utility.yul\":34685:34816   */\n      tag_584\n      jump\t// in\n    tag_910:\n        /* \"#utility.yul\":34677:34816   */\n      swap1\n      pop\n        /* \"#utility.yul\":34404:34823   */\n      swap2\n      swap1\n      pop\n      jump\t// out\n        /* \"#utility.yul\":34829:34927   */\n    tag_585:\n        /* \"#utility.yul\":34880:34886   */\n      0x00\n        /* \"#utility.yul\":34914:34919   */\n      dup2\n        /* \"#utility.yul\":34908:34920   */\n      mload\n        /* \"#utility.yul\":34898:34920   */\n      swap1\n      pop\n        /* \"#utility.yul\":34829:34927   */\n      swap2\n      swap1\n      pop\n      jump\t// out\n        /* \"#utility.yul\":34933:35080   */\n    tag_586:\n        /* \"#utility.yul\":35034:35045   */\n      0x00\n        /* \"#utility.yul\":35071:35074   */\n      dup2\n        /* \"#utility.yul\":35056:35074   */\n      swap1\n      pop\n        /* \"#utility.yul\":34933:35080   */\n      swap3\n      swap2\n      pop\n      pop\n      jump\t// out\n        /* \"#utility.yul\":35086:35472   */\n    tag_587:\n        /* \"#utility.yul\":35190:35193   */\n      0x00\n        /* \"#utility.yul\":35218:35256   */\n      tag_914\n        /* \"#utility.yul\":35250:35255   */\n      dup3\n        /* \"#utility.yul\":35218:35256   */\n      tag_585\n      jump\t// in\n    tag_914:\n        /* \"#utility.yul\":35272:35360   */\n      tag_915\n        /* \"#utility.yul\":35353:35359   */\n      dup2\n        /* \"#utility.yul\":35348:35351   */\n      dup6\n        /* \"#utility.yul\":35272:35360   */\n      tag_586\n      jump\t// in\n    tag_915:\n        /* \"#utility.yul\":35265:35360   */\n      swap4\n      pop\n        /* \"#utility.yul\":35369:35434   */\n      tag_916\n        /* \"#utility.yul\":35427:35433   */\n      dup2\n        /* \"#utility.yul\":35422:35425   */\n      dup6\n        /* \"#utility.yul\":35415:35419   */\n      0x20\n        /* \"#utility.yul\":35408:35413   */\n      dup7\n        /* \"#utility.yul\":35404:35420   */\n      add\n        /* \"#utility.yul\":35369:35434   */\n      tag_510\n      jump\t// in\n    tag_916:\n        /* \"#utility.yul\":35459:35465   */\n      dup1\n        /* \"#utility.yul\":35454:35457   */\n      dup5\n        /* \"#utility.yul\":35450:35466   */\n      add\n        /* \"#utility.yul\":35443:35466   */\n      swap2\n      pop\n        /* \"#utility.yul\":35194:35472   */\n      pop\n        /* \"#utility.yul\":35086:35472   */\n      swap3\n      swap2\n      pop\n      pop\n      jump\t// out\n        /* \"#utility.yul\":35478:35749   */\n    tag_441:\n        /* \"#utility.yul\":35608:35611   */\n      0x00\n        /* \"#utility.yul\":35630:35723   */\n      tag_918\n        /* \"#utility.yul\":35719:35722   */\n      dup3\n        /* \"#utility.yul\":35710:35716   */\n      dup5\n        /* \"#utility.yul\":35630:35723   */\n      tag_587\n      jump\t// in\n    tag_918:\n        /* \"#utility.yul\":35623:35723   */\n      swap2\n      pop\n        /* \"#utility.yul\":35740:35743   */\n      dup2\n        /* \"#utility.yul\":35733:35743   */\n      swap1\n      pop\n        /* \"#utility.yul\":35478:35749   */\n      swap3\n      swap2\n      pop\n      pop\n      jump\t// out\n        /* \"#utility.yul\":35755:35915   */\n    tag_588:\n        /* \"#utility.yul\":35895:35907   */\n      0x5a45524f5f415353455400000000000000000000000000000000000000000000\n        /* \"#utility.yul\":35891:35892   */\n      0x00\n        /* \"#utility.yul\":35883:35889   */\n      dup3\n        /* \"#utility.yul\":35879:35893   */\n      add\n        /* \"#utility.yul\":35872:35908   */\n      mstore\n        /* \"#utility.yul\":35755:35915   */\n      pop\n      jump\t// out\n        /* \"#utility.yul\":35921:36287   */\n    tag_589:\n        /* \"#utility.yul\":36063:36066   */\n      0x00\n        /* \"#utility.yul\":36084:36151   */\n      tag_921\n        /* \"#utility.yul\":36148:36150   */\n      0x0a\n        /* \"#utility.yul\":36143:36146   */\n      dup4\n        /* \"#utility.yul\":36084:36151   */\n      tag_509\n      jump\t// in\n    tag_921:\n        /* \"#utility.yul\":36077:36151   */\n      swap2\n      pop\n        /* \"#utility.yul\":36160:36253   */\n      tag_922\n        /* \"#utility.yul\":36249:36252   */\n      dup3\n        /* \"#utility.yul\":36160:36253   */\n      tag_588\n      jump\t// in\n    tag_922:\n        /* \"#utility.yul\":36278:36280   */\n      0x20\n        /* \"#utility.yul\":36273:36276   */\n      dup3\n        /* \"#utility.yul\":36269:36281   */\n      add\n        /* \"#utility.yul\":36262:36281   */\n      swap1\n      pop\n        /* \"#utility.yul\":35921:36287   */\n      swap2\n      swap1\n      pop\n      jump\t// out\n        /* \"#utility.yul\":36293:36712   */\n    tag_452:\n        /* \"#utility.yul\":36459:36463   */\n      0x00\n        /* \"#utility.yul\":36497:36499   */\n      0x20\n        /* \"#utility.yul\":36486:36495   */\n      dup3\n        /* \"#utility.yul\":36482:36500   */\n      add\n        /* \"#utility.yul\":36474:36500   */\n      swap1\n      pop\n        /* \"#utility.yul\":36546:36555   */\n      dup2\n        /* \"#utility.yul\":36540:36544   */\n      dup2\n        /* \"#utility.yul\":36536:36556   */\n      sub\n        /* \"#utility.yul\":36532:36533   */\n      0x00\n        /* \"#utility.yul\":36521:36530   */\n      dup4\n        /* \"#utility.yul\":36517:36534   */\n      add\n        /* \"#utility.yul\":36510:36557   */\n      mstore\n        /* \"#utility.yul\":36574:36705   */\n      tag_924\n        /* \"#utility.yul\":36700:36704   */\n      dup2\n        /* \"#utility.yul\":36574:36705   */\n      tag_589\n      jump\t// in\n    tag_924:\n        /* \"#utility.yul\":36566:36705   */\n      swap1\n      pop\n        /* \"#utility.yul\":36293:36712   */\n      swap2\n      swap1\n      pop\n      jump\t// out\n        /* \"#utility.yul\":36718:38113   */\n    tag_504:\n        /* \"#utility.yul\":36835:36872   */\n      tag_926\n        /* \"#utility.yul\":36868:36871   */\n      dup3\n        /* \"#utility.yul\":36835:36872   */\n      tag_508\n      jump\t// in\n    tag_926:\n        /* \"#utility.yul\":36937:36955   */\n      0xffffffffffffffff\n        /* \"#utility.yul\":36929:36935   */\n      dup2\n        /* \"#utility.yul\":36926:36956   */\n      gt\n        /* \"#utility.yul\":36923:36979   */\n      iszero\n      tag_927\n      jumpi\n        /* \"#utility.yul\":36959:36977   */\n      tag_928\n      tag_545\n      jump\t// in\n    tag_928:\n        /* \"#utility.yul\":36923:36979   */\n    tag_927:\n        /* \"#utility.yul\":37003:37041   */\n      tag_929\n        /* \"#utility.yul\":37035:37039   */\n      dup3\n        /* \"#utility.yul\":37029:37040   */\n      sload\n        /* \"#utility.yul\":37003:37041   */\n      tag_220\n      jump\t// in\n    tag_929:\n        /* \"#utility.yul\":37088:37155   */\n      tag_930\n        /* \"#utility.yul\":37148:37154   */\n      dup3\n        /* \"#utility.yul\":37140:37146   */\n      dup3\n        /* \"#utility.yul\":37134:37138   */\n      dup6\n        /* \"#utility.yul\":37088:37155   */\n      tag_557\n      jump\t// in\n    tag_930:\n        /* \"#utility.yul\":37182:37183   */\n      0x00\n        /* \"#utility.yul\":37206:37210   */\n      0x20\n        /* \"#utility.yul\":37193:37210   */\n      swap1\n      pop\n        /* \"#utility.yul\":37238:37240   */\n      0x1f\n        /* \"#utility.yul\":37230:37236   */\n      dup4\n        /* \"#utility.yul\":37227:37241   */\n      gt\n        /* \"#utility.yul\":37255:37256   */\n      0x01\n        /* \"#utility.yul\":37250:37868   */\n      dup2\n      eq\n      tag_932\n      jumpi\n        /* \"#utility.yul\":37912:37913   */\n      0x00\n        /* \"#utility.yul\":37929:37935   */\n      dup5\n        /* \"#utility.yul\":37926:38003   */\n      iszero\n      tag_933\n      jumpi\n        /* \"#utility.yul\":37978:37987   */\n      dup3\n        /* \"#utility.yul\":37973:37976   */\n      dup8\n        /* \"#utility.yul\":37969:37988   */\n      add\n        /* \"#utility.yul\":37963:37989   */\n      mload\n        /* \"#utility.yul\":37954:37989   */\n      swap1\n      pop\n        /* \"#utility.yul\":37926:38003   */\n    tag_933:\n        /* \"#utility.yul\":38029:38096   */\n      tag_934\n        /* \"#utility.yul\":38089:38095   */\n      dup6\n        /* \"#utility.yul\":38082:38087   */\n      dup3\n        /* \"#utility.yul\":38029:38096   */\n      tag_560\n      jump\t// in\n    tag_934:\n        /* \"#utility.yul\":38023:38027   */\n      dup7\n        /* \"#utility.yul\":38016:38097   */\n      sstore\n        /* \"#utility.yul\":37885:38107   */\n      pop\n        /* \"#utility.yul\":37220:38107   */\n      jump(tag_931)\n        /* \"#utility.yul\":37250:37868   */\n    tag_932:\n        /* \"#utility.yul\":37302:37306   */\n      0x1f\n        /* \"#utility.yul\":37298:37307   */\n      not\n        /* \"#utility.yul\":37290:37296   */\n      dup5\n        /* \"#utility.yul\":37286:37308   */\n      and\n        /* \"#utility.yul\":37336:37373   */\n      tag_935\n        /* \"#utility.yul\":37368:37372   */\n      dup7\n        /* \"#utility.yul\":37336:37373   */\n      tag_546\n      jump\t// in\n    tag_935:\n        /* \"#utility.yul\":37395:37396   */\n      0x00\n        /* \"#utility.yul\":37409:37617   */\n    tag_936:\n        /* \"#utility.yul\":37423:37430   */\n      dup3\n        /* \"#utility.yul\":37420:37421   */\n      dup2\n        /* \"#utility.yul\":37417:37431   */\n      lt\n        /* \"#utility.yul\":37409:37617   */\n      iszero\n      tag_938\n      jumpi\n        /* \"#utility.yul\":37502:37511   */\n      dup5\n        /* \"#utility.yul\":37497:37500   */\n      dup10\n        /* \"#utility.yul\":37493:37512   */\n      add\n        /* \"#utility.yul\":37487:37513   */\n      mload\n        /* \"#utility.yul\":37479:37485   */\n      dup3\n        /* \"#utility.yul\":37472:37514   */\n      sstore\n        /* \"#utility.yul\":37553:37554   */\n      0x01\n        /* \"#utility.yul\":37545:37551   */\n      dup3\n        /* \"#utility.yul\":37541:37555   */\n      add\n        /* \"#utility.yul\":37531:37555   */\n      swap2\n      pop\n        /* \"#utility.yul\":37600:37602   */\n      0x20\n        /* \"#utility.yul\":37589:37598   */\n      dup6\n        /* \"#utility.yul\":37585:37603   */\n      add\n        /* \"#utility.yul\":37572:37603   */\n      swap5\n      pop\n        /* \"#utility.yul\":37446:37450   */\n      0x20\n        /* \"#utility.yul\":37443:37444   */\n      dup2\n        /* \"#utility.yul\":37439:37451   */\n      add\n        /* \"#utility.yul\":37434:37451   */\n      swap1\n      pop\n        /* \"#utility.yul\":37409:37617   */\n      jump(tag_936)\n    tag_938:\n        /* \"#utility.yul\":37645:37651   */\n      dup7\n        /* \"#utility.yul\":37636:37643   */\n      dup4\n        /* \"#utility.yul\":37633:37652   */\n      lt\n        /* \"#utility.yul\":37630:37809   */\n      iszero\n      tag_939\n      jumpi\n        /* \"#utility.yul\":37703:37712   */\n      dup5\n        /* \"#utility.yul\":37698:37701   */\n      dup10\n        /* \"#utility.yul\":37694:37713   */\n      add\n        /* \"#utility.yul\":37688:37714   */\n      mload\n        /* \"#utility.yul\":37746:37794   */\n      tag_940\n        /* \"#utility.yul\":37788:37792   */\n      0x1f\n        /* \"#utility.yul\":37780:37786   */\n      dup10\n        /* \"#utility.yul\":37776:37793   */\n      and\n        /* \"#utility.yul\":37765:37774   */\n      dup3\n        /* \"#utility.yul\":37746:37794   */\n      tag_559\n      jump\t// in\n    tag_940:\n        /* \"#utility.yul\":37738:37744   */\n      dup4\n        /* \"#utility.yul\":37731:37795   */\n      sstore\n        /* \"#utility.yul\":37653:37809   */\n      pop\n        /* \"#utility.yul\":37630:37809   */\n    tag_939:\n        /* \"#utility.yul\":37855:37856   */\n      0x01\n        /* \"#utility.yul\":37851:37852   */\n      0x02\n        /* \"#utility.yul\":37843:37849   */\n      dup9\n        /* \"#utility.yul\":37839:37853   */\n      mul\n        /* \"#utility.yul\":37835:37857   */\n      add\n        /* \"#utility.yul\":37829:37833   */\n      dup9\n        /* \"#utility.yul\":37822:37858   */\n      sstore\n        /* \"#utility.yul\":37257:37868   */\n      pop\n      pop\n      pop\n        /* \"#utility.yul\":37220:38107   */\n    tag_931:\n      pop\n        /* \"#utility.yul\":36810:38113   */\n      pop\n      pop\n      pop\n        /* \"#utility.yul\":36718:38113   */\n      pop\n      pop\n      jump\t// out\n\n    auxdata: 0xa26469706673582212203c0c694ccf30c7e6d1aacc3f435cff83b0ac9f0b8d1e8d89e7e616c7411a1b5764736f6c634300081e0033\n}\n",
				"bytecode": {
					"linkReferences": {},
					"object": "60a06040523073ffffffffffffffffffffffffffffffffffffffff1660809073ffffffffffffffffffffffffffffffffffffffff16815250348015610042575f5ffd5b5060805161405e6100775f395f8181610c7501528181610d0301528181611015015281816110a30152611196015261405e5ff3fe6080604052600436106101e2575f3560e01c80636ceb15701161010157806395d89b4111610094578063ba08765211610063578063ba0876521461071a578063c6e6f59214610756578063d3a417a214610792578063dd62ed3e146107ba576101e2565b806395d89b411461063c578063a9059cbb14610666578063b1283e77146106a2578063b460af94146106de576101e2565b80638da5cb5b116100d05780638da5cb5b1461058457806392f6b31c146105ae57806393e30633146105d857806394bf804d14610600576101e2565b80636ceb1570146104a85780636e553f65146104d05780636ec934da1461050c57806370a0823114610548576101e2565b806338d52e0f116101795780634a79d50c116101485780634a79d50c146104105780634f1ef2861461043a57806352d1902d1461045657806366adf46a14610480576101e2565b806338d52e0f1461036a5780633bcfc4b8146103945780633dce8b38146103be57806341b3d185146103e6576101e2565b806318160ddd116101b557806318160ddd146102b257806323b872dd146102dc578063313ce567146103185780633659cfe614610342576101e2565b806301e1d114146101e657806306fdde031461021057806307a2d13a1461023a578063095ea7b314610276575b5f5ffd5b3480156101f1575f5ffd5b506101fa6107f6565b6040516102079190612d88565b60405180910390f35b34801561021b575f5ffd5b506102246109de565b6040516102319190612e11565b60405180910390f35b348015610245575f5ffd5b50610260600480360381019061025b9190612e63565b610a6e565b60405161026d9190612d88565b60405180910390f35b348015610281575f5ffd5b5061029c60048036038101906102979190612ee8565b610b27565b6040516102a99190612f40565b60405180910390f35b3480156102bd575f5ffd5b506102c6610b3d565b6040516102d39190612d88565b60405180910390f35b3480156102e7575f5ffd5b5061030260048036038101906102fd9190612f59565b610b46565b60405161030f9190612f40565b60405180910390f35b348015610323575f5ffd5b5061032c610c5b565b6040516103399190612d88565b60405180910390f35b34801561034d575f5ffd5b5061036860048036038101906103639190612fa9565b610c73565b005b348015610375575f5ffd5b5061037e610dbb565b60405161038b9190612fe3565b60405180910390f35b34801561039f575f5ffd5b506103a8610de3565b6040516103b59190612d88565b60405180910390f35b3480156103c9575f5ffd5b506103e460048036038101906103df919061305d565b610de9565b005b3480156103f1575f5ffd5b506103fa610f81565b6040516104079190612d88565b60405180910390f35b34801561041b575f5ffd5b50610424610f87565b6040516104319190612e11565b60405180910390f35b610454600480360381019061044f91906131af565b611013565b005b348015610461575f5ffd5b5061046a611193565b6040516104779190613224565b60405180910390f35b34801561048b575f5ffd5b506104a660048036038101906104a19190612ee8565b61124a565b005b3480156104b3575f5ffd5b506104ce60048036038101906104c99190612ee8565b611462565b005b3480156104db575f5ffd5b506104f660048036038101906104f1919061323d565b6115ad565b6040516105039190612d88565b60405180910390f35b348015610517575f5ffd5b50610532600480360381019061052d9190612fa9565b611605565b60405161053f9190612f40565b60405180910390f35b348015610553575f5ffd5b5061056e60048036038101906105699190612fa9565b611622565b60405161057b9190612d88565b60405180910390f35b34801561058f575f5ffd5b50610598611668565b6040516105a59190612fe3565b60405180910390f35b3480156105b9575f5ffd5b506105c261168d565b6040516105cf9190612d88565b60405180910390f35b3480156105e3575f5ffd5b506105fe60048036038101906105f99190612fa9565b611712565b005b34801561060b575f5ffd5b506106266004803603810190610621919061323d565b61191a565b6040516106339190612d88565b60405180910390f35b348015610647575f5ffd5b50610650611ac0565b60405161065d9190612e11565b60405180910390f35b348015610671575f5ffd5b5061068c60048036038101906106879190612ee8565b611b50565b6040516106999190612f40565b60405180910390f35b3480156106ad575f5ffd5b506106c860048036038101906106c39190612e63565b611b66565b6040516106d59190612fe3565b60405180910390f35b3480156106e9575f5ffd5b5061070460048036038101906106ff919061327b565b611ba1565b6040516107119190612d88565b60405180910390f35b348015610725575f5ffd5b50610740600480360381019061073b919061327b565b611c00565b60405161074d9190612d88565b60405180910390f35b348015610761575f5ffd5b5061077c60048036038101906107779190612e63565b611e3d565b6040516107899190612d88565b60405180910390f35b34801561079d575f5ffd5b506107b860048036038101906107b39190612fa9565b611ef6565b005b3480156107c5575f5ffd5b506107e060048036038101906107db91906132cb565b611fc8565b6040516107ed9190612d88565b60405180910390f35b5f6107ff610dbb565b73ffffffffffffffffffffffffffffffffffffffff166370a08231306040518263ffffffff1660e01b81526004016108379190612fe3565b602060405180830381865afa158015610852573d5f5f3e3d5ffd5b505050506040513d601f19601f82011682018060405250810190610876919061331d565b90505f600b8054905090505f5f90505b818110156109d957600c5f600b83815481106108a5576108a4613348565b5b905f5260205f20015f9054906101000a900473ffffffffffffffffffffffffffffffffffffffff1673ffffffffffffffffffffffffffffffffffffffff1673ffffffffffffffffffffffffffffffffffffffff1681526020019081526020015f205f9054906101000a900460ff16156109ce57600b818154811061092c5761092b613348565b5b905f5260205f20015f9054906101000a900473ffffffffffffffffffffffffffffffffffffffff1673ffffffffffffffffffffffffffffffffffffffff1663c82f6d2f6040518163ffffffff1660e01b8152600401602060405180830381865afa15801561099c573d5f5f3e3d5ffd5b505050506040513d601f19601f820116820180604052508101906109c0919061331d565b836109cb91906133a2565b92505b806001019050610886565b505090565b6060600180546109ed90613402565b80601f0160208091040260200160405190810160405280929190818152602001828054610a1990613402565b8015610a645780601f10610a3b57610100808354040283529160200191610a64565b820191905f5260205f20905b815481529060010190602001808311610a4757829003601f168201915b5050505050905090565b5f5f3073ffffffffffffffffffffffffffffffffffffffff166318160ddd6040518163ffffffff1660e01b8152600401602060405180830381865afa158015610ab9573d5f5f3e3d5ffd5b505050506040513d601f19601f82011682018060405250810190610add919061331d565b90505f610ae86107f6565b90505f821480610af757505f81145b15610b06578392505050610b22565b818185610b139190613432565b610b1d91906134a0565b925050505b919050565b5f610b3333848461204a565b6001905092915050565b5f600454905090565b5f5f60065f8673ffffffffffffffffffffffffffffffffffffffff1673ffffffffffffffffffffffffffffffffffffffff1681526020019081526020015f205f3373ffffffffffffffffffffffffffffffffffffffff1673ffffffffffffffffffffffffffffffffffffffff1681526020019081526020015f205490507fffffffffffffffffffffffffffffffffffffffffffffffffffffffffffffffff8114610c445782811015610c2d576040517f08c379a0000000000000000000000000000000000000000000000000000000008152600401610c249061351a565b60405180910390fd5b610c4385338584610c3e9190613538565b61204a565b5b610c4f858585612131565b60019150509392505050565b5f60035f9054906101000a900460ff1660ff16905090565b7f000000000000000000000000000000000000000000000000000000000000000073ffffffffffffffffffffffffffffffffffffffff163073ffffffffffffffffffffffffffffffffffffffff1603610d01576040517f08c379a0000000000000000000000000000000000000000000000000000000008152600401610cf8906135b5565b60405180910390fd5b7f000000000000000000000000000000000000000000000000000000000000000073ffffffffffffffffffffffffffffffffffffffff16610d40612325565b73ffffffffffffffffffffffffffffffffffffffff1614610d96576040517f08c379a0000000000000000000000000000000000000000000000000000000008152600401610d8d9061361d565b60405180910390fd5b610d9f81612354565b610db88160405180602001604052805f8152505f6123af565b50565b5f60075f9054906101000a900473ffffffffffffffffffffffffffffffffffffffff16905090565b60095481565b5f5f9054906101000a900460ff161580610e0e57505f60019054906101000a900460ff165b610e4d576040517f08c379a0000000000000000000000000000000000000000000000000000000008152600401610e4490613685565b60405180910390fd5b5f5f60019054906101000a900460ff161590508015610e9a5760015f60016101000a81548160ff02191690831515021790555060015f5f6101000a81548160ff0219169083151502179055505b610ea38b6124ec565b610f348a88888080601f0160208091040260200160405190810160405280939291908181526020018383808284375f81840152601f19601f8201169050808301925050505050505087878080601f0160208091040260200160405190810160405280939291908181526020018383808284375f81840152601f19601f82011690508083019250505050505050612566565b888860089182610f4592919061387a565b508260098190555081600a819055508015610f74575f5f60016101000a81548160ff0219169083151502179055505b5050505050505050505050565b600a5481565b60088054610f9490613402565b80601f0160208091040260200160405190810160405280929190818152602001828054610fc090613402565b801561100b5780601f10610fe25761010080835404028352916020019161100b565b820191905f5260205f20905b815481529060010190602001808311610fee57829003601f168201915b505050505081565b7f000000000000000000000000000000000000000000000000000000000000000073ffffffffffffffffffffffffffffffffffffffff163073ffffffffffffffffffffffffffffffffffffffff16036110a1576040517f08c379a0000000000000000000000000000000000000000000000000000000008152600401611098906135b5565b60405180910390fd5b7f000000000000000000000000000000000000000000000000000000000000000073ffffffffffffffffffffffffffffffffffffffff166110e0612325565b73ffffffffffffffffffffffffffffffffffffffff1614611136576040517f08c379a000000000000000000000000000000000000000000000000000000000815260040161112d9061361d565b60405180910390fd5b61113f83612354565b61118e8383838080601f0160208091040260200160405190810160405280939291908181526020018383808284375f81840152601f19601f8201169050808301925050505050505060016123af565b505050565b5f7f000000000000000000000000000000000000000000000000000000000000000073ffffffffffffffffffffffffffffffffffffffff163073ffffffffffffffffffffffffffffffffffffffff1614611222576040517f08c379a000000000000000000000000000000000000000000000000000000000815260040161121990613991565b60405180910390fd5b7f360894a13ba1a3210667c828492db98dca3e2076cc3735a920a3ca505d382bbc5f1b905090565b5f60029054906101000a900473ffffffffffffffffffffffffffffffffffffffff1673ffffffffffffffffffffffffffffffffffffffff163373ffffffffffffffffffffffffffffffffffffffff16146112a2575f5ffd5b600c5f8373ffffffffffffffffffffffffffffffffffffffff1673ffffffffffffffffffffffffffffffffffffffff1681526020019081526020015f205f9054906101000a900460ff1661132b576040517f08c379a0000000000000000000000000000000000000000000000000000000008152600401611322906139f9565b60405180910390fd5b61133361168d565b811115611375576040517f08c379a000000000000000000000000000000000000000000000000000000000815260040161136c90613a61565b60405180910390fd5b61137d610dbb565b73ffffffffffffffffffffffffffffffffffffffff1663a9059cbb83836040518363ffffffff1660e01b81526004016113b7929190613a7f565b6020604051808303815f875af11580156113d3573d5f5f3e3d5ffd5b505050506040513d601f19601f820116820180604052508101906113f79190613ad0565b508173ffffffffffffffffffffffffffffffffffffffff16634b92917a826040518263ffffffff1660e01b81526004016114319190612d88565b5f604051808303815f87803b158015611448575f5ffd5b505af115801561145a573d5f5f3e3d5ffd5b505050505050565b5f60029054906101000a900473ffffffffffffffffffffffffffffffffffffffff1673ffffffffffffffffffffffffffffffffffffffff163373ffffffffffffffffffffffffffffffffffffffff16146114ba575f5ffd5b600c5f8373ffffffffffffffffffffffffffffffffffffffff1673ffffffffffffffffffffffffffffffffffffffff1681526020019081526020015f205f9054906101000a900460ff16611543576040517f08c379a000000000000000000000000000000000000000000000000000000000815260040161153a906139f9565b60405180910390fd5b8173ffffffffffffffffffffffffffffffffffffffff16633e3722b6826040518263ffffffff1660e01b815260040161157c9190612d88565b5f604051808303815f87803b158015611593575f5ffd5b505af11580156115a5573d5f5f3e3d5ffd5b505050505050565b5f600a548310156115f3576040517f08c379a00000000000000000000000000000000000000000000000000000000081526004016115ea90613b45565b60405180910390fd5b6115fd8383612625565b905092915050565b600c602052805f5260405f205f915054906101000a900460ff1681565b5f60055f8373ffffffffffffffffffffffffffffffffffffffff1673ffffffffffffffffffffffffffffffffffffffff1681526020019081526020015f20549050919050565b5f60029054906101000a900473ffffffffffffffffffffffffffffffffffffffff1681565b5f611696610dbb565b73ffffffffffffffffffffffffffffffffffffffff166370a08231306040518263ffffffff1660e01b81526004016116ce9190612fe3565b602060405180830381865afa1580156116e9573d5f5f3e3d5ffd5b505050506040513d601f19601f8201168201806040525081019061170d919061331d565b905090565b5f60029054906101000a900473ffffffffffffffffffffffffffffffffffffffff1673ffffffffffffffffffffffffffffffffffffffff163373ffffffffffffffffffffffffffffffffffffffff161461176a575f5ffd5b5f73ffffffffffffffffffffffffffffffffffffffff168173ffffffffffffffffffffffffffffffffffffffff16036117d8576040517f08c379a00000000000000000000000000000000000000000000000000000000081526004016117cf90613bad565b60405180910390fd5b600c5f8273ffffffffffffffffffffffffffffffffffffffff1673ffffffffffffffffffffffffffffffffffffffff1681526020019081526020015f205f9054906101000a900460ff1615611862576040517f08c379a000000000000000000000000000000000000000000000000000000000815260040161185990613c15565b60405180910390fd5b6001600c5f8373ffffffffffffffffffffffffffffffffffffffff1673ffffffffffffffffffffffffffffffffffffffff1681526020019081526020015f205f6101000a81548160ff021916908315150217905550600b81908060018154018082558091505060019003905f5260205f20015f9091909190916101000a81548173ffffffffffffffffffffffffffffffffffffffff021916908373ffffffffffffffffffffffffffffffffffffffff16021790555050565b5f5f831161195d576040517f08c379a000000000000000000000000000000000000000000000000000000000815260040161195490613c7d565b60405180910390fd5b61196683610a6e565b90505f81116119aa576040517f08c379a00000000000000000000000000000000000000000000000000000000081526004016119a190613ce5565b60405180910390fd5b60075f9054906101000a900473ffffffffffffffffffffffffffffffffffffffff1673ffffffffffffffffffffffffffffffffffffffff166323b872dd3330846040518463ffffffff1660e01b8152600401611a0893929190613d03565b6020604051808303815f875af1158015611a24573d5f5f3e3d5ffd5b505050506040513d601f19601f82011682018060405250810190611a489190613ad0565b50611a5382846127cb565b8173ffffffffffffffffffffffffffffffffffffffff163373ffffffffffffffffffffffffffffffffffffffff167fdcbc1c05240f31ff3ad067ef1ee35ce4997762752e3a095284754544f4c709d78386604051611ab2929190613d38565b60405180910390a392915050565b606060028054611acf90613402565b80601f0160208091040260200160405190810160405280929190818152602001828054611afb90613402565b8015611b465780601f10611b1d57610100808354040283529160200191611b46565b820191905f5260205f20905b815481529060010190602001808311611b2957829003601f168201915b5050505050905090565b5f611b5c338484612131565b6001905092915050565b600b8181548110611b75575f80fd5b905f5260205f20015f915054906101000a900473ffffffffffffffffffffffffffffffffffffffff1681565b5f611baa61168d565b841115611bec576040517f08c379a0000000000000000000000000000000000000000000000000000000008152600401611be390613a61565b60405180910390fd5b611bf784848461290d565b90509392505050565b5f5f8411611c43576040517f08c379a0000000000000000000000000000000000000000000000000000000008152600401611c3a90613c7d565b60405180910390fd5b611c4c84610a6e565b90503373ffffffffffffffffffffffffffffffffffffffff168273ffffffffffffffffffffffffffffffffffffffff1614611d11575f611c8c8333611fc8565b905084811015611cd1576040517f08c379a0000000000000000000000000000000000000000000000000000000008152600401611cc89061351a565b60405180910390fd5b7fffffffffffffffffffffffffffffffffffffffffffffffffffffffffffffffff8114611d0f57611d0e83338784611d099190613538565b61204a565b5b505b611d1b8285612b6a565b60075f9054906101000a900473ffffffffffffffffffffffffffffffffffffffff1673ffffffffffffffffffffffffffffffffffffffff1663a9059cbb84836040518363ffffffff1660e01b8152600401611d77929190613a7f565b6020604051808303815f875af1158015611d93573d5f5f3e3d5ffd5b505050506040513d601f19601f82011682018060405250810190611db79190613ad0565b508173ffffffffffffffffffffffffffffffffffffffff168373ffffffffffffffffffffffffffffffffffffffff163373ffffffffffffffffffffffffffffffffffffffff167ffbde797d201c681b91056529119e0b02407c7bb96a4a2c75c01fc9667232c8db8488604051611e2e929190613d38565b60405180910390a49392505050565b5f5f3073ffffffffffffffffffffffffffffffffffffffff166318160ddd6040518163ffffffff1660e01b8152600401602060405180830381865afa158015611e88573d5f5f3e3d5ffd5b505050506040513d601f19601f82011682018060405250810190611eac919061331d565b90505f611eb76107f6565b90505f821480611ec657505f81145b15611ed5578392505050611ef1565b808285611ee29190613432565b611eec91906134a0565b925050505b919050565b5f60029054906101000a900473ffffffffffffffffffffffffffffffffffffffff1673ffffffffffffffffffffffffffffffffffffffff163373ffffffffffffffffffffffffffffffffffffffff1614611f4e575f5ffd5b5f73ffffffffffffffffffffffffffffffffffffffff168173ffffffffffffffffffffffffffffffffffffffff1603611f85575f5ffd5b805f60026101000a81548173ffffffffffffffffffffffffffffffffffffffff021916908373ffffffffffffffffffffffffffffffffffffffff16021790555050565b5f60065f8473ffffffffffffffffffffffffffffffffffffffff1673ffffffffffffffffffffffffffffffffffffffff1681526020019081526020015f205f8373ffffffffffffffffffffffffffffffffffffffff1673ffffffffffffffffffffffffffffffffffffffff1681526020019081526020015f2054905092915050565b8060065f8573ffffffffffffffffffffffffffffffffffffffff1673ffffffffffffffffffffffffffffffffffffffff1681526020019081526020015f205f8473ffffffffffffffffffffffffffffffffffffffff1673ffffffffffffffffffffffffffffffffffffffff1681526020019081526020015f20819055508173ffffffffffffffffffffffffffffffffffffffff168373ffffffffffffffffffffffffffffffffffffffff167f8c5be1e5ebec7d5bd14f71427d1e84f3dd0314c0f7b2291e5b200ac8c7c3b925836040516121249190612d88565b60405180910390a3505050565b5f73ffffffffffffffffffffffffffffffffffffffff168273ffffffffffffffffffffffffffffffffffffffff160361219f576040517f08c379a000000000000000000000000000000000000000000000000000000000815260040161219690613da9565b60405180910390fd5b5f60055f8573ffffffffffffffffffffffffffffffffffffffff1673ffffffffffffffffffffffffffffffffffffffff1681526020019081526020015f2054905081811015612223576040517f08c379a000000000000000000000000000000000000000000000000000000000815260040161221a90613e11565b60405180910390fd5b81810360055f8673ffffffffffffffffffffffffffffffffffffffff1673ffffffffffffffffffffffffffffffffffffffff1681526020019081526020015f20819055508160055f8573ffffffffffffffffffffffffffffffffffffffff1673ffffffffffffffffffffffffffffffffffffffff1681526020019081526020015f205f8282546122b391906133a2565b925050819055508273ffffffffffffffffffffffffffffffffffffffff168473ffffffffffffffffffffffffffffffffffffffff167fddf252ad1be2c89b69c2b068fc378daa952ba7f163c4a11628f55a4df523b3ef846040516123179190612d88565b60405180910390a350505050565b5f5f7f360894a13ba1a3210667c828492db98dca3e2076cc3735a920a3ca505d382bbc5f1b9050805491505090565b5f60029054906101000a900473ffffffffffffffffffffffffffffffffffffffff1673ffffffffffffffffffffffffffffffffffffffff163373ffffffffffffffffffffffffffffffffffffffff16146123ac575f5ffd5b50565b5f73ffffffffffffffffffffffffffffffffffffffff168373ffffffffffffffffffffffffffffffffffffffff160361241d576040517f08c379a000000000000000000000000000000000000000000000000000000000815260040161241490613e79565b60405180910390fd5b61242683612cb4565b808061243257505f8251115b156124e7575f5f8473ffffffffffffffffffffffffffffffffffffffff168460405161245e9190613edb565b5f60405180830381855af49150503d805f8114612496576040519150601f19603f3d011682016040523d82523d5f602084013e61249b565b606091505b50915091508181906124e3576040517f08c379a00000000000000000000000000000000000000000000000000000000081526004016124da9190612e11565b60405180910390fd5b5050505b505050565b5f73ffffffffffffffffffffffffffffffffffffffff168173ffffffffffffffffffffffffffffffffffffffff1603612523575f5ffd5b805f60026101000a81548173ffffffffffffffffffffffffffffffffffffffff021916908373ffffffffffffffffffffffffffffffffffffffff16021790555050565b5f73ffffffffffffffffffffffffffffffffffffffff168373ffffffffffffffffffffffffffffffffffffffff16036125d4576040517f08c379a00000000000000000000000000000000000000000000000000000000081526004016125cb90613f3b565b60405180910390fd5b6125e082826006612ce1565b8260075f6101000a81548173ffffffffffffffffffffffffffffffffffffffff021916908373ffffffffffffffffffffffffffffffffffffffff160217905550505050565b5f5f8311612668576040517f08c379a000000000000000000000000000000000000000000000000000000000815260040161265f90613ce5565b60405180910390fd5b61267183611e3d565b90505f81116126b5576040517f08c379a00000000000000000000000000000000000000000000000000000000081526004016126ac90613c7d565b60405180910390fd5b60075f9054906101000a900473ffffffffffffffffffffffffffffffffffffffff1673ffffffffffffffffffffffffffffffffffffffff166323b872dd3330866040518463ffffffff1660e01b815260040161271393929190613d03565b6020604051808303815f875af115801561272f573d5f5f3e3d5ffd5b505050506040513d601f19601f820116820180604052508101906127539190613ad0565b5061275e82826127cb565b8173ffffffffffffffffffffffffffffffffffffffff163373ffffffffffffffffffffffffffffffffffffffff167fdcbc1c05240f31ff3ad067ef1ee35ce4997762752e3a095284754544f4c709d785846040516127bd929190613d38565b60405180910390a392915050565b5f73ffffffffffffffffffffffffffffffffffffffff168273ffffffffffffffffffffffffffffffffffffffff1603612839576040517f08c379a000000000000000000000000000000000000000000000000000000000815260040161283090613da9565b60405180910390fd5b8060045f82825461284a91906133a2565b925050819055508060055f8473ffffffffffffffffffffffffffffffffffffffff1673ffffffffffffffffffffffffffffffffffffffff1681526020019081526020015f205f82825461289d91906133a2565b925050819055508173ffffffffffffffffffffffffffffffffffffffff165f73ffffffffffffffffffffffffffffffffffffffff167fddf252ad1be2c89b69c2b068fc378daa952ba7f163c4a11628f55a4df523b3ef836040516129019190612d88565b60405180910390a35050565b5f5f8411612950576040517f08c379a000000000000000000000000000000000000000000000000000000000815260040161294790613ce5565b60405180910390fd5b61295984611e3d565b90508361296582610a6e565b101561297b5760018161297891906133a2565b90505b3373ffffffffffffffffffffffffffffffffffffffff168273ffffffffffffffffffffffffffffffffffffffff1614612a3e575f6129b98333611fc8565b9050818110156129fe576040517f08c379a00000000000000000000000000000000000000000000000000000000081526004016129f59061351a565b60405180910390fd5b7fffffffffffffffffffffffffffffffffffffffffffffffffffffffffffffffff8114612a3c57612a3b83338484612a369190613538565b61204a565b5b505b612a488282612b6a565b60075f9054906101000a900473ffffffffffffffffffffffffffffffffffffffff1673ffffffffffffffffffffffffffffffffffffffff1663a9059cbb84866040518363ffffffff1660e01b8152600401612aa4929190613a7f565b6020604051808303815f875af1158015612ac0573d5f5f3e3d5ffd5b505050506040513d601f19601f82011682018060405250810190612ae49190613ad0565b508173ffffffffffffffffffffffffffffffffffffffff168373ffffffffffffffffffffffffffffffffffffffff163373ffffffffffffffffffffffffffffffffffffffff167ffbde797d201c681b91056529119e0b02407c7bb96a4a2c75c01fc9667232c8db8785604051612b5b929190613d38565b60405180910390a49392505050565b5f60055f8473ffffffffffffffffffffffffffffffffffffffff1673ffffffffffffffffffffffffffffffffffffffff1681526020019081526020015f2054905081811015612bee576040517f08c379a0000000000000000000000000000000000000000000000000000000008152600401612be590613e11565b60405180910390fd5b81810360055f8573ffffffffffffffffffffffffffffffffffffffff1673ffffffffffffffffffffffffffffffffffffffff1681526020019081526020015f20819055508160045f828254612c439190613538565b925050819055505f73ffffffffffffffffffffffffffffffffffffffff168373ffffffffffffffffffffffffffffffffffffffff167fddf252ad1be2c89b69c2b068fc378daa952ba7f163c4a11628f55a4df523b3ef84604051612ca79190612d88565b60405180910390a3505050565b5f7f360894a13ba1a3210667c828492db98dca3e2076cc3735a920a3ca505d382bbc5f1b90508181555050565b5f60018054612cef90613402565b905014612d31576040517f08c379a0000000000000000000000000000000000000000000000000000000008152600401612d2890613685565b60405180910390fd5b8260019081612d409190613f59565b508160029081612d509190613f59565b508060035f6101000a81548160ff021916908360ff160217905550505050565b5f819050919050565b612d8281612d70565b82525050565b5f602082019050612d9b5f830184612d79565b92915050565b5f81519050919050565b5f82825260208201905092915050565b8281835e5f83830152505050565b5f601f19601f8301169050919050565b5f612de382612da1565b612ded8185612dab565b9350612dfd818560208601612dbb565b612e0681612dc9565b840191505092915050565b5f6020820190508181035f830152612e298184612dd9565b905092915050565b5f5ffd5b5f5ffd5b612e4281612d70565b8114612e4c575f5ffd5b50565b5f81359050612e5d81612e39565b92915050565b5f60208284031215612e7857612e77612e31565b5b5f612e8584828501612e4f565b91505092915050565b5f73ffffffffffffffffffffffffffffffffffffffff82169050919050565b5f612eb782612e8e565b9050919050565b612ec781612ead565b8114612ed1575f5ffd5b50565b5f81359050612ee281612ebe565b92915050565b5f5f60408385031215612efe57612efd612e31565b5b5f612f0b85828601612ed4565b9250506020612f1c85828601612e4f565b9150509250929050565b5f8115159050919050565b612f3a81612f26565b82525050565b5f602082019050612f535f830184612f31565b92915050565b5f5f5f60608486031215612f7057612f6f612e31565b5b5f612f7d86828701612ed4565b9350506020612f8e86828701612ed4565b9250506040612f9f86828701612e4f565b9150509250925092565b5f60208284031215612fbe57612fbd612e31565b5b5f612fcb84828501612ed4565b91505092915050565b612fdd81612ead565b82525050565b5f602082019050612ff65f830184612fd4565b92915050565b5f5ffd5b5f5ffd5b5f5ffd5b5f5f83601f84011261301d5761301c612ffc565b5b8235905067ffffffffffffffff81111561303a57613039613000565b5b60208301915083600182028301111561305657613055613004565b5b9250929050565b5f5f5f5f5f5f5f5f5f5f60e08b8d03121561307b5761307a612e31565b5b5f6130888d828e01612ed4565b9a505060206130998d828e01612ed4565b99505060408b013567ffffffffffffffff8111156130ba576130b9612e35565b5b6130c68d828e01613008565b985098505060608b013567ffffffffffffffff8111156130e9576130e8612e35565b5b6130f58d828e01613008565b965096505060808b013567ffffffffffffffff81111561311857613117612e35565b5b6131248d828e01613008565b945094505060a06131378d828e01612e4f565b92505060c06131488d828e01612e4f565b9150509295989b9194979a5092959850565b5f5f83601f84011261316f5761316e612ffc565b5b8235905067ffffffffffffffff81111561318c5761318b613000565b5b6020830191508360018202830111156131a8576131a7613004565b5b9250929050565b5f5f5f604084860312156131c6576131c5612e31565b5b5f6131d386828701612ed4565b935050602084013567ffffffffffffffff8111156131f4576131f3612e35565b5b6132008682870161315a565b92509250509250925092565b5f819050919050565b61321e8161320c565b82525050565b5f6020820190506132375f830184613215565b92915050565b5f5f6040838503121561325357613252612e31565b5b5f61326085828601612e4f565b925050602061327185828601612ed4565b9150509250929050565b5f5f5f6060848603121561329257613291612e31565b5b5f61329f86828701612e4f565b93505060206132b086828701612ed4565b92505060406132c186828701612ed4565b9150509250925092565b5f5f604083850312156132e1576132e0612e31565b5b5f6132ee85828601612ed4565b92505060206132ff85828601612ed4565b9150509250929050565b5f8151905061331781612e39565b92915050565b5f6020828403121561333257613331612e31565b5b5f61333f84828501613309565b91505092915050565b7f4e487b71000000000000000000000000000000000000000000000000000000005f52603260045260245ffd5b7f4e487b71000000000000000000000000000000000000000000000000000000005f52601160045260245ffd5b5f6133ac82612d70565b91506133b783612d70565b92508282019050808211156133cf576133ce613375565b5b92915050565b7f4e487b71000000000000000000000000000000000000000000000000000000005f52602260045260245ffd5b5f600282049050600182168061341957607f821691505b60208210810361342c5761342b6133d5565b5b50919050565b5f61343c82612d70565b915061344783612d70565b925082820261345581612d70565b9150828204841483151761346c5761346b613375565b5b5092915050565b7f4e487b71000000000000000000000000000000000000000000000000000000005f52601260045260245ffd5b5f6134aa82612d70565b91506134b583612d70565b9250826134c5576134c4613473565b5b828204905092915050565b7f494e53554646494349454e545f414c4c4f57414e4345000000000000000000005f82015250565b5f613504601683612dab565b915061350f826134d0565b602082019050919050565b5f6020820190508181035f830152613531816134f8565b9050919050565b5f61354282612d70565b915061354d83612d70565b925082820390508181111561356557613564613375565b5b92915050565b7f4e4f545f44454c454741544543414c4c000000000000000000000000000000005f82015250565b5f61359f601083612dab565b91506135aa8261356b565b602082019050919050565b5f6020820190508181035f8301526135cc81613593565b9050919050565b7f494e4143544956455f50524f58590000000000000000000000000000000000005f82015250565b5f613607600e83612dab565b9150613612826135d3565b602082019050919050565b5f6020820190508181035f830152613634816135fb565b9050919050565b7f414c52454144595f494e495449414c495a4544000000000000000000000000005f82015250565b5f61366f601383612dab565b915061367a8261363b565b602082019050919050565b5f6020820190508181035f83015261369c81613663565b9050919050565b5f82905092915050565b7f4e487b71000000000000000000000000000000000000000000000000000000005f52604160045260245ffd5b5f819050815f5260205f209050919050565b5f6020601f8301049050919050565b5f82821b905092915050565b5f600883026137367fffffffffffffffffffffffffffffffffffffffffffffffffffffffffffffffff826136fb565b61374086836136fb565b95508019841693508086168417925050509392505050565b5f819050919050565b5f61377b61377661377184612d70565b613758565b612d70565b9050919050565b5f819050919050565b61379483613761565b6137a86137a082613782565b848454613707565b825550505050565b5f5f905090565b6137bf6137b0565b6137ca81848461378b565b505050565b5b818110156137ed576137e25f826137b7565b6001810190506137d0565b5050565b601f82111561383257613803816136da565b61380c846136ec565b8101602085101561381b578190505b61382f613827856136ec565b8301826137cf565b50505b505050565b5f82821c905092915050565b5f6138525f1984600802613837565b1980831691505092915050565b5f61386a8383613843565b9150826002028217905092915050565b61388483836136a3565b67ffffffffffffffff81111561389d5761389c6136ad565b5b6138a78254613402565b6138b28282856137f1565b5f601f8311600181146138df575f84156138cd578287013590505b6138d7858261385f565b86555061393e565b601f1984166138ed866136da565b5f5b82811015613914578489013582556001820191506020850194506020810190506138ef565b86831015613931578489013561392d601f891682613843565b8355505b6001600288020188555050505b50505050505050565b7f4f4e4c595f494d504c454d454e544154494f4e000000000000000000000000005f82015250565b5f61397b601383612dab565b915061398682613947565b602082019050919050565b5f6020820190508181035f8301526139a88161396f565b9050919050565b7f554e4b4e4f574e5f4d41524b45540000000000000000000000000000000000005f82015250565b5f6139e3600e83612dab565b91506139ee826139af565b602082019050919050565b5f6020820190508181035f830152613a10816139d7565b9050919050565b7f4e4f5f465245455f4c49515549444954590000000000000000000000000000005f82015250565b5f613a4b601183612dab565b9150613a5682613a17565b602082019050919050565b5f6020820190508181035f830152613a7881613a3f565b9050919050565b5f604082019050613a925f830185612fd4565b613a9f6020830184612d79565b9392505050565b613aaf81612f26565b8114613ab9575f5ffd5b50565b5f81519050613aca81613aa6565b92915050565b5f60208284031215613ae557613ae4612e31565b5b5f613af284828501613abc565b91505092915050565b7f4445504f5349545f544f4f5f534d414c4c0000000000000000000000000000005f82015250565b5f613b2f601183612dab565b9150613b3a82613afb565b602082019050919050565b5f6020820190508181035f830152613b5c81613b23565b9050919050565b7f5a45524f5f4d41524b45540000000000000000000000000000000000000000005f82015250565b5f613b97600b83612dab565b9150613ba282613b63565b602082019050919050565b5f6020820190508181035f830152613bc481613b8b565b9050919050565b7f4d41524b45545f455849535453000000000000000000000000000000000000005f82015250565b5f613bff600d83612dab565b9150613c0a82613bcb565b602082019050919050565b5f6020820190508181035f830152613c2c81613bf3565b9050919050565b7f5a45524f5f5348415245530000000000000000000000000000000000000000005f82015250565b5f613c67600b83612dab565b9150613c7282613c33565b602082019050919050565b5f6020820190508181035f830152613c9481613c5b565b9050919050565b7f5a45524f5f4153534554530000000000000000000000000000000000000000005f82015250565b5f613ccf600b83612dab565b9150613cda82613c9b565b602082019050919050565b5f6020820190508181035f830152613cfc81613cc3565b9050919050565b5f606082019050613d165f830186612fd4565b613d236020830185612fd4565b613d306040830184612d79565b949350505050565b5f604082019050613d4b5f830185612d79565b613d586020830184612d79565b9392505050565b7f5a45524f5f544f000000000000000000000000000000000000000000000000005f82015250565b5f613d93600783612dab565b9150613d9e82613d5f565b602082019050919050565b5f6020820190508181035f830152613dc081613d87565b9050919050565b7f494e53554646494349454e545f42414c414e43450000000000000000000000005f82015250565b5f613dfb601483612dab565b9150613e0682613dc7565b602082019050919050565b5f6020820190508181035f830152613e2881613def565b9050919050565b7f5a45524f5f494d504c00000000000000000000000000000000000000000000005f82015250565b5f613e63600983612dab565b9150613e6e82613e2f565b602082019050919050565b5f6020820190508181035f830152613e9081613e57565b9050919050565b5f81519050919050565b5f81905092915050565b5f613eb582613e97565b613ebf8185613ea1565b9350613ecf818560208601612dbb565b80840191505092915050565b5f613ee68284613eab565b915081905092915050565b7f5a45524f5f4153534554000000000000000000000000000000000000000000005f82015250565b5f613f25600a83612dab565b9150613f3082613ef1565b602082019050919050565b5f6020820190508181035f830152613f5281613f19565b9050919050565b613f6282612da1565b67ffffffffffffffff811115613f7b57613f7a6136ad565b5b613f858254613402565b613f908282856137f1565b5f60209050601f831160018114613fc1575f8415613faf578287015190505b613fb9858261385f565b865550614020565b601f198416613fcf866136da565b5f5b82811015613ff657848901518255600182019150602085019450602081019050613fd1565b86831015614013578489015161400f601f891682613843565b8355505b6001600288020188555050505b50505050505056fea26469706673582212203c0c694ccf30c7e6d1aacc3f435cff83b0ac9f0b8d1e8d89e7e616c7411a1b5764736f6c634300081e0033",
					"opcodes": "PUSH1 0xA0 PUSH1 0x40 MSTORE ADDRESS PUSH20 0xFFFFFFFFFFFFFFFFFFFFFFFFFFFFFFFFFFFFFFFF AND PUSH1 0x80 SWAP1 PUSH20 0xFFFFFFFFFFFFFFFFFFFFFFFFFFFFFFFFFFFFFFFF AND DUP2 MSTORE POP CALLVALUE DUP1 ISZERO PUSH2 0x42 JUMPI PUSH0 PUSH0 REVERT JUMPDEST POP PUSH1 0x80 MLOAD PUSH2 0x405E PUSH2 0x77 PUSH0 CODECOPY PUSH0 DUP2 DUP2 PUSH2 0xC75 ADD MSTORE DUP2 DUP2 PUSH2 0xD03 ADD MSTORE DUP2 DUP2 PUSH2 0x1015 ADD MSTORE DUP2 DUP2 PUSH2 0x10A3 ADD MSTORE PUSH2 0x1196 ADD MSTORE PUSH2 0x405E PUSH0 RETURN INVALID PUSH1 0x80 PUSH1 0x40 MSTORE PUSH1 0x4 CALLDATASIZE LT PUSH2 0x1E2 JUMPI PUSH0 CALLDATALOAD PUSH1 0xE0 SHR DUP1 PUSH4 0x6CEB1570 GT PUSH2 0x101 JUMPI DUP1 PUSH4 0x95D89B41 GT PUSH2 0x94 JUMPI DUP1 PUSH4 0xBA087652 GT PUSH2 0x63 JUMPI DUP1 PUSH4 0xBA087652 EQ PUSH2 0x71A JUMPI DUP1 PUSH4 0xC6E6F592 EQ PUSH2 0x756 JUMPI DUP1 PUSH4 0xD3A417A2 EQ PUSH2 0x792 JUMPI DUP1 PUSH4 0xDD62ED3E EQ PUSH2 0x7BA JUMPI PUSH2 0x1E2 JUMP JUMPDEST DUP1 PUSH4 0x95D89B41 EQ PUSH2 0x63C JUMPI DUP1 PUSH4 0xA9059CBB EQ PUSH2 0x666 JUMPI DUP1 PUSH4 0xB1283E77 EQ PUSH2 0x6A2 JUMPI DUP1 PUSH4 0xB460AF94 EQ PUSH2 0x6DE JUMPI PUSH2 0x1E2 JUMP JUMPDEST DUP1 PUSH4 0x8DA5CB5B GT PUSH2 0xD0 JUMPI DUP1 PUSH4 0x8DA5CB5B EQ PUSH2 0x584 JUMPI DUP1 PUSH4 0x92F6B31C EQ PUSH2 0x5AE JUMPI DUP1 PUSH4 0x93E30633 EQ PUSH2 0x5D8 JUMPI DUP1 PUSH4 0x94BF804D EQ PUSH2 0x600 JUMPI PUSH2 0x1E2 JUMP JUMPDEST DUP1 PUSH4 0x6CEB1570 EQ PUSH2 0x4A8 JUMPI DUP1 PUSH4 0x6E553F65 EQ PUSH2 0x4D0 JUMPI DUP1 PUSH4 0x6EC934DA EQ PUSH2 0x50C JUMPI DUP1 PUSH4 0x70A08231 EQ PUSH2 0x548 JUMPI PUSH2 0x1E2 JUMP JUMPDEST DUP1 PUSH4 0x38D52E0F GT PUSH2 0x179 JUMPI DUP1 PUSH4 0x4A79D50C GT PUSH2 0x148 JUMPI DUP1 PUSH4 0x4A79D50C EQ PUSH2 0x410 JUMPI DUP1 PUSH4 0x4F1EF286 EQ PUSH2 0x43A JUMPI DUP1 PUSH4 0x52D1902D EQ PUSH2 0x456 JUMPI DUP1 PUSH4 0x66ADF46A EQ PUSH2 0x480 JUMPI PUSH2 0x1E2 JUMP JUMPDEST DUP1 PUSH4 0x38D52E0F EQ PUSH2 0x36A JUMPI DUP1 PUSH4 0x3BCFC4B8 EQ PUSH2 0x394 JUMPI DUP1 PUSH4 0x3DCE8B38 EQ PUSH2 0x3BE JUMPI DUP1 PUSH4 0x41B3D185 EQ PUSH2 0x3E6 JUMPI PUSH2 0x1E2 JUMP JUMPDEST DUP1 PUSH4 0x18160DDD GT PUSH2 0x1B5 JUMPI DUP1 PUSH4 0x18160DDD EQ PUSH2 0x2B2 JUMPI DUP1 PUSH4 0x23B872DD EQ PUSH2 0x2DC JUMPI DUP1 PUSH4 0x313CE567 EQ PUSH2 0x318 JUMPI DUP1 PUSH4 0x3659CFE6 EQ PUSH2 0x342 JUMPI PUSH2 0x1E2 JUMP JUMPDEST DUP1 PUSH4 0x1E1D114 EQ PUSH2 0x1E6 JUMPI DUP1 PUSH4 0x6FDDE03 EQ PUSH2 0x210 JUMPI DUP1 PUSH4 0x7A2D13A EQ PUSH2 0x23A JUMPI DUP1 PUSH4 0x95EA7B3 EQ PUSH2 0x276 JUMPI JUMPDEST PUSH0 PUSH0 REVERT JUMPDEST CALLVALUE DUP1 ISZERO PUSH2 0x1F1 JUMPI PUSH0 PUSH0 REVERT JUMPDEST POP PUSH2 0x1FA PUSH2 0x7F6 JUMP JUMPDEST PUSH1 0x40 MLOAD PUSH2 0x207 SWAP2 SWAP1 PUSH2 0x2D88 JUMP JUMPDEST PUSH1 0x40 MLOAD DUP1 SWAP2 SUB SWAP1 RETURN JUMPDEST CALLVALUE DUP1 ISZERO PUSH2 0x21B JUMPI PUSH0 PUSH0 REVERT JUMPDEST POP PUSH2 0x224 PUSH2 0x9DE JUMP JUMPDEST PUSH1 0x40 MLOAD PUSH2 0x231 SWAP2 SWAP1 PUSH2 0x2E11 JUMP JUMPDEST PUSH1 0x40 MLOAD DUP1 SWAP2 SUB SWAP1 RETURN JUMPDEST CALLVALUE DUP1 ISZERO PUSH2 0x245 JUMPI PUSH0 PUSH0 REVERT JUMPDEST POP PUSH2 0x260 PUSH1 0x4 DUP1 CALLDATASIZE SUB DUP2 ADD SWAP1 PUSH2 0x25B SWAP2 SWAP1 PUSH2 0x2E63 JUMP JUMPDEST PUSH2 0xA6E JUMP JUMPDEST PUSH1 0x40 MLOAD PUSH2 0x26D SWAP2 SWAP1 PUSH2 0x2D88 JUMP JUMPDEST PUSH1 0x40 MLOAD DUP1 SWAP2 SUB SWAP1 RETURN JUMPDEST CALLVALUE DUP1 ISZERO PUSH2 0x281 JUMPI PUSH0 PUSH0 REVERT JUMPDEST POP PUSH2 0x29C PUSH1 0x4 DUP1 CALLDATASIZE SUB DUP2 ADD SWAP1 PUSH2 0x297 SWAP2 SWAP1 PUSH2 0x2EE8 JUMP JUMPDEST PUSH2 0xB27 JUMP JUMPDEST PUSH1 0x40 MLOAD PUSH2 0x2A9 SWAP2 SWAP1 PUSH2 0x2F40 JUMP JUMPDEST PUSH1 0x40 MLOAD DUP1 SWAP2 SUB SWAP1 RETURN JUMPDEST CALLVALUE DUP1 ISZERO PUSH2 0x2BD JUMPI PUSH0 PUSH0 REVERT JUMPDEST POP PUSH2 0x2C6 PUSH2 0xB3D JUMP JUMPDEST PUSH1 0x40 MLOAD PUSH2 0x2D3 SWAP2 SWAP1 PUSH2 0x2D88 JUMP JUMPDEST PUSH1 0x40 MLOAD DUP1 SWAP2 SUB SWAP1 RETURN JUMPDEST CALLVALUE DUP1 ISZERO PUSH2 0x2E7 JUMPI PUSH0 PUSH0 REVERT JUMPDEST POP PUSH2 0x302 PUSH1 0x4 DUP1 CALLDATASIZE SUB DUP2 ADD SWAP1 PUSH2 0x2FD SWAP2 SWAP1 PUSH2 0x2F59 JUMP JUMPDEST PUSH2 0xB46 JUMP JUMPDEST PUSH1 0x40 MLOAD PUSH2 0x30F SWAP2 SWAP1 PUSH2 0x2F40 JUMP JUMPDEST PUSH1 0x40 MLOAD DUP1 SWAP2 SUB SWAP1 RETURN JUMPDEST CALLVALUE DUP1 ISZERO PUSH2 0x323 JUMPI PUSH0 PUSH0 REVERT JUMPDEST POP PUSH2 0x32C PUSH2 0xC5B JUMP JUMPDEST PUSH1 0x40 MLOAD PUSH2 0x339 SWAP2 SWAP1 PUSH2 0x2D88 JUMP JUMPDEST PUSH1 0x40 MLOAD DUP1 SWAP2 SUB SWAP1 RETURN JUMPDEST CALLVALUE DUP1 ISZERO PUSH2 0x34D JUMPI PUSH0 PUSH0 REVERT JUMPDEST POP PUSH2 0x368 PUSH1 0x4 DUP1 CALLDATASIZE SUB DUP2 ADD SWAP1 PUSH2 0x363 SWAP2 SWAP1 PUSH2 0x2FA9 JUMP JUMPDEST PUSH2 0xC73 JUMP JUMPDEST STOP JUMPDEST CALLVALUE DUP1 ISZERO PUSH2 0x375 JUMPI PUSH0 PUSH0 REVERT JUMPDEST POP PUSH2 0x37E PUSH2 0xDBB JUMP JUMPDEST PUSH1 0x40 MLOAD PUSH2 0x38B SWAP2 SWAP1 PUSH2 0x2FE3 JUMP JUMPDEST PUSH1 0x40 MLOAD DUP1 SWAP2 SUB SWAP1 RETURN JUMPDEST CALLVALUE DUP1 ISZERO PUSH2 0x39F JUMPI PUSH0 PUSH0 REVERT JUMPDEST POP PUSH2 0x3A8 PUSH2 0xDE3 JUMP JUMPDEST PUSH1 0x40 MLOAD PUSH2 0x3B5 SWAP2 SWAP1 PUSH2 0x2D88 JUMP JUMPDEST PUSH1 0x40 MLOAD DUP1 SWAP2 SUB SWAP1 RETURN JUMPDEST CALLVALUE DUP1 ISZERO PUSH2 0x3C9 JUMPI PUSH0 PUSH0 REVERT JUMPDEST POP PUSH2 0x3E4 PUSH1 0x4 DUP1 CALLDATASIZE SUB DUP2 ADD SWAP1 PUSH2 0x3DF SWAP2 SWAP1 PUSH2 0x305D JUMP JUMPDEST PUSH2 0xDE9 JUMP JUMPDEST STOP JUMPDEST CALLVALUE DUP1 ISZERO PUSH2 0x3F1 JUMPI PUSH0 PUSH0 REVERT JUMPDEST POP PUSH2 0x3FA PUSH2 0xF81 JUMP JUMPDEST PUSH1 0x40 MLOAD PUSH2 0x407 SWAP2 SWAP1 PUSH2 0x2D88 JUMP JUMPDEST PUSH1 0x40 MLOAD DUP1 SWAP2 SUB SWAP1 RETURN JUMPDEST CALLVALUE DUP1 ISZERO PUSH2 0x41B JUMPI PUSH0 PUSH0 REVERT JUMPDEST POP PUSH2 0x424 PUSH2 0xF87 JUMP JUMPDEST PUSH1 0x40 MLOAD PUSH2 0x431 SWAP2 SWAP1 PUSH2 0x2E11 JUMP JUMPDEST PUSH1 0x40 MLOAD DUP1 SWAP2 SUB SWAP1 RETURN JUMPDEST PUSH2 0x454 PUSH1 0x4 DUP1 CALLDATASIZE SUB DUP2 ADD SWAP1 PUSH2 0x44F SWAP2 SWAP1 PUSH2 0x31AF JUMP JUMPDEST PUSH2 0x1013 JUMP JUMPDEST STOP JUMPDEST CALLVALUE DUP1 ISZERO PUSH2 0x461 JUMPI PUSH0 PUSH0 REVERT JUMPDEST POP PUSH2 0x46A PUSH2 0x1193 JUMP JUMPDEST PUSH1 0x40 MLOAD PUSH2 0x477 SWAP2 SWAP1 PUSH2 0x3224 JUMP JUMPDEST PUSH1 0x40 MLOAD DUP1 SWAP2 SUB SWAP1 RETURN JUMPDEST CALLVALUE DUP1 ISZERO PUSH2 0x48B JUMPI PUSH0 PUSH0 REVERT JUMPDEST POP PUSH2 0x4A6 PUSH1 0x4 DUP1 CALLDATASIZE SUB DUP2 ADD SWAP1 PUSH2 0x4A1 SWAP2 SWAP1 PUSH2 0x2EE8 JUMP JUMPDEST PUSH2 0x124A JUMP JUMPDEST STOP JUMPDEST CALLVALUE DUP1 ISZERO PUSH2 0x4B3 JUMPI PUSH0 PUSH0 REVERT JUMPDEST POP PUSH2 0x4CE PUSH1 0x4 DUP1 CALLDATASIZE SUB DUP2 ADD SWAP1 PUSH2 0x4C9 SWAP2 SWAP1 PUSH2 0x2EE8 JUMP JUMPDEST PUSH2 0x1462 JUMP JUMPDEST STOP JUMPDEST CALLVALUE DUP1 ISZERO PUSH2 0x4DB JUMPI PUSH0 PUSH0 REVERT JUMPDEST POP PUSH2 0x4F6 PUSH1 0x4 DUP1 CALLDATASIZE SUB DUP2 ADD SWAP1 PUSH2 0x4F1 SWAP2 SWAP1 PUSH2 0x323D JUMP JUMPDEST PUSH2 0x15AD JUMP JUMPDEST PUSH1 0x40 MLOAD PUSH2 0x503 SWAP2 SWAP1 PUSH2 0x2D88 JUMP JUMPDEST PUSH1 0x40 MLOAD DUP1 SWAP2 SUB SWAP1 RETURN JUMPDEST CALLVALUE DUP1 ISZERO PUSH2 0x517 JUMPI PUSH0 PUSH0 REVERT JUMPDEST POP PUSH2 0x532 PUSH1 0x4 DUP1 CALLDATASIZE SUB DUP2 ADD SWAP1 PUSH2 0x52D SWAP2 SWAP1 PUSH2 0x2FA9 JUMP JUMPDEST PUSH2 0x1605 JUMP JUMPDEST PUSH1 0x40 MLOAD PUSH2 0x53F SWAP2 SWAP1 PUSH2 0x2F40 JUMP JUMPDEST PUSH1 0x40 MLOAD DUP1 SWAP2 SUB SWAP1 RETURN JUMPDEST CALLVALUE DUP1 ISZERO PUSH2 0x553 JUMPI PUSH0 PUSH0 REVERT JUMPDEST POP PUSH2 0x56E PUSH1 0x4 DUP1 CALLDATASIZE SUB DUP2 ADD SWAP1 PUSH2 0x569 SWAP2 SWAP1 PUSH2 0x2FA9 JUMP JUMPDEST PUSH2 0x1622 JUMP JUMPDEST PUSH1 0x40 MLOAD PUSH2 0x57B SWAP2 SWAP1 PUSH2 0x2D88 JUMP JUMPDEST PUSH1 0x40 MLOAD DUP1 SWAP2 SUB SWAP1 RETURN JUMPDEST CALLVALUE DUP1 ISZERO PUSH2 0x58F JUMPI PUSH0 PUSH0 REVERT JUMPDEST POP PUSH2 0x598 PUSH2 0x1668 JUMP JUMPDEST PUSH1 0x40 MLOAD PUSH2 0x5A5 SWAP2 SWAP1 PUSH2 0x2FE3 JUMP JUMPDEST PUSH1 0x40 MLOAD DUP1 SWAP2 SUB SWAP1 RETURN JUMPDEST CALLVALUE DUP1 ISZERO PUSH2 0x5B9 JUMPI PUSH0 PUSH0 REVERT JUMPDEST POP PUSH2 0x5C2 PUSH2 0x168D JUMP JUMPDEST PUSH1 0x40 MLOAD PUSH2 0x5CF SWAP2 SWAP1 PUSH2 0x2D88 JUMP JUMPDEST PUSH1 0x40 MLOAD DUP1 SWAP2 SUB SWAP1 RETURN JUMPDEST CALLVALUE DUP1 ISZERO PUSH2 0x5E3 JUMPI PUSH0 PUSH0 REVERT JUMPDEST POP PUSH2 0x5FE PUSH1 0x4 DUP1 CALLDATASIZE SUB DUP2 ADD SWAP1 PUSH2 0x5F9 SWAP2 SWAP1 PUSH2 0x2FA9 JUMP JUMPDEST PUSH2 0x1712 JUMP JUMPDEST STOP JUMPDEST CALLVALUE DUP1 ISZERO PUSH2 0x60B JUMPI PUSH0 PUSH0 REVERT JUMPDEST POP PUSH2 0x626 PUSH1 0x4 DUP1 CALLDATASIZE SUB DUP2 ADD SWAP1 PUSH2 0x621 SWAP2 SWAP1 PUSH2 0x323D JUMP JUMPDEST PUSH2 0x191A JUMP JUMPDEST PUSH1 0x40 MLOAD PUSH2 0x633 SWAP2 SWAP1 PUSH2 0x2D88 JUMP JUMPDEST PUSH1 0x40 MLOAD DUP1 SWAP2 SUB SWAP1 RETURN JUMPDEST CALLVALUE DUP1 ISZERO PUSH2 0x647 JUMPI PUSH0 PUSH0 REVERT JUMPDEST POP PUSH2 0x650 PUSH2 0x1AC0 JUMP JUMPDEST PUSH1 0x40 MLOAD PUSH2 0x65D SWAP2 SWAP1 PUSH2 0x2E11 JUMP JUMPDEST PUSH1 0x40 MLOAD DUP1 SWAP2 SUB SWAP1 RETURN JUMPDEST CALLVALUE DUP1 ISZERO PUSH2 0x671 JUMPI PUSH0 PUSH0 REVERT JUMPDEST POP PUSH2 0x68C PUSH1 0x4 DUP1 CALLDATASIZE SUB DUP2 ADD SWAP1 PUSH2 0x687 SWAP2 SWAP1 PUSH2 0x2EE8 JUMP JUMPDEST PUSH2 0x1B50 JUMP JUMPDEST PUSH1 0x40 MLOAD PUSH2 0x699 SWAP2 SWAP1 PUSH2 0x2F40 JUMP JUMPDEST PUSH1 0x40 MLOAD DUP1 SWAP2 SUB SWAP1 RETURN JUMPDEST CALLVALUE DUP1 ISZERO PUSH2 0x6AD JUMPI PUSH0 PUSH0 REVERT JUMPDEST POP PUSH2 0x6C8 PUSH1 0x4 DUP1 CALLDATASIZE SUB DUP2 ADD SWAP1 PUSH2 0x6C3 SWAP2 SWAP1 PUSH2 0x2E63 JUMP JUMPDEST PUSH2 0x1B66 JUMP JUMPDEST PUSH1 0x40 MLOAD PUSH2 0x6D5 SWAP2 SWAP1 PUSH2 0x2FE3 JUMP JUMPDEST PUSH1 0x40 MLOAD DUP1 SWAP2 SUB SWAP1 RETURN JUMPDEST CALLVALUE DUP1 ISZERO PUSH2 0x6E9 JUMPI PUSH0 PUSH0 REVERT JUMPDEST POP PUSH2 0x704 PUSH1 0x4 DUP1 CALLDATASIZE SUB DUP2 ADD SWAP1 PUSH2 0x6FF SWAP2 SWAP1 PUSH2 0x327B JUMP JUMPDEST PUSH2 0x1BA1 JUMP JUMPDEST PUSH1 0x40 MLOAD PUSH2 0x711 SWAP2 SWAP1 PUSH2 0x2D88 JUMP JUMPDEST PUSH1 0x40 MLOAD DUP1 SWAP2 SUB SWAP1 RETURN JUMPDEST CALLVALUE DUP1 ISZERO PUSH2 0x725 JUMPI PUSH0 PUSH0 REVERT JUMPDEST POP PUSH2 0x740 PUSH1 0x4 DUP1 CALLDATASIZE SUB DUP2 ADD SWAP1 PUSH2 0x73B SWAP2 SWAP1 PUSH2 0x327B JUMP JUMPDEST PUSH2 0x1C00 JUMP JUMPDEST PUSH1 0x40 MLOAD PUSH2 0x74D SWAP2 SWAP1 PUSH2 0x2D88 JUMP JUMPDEST PUSH1 0x40 MLOAD DUP1 SWAP2 SUB SWAP1 RETURN JUMPDEST CALLVALUE DUP1 ISZERO PUSH2 0x761 JUMPI PUSH0 PUSH0 REVERT JUMPDEST POP PUSH2 0x77C PUSH1 0x4 DUP1 CALLDATASIZE SUB DUP2 ADD SWAP1 PUSH2 0x777 SWAP2 SWAP1 PUSH2 0x2E63 JUMP JUMPDEST PUSH2 0x1E3D JUMP JUMPDEST PUSH1 0x40 MLOAD PUSH2 0x789 SWAP2 SWAP1 PUSH2 0x2D88 JUMP JUMPDEST PUSH1 0x40 MLOAD DUP1 SWAP2 SUB SWAP1 RETURN JUMPDEST CALLVALUE DUP1 ISZERO PUSH2 0x79D JUMPI PUSH0 PUSH0 REVERT JUMPDEST POP PUSH2 0x7B8 PUSH1 0x4 DUP1 CALLDATASIZE SUB DUP2 ADD SWAP1 PUSH2 0x7B3 SWAP2 SWAP1 PUSH2 0x2FA9 JUMP JUMPDEST PUSH2 0x1EF6 JUMP JUMPDEST STOP JUMPDEST CALLVALUE DUP1 ISZERO PUSH2 0x7C5 JUMPI PUSH0 PUSH0 REVERT JUMPDEST POP PUSH2 0x7E0 PUSH1 0x4 DUP1 CALLDATASIZE SUB DUP2 ADD SWAP1 PUSH2 0x7DB SWAP2 SWAP1 PUSH2 0x32CB JUMP JUMPDEST PUSH2 0x1FC8 JUMP JUMPDEST PUSH1 0x40 MLOAD PUSH2 0x7ED SWAP2 SWAP1 PUSH2 0x2D88 JUMP JUMPDEST PUSH1 0x40 MLOAD DUP1 SWAP2 SUB SWAP1 RETURN JUMPDEST PUSH0 PUSH2 0x7FF PUSH2 0xDBB JUMP JUMPDEST PUSH20 0xFFFFFFFFFFFFFFFFFFFFFFFFFFFFFFFFFFFFFFFF AND PUSH4 0x70A08231 ADDRESS PUSH1 0x40 MLOAD DUP3 PUSH4 0xFFFFFFFF AND PUSH1 0xE0 SHL DUP2 MSTORE PUSH1 0x4 ADD PUSH2 0x837 SWAP2 SWAP1 PUSH2 0x2FE3 JUMP JUMPDEST PUSH1 0x20 PUSH1 0x40 MLOAD DUP1 DUP4 SUB DUP2 DUP7 GAS STATICCALL ISZERO DUP1 ISZERO PUSH2 0x852 JUMPI RETURNDATASIZE PUSH0 PUSH0 RETURNDATACOPY RETURNDATASIZE PUSH0 REVERT JUMPDEST POP POP POP POP PUSH1 0x40 MLOAD RETURNDATASIZE PUSH1 0x1F NOT PUSH1 0x1F DUP3 ADD AND DUP3 ADD DUP1 PUSH1 0x40 MSTORE POP DUP2 ADD SWAP1 PUSH2 0x876 SWAP2 SWAP1 PUSH2 0x331D JUMP JUMPDEST SWAP1 POP PUSH0 PUSH1 0xB DUP1 SLOAD SWAP1 POP SWAP1 POP PUSH0 PUSH0 SWAP1 POP JUMPDEST DUP2 DUP2 LT ISZERO PUSH2 0x9D9 JUMPI PUSH1 0xC PUSH0 PUSH1 0xB DUP4 DUP2 SLOAD DUP2 LT PUSH2 0x8A5 JUMPI PUSH2 0x8A4 PUSH2 0x3348 JUMP JUMPDEST JUMPDEST SWAP1 PUSH0 MSTORE PUSH1 0x20 PUSH0 KECCAK256 ADD PUSH0 SWAP1 SLOAD SWAP1 PUSH2 0x100 EXP SWAP1 DIV PUSH20 0xFFFFFFFFFFFFFFFFFFFFFFFFFFFFFFFFFFFFFFFF AND PUSH20 0xFFFFFFFFFFFFFFFFFFFFFFFFFFFFFFFFFFFFFFFF AND PUSH20 0xFFFFFFFFFFFFFFFFFFFFFFFFFFFFFFFFFFFFFFFF AND DUP2 MSTORE PUSH1 0x20 ADD SWAP1 DUP2 MSTORE PUSH1 0x20 ADD PUSH0 KECCAK256 PUSH0 SWAP1 SLOAD SWAP1 PUSH2 0x100 EXP SWAP1 DIV PUSH1 0xFF AND ISZERO PUSH2 0x9CE JUMPI PUSH1 0xB DUP2 DUP2 SLOAD DUP2 LT PUSH2 0x92C JUMPI PUSH2 0x92B PUSH2 0x3348 JUMP JUMPDEST JUMPDEST SWAP1 PUSH0 MSTORE PUSH1 0x20 PUSH0 KECCAK256 ADD PUSH0 SWAP1 SLOAD SWAP1 PUSH2 0x100 EXP SWAP1 DIV PUSH20 0xFFFFFFFFFFFFFFFFFFFFFFFFFFFFFFFFFFFFFFFF AND PUSH20 0xFFFFFFFFFFFFFFFFFFFFFFFFFFFFFFFFFFFFFFFF AND PUSH4 0xC82F6D2F PUSH1 0x40 MLOAD DUP2 PUSH4 0xFFFFFFFF AND PUSH1 0xE0 SHL DUP2 MSTORE PUSH1 0x4 ADD PUSH1 0x20 PUSH1 0x40 MLOAD DUP1 DUP4 SUB DUP2 DUP7 GAS STATICCALL ISZERO DUP1 ISZERO PUSH2 0x99C JUMPI RETURNDATASIZE PUSH0 PUSH0 RETURNDATACOPY RETURNDATASIZE PUSH0 REVERT JUMPDEST POP POP POP POP PUSH1 0x40 MLOAD RETURNDATASIZE PUSH1 0x1F NOT PUSH1 0x1F DUP3 ADD AND DUP3 ADD DUP1 PUSH1 0x40 MSTORE POP DUP2 ADD SWAP1 PUSH2 0x9C0 SWAP2 SWAP1 PUSH2 0x331D JUMP JUMPDEST DUP4 PUSH2 0x9CB SWAP2 SWAP1 PUSH2 0x33A2 JUMP JUMPDEST SWAP3 POP JUMPDEST DUP1 PUSH1 0x1 ADD SWAP1 POP PUSH2 0x886 JUMP JUMPDEST POP POP SWAP1 JUMP JUMPDEST PUSH1 0x60 PUSH1 0x1 DUP1 SLOAD PUSH2 0x9ED SWAP1 PUSH2 0x3402 JUMP JUMPDEST DUP1 PUSH1 0x1F ADD PUSH1 0x20 DUP1 SWAP2 DIV MUL PUSH1 0x20 ADD PUSH1 0x40 MLOAD SWAP1 DUP2 ADD PUSH1 0x40 MSTORE DUP1 SWAP3 SWAP2 SWAP1 DUP2 DUP2 MSTORE PUSH1 0x20 ADD DUP3 DUP1 SLOAD PUSH2 0xA19 SWAP1 PUSH2 0x3402 JUMP JUMPDEST DUP1 ISZERO PUSH2 0xA64 JUMPI DUP1 PUSH1 0x1F LT PUSH2 0xA3B JUMPI PUSH2 0x100 DUP1 DUP4 SLOAD DIV MUL DUP4 MSTORE SWAP2 PUSH1 0x20 ADD SWAP2 PUSH2 0xA64 JUMP JUMPDEST DUP3 ADD SWAP2 SWAP1 PUSH0 MSTORE PUSH1 0x20 PUSH0 KECCAK256 SWAP1 JUMPDEST DUP2 SLOAD DUP2 MSTORE SWAP1 PUSH1 0x1 ADD SWAP1 PUSH1 0x20 ADD DUP1 DUP4 GT PUSH2 0xA47 JUMPI DUP3 SWAP1 SUB PUSH1 0x1F AND DUP3 ADD SWAP2 JUMPDEST POP POP POP POP POP SWAP1 POP SWAP1 JUMP JUMPDEST PUSH0 PUSH0 ADDRESS PUSH20 0xFFFFFFFFFFFFFFFFFFFFFFFFFFFFFFFFFFFFFFFF AND PUSH4 0x18160DDD PUSH1 0x40 MLOAD DUP2 PUSH4 0xFFFFFFFF AND PUSH1 0xE0 SHL DUP2 MSTORE PUSH1 0x4 ADD PUSH1 0x20 PUSH1 0x40 MLOAD DUP1 DUP4 SUB DUP2 DUP7 GAS STATICCALL ISZERO DUP1 ISZERO PUSH2 0xAB9 JUMPI RETURNDATASIZE PUSH0 PUSH0 RETURNDATACOPY RETURNDATASIZE PUSH0 REVERT JUMPDEST POP POP POP POP PUSH1 0x40 MLOAD RETURNDATASIZE PUSH1 0x1F NOT PUSH1 0x1F DUP3 ADD AND DUP3 ADD DUP1 PUSH1 0x40 MSTORE POP DUP2 ADD SWAP1 PUSH2 0xADD SWAP2 SWAP1 PUSH2 0x331D JUMP JUMPDEST SWAP1 POP PUSH0 PUSH2 0xAE8 PUSH2 0x7F6 JUMP JUMPDEST SWAP1 POP PUSH0 DUP3 EQ DUP1 PUSH2 0xAF7 JUMPI POP PUSH0 DUP2 EQ JUMPDEST ISZERO PUSH2 0xB06 JUMPI DUP4 SWAP3 POP POP POP PUSH2 0xB22 JUMP JUMPDEST DUP2 DUP2 DUP6 PUSH2 0xB13 SWAP2 SWAP1 PUSH2 0x3432 JUMP JUMPDEST PUSH2 0xB1D SWAP2 SWAP1 PUSH2 0x34A0 JUMP JUMPDEST SWAP3 POP POP POP JUMPDEST SWAP2 SWAP1 POP JUMP JUMPDEST PUSH0 PUSH2 0xB33 CALLER DUP5 DUP5 PUSH2 0x204A JUMP JUMPDEST PUSH1 0x1 SWAP1 POP SWAP3 SWAP2 POP POP JUMP JUMPDEST PUSH0 PUSH1 0x4 SLOAD SWAP1 POP SWAP1 JUMP JUMPDEST PUSH0 PUSH0 PUSH1 0x6 PUSH0 DUP7 PUSH20 0xFFFFFFFFFFFFFFFFFFFFFFFFFFFFFFFFFFFFFFFF AND PUSH20 0xFFFFFFFFFFFFFFFFFFFFFFFFFFFFFFFFFFFFFFFF AND DUP2 MSTORE PUSH1 0x20 ADD SWAP1 DUP2 MSTORE PUSH1 0x20 ADD PUSH0 KECCAK256 PUSH0 CALLER PUSH20 0xFFFFFFFFFFFFFFFFFFFFFFFFFFFFFFFFFFFFFFFF AND PUSH20 0xFFFFFFFFFFFFFFFFFFFFFFFFFFFFFFFFFFFFFFFF AND DUP2 MSTORE PUSH1 0x20 ADD SWAP1 DUP2 MSTORE PUSH1 0x20 ADD PUSH0 KECCAK256 SLOAD SWAP1 POP PUSH32 0xFFFFFFFFFFFFFFFFFFFFFFFFFFFFFFFFFFFFFFFFFFFFFFFFFFFFFFFFFFFFFFFF DUP2 EQ PUSH2 0xC44 JUMPI DUP3 DUP2 LT ISZERO PUSH2 0xC2D JUMPI PUSH1 0x40 MLOAD PUSH32 0x8C379A000000000000000000000000000000000000000000000000000000000 DUP2 MSTORE PUSH1 0x4 ADD PUSH2 0xC24 SWAP1 PUSH2 0x351A JUMP JUMPDEST PUSH1 0x40 MLOAD DUP1 SWAP2 SUB SWAP1 REVERT JUMPDEST PUSH2 0xC43 DUP6 CALLER DUP6 DUP5 PUSH2 0xC3E SWAP2 SWAP1 PUSH2 0x3538 JUMP JUMPDEST PUSH2 0x204A JUMP JUMPDEST JUMPDEST PUSH2 0xC4F DUP6 DUP6 DUP6 PUSH2 0x2131 JUMP JUMPDEST PUSH1 0x1 SWAP2 POP POP SWAP4 SWAP3 POP POP POP JUMP JUMPDEST PUSH0 PUSH1 0x3 PUSH0 SWAP1 SLOAD SWAP1 PUSH2 0x100 EXP SWAP1 DIV PUSH1 0xFF AND PUSH1 0xFF AND SWAP1 POP SWAP1 JUMP JUMPDEST PUSH32 0x0 PUSH20 0xFFFFFFFFFFFFFFFFFFFFFFFFFFFFFFFFFFFFFFFF AND ADDRESS PUSH20 0xFFFFFFFFFFFFFFFFFFFFFFFFFFFFFFFFFFFFFFFF AND SUB PUSH2 0xD01 JUMPI PUSH1 0x40 MLOAD PUSH32 0x8C379A000000000000000000000000000000000000000000000000000000000 DUP2 MSTORE PUSH1 0x4 ADD PUSH2 0xCF8 SWAP1 PUSH2 0x35B5 JUMP JUMPDEST PUSH1 0x40 MLOAD DUP1 SWAP2 SUB SWAP1 REVERT JUMPDEST PUSH32 0x0 PUSH20 0xFFFFFFFFFFFFFFFFFFFFFFFFFFFFFFFFFFFFFFFF AND PUSH2 0xD40 PUSH2 0x2325 JUMP JUMPDEST PUSH20 0xFFFFFFFFFFFFFFFFFFFFFFFFFFFFFFFFFFFFFFFF AND EQ PUSH2 0xD96 JUMPI PUSH1 0x40 MLOAD PUSH32 0x8C379A000000000000000000000000000000000000000000000000000000000 DUP2 MSTORE PUSH1 0x4 ADD PUSH2 0xD8D SWAP1 PUSH2 0x361D JUMP JUMPDEST PUSH1 0x40 MLOAD DUP1 SWAP2 SUB SWAP1 REVERT JUMPDEST PUSH2 0xD9F DUP2 PUSH2 0x2354 JUMP JUMPDEST PUSH2 0xDB8 DUP2 PUSH1 0x40 MLOAD DUP1 PUSH1 0x20 ADD PUSH1 0x40 MSTORE DUP1 PUSH0 DUP2 MSTORE POP PUSH0 PUSH2 0x23AF JUMP JUMPDEST POP JUMP JUMPDEST PUSH0 PUSH1 0x7 PUSH0 SWAP1 SLOAD SWAP1 PUSH2 0x100 EXP SWAP1 DIV PUSH20 0xFFFFFFFFFFFFFFFFFFFFFFFFFFFFFFFFFFFFFFFF AND SWAP1 POP SWAP1 JUMP JUMPDEST PUSH1 0x9 SLOAD DUP2 JUMP JUMPDEST PUSH0 PUSH0 SWAP1 SLOAD SWAP1 PUSH2 0x100 EXP SWAP1 DIV PUSH1 0xFF AND ISZERO DUP1 PUSH2 0xE0E JUMPI POP PUSH0 PUSH1 0x1 SWAP1 SLOAD SWAP1 PUSH2 0x100 EXP SWAP1 DIV PUSH1 0xFF AND JUMPDEST PUSH2 0xE4D JUMPI PUSH1 0x40 MLOAD PUSH32 0x8C379A000000000000000000000000000000000000000000000000000000000 DUP2 MSTORE PUSH1 0x4 ADD PUSH2 0xE44 SWAP1 PUSH2 0x3685 JUMP JUMPDEST PUSH1 0x40 MLOAD DUP1 SWAP2 SUB SWAP1 REVERT JUMPDEST PUSH0 PUSH0 PUSH1 0x1 SWAP1 SLOAD SWAP1 PUSH2 0x100 EXP SWAP1 DIV PUSH1 0xFF AND ISZERO SWAP1 POP DUP1 ISZERO PUSH2 0xE9A JUMPI PUSH1 0x1 PUSH0 PUSH1 0x1 PUSH2 0x100 EXP DUP2 SLOAD DUP2 PUSH1 0xFF MUL NOT AND SWAP1 DUP4 ISZERO ISZERO MUL OR SWAP1 SSTORE POP PUSH1 0x1 PUSH0 PUSH0 PUSH2 0x100 EXP DUP2 SLOAD DUP2 PUSH1 0xFF MUL NOT AND SWAP1 DUP4 ISZERO ISZERO MUL OR SWAP1 SSTORE POP JUMPDEST PUSH2 0xEA3 DUP12 PUSH2 0x24EC JUMP JUMPDEST PUSH2 0xF34 DUP11 DUP9 DUP9 DUP1 DUP1 PUSH1 0x1F ADD PUSH1 0x20 DUP1 SWAP2 DIV MUL PUSH1 0x20 ADD PUSH1 0x40 MLOAD SWAP1 DUP2 ADD PUSH1 0x40 MSTORE DUP1 SWAP4 SWAP3 SWAP2 SWAP1 DUP2 DUP2 MSTORE PUSH1 0x20 ADD DUP4 DUP4 DUP1 DUP3 DUP5 CALLDATACOPY PUSH0 DUP2 DUP5 ADD MSTORE PUSH1 0x1F NOT PUSH1 0x1F DUP3 ADD AND SWAP1 POP DUP1 DUP4 ADD SWAP3 POP POP POP POP POP POP POP DUP8 DUP8 DUP1 DUP1 PUSH1 0x1F ADD PUSH1 0x20 DUP1 SWAP2 DIV MUL PUSH1 0x20 ADD PUSH1 0x40 MLOAD SWAP1 DUP2 ADD PUSH1 0x40 MSTORE DUP1 SWAP4 SWAP3 SWAP2 SWAP1 DUP2 DUP2 MSTORE PUSH1 0x20 ADD DUP4 DUP4 DUP1 DUP3 DUP5 CALLDATACOPY PUSH0 DUP2 DUP5 ADD MSTORE PUSH1 0x1F NOT PUSH1 0x1F DUP3 ADD AND SWAP1 POP DUP1 DUP4 ADD SWAP3 POP POP POP POP POP POP POP PUSH2 0x2566 JUMP JUMPDEST DUP9 DUP9 PUSH1 0x8 SWAP2 DUP3 PUSH2 0xF45 SWAP3 SWAP2 SWAP1 PUSH2 0x387A JUMP JUMPDEST POP DUP3 PUSH1 0x9 DUP2 SWAP1 SSTORE POP DUP2 PUSH1 0xA DUP2 SWAP1 SSTORE POP DUP1 ISZERO PUSH2 0xF74 JUMPI PUSH0 PUSH0 PUSH1 0x1 PUSH2 0x100 EXP DUP2 SLOAD DUP2 PUSH1 0xFF MUL NOT AND SWAP1 DUP4 ISZERO ISZERO MUL OR SWAP1 SSTORE POP JUMPDEST POP POP POP POP POP POP POP POP POP POP POP JUMP JUMPDEST PUSH1 0xA SLOAD DUP2 JUMP JUMPDEST PUSH1 0x8 DUP1 SLOAD PUSH2 0xF94 SWAP1 PUSH2 0x3402 JUMP JUMPDEST DUP1 PUSH1 0x1F ADD PUSH1 0x20 DUP1 SWAP2 DIV MUL PUSH1 0x20 ADD PUSH1 0x40 MLOAD SWAP1 DUP2 ADD PUSH1 0x40 MSTORE DUP1 SWAP3 SWAP2 SWAP1 DUP2 DUP2 MSTORE PUSH1 0x20 ADD DUP3 DUP1 SLOAD PUSH2 0xFC0 SWAP1 PUSH2 0x3402 JUMP JUMPDEST DUP1 ISZERO PUSH2 0x100B JUMPI DUP1 PUSH1 0x1F LT PUSH2 0xFE2 JUMPI PUSH2 0x100 DUP1 DUP4 SLOAD DIV MUL DUP4 MSTORE SWAP2 PUSH1 0x20 ADD SWAP2 PUSH2 0x100B JUMP JUMPDEST DUP3 ADD SWAP2 SWAP1 PUSH0 MSTORE PUSH1 0x20 PUSH0 KECCAK256 SWAP1 JUMPDEST DUP2 SLOAD DUP2 MSTORE SWAP1 PUSH1 0x1 ADD SWAP1 PUSH1 0x20 ADD DUP1 DUP4 GT PUSH2 0xFEE JUMPI DUP3 SWAP1 SUB PUSH1 0x1F AND DUP3 ADD SWAP2 JUMPDEST POP POP POP POP POP DUP2 JUMP JUMPDEST PUSH32 0x0 PUSH20 0xFFFFFFFFFFFFFFFFFFFFFFFFFFFFFFFFFFFFFFFF AND ADDRESS PUSH20 0xFFFFFFFFFFFFFFFFFFFFFFFFFFFFFFFFFFFFFFFF AND SUB PUSH2 0x10A1 JUMPI PUSH1 0x40 MLOAD PUSH32 0x8C379A000000000000000000000000000000000000000000000000000000000 DUP2 MSTORE PUSH1 0x4 ADD PUSH2 0x1098 SWAP1 PUSH2 0x35B5 JUMP JUMPDEST PUSH1 0x40 MLOAD DUP1 SWAP2 SUB SWAP1 REVERT JUMPDEST PUSH32 0x0 PUSH20 0xFFFFFFFFFFFFFFFFFFFFFFFFFFFFFFFFFFFFFFFF AND PUSH2 0x10E0 PUSH2 0x2325 JUMP JUMPDEST PUSH20 0xFFFFFFFFFFFFFFFFFFFFFFFFFFFFFFFFFFFFFFFF AND EQ PUSH2 0x1136 JUMPI PUSH1 0x40 MLOAD PUSH32 0x8C379A000000000000000000000000000000000000000000000000000000000 DUP2 MSTORE PUSH1 0x4 ADD PUSH2 0x112D SWAP1 PUSH2 0x361D JUMP JUMPDEST PUSH1 0x40 MLOAD DUP1 SWAP2 SUB SWAP1 REVERT JUMPDEST PUSH2 0x113F DUP4 PUSH2 0x2354 JUMP JUMPDEST PUSH2 0x118E DUP4 DUP4 DUP4 DUP1 DUP1 PUSH1 0x1F ADD PUSH1 0x20 DUP1 SWAP2 DIV MUL PUSH1 0x20 ADD PUSH1 0x40 MLOAD SWAP1 DUP2 ADD PUSH1 0x40 MSTORE DUP1 SWAP4 SWAP3 SWAP2 SWAP1 DUP2 DUP2 MSTORE PUSH1 0x20 ADD DUP4 DUP4 DUP1 DUP3 DUP5 CALLDATACOPY PUSH0 DUP2 DUP5 ADD MSTORE PUSH1 0x1F NOT PUSH1 0x1F DUP3 ADD AND SWAP1 POP DUP1 DUP4 ADD SWAP3 POP POP POP POP POP POP POP PUSH1 0x1 PUSH2 0x23AF JUMP JUMPDEST POP POP POP JUMP JUMPDEST PUSH0 PUSH32 0x0 PUSH20 0xFFFFFFFFFFFFFFFFFFFFFFFFFFFFFFFFFFFFFFFF AND ADDRESS PUSH20 0xFFFFFFFFFFFFFFFFFFFFFFFFFFFFFFFFFFFFFFFF AND EQ PUSH2 0x1222 JUMPI PUSH1 0x40 MLOAD PUSH32 0x8C379A000000000000000000000000000000000000000000000000000000000 DUP2 MSTORE PUSH1 0x4 ADD PUSH2 0x1219 SWAP1 PUSH2 0x3991 JUMP JUMPDEST PUSH1 0x40 MLOAD DUP1 SWAP2 SUB SWAP1 REVERT JUMPDEST PUSH32 0x360894A13BA1A3210667C828492DB98DCA3E2076CC3735A920A3CA505D382BBC PUSH0 SHL SWAP1 POP SWAP1 JUMP JUMPDEST PUSH0 PUSH1 0x2 SWAP1 SLOAD SWAP1 PUSH2 0x100 EXP SWAP1 DIV PUSH20 0xFFFFFFFFFFFFFFFFFFFFFFFFFFFFFFFFFFFFFFFF AND PUSH20 0xFFFFFFFFFFFFFFFFFFFFFFFFFFFFFFFFFFFFFFFF AND CALLER PUSH20 0xFFFFFFFFFFFFFFFFFFFFFFFFFFFFFFFFFFFFFFFF AND EQ PUSH2 0x12A2 JUMPI PUSH0 PUSH0 REVERT JUMPDEST PUSH1 0xC PUSH0 DUP4 PUSH20 0xFFFFFFFFFFFFFFFFFFFFFFFFFFFFFFFFFFFFFFFF AND PUSH20 0xFFFFFFFFFFFFFFFFFFFFFFFFFFFFFFFFFFFFFFFF AND DUP2 MSTORE PUSH1 0x20 ADD SWAP1 DUP2 MSTORE PUSH1 0x20 ADD PUSH0 KECCAK256 PUSH0 SWAP1 SLOAD SWAP1 PUSH2 0x100 EXP SWAP1 DIV PUSH1 0xFF AND PUSH2 0x132B JUMPI PUSH1 0x40 MLOAD PUSH32 0x8C379A000000000000000000000000000000000000000000000000000000000 DUP2 MSTORE PUSH1 0x4 ADD PUSH2 0x1322 SWAP1 PUSH2 0x39F9 JUMP JUMPDEST PUSH1 0x40 MLOAD DUP1 SWAP2 SUB SWAP1 REVERT JUMPDEST PUSH2 0x1333 PUSH2 0x168D JUMP JUMPDEST DUP2 GT ISZERO PUSH2 0x1375 JUMPI PUSH1 0x40 MLOAD PUSH32 0x8C379A000000000000000000000000000000000000000000000000000000000 DUP2 MSTORE PUSH1 0x4 ADD PUSH2 0x136C SWAP1 PUSH2 0x3A61 JUMP JUMPDEST PUSH1 0x40 MLOAD DUP1 SWAP2 SUB SWAP1 REVERT JUMPDEST PUSH2 0x137D PUSH2 0xDBB JUMP JUMPDEST PUSH20 0xFFFFFFFFFFFFFFFFFFFFFFFFFFFFFFFFFFFFFFFF AND PUSH4 0xA9059CBB DUP4 DUP4 PUSH1 0x40 MLOAD DUP4 PUSH4 0xFFFFFFFF AND PUSH1 0xE0 SHL DUP2 MSTORE PUSH1 0x4 ADD PUSH2 0x13B7 SWAP3 SWAP2 SWAP1 PUSH2 0x3A7F JUMP JUMPDEST PUSH1 0x20 PUSH1 0x40 MLOAD DUP1 DUP4 SUB DUP2 PUSH0 DUP8 GAS CALL ISZERO DUP1 ISZERO PUSH2 0x13D3 JUMPI RETURNDATASIZE PUSH0 PUSH0 RETURNDATACOPY RETURNDATASIZE PUSH0 REVERT JUMPDEST POP POP POP POP PUSH1 0x40 MLOAD RETURNDATASIZE PUSH1 0x1F NOT PUSH1 0x1F DUP3 ADD AND DUP3 ADD DUP1 PUSH1 0x40 MSTORE POP DUP2 ADD SWAP1 PUSH2 0x13F7 SWAP2 SWAP1 PUSH2 0x3AD0 JUMP JUMPDEST POP DUP2 PUSH20 0xFFFFFFFFFFFFFFFFFFFFFFFFFFFFFFFFFFFFFFFF AND PUSH4 0x4B92917A DUP3 PUSH1 0x40 MLOAD DUP3 PUSH4 0xFFFFFFFF AND PUSH1 0xE0 SHL DUP2 MSTORE PUSH1 0x4 ADD PUSH2 0x1431 SWAP2 SWAP1 PUSH2 0x2D88 JUMP JUMPDEST PUSH0 PUSH1 0x40 MLOAD DUP1 DUP4 SUB DUP2 PUSH0 DUP8 DUP1 EXTCODESIZE ISZERO DUP1 ISZERO PUSH2 0x1448 JUMPI PUSH0 PUSH0 REVERT JUMPDEST POP GAS CALL ISZERO DUP1 ISZERO PUSH2 0x145A JUMPI RETURNDATASIZE PUSH0 PUSH0 RETURNDATACOPY RETURNDATASIZE PUSH0 REVERT JUMPDEST POP POP POP POP POP POP JUMP JUMPDEST PUSH0 PUSH1 0x2 SWAP1 SLOAD SWAP1 PUSH2 0x100 EXP SWAP1 DIV PUSH20 0xFFFFFFFFFFFFFFFFFFFFFFFFFFFFFFFFFFFFFFFF AND PUSH20 0xFFFFFFFFFFFFFFFFFFFFFFFFFFFFFFFFFFFFFFFF AND CALLER PUSH20 0xFFFFFFFFFFFFFFFFFFFFFFFFFFFFFFFFFFFFFFFF AND EQ PUSH2 0x14BA JUMPI PUSH0 PUSH0 REVERT JUMPDEST PUSH1 0xC PUSH0 DUP4 PUSH20 0xFFFFFFFFFFFFFFFFFFFFFFFFFFFFFFFFFFFFFFFF AND PUSH20 0xFFFFFFFFFFFFFFFFFFFFFFFFFFFFFFFFFFFFFFFF AND DUP2 MSTORE PUSH1 0x20 ADD SWAP1 DUP2 MSTORE PUSH1 0x20 ADD PUSH0 KECCAK256 PUSH0 SWAP1 SLOAD SWAP1 PUSH2 0x100 EXP SWAP1 DIV PUSH1 0xFF AND PUSH2 0x1543 JUMPI PUSH1 0x40 MLOAD PUSH32 0x8C379A000000000000000000000000000000000000000000000000000000000 DUP2 MSTORE PUSH1 0x4 ADD PUSH2 0x153A SWAP1 PUSH2 0x39F9 JUMP JUMPDEST PUSH1 0x40 MLOAD DUP1 SWAP2 SUB SWAP1 REVERT JUMPDEST DUP2 PUSH20 0xFFFFFFFFFFFFFFFFFFFFFFFFFFFFFFFFFFFFFFFF AND PUSH4 0x3E3722B6 DUP3 PUSH1 0x40 MLOAD DUP3 PUSH4 0xFFFFFFFF AND PUSH1 0xE0 SHL DUP2 MSTORE PUSH1 0x4 ADD PUSH2 0x157C SWAP2 SWAP1 PUSH2 0x2D88 JUMP JUMPDEST PUSH0 PUSH1 0x40 MLOAD DUP1 DUP4 SUB DUP2 PUSH0 DUP8 DUP1 EXTCODESIZE ISZERO DUP1 ISZERO PUSH2 0x1593 JUMPI PUSH0 PUSH0 REVERT JUMPDEST POP GAS CALL ISZERO DUP1 ISZERO PUSH2 0x15A5 JUMPI RETURNDATASIZE PUSH0 PUSH0 RETURNDATACOPY RETURNDATASIZE PUSH0 REVERT JUMPDEST POP POP POP POP POP POP JUMP JUMPDEST PUSH0 PUSH1 0xA SLOAD DUP4 LT ISZERO PUSH2 0x15F3 JUMPI PUSH1 0x40 MLOAD PUSH32 0x8C379A000000000000000000000000000000000000000000000000000000000 DUP2 MSTORE PUSH1 0x4 ADD PUSH2 0x15EA SWAP1 PUSH2 0x3B45 JUMP JUMPDEST PUSH1 0x40 MLOAD DUP1 SWAP2 SUB SWAP1 REVERT JUMPDEST PUSH2 0x15FD DUP4 DUP4 PUSH2 0x2625 JUMP JUMPDEST SWAP1 POP SWAP3 SWAP2 POP POP JUMP JUMPDEST PUSH1 0xC PUSH1 0x20 MSTORE DUP1 PUSH0 MSTORE PUSH1 0x40 PUSH0 KECCAK256 PUSH0 SWAP2 POP SLOAD SWAP1 PUSH2 0x100 EXP SWAP1 DIV PUSH1 0xFF AND DUP2 JUMP JUMPDEST PUSH0 PUSH1 0x5 PUSH0 DUP4 PUSH20 0xFFFFFFFFFFFFFFFFFFFFFFFFFFFFFFFFFFFFFFFF AND PUSH20 0xFFFFFFFFFFFFFFFFFFFFFFFFFFFFFFFFFFFFFFFF AND DUP2 MSTORE PUSH1 0x20 ADD SWAP1 DUP2 MSTORE PUSH1 0x20 ADD PUSH0 KECCAK256 SLOAD SWAP1 POP SWAP2 SWAP1 POP JUMP JUMPDEST PUSH0 PUSH1 0x2 SWAP1 SLOAD SWAP1 PUSH2 0x100 EXP SWAP1 DIV PUSH20 0xFFFFFFFFFFFFFFFFFFFFFFFFFFFFFFFFFFFFFFFF AND DUP2 JUMP JUMPDEST PUSH0 PUSH2 0x1696 PUSH2 0xDBB JUMP JUMPDEST PUSH20 0xFFFFFFFFFFFFFFFFFFFFFFFFFFFFFFFFFFFFFFFF AND PUSH4 0x70A08231 ADDRESS PUSH1 0x40 MLOAD DUP3 PUSH4 0xFFFFFFFF AND PUSH1 0xE0 SHL DUP2 MSTORE PUSH1 0x4 ADD PUSH2 0x16CE SWAP2 SWAP1 PUSH2 0x2FE3 JUMP JUMPDEST PUSH1 0x20 PUSH1 0x40 MLOAD DUP1 DUP4 SUB DUP2 DUP7 GAS STATICCALL ISZERO DUP1 ISZERO PUSH2 0x16E9 JUMPI RETURNDATASIZE PUSH0 PUSH0 RETURNDATACOPY RETURNDATASIZE PUSH0 REVERT JUMPDEST POP POP POP POP PUSH1 0x40 MLOAD RETURNDATASIZE PUSH1 0x1F NOT PUSH1 0x1F DUP3 ADD AND DUP3 ADD DUP1 PUSH1 0x40 MSTORE POP DUP2 ADD SWAP1 PUSH2 0x170D SWAP2 SWAP1 PUSH2 0x331D JUMP JUMPDEST SWAP1 POP SWAP1 JUMP JUMPDEST PUSH0 PUSH1 0x2 SWAP1 SLOAD SWAP1 PUSH2 0x100 EXP SWAP1 DIV PUSH20 0xFFFFFFFFFFFFFFFFFFFFFFFFFFFFFFFFFFFFFFFF AND PUSH20 0xFFFFFFFFFFFFFFFFFFFFFFFFFFFFFFFFFFFFFFFF AND CALLER PUSH20 0xFFFFFFFFFFFFFFFFFFFFFFFFFFFFFFFFFFFFFFFF AND EQ PUSH2 0x176A JUMPI PUSH0 PUSH0 REVERT JUMPDEST PUSH0 PUSH20 0xFFFFFFFFFFFFFFFFFFFFFFFFFFFFFFFFFFFFFFFF AND DUP2 PUSH20 0xFFFFFFFFFFFFFFFFFFFFFFFFFFFFFFFFFFFFFFFF AND SUB PUSH2 0x17D8 JUMPI PUSH1 0x40 MLOAD PUSH32 0x8C379A000000000000000000000000000000000000000000000000000000000 DUP2 MSTORE PUSH1 0x4 ADD PUSH2 0x17CF SWAP1 PUSH2 0x3BAD JUMP JUMPDEST PUSH1 0x40 MLOAD DUP1 SWAP2 SUB SWAP1 REVERT JUMPDEST PUSH1 0xC PUSH0 DUP3 PUSH20 0xFFFFFFFFFFFFFFFFFFFFFFFFFFFFFFFFFFFFFFFF AND PUSH20 0xFFFFFFFFFFFFFFFFFFFFFFFFFFFFFFFFFFFFFFFF AND DUP2 MSTORE PUSH1 0x20 ADD SWAP1 DUP2 MSTORE PUSH1 0x20 ADD PUSH0 KECCAK256 PUSH0 SWAP1 SLOAD SWAP1 PUSH2 0x100 EXP SWAP1 DIV PUSH1 0xFF AND ISZERO PUSH2 0x1862 JUMPI PUSH1 0x40 MLOAD PUSH32 0x8C379A000000000000000000000000000000000000000000000000000000000 DUP2 MSTORE PUSH1 0x4 ADD PUSH2 0x1859 SWAP1 PUSH2 0x3C15 JUMP JUMPDEST PUSH1 0x40 MLOAD DUP1 SWAP2 SUB SWAP1 REVERT JUMPDEST PUSH1 0x1 PUSH1 0xC PUSH0 DUP4 PUSH20 0xFFFFFFFFFFFFFFFFFFFFFFFFFFFFFFFFFFFFFFFF AND PUSH20 0xFFFFFFFFFFFFFFFFFFFFFFFFFFFFFFFFFFFFFFFF AND DUP2 MSTORE PUSH1 0x20 ADD SWAP1 DUP2 MSTORE PUSH1 0x20 ADD PUSH0 KECCAK256 PUSH0 PUSH2 0x100 EXP DUP2 SLOAD DUP2 PUSH1 0xFF MUL NOT AND SWAP1 DUP4 ISZERO ISZERO MUL OR SWAP1 SSTORE POP PUSH1 0xB DUP2 SWAP1 DUP1 PUSH1 0x1 DUP2 SLOAD ADD DUP1 DUP3 SSTORE DUP1 SWAP2 POP POP PUSH1 0x1 SWAP1 SUB SWAP1 PUSH0 MSTORE PUSH1 0x20 PUSH0 KECCAK256 ADD PUSH0 SWAP1 SWAP2 SWAP1 SWAP2 SWAP1 SWAP2 PUSH2 0x100 EXP DUP2 SLOAD DUP2 PUSH20 0xFFFFFFFFFFFFFFFFFFFFFFFFFFFFFFFFFFFFFFFF MUL NOT AND SWAP1 DUP4 PUSH20 0xFFFFFFFFFFFFFFFFFFFFFFFFFFFFFFFFFFFFFFFF AND MUL OR SWAP1 SSTORE POP POP JUMP JUMPDEST PUSH0 PUSH0 DUP4 GT PUSH2 0x195D JUMPI PUSH1 0x40 MLOAD PUSH32 0x8C379A000000000000000000000000000000000000000000000000000000000 DUP2 MSTORE PUSH1 0x4 ADD PUSH2 0x1954 SWAP1 PUSH2 0x3C7D JUMP JUMPDEST PUSH1 0x40 MLOAD DUP1 SWAP2 SUB SWAP1 REVERT JUMPDEST PUSH2 0x1966 DUP4 PUSH2 0xA6E JUMP JUMPDEST SWAP1 POP PUSH0 DUP2 GT PUSH2 0x19AA JUMPI PUSH1 0x40 MLOAD PUSH32 0x8C379A000000000000000000000000000000000000000000000000000000000 DUP2 MSTORE PUSH1 0x4 ADD PUSH2 0x19A1 SWAP1 PUSH2 0x3CE5 JUMP JUMPDEST PUSH1 0x40 MLOAD DUP1 SWAP2 SUB SWAP1 REVERT JUMPDEST PUSH1 0x7 PUSH0 SWAP1 SLOAD SWAP1 PUSH2 0x100 EXP SWAP1 DIV PUSH20 0xFFFFFFFFFFFFFFFFFFFFFFFFFFFFFFFFFFFFFFFF AND PUSH20 0xFFFFFFFFFFFFFFFFFFFFFFFFFFFFFFFFFFFFFFFF AND PUSH4 0x23B872DD CALLER ADDRESS DUP5 PUSH1 0x40 MLOAD DUP5 PUSH4 0xFFFFFFFF AND PUSH1 0xE0 SHL DUP2 MSTORE PUSH1 0x4 ADD PUSH2 0x1A08 SWAP4 SWAP3 SWAP2 SWAP1 PUSH2 0x3D03 JUMP JUMPDEST PUSH1 0x20 PUSH1 0x40 MLOAD DUP1 DUP4 SUB DUP2 PUSH0 DUP8 GAS CALL ISZERO DUP1 ISZERO PUSH2 0x1A24 JUMPI RETURNDATASIZE PUSH0 PUSH0 RETURNDATACOPY RETURNDATASIZE PUSH0 REVERT JUMPDEST POP POP POP POP PUSH1 0x40 MLOAD RETURNDATASIZE PUSH1 0x1F NOT PUSH1 0x1F DUP3 ADD AND DUP3 ADD DUP1 PUSH1 0x40 MSTORE POP DUP2 ADD SWAP1 PUSH2 0x1A48 SWAP2 SWAP1 PUSH2 0x3AD0 JUMP JUMPDEST POP PUSH2 0x1A53 DUP3 DUP5 PUSH2 0x27CB JUMP JUMPDEST DUP2 PUSH20 0xFFFFFFFFFFFFFFFFFFFFFFFFFFFFFFFFFFFFFFFF AND CALLER PUSH20 0xFFFFFFFFFFFFFFFFFFFFFFFFFFFFFFFFFFFFFFFF AND PUSH32 0xDCBC1C05240F31FF3AD067EF1EE35CE4997762752E3A095284754544F4C709D7 DUP4 DUP7 PUSH1 0x40 MLOAD PUSH2 0x1AB2 SWAP3 SWAP2 SWAP1 PUSH2 0x3D38 JUMP JUMPDEST PUSH1 0x40 MLOAD DUP1 SWAP2 SUB SWAP1 LOG3 SWAP3 SWAP2 POP POP JUMP JUMPDEST PUSH1 0x60 PUSH1 0x2 DUP1 SLOAD PUSH2 0x1ACF SWAP1 PUSH2 0x3402 JUMP JUMPDEST DUP1 PUSH1 0x1F ADD PUSH1 0x20 DUP1 SWAP2 DIV MUL PUSH1 0x20 ADD PUSH1 0x40 MLOAD SWAP1 DUP2 ADD PUSH1 0x40 MSTORE DUP1 SWAP3 SWAP2 SWAP1 DUP2 DUP2 MSTORE PUSH1 0x20 ADD DUP3 DUP1 SLOAD PUSH2 0x1AFB SWAP1 PUSH2 0x3402 JUMP JUMPDEST DUP1 ISZERO PUSH2 0x1B46 JUMPI DUP1 PUSH1 0x1F LT PUSH2 0x1B1D JUMPI PUSH2 0x100 DUP1 DUP4 SLOAD DIV MUL DUP4 MSTORE SWAP2 PUSH1 0x20 ADD SWAP2 PUSH2 0x1B46 JUMP JUMPDEST DUP3 ADD SWAP2 SWAP1 PUSH0 MSTORE PUSH1 0x20 PUSH0 KECCAK256 SWAP1 JUMPDEST DUP2 SLOAD DUP2 MSTORE SWAP1 PUSH1 0x1 ADD SWAP1 PUSH1 0x20 ADD DUP1 DUP4 GT PUSH2 0x1B29 JUMPI DUP3 SWAP1 SUB PUSH1 0x1F AND DUP3 ADD SWAP2 JUMPDEST POP POP POP POP POP SWAP1 POP SWAP1 JUMP JUMPDEST PUSH0 PUSH2 0x1B5C CALLER DUP5 DUP5 PUSH2 0x2131 JUMP JUMPDEST PUSH1 0x1 SWAP1 POP SWAP3 SWAP2 POP POP JUMP JUMPDEST PUSH1 0xB DUP2 DUP2 SLOAD DUP2 LT PUSH2 0x1B75 JUMPI PUSH0 DUP1 REVERT JUMPDEST SWAP1 PUSH0 MSTORE PUSH1 0x20 PUSH0 KECCAK256 ADD PUSH0 SWAP2 POP SLOAD SWAP1 PUSH2 0x100 EXP SWAP1 DIV PUSH20 0xFFFFFFFFFFFFFFFFFFFFFFFFFFFFFFFFFFFFFFFF AND DUP2 JUMP JUMPDEST PUSH0 PUSH2 0x1BAA PUSH2 0x168D JUMP JUMPDEST DUP5 GT ISZERO PUSH2 0x1BEC JUMPI PUSH1 0x40 MLOAD PUSH32 0x8C379A000000000000000000000000000000000000000000000000000000000 DUP2 MSTORE PUSH1 0x4 ADD PUSH2 0x1BE3 SWAP1 PUSH2 0x3A61 JUMP JUMPDEST PUSH1 0x40 MLOAD DUP1 SWAP2 SUB SWAP1 REVERT JUMPDEST PUSH2 0x1BF7 DUP5 DUP5 DUP5 PUSH2 0x290D JUMP JUMPDEST SWAP1 POP SWAP4 SWAP3 POP POP POP JUMP JUMPDEST PUSH0 PUSH0 DUP5 GT PUSH2 0x1C43 JUMPI PUSH1 0x40 MLOAD PUSH32 0x8C379A000000000000000000000000000000000000000000000000000000000 DUP2 MSTORE PUSH1 0x4 ADD PUSH2 0x1C3A SWAP1 PUSH2 0x3C7D JUMP JUMPDEST PUSH1 0x40 MLOAD DUP1 SWAP2 SUB SWAP1 REVERT JUMPDEST PUSH2 0x1C4C DUP5 PUSH2 0xA6E JUMP JUMPDEST SWAP1 POP CALLER PUSH20 0xFFFFFFFFFFFFFFFFFFFFFFFFFFFFFFFFFFFFFFFF AND DUP3 PUSH20 0xFFFFFFFFFFFFFFFFFFFFFFFFFFFFFFFFFFFFFFFF AND EQ PUSH2 0x1D11 JUMPI PUSH0 PUSH2 0x1C8C DUP4 CALLER PUSH2 0x1FC8 JUMP JUMPDEST SWAP1 POP DUP5 DUP2 LT ISZERO PUSH2 0x1CD1 JUMPI PUSH1 0x40 MLOAD PUSH32 0x8C379A000000000000000000000000000000000000000000000000000000000 DUP2 MSTORE PUSH1 0x4 ADD PUSH2 0x1CC8 SWAP1 PUSH2 0x351A JUMP JUMPDEST PUSH1 0x40 MLOAD DUP1 SWAP2 SUB SWAP1 REVERT JUMPDEST PUSH32 0xFFFFFFFFFFFFFFFFFFFFFFFFFFFFFFFFFFFFFFFFFFFFFFFFFFFFFFFFFFFFFFFF DUP2 EQ PUSH2 0x1D0F JUMPI PUSH2 0x1D0E DUP4 CALLER DUP8 DUP5 PUSH2 0x1D09 SWAP2 SWAP1 PUSH2 0x3538 JUMP JUMPDEST PUSH2 0x204A JUMP JUMPDEST JUMPDEST POP JUMPDEST PUSH2 0x1D1B DUP3 DUP6 PUSH2 0x2B6A JUMP JUMPDEST PUSH1 0x7 PUSH0 SWAP1 SLOAD SWAP1 PUSH2 0x100 EXP SWAP1 DIV PUSH20 0xFFFFFFFFFFFFFFFFFFFFFFFFFFFFFFFFFFFFFFFF AND PUSH20 0xFFFFFFFFFFFFFFFFFFFFFFFFFFFFFFFFFFFFFFFF AND PUSH4 0xA9059CBB DUP5 DUP4 PUSH1 0x40 MLOAD DUP4 PUSH4 0xFFFFFFFF AND PUSH1 0xE0 SHL DUP2 MSTORE PUSH1 0x4 ADD PUSH2 0x1D77 SWAP3 SWAP2 SWAP1 PUSH2 0x3A7F JUMP JUMPDEST PUSH1 0x20 PUSH1 0x40 MLOAD DUP1 DUP4 SUB DUP2 PUSH0 DUP8 GAS CALL ISZERO DUP1 ISZERO PUSH2 0x1D93 JUMPI RETURNDATASIZE PUSH0 PUSH0 RETURNDATACOPY RETURNDATASIZE PUSH0 REVERT JUMPDEST POP POP POP POP PUSH1 0x40 MLOAD RETURNDATASIZE PUSH1 0x1F NOT PUSH1 0x1F DUP3 ADD AND DUP3 ADD DUP1 PUSH1 0x40 MSTORE POP DUP2 ADD SWAP1 PUSH2 0x1DB7 SWAP2 SWAP1 PUSH2 0x3AD0 JUMP JUMPDEST POP DUP2 PUSH20 0xFFFFFFFFFFFFFFFFFFFFFFFFFFFFFFFFFFFFFFFF AND DUP4 PUSH20 0xFFFFFFFFFFFFFFFFFFFFFFFFFFFFFFFFFFFFFFFF AND CALLER PUSH20 0xFFFFFFFFFFFFFFFFFFFFFFFFFFFFFFFFFFFFFFFF AND PUSH32 0xFBDE797D201C681B91056529119E0B02407C7BB96A4A2C75C01FC9667232C8DB DUP5 DUP9 PUSH1 0x40 MLOAD PUSH2 0x1E2E SWAP3 SWAP2 SWAP1 PUSH2 0x3D38 JUMP JUMPDEST PUSH1 0x40 MLOAD DUP1 SWAP2 SUB SWAP1 LOG4 SWAP4 SWAP3 POP POP POP JUMP JUMPDEST PUSH0 PUSH0 ADDRESS PUSH20 0xFFFFFFFFFFFFFFFFFFFFFFFFFFFFFFFFFFFFFFFF AND PUSH4 0x18160DDD PUSH1 0x40 MLOAD DUP2 PUSH4 0xFFFFFFFF AND PUSH1 0xE0 SHL DUP2 MSTORE PUSH1 0x4 ADD PUSH1 0x20 PUSH1 0x40 MLOAD DUP1 DUP4 SUB DUP2 DUP7 GAS STATICCALL ISZERO DUP1 ISZERO PUSH2 0x1E88 JUMPI RETURNDATASIZE PUSH0 PUSH0 RETURNDATACOPY RETURNDATASIZE PUSH0 REVERT JUMPDEST POP POP POP POP PUSH1 0x40 MLOAD RETURNDATASIZE PUSH1 0x1F NOT PUSH1 0x1F DUP3 ADD AND DUP3 ADD DUP1 PUSH1 0x40 MSTORE POP DUP2 ADD SWAP1 PUSH2 0x1EAC SWAP2 SWAP1 PUSH2 0x331D JUMP JUMPDEST SWAP1 POP PUSH0 PUSH2 0x1EB7 PUSH2 0x7F6 JUMP JUMPDEST SWAP1 POP PUSH0 DUP3 EQ DUP1 PUSH2 0x1EC6 JUMPI POP PUSH0 DUP2 EQ JUMPDEST ISZERO PUSH2 0x1ED5 JUMPI DUP4 SWAP3 POP POP POP PUSH2 0x1EF1 JUMP JUMPDEST DUP1 DUP3 DUP6 PUSH2 0x1EE2 SWAP2 SWAP1 PUSH2 0x3432 JUMP JUMPDEST PUSH2 0x1EEC SWAP2 SWAP1 PUSH2 0x34A0 JUMP JUMPDEST SWAP3 POP POP POP JUMPDEST SWAP2 SWAP1 POP JUMP JUMPDEST PUSH0 PUSH1 0x2 SWAP1 SLOAD SWAP1 PUSH2 0x100 EXP SWAP1 DIV PUSH20 0xFFFFFFFFFFFFFFFFFFFFFFFFFFFFFFFFFFFFFFFF AND PUSH20 0xFFFFFFFFFFFFFFFFFFFFFFFFFFFFFFFFFFFFFFFF AND CALLER PUSH20 0xFFFFFFFFFFFFFFFFFFFFFFFFFFFFFFFFFFFFFFFF AND EQ PUSH2 0x1F4E JUMPI PUSH0 PUSH0 REVERT JUMPDEST PUSH0 PUSH20 0xFFFFFFFFFFFFFFFFFFFFFFFFFFFFFFFFFFFFFFFF AND DUP2 PUSH20 0xFFFFFFFFFFFFFFFFFFFFFFFFFFFFFFFFFFFFFFFF AND SUB PUSH2 0x1F85 JUMPI PUSH0 PUSH0 REVERT JUMPDEST DUP1 PUSH0 PUSH1 0x2 PUSH2 0x100 EXP DUP2 SLOAD DUP2 PUSH20 0xFFFFFFFFFFFFFFFFFFFFFFFFFFFFFFFFFFFFFFFF MUL NOT AND SWAP1 DUP4 PUSH20 0xFFFFFFFFFFFFFFFFFFFFFFFFFFFFFFFFFFFFFFFF AND MUL OR SWAP1 SSTORE POP POP JUMP JUMPDEST PUSH0 PUSH1 0x6 PUSH0 DUP5 PUSH20 0xFFFFFFFFFFFFFFFFFFFFFFFFFFFFFFFFFFFFFFFF AND PUSH20 0xFFFFFFFFFFFFFFFFFFFFFFFFFFFFFFFFFFFFFFFF AND DUP2 MSTORE PUSH1 0x20 ADD SWAP1 DUP2 MSTORE PUSH1 0x20 ADD PUSH0 KECCAK256 PUSH0 DUP4 PUSH20 0xFFFFFFFFFFFFFFFFFFFFFFFFFFFFFFFFFFFFFFFF AND PUSH20 0xFFFFFFFFFFFFFFFFFFFFFFFFFFFFFFFFFFFFFFFF AND DUP2 MSTORE PUSH1 0x20 ADD SWAP1 DUP2 MSTORE PUSH1 0x20 ADD PUSH0 KECCAK256 SLOAD SWAP1 POP SWAP3 SWAP2 POP POP JUMP JUMPDEST DUP1 PUSH1 0x6 PUSH0 DUP6 PUSH20 0xFFFFFFFFFFFFFFFFFFFFFFFFFFFFFFFFFFFFFFFF AND PUSH20 0xFFFFFFFFFFFFFFFFFFFFFFFFFFFFFFFFFFFFFFFF AND DUP2 MSTORE PUSH1 0x20 ADD SWAP1 DUP2 MSTORE PUSH1 0x20 ADD PUSH0 KECCAK256 PUSH0 DUP5 PUSH20 0xFFFFFFFFFFFFFFFFFFFFFFFFFFFFFFFFFFFFFFFF AND PUSH20 0xFFFFFFFFFFFFFFFFFFFFFFFFFFFFFFFFFFFFFFFF AND DUP2 MSTORE PUSH1 0x20 ADD SWAP1 DUP2 MSTORE PUSH1 0x20 ADD PUSH0 KECCAK256 DUP2 SWAP1 SSTORE POP DUP2 PUSH20 0xFFFFFFFFFFFFFFFFFFFFFFFFFFFFFFFFFFFFFFFF AND DUP4 PUSH20 0xFFFFFFFFFFFFFFFFFFFFFFFFFFFFFFFFFFFFFFFF AND PUSH32 0x8C5BE1E5EBEC7D5BD14F71427D1E84F3DD0314C0F7B2291E5B200AC8C7C3B925 DUP4 PUSH1 0x40 MLOAD PUSH2 0x2124 SWAP2 SWAP1 PUSH2 0x2D88 JUMP JUMPDEST PUSH1 0x40 MLOAD DUP1 SWAP2 SUB SWAP1 LOG3 POP POP POP JUMP JUMPDEST PUSH0 PUSH20 0xFFFFFFFFFFFFFFFFFFFFFFFFFFFFFFFFFFFFFFFF AND DUP3 PUSH20 0xFFFFFFFFFFFFFFFFFFFFFFFFFFFFFFFFFFFFFFFF AND SUB PUSH2 0x219F JUMPI PUSH1 0x40 MLOAD PUSH32 0x8C379A000000000000000000000000000000000000000000000000000000000 DUP2 MSTORE PUSH1 0x4 ADD PUSH2 0x2196 SWAP1 PUSH2 0x3DA9 JUMP JUMPDEST PUSH1 0x40 MLOAD DUP1 SWAP2 SUB SWAP1 REVERT JUMPDEST PUSH0 PUSH1 0x5 PUSH0 DUP6 PUSH20 0xFFFFFFFFFFFFFFFFFFFFFFFFFFFFFFFFFFFFFFFF AND PUSH20 0xFFFFFFFFFFFFFFFFFFFFFFFFFFFFFFFFFFFFFFFF AND DUP2 MSTORE PUSH1 0x20 ADD SWAP1 DUP2 MSTORE PUSH1 0x20 ADD PUSH0 KECCAK256 SLOAD SWAP1 POP DUP2 DUP2 LT ISZERO PUSH2 0x2223 JUMPI PUSH1 0x40 MLOAD PUSH32 0x8C379A000000000000000000000000000000000000000000000000000000000 DUP2 MSTORE PUSH1 0x4 ADD PUSH2 0x221A SWAP1 PUSH2 0x3E11 JUMP JUMPDEST PUSH1 0x40 MLOAD DUP1 SWAP2 SUB SWAP1 REVERT JUMPDEST DUP2 DUP2 SUB PUSH1 0x5 PUSH0 DUP7 PUSH20 0xFFFFFFFFFFFFFFFFFFFFFFFFFFFFFFFFFFFFFFFF AND PUSH20 0xFFFFFFFFFFFFFFFFFFFFFFFFFFFFFFFFFFFFFFFF AND DUP2 MSTORE PUSH1 0x20 ADD SWAP1 DUP2 MSTORE PUSH1 0x20 ADD PUSH0 KECCAK256 DUP2 SWAP1 SSTORE POP DUP2 PUSH1 0x5 PUSH0 DUP6 PUSH20 0xFFFFFFFFFFFFFFFFFFFFFFFFFFFFFFFFFFFFFFFF AND PUSH20 0xFFFFFFFFFFFFFFFFFFFFFFFFFFFFFFFFFFFFFFFF AND DUP2 MSTORE PUSH1 0x20 ADD SWAP1 DUP2 MSTORE PUSH1 0x20 ADD PUSH0 KECCAK256 PUSH0 DUP3 DUP3 SLOAD PUSH2 0x22B3 SWAP2 SWAP1 PUSH2 0x33A2 JUMP JUMPDEST SWAP3 POP POP DUP2 SWAP1 SSTORE POP DUP3 PUSH20 0xFFFFFFFFFFFFFFFFFFFFFFFFFFFFFFFFFFFFFFFF AND DUP5 PUSH20 0xFFFFFFFFFFFFFFFFFFFFFFFFFFFFFFFFFFFFFFFF AND PUSH32 0xDDF252AD1BE2C89B69C2B068FC378DAA952BA7F163C4A11628F55A4DF523B3EF DUP5 PUSH1 0x40 MLOAD PUSH2 0x2317 SWAP2 SWAP1 PUSH2 0x2D88 JUMP JUMPDEST PUSH1 0x40 MLOAD DUP1 SWAP2 SUB SWAP1 LOG3 POP POP POP POP JUMP JUMPDEST PUSH0 PUSH0 PUSH32 0x360894A13BA1A3210667C828492DB98DCA3E2076CC3735A920A3CA505D382BBC PUSH0 SHL SWAP1 POP DUP1 SLOAD SWAP2 POP POP SWAP1 JUMP JUMPDEST PUSH0 PUSH1 0x2 SWAP1 SLOAD SWAP1 PUSH2 0x100 EXP SWAP1 DIV PUSH20 0xFFFFFFFFFFFFFFFFFFFFFFFFFFFFFFFFFFFFFFFF AND PUSH20 0xFFFFFFFFFFFFFFFFFFFFFFFFFFFFFFFFFFFFFFFF AND CALLER PUSH20 0xFFFFFFFFFFFFFFFFFFFFFFFFFFFFFFFFFFFFFFFF AND EQ PUSH2 0x23AC JUMPI PUSH0 PUSH0 REVERT JUMPDEST POP JUMP JUMPDEST PUSH0 PUSH20 0xFFFFFFFFFFFFFFFFFFFFFFFFFFFFFFFFFFFFFFFF AND DUP4 PUSH20 0xFFFFFFFFFFFFFFFFFFFFFFFFFFFFFFFFFFFFFFFF AND SUB PUSH2 0x241D JUMPI PUSH1 0x40 MLOAD PUSH32 0x8C379A000000000000000000000000000000000000000000000000000000000 DUP2 MSTORE PUSH1 0x4 ADD PUSH2 0x2414 SWAP1 PUSH2 0x3E79 JUMP JUMPDEST PUSH1 0x40 MLOAD DUP1 SWAP2 SUB SWAP1 REVERT JUMPDEST PUSH2 0x2426 DUP4 PUSH2 0x2CB4 JUMP JUMPDEST DUP1 DUP1 PUSH2 0x2432 JUMPI POP PUSH0 DUP3 MLOAD GT JUMPDEST ISZERO PUSH2 0x24E7 JUMPI PUSH0 PUSH0 DUP5 PUSH20 0xFFFFFFFFFFFFFFFFFFFFFFFFFFFFFFFFFFFFFFFF AND DUP5 PUSH1 0x40 MLOAD PUSH2 0x245E SWAP2 SWAP1 PUSH2 0x3EDB JUMP JUMPDEST PUSH0 PUSH1 0x40 MLOAD DUP1 DUP4 SUB DUP2 DUP6 GAS DELEGATECALL SWAP2 POP POP RETURNDATASIZE DUP1 PUSH0 DUP2 EQ PUSH2 0x2496 JUMPI PUSH1 0x40 MLOAD SWAP2 POP PUSH1 0x1F NOT PUSH1 0x3F RETURNDATASIZE ADD AND DUP3 ADD PUSH1 0x40 MSTORE RETURNDATASIZE DUP3 MSTORE RETURNDATASIZE PUSH0 PUSH1 0x20 DUP5 ADD RETURNDATACOPY PUSH2 0x249B JUMP JUMPDEST PUSH1 0x60 SWAP2 POP JUMPDEST POP SWAP2 POP SWAP2 POP DUP2 DUP2 SWAP1 PUSH2 0x24E3 JUMPI PUSH1 0x40 MLOAD PUSH32 0x8C379A000000000000000000000000000000000000000000000000000000000 DUP2 MSTORE PUSH1 0x4 ADD PUSH2 0x24DA SWAP2 SWAP1 PUSH2 0x2E11 JUMP JUMPDEST PUSH1 0x40 MLOAD DUP1 SWAP2 SUB SWAP1 REVERT JUMPDEST POP POP POP JUMPDEST POP POP POP JUMP JUMPDEST PUSH0 PUSH20 0xFFFFFFFFFFFFFFFFFFFFFFFFFFFFFFFFFFFFFFFF AND DUP2 PUSH20 0xFFFFFFFFFFFFFFFFFFFFFFFFFFFFFFFFFFFFFFFF AND SUB PUSH2 0x2523 JUMPI PUSH0 PUSH0 REVERT JUMPDEST DUP1 PUSH0 PUSH1 0x2 PUSH2 0x100 EXP DUP2 SLOAD DUP2 PUSH20 0xFFFFFFFFFFFFFFFFFFFFFFFFFFFFFFFFFFFFFFFF MUL NOT AND SWAP1 DUP4 PUSH20 0xFFFFFFFFFFFFFFFFFFFFFFFFFFFFFFFFFFFFFFFF AND MUL OR SWAP1 SSTORE POP POP JUMP JUMPDEST PUSH0 PUSH20 0xFFFFFFFFFFFFFFFFFFFFFFFFFFFFFFFFFFFFFFFF AND DUP4 PUSH20 0xFFFFFFFFFFFFFFFFFFFFFFFFFFFFFFFFFFFFFFFF AND SUB PUSH2 0x25D4 JUMPI PUSH1 0x40 MLOAD PUSH32 0x8C379A000000000000000000000000000000000000000000000000000000000 DUP2 MSTORE PUSH1 0x4 ADD PUSH2 0x25CB SWAP1 PUSH2 0x3F3B JUMP JUMPDEST PUSH1 0x40 MLOAD DUP1 SWAP2 SUB SWAP1 REVERT JUMPDEST PUSH2 0x25E0 DUP3 DUP3 PUSH1 0x6 PUSH2 0x2CE1 JUMP JUMPDEST DUP3 PUSH1 0x7 PUSH0 PUSH2 0x100 EXP DUP2 SLOAD DUP2 PUSH20 0xFFFFFFFFFFFFFFFFFFFFFFFFFFFFFFFFFFFFFFFF MUL NOT AND SWAP1 DUP4 PUSH20 0xFFFFFFFFFFFFFFFFFFFFFFFFFFFFFFFFFFFFFFFF AND MUL OR SWAP1 SSTORE POP POP POP POP JUMP JUMPDEST PUSH0 PUSH0 DUP4 GT PUSH2 0x2668 JUMPI PUSH1 0x40 MLOAD PUSH32 0x8C379A000000000000000000000000000000000000000000000000000000000 DUP2 MSTORE PUSH1 0x4 ADD PUSH2 0x265F SWAP1 PUSH2 0x3CE5 JUMP JUMPDEST PUSH1 0x40 MLOAD DUP1 SWAP2 SUB SWAP1 REVERT JUMPDEST PUSH2 0x2671 DUP4 PUSH2 0x1E3D JUMP JUMPDEST SWAP1 POP PUSH0 DUP2 GT PUSH2 0x26B5 JUMPI PUSH1 0x40 MLOAD PUSH32 0x8C379A000000000000000000000000000000000000000000000000000000000 DUP2 MSTORE PUSH1 0x4 ADD PUSH2 0x26AC SWAP1 PUSH2 0x3C7D JUMP JUMPDEST PUSH1 0x40 MLOAD DUP1 SWAP2 SUB SWAP1 REVERT JUMPDEST PUSH1 0x7 PUSH0 SWAP1 SLOAD SWAP1 PUSH2 0x100 EXP SWAP1 DIV PUSH20 0xFFFFFFFFFFFFFFFFFFFFFFFFFFFFFFFFFFFFFFFF AND PUSH20 0xFFFFFFFFFFFFFFFFFFFFFFFFFFFFFFFFFFFFFFFF AND PUSH4 0x23B872DD CALLER ADDRESS DUP7 PUSH1 0x40 MLOAD DUP5 PUSH4 0xFFFFFFFF AND PUSH1 0xE0 SHL DUP2 MSTORE PUSH1 0x4 ADD PUSH2 0x2713 SWAP4 SWAP3 SWAP2 SWAP1 PUSH2 0x3D03 JUMP JUMPDEST PUSH1 0x20 PUSH1 0x40 MLOAD DUP1 DUP4 SUB DUP2 PUSH0 DUP8 GAS CALL ISZERO DUP1 ISZERO PUSH2 0x272F JUMPI RETURNDATASIZE PUSH0 PUSH0 RETURNDATACOPY RETURNDATASIZE PUSH0 REVERT JUMPDEST POP POP POP POP PUSH1 0x40 MLOAD RETURNDATASIZE PUSH1 0x1F NOT PUSH1 0x1F DUP3 ADD AND DUP3 ADD DUP1 PUSH1 0x40 MSTORE POP DUP2 ADD SWAP1 PUSH2 0x2753 SWAP2 SWAP1 PUSH2 0x3AD0 JUMP JUMPDEST POP PUSH2 0x275E DUP3 DUP3 PUSH2 0x27CB JUMP JUMPDEST DUP2 PUSH20 0xFFFFFFFFFFFFFFFFFFFFFFFFFFFFFFFFFFFFFFFF AND CALLER PUSH20 0xFFFFFFFFFFFFFFFFFFFFFFFFFFFFFFFFFFFFFFFF AND PUSH32 0xDCBC1C05240F31FF3AD067EF1EE35CE4997762752E3A095284754544F4C709D7 DUP6 DUP5 PUSH1 0x40 MLOAD PUSH2 0x27BD SWAP3 SWAP2 SWAP1 PUSH2 0x3D38 JUMP JUMPDEST PUSH1 0x40 MLOAD DUP1 SWAP2 SUB SWAP1 LOG3 SWAP3 SWAP2 POP POP JUMP JUMPDEST PUSH0 PUSH20 0xFFFFFFFFFFFFFFFFFFFFFFFFFFFFFFFFFFFFFFFF AND DUP3 PUSH20 0xFFFFFFFFFFFFFFFFFFFFFFFFFFFFFFFFFFFFFFFF AND SUB PUSH2 0x2839 JUMPI PUSH1 0x40 MLOAD PUSH32 0x8C379A000000000000000000000000000000000000000000000000000000000 DUP2 MSTORE PUSH1 0x4 ADD PUSH2 0x2830 SWAP1 PUSH2 0x3DA9 JUMP JUMPDEST PUSH1 0x40 MLOAD DUP1 SWAP2 SUB SWAP1 REVERT JUMPDEST DUP1 PUSH1 0x4 PUSH0 DUP3 DUP3 SLOAD PUSH2 0x284A SWAP2 SWAP1 PUSH2 0x33A2 JUMP JUMPDEST SWAP3 POP POP DUP2 SWAP1 SSTORE POP DUP1 PUSH1 0x5 PUSH0 DUP5 PUSH20 0xFFFFFFFFFFFFFFFFFFFFFFFFFFFFFFFFFFFFFFFF AND PUSH20 0xFFFFFFFFFFFFFFFFFFFFFFFFFFFFFFFFFFFFFFFF AND DUP2 MSTORE PUSH1 0x20 ADD SWAP1 DUP2 MSTORE PUSH1 0x20 ADD PUSH0 KECCAK256 PUSH0 DUP3 DUP3 SLOAD PUSH2 0x289D SWAP2 SWAP1 PUSH2 0x33A2 JUMP JUMPDEST SWAP3 POP POP DUP2 SWAP1 SSTORE POP DUP2 PUSH20 0xFFFFFFFFFFFFFFFFFFFFFFFFFFFFFFFFFFFFFFFF AND PUSH0 PUSH20 0xFFFFFFFFFFFFFFFFFFFFFFFFFFFFFFFFFFFFFFFF AND PUSH32 0xDDF252AD1BE2C89B69C2B068FC378DAA952BA7F163C4A11628F55A4DF523B3EF DUP4 PUSH1 0x40 MLOAD PUSH2 0x2901 SWAP2 SWAP1 PUSH2 0x2D88 JUMP JUMPDEST PUSH1 0x40 MLOAD DUP1 SWAP2 SUB SWAP1 LOG3 POP POP JUMP JUMPDEST PUSH0 PUSH0 DUP5 GT PUSH2 0x2950 JUMPI PUSH1 0x40 MLOAD PUSH32 0x8C379A000000000000000000000000000000000000000000000000000000000 DUP2 MSTORE PUSH1 0x4 ADD PUSH2 0x2947 SWAP1 PUSH2 0x3CE5 JUMP JUMPDEST PUSH1 0x40 MLOAD DUP1 SWAP2 SUB SWAP1 REVERT JUMPDEST PUSH2 0x2959 DUP5 PUSH2 0x1E3D JUMP JUMPDEST SWAP1 POP DUP4 PUSH2 0x2965 DUP3 PUSH2 0xA6E JUMP JUMPDEST LT ISZERO PUSH2 0x297B JUMPI PUSH1 0x1 DUP2 PUSH2 0x2978 SWAP2 SWAP1 PUSH2 0x33A2 JUMP JUMPDEST SWAP1 POP JUMPDEST CALLER PUSH20 0xFFFFFFFFFFFFFFFFFFFFFFFFFFFFFFFFFFFFFFFF AND DUP3 PUSH20 0xFFFFFFFFFFFFFFFFFFFFFFFFFFFFFFFFFFFFFFFF AND EQ PUSH2 0x2A3E JUMPI PUSH0 PUSH2 0x29B9 DUP4 CALLER PUSH2 0x1FC8 JUMP JUMPDEST SWAP1 POP DUP2 DUP2 LT ISZERO PUSH2 0x29FE JUMPI PUSH1 0x40 MLOAD PUSH32 0x8C379A000000000000000000000000000000000000000000000000000000000 DUP2 MSTORE PUSH1 0x4 ADD PUSH2 0x29F5 SWAP1 PUSH2 0x351A JUMP JUMPDEST PUSH1 0x40 MLOAD DUP1 SWAP2 SUB SWAP1 REVERT JUMPDEST PUSH32 0xFFFFFFFFFFFFFFFFFFFFFFFFFFFFFFFFFFFFFFFFFFFFFFFFFFFFFFFFFFFFFFFF DUP2 EQ PUSH2 0x2A3C JUMPI PUSH2 0x2A3B DUP4 CALLER DUP5 DUP5 PUSH2 0x2A36 SWAP2 SWAP1 PUSH2 0x3538 JUMP JUMPDEST PUSH2 0x204A JUMP JUMPDEST JUMPDEST POP JUMPDEST PUSH2 0x2A48 DUP3 DUP3 PUSH2 0x2B6A JUMP JUMPDEST PUSH1 0x7 PUSH0 SWAP1 SLOAD SWAP1 PUSH2 0x100 EXP SWAP1 DIV PUSH20 0xFFFFFFFFFFFFFFFFFFFFFFFFFFFFFFFFFFFFFFFF AND PUSH20 0xFFFFFFFFFFFFFFFFFFFFFFFFFFFFFFFFFFFFFFFF AND PUSH4 0xA9059CBB DUP5 DUP7 PUSH1 0x40 MLOAD DUP4 PUSH4 0xFFFFFFFF AND PUSH1 0xE0 SHL DUP2 MSTORE PUSH1 0x4 ADD PUSH2 0x2AA4 SWAP3 SWAP2 SWAP1 PUSH2 0x3A7F JUMP JUMPDEST PUSH1 0x20 PUSH1 0x40 MLOAD DUP1 DUP4 SUB DUP2 PUSH0 DUP8 GAS CALL ISZERO DUP1 ISZERO PUSH2 0x2AC0 JUMPI RETURNDATASIZE PUSH0 PUSH0 RETURNDATACOPY RETURNDATASIZE PUSH0 REVERT JUMPDEST POP POP POP POP PUSH1 0x40 MLOAD RETURNDATASIZE PUSH1 0x1F NOT PUSH1 0x1F DUP3 ADD AND DUP3 ADD DUP1 PUSH1 0x40 MSTORE POP DUP2 ADD SWAP1 PUSH2 0x2AE4 SWAP2 SWAP1 PUSH2 0x3AD0 JUMP JUMPDEST POP DUP2 PUSH20 0xFFFFFFFFFFFFFFFFFFFFFFFFFFFFFFFFFFFFFFFF AND DUP4 PUSH20 0xFFFFFFFFFFFFFFFFFFFFFFFFFFFFFFFFFFFFFFFF AND CALLER PUSH20 0xFFFFFFFFFFFFFFFFFFFFFFFFFFFFFFFFFFFFFFFF AND PUSH32 0xFBDE797D201C681B91056529119E0B02407C7BB96A4A2C75C01FC9667232C8DB DUP8 DUP6 PUSH1 0x40 MLOAD PUSH2 0x2B5B SWAP3 SWAP2 SWAP1 PUSH2 0x3D38 JUMP JUMPDEST PUSH1 0x40 MLOAD DUP1 SWAP2 SUB SWAP1 LOG4 SWAP4 SWAP3 POP POP POP JUMP JUMPDEST PUSH0 PUSH1 0x5 PUSH0 DUP5 PUSH20 0xFFFFFFFFFFFFFFFFFFFFFFFFFFFFFFFFFFFFFFFF AND PUSH20 0xFFFFFFFFFFFFFFFFFFFFFFFFFFFFFFFFFFFFFFFF AND DUP2 MSTORE PUSH1 0x20 ADD SWAP1 DUP2 MSTORE PUSH1 0x20 ADD PUSH0 KECCAK256 SLOAD SWAP1 POP DUP2 DUP2 LT ISZERO PUSH2 0x2BEE JUMPI PUSH1 0x40 MLOAD PUSH32 0x8C379A000000000000000000000000000000000000000000000000000000000 DUP2 MSTORE PUSH1 0x4 ADD PUSH2 0x2BE5 SWAP1 PUSH2 0x3E11 JUMP JUMPDEST PUSH1 0x40 MLOAD DUP1 SWAP2 SUB SWAP1 REVERT JUMPDEST DUP2 DUP2 SUB PUSH1 0x5 PUSH0 DUP6 PUSH20 0xFFFFFFFFFFFFFFFFFFFFFFFFFFFFFFFFFFFFFFFF AND PUSH20 0xFFFFFFFFFFFFFFFFFFFFFFFFFFFFFFFFFFFFFFFF AND DUP2 MSTORE PUSH1 0x20 ADD SWAP1 DUP2 MSTORE PUSH1 0x20 ADD PUSH0 KECCAK256 DUP2 SWAP1 SSTORE POP DUP2 PUSH1 0x4 PUSH0 DUP3 DUP3 SLOAD PUSH2 0x2C43 SWAP2 SWAP1 PUSH2 0x3538 JUMP JUMPDEST SWAP3 POP POP DUP2 SWAP1 SSTORE POP PUSH0 PUSH20 0xFFFFFFFFFFFFFFFFFFFFFFFFFFFFFFFFFFFFFFFF AND DUP4 PUSH20 0xFFFFFFFFFFFFFFFFFFFFFFFFFFFFFFFFFFFFFFFF AND PUSH32 0xDDF252AD1BE2C89B69C2B068FC378DAA952BA7F163C4A11628F55A4DF523B3EF DUP5 PUSH1 0x40 MLOAD PUSH2 0x2CA7 SWAP2 SWAP1 PUSH2 0x2D88 JUMP JUMPDEST PUSH1 0x40 MLOAD DUP1 SWAP2 SUB SWAP1 LOG3 POP POP POP JUMP JUMPDEST PUSH0 PUSH32 0x360894A13BA1A3210667C828492DB98DCA3E2076CC3735A920A3CA505D382BBC PUSH0 SHL SWAP1 POP DUP2 DUP2 SSTORE POP POP JUMP JUMPDEST PUSH0 PUSH1 0x1 DUP1 SLOAD PUSH2 0x2CEF SWAP1 PUSH2 0x3402 JUMP JUMPDEST SWAP1 POP EQ PUSH2 0x2D31 JUMPI PUSH1 0x40 MLOAD PUSH32 0x8C379A000000000000000000000000000000000000000000000000000000000 DUP2 MSTORE PUSH1 0x4 ADD PUSH2 0x2D28 SWAP1 PUSH2 0x3685 JUMP JUMPDEST PUSH1 0x40 MLOAD DUP1 SWAP2 SUB SWAP1 REVERT JUMPDEST DUP3 PUSH1 0x1 SWAP1 DUP2 PUSH2 0x2D40 SWAP2 SWAP1 PUSH2 0x3F59 JUMP JUMPDEST POP DUP2 PUSH1 0x2 SWAP1 DUP2 PUSH2 0x2D50 SWAP2 SWAP1 PUSH2 0x3F59 JUMP JUMPDEST POP DUP1 PUSH1 0x3 PUSH0 PUSH2 0x100 EXP DUP2 SLOAD DUP2 PUSH1 0xFF MUL NOT AND SWAP1 DUP4 PUSH1 0xFF AND MUL OR SWAP1 SSTORE POP POP POP POP JUMP JUMPDEST PUSH0 DUP2 SWAP1 POP SWAP2 SWAP1 POP JUMP JUMPDEST PUSH2 0x2D82 DUP2 PUSH2 0x2D70 JUMP JUMPDEST DUP3 MSTORE POP POP JUMP JUMPDEST PUSH0 PUSH1 0x20 DUP3 ADD SWAP1 POP PUSH2 0x2D9B PUSH0 DUP4 ADD DUP5 PUSH2 0x2D79 JUMP JUMPDEST SWAP3 SWAP2 POP POP JUMP JUMPDEST PUSH0 DUP2 MLOAD SWAP1 POP SWAP2 SWAP1 POP JUMP JUMPDEST PUSH0 DUP3 DUP3 MSTORE PUSH1 0x20 DUP3 ADD SWAP1 POP SWAP3 SWAP2 POP POP JUMP JUMPDEST DUP3 DUP2 DUP4 MCOPY PUSH0 DUP4 DUP4 ADD MSTORE POP POP POP JUMP JUMPDEST PUSH0 PUSH1 0x1F NOT PUSH1 0x1F DUP4 ADD AND SWAP1 POP SWAP2 SWAP1 POP JUMP JUMPDEST PUSH0 PUSH2 0x2DE3 DUP3 PUSH2 0x2DA1 JUMP JUMPDEST PUSH2 0x2DED DUP2 DUP6 PUSH2 0x2DAB JUMP JUMPDEST SWAP4 POP PUSH2 0x2DFD DUP2 DUP6 PUSH1 0x20 DUP7 ADD PUSH2 0x2DBB JUMP JUMPDEST PUSH2 0x2E06 DUP2 PUSH2 0x2DC9 JUMP JUMPDEST DUP5 ADD SWAP2 POP POP SWAP3 SWAP2 POP POP JUMP JUMPDEST PUSH0 PUSH1 0x20 DUP3 ADD SWAP1 POP DUP2 DUP2 SUB PUSH0 DUP4 ADD MSTORE PUSH2 0x2E29 DUP2 DUP5 PUSH2 0x2DD9 JUMP JUMPDEST SWAP1 POP SWAP3 SWAP2 POP POP JUMP JUMPDEST PUSH0 PUSH0 REVERT JUMPDEST PUSH0 PUSH0 REVERT JUMPDEST PUSH2 0x2E42 DUP2 PUSH2 0x2D70 JUMP JUMPDEST DUP2 EQ PUSH2 0x2E4C JUMPI PUSH0 PUSH0 REVERT JUMPDEST POP JUMP JUMPDEST PUSH0 DUP2 CALLDATALOAD SWAP1 POP PUSH2 0x2E5D DUP2 PUSH2 0x2E39 JUMP JUMPDEST SWAP3 SWAP2 POP POP JUMP JUMPDEST PUSH0 PUSH1 0x20 DUP3 DUP5 SUB SLT ISZERO PUSH2 0x2E78 JUMPI PUSH2 0x2E77 PUSH2 0x2E31 JUMP JUMPDEST JUMPDEST PUSH0 PUSH2 0x2E85 DUP5 DUP3 DUP6 ADD PUSH2 0x2E4F JUMP JUMPDEST SWAP2 POP POP SWAP3 SWAP2 POP POP JUMP JUMPDEST PUSH0 PUSH20 0xFFFFFFFFFFFFFFFFFFFFFFFFFFFFFFFFFFFFFFFF DUP3 AND SWAP1 POP SWAP2 SWAP1 POP JUMP JUMPDEST PUSH0 PUSH2 0x2EB7 DUP3 PUSH2 0x2E8E JUMP JUMPDEST SWAP1 POP SWAP2 SWAP1 POP JUMP JUMPDEST PUSH2 0x2EC7 DUP2 PUSH2 0x2EAD JUMP JUMPDEST DUP2 EQ PUSH2 0x2ED1 JUMPI PUSH0 PUSH0 REVERT JUMPDEST POP JUMP JUMPDEST PUSH0 DUP2 CALLDATALOAD SWAP1 POP PUSH2 0x2EE2 DUP2 PUSH2 0x2EBE JUMP JUMPDEST SWAP3 SWAP2 POP POP JUMP JUMPDEST PUSH0 PUSH0 PUSH1 0x40 DUP4 DUP6 SUB SLT ISZERO PUSH2 0x2EFE JUMPI PUSH2 0x2EFD PUSH2 0x2E31 JUMP JUMPDEST JUMPDEST PUSH0 PUSH2 0x2F0B DUP6 DUP3 DUP7 ADD PUSH2 0x2ED4 JUMP JUMPDEST SWAP3 POP POP PUSH1 0x20 PUSH2 0x2F1C DUP6 DUP3 DUP7 ADD PUSH2 0x2E4F JUMP JUMPDEST SWAP2 POP POP SWAP3 POP SWAP3 SWAP1 POP JUMP JUMPDEST PUSH0 DUP2 ISZERO ISZERO SWAP1 POP SWAP2 SWAP1 POP JUMP JUMPDEST PUSH2 0x2F3A DUP2 PUSH2 0x2F26 JUMP JUMPDEST DUP3 MSTORE POP POP JUMP JUMPDEST PUSH0 PUSH1 0x20 DUP3 ADD SWAP1 POP PUSH2 0x2F53 PUSH0 DUP4 ADD DUP5 PUSH2 0x2F31 JUMP JUMPDEST SWAP3 SWAP2 POP POP JUMP JUMPDEST PUSH0 PUSH0 PUSH0 PUSH1 0x60 DUP5 DUP7 SUB SLT ISZERO PUSH2 0x2F70 JUMPI PUSH2 0x2F6F PUSH2 0x2E31 JUMP JUMPDEST JUMPDEST PUSH0 PUSH2 0x2F7D DUP7 DUP3 DUP8 ADD PUSH2 0x2ED4 JUMP JUMPDEST SWAP4 POP POP PUSH1 0x20 PUSH2 0x2F8E DUP7 DUP3 DUP8 ADD PUSH2 0x2ED4 JUMP JUMPDEST SWAP3 POP POP PUSH1 0x40 PUSH2 0x2F9F DUP7 DUP3 DUP8 ADD PUSH2 0x2E4F JUMP JUMPDEST SWAP2 POP POP SWAP3 POP SWAP3 POP SWAP3 JUMP JUMPDEST PUSH0 PUSH1 0x20 DUP3 DUP5 SUB SLT ISZERO PUSH2 0x2FBE JUMPI PUSH2 0x2FBD PUSH2 0x2E31 JUMP JUMPDEST JUMPDEST PUSH0 PUSH2 0x2FCB DUP5 DUP3 DUP6 ADD PUSH2 0x2ED4 JUMP JUMPDEST SWAP2 POP POP SWAP3 SWAP2 POP POP JUMP JUMPDEST PUSH2 0x2FDD DUP2 PUSH2 0x2EAD JUMP JUMPDEST DUP3 MSTORE POP POP JUMP JUMPDEST PUSH0 PUSH1 0x20 DUP3 ADD SWAP1 POP PUSH2 0x2FF6 PUSH0 DUP4 ADD DUP5 PUSH2 0x2FD4 JUMP JUMPDEST SWAP3 SWAP2 POP POP JUMP JUMPDEST PUSH0 PUSH0 REVERT JUMPDEST PUSH0 PUSH0 REVERT JUMPDEST PUSH0 PUSH0 REVERT JUMPDEST PUSH0 PUSH0 DUP4 PUSH1 0x1F DUP5 ADD SLT PUSH2 0x301D JUMPI PUSH2 0x301C PUSH2 0x2FFC JUMP JUMPDEST JUMPDEST DUP3 CALLDATALOAD SWAP1 POP PUSH8 0xFFFFFFFFFFFFFFFF DUP2 GT ISZERO PUSH2 0x303A JUMPI PUSH2 0x3039 PUSH2 0x3000 JUMP JUMPDEST JUMPDEST PUSH1 0x20 DUP4 ADD SWAP2 POP DUP4 PUSH1 0x1 DUP3 MUL DUP4 ADD GT ISZERO PUSH2 0x3056 JUMPI PUSH2 0x3055 PUSH2 0x3004 JUMP JUMPDEST JUMPDEST SWAP3 POP SWAP3 SWAP1 POP JUMP JUMPDEST PUSH0 PUSH0 PUSH0 PUSH0 PUSH0 PUSH0 PUSH0 PUSH0 PUSH0 PUSH0 PUSH1 0xE0 DUP12 DUP14 SUB SLT ISZERO PUSH2 0x307B JUMPI PUSH2 0x307A PUSH2 0x2E31 JUMP JUMPDEST JUMPDEST PUSH0 PUSH2 0x3088 DUP14 DUP3 DUP15 ADD PUSH2 0x2ED4 JUMP JUMPDEST SWAP11 POP POP PUSH1 0x20 PUSH2 0x3099 DUP14 DUP3 DUP15 ADD PUSH2 0x2ED4 JUMP JUMPDEST SWAP10 POP POP PUSH1 0x40 DUP12 ADD CALLDATALOAD PUSH8 0xFFFFFFFFFFFFFFFF DUP2 GT ISZERO PUSH2 0x30BA JUMPI PUSH2 0x30B9 PUSH2 0x2E35 JUMP JUMPDEST JUMPDEST PUSH2 0x30C6 DUP14 DUP3 DUP15 ADD PUSH2 0x3008 JUMP JUMPDEST SWAP9 POP SWAP9 POP POP PUSH1 0x60 DUP12 ADD CALLDATALOAD PUSH8 0xFFFFFFFFFFFFFFFF DUP2 GT ISZERO PUSH2 0x30E9 JUMPI PUSH2 0x30E8 PUSH2 0x2E35 JUMP JUMPDEST JUMPDEST PUSH2 0x30F5 DUP14 DUP3 DUP15 ADD PUSH2 0x3008 JUMP JUMPDEST SWAP7 POP SWAP7 POP POP PUSH1 0x80 DUP12 ADD CALLDATALOAD PUSH8 0xFFFFFFFFFFFFFFFF DUP2 GT ISZERO PUSH2 0x3118 JUMPI PUSH2 0x3117 PUSH2 0x2E35 JUMP JUMPDEST JUMPDEST PUSH2 0x3124 DUP14 DUP3 DUP15 ADD PUSH2 0x3008 JUMP JUMPDEST SWAP5 POP SWAP5 POP POP PUSH1 0xA0 PUSH2 0x3137 DUP14 DUP3 DUP15 ADD PUSH2 0x2E4F JUMP JUMPDEST SWAP3 POP POP PUSH1 0xC0 PUSH2 0x3148 DUP14 DUP3 DUP15 ADD PUSH2 0x2E4F JUMP JUMPDEST SWAP2 POP POP SWAP3 SWAP6 SWAP9 SWAP12 SWAP2 SWAP5 SWAP8 SWAP11 POP SWAP3 SWAP6 SWAP9 POP JUMP JUMPDEST PUSH0 PUSH0 DUP4 PUSH1 0x1F DUP5 ADD SLT PUSH2 0x316F JUMPI PUSH2 0x316E PUSH2 0x2FFC JUMP JUMPDEST JUMPDEST DUP3 CALLDATALOAD SWAP1 POP PUSH8 0xFFFFFFFFFFFFFFFF DUP2 GT ISZERO PUSH2 0x318C JUMPI PUSH2 0x318B PUSH2 0x3000 JUMP JUMPDEST JUMPDEST PUSH1 0x20 DUP4 ADD SWAP2 POP DUP4 PUSH1 0x1 DUP3 MUL DUP4 ADD GT ISZERO PUSH2 0x31A8 JUMPI PUSH2 0x31A7 PUSH2 0x3004 JUMP JUMPDEST JUMPDEST SWAP3 POP SWAP3 SWAP1 POP JUMP JUMPDEST PUSH0 PUSH0 PUSH0 PUSH1 0x40 DUP5 DUP7 SUB SLT ISZERO PUSH2 0x31C6 JUMPI PUSH2 0x31C5 PUSH2 0x2E31 JUMP JUMPDEST JUMPDEST PUSH0 PUSH2 0x31D3 DUP7 DUP3 DUP8 ADD PUSH2 0x2ED4 JUMP JUMPDEST SWAP4 POP POP PUSH1 0x20 DUP5 ADD CALLDATALOAD PUSH8 0xFFFFFFFFFFFFFFFF DUP2 GT ISZERO PUSH2 0x31F4 JUMPI PUSH2 0x31F3 PUSH2 0x2E35 JUMP JUMPDEST JUMPDEST PUSH2 0x3200 DUP7 DUP3 DUP8 ADD PUSH2 0x315A JUMP JUMPDEST SWAP3 POP SWAP3 POP POP SWAP3 POP SWAP3 POP SWAP3 JUMP JUMPDEST PUSH0 DUP2 SWAP1 POP SWAP2 SWAP1 POP JUMP JUMPDEST PUSH2 0x321E DUP2 PUSH2 0x320C JUMP JUMPDEST DUP3 MSTORE POP POP JUMP JUMPDEST PUSH0 PUSH1 0x20 DUP3 ADD SWAP1 POP PUSH2 0x3237 PUSH0 DUP4 ADD DUP5 PUSH2 0x3215 JUMP JUMPDEST SWAP3 SWAP2 POP POP JUMP JUMPDEST PUSH0 PUSH0 PUSH1 0x40 DUP4 DUP6 SUB SLT ISZERO PUSH2 0x3253 JUMPI PUSH2 0x3252 PUSH2 0x2E31 JUMP JUMPDEST JUMPDEST PUSH0 PUSH2 0x3260 DUP6 DUP3 DUP7 ADD PUSH2 0x2E4F JUMP JUMPDEST SWAP3 POP POP PUSH1 0x20 PUSH2 0x3271 DUP6 DUP3 DUP7 ADD PUSH2 0x2ED4 JUMP JUMPDEST SWAP2 POP POP SWAP3 POP SWAP3 SWAP1 POP JUMP JUMPDEST PUSH0 PUSH0 PUSH0 PUSH1 0x60 DUP5 DUP7 SUB SLT ISZERO PUSH2 0x3292 JUMPI PUSH2 0x3291 PUSH2 0x2E31 JUMP JUMPDEST JUMPDEST PUSH0 PUSH2 0x329F DUP7 DUP3 DUP8 ADD PUSH2 0x2E4F JUMP JUMPDEST SWAP4 POP POP PUSH1 0x20 PUSH2 0x32B0 DUP7 DUP3 DUP8 ADD PUSH2 0x2ED4 JUMP JUMPDEST SWAP3 POP POP PUSH1 0x40 PUSH2 0x32C1 DUP7 DUP3 DUP8 ADD PUSH2 0x2ED4 JUMP JUMPDEST SWAP2 POP POP SWAP3 POP SWAP3 POP SWAP3 JUMP JUMPDEST PUSH0 PUSH0 PUSH1 0x40 DUP4 DUP6 SUB SLT ISZERO PUSH2 0x32E1 JUMPI PUSH2 0x32E0 PUSH2 0x2E31 JUMP JUMPDEST JUMPDEST PUSH0 PUSH2 0x32EE DUP6 DUP3 DUP7 ADD PUSH2 0x2ED4 JUMP JUMPDEST SWAP3 POP POP PUSH1 0x20 PUSH2 0x32FF DUP6 DUP3 DUP7 ADD PUSH2 0x2ED4 JUMP JUMPDEST SWAP2 POP POP SWAP3 POP SWAP3 SWAP1 POP JUMP JUMPDEST PUSH0 DUP2 MLOAD SWAP1 POP PUSH2 0x3317 DUP2 PUSH2 0x2E39 JUMP JUMPDEST SWAP3 SWAP2 POP POP JUMP JUMPDEST PUSH0 PUSH1 0x20 DUP3 DUP5 SUB SLT ISZERO PUSH2 0x3332 JUMPI PUSH2 0x3331 PUSH2 0x2E31 JUMP JUMPDEST JUMPDEST PUSH0 PUSH2 0x333F DUP5 DUP3 DUP6 ADD PUSH2 0x3309 JUMP JUMPDEST SWAP2 POP POP SWAP3 SWAP2 POP POP JUMP JUMPDEST PUSH32 0x4E487B7100000000000000000000000000000000000000000000000000000000 PUSH0 MSTORE PUSH1 0x32 PUSH1 0x4 MSTORE PUSH1 0x24 PUSH0 REVERT JUMPDEST PUSH32 0x4E487B7100000000000000000000000000000000000000000000000000000000 PUSH0 MSTORE PUSH1 0x11 PUSH1 0x4 MSTORE PUSH1 0x24 PUSH0 REVERT JUMPDEST PUSH0 PUSH2 0x33AC DUP3 PUSH2 0x2D70 JUMP JUMPDEST SWAP2 POP PUSH2 0x33B7 DUP4 PUSH2 0x2D70 JUMP JUMPDEST SWAP3 POP DUP3 DUP3 ADD SWAP1 POP DUP1 DUP3 GT ISZERO PUSH2 0x33CF JUMPI PUSH2 0x33CE PUSH2 0x3375 JUMP JUMPDEST JUMPDEST SWAP3 SWAP2 POP POP JUMP JUMPDEST PUSH32 0x4E487B7100000000000000000000000000000000000000000000000000000000 PUSH0 MSTORE PUSH1 0x22 PUSH1 0x4 MSTORE PUSH1 0x24 PUSH0 REVERT JUMPDEST PUSH0 PUSH1 0x2 DUP3 DIV SWAP1 POP PUSH1 0x1 DUP3 AND DUP1 PUSH2 0x3419 JUMPI PUSH1 0x7F DUP3 AND SWAP2 POP JUMPDEST PUSH1 0x20 DUP3 LT DUP2 SUB PUSH2 0x342C JUMPI PUSH2 0x342B PUSH2 0x33D5 JUMP JUMPDEST JUMPDEST POP SWAP2 SWAP1 POP JUMP JUMPDEST PUSH0 PUSH2 0x343C DUP3 PUSH2 0x2D70 JUMP JUMPDEST SWAP2 POP PUSH2 0x3447 DUP4 PUSH2 0x2D70 JUMP JUMPDEST SWAP3 POP DUP3 DUP3 MUL PUSH2 0x3455 DUP2 PUSH2 0x2D70 JUMP JUMPDEST SWAP2 POP DUP3 DUP3 DIV DUP5 EQ DUP4 ISZERO OR PUSH2 0x346C JUMPI PUSH2 0x346B PUSH2 0x3375 JUMP JUMPDEST JUMPDEST POP SWAP3 SWAP2 POP POP JUMP JUMPDEST PUSH32 0x4E487B7100000000000000000000000000000000000000000000000000000000 PUSH0 MSTORE PUSH1 0x12 PUSH1 0x4 MSTORE PUSH1 0x24 PUSH0 REVERT JUMPDEST PUSH0 PUSH2 0x34AA DUP3 PUSH2 0x2D70 JUMP JUMPDEST SWAP2 POP PUSH2 0x34B5 DUP4 PUSH2 0x2D70 JUMP JUMPDEST SWAP3 POP DUP3 PUSH2 0x34C5 JUMPI PUSH2 0x34C4 PUSH2 0x3473 JUMP JUMPDEST JUMPDEST DUP3 DUP3 DIV SWAP1 POP SWAP3 SWAP2 POP POP JUMP JUMPDEST PUSH32 0x494E53554646494349454E545F414C4C4F57414E434500000000000000000000 PUSH0 DUP3 ADD MSTORE POP JUMP JUMPDEST PUSH0 PUSH2 0x3504 PUSH1 0x16 DUP4 PUSH2 0x2DAB JUMP JUMPDEST SWAP2 POP PUSH2 0x350F DUP3 PUSH2 0x34D0 JUMP JUMPDEST PUSH1 0x20 DUP3 ADD SWAP1 POP SWAP2 SWAP1 POP JUMP JUMPDEST PUSH0 PUSH1 0x20 DUP3 ADD SWAP1 POP DUP2 DUP2 SUB PUSH0 DUP4 ADD MSTORE PUSH2 0x3531 DUP2 PUSH2 0x34F8 JUMP JUMPDEST SWAP1 POP SWAP2 SWAP1 POP JUMP JUMPDEST PUSH0 PUSH2 0x3542 DUP3 PUSH2 0x2D70 JUMP JUMPDEST SWAP2 POP PUSH2 0x354D DUP4 PUSH2 0x2D70 JUMP JUMPDEST SWAP3 POP DUP3 DUP3 SUB SWAP1 POP DUP2 DUP2 GT ISZERO PUSH2 0x3565 JUMPI PUSH2 0x3564 PUSH2 0x3375 JUMP JUMPDEST JUMPDEST SWAP3 SWAP2 POP POP JUMP JUMPDEST PUSH32 0x4E4F545F44454C454741544543414C4C00000000000000000000000000000000 PUSH0 DUP3 ADD MSTORE POP JUMP JUMPDEST PUSH0 PUSH2 0x359F PUSH1 0x10 DUP4 PUSH2 0x2DAB JUMP JUMPDEST SWAP2 POP PUSH2 0x35AA DUP3 PUSH2 0x356B JUMP JUMPDEST PUSH1 0x20 DUP3 ADD SWAP1 POP SWAP2 SWAP1 POP JUMP JUMPDEST PUSH0 PUSH1 0x20 DUP3 ADD SWAP1 POP DUP2 DUP2 SUB PUSH0 DUP4 ADD MSTORE PUSH2 0x35CC DUP2 PUSH2 0x3593 JUMP JUMPDEST SWAP1 POP SWAP2 SWAP1 POP JUMP JUMPDEST PUSH32 0x494E4143544956455F50524F5859000000000000000000000000000000000000 PUSH0 DUP3 ADD MSTORE POP JUMP JUMPDEST PUSH0 PUSH2 0x3607 PUSH1 0xE DUP4 PUSH2 0x2DAB JUMP JUMPDEST SWAP2 POP PUSH2 0x3612 DUP3 PUSH2 0x35D3 JUMP JUMPDEST PUSH1 0x20 DUP3 ADD SWAP1 POP SWAP2 SWAP1 POP JUMP JUMPDEST PUSH0 PUSH1 0x20 DUP3 ADD SWAP1 POP DUP2 DUP2 SUB PUSH0 DUP4 ADD MSTORE PUSH2 0x3634 DUP2 PUSH2 0x35FB JUMP JUMPDEST SWAP1 POP SWAP2 SWAP1 POP JUMP JUMPDEST PUSH32 0x414C52454144595F494E495449414C495A454400000000000000000000000000 PUSH0 DUP3 ADD MSTORE POP JUMP JUMPDEST PUSH0 PUSH2 0x366F PUSH1 0x13 DUP4 PUSH2 0x2DAB JUMP JUMPDEST SWAP2 POP PUSH2 0x367A DUP3 PUSH2 0x363B JUMP JUMPDEST PUSH1 0x20 DUP3 ADD SWAP1 POP SWAP2 SWAP1 POP JUMP JUMPDEST PUSH0 PUSH1 0x20 DUP3 ADD SWAP1 POP DUP2 DUP2 SUB PUSH0 DUP4 ADD MSTORE PUSH2 0x369C DUP2 PUSH2 0x3663 JUMP JUMPDEST SWAP1 POP SWAP2 SWAP1 POP JUMP JUMPDEST PUSH0 DUP3 SWAP1 POP SWAP3 SWAP2 POP POP JUMP JUMPDEST PUSH32 0x4E487B7100000000000000000000000000000000000000000000000000000000 PUSH0 MSTORE PUSH1 0x41 PUSH1 0x4 MSTORE PUSH1 0x24 PUSH0 REVERT JUMPDEST PUSH0 DUP2 SWAP1 POP DUP2 PUSH0 MSTORE PUSH1 0x20 PUSH0 KECCAK256 SWAP1 POP SWAP2 SWAP1 POP JUMP JUMPDEST PUSH0 PUSH1 0x20 PUSH1 0x1F DUP4 ADD DIV SWAP1 POP SWAP2 SWAP1 POP JUMP JUMPDEST PUSH0 DUP3 DUP3 SHL SWAP1 POP SWAP3 SWAP2 POP POP JUMP JUMPDEST PUSH0 PUSH1 0x8 DUP4 MUL PUSH2 0x3736 PUSH32 0xFFFFFFFFFFFFFFFFFFFFFFFFFFFFFFFFFFFFFFFFFFFFFFFFFFFFFFFFFFFFFFFF DUP3 PUSH2 0x36FB JUMP JUMPDEST PUSH2 0x3740 DUP7 DUP4 PUSH2 0x36FB JUMP JUMPDEST SWAP6 POP DUP1 NOT DUP5 AND SWAP4 POP DUP1 DUP7 AND DUP5 OR SWAP3 POP POP POP SWAP4 SWAP3 POP POP POP JUMP JUMPDEST PUSH0 DUP2 SWAP1 POP SWAP2 SWAP1 POP JUMP JUMPDEST PUSH0 PUSH2 0x377B PUSH2 0x3776 PUSH2 0x3771 DUP5 PUSH2 0x2D70 JUMP JUMPDEST PUSH2 0x3758 JUMP JUMPDEST PUSH2 0x2D70 JUMP JUMPDEST SWAP1 POP SWAP2 SWAP1 POP JUMP JUMPDEST PUSH0 DUP2 SWAP1 POP SWAP2 SWAP1 POP JUMP JUMPDEST PUSH2 0x3794 DUP4 PUSH2 0x3761 JUMP JUMPDEST PUSH2 0x37A8 PUSH2 0x37A0 DUP3 PUSH2 0x3782 JUMP JUMPDEST DUP5 DUP5 SLOAD PUSH2 0x3707 JUMP JUMPDEST DUP3 SSTORE POP POP POP POP JUMP JUMPDEST PUSH0 PUSH0 SWAP1 POP SWAP1 JUMP JUMPDEST PUSH2 0x37BF PUSH2 0x37B0 JUMP JUMPDEST PUSH2 0x37CA DUP2 DUP5 DUP5 PUSH2 0x378B JUMP JUMPDEST POP POP POP JUMP JUMPDEST JUMPDEST DUP2 DUP2 LT ISZERO PUSH2 0x37ED JUMPI PUSH2 0x37E2 PUSH0 DUP3 PUSH2 0x37B7 JUMP JUMPDEST PUSH1 0x1 DUP2 ADD SWAP1 POP PUSH2 0x37D0 JUMP JUMPDEST POP POP JUMP JUMPDEST PUSH1 0x1F DUP3 GT ISZERO PUSH2 0x3832 JUMPI PUSH2 0x3803 DUP2 PUSH2 0x36DA JUMP JUMPDEST PUSH2 0x380C DUP5 PUSH2 0x36EC JUMP JUMPDEST DUP2 ADD PUSH1 0x20 DUP6 LT ISZERO PUSH2 0x381B JUMPI DUP2 SWAP1 POP JUMPDEST PUSH2 0x382F PUSH2 0x3827 DUP6 PUSH2 0x36EC JUMP JUMPDEST DUP4 ADD DUP3 PUSH2 0x37CF JUMP JUMPDEST POP POP JUMPDEST POP POP POP JUMP JUMPDEST PUSH0 DUP3 DUP3 SHR SWAP1 POP SWAP3 SWAP2 POP POP JUMP JUMPDEST PUSH0 PUSH2 0x3852 PUSH0 NOT DUP5 PUSH1 0x8 MUL PUSH2 0x3837 JUMP JUMPDEST NOT DUP1 DUP4 AND SWAP2 POP POP SWAP3 SWAP2 POP POP JUMP JUMPDEST PUSH0 PUSH2 0x386A DUP4 DUP4 PUSH2 0x3843 JUMP JUMPDEST SWAP2 POP DUP3 PUSH1 0x2 MUL DUP3 OR SWAP1 POP SWAP3 SWAP2 POP POP JUMP JUMPDEST PUSH2 0x3884 DUP4 DUP4 PUSH2 0x36A3 JUMP JUMPDEST PUSH8 0xFFFFFFFFFFFFFFFF DUP2 GT ISZERO PUSH2 0x389D JUMPI PUSH2 0x389C PUSH2 0x36AD JUMP JUMPDEST JUMPDEST PUSH2 0x38A7 DUP3 SLOAD PUSH2 0x3402 JUMP JUMPDEST PUSH2 0x38B2 DUP3 DUP3 DUP6 PUSH2 0x37F1 JUMP JUMPDEST PUSH0 PUSH1 0x1F DUP4 GT PUSH1 0x1 DUP2 EQ PUSH2 0x38DF JUMPI PUSH0 DUP5 ISZERO PUSH2 0x38CD JUMPI DUP3 DUP8 ADD CALLDATALOAD SWAP1 POP JUMPDEST PUSH2 0x38D7 DUP6 DUP3 PUSH2 0x385F JUMP JUMPDEST DUP7 SSTORE POP PUSH2 0x393E JUMP JUMPDEST PUSH1 0x1F NOT DUP5 AND PUSH2 0x38ED DUP7 PUSH2 0x36DA JUMP JUMPDEST PUSH0 JUMPDEST DUP3 DUP2 LT ISZERO PUSH2 0x3914 JUMPI DUP5 DUP10 ADD CALLDATALOAD DUP3 SSTORE PUSH1 0x1 DUP3 ADD SWAP2 POP PUSH1 0x20 DUP6 ADD SWAP5 POP PUSH1 0x20 DUP2 ADD SWAP1 POP PUSH2 0x38EF JUMP JUMPDEST DUP7 DUP4 LT ISZERO PUSH2 0x3931 JUMPI DUP5 DUP10 ADD CALLDATALOAD PUSH2 0x392D PUSH1 0x1F DUP10 AND DUP3 PUSH2 0x3843 JUMP JUMPDEST DUP4 SSTORE POP JUMPDEST PUSH1 0x1 PUSH1 0x2 DUP9 MUL ADD DUP9 SSTORE POP POP POP JUMPDEST POP POP POP POP POP POP POP JUMP JUMPDEST PUSH32 0x4F4E4C595F494D504C454D454E544154494F4E00000000000000000000000000 PUSH0 DUP3 ADD MSTORE POP JUMP JUMPDEST PUSH0 PUSH2 0x397B PUSH1 0x13 DUP4 PUSH2 0x2DAB JUMP JUMPDEST SWAP2 POP PUSH2 0x3986 DUP3 PUSH2 0x3947 JUMP JUMPDEST PUSH1 0x20 DUP3 ADD SWAP1 POP SWAP2 SWAP1 POP JUMP JUMPDEST PUSH0 PUSH1 0x20 DUP3 ADD SWAP1 POP DUP2 DUP2 SUB PUSH0 DUP4 ADD MSTORE PUSH2 0x39A8 DUP2 PUSH2 0x396F JUMP JUMPDEST SWAP1 POP SWAP2 SWAP1 POP JUMP JUMPDEST PUSH32 0x554E4B4E4F574E5F4D41524B4554000000000000000000000000000000000000 PUSH0 DUP3 ADD MSTORE POP JUMP JUMPDEST PUSH0 PUSH2 0x39E3 PUSH1 0xE DUP4 PUSH2 0x2DAB JUMP JUMPDEST SWAP2 POP PUSH2 0x39EE DUP3 PUSH2 0x39AF JUMP JUMPDEST PUSH1 0x20 DUP3 ADD SWAP1 POP SWAP2 SWAP1 POP JUMP JUMPDEST PUSH0 PUSH1 0x20 DUP3 ADD SWAP1 POP DUP2 DUP2 SUB PUSH0 DUP4 ADD MSTORE PUSH2 0x3A10 DUP2 PUSH2 0x39D7 JUMP JUMPDEST SWAP1 POP SWAP2 SWAP1 POP JUMP JUMPDEST PUSH32 0x4E4F5F465245455F4C4951554944495459000000000000000000000000000000 PUSH0 DUP3 ADD MSTORE POP JUMP JUMPDEST PUSH0 PUSH2 0x3A4B PUSH1 0x11 DUP4 PUSH2 0x2DAB JUMP JUMPDEST SWAP2 POP PUSH2 0x3A56 DUP3 PUSH2 0x3A17 JUMP JUMPDEST PUSH1 0x20 DUP3 ADD SWAP1 POP SWAP2 SWAP1 POP JUMP JUMPDEST PUSH0 PUSH1 0x20 DUP3 ADD SWAP1 POP DUP2 DUP2 SUB PUSH0 DUP4 ADD MSTORE PUSH2 0x3A78 DUP2 PUSH2 0x3A3F JUMP JUMPDEST SWAP1 POP SWAP2 SWAP1 POP JUMP JUMPDEST PUSH0 PUSH1 0x40 DUP3 ADD SWAP1 POP PUSH2 0x3A92 PUSH0 DUP4 ADD DUP6 PUSH2 0x2FD4 JUMP JUMPDEST PUSH2 0x3A9F PUSH1 0x20 DUP4 ADD DUP5 PUSH2 0x2D79 JUMP JUMPDEST SWAP4 SWAP3 POP POP POP JUMP JUMPDEST PUSH2 0x3AAF DUP2 PUSH2 0x2F26 JUMP JUMPDEST DUP2 EQ PUSH2 0x3AB9 JUMPI PUSH0 PUSH0 REVERT JUMPDEST POP JUMP JUMPDEST PUSH0 DUP2 MLOAD SWAP1 POP PUSH2 0x3ACA DUP2 PUSH2 0x3AA6 JUMP JUMPDEST SWAP3 SWAP2 POP POP JUMP JUMPDEST PUSH0 PUSH1 0x20 DUP3 DUP5 SUB SLT ISZERO PUSH2 0x3AE5 JUMPI PUSH2 0x3AE4 PUSH2 0x2E31 JUMP JUMPDEST JUMPDEST PUSH0 PUSH2 0x3AF2 DUP5 DUP3 DUP6 ADD PUSH2 0x3ABC JUMP JUMPDEST SWAP2 POP POP SWAP3 SWAP2 POP POP JUMP JUMPDEST PUSH32 0x4445504F5349545F544F4F5F534D414C4C000000000000000000000000000000 PUSH0 DUP3 ADD MSTORE POP JUMP JUMPDEST PUSH0 PUSH2 0x3B2F PUSH1 0x11 DUP4 PUSH2 0x2DAB JUMP JUMPDEST SWAP2 POP PUSH2 0x3B3A DUP3 PUSH2 0x3AFB JUMP JUMPDEST PUSH1 0x20 DUP3 ADD SWAP1 POP SWAP2 SWAP1 POP JUMP JUMPDEST PUSH0 PUSH1 0x20 DUP3 ADD SWAP1 POP DUP2 DUP2 SUB PUSH0 DUP4 ADD MSTORE PUSH2 0x3B5C DUP2 PUSH2 0x3B23 JUMP JUMPDEST SWAP1 POP SWAP2 SWAP1 POP JUMP JUMPDEST PUSH32 0x5A45524F5F4D41524B4554000000000000000000000000000000000000000000 PUSH0 DUP3 ADD MSTORE POP JUMP JUMPDEST PUSH0 PUSH2 0x3B97 PUSH1 0xB DUP4 PUSH2 0x2DAB JUMP JUMPDEST SWAP2 POP PUSH2 0x3BA2 DUP3 PUSH2 0x3B63 JUMP JUMPDEST PUSH1 0x20 DUP3 ADD SWAP1 POP SWAP2 SWAP1 POP JUMP JUMPDEST PUSH0 PUSH1 0x20 DUP3 ADD SWAP1 POP DUP2 DUP2 SUB PUSH0 DUP4 ADD MSTORE PUSH2 0x3BC4 DUP2 PUSH2 0x3B8B JUMP JUMPDEST SWAP1 POP SWAP2 SWAP1 POP JUMP JUMPDEST PUSH32 0x4D41524B45545F45584953545300000000000000000000000000000000000000 PUSH0 DUP3 ADD MSTORE POP JUMP JUMPDEST PUSH0 PUSH2 0x3BFF PUSH1 0xD DUP4 PUSH2 0x2DAB JUMP JUMPDEST SWAP2 POP PUSH2 0x3C0A DUP3 PUSH2 0x3BCB JUMP JUMPDEST PUSH1 0x20 DUP3 ADD SWAP1 POP SWAP2 SWAP1 POP JUMP JUMPDEST PUSH0 PUSH1 0x20 DUP3 ADD SWAP1 POP DUP2 DUP2 SUB PUSH0 DUP4 ADD MSTORE PUSH2 0x3C2C DUP2 PUSH2 0x3BF3 JUMP JUMPDEST SWAP1 POP SWAP2 SWAP1 POP JUMP JUMPDEST PUSH32 0x5A45524F5F534841524553000000000000000000000000000000000000000000 PUSH0 DUP3 ADD MSTORE POP JUMP JUMPDEST PUSH0 PUSH2 0x3C67 PUSH1 0xB DUP4 PUSH2 0x2DAB JUMP JUMPDEST SWAP2 POP PUSH2 0x3C72 DUP3 PUSH2 0x3C33 JUMP JUMPDEST PUSH1 0x20 DUP3 ADD SWAP1 POP SWAP2 SWAP1 POP JUMP JUMPDEST PUSH0 PUSH1 0x20 DUP3 ADD SWAP1 POP DUP2 DUP2 SUB PUSH0 DUP4 ADD MSTORE PUSH2 0x3C94 DUP2 PUSH2 0x3C5B JUMP JUMPDEST SWAP1 POP SWAP2 SWAP1 POP JUMP JUMPDEST PUSH32 0x5A45524F5F415353455453000000000000000000000000000000000000000000 PUSH0 DUP3 ADD MSTORE POP JUMP JUMPDEST PUSH0 PUSH2 0x3CCF PUSH1 0xB DUP4 PUSH2 0x2DAB JUMP JUMPDEST SWAP2 POP PUSH2 0x3CDA DUP3 PUSH2 0x3C9B JUMP JUMPDEST PUSH1 0x20 DUP3 ADD SWAP1 POP SWAP2 SWAP1 POP JUMP JUMPDEST PUSH0 PUSH1 0x20 DUP3 ADD SWAP1 POP DUP2 DUP2 SUB PUSH0 DUP4 ADD MSTORE PUSH2 0x3CFC DUP2 PUSH2 0x3CC3 JUMP JUMPDEST SWAP1 POP SWAP2 SWAP1 POP JUMP JUMPDEST PUSH0 PUSH1 0x60 DUP3 ADD SWAP1 POP PUSH2 0x3D16 PUSH0 DUP4 ADD DUP7 PUSH2 0x2FD4 JUMP JUMPDEST PUSH2 0x3D23 PUSH1 0x20 DUP4 ADD DUP6 PUSH2 0x2FD4 JUMP JUMPDEST PUSH2 0x3D30 PUSH1 0x40 DUP4 ADD DUP5 PUSH2 0x2D79 JUMP JUMPDEST SWAP5 SWAP4 POP POP POP POP JUMP JUMPDEST PUSH0 PUSH1 0x40 DUP3 ADD SWAP1 POP PUSH2 0x3D4B PUSH0 DUP4 ADD DUP6 PUSH2 0x2D79 JUMP JUMPDEST PUSH2 0x3D58 PUSH1 0x20 DUP4 ADD DUP5 PUSH2 0x2D79 JUMP JUMPDEST SWAP4 SWAP3 POP POP POP JUMP JUMPDEST PUSH32 0x5A45524F5F544F00000000000000000000000000000000000000000000000000 PUSH0 DUP3 ADD MSTORE POP JUMP JUMPDEST PUSH0 PUSH2 0x3D93 PUSH1 0x7 DUP4 PUSH2 0x2DAB JUMP JUMPDEST SWAP2 POP PUSH2 0x3D9E DUP3 PUSH2 0x3D5F JUMP JUMPDEST PUSH1 0x20 DUP3 ADD SWAP1 POP SWAP2 SWAP1 POP JUMP JUMPDEST PUSH0 PUSH1 0x20 DUP3 ADD SWAP1 POP DUP2 DUP2 SUB PUSH0 DUP4 ADD MSTORE PUSH2 0x3DC0 DUP2 PUSH2 0x3D87 JUMP JUMPDEST SWAP1 POP SWAP2 SWAP1 POP JUMP JUMPDEST PUSH32 0x494E53554646494349454E545F42414C414E4345000000000000000000000000 PUSH0 DUP3 ADD MSTORE POP JUMP JUMPDEST PUSH0 PUSH2 0x3DFB PUSH1 0x14 DUP4 PUSH2 0x2DAB JUMP JUMPDEST SWAP2 POP PUSH2 0x3E06 DUP3 PUSH2 0x3DC7 JUMP JUMPDEST PUSH1 0x20 DUP3 ADD SWAP1 POP SWAP2 SWAP1 POP JUMP JUMPDEST PUSH0 PUSH1 0x20 DUP3 ADD SWAP1 POP DUP2 DUP2 SUB PUSH0 DUP4 ADD MSTORE PUSH2 0x3E28 DUP2 PUSH2 0x3DEF JUMP JUMPDEST SWAP1 POP SWAP2 SWAP1 POP JUMP JUMPDEST PUSH32 0x5A45524F5F494D504C0000000000000000000000000000000000000000000000 PUSH0 DUP3 ADD MSTORE POP JUMP JUMPDEST PUSH0 PUSH2 0x3E63 PUSH1 0x9 DUP4 PUSH2 0x2DAB JUMP JUMPDEST SWAP2 POP PUSH2 0x3E6E DUP3 PUSH2 0x3E2F JUMP JUMPDEST PUSH1 0x20 DUP3 ADD SWAP1 POP SWAP2 SWAP1 POP JUMP JUMPDEST PUSH0 PUSH1 0x20 DUP3 ADD SWAP1 POP DUP2 DUP2 SUB PUSH0 DUP4 ADD MSTORE PUSH2 0x3E90 DUP2 PUSH2 0x3E57 JUMP JUMPDEST SWAP1 POP SWAP2 SWAP1 POP JUMP JUMPDEST PUSH0 DUP2 MLOAD SWAP1 POP SWAP2 SWAP1 POP JUMP JUMPDEST PUSH0 DUP2 SWAP1 POP SWAP3 SWAP2 POP POP JUMP JUMPDEST PUSH0 PUSH2 0x3EB5 DUP3 PUSH2 0x3E97 JUMP JUMPDEST PUSH2 0x3EBF DUP2 DUP6 PUSH2 0x3EA1 JUMP JUMPDEST SWAP4 POP PUSH2 0x3ECF DUP2 DUP6 PUSH1 0x20 DUP7 ADD PUSH2 0x2DBB JUMP JUMPDEST DUP1 DUP5 ADD SWAP2 POP POP SWAP3 SWAP2 POP POP JUMP JUMPDEST PUSH0 PUSH2 0x3EE6 DUP3 DUP5 PUSH2 0x3EAB JUMP JUMPDEST SWAP2 POP DUP2 SWAP1 POP SWAP3 SWAP2 POP POP JUMP JUMPDEST PUSH32 0x5A45524F5F415353455400000000000000000000000000000000000000000000 PUSH0 DUP3 ADD MSTORE POP JUMP JUMPDEST PUSH0 PUSH2 0x3F25 PUSH1 0xA DUP4 PUSH2 0x2DAB JUMP JUMPDEST SWAP2 POP PUSH2 0x3F30 DUP3 PUSH2 0x3EF1 JUMP JUMPDEST PUSH1 0x20 DUP3 ADD SWAP1 POP SWAP2 SWAP1 POP JUMP JUMPDEST PUSH0 PUSH1 0x20 DUP3 ADD SWAP1 POP DUP2 DUP2 SUB PUSH0 DUP4 ADD MSTORE PUSH2 0x3F52 DUP2 PUSH2 0x3F19 JUMP JUMPDEST SWAP1 POP SWAP2 SWAP1 POP JUMP JUMPDEST PUSH2 0x3F62 DUP3 PUSH2 0x2DA1 JUMP JUMPDEST PUSH8 0xFFFFFFFFFFFFFFFF DUP2 GT ISZERO PUSH2 0x3F7B JUMPI PUSH2 0x3F7A PUSH2 0x36AD JUMP JUMPDEST JUMPDEST PUSH2 0x3F85 DUP3 SLOAD PUSH2 0x3402 JUMP JUMPDEST PUSH2 0x3F90 DUP3 DUP3 DUP6 PUSH2 0x37F1 JUMP JUMPDEST PUSH0 PUSH1 0x20 SWAP1 POP PUSH1 0x1F DUP4 GT PUSH1 0x1 DUP2 EQ PUSH2 0x3FC1 JUMPI PUSH0 DUP5 ISZERO PUSH2 0x3FAF JUMPI DUP3 DUP8 ADD MLOAD SWAP1 POP JUMPDEST PUSH2 0x3FB9 DUP6 DUP3 PUSH2 0x385F JUMP JUMPDEST DUP7 SSTORE POP PUSH2 0x4020 JUMP JUMPDEST PUSH1 0x1F NOT DUP5 AND PUSH2 0x3FCF DUP7 PUSH2 0x36DA JUMP JUMPDEST PUSH0 JUMPDEST DUP3 DUP2 LT ISZERO PUSH2 0x3FF6 JUMPI DUP5 DUP10 ADD MLOAD DUP3 SSTORE PUSH1 0x1 DUP3 ADD SWAP2 POP PUSH1 0x20 DUP6 ADD SWAP5 POP PUSH1 0x20 DUP2 ADD SWAP1 POP PUSH2 0x3FD1 JUMP JUMPDEST DUP7 DUP4 LT ISZERO PUSH2 0x4013 JUMPI DUP5 DUP10 ADD MLOAD PUSH2 0x400F PUSH1 0x1F DUP10 AND DUP3 PUSH2 0x3843 JUMP JUMPDEST DUP4 SSTORE POP JUMPDEST PUSH1 0x1 PUSH1 0x2 DUP9 MUL ADD DUP9 SSTORE POP POP POP JUMPDEST POP POP POP POP POP POP JUMP INVALID LOG2 PUSH5 0x6970667358 0x22 SLT KECCAK256 EXTCODECOPY 0xC PUSH10 0x4CCF30C7E6D1AACC3F43 TLOAD SELFDESTRUCT DUP4 0xB0 0xAC SWAP16 SIGNEXTEND DUP14 0x1E DUP14 DUP10 SWAPN 0xE6 AND 0xC7 COINBASE BYTE SHL JUMPI PUSH5 0x736F6C6343 STOP ADDMOD 0x1E STOP CALLER "
				},
				"gasEstimates": {
					"creation": {
						"codeDepositCost": "3295600",
						"executionCost": "infinite",
						"totalCost": "infinite"
					},
					"external": {
						"addMarket(address)": "77964",
						"allocateToMarket(address,uint256)": "infinite",
						"allowance(address,address)": "infinite",
						"approve(address,uint256)": "infinite",
						"apy()": "2493",
						"asset()": "2561",
						"balanceOf(address)": "2941",
						"convertToAssets(uint256)": "infinite",
						"convertToShares(uint256)": "infinite",
						"deallocateFromMarket(address,uint256)": "infinite",
						"decimals()": "2563",
						"deposit(uint256,address)": "infinite",
						"idleLiquidity()": "infinite",
						"initialize(address,address,string,string,string,uint256,uint256)": "infinite",
						"isMarket(address)": "2923",
						"markets(uint256)": "5033",
						"minDeposit()": "2537",
						"mint(uint256,address)": "infinite",
						"name()": "infinite",
						"owner()": "2603",
						"ownershipTransfer(address)": "27106",
						"proxiableUUID()": "infinite",
						"redeem(uint256,address,address)": "infinite",
						"symbol()": "infinite",
						"title()": "infinite",
						"totalAssets()": "infinite",
						"totalSupply()": "2478",
						"transfer(address,uint256)": "infinite",
						"transferFrom(address,address,uint256)": "infinite",
						"upgradeTo(address)": "infinite",
						"upgradeToAndCall(address,bytes)": "infinite",
						"withdraw(uint256,address,address)": "infinite"
					},
					"internal": {
						"_authorizeUpgrade(address)": "2230"
					}
				},
				"methodIdentifiers": {
					"addMarket(address)": "93e30633",
					"allocateToMarket(address,uint256)": "66adf46a",
					"allowance(address,address)": "dd62ed3e",
					"approve(address,uint256)": "095ea7b3",
					"apy()": "3bcfc4b8",
					"asset()": "38d52e0f",
					"balanceOf(address)": "70a08231",
					"convertToAssets(uint256)": "07a2d13a",
					"convertToShares(uint256)": "c6e6f592",
					"deallocateFromMarket(address,uint256)": "6ceb1570",
					"decimals()": "313ce567",
					"deposit(uint256,address)": "6e553f65",
					"idleLiquidity()": "92f6b31c",
					"initialize(address,address,string,string,string,uint256,uint256)": "3dce8b38",
					"isMarket(address)": "6ec934da",
					"markets(uint256)": "b1283e77",
					"minDeposit()": "41b3d185",
					"mint(uint256,address)": "94bf804d",
					"name()": "06fdde03",
					"owner()": "8da5cb5b",
					"ownershipTransfer(address)": "d3a417a2",
					"proxiableUUID()": "52d1902d",
					"redeem(uint256,address,address)": "ba087652",
					"symbol()": "95d89b41",
					"title()": "4a79d50c",
					"totalAssets()": "01e1d114",
					"totalSupply()": "18160ddd",
					"transfer(address,uint256)": "a9059cbb",
					"transferFrom(address,address,uint256)": "23b872dd",
					"upgradeTo(address)": "3659cfe6",
					"upgradeToAndCall(address,bytes)": "4f1ef286",
					"withdraw(uint256,address,address)": "b460af94"
				}
			},
			"storageLayout": {
				"storage": [
					{
						"astId": 1600,
						"contract": "contracts/protocol/Vault.sol:Vault",
						"label": "_initialized",
						"offset": 0,
						"slot": "0",
						"type": "t_bool"
					},
					{
						"astId": 1603,
						"contract": "contracts/protocol/Vault.sol:Vault",
						"label": "_initializing",
						"offset": 1,
						"slot": "0",
						"type": "t_bool"
					},
					{
						"astId": 7,
						"contract": "contracts/protocol/Vault.sol:Vault",
						"label": "owner",
						"offset": 2,
						"slot": "0",
						"type": "t_address"
					},
					{
						"astId": 796,
						"contract": "contracts/protocol/Vault.sol:Vault",
						"label": "_name",
						"offset": 0,
						"slot": "1",
						"type": "t_string_storage"
					},
					{
						"astId": 798,
						"contract": "contracts/protocol/Vault.sol:Vault",
						"label": "_symbol",
						"offset": 0,
						"slot": "2",
						"type": "t_string_storage"
					},
					{
						"astId": 800,
						"contract": "contracts/protocol/Vault.sol:Vault",
						"label": "_decimals",
						"offset": 0,
						"slot": "3",
						"type": "t_uint8"
					},
					{
						"astId": 803,
						"contract": "contracts/protocol/Vault.sol:Vault",
						"label": "_totalSupply",
						"offset": 0,
						"slot": "4",
						"type": "t_uint256"
					},
					{
						"astId": 807,
						"contract": "contracts/protocol/Vault.sol:Vault",
						"label": "_balances",
						"offset": 0,
						"slot": "5",
						"type": "t_mapping(t_address,t_uint256)"
					},
					{
						"astId": 813,
						"contract": "contracts/protocol/Vault.sol:Vault",
						"label": "_allowances",
						"offset": 0,
						"slot": "6",
						"type": "t_mapping(t_address,t_mapping(t_address,t_uint256))"
					},
					{
						"astId": 1179,
						"contract": "contracts/protocol/Vault.sol:Vault",
						"label": "_asset",
						"offset": 0,
						"slot": "7",
						"type": "t_contract(IERC20)137"
					},
					{
						"astId": 302,
						"contract": "contracts/protocol/Vault.sol:Vault",
						"label": "title",
						"offset": 0,
						"slot": "8",
						"type": "t_string_storage"
					},
					{
						"astId": 304,
						"contract": "contracts/protocol/Vault.sol:Vault",
						"label": "apy",
						"offset": 0,
						"slot": "9",
						"type": "t_uint256"
					},
					{
						"astId": 306,
						"contract": "contracts/protocol/Vault.sol:Vault",
						"label": "minDeposit",
						"offset": 0,
						"slot": "10",
						"type": "t_uint256"
					},
					{
						"astId": 309,
						"contract": "contracts/protocol/Vault.sol:Vault",
						"label": "markets",
						"offset": 0,
						"slot": "11",
						"type": "t_array(t_address)dyn_storage"
					},
					{
						"astId": 313,
						"contract": "contracts/protocol/Vault.sol:Vault",
						"label": "isMarket",
						"offset": 0,
						"slot": "12",
						"type": "t_mapping(t_address,t_bool)"
					}
				],
				"types": {
					"t_address": {
						"encoding": "inplace",
						"label": "address",
						"numberOfBytes": "20"
					},
					"t_array(t_address)dyn_storage": {
						"base": "t_address",
						"encoding": "dynamic_array",
						"label": "address[]",
						"numberOfBytes": "32"
					},
					"t_bool": {
						"encoding": "inplace",
						"label": "bool",
						"numberOfBytes": "1"
					},
					"t_contract(IERC20)137": {
						"encoding": "inplace",
						"label": "contract IERC20",
						"numberOfBytes": "20"
					},
					"t_mapping(t_address,t_bool)": {
						"encoding": "mapping",
						"key": "t_address",
						"label": "mapping(address => bool)",
						"numberOfBytes": "32",
						"value": "t_bool"
					},
					"t_mapping(t_address,t_mapping(t_address,t_uint256))": {
						"encoding": "mapping",
						"key": "t_address",
						"label": "mapping(address => mapping(address => uint256))",
						"numberOfBytes": "32",
						"value": "t_mapping(t_address,t_uint256)"
					},
					"t_mapping(t_address,t_uint256)": {
						"encoding": "mapping",
						"key": "t_address",
						"label": "mapping(address => uint256)",
						"numberOfBytes": "32",
						"value": "t_uint256"
					},
					"t_string_storage": {
						"encoding": "bytes",
						"label": "string",
						"numberOfBytes": "32"
					},
					"t_uint256": {
						"encoding": "inplace",
						"label": "uint256",
						"numberOfBytes": "32"
					},
					"t_uint8": {
						"encoding": "inplace",
						"label": "uint8",
						"numberOfBytes": "1"
					}
				}
			},
			"userdoc": {
				"kind": "user",
				"methods": {
					"allowance(address,address)": {
						"notice": "Текущий allowance от owner к spender."
					},
					"approve(address,uint256)": {
						"notice": "Установка allowance для spender."
					},
					"asset()": {
						"notice": "Адрес базового актива."
					},
					"balanceOf(address)": {
						"notice": "Баланс аккаунта."
					},
					"convertToAssets(uint256)": {
						"notice": "Конвертация shares в активы."
					},
					"mint(uint256,address)": {
						"notice": "Выпуск shares за соответствующее количество активов."
					},
					"proxiableUUID()": {
						"notice": "UUID UUPS-слота по EIP-1822."
					},
					"redeem(uint256,address,address)": {
						"notice": "Погашение shares в актив."
					},
					"totalAssets()": {
						"notice": "Общие активы под управлением."
					},
					"totalSupply()": {
						"notice": "Общее количество токенов."
					},
					"transfer(address,uint256)": {
						"notice": "Перевод токенов получателю."
					},
					"transferFrom(address,address,uint256)": {
						"notice": "Перевод токенов по allowance."
					},
					"upgradeTo(address)": {
						"notice": "Обновить implementation."
					},
					"upgradeToAndCall(address,bytes)": {
						"notice": "Обновить implementation и сразу вызвать migration-хук."
					}
				},
				"version": 1
			}
		}
	}
}