{
	"contracts/protocol/Market.sol": {
		"Market": {
			"abi": [
				{
					"anonymous": false,
					"inputs": [
						{
							"indexed": true,
							"internalType": "address",
							"name": "borrower",
							"type": "address"
						},
						{
							"indexed": true,
							"internalType": "address",
							"name": "liquidator",
							"type": "address"
						},
						{
							"indexed": false,
							"internalType": "uint256",
							"name": "debt",
							"type": "uint256"
						},
						{
							"indexed": false,
							"internalType": "uint256",
							"name": "rewardCollateral",
							"type": "uint256"
						}
					],
					"name": "Liquidated",
					"type": "event"
				},
				{
					"inputs": [],
					"name": "INDEX_SCALE",
					"outputs": [
						{
							"internalType": "uint256",
							"name": "",
							"type": "uint256"
						}
					],
					"stateMutability": "view",
					"type": "function"
				},
				{
					"inputs": [],
					"name": "accrueInterest",
					"outputs": [],
					"stateMutability": "nonpayable",
					"type": "function"
				},
				{
					"inputs": [],
					"name": "assetManage",
					"outputs": [
						{
							"internalType": "uint256",
							"name": "",
							"type": "uint256"
						}
					],
					"stateMutability": "view",
					"type": "function"
				},
				{
					"inputs": [],
					"name": "availableLiquidity",
					"outputs": [
						{
							"internalType": "uint256",
							"name": "",
							"type": "uint256"
						}
					],
					"stateMutability": "view",
					"type": "function"
				},
				{
					"inputs": [],
					"name": "blocksPerYear",
					"outputs": [
						{
							"internalType": "uint256",
							"name": "",
							"type": "uint256"
						}
					],
					"stateMutability": "view",
					"type": "function"
				},
				{
					"inputs": [
						{
							"internalType": "uint256",
							"name": "amount",
							"type": "uint256"
						}
					],
					"name": "borrow",
					"outputs": [],
					"stateMutability": "nonpayable",
					"type": "function"
				},
				{
					"inputs": [],
					"name": "borrowIndex",
					"outputs": [
						{
							"internalType": "uint256",
							"name": "",
							"type": "uint256"
						}
					],
					"stateMutability": "view",
					"type": "function"
				},
				{
					"inputs": [
						{
							"internalType": "uint256",
							"name": "",
							"type": "uint256"
						}
					],
					"name": "borrowers",
					"outputs": [
						{
							"internalType": "address",
							"name": "",
							"type": "address"
						}
					],
					"stateMutability": "view",
					"type": "function"
				},
				{
					"inputs": [],
					"name": "collateralToken",
					"outputs": [
						{
							"internalType": "contract IERC20",
							"name": "",
							"type": "address"
						}
					],
					"stateMutability": "view",
					"type": "function"
				},
				{
					"inputs": [
						{
							"internalType": "address",
							"name": "borrower",
							"type": "address"
						}
					],
					"name": "currentLtvBps",
					"outputs": [
						{
							"internalType": "uint256",
							"name": "",
							"type": "uint256"
						}
					],
					"stateMutability": "view",
					"type": "function"
				},
				{
					"inputs": [
						{
							"internalType": "address",
							"name": "borrower",
							"type": "address"
						}
					],
					"name": "debtOf",
					"outputs": [
						{
							"internalType": "uint256",
							"name": "",
							"type": "uint256"
						}
					],
					"stateMutability": "view",
					"type": "function"
				},
				{
					"inputs": [
						{
							"internalType": "address",
							"name": "borrower",
							"type": "address"
						}
					],
					"name": "healthFactor",
					"outputs": [
						{
							"internalType": "uint256",
							"name": "",
							"type": "uint256"
						}
					],
					"stateMutability": "view",
					"type": "function"
				},
				{
					"inputs": [
						{
							"components": [
								{
									"internalType": "address",
									"name": "owner",
									"type": "address"
								},
								{
									"internalType": "address",
									"name": "vault",
									"type": "address"
								},
								{
									"internalType": "address",
									"name": "liquidator",
									"type": "address"
								},
								{
									"internalType": "address",
									"name": "treasury",
									"type": "address"
								},
								{
									"internalType": "address",
									"name": "loanToken",
									"type": "address"
								},
								{
									"internalType": "address",
									"name": "collateralToken",
									"type": "address"
								},
								{
									"internalType": "address",
									"name": "oracle",
									"type": "address"
								},
								{
									"internalType": "uint256",
									"name": "lltvBps",
									"type": "uint256"
								},
								{
									"internalType": "uint256",
									"name": "interestRate",
									"type": "uint256"
								},
								{
									"internalType": "uint256",
									"name": "blocksPerYear",
									"type": "uint256"
								},
								{
									"internalType": "uint256",
									"name": "liquidationBonusBps",
									"type": "uint256"
								}
							],
							"internalType": "struct Market.InitParams",
							"name": "p",
							"type": "tuple"
						},
						{
							"internalType": "string",
							"name": "title_",
							"type": "string"
						},
						{
							"internalType": "string",
							"name": "shareName_",
							"type": "string"
						}
					],
					"name": "initialize",
					"outputs": [],
					"stateMutability": "nonpayable",
					"type": "function"
				},
				{
					"inputs": [],
					"name": "interestRate",
					"outputs": [
						{
							"internalType": "uint256",
							"name": "",
							"type": "uint256"
						}
					],
					"stateMutability": "view",
					"type": "function"
				},
				{
					"inputs": [],
					"name": "lastAccrueBlock",
					"outputs": [
						{
							"internalType": "uint256",
							"name": "",
							"type": "uint256"
						}
					],
					"stateMutability": "view",
					"type": "function"
				},
				{
					"inputs": [
						{
							"internalType": "address",
							"name": "borrower",
							"type": "address"
						}
					],
					"name": "liquidate",
					"outputs": [],
					"stateMutability": "nonpayable",
					"type": "function"
				},
				{
					"inputs": [],
					"name": "liquidationBonusBps",
					"outputs": [
						{
							"internalType": "uint256",
							"name": "",
							"type": "uint256"
						}
					],
					"stateMutability": "view",
					"type": "function"
				},
				{
					"inputs": [],
					"name": "liquidator",
					"outputs": [
						{
							"internalType": "address",
							"name": "",
							"type": "address"
						}
					],
					"stateMutability": "view",
					"type": "function"
				},
				{
					"inputs": [],
					"name": "lltvBps",
					"outputs": [
						{
							"internalType": "uint256",
							"name": "",
							"type": "uint256"
						}
					],
					"stateMutability": "view",
					"type": "function"
				},
				{
					"inputs": [],
					"name": "loanToken",
					"outputs": [
						{
							"internalType": "contract IERC20",
							"name": "",
							"type": "address"
						}
					],
					"stateMutability": "view",
					"type": "function"
				},
				{
					"inputs": [
						{
							"internalType": "uint256",
							"name": "amount",
							"type": "uint256"
						}
					],
					"name": "onVaultDeposit",
					"outputs": [],
					"stateMutability": "nonpayable",
					"type": "function"
				},
				{
					"inputs": [
						{
							"internalType": "uint256",
							"name": "amount",
							"type": "uint256"
						}
					],
					"name": "onVaultWithdraw",
					"outputs": [],
					"stateMutability": "nonpayable",
					"type": "function"
				},
				{
					"inputs": [],
					"name": "oracle",
					"outputs": [
						{
							"internalType": "contract IOracle",
							"name": "",
							"type": "address"
						}
					],
					"stateMutability": "view",
					"type": "function"
				},
				{
					"inputs": [],
					"name": "owner",
					"outputs": [
						{
							"internalType": "address",
							"name": "",
							"type": "address"
						}
					],
					"stateMutability": "view",
					"type": "function"
				},
				{
					"inputs": [
						{
							"internalType": "address",
							"name": "newOwner",
							"type": "address"
						}
					],
					"name": "ownershipTransfer",
					"outputs": [],
					"stateMutability": "nonpayable",
					"type": "function"
				},
				{
					"inputs": [
						{
							"internalType": "address",
							"name": "",
							"type": "address"
						}
					],
					"name": "positions",
					"outputs": [
						{
							"internalType": "uint256",
							"name": "borrowShares",
							"type": "uint256"
						},
						{
							"internalType": "uint256",
							"name": "collateralShares",
							"type": "uint256"
						},
						{
							"internalType": "uint256",
							"name": "principal",
							"type": "uint256"
						}
					],
					"stateMutability": "view",
					"type": "function"
				},
				{
					"inputs": [],
					"name": "protocolFeeBps",
					"outputs": [
						{
							"internalType": "uint256",
							"name": "",
							"type": "uint256"
						}
					],
					"stateMutability": "view",
					"type": "function"
				},
				{
					"inputs": [],
					"name": "protocolReserves",
					"outputs": [
						{
							"internalType": "uint256",
							"name": "",
							"type": "uint256"
						}
					],
					"stateMutability": "view",
					"type": "function"
				},
				{
					"inputs": [
						{
							"internalType": "uint256",
							"name": "amount",
							"type": "uint256"
						}
					],
					"name": "repay",
					"outputs": [
						{
							"internalType": "uint256",
							"name": "remainingDebt",
							"type": "uint256"
						}
					],
					"stateMutability": "nonpayable",
					"type": "function"
				},
				{
					"inputs": [
						{
							"internalType": "uint256",
							"name": "newLltvBps",
							"type": "uint256"
						},
						{
							"internalType": "uint256",
							"name": "newInterestRate",
							"type": "uint256"
						},
						{
							"internalType": "uint256",
							"name": "newLiquidationBonusBps",
							"type": "uint256"
						}
					],
					"name": "setRiskParams",
					"outputs": [],
					"stateMutability": "nonpayable",
					"type": "function"
				},
				{
					"inputs": [],
					"name": "shareName",
					"outputs": [
						{
							"internalType": "string",
							"name": "",
							"type": "string"
						}
					],
					"stateMutability": "view",
					"type": "function"
				},
				{
					"inputs": [
						{
							"internalType": "uint256",
							"name": "amount",
							"type": "uint256"
						}
					],
					"name": "supplyCollateral",
					"outputs": [],
					"stateMutability": "nonpayable",
					"type": "function"
				},
				{
					"inputs": [],
					"name": "title",
					"outputs": [
						{
							"internalType": "string",
							"name": "",
							"type": "string"
						}
					],
					"stateMutability": "view",
					"type": "function"
				},
				{
					"inputs": [],
					"name": "totalBorrowShares",
					"outputs": [
						{
							"internalType": "uint256",
							"name": "",
							"type": "uint256"
						}
					],
					"stateMutability": "view",
					"type": "function"
				},
				{
					"inputs": [],
					"name": "totalDebt",
					"outputs": [
						{
							"internalType": "uint256",
							"name": "",
							"type": "uint256"
						}
					],
					"stateMutability": "view",
					"type": "function"
				},
				{
					"inputs": [],
					"name": "treasury",
					"outputs": [
						{
							"internalType": "address",
							"name": "",
							"type": "address"
						}
					],
					"stateMutability": "view",
					"type": "function"
				},
				{
					"inputs": [],
					"name": "vault",
					"outputs": [
						{
							"internalType": "address",
							"name": "",
							"type": "address"
						}
					],
					"stateMutability": "view",
					"type": "function"
				},
				{
					"inputs": [
						{
							"internalType": "uint256",
							"name": "amount",
							"type": "uint256"
						}
					],
					"name": "withdrawCollateral",
					"outputs": [],
					"stateMutability": "nonpayable",
					"type": "function"
				}
			],
			"devdoc": {
				"kind": "dev",
				"methods": {},
				"version": 1
			},
			"evm": {
				"assembly": "    /* \"contracts/protocol/Market.sol\":355:8019  contract Market is Ownable, IMarket {... */\n  mstore(0x40, 0x80)\n  callvalue\n  dup1\n  iszero\n  tag_1\n  jumpi\n  revert(0x00, 0x00)\ntag_1:\n  pop\n  dataSize(sub_0)\n  dup1\n  dataOffset(sub_0)\n  0x00\n  codecopy\n  0x00\n  return\nstop\n\nsub_0: assembly {\n        /* \"contracts/protocol/Market.sol\":355:8019  contract Market is Ownable, IMarket {... */\n      mstore(0x40, 0x80)\n      callvalue\n      dup1\n      iszero\n      tag_1\n      jumpi\n      revert(0x00, 0x00)\n    tag_1:\n      pop\n      jumpi(tag_2, lt(calldatasize, 0x04))\n      shr(0xe0, calldataload(0x00))\n      dup1\n      0x76e9790a\n      gt\n      tag_41\n      jumpi\n      dup1\n      0xb2016bd4\n      gt\n      tag_42\n      jumpi\n      dup1\n      0xd283e75f\n      gt\n      tag_43\n      jumpi\n      dup1\n      0xd283e75f\n      eq\n      tag_36\n      jumpi\n      dup1\n      0xd3a417a2\n      eq\n      tag_37\n      jumpi\n      dup1\n      0xd681a449\n      eq\n      tag_38\n      jumpi\n      dup1\n      0xfbfa77cf\n      eq\n      tag_39\n      jumpi\n      dup1\n      0xfc7b9c18\n      eq\n      tag_40\n      jumpi\n      jump(tag_2)\n    tag_43:\n      dup1\n      0xb2016bd4\n      eq\n      tag_31\n      jumpi\n      dup1\n      0xb3604c96\n      eq\n      tag_32\n      jumpi\n      dup1\n      0xc5ebeaec\n      eq\n      tag_33\n      jumpi\n      dup1\n      0xc82f6d2f\n      eq\n      tag_34\n      jumpi\n      dup1\n      0xced65b01\n      eq\n      tag_35\n      jumpi\n      jump(tag_2)\n    tag_42:\n      dup1\n      0x8da5cb5b\n      gt\n      tag_44\n      jumpi\n      dup1\n      0x8da5cb5b\n      eq\n      tag_26\n      jumpi\n      dup1\n      0xa385fb96\n      eq\n      tag_27\n      jumpi\n      dup1\n      0xa6afed95\n      eq\n      tag_28\n      jumpi\n      dup1\n      0xaa5af0fd\n      eq\n      tag_29\n      jumpi\n      dup1\n      0xb1c0be34\n      eq\n      tag_30\n      jumpi\n      jump(tag_2)\n    tag_44:\n      dup1\n      0x76e9790a\n      eq\n      tag_22\n      jumpi\n      dup1\n      0x7924d93f\n      eq\n      tag_23\n      jumpi\n      dup1\n      0x7c3a00fd\n      eq\n      tag_24\n      jumpi\n      dup1\n      0x7dc0d1d0\n      eq\n      tag_25\n      jumpi\n      jump(tag_2)\n    tag_41:\n      dup1\n      0x3e3722b6\n      gt\n      tag_45\n      jumpi\n      dup1\n      0x6112fe2e\n      gt\n      tag_46\n      jumpi\n      dup1\n      0x6112fe2e\n      eq\n      tag_17\n      jumpi\n      dup1\n      0x61d027b3\n      eq\n      tag_18\n      jumpi\n      dup1\n      0x6711a640\n      eq\n      tag_19\n      jumpi\n      dup1\n      0x6ad9f9df\n      eq\n      tag_20\n      jumpi\n      dup1\n      0x74375359\n      eq\n      tag_21\n      jumpi\n      jump(tag_2)\n    tag_46:\n      dup1\n      0x3e3722b6\n      eq\n      tag_12\n      jumpi\n      dup1\n      0x4046ebae\n      eq\n      tag_13\n      jumpi\n      dup1\n      0x4a79d50c\n      eq\n      tag_14\n      jumpi\n      dup1\n      0x4b92917a\n      eq\n      tag_15\n      jumpi\n      dup1\n      0x55f57510\n      eq\n      tag_16\n      jumpi\n      jump(tag_2)\n    tag_45:\n      dup1\n      0x29962904\n      gt\n      tag_47\n      jumpi\n      dup1\n      0x29962904\n      eq\n      tag_7\n      jumpi\n      dup1\n      0x2f865568\n      eq\n      tag_8\n      jumpi\n      dup1\n      0x35659fb8\n      eq\n      tag_9\n      jumpi\n      dup1\n      0x367febea\n      eq\n      tag_10\n      jumpi\n      dup1\n      0x371fd8e6\n      eq\n      tag_11\n      jumpi\n      jump(tag_2)\n    tag_47:\n      dup1\n      0x06d37817\n      eq\n      tag_3\n      jumpi\n      dup1\n      0x136cf1f7\n      eq\n      tag_4\n      jumpi\n      dup1\n      0x19970d8e\n      eq\n      tag_5\n      jumpi\n      dup1\n      0x27776ab5\n      eq\n      tag_6\n      jumpi\n    tag_2:\n      revert(0x00, 0x00)\n        /* \"contracts/protocol/Market.sol\":912:935  IERC20 public loanToken */\n    tag_3:\n      tag_48\n      tag_49\n      jump\t// in\n    tag_48:\n      mload(0x40)\n      tag_50\n      swap2\n      swap1\n      tag_51\n      jump\t// in\n    tag_50:\n      mload(0x40)\n      dup1\n      swap2\n      sub\n      swap1\n      return\n        /* \"contracts/protocol/Market.sol\":1335:1364  uint public totalBorrowShares */\n    tag_4:\n      tag_52\n      tag_53\n      jump\t// in\n    tag_52:\n      mload(0x40)\n      tag_54\n      swap2\n      swap1\n      tag_55\n      jump\t// in\n    tag_54:\n      mload(0x40)\n      dup1\n      swap2\n      sub\n      swap1\n      return\n        /* \"contracts/protocol/Market.sol\":1232:1263  uint public liquidationBonusBps */\n    tag_5:\n      tag_56\n      tag_57\n      jump\t// in\n    tag_56:\n      mload(0x40)\n      tag_58\n      swap2\n      swap1\n      tag_55\n      jump\t// in\n    tag_58:\n      mload(0x40)\n      dup1\n      swap2\n      sub\n      swap1\n      return\n        /* \"contracts/protocol/Market.sol\":397:436  uint public constant INDEX_SCALE = 1e18 */\n    tag_6:\n      tag_59\n      tag_60\n      jump\t// in\n    tag_59:\n      mload(0x40)\n      tag_61\n      swap2\n      swap1\n      tag_55\n      jump\t// in\n    tag_61:\n      mload(0x40)\n      dup1\n      swap2\n      sub\n      swap1\n      return\n        /* \"contracts/protocol/Market.sol\":1399:1426  uint public lastAccrueBlock */\n    tag_7:\n      tag_62\n      tag_63\n      jump\t// in\n    tag_62:\n      mload(0x40)\n      tag_64\n      swap2\n      swap1\n      tag_55\n      jump\t// in\n    tag_64:\n      mload(0x40)\n      dup1\n      swap2\n      sub\n      swap1\n      return\n        /* \"contracts/protocol/Market.sol\":6787:7412  function liquidate(address borrower) external onlyLiquidatorOrOwner {... */\n    tag_8:\n      tag_65\n      0x04\n      dup1\n      calldatasize\n      sub\n      dup2\n      add\n      swap1\n      tag_66\n      swap2\n      swap1\n      tag_67\n      jump\t// in\n    tag_66:\n      tag_68\n      jump\t// in\n    tag_65:\n      stop\n        /* \"contracts/protocol/Market.sol\":1303:1329  uint public protocolFeeBps */\n    tag_9:\n      tag_69\n      tag_70\n      jump\t// in\n    tag_69:\n      mload(0x40)\n      tag_71\n      swap2\n      swap1\n      tag_55\n      jump\t// in\n    tag_71:\n      mload(0x40)\n      dup1\n      swap2\n      sub\n      swap1\n      return\n        /* \"contracts/protocol/Market.sol\":4841:5057  function supplyCollateral(uint amount) external {... */\n    tag_10:\n      tag_72\n      0x04\n      dup1\n      calldatasize\n      sub\n      dup2\n      add\n      swap1\n      tag_73\n      swap2\n      swap1\n      tag_74\n      jump\t// in\n    tag_73:\n      tag_75\n      jump\t// in\n    tag_72:\n      stop\n        /* \"contracts/protocol/Market.sol\":5928:6781  function repay(uint amount) external returns (uint remainingDebt) {... */\n    tag_11:\n      tag_76\n      0x04\n      dup1\n      calldatasize\n      sub\n      dup2\n      add\n      swap1\n      tag_77\n      swap2\n      swap1\n      tag_74\n      jump\t// in\n    tag_77:\n      tag_78\n      jump\t// in\n    tag_76:\n      mload(0x40)\n      tag_79\n      swap2\n      swap1\n      tag_55\n      jump\t// in\n    tag_79:\n      mload(0x40)\n      dup1\n      swap2\n      sub\n      swap1\n      return\n        /* \"contracts/protocol/Market.sol\":7482:7589  function onVaultWithdraw(uint amount) external onlyVault {... */\n    tag_12:\n      tag_80\n      0x04\n      dup1\n      calldatasize\n      sub\n      dup2\n      add\n      swap1\n      tag_81\n      swap2\n      swap1\n      tag_74\n      jump\t// in\n    tag_81:\n      tag_82\n      jump\t// in\n    tag_80:\n      stop\n        /* \"contracts/protocol/Market.sol\":1114:1139  address public liquidator */\n    tag_13:\n      tag_83\n      tag_84\n      jump\t// in\n    tag_83:\n      mload(0x40)\n      tag_85\n      swap2\n      swap1\n      tag_86\n      jump\t// in\n    tag_85:\n      mload(0x40)\n      dup1\n      swap2\n      sub\n      swap1\n      return\n        /* \"contracts/protocol/Market.sol\":1004:1023  string public title */\n    tag_14:\n      tag_87\n      tag_88\n      jump\t// in\n    tag_87:\n      mload(0x40)\n      tag_89\n      swap2\n      swap1\n      tag_90\n      jump\t// in\n    tag_89:\n      mload(0x40)\n      dup1\n      swap2\n      sub\n      swap1\n      return\n        /* \"contracts/protocol/Market.sol\":7418:7476  function onVaultDeposit(uint amount) external onlyVault {} */\n    tag_15:\n      tag_91\n      0x04\n      dup1\n      calldatasize\n      sub\n      dup2\n      add\n      swap1\n      tag_92\n      swap2\n      swap1\n      tag_74\n      jump\t// in\n    tag_92:\n      tag_93\n      jump\t// in\n    tag_91:\n      stop\n        /* \"contracts/protocol/Market.sol\":1433:1478  mapping(address => Position) public positions */\n    tag_16:\n      tag_94\n      0x04\n      dup1\n      calldatasize\n      sub\n      dup2\n      add\n      swap1\n      tag_95\n      swap2\n      swap1\n      tag_67\n      jump\t// in\n    tag_95:\n      tag_96\n      jump\t// in\n    tag_94:\n      mload(0x40)\n      tag_97\n      swap4\n      swap3\n      swap2\n      swap1\n      tag_98\n      jump\t// in\n    tag_97:\n      mload(0x40)\n      dup1\n      swap2\n      sub\n      swap1\n      return\n        /* \"contracts/protocol/Market.sol\":5063:5335  function withdrawCollateral(uint amount) external {... */\n    tag_17:\n      tag_99\n      0x04\n      dup1\n      calldatasize\n      sub\n      dup2\n      add\n      swap1\n      tag_100\n      swap2\n      swap1\n      tag_74\n      jump\t// in\n    tag_100:\n      tag_101\n      jump\t// in\n    tag_99:\n      stop\n        /* \"contracts/protocol/Market.sol\":1085:1108  address public treasury */\n    tag_18:\n      tag_102\n      tag_103\n      jump\t// in\n    tag_102:\n      mload(0x40)\n      tag_104\n      swap2\n      swap1\n      tag_86\n      jump\t// in\n    tag_104:\n      mload(0x40)\n      dup1\n      swap2\n      sub\n      swap1\n      return\n        /* \"contracts/protocol/Market.sol\":4417:4835  function currentLtvBps(address borrower) public view returns (uint) {... */\n    tag_19:\n      tag_105\n      0x04\n      dup1\n      calldatasize\n      sub\n      dup2\n      add\n      swap1\n      tag_106\n      swap2\n      swap1\n      tag_67\n      jump\t// in\n    tag_106:\n      tag_107\n      jump\t// in\n    tag_105:\n      mload(0x40)\n      tag_108\n      swap2\n      swap1\n      tag_55\n      jump\t// in\n    tag_108:\n      mload(0x40)\n      dup1\n      swap2\n      sub\n      swap1\n      return\n        /* \"contracts/protocol/Market.sol\":5341:5550  function healthFactor(address borrower) public view returns (uint) {... */\n    tag_20:\n      tag_109\n      0x04\n      dup1\n      calldatasize\n      sub\n      dup2\n      add\n      swap1\n      tag_110\n      swap2\n      swap1\n      tag_67\n      jump\t// in\n    tag_110:\n      tag_111\n      jump\t// in\n    tag_109:\n      mload(0x40)\n      tag_112\n      swap2\n      swap1\n      tag_55\n      jump\t// in\n    tag_112:\n      mload(0x40)\n      dup1\n      swap2\n      sub\n      swap1\n      return\n        /* \"contracts/protocol/Market.sol\":2965:3154  function availableLiquidity() public view returns (uint) {... */\n    tag_21:\n      tag_113\n      tag_114\n      jump\t// in\n    tag_113:\n      mload(0x40)\n      tag_115\n      swap2\n      swap1\n      tag_55\n      jump\t// in\n    tag_115:\n      mload(0x40)\n      dup1\n      swap2\n      sub\n      swap1\n      return\n        /* \"contracts/protocol/Market.sol\":1029:1052  string public shareName */\n    tag_22:\n      tag_116\n      tag_117\n      jump\t// in\n    tag_116:\n      mload(0x40)\n      tag_118\n      swap2\n      swap1\n      tag_90\n      jump\t// in\n    tag_118:\n      mload(0x40)\n      dup1\n      swap2\n      sub\n      swap1\n      return\n        /* \"contracts/protocol/Market.sol\":442:468  address[] public borrowers */\n    tag_23:\n      tag_119\n      0x04\n      dup1\n      calldatasize\n      sub\n      dup2\n      add\n      swap1\n      tag_120\n      swap2\n      swap1\n      tag_74\n      jump\t// in\n    tag_120:\n      tag_121\n      jump\t// in\n    tag_119:\n      mload(0x40)\n      tag_122\n      swap2\n      swap1\n      tag_86\n      jump\t// in\n    tag_122:\n      mload(0x40)\n      dup1\n      swap2\n      sub\n      swap1\n      return\n        /* \"contracts/protocol/Market.sol\":1171:1195  uint public interestRate */\n    tag_24:\n      tag_123\n      tag_124\n      jump\t// in\n    tag_123:\n      mload(0x40)\n      tag_125\n      swap2\n      swap1\n      tag_55\n      jump\t// in\n    tag_125:\n      mload(0x40)\n      dup1\n      swap2\n      sub\n      swap1\n      return\n        /* \"contracts/protocol/Market.sol\":976:997  IOracle public oracle */\n    tag_25:\n      tag_126\n      tag_127\n      jump\t// in\n    tag_126:\n      mload(0x40)\n      tag_128\n      swap2\n      swap1\n      tag_129\n      jump\t// in\n    tag_128:\n      mload(0x40)\n      dup1\n      swap2\n      sub\n      swap1\n      return\n        /* \"contracts/acess/Ownable.sol\":133:153  address public owner */\n    tag_26:\n      tag_130\n      tag_131\n      jump\t// in\n    tag_130:\n      mload(0x40)\n      tag_132\n      swap2\n      swap1\n      tag_86\n      jump\t// in\n    tag_132:\n      mload(0x40)\n      dup1\n      swap2\n      sub\n      swap1\n      return\n        /* \"contracts/protocol/Market.sol\":1201:1226  uint public blocksPerYear */\n    tag_27:\n      tag_133\n      tag_134\n      jump\t// in\n    tag_133:\n      mload(0x40)\n      tag_135\n      swap2\n      swap1\n      tag_55\n      jump\t// in\n    tag_135:\n      mload(0x40)\n      dup1\n      swap2\n      sub\n      swap1\n      return\n        /* \"contracts/protocol/Market.sol\":2581:2959  function accrueInterest() public {... */\n    tag_28:\n      tag_136\n      tag_137\n      jump\t// in\n    tag_136:\n      stop\n        /* \"contracts/protocol/Market.sol\":1370:1393  uint public borrowIndex */\n    tag_29:\n      tag_138\n      tag_139\n      jump\t// in\n    tag_138:\n      mload(0x40)\n      tag_140\n      swap2\n      swap1\n      tag_55\n      jump\t// in\n    tag_140:\n      mload(0x40)\n      dup1\n      swap2\n      sub\n      swap1\n      return\n        /* \"contracts/protocol/Market.sol\":1840:2575  function initialize(... */\n    tag_30:\n      tag_141\n      0x04\n      dup1\n      calldatasize\n      sub\n      dup2\n      add\n      swap1\n      tag_142\n      swap2\n      swap1\n      tag_143\n      jump\t// in\n    tag_142:\n      tag_144\n      jump\t// in\n    tag_141:\n      stop\n        /* \"contracts/protocol/Market.sol\":941:970  IERC20 public collateralToken */\n    tag_31:\n      tag_145\n      tag_146\n      jump\t// in\n    tag_145:\n      mload(0x40)\n      tag_147\n      swap2\n      swap1\n      tag_51\n      jump\t// in\n    tag_147:\n      mload(0x40)\n      dup1\n      swap2\n      sub\n      swap1\n      return\n        /* \"contracts/protocol/Market.sol\":1146:1165  uint public lltvBps */\n    tag_32:\n      tag_148\n      tag_149\n      jump\t// in\n    tag_148:\n      mload(0x40)\n      tag_150\n      swap2\n      swap1\n      tag_55\n      jump\t// in\n    tag_150:\n      mload(0x40)\n      dup1\n      swap2\n      sub\n      swap1\n      return\n        /* \"contracts/protocol/Market.sol\":5556:5922  function borrow(uint amount) external {... */\n    tag_33:\n      tag_151\n      0x04\n      dup1\n      calldatasize\n      sub\n      dup2\n      add\n      swap1\n      tag_152\n      swap2\n      swap1\n      tag_74\n      jump\t// in\n    tag_152:\n      tag_153\n      jump\t// in\n    tag_151:\n      stop\n        /* \"contracts/protocol/Market.sol\":4303:4411  function assetManage() public view returns (uint) {... */\n    tag_34:\n      tag_154\n      tag_155\n      jump\t// in\n    tag_154:\n      mload(0x40)\n      tag_156\n      swap2\n      swap1\n      tag_55\n      jump\t// in\n    tag_156:\n      mload(0x40)\n      dup1\n      swap2\n      sub\n      swap1\n      return\n        /* \"contracts/protocol/Market.sol\":7594:8017  function setRiskParams(... */\n    tag_35:\n      tag_157\n      0x04\n      dup1\n      calldatasize\n      sub\n      dup2\n      add\n      swap1\n      tag_158\n      swap2\n      swap1\n      tag_159\n      jump\t// in\n    tag_158:\n      tag_160\n      jump\t// in\n    tag_157:\n      stop\n        /* \"contracts/protocol/Market.sol\":4078:4297  function debtOf(address borrower) public view returns (uint) {... */\n    tag_36:\n      tag_161\n      0x04\n      dup1\n      calldatasize\n      sub\n      dup2\n      add\n      swap1\n      tag_162\n      swap2\n      swap1\n      tag_67\n      jump\t// in\n    tag_162:\n      tag_163\n      jump\t// in\n    tag_161:\n      mload(0x40)\n      tag_164\n      swap2\n      swap1\n      tag_55\n      jump\t// in\n    tag_164:\n      mload(0x40)\n      dup1\n      swap2\n      sub\n      swap1\n      return\n        /* \"contracts/acess/Ownable.sol\":394:532  function ownershipTransfer(address newOwner) external onlyOwner {... */\n    tag_37:\n      tag_165\n      0x04\n      dup1\n      calldatasize\n      sub\n      dup2\n      add\n      swap1\n      tag_166\n      swap2\n      swap1\n      tag_67\n      jump\t// in\n    tag_166:\n      tag_167\n      jump\t// in\n    tag_165:\n      stop\n        /* \"contracts/protocol/Market.sol\":1269:1297  uint public protocolReserves */\n    tag_38:\n      tag_168\n      tag_169\n      jump\t// in\n    tag_168:\n      mload(0x40)\n      tag_170\n      swap2\n      swap1\n      tag_55\n      jump\t// in\n    tag_170:\n      mload(0x40)\n      dup1\n      swap2\n      sub\n      swap1\n      return\n        /* \"contracts/protocol/Market.sol\":1059:1079  address public vault */\n    tag_39:\n      tag_171\n      tag_172\n      jump\t// in\n    tag_171:\n      mload(0x40)\n      tag_173\n      swap2\n      swap1\n      tag_86\n      jump\t// in\n    tag_173:\n      mload(0x40)\n      dup1\n      swap2\n      sub\n      swap1\n      return\n        /* \"contracts/protocol/Market.sol\":3868:4072  function totalDebt() public view returns (uint) {... */\n    tag_40:\n      tag_174\n      tag_175\n      jump\t// in\n    tag_174:\n      mload(0x40)\n      tag_176\n      swap2\n      swap1\n      tag_55\n      jump\t// in\n    tag_176:\n      mload(0x40)\n      dup1\n      swap2\n      sub\n      swap1\n      return\n        /* \"contracts/protocol/Market.sol\":912:935  IERC20 public loanToken */\n    tag_49:\n      0x02\n      0x00\n      swap1\n      sload\n      swap1\n      0x0100\n      exp\n      swap1\n      div\n      0xffffffffffffffffffffffffffffffffffffffff\n      and\n      dup2\n      jump\t// out\n        /* \"contracts/protocol/Market.sol\":1335:1364  uint public totalBorrowShares */\n    tag_53:\n      sload(0x10)\n      dup2\n      jump\t// out\n        /* \"contracts/protocol/Market.sol\":1232:1263  uint public liquidationBonusBps */\n    tag_57:\n      sload(0x0d)\n      dup2\n      jump\t// out\n        /* \"contracts/protocol/Market.sol\":397:436  uint public constant INDEX_SCALE = 1e18 */\n    tag_60:\n        /* \"contracts/protocol/Market.sol\":432:436  1e18 */\n      0x0de0b6b3a7640000\n        /* \"contracts/protocol/Market.sol\":397:436  uint public constant INDEX_SCALE = 1e18 */\n      dup2\n      jump\t// out\n        /* \"contracts/protocol/Market.sol\":1399:1426  uint public lastAccrueBlock */\n    tag_63:\n      sload(0x12)\n      dup2\n      jump\t// out\n        /* \"contracts/protocol/Market.sol\":6787:7412  function liquidate(address borrower) external onlyLiquidatorOrOwner {... */\n    tag_68:\n        /* \"contracts/protocol/Market.sol\":1633:1643  liquidator */\n      0x09\n      0x00\n      swap1\n      sload\n      swap1\n      0x0100\n      exp\n      swap1\n      div\n      0xffffffffffffffffffffffffffffffffffffffff\n      and\n        /* \"contracts/protocol/Market.sol\":1619:1643  msg.sender == liquidator */\n      0xffffffffffffffffffffffffffffffffffffffff\n      and\n        /* \"contracts/protocol/Market.sol\":1619:1629  msg.sender */\n      caller\n        /* \"contracts/protocol/Market.sol\":1619:1643  msg.sender == liquidator */\n      0xffffffffffffffffffffffffffffffffffffffff\n      and\n      eq\n        /* \"contracts/protocol/Market.sol\":1619:1666  msg.sender == liquidator || msg.sender == owner */\n      dup1\n      tag_178\n      jumpi\n      pop\n        /* \"contracts/protocol/Market.sol\":1661:1666  owner */\n      0x00\n      0x02\n      swap1\n      sload\n      swap1\n      0x0100\n      exp\n      swap1\n      div\n      0xffffffffffffffffffffffffffffffffffffffff\n      and\n        /* \"contracts/protocol/Market.sol\":1647:1666  msg.sender == owner */\n      0xffffffffffffffffffffffffffffffffffffffff\n      and\n        /* \"contracts/protocol/Market.sol\":1647:1657  msg.sender */\n      caller\n        /* \"contracts/protocol/Market.sol\":1647:1666  msg.sender == owner */\n      0xffffffffffffffffffffffffffffffffffffffff\n      and\n      eq\n        /* \"contracts/protocol/Market.sol\":1619:1666  msg.sender == liquidator || msg.sender == owner */\n    tag_178:\n        /* \"contracts/protocol/Market.sol\":1611:1667  require(msg.sender == liquidator || msg.sender == owner) */\n      tag_179\n      jumpi\n      revert(0x00, 0x00)\n    tag_179:\n        /* \"contracts/protocol/Market.sol\":6865:6881  accrueInterest() */\n      tag_181\n        /* \"contracts/protocol/Market.sol\":6865:6879  accrueInterest */\n      tag_137\n        /* \"contracts/protocol/Market.sol\":6865:6881  accrueInterest() */\n      jump\t// in\n    tag_181:\n        /* \"contracts/protocol/Market.sol\":6892:6910  Position storage p */\n      0x00\n        /* \"contracts/protocol/Market.sol\":6913:6922  positions */\n      0x13\n        /* \"contracts/protocol/Market.sol\":6913:6932  positions[borrower] */\n      0x00\n        /* \"contracts/protocol/Market.sol\":6923:6931  borrower */\n      dup4\n        /* \"contracts/protocol/Market.sol\":6913:6932  positions[borrower] */\n      0xffffffffffffffffffffffffffffffffffffffff\n      and\n      0xffffffffffffffffffffffffffffffffffffffff\n      and\n      dup2\n      mstore\n      0x20\n      add\n      swap1\n      dup2\n      mstore\n      0x20\n      add\n      0x00\n      keccak256\n        /* \"contracts/protocol/Market.sol\":6892:6932  Position storage p = positions[borrower] */\n      swap1\n      pop\n        /* \"contracts/protocol/Market.sol\":6942:6951  uint debt */\n      0x00\n        /* \"contracts/protocol/Market.sol\":6954:6970  debtOf(borrower) */\n      tag_182\n        /* \"contracts/protocol/Market.sol\":6961:6969  borrower */\n      dup4\n        /* \"contracts/protocol/Market.sol\":6954:6960  debtOf */\n      tag_163\n        /* \"contracts/protocol/Market.sol\":6954:6970  debtOf(borrower) */\n      jump\t// in\n    tag_182:\n        /* \"contracts/protocol/Market.sol\":6942:6970  uint debt = debtOf(borrower) */\n      swap1\n      pop\n        /* \"contracts/protocol/Market.sol\":6981:6992  uint reward */\n      0x00\n        /* \"contracts/protocol/Market.sol\":7040:7045  10000 */\n      0x2710\n        /* \"contracts/protocol/Market.sol\":7017:7036  liquidationBonusBps */\n      sload(0x0d)\n        /* \"contracts/protocol/Market.sol\":6996:6997  p */\n      dup5\n        /* \"contracts/protocol/Market.sol\":6996:7014  p.collateralShares */\n      0x01\n      add\n      sload\n        /* \"contracts/protocol/Market.sol\":6996:7036  p.collateralShares * liquidationBonusBps */\n      tag_183\n      swap2\n      swap1\n      tag_184\n      jump\t// in\n    tag_183:\n        /* \"contracts/protocol/Market.sol\":6995:7045  (p.collateralShares * liquidationBonusBps) / 10000 */\n      tag_185\n      swap2\n      swap1\n      tag_186\n      jump\t// in\n    tag_185:\n        /* \"contracts/protocol/Market.sol\":6981:7045  uint reward = (p.collateralShares * liquidationBonusBps) / 10000 */\n      swap1\n      pop\n        /* \"contracts/protocol/Market.sol\":7055:7069  uint remainder */\n      0x00\n        /* \"contracts/protocol/Market.sol\":7093:7099  reward */\n      dup2\n        /* \"contracts/protocol/Market.sol\":7072:7073  p */\n      dup5\n        /* \"contracts/protocol/Market.sol\":7072:7090  p.collateralShares */\n      0x01\n      add\n      sload\n        /* \"contracts/protocol/Market.sol\":7072:7099  p.collateralShares - reward */\n      tag_187\n      swap2\n      swap1\n      tag_188\n      jump\t// in\n    tag_187:\n        /* \"contracts/protocol/Market.sol\":7055:7099  uint remainder = p.collateralShares - reward */\n      swap1\n      pop\n        /* \"contracts/protocol/Market.sol\":7119:7139  _isHealthy(borrower) */\n      tag_189\n        /* \"contracts/protocol/Market.sol\":7130:7138  borrower */\n      dup6\n        /* \"contracts/protocol/Market.sol\":7119:7129  _isHealthy */\n      tag_190\n        /* \"contracts/protocol/Market.sol\":7119:7139  _isHealthy(borrower) */\n      jump\t// in\n    tag_189:\n        /* \"contracts/protocol/Market.sol\":7118:7139  !_isHealthy(borrower) */\n      iszero\n        /* \"contracts/protocol/Market.sol\":7110:7140  require(!_isHealthy(borrower)) */\n      tag_191\n      jumpi\n      revert(0x00, 0x00)\n    tag_191:\n        /* \"contracts/protocol/Market.sol\":7150:7159  loanToken */\n      0x02\n      0x00\n      swap1\n      sload\n      swap1\n      0x0100\n      exp\n      swap1\n      div\n      0xffffffffffffffffffffffffffffffffffffffff\n      and\n        /* \"contracts/protocol/Market.sol\":7150:7168  loanToken.transfer */\n      0xffffffffffffffffffffffffffffffffffffffff\n      and\n      0xa9059cbb\n        /* \"contracts/protocol/Market.sol\":7169:7179  msg.sender */\n      caller\n        /* \"contracts/protocol/Market.sol\":7181:7187  reward */\n      dup5\n        /* \"contracts/protocol/Market.sol\":7150:7188  loanToken.transfer(msg.sender, reward) */\n      mload(0x40)\n      dup4\n      0xffffffff\n      and\n      0xe0\n      shl\n      dup2\n      mstore\n      0x04\n      add\n      tag_192\n      swap3\n      swap2\n      swap1\n      tag_193\n      jump\t// in\n    tag_192:\n      0x20\n      mload(0x40)\n      dup1\n      dup4\n      sub\n      dup2\n      0x00\n      dup8\n      gas\n      call\n      iszero\n      dup1\n      iszero\n      tag_195\n      jumpi\n      returndatacopy(0x00, 0x00, returndatasize)\n      revert(0x00, returndatasize)\n    tag_195:\n      pop\n      pop\n      pop\n      pop\n      mload(0x40)\n      returndatasize\n      not(0x1f)\n      0x1f\n      dup3\n      add\n      and\n      dup3\n      add\n      dup1\n      0x40\n      mstore\n      pop\n      dup2\n      add\n      swap1\n      tag_196\n      swap2\n      swap1\n      tag_197\n      jump\t// in\n    tag_196:\n      pop\n        /* \"contracts/protocol/Market.sol\":7198:7207  loanToken */\n      0x02\n      0x00\n      swap1\n      sload\n      swap1\n      0x0100\n      exp\n      swap1\n      div\n      0xffffffffffffffffffffffffffffffffffffffff\n      and\n        /* \"contracts/protocol/Market.sol\":7198:7216  loanToken.transfer */\n      0xffffffffffffffffffffffffffffffffffffffff\n      and\n      0xa9059cbb\n        /* \"contracts/protocol/Market.sol\":7217:7225  treasury */\n      0x08\n      0x00\n      swap1\n      sload\n      swap1\n      0x0100\n      exp\n      swap1\n      div\n      0xffffffffffffffffffffffffffffffffffffffff\n      and\n        /* \"contracts/protocol/Market.sol\":7227:7236  remainder */\n      dup4\n        /* \"contracts/protocol/Market.sol\":7198:7237  loanToken.transfer(treasury, remainder) */\n      mload(0x40)\n      dup4\n      0xffffffff\n      and\n      0xe0\n      shl\n      dup2\n      mstore\n      0x04\n      add\n      tag_198\n      swap3\n      swap2\n      swap1\n      tag_193\n      jump\t// in\n    tag_198:\n      0x20\n      mload(0x40)\n      dup1\n      dup4\n      sub\n      dup2\n      0x00\n      dup8\n      gas\n      call\n      iszero\n      dup1\n      iszero\n      tag_200\n      jumpi\n      returndatacopy(0x00, 0x00, returndatasize)\n      revert(0x00, returndatasize)\n    tag_200:\n      pop\n      pop\n      pop\n      pop\n      mload(0x40)\n      returndatasize\n      not(0x1f)\n      0x1f\n      dup3\n      add\n      and\n      dup3\n      add\n      dup1\n      0x40\n      mstore\n      pop\n      dup2\n      add\n      swap1\n      tag_201\n      swap2\n      swap1\n      tag_197\n      jump\t// in\n    tag_201:\n      pop\n        /* \"contracts/protocol/Market.sol\":7269:7270  p */\n      dup4\n        /* \"contracts/protocol/Market.sol\":7269:7283  p.borrowShares */\n      0x00\n      add\n      sload\n        /* \"contracts/protocol/Market.sol\":7248:7265  totalBorrowShares */\n      0x10\n      0x00\n        /* \"contracts/protocol/Market.sol\":7248:7283  totalBorrowShares -= p.borrowShares */\n      dup3\n      dup3\n      sload\n      tag_202\n      swap2\n      swap1\n      tag_188\n      jump\t// in\n    tag_202:\n      swap3\n      pop\n      pop\n      dup2\n      swap1\n      sstore\n      pop\n        /* \"contracts/protocol/Market.sol\":7300:7309  positions */\n      0x13\n        /* \"contracts/protocol/Market.sol\":7300:7319  positions[borrower] */\n      0x00\n        /* \"contracts/protocol/Market.sol\":7310:7318  borrower */\n      dup7\n        /* \"contracts/protocol/Market.sol\":7300:7319  positions[borrower] */\n      0xffffffffffffffffffffffffffffffffffffffff\n      and\n      0xffffffffffffffffffffffffffffffffffffffff\n      and\n      dup2\n      mstore\n      0x20\n      add\n      swap1\n      dup2\n      mstore\n      0x20\n      add\n      0x00\n      keccak256\n      0x00\n        /* \"contracts/protocol/Market.sol\":7293:7319  delete positions[borrower] */\n      0x00\n      dup3\n      add\n      0x00\n      swap1\n      sstore\n      0x01\n      dup3\n      add\n      0x00\n      swap1\n      sstore\n      0x02\n      dup3\n      add\n      0x00\n      swap1\n      sstore\n      pop\n      pop\n        /* \"contracts/protocol/Market.sol\":7329:7338  borrowers */\n      0x01\n        /* \"contracts/protocol/Market.sol\":7329:7344  borrowers.pop() */\n      dup1\n      sload\n      dup1\n      tag_203\n      jumpi\n      tag_204\n      tag_205\n      jump\t// in\n    tag_204:\n    tag_203:\n      0x01\n      swap1\n      sub\n      dup2\n      dup2\n      swap1\n      0x00\n      mstore\n      keccak256(0x00, 0x20)\n      add\n      exp(0x0100, 0x00)\n      dup2\n      sload\n      swap1\n      0xffffffffffffffffffffffffffffffffffffffff\n      mul\n      not\n      and\n      swap1\n      sstore\n      swap1\n      sstore\n        /* \"contracts/protocol/Market.sol\":7380:7390  msg.sender */\n      caller\n        /* \"contracts/protocol/Market.sol\":7359:7405  Liquidated(borrower, msg.sender, debt, reward) */\n      0xffffffffffffffffffffffffffffffffffffffff\n      and\n        /* \"contracts/protocol/Market.sol\":7370:7378  borrower */\n      dup6\n        /* \"contracts/protocol/Market.sol\":7359:7405  Liquidated(borrower, msg.sender, debt, reward) */\n      0xffffffffffffffffffffffffffffffffffffffff\n      and\n      0x1f0c6615429d1cdae0dfa233abf91d3b31cdbdd82c8081389832a61e1072f1ea\n        /* \"contracts/protocol/Market.sol\":7392:7396  debt */\n      dup6\n        /* \"contracts/protocol/Market.sol\":7398:7404  reward */\n      dup6\n        /* \"contracts/protocol/Market.sol\":7359:7405  Liquidated(borrower, msg.sender, debt, reward) */\n      mload(0x40)\n      tag_207\n      swap3\n      swap2\n      swap1\n      tag_208\n      jump\t// in\n    tag_207:\n      mload(0x40)\n      dup1\n      swap2\n      sub\n      swap1\n      log3\n        /* \"contracts/protocol/Market.sol\":6855:7412  {... */\n      pop\n      pop\n      pop\n      pop\n        /* \"contracts/protocol/Market.sol\":6787:7412  function liquidate(address borrower) external onlyLiquidatorOrOwner {... */\n      pop\n      jump\t// out\n        /* \"contracts/protocol/Market.sol\":1303:1329  uint public protocolFeeBps */\n    tag_70:\n      sload(0x0f)\n      dup2\n      jump\t// out\n        /* \"contracts/protocol/Market.sol\":4841:5057  function supplyCollateral(uint amount) external {... */\n    tag_75:\n        /* \"contracts/protocol/Market.sol\":4916:4917  0 */\n      0x00\n        /* \"contracts/protocol/Market.sol\":4907:4913  amount */\n      dup2\n        /* \"contracts/protocol/Market.sol\":4907:4917  amount > 0 */\n      gt\n        /* \"contracts/protocol/Market.sol\":4899:4918  require(amount > 0) */\n      tag_210\n      jumpi\n      revert(0x00, 0x00)\n    tag_210:\n        /* \"contracts/protocol/Market.sol\":4929:4944  collateralToken */\n      0x03\n      0x00\n      swap1\n      sload\n      swap1\n      0x0100\n      exp\n      swap1\n      div\n      0xffffffffffffffffffffffffffffffffffffffff\n      and\n        /* \"contracts/protocol/Market.sol\":4929:4957  collateralToken.transferFrom */\n      0xffffffffffffffffffffffffffffffffffffffff\n      and\n      0x23b872dd\n        /* \"contracts/protocol/Market.sol\":4958:4968  msg.sender */\n      caller\n        /* \"contracts/protocol/Market.sol\":4978:4982  this */\n      address\n        /* \"contracts/protocol/Market.sol\":4985:4991  amount */\n      dup5\n        /* \"contracts/protocol/Market.sol\":4929:4992  collateralToken.transferFrom(msg.sender, address(this), amount) */\n      mload(0x40)\n      dup5\n      0xffffffff\n      and\n      0xe0\n      shl\n      dup2\n      mstore\n      0x04\n      add\n      tag_211\n      swap4\n      swap3\n      swap2\n      swap1\n      tag_212\n      jump\t// in\n    tag_211:\n      0x20\n      mload(0x40)\n      dup1\n      dup4\n      sub\n      dup2\n      0x00\n      dup8\n      gas\n      call\n      iszero\n      dup1\n      iszero\n      tag_214\n      jumpi\n      returndatacopy(0x00, 0x00, returndatasize)\n      revert(0x00, returndatasize)\n    tag_214:\n      pop\n      pop\n      pop\n      pop\n      mload(0x40)\n      returndatasize\n      not(0x1f)\n      0x1f\n      dup3\n      add\n      and\n      dup3\n      add\n      dup1\n      0x40\n      mstore\n      pop\n      dup2\n      add\n      swap1\n      tag_215\n      swap2\n      swap1\n      tag_197\n      jump\t// in\n    tag_215:\n      pop\n        /* \"contracts/protocol/Market.sol\":5044:5050  amount */\n      dup1\n        /* \"contracts/protocol/Market.sol\":5002:5011  positions */\n      0x13\n        /* \"contracts/protocol/Market.sol\":5002:5023  positions[msg.sender] */\n      0x00\n        /* \"contracts/protocol/Market.sol\":5012:5022  msg.sender */\n      caller\n        /* \"contracts/protocol/Market.sol\":5002:5023  positions[msg.sender] */\n      0xffffffffffffffffffffffffffffffffffffffff\n      and\n      0xffffffffffffffffffffffffffffffffffffffff\n      and\n      dup2\n      mstore\n      0x20\n      add\n      swap1\n      dup2\n      mstore\n      0x20\n      add\n      0x00\n      keccak256\n        /* \"contracts/protocol/Market.sol\":5002:5040  positions[msg.sender].collateralShares */\n      0x01\n      add\n      0x00\n        /* \"contracts/protocol/Market.sol\":5002:5050  positions[msg.sender].collateralShares += amount */\n      dup3\n      dup3\n      sload\n      tag_216\n      swap2\n      swap1\n      tag_217\n      jump\t// in\n    tag_216:\n      swap3\n      pop\n      pop\n      dup2\n      swap1\n      sstore\n      pop\n        /* \"contracts/protocol/Market.sol\":4841:5057  function supplyCollateral(uint amount) external {... */\n      pop\n      jump\t// out\n        /* \"contracts/protocol/Market.sol\":5928:6781  function repay(uint amount) external returns (uint remainingDebt) {... */\n    tag_78:\n        /* \"contracts/protocol/Market.sol\":5974:5992  uint remainingDebt */\n      0x00\n        /* \"contracts/protocol/Market.sol\":6004:6020  accrueInterest() */\n      tag_219\n        /* \"contracts/protocol/Market.sol\":6004:6018  accrueInterest */\n      tag_137\n        /* \"contracts/protocol/Market.sol\":6004:6020  accrueInterest() */\n      jump\t// in\n    tag_219:\n        /* \"contracts/protocol/Market.sol\":6031:6049  Position storage p */\n      0x00\n        /* \"contracts/protocol/Market.sol\":6052:6061  positions */\n      0x13\n        /* \"contracts/protocol/Market.sol\":6052:6073  positions[msg.sender] */\n      0x00\n        /* \"contracts/protocol/Market.sol\":6062:6072  msg.sender */\n      caller\n        /* \"contracts/protocol/Market.sol\":6052:6073  positions[msg.sender] */\n      0xffffffffffffffffffffffffffffffffffffffff\n      and\n      0xffffffffffffffffffffffffffffffffffffffff\n      and\n      dup2\n      mstore\n      0x20\n      add\n      swap1\n      dup2\n      mstore\n      0x20\n      add\n      0x00\n      keccak256\n        /* \"contracts/protocol/Market.sol\":6031:6073  Position storage p = positions[msg.sender] */\n      swap1\n      pop\n        /* \"contracts/protocol/Market.sol\":6083:6092  uint debt */\n      0x00\n        /* \"contracts/protocol/Market.sol\":6095:6113  debtOf(msg.sender) */\n      tag_220\n        /* \"contracts/protocol/Market.sol\":6102:6112  msg.sender */\n      caller\n        /* \"contracts/protocol/Market.sol\":6095:6101  debtOf */\n      tag_163\n        /* \"contracts/protocol/Market.sol\":6095:6113  debtOf(msg.sender) */\n      jump\t// in\n    tag_220:\n        /* \"contracts/protocol/Market.sol\":6083:6113  uint debt = debtOf(msg.sender) */\n      swap1\n      pop\n        /* \"contracts/protocol/Market.sol\":6124:6138  uint payAmount */\n      0x00\n        /* \"contracts/protocol/Market.sol\":6150:6154  debt */\n      dup2\n        /* \"contracts/protocol/Market.sol\":6141:6147  amount */\n      dup6\n        /* \"contracts/protocol/Market.sol\":6141:6154  amount > debt */\n      gt\n        /* \"contracts/protocol/Market.sol\":6141:6170  amount > debt ? debt : amount */\n      tag_221\n      jumpi\n        /* \"contracts/protocol/Market.sol\":6164:6170  amount */\n      dup5\n        /* \"contracts/protocol/Market.sol\":6141:6170  amount > debt ? debt : amount */\n      jump(tag_222)\n    tag_221:\n        /* \"contracts/protocol/Market.sol\":6157:6161  debt */\n      dup2\n        /* \"contracts/protocol/Market.sol\":6141:6170  amount > debt ? debt : amount */\n    tag_222:\n        /* \"contracts/protocol/Market.sol\":6124:6170  uint payAmount = amount > debt ? debt : amount */\n      swap1\n      pop\n        /* \"contracts/protocol/Market.sol\":6180:6189  loanToken */\n      0x02\n      0x00\n      swap1\n      sload\n      swap1\n      0x0100\n      exp\n      swap1\n      div\n      0xffffffffffffffffffffffffffffffffffffffff\n      and\n        /* \"contracts/protocol/Market.sol\":6180:6202  loanToken.transferFrom */\n      0xffffffffffffffffffffffffffffffffffffffff\n      and\n      0x23b872dd\n        /* \"contracts/protocol/Market.sol\":6203:6213  msg.sender */\n      caller\n        /* \"contracts/protocol/Market.sol\":6223:6227  this */\n      address\n        /* \"contracts/protocol/Market.sol\":6230:6236  amount */\n      dup9\n        /* \"contracts/protocol/Market.sol\":6180:6237  loanToken.transferFrom(msg.sender, address(this), amount) */\n      mload(0x40)\n      dup5\n      0xffffffff\n      and\n      0xe0\n      shl\n      dup2\n      mstore\n      0x04\n      add\n      tag_223\n      swap4\n      swap3\n      swap2\n      swap1\n      tag_212\n      jump\t// in\n    tag_223:\n      0x20\n      mload(0x40)\n      dup1\n      dup4\n      sub\n      dup2\n      0x00\n      dup8\n      gas\n      call\n      iszero\n      dup1\n      iszero\n      tag_225\n      jumpi\n      returndatacopy(0x00, 0x00, returndatasize)\n      revert(0x00, returndatasize)\n    tag_225:\n      pop\n      pop\n      pop\n      pop\n      mload(0x40)\n      returndatasize\n      not(0x1f)\n      0x1f\n      dup3\n      add\n      and\n      dup3\n      add\n      dup1\n      0x40\n      mstore\n      pop\n      dup2\n      add\n      swap1\n      tag_226\n      swap2\n      swap1\n      tag_197\n      jump\t// in\n    tag_226:\n      pop\n        /* \"contracts/protocol/Market.sol\":6248:6266  uint principalPaid */\n      0x00\n        /* \"contracts/protocol/Market.sol\":6283:6292  payAmount */\n      dup2\n        /* \"contracts/protocol/Market.sol\":6269:6270  p */\n      dup5\n        /* \"contracts/protocol/Market.sol\":6269:6280  p.principal */\n      0x02\n      add\n      sload\n        /* \"contracts/protocol/Market.sol\":6269:6292  p.principal > payAmount */\n      gt\n        /* \"contracts/protocol/Market.sol\":6269:6318  p.principal > payAmount ? payAmount : p.principal */\n      tag_227\n      jumpi\n        /* \"contracts/protocol/Market.sol\":6307:6308  p */\n      dup4\n        /* \"contracts/protocol/Market.sol\":6307:6318  p.principal */\n      0x02\n      add\n      sload\n        /* \"contracts/protocol/Market.sol\":6269:6318  p.principal > payAmount ? payAmount : p.principal */\n      jump(tag_228)\n    tag_227:\n        /* \"contracts/protocol/Market.sol\":6295:6304  payAmount */\n      dup2\n        /* \"contracts/protocol/Market.sol\":6269:6318  p.principal > payAmount ? payAmount : p.principal */\n    tag_228:\n        /* \"contracts/protocol/Market.sol\":6248:6318  uint principalPaid = p.principal > payAmount ? payAmount : p.principal */\n      swap1\n      pop\n        /* \"contracts/protocol/Market.sol\":6343:6356  principalPaid */\n      dup1\n        /* \"contracts/protocol/Market.sol\":6328:6329  p */\n      dup5\n        /* \"contracts/protocol/Market.sol\":6328:6339  p.principal */\n      0x02\n      add\n      0x00\n        /* \"contracts/protocol/Market.sol\":6328:6356  p.principal -= principalPaid */\n      dup3\n      dup3\n      sload\n      tag_229\n      swap2\n      swap1\n      tag_188\n      jump\t// in\n    tag_229:\n      swap3\n      pop\n      pop\n      dup2\n      swap1\n      sstore\n      pop\n        /* \"contracts/protocol/Market.sol\":6447:6452  10000 */\n      0x2710\n        /* \"contracts/protocol/Market.sol\":6429:6443  protocolFeeBps */\n      sload(0x0f)\n        /* \"contracts/protocol/Market.sol\":6412:6425  principalPaid */\n      dup3\n        /* \"contracts/protocol/Market.sol\":6400:6409  payAmount */\n      dup5\n        /* \"contracts/protocol/Market.sol\":6400:6425  payAmount - principalPaid */\n      tag_230\n      swap2\n      swap1\n      tag_188\n      jump\t// in\n    tag_230:\n        /* \"contracts/protocol/Market.sol\":6399:6443  (payAmount - principalPaid) * protocolFeeBps */\n      tag_231\n      swap2\n      swap1\n      tag_184\n      jump\t// in\n    tag_231:\n        /* \"contracts/protocol/Market.sol\":6398:6452  ((payAmount - principalPaid) * protocolFeeBps) / 10000 */\n      tag_232\n      swap2\n      swap1\n      tag_186\n      jump\t// in\n    tag_232:\n        /* \"contracts/protocol/Market.sol\":6366:6382  protocolReserves */\n      0x0e\n      0x00\n        /* \"contracts/protocol/Market.sol\":6366:6452  protocolReserves +=... */\n      dup3\n      dup3\n      sload\n      tag_233\n      swap2\n      swap1\n      tag_217\n      jump\t// in\n    tag_233:\n      swap3\n      pop\n      pop\n      dup2\n      swap1\n      sstore\n      pop\n        /* \"contracts/protocol/Market.sol\":6462:6477  uint burnShares */\n      0x00\n        /* \"contracts/protocol/Market.sol\":6493:6497  debt */\n      dup4\n        /* \"contracts/protocol/Market.sol\":6480:6489  payAmount */\n      dup4\n        /* \"contracts/protocol/Market.sol\":6480:6497  payAmount == debt */\n      eq\n        /* \"contracts/protocol/Market.sol\":6480:6580  payAmount == debt... */\n      tag_234\n      jumpi\n        /* \"contracts/protocol/Market.sol\":6569:6580  borrowIndex */\n      sload(0x11)\n        /* \"contracts/protocol/Market.sol\":432:436  1e18 */\n      0x0de0b6b3a7640000\n        /* \"contracts/protocol/Market.sol\":6542:6551  payAmount */\n      dup5\n        /* \"contracts/protocol/Market.sol\":6542:6565  payAmount * INDEX_SCALE */\n      tag_235\n      swap2\n      swap1\n      tag_184\n      jump\t// in\n    tag_235:\n        /* \"contracts/protocol/Market.sol\":6541:6580  (payAmount * INDEX_SCALE) / borrowIndex */\n      tag_236\n      swap2\n      swap1\n      tag_186\n      jump\t// in\n    tag_236:\n        /* \"contracts/protocol/Market.sol\":6480:6580  payAmount == debt... */\n      jump(tag_237)\n    tag_234:\n        /* \"contracts/protocol/Market.sol\":6512:6513  p */\n      dup5\n        /* \"contracts/protocol/Market.sol\":6512:6526  p.borrowShares */\n      0x00\n      add\n      sload\n        /* \"contracts/protocol/Market.sol\":6480:6580  payAmount == debt... */\n    tag_237:\n        /* \"contracts/protocol/Market.sol\":6462:6580  uint burnShares = payAmount == debt... */\n      swap1\n      pop\n        /* \"contracts/protocol/Market.sol\":6608:6609  p */\n      dup5\n        /* \"contracts/protocol/Market.sol\":6608:6622  p.borrowShares */\n      0x00\n      add\n      sload\n        /* \"contracts/protocol/Market.sol\":6595:6605  burnShares */\n      dup2\n        /* \"contracts/protocol/Market.sol\":6595:6622  burnShares < p.borrowShares */\n      lt\n        /* \"contracts/protocol/Market.sol\":6591:6651  if (burnShares < p.borrowShares) burnShares = p.borrowShares */\n      iszero\n      tag_238\n      jumpi\n        /* \"contracts/protocol/Market.sol\":6637:6638  p */\n      dup5\n        /* \"contracts/protocol/Market.sol\":6637:6651  p.borrowShares */\n      0x00\n      add\n      sload\n        /* \"contracts/protocol/Market.sol\":6624:6651  burnShares = p.borrowShares */\n      swap1\n      pop\n        /* \"contracts/protocol/Market.sol\":6591:6651  if (burnShares < p.borrowShares) burnShares = p.borrowShares */\n    tag_238:\n        /* \"contracts/protocol/Market.sol\":6679:6689  burnShares */\n      dup1\n        /* \"contracts/protocol/Market.sol\":6661:6662  p */\n      dup6\n        /* \"contracts/protocol/Market.sol\":6661:6675  p.borrowShares */\n      0x00\n      add\n      0x00\n        /* \"contracts/protocol/Market.sol\":6661:6689  p.borrowShares -= burnShares */\n      dup3\n      dup3\n      sload\n      tag_239\n      swap2\n      swap1\n      tag_188\n      jump\t// in\n    tag_239:\n      swap3\n      pop\n      pop\n      dup2\n      swap1\n      sstore\n      pop\n        /* \"contracts/protocol/Market.sol\":6720:6730  burnShares */\n      dup1\n        /* \"contracts/protocol/Market.sol\":6699:6716  totalBorrowShares */\n      0x10\n      0x00\n        /* \"contracts/protocol/Market.sol\":6699:6730  totalBorrowShares -= burnShares */\n      dup3\n      dup3\n      sload\n      tag_240\n      swap2\n      swap1\n      tag_188\n      jump\t// in\n    tag_240:\n      swap3\n      pop\n      pop\n      dup2\n      swap1\n      sstore\n      pop\n        /* \"contracts/protocol/Market.sol\":6756:6774  debtOf(msg.sender) */\n      tag_241\n        /* \"contracts/protocol/Market.sol\":6763:6773  msg.sender */\n      caller\n        /* \"contracts/protocol/Market.sol\":6756:6762  debtOf */\n      tag_163\n        /* \"contracts/protocol/Market.sol\":6756:6774  debtOf(msg.sender) */\n      jump\t// in\n    tag_241:\n        /* \"contracts/protocol/Market.sol\":6740:6774  remainingDebt = debtOf(msg.sender) */\n      swap6\n      pop\n        /* \"contracts/protocol/Market.sol\":5994:6781  {... */\n      pop\n      pop\n      pop\n      pop\n      pop\n        /* \"contracts/protocol/Market.sol\":5928:6781  function repay(uint amount) external returns (uint remainingDebt) {... */\n      swap2\n      swap1\n      pop\n      jump\t// out\n        /* \"contracts/protocol/Market.sol\":7482:7589  function onVaultWithdraw(uint amount) external onlyVault {... */\n    tag_82:\n        /* \"contracts/protocol/Market.sol\":1538:1543  vault */\n      0x07\n      0x00\n      swap1\n      sload\n      swap1\n      0x0100\n      exp\n      swap1\n      div\n      0xffffffffffffffffffffffffffffffffffffffff\n      and\n        /* \"contracts/protocol/Market.sol\":1524:1543  msg.sender == vault */\n      0xffffffffffffffffffffffffffffffffffffffff\n      and\n        /* \"contracts/protocol/Market.sol\":1524:1534  msg.sender */\n      caller\n        /* \"contracts/protocol/Market.sol\":1524:1543  msg.sender == vault */\n      0xffffffffffffffffffffffffffffffffffffffff\n      and\n      eq\n        /* \"contracts/protocol/Market.sol\":1516:1544  require(msg.sender == vault) */\n      tag_243\n      jumpi\n      revert(0x00, 0x00)\n    tag_243:\n        /* \"contracts/protocol/Market.sol\":7549:7558  loanToken */\n      0x02\n      0x00\n      swap1\n      sload\n      swap1\n      0x0100\n      exp\n      swap1\n      div\n      0xffffffffffffffffffffffffffffffffffffffff\n      and\n        /* \"contracts/protocol/Market.sol\":7549:7567  loanToken.transfer */\n      0xffffffffffffffffffffffffffffffffffffffff\n      and\n      0xa9059cbb\n        /* \"contracts/protocol/Market.sol\":7568:7573  vault */\n      0x07\n      0x00\n      swap1\n      sload\n      swap1\n      0x0100\n      exp\n      swap1\n      div\n      0xffffffffffffffffffffffffffffffffffffffff\n      and\n        /* \"contracts/protocol/Market.sol\":7575:7581  amount */\n      dup4\n        /* \"contracts/protocol/Market.sol\":7549:7582  loanToken.transfer(vault, amount) */\n      mload(0x40)\n      dup4\n      0xffffffff\n      and\n      0xe0\n      shl\n      dup2\n      mstore\n      0x04\n      add\n      tag_245\n      swap3\n      swap2\n      swap1\n      tag_193\n      jump\t// in\n    tag_245:\n      0x20\n      mload(0x40)\n      dup1\n      dup4\n      sub\n      dup2\n      0x00\n      dup8\n      gas\n      call\n      iszero\n      dup1\n      iszero\n      tag_247\n      jumpi\n      returndatacopy(0x00, 0x00, returndatasize)\n      revert(0x00, returndatasize)\n    tag_247:\n      pop\n      pop\n      pop\n      pop\n      mload(0x40)\n      returndatasize\n      not(0x1f)\n      0x1f\n      dup3\n      add\n      and\n      dup3\n      add\n      dup1\n      0x40\n      mstore\n      pop\n      dup2\n      add\n      swap1\n      tag_248\n      swap2\n      swap1\n      tag_197\n      jump\t// in\n    tag_248:\n      pop\n        /* \"contracts/protocol/Market.sol\":7482:7589  function onVaultWithdraw(uint amount) external onlyVault {... */\n      pop\n      jump\t// out\n        /* \"contracts/protocol/Market.sol\":1114:1139  address public liquidator */\n    tag_84:\n      0x09\n      0x00\n      swap1\n      sload\n      swap1\n      0x0100\n      exp\n      swap1\n      div\n      0xffffffffffffffffffffffffffffffffffffffff\n      and\n      dup2\n      jump\t// out\n        /* \"contracts/protocol/Market.sol\":1004:1023  string public title */\n    tag_88:\n      0x05\n      dup1\n      sload\n      tag_249\n      swap1\n      tag_250\n      jump\t// in\n    tag_249:\n      dup1\n      0x1f\n      add\n      0x20\n      dup1\n      swap2\n      div\n      mul\n      0x20\n      add\n      mload(0x40)\n      swap1\n      dup2\n      add\n      0x40\n      mstore\n      dup1\n      swap3\n      swap2\n      swap1\n      dup2\n      dup2\n      mstore\n      0x20\n      add\n      dup3\n      dup1\n      sload\n      tag_251\n      swap1\n      tag_250\n      jump\t// in\n    tag_251:\n      dup1\n      iszero\n      tag_252\n      jumpi\n      dup1\n      0x1f\n      lt\n      tag_253\n      jumpi\n      0x0100\n      dup1\n      dup4\n      sload\n      div\n      mul\n      dup4\n      mstore\n      swap2\n      0x20\n      add\n      swap2\n      jump(tag_252)\n    tag_253:\n      dup3\n      add\n      swap2\n      swap1\n      0x00\n      mstore\n      keccak256(0x00, 0x20)\n      swap1\n    tag_254:\n      dup2\n      sload\n      dup2\n      mstore\n      swap1\n      0x01\n      add\n      swap1\n      0x20\n      add\n      dup1\n      dup4\n      gt\n      tag_254\n      jumpi\n      dup3\n      swap1\n      sub\n      0x1f\n      and\n      dup3\n      add\n      swap2\n    tag_252:\n      pop\n      pop\n      pop\n      pop\n      pop\n      dup2\n      jump\t// out\n        /* \"contracts/protocol/Market.sol\":7418:7476  function onVaultDeposit(uint amount) external onlyVault {} */\n    tag_93:\n        /* \"contracts/protocol/Market.sol\":1538:1543  vault */\n      0x07\n      0x00\n      swap1\n      sload\n      swap1\n      0x0100\n      exp\n      swap1\n      div\n      0xffffffffffffffffffffffffffffffffffffffff\n      and\n        /* \"contracts/protocol/Market.sol\":1524:1543  msg.sender == vault */\n      0xffffffffffffffffffffffffffffffffffffffff\n      and\n        /* \"contracts/protocol/Market.sol\":1524:1534  msg.sender */\n      caller\n        /* \"contracts/protocol/Market.sol\":1524:1543  msg.sender == vault */\n      0xffffffffffffffffffffffffffffffffffffffff\n      and\n      eq\n        /* \"contracts/protocol/Market.sol\":1516:1544  require(msg.sender == vault) */\n      tag_256\n      jumpi\n      revert(0x00, 0x00)\n    tag_256:\n        /* \"contracts/protocol/Market.sol\":7418:7476  function onVaultDeposit(uint amount) external onlyVault {} */\n      pop\n      jump\t// out\n        /* \"contracts/protocol/Market.sol\":1433:1478  mapping(address => Position) public positions */\n    tag_96:\n      mstore(0x20, 0x13)\n      dup1\n      0x00\n      mstore\n      keccak256(0x00, 0x40)\n      0x00\n      swap2\n      pop\n      swap1\n      pop\n      dup1\n      0x00\n      add\n      sload\n      swap1\n      dup1\n      0x01\n      add\n      sload\n      swap1\n      dup1\n      0x02\n      add\n      sload\n      swap1\n      pop\n      dup4\n      jump\t// out\n        /* \"contracts/protocol/Market.sol\":5063:5335  function withdrawCollateral(uint amount) external {... */\n    tag_101:\n        /* \"contracts/protocol/Market.sol\":5140:5141  0 */\n      0x00\n        /* \"contracts/protocol/Market.sol\":5131:5137  amount */\n      dup2\n        /* \"contracts/protocol/Market.sol\":5131:5141  amount > 0 */\n      gt\n        /* \"contracts/protocol/Market.sol\":5123:5142  require(amount > 0) */\n      tag_259\n      jumpi\n      revert(0x00, 0x00)\n    tag_259:\n        /* \"contracts/protocol/Market.sol\":5152:5170  Position storage p */\n      0x00\n        /* \"contracts/protocol/Market.sol\":5173:5182  positions */\n      0x13\n        /* \"contracts/protocol/Market.sol\":5173:5194  positions[msg.sender] */\n      0x00\n        /* \"contracts/protocol/Market.sol\":5183:5193  msg.sender */\n      caller\n        /* \"contracts/protocol/Market.sol\":5173:5194  positions[msg.sender] */\n      0xffffffffffffffffffffffffffffffffffffffff\n      and\n      0xffffffffffffffffffffffffffffffffffffffff\n      and\n      dup2\n      mstore\n      0x20\n      add\n      swap1\n      dup2\n      mstore\n      0x20\n      add\n      0x00\n      keccak256\n        /* \"contracts/protocol/Market.sol\":5152:5194  Position storage p = positions[msg.sender] */\n      swap1\n      pop\n        /* \"contracts/protocol/Market.sol\":5227:5233  amount */\n      dup2\n        /* \"contracts/protocol/Market.sol\":5205:5206  p */\n      dup2\n        /* \"contracts/protocol/Market.sol\":5205:5223  p.collateralShares */\n      0x01\n      add\n      0x00\n        /* \"contracts/protocol/Market.sol\":5205:5233  p.collateralShares -= amount */\n      dup3\n      dup3\n      sload\n      tag_260\n      swap2\n      swap1\n      tag_188\n      jump\t// in\n    tag_260:\n      swap3\n      pop\n      pop\n      dup2\n      swap1\n      sstore\n      pop\n        /* \"contracts/protocol/Market.sol\":5251:5273  _isHealthy(msg.sender) */\n      tag_261\n        /* \"contracts/protocol/Market.sol\":5262:5272  msg.sender */\n      caller\n        /* \"contracts/protocol/Market.sol\":5251:5261  _isHealthy */\n      tag_190\n        /* \"contracts/protocol/Market.sol\":5251:5273  _isHealthy(msg.sender) */\n      jump\t// in\n    tag_261:\n        /* \"contracts/protocol/Market.sol\":5243:5274  require(_isHealthy(msg.sender)) */\n      tag_262\n      jumpi\n      revert(0x00, 0x00)\n    tag_262:\n        /* \"contracts/protocol/Market.sol\":5284:5299  collateralToken */\n      0x03\n      0x00\n      swap1\n      sload\n      swap1\n      0x0100\n      exp\n      swap1\n      div\n      0xffffffffffffffffffffffffffffffffffffffff\n      and\n        /* \"contracts/protocol/Market.sol\":5284:5308  collateralToken.transfer */\n      0xffffffffffffffffffffffffffffffffffffffff\n      and\n      0xa9059cbb\n        /* \"contracts/protocol/Market.sol\":5309:5319  msg.sender */\n      caller\n        /* \"contracts/protocol/Market.sol\":5321:5327  amount */\n      dup5\n        /* \"contracts/protocol/Market.sol\":5284:5328  collateralToken.transfer(msg.sender, amount) */\n      mload(0x40)\n      dup4\n      0xffffffff\n      and\n      0xe0\n      shl\n      dup2\n      mstore\n      0x04\n      add\n      tag_263\n      swap3\n      swap2\n      swap1\n      tag_193\n      jump\t// in\n    tag_263:\n      0x20\n      mload(0x40)\n      dup1\n      dup4\n      sub\n      dup2\n      0x00\n      dup8\n      gas\n      call\n      iszero\n      dup1\n      iszero\n      tag_265\n      jumpi\n      returndatacopy(0x00, 0x00, returndatasize)\n      revert(0x00, returndatasize)\n    tag_265:\n      pop\n      pop\n      pop\n      pop\n      mload(0x40)\n      returndatasize\n      not(0x1f)\n      0x1f\n      dup3\n      add\n      and\n      dup3\n      add\n      dup1\n      0x40\n      mstore\n      pop\n      dup2\n      add\n      swap1\n      tag_266\n      swap2\n      swap1\n      tag_197\n      jump\t// in\n    tag_266:\n      pop\n        /* \"contracts/protocol/Market.sol\":5113:5335  {... */\n      pop\n        /* \"contracts/protocol/Market.sol\":5063:5335  function withdrawCollateral(uint amount) external {... */\n      pop\n      jump\t// out\n        /* \"contracts/protocol/Market.sol\":1085:1108  address public treasury */\n    tag_103:\n      0x08\n      0x00\n      swap1\n      sload\n      swap1\n      0x0100\n      exp\n      swap1\n      div\n      0xffffffffffffffffffffffffffffffffffffffff\n      and\n      dup2\n      jump\t// out\n        /* \"contracts/protocol/Market.sol\":4417:4835  function currentLtvBps(address borrower) public view returns (uint) {... */\n    tag_107:\n        /* \"contracts/protocol/Market.sol\":4479:4483  uint */\n      0x00\n        /* \"contracts/protocol/Market.sol\":4495:4513  Position storage p */\n      0x00\n        /* \"contracts/protocol/Market.sol\":4516:4525  positions */\n      0x13\n        /* \"contracts/protocol/Market.sol\":4516:4535  positions[borrower] */\n      0x00\n        /* \"contracts/protocol/Market.sol\":4526:4534  borrower */\n      dup5\n        /* \"contracts/protocol/Market.sol\":4516:4535  positions[borrower] */\n      0xffffffffffffffffffffffffffffffffffffffff\n      and\n      0xffffffffffffffffffffffffffffffffffffffff\n      and\n      dup2\n      mstore\n      0x20\n      add\n      swap1\n      dup2\n      mstore\n      0x20\n      add\n      0x00\n      keccak256\n        /* \"contracts/protocol/Market.sol\":4495:4535  Position storage p = positions[borrower] */\n      swap1\n      pop\n        /* \"contracts/protocol/Market.sol\":4545:4554  uint debt */\n      0x00\n        /* \"contracts/protocol/Market.sol\":4557:4573  debtOf(borrower) */\n      tag_268\n        /* \"contracts/protocol/Market.sol\":4564:4572  borrower */\n      dup5\n        /* \"contracts/protocol/Market.sol\":4557:4563  debtOf */\n      tag_163\n        /* \"contracts/protocol/Market.sol\":4557:4573  debtOf(borrower) */\n      jump\t// in\n    tag_268:\n        /* \"contracts/protocol/Market.sol\":4545:4573  uint debt = debtOf(borrower) */\n      swap1\n      pop\n        /* \"contracts/protocol/Market.sol\":4596:4597  0 */\n      0x00\n        /* \"contracts/protocol/Market.sol\":4588:4592  debt */\n      dup2\n        /* \"contracts/protocol/Market.sol\":4588:4597  debt == 0 */\n      sub\n        /* \"contracts/protocol/Market.sol\":4584:4607  if (debt == 0) return 0 */\n      tag_269\n      jumpi\n        /* \"contracts/protocol/Market.sol\":4606:4607  0 */\n      0x00\n        /* \"contracts/protocol/Market.sol\":4599:4607  return 0 */\n      swap3\n      pop\n      pop\n      pop\n      jump(tag_267)\n        /* \"contracts/protocol/Market.sol\":4584:4607  if (debt == 0) return 0 */\n    tag_269:\n        /* \"contracts/protocol/Market.sol\":4643:4644  0 */\n      0x00\n        /* \"contracts/protocol/Market.sol\":4621:4622  p */\n      dup3\n        /* \"contracts/protocol/Market.sol\":4621:4639  p.collateralShares */\n      0x01\n      add\n      sload\n        /* \"contracts/protocol/Market.sol\":4621:4644  p.collateralShares == 0 */\n      sub\n        /* \"contracts/protocol/Market.sol\":4617:4667  if (p.collateralShares == 0) return type(uint).max */\n      tag_270\n      jumpi\n        /* \"contracts/protocol/Market.sol\":4653:4667  type(uint).max */\n      0xffffffffffffffffffffffffffffffffffffffffffffffffffffffffffffffff\n        /* \"contracts/protocol/Market.sol\":4646:4667  return type(uint).max */\n      swap3\n      pop\n      pop\n      pop\n      jump(tag_267)\n        /* \"contracts/protocol/Market.sol\":4617:4667  if (p.collateralShares == 0) return type(uint).max */\n    tag_270:\n        /* \"contracts/protocol/Market.sol\":4786:4792  oracle */\n      0x04\n      0x00\n      swap1\n      sload\n      swap1\n      0x0100\n      exp\n      swap1\n      div\n      0xffffffffffffffffffffffffffffffffffffffff\n      and\n        /* \"contracts/protocol/Market.sol\":4786:4801  oracle.getPrice */\n      0xffffffffffffffffffffffffffffffffffffffff\n      and\n      0x41976e09\n        /* \"contracts/protocol/Market.sol\":4810:4825  collateralToken */\n      0x03\n      0x00\n      swap1\n      sload\n      swap1\n      0x0100\n      exp\n      swap1\n      div\n      0xffffffffffffffffffffffffffffffffffffffff\n      and\n        /* \"contracts/protocol/Market.sol\":4786:4827  oracle.getPrice(address(collateralToken)) */\n      mload(0x40)\n      dup3\n      0xffffffff\n      and\n      0xe0\n      shl\n      dup2\n      mstore\n      0x04\n      add\n      tag_271\n      swap2\n      swap1\n      tag_86\n      jump\t// in\n    tag_271:\n      0x20\n      mload(0x40)\n      dup1\n      dup4\n      sub\n      dup2\n      dup7\n      gas\n      staticcall\n      iszero\n      dup1\n      iszero\n      tag_273\n      jumpi\n      returndatacopy(0x00, 0x00, returndatasize)\n      revert(0x00, returndatasize)\n    tag_273:\n      pop\n      pop\n      pop\n      pop\n      mload(0x40)\n      returndatasize\n      not(0x1f)\n      0x1f\n      dup3\n      add\n      and\n      dup3\n      add\n      dup1\n      0x40\n      mstore\n      pop\n      dup2\n      add\n      swap1\n      tag_274\n      swap2\n      swap1\n      tag_275\n      jump\t// in\n    tag_274:\n        /* \"contracts/protocol/Market.sol\":4765:4766  p */\n      dup3\n        /* \"contracts/protocol/Market.sol\":4765:4783  p.collateralShares */\n      0x01\n      add\n      sload\n        /* \"contracts/protocol/Market.sol\":4765:4827  p.collateralShares * oracle.getPrice(address(collateralToken)) */\n      tag_276\n      swap2\n      swap1\n      tag_184\n      jump\t// in\n    tag_276:\n        /* \"contracts/protocol/Market.sol\":4743:4748  10000 */\n      0x2710\n        /* \"contracts/protocol/Market.sol\":4705:4711  oracle */\n      0x04\n      0x00\n      swap1\n      sload\n      swap1\n      0x0100\n      exp\n      swap1\n      div\n      0xffffffffffffffffffffffffffffffffffffffff\n      and\n        /* \"contracts/protocol/Market.sol\":4705:4720  oracle.getPrice */\n      0xffffffffffffffffffffffffffffffffffffffff\n      and\n      0x41976e09\n        /* \"contracts/protocol/Market.sol\":4729:4738  loanToken */\n      0x02\n      0x00\n      swap1\n      sload\n      swap1\n      0x0100\n      exp\n      swap1\n      div\n      0xffffffffffffffffffffffffffffffffffffffff\n      and\n        /* \"contracts/protocol/Market.sol\":4705:4740  oracle.getPrice(address(loanToken)) */\n      mload(0x40)\n      dup3\n      0xffffffff\n      and\n      0xe0\n      shl\n      dup2\n      mstore\n      0x04\n      add\n      tag_277\n      swap2\n      swap1\n      tag_86\n      jump\t// in\n    tag_277:\n      0x20\n      mload(0x40)\n      dup1\n      dup4\n      sub\n      dup2\n      dup7\n      gas\n      staticcall\n      iszero\n      dup1\n      iszero\n      tag_279\n      jumpi\n      returndatacopy(0x00, 0x00, returndatasize)\n      revert(0x00, returndatasize)\n    tag_279:\n      pop\n      pop\n      pop\n      pop\n      mload(0x40)\n      returndatasize\n      not(0x1f)\n      0x1f\n      dup3\n      add\n      and\n      dup3\n      add\n      dup1\n      0x40\n      mstore\n      pop\n      dup2\n      add\n      swap1\n      tag_280\n      swap2\n      swap1\n      tag_275\n      jump\t// in\n    tag_280:\n        /* \"contracts/protocol/Market.sol\":4698:4702  debt */\n      dup4\n        /* \"contracts/protocol/Market.sol\":4698:4740  debt * oracle.getPrice(address(loanToken)) */\n      tag_281\n      swap2\n      swap1\n      tag_184\n      jump\t// in\n    tag_281:\n        /* \"contracts/protocol/Market.sol\":4698:4748  debt * oracle.getPrice(address(loanToken)) * 10000 */\n      tag_282\n      swap2\n      swap1\n      tag_184\n      jump\t// in\n    tag_282:\n        /* \"contracts/protocol/Market.sol\":4697:4828  (debt * oracle.getPrice(address(loanToken)) * 10000) /... */\n      tag_283\n      swap2\n      swap1\n      tag_186\n      jump\t// in\n    tag_283:\n        /* \"contracts/protocol/Market.sol\":4678:4828  return... */\n      swap3\n      pop\n      pop\n      pop\n        /* \"contracts/protocol/Market.sol\":4417:4835  function currentLtvBps(address borrower) public view returns (uint) {... */\n    tag_267:\n      swap2\n      swap1\n      pop\n      jump\t// out\n        /* \"contracts/protocol/Market.sol\":5341:5550  function healthFactor(address borrower) public view returns (uint) {... */\n    tag_111:\n        /* \"contracts/protocol/Market.sol\":5402:5406  uint */\n      0x00\n        /* \"contracts/protocol/Market.sol\":5418:5426  uint ltv */\n      0x00\n        /* \"contracts/protocol/Market.sol\":5429:5452  currentLtvBps(borrower) */\n      tag_285\n        /* \"contracts/protocol/Market.sol\":5443:5451  borrower */\n      dup4\n        /* \"contracts/protocol/Market.sol\":5429:5442  currentLtvBps */\n      tag_107\n        /* \"contracts/protocol/Market.sol\":5429:5452  currentLtvBps(borrower) */\n      jump\t// in\n    tag_285:\n        /* \"contracts/protocol/Market.sol\":5418:5452  uint ltv = currentLtvBps(borrower) */\n      swap1\n      pop\n        /* \"contracts/protocol/Market.sol\":5473:5474  0 */\n      0x00\n        /* \"contracts/protocol/Market.sol\":5466:5469  ltv */\n      dup2\n        /* \"contracts/protocol/Market.sol\":5466:5474  ltv == 0 */\n      sub\n        /* \"contracts/protocol/Market.sol\":5462:5497  if (ltv == 0) return type(uint).max */\n      tag_286\n      jumpi\n        /* \"contracts/protocol/Market.sol\":5483:5497  type(uint).max */\n      0xffffffffffffffffffffffffffffffffffffffffffffffffffffffffffffffff\n        /* \"contracts/protocol/Market.sol\":5476:5497  return type(uint).max */\n      swap2\n      pop\n      pop\n      jump(tag_284)\n        /* \"contracts/protocol/Market.sol\":5462:5497  if (ltv == 0) return type(uint).max */\n    tag_286:\n        /* \"contracts/protocol/Market.sol\":5540:5543  ltv */\n      dup1\n        /* \"contracts/protocol/Market.sol\":432:436  1e18 */\n      0x0de0b6b3a7640000\n        /* \"contracts/protocol/Market.sol\":5515:5522  lltvBps */\n      sload(0x0a)\n        /* \"contracts/protocol/Market.sol\":5515:5536  lltvBps * INDEX_SCALE */\n      tag_287\n      swap2\n      swap1\n      tag_184\n      jump\t// in\n    tag_287:\n        /* \"contracts/protocol/Market.sol\":5514:5543  (lltvBps * INDEX_SCALE) / ltv */\n      tag_288\n      swap2\n      swap1\n      tag_186\n      jump\t// in\n    tag_288:\n        /* \"contracts/protocol/Market.sol\":5507:5543  return (lltvBps * INDEX_SCALE) / ltv */\n      swap2\n      pop\n      pop\n        /* \"contracts/protocol/Market.sol\":5341:5550  function healthFactor(address borrower) public view returns (uint) {... */\n    tag_284:\n      swap2\n      swap1\n      pop\n      jump\t// out\n        /* \"contracts/protocol/Market.sol\":2965:3154  function availableLiquidity() public view returns (uint) {... */\n    tag_114:\n        /* \"contracts/protocol/Market.sol\":3016:3020  uint */\n      0x00\n        /* \"contracts/protocol/Market.sol\":3032:3040  uint bal */\n      0x00\n        /* \"contracts/protocol/Market.sol\":3043:3049  oracle */\n      0x04\n      0x00\n      swap1\n      sload\n      swap1\n      0x0100\n      exp\n      swap1\n      div\n      0xffffffffffffffffffffffffffffffffffffffff\n      and\n        /* \"contracts/protocol/Market.sol\":3043:3058  oracle.getPrice */\n      0xffffffffffffffffffffffffffffffffffffffff\n      and\n      0x41976e09\n        /* \"contracts/protocol/Market.sol\":3067:3076  loanToken */\n      0x02\n      0x00\n      swap1\n      sload\n      swap1\n      0x0100\n      exp\n      swap1\n      div\n      0xffffffffffffffffffffffffffffffffffffffff\n      and\n        /* \"contracts/protocol/Market.sol\":3043:3078  oracle.getPrice(address(loanToken)) */\n      mload(0x40)\n      dup3\n      0xffffffff\n      and\n      0xe0\n      shl\n      dup2\n      mstore\n      0x04\n      add\n      tag_290\n      swap2\n      swap1\n      tag_86\n      jump\t// in\n    tag_290:\n      0x20\n      mload(0x40)\n      dup1\n      dup4\n      sub\n      dup2\n      dup7\n      gas\n      staticcall\n      iszero\n      dup1\n      iszero\n      tag_292\n      jumpi\n      returndatacopy(0x00, 0x00, returndatasize)\n      revert(0x00, returndatasize)\n    tag_292:\n      pop\n      pop\n      pop\n      pop\n      mload(0x40)\n      returndatasize\n      not(0x1f)\n      0x1f\n      dup3\n      add\n      and\n      dup3\n      add\n      dup1\n      0x40\n      mstore\n      pop\n      dup2\n      add\n      swap1\n      tag_293\n      swap2\n      swap1\n      tag_275\n      jump\t// in\n    tag_293:\n        /* \"contracts/protocol/Market.sol\":3032:3078  uint bal = oracle.getPrice(address(loanToken)) */\n      swap1\n      pop\n        /* \"contracts/protocol/Market.sol\":3102:3118  protocolReserves */\n      sload(0x0e)\n        /* \"contracts/protocol/Market.sol\":3095:3098  bal */\n      dup2\n        /* \"contracts/protocol/Market.sol\":3095:3118  bal <= protocolReserves */\n      gt\n      iszero\n        /* \"contracts/protocol/Market.sol\":3095:3147  bal <= protocolReserves ? 0 : bal - protocolReserves */\n      tag_294\n      jumpi\n        /* \"contracts/protocol/Market.sol\":3131:3147  protocolReserves */\n      sload(0x0e)\n        /* \"contracts/protocol/Market.sol\":3125:3128  bal */\n      dup2\n        /* \"contracts/protocol/Market.sol\":3125:3147  bal - protocolReserves */\n      tag_295\n      swap2\n      swap1\n      tag_188\n      jump\t// in\n    tag_295:\n        /* \"contracts/protocol/Market.sol\":3095:3147  bal <= protocolReserves ? 0 : bal - protocolReserves */\n      jump(tag_296)\n    tag_294:\n        /* \"contracts/protocol/Market.sol\":3121:3122  0 */\n      0x00\n        /* \"contracts/protocol/Market.sol\":3095:3147  bal <= protocolReserves ? 0 : bal - protocolReserves */\n    tag_296:\n        /* \"contracts/protocol/Market.sol\":3088:3147  return bal <= protocolReserves ? 0 : bal - protocolReserves */\n      swap2\n      pop\n      pop\n        /* \"contracts/protocol/Market.sol\":2965:3154  function availableLiquidity() public view returns (uint) {... */\n      swap1\n      jump\t// out\n        /* \"contracts/protocol/Market.sol\":1029:1052  string public shareName */\n    tag_117:\n      0x06\n      dup1\n      sload\n      tag_297\n      swap1\n      tag_250\n      jump\t// in\n    tag_297:\n      dup1\n      0x1f\n      add\n      0x20\n      dup1\n      swap2\n      div\n      mul\n      0x20\n      add\n      mload(0x40)\n      swap1\n      dup2\n      add\n      0x40\n      mstore\n      dup1\n      swap3\n      swap2\n      swap1\n      dup2\n      dup2\n      mstore\n      0x20\n      add\n      dup3\n      dup1\n      sload\n      tag_298\n      swap1\n      tag_250\n      jump\t// in\n    tag_298:\n      dup1\n      iszero\n      tag_299\n      jumpi\n      dup1\n      0x1f\n      lt\n      tag_300\n      jumpi\n      0x0100\n      dup1\n      dup4\n      sload\n      div\n      mul\n      dup4\n      mstore\n      swap2\n      0x20\n      add\n      swap2\n      jump(tag_299)\n    tag_300:\n      dup3\n      add\n      swap2\n      swap1\n      0x00\n      mstore\n      keccak256(0x00, 0x20)\n      swap1\n    tag_301:\n      dup2\n      sload\n      dup2\n      mstore\n      swap1\n      0x01\n      add\n      swap1\n      0x20\n      add\n      dup1\n      dup4\n      gt\n      tag_301\n      jumpi\n      dup3\n      swap1\n      sub\n      0x1f\n      and\n      dup3\n      add\n      swap2\n    tag_299:\n      pop\n      pop\n      pop\n      pop\n      pop\n      dup2\n      jump\t// out\n        /* \"contracts/protocol/Market.sol\":442:468  address[] public borrowers */\n    tag_121:\n      0x01\n      dup2\n      dup2\n      sload\n      dup2\n      lt\n      tag_302\n      jumpi\n      0x00\n      dup1\n      revert\n    tag_302:\n      swap1\n      0x00\n      mstore\n      keccak256(0x00, 0x20)\n      add\n      0x00\n      swap2\n      pop\n      sload\n      swap1\n      0x0100\n      exp\n      swap1\n      div\n      0xffffffffffffffffffffffffffffffffffffffff\n      and\n      dup2\n      jump\t// out\n        /* \"contracts/protocol/Market.sol\":1171:1195  uint public interestRate */\n    tag_124:\n      sload(0x0b)\n      dup2\n      jump\t// out\n        /* \"contracts/protocol/Market.sol\":976:997  IOracle public oracle */\n    tag_127:\n      0x04\n      0x00\n      swap1\n      sload\n      swap1\n      0x0100\n      exp\n      swap1\n      div\n      0xffffffffffffffffffffffffffffffffffffffff\n      and\n      dup2\n      jump\t// out\n        /* \"contracts/acess/Ownable.sol\":133:153  address public owner */\n    tag_131:\n      0x00\n      0x02\n      swap1\n      sload\n      swap1\n      0x0100\n      exp\n      swap1\n      div\n      0xffffffffffffffffffffffffffffffffffffffff\n      and\n      dup2\n      jump\t// out\n        /* \"contracts/protocol/Market.sol\":1201:1226  uint public blocksPerYear */\n    tag_134:\n      sload(0x0c)\n      dup2\n      jump\t// out\n        /* \"contracts/protocol/Market.sol\":2581:2959  function accrueInterest() public {... */\n    tag_137:\n        /* \"contracts/protocol/Market.sol\":2644:2659  lastAccrueBlock */\n      sload(0x12)\n        /* \"contracts/protocol/Market.sol\":2628:2640  block.number */\n      number\n        /* \"contracts/protocol/Market.sol\":2628:2659  block.number == lastAccrueBlock */\n      sub\n        /* \"contracts/protocol/Market.sol\":2624:2668  if (block.number == lastAccrueBlock) return; */\n      iszero\n        /* \"contracts/protocol/Market.sol\":2661:2668  return; */\n      tag_304\n        /* \"contracts/protocol/Market.sol\":2624:2668  if (block.number == lastAccrueBlock) return; */\n      jumpi\n        /* \"contracts/protocol/Market.sol\":2701:2702  0 */\n      0x00\n        /* \"contracts/protocol/Market.sol\":2681:2698  totalBorrowShares */\n      sload(0x10)\n        /* \"contracts/protocol/Market.sol\":2681:2702  totalBorrowShares > 0 */\n      gt\n        /* \"contracts/protocol/Market.sol\":2677:2913  if (totalBorrowShares > 0) {... */\n      iszero\n      tag_306\n      jumpi\n        /* \"contracts/protocol/Market.sol\":2718:2734  uint deltaBlocks */\n      0x00\n        /* \"contracts/protocol/Market.sol\":2752:2767  lastAccrueBlock */\n      sload(0x12)\n        /* \"contracts/protocol/Market.sol\":2737:2749  block.number */\n      number\n        /* \"contracts/protocol/Market.sol\":2737:2767  block.number - lastAccrueBlock */\n      tag_307\n      swap2\n      swap1\n      tag_188\n      jump\t// in\n    tag_307:\n        /* \"contracts/protocol/Market.sol\":2718:2767  uint deltaBlocks = block.number - lastAccrueBlock */\n      swap1\n      pop\n        /* \"contracts/protocol/Market.sol\":2781:2792  uint growth */\n      0x00\n        /* \"contracts/protocol/Market.sol\":432:436  1e18 */\n      0x0de0b6b3a7640000\n        /* \"contracts/protocol/Market.sol\":2811:2822  deltaBlocks */\n      dup3\n        /* \"contracts/protocol/Market.sol\":2796:2808  interestRate */\n      sload(0x0b)\n        /* \"contracts/protocol/Market.sol\":2796:2822  interestRate * deltaBlocks */\n      tag_308\n      swap2\n      swap1\n      tag_184\n      jump\t// in\n    tag_308:\n        /* \"contracts/protocol/Market.sol\":2795:2837  (interestRate * deltaBlocks) / INDEX_SCALE */\n      tag_309\n      swap2\n      swap1\n      tag_186\n      jump\t// in\n    tag_309:\n        /* \"contracts/protocol/Market.sol\":2781:2837  uint growth = (interestRate * deltaBlocks) / INDEX_SCALE */\n      swap1\n      pop\n        /* \"contracts/protocol/Market.sol\":432:436  1e18 */\n      0x0de0b6b3a7640000\n        /* \"contracts/protocol/Market.sol\":2881:2887  growth */\n      dup2\n        /* \"contracts/protocol/Market.sol\":2867:2878  borrowIndex */\n      sload(0x11)\n        /* \"contracts/protocol/Market.sol\":2867:2887  borrowIndex * growth */\n      tag_310\n      swap2\n      swap1\n      tag_184\n      jump\t// in\n    tag_310:\n        /* \"contracts/protocol/Market.sol\":2866:2902  (borrowIndex * growth) / INDEX_SCALE */\n      tag_311\n      swap2\n      swap1\n      tag_186\n      jump\t// in\n    tag_311:\n        /* \"contracts/protocol/Market.sol\":2851:2862  borrowIndex */\n      0x11\n      0x00\n        /* \"contracts/protocol/Market.sol\":2851:2902  borrowIndex += (borrowIndex * growth) / INDEX_SCALE */\n      dup3\n      dup3\n      sload\n      tag_312\n      swap2\n      swap1\n      tag_217\n      jump\t// in\n    tag_312:\n      swap3\n      pop\n      pop\n      dup2\n      swap1\n      sstore\n      pop\n        /* \"contracts/protocol/Market.sol\":2704:2913  {... */\n      pop\n      pop\n        /* \"contracts/protocol/Market.sol\":2677:2913  if (totalBorrowShares > 0) {... */\n    tag_306:\n        /* \"contracts/protocol/Market.sol\":2940:2952  block.number */\n      number\n        /* \"contracts/protocol/Market.sol\":2922:2937  lastAccrueBlock */\n      0x12\n        /* \"contracts/protocol/Market.sol\":2922:2952  lastAccrueBlock = block.number */\n      dup2\n      swap1\n      sstore\n      pop\n        /* \"contracts/protocol/Market.sol\":2581:2959  function accrueInterest() public {... */\n    tag_304:\n      jump\t// out\n        /* \"contracts/protocol/Market.sol\":1370:1393  uint public borrowIndex */\n    tag_139:\n      sload(0x11)\n      dup2\n      jump\t// out\n        /* \"contracts/protocol/Market.sol\":1840:2575  function initialize(... */\n    tag_144:\n        /* \"contracts/utils/Init.sol\":1076:1088  _initialized */\n      0x00\n      0x00\n      swap1\n      sload\n      swap1\n      0x0100\n      exp\n      swap1\n      div\n      0xff\n      and\n        /* \"contracts/utils/Init.sol\":1075:1088  !_initialized */\n      iszero\n        /* \"contracts/utils/Init.sol\":1075:1105  !_initialized || _initializing */\n      dup1\n      tag_314\n      jumpi\n      pop\n        /* \"contracts/utils/Init.sol\":1092:1105  _initializing */\n      0x00\n      0x01\n      swap1\n      sload\n      swap1\n      0x0100\n      exp\n      swap1\n      div\n      0xff\n      and\n        /* \"contracts/utils/Init.sol\":1075:1105  !_initialized || _initializing */\n    tag_314:\n        /* \"contracts/utils/Init.sol\":1067:1129  require(!_initialized || _initializing, \"ALREADY_INITIALIZED\") */\n      tag_315\n      jumpi\n      mload(0x40)\n      0x08c379a000000000000000000000000000000000000000000000000000000000\n      dup2\n      mstore\n      0x04\n      add\n      tag_316\n      swap1\n      tag_317\n      jump\t// in\n    tag_316:\n      mload(0x40)\n      dup1\n      swap2\n      sub\n      swap1\n      revert\n    tag_315:\n        /* \"contracts/utils/Init.sol\":1139:1154  bool isTopLevel */\n      0x00\n        /* \"contracts/utils/Init.sol\":1158:1171  _initializing */\n      0x00\n      0x01\n      swap1\n      sload\n      swap1\n      0x0100\n      exp\n      swap1\n      div\n      0xff\n      and\n        /* \"contracts/utils/Init.sol\":1157:1171  !_initializing */\n      iszero\n        /* \"contracts/utils/Init.sol\":1139:1171  bool isTopLevel = !_initializing */\n      swap1\n      pop\n        /* \"contracts/utils/Init.sol\":1186:1196  isTopLevel */\n      dup1\n        /* \"contracts/utils/Init.sol\":1182:1244  if (isTopLevel) { _initializing = true; _initialized = true; } */\n      iszero\n      tag_318\n      jumpi\n        /* \"contracts/utils/Init.sol\":1216:1220  true */\n      0x01\n        /* \"contracts/utils/Init.sol\":1200:1213  _initializing */\n      0x00\n      0x01\n        /* \"contracts/utils/Init.sol\":1200:1220  _initializing = true */\n      0x0100\n      exp\n      dup2\n      sload\n      dup2\n      0xff\n      mul\n      not\n      and\n      swap1\n      dup4\n      iszero\n      iszero\n      mul\n      or\n      swap1\n      sstore\n      pop\n        /* \"contracts/utils/Init.sol\":1237:1241  true */\n      0x01\n        /* \"contracts/utils/Init.sol\":1222:1234  _initialized */\n      0x00\n      0x00\n        /* \"contracts/utils/Init.sol\":1222:1241  _initialized = true */\n      0x0100\n      exp\n      dup2\n      sload\n      dup2\n      0xff\n      mul\n      not\n      and\n      swap1\n      dup4\n      iszero\n      iszero\n      mul\n      or\n      swap1\n      sstore\n      pop\n        /* \"contracts/utils/Init.sol\":1182:1244  if (isTopLevel) { _initializing = true; _initialized = true; } */\n    tag_318:\n        /* \"contracts/protocol/Market.sol\":1996:2019  __Ownable_init(p.owner) */\n      tag_320\n        /* \"contracts/protocol/Market.sol\":2011:2012  p */\n      dup7\n        /* \"contracts/protocol/Market.sol\":2011:2018  p.owner */\n      0x00\n      add\n      0x20\n      dup2\n      add\n      swap1\n      tag_321\n      swap2\n      swap1\n      tag_67\n      jump\t// in\n    tag_321:\n        /* \"contracts/protocol/Market.sol\":1996:2010  __Ownable_init */\n      tag_322\n        /* \"contracts/protocol/Market.sol\":1996:2019  __Ownable_init(p.owner) */\n      jump\t// in\n    tag_320:\n        /* \"contracts/protocol/Market.sol\":2038:2044  title_ */\n      dup5\n      dup5\n        /* \"contracts/protocol/Market.sol\":2030:2035  title */\n      0x05\n        /* \"contracts/protocol/Market.sol\":2030:2044  title = title_ */\n      swap2\n      dup3\n      tag_323\n      swap3\n      swap2\n      swap1\n      tag_324\n      jump\t// in\n    tag_323:\n      pop\n        /* \"contracts/protocol/Market.sol\":2066:2076  shareName_ */\n      dup3\n      dup3\n        /* \"contracts/protocol/Market.sol\":2054:2063  shareName */\n      0x06\n        /* \"contracts/protocol/Market.sol\":2054:2076  shareName = shareName_ */\n      swap2\n      dup3\n      tag_325\n      swap3\n      swap2\n      swap1\n      tag_324\n      jump\t// in\n    tag_325:\n      pop\n        /* \"contracts/protocol/Market.sol\":2106:2107  p */\n      dup6\n        /* \"contracts/protocol/Market.sol\":2106:2117  p.loanToken */\n      0x80\n      add\n      0x20\n      dup2\n      add\n      swap1\n      tag_326\n      swap2\n      swap1\n      tag_67\n      jump\t// in\n    tag_326:\n        /* \"contracts/protocol/Market.sol\":2087:2096  loanToken */\n      0x02\n      0x00\n        /* \"contracts/protocol/Market.sol\":2087:2118  loanToken = IERC20(p.loanToken) */\n      0x0100\n      exp\n      dup2\n      sload\n      dup2\n      0xffffffffffffffffffffffffffffffffffffffff\n      mul\n      not\n      and\n      swap1\n      dup4\n      0xffffffffffffffffffffffffffffffffffffffff\n      and\n      mul\n      or\n      swap1\n      sstore\n      pop\n        /* \"contracts/protocol/Market.sol\":2153:2154  p */\n      dup6\n        /* \"contracts/protocol/Market.sol\":2153:2170  p.collateralToken */\n      0xa0\n      add\n      0x20\n      dup2\n      add\n      swap1\n      tag_327\n      swap2\n      swap1\n      tag_67\n      jump\t// in\n    tag_327:\n        /* \"contracts/protocol/Market.sol\":2128:2143  collateralToken */\n      0x03\n      0x00\n        /* \"contracts/protocol/Market.sol\":2128:2171  collateralToken = IERC20(p.collateralToken) */\n      0x0100\n      exp\n      dup2\n      sload\n      dup2\n      0xffffffffffffffffffffffffffffffffffffffff\n      mul\n      not\n      and\n      swap1\n      dup4\n      0xffffffffffffffffffffffffffffffffffffffff\n      and\n      mul\n      or\n      swap1\n      sstore\n      pop\n        /* \"contracts/protocol/Market.sol\":2198:2199  p */\n      dup6\n        /* \"contracts/protocol/Market.sol\":2198:2206  p.oracle */\n      0xc0\n      add\n      0x20\n      dup2\n      add\n      swap1\n      tag_328\n      swap2\n      swap1\n      tag_67\n      jump\t// in\n    tag_328:\n        /* \"contracts/protocol/Market.sol\":2181:2187  oracle */\n      0x04\n      0x00\n        /* \"contracts/protocol/Market.sol\":2181:2207  oracle = IOracle(p.oracle) */\n      0x0100\n      exp\n      dup2\n      sload\n      dup2\n      0xffffffffffffffffffffffffffffffffffffffff\n      mul\n      not\n      and\n      swap1\n      dup4\n      0xffffffffffffffffffffffffffffffffffffffff\n      and\n      mul\n      or\n      swap1\n      sstore\n      pop\n        /* \"contracts/protocol/Market.sol\":2231:2232  p */\n      dup6\n        /* \"contracts/protocol/Market.sol\":2231:2243  p.liquidator */\n      0x40\n      add\n      0x20\n      dup2\n      add\n      swap1\n      tag_329\n      swap2\n      swap1\n      tag_67\n      jump\t// in\n    tag_329:\n        /* \"contracts/protocol/Market.sol\":2218:2228  liquidator */\n      0x09\n      0x00\n        /* \"contracts/protocol/Market.sol\":2218:2243  liquidator = p.liquidator */\n      0x0100\n      exp\n      dup2\n      sload\n      dup2\n      0xffffffffffffffffffffffffffffffffffffffff\n      mul\n      not\n      and\n      swap1\n      dup4\n      0xffffffffffffffffffffffffffffffffffffffff\n      and\n      mul\n      or\n      swap1\n      sstore\n      pop\n        /* \"contracts/protocol/Market.sol\":2264:2265  p */\n      dup6\n        /* \"contracts/protocol/Market.sol\":2264:2274  p.treasury */\n      0x60\n      add\n      0x20\n      dup2\n      add\n      swap1\n      tag_330\n      swap2\n      swap1\n      tag_67\n      jump\t// in\n    tag_330:\n        /* \"contracts/protocol/Market.sol\":2253:2261  treasury */\n      0x08\n      0x00\n        /* \"contracts/protocol/Market.sol\":2253:2274  treasury = p.treasury */\n      0x0100\n      exp\n      dup2\n      sload\n      dup2\n      0xffffffffffffffffffffffffffffffffffffffff\n      mul\n      not\n      and\n      swap1\n      dup4\n      0xffffffffffffffffffffffffffffffffffffffff\n      and\n      mul\n      or\n      swap1\n      sstore\n      pop\n        /* \"contracts/protocol/Market.sol\":2292:2293  p */\n      dup6\n        /* \"contracts/protocol/Market.sol\":2292:2299  p.vault */\n      0x20\n      add\n      0x20\n      dup2\n      add\n      swap1\n      tag_331\n      swap2\n      swap1\n      tag_67\n      jump\t// in\n    tag_331:\n        /* \"contracts/protocol/Market.sol\":2284:2289  vault */\n      0x07\n      0x00\n        /* \"contracts/protocol/Market.sol\":2284:2299  vault = p.vault */\n      0x0100\n      exp\n      dup2\n      sload\n      dup2\n      0xffffffffffffffffffffffffffffffffffffffff\n      mul\n      not\n      and\n      swap1\n      dup4\n      0xffffffffffffffffffffffffffffffffffffffff\n      and\n      mul\n      or\n      swap1\n      sstore\n      pop\n        /* \"contracts/protocol/Market.sol\":2325:2326  p */\n      dup6\n        /* \"contracts/protocol/Market.sol\":2325:2339  p.interestRate */\n      0x0100\n      add\n      calldataload\n        /* \"contracts/protocol/Market.sol\":2310:2322  interestRate */\n      0x0b\n        /* \"contracts/protocol/Market.sol\":2310:2339  interestRate = p.interestRate */\n      dup2\n      swap1\n      sstore\n      pop\n        /* \"contracts/protocol/Market.sol\":2359:2360  p */\n      dup6\n        /* \"contracts/protocol/Market.sol\":2359:2368  p.lltvBps */\n      0xe0\n      add\n      calldataload\n        /* \"contracts/protocol/Market.sol\":2349:2356  lltvBps */\n      0x0a\n        /* \"contracts/protocol/Market.sol\":2349:2368  lltvBps = p.lltvBps */\n      dup2\n      swap1\n      sstore\n      pop\n        /* \"contracts/protocol/Market.sol\":2395:2399  3000 */\n      0x0bb8\n        /* \"contracts/protocol/Market.sol\":2378:2392  protocolFeeBps */\n      0x0f\n        /* \"contracts/protocol/Market.sol\":2378:2399  protocolFeeBps = 3000 */\n      dup2\n      swap1\n      sstore\n      pop\n        /* \"contracts/protocol/Market.sol\":432:436  1e18 */\n      0x0de0b6b3a7640000\n        /* \"contracts/protocol/Market.sol\":2409:2420  borrowIndex */\n      0x11\n        /* \"contracts/protocol/Market.sol\":2409:2434  borrowIndex = INDEX_SCALE */\n      dup2\n      swap1\n      sstore\n      pop\n        /* \"contracts/protocol/Market.sol\":2460:2461  p */\n      dup6\n        /* \"contracts/protocol/Market.sol\":2460:2475  p.blocksPerYear */\n      0x0120\n      add\n      calldataload\n        /* \"contracts/protocol/Market.sol\":2444:2457  blocksPerYear */\n      0x0c\n        /* \"contracts/protocol/Market.sol\":2444:2475  blocksPerYear = p.blocksPerYear */\n      dup2\n      swap1\n      sstore\n      pop\n        /* \"contracts/protocol/Market.sol\":2503:2515  block.number */\n      number\n        /* \"contracts/protocol/Market.sol\":2485:2500  lastAccrueBlock */\n      0x12\n        /* \"contracts/protocol/Market.sol\":2485:2515  lastAccrueBlock = block.number */\n      dup2\n      swap1\n      sstore\n      pop\n        /* \"contracts/protocol/Market.sol\":2547:2548  p */\n      dup6\n        /* \"contracts/protocol/Market.sol\":2547:2568  p.liquidationBonusBps */\n      0x0140\n      add\n      calldataload\n        /* \"contracts/protocol/Market.sol\":2525:2544  liquidationBonusBps */\n      0x0d\n        /* \"contracts/protocol/Market.sol\":2525:2568  liquidationBonusBps = p.liquidationBonusBps */\n      dup2\n      swap1\n      sstore\n      pop\n        /* \"contracts/utils/Init.sol\":1270:1280  isTopLevel */\n      dup1\n        /* \"contracts/utils/Init.sol\":1266:1303  if (isTopLevel) _initializing = false */\n      iszero\n      tag_332\n      jumpi\n        /* \"contracts/utils/Init.sol\":1298:1303  false */\n      0x00\n        /* \"contracts/utils/Init.sol\":1282:1295  _initializing */\n      0x00\n      0x01\n        /* \"contracts/utils/Init.sol\":1282:1303  _initializing = false */\n      0x0100\n      exp\n      dup2\n      sload\n      dup2\n      0xff\n      mul\n      not\n      and\n      swap1\n      dup4\n      iszero\n      iszero\n      mul\n      or\n      swap1\n      sstore\n      pop\n        /* \"contracts/utils/Init.sol\":1266:1303  if (isTopLevel) _initializing = false */\n    tag_332:\n        /* \"contracts/utils/Init.sol\":1057:1310  {... */\n      pop\n        /* \"contracts/protocol/Market.sol\":1840:2575  function initialize(... */\n      pop\n      pop\n      pop\n      pop\n      pop\n      jump\t// out\n        /* \"contracts/protocol/Market.sol\":941:970  IERC20 public collateralToken */\n    tag_146:\n      0x03\n      0x00\n      swap1\n      sload\n      swap1\n      0x0100\n      exp\n      swap1\n      div\n      0xffffffffffffffffffffffffffffffffffffffff\n      and\n      dup2\n      jump\t// out\n        /* \"contracts/protocol/Market.sol\":1146:1165  uint public lltvBps */\n    tag_149:\n      sload(0x0a)\n      dup2\n      jump\t// out\n        /* \"contracts/protocol/Market.sol\":5556:5922  function borrow(uint amount) external {... */\n    tag_153:\n        /* \"contracts/protocol/Market.sol\":5604:5620  accrueInterest() */\n      tag_334\n        /* \"contracts/protocol/Market.sol\":5604:5618  accrueInterest */\n      tag_137\n        /* \"contracts/protocol/Market.sol\":5604:5620  accrueInterest() */\n      jump\t// in\n    tag_334:\n        /* \"contracts/protocol/Market.sol\":5631:5649  Position storage p */\n      0x00\n        /* \"contracts/protocol/Market.sol\":5652:5661  positions */\n      0x13\n        /* \"contracts/protocol/Market.sol\":5652:5673  positions[msg.sender] */\n      0x00\n        /* \"contracts/protocol/Market.sol\":5662:5672  msg.sender */\n      caller\n        /* \"contracts/protocol/Market.sol\":5652:5673  positions[msg.sender] */\n      0xffffffffffffffffffffffffffffffffffffffff\n      and\n      0xffffffffffffffffffffffffffffffffffffffff\n      and\n      dup2\n      mstore\n      0x20\n      add\n      swap1\n      dup2\n      mstore\n      0x20\n      add\n      0x00\n      keccak256\n        /* \"contracts/protocol/Market.sol\":5631:5673  Position storage p = positions[msg.sender] */\n      swap1\n      pop\n        /* \"contracts/protocol/Market.sol\":5684:5695  uint shares */\n      0x00\n        /* \"contracts/protocol/Market.sol\":5698:5728  _sharesForBorrowAmount(amount) */\n      tag_335\n        /* \"contracts/protocol/Market.sol\":5721:5727  amount */\n      dup4\n        /* \"contracts/protocol/Market.sol\":5698:5720  _sharesForBorrowAmount */\n      tag_336\n        /* \"contracts/protocol/Market.sol\":5698:5728  _sharesForBorrowAmount(amount) */\n      jump\t// in\n    tag_335:\n        /* \"contracts/protocol/Market.sol\":5684:5728  uint shares = _sharesForBorrowAmount(amount) */\n      swap1\n      pop\n        /* \"contracts/protocol/Market.sol\":5756:5762  shares */\n      dup1\n        /* \"contracts/protocol/Market.sol\":5738:5739  p */\n      dup3\n        /* \"contracts/protocol/Market.sol\":5738:5752  p.borrowShares */\n      0x00\n      add\n      0x00\n        /* \"contracts/protocol/Market.sol\":5738:5762  p.borrowShares += shares */\n      dup3\n      dup3\n      sload\n      tag_337\n      swap2\n      swap1\n      tag_217\n      jump\t// in\n    tag_337:\n      swap3\n      pop\n      pop\n      dup2\n      swap1\n      sstore\n      pop\n        /* \"contracts/protocol/Market.sol\":5793:5799  shares */\n      dup1\n        /* \"contracts/protocol/Market.sol\":5772:5789  totalBorrowShares */\n      0x10\n      0x00\n        /* \"contracts/protocol/Market.sol\":5772:5799  totalBorrowShares += shares */\n      dup3\n      dup3\n      sload\n      tag_338\n      swap2\n      swap1\n      tag_217\n      jump\t// in\n    tag_338:\n      swap3\n      pop\n      pop\n      dup2\n      swap1\n      sstore\n      pop\n        /* \"contracts/protocol/Market.sol\":5824:5830  shares */\n      dup1\n        /* \"contracts/protocol/Market.sol\":5809:5810  p */\n      dup3\n        /* \"contracts/protocol/Market.sol\":5809:5820  p.principal */\n      0x02\n      add\n      0x00\n        /* \"contracts/protocol/Market.sol\":5809:5830  p.principal += shares */\n      dup3\n      dup3\n      sload\n      tag_339\n      swap2\n      swap1\n      tag_217\n      jump\t// in\n    tag_339:\n      swap3\n      pop\n      pop\n      dup2\n      swap1\n      sstore\n      pop\n        /* \"contracts/protocol/Market.sol\":5841:5850  loanToken */\n      0x02\n      0x00\n      swap1\n      sload\n      swap1\n      0x0100\n      exp\n      swap1\n      div\n      0xffffffffffffffffffffffffffffffffffffffff\n      and\n        /* \"contracts/protocol/Market.sol\":5841:5859  loanToken.transfer */\n      0xffffffffffffffffffffffffffffffffffffffff\n      and\n      0xa9059cbb\n        /* \"contracts/protocol/Market.sol\":5860:5870  msg.sender */\n      caller\n        /* \"contracts/protocol/Market.sol\":5872:5878  amount */\n      dup6\n        /* \"contracts/protocol/Market.sol\":5841:5879  loanToken.transfer(msg.sender, amount) */\n      mload(0x40)\n      dup4\n      0xffffffff\n      and\n      0xe0\n      shl\n      dup2\n      mstore\n      0x04\n      add\n      tag_340\n      swap3\n      swap2\n      swap1\n      tag_193\n      jump\t// in\n    tag_340:\n      0x20\n      mload(0x40)\n      dup1\n      dup4\n      sub\n      dup2\n      0x00\n      dup8\n      gas\n      call\n      iszero\n      dup1\n      iszero\n      tag_342\n      jumpi\n      returndatacopy(0x00, 0x00, returndatasize)\n      revert(0x00, returndatasize)\n    tag_342:\n      pop\n      pop\n      pop\n      pop\n      mload(0x40)\n      returndatasize\n      not(0x1f)\n      0x1f\n      dup3\n      add\n      and\n      dup3\n      add\n      dup1\n      0x40\n      mstore\n      pop\n      dup2\n      add\n      swap1\n      tag_343\n      swap2\n      swap1\n      tag_197\n      jump\t// in\n    tag_343:\n      pop\n        /* \"contracts/protocol/Market.sol\":5889:5898  borrowers */\n      0x01\n        /* \"contracts/protocol/Market.sol\":5904:5914  msg.sender */\n      caller\n        /* \"contracts/protocol/Market.sol\":5889:5915  borrowers.push(msg.sender) */\n      swap1\n      dup1\n      0x01\n      dup2\n      sload\n      add\n      dup1\n      dup3\n      sstore\n      dup1\n      swap2\n      pop\n      pop\n      0x01\n      swap1\n      sub\n      swap1\n      0x00\n      mstore\n      keccak256(0x00, 0x20)\n      add\n      0x00\n      swap1\n      swap2\n      swap1\n      swap2\n      swap1\n      swap2\n      0x0100\n      exp\n      dup2\n      sload\n      dup2\n      0xffffffffffffffffffffffffffffffffffffffff\n      mul\n      not\n      and\n      swap1\n      dup4\n      0xffffffffffffffffffffffffffffffffffffffff\n      and\n      mul\n      or\n      swap1\n      sstore\n      pop\n        /* \"contracts/protocol/Market.sol\":5594:5922  {... */\n      pop\n      pop\n        /* \"contracts/protocol/Market.sol\":5556:5922  function borrow(uint amount) external {... */\n      pop\n      jump\t// out\n        /* \"contracts/protocol/Market.sol\":4303:4411  function assetManage() public view returns (uint) {... */\n    tag_155:\n        /* \"contracts/protocol/Market.sol\":4347:4351  uint */\n      0x00\n        /* \"contracts/protocol/Market.sol\":4393:4404  totalDebt() */\n      tag_346\n        /* \"contracts/protocol/Market.sol\":4393:4402  totalDebt */\n      tag_175\n        /* \"contracts/protocol/Market.sol\":4393:4404  totalDebt() */\n      jump\t// in\n    tag_346:\n        /* \"contracts/protocol/Market.sol\":4370:4390  availableLiquidity() */\n      tag_347\n        /* \"contracts/protocol/Market.sol\":4370:4388  availableLiquidity */\n      tag_114\n        /* \"contracts/protocol/Market.sol\":4370:4390  availableLiquidity() */\n      jump\t// in\n    tag_347:\n        /* \"contracts/protocol/Market.sol\":4370:4404  availableLiquidity() + totalDebt() */\n      tag_348\n      swap2\n      swap1\n      tag_217\n      jump\t// in\n    tag_348:\n        /* \"contracts/protocol/Market.sol\":4363:4404  return availableLiquidity() + totalDebt() */\n      swap1\n      pop\n        /* \"contracts/protocol/Market.sol\":4303:4411  function assetManage() public view returns (uint) {... */\n      swap1\n      jump\t// out\n        /* \"contracts/protocol/Market.sol\":7594:8017  function setRiskParams(... */\n    tag_160:\n        /* \"contracts/acess/Ownable.sol\":213:218  owner */\n      0x00\n      0x02\n      swap1\n      sload\n      swap1\n      0x0100\n      exp\n      swap1\n      div\n      0xffffffffffffffffffffffffffffffffffffffff\n      and\n        /* \"contracts/acess/Ownable.sol\":199:218  msg.sender == owner */\n      0xffffffffffffffffffffffffffffffffffffffff\n      and\n        /* \"contracts/acess/Ownable.sol\":199:209  msg.sender */\n      caller\n        /* \"contracts/acess/Ownable.sol\":199:218  msg.sender == owner */\n      0xffffffffffffffffffffffffffffffffffffffff\n      and\n      eq\n        /* \"contracts/acess/Ownable.sol\":191:219  require(msg.sender == owner) */\n      tag_350\n      jumpi\n      revert(0x00, 0x00)\n    tag_350:\n        /* \"contracts/protocol/Market.sol\":7775:7780  10000 */\n      0x2710\n        /* \"contracts/protocol/Market.sol\":7761:7771  newLltvBps */\n      dup4\n        /* \"contracts/protocol/Market.sol\":7761:7780  newLltvBps <= 10000 */\n      gt\n      iszero\n        /* \"contracts/protocol/Market.sol\":7753:7793  require(newLltvBps <= 10000, \"BAD_LLTV\") */\n      tag_352\n      jumpi\n      mload(0x40)\n      0x08c379a000000000000000000000000000000000000000000000000000000000\n      dup2\n      mstore\n      0x04\n      add\n      tag_353\n      swap1\n      tag_354\n      jump\t// in\n    tag_353:\n      mload(0x40)\n      dup1\n      swap2\n      sub\n      swap1\n      revert\n    tag_352:\n        /* \"contracts/protocol/Market.sol\":7837:7842  10000 */\n      0x2710\n        /* \"contracts/protocol/Market.sol\":7811:7833  newLiquidationBonusBps */\n      dup2\n        /* \"contracts/protocol/Market.sol\":7811:7842  newLiquidationBonusBps <= 10000 */\n      gt\n      iszero\n        /* \"contracts/protocol/Market.sol\":7803:7860  require(newLiquidationBonusBps <= 10000, \"BAD_LIQ_BONUS\") */\n      tag_355\n      jumpi\n      mload(0x40)\n      0x08c379a000000000000000000000000000000000000000000000000000000000\n      dup2\n      mstore\n      0x04\n      add\n      tag_356\n      swap1\n      tag_357\n      jump\t// in\n    tag_356:\n      mload(0x40)\n      dup1\n      swap2\n      sub\n      swap1\n      revert\n    tag_355:\n        /* \"contracts/protocol/Market.sol\":7870:7886  accrueInterest() */\n      tag_358\n        /* \"contracts/protocol/Market.sol\":7870:7884  accrueInterest */\n      tag_137\n        /* \"contracts/protocol/Market.sol\":7870:7886  accrueInterest() */\n      jump\t// in\n    tag_358:\n        /* \"contracts/protocol/Market.sol\":7906:7916  newLltvBps */\n      dup3\n        /* \"contracts/protocol/Market.sol\":7896:7903  lltvBps */\n      0x0a\n        /* \"contracts/protocol/Market.sol\":7896:7916  lltvBps = newLltvBps */\n      dup2\n      swap1\n      sstore\n      pop\n        /* \"contracts/protocol/Market.sol\":7941:7956  newInterestRate */\n      dup2\n        /* \"contracts/protocol/Market.sol\":7926:7938  interestRate */\n      0x0b\n        /* \"contracts/protocol/Market.sol\":7926:7956  interestRate = newInterestRate */\n      dup2\n      swap1\n      sstore\n      pop\n        /* \"contracts/protocol/Market.sol\":7988:8010  newLiquidationBonusBps */\n      dup1\n        /* \"contracts/protocol/Market.sol\":7966:7985  liquidationBonusBps */\n      0x0d\n        /* \"contracts/protocol/Market.sol\":7966:8010  liquidationBonusBps = newLiquidationBonusBps */\n      dup2\n      swap1\n      sstore\n      pop\n        /* \"contracts/protocol/Market.sol\":7594:8017  function setRiskParams(... */\n      pop\n      pop\n      pop\n      jump\t// out\n        /* \"contracts/protocol/Market.sol\":4078:4297  function debtOf(address borrower) public view returns (uint) {... */\n    tag_163:\n        /* \"contracts/protocol/Market.sol\":4133:4137  uint */\n      0x00\n        /* \"contracts/protocol/Market.sol\":4149:4160  uint shares */\n      0x00\n        /* \"contracts/protocol/Market.sol\":4163:4172  positions */\n      0x13\n        /* \"contracts/protocol/Market.sol\":4163:4182  positions[borrower] */\n      0x00\n        /* \"contracts/protocol/Market.sol\":4173:4181  borrower */\n      dup5\n        /* \"contracts/protocol/Market.sol\":4163:4182  positions[borrower] */\n      0xffffffffffffffffffffffffffffffffffffffff\n      and\n      0xffffffffffffffffffffffffffffffffffffffff\n      and\n      dup2\n      mstore\n      0x20\n      add\n      swap1\n      dup2\n      mstore\n      0x20\n      add\n      0x00\n      keccak256\n        /* \"contracts/protocol/Market.sol\":4163:4195  positions[borrower].borrowShares */\n      0x00\n      add\n      sload\n        /* \"contracts/protocol/Market.sol\":4149:4195  uint shares = positions[borrower].borrowShares */\n      swap1\n      pop\n        /* \"contracts/protocol/Market.sol\":4234:4235  0 */\n      0x00\n        /* \"contracts/protocol/Market.sol\":4224:4230  shares */\n      dup2\n        /* \"contracts/protocol/Market.sol\":4224:4235  shares == 0 */\n      eq\n        /* \"contracts/protocol/Market.sol\":4224:4290  shares == 0 ? 0 : (shares * _projectedBorrowIndex()) / INDEX_SCALE */\n      tag_360\n      jumpi\n        /* \"contracts/protocol/Market.sol\":432:436  1e18 */\n      0x0de0b6b3a7640000\n        /* \"contracts/protocol/Market.sol\":4252:4275  _projectedBorrowIndex() */\n      tag_361\n        /* \"contracts/protocol/Market.sol\":4252:4273  _projectedBorrowIndex */\n      tag_362\n        /* \"contracts/protocol/Market.sol\":4252:4275  _projectedBorrowIndex() */\n      jump\t// in\n    tag_361:\n        /* \"contracts/protocol/Market.sol\":4243:4249  shares */\n      dup3\n        /* \"contracts/protocol/Market.sol\":4243:4275  shares * _projectedBorrowIndex() */\n      tag_363\n      swap2\n      swap1\n      tag_184\n      jump\t// in\n    tag_363:\n        /* \"contracts/protocol/Market.sol\":4242:4290  (shares * _projectedBorrowIndex()) / INDEX_SCALE */\n      tag_364\n      swap2\n      swap1\n      tag_186\n      jump\t// in\n    tag_364:\n        /* \"contracts/protocol/Market.sol\":4224:4290  shares == 0 ? 0 : (shares * _projectedBorrowIndex()) / INDEX_SCALE */\n      jump(tag_365)\n    tag_360:\n        /* \"contracts/protocol/Market.sol\":4238:4239  0 */\n      0x00\n        /* \"contracts/protocol/Market.sol\":4224:4290  shares == 0 ? 0 : (shares * _projectedBorrowIndex()) / INDEX_SCALE */\n    tag_365:\n        /* \"contracts/protocol/Market.sol\":4205:4290  return... */\n      swap2\n      pop\n      pop\n        /* \"contracts/protocol/Market.sol\":4078:4297  function debtOf(address borrower) public view returns (uint) {... */\n      swap2\n      swap1\n      pop\n      jump\t// out\n        /* \"contracts/acess/Ownable.sol\":394:532  function ownershipTransfer(address newOwner) external onlyOwner {... */\n    tag_167:\n        /* \"contracts/acess/Ownable.sol\":213:218  owner */\n      0x00\n      0x02\n      swap1\n      sload\n      swap1\n      0x0100\n      exp\n      swap1\n      div\n      0xffffffffffffffffffffffffffffffffffffffff\n      and\n        /* \"contracts/acess/Ownable.sol\":199:218  msg.sender == owner */\n      0xffffffffffffffffffffffffffffffffffffffff\n      and\n        /* \"contracts/acess/Ownable.sol\":199:209  msg.sender */\n      caller\n        /* \"contracts/acess/Ownable.sol\":199:218  msg.sender == owner */\n      0xffffffffffffffffffffffffffffffffffffffff\n      and\n      eq\n        /* \"contracts/acess/Ownable.sol\":191:219  require(msg.sender == owner) */\n      tag_367\n      jumpi\n      revert(0x00, 0x00)\n    tag_367:\n        /* \"contracts/acess/Ownable.sol\":496:497  0 */\n      0x00\n        /* \"contracts/acess/Ownable.sol\":476:498  newOwner != address(0) */\n      0xffffffffffffffffffffffffffffffffffffffff\n      and\n        /* \"contracts/acess/Ownable.sol\":476:484  newOwner */\n      dup2\n        /* \"contracts/acess/Ownable.sol\":476:498  newOwner != address(0) */\n      0xffffffffffffffffffffffffffffffffffffffff\n      and\n      sub\n        /* \"contracts/acess/Ownable.sol\":468:499  require(newOwner != address(0)) */\n      tag_369\n      jumpi\n      revert(0x00, 0x00)\n    tag_369:\n        /* \"contracts/acess/Ownable.sol\":517:525  newOwner */\n      dup1\n        /* \"contracts/acess/Ownable.sol\":509:514  owner */\n      0x00\n      0x02\n        /* \"contracts/acess/Ownable.sol\":509:525  owner = newOwner */\n      0x0100\n      exp\n      dup2\n      sload\n      dup2\n      0xffffffffffffffffffffffffffffffffffffffff\n      mul\n      not\n      and\n      swap1\n      dup4\n      0xffffffffffffffffffffffffffffffffffffffff\n      and\n      mul\n      or\n      swap1\n      sstore\n      pop\n        /* \"contracts/acess/Ownable.sol\":394:532  function ownershipTransfer(address newOwner) external onlyOwner {... */\n      pop\n      jump\t// out\n        /* \"contracts/protocol/Market.sol\":1269:1297  uint public protocolReserves */\n    tag_169:\n      sload(0x0e)\n      dup2\n      jump\t// out\n        /* \"contracts/protocol/Market.sol\":1059:1079  address public vault */\n    tag_172:\n      0x07\n      0x00\n      swap1\n      sload\n      swap1\n      0x0100\n      exp\n      swap1\n      div\n      0xffffffffffffffffffffffffffffffffffffffff\n      and\n      dup2\n      jump\t// out\n        /* \"contracts/protocol/Market.sol\":3868:4072  function totalDebt() public view returns (uint) {... */\n    tag_175:\n        /* \"contracts/protocol/Market.sol\":3910:3914  uint */\n      0x00\n        /* \"contracts/protocol/Market.sol\":3966:3967  0 */\n      0x00\n        /* \"contracts/protocol/Market.sol\":3945:3962  totalBorrowShares */\n      sload(0x10)\n        /* \"contracts/protocol/Market.sol\":3945:3967  totalBorrowShares == 0 */\n      eq\n        /* \"contracts/protocol/Market.sol\":3945:4065  totalBorrowShares == 0... */\n      tag_371\n      jumpi\n        /* \"contracts/protocol/Market.sol\":432:436  1e18 */\n      0x0de0b6b3a7640000\n        /* \"contracts/protocol/Market.sol\":4027:4050  _projectedBorrowIndex() */\n      tag_372\n        /* \"contracts/protocol/Market.sol\":4027:4048  _projectedBorrowIndex */\n      tag_362\n        /* \"contracts/protocol/Market.sol\":4027:4050  _projectedBorrowIndex() */\n      jump\t// in\n    tag_372:\n        /* \"contracts/protocol/Market.sol\":4007:4024  totalBorrowShares */\n      sload(0x10)\n        /* \"contracts/protocol/Market.sol\":4007:4050  totalBorrowShares * _projectedBorrowIndex() */\n      tag_373\n      swap2\n      swap1\n      tag_184\n      jump\t// in\n    tag_373:\n        /* \"contracts/protocol/Market.sol\":4006:4065  (totalBorrowShares * _projectedBorrowIndex()) / INDEX_SCALE */\n      tag_374\n      swap2\n      swap1\n      tag_186\n      jump\t// in\n    tag_374:\n        /* \"contracts/protocol/Market.sol\":3945:4065  totalBorrowShares == 0... */\n      jump(tag_375)\n    tag_371:\n        /* \"contracts/protocol/Market.sol\":3986:3987  0 */\n      0x00\n        /* \"contracts/protocol/Market.sol\":3945:4065  totalBorrowShares == 0... */\n    tag_375:\n        /* \"contracts/protocol/Market.sol\":3926:4065  return... */\n      swap1\n      pop\n        /* \"contracts/protocol/Market.sol\":3868:4072  function totalDebt() public view returns (uint) {... */\n      swap1\n      jump\t// out\n        /* \"contracts/protocol/Market.sol\":3738:3862  function _isHealthy(address borrower) internal view returns (bool) {... */\n    tag_190:\n        /* \"contracts/protocol/Market.sol\":3799:3803  bool */\n      0x00\n        /* \"contracts/protocol/Market.sol\":3848:3855  lltvBps */\n      sload(0x0a)\n        /* \"contracts/protocol/Market.sol\":3822:3845  currentLtvBps(borrower) */\n      tag_377\n        /* \"contracts/protocol/Market.sol\":3836:3844  borrower */\n      dup4\n        /* \"contracts/protocol/Market.sol\":3822:3835  currentLtvBps */\n      tag_107\n        /* \"contracts/protocol/Market.sol\":3822:3845  currentLtvBps(borrower) */\n      jump\t// in\n    tag_377:\n        /* \"contracts/protocol/Market.sol\":3822:3855  currentLtvBps(borrower) < lltvBps */\n      lt\n        /* \"contracts/protocol/Market.sol\":3815:3855  return currentLtvBps(borrower) < lltvBps */\n      swap1\n      pop\n        /* \"contracts/protocol/Market.sol\":3738:3862  function _isHealthy(address borrower) internal view returns (bool) {... */\n      swap2\n      swap1\n      pop\n      jump\t// out\n        /* \"contracts/acess/Ownable.sol\":243:389  function __Ownable_init(address initializeOwner) internal {... */\n    tag_322:\n        /* \"contracts/acess/Ownable.sol\":346:347  0 */\n      0x00\n        /* \"contracts/acess/Ownable.sol\":319:348  initializeOwner != address(0) */\n      0xffffffffffffffffffffffffffffffffffffffff\n      and\n        /* \"contracts/acess/Ownable.sol\":319:334  initializeOwner */\n      dup2\n        /* \"contracts/acess/Ownable.sol\":319:348  initializeOwner != address(0) */\n      0xffffffffffffffffffffffffffffffffffffffff\n      and\n      sub\n        /* \"contracts/acess/Ownable.sol\":311:349  require(initializeOwner != address(0)) */\n      tag_379\n      jumpi\n      revert(0x00, 0x00)\n    tag_379:\n        /* \"contracts/acess/Ownable.sol\":367:382  initializeOwner */\n      dup1\n        /* \"contracts/acess/Ownable.sol\":359:364  owner */\n      0x00\n      0x02\n        /* \"contracts/acess/Ownable.sol\":359:382  owner = initializeOwner */\n      0x0100\n      exp\n      dup2\n      sload\n      dup2\n      0xffffffffffffffffffffffffffffffffffffffff\n      mul\n      not\n      and\n      swap1\n      dup4\n      0xffffffffffffffffffffffffffffffffffffffff\n      and\n      mul\n      or\n      swap1\n      sstore\n      pop\n        /* \"contracts/acess/Ownable.sol\":243:389  function __Ownable_init(address initializeOwner) internal {... */\n      pop\n      jump\t// out\n        /* \"contracts/protocol/Market.sol\":3538:3732  function _sharesForBorrowAmount(... */\n    tag_336:\n        /* \"contracts/protocol/Market.sol\":3620:3631  uint shares */\n      0x00\n        /* \"contracts/protocol/Market.sol\":3677:3688  borrowIndex */\n      sload(0x11)\n        /* \"contracts/protocol/Market.sol\":432:436  1e18 */\n      0x0de0b6b3a7640000\n        /* \"contracts/protocol/Market.sol\":3653:3659  amount */\n      dup4\n        /* \"contracts/protocol/Market.sol\":3653:3673  amount * INDEX_SCALE */\n      tag_381\n      swap2\n      swap1\n      tag_184\n      jump\t// in\n    tag_381:\n        /* \"contracts/protocol/Market.sol\":3652:3688  (amount * INDEX_SCALE) / borrowIndex */\n      tag_382\n      swap2\n      swap1\n      tag_186\n      jump\t// in\n    tag_382:\n        /* \"contracts/protocol/Market.sol\":3643:3688  shares = (amount * INDEX_SCALE) / borrowIndex */\n      swap1\n      pop\n        /* \"contracts/protocol/Market.sol\":3712:3713  0 */\n      0x00\n        /* \"contracts/protocol/Market.sol\":3702:3708  shares */\n      dup2\n        /* \"contracts/protocol/Market.sol\":3702:3713  shares == 0 */\n      sub\n        /* \"contracts/protocol/Market.sol\":3698:3725  if (shares == 0) shares = 1 */\n      tag_383\n      jumpi\n        /* \"contracts/protocol/Market.sol\":3724:3725  1 */\n      0x01\n        /* \"contracts/protocol/Market.sol\":3715:3725  shares = 1 */\n      swap1\n      pop\n        /* \"contracts/protocol/Market.sol\":3698:3725  if (shares == 0) shares = 1 */\n    tag_383:\n        /* \"contracts/protocol/Market.sol\":3538:3732  function _sharesForBorrowAmount(... */\n      swap2\n      swap1\n      pop\n      jump\t// out\n        /* \"contracts/protocol/Market.sol\":3160:3532  function _projectedBorrowIndex() internal view returns (uint index) {... */\n    tag_362:\n        /* \"contracts/protocol/Market.sol\":3216:3226  uint index */\n      0x00\n        /* \"contracts/protocol/Market.sol\":3246:3257  borrowIndex */\n      sload(0x11)\n        /* \"contracts/protocol/Market.sol\":3238:3257  index = borrowIndex */\n      swap1\n      pop\n        /* \"contracts/protocol/Market.sol\":3287:3302  lastAccrueBlock */\n      sload(0x12)\n        /* \"contracts/protocol/Market.sol\":3271:3283  block.number */\n      number\n        /* \"contracts/protocol/Market.sol\":3271:3302  block.number == lastAccrueBlock */\n      eq\n        /* \"contracts/protocol/Market.sol\":3271:3327  block.number == lastAccrueBlock && totalBorrowShares > 0 */\n      dup1\n      iszero\n      tag_385\n      jumpi\n      pop\n        /* \"contracts/protocol/Market.sol\":3326:3327  0 */\n      0x00\n        /* \"contracts/protocol/Market.sol\":3306:3323  totalBorrowShares */\n      sload(0x10)\n        /* \"contracts/protocol/Market.sol\":3306:3327  totalBorrowShares > 0 */\n      gt\n        /* \"contracts/protocol/Market.sol\":3271:3327  block.number == lastAccrueBlock && totalBorrowShares > 0 */\n    tag_385:\n        /* \"contracts/protocol/Market.sol\":3267:3526  if (block.number == lastAccrueBlock && totalBorrowShares > 0) {... */\n      iszero\n      tag_386\n      jumpi\n        /* \"contracts/protocol/Market.sol\":3343:3359  uint deltaBlocks */\n      0x00\n        /* \"contracts/protocol/Market.sol\":3377:3392  lastAccrueBlock */\n      sload(0x12)\n        /* \"contracts/protocol/Market.sol\":3362:3374  block.number */\n      number\n        /* \"contracts/protocol/Market.sol\":3362:3392  block.number - lastAccrueBlock */\n      tag_387\n      swap2\n      swap1\n      tag_188\n      jump\t// in\n    tag_387:\n        /* \"contracts/protocol/Market.sol\":3343:3392  uint deltaBlocks = block.number - lastAccrueBlock */\n      swap1\n      pop\n        /* \"contracts/protocol/Market.sol\":3406:3417  uint growth */\n      0x00\n        /* \"contracts/protocol/Market.sol\":432:436  1e18 */\n      0x0de0b6b3a7640000\n        /* \"contracts/protocol/Market.sol\":3436:3447  deltaBlocks */\n      dup3\n        /* \"contracts/protocol/Market.sol\":3421:3433  interestRate */\n      sload(0x0b)\n        /* \"contracts/protocol/Market.sol\":3421:3447  interestRate * deltaBlocks */\n      tag_388\n      swap2\n      swap1\n      tag_184\n      jump\t// in\n    tag_388:\n        /* \"contracts/protocol/Market.sol\":3420:3462  (interestRate * deltaBlocks) / INDEX_SCALE */\n      tag_389\n      swap2\n      swap1\n      tag_186\n      jump\t// in\n    tag_389:\n        /* \"contracts/protocol/Market.sol\":3406:3462  uint growth = (interestRate * deltaBlocks) / INDEX_SCALE */\n      swap1\n      pop\n        /* \"contracts/protocol/Market.sol\":432:436  1e18 */\n      0x0de0b6b3a7640000\n        /* \"contracts/protocol/Market.sol\":3494:3500  growth */\n      dup2\n        /* \"contracts/protocol/Market.sol\":3486:3491  index */\n      dup5\n        /* \"contracts/protocol/Market.sol\":3486:3500  index * growth */\n      tag_390\n      swap2\n      swap1\n      tag_184\n      jump\t// in\n    tag_390:\n        /* \"contracts/protocol/Market.sol\":3485:3515  (index * growth) / INDEX_SCALE */\n      tag_391\n      swap2\n      swap1\n      tag_186\n      jump\t// in\n    tag_391:\n        /* \"contracts/protocol/Market.sol\":3476:3515  index += (index * growth) / INDEX_SCALE */\n      dup4\n      tag_392\n      swap2\n      swap1\n      tag_217\n      jump\t// in\n    tag_392:\n      swap3\n      pop\n        /* \"contracts/protocol/Market.sol\":3329:3526  {... */\n      pop\n      pop\n        /* \"contracts/protocol/Market.sol\":3267:3526  if (block.number == lastAccrueBlock && totalBorrowShares > 0) {... */\n    tag_386:\n        /* \"contracts/protocol/Market.sol\":3160:3532  function _projectedBorrowIndex() internal view returns (uint index) {... */\n      swap1\n      jump\t// out\n        /* \"#utility.yul\":7:133   */\n    tag_393:\n        /* \"#utility.yul\":44:51   */\n      0x00\n        /* \"#utility.yul\":84:126   */\n      0xffffffffffffffffffffffffffffffffffffffff\n        /* \"#utility.yul\":77:82   */\n      dup3\n        /* \"#utility.yul\":73:127   */\n      and\n        /* \"#utility.yul\":62:127   */\n      swap1\n      pop\n        /* \"#utility.yul\":7:133   */\n      swap2\n      swap1\n      pop\n      jump\t// out\n        /* \"#utility.yul\":139:199   */\n    tag_394:\n        /* \"#utility.yul\":167:170   */\n      0x00\n        /* \"#utility.yul\":188:193   */\n      dup2\n        /* \"#utility.yul\":181:193   */\n      swap1\n      pop\n        /* \"#utility.yul\":139:199   */\n      swap2\n      swap1\n      pop\n      jump\t// out\n        /* \"#utility.yul\":205:347   */\n    tag_395:\n        /* \"#utility.yul\":255:264   */\n      0x00\n        /* \"#utility.yul\":288:341   */\n      tag_456\n        /* \"#utility.yul\":306:340   */\n      tag_457\n        /* \"#utility.yul\":315:339   */\n      tag_458\n        /* \"#utility.yul\":333:338   */\n      dup5\n        /* \"#utility.yul\":315:339   */\n      tag_393\n      jump\t// in\n    tag_458:\n        /* \"#utility.yul\":306:340   */\n      tag_394\n      jump\t// in\n    tag_457:\n        /* \"#utility.yul\":288:341   */\n      tag_393\n      jump\t// in\n    tag_456:\n        /* \"#utility.yul\":275:341   */\n      swap1\n      pop\n        /* \"#utility.yul\":205:347   */\n      swap2\n      swap1\n      pop\n      jump\t// out\n        /* \"#utility.yul\":353:479   */\n    tag_396:\n        /* \"#utility.yul\":403:412   */\n      0x00\n        /* \"#utility.yul\":436:473   */\n      tag_460\n        /* \"#utility.yul\":467:472   */\n      dup3\n        /* \"#utility.yul\":436:473   */\n      tag_395\n      jump\t// in\n    tag_460:\n        /* \"#utility.yul\":423:473   */\n      swap1\n      pop\n        /* \"#utility.yul\":353:479   */\n      swap2\n      swap1\n      pop\n      jump\t// out\n        /* \"#utility.yul\":485:625   */\n    tag_397:\n        /* \"#utility.yul\":549:558   */\n      0x00\n        /* \"#utility.yul\":582:619   */\n      tag_462\n        /* \"#utility.yul\":613:618   */\n      dup3\n        /* \"#utility.yul\":582:619   */\n      tag_396\n      jump\t// in\n    tag_462:\n        /* \"#utility.yul\":569:619   */\n      swap1\n      pop\n        /* \"#utility.yul\":485:625   */\n      swap2\n      swap1\n      pop\n      jump\t// out\n        /* \"#utility.yul\":631:790   */\n    tag_398:\n        /* \"#utility.yul\":732:783   */\n      tag_464\n        /* \"#utility.yul\":777:782   */\n      dup2\n        /* \"#utility.yul\":732:783   */\n      tag_397\n      jump\t// in\n    tag_464:\n        /* \"#utility.yul\":727:730   */\n      dup3\n        /* \"#utility.yul\":720:784   */\n      mstore\n        /* \"#utility.yul\":631:790   */\n      pop\n      pop\n      jump\t// out\n        /* \"#utility.yul\":796:1046   */\n    tag_51:\n        /* \"#utility.yul\":903:907   */\n      0x00\n        /* \"#utility.yul\":941:943   */\n      0x20\n        /* \"#utility.yul\":930:939   */\n      dup3\n        /* \"#utility.yul\":926:944   */\n      add\n        /* \"#utility.yul\":918:944   */\n      swap1\n      pop\n        /* \"#utility.yul\":954:1039   */\n      tag_466\n        /* \"#utility.yul\":1036:1037   */\n      0x00\n        /* \"#utility.yul\":1025:1034   */\n      dup4\n        /* \"#utility.yul\":1021:1038   */\n      add\n        /* \"#utility.yul\":1012:1018   */\n      dup5\n        /* \"#utility.yul\":954:1039   */\n      tag_398\n      jump\t// in\n    tag_466:\n        /* \"#utility.yul\":796:1046   */\n      swap3\n      swap2\n      pop\n      pop\n      jump\t// out\n        /* \"#utility.yul\":1052:1129   */\n    tag_399:\n        /* \"#utility.yul\":1089:1096   */\n      0x00\n        /* \"#utility.yul\":1118:1123   */\n      dup2\n        /* \"#utility.yul\":1107:1123   */\n      swap1\n      pop\n        /* \"#utility.yul\":1052:1129   */\n      swap2\n      swap1\n      pop\n      jump\t// out\n        /* \"#utility.yul\":1135:1253   */\n    tag_400:\n        /* \"#utility.yul\":1222:1246   */\n      tag_469\n        /* \"#utility.yul\":1240:1245   */\n      dup2\n        /* \"#utility.yul\":1222:1246   */\n      tag_399\n      jump\t// in\n    tag_469:\n        /* \"#utility.yul\":1217:1220   */\n      dup3\n        /* \"#utility.yul\":1210:1247   */\n      mstore\n        /* \"#utility.yul\":1135:1253   */\n      pop\n      pop\n      jump\t// out\n        /* \"#utility.yul\":1259:1481   */\n    tag_55:\n        /* \"#utility.yul\":1352:1356   */\n      0x00\n        /* \"#utility.yul\":1390:1392   */\n      0x20\n        /* \"#utility.yul\":1379:1388   */\n      dup3\n        /* \"#utility.yul\":1375:1393   */\n      add\n        /* \"#utility.yul\":1367:1393   */\n      swap1\n      pop\n        /* \"#utility.yul\":1403:1474   */\n      tag_471\n        /* \"#utility.yul\":1471:1472   */\n      0x00\n        /* \"#utility.yul\":1460:1469   */\n      dup4\n        /* \"#utility.yul\":1456:1473   */\n      add\n        /* \"#utility.yul\":1447:1453   */\n      dup5\n        /* \"#utility.yul\":1403:1474   */\n      tag_400\n      jump\t// in\n    tag_471:\n        /* \"#utility.yul\":1259:1481   */\n      swap3\n      swap2\n      pop\n      pop\n      jump\t// out\n        /* \"#utility.yul\":1568:1685   */\n    tag_402:\n        /* \"#utility.yul\":1677:1678   */\n      0x00\n        /* \"#utility.yul\":1674:1675   */\n      0x00\n        /* \"#utility.yul\":1667:1679   */\n      revert\n        /* \"#utility.yul\":1691:1808   */\n    tag_403:\n        /* \"#utility.yul\":1800:1801   */\n      0x00\n        /* \"#utility.yul\":1797:1798   */\n      0x00\n        /* \"#utility.yul\":1790:1802   */\n      revert\n        /* \"#utility.yul\":1814:1910   */\n    tag_404:\n        /* \"#utility.yul\":1851:1858   */\n      0x00\n        /* \"#utility.yul\":1880:1904   */\n      tag_476\n        /* \"#utility.yul\":1898:1903   */\n      dup3\n        /* \"#utility.yul\":1880:1904   */\n      tag_393\n      jump\t// in\n    tag_476:\n        /* \"#utility.yul\":1869:1904   */\n      swap1\n      pop\n        /* \"#utility.yul\":1814:1910   */\n      swap2\n      swap1\n      pop\n      jump\t// out\n        /* \"#utility.yul\":1916:2038   */\n    tag_405:\n        /* \"#utility.yul\":1989:2013   */\n      tag_478\n        /* \"#utility.yul\":2007:2012   */\n      dup2\n        /* \"#utility.yul\":1989:2013   */\n      tag_404\n      jump\t// in\n    tag_478:\n        /* \"#utility.yul\":1982:1987   */\n      dup2\n        /* \"#utility.yul\":1979:2014   */\n      eq\n        /* \"#utility.yul\":1969:2032   */\n      tag_479\n      jumpi\n        /* \"#utility.yul\":2028:2029   */\n      0x00\n        /* \"#utility.yul\":2025:2026   */\n      0x00\n        /* \"#utility.yul\":2018:2030   */\n      revert\n        /* \"#utility.yul\":1969:2032   */\n    tag_479:\n        /* \"#utility.yul\":1916:2038   */\n      pop\n      jump\t// out\n        /* \"#utility.yul\":2044:2183   */\n    tag_406:\n        /* \"#utility.yul\":2090:2095   */\n      0x00\n        /* \"#utility.yul\":2128:2134   */\n      dup2\n        /* \"#utility.yul\":2115:2135   */\n      calldataload\n        /* \"#utility.yul\":2106:2135   */\n      swap1\n      pop\n        /* \"#utility.yul\":2144:2177   */\n      tag_481\n        /* \"#utility.yul\":2171:2176   */\n      dup2\n        /* \"#utility.yul\":2144:2177   */\n      tag_405\n      jump\t// in\n    tag_481:\n        /* \"#utility.yul\":2044:2183   */\n      swap3\n      swap2\n      pop\n      pop\n      jump\t// out\n        /* \"#utility.yul\":2189:2518   */\n    tag_67:\n        /* \"#utility.yul\":2248:2254   */\n      0x00\n        /* \"#utility.yul\":2297:2299   */\n      0x20\n        /* \"#utility.yul\":2285:2294   */\n      dup3\n        /* \"#utility.yul\":2276:2283   */\n      dup5\n        /* \"#utility.yul\":2272:2295   */\n      sub\n        /* \"#utility.yul\":2268:2300   */\n      slt\n        /* \"#utility.yul\":2265:2384   */\n      iszero\n      tag_483\n      jumpi\n        /* \"#utility.yul\":2303:2382   */\n      tag_484\n      tag_402\n      jump\t// in\n    tag_484:\n        /* \"#utility.yul\":2265:2384   */\n    tag_483:\n        /* \"#utility.yul\":2423:2424   */\n      0x00\n        /* \"#utility.yul\":2448:2501   */\n      tag_485\n        /* \"#utility.yul\":2493:2500   */\n      dup5\n        /* \"#utility.yul\":2484:2490   */\n      dup3\n        /* \"#utility.yul\":2473:2482   */\n      dup6\n        /* \"#utility.yul\":2469:2491   */\n      add\n        /* \"#utility.yul\":2448:2501   */\n      tag_406\n      jump\t// in\n    tag_485:\n        /* \"#utility.yul\":2438:2501   */\n      swap2\n      pop\n        /* \"#utility.yul\":2394:2511   */\n      pop\n        /* \"#utility.yul\":2189:2518   */\n      swap3\n      swap2\n      pop\n      pop\n      jump\t// out\n        /* \"#utility.yul\":2524:2646   */\n    tag_407:\n        /* \"#utility.yul\":2597:2621   */\n      tag_487\n        /* \"#utility.yul\":2615:2620   */\n      dup2\n        /* \"#utility.yul\":2597:2621   */\n      tag_399\n      jump\t// in\n    tag_487:\n        /* \"#utility.yul\":2590:2595   */\n      dup2\n        /* \"#utility.yul\":2587:2622   */\n      eq\n        /* \"#utility.yul\":2577:2640   */\n      tag_488\n      jumpi\n        /* \"#utility.yul\":2636:2637   */\n      0x00\n        /* \"#utility.yul\":2633:2634   */\n      0x00\n        /* \"#utility.yul\":2626:2638   */\n      revert\n        /* \"#utility.yul\":2577:2640   */\n    tag_488:\n        /* \"#utility.yul\":2524:2646   */\n      pop\n      jump\t// out\n        /* \"#utility.yul\":2652:2791   */\n    tag_408:\n        /* \"#utility.yul\":2698:2703   */\n      0x00\n        /* \"#utility.yul\":2736:2742   */\n      dup2\n        /* \"#utility.yul\":2723:2743   */\n      calldataload\n        /* \"#utility.yul\":2714:2743   */\n      swap1\n      pop\n        /* \"#utility.yul\":2752:2785   */\n      tag_490\n        /* \"#utility.yul\":2779:2784   */\n      dup2\n        /* \"#utility.yul\":2752:2785   */\n      tag_407\n      jump\t// in\n    tag_490:\n        /* \"#utility.yul\":2652:2791   */\n      swap3\n      swap2\n      pop\n      pop\n      jump\t// out\n        /* \"#utility.yul\":2797:3126   */\n    tag_74:\n        /* \"#utility.yul\":2856:2862   */\n      0x00\n        /* \"#utility.yul\":2905:2907   */\n      0x20\n        /* \"#utility.yul\":2893:2902   */\n      dup3\n        /* \"#utility.yul\":2884:2891   */\n      dup5\n        /* \"#utility.yul\":2880:2903   */\n      sub\n        /* \"#utility.yul\":2876:2908   */\n      slt\n        /* \"#utility.yul\":2873:2992   */\n      iszero\n      tag_492\n      jumpi\n        /* \"#utility.yul\":2911:2990   */\n      tag_493\n      tag_402\n      jump\t// in\n    tag_493:\n        /* \"#utility.yul\":2873:2992   */\n    tag_492:\n        /* \"#utility.yul\":3031:3032   */\n      0x00\n        /* \"#utility.yul\":3056:3109   */\n      tag_494\n        /* \"#utility.yul\":3101:3108   */\n      dup5\n        /* \"#utility.yul\":3092:3098   */\n      dup3\n        /* \"#utility.yul\":3081:3090   */\n      dup6\n        /* \"#utility.yul\":3077:3099   */\n      add\n        /* \"#utility.yul\":3056:3109   */\n      tag_408\n      jump\t// in\n    tag_494:\n        /* \"#utility.yul\":3046:3109   */\n      swap2\n      pop\n        /* \"#utility.yul\":3002:3119   */\n      pop\n        /* \"#utility.yul\":2797:3126   */\n      swap3\n      swap2\n      pop\n      pop\n      jump\t// out\n        /* \"#utility.yul\":3132:3250   */\n    tag_409:\n        /* \"#utility.yul\":3219:3243   */\n      tag_496\n        /* \"#utility.yul\":3237:3242   */\n      dup2\n        /* \"#utility.yul\":3219:3243   */\n      tag_404\n      jump\t// in\n    tag_496:\n        /* \"#utility.yul\":3214:3217   */\n      dup3\n        /* \"#utility.yul\":3207:3244   */\n      mstore\n        /* \"#utility.yul\":3132:3250   */\n      pop\n      pop\n      jump\t// out\n        /* \"#utility.yul\":3256:3478   */\n    tag_86:\n        /* \"#utility.yul\":3349:3353   */\n      0x00\n        /* \"#utility.yul\":3387:3389   */\n      0x20\n        /* \"#utility.yul\":3376:3385   */\n      dup3\n        /* \"#utility.yul\":3372:3390   */\n      add\n        /* \"#utility.yul\":3364:3390   */\n      swap1\n      pop\n        /* \"#utility.yul\":3400:3471   */\n      tag_498\n        /* \"#utility.yul\":3468:3469   */\n      0x00\n        /* \"#utility.yul\":3457:3466   */\n      dup4\n        /* \"#utility.yul\":3453:3470   */\n      add\n        /* \"#utility.yul\":3444:3450   */\n      dup5\n        /* \"#utility.yul\":3400:3471   */\n      tag_409\n      jump\t// in\n    tag_498:\n        /* \"#utility.yul\":3256:3478   */\n      swap3\n      swap2\n      pop\n      pop\n      jump\t// out\n        /* \"#utility.yul\":3484:3583   */\n    tag_410:\n        /* \"#utility.yul\":3536:3542   */\n      0x00\n        /* \"#utility.yul\":3570:3575   */\n      dup2\n        /* \"#utility.yul\":3564:3576   */\n      mload\n        /* \"#utility.yul\":3554:3576   */\n      swap1\n      pop\n        /* \"#utility.yul\":3484:3583   */\n      swap2\n      swap1\n      pop\n      jump\t// out\n        /* \"#utility.yul\":3589:3758   */\n    tag_411:\n        /* \"#utility.yul\":3673:3684   */\n      0x00\n        /* \"#utility.yul\":3707:3713   */\n      dup3\n        /* \"#utility.yul\":3702:3705   */\n      dup3\n        /* \"#utility.yul\":3695:3714   */\n      mstore\n        /* \"#utility.yul\":3747:3751   */\n      0x20\n        /* \"#utility.yul\":3742:3745   */\n      dup3\n        /* \"#utility.yul\":3738:3752   */\n      add\n        /* \"#utility.yul\":3723:3752   */\n      swap1\n      pop\n        /* \"#utility.yul\":3589:3758   */\n      swap3\n      swap2\n      pop\n      pop\n      jump\t// out\n        /* \"#utility.yul\":3764:3903   */\n    tag_412:\n        /* \"#utility.yul\":3853:3859   */\n      dup3\n        /* \"#utility.yul\":3848:3851   */\n      dup2\n        /* \"#utility.yul\":3843:3846   */\n      dup4\n        /* \"#utility.yul\":3837:3860   */\n      mcopy\n        /* \"#utility.yul\":3894:3895   */\n      0x00\n        /* \"#utility.yul\":3885:3891   */\n      dup4\n        /* \"#utility.yul\":3880:3883   */\n      dup4\n        /* \"#utility.yul\":3876:3892   */\n      add\n        /* \"#utility.yul\":3869:3896   */\n      mstore\n        /* \"#utility.yul\":3764:3903   */\n      pop\n      pop\n      pop\n      jump\t// out\n        /* \"#utility.yul\":3909:4011   */\n    tag_413:\n        /* \"#utility.yul\":3950:3956   */\n      0x00\n        /* \"#utility.yul\":4001:4003   */\n      0x1f\n        /* \"#utility.yul\":3997:4004   */\n      not\n        /* \"#utility.yul\":3992:3994   */\n      0x1f\n        /* \"#utility.yul\":3985:3990   */\n      dup4\n        /* \"#utility.yul\":3981:3995   */\n      add\n        /* \"#utility.yul\":3977:4005   */\n      and\n        /* \"#utility.yul\":3967:4005   */\n      swap1\n      pop\n        /* \"#utility.yul\":3909:4011   */\n      swap2\n      swap1\n      pop\n      jump\t// out\n        /* \"#utility.yul\":4017:4394   */\n    tag_414:\n        /* \"#utility.yul\":4105:4108   */\n      0x00\n        /* \"#utility.yul\":4133:4172   */\n      tag_504\n        /* \"#utility.yul\":4166:4171   */\n      dup3\n        /* \"#utility.yul\":4133:4172   */\n      tag_410\n      jump\t// in\n    tag_504:\n        /* \"#utility.yul\":4188:4259   */\n      tag_505\n        /* \"#utility.yul\":4252:4258   */\n      dup2\n        /* \"#utility.yul\":4247:4250   */\n      dup6\n        /* \"#utility.yul\":4188:4259   */\n      tag_411\n      jump\t// in\n    tag_505:\n        /* \"#utility.yul\":4181:4259   */\n      swap4\n      pop\n        /* \"#utility.yul\":4268:4333   */\n      tag_506\n        /* \"#utility.yul\":4326:4332   */\n      dup2\n        /* \"#utility.yul\":4321:4324   */\n      dup6\n        /* \"#utility.yul\":4314:4318   */\n      0x20\n        /* \"#utility.yul\":4307:4312   */\n      dup7\n        /* \"#utility.yul\":4303:4319   */\n      add\n        /* \"#utility.yul\":4268:4333   */\n      tag_412\n      jump\t// in\n    tag_506:\n        /* \"#utility.yul\":4358:4387   */\n      tag_507\n        /* \"#utility.yul\":4380:4386   */\n      dup2\n        /* \"#utility.yul\":4358:4387   */\n      tag_413\n      jump\t// in\n    tag_507:\n        /* \"#utility.yul\":4353:4356   */\n      dup5\n        /* \"#utility.yul\":4349:4388   */\n      add\n        /* \"#utility.yul\":4342:4388   */\n      swap2\n      pop\n        /* \"#utility.yul\":4109:4394   */\n      pop\n        /* \"#utility.yul\":4017:4394   */\n      swap3\n      swap2\n      pop\n      pop\n      jump\t// out\n        /* \"#utility.yul\":4400:4713   */\n    tag_90:\n        /* \"#utility.yul\":4513:4517   */\n      0x00\n        /* \"#utility.yul\":4551:4553   */\n      0x20\n        /* \"#utility.yul\":4540:4549   */\n      dup3\n        /* \"#utility.yul\":4536:4554   */\n      add\n        /* \"#utility.yul\":4528:4554   */\n      swap1\n      pop\n        /* \"#utility.yul\":4600:4609   */\n      dup2\n        /* \"#utility.yul\":4594:4598   */\n      dup2\n        /* \"#utility.yul\":4590:4610   */\n      sub\n        /* \"#utility.yul\":4586:4587   */\n      0x00\n        /* \"#utility.yul\":4575:4584   */\n      dup4\n        /* \"#utility.yul\":4571:4588   */\n      add\n        /* \"#utility.yul\":4564:4611   */\n      mstore\n        /* \"#utility.yul\":4628:4706   */\n      tag_509\n        /* \"#utility.yul\":4701:4705   */\n      dup2\n        /* \"#utility.yul\":4692:4698   */\n      dup5\n        /* \"#utility.yul\":4628:4706   */\n      tag_414\n      jump\t// in\n    tag_509:\n        /* \"#utility.yul\":4620:4706   */\n      swap1\n      pop\n        /* \"#utility.yul\":4400:4713   */\n      swap3\n      swap2\n      pop\n      pop\n      jump\t// out\n        /* \"#utility.yul\":4719:5161   */\n    tag_98:\n        /* \"#utility.yul\":4868:4872   */\n      0x00\n        /* \"#utility.yul\":4906:4908   */\n      0x60\n        /* \"#utility.yul\":4895:4904   */\n      dup3\n        /* \"#utility.yul\":4891:4909   */\n      add\n        /* \"#utility.yul\":4883:4909   */\n      swap1\n      pop\n        /* \"#utility.yul\":4919:4990   */\n      tag_511\n        /* \"#utility.yul\":4987:4988   */\n      0x00\n        /* \"#utility.yul\":4976:4985   */\n      dup4\n        /* \"#utility.yul\":4972:4989   */\n      add\n        /* \"#utility.yul\":4963:4969   */\n      dup7\n        /* \"#utility.yul\":4919:4990   */\n      tag_400\n      jump\t// in\n    tag_511:\n        /* \"#utility.yul\":5000:5072   */\n      tag_512\n        /* \"#utility.yul\":5068:5070   */\n      0x20\n        /* \"#utility.yul\":5057:5066   */\n      dup4\n        /* \"#utility.yul\":5053:5071   */\n      add\n        /* \"#utility.yul\":5044:5050   */\n      dup6\n        /* \"#utility.yul\":5000:5072   */\n      tag_400\n      jump\t// in\n    tag_512:\n        /* \"#utility.yul\":5082:5154   */\n      tag_513\n        /* \"#utility.yul\":5150:5152   */\n      0x40\n        /* \"#utility.yul\":5139:5148   */\n      dup4\n        /* \"#utility.yul\":5135:5153   */\n      add\n        /* \"#utility.yul\":5126:5132   */\n      dup5\n        /* \"#utility.yul\":5082:5154   */\n      tag_400\n      jump\t// in\n    tag_513:\n        /* \"#utility.yul\":4719:5161   */\n      swap5\n      swap4\n      pop\n      pop\n      pop\n      pop\n      jump\t// out\n        /* \"#utility.yul\":5167:5308   */\n    tag_415:\n        /* \"#utility.yul\":5232:5241   */\n      0x00\n        /* \"#utility.yul\":5265:5302   */\n      tag_515\n        /* \"#utility.yul\":5296:5301   */\n      dup3\n        /* \"#utility.yul\":5265:5302   */\n      tag_396\n      jump\t// in\n    tag_515:\n        /* \"#utility.yul\":5252:5302   */\n      swap1\n      pop\n        /* \"#utility.yul\":5167:5308   */\n      swap2\n      swap1\n      pop\n      jump\t// out\n        /* \"#utility.yul\":5314:5475   */\n    tag_416:\n        /* \"#utility.yul\":5416:5468   */\n      tag_517\n        /* \"#utility.yul\":5462:5467   */\n      dup2\n        /* \"#utility.yul\":5416:5468   */\n      tag_415\n      jump\t// in\n    tag_517:\n        /* \"#utility.yul\":5411:5414   */\n      dup3\n        /* \"#utility.yul\":5404:5469   */\n      mstore\n        /* \"#utility.yul\":5314:5475   */\n      pop\n      pop\n      jump\t// out\n        /* \"#utility.yul\":5481:5733   */\n    tag_129:\n        /* \"#utility.yul\":5589:5593   */\n      0x00\n        /* \"#utility.yul\":5627:5629   */\n      0x20\n        /* \"#utility.yul\":5616:5625   */\n      dup3\n        /* \"#utility.yul\":5612:5630   */\n      add\n        /* \"#utility.yul\":5604:5630   */\n      swap1\n      pop\n        /* \"#utility.yul\":5640:5726   */\n      tag_519\n        /* \"#utility.yul\":5723:5724   */\n      0x00\n        /* \"#utility.yul\":5712:5721   */\n      dup4\n        /* \"#utility.yul\":5708:5725   */\n      add\n        /* \"#utility.yul\":5699:5705   */\n      dup5\n        /* \"#utility.yul\":5640:5726   */\n      tag_416\n      jump\t// in\n    tag_519:\n        /* \"#utility.yul\":5481:5733   */\n      swap3\n      swap2\n      pop\n      pop\n      jump\t// out\n        /* \"#utility.yul\":5739:5856   */\n    tag_417:\n        /* \"#utility.yul\":5848:5849   */\n      0x00\n        /* \"#utility.yul\":5845:5846   */\n      0x00\n        /* \"#utility.yul\":5838:5850   */\n      revert\n        /* \"#utility.yul\":5894:6128   */\n    tag_418:\n        /* \"#utility.yul\":5969:5974   */\n      0x00\n        /* \"#utility.yul\":6010:6013   */\n      0x0160\n        /* \"#utility.yul\":6001:6007   */\n      dup3\n        /* \"#utility.yul\":5996:5999   */\n      dup5\n        /* \"#utility.yul\":5992:6008   */\n      sub\n        /* \"#utility.yul\":5988:6014   */\n      slt\n        /* \"#utility.yul\":5985:6098   */\n      iszero\n      tag_522\n      jumpi\n        /* \"#utility.yul\":6017:6096   */\n      tag_523\n      tag_417\n      jump\t// in\n    tag_523:\n        /* \"#utility.yul\":5985:6098   */\n    tag_522:\n        /* \"#utility.yul\":6116:6122   */\n      dup2\n        /* \"#utility.yul\":6107:6122   */\n      swap1\n      pop\n        /* \"#utility.yul\":5894:6128   */\n      swap3\n      swap2\n      pop\n      pop\n      jump\t// out\n        /* \"#utility.yul\":6134:6251   */\n    tag_419:\n        /* \"#utility.yul\":6243:6244   */\n      0x00\n        /* \"#utility.yul\":6240:6241   */\n      0x00\n        /* \"#utility.yul\":6233:6245   */\n      revert\n        /* \"#utility.yul\":6257:6374   */\n    tag_420:\n        /* \"#utility.yul\":6366:6367   */\n      0x00\n        /* \"#utility.yul\":6363:6364   */\n      0x00\n        /* \"#utility.yul\":6356:6368   */\n      revert\n        /* \"#utility.yul\":6380:6497   */\n    tag_421:\n        /* \"#utility.yul\":6489:6490   */\n      0x00\n        /* \"#utility.yul\":6486:6487   */\n      0x00\n        /* \"#utility.yul\":6479:6491   */\n      revert\n        /* \"#utility.yul\":6517:7070   */\n    tag_422:\n        /* \"#utility.yul\":6575:6583   */\n      0x00\n        /* \"#utility.yul\":6585:6591   */\n      0x00\n        /* \"#utility.yul\":6635:6638   */\n      dup4\n        /* \"#utility.yul\":6628:6632   */\n      0x1f\n        /* \"#utility.yul\":6620:6626   */\n      dup5\n        /* \"#utility.yul\":6616:6633   */\n      add\n        /* \"#utility.yul\":6612:6639   */\n      slt\n        /* \"#utility.yul\":6602:6724   */\n      tag_528\n      jumpi\n        /* \"#utility.yul\":6643:6722   */\n      tag_529\n      tag_419\n      jump\t// in\n    tag_529:\n        /* \"#utility.yul\":6602:6724   */\n    tag_528:\n        /* \"#utility.yul\":6756:6762   */\n      dup3\n        /* \"#utility.yul\":6743:6763   */\n      calldataload\n        /* \"#utility.yul\":6733:6763   */\n      swap1\n      pop\n        /* \"#utility.yul\":6786:6804   */\n      0xffffffffffffffff\n        /* \"#utility.yul\":6778:6784   */\n      dup2\n        /* \"#utility.yul\":6775:6805   */\n      gt\n        /* \"#utility.yul\":6772:6889   */\n      iszero\n      tag_530\n      jumpi\n        /* \"#utility.yul\":6808:6887   */\n      tag_531\n      tag_420\n      jump\t// in\n    tag_531:\n        /* \"#utility.yul\":6772:6889   */\n    tag_530:\n        /* \"#utility.yul\":6922:6926   */\n      0x20\n        /* \"#utility.yul\":6914:6920   */\n      dup4\n        /* \"#utility.yul\":6910:6927   */\n      add\n        /* \"#utility.yul\":6898:6927   */\n      swap2\n      pop\n        /* \"#utility.yul\":6976:6979   */\n      dup4\n        /* \"#utility.yul\":6968:6972   */\n      0x01\n        /* \"#utility.yul\":6960:6966   */\n      dup3\n        /* \"#utility.yul\":6956:6973   */\n      mul\n        /* \"#utility.yul\":6946:6954   */\n      dup4\n        /* \"#utility.yul\":6942:6974   */\n      add\n        /* \"#utility.yul\":6939:6980   */\n      gt\n        /* \"#utility.yul\":6936:7064   */\n      iszero\n      tag_532\n      jumpi\n        /* \"#utility.yul\":6983:7062   */\n      tag_533\n      tag_421\n      jump\t// in\n    tag_533:\n        /* \"#utility.yul\":6936:7064   */\n    tag_532:\n        /* \"#utility.yul\":6517:7070   */\n      swap3\n      pop\n      swap3\n      swap1\n      pop\n      jump\t// out\n        /* \"#utility.yul\":7076:8156   */\n    tag_143:\n        /* \"#utility.yul\":7206:7212   */\n      0x00\n        /* \"#utility.yul\":7214:7220   */\n      0x00\n        /* \"#utility.yul\":7222:7228   */\n      0x00\n        /* \"#utility.yul\":7230:7236   */\n      0x00\n        /* \"#utility.yul\":7238:7244   */\n      0x00\n        /* \"#utility.yul\":7287:7290   */\n      0x01a0\n        /* \"#utility.yul\":7275:7284   */\n      dup7\n        /* \"#utility.yul\":7266:7273   */\n      dup9\n        /* \"#utility.yul\":7262:7285   */\n      sub\n        /* \"#utility.yul\":7258:7291   */\n      slt\n        /* \"#utility.yul\":7255:7375   */\n      iszero\n      tag_535\n      jumpi\n        /* \"#utility.yul\":7294:7373   */\n      tag_536\n      tag_402\n      jump\t// in\n    tag_536:\n        /* \"#utility.yul\":7255:7375   */\n    tag_535:\n        /* \"#utility.yul\":7414:7415   */\n      0x00\n        /* \"#utility.yul\":7439:7521   */\n      tag_537\n        /* \"#utility.yul\":7513:7520   */\n      dup9\n        /* \"#utility.yul\":7504:7510   */\n      dup3\n        /* \"#utility.yul\":7493:7502   */\n      dup10\n        /* \"#utility.yul\":7489:7511   */\n      add\n        /* \"#utility.yul\":7439:7521   */\n      tag_418\n      jump\t// in\n    tag_537:\n        /* \"#utility.yul\":7429:7521   */\n      swap6\n      pop\n        /* \"#utility.yul\":7385:7531   */\n      pop\n        /* \"#utility.yul\":7598:7601   */\n      0x0160\n        /* \"#utility.yul\":7587:7596   */\n      dup7\n        /* \"#utility.yul\":7583:7602   */\n      add\n        /* \"#utility.yul\":7570:7603   */\n      calldataload\n        /* \"#utility.yul\":7630:7648   */\n      0xffffffffffffffff\n        /* \"#utility.yul\":7622:7628   */\n      dup2\n        /* \"#utility.yul\":7619:7649   */\n      gt\n        /* \"#utility.yul\":7616:7733   */\n      iszero\n      tag_538\n      jumpi\n        /* \"#utility.yul\":7652:7731   */\n      tag_539\n      tag_403\n      jump\t// in\n    tag_539:\n        /* \"#utility.yul\":7616:7733   */\n    tag_538:\n        /* \"#utility.yul\":7765:7830   */\n      tag_540\n        /* \"#utility.yul\":7822:7829   */\n      dup9\n        /* \"#utility.yul\":7813:7819   */\n      dup3\n        /* \"#utility.yul\":7802:7811   */\n      dup10\n        /* \"#utility.yul\":7798:7820   */\n      add\n        /* \"#utility.yul\":7765:7830   */\n      tag_422\n      jump\t// in\n    tag_540:\n        /* \"#utility.yul\":7747:7830   */\n      swap5\n      pop\n      swap5\n      pop\n        /* \"#utility.yul\":7541:7840   */\n      pop\n        /* \"#utility.yul\":7907:7910   */\n      0x0180\n        /* \"#utility.yul\":7896:7905   */\n      dup7\n        /* \"#utility.yul\":7892:7911   */\n      add\n        /* \"#utility.yul\":7879:7912   */\n      calldataload\n        /* \"#utility.yul\":7939:7957   */\n      0xffffffffffffffff\n        /* \"#utility.yul\":7931:7937   */\n      dup2\n        /* \"#utility.yul\":7928:7958   */\n      gt\n        /* \"#utility.yul\":7925:8042   */\n      iszero\n      tag_541\n      jumpi\n        /* \"#utility.yul\":7961:8040   */\n      tag_542\n      tag_403\n      jump\t// in\n    tag_542:\n        /* \"#utility.yul\":7925:8042   */\n    tag_541:\n        /* \"#utility.yul\":8074:8139   */\n      tag_543\n        /* \"#utility.yul\":8131:8138   */\n      dup9\n        /* \"#utility.yul\":8122:8128   */\n      dup3\n        /* \"#utility.yul\":8111:8120   */\n      dup10\n        /* \"#utility.yul\":8107:8129   */\n      add\n        /* \"#utility.yul\":8074:8139   */\n      tag_422\n      jump\t// in\n    tag_543:\n        /* \"#utility.yul\":8056:8139   */\n      swap3\n      pop\n      swap3\n      pop\n        /* \"#utility.yul\":7850:8149   */\n      pop\n        /* \"#utility.yul\":7076:8156   */\n      swap3\n      swap6\n      pop\n      swap3\n      swap6\n      swap1\n      swap4\n      pop\n      jump\t// out\n        /* \"#utility.yul\":8162:8781   */\n    tag_159:\n        /* \"#utility.yul\":8239:8245   */\n      0x00\n        /* \"#utility.yul\":8247:8253   */\n      0x00\n        /* \"#utility.yul\":8255:8261   */\n      0x00\n        /* \"#utility.yul\":8304:8306   */\n      0x60\n        /* \"#utility.yul\":8292:8301   */\n      dup5\n        /* \"#utility.yul\":8283:8290   */\n      dup7\n        /* \"#utility.yul\":8279:8302   */\n      sub\n        /* \"#utility.yul\":8275:8307   */\n      slt\n        /* \"#utility.yul\":8272:8391   */\n      iszero\n      tag_545\n      jumpi\n        /* \"#utility.yul\":8310:8389   */\n      tag_546\n      tag_402\n      jump\t// in\n    tag_546:\n        /* \"#utility.yul\":8272:8391   */\n    tag_545:\n        /* \"#utility.yul\":8430:8431   */\n      0x00\n        /* \"#utility.yul\":8455:8508   */\n      tag_547\n        /* \"#utility.yul\":8500:8507   */\n      dup7\n        /* \"#utility.yul\":8491:8497   */\n      dup3\n        /* \"#utility.yul\":8480:8489   */\n      dup8\n        /* \"#utility.yul\":8476:8498   */\n      add\n        /* \"#utility.yul\":8455:8508   */\n      tag_408\n      jump\t// in\n    tag_547:\n        /* \"#utility.yul\":8445:8508   */\n      swap4\n      pop\n        /* \"#utility.yul\":8401:8518   */\n      pop\n        /* \"#utility.yul\":8557:8559   */\n      0x20\n        /* \"#utility.yul\":8583:8636   */\n      tag_548\n        /* \"#utility.yul\":8628:8635   */\n      dup7\n        /* \"#utility.yul\":8619:8625   */\n      dup3\n        /* \"#utility.yul\":8608:8617   */\n      dup8\n        /* \"#utility.yul\":8604:8626   */\n      add\n        /* \"#utility.yul\":8583:8636   */\n      tag_408\n      jump\t// in\n    tag_548:\n        /* \"#utility.yul\":8573:8636   */\n      swap3\n      pop\n        /* \"#utility.yul\":8528:8646   */\n      pop\n        /* \"#utility.yul\":8685:8687   */\n      0x40\n        /* \"#utility.yul\":8711:8764   */\n      tag_549\n        /* \"#utility.yul\":8756:8763   */\n      dup7\n        /* \"#utility.yul\":8747:8753   */\n      dup3\n        /* \"#utility.yul\":8736:8745   */\n      dup8\n        /* \"#utility.yul\":8732:8754   */\n      add\n        /* \"#utility.yul\":8711:8764   */\n      tag_408\n      jump\t// in\n    tag_549:\n        /* \"#utility.yul\":8701:8764   */\n      swap2\n      pop\n        /* \"#utility.yul\":8656:8774   */\n      pop\n        /* \"#utility.yul\":8162:8781   */\n      swap3\n      pop\n      swap3\n      pop\n      swap3\n      jump\t// out\n        /* \"#utility.yul\":8787:8967   */\n    tag_423:\n        /* \"#utility.yul\":8835:8912   */\n      0x4e487b7100000000000000000000000000000000000000000000000000000000\n        /* \"#utility.yul\":8832:8833   */\n      0x00\n        /* \"#utility.yul\":8825:8913   */\n      mstore\n        /* \"#utility.yul\":8932:8936   */\n      0x11\n        /* \"#utility.yul\":8929:8930   */\n      0x04\n        /* \"#utility.yul\":8922:8937   */\n      mstore\n        /* \"#utility.yul\":8956:8960   */\n      0x24\n        /* \"#utility.yul\":8953:8954   */\n      0x00\n        /* \"#utility.yul\":8946:8961   */\n      revert\n        /* \"#utility.yul\":8973:9383   */\n    tag_184:\n        /* \"#utility.yul\":9013:9020   */\n      0x00\n        /* \"#utility.yul\":9036:9056   */\n      tag_552\n        /* \"#utility.yul\":9054:9055   */\n      dup3\n        /* \"#utility.yul\":9036:9056   */\n      tag_399\n      jump\t// in\n    tag_552:\n        /* \"#utility.yul\":9031:9056   */\n      swap2\n      pop\n        /* \"#utility.yul\":9070:9090   */\n      tag_553\n        /* \"#utility.yul\":9088:9089   */\n      dup4\n        /* \"#utility.yul\":9070:9090   */\n      tag_399\n      jump\t// in\n    tag_553:\n        /* \"#utility.yul\":9065:9090   */\n      swap3\n      pop\n        /* \"#utility.yul\":9125:9126   */\n      dup3\n        /* \"#utility.yul\":9122:9123   */\n      dup3\n        /* \"#utility.yul\":9118:9127   */\n      mul\n        /* \"#utility.yul\":9147:9177   */\n      tag_554\n        /* \"#utility.yul\":9165:9176   */\n      dup2\n        /* \"#utility.yul\":9147:9177   */\n      tag_399\n      jump\t// in\n    tag_554:\n        /* \"#utility.yul\":9136:9177   */\n      swap2\n      pop\n        /* \"#utility.yul\":9326:9327   */\n      dup3\n        /* \"#utility.yul\":9317:9324   */\n      dup3\n        /* \"#utility.yul\":9313:9328   */\n      div\n        /* \"#utility.yul\":9310:9311   */\n      dup5\n        /* \"#utility.yul\":9307:9329   */\n      eq\n        /* \"#utility.yul\":9287:9288   */\n      dup4\n        /* \"#utility.yul\":9280:9289   */\n      iszero\n        /* \"#utility.yul\":9260:9343   */\n      or\n        /* \"#utility.yul\":9237:9376   */\n      tag_555\n      jumpi\n        /* \"#utility.yul\":9356:9374   */\n      tag_556\n      tag_423\n      jump\t// in\n    tag_556:\n        /* \"#utility.yul\":9237:9376   */\n    tag_555:\n        /* \"#utility.yul\":9021:9383   */\n      pop\n        /* \"#utility.yul\":8973:9383   */\n      swap3\n      swap2\n      pop\n      pop\n      jump\t// out\n        /* \"#utility.yul\":9389:9569   */\n    tag_424:\n        /* \"#utility.yul\":9437:9514   */\n      0x4e487b7100000000000000000000000000000000000000000000000000000000\n        /* \"#utility.yul\":9434:9435   */\n      0x00\n        /* \"#utility.yul\":9427:9515   */\n      mstore\n        /* \"#utility.yul\":9534:9538   */\n      0x12\n        /* \"#utility.yul\":9531:9532   */\n      0x04\n        /* \"#utility.yul\":9524:9539   */\n      mstore\n        /* \"#utility.yul\":9558:9562   */\n      0x24\n        /* \"#utility.yul\":9555:9556   */\n      0x00\n        /* \"#utility.yul\":9548:9563   */\n      revert\n        /* \"#utility.yul\":9575:9760   */\n    tag_186:\n        /* \"#utility.yul\":9615:9616   */\n      0x00\n        /* \"#utility.yul\":9632:9652   */\n      tag_559\n        /* \"#utility.yul\":9650:9651   */\n      dup3\n        /* \"#utility.yul\":9632:9652   */\n      tag_399\n      jump\t// in\n    tag_559:\n        /* \"#utility.yul\":9627:9652   */\n      swap2\n      pop\n        /* \"#utility.yul\":9666:9686   */\n      tag_560\n        /* \"#utility.yul\":9684:9685   */\n      dup4\n        /* \"#utility.yul\":9666:9686   */\n      tag_399\n      jump\t// in\n    tag_560:\n        /* \"#utility.yul\":9661:9686   */\n      swap3\n      pop\n        /* \"#utility.yul\":9705:9706   */\n      dup3\n        /* \"#utility.yul\":9695:9730   */\n      tag_561\n      jumpi\n        /* \"#utility.yul\":9710:9728   */\n      tag_562\n      tag_424\n      jump\t// in\n    tag_562:\n        /* \"#utility.yul\":9695:9730   */\n    tag_561:\n        /* \"#utility.yul\":9752:9753   */\n      dup3\n        /* \"#utility.yul\":9749:9750   */\n      dup3\n        /* \"#utility.yul\":9745:9754   */\n      div\n        /* \"#utility.yul\":9740:9754   */\n      swap1\n      pop\n        /* \"#utility.yul\":9575:9760   */\n      swap3\n      swap2\n      pop\n      pop\n      jump\t// out\n        /* \"#utility.yul\":9766:9960   */\n    tag_188:\n        /* \"#utility.yul\":9806:9810   */\n      0x00\n        /* \"#utility.yul\":9826:9846   */\n      tag_564\n        /* \"#utility.yul\":9844:9845   */\n      dup3\n        /* \"#utility.yul\":9826:9846   */\n      tag_399\n      jump\t// in\n    tag_564:\n        /* \"#utility.yul\":9821:9846   */\n      swap2\n      pop\n        /* \"#utility.yul\":9860:9880   */\n      tag_565\n        /* \"#utility.yul\":9878:9879   */\n      dup4\n        /* \"#utility.yul\":9860:9880   */\n      tag_399\n      jump\t// in\n    tag_565:\n        /* \"#utility.yul\":9855:9880   */\n      swap3\n      pop\n        /* \"#utility.yul\":9904:9905   */\n      dup3\n        /* \"#utility.yul\":9901:9902   */\n      dup3\n        /* \"#utility.yul\":9897:9906   */\n      sub\n        /* \"#utility.yul\":9889:9906   */\n      swap1\n      pop\n        /* \"#utility.yul\":9928:9929   */\n      dup2\n        /* \"#utility.yul\":9922:9926   */\n      dup2\n        /* \"#utility.yul\":9919:9930   */\n      gt\n        /* \"#utility.yul\":9916:9953   */\n      iszero\n      tag_566\n      jumpi\n        /* \"#utility.yul\":9933:9951   */\n      tag_567\n      tag_423\n      jump\t// in\n    tag_567:\n        /* \"#utility.yul\":9916:9953   */\n    tag_566:\n        /* \"#utility.yul\":9766:9960   */\n      swap3\n      swap2\n      pop\n      pop\n      jump\t// out\n        /* \"#utility.yul\":9966:10298   */\n    tag_193:\n        /* \"#utility.yul\":10087:10091   */\n      0x00\n        /* \"#utility.yul\":10125:10127   */\n      0x40\n        /* \"#utility.yul\":10114:10123   */\n      dup3\n        /* \"#utility.yul\":10110:10128   */\n      add\n        /* \"#utility.yul\":10102:10128   */\n      swap1\n      pop\n        /* \"#utility.yul\":10138:10209   */\n      tag_569\n        /* \"#utility.yul\":10206:10207   */\n      0x00\n        /* \"#utility.yul\":10195:10204   */\n      dup4\n        /* \"#utility.yul\":10191:10208   */\n      add\n        /* \"#utility.yul\":10182:10188   */\n      dup6\n        /* \"#utility.yul\":10138:10209   */\n      tag_409\n      jump\t// in\n    tag_569:\n        /* \"#utility.yul\":10219:10291   */\n      tag_570\n        /* \"#utility.yul\":10287:10289   */\n      0x20\n        /* \"#utility.yul\":10276:10285   */\n      dup4\n        /* \"#utility.yul\":10272:10290   */\n      add\n        /* \"#utility.yul\":10263:10269   */\n      dup5\n        /* \"#utility.yul\":10219:10291   */\n      tag_400\n      jump\t// in\n    tag_570:\n        /* \"#utility.yul\":9966:10298   */\n      swap4\n      swap3\n      pop\n      pop\n      pop\n      jump\t// out\n        /* \"#utility.yul\":10304:10394   */\n    tag_425:\n        /* \"#utility.yul\":10338:10345   */\n      0x00\n        /* \"#utility.yul\":10381:10386   */\n      dup2\n        /* \"#utility.yul\":10374:10387   */\n      iszero\n        /* \"#utility.yul\":10367:10388   */\n      iszero\n        /* \"#utility.yul\":10356:10388   */\n      swap1\n      pop\n        /* \"#utility.yul\":10304:10394   */\n      swap2\n      swap1\n      pop\n      jump\t// out\n        /* \"#utility.yul\":10400:10516   */\n    tag_426:\n        /* \"#utility.yul\":10470:10491   */\n      tag_573\n        /* \"#utility.yul\":10485:10490   */\n      dup2\n        /* \"#utility.yul\":10470:10491   */\n      tag_425\n      jump\t// in\n    tag_573:\n        /* \"#utility.yul\":10463:10468   */\n      dup2\n        /* \"#utility.yul\":10460:10492   */\n      eq\n        /* \"#utility.yul\":10450:10510   */\n      tag_574\n      jumpi\n        /* \"#utility.yul\":10506:10507   */\n      0x00\n        /* \"#utility.yul\":10503:10504   */\n      0x00\n        /* \"#utility.yul\":10496:10508   */\n      revert\n        /* \"#utility.yul\":10450:10510   */\n    tag_574:\n        /* \"#utility.yul\":10400:10516   */\n      pop\n      jump\t// out\n        /* \"#utility.yul\":10522:10659   */\n    tag_427:\n        /* \"#utility.yul\":10576:10581   */\n      0x00\n        /* \"#utility.yul\":10607:10613   */\n      dup2\n        /* \"#utility.yul\":10601:10614   */\n      mload\n        /* \"#utility.yul\":10592:10614   */\n      swap1\n      pop\n        /* \"#utility.yul\":10623:10653   */\n      tag_576\n        /* \"#utility.yul\":10647:10652   */\n      dup2\n        /* \"#utility.yul\":10623:10653   */\n      tag_426\n      jump\t// in\n    tag_576:\n        /* \"#utility.yul\":10522:10659   */\n      swap3\n      swap2\n      pop\n      pop\n      jump\t// out\n        /* \"#utility.yul\":10665:11010   */\n    tag_197:\n        /* \"#utility.yul\":10732:10738   */\n      0x00\n        /* \"#utility.yul\":10781:10783   */\n      0x20\n        /* \"#utility.yul\":10769:10778   */\n      dup3\n        /* \"#utility.yul\":10760:10767   */\n      dup5\n        /* \"#utility.yul\":10756:10779   */\n      sub\n        /* \"#utility.yul\":10752:10784   */\n      slt\n        /* \"#utility.yul\":10749:10868   */\n      iszero\n      tag_578\n      jumpi\n        /* \"#utility.yul\":10787:10866   */\n      tag_579\n      tag_402\n      jump\t// in\n    tag_579:\n        /* \"#utility.yul\":10749:10868   */\n    tag_578:\n        /* \"#utility.yul\":10907:10908   */\n      0x00\n        /* \"#utility.yul\":10932:10993   */\n      tag_580\n        /* \"#utility.yul\":10985:10992   */\n      dup5\n        /* \"#utility.yul\":10976:10982   */\n      dup3\n        /* \"#utility.yul\":10965:10974   */\n      dup6\n        /* \"#utility.yul\":10961:10983   */\n      add\n        /* \"#utility.yul\":10932:10993   */\n      tag_427\n      jump\t// in\n    tag_580:\n        /* \"#utility.yul\":10922:10993   */\n      swap2\n      pop\n        /* \"#utility.yul\":10878:11003   */\n      pop\n        /* \"#utility.yul\":10665:11010   */\n      swap3\n      swap2\n      pop\n      pop\n      jump\t// out\n        /* \"#utility.yul\":11016:11196   */\n    tag_205:\n        /* \"#utility.yul\":11064:11141   */\n      0x4e487b7100000000000000000000000000000000000000000000000000000000\n        /* \"#utility.yul\":11061:11062   */\n      0x00\n        /* \"#utility.yul\":11054:11142   */\n      mstore\n        /* \"#utility.yul\":11161:11165   */\n      0x31\n        /* \"#utility.yul\":11158:11159   */\n      0x04\n        /* \"#utility.yul\":11151:11166   */\n      mstore\n        /* \"#utility.yul\":11185:11189   */\n      0x24\n        /* \"#utility.yul\":11182:11183   */\n      0x00\n        /* \"#utility.yul\":11175:11190   */\n      revert\n        /* \"#utility.yul\":11202:11534   */\n    tag_208:\n        /* \"#utility.yul\":11323:11327   */\n      0x00\n        /* \"#utility.yul\":11361:11363   */\n      0x40\n        /* \"#utility.yul\":11350:11359   */\n      dup3\n        /* \"#utility.yul\":11346:11364   */\n      add\n        /* \"#utility.yul\":11338:11364   */\n      swap1\n      pop\n        /* \"#utility.yul\":11374:11445   */\n      tag_583\n        /* \"#utility.yul\":11442:11443   */\n      0x00\n        /* \"#utility.yul\":11431:11440   */\n      dup4\n        /* \"#utility.yul\":11427:11444   */\n      add\n        /* \"#utility.yul\":11418:11424   */\n      dup6\n        /* \"#utility.yul\":11374:11445   */\n      tag_400\n      jump\t// in\n    tag_583:\n        /* \"#utility.yul\":11455:11527   */\n      tag_584\n        /* \"#utility.yul\":11523:11525   */\n      0x20\n        /* \"#utility.yul\":11512:11521   */\n      dup4\n        /* \"#utility.yul\":11508:11526   */\n      add\n        /* \"#utility.yul\":11499:11505   */\n      dup5\n        /* \"#utility.yul\":11455:11527   */\n      tag_400\n      jump\t// in\n    tag_584:\n        /* \"#utility.yul\":11202:11534   */\n      swap4\n      swap3\n      pop\n      pop\n      pop\n      jump\t// out\n        /* \"#utility.yul\":11540:11982   */\n    tag_212:\n        /* \"#utility.yul\":11689:11693   */\n      0x00\n        /* \"#utility.yul\":11727:11729   */\n      0x60\n        /* \"#utility.yul\":11716:11725   */\n      dup3\n        /* \"#utility.yul\":11712:11730   */\n      add\n        /* \"#utility.yul\":11704:11730   */\n      swap1\n      pop\n        /* \"#utility.yul\":11740:11811   */\n      tag_586\n        /* \"#utility.yul\":11808:11809   */\n      0x00\n        /* \"#utility.yul\":11797:11806   */\n      dup4\n        /* \"#utility.yul\":11793:11810   */\n      add\n        /* \"#utility.yul\":11784:11790   */\n      dup7\n        /* \"#utility.yul\":11740:11811   */\n      tag_409\n      jump\t// in\n    tag_586:\n        /* \"#utility.yul\":11821:11893   */\n      tag_587\n        /* \"#utility.yul\":11889:11891   */\n      0x20\n        /* \"#utility.yul\":11878:11887   */\n      dup4\n        /* \"#utility.yul\":11874:11892   */\n      add\n        /* \"#utility.yul\":11865:11871   */\n      dup6\n        /* \"#utility.yul\":11821:11893   */\n      tag_409\n      jump\t// in\n    tag_587:\n        /* \"#utility.yul\":11903:11975   */\n      tag_588\n        /* \"#utility.yul\":11971:11973   */\n      0x40\n        /* \"#utility.yul\":11960:11969   */\n      dup4\n        /* \"#utility.yul\":11956:11974   */\n      add\n        /* \"#utility.yul\":11947:11953   */\n      dup5\n        /* \"#utility.yul\":11903:11975   */\n      tag_400\n      jump\t// in\n    tag_588:\n        /* \"#utility.yul\":11540:11982   */\n      swap5\n      swap4\n      pop\n      pop\n      pop\n      pop\n      jump\t// out\n        /* \"#utility.yul\":11988:12179   */\n    tag_217:\n        /* \"#utility.yul\":12028:12031   */\n      0x00\n        /* \"#utility.yul\":12047:12067   */\n      tag_590\n        /* \"#utility.yul\":12065:12066   */\n      dup3\n        /* \"#utility.yul\":12047:12067   */\n      tag_399\n      jump\t// in\n    tag_590:\n        /* \"#utility.yul\":12042:12067   */\n      swap2\n      pop\n        /* \"#utility.yul\":12081:12101   */\n      tag_591\n        /* \"#utility.yul\":12099:12100   */\n      dup4\n        /* \"#utility.yul\":12081:12101   */\n      tag_399\n      jump\t// in\n    tag_591:\n        /* \"#utility.yul\":12076:12101   */\n      swap3\n      pop\n        /* \"#utility.yul\":12124:12125   */\n      dup3\n        /* \"#utility.yul\":12121:12122   */\n      dup3\n        /* \"#utility.yul\":12117:12126   */\n      add\n        /* \"#utility.yul\":12110:12126   */\n      swap1\n      pop\n        /* \"#utility.yul\":12145:12148   */\n      dup1\n        /* \"#utility.yul\":12142:12143   */\n      dup3\n        /* \"#utility.yul\":12139:12149   */\n      gt\n        /* \"#utility.yul\":12136:12172   */\n      iszero\n      tag_592\n      jumpi\n        /* \"#utility.yul\":12152:12170   */\n      tag_593\n      tag_423\n      jump\t// in\n    tag_593:\n        /* \"#utility.yul\":12136:12172   */\n    tag_592:\n        /* \"#utility.yul\":11988:12179   */\n      swap3\n      swap2\n      pop\n      pop\n      jump\t// out\n        /* \"#utility.yul\":12185:12365   */\n    tag_428:\n        /* \"#utility.yul\":12233:12310   */\n      0x4e487b7100000000000000000000000000000000000000000000000000000000\n        /* \"#utility.yul\":12230:12231   */\n      0x00\n        /* \"#utility.yul\":12223:12311   */\n      mstore\n        /* \"#utility.yul\":12330:12334   */\n      0x22\n        /* \"#utility.yul\":12327:12328   */\n      0x04\n        /* \"#utility.yul\":12320:12335   */\n      mstore\n        /* \"#utility.yul\":12354:12358   */\n      0x24\n        /* \"#utility.yul\":12351:12352   */\n      0x00\n        /* \"#utility.yul\":12344:12359   */\n      revert\n        /* \"#utility.yul\":12371:12691   */\n    tag_250:\n        /* \"#utility.yul\":12415:12421   */\n      0x00\n        /* \"#utility.yul\":12452:12453   */\n      0x02\n        /* \"#utility.yul\":12446:12450   */\n      dup3\n        /* \"#utility.yul\":12442:12454   */\n      div\n        /* \"#utility.yul\":12432:12454   */\n      swap1\n      pop\n        /* \"#utility.yul\":12499:12500   */\n      0x01\n        /* \"#utility.yul\":12493:12497   */\n      dup3\n        /* \"#utility.yul\":12489:12501   */\n      and\n        /* \"#utility.yul\":12520:12538   */\n      dup1\n        /* \"#utility.yul\":12510:12591   */\n      tag_596\n      jumpi\n        /* \"#utility.yul\":12576:12580   */\n      0x7f\n        /* \"#utility.yul\":12568:12574   */\n      dup3\n        /* \"#utility.yul\":12564:12581   */\n      and\n        /* \"#utility.yul\":12554:12581   */\n      swap2\n      pop\n        /* \"#utility.yul\":12510:12591   */\n    tag_596:\n        /* \"#utility.yul\":12638:12640   */\n      0x20\n        /* \"#utility.yul\":12630:12636   */\n      dup3\n        /* \"#utility.yul\":12627:12641   */\n      lt\n        /* \"#utility.yul\":12607:12625   */\n      dup2\n        /* \"#utility.yul\":12604:12642   */\n      sub\n        /* \"#utility.yul\":12601:12685   */\n      tag_597\n      jumpi\n        /* \"#utility.yul\":12657:12675   */\n      tag_598\n      tag_428\n      jump\t// in\n    tag_598:\n        /* \"#utility.yul\":12601:12685   */\n    tag_597:\n        /* \"#utility.yul\":12422:12691   */\n      pop\n        /* \"#utility.yul\":12371:12691   */\n      swap2\n      swap1\n      pop\n      jump\t// out\n        /* \"#utility.yul\":12697:12840   */\n    tag_429:\n        /* \"#utility.yul\":12754:12759   */\n      0x00\n        /* \"#utility.yul\":12785:12791   */\n      dup2\n        /* \"#utility.yul\":12779:12792   */\n      mload\n        /* \"#utility.yul\":12770:12792   */\n      swap1\n      pop\n        /* \"#utility.yul\":12801:12834   */\n      tag_600\n        /* \"#utility.yul\":12828:12833   */\n      dup2\n        /* \"#utility.yul\":12801:12834   */\n      tag_407\n      jump\t// in\n    tag_600:\n        /* \"#utility.yul\":12697:12840   */\n      swap3\n      swap2\n      pop\n      pop\n      jump\t// out\n        /* \"#utility.yul\":12846:13197   */\n    tag_275:\n        /* \"#utility.yul\":12916:12922   */\n      0x00\n        /* \"#utility.yul\":12965:12967   */\n      0x20\n        /* \"#utility.yul\":12953:12962   */\n      dup3\n        /* \"#utility.yul\":12944:12951   */\n      dup5\n        /* \"#utility.yul\":12940:12963   */\n      sub\n        /* \"#utility.yul\":12936:12968   */\n      slt\n        /* \"#utility.yul\":12933:13052   */\n      iszero\n      tag_602\n      jumpi\n        /* \"#utility.yul\":12971:13050   */\n      tag_603\n      tag_402\n      jump\t// in\n    tag_603:\n        /* \"#utility.yul\":12933:13052   */\n    tag_602:\n        /* \"#utility.yul\":13091:13092   */\n      0x00\n        /* \"#utility.yul\":13116:13180   */\n      tag_604\n        /* \"#utility.yul\":13172:13179   */\n      dup5\n        /* \"#utility.yul\":13163:13169   */\n      dup3\n        /* \"#utility.yul\":13152:13161   */\n      dup6\n        /* \"#utility.yul\":13148:13170   */\n      add\n        /* \"#utility.yul\":13116:13180   */\n      tag_429\n      jump\t// in\n    tag_604:\n        /* \"#utility.yul\":13106:13180   */\n      swap2\n      pop\n        /* \"#utility.yul\":13062:13190   */\n      pop\n        /* \"#utility.yul\":12846:13197   */\n      swap3\n      swap2\n      pop\n      pop\n      jump\t// out\n        /* \"#utility.yul\":13203:13372   */\n    tag_430:\n        /* \"#utility.yul\":13343:13364   */\n      0x414c52454144595f494e495449414c495a454400000000000000000000000000\n        /* \"#utility.yul\":13339:13340   */\n      0x00\n        /* \"#utility.yul\":13331:13337   */\n      dup3\n        /* \"#utility.yul\":13327:13341   */\n      add\n        /* \"#utility.yul\":13320:13365   */\n      mstore\n        /* \"#utility.yul\":13203:13372   */\n      pop\n      jump\t// out\n        /* \"#utility.yul\":13378:13744   */\n    tag_431:\n        /* \"#utility.yul\":13520:13523   */\n      0x00\n        /* \"#utility.yul\":13541:13608   */\n      tag_607\n        /* \"#utility.yul\":13605:13607   */\n      0x13\n        /* \"#utility.yul\":13600:13603   */\n      dup4\n        /* \"#utility.yul\":13541:13608   */\n      tag_411\n      jump\t// in\n    tag_607:\n        /* \"#utility.yul\":13534:13608   */\n      swap2\n      pop\n        /* \"#utility.yul\":13617:13710   */\n      tag_608\n        /* \"#utility.yul\":13706:13709   */\n      dup3\n        /* \"#utility.yul\":13617:13710   */\n      tag_430\n      jump\t// in\n    tag_608:\n        /* \"#utility.yul\":13735:13737   */\n      0x20\n        /* \"#utility.yul\":13730:13733   */\n      dup3\n        /* \"#utility.yul\":13726:13738   */\n      add\n        /* \"#utility.yul\":13719:13738   */\n      swap1\n      pop\n        /* \"#utility.yul\":13378:13744   */\n      swap2\n      swap1\n      pop\n      jump\t// out\n        /* \"#utility.yul\":13750:14169   */\n    tag_317:\n        /* \"#utility.yul\":13916:13920   */\n      0x00\n        /* \"#utility.yul\":13954:13956   */\n      0x20\n        /* \"#utility.yul\":13943:13952   */\n      dup3\n        /* \"#utility.yul\":13939:13957   */\n      add\n        /* \"#utility.yul\":13931:13957   */\n      swap1\n      pop\n        /* \"#utility.yul\":14003:14012   */\n      dup2\n        /* \"#utility.yul\":13997:14001   */\n      dup2\n        /* \"#utility.yul\":13993:14013   */\n      sub\n        /* \"#utility.yul\":13989:13990   */\n      0x00\n        /* \"#utility.yul\":13978:13987   */\n      dup4\n        /* \"#utility.yul\":13974:13991   */\n      add\n        /* \"#utility.yul\":13967:14014   */\n      mstore\n        /* \"#utility.yul\":14031:14162   */\n      tag_610\n        /* \"#utility.yul\":14157:14161   */\n      dup2\n        /* \"#utility.yul\":14031:14162   */\n      tag_431\n      jump\t// in\n    tag_610:\n        /* \"#utility.yul\":14023:14162   */\n      swap1\n      pop\n        /* \"#utility.yul\":13750:14169   */\n      swap2\n      swap1\n      pop\n      jump\t// out\n        /* \"#utility.yul\":14175:14272   */\n    tag_432:\n        /* \"#utility.yul\":14234:14240   */\n      0x00\n        /* \"#utility.yul\":14262:14265   */\n      dup3\n        /* \"#utility.yul\":14252:14265   */\n      swap1\n      pop\n        /* \"#utility.yul\":14175:14272   */\n      swap3\n      swap2\n      pop\n      pop\n      jump\t// out\n        /* \"#utility.yul\":14278:14458   */\n    tag_433:\n        /* \"#utility.yul\":14326:14403   */\n      0x4e487b7100000000000000000000000000000000000000000000000000000000\n        /* \"#utility.yul\":14323:14324   */\n      0x00\n        /* \"#utility.yul\":14316:14404   */\n      mstore\n        /* \"#utility.yul\":14423:14427   */\n      0x41\n        /* \"#utility.yul\":14420:14421   */\n      0x04\n        /* \"#utility.yul\":14413:14428   */\n      mstore\n        /* \"#utility.yul\":14447:14451   */\n      0x24\n        /* \"#utility.yul\":14444:14445   */\n      0x00\n        /* \"#utility.yul\":14437:14452   */\n      revert\n        /* \"#utility.yul\":14464:14605   */\n    tag_434:\n        /* \"#utility.yul\":14513:14517   */\n      0x00\n        /* \"#utility.yul\":14536:14539   */\n      dup2\n        /* \"#utility.yul\":14528:14539   */\n      swap1\n      pop\n        /* \"#utility.yul\":14559:14562   */\n      dup2\n        /* \"#utility.yul\":14556:14557   */\n      0x00\n        /* \"#utility.yul\":14549:14563   */\n      mstore\n        /* \"#utility.yul\":14593:14597   */\n      0x20\n        /* \"#utility.yul\":14590:14591   */\n      0x00\n        /* \"#utility.yul\":14580:14598   */\n      keccak256\n        /* \"#utility.yul\":14572:14598   */\n      swap1\n      pop\n        /* \"#utility.yul\":14464:14605   */\n      swap2\n      swap1\n      pop\n      jump\t// out\n        /* \"#utility.yul\":14611:14704   */\n    tag_435:\n        /* \"#utility.yul\":14648:14654   */\n      0x00\n        /* \"#utility.yul\":14695:14697   */\n      0x20\n        /* \"#utility.yul\":14690:14692   */\n      0x1f\n        /* \"#utility.yul\":14683:14688   */\n      dup4\n        /* \"#utility.yul\":14679:14693   */\n      add\n        /* \"#utility.yul\":14675:14698   */\n      div\n        /* \"#utility.yul\":14665:14698   */\n      swap1\n      pop\n        /* \"#utility.yul\":14611:14704   */\n      swap2\n      swap1\n      pop\n      jump\t// out\n        /* \"#utility.yul\":14710:14817   */\n    tag_436:\n        /* \"#utility.yul\":14754:14762   */\n      0x00\n        /* \"#utility.yul\":14804:14809   */\n      dup3\n        /* \"#utility.yul\":14798:14802   */\n      dup3\n        /* \"#utility.yul\":14794:14810   */\n      shl\n        /* \"#utility.yul\":14773:14810   */\n      swap1\n      pop\n        /* \"#utility.yul\":14710:14817   */\n      swap3\n      swap2\n      pop\n      pop\n      jump\t// out\n        /* \"#utility.yul\":14823:15216   */\n    tag_437:\n        /* \"#utility.yul\":14892:14898   */\n      0x00\n        /* \"#utility.yul\":14942:14943   */\n      0x08\n        /* \"#utility.yul\":14930:14940   */\n      dup4\n        /* \"#utility.yul\":14926:14944   */\n      mul\n        /* \"#utility.yul\":14965:15062   */\n      tag_617\n        /* \"#utility.yul\":14995:15061   */\n      0xffffffffffffffffffffffffffffffffffffffffffffffffffffffffffffffff\n        /* \"#utility.yul\":14984:14993   */\n      dup3\n        /* \"#utility.yul\":14965:15062   */\n      tag_436\n      jump\t// in\n    tag_617:\n        /* \"#utility.yul\":15083:15122   */\n      tag_618\n        /* \"#utility.yul\":15113:15121   */\n      dup7\n        /* \"#utility.yul\":15102:15111   */\n      dup4\n        /* \"#utility.yul\":15083:15122   */\n      tag_436\n      jump\t// in\n    tag_618:\n        /* \"#utility.yul\":15071:15122   */\n      swap6\n      pop\n        /* \"#utility.yul\":15155:15159   */\n      dup1\n        /* \"#utility.yul\":15151:15160   */\n      not\n        /* \"#utility.yul\":15144:15149   */\n      dup5\n        /* \"#utility.yul\":15140:15161   */\n      and\n        /* \"#utility.yul\":15131:15161   */\n      swap4\n      pop\n        /* \"#utility.yul\":15204:15208   */\n      dup1\n        /* \"#utility.yul\":15194:15202   */\n      dup7\n        /* \"#utility.yul\":15190:15209   */\n      and\n        /* \"#utility.yul\":15183:15188   */\n      dup5\n        /* \"#utility.yul\":15180:15210   */\n      or\n        /* \"#utility.yul\":15170:15210   */\n      swap3\n      pop\n        /* \"#utility.yul\":14899:15216   */\n      pop\n      pop\n        /* \"#utility.yul\":14823:15216   */\n      swap4\n      swap3\n      pop\n      pop\n      pop\n      jump\t// out\n        /* \"#utility.yul\":15222:15364   */\n    tag_438:\n        /* \"#utility.yul\":15272:15281   */\n      0x00\n        /* \"#utility.yul\":15305:15358   */\n      tag_620\n        /* \"#utility.yul\":15323:15357   */\n      tag_621\n        /* \"#utility.yul\":15332:15356   */\n      tag_622\n        /* \"#utility.yul\":15350:15355   */\n      dup5\n        /* \"#utility.yul\":15332:15356   */\n      tag_399\n      jump\t// in\n    tag_622:\n        /* \"#utility.yul\":15323:15357   */\n      tag_394\n      jump\t// in\n    tag_621:\n        /* \"#utility.yul\":15305:15358   */\n      tag_399\n      jump\t// in\n    tag_620:\n        /* \"#utility.yul\":15292:15358   */\n      swap1\n      pop\n        /* \"#utility.yul\":15222:15364   */\n      swap2\n      swap1\n      pop\n      jump\t// out\n        /* \"#utility.yul\":15370:15445   */\n    tag_439:\n        /* \"#utility.yul\":15413:15416   */\n      0x00\n        /* \"#utility.yul\":15434:15439   */\n      dup2\n        /* \"#utility.yul\":15427:15439   */\n      swap1\n      pop\n        /* \"#utility.yul\":15370:15445   */\n      swap2\n      swap1\n      pop\n      jump\t// out\n        /* \"#utility.yul\":15451:15720   */\n    tag_440:\n        /* \"#utility.yul\":15561:15600   */\n      tag_625\n        /* \"#utility.yul\":15592:15599   */\n      dup4\n        /* \"#utility.yul\":15561:15600   */\n      tag_438\n      jump\t// in\n    tag_625:\n        /* \"#utility.yul\":15622:15713   */\n      tag_626\n        /* \"#utility.yul\":15671:15712   */\n      tag_627\n        /* \"#utility.yul\":15695:15711   */\n      dup3\n        /* \"#utility.yul\":15671:15712   */\n      tag_439\n      jump\t// in\n    tag_627:\n        /* \"#utility.yul\":15663:15669   */\n      dup5\n        /* \"#utility.yul\":15656:15660   */\n      dup5\n        /* \"#utility.yul\":15650:15661   */\n      sload\n        /* \"#utility.yul\":15622:15713   */\n      tag_437\n      jump\t// in\n    tag_626:\n        /* \"#utility.yul\":15616:15620   */\n      dup3\n        /* \"#utility.yul\":15609:15714   */\n      sstore\n        /* \"#utility.yul\":15527:15720   */\n      pop\n        /* \"#utility.yul\":15451:15720   */\n      pop\n      pop\n      pop\n      jump\t// out\n        /* \"#utility.yul\":15726:15799   */\n    tag_441:\n        /* \"#utility.yul\":15771:15774   */\n      0x00\n        /* \"#utility.yul\":15792:15793   */\n      0x00\n        /* \"#utility.yul\":15785:15793   */\n      swap1\n      pop\n        /* \"#utility.yul\":15726:15799   */\n      swap1\n      jump\t// out\n        /* \"#utility.yul\":15805:15994   */\n    tag_442:\n        /* \"#utility.yul\":15882:15914   */\n      tag_630\n      tag_441\n      jump\t// in\n    tag_630:\n        /* \"#utility.yul\":15923:15988   */\n      tag_631\n        /* \"#utility.yul\":15981:15987   */\n      dup2\n        /* \"#utility.yul\":15973:15979   */\n      dup5\n        /* \"#utility.yul\":15967:15971   */\n      dup5\n        /* \"#utility.yul\":15923:15988   */\n      tag_440\n      jump\t// in\n    tag_631:\n        /* \"#utility.yul\":15858:15994   */\n      pop\n        /* \"#utility.yul\":15805:15994   */\n      pop\n      pop\n      jump\t// out\n        /* \"#utility.yul\":16000:16186   */\n    tag_443:\n        /* \"#utility.yul\":16060:16180   */\n    tag_633:\n        /* \"#utility.yul\":16077:16080   */\n      dup2\n        /* \"#utility.yul\":16070:16075   */\n      dup2\n        /* \"#utility.yul\":16067:16081   */\n      lt\n        /* \"#utility.yul\":16060:16180   */\n      iszero\n      tag_635\n      jumpi\n        /* \"#utility.yul\":16131:16170   */\n      tag_636\n        /* \"#utility.yul\":16168:16169   */\n      0x00\n        /* \"#utility.yul\":16161:16166   */\n      dup3\n        /* \"#utility.yul\":16131:16170   */\n      tag_442\n      jump\t// in\n    tag_636:\n        /* \"#utility.yul\":16104:16105   */\n      0x01\n        /* \"#utility.yul\":16097:16102   */\n      dup2\n        /* \"#utility.yul\":16093:16106   */\n      add\n        /* \"#utility.yul\":16084:16106   */\n      swap1\n      pop\n        /* \"#utility.yul\":16060:16180   */\n      jump(tag_633)\n    tag_635:\n        /* \"#utility.yul\":16000:16186   */\n      pop\n      pop\n      jump\t// out\n        /* \"#utility.yul\":16192:16735   */\n    tag_444:\n        /* \"#utility.yul\":16293:16295   */\n      0x1f\n        /* \"#utility.yul\":16288:16291   */\n      dup3\n        /* \"#utility.yul\":16285:16296   */\n      gt\n        /* \"#utility.yul\":16282:16728   */\n      iszero\n      tag_638\n      jumpi\n        /* \"#utility.yul\":16327:16365   */\n      tag_639\n        /* \"#utility.yul\":16359:16364   */\n      dup2\n        /* \"#utility.yul\":16327:16365   */\n      tag_434\n      jump\t// in\n    tag_639:\n        /* \"#utility.yul\":16411:16440   */\n      tag_640\n        /* \"#utility.yul\":16429:16439   */\n      dup5\n        /* \"#utility.yul\":16411:16440   */\n      tag_435\n      jump\t// in\n    tag_640:\n        /* \"#utility.yul\":16401:16409   */\n      dup2\n        /* \"#utility.yul\":16397:16441   */\n      add\n        /* \"#utility.yul\":16594:16596   */\n      0x20\n        /* \"#utility.yul\":16582:16592   */\n      dup6\n        /* \"#utility.yul\":16579:16597   */\n      lt\n        /* \"#utility.yul\":16576:16625   */\n      iszero\n      tag_641\n      jumpi\n        /* \"#utility.yul\":16615:16623   */\n      dup2\n        /* \"#utility.yul\":16600:16623   */\n      swap1\n      pop\n        /* \"#utility.yul\":16576:16625   */\n    tag_641:\n        /* \"#utility.yul\":16638:16718   */\n      tag_642\n        /* \"#utility.yul\":16694:16716   */\n      tag_643\n        /* \"#utility.yul\":16712:16715   */\n      dup6\n        /* \"#utility.yul\":16694:16716   */\n      tag_435\n      jump\t// in\n    tag_643:\n        /* \"#utility.yul\":16684:16692   */\n      dup4\n        /* \"#utility.yul\":16680:16717   */\n      add\n        /* \"#utility.yul\":16667:16678   */\n      dup3\n        /* \"#utility.yul\":16638:16718   */\n      tag_443\n      jump\t// in\n    tag_642:\n        /* \"#utility.yul\":16297:16728   */\n      pop\n      pop\n        /* \"#utility.yul\":16282:16728   */\n    tag_638:\n        /* \"#utility.yul\":16192:16735   */\n      pop\n      pop\n      pop\n      jump\t// out\n        /* \"#utility.yul\":16741:16858   */\n    tag_445:\n        /* \"#utility.yul\":16795:16803   */\n      0x00\n        /* \"#utility.yul\":16845:16850   */\n      dup3\n        /* \"#utility.yul\":16839:16843   */\n      dup3\n        /* \"#utility.yul\":16835:16851   */\n      shr\n        /* \"#utility.yul\":16814:16851   */\n      swap1\n      pop\n        /* \"#utility.yul\":16741:16858   */\n      swap3\n      swap2\n      pop\n      pop\n      jump\t// out\n        /* \"#utility.yul\":16864:17033   */\n    tag_446:\n        /* \"#utility.yul\":16908:16914   */\n      0x00\n        /* \"#utility.yul\":16941:16992   */\n      tag_646\n        /* \"#utility.yul\":16989:16990   */\n      0x00\n        /* \"#utility.yul\":16985:16991   */\n      not\n        /* \"#utility.yul\":16977:16982   */\n      dup5\n        /* \"#utility.yul\":16974:16975   */\n      0x08\n        /* \"#utility.yul\":16970:16983   */\n      mul\n        /* \"#utility.yul\":16941:16992   */\n      tag_445\n      jump\t// in\n    tag_646:\n        /* \"#utility.yul\":16937:16993   */\n      not\n        /* \"#utility.yul\":17022:17026   */\n      dup1\n        /* \"#utility.yul\":17016:17020   */\n      dup4\n        /* \"#utility.yul\":17012:17027   */\n      and\n        /* \"#utility.yul\":17002:17027   */\n      swap2\n      pop\n        /* \"#utility.yul\":16915:17033   */\n      pop\n        /* \"#utility.yul\":16864:17033   */\n      swap3\n      swap2\n      pop\n      pop\n      jump\t// out\n        /* \"#utility.yul\":17038:17333   */\n    tag_447:\n        /* \"#utility.yul\":17114:17118   */\n      0x00\n        /* \"#utility.yul\":17260:17289   */\n      tag_648\n        /* \"#utility.yul\":17285:17288   */\n      dup4\n        /* \"#utility.yul\":17279:17283   */\n      dup4\n        /* \"#utility.yul\":17260:17289   */\n      tag_446\n      jump\t// in\n    tag_648:\n        /* \"#utility.yul\":17252:17289   */\n      swap2\n      pop\n        /* \"#utility.yul\":17322:17325   */\n      dup3\n        /* \"#utility.yul\":17319:17320   */\n      0x02\n        /* \"#utility.yul\":17315:17326   */\n      mul\n        /* \"#utility.yul\":17309:17313   */\n      dup3\n        /* \"#utility.yul\":17306:17327   */\n      or\n        /* \"#utility.yul\":17298:17327   */\n      swap1\n      pop\n        /* \"#utility.yul\":17038:17333   */\n      swap3\n      swap2\n      pop\n      pop\n      jump\t// out\n        /* \"#utility.yul\":17338:18741   */\n    tag_324:\n        /* \"#utility.yul\":17462:17506   */\n      tag_650\n        /* \"#utility.yul\":17502:17505   */\n      dup4\n        /* \"#utility.yul\":17497:17500   */\n      dup4\n        /* \"#utility.yul\":17462:17506   */\n      tag_432\n      jump\t// in\n    tag_650:\n        /* \"#utility.yul\":17571:17589   */\n      0xffffffffffffffff\n        /* \"#utility.yul\":17563:17569   */\n      dup2\n        /* \"#utility.yul\":17560:17590   */\n      gt\n        /* \"#utility.yul\":17557:17613   */\n      iszero\n      tag_651\n      jumpi\n        /* \"#utility.yul\":17593:17611   */\n      tag_652\n      tag_433\n      jump\t// in\n    tag_652:\n        /* \"#utility.yul\":17557:17613   */\n    tag_651:\n        /* \"#utility.yul\":17637:17675   */\n      tag_653\n        /* \"#utility.yul\":17669:17673   */\n      dup3\n        /* \"#utility.yul\":17663:17674   */\n      sload\n        /* \"#utility.yul\":17637:17675   */\n      tag_250\n      jump\t// in\n    tag_653:\n        /* \"#utility.yul\":17722:17789   */\n      tag_654\n        /* \"#utility.yul\":17782:17788   */\n      dup3\n        /* \"#utility.yul\":17774:17780   */\n      dup3\n        /* \"#utility.yul\":17768:17772   */\n      dup6\n        /* \"#utility.yul\":17722:17789   */\n      tag_444\n      jump\t// in\n    tag_654:\n        /* \"#utility.yul\":17816:17817   */\n      0x00\n        /* \"#utility.yul\":17845:17847   */\n      0x1f\n        /* \"#utility.yul\":17837:17843   */\n      dup4\n        /* \"#utility.yul\":17834:17848   */\n      gt\n        /* \"#utility.yul\":17862:17863   */\n      0x01\n        /* \"#utility.yul\":17857:18489   */\n      dup2\n      eq\n      tag_656\n      jumpi\n        /* \"#utility.yul\":18533:18534   */\n      0x00\n        /* \"#utility.yul\":18550:18556   */\n      dup5\n        /* \"#utility.yul\":18547:18631   */\n      iszero\n      tag_657\n      jumpi\n        /* \"#utility.yul\":18606:18615   */\n      dup3\n        /* \"#utility.yul\":18601:18604   */\n      dup8\n        /* \"#utility.yul\":18597:18616   */\n      add\n        /* \"#utility.yul\":18584:18617   */\n      calldataload\n        /* \"#utility.yul\":18575:18617   */\n      swap1\n      pop\n        /* \"#utility.yul\":18547:18631   */\n    tag_657:\n        /* \"#utility.yul\":18657:18724   */\n      tag_658\n        /* \"#utility.yul\":18717:18723   */\n      dup6\n        /* \"#utility.yul\":18710:18715   */\n      dup3\n        /* \"#utility.yul\":18657:18724   */\n      tag_447\n      jump\t// in\n    tag_658:\n        /* \"#utility.yul\":18651:18655   */\n      dup7\n        /* \"#utility.yul\":18644:18725   */\n      sstore\n        /* \"#utility.yul\":18506:18735   */\n      pop\n        /* \"#utility.yul\":17827:18735   */\n      jump(tag_655)\n        /* \"#utility.yul\":17857:18489   */\n    tag_656:\n        /* \"#utility.yul\":17909:17913   */\n      0x1f\n        /* \"#utility.yul\":17905:17914   */\n      not\n        /* \"#utility.yul\":17897:17903   */\n      dup5\n        /* \"#utility.yul\":17893:17915   */\n      and\n        /* \"#utility.yul\":17943:17980   */\n      tag_659\n        /* \"#utility.yul\":17975:17979   */\n      dup7\n        /* \"#utility.yul\":17943:17980   */\n      tag_434\n      jump\t// in\n    tag_659:\n        /* \"#utility.yul\":18002:18003   */\n      0x00\n        /* \"#utility.yul\":18016:18231   */\n    tag_660:\n        /* \"#utility.yul\":18030:18037   */\n      dup3\n        /* \"#utility.yul\":18027:18028   */\n      dup2\n        /* \"#utility.yul\":18024:18038   */\n      lt\n        /* \"#utility.yul\":18016:18231   */\n      iszero\n      tag_662\n      jumpi\n        /* \"#utility.yul\":18116:18125   */\n      dup5\n        /* \"#utility.yul\":18111:18114   */\n      dup10\n        /* \"#utility.yul\":18107:18126   */\n      add\n        /* \"#utility.yul\":18094:18127   */\n      calldataload\n        /* \"#utility.yul\":18086:18092   */\n      dup3\n        /* \"#utility.yul\":18079:18128   */\n      sstore\n        /* \"#utility.yul\":18167:18168   */\n      0x01\n        /* \"#utility.yul\":18159:18165   */\n      dup3\n        /* \"#utility.yul\":18155:18169   */\n      add\n        /* \"#utility.yul\":18145:18169   */\n      swap2\n      pop\n        /* \"#utility.yul\":18214:18216   */\n      0x20\n        /* \"#utility.yul\":18203:18212   */\n      dup6\n        /* \"#utility.yul\":18199:18217   */\n      add\n        /* \"#utility.yul\":18186:18217   */\n      swap5\n      pop\n        /* \"#utility.yul\":18053:18057   */\n      0x20\n        /* \"#utility.yul\":18050:18051   */\n      dup2\n        /* \"#utility.yul\":18046:18058   */\n      add\n        /* \"#utility.yul\":18041:18058   */\n      swap1\n      pop\n        /* \"#utility.yul\":18016:18231   */\n      jump(tag_660)\n    tag_662:\n        /* \"#utility.yul\":18259:18265   */\n      dup7\n        /* \"#utility.yul\":18250:18257   */\n      dup4\n        /* \"#utility.yul\":18247:18266   */\n      lt\n        /* \"#utility.yul\":18244:18430   */\n      iszero\n      tag_663\n      jumpi\n        /* \"#utility.yul\":18324:18333   */\n      dup5\n        /* \"#utility.yul\":18319:18322   */\n      dup10\n        /* \"#utility.yul\":18315:18334   */\n      add\n        /* \"#utility.yul\":18302:18335   */\n      calldataload\n        /* \"#utility.yul\":18367:18415   */\n      tag_664\n        /* \"#utility.yul\":18409:18413   */\n      0x1f\n        /* \"#utility.yul\":18401:18407   */\n      dup10\n        /* \"#utility.yul\":18397:18414   */\n      and\n        /* \"#utility.yul\":18386:18395   */\n      dup3\n        /* \"#utility.yul\":18367:18415   */\n      tag_446\n      jump\t// in\n    tag_664:\n        /* \"#utility.yul\":18359:18365   */\n      dup4\n        /* \"#utility.yul\":18352:18416   */\n      sstore\n        /* \"#utility.yul\":18267:18430   */\n      pop\n        /* \"#utility.yul\":18244:18430   */\n    tag_663:\n        /* \"#utility.yul\":18476:18477   */\n      0x01\n        /* \"#utility.yul\":18472:18473   */\n      0x02\n        /* \"#utility.yul\":18464:18470   */\n      dup9\n        /* \"#utility.yul\":18460:18474   */\n      mul\n        /* \"#utility.yul\":18456:18478   */\n      add\n        /* \"#utility.yul\":18450:18454   */\n      dup9\n        /* \"#utility.yul\":18443:18479   */\n      sstore\n        /* \"#utility.yul\":17864:18489   */\n      pop\n      pop\n      pop\n        /* \"#utility.yul\":17827:18735   */\n    tag_655:\n      pop\n        /* \"#utility.yul\":17437:18741   */\n      pop\n      pop\n      pop\n        /* \"#utility.yul\":17338:18741   */\n      pop\n      pop\n      pop\n      jump\t// out\n        /* \"#utility.yul\":18747:18905   */\n    tag_448:\n        /* \"#utility.yul\":18887:18897   */\n      0x4241445f4c4c5456000000000000000000000000000000000000000000000000\n        /* \"#utility.yul\":18883:18884   */\n      0x00\n        /* \"#utility.yul\":18875:18881   */\n      dup3\n        /* \"#utility.yul\":18871:18885   */\n      add\n        /* \"#utility.yul\":18864:18898   */\n      mstore\n        /* \"#utility.yul\":18747:18905   */\n      pop\n      jump\t// out\n        /* \"#utility.yul\":18911:19276   */\n    tag_449:\n        /* \"#utility.yul\":19053:19056   */\n      0x00\n        /* \"#utility.yul\":19074:19140   */\n      tag_667\n        /* \"#utility.yul\":19138:19139   */\n      0x08\n        /* \"#utility.yul\":19133:19136   */\n      dup4\n        /* \"#utility.yul\":19074:19140   */\n      tag_411\n      jump\t// in\n    tag_667:\n        /* \"#utility.yul\":19067:19140   */\n      swap2\n      pop\n        /* \"#utility.yul\":19149:19242   */\n      tag_668\n        /* \"#utility.yul\":19238:19241   */\n      dup3\n        /* \"#utility.yul\":19149:19242   */\n      tag_448\n      jump\t// in\n    tag_668:\n        /* \"#utility.yul\":19267:19269   */\n      0x20\n        /* \"#utility.yul\":19262:19265   */\n      dup3\n        /* \"#utility.yul\":19258:19270   */\n      add\n        /* \"#utility.yul\":19251:19270   */\n      swap1\n      pop\n        /* \"#utility.yul\":18911:19276   */\n      swap2\n      swap1\n      pop\n      jump\t// out\n        /* \"#utility.yul\":19282:19701   */\n    tag_354:\n        /* \"#utility.yul\":19448:19452   */\n      0x00\n        /* \"#utility.yul\":19486:19488   */\n      0x20\n        /* \"#utility.yul\":19475:19484   */\n      dup3\n        /* \"#utility.yul\":19471:19489   */\n      add\n        /* \"#utility.yul\":19463:19489   */\n      swap1\n      pop\n        /* \"#utility.yul\":19535:19544   */\n      dup2\n        /* \"#utility.yul\":19529:19533   */\n      dup2\n        /* \"#utility.yul\":19525:19545   */\n      sub\n        /* \"#utility.yul\":19521:19522   */\n      0x00\n        /* \"#utility.yul\":19510:19519   */\n      dup4\n        /* \"#utility.yul\":19506:19523   */\n      add\n        /* \"#utility.yul\":19499:19546   */\n      mstore\n        /* \"#utility.yul\":19563:19694   */\n      tag_670\n        /* \"#utility.yul\":19689:19693   */\n      dup2\n        /* \"#utility.yul\":19563:19694   */\n      tag_449\n      jump\t// in\n    tag_670:\n        /* \"#utility.yul\":19555:19694   */\n      swap1\n      pop\n        /* \"#utility.yul\":19282:19701   */\n      swap2\n      swap1\n      pop\n      jump\t// out\n        /* \"#utility.yul\":19707:19870   */\n    tag_450:\n        /* \"#utility.yul\":19847:19862   */\n      0x4241445f4c49515f424f4e555300000000000000000000000000000000000000\n        /* \"#utility.yul\":19843:19844   */\n      0x00\n        /* \"#utility.yul\":19835:19841   */\n      dup3\n        /* \"#utility.yul\":19831:19845   */\n      add\n        /* \"#utility.yul\":19824:19863   */\n      mstore\n        /* \"#utility.yul\":19707:19870   */\n      pop\n      jump\t// out\n        /* \"#utility.yul\":19876:20242   */\n    tag_451:\n        /* \"#utility.yul\":20018:20021   */\n      0x00\n        /* \"#utility.yul\":20039:20106   */\n      tag_673\n        /* \"#utility.yul\":20103:20105   */\n      0x0d\n        /* \"#utility.yul\":20098:20101   */\n      dup4\n        /* \"#utility.yul\":20039:20106   */\n      tag_411\n      jump\t// in\n    tag_673:\n        /* \"#utility.yul\":20032:20106   */\n      swap2\n      pop\n        /* \"#utility.yul\":20115:20208   */\n      tag_674\n        /* \"#utility.yul\":20204:20207   */\n      dup3\n        /* \"#utility.yul\":20115:20208   */\n      tag_450\n      jump\t// in\n    tag_674:\n        /* \"#utility.yul\":20233:20235   */\n      0x20\n        /* \"#utility.yul\":20228:20231   */\n      dup3\n        /* \"#utility.yul\":20224:20236   */\n      add\n        /* \"#utility.yul\":20217:20236   */\n      swap1\n      pop\n        /* \"#utility.yul\":19876:20242   */\n      swap2\n      swap1\n      pop\n      jump\t// out\n        /* \"#utility.yul\":20248:20667   */\n    tag_357:\n        /* \"#utility.yul\":20414:20418   */\n      0x00\n        /* \"#utility.yul\":20452:20454   */\n      0x20\n        /* \"#utility.yul\":20441:20450   */\n      dup3\n        /* \"#utility.yul\":20437:20455   */\n      add\n        /* \"#utility.yul\":20429:20455   */\n      swap1\n      pop\n        /* \"#utility.yul\":20501:20510   */\n      dup2\n        /* \"#utility.yul\":20495:20499   */\n      dup2\n        /* \"#utility.yul\":20491:20511   */\n      sub\n        /* \"#utility.yul\":20487:20488   */\n      0x00\n        /* \"#utility.yul\":20476:20485   */\n      dup4\n        /* \"#utility.yul\":20472:20489   */\n      add\n        /* \"#utility.yul\":20465:20512   */\n      mstore\n        /* \"#utility.yul\":20529:20660   */\n      tag_676\n        /* \"#utility.yul\":20655:20659   */\n      dup2\n        /* \"#utility.yul\":20529:20660   */\n      tag_451\n      jump\t// in\n    tag_676:\n        /* \"#utility.yul\":20521:20660   */\n      swap1\n      pop\n        /* \"#utility.yul\":20248:20667   */\n      swap2\n      swap1\n      pop\n      jump\t// out\n\n    auxdata: 0xa264697066735822122009edf197b1df20a6fb05791ee7c8a396bcc1d7ef484605797099e811156d355664736f6c634300081e0033\n}\n",
				"bytecode": {
					"linkReferences": {},
					"object": "6080604052348015600e575f5ffd5b50612b098061001c5f395ff3fe608060405234801561000f575f5ffd5b5060043610610230575f3560e01c806376e9790a1161012e578063b2016bd4116100b6578063d283e75f1161007a578063d283e75f1461064a578063d3a417a21461067a578063d681a44914610696578063fbfa77cf146106b4578063fc7b9c18146106d257610230565b8063b2016bd4146105b8578063b3604c96146105d6578063c5ebeaec146105f4578063c82f6d2f14610610578063ced65b011461062e57610230565b80638da5cb5b116100fd5780638da5cb5b14610538578063a385fb9614610556578063a6afed9514610574578063aa5af0fd1461057e578063b1c0be341461059c57610230565b806376e9790a146104ae5780637924d93f146104cc5780637c3a00fd146104fc5780637dc0d1d01461051a57610230565b80633e3722b6116101bc5780636112fe2e116101805780636112fe2e146103f657806361d027b3146104125780636711a640146104305780636ad9f9df14610460578063743753591461049057610230565b80633e3722b6146103505780634046ebae1461036c5780634a79d50c1461038a5780634b92917a146103a857806355f57510146103c457610230565b8063299629041161020357806329962904146102ac5780632f865568146102ca57806335659fb8146102e6578063367febea14610304578063371fd8e61461032057610230565b806306d3781714610234578063136cf1f71461025257806319970d8e1461027057806327776ab51461028e575b5f5ffd5b61023c6106f0565b6040516102499190612088565b60405180910390f35b61025a610715565b60405161026791906120b9565b60405180910390f35b61027861071b565b60405161028591906120b9565b60405180910390f35b610296610721565b6040516102a391906120b9565b60405180910390f35b6102b461072d565b6040516102c191906120b9565b60405180910390f35b6102e460048036038101906102df9190612115565b610733565b005b6102ee610af9565b6040516102fb91906120b9565b60405180910390f35b61031e6004803603810190610319919061216a565b610aff565b005b61033a6004803603810190610335919061216a565b610c02565b60405161034791906120b9565b60405180910390f35b61036a6004803603810190610365919061216a565b610e06565b005b610374610f1f565b60405161038191906121a4565b60405180910390f35b610392610f44565b60405161039f919061222d565b60405180910390f35b6103c260048036038101906103bd919061216a565b610fd0565b005b6103de60048036038101906103d99190612115565b61102b565b6040516103ed9392919061224d565b60405180910390f35b610410600480360381019061040b919061216a565b611051565b005b61041a611168565b60405161042791906121a4565b60405180910390f35b61044a60048036038101906104459190612115565b61118d565b60405161045791906120b9565b60405180910390f35b61047a60048036038101906104759190612115565b6113cf565b60405161048791906120b9565b60405180910390f35b610498611436565b6040516104a591906120b9565b60405180910390f35b6104b6611519565b6040516104c3919061222d565b60405180910390f35b6104e660048036038101906104e1919061216a565b6115a5565b6040516104f391906121a4565b60405180910390f35b6105046115e0565b60405161051191906120b9565b60405180910390f35b6105226115e6565b60405161052f91906122a2565b60405180910390f35b61054061160b565b60405161054d91906121a4565b60405180910390f35b61055e611630565b60405161056b91906120b9565b60405180910390f35b61057c611636565b005b6105866116c4565b60405161059391906120b9565b60405180910390f35b6105b660048036038101906105b1919061233f565b6116ca565b005b6105c0611a1b565b6040516105cd9190612088565b60405180910390f35b6105de611a40565b6040516105eb91906120b9565b60405180910390f35b61060e6004803603810190610609919061216a565b611a46565b005b610618611be7565b60405161062591906120b9565b60405180910390f35b610648600480360381019061064391906123d3565b611c07565b005b610664600480360381019061065f9190612115565b611d0b565b60405161067191906120b9565b60405180910390f35b610694600480360381019061068f9190612115565b611d8b565b005b61069e611e5d565b6040516106ab91906120b9565b60405180910390f35b6106bc611e63565b6040516106c991906121a4565b60405180910390f35b6106da611e88565b6040516106e791906120b9565b60405180910390f35b60025f9054906101000a900473ffffffffffffffffffffffffffffffffffffffff1681565b60105481565b600d5481565b670de0b6b3a764000081565b60125481565b60095f9054906101000a900473ffffffffffffffffffffffffffffffffffffffff1673ffffffffffffffffffffffffffffffffffffffff163373ffffffffffffffffffffffffffffffffffffffff1614806107da57505f60029054906101000a900473ffffffffffffffffffffffffffffffffffffffff1673ffffffffffffffffffffffffffffffffffffffff163373ffffffffffffffffffffffffffffffffffffffff16145b6107e2575f5ffd5b6107ea611636565b5f60135f8373ffffffffffffffffffffffffffffffffffffffff1673ffffffffffffffffffffffffffffffffffffffff1681526020019081526020015f2090505f61083483611d0b565b90505f612710600d54846001015461084c9190612450565b61085691906124be565b90505f81846001015461086991906124ee565b905061087485611ec6565b1561087d575f5ffd5b60025f9054906101000a900473ffffffffffffffffffffffffffffffffffffffff1673ffffffffffffffffffffffffffffffffffffffff1663a9059cbb33846040518363ffffffff1660e01b81526004016108d9929190612521565b6020604051808303815f875af11580156108f5573d5f5f3e3d5ffd5b505050506040513d601f19601f82011682018060405250810190610919919061257d565b5060025f9054906101000a900473ffffffffffffffffffffffffffffffffffffffff1673ffffffffffffffffffffffffffffffffffffffff1663a9059cbb60085f9054906101000a900473ffffffffffffffffffffffffffffffffffffffff16836040518363ffffffff1660e01b8152600401610997929190612521565b6020604051808303815f875af11580156109b3573d5f5f3e3d5ffd5b505050506040513d601f19601f820116820180604052508101906109d7919061257d565b50835f015460105f8282546109ec91906124ee565b9250508190555060135f8673ffffffffffffffffffffffffffffffffffffffff1673ffffffffffffffffffffffffffffffffffffffff1681526020019081526020015f205f5f82015f9055600182015f9055600282015f905550506001805480610a5957610a586125a8565b5b600190038181905f5260205f20015f6101000a81549073ffffffffffffffffffffffffffffffffffffffff021916905590553373ffffffffffffffffffffffffffffffffffffffff168573ffffffffffffffffffffffffffffffffffffffff167f1f0c6615429d1cdae0dfa233abf91d3b31cdbdd82c8081389832a61e1072f1ea8585604051610aea9291906125d5565b60405180910390a35050505050565b600f5481565b5f8111610b0a575f5ffd5b60035f9054906101000a900473ffffffffffffffffffffffffffffffffffffffff1673ffffffffffffffffffffffffffffffffffffffff166323b872dd3330846040518463ffffffff1660e01b8152600401610b68939291906125fc565b6020604051808303815f875af1158015610b84573d5f5f3e3d5ffd5b505050506040513d601f19601f82011682018060405250810190610ba8919061257d565b508060135f3373ffffffffffffffffffffffffffffffffffffffff1673ffffffffffffffffffffffffffffffffffffffff1681526020019081526020015f206001015f828254610bf89190612631565b9250508190555050565b5f610c0b611636565b5f60135f3373ffffffffffffffffffffffffffffffffffffffff1673ffffffffffffffffffffffffffffffffffffffff1681526020019081526020015f2090505f610c5533611d0b565b90505f818511610c655784610c67565b815b905060025f9054906101000a900473ffffffffffffffffffffffffffffffffffffffff1673ffffffffffffffffffffffffffffffffffffffff166323b872dd3330886040518463ffffffff1660e01b8152600401610cc7939291906125fc565b6020604051808303815f875af1158015610ce3573d5f5f3e3d5ffd5b505050506040513d601f19601f82011682018060405250810190610d07919061257d565b505f81846002015411610d1e578360020154610d20565b815b905080846002015f828254610d3591906124ee565b92505081905550612710600f548284610d4e91906124ee565b610d589190612450565b610d6291906124be565b600e5f828254610d729190612631565b925050819055505f838314610da757601154670de0b6b3a764000084610d989190612450565b610da291906124be565b610dac565b845f01545b9050845f0154811015610dc057845f015490505b80855f015f828254610dd291906124ee565b925050819055508060105f828254610dea91906124ee565b92505081905550610dfa33611d0b565b95505050505050919050565b60075f9054906101000a900473ffffffffffffffffffffffffffffffffffffffff1673ffffffffffffffffffffffffffffffffffffffff163373ffffffffffffffffffffffffffffffffffffffff1614610e5e575f5ffd5b60025f9054906101000a900473ffffffffffffffffffffffffffffffffffffffff1673ffffffffffffffffffffffffffffffffffffffff1663a9059cbb60075f9054906101000a900473ffffffffffffffffffffffffffffffffffffffff16836040518363ffffffff1660e01b8152600401610edb929190612521565b6020604051808303815f875af1158015610ef7573d5f5f3e3d5ffd5b505050506040513d601f19601f82011682018060405250810190610f1b919061257d565b5050565b60095f9054906101000a900473ffffffffffffffffffffffffffffffffffffffff1681565b60058054610f5190612691565b80601f0160208091040260200160405190810160405280929190818152602001828054610f7d90612691565b8015610fc85780601f10610f9f57610100808354040283529160200191610fc8565b820191905f5260205f20905b815481529060010190602001808311610fab57829003601f168201915b505050505081565b60075f9054906101000a900473ffffffffffffffffffffffffffffffffffffffff1673ffffffffffffffffffffffffffffffffffffffff163373ffffffffffffffffffffffffffffffffffffffff1614611028575f5ffd5b50565b6013602052805f5260405f205f91509050805f0154908060010154908060020154905083565b5f811161105c575f5ffd5b5f60135f3373ffffffffffffffffffffffffffffffffffffffff1673ffffffffffffffffffffffffffffffffffffffff1681526020019081526020015f20905081816001015f8282546110af91906124ee565b925050819055506110bf33611ec6565b6110c7575f5ffd5b60035f9054906101000a900473ffffffffffffffffffffffffffffffffffffffff1673ffffffffffffffffffffffffffffffffffffffff1663a9059cbb33846040518363ffffffff1660e01b8152600401611123929190612521565b6020604051808303815f875af115801561113f573d5f5f3e3d5ffd5b505050506040513d601f19601f82011682018060405250810190611163919061257d565b505050565b60085f9054906101000a900473ffffffffffffffffffffffffffffffffffffffff1681565b5f5f60135f8473ffffffffffffffffffffffffffffffffffffffff1673ffffffffffffffffffffffffffffffffffffffff1681526020019081526020015f2090505f6111d884611d0b565b90505f81036111eb575f925050506113ca565b5f826001015403611220577fffffffffffffffffffffffffffffffffffffffffffffffffffffffffffffffff925050506113ca565b60045f9054906101000a900473ffffffffffffffffffffffffffffffffffffffff1673ffffffffffffffffffffffffffffffffffffffff166341976e0960035f9054906101000a900473ffffffffffffffffffffffffffffffffffffffff166040518263ffffffff1660e01b815260040161129b91906121a4565b602060405180830381865afa1580156112b6573d5f5f3e3d5ffd5b505050506040513d601f19601f820116820180604052508101906112da91906126d5565b82600101546112e99190612450565b61271060045f9054906101000a900473ffffffffffffffffffffffffffffffffffffffff1673ffffffffffffffffffffffffffffffffffffffff166341976e0960025f9054906101000a900473ffffffffffffffffffffffffffffffffffffffff166040518263ffffffff1660e01b815260040161136791906121a4565b602060405180830381865afa158015611382573d5f5f3e3d5ffd5b505050506040513d601f19601f820116820180604052508101906113a691906126d5565b836113b19190612450565b6113bb9190612450565b6113c591906124be565b925050505b919050565b5f5f6113da8361118d565b90505f810361140c577fffffffffffffffffffffffffffffffffffffffffffffffffffffffffffffffff915050611431565b80670de0b6b3a7640000600a546114239190612450565b61142d91906124be565b9150505b919050565b5f5f60045f9054906101000a900473ffffffffffffffffffffffffffffffffffffffff1673ffffffffffffffffffffffffffffffffffffffff166341976e0960025f9054906101000a900473ffffffffffffffffffffffffffffffffffffffff166040518263ffffffff1660e01b81526004016114b391906121a4565b602060405180830381865afa1580156114ce573d5f5f3e3d5ffd5b505050506040513d601f19601f820116820180604052508101906114f291906126d5565b9050600e5481111561151157600e548161150c91906124ee565b611513565b5f5b91505090565b6006805461152690612691565b80601f016020809104026020016040519081016040528092919081815260200182805461155290612691565b801561159d5780601f106115745761010080835404028352916020019161159d565b820191905f5260205f20905b81548152906001019060200180831161158057829003601f168201915b505050505081565b600181815481106115b4575f80fd5b905f5260205f20015f915054906101000a900473ffffffffffffffffffffffffffffffffffffffff1681565b600b5481565b60045f9054906101000a900473ffffffffffffffffffffffffffffffffffffffff1681565b5f60029054906101000a900473ffffffffffffffffffffffffffffffffffffffff1681565b600c5481565b6012544303156116c2575f60105411156116ba575f6012544361165991906124ee565b90505f670de0b6b3a764000082600b546116739190612450565b61167d91906124be565b9050670de0b6b3a7640000816011546116969190612450565b6116a091906124be565b60115f8282546116b09190612631565b9250508190555050505b436012819055505b565b60115481565b5f5f9054906101000a900460ff1615806116ef57505f60019054906101000a900460ff165b61172e576040517f08c379a00000000000000000000000000000000000000000000000000000000081526004016117259061274a565b60405180910390fd5b5f5f60019054906101000a900460ff16159050801561177b5760015f60016101000a81548160ff02191690831515021790555060015f5f6101000a81548160ff0219169083151502179055505b611795865f0160208101906117909190612115565b611edb565b8484600591826117a6929190612936565b508282600691826117b8929190612936565b508560800160208101906117cc9190612115565b60025f6101000a81548173ffffffffffffffffffffffffffffffffffffffff021916908373ffffffffffffffffffffffffffffffffffffffff1602179055508560a001602081019061181e9190612115565b60035f6101000a81548173ffffffffffffffffffffffffffffffffffffffff021916908373ffffffffffffffffffffffffffffffffffffffff1602179055508560c00160208101906118709190612115565b60045f6101000a81548173ffffffffffffffffffffffffffffffffffffffff021916908373ffffffffffffffffffffffffffffffffffffffff1602179055508560400160208101906118c29190612115565b60095f6101000a81548173ffffffffffffffffffffffffffffffffffffffff021916908373ffffffffffffffffffffffffffffffffffffffff1602179055508560600160208101906119149190612115565b60085f6101000a81548173ffffffffffffffffffffffffffffffffffffffff021916908373ffffffffffffffffffffffffffffffffffffffff1602179055508560200160208101906119669190612115565b60075f6101000a81548173ffffffffffffffffffffffffffffffffffffffff021916908373ffffffffffffffffffffffffffffffffffffffff160217905550856101000135600b819055508560e00135600a81905550610bb8600f81905550670de0b6b3a7640000601181905550856101200135600c8190555043601281905550856101400135600d819055508015611a13575f5f60016101000a81548160ff0219169083151502179055505b505050505050565b60035f9054906101000a900473ffffffffffffffffffffffffffffffffffffffff1681565b600a5481565b611a4e611636565b5f60135f3373ffffffffffffffffffffffffffffffffffffffff1673ffffffffffffffffffffffffffffffffffffffff1681526020019081526020015f2090505f611a9883611f55565b905080825f015f828254611aac9190612631565b925050819055508060105f828254611ac49190612631565b9250508190555080826002015f828254611ade9190612631565b9250508190555060025f9054906101000a900473ffffffffffffffffffffffffffffffffffffffff1673ffffffffffffffffffffffffffffffffffffffff1663a9059cbb33856040518363ffffffff1660e01b8152600401611b41929190612521565b6020604051808303815f875af1158015611b5d573d5f5f3e3d5ffd5b505050506040513d601f19601f82011682018060405250810190611b81919061257d565b50600133908060018154018082558091505060019003905f5260205f20015f9091909190916101000a81548173ffffffffffffffffffffffffffffffffffffffff021916908373ffffffffffffffffffffffffffffffffffffffff160217905550505050565b5f611bf0611e88565b611bf8611436565b611c029190612631565b905090565b5f60029054906101000a900473ffffffffffffffffffffffffffffffffffffffff1673ffffffffffffffffffffffffffffffffffffffff163373ffffffffffffffffffffffffffffffffffffffff1614611c5f575f5ffd5b612710831115611ca4576040517f08c379a0000000000000000000000000000000000000000000000000000000008152600401611c9b90612a4d565b60405180910390fd5b612710811115611ce9576040517f08c379a0000000000000000000000000000000000000000000000000000000008152600401611ce090612ab5565b60405180910390fd5b611cf1611636565b82600a8190555081600b8190555080600d81905550505050565b5f5f60135f8473ffffffffffffffffffffffffffffffffffffffff1673ffffffffffffffffffffffffffffffffffffffff1681526020019081526020015f205f015490505f8114611d8157670de0b6b3a7640000611d67611f8a565b82611d729190612450565b611d7c91906124be565b611d83565b5f5b915050919050565b5f60029054906101000a900473ffffffffffffffffffffffffffffffffffffffff1673ffffffffffffffffffffffffffffffffffffffff163373ffffffffffffffffffffffffffffffffffffffff1614611de3575f5ffd5b5f73ffffffffffffffffffffffffffffffffffffffff168173ffffffffffffffffffffffffffffffffffffffff1603611e1a575f5ffd5b805f60026101000a81548173ffffffffffffffffffffffffffffffffffffffff021916908373ffffffffffffffffffffffffffffffffffffffff16021790555050565b600e5481565b60075f9054906101000a900473ffffffffffffffffffffffffffffffffffffffff1681565b5f5f60105414611ebf57670de0b6b3a7640000611ea3611f8a565b601054611eb09190612450565b611eba91906124be565b611ec1565b5f5b905090565b5f600a54611ed38361118d565b109050919050565b5f73ffffffffffffffffffffffffffffffffffffffff168173ffffffffffffffffffffffffffffffffffffffff1603611f12575f5ffd5b805f60026101000a81548173ffffffffffffffffffffffffffffffffffffffff021916908373ffffffffffffffffffffffffffffffffffffffff16021790555050565b5f601154670de0b6b3a764000083611f6d9190612450565b611f7791906124be565b90505f8103611f8557600190505b919050565b5f601154905060125443148015611fa257505f601054115b1561200b575f60125443611fb691906124ee565b90505f670de0b6b3a764000082600b54611fd09190612450565b611fda91906124be565b9050670de0b6b3a76400008184611ff19190612450565b611ffb91906124be565b836120069190612631565b925050505b90565b5f73ffffffffffffffffffffffffffffffffffffffff82169050919050565b5f819050919050565b5f61205061204b6120468461200e565b61202d565b61200e565b9050919050565b5f61206182612036565b9050919050565b5f61207282612057565b9050919050565b61208281612068565b82525050565b5f60208201905061209b5f830184612079565b92915050565b5f819050919050565b6120b3816120a1565b82525050565b5f6020820190506120cc5f8301846120aa565b92915050565b5f5ffd5b5f5ffd5b5f6120e48261200e565b9050919050565b6120f4816120da565b81146120fe575f5ffd5b50565b5f8135905061210f816120eb565b92915050565b5f6020828403121561212a576121296120d2565b5b5f61213784828501612101565b91505092915050565b612149816120a1565b8114612153575f5ffd5b50565b5f8135905061216481612140565b92915050565b5f6020828403121561217f5761217e6120d2565b5b5f61218c84828501612156565b91505092915050565b61219e816120da565b82525050565b5f6020820190506121b75f830184612195565b92915050565b5f81519050919050565b5f82825260208201905092915050565b8281835e5f83830152505050565b5f601f19601f8301169050919050565b5f6121ff826121bd565b61220981856121c7565b93506122198185602086016121d7565b612222816121e5565b840191505092915050565b5f6020820190508181035f83015261224581846121f5565b905092915050565b5f6060820190506122605f8301866120aa565b61226d60208301856120aa565b61227a60408301846120aa565b949350505050565b5f61228c82612057565b9050919050565b61229c81612282565b82525050565b5f6020820190506122b55f830184612293565b92915050565b5f5ffd5b5f61016082840312156122d5576122d46122bb565b5b81905092915050565b5f5ffd5b5f5ffd5b5f5ffd5b5f5f83601f8401126122ff576122fe6122de565b5b8235905067ffffffffffffffff81111561231c5761231b6122e2565b5b602083019150836001820283011115612338576123376122e6565b5b9250929050565b5f5f5f5f5f6101a08688031215612359576123586120d2565b5b5f612366888289016122bf565b95505061016086013567ffffffffffffffff811115612388576123876120d6565b5b612394888289016122ea565b945094505061018086013567ffffffffffffffff8111156123b8576123b76120d6565b5b6123c4888289016122ea565b92509250509295509295909350565b5f5f5f606084860312156123ea576123e96120d2565b5b5f6123f786828701612156565b935050602061240886828701612156565b925050604061241986828701612156565b9150509250925092565b7f4e487b71000000000000000000000000000000000000000000000000000000005f52601160045260245ffd5b5f61245a826120a1565b9150612465836120a1565b9250828202612473816120a1565b9150828204841483151761248a57612489612423565b5b5092915050565b7f4e487b71000000000000000000000000000000000000000000000000000000005f52601260045260245ffd5b5f6124c8826120a1565b91506124d3836120a1565b9250826124e3576124e2612491565b5b828204905092915050565b5f6124f8826120a1565b9150612503836120a1565b925082820390508181111561251b5761251a612423565b5b92915050565b5f6040820190506125345f830185612195565b61254160208301846120aa565b9392505050565b5f8115159050919050565b61255c81612548565b8114612566575f5ffd5b50565b5f8151905061257781612553565b92915050565b5f60208284031215612592576125916120d2565b5b5f61259f84828501612569565b91505092915050565b7f4e487b71000000000000000000000000000000000000000000000000000000005f52603160045260245ffd5b5f6040820190506125e85f8301856120aa565b6125f560208301846120aa565b9392505050565b5f60608201905061260f5f830186612195565b61261c6020830185612195565b61262960408301846120aa565b949350505050565b5f61263b826120a1565b9150612646836120a1565b925082820190508082111561265e5761265d612423565b5b92915050565b7f4e487b71000000000000000000000000000000000000000000000000000000005f52602260045260245ffd5b5f60028204905060018216806126a857607f821691505b6020821081036126bb576126ba612664565b5b50919050565b5f815190506126cf81612140565b92915050565b5f602082840312156126ea576126e96120d2565b5b5f6126f7848285016126c1565b91505092915050565b7f414c52454144595f494e495449414c495a4544000000000000000000000000005f82015250565b5f6127346013836121c7565b915061273f82612700565b602082019050919050565b5f6020820190508181035f83015261276181612728565b9050919050565b5f82905092915050565b7f4e487b71000000000000000000000000000000000000000000000000000000005f52604160045260245ffd5b5f819050815f5260205f209050919050565b5f6020601f8301049050919050565b5f82821b905092915050565b5f600883026127fb7fffffffffffffffffffffffffffffffffffffffffffffffffffffffffffffffff826127c0565b61280586836127c0565b95508019841693508086168417925050509392505050565b5f61283761283261282d846120a1565b61202d565b6120a1565b9050919050565b5f819050919050565b6128508361281d565b61286461285c8261283e565b8484546127cc565b825550505050565b5f5f905090565b61287b61286c565b612886818484612847565b505050565b5b818110156128a95761289e5f82612873565b60018101905061288c565b5050565b601f8211156128ee576128bf8161279f565b6128c8846127b1565b810160208510156128d7578190505b6128eb6128e3856127b1565b83018261288b565b50505b505050565b5f82821c905092915050565b5f61290e5f19846008026128f3565b1980831691505092915050565b5f61292683836128ff565b9150826002028217905092915050565b6129408383612768565b67ffffffffffffffff81111561295957612958612772565b5b6129638254612691565b61296e8282856128ad565b5f601f83116001811461299b575f8415612989578287013590505b612993858261291b565b8655506129fa565b601f1984166129a98661279f565b5f5b828110156129d0578489013582556001820191506020850194506020810190506129ab565b868310156129ed57848901356129e9601f8916826128ff565b8355505b6001600288020188555050505b50505050505050565b7f4241445f4c4c54560000000000000000000000000000000000000000000000005f82015250565b5f612a376008836121c7565b9150612a4282612a03565b602082019050919050565b5f6020820190508181035f830152612a6481612a2b565b9050919050565b7f4241445f4c49515f424f4e5553000000000000000000000000000000000000005f82015250565b5f612a9f600d836121c7565b9150612aaa82612a6b565b602082019050919050565b5f6020820190508181035f830152612acc81612a93565b905091905056fea264697066735822122009edf197b1df20a6fb05791ee7c8a396bcc1d7ef484605797099e811156d355664736f6c634300081e0033",
					"opcodes": "PUSH1 0x80 PUSH1 0x40 MSTORE CALLVALUE DUP1 ISZERO PUSH1 0xE JUMPI PUSH0 PUSH0 REVERT JUMPDEST POP PUSH2 0x2B09 DUP1 PUSH2 0x1C PUSH0 CODECOPY PUSH0 RETURN INVALID PUSH1 0x80 PUSH1 0x40 MSTORE CALLVALUE DUP1 ISZERO PUSH2 0xF JUMPI PUSH0 PUSH0 REVERT JUMPDEST POP PUSH1 0x4 CALLDATASIZE LT PUSH2 0x230 JUMPI PUSH0 CALLDATALOAD PUSH1 0xE0 SHR DUP1 PUSH4 0x76E9790A GT PUSH2 0x12E JUMPI DUP1 PUSH4 0xB2016BD4 GT PUSH2 0xB6 JUMPI DUP1 PUSH4 0xD283E75F GT PUSH2 0x7A JUMPI DUP1 PUSH4 0xD283E75F EQ PUSH2 0x64A JUMPI DUP1 PUSH4 0xD3A417A2 EQ PUSH2 0x67A JUMPI DUP1 PUSH4 0xD681A449 EQ PUSH2 0x696 JUMPI DUP1 PUSH4 0xFBFA77CF EQ PUSH2 0x6B4 JUMPI DUP1 PUSH4 0xFC7B9C18 EQ PUSH2 0x6D2 JUMPI PUSH2 0x230 JUMP JUMPDEST DUP1 PUSH4 0xB2016BD4 EQ PUSH2 0x5B8 JUMPI DUP1 PUSH4 0xB3604C96 EQ PUSH2 0x5D6 JUMPI DUP1 PUSH4 0xC5EBEAEC EQ PUSH2 0x5F4 JUMPI DUP1 PUSH4 0xC82F6D2F EQ PUSH2 0x610 JUMPI DUP1 PUSH4 0xCED65B01 EQ PUSH2 0x62E JUMPI PUSH2 0x230 JUMP JUMPDEST DUP1 PUSH4 0x8DA5CB5B GT PUSH2 0xFD JUMPI DUP1 PUSH4 0x8DA5CB5B EQ PUSH2 0x538 JUMPI DUP1 PUSH4 0xA385FB96 EQ PUSH2 0x556 JUMPI DUP1 PUSH4 0xA6AFED95 EQ PUSH2 0x574 JUMPI DUP1 PUSH4 0xAA5AF0FD EQ PUSH2 0x57E JUMPI DUP1 PUSH4 0xB1C0BE34 EQ PUSH2 0x59C JUMPI PUSH2 0x230 JUMP JUMPDEST DUP1 PUSH4 0x76E9790A EQ PUSH2 0x4AE JUMPI DUP1 PUSH4 0x7924D93F EQ PUSH2 0x4CC JUMPI DUP1 PUSH4 0x7C3A00FD EQ PUSH2 0x4FC JUMPI DUP1 PUSH4 0x7DC0D1D0 EQ PUSH2 0x51A JUMPI PUSH2 0x230 JUMP JUMPDEST DUP1 PUSH4 0x3E3722B6 GT PUSH2 0x1BC JUMPI DUP1 PUSH4 0x6112FE2E GT PUSH2 0x180 JUMPI DUP1 PUSH4 0x6112FE2E EQ PUSH2 0x3F6 JUMPI DUP1 PUSH4 0x61D027B3 EQ PUSH2 0x412 JUMPI DUP1 PUSH4 0x6711A640 EQ PUSH2 0x430 JUMPI DUP1 PUSH4 0x6AD9F9DF EQ PUSH2 0x460 JUMPI DUP1 PUSH4 0x74375359 EQ PUSH2 0x490 JUMPI PUSH2 0x230 JUMP JUMPDEST DUP1 PUSH4 0x3E3722B6 EQ PUSH2 0x350 JUMPI DUP1 PUSH4 0x4046EBAE EQ PUSH2 0x36C JUMPI DUP1 PUSH4 0x4A79D50C EQ PUSH2 0x38A JUMPI DUP1 PUSH4 0x4B92917A EQ PUSH2 0x3A8 JUMPI DUP1 PUSH4 0x55F57510 EQ PUSH2 0x3C4 JUMPI PUSH2 0x230 JUMP JUMPDEST DUP1 PUSH4 0x29962904 GT PUSH2 0x203 JUMPI DUP1 PUSH4 0x29962904 EQ PUSH2 0x2AC JUMPI DUP1 PUSH4 0x2F865568 EQ PUSH2 0x2CA JUMPI DUP1 PUSH4 0x35659FB8 EQ PUSH2 0x2E6 JUMPI DUP1 PUSH4 0x367FEBEA EQ PUSH2 0x304 JUMPI DUP1 PUSH4 0x371FD8E6 EQ PUSH2 0x320 JUMPI PUSH2 0x230 JUMP JUMPDEST DUP1 PUSH4 0x6D37817 EQ PUSH2 0x234 JUMPI DUP1 PUSH4 0x136CF1F7 EQ PUSH2 0x252 JUMPI DUP1 PUSH4 0x19970D8E EQ PUSH2 0x270 JUMPI DUP1 PUSH4 0x27776AB5 EQ PUSH2 0x28E JUMPI JUMPDEST PUSH0 PUSH0 REVERT JUMPDEST PUSH2 0x23C PUSH2 0x6F0 JUMP JUMPDEST PUSH1 0x40 MLOAD PUSH2 0x249 SWAP2 SWAP1 PUSH2 0x2088 JUMP JUMPDEST PUSH1 0x40 MLOAD DUP1 SWAP2 SUB SWAP1 RETURN JUMPDEST PUSH2 0x25A PUSH2 0x715 JUMP JUMPDEST PUSH1 0x40 MLOAD PUSH2 0x267 SWAP2 SWAP1 PUSH2 0x20B9 JUMP JUMPDEST PUSH1 0x40 MLOAD DUP1 SWAP2 SUB SWAP1 RETURN JUMPDEST PUSH2 0x278 PUSH2 0x71B JUMP JUMPDEST PUSH1 0x40 MLOAD PUSH2 0x285 SWAP2 SWAP1 PUSH2 0x20B9 JUMP JUMPDEST PUSH1 0x40 MLOAD DUP1 SWAP2 SUB SWAP1 RETURN JUMPDEST PUSH2 0x296 PUSH2 0x721 JUMP JUMPDEST PUSH1 0x40 MLOAD PUSH2 0x2A3 SWAP2 SWAP1 PUSH2 0x20B9 JUMP JUMPDEST PUSH1 0x40 MLOAD DUP1 SWAP2 SUB SWAP1 RETURN JUMPDEST PUSH2 0x2B4 PUSH2 0x72D JUMP JUMPDEST PUSH1 0x40 MLOAD PUSH2 0x2C1 SWAP2 SWAP1 PUSH2 0x20B9 JUMP JUMPDEST PUSH1 0x40 MLOAD DUP1 SWAP2 SUB SWAP1 RETURN JUMPDEST PUSH2 0x2E4 PUSH1 0x4 DUP1 CALLDATASIZE SUB DUP2 ADD SWAP1 PUSH2 0x2DF SWAP2 SWAP1 PUSH2 0x2115 JUMP JUMPDEST PUSH2 0x733 JUMP JUMPDEST STOP JUMPDEST PUSH2 0x2EE PUSH2 0xAF9 JUMP JUMPDEST PUSH1 0x40 MLOAD PUSH2 0x2FB SWAP2 SWAP1 PUSH2 0x20B9 JUMP JUMPDEST PUSH1 0x40 MLOAD DUP1 SWAP2 SUB SWAP1 RETURN JUMPDEST PUSH2 0x31E PUSH1 0x4 DUP1 CALLDATASIZE SUB DUP2 ADD SWAP1 PUSH2 0x319 SWAP2 SWAP1 PUSH2 0x216A JUMP JUMPDEST PUSH2 0xAFF JUMP JUMPDEST STOP JUMPDEST PUSH2 0x33A PUSH1 0x4 DUP1 CALLDATASIZE SUB DUP2 ADD SWAP1 PUSH2 0x335 SWAP2 SWAP1 PUSH2 0x216A JUMP JUMPDEST PUSH2 0xC02 JUMP JUMPDEST PUSH1 0x40 MLOAD PUSH2 0x347 SWAP2 SWAP1 PUSH2 0x20B9 JUMP JUMPDEST PUSH1 0x40 MLOAD DUP1 SWAP2 SUB SWAP1 RETURN JUMPDEST PUSH2 0x36A PUSH1 0x4 DUP1 CALLDATASIZE SUB DUP2 ADD SWAP1 PUSH2 0x365 SWAP2 SWAP1 PUSH2 0x216A JUMP JUMPDEST PUSH2 0xE06 JUMP JUMPDEST STOP JUMPDEST PUSH2 0x374 PUSH2 0xF1F JUMP JUMPDEST PUSH1 0x40 MLOAD PUSH2 0x381 SWAP2 SWAP1 PUSH2 0x21A4 JUMP JUMPDEST PUSH1 0x40 MLOAD DUP1 SWAP2 SUB SWAP1 RETURN JUMPDEST PUSH2 0x392 PUSH2 0xF44 JUMP JUMPDEST PUSH1 0x40 MLOAD PUSH2 0x39F SWAP2 SWAP1 PUSH2 0x222D JUMP JUMPDEST PUSH1 0x40 MLOAD DUP1 SWAP2 SUB SWAP1 RETURN JUMPDEST PUSH2 0x3C2 PUSH1 0x4 DUP1 CALLDATASIZE SUB DUP2 ADD SWAP1 PUSH2 0x3BD SWAP2 SWAP1 PUSH2 0x216A JUMP JUMPDEST PUSH2 0xFD0 JUMP JUMPDEST STOP JUMPDEST PUSH2 0x3DE PUSH1 0x4 DUP1 CALLDATASIZE SUB DUP2 ADD SWAP1 PUSH2 0x3D9 SWAP2 SWAP1 PUSH2 0x2115 JUMP JUMPDEST PUSH2 0x102B JUMP JUMPDEST PUSH1 0x40 MLOAD PUSH2 0x3ED SWAP4 SWAP3 SWAP2 SWAP1 PUSH2 0x224D JUMP JUMPDEST PUSH1 0x40 MLOAD DUP1 SWAP2 SUB SWAP1 RETURN JUMPDEST PUSH2 0x410 PUSH1 0x4 DUP1 CALLDATASIZE SUB DUP2 ADD SWAP1 PUSH2 0x40B SWAP2 SWAP1 PUSH2 0x216A JUMP JUMPDEST PUSH2 0x1051 JUMP JUMPDEST STOP JUMPDEST PUSH2 0x41A PUSH2 0x1168 JUMP JUMPDEST PUSH1 0x40 MLOAD PUSH2 0x427 SWAP2 SWAP1 PUSH2 0x21A4 JUMP JUMPDEST PUSH1 0x40 MLOAD DUP1 SWAP2 SUB SWAP1 RETURN JUMPDEST PUSH2 0x44A PUSH1 0x4 DUP1 CALLDATASIZE SUB DUP2 ADD SWAP1 PUSH2 0x445 SWAP2 SWAP1 PUSH2 0x2115 JUMP JUMPDEST PUSH2 0x118D JUMP JUMPDEST PUSH1 0x40 MLOAD PUSH2 0x457 SWAP2 SWAP1 PUSH2 0x20B9 JUMP JUMPDEST PUSH1 0x40 MLOAD DUP1 SWAP2 SUB SWAP1 RETURN JUMPDEST PUSH2 0x47A PUSH1 0x4 DUP1 CALLDATASIZE SUB DUP2 ADD SWAP1 PUSH2 0x475 SWAP2 SWAP1 PUSH2 0x2115 JUMP JUMPDEST PUSH2 0x13CF JUMP JUMPDEST PUSH1 0x40 MLOAD PUSH2 0x487 SWAP2 SWAP1 PUSH2 0x20B9 JUMP JUMPDEST PUSH1 0x40 MLOAD DUP1 SWAP2 SUB SWAP1 RETURN JUMPDEST PUSH2 0x498 PUSH2 0x1436 JUMP JUMPDEST PUSH1 0x40 MLOAD PUSH2 0x4A5 SWAP2 SWAP1 PUSH2 0x20B9 JUMP JUMPDEST PUSH1 0x40 MLOAD DUP1 SWAP2 SUB SWAP1 RETURN JUMPDEST PUSH2 0x4B6 PUSH2 0x1519 JUMP JUMPDEST PUSH1 0x40 MLOAD PUSH2 0x4C3 SWAP2 SWAP1 PUSH2 0x222D JUMP JUMPDEST PUSH1 0x40 MLOAD DUP1 SWAP2 SUB SWAP1 RETURN JUMPDEST PUSH2 0x4E6 PUSH1 0x4 DUP1 CALLDATASIZE SUB DUP2 ADD SWAP1 PUSH2 0x4E1 SWAP2 SWAP1 PUSH2 0x216A JUMP JUMPDEST PUSH2 0x15A5 JUMP JUMPDEST PUSH1 0x40 MLOAD PUSH2 0x4F3 SWAP2 SWAP1 PUSH2 0x21A4 JUMP JUMPDEST PUSH1 0x40 MLOAD DUP1 SWAP2 SUB SWAP1 RETURN JUMPDEST PUSH2 0x504 PUSH2 0x15E0 JUMP JUMPDEST PUSH1 0x40 MLOAD PUSH2 0x511 SWAP2 SWAP1 PUSH2 0x20B9 JUMP JUMPDEST PUSH1 0x40 MLOAD DUP1 SWAP2 SUB SWAP1 RETURN JUMPDEST PUSH2 0x522 PUSH2 0x15E6 JUMP JUMPDEST PUSH1 0x40 MLOAD PUSH2 0x52F SWAP2 SWAP1 PUSH2 0x22A2 JUMP JUMPDEST PUSH1 0x40 MLOAD DUP1 SWAP2 SUB SWAP1 RETURN JUMPDEST PUSH2 0x540 PUSH2 0x160B JUMP JUMPDEST PUSH1 0x40 MLOAD PUSH2 0x54D SWAP2 SWAP1 PUSH2 0x21A4 JUMP JUMPDEST PUSH1 0x40 MLOAD DUP1 SWAP2 SUB SWAP1 RETURN JUMPDEST PUSH2 0x55E PUSH2 0x1630 JUMP JUMPDEST PUSH1 0x40 MLOAD PUSH2 0x56B SWAP2 SWAP1 PUSH2 0x20B9 JUMP JUMPDEST PUSH1 0x40 MLOAD DUP1 SWAP2 SUB SWAP1 RETURN JUMPDEST PUSH2 0x57C PUSH2 0x1636 JUMP JUMPDEST STOP JUMPDEST PUSH2 0x586 PUSH2 0x16C4 JUMP JUMPDEST PUSH1 0x40 MLOAD PUSH2 0x593 SWAP2 SWAP1 PUSH2 0x20B9 JUMP JUMPDEST PUSH1 0x40 MLOAD DUP1 SWAP2 SUB SWAP1 RETURN JUMPDEST PUSH2 0x5B6 PUSH1 0x4 DUP1 CALLDATASIZE SUB DUP2 ADD SWAP1 PUSH2 0x5B1 SWAP2 SWAP1 PUSH2 0x233F JUMP JUMPDEST PUSH2 0x16CA JUMP JUMPDEST STOP JUMPDEST PUSH2 0x5C0 PUSH2 0x1A1B JUMP JUMPDEST PUSH1 0x40 MLOAD PUSH2 0x5CD SWAP2 SWAP1 PUSH2 0x2088 JUMP JUMPDEST PUSH1 0x40 MLOAD DUP1 SWAP2 SUB SWAP1 RETURN JUMPDEST PUSH2 0x5DE PUSH2 0x1A40 JUMP JUMPDEST PUSH1 0x40 MLOAD PUSH2 0x5EB SWAP2 SWAP1 PUSH2 0x20B9 JUMP JUMPDEST PUSH1 0x40 MLOAD DUP1 SWAP2 SUB SWAP1 RETURN JUMPDEST PUSH2 0x60E PUSH1 0x4 DUP1 CALLDATASIZE SUB DUP2 ADD SWAP1 PUSH2 0x609 SWAP2 SWAP1 PUSH2 0x216A JUMP JUMPDEST PUSH2 0x1A46 JUMP JUMPDEST STOP JUMPDEST PUSH2 0x618 PUSH2 0x1BE7 JUMP JUMPDEST PUSH1 0x40 MLOAD PUSH2 0x625 SWAP2 SWAP1 PUSH2 0x20B9 JUMP JUMPDEST PUSH1 0x40 MLOAD DUP1 SWAP2 SUB SWAP1 RETURN JUMPDEST PUSH2 0x648 PUSH1 0x4 DUP1 CALLDATASIZE SUB DUP2 ADD SWAP1 PUSH2 0x643 SWAP2 SWAP1 PUSH2 0x23D3 JUMP JUMPDEST PUSH2 0x1C07 JUMP JUMPDEST STOP JUMPDEST PUSH2 0x664 PUSH1 0x4 DUP1 CALLDATASIZE SUB DUP2 ADD SWAP1 PUSH2 0x65F SWAP2 SWAP1 PUSH2 0x2115 JUMP JUMPDEST PUSH2 0x1D0B JUMP JUMPDEST PUSH1 0x40 MLOAD PUSH2 0x671 SWAP2 SWAP1 PUSH2 0x20B9 JUMP JUMPDEST PUSH1 0x40 MLOAD DUP1 SWAP2 SUB SWAP1 RETURN JUMPDEST PUSH2 0x694 PUSH1 0x4 DUP1 CALLDATASIZE SUB DUP2 ADD SWAP1 PUSH2 0x68F SWAP2 SWAP1 PUSH2 0x2115 JUMP JUMPDEST PUSH2 0x1D8B JUMP JUMPDEST STOP JUMPDEST PUSH2 0x69E PUSH2 0x1E5D JUMP JUMPDEST PUSH1 0x40 MLOAD PUSH2 0x6AB SWAP2 SWAP1 PUSH2 0x20B9 JUMP JUMPDEST PUSH1 0x40 MLOAD DUP1 SWAP2 SUB SWAP1 RETURN JUMPDEST PUSH2 0x6BC PUSH2 0x1E63 JUMP JUMPDEST PUSH1 0x40 MLOAD PUSH2 0x6C9 SWAP2 SWAP1 PUSH2 0x21A4 JUMP JUMPDEST PUSH1 0x40 MLOAD DUP1 SWAP2 SUB SWAP1 RETURN JUMPDEST PUSH2 0x6DA PUSH2 0x1E88 JUMP JUMPDEST PUSH1 0x40 MLOAD PUSH2 0x6E7 SWAP2 SWAP1 PUSH2 0x20B9 JUMP JUMPDEST PUSH1 0x40 MLOAD DUP1 SWAP2 SUB SWAP1 RETURN JUMPDEST PUSH1 0x2 PUSH0 SWAP1 SLOAD SWAP1 PUSH2 0x100 EXP SWAP1 DIV PUSH20 0xFFFFFFFFFFFFFFFFFFFFFFFFFFFFFFFFFFFFFFFF AND DUP2 JUMP JUMPDEST PUSH1 0x10 SLOAD DUP2 JUMP JUMPDEST PUSH1 0xD SLOAD DUP2 JUMP JUMPDEST PUSH8 0xDE0B6B3A7640000 DUP2 JUMP JUMPDEST PUSH1 0x12 SLOAD DUP2 JUMP JUMPDEST PUSH1 0x9 PUSH0 SWAP1 SLOAD SWAP1 PUSH2 0x100 EXP SWAP1 DIV PUSH20 0xFFFFFFFFFFFFFFFFFFFFFFFFFFFFFFFFFFFFFFFF AND PUSH20 0xFFFFFFFFFFFFFFFFFFFFFFFFFFFFFFFFFFFFFFFF AND CALLER PUSH20 0xFFFFFFFFFFFFFFFFFFFFFFFFFFFFFFFFFFFFFFFF AND EQ DUP1 PUSH2 0x7DA JUMPI POP PUSH0 PUSH1 0x2 SWAP1 SLOAD SWAP1 PUSH2 0x100 EXP SWAP1 DIV PUSH20 0xFFFFFFFFFFFFFFFFFFFFFFFFFFFFFFFFFFFFFFFF AND PUSH20 0xFFFFFFFFFFFFFFFFFFFFFFFFFFFFFFFFFFFFFFFF AND CALLER PUSH20 0xFFFFFFFFFFFFFFFFFFFFFFFFFFFFFFFFFFFFFFFF AND EQ JUMPDEST PUSH2 0x7E2 JUMPI PUSH0 PUSH0 REVERT JUMPDEST PUSH2 0x7EA PUSH2 0x1636 JUMP JUMPDEST PUSH0 PUSH1 0x13 PUSH0 DUP4 PUSH20 0xFFFFFFFFFFFFFFFFFFFFFFFFFFFFFFFFFFFFFFFF AND PUSH20 0xFFFFFFFFFFFFFFFFFFFFFFFFFFFFFFFFFFFFFFFF AND DUP2 MSTORE PUSH1 0x20 ADD SWAP1 DUP2 MSTORE PUSH1 0x20 ADD PUSH0 KECCAK256 SWAP1 POP PUSH0 PUSH2 0x834 DUP4 PUSH2 0x1D0B JUMP JUMPDEST SWAP1 POP PUSH0 PUSH2 0x2710 PUSH1 0xD SLOAD DUP5 PUSH1 0x1 ADD SLOAD PUSH2 0x84C SWAP2 SWAP1 PUSH2 0x2450 JUMP JUMPDEST PUSH2 0x856 SWAP2 SWAP1 PUSH2 0x24BE JUMP JUMPDEST SWAP1 POP PUSH0 DUP2 DUP5 PUSH1 0x1 ADD SLOAD PUSH2 0x869 SWAP2 SWAP1 PUSH2 0x24EE JUMP JUMPDEST SWAP1 POP PUSH2 0x874 DUP6 PUSH2 0x1EC6 JUMP JUMPDEST ISZERO PUSH2 0x87D JUMPI PUSH0 PUSH0 REVERT JUMPDEST PUSH1 0x2 PUSH0 SWAP1 SLOAD SWAP1 PUSH2 0x100 EXP SWAP1 DIV PUSH20 0xFFFFFFFFFFFFFFFFFFFFFFFFFFFFFFFFFFFFFFFF AND PUSH20 0xFFFFFFFFFFFFFFFFFFFFFFFFFFFFFFFFFFFFFFFF AND PUSH4 0xA9059CBB CALLER DUP5 PUSH1 0x40 MLOAD DUP4 PUSH4 0xFFFFFFFF AND PUSH1 0xE0 SHL DUP2 MSTORE PUSH1 0x4 ADD PUSH2 0x8D9 SWAP3 SWAP2 SWAP1 PUSH2 0x2521 JUMP JUMPDEST PUSH1 0x20 PUSH1 0x40 MLOAD DUP1 DUP4 SUB DUP2 PUSH0 DUP8 GAS CALL ISZERO DUP1 ISZERO PUSH2 0x8F5 JUMPI RETURNDATASIZE PUSH0 PUSH0 RETURNDATACOPY RETURNDATASIZE PUSH0 REVERT JUMPDEST POP POP POP POP PUSH1 0x40 MLOAD RETURNDATASIZE PUSH1 0x1F NOT PUSH1 0x1F DUP3 ADD AND DUP3 ADD DUP1 PUSH1 0x40 MSTORE POP DUP2 ADD SWAP1 PUSH2 0x919 SWAP2 SWAP1 PUSH2 0x257D JUMP JUMPDEST POP PUSH1 0x2 PUSH0 SWAP1 SLOAD SWAP1 PUSH2 0x100 EXP SWAP1 DIV PUSH20 0xFFFFFFFFFFFFFFFFFFFFFFFFFFFFFFFFFFFFFFFF AND PUSH20 0xFFFFFFFFFFFFFFFFFFFFFFFFFFFFFFFFFFFFFFFF AND PUSH4 0xA9059CBB PUSH1 0x8 PUSH0 SWAP1 SLOAD SWAP1 PUSH2 0x100 EXP SWAP1 DIV PUSH20 0xFFFFFFFFFFFFFFFFFFFFFFFFFFFFFFFFFFFFFFFF AND DUP4 PUSH1 0x40 MLOAD DUP4 PUSH4 0xFFFFFFFF AND PUSH1 0xE0 SHL DUP2 MSTORE PUSH1 0x4 ADD PUSH2 0x997 SWAP3 SWAP2 SWAP1 PUSH2 0x2521 JUMP JUMPDEST PUSH1 0x20 PUSH1 0x40 MLOAD DUP1 DUP4 SUB DUP2 PUSH0 DUP8 GAS CALL ISZERO DUP1 ISZERO PUSH2 0x9B3 JUMPI RETURNDATASIZE PUSH0 PUSH0 RETURNDATACOPY RETURNDATASIZE PUSH0 REVERT JUMPDEST POP POP POP POP PUSH1 0x40 MLOAD RETURNDATASIZE PUSH1 0x1F NOT PUSH1 0x1F DUP3 ADD AND DUP3 ADD DUP1 PUSH1 0x40 MSTORE POP DUP2 ADD SWAP1 PUSH2 0x9D7 SWAP2 SWAP1 PUSH2 0x257D JUMP JUMPDEST POP DUP4 PUSH0 ADD SLOAD PUSH1 0x10 PUSH0 DUP3 DUP3 SLOAD PUSH2 0x9EC SWAP2 SWAP1 PUSH2 0x24EE JUMP JUMPDEST SWAP3 POP POP DUP2 SWAP1 SSTORE POP PUSH1 0x13 PUSH0 DUP7 PUSH20 0xFFFFFFFFFFFFFFFFFFFFFFFFFFFFFFFFFFFFFFFF AND PUSH20 0xFFFFFFFFFFFFFFFFFFFFFFFFFFFFFFFFFFFFFFFF AND DUP2 MSTORE PUSH1 0x20 ADD SWAP1 DUP2 MSTORE PUSH1 0x20 ADD PUSH0 KECCAK256 PUSH0 PUSH0 DUP3 ADD PUSH0 SWAP1 SSTORE PUSH1 0x1 DUP3 ADD PUSH0 SWAP1 SSTORE PUSH1 0x2 DUP3 ADD PUSH0 SWAP1 SSTORE POP POP PUSH1 0x1 DUP1 SLOAD DUP1 PUSH2 0xA59 JUMPI PUSH2 0xA58 PUSH2 0x25A8 JUMP JUMPDEST JUMPDEST PUSH1 0x1 SWAP1 SUB DUP2 DUP2 SWAP1 PUSH0 MSTORE PUSH1 0x20 PUSH0 KECCAK256 ADD PUSH0 PUSH2 0x100 EXP DUP2 SLOAD SWAP1 PUSH20 0xFFFFFFFFFFFFFFFFFFFFFFFFFFFFFFFFFFFFFFFF MUL NOT AND SWAP1 SSTORE SWAP1 SSTORE CALLER PUSH20 0xFFFFFFFFFFFFFFFFFFFFFFFFFFFFFFFFFFFFFFFF AND DUP6 PUSH20 0xFFFFFFFFFFFFFFFFFFFFFFFFFFFFFFFFFFFFFFFF AND PUSH32 0x1F0C6615429D1CDAE0DFA233ABF91D3B31CDBDD82C8081389832A61E1072F1EA DUP6 DUP6 PUSH1 0x40 MLOAD PUSH2 0xAEA SWAP3 SWAP2 SWAP1 PUSH2 0x25D5 JUMP JUMPDEST PUSH1 0x40 MLOAD DUP1 SWAP2 SUB SWAP1 LOG3 POP POP POP POP POP JUMP JUMPDEST PUSH1 0xF SLOAD DUP2 JUMP JUMPDEST PUSH0 DUP2 GT PUSH2 0xB0A JUMPI PUSH0 PUSH0 REVERT JUMPDEST PUSH1 0x3 PUSH0 SWAP1 SLOAD SWAP1 PUSH2 0x100 EXP SWAP1 DIV PUSH20 0xFFFFFFFFFFFFFFFFFFFFFFFFFFFFFFFFFFFFFFFF AND PUSH20 0xFFFFFFFFFFFFFFFFFFFFFFFFFFFFFFFFFFFFFFFF AND PUSH4 0x23B872DD CALLER ADDRESS DUP5 PUSH1 0x40 MLOAD DUP5 PUSH4 0xFFFFFFFF AND PUSH1 0xE0 SHL DUP2 MSTORE PUSH1 0x4 ADD PUSH2 0xB68 SWAP4 SWAP3 SWAP2 SWAP1 PUSH2 0x25FC JUMP JUMPDEST PUSH1 0x20 PUSH1 0x40 MLOAD DUP1 DUP4 SUB DUP2 PUSH0 DUP8 GAS CALL ISZERO DUP1 ISZERO PUSH2 0xB84 JUMPI RETURNDATASIZE PUSH0 PUSH0 RETURNDATACOPY RETURNDATASIZE PUSH0 REVERT JUMPDEST POP POP POP POP PUSH1 0x40 MLOAD RETURNDATASIZE PUSH1 0x1F NOT PUSH1 0x1F DUP3 ADD AND DUP3 ADD DUP1 PUSH1 0x40 MSTORE POP DUP2 ADD SWAP1 PUSH2 0xBA8 SWAP2 SWAP1 PUSH2 0x257D JUMP JUMPDEST POP DUP1 PUSH1 0x13 PUSH0 CALLER PUSH20 0xFFFFFFFFFFFFFFFFFFFFFFFFFFFFFFFFFFFFFFFF AND PUSH20 0xFFFFFFFFFFFFFFFFFFFFFFFFFFFFFFFFFFFFFFFF AND DUP2 MSTORE PUSH1 0x20 ADD SWAP1 DUP2 MSTORE PUSH1 0x20 ADD PUSH0 KECCAK256 PUSH1 0x1 ADD PUSH0 DUP3 DUP3 SLOAD PUSH2 0xBF8 SWAP2 SWAP1 PUSH2 0x2631 JUMP JUMPDEST SWAP3 POP POP DUP2 SWAP1 SSTORE POP POP JUMP JUMPDEST PUSH0 PUSH2 0xC0B PUSH2 0x1636 JUMP JUMPDEST PUSH0 PUSH1 0x13 PUSH0 CALLER PUSH20 0xFFFFFFFFFFFFFFFFFFFFFFFFFFFFFFFFFFFFFFFF AND PUSH20 0xFFFFFFFFFFFFFFFFFFFFFFFFFFFFFFFFFFFFFFFF AND DUP2 MSTORE PUSH1 0x20 ADD SWAP1 DUP2 MSTORE PUSH1 0x20 ADD PUSH0 KECCAK256 SWAP1 POP PUSH0 PUSH2 0xC55 CALLER PUSH2 0x1D0B JUMP JUMPDEST SWAP1 POP PUSH0 DUP2 DUP6 GT PUSH2 0xC65 JUMPI DUP5 PUSH2 0xC67 JUMP JUMPDEST DUP2 JUMPDEST SWAP1 POP PUSH1 0x2 PUSH0 SWAP1 SLOAD SWAP1 PUSH2 0x100 EXP SWAP1 DIV PUSH20 0xFFFFFFFFFFFFFFFFFFFFFFFFFFFFFFFFFFFFFFFF AND PUSH20 0xFFFFFFFFFFFFFFFFFFFFFFFFFFFFFFFFFFFFFFFF AND PUSH4 0x23B872DD CALLER ADDRESS DUP9 PUSH1 0x40 MLOAD DUP5 PUSH4 0xFFFFFFFF AND PUSH1 0xE0 SHL DUP2 MSTORE PUSH1 0x4 ADD PUSH2 0xCC7 SWAP4 SWAP3 SWAP2 SWAP1 PUSH2 0x25FC JUMP JUMPDEST PUSH1 0x20 PUSH1 0x40 MLOAD DUP1 DUP4 SUB DUP2 PUSH0 DUP8 GAS CALL ISZERO DUP1 ISZERO PUSH2 0xCE3 JUMPI RETURNDATASIZE PUSH0 PUSH0 RETURNDATACOPY RETURNDATASIZE PUSH0 REVERT JUMPDEST POP POP POP POP PUSH1 0x40 MLOAD RETURNDATASIZE PUSH1 0x1F NOT PUSH1 0x1F DUP3 ADD AND DUP3 ADD DUP1 PUSH1 0x40 MSTORE POP DUP2 ADD SWAP1 PUSH2 0xD07 SWAP2 SWAP1 PUSH2 0x257D JUMP JUMPDEST POP PUSH0 DUP2 DUP5 PUSH1 0x2 ADD SLOAD GT PUSH2 0xD1E JUMPI DUP4 PUSH1 0x2 ADD SLOAD PUSH2 0xD20 JUMP JUMPDEST DUP2 JUMPDEST SWAP1 POP DUP1 DUP5 PUSH1 0x2 ADD PUSH0 DUP3 DUP3 SLOAD PUSH2 0xD35 SWAP2 SWAP1 PUSH2 0x24EE JUMP JUMPDEST SWAP3 POP POP DUP2 SWAP1 SSTORE POP PUSH2 0x2710 PUSH1 0xF SLOAD DUP3 DUP5 PUSH2 0xD4E SWAP2 SWAP1 PUSH2 0x24EE JUMP JUMPDEST PUSH2 0xD58 SWAP2 SWAP1 PUSH2 0x2450 JUMP JUMPDEST PUSH2 0xD62 SWAP2 SWAP1 PUSH2 0x24BE JUMP JUMPDEST PUSH1 0xE PUSH0 DUP3 DUP3 SLOAD PUSH2 0xD72 SWAP2 SWAP1 PUSH2 0x2631 JUMP JUMPDEST SWAP3 POP POP DUP2 SWAP1 SSTORE POP PUSH0 DUP4 DUP4 EQ PUSH2 0xDA7 JUMPI PUSH1 0x11 SLOAD PUSH8 0xDE0B6B3A7640000 DUP5 PUSH2 0xD98 SWAP2 SWAP1 PUSH2 0x2450 JUMP JUMPDEST PUSH2 0xDA2 SWAP2 SWAP1 PUSH2 0x24BE JUMP JUMPDEST PUSH2 0xDAC JUMP JUMPDEST DUP5 PUSH0 ADD SLOAD JUMPDEST SWAP1 POP DUP5 PUSH0 ADD SLOAD DUP2 LT ISZERO PUSH2 0xDC0 JUMPI DUP5 PUSH0 ADD SLOAD SWAP1 POP JUMPDEST DUP1 DUP6 PUSH0 ADD PUSH0 DUP3 DUP3 SLOAD PUSH2 0xDD2 SWAP2 SWAP1 PUSH2 0x24EE JUMP JUMPDEST SWAP3 POP POP DUP2 SWAP1 SSTORE POP DUP1 PUSH1 0x10 PUSH0 DUP3 DUP3 SLOAD PUSH2 0xDEA SWAP2 SWAP1 PUSH2 0x24EE JUMP JUMPDEST SWAP3 POP POP DUP2 SWAP1 SSTORE POP PUSH2 0xDFA CALLER PUSH2 0x1D0B JUMP JUMPDEST SWAP6 POP POP POP POP POP POP SWAP2 SWAP1 POP JUMP JUMPDEST PUSH1 0x7 PUSH0 SWAP1 SLOAD SWAP1 PUSH2 0x100 EXP SWAP1 DIV PUSH20 0xFFFFFFFFFFFFFFFFFFFFFFFFFFFFFFFFFFFFFFFF AND PUSH20 0xFFFFFFFFFFFFFFFFFFFFFFFFFFFFFFFFFFFFFFFF AND CALLER PUSH20 0xFFFFFFFFFFFFFFFFFFFFFFFFFFFFFFFFFFFFFFFF AND EQ PUSH2 0xE5E JUMPI PUSH0 PUSH0 REVERT JUMPDEST PUSH1 0x2 PUSH0 SWAP1 SLOAD SWAP1 PUSH2 0x100 EXP SWAP1 DIV PUSH20 0xFFFFFFFFFFFFFFFFFFFFFFFFFFFFFFFFFFFFFFFF AND PUSH20 0xFFFFFFFFFFFFFFFFFFFFFFFFFFFFFFFFFFFFFFFF AND PUSH4 0xA9059CBB PUSH1 0x7 PUSH0 SWAP1 SLOAD SWAP1 PUSH2 0x100 EXP SWAP1 DIV PUSH20 0xFFFFFFFFFFFFFFFFFFFFFFFFFFFFFFFFFFFFFFFF AND DUP4 PUSH1 0x40 MLOAD DUP4 PUSH4 0xFFFFFFFF AND PUSH1 0xE0 SHL DUP2 MSTORE PUSH1 0x4 ADD PUSH2 0xEDB SWAP3 SWAP2 SWAP1 PUSH2 0x2521 JUMP JUMPDEST PUSH1 0x20 PUSH1 0x40 MLOAD DUP1 DUP4 SUB DUP2 PUSH0 DUP8 GAS CALL ISZERO DUP1 ISZERO PUSH2 0xEF7 JUMPI RETURNDATASIZE PUSH0 PUSH0 RETURNDATACOPY RETURNDATASIZE PUSH0 REVERT JUMPDEST POP POP POP POP PUSH1 0x40 MLOAD RETURNDATASIZE PUSH1 0x1F NOT PUSH1 0x1F DUP3 ADD AND DUP3 ADD DUP1 PUSH1 0x40 MSTORE POP DUP2 ADD SWAP1 PUSH2 0xF1B SWAP2 SWAP1 PUSH2 0x257D JUMP JUMPDEST POP POP JUMP JUMPDEST PUSH1 0x9 PUSH0 SWAP1 SLOAD SWAP1 PUSH2 0x100 EXP SWAP1 DIV PUSH20 0xFFFFFFFFFFFFFFFFFFFFFFFFFFFFFFFFFFFFFFFF AND DUP2 JUMP JUMPDEST PUSH1 0x5 DUP1 SLOAD PUSH2 0xF51 SWAP1 PUSH2 0x2691 JUMP JUMPDEST DUP1 PUSH1 0x1F ADD PUSH1 0x20 DUP1 SWAP2 DIV MUL PUSH1 0x20 ADD PUSH1 0x40 MLOAD SWAP1 DUP2 ADD PUSH1 0x40 MSTORE DUP1 SWAP3 SWAP2 SWAP1 DUP2 DUP2 MSTORE PUSH1 0x20 ADD DUP3 DUP1 SLOAD PUSH2 0xF7D SWAP1 PUSH2 0x2691 JUMP JUMPDEST DUP1 ISZERO PUSH2 0xFC8 JUMPI DUP1 PUSH1 0x1F LT PUSH2 0xF9F JUMPI PUSH2 0x100 DUP1 DUP4 SLOAD DIV MUL DUP4 MSTORE SWAP2 PUSH1 0x20 ADD SWAP2 PUSH2 0xFC8 JUMP JUMPDEST DUP3 ADD SWAP2 SWAP1 PUSH0 MSTORE PUSH1 0x20 PUSH0 KECCAK256 SWAP1 JUMPDEST DUP2 SLOAD DUP2 MSTORE SWAP1 PUSH1 0x1 ADD SWAP1 PUSH1 0x20 ADD DUP1 DUP4 GT PUSH2 0xFAB JUMPI DUP3 SWAP1 SUB PUSH1 0x1F AND DUP3 ADD SWAP2 JUMPDEST POP POP POP POP POP DUP2 JUMP JUMPDEST PUSH1 0x7 PUSH0 SWAP1 SLOAD SWAP1 PUSH2 0x100 EXP SWAP1 DIV PUSH20 0xFFFFFFFFFFFFFFFFFFFFFFFFFFFFFFFFFFFFFFFF AND PUSH20 0xFFFFFFFFFFFFFFFFFFFFFFFFFFFFFFFFFFFFFFFF AND CALLER PUSH20 0xFFFFFFFFFFFFFFFFFFFFFFFFFFFFFFFFFFFFFFFF AND EQ PUSH2 0x1028 JUMPI PUSH0 PUSH0 REVERT JUMPDEST POP JUMP JUMPDEST PUSH1 0x13 PUSH1 0x20 MSTORE DUP1 PUSH0 MSTORE PUSH1 0x40 PUSH0 KECCAK256 PUSH0 SWAP2 POP SWAP1 POP DUP1 PUSH0 ADD SLOAD SWAP1 DUP1 PUSH1 0x1 ADD SLOAD SWAP1 DUP1 PUSH1 0x2 ADD SLOAD SWAP1 POP DUP4 JUMP JUMPDEST PUSH0 DUP2 GT PUSH2 0x105C JUMPI PUSH0 PUSH0 REVERT JUMPDEST PUSH0 PUSH1 0x13 PUSH0 CALLER PUSH20 0xFFFFFFFFFFFFFFFFFFFFFFFFFFFFFFFFFFFFFFFF AND PUSH20 0xFFFFFFFFFFFFFFFFFFFFFFFFFFFFFFFFFFFFFFFF AND DUP2 MSTORE PUSH1 0x20 ADD SWAP1 DUP2 MSTORE PUSH1 0x20 ADD PUSH0 KECCAK256 SWAP1 POP DUP2 DUP2 PUSH1 0x1 ADD PUSH0 DUP3 DUP3 SLOAD PUSH2 0x10AF SWAP2 SWAP1 PUSH2 0x24EE JUMP JUMPDEST SWAP3 POP POP DUP2 SWAP1 SSTORE POP PUSH2 0x10BF CALLER PUSH2 0x1EC6 JUMP JUMPDEST PUSH2 0x10C7 JUMPI PUSH0 PUSH0 REVERT JUMPDEST PUSH1 0x3 PUSH0 SWAP1 SLOAD SWAP1 PUSH2 0x100 EXP SWAP1 DIV PUSH20 0xFFFFFFFFFFFFFFFFFFFFFFFFFFFFFFFFFFFFFFFF AND PUSH20 0xFFFFFFFFFFFFFFFFFFFFFFFFFFFFFFFFFFFFFFFF AND PUSH4 0xA9059CBB CALLER DUP5 PUSH1 0x40 MLOAD DUP4 PUSH4 0xFFFFFFFF AND PUSH1 0xE0 SHL DUP2 MSTORE PUSH1 0x4 ADD PUSH2 0x1123 SWAP3 SWAP2 SWAP1 PUSH2 0x2521 JUMP JUMPDEST PUSH1 0x20 PUSH1 0x40 MLOAD DUP1 DUP4 SUB DUP2 PUSH0 DUP8 GAS CALL ISZERO DUP1 ISZERO PUSH2 0x113F JUMPI RETURNDATASIZE PUSH0 PUSH0 RETURNDATACOPY RETURNDATASIZE PUSH0 REVERT JUMPDEST POP POP POP POP PUSH1 0x40 MLOAD RETURNDATASIZE PUSH1 0x1F NOT PUSH1 0x1F DUP3 ADD AND DUP3 ADD DUP1 PUSH1 0x40 MSTORE POP DUP2 ADD SWAP1 PUSH2 0x1163 SWAP2 SWAP1 PUSH2 0x257D JUMP JUMPDEST POP POP POP JUMP JUMPDEST PUSH1 0x8 PUSH0 SWAP1 SLOAD SWAP1 PUSH2 0x100 EXP SWAP1 DIV PUSH20 0xFFFFFFFFFFFFFFFFFFFFFFFFFFFFFFFFFFFFFFFF AND DUP2 JUMP JUMPDEST PUSH0 PUSH0 PUSH1 0x13 PUSH0 DUP5 PUSH20 0xFFFFFFFFFFFFFFFFFFFFFFFFFFFFFFFFFFFFFFFF AND PUSH20 0xFFFFFFFFFFFFFFFFFFFFFFFFFFFFFFFFFFFFFFFF AND DUP2 MSTORE PUSH1 0x20 ADD SWAP1 DUP2 MSTORE PUSH1 0x20 ADD PUSH0 KECCAK256 SWAP1 POP PUSH0 PUSH2 0x11D8 DUP5 PUSH2 0x1D0B JUMP JUMPDEST SWAP1 POP PUSH0 DUP2 SUB PUSH2 0x11EB JUMPI PUSH0 SWAP3 POP POP POP PUSH2 0x13CA JUMP JUMPDEST PUSH0 DUP3 PUSH1 0x1 ADD SLOAD SUB PUSH2 0x1220 JUMPI PUSH32 0xFFFFFFFFFFFFFFFFFFFFFFFFFFFFFFFFFFFFFFFFFFFFFFFFFFFFFFFFFFFFFFFF SWAP3 POP POP POP PUSH2 0x13CA JUMP JUMPDEST PUSH1 0x4 PUSH0 SWAP1 SLOAD SWAP1 PUSH2 0x100 EXP SWAP1 DIV PUSH20 0xFFFFFFFFFFFFFFFFFFFFFFFFFFFFFFFFFFFFFFFF AND PUSH20 0xFFFFFFFFFFFFFFFFFFFFFFFFFFFFFFFFFFFFFFFF AND PUSH4 0x41976E09 PUSH1 0x3 PUSH0 SWAP1 SLOAD SWAP1 PUSH2 0x100 EXP SWAP1 DIV PUSH20 0xFFFFFFFFFFFFFFFFFFFFFFFFFFFFFFFFFFFFFFFF AND PUSH1 0x40 MLOAD DUP3 PUSH4 0xFFFFFFFF AND PUSH1 0xE0 SHL DUP2 MSTORE PUSH1 0x4 ADD PUSH2 0x129B SWAP2 SWAP1 PUSH2 0x21A4 JUMP JUMPDEST PUSH1 0x20 PUSH1 0x40 MLOAD DUP1 DUP4 SUB DUP2 DUP7 GAS STATICCALL ISZERO DUP1 ISZERO PUSH2 0x12B6 JUMPI RETURNDATASIZE PUSH0 PUSH0 RETURNDATACOPY RETURNDATASIZE PUSH0 REVERT JUMPDEST POP POP POP POP PUSH1 0x40 MLOAD RETURNDATASIZE PUSH1 0x1F NOT PUSH1 0x1F DUP3 ADD AND DUP3 ADD DUP1 PUSH1 0x40 MSTORE POP DUP2 ADD SWAP1 PUSH2 0x12DA SWAP2 SWAP1 PUSH2 0x26D5 JUMP JUMPDEST DUP3 PUSH1 0x1 ADD SLOAD PUSH2 0x12E9 SWAP2 SWAP1 PUSH2 0x2450 JUMP JUMPDEST PUSH2 0x2710 PUSH1 0x4 PUSH0 SWAP1 SLOAD SWAP1 PUSH2 0x100 EXP SWAP1 DIV PUSH20 0xFFFFFFFFFFFFFFFFFFFFFFFFFFFFFFFFFFFFFFFF AND PUSH20 0xFFFFFFFFFFFFFFFFFFFFFFFFFFFFFFFFFFFFFFFF AND PUSH4 0x41976E09 PUSH1 0x2 PUSH0 SWAP1 SLOAD SWAP1 PUSH2 0x100 EXP SWAP1 DIV PUSH20 0xFFFFFFFFFFFFFFFFFFFFFFFFFFFFFFFFFFFFFFFF AND PUSH1 0x40 MLOAD DUP3 PUSH4 0xFFFFFFFF AND PUSH1 0xE0 SHL DUP2 MSTORE PUSH1 0x4 ADD PUSH2 0x1367 SWAP2 SWAP1 PUSH2 0x21A4 JUMP JUMPDEST PUSH1 0x20 PUSH1 0x40 MLOAD DUP1 DUP4 SUB DUP2 DUP7 GAS STATICCALL ISZERO DUP1 ISZERO PUSH2 0x1382 JUMPI RETURNDATASIZE PUSH0 PUSH0 RETURNDATACOPY RETURNDATASIZE PUSH0 REVERT JUMPDEST POP POP POP POP PUSH1 0x40 MLOAD RETURNDATASIZE PUSH1 0x1F NOT PUSH1 0x1F DUP3 ADD AND DUP3 ADD DUP1 PUSH1 0x40 MSTORE POP DUP2 ADD SWAP1 PUSH2 0x13A6 SWAP2 SWAP1 PUSH2 0x26D5 JUMP JUMPDEST DUP4 PUSH2 0x13B1 SWAP2 SWAP1 PUSH2 0x2450 JUMP JUMPDEST PUSH2 0x13BB SWAP2 SWAP1 PUSH2 0x2450 JUMP JUMPDEST PUSH2 0x13C5 SWAP2 SWAP1 PUSH2 0x24BE JUMP JUMPDEST SWAP3 POP POP POP JUMPDEST SWAP2 SWAP1 POP JUMP JUMPDEST PUSH0 PUSH0 PUSH2 0x13DA DUP4 PUSH2 0x118D JUMP JUMPDEST SWAP1 POP PUSH0 DUP2 SUB PUSH2 0x140C JUMPI PUSH32 0xFFFFFFFFFFFFFFFFFFFFFFFFFFFFFFFFFFFFFFFFFFFFFFFFFFFFFFFFFFFFFFFF SWAP2 POP POP PUSH2 0x1431 JUMP JUMPDEST DUP1 PUSH8 0xDE0B6B3A7640000 PUSH1 0xA SLOAD PUSH2 0x1423 SWAP2 SWAP1 PUSH2 0x2450 JUMP JUMPDEST PUSH2 0x142D SWAP2 SWAP1 PUSH2 0x24BE JUMP JUMPDEST SWAP2 POP POP JUMPDEST SWAP2 SWAP1 POP JUMP JUMPDEST PUSH0 PUSH0 PUSH1 0x4 PUSH0 SWAP1 SLOAD SWAP1 PUSH2 0x100 EXP SWAP1 DIV PUSH20 0xFFFFFFFFFFFFFFFFFFFFFFFFFFFFFFFFFFFFFFFF AND PUSH20 0xFFFFFFFFFFFFFFFFFFFFFFFFFFFFFFFFFFFFFFFF AND PUSH4 0x41976E09 PUSH1 0x2 PUSH0 SWAP1 SLOAD SWAP1 PUSH2 0x100 EXP SWAP1 DIV PUSH20 0xFFFFFFFFFFFFFFFFFFFFFFFFFFFFFFFFFFFFFFFF AND PUSH1 0x40 MLOAD DUP3 PUSH4 0xFFFFFFFF AND PUSH1 0xE0 SHL DUP2 MSTORE PUSH1 0x4 ADD PUSH2 0x14B3 SWAP2 SWAP1 PUSH2 0x21A4 JUMP JUMPDEST PUSH1 0x20 PUSH1 0x40 MLOAD DUP1 DUP4 SUB DUP2 DUP7 GAS STATICCALL ISZERO DUP1 ISZERO PUSH2 0x14CE JUMPI RETURNDATASIZE PUSH0 PUSH0 RETURNDATACOPY RETURNDATASIZE PUSH0 REVERT JUMPDEST POP POP POP POP PUSH1 0x40 MLOAD RETURNDATASIZE PUSH1 0x1F NOT PUSH1 0x1F DUP3 ADD AND DUP3 ADD DUP1 PUSH1 0x40 MSTORE POP DUP2 ADD SWAP1 PUSH2 0x14F2 SWAP2 SWAP1 PUSH2 0x26D5 JUMP JUMPDEST SWAP1 POP PUSH1 0xE SLOAD DUP2 GT ISZERO PUSH2 0x1511 JUMPI PUSH1 0xE SLOAD DUP2 PUSH2 0x150C SWAP2 SWAP1 PUSH2 0x24EE JUMP JUMPDEST PUSH2 0x1513 JUMP JUMPDEST PUSH0 JUMPDEST SWAP2 POP POP SWAP1 JUMP JUMPDEST PUSH1 0x6 DUP1 SLOAD PUSH2 0x1526 SWAP1 PUSH2 0x2691 JUMP JUMPDEST DUP1 PUSH1 0x1F ADD PUSH1 0x20 DUP1 SWAP2 DIV MUL PUSH1 0x20 ADD PUSH1 0x40 MLOAD SWAP1 DUP2 ADD PUSH1 0x40 MSTORE DUP1 SWAP3 SWAP2 SWAP1 DUP2 DUP2 MSTORE PUSH1 0x20 ADD DUP3 DUP1 SLOAD PUSH2 0x1552 SWAP1 PUSH2 0x2691 JUMP JUMPDEST DUP1 ISZERO PUSH2 0x159D JUMPI DUP1 PUSH1 0x1F LT PUSH2 0x1574 JUMPI PUSH2 0x100 DUP1 DUP4 SLOAD DIV MUL DUP4 MSTORE SWAP2 PUSH1 0x20 ADD SWAP2 PUSH2 0x159D JUMP JUMPDEST DUP3 ADD SWAP2 SWAP1 PUSH0 MSTORE PUSH1 0x20 PUSH0 KECCAK256 SWAP1 JUMPDEST DUP2 SLOAD DUP2 MSTORE SWAP1 PUSH1 0x1 ADD SWAP1 PUSH1 0x20 ADD DUP1 DUP4 GT PUSH2 0x1580 JUMPI DUP3 SWAP1 SUB PUSH1 0x1F AND DUP3 ADD SWAP2 JUMPDEST POP POP POP POP POP DUP2 JUMP JUMPDEST PUSH1 0x1 DUP2 DUP2 SLOAD DUP2 LT PUSH2 0x15B4 JUMPI PUSH0 DUP1 REVERT JUMPDEST SWAP1 PUSH0 MSTORE PUSH1 0x20 PUSH0 KECCAK256 ADD PUSH0 SWAP2 POP SLOAD SWAP1 PUSH2 0x100 EXP SWAP1 DIV PUSH20 0xFFFFFFFFFFFFFFFFFFFFFFFFFFFFFFFFFFFFFFFF AND DUP2 JUMP JUMPDEST PUSH1 0xB SLOAD DUP2 JUMP JUMPDEST PUSH1 0x4 PUSH0 SWAP1 SLOAD SWAP1 PUSH2 0x100 EXP SWAP1 DIV PUSH20 0xFFFFFFFFFFFFFFFFFFFFFFFFFFFFFFFFFFFFFFFF AND DUP2 JUMP JUMPDEST PUSH0 PUSH1 0x2 SWAP1 SLOAD SWAP1 PUSH2 0x100 EXP SWAP1 DIV PUSH20 0xFFFFFFFFFFFFFFFFFFFFFFFFFFFFFFFFFFFFFFFF AND DUP2 JUMP JUMPDEST PUSH1 0xC SLOAD DUP2 JUMP JUMPDEST PUSH1 0x12 SLOAD NUMBER SUB ISZERO PUSH2 0x16C2 JUMPI PUSH0 PUSH1 0x10 SLOAD GT ISZERO PUSH2 0x16BA JUMPI PUSH0 PUSH1 0x12 SLOAD NUMBER PUSH2 0x1659 SWAP2 SWAP1 PUSH2 0x24EE JUMP JUMPDEST SWAP1 POP PUSH0 PUSH8 0xDE0B6B3A7640000 DUP3 PUSH1 0xB SLOAD PUSH2 0x1673 SWAP2 SWAP1 PUSH2 0x2450 JUMP JUMPDEST PUSH2 0x167D SWAP2 SWAP1 PUSH2 0x24BE JUMP JUMPDEST SWAP1 POP PUSH8 0xDE0B6B3A7640000 DUP2 PUSH1 0x11 SLOAD PUSH2 0x1696 SWAP2 SWAP1 PUSH2 0x2450 JUMP JUMPDEST PUSH2 0x16A0 SWAP2 SWAP1 PUSH2 0x24BE JUMP JUMPDEST PUSH1 0x11 PUSH0 DUP3 DUP3 SLOAD PUSH2 0x16B0 SWAP2 SWAP1 PUSH2 0x2631 JUMP JUMPDEST SWAP3 POP POP DUP2 SWAP1 SSTORE POP POP POP JUMPDEST NUMBER PUSH1 0x12 DUP2 SWAP1 SSTORE POP JUMPDEST JUMP JUMPDEST PUSH1 0x11 SLOAD DUP2 JUMP JUMPDEST PUSH0 PUSH0 SWAP1 SLOAD SWAP1 PUSH2 0x100 EXP SWAP1 DIV PUSH1 0xFF AND ISZERO DUP1 PUSH2 0x16EF JUMPI POP PUSH0 PUSH1 0x1 SWAP1 SLOAD SWAP1 PUSH2 0x100 EXP SWAP1 DIV PUSH1 0xFF AND JUMPDEST PUSH2 0x172E JUMPI PUSH1 0x40 MLOAD PUSH32 0x8C379A000000000000000000000000000000000000000000000000000000000 DUP2 MSTORE PUSH1 0x4 ADD PUSH2 0x1725 SWAP1 PUSH2 0x274A JUMP JUMPDEST PUSH1 0x40 MLOAD DUP1 SWAP2 SUB SWAP1 REVERT JUMPDEST PUSH0 PUSH0 PUSH1 0x1 SWAP1 SLOAD SWAP1 PUSH2 0x100 EXP SWAP1 DIV PUSH1 0xFF AND ISZERO SWAP1 POP DUP1 ISZERO PUSH2 0x177B JUMPI PUSH1 0x1 PUSH0 PUSH1 0x1 PUSH2 0x100 EXP DUP2 SLOAD DUP2 PUSH1 0xFF MUL NOT AND SWAP1 DUP4 ISZERO ISZERO MUL OR SWAP1 SSTORE POP PUSH1 0x1 PUSH0 PUSH0 PUSH2 0x100 EXP DUP2 SLOAD DUP2 PUSH1 0xFF MUL NOT AND SWAP1 DUP4 ISZERO ISZERO MUL OR SWAP1 SSTORE POP JUMPDEST PUSH2 0x1795 DUP7 PUSH0 ADD PUSH1 0x20 DUP2 ADD SWAP1 PUSH2 0x1790 SWAP2 SWAP1 PUSH2 0x2115 JUMP JUMPDEST PUSH2 0x1EDB JUMP JUMPDEST DUP5 DUP5 PUSH1 0x5 SWAP2 DUP3 PUSH2 0x17A6 SWAP3 SWAP2 SWAP1 PUSH2 0x2936 JUMP JUMPDEST POP DUP3 DUP3 PUSH1 0x6 SWAP2 DUP3 PUSH2 0x17B8 SWAP3 SWAP2 SWAP1 PUSH2 0x2936 JUMP JUMPDEST POP DUP6 PUSH1 0x80 ADD PUSH1 0x20 DUP2 ADD SWAP1 PUSH2 0x17CC SWAP2 SWAP1 PUSH2 0x2115 JUMP JUMPDEST PUSH1 0x2 PUSH0 PUSH2 0x100 EXP DUP2 SLOAD DUP2 PUSH20 0xFFFFFFFFFFFFFFFFFFFFFFFFFFFFFFFFFFFFFFFF MUL NOT AND SWAP1 DUP4 PUSH20 0xFFFFFFFFFFFFFFFFFFFFFFFFFFFFFFFFFFFFFFFF AND MUL OR SWAP1 SSTORE POP DUP6 PUSH1 0xA0 ADD PUSH1 0x20 DUP2 ADD SWAP1 PUSH2 0x181E SWAP2 SWAP1 PUSH2 0x2115 JUMP JUMPDEST PUSH1 0x3 PUSH0 PUSH2 0x100 EXP DUP2 SLOAD DUP2 PUSH20 0xFFFFFFFFFFFFFFFFFFFFFFFFFFFFFFFFFFFFFFFF MUL NOT AND SWAP1 DUP4 PUSH20 0xFFFFFFFFFFFFFFFFFFFFFFFFFFFFFFFFFFFFFFFF AND MUL OR SWAP1 SSTORE POP DUP6 PUSH1 0xC0 ADD PUSH1 0x20 DUP2 ADD SWAP1 PUSH2 0x1870 SWAP2 SWAP1 PUSH2 0x2115 JUMP JUMPDEST PUSH1 0x4 PUSH0 PUSH2 0x100 EXP DUP2 SLOAD DUP2 PUSH20 0xFFFFFFFFFFFFFFFFFFFFFFFFFFFFFFFFFFFFFFFF MUL NOT AND SWAP1 DUP4 PUSH20 0xFFFFFFFFFFFFFFFFFFFFFFFFFFFFFFFFFFFFFFFF AND MUL OR SWAP1 SSTORE POP DUP6 PUSH1 0x40 ADD PUSH1 0x20 DUP2 ADD SWAP1 PUSH2 0x18C2 SWAP2 SWAP1 PUSH2 0x2115 JUMP JUMPDEST PUSH1 0x9 PUSH0 PUSH2 0x100 EXP DUP2 SLOAD DUP2 PUSH20 0xFFFFFFFFFFFFFFFFFFFFFFFFFFFFFFFFFFFFFFFF MUL NOT AND SWAP1 DUP4 PUSH20 0xFFFFFFFFFFFFFFFFFFFFFFFFFFFFFFFFFFFFFFFF AND MUL OR SWAP1 SSTORE POP DUP6 PUSH1 0x60 ADD PUSH1 0x20 DUP2 ADD SWAP1 PUSH2 0x1914 SWAP2 SWAP1 PUSH2 0x2115 JUMP JUMPDEST PUSH1 0x8 PUSH0 PUSH2 0x100 EXP DUP2 SLOAD DUP2 PUSH20 0xFFFFFFFFFFFFFFFFFFFFFFFFFFFFFFFFFFFFFFFF MUL NOT AND SWAP1 DUP4 PUSH20 0xFFFFFFFFFFFFFFFFFFFFFFFFFFFFFFFFFFFFFFFF AND MUL OR SWAP1 SSTORE POP DUP6 PUSH1 0x20 ADD PUSH1 0x20 DUP2 ADD SWAP1 PUSH2 0x1966 SWAP2 SWAP1 PUSH2 0x2115 JUMP JUMPDEST PUSH1 0x7 PUSH0 PUSH2 0x100 EXP DUP2 SLOAD DUP2 PUSH20 0xFFFFFFFFFFFFFFFFFFFFFFFFFFFFFFFFFFFFFFFF MUL NOT AND SWAP1 DUP4 PUSH20 0xFFFFFFFFFFFFFFFFFFFFFFFFFFFFFFFFFFFFFFFF AND MUL OR SWAP1 SSTORE POP DUP6 PUSH2 0x100 ADD CALLDATALOAD PUSH1 0xB DUP2 SWAP1 SSTORE POP DUP6 PUSH1 0xE0 ADD CALLDATALOAD PUSH1 0xA DUP2 SWAP1 SSTORE POP PUSH2 0xBB8 PUSH1 0xF DUP2 SWAP1 SSTORE POP PUSH8 0xDE0B6B3A7640000 PUSH1 0x11 DUP2 SWAP1 SSTORE POP DUP6 PUSH2 0x120 ADD CALLDATALOAD PUSH1 0xC DUP2 SWAP1 SSTORE POP NUMBER PUSH1 0x12 DUP2 SWAP1 SSTORE POP DUP6 PUSH2 0x140 ADD CALLDATALOAD PUSH1 0xD DUP2 SWAP1 SSTORE POP DUP1 ISZERO PUSH2 0x1A13 JUMPI PUSH0 PUSH0 PUSH1 0x1 PUSH2 0x100 EXP DUP2 SLOAD DUP2 PUSH1 0xFF MUL NOT AND SWAP1 DUP4 ISZERO ISZERO MUL OR SWAP1 SSTORE POP JUMPDEST POP POP POP POP POP POP JUMP JUMPDEST PUSH1 0x3 PUSH0 SWAP1 SLOAD SWAP1 PUSH2 0x100 EXP SWAP1 DIV PUSH20 0xFFFFFFFFFFFFFFFFFFFFFFFFFFFFFFFFFFFFFFFF AND DUP2 JUMP JUMPDEST PUSH1 0xA SLOAD DUP2 JUMP JUMPDEST PUSH2 0x1A4E PUSH2 0x1636 JUMP JUMPDEST PUSH0 PUSH1 0x13 PUSH0 CALLER PUSH20 0xFFFFFFFFFFFFFFFFFFFFFFFFFFFFFFFFFFFFFFFF AND PUSH20 0xFFFFFFFFFFFFFFFFFFFFFFFFFFFFFFFFFFFFFFFF AND DUP2 MSTORE PUSH1 0x20 ADD SWAP1 DUP2 MSTORE PUSH1 0x20 ADD PUSH0 KECCAK256 SWAP1 POP PUSH0 PUSH2 0x1A98 DUP4 PUSH2 0x1F55 JUMP JUMPDEST SWAP1 POP DUP1 DUP3 PUSH0 ADD PUSH0 DUP3 DUP3 SLOAD PUSH2 0x1AAC SWAP2 SWAP1 PUSH2 0x2631 JUMP JUMPDEST SWAP3 POP POP DUP2 SWAP1 SSTORE POP DUP1 PUSH1 0x10 PUSH0 DUP3 DUP3 SLOAD PUSH2 0x1AC4 SWAP2 SWAP1 PUSH2 0x2631 JUMP JUMPDEST SWAP3 POP POP DUP2 SWAP1 SSTORE POP DUP1 DUP3 PUSH1 0x2 ADD PUSH0 DUP3 DUP3 SLOAD PUSH2 0x1ADE SWAP2 SWAP1 PUSH2 0x2631 JUMP JUMPDEST SWAP3 POP POP DUP2 SWAP1 SSTORE POP PUSH1 0x2 PUSH0 SWAP1 SLOAD SWAP1 PUSH2 0x100 EXP SWAP1 DIV PUSH20 0xFFFFFFFFFFFFFFFFFFFFFFFFFFFFFFFFFFFFFFFF AND PUSH20 0xFFFFFFFFFFFFFFFFFFFFFFFFFFFFFFFFFFFFFFFF AND PUSH4 0xA9059CBB CALLER DUP6 PUSH1 0x40 MLOAD DUP4 PUSH4 0xFFFFFFFF AND PUSH1 0xE0 SHL DUP2 MSTORE PUSH1 0x4 ADD PUSH2 0x1B41 SWAP3 SWAP2 SWAP1 PUSH2 0x2521 JUMP JUMPDEST PUSH1 0x20 PUSH1 0x40 MLOAD DUP1 DUP4 SUB DUP2 PUSH0 DUP8 GAS CALL ISZERO DUP1 ISZERO PUSH2 0x1B5D JUMPI RETURNDATASIZE PUSH0 PUSH0 RETURNDATACOPY RETURNDATASIZE PUSH0 REVERT JUMPDEST POP POP POP POP PUSH1 0x40 MLOAD RETURNDATASIZE PUSH1 0x1F NOT PUSH1 0x1F DUP3 ADD AND DUP3 ADD DUP1 PUSH1 0x40 MSTORE POP DUP2 ADD SWAP1 PUSH2 0x1B81 SWAP2 SWAP1 PUSH2 0x257D JUMP JUMPDEST POP PUSH1 0x1 CALLER SWAP1 DUP1 PUSH1 0x1 DUP2 SLOAD ADD DUP1 DUP3 SSTORE DUP1 SWAP2 POP POP PUSH1 0x1 SWAP1 SUB SWAP1 PUSH0 MSTORE PUSH1 0x20 PUSH0 KECCAK256 ADD PUSH0 SWAP1 SWAP2 SWAP1 SWAP2 SWAP1 SWAP2 PUSH2 0x100 EXP DUP2 SLOAD DUP2 PUSH20 0xFFFFFFFFFFFFFFFFFFFFFFFFFFFFFFFFFFFFFFFF MUL NOT AND SWAP1 DUP4 PUSH20 0xFFFFFFFFFFFFFFFFFFFFFFFFFFFFFFFFFFFFFFFF AND MUL OR SWAP1 SSTORE POP POP POP POP JUMP JUMPDEST PUSH0 PUSH2 0x1BF0 PUSH2 0x1E88 JUMP JUMPDEST PUSH2 0x1BF8 PUSH2 0x1436 JUMP JUMPDEST PUSH2 0x1C02 SWAP2 SWAP1 PUSH2 0x2631 JUMP JUMPDEST SWAP1 POP SWAP1 JUMP JUMPDEST PUSH0 PUSH1 0x2 SWAP1 SLOAD SWAP1 PUSH2 0x100 EXP SWAP1 DIV PUSH20 0xFFFFFFFFFFFFFFFFFFFFFFFFFFFFFFFFFFFFFFFF AND PUSH20 0xFFFFFFFFFFFFFFFFFFFFFFFFFFFFFFFFFFFFFFFF AND CALLER PUSH20 0xFFFFFFFFFFFFFFFFFFFFFFFFFFFFFFFFFFFFFFFF AND EQ PUSH2 0x1C5F JUMPI PUSH0 PUSH0 REVERT JUMPDEST PUSH2 0x2710 DUP4 GT ISZERO PUSH2 0x1CA4 JUMPI PUSH1 0x40 MLOAD PUSH32 0x8C379A000000000000000000000000000000000000000000000000000000000 DUP2 MSTORE PUSH1 0x4 ADD PUSH2 0x1C9B SWAP1 PUSH2 0x2A4D JUMP JUMPDEST PUSH1 0x40 MLOAD DUP1 SWAP2 SUB SWAP1 REVERT JUMPDEST PUSH2 0x2710 DUP2 GT ISZERO PUSH2 0x1CE9 JUMPI PUSH1 0x40 MLOAD PUSH32 0x8C379A000000000000000000000000000000000000000000000000000000000 DUP2 MSTORE PUSH1 0x4 ADD PUSH2 0x1CE0 SWAP1 PUSH2 0x2AB5 JUMP JUMPDEST PUSH1 0x40 MLOAD DUP1 SWAP2 SUB SWAP1 REVERT JUMPDEST PUSH2 0x1CF1 PUSH2 0x1636 JUMP JUMPDEST DUP3 PUSH1 0xA DUP2 SWAP1 SSTORE POP DUP2 PUSH1 0xB DUP2 SWAP1 SSTORE POP DUP1 PUSH1 0xD DUP2 SWAP1 SSTORE POP POP POP POP JUMP JUMPDEST PUSH0 PUSH0 PUSH1 0x13 PUSH0 DUP5 PUSH20 0xFFFFFFFFFFFFFFFFFFFFFFFFFFFFFFFFFFFFFFFF AND PUSH20 0xFFFFFFFFFFFFFFFFFFFFFFFFFFFFFFFFFFFFFFFF AND DUP2 MSTORE PUSH1 0x20 ADD SWAP1 DUP2 MSTORE PUSH1 0x20 ADD PUSH0 KECCAK256 PUSH0 ADD SLOAD SWAP1 POP PUSH0 DUP2 EQ PUSH2 0x1D81 JUMPI PUSH8 0xDE0B6B3A7640000 PUSH2 0x1D67 PUSH2 0x1F8A JUMP JUMPDEST DUP3 PUSH2 0x1D72 SWAP2 SWAP1 PUSH2 0x2450 JUMP JUMPDEST PUSH2 0x1D7C SWAP2 SWAP1 PUSH2 0x24BE JUMP JUMPDEST PUSH2 0x1D83 JUMP JUMPDEST PUSH0 JUMPDEST SWAP2 POP POP SWAP2 SWAP1 POP JUMP JUMPDEST PUSH0 PUSH1 0x2 SWAP1 SLOAD SWAP1 PUSH2 0x100 EXP SWAP1 DIV PUSH20 0xFFFFFFFFFFFFFFFFFFFFFFFFFFFFFFFFFFFFFFFF AND PUSH20 0xFFFFFFFFFFFFFFFFFFFFFFFFFFFFFFFFFFFFFFFF AND CALLER PUSH20 0xFFFFFFFFFFFFFFFFFFFFFFFFFFFFFFFFFFFFFFFF AND EQ PUSH2 0x1DE3 JUMPI PUSH0 PUSH0 REVERT JUMPDEST PUSH0 PUSH20 0xFFFFFFFFFFFFFFFFFFFFFFFFFFFFFFFFFFFFFFFF AND DUP2 PUSH20 0xFFFFFFFFFFFFFFFFFFFFFFFFFFFFFFFFFFFFFFFF AND SUB PUSH2 0x1E1A JUMPI PUSH0 PUSH0 REVERT JUMPDEST DUP1 PUSH0 PUSH1 0x2 PUSH2 0x100 EXP DUP2 SLOAD DUP2 PUSH20 0xFFFFFFFFFFFFFFFFFFFFFFFFFFFFFFFFFFFFFFFF MUL NOT AND SWAP1 DUP4 PUSH20 0xFFFFFFFFFFFFFFFFFFFFFFFFFFFFFFFFFFFFFFFF AND MUL OR SWAP1 SSTORE POP POP JUMP JUMPDEST PUSH1 0xE SLOAD DUP2 JUMP JUMPDEST PUSH1 0x7 PUSH0 SWAP1 SLOAD SWAP1 PUSH2 0x100 EXP SWAP1 DIV PUSH20 0xFFFFFFFFFFFFFFFFFFFFFFFFFFFFFFFFFFFFFFFF AND DUP2 JUMP JUMPDEST PUSH0 PUSH0 PUSH1 0x10 SLOAD EQ PUSH2 0x1EBF JUMPI PUSH8 0xDE0B6B3A7640000 PUSH2 0x1EA3 PUSH2 0x1F8A JUMP JUMPDEST PUSH1 0x10 SLOAD PUSH2 0x1EB0 SWAP2 SWAP1 PUSH2 0x2450 JUMP JUMPDEST PUSH2 0x1EBA SWAP2 SWAP1 PUSH2 0x24BE JUMP JUMPDEST PUSH2 0x1EC1 JUMP JUMPDEST PUSH0 JUMPDEST SWAP1 POP SWAP1 JUMP JUMPDEST PUSH0 PUSH1 0xA SLOAD PUSH2 0x1ED3 DUP4 PUSH2 0x118D JUMP JUMPDEST LT SWAP1 POP SWAP2 SWAP1 POP JUMP JUMPDEST PUSH0 PUSH20 0xFFFFFFFFFFFFFFFFFFFFFFFFFFFFFFFFFFFFFFFF AND DUP2 PUSH20 0xFFFFFFFFFFFFFFFFFFFFFFFFFFFFFFFFFFFFFFFF AND SUB PUSH2 0x1F12 JUMPI PUSH0 PUSH0 REVERT JUMPDEST DUP1 PUSH0 PUSH1 0x2 PUSH2 0x100 EXP DUP2 SLOAD DUP2 PUSH20 0xFFFFFFFFFFFFFFFFFFFFFFFFFFFFFFFFFFFFFFFF MUL NOT AND SWAP1 DUP4 PUSH20 0xFFFFFFFFFFFFFFFFFFFFFFFFFFFFFFFFFFFFFFFF AND MUL OR SWAP1 SSTORE POP POP JUMP JUMPDEST PUSH0 PUSH1 0x11 SLOAD PUSH8 0xDE0B6B3A7640000 DUP4 PUSH2 0x1F6D SWAP2 SWAP1 PUSH2 0x2450 JUMP JUMPDEST PUSH2 0x1F77 SWAP2 SWAP1 PUSH2 0x24BE JUMP JUMPDEST SWAP1 POP PUSH0 DUP2 SUB PUSH2 0x1F85 JUMPI PUSH1 0x1 SWAP1 POP JUMPDEST SWAP2 SWAP1 POP JUMP JUMPDEST PUSH0 PUSH1 0x11 SLOAD SWAP1 POP PUSH1 0x12 SLOAD NUMBER EQ DUP1 ISZERO PUSH2 0x1FA2 JUMPI POP PUSH0 PUSH1 0x10 SLOAD GT JUMPDEST ISZERO PUSH2 0x200B JUMPI PUSH0 PUSH1 0x12 SLOAD NUMBER PUSH2 0x1FB6 SWAP2 SWAP1 PUSH2 0x24EE JUMP JUMPDEST SWAP1 POP PUSH0 PUSH8 0xDE0B6B3A7640000 DUP3 PUSH1 0xB SLOAD PUSH2 0x1FD0 SWAP2 SWAP1 PUSH2 0x2450 JUMP JUMPDEST PUSH2 0x1FDA SWAP2 SWAP1 PUSH2 0x24BE JUMP JUMPDEST SWAP1 POP PUSH8 0xDE0B6B3A7640000 DUP2 DUP5 PUSH2 0x1FF1 SWAP2 SWAP1 PUSH2 0x2450 JUMP JUMPDEST PUSH2 0x1FFB SWAP2 SWAP1 PUSH2 0x24BE JUMP JUMPDEST DUP4 PUSH2 0x2006 SWAP2 SWAP1 PUSH2 0x2631 JUMP JUMPDEST SWAP3 POP POP POP JUMPDEST SWAP1 JUMP JUMPDEST PUSH0 PUSH20 0xFFFFFFFFFFFFFFFFFFFFFFFFFFFFFFFFFFFFFFFF DUP3 AND SWAP1 POP SWAP2 SWAP1 POP JUMP JUMPDEST PUSH0 DUP2 SWAP1 POP SWAP2 SWAP1 POP JUMP JUMPDEST PUSH0 PUSH2 0x2050 PUSH2 0x204B PUSH2 0x2046 DUP5 PUSH2 0x200E JUMP JUMPDEST PUSH2 0x202D JUMP JUMPDEST PUSH2 0x200E JUMP JUMPDEST SWAP1 POP SWAP2 SWAP1 POP JUMP JUMPDEST PUSH0 PUSH2 0x2061 DUP3 PUSH2 0x2036 JUMP JUMPDEST SWAP1 POP SWAP2 SWAP1 POP JUMP JUMPDEST PUSH0 PUSH2 0x2072 DUP3 PUSH2 0x2057 JUMP JUMPDEST SWAP1 POP SWAP2 SWAP1 POP JUMP JUMPDEST PUSH2 0x2082 DUP2 PUSH2 0x2068 JUMP JUMPDEST DUP3 MSTORE POP POP JUMP JUMPDEST PUSH0 PUSH1 0x20 DUP3 ADD SWAP1 POP PUSH2 0x209B PUSH0 DUP4 ADD DUP5 PUSH2 0x2079 JUMP JUMPDEST SWAP3 SWAP2 POP POP JUMP JUMPDEST PUSH0 DUP2 SWAP1 POP SWAP2 SWAP1 POP JUMP JUMPDEST PUSH2 0x20B3 DUP2 PUSH2 0x20A1 JUMP JUMPDEST DUP3 MSTORE POP POP JUMP JUMPDEST PUSH0 PUSH1 0x20 DUP3 ADD SWAP1 POP PUSH2 0x20CC PUSH0 DUP4 ADD DUP5 PUSH2 0x20AA JUMP JUMPDEST SWAP3 SWAP2 POP POP JUMP JUMPDEST PUSH0 PUSH0 REVERT JUMPDEST PUSH0 PUSH0 REVERT JUMPDEST PUSH0 PUSH2 0x20E4 DUP3 PUSH2 0x200E JUMP JUMPDEST SWAP1 POP SWAP2 SWAP1 POP JUMP JUMPDEST PUSH2 0x20F4 DUP2 PUSH2 0x20DA JUMP JUMPDEST DUP2 EQ PUSH2 0x20FE JUMPI PUSH0 PUSH0 REVERT JUMPDEST POP JUMP JUMPDEST PUSH0 DUP2 CALLDATALOAD SWAP1 POP PUSH2 0x210F DUP2 PUSH2 0x20EB JUMP JUMPDEST SWAP3 SWAP2 POP POP JUMP JUMPDEST PUSH0 PUSH1 0x20 DUP3 DUP5 SUB SLT ISZERO PUSH2 0x212A JUMPI PUSH2 0x2129 PUSH2 0x20D2 JUMP JUMPDEST JUMPDEST PUSH0 PUSH2 0x2137 DUP5 DUP3 DUP6 ADD PUSH2 0x2101 JUMP JUMPDEST SWAP2 POP POP SWAP3 SWAP2 POP POP JUMP JUMPDEST PUSH2 0x2149 DUP2 PUSH2 0x20A1 JUMP JUMPDEST DUP2 EQ PUSH2 0x2153 JUMPI PUSH0 PUSH0 REVERT JUMPDEST POP JUMP JUMPDEST PUSH0 DUP2 CALLDATALOAD SWAP1 POP PUSH2 0x2164 DUP2 PUSH2 0x2140 JUMP JUMPDEST SWAP3 SWAP2 POP POP JUMP JUMPDEST PUSH0 PUSH1 0x20 DUP3 DUP5 SUB SLT ISZERO PUSH2 0x217F JUMPI PUSH2 0x217E PUSH2 0x20D2 JUMP JUMPDEST JUMPDEST PUSH0 PUSH2 0x218C DUP5 DUP3 DUP6 ADD PUSH2 0x2156 JUMP JUMPDEST SWAP2 POP POP SWAP3 SWAP2 POP POP JUMP JUMPDEST PUSH2 0x219E DUP2 PUSH2 0x20DA JUMP JUMPDEST DUP3 MSTORE POP POP JUMP JUMPDEST PUSH0 PUSH1 0x20 DUP3 ADD SWAP1 POP PUSH2 0x21B7 PUSH0 DUP4 ADD DUP5 PUSH2 0x2195 JUMP JUMPDEST SWAP3 SWAP2 POP POP JUMP JUMPDEST PUSH0 DUP2 MLOAD SWAP1 POP SWAP2 SWAP1 POP JUMP JUMPDEST PUSH0 DUP3 DUP3 MSTORE PUSH1 0x20 DUP3 ADD SWAP1 POP SWAP3 SWAP2 POP POP JUMP JUMPDEST DUP3 DUP2 DUP4 MCOPY PUSH0 DUP4 DUP4 ADD MSTORE POP POP POP JUMP JUMPDEST PUSH0 PUSH1 0x1F NOT PUSH1 0x1F DUP4 ADD AND SWAP1 POP SWAP2 SWAP1 POP JUMP JUMPDEST PUSH0 PUSH2 0x21FF DUP3 PUSH2 0x21BD JUMP JUMPDEST PUSH2 0x2209 DUP2 DUP6 PUSH2 0x21C7 JUMP JUMPDEST SWAP4 POP PUSH2 0x2219 DUP2 DUP6 PUSH1 0x20 DUP7 ADD PUSH2 0x21D7 JUMP JUMPDEST PUSH2 0x2222 DUP2 PUSH2 0x21E5 JUMP JUMPDEST DUP5 ADD SWAP2 POP POP SWAP3 SWAP2 POP POP JUMP JUMPDEST PUSH0 PUSH1 0x20 DUP3 ADD SWAP1 POP DUP2 DUP2 SUB PUSH0 DUP4 ADD MSTORE PUSH2 0x2245 DUP2 DUP5 PUSH2 0x21F5 JUMP JUMPDEST SWAP1 POP SWAP3 SWAP2 POP POP JUMP JUMPDEST PUSH0 PUSH1 0x60 DUP3 ADD SWAP1 POP PUSH2 0x2260 PUSH0 DUP4 ADD DUP7 PUSH2 0x20AA JUMP JUMPDEST PUSH2 0x226D PUSH1 0x20 DUP4 ADD DUP6 PUSH2 0x20AA JUMP JUMPDEST PUSH2 0x227A PUSH1 0x40 DUP4 ADD DUP5 PUSH2 0x20AA JUMP JUMPDEST SWAP5 SWAP4 POP POP POP POP JUMP JUMPDEST PUSH0 PUSH2 0x228C DUP3 PUSH2 0x2057 JUMP JUMPDEST SWAP1 POP SWAP2 SWAP1 POP JUMP JUMPDEST PUSH2 0x229C DUP2 PUSH2 0x2282 JUMP JUMPDEST DUP3 MSTORE POP POP JUMP JUMPDEST PUSH0 PUSH1 0x20 DUP3 ADD SWAP1 POP PUSH2 0x22B5 PUSH0 DUP4 ADD DUP5 PUSH2 0x2293 JUMP JUMPDEST SWAP3 SWAP2 POP POP JUMP JUMPDEST PUSH0 PUSH0 REVERT JUMPDEST PUSH0 PUSH2 0x160 DUP3 DUP5 SUB SLT ISZERO PUSH2 0x22D5 JUMPI PUSH2 0x22D4 PUSH2 0x22BB JUMP JUMPDEST JUMPDEST DUP2 SWAP1 POP SWAP3 SWAP2 POP POP JUMP JUMPDEST PUSH0 PUSH0 REVERT JUMPDEST PUSH0 PUSH0 REVERT JUMPDEST PUSH0 PUSH0 REVERT JUMPDEST PUSH0 PUSH0 DUP4 PUSH1 0x1F DUP5 ADD SLT PUSH2 0x22FF JUMPI PUSH2 0x22FE PUSH2 0x22DE JUMP JUMPDEST JUMPDEST DUP3 CALLDATALOAD SWAP1 POP PUSH8 0xFFFFFFFFFFFFFFFF DUP2 GT ISZERO PUSH2 0x231C JUMPI PUSH2 0x231B PUSH2 0x22E2 JUMP JUMPDEST JUMPDEST PUSH1 0x20 DUP4 ADD SWAP2 POP DUP4 PUSH1 0x1 DUP3 MUL DUP4 ADD GT ISZERO PUSH2 0x2338 JUMPI PUSH2 0x2337 PUSH2 0x22E6 JUMP JUMPDEST JUMPDEST SWAP3 POP SWAP3 SWAP1 POP JUMP JUMPDEST PUSH0 PUSH0 PUSH0 PUSH0 PUSH0 PUSH2 0x1A0 DUP7 DUP9 SUB SLT ISZERO PUSH2 0x2359 JUMPI PUSH2 0x2358 PUSH2 0x20D2 JUMP JUMPDEST JUMPDEST PUSH0 PUSH2 0x2366 DUP9 DUP3 DUP10 ADD PUSH2 0x22BF JUMP JUMPDEST SWAP6 POP POP PUSH2 0x160 DUP7 ADD CALLDATALOAD PUSH8 0xFFFFFFFFFFFFFFFF DUP2 GT ISZERO PUSH2 0x2388 JUMPI PUSH2 0x2387 PUSH2 0x20D6 JUMP JUMPDEST JUMPDEST PUSH2 0x2394 DUP9 DUP3 DUP10 ADD PUSH2 0x22EA JUMP JUMPDEST SWAP5 POP SWAP5 POP POP PUSH2 0x180 DUP7 ADD CALLDATALOAD PUSH8 0xFFFFFFFFFFFFFFFF DUP2 GT ISZERO PUSH2 0x23B8 JUMPI PUSH2 0x23B7 PUSH2 0x20D6 JUMP JUMPDEST JUMPDEST PUSH2 0x23C4 DUP9 DUP3 DUP10 ADD PUSH2 0x22EA JUMP JUMPDEST SWAP3 POP SWAP3 POP POP SWAP3 SWAP6 POP SWAP3 SWAP6 SWAP1 SWAP4 POP JUMP JUMPDEST PUSH0 PUSH0 PUSH0 PUSH1 0x60 DUP5 DUP7 SUB SLT ISZERO PUSH2 0x23EA JUMPI PUSH2 0x23E9 PUSH2 0x20D2 JUMP JUMPDEST JUMPDEST PUSH0 PUSH2 0x23F7 DUP7 DUP3 DUP8 ADD PUSH2 0x2156 JUMP JUMPDEST SWAP4 POP POP PUSH1 0x20 PUSH2 0x2408 DUP7 DUP3 DUP8 ADD PUSH2 0x2156 JUMP JUMPDEST SWAP3 POP POP PUSH1 0x40 PUSH2 0x2419 DUP7 DUP3 DUP8 ADD PUSH2 0x2156 JUMP JUMPDEST SWAP2 POP POP SWAP3 POP SWAP3 POP SWAP3 JUMP JUMPDEST PUSH32 0x4E487B7100000000000000000000000000000000000000000000000000000000 PUSH0 MSTORE PUSH1 0x11 PUSH1 0x4 MSTORE PUSH1 0x24 PUSH0 REVERT JUMPDEST PUSH0 PUSH2 0x245A DUP3 PUSH2 0x20A1 JUMP JUMPDEST SWAP2 POP PUSH2 0x2465 DUP4 PUSH2 0x20A1 JUMP JUMPDEST SWAP3 POP DUP3 DUP3 MUL PUSH2 0x2473 DUP2 PUSH2 0x20A1 JUMP JUMPDEST SWAP2 POP DUP3 DUP3 DIV DUP5 EQ DUP4 ISZERO OR PUSH2 0x248A JUMPI PUSH2 0x2489 PUSH2 0x2423 JUMP JUMPDEST JUMPDEST POP SWAP3 SWAP2 POP POP JUMP JUMPDEST PUSH32 0x4E487B7100000000000000000000000000000000000000000000000000000000 PUSH0 MSTORE PUSH1 0x12 PUSH1 0x4 MSTORE PUSH1 0x24 PUSH0 REVERT JUMPDEST PUSH0 PUSH2 0x24C8 DUP3 PUSH2 0x20A1 JUMP JUMPDEST SWAP2 POP PUSH2 0x24D3 DUP4 PUSH2 0x20A1 JUMP JUMPDEST SWAP3 POP DUP3 PUSH2 0x24E3 JUMPI PUSH2 0x24E2 PUSH2 0x2491 JUMP JUMPDEST JUMPDEST DUP3 DUP3 DIV SWAP1 POP SWAP3 SWAP2 POP POP JUMP JUMPDEST PUSH0 PUSH2 0x24F8 DUP3 PUSH2 0x20A1 JUMP JUMPDEST SWAP2 POP PUSH2 0x2503 DUP4 PUSH2 0x20A1 JUMP JUMPDEST SWAP3 POP DUP3 DUP3 SUB SWAP1 POP DUP2 DUP2 GT ISZERO PUSH2 0x251B JUMPI PUSH2 0x251A PUSH2 0x2423 JUMP JUMPDEST JUMPDEST SWAP3 SWAP2 POP POP JUMP JUMPDEST PUSH0 PUSH1 0x40 DUP3 ADD SWAP1 POP PUSH2 0x2534 PUSH0 DUP4 ADD DUP6 PUSH2 0x2195 JUMP JUMPDEST PUSH2 0x2541 PUSH1 0x20 DUP4 ADD DUP5 PUSH2 0x20AA JUMP JUMPDEST SWAP4 SWAP3 POP POP POP JUMP JUMPDEST PUSH0 DUP2 ISZERO ISZERO SWAP1 POP SWAP2 SWAP1 POP JUMP JUMPDEST PUSH2 0x255C DUP2 PUSH2 0x2548 JUMP JUMPDEST DUP2 EQ PUSH2 0x2566 JUMPI PUSH0 PUSH0 REVERT JUMPDEST POP JUMP JUMPDEST PUSH0 DUP2 MLOAD SWAP1 POP PUSH2 0x2577 DUP2 PUSH2 0x2553 JUMP JUMPDEST SWAP3 SWAP2 POP POP JUMP JUMPDEST PUSH0 PUSH1 0x20 DUP3 DUP5 SUB SLT ISZERO PUSH2 0x2592 JUMPI PUSH2 0x2591 PUSH2 0x20D2 JUMP JUMPDEST JUMPDEST PUSH0 PUSH2 0x259F DUP5 DUP3 DUP6 ADD PUSH2 0x2569 JUMP JUMPDEST SWAP2 POP POP SWAP3 SWAP2 POP POP JUMP JUMPDEST PUSH32 0x4E487B7100000000000000000000000000000000000000000000000000000000 PUSH0 MSTORE PUSH1 0x31 PUSH1 0x4 MSTORE PUSH1 0x24 PUSH0 REVERT JUMPDEST PUSH0 PUSH1 0x40 DUP3 ADD SWAP1 POP PUSH2 0x25E8 PUSH0 DUP4 ADD DUP6 PUSH2 0x20AA JUMP JUMPDEST PUSH2 0x25F5 PUSH1 0x20 DUP4 ADD DUP5 PUSH2 0x20AA JUMP JUMPDEST SWAP4 SWAP3 POP POP POP JUMP JUMPDEST PUSH0 PUSH1 0x60 DUP3 ADD SWAP1 POP PUSH2 0x260F PUSH0 DUP4 ADD DUP7 PUSH2 0x2195 JUMP JUMPDEST PUSH2 0x261C PUSH1 0x20 DUP4 ADD DUP6 PUSH2 0x2195 JUMP JUMPDEST PUSH2 0x2629 PUSH1 0x40 DUP4 ADD DUP5 PUSH2 0x20AA JUMP JUMPDEST SWAP5 SWAP4 POP POP POP POP JUMP JUMPDEST PUSH0 PUSH2 0x263B DUP3 PUSH2 0x20A1 JUMP JUMPDEST SWAP2 POP PUSH2 0x2646 DUP4 PUSH2 0x20A1 JUMP JUMPDEST SWAP3 POP DUP3 DUP3 ADD SWAP1 POP DUP1 DUP3 GT ISZERO PUSH2 0x265E JUMPI PUSH2 0x265D PUSH2 0x2423 JUMP JUMPDEST JUMPDEST SWAP3 SWAP2 POP POP JUMP JUMPDEST PUSH32 0x4E487B7100000000000000000000000000000000000000000000000000000000 PUSH0 MSTORE PUSH1 0x22 PUSH1 0x4 MSTORE PUSH1 0x24 PUSH0 REVERT JUMPDEST PUSH0 PUSH1 0x2 DUP3 DIV SWAP1 POP PUSH1 0x1 DUP3 AND DUP1 PUSH2 0x26A8 JUMPI PUSH1 0x7F DUP3 AND SWAP2 POP JUMPDEST PUSH1 0x20 DUP3 LT DUP2 SUB PUSH2 0x26BB JUMPI PUSH2 0x26BA PUSH2 0x2664 JUMP JUMPDEST JUMPDEST POP SWAP2 SWAP1 POP JUMP JUMPDEST PUSH0 DUP2 MLOAD SWAP1 POP PUSH2 0x26CF DUP2 PUSH2 0x2140 JUMP JUMPDEST SWAP3 SWAP2 POP POP JUMP JUMPDEST PUSH0 PUSH1 0x20 DUP3 DUP5 SUB SLT ISZERO PUSH2 0x26EA JUMPI PUSH2 0x26E9 PUSH2 0x20D2 JUMP JUMPDEST JUMPDEST PUSH0 PUSH2 0x26F7 DUP5 DUP3 DUP6 ADD PUSH2 0x26C1 JUMP JUMPDEST SWAP2 POP POP SWAP3 SWAP2 POP POP JUMP JUMPDEST PUSH32 0x414C52454144595F494E495449414C495A454400000000000000000000000000 PUSH0 DUP3 ADD MSTORE POP JUMP JUMPDEST PUSH0 PUSH2 0x2734 PUSH1 0x13 DUP4 PUSH2 0x21C7 JUMP JUMPDEST SWAP2 POP PUSH2 0x273F DUP3 PUSH2 0x2700 JUMP JUMPDEST PUSH1 0x20 DUP3 ADD SWAP1 POP SWAP2 SWAP1 POP JUMP JUMPDEST PUSH0 PUSH1 0x20 DUP3 ADD SWAP1 POP DUP2 DUP2 SUB PUSH0 DUP4 ADD MSTORE PUSH2 0x2761 DUP2 PUSH2 0x2728 JUMP JUMPDEST SWAP1 POP SWAP2 SWAP1 POP JUMP JUMPDEST PUSH0 DUP3 SWAP1 POP SWAP3 SWAP2 POP POP JUMP JUMPDEST PUSH32 0x4E487B7100000000000000000000000000000000000000000000000000000000 PUSH0 MSTORE PUSH1 0x41 PUSH1 0x4 MSTORE PUSH1 0x24 PUSH0 REVERT JUMPDEST PUSH0 DUP2 SWAP1 POP DUP2 PUSH0 MSTORE PUSH1 0x20 PUSH0 KECCAK256 SWAP1 POP SWAP2 SWAP1 POP JUMP JUMPDEST PUSH0 PUSH1 0x20 PUSH1 0x1F DUP4 ADD DIV SWAP1 POP SWAP2 SWAP1 POP JUMP JUMPDEST PUSH0 DUP3 DUP3 SHL SWAP1 POP SWAP3 SWAP2 POP POP JUMP JUMPDEST PUSH0 PUSH1 0x8 DUP4 MUL PUSH2 0x27FB PUSH32 0xFFFFFFFFFFFFFFFFFFFFFFFFFFFFFFFFFFFFFFFFFFFFFFFFFFFFFFFFFFFFFFFF DUP3 PUSH2 0x27C0 JUMP JUMPDEST PUSH2 0x2805 DUP7 DUP4 PUSH2 0x27C0 JUMP JUMPDEST SWAP6 POP DUP1 NOT DUP5 AND SWAP4 POP DUP1 DUP7 AND DUP5 OR SWAP3 POP POP POP SWAP4 SWAP3 POP POP POP JUMP JUMPDEST PUSH0 PUSH2 0x2837 PUSH2 0x2832 PUSH2 0x282D DUP5 PUSH2 0x20A1 JUMP JUMPDEST PUSH2 0x202D JUMP JUMPDEST PUSH2 0x20A1 JUMP JUMPDEST SWAP1 POP SWAP2 SWAP1 POP JUMP JUMPDEST PUSH0 DUP2 SWAP1 POP SWAP2 SWAP1 POP JUMP JUMPDEST PUSH2 0x2850 DUP4 PUSH2 0x281D JUMP JUMPDEST PUSH2 0x2864 PUSH2 0x285C DUP3 PUSH2 0x283E JUMP JUMPDEST DUP5 DUP5 SLOAD PUSH2 0x27CC JUMP JUMPDEST DUP3 SSTORE POP POP POP POP JUMP JUMPDEST PUSH0 PUSH0 SWAP1 POP SWAP1 JUMP JUMPDEST PUSH2 0x287B PUSH2 0x286C JUMP JUMPDEST PUSH2 0x2886 DUP2 DUP5 DUP5 PUSH2 0x2847 JUMP JUMPDEST POP POP POP JUMP JUMPDEST JUMPDEST DUP2 DUP2 LT ISZERO PUSH2 0x28A9 JUMPI PUSH2 0x289E PUSH0 DUP3 PUSH2 0x2873 JUMP JUMPDEST PUSH1 0x1 DUP2 ADD SWAP1 POP PUSH2 0x288C JUMP JUMPDEST POP POP JUMP JUMPDEST PUSH1 0x1F DUP3 GT ISZERO PUSH2 0x28EE JUMPI PUSH2 0x28BF DUP2 PUSH2 0x279F JUMP JUMPDEST PUSH2 0x28C8 DUP5 PUSH2 0x27B1 JUMP JUMPDEST DUP2 ADD PUSH1 0x20 DUP6 LT ISZERO PUSH2 0x28D7 JUMPI DUP2 SWAP1 POP JUMPDEST PUSH2 0x28EB PUSH2 0x28E3 DUP6 PUSH2 0x27B1 JUMP JUMPDEST DUP4 ADD DUP3 PUSH2 0x288B JUMP JUMPDEST POP POP JUMPDEST POP POP POP JUMP JUMPDEST PUSH0 DUP3 DUP3 SHR SWAP1 POP SWAP3 SWAP2 POP POP JUMP JUMPDEST PUSH0 PUSH2 0x290E PUSH0 NOT DUP5 PUSH1 0x8 MUL PUSH2 0x28F3 JUMP JUMPDEST NOT DUP1 DUP4 AND SWAP2 POP POP SWAP3 SWAP2 POP POP JUMP JUMPDEST PUSH0 PUSH2 0x2926 DUP4 DUP4 PUSH2 0x28FF JUMP JUMPDEST SWAP2 POP DUP3 PUSH1 0x2 MUL DUP3 OR SWAP1 POP SWAP3 SWAP2 POP POP JUMP JUMPDEST PUSH2 0x2940 DUP4 DUP4 PUSH2 0x2768 JUMP JUMPDEST PUSH8 0xFFFFFFFFFFFFFFFF DUP2 GT ISZERO PUSH2 0x2959 JUMPI PUSH2 0x2958 PUSH2 0x2772 JUMP JUMPDEST JUMPDEST PUSH2 0x2963 DUP3 SLOAD PUSH2 0x2691 JUMP JUMPDEST PUSH2 0x296E DUP3 DUP3 DUP6 PUSH2 0x28AD JUMP JUMPDEST PUSH0 PUSH1 0x1F DUP4 GT PUSH1 0x1 DUP2 EQ PUSH2 0x299B JUMPI PUSH0 DUP5 ISZERO PUSH2 0x2989 JUMPI DUP3 DUP8 ADD CALLDATALOAD SWAP1 POP JUMPDEST PUSH2 0x2993 DUP6 DUP3 PUSH2 0x291B JUMP JUMPDEST DUP7 SSTORE POP PUSH2 0x29FA JUMP JUMPDEST PUSH1 0x1F NOT DUP5 AND PUSH2 0x29A9 DUP7 PUSH2 0x279F JUMP JUMPDEST PUSH0 JUMPDEST DUP3 DUP2 LT ISZERO PUSH2 0x29D0 JUMPI DUP5 DUP10 ADD CALLDATALOAD DUP3 SSTORE PUSH1 0x1 DUP3 ADD SWAP2 POP PUSH1 0x20 DUP6 ADD SWAP5 POP PUSH1 0x20 DUP2 ADD SWAP1 POP PUSH2 0x29AB JUMP JUMPDEST DUP7 DUP4 LT ISZERO PUSH2 0x29ED JUMPI DUP5 DUP10 ADD CALLDATALOAD PUSH2 0x29E9 PUSH1 0x1F DUP10 AND DUP3 PUSH2 0x28FF JUMP JUMPDEST DUP4 SSTORE POP JUMPDEST PUSH1 0x1 PUSH1 0x2 DUP9 MUL ADD DUP9 SSTORE POP POP POP JUMPDEST POP POP POP POP POP POP POP JUMP JUMPDEST PUSH32 0x4241445F4C4C5456000000000000000000000000000000000000000000000000 PUSH0 DUP3 ADD MSTORE POP JUMP JUMPDEST PUSH0 PUSH2 0x2A37 PUSH1 0x8 DUP4 PUSH2 0x21C7 JUMP JUMPDEST SWAP2 POP PUSH2 0x2A42 DUP3 PUSH2 0x2A03 JUMP JUMPDEST PUSH1 0x20 DUP3 ADD SWAP1 POP SWAP2 SWAP1 POP JUMP JUMPDEST PUSH0 PUSH1 0x20 DUP3 ADD SWAP1 POP DUP2 DUP2 SUB PUSH0 DUP4 ADD MSTORE PUSH2 0x2A64 DUP2 PUSH2 0x2A2B JUMP JUMPDEST SWAP1 POP SWAP2 SWAP1 POP JUMP JUMPDEST PUSH32 0x4241445F4C49515F424F4E555300000000000000000000000000000000000000 PUSH0 DUP3 ADD MSTORE POP JUMP JUMPDEST PUSH0 PUSH2 0x2A9F PUSH1 0xD DUP4 PUSH2 0x21C7 JUMP JUMPDEST SWAP2 POP PUSH2 0x2AAA DUP3 PUSH2 0x2A6B JUMP JUMPDEST PUSH1 0x20 DUP3 ADD SWAP1 POP SWAP2 SWAP1 POP JUMP JUMPDEST PUSH0 PUSH1 0x20 DUP3 ADD SWAP1 POP DUP2 DUP2 SUB PUSH0 DUP4 ADD MSTORE PUSH2 0x2ACC DUP2 PUSH2 0x2A93 JUMP JUMPDEST SWAP1 POP SWAP2 SWAP1 POP JUMP INVALID LOG2 PUSH5 0x6970667358 0x22 SLT KECCAK256 MULMOD 0xED CALL SWAP8 0xB1 0xDF KECCAK256 0xA6 EXTSTATICCALL SDIV PUSH26 0x1EE7C8A396BCC1D7EF484605797099E811156D355664736F6C63 NUMBER STOP ADDMOD 0x1E STOP CALLER "
				},
				"gasEstimates": {
					"creation": {
						"codeDepositCost": "2203400",
						"executionCost": "2351",
						"totalCost": "2205751"
					},
					"external": {
						"INDEX_SCALE()": "438",
						"accrueInterest()": "infinite",
						"assetManage()": "infinite",
						"availableLiquidity()": "infinite",
						"blocksPerYear()": "2492",
						"borrow(uint256)": "infinite",
						"borrowIndex()": "2536",
						"borrowers(uint256)": "5012",
						"collateralToken()": "infinite",
						"currentLtvBps(address)": "infinite",
						"debtOf(address)": "infinite",
						"healthFactor(address)": "infinite",
						"initialize((address,address,address,address,address,address,address,uint256,uint256,uint256,uint256),string,string)": "infinite",
						"interestRate()": "2515",
						"lastAccrueBlock()": "2471",
						"liquidate(address)": "infinite",
						"liquidationBonusBps()": "2516",
						"liquidator()": "2576",
						"lltvBps()": "2492",
						"loanToken()": "infinite",
						"onVaultDeposit(uint256)": "2682",
						"onVaultWithdraw(uint256)": "infinite",
						"oracle()": "infinite",
						"owner()": "2603",
						"ownershipTransfer(address)": "27084",
						"positions(address)": "infinite",
						"protocolFeeBps()": "2515",
						"protocolReserves()": "2513",
						"repay(uint256)": "infinite",
						"setRiskParams(uint256,uint256,uint256)": "infinite",
						"shareName()": "infinite",
						"supplyCollateral(uint256)": "infinite",
						"title()": "infinite",
						"totalBorrowShares()": "2494",
						"totalDebt()": "infinite",
						"treasury()": "2575",
						"vault()": "2618",
						"withdrawCollateral(uint256)": "infinite"
					},
					"internal": {
						"_isHealthy(address)": "infinite",
						"_projectedBorrowIndex()": "infinite",
						"_sharesForBorrowAmount(uint256)": "infinite"
					}
				},
				"methodIdentifiers": {
					"INDEX_SCALE()": "27776ab5",
					"accrueInterest()": "a6afed95",
					"assetManage()": "c82f6d2f",
					"availableLiquidity()": "74375359",
					"blocksPerYear()": "a385fb96",
					"borrow(uint256)": "c5ebeaec",
					"borrowIndex()": "aa5af0fd",
					"borrowers(uint256)": "7924d93f",
					"collateralToken()": "b2016bd4",
					"currentLtvBps(address)": "6711a640",
					"debtOf(address)": "d283e75f",
					"healthFactor(address)": "6ad9f9df",
					"initialize((address,address,address,address,address,address,address,uint256,uint256,uint256,uint256),string,string)": "b1c0be34",
					"interestRate()": "7c3a00fd",
					"lastAccrueBlock()": "29962904",
					"liquidate(address)": "2f865568",
					"liquidationBonusBps()": "19970d8e",
					"liquidator()": "4046ebae",
					"lltvBps()": "b3604c96",
					"loanToken()": "06d37817",
					"onVaultDeposit(uint256)": "4b92917a",
					"onVaultWithdraw(uint256)": "3e3722b6",
					"oracle()": "7dc0d1d0",
					"owner()": "8da5cb5b",
					"ownershipTransfer(address)": "d3a417a2",
					"positions(address)": "55f57510",
					"protocolFeeBps()": "35659fb8",
					"protocolReserves()": "d681a449",
					"repay(uint256)": "371fd8e6",
					"setRiskParams(uint256,uint256,uint256)": "ced65b01",
					"shareName()": "76e9790a",
					"supplyCollateral(uint256)": "367febea",
					"title()": "4a79d50c",
					"totalBorrowShares()": "136cf1f7",
					"totalDebt()": "fc7b9c18",
					"treasury()": "61d027b3",
					"vault()": "fbfa77cf",
					"withdrawCollateral(uint256)": "6112fe2e"
				}
			},
			"storageLayout": {
				"storage": [
					{
						"astId": 1127,
						"contract": "contracts/protocol/Market.sol:Market",
						"label": "_initialized",
						"offset": 0,
						"slot": "0",
						"type": "t_bool"
					},
					{
						"astId": 1130,
						"contract": "contracts/protocol/Market.sol:Market",
						"label": "_initializing",
						"offset": 1,
						"slot": "0",
						"type": "t_bool"
					},
					{
						"astId": 7,
						"contract": "contracts/protocol/Market.sol:Market",
						"label": "owner",
						"offset": 2,
						"slot": "0",
						"type": "t_address"
					},
					{
						"astId": 214,
						"contract": "contracts/protocol/Market.sol:Market",
						"label": "borrowers",
						"offset": 0,
						"slot": "1",
						"type": "t_array(t_address)dyn_storage"
					},
					{
						"astId": 247,
						"contract": "contracts/protocol/Market.sol:Market",
						"label": "loanToken",
						"offset": 0,
						"slot": "2",
						"type": "t_contract(IERC20)137"
					},
					{
						"astId": 250,
						"contract": "contracts/protocol/Market.sol:Market",
						"label": "collateralToken",
						"offset": 0,
						"slot": "3",
						"type": "t_contract(IERC20)137"
					},
					{
						"astId": 253,
						"contract": "contracts/protocol/Market.sol:Market",
						"label": "oracle",
						"offset": 0,
						"slot": "4",
						"type": "t_contract(IOracle)192"
					},
					{
						"astId": 255,
						"contract": "contracts/protocol/Market.sol:Market",
						"label": "title",
						"offset": 0,
						"slot": "5",
						"type": "t_string_storage"
					},
					{
						"astId": 257,
						"contract": "contracts/protocol/Market.sol:Market",
						"label": "shareName",
						"offset": 0,
						"slot": "6",
						"type": "t_string_storage"
					},
					{
						"astId": 259,
						"contract": "contracts/protocol/Market.sol:Market",
						"label": "vault",
						"offset": 0,
						"slot": "7",
						"type": "t_address"
					},
					{
						"astId": 261,
						"contract": "contracts/protocol/Market.sol:Market",
						"label": "treasury",
						"offset": 0,
						"slot": "8",
						"type": "t_address"
					},
					{
						"astId": 263,
						"contract": "contracts/protocol/Market.sol:Market",
						"label": "liquidator",
						"offset": 0,
						"slot": "9",
						"type": "t_address"
					},
					{
						"astId": 265,
						"contract": "contracts/protocol/Market.sol:Market",
						"label": "lltvBps",
						"offset": 0,
						"slot": "10",
						"type": "t_uint256"
					},
					{
						"astId": 267,
						"contract": "contracts/protocol/Market.sol:Market",
						"label": "interestRate",
						"offset": 0,
						"slot": "11",
						"type": "t_uint256"
					},
					{
						"astId": 269,
						"contract": "contracts/protocol/Market.sol:Market",
						"label": "blocksPerYear",
						"offset": 0,
						"slot": "12",
						"type": "t_uint256"
					},
					{
						"astId": 271,
						"contract": "contracts/protocol/Market.sol:Market",
						"label": "liquidationBonusBps",
						"offset": 0,
						"slot": "13",
						"type": "t_uint256"
					},
					{
						"astId": 273,
						"contract": "contracts/protocol/Market.sol:Market",
						"label": "protocolReserves",
						"offset": 0,
						"slot": "14",
						"type": "t_uint256"
					},
					{
						"astId": 275,
						"contract": "contracts/protocol/Market.sol:Market",
						"label": "protocolFeeBps",
						"offset": 0,
						"slot": "15",
						"type": "t_uint256"
					},
					{
						"astId": 277,
						"contract": "contracts/protocol/Market.sol:Market",
						"label": "totalBorrowShares",
						"offset": 0,
						"slot": "16",
						"type": "t_uint256"
					},
					{
						"astId": 279,
						"contract": "contracts/protocol/Market.sol:Market",
						"label": "borrowIndex",
						"offset": 0,
						"slot": "17",
						"type": "t_uint256"
					},
					{
						"astId": 281,
						"contract": "contracts/protocol/Market.sol:Market",
						"label": "lastAccrueBlock",
						"offset": 0,
						"slot": "18",
						"type": "t_uint256"
					},
					{
						"astId": 286,
						"contract": "contracts/protocol/Market.sol:Market",
						"label": "positions",
						"offset": 0,
						"slot": "19",
						"type": "t_mapping(t_address,t_struct(Position)221_storage)"
					}
				],
				"types": {
					"t_address": {
						"encoding": "inplace",
						"label": "address",
						"numberOfBytes": "20"
					},
					"t_array(t_address)dyn_storage": {
						"base": "t_address",
						"encoding": "dynamic_array",
						"label": "address[]",
						"numberOfBytes": "32"
					},
					"t_bool": {
						"encoding": "inplace",
						"label": "bool",
						"numberOfBytes": "1"
					},
					"t_contract(IERC20)137": {
						"encoding": "inplace",
						"label": "contract IERC20",
						"numberOfBytes": "20"
					},
					"t_contract(IOracle)192": {
						"encoding": "inplace",
						"label": "contract IOracle",
						"numberOfBytes": "20"
					},
					"t_mapping(t_address,t_struct(Position)221_storage)": {
						"encoding": "mapping",
						"key": "t_address",
						"label": "mapping(address => struct Market.Position)",
						"numberOfBytes": "32",
						"value": "t_struct(Position)221_storage"
					},
					"t_string_storage": {
						"encoding": "bytes",
						"label": "string",
						"numberOfBytes": "32"
					},
					"t_struct(Position)221_storage": {
						"encoding": "inplace",
						"label": "struct Market.Position",
						"members": [
							{
								"astId": 216,
								"contract": "contracts/protocol/Market.sol:Market",
								"label": "borrowShares",
								"offset": 0,
								"slot": "0",
								"type": "t_uint256"
							},
							{
								"astId": 218,
								"contract": "contracts/protocol/Market.sol:Market",
								"label": "collateralShares",
								"offset": 0,
								"slot": "1",
								"type": "t_uint256"
							},
							{
								"astId": 220,
								"contract": "contracts/protocol/Market.sol:Market",
								"label": "principal",
								"offset": 0,
								"slot": "2",
								"type": "t_uint256"
							}
						],
						"numberOfBytes": "96"
					},
					"t_uint256": {
						"encoding": "inplace",
						"label": "uint256",
						"numberOfBytes": "32"
					}
				}
			},
			"userdoc": {
				"kind": "user",
				"methods": {},
				"version": 1
			}
		}
	}
}