{
	"protocol/Market.sol": {
		"Market": {
			"abi": [
				{
					"anonymous": false,
					"inputs": [
						{
							"indexed": true,
							"internalType": "address",
							"name": "borrower",
							"type": "address"
						},
						{
							"indexed": true,
							"internalType": "address",
							"name": "liquidator",
							"type": "address"
						},
						{
							"indexed": false,
							"internalType": "uint256",
							"name": "debt",
							"type": "uint256"
						},
						{
							"indexed": false,
							"internalType": "uint256",
							"name": "rewardCollateral",
							"type": "uint256"
						}
					],
					"name": "Liquidated",
					"type": "event"
				},
				{
					"inputs": [],
					"name": "INDEX_SCALE",
					"outputs": [
						{
							"internalType": "uint256",
							"name": "",
							"type": "uint256"
						}
					],
					"stateMutability": "view",
					"type": "function"
				},
				{
					"inputs": [
						{
							"internalType": "address",
							"name": "borrower",
							"type": "address"
						}
					],
					"name": "_isHealthy",
					"outputs": [
						{
							"internalType": "bool",
							"name": "",
							"type": "bool"
						}
					],
					"stateMutability": "view",
					"type": "function"
				},
				{
					"inputs": [
						{
							"internalType": "uint256",
							"name": "amount",
							"type": "uint256"
						}
					],
					"name": "_sharesForBorrowAmount",
					"outputs": [
						{
							"internalType": "uint256",
							"name": "shares",
							"type": "uint256"
						}
					],
					"stateMutability": "view",
					"type": "function"
				},
				{
					"inputs": [],
					"name": "accrueInterest",
					"outputs": [],
					"stateMutability": "nonpayable",
					"type": "function"
				},
				{
					"inputs": [],
					"name": "assetManage",
					"outputs": [
						{
							"internalType": "uint256",
							"name": "",
							"type": "uint256"
						}
					],
					"stateMutability": "view",
					"type": "function"
				},
				{
					"inputs": [],
					"name": "availableLiquidity",
					"outputs": [
						{
							"internalType": "uint256",
							"name": "",
							"type": "uint256"
						}
					],
					"stateMutability": "view",
					"type": "function"
				},
				{
					"inputs": [],
					"name": "blocksPerYear",
					"outputs": [
						{
							"internalType": "uint256",
							"name": "",
							"type": "uint256"
						}
					],
					"stateMutability": "view",
					"type": "function"
				},
				{
					"inputs": [
						{
							"internalType": "uint256",
							"name": "amount",
							"type": "uint256"
						}
					],
					"name": "borrow",
					"outputs": [],
					"stateMutability": "nonpayable",
					"type": "function"
				},
				{
					"inputs": [],
					"name": "borrowIndex",
					"outputs": [
						{
							"internalType": "uint256",
							"name": "",
							"type": "uint256"
						}
					],
					"stateMutability": "view",
					"type": "function"
				},
				{
					"inputs": [],
					"name": "collateralToken",
					"outputs": [
						{
							"internalType": "contract IERC20",
							"name": "",
							"type": "address"
						}
					],
					"stateMutability": "view",
					"type": "function"
				},
				{
					"inputs": [
						{
							"internalType": "address",
							"name": "borrower",
							"type": "address"
						}
					],
					"name": "currentLltvBps",
					"outputs": [
						{
							"internalType": "uint256",
							"name": "",
							"type": "uint256"
						}
					],
					"stateMutability": "view",
					"type": "function"
				},
				{
					"inputs": [
						{
							"internalType": "address",
							"name": "borrower",
							"type": "address"
						}
					],
					"name": "debtOf",
					"outputs": [
						{
							"internalType": "uint256",
							"name": "",
							"type": "uint256"
						}
					],
					"stateMutability": "view",
					"type": "function"
				},
				{
					"inputs": [
						{
							"internalType": "address",
							"name": "borrower",
							"type": "address"
						}
					],
					"name": "healthFactor",
					"outputs": [
						{
							"internalType": "uint256",
							"name": "",
							"type": "uint256"
						}
					],
					"stateMutability": "view",
					"type": "function"
				},
				{
					"inputs": [
						{
							"components": [
								{
									"internalType": "address",
									"name": "owner",
									"type": "address"
								},
								{
									"internalType": "address",
									"name": "liquidator",
									"type": "address"
								},
								{
									"internalType": "address",
									"name": "treasury",
									"type": "address"
								},
								{
									"internalType": "address",
									"name": "loanToken",
									"type": "address"
								},
								{
									"internalType": "address",
									"name": "collateralToken",
									"type": "address"
								},
								{
									"internalType": "address",
									"name": "oracle",
									"type": "address"
								},
								{
									"internalType": "address",
									"name": "vault",
									"type": "address"
								},
								{
									"internalType": "uint256",
									"name": "lltvBps",
									"type": "uint256"
								},
								{
									"internalType": "uint256",
									"name": "interestRate",
									"type": "uint256"
								},
								{
									"internalType": "uint256",
									"name": "blocksPerYear",
									"type": "uint256"
								},
								{
									"internalType": "uint256",
									"name": "liquidationBonusBps",
									"type": "uint256"
								}
							],
							"internalType": "struct Market.InitParams",
							"name": "p",
							"type": "tuple"
						},
						{
							"internalType": "string",
							"name": "title_",
							"type": "string"
						},
						{
							"internalType": "string",
							"name": "shareName_",
							"type": "string"
						}
					],
					"name": "initialize",
					"outputs": [],
					"stateMutability": "nonpayable",
					"type": "function"
				},
				{
					"inputs": [],
					"name": "interestRate",
					"outputs": [
						{
							"internalType": "uint256",
							"name": "",
							"type": "uint256"
						}
					],
					"stateMutability": "view",
					"type": "function"
				},
				{
					"inputs": [],
					"name": "lastAccrueBlock",
					"outputs": [
						{
							"internalType": "uint256",
							"name": "",
							"type": "uint256"
						}
					],
					"stateMutability": "view",
					"type": "function"
				},
				{
					"inputs": [
						{
							"internalType": "address",
							"name": "borrower",
							"type": "address"
						}
					],
					"name": "liquidate",
					"outputs": [],
					"stateMutability": "nonpayable",
					"type": "function"
				},
				{
					"inputs": [],
					"name": "liquidationBonusBps",
					"outputs": [
						{
							"internalType": "uint256",
							"name": "",
							"type": "uint256"
						}
					],
					"stateMutability": "view",
					"type": "function"
				},
				{
					"inputs": [],
					"name": "liquidator",
					"outputs": [
						{
							"internalType": "address",
							"name": "",
							"type": "address"
						}
					],
					"stateMutability": "view",
					"type": "function"
				},
				{
					"inputs": [],
					"name": "lltvBps",
					"outputs": [
						{
							"internalType": "uint256",
							"name": "",
							"type": "uint256"
						}
					],
					"stateMutability": "view",
					"type": "function"
				},
				{
					"inputs": [],
					"name": "loanToken",
					"outputs": [
						{
							"internalType": "contract IERC20",
							"name": "",
							"type": "address"
						}
					],
					"stateMutability": "view",
					"type": "function"
				},
				{
					"inputs": [
						{
							"internalType": "uint256",
							"name": "amount",
							"type": "uint256"
						}
					],
					"name": "onVaultDeposit",
					"outputs": [],
					"stateMutability": "nonpayable",
					"type": "function"
				},
				{
					"inputs": [
						{
							"internalType": "uint256",
							"name": "amount",
							"type": "uint256"
						}
					],
					"name": "onVaultWithdraw",
					"outputs": [],
					"stateMutability": "nonpayable",
					"type": "function"
				},
				{
					"inputs": [],
					"name": "oracle",
					"outputs": [
						{
							"internalType": "contract IOracle",
							"name": "",
							"type": "address"
						}
					],
					"stateMutability": "view",
					"type": "function"
				},
				{
					"inputs": [],
					"name": "owner",
					"outputs": [
						{
							"internalType": "address",
							"name": "",
							"type": "address"
						}
					],
					"stateMutability": "view",
					"type": "function"
				},
				{
					"inputs": [
						{
							"internalType": "address",
							"name": "newOwner",
							"type": "address"
						}
					],
					"name": "ownershipTransfer",
					"outputs": [],
					"stateMutability": "nonpayable",
					"type": "function"
				},
				{
					"inputs": [
						{
							"internalType": "address",
							"name": "",
							"type": "address"
						}
					],
					"name": "positions",
					"outputs": [
						{
							"internalType": "uint256",
							"name": "collateralShares",
							"type": "uint256"
						},
						{
							"internalType": "uint256",
							"name": "borrowShares",
							"type": "uint256"
						},
						{
							"internalType": "uint256",
							"name": "principal",
							"type": "uint256"
						}
					],
					"stateMutability": "view",
					"type": "function"
				},
				{
					"inputs": [],
					"name": "protocolFeeBps",
					"outputs": [
						{
							"internalType": "uint256",
							"name": "",
							"type": "uint256"
						}
					],
					"stateMutability": "view",
					"type": "function"
				},
				{
					"inputs": [],
					"name": "protocolReserves",
					"outputs": [
						{
							"internalType": "uint256",
							"name": "",
							"type": "uint256"
						}
					],
					"stateMutability": "view",
					"type": "function"
				},
				{
					"inputs": [],
					"name": "proxiableUUID",
					"outputs": [
						{
							"internalType": "bytes32",
							"name": "",
							"type": "bytes32"
						}
					],
					"stateMutability": "view",
					"type": "function"
				},
				{
					"inputs": [
						{
							"internalType": "uint256",
							"name": "amount",
							"type": "uint256"
						}
					],
					"name": "repay",
					"outputs": [
						{
							"internalType": "uint256",
							"name": "remainingDebt",
							"type": "uint256"
						}
					],
					"stateMutability": "nonpayable",
					"type": "function"
				},
				{
					"inputs": [
						{
							"internalType": "address",
							"name": "newLiquidator",
							"type": "address"
						}
					],
					"name": "setLiquidator",
					"outputs": [],
					"stateMutability": "nonpayable",
					"type": "function"
				},
				{
					"inputs": [
						{
							"internalType": "uint256",
							"name": "newLltvBps",
							"type": "uint256"
						},
						{
							"internalType": "uint256",
							"name": "newInterestRate",
							"type": "uint256"
						},
						{
							"internalType": "uint256",
							"name": "newLiquidationBonusBps",
							"type": "uint256"
						}
					],
					"name": "setRiskParams",
					"outputs": [],
					"stateMutability": "nonpayable",
					"type": "function"
				},
				{
					"inputs": [
						{
							"internalType": "address",
							"name": "newTreasury",
							"type": "address"
						}
					],
					"name": "setTreasury",
					"outputs": [],
					"stateMutability": "nonpayable",
					"type": "function"
				},
				{
					"inputs": [],
					"name": "shareName",
					"outputs": [
						{
							"internalType": "string",
							"name": "",
							"type": "string"
						}
					],
					"stateMutability": "view",
					"type": "function"
				},
				{
					"inputs": [
						{
							"internalType": "uint256",
							"name": "amount",
							"type": "uint256"
						}
					],
					"name": "supplyCollateral",
					"outputs": [],
					"stateMutability": "nonpayable",
					"type": "function"
				},
				{
					"inputs": [],
					"name": "title",
					"outputs": [
						{
							"internalType": "string",
							"name": "",
							"type": "string"
						}
					],
					"stateMutability": "view",
					"type": "function"
				},
				{
					"inputs": [],
					"name": "totalBorrowShares",
					"outputs": [
						{
							"internalType": "uint256",
							"name": "",
							"type": "uint256"
						}
					],
					"stateMutability": "view",
					"type": "function"
				},
				{
					"inputs": [],
					"name": "totalDebt",
					"outputs": [
						{
							"internalType": "uint256",
							"name": "",
							"type": "uint256"
						}
					],
					"stateMutability": "view",
					"type": "function"
				},
				{
					"inputs": [],
					"name": "treasury",
					"outputs": [
						{
							"internalType": "address",
							"name": "",
							"type": "address"
						}
					],
					"stateMutability": "view",
					"type": "function"
				},
				{
					"inputs": [
						{
							"internalType": "address",
							"name": "newImplementation",
							"type": "address"
						}
					],
					"name": "upgradeTo",
					"outputs": [],
					"stateMutability": "nonpayable",
					"type": "function"
				},
				{
					"inputs": [
						{
							"internalType": "address",
							"name": "newImplementation",
							"type": "address"
						},
						{
							"internalType": "bytes",
							"name": "data",
							"type": "bytes"
						}
					],
					"name": "upgradeToAndCall",
					"outputs": [],
					"stateMutability": "payable",
					"type": "function"
				},
				{
					"inputs": [],
					"name": "vault",
					"outputs": [
						{
							"internalType": "address",
							"name": "",
							"type": "address"
						}
					],
					"stateMutability": "view",
					"type": "function"
				},
				{
					"inputs": [
						{
							"internalType": "uint256",
							"name": "amount",
							"type": "uint256"
						}
					],
					"name": "withdrawCollateral",
					"outputs": [],
					"stateMutability": "nonpayable",
					"type": "function"
				}
			],
			"devdoc": {
				"kind": "dev",
				"methods": {},
				"version": 1
			},
			"evm": {
				"assembly": "    /* \"protocol/Market.sol\":360:8918  contract Market is Ownable, IMarket, UUPSUpgradeable {... */\n  mstore(0x40, 0xa0)\n    /* \"proxy/UUPSUpgradeable.sol\":1021:1025  this */\n  address\n    /* \"proxy/UUPSUpgradeable.sol\":978:1026  address private immutable __self = address(this) */\n  0xffffffffffffffffffffffffffffffffffffffff\n  and\n  0x80\n  swap1\n  0xffffffffffffffffffffffffffffffffffffffff\n  and\n  dup2\n  mstore\n  pop\n    /* \"protocol/Market.sol\":360:8918  contract Market is Ownable, IMarket, UUPSUpgradeable {... */\n  callvalue\n  dup1\n  iszero\n  tag_1\n  jumpi\n  revert(0x00, 0x00)\ntag_1:\n  pop\n  mload(0x80)\n  codecopy(0x00, dataOffset(sub_0), dataSize(sub_0))\n  0x00\n  assignImmutable(\"0x3e53e6caa3d9267e13a0317305a21727fdeb46c2d5adc9160409eaa6e5fb3b60\")\n  return(0x00, dataSize(sub_0))\nstop\n\nsub_0: assembly {\n        /* \"protocol/Market.sol\":360:8918  contract Market is Ownable, IMarket, UUPSUpgradeable {... */\n      mstore(0x40, 0x80)\n      jumpi(tag_1, lt(calldatasize, 0x04))\n      shr(0xe0, calldataload(0x00))\n      dup1\n      0x74375359\n      gt\n      tag_46\n      jumpi\n      dup1\n      0xb2016bd4\n      gt\n      tag_47\n      jumpi\n      dup1\n      0xd283e75f\n      gt\n      tag_48\n      jumpi\n      dup1\n      0xd283e75f\n      eq\n      tag_40\n      jumpi\n      dup1\n      0xd3a417a2\n      eq\n      tag_41\n      jumpi\n      dup1\n      0xd681a449\n      eq\n      tag_42\n      jumpi\n      dup1\n      0xf0f44260\n      eq\n      tag_43\n      jumpi\n      dup1\n      0xfbfa77cf\n      eq\n      tag_44\n      jumpi\n      dup1\n      0xfc7b9c18\n      eq\n      tag_45\n      jumpi\n      jump(tag_1)\n    tag_48:\n      dup1\n      0xb2016bd4\n      eq\n      tag_35\n      jumpi\n      dup1\n      0xb3604c96\n      eq\n      tag_36\n      jumpi\n      dup1\n      0xc5ebeaec\n      eq\n      tag_37\n      jumpi\n      dup1\n      0xc82f6d2f\n      eq\n      tag_38\n      jumpi\n      dup1\n      0xced65b01\n      eq\n      tag_39\n      jumpi\n      jump(tag_1)\n    tag_47:\n      dup1\n      0x8da5cb5b\n      gt\n      tag_49\n      jumpi\n      dup1\n      0x8da5cb5b\n      eq\n      tag_29\n      jumpi\n      dup1\n      0xa03b3c95\n      eq\n      tag_30\n      jumpi\n      dup1\n      0xa385fb96\n      eq\n      tag_31\n      jumpi\n      dup1\n      0xa6afed95\n      eq\n      tag_32\n      jumpi\n      dup1\n      0xaa5af0fd\n      eq\n      tag_33\n      jumpi\n      dup1\n      0xb1c0be34\n      eq\n      tag_34\n      jumpi\n      jump(tag_1)\n    tag_49:\n      dup1\n      0x74375359\n      eq\n      tag_24\n      jumpi\n      dup1\n      0x76e9790a\n      eq\n      tag_25\n      jumpi\n      dup1\n      0x79f057a2\n      eq\n      tag_26\n      jumpi\n      dup1\n      0x7c3a00fd\n      eq\n      tag_27\n      jumpi\n      dup1\n      0x7dc0d1d0\n      eq\n      tag_28\n      jumpi\n      jump(tag_1)\n    tag_46:\n      dup1\n      0x371fd8e6\n      gt\n      tag_50\n      jumpi\n      dup1\n      0x4f1ef286\n      gt\n      tag_51\n      jumpi\n      dup1\n      0x4f1ef286\n      eq\n      tag_18\n      jumpi\n      dup1\n      0x52d1902d\n      eq\n      tag_19\n      jumpi\n      dup1\n      0x55f57510\n      eq\n      tag_20\n      jumpi\n      dup1\n      0x6112fe2e\n      eq\n      tag_21\n      jumpi\n      dup1\n      0x61d027b3\n      eq\n      tag_22\n      jumpi\n      dup1\n      0x6ad9f9df\n      eq\n      tag_23\n      jumpi\n      jump(tag_1)\n    tag_51:\n      dup1\n      0x371fd8e6\n      eq\n      tag_13\n      jumpi\n      dup1\n      0x3e3722b6\n      eq\n      tag_14\n      jumpi\n      dup1\n      0x4046ebae\n      eq\n      tag_15\n      jumpi\n      dup1\n      0x4a79d50c\n      eq\n      tag_16\n      jumpi\n      dup1\n      0x4b92917a\n      eq\n      tag_17\n      jumpi\n      jump(tag_1)\n    tag_50:\n      dup1\n      0x27776ab5\n      gt\n      tag_52\n      jumpi\n      dup1\n      0x27776ab5\n      eq\n      tag_7\n      jumpi\n      dup1\n      0x29962904\n      eq\n      tag_8\n      jumpi\n      dup1\n      0x2f865568\n      eq\n      tag_9\n      jumpi\n      dup1\n      0x35659fb8\n      eq\n      tag_10\n      jumpi\n      dup1\n      0x3659cfe6\n      eq\n      tag_11\n      jumpi\n      dup1\n      0x367febea\n      eq\n      tag_12\n      jumpi\n      jump(tag_1)\n    tag_52:\n      dup1\n      0x249b44\n      eq\n      tag_2\n      jumpi\n      dup1\n      0x01c76f81\n      eq\n      tag_3\n      jumpi\n      dup1\n      0x06d37817\n      eq\n      tag_4\n      jumpi\n      dup1\n      0x136cf1f7\n      eq\n      tag_5\n      jumpi\n      dup1\n      0x19970d8e\n      eq\n      tag_6\n      jumpi\n    tag_1:\n      revert(0x00, 0x00)\n        /* \"protocol/Market.sol\":3829:4050  function _sharesForBorrowAmount(... */\n    tag_2:\n      callvalue\n      dup1\n      iszero\n      tag_53\n      jumpi\n      revert(0x00, 0x00)\n    tag_53:\n      pop\n      tag_54\n      0x04\n      dup1\n      calldatasize\n      sub\n      dup2\n      add\n      swap1\n      tag_55\n      swap2\n      swap1\n      tag_56\n      jump\t// in\n    tag_55:\n      tag_57\n      jump\t// in\n    tag_54:\n      mload(0x40)\n      tag_58\n      swap2\n      swap1\n      tag_59\n      jump\t// in\n    tag_58:\n      mload(0x40)\n      dup1\n      swap2\n      sub\n      swap1\n      return\n        /* \"protocol/Market.sol\":8630:8738  function setLiquidator(address newLiquidator) external onlyOwner {... */\n    tag_3:\n      callvalue\n      dup1\n      iszero\n      tag_60\n      jumpi\n      revert(0x00, 0x00)\n    tag_60:\n      pop\n      tag_61\n      0x04\n      dup1\n      calldatasize\n      sub\n      dup2\n      add\n      swap1\n      tag_62\n      swap2\n      swap1\n      tag_63\n      jump\t// in\n    tag_62:\n      tag_64\n      jump\t// in\n    tag_61:\n      stop\n        /* \"protocol/Market.sol\":1309:1332  IERC20 public loanToken */\n    tag_4:\n      callvalue\n      dup1\n      iszero\n      tag_65\n      jumpi\n      revert(0x00, 0x00)\n    tag_65:\n      pop\n      tag_66\n      tag_67\n      jump\t// in\n    tag_66:\n      mload(0x40)\n      tag_68\n      swap2\n      swap1\n      tag_69\n      jump\t// in\n    tag_68:\n      mload(0x40)\n      dup1\n      swap2\n      sub\n      swap1\n      return\n        /* \"protocol/Market.sol\":1794:1823  uint public totalBorrowShares */\n    tag_5:\n      callvalue\n      dup1\n      iszero\n      tag_70\n      jumpi\n      revert(0x00, 0x00)\n    tag_70:\n      pop\n      tag_71\n      tag_72\n      jump\t// in\n    tag_71:\n      mload(0x40)\n      tag_73\n      swap2\n      swap1\n      tag_59\n      jump\t// in\n    tag_73:\n      mload(0x40)\n      dup1\n      swap2\n      sub\n      swap1\n      return\n        /* \"protocol/Market.sol\":1629:1660  uint public liquidationBonusBps */\n    tag_6:\n      callvalue\n      dup1\n      iszero\n      tag_74\n      jumpi\n      revert(0x00, 0x00)\n    tag_74:\n      pop\n      tag_75\n      tag_76\n      jump\t// in\n    tag_75:\n      mload(0x40)\n      tag_77\n      swap2\n      swap1\n      tag_59\n      jump\t// in\n    tag_77:\n      mload(0x40)\n      dup1\n      swap2\n      sub\n      swap1\n      return\n        /* \"protocol/Market.sol\":419:458  uint public constant INDEX_SCALE = 1e18 */\n    tag_7:\n      callvalue\n      dup1\n      iszero\n      tag_78\n      jumpi\n      revert(0x00, 0x00)\n    tag_78:\n      pop\n      tag_79\n      tag_80\n      jump\t// in\n    tag_79:\n      mload(0x40)\n      tag_81\n      swap2\n      swap1\n      tag_59\n      jump\t// in\n    tag_81:\n      mload(0x40)\n      dup1\n      swap2\n      sub\n      swap1\n      return\n        /* \"protocol/Market.sol\":1666:1693  uint public lastAccrueBlock */\n    tag_8:\n      callvalue\n      dup1\n      iszero\n      tag_82\n      jumpi\n      revert(0x00, 0x00)\n    tag_82:\n      pop\n      tag_83\n      tag_84\n      jump\t// in\n    tag_83:\n      mload(0x40)\n      tag_85\n      swap2\n      swap1\n      tag_59\n      jump\t// in\n    tag_85:\n      mload(0x40)\n      dup1\n      swap2\n      sub\n      swap1\n      return\n        /* \"protocol/Market.sol\":7367:8040  function liquidate(address borrower) external onlyLiquidatorOrOwner {... */\n    tag_9:\n      callvalue\n      dup1\n      iszero\n      tag_86\n      jumpi\n      revert(0x00, 0x00)\n    tag_86:\n      pop\n      tag_87\n      0x04\n      dup1\n      calldatasize\n      sub\n      dup2\n      add\n      swap1\n      tag_88\n      swap2\n      swap1\n      tag_63\n      jump\t// in\n    tag_88:\n      tag_89\n      jump\t// in\n    tag_87:\n      stop\n        /* \"protocol/Market.sol\":1728:1754  uint public protocolFeeBps */\n    tag_10:\n      callvalue\n      dup1\n      iszero\n      tag_90\n      jumpi\n      revert(0x00, 0x00)\n    tag_90:\n      pop\n      tag_91\n      tag_92\n      jump\t// in\n    tag_91:\n      mload(0x40)\n      tag_93\n      swap2\n      swap1\n      tag_59\n      jump\t// in\n    tag_93:\n      mload(0x40)\n      dup1\n      swap2\n      sub\n      swap1\n      return\n        /* \"proxy/UUPSUpgradeable.sol\":1745:1927  function upgradeTo(address newImplementation) external onlyProxy {... */\n    tag_11:\n      callvalue\n      dup1\n      iszero\n      tag_94\n      jumpi\n      revert(0x00, 0x00)\n    tag_94:\n      pop\n      tag_95\n      0x04\n      dup1\n      calldatasize\n      sub\n      dup2\n      add\n      swap1\n      tag_96\n      swap2\n      swap1\n      tag_63\n      jump\t// in\n    tag_96:\n      tag_97\n      jump\t// in\n    tag_95:\n      stop\n        /* \"protocol/Market.sol\":5240:5426  function supplyCollateral(uint amount) external {... */\n    tag_12:\n      callvalue\n      dup1\n      iszero\n      tag_98\n      jumpi\n      revert(0x00, 0x00)\n    tag_98:\n      pop\n      tag_99\n      0x04\n      dup1\n      calldatasize\n      sub\n      dup2\n      add\n      swap1\n      tag_100\n      swap2\n      swap1\n      tag_56\n      jump\t// in\n    tag_100:\n      tag_101\n      jump\t// in\n    tag_99:\n      stop\n        /* \"protocol/Market.sol\":6452:7361  function repay(uint amount) external returns (uint remainingDebt) {... */\n    tag_13:\n      callvalue\n      dup1\n      iszero\n      tag_102\n      jumpi\n      revert(0x00, 0x00)\n    tag_102:\n      pop\n      tag_103\n      0x04\n      dup1\n      calldatasize\n      sub\n      dup2\n      add\n      swap1\n      tag_104\n      swap2\n      swap1\n      tag_56\n      jump\t// in\n    tag_104:\n      tag_105\n      jump\t// in\n    tag_103:\n      mload(0x40)\n      tag_106\n      swap2\n      swap1\n      tag_59\n      jump\t// in\n    tag_106:\n      mload(0x40)\n      dup1\n      swap2\n      sub\n      swap1\n      return\n        /* \"protocol/Market.sol\":8109:8270  function onVaultWithdraw(uint amount) external onlyVault {... */\n    tag_14:\n      callvalue\n      dup1\n      iszero\n      tag_107\n      jumpi\n      revert(0x00, 0x00)\n    tag_107:\n      pop\n      tag_108\n      0x04\n      dup1\n      calldatasize\n      sub\n      dup2\n      add\n      swap1\n      tag_109\n      swap2\n      swap1\n      tag_56\n      jump\t// in\n    tag_109:\n      tag_110\n      jump\t// in\n    tag_108:\n      stop\n        /* \"protocol/Market.sol\":1456:1481  address public liquidator */\n    tag_15:\n      callvalue\n      dup1\n      iszero\n      tag_111\n      jumpi\n      revert(0x00, 0x00)\n    tag_111:\n      pop\n      tag_112\n      tag_113\n      jump\t// in\n    tag_112:\n      mload(0x40)\n      tag_114\n      swap2\n      swap1\n      tag_115\n      jump\t// in\n    tag_114:\n      mload(0x40)\n      dup1\n      swap2\n      sub\n      swap1\n      return\n        /* \"protocol/Market.sol\":1401:1420  string public title */\n    tag_16:\n      callvalue\n      dup1\n      iszero\n      tag_116\n      jumpi\n      revert(0x00, 0x00)\n    tag_116:\n      pop\n      tag_117\n      tag_118\n      jump\t// in\n    tag_117:\n      mload(0x40)\n      tag_119\n      swap2\n      swap1\n      tag_120\n      jump\t// in\n    tag_119:\n      mload(0x40)\n      dup1\n      swap2\n      sub\n      swap1\n      return\n        /* \"protocol/Market.sol\":8045:8103  function onVaultDeposit(uint amount) external onlyVault {} */\n    tag_17:\n      callvalue\n      dup1\n      iszero\n      tag_121\n      jumpi\n      revert(0x00, 0x00)\n    tag_121:\n      pop\n      tag_122\n      0x04\n      dup1\n      calldatasize\n      sub\n      dup2\n      add\n      swap1\n      tag_123\n      swap2\n      swap1\n      tag_56\n      jump\t// in\n    tag_123:\n      tag_124\n      jump\t// in\n    tag_122:\n      stop\n        /* \"proxy/UUPSUpgradeable.sol\":2028:2240  function upgradeToAndCall(address newImplementation, bytes calldata data) external payable onlyProxy {... */\n    tag_18:\n      tag_125\n      0x04\n      dup1\n      calldatasize\n      sub\n      dup2\n      add\n      swap1\n      tag_126\n      swap2\n      swap1\n      tag_127\n      jump\t// in\n    tag_126:\n      tag_128\n      jump\t// in\n    tag_125:\n      stop\n        /* \"proxy/UUPSUpgradeable.sol\":1577:1690  function proxiableUUID() external view notDelegated returns (bytes32) {... */\n    tag_19:\n      callvalue\n      dup1\n      iszero\n      tag_129\n      jumpi\n      revert(0x00, 0x00)\n    tag_129:\n      pop\n      tag_130\n      tag_131\n      jump\t// in\n    tag_130:\n      mload(0x40)\n      tag_132\n      swap2\n      swap1\n      tag_133\n      jump\t// in\n    tag_132:\n      mload(0x40)\n      dup1\n      swap2\n      sub\n      swap1\n      return\n        /* \"protocol/Market.sol\":902:947  mapping(address => Position) public positions */\n    tag_20:\n      callvalue\n      dup1\n      iszero\n      tag_134\n      jumpi\n      revert(0x00, 0x00)\n    tag_134:\n      pop\n      tag_135\n      0x04\n      dup1\n      calldatasize\n      sub\n      dup2\n      add\n      swap1\n      tag_136\n      swap2\n      swap1\n      tag_63\n      jump\t// in\n    tag_136:\n      tag_137\n      jump\t// in\n    tag_135:\n      mload(0x40)\n      tag_138\n      swap4\n      swap3\n      swap2\n      swap1\n      tag_139\n      jump\t// in\n    tag_138:\n      mload(0x40)\n      dup1\n      swap2\n      sub\n      swap1\n      return\n        /* \"protocol/Market.sol\":5432:5777  function withdrawCollateral(uint amount) external {... */\n    tag_21:\n      callvalue\n      dup1\n      iszero\n      tag_140\n      jumpi\n      revert(0x00, 0x00)\n    tag_140:\n      pop\n      tag_141\n      0x04\n      dup1\n      calldatasize\n      sub\n      dup2\n      add\n      swap1\n      tag_142\n      swap2\n      swap1\n      tag_56\n      jump\t// in\n    tag_142:\n      tag_143\n      jump\t// in\n    tag_141:\n      stop\n        /* \"protocol/Market.sol\":1513:1536  address public treasury */\n    tag_22:\n      callvalue\n      dup1\n      iszero\n      tag_144\n      jumpi\n      revert(0x00, 0x00)\n    tag_144:\n      pop\n      tag_145\n      tag_146\n      jump\t// in\n    tag_145:\n      mload(0x40)\n      tag_147\n      swap2\n      swap1\n      tag_115\n      jump\t// in\n    tag_147:\n      mload(0x40)\n      dup1\n      swap2\n      sub\n      swap1\n      return\n        /* \"protocol/Market.sol\":5783:5993  function healthFactor(address borrower) public view returns (uint) {... */\n    tag_23:\n      callvalue\n      dup1\n      iszero\n      tag_148\n      jumpi\n      revert(0x00, 0x00)\n    tag_148:\n      pop\n      tag_149\n      0x04\n      dup1\n      calldatasize\n      sub\n      dup2\n      add\n      swap1\n      tag_150\n      swap2\n      swap1\n      tag_63\n      jump\t// in\n    tag_150:\n      tag_151\n      jump\t// in\n    tag_149:\n      mload(0x40)\n      tag_152\n      swap2\n      swap1\n      tag_59\n      jump\t// in\n    tag_152:\n      mload(0x40)\n      dup1\n      swap2\n      sub\n      swap1\n      return\n        /* \"protocol/Market.sol\":3256:3444  function availableLiquidity() public view returns (uint) {... */\n    tag_24:\n      callvalue\n      dup1\n      iszero\n      tag_153\n      jumpi\n      revert(0x00, 0x00)\n    tag_153:\n      pop\n      tag_154\n      tag_155\n      jump\t// in\n    tag_154:\n      mload(0x40)\n      tag_156\n      swap2\n      swap1\n      tag_59\n      jump\t// in\n    tag_156:\n      mload(0x40)\n      dup1\n      swap2\n      sub\n      swap1\n      return\n        /* \"protocol/Market.sol\":1426:1449  string public shareName */\n    tag_25:\n      callvalue\n      dup1\n      iszero\n      tag_157\n      jumpi\n      revert(0x00, 0x00)\n    tag_157:\n      pop\n      tag_158\n      tag_159\n      jump\t// in\n    tag_158:\n      mload(0x40)\n      tag_160\n      swap2\n      swap1\n      tag_120\n      jump\t// in\n    tag_160:\n      mload(0x40)\n      dup1\n      swap2\n      sub\n      swap1\n      return\n        /* \"protocol/Market.sol\":4776:5234  function currentLltvBps(address borrower) public view returns (uint) {... */\n    tag_26:\n      callvalue\n      dup1\n      iszero\n      tag_161\n      jumpi\n      revert(0x00, 0x00)\n    tag_161:\n      pop\n      tag_162\n      0x04\n      dup1\n      calldatasize\n      sub\n      dup2\n      add\n      swap1\n      tag_163\n      swap2\n      swap1\n      tag_63\n      jump\t// in\n    tag_163:\n      tag_164\n      jump\t// in\n    tag_162:\n      mload(0x40)\n      tag_165\n      swap2\n      swap1\n      tag_59\n      jump\t// in\n    tag_165:\n      mload(0x40)\n      dup1\n      swap2\n      sub\n      swap1\n      return\n        /* \"protocol/Market.sol\":1568:1592  uint public interestRate */\n    tag_27:\n      callvalue\n      dup1\n      iszero\n      tag_166\n      jumpi\n      revert(0x00, 0x00)\n    tag_166:\n      pop\n      tag_167\n      tag_168\n      jump\t// in\n    tag_167:\n      mload(0x40)\n      tag_169\n      swap2\n      swap1\n      tag_59\n      jump\t// in\n    tag_169:\n      mload(0x40)\n      dup1\n      swap2\n      sub\n      swap1\n      return\n        /* \"protocol/Market.sol\":1373:1394  IOracle public oracle */\n    tag_28:\n      callvalue\n      dup1\n      iszero\n      tag_170\n      jumpi\n      revert(0x00, 0x00)\n    tag_170:\n      pop\n      tag_171\n      tag_172\n      jump\t// in\n    tag_171:\n      mload(0x40)\n      tag_173\n      swap2\n      swap1\n      tag_174\n      jump\t// in\n    tag_173:\n      mload(0x40)\n      dup1\n      swap2\n      sub\n      swap1\n      return\n        /* \"acess/Ownable.sol\":133:153  address public owner */\n    tag_29:\n      callvalue\n      dup1\n      iszero\n      tag_175\n      jumpi\n      revert(0x00, 0x00)\n    tag_175:\n      pop\n      tag_176\n      tag_177\n      jump\t// in\n    tag_176:\n      mload(0x40)\n      tag_178\n      swap2\n      swap1\n      tag_115\n      jump\t// in\n    tag_178:\n      mload(0x40)\n      dup1\n      swap2\n      sub\n      swap1\n      return\n        /* \"protocol/Market.sol\":4056:4179  function _isHealthy(address borrower) public view returns (bool) {... */\n    tag_30:\n      callvalue\n      dup1\n      iszero\n      tag_179\n      jumpi\n      revert(0x00, 0x00)\n    tag_179:\n      pop\n      tag_180\n      0x04\n      dup1\n      calldatasize\n      sub\n      dup2\n      add\n      swap1\n      tag_181\n      swap2\n      swap1\n      tag_63\n      jump\t// in\n    tag_181:\n      tag_182\n      jump\t// in\n    tag_180:\n      mload(0x40)\n      tag_183\n      swap2\n      swap1\n      tag_184\n      jump\t// in\n    tag_183:\n      mload(0x40)\n      dup1\n      swap2\n      sub\n      swap1\n      return\n        /* \"protocol/Market.sol\":1598:1623  uint public blocksPerYear */\n    tag_31:\n      callvalue\n      dup1\n      iszero\n      tag_185\n      jumpi\n      revert(0x00, 0x00)\n    tag_185:\n      pop\n      tag_186\n      tag_187\n      jump\t// in\n    tag_186:\n      mload(0x40)\n      tag_188\n      swap2\n      swap1\n      tag_59\n      jump\t// in\n    tag_188:\n      mload(0x40)\n      dup1\n      swap2\n      sub\n      swap1\n      return\n        /* \"protocol/Market.sol\":2871:3250  function accrueInterest() public {... */\n    tag_32:\n      callvalue\n      dup1\n      iszero\n      tag_189\n      jumpi\n      revert(0x00, 0x00)\n    tag_189:\n      pop\n      tag_190\n      tag_191\n      jump\t// in\n    tag_190:\n      stop\n        /* \"protocol/Market.sol\":1699:1722  uint public borrowIndex */\n    tag_33:\n      callvalue\n      dup1\n      iszero\n      tag_192\n      jumpi\n      revert(0x00, 0x00)\n    tag_192:\n      pop\n      tag_193\n      tag_194\n      jump\t// in\n    tag_193:\n      mload(0x40)\n      tag_195\n      swap2\n      swap1\n      tag_59\n      jump\t// in\n    tag_195:\n      mload(0x40)\n      dup1\n      swap2\n      sub\n      swap1\n      return\n        /* \"protocol/Market.sol\":1830:2865  function initialize(... */\n    tag_34:\n      callvalue\n      dup1\n      iszero\n      tag_196\n      jumpi\n      revert(0x00, 0x00)\n    tag_196:\n      pop\n      tag_197\n      0x04\n      dup1\n      calldatasize\n      sub\n      dup2\n      add\n      swap1\n      tag_198\n      swap2\n      swap1\n      tag_199\n      jump\t// in\n    tag_198:\n      tag_200\n      jump\t// in\n    tag_197:\n      stop\n        /* \"protocol/Market.sol\":1338:1367  IERC20 public collateralToken */\n    tag_35:\n      callvalue\n      dup1\n      iszero\n      tag_201\n      jumpi\n      revert(0x00, 0x00)\n    tag_201:\n      pop\n      tag_202\n      tag_203\n      jump\t// in\n    tag_202:\n      mload(0x40)\n      tag_204\n      swap2\n      swap1\n      tag_69\n      jump\t// in\n    tag_204:\n      mload(0x40)\n      dup1\n      swap2\n      sub\n      swap1\n      return\n        /* \"protocol/Market.sol\":1543:1562  uint public lltvBps */\n    tag_36:\n      callvalue\n      dup1\n      iszero\n      tag_205\n      jumpi\n      revert(0x00, 0x00)\n    tag_205:\n      pop\n      tag_206\n      tag_207\n      jump\t// in\n    tag_206:\n      mload(0x40)\n      tag_208\n      swap2\n      swap1\n      tag_59\n      jump\t// in\n    tag_208:\n      mload(0x40)\n      dup1\n      swap2\n      sub\n      swap1\n      return\n        /* \"protocol/Market.sol\":5999:6446  function borrow(uint amount) external {... */\n    tag_37:\n      callvalue\n      dup1\n      iszero\n      tag_209\n      jumpi\n      revert(0x00, 0x00)\n    tag_209:\n      pop\n      tag_210\n      0x04\n      dup1\n      calldatasize\n      sub\n      dup2\n      add\n      swap1\n      tag_211\n      swap2\n      swap1\n      tag_56\n      jump\t// in\n    tag_211:\n      tag_212\n      jump\t// in\n    tag_210:\n      stop\n        /* \"protocol/Market.sol\":4662:4770  function assetManage() public view returns (uint) {... */\n    tag_38:\n      callvalue\n      dup1\n      iszero\n      tag_213\n      jumpi\n      revert(0x00, 0x00)\n    tag_213:\n      pop\n      tag_214\n      tag_215\n      jump\t// in\n    tag_214:\n      mload(0x40)\n      tag_216\n      swap2\n      swap1\n      tag_59\n      jump\t// in\n    tag_216:\n      mload(0x40)\n      dup1\n      swap2\n      sub\n      swap1\n      return\n        /* \"protocol/Market.sol\":8276:8624  function setRiskParams(... */\n    tag_39:\n      callvalue\n      dup1\n      iszero\n      tag_217\n      jumpi\n      revert(0x00, 0x00)\n    tag_217:\n      pop\n      tag_218\n      0x04\n      dup1\n      calldatasize\n      sub\n      dup2\n      add\n      swap1\n      tag_219\n      swap2\n      swap1\n      tag_220\n      jump\t// in\n    tag_219:\n      tag_221\n      jump\t// in\n    tag_218:\n      stop\n        /* \"protocol/Market.sol\":4395:4656  function debtOf(address borrower) public view returns (uint) {... */\n    tag_40:\n      callvalue\n      dup1\n      iszero\n      tag_222\n      jumpi\n      revert(0x00, 0x00)\n    tag_222:\n      pop\n      tag_223\n      0x04\n      dup1\n      calldatasize\n      sub\n      dup2\n      add\n      swap1\n      tag_224\n      swap2\n      swap1\n      tag_63\n      jump\t// in\n    tag_224:\n      tag_225\n      jump\t// in\n    tag_223:\n      mload(0x40)\n      tag_226\n      swap2\n      swap1\n      tag_59\n      jump\t// in\n    tag_226:\n      mload(0x40)\n      dup1\n      swap2\n      sub\n      swap1\n      return\n        /* \"acess/Ownable.sol\":394:532  function ownershipTransfer(address newOwner) external onlyOwner {... */\n    tag_41:\n      callvalue\n      dup1\n      iszero\n      tag_227\n      jumpi\n      revert(0x00, 0x00)\n    tag_227:\n      pop\n      tag_228\n      0x04\n      dup1\n      calldatasize\n      sub\n      dup2\n      add\n      swap1\n      tag_229\n      swap2\n      swap1\n      tag_63\n      jump\t// in\n    tag_229:\n      tag_230\n      jump\t// in\n    tag_228:\n      stop\n        /* \"protocol/Market.sol\":1760:1788  uint public protocolReserves */\n    tag_42:\n      callvalue\n      dup1\n      iszero\n      tag_231\n      jumpi\n      revert(0x00, 0x00)\n    tag_231:\n      pop\n      tag_232\n      tag_233\n      jump\t// in\n    tag_232:\n      mload(0x40)\n      tag_234\n      swap2\n      swap1\n      tag_59\n      jump\t// in\n    tag_234:\n      mload(0x40)\n      dup1\n      swap2\n      sub\n      swap1\n      return\n        /* \"protocol/Market.sol\":8744:8844  function setTreasury(address newTreasury) external onlyOwner {... */\n    tag_43:\n      callvalue\n      dup1\n      iszero\n      tag_235\n      jumpi\n      revert(0x00, 0x00)\n    tag_235:\n      pop\n      tag_236\n      0x04\n      dup1\n      calldatasize\n      sub\n      dup2\n      add\n      swap1\n      tag_237\n      swap2\n      swap1\n      tag_63\n      jump\t// in\n    tag_237:\n      tag_238\n      jump\t// in\n    tag_236:\n      stop\n        /* \"protocol/Market.sol\":1487:1507  address public vault */\n    tag_44:\n      callvalue\n      dup1\n      iszero\n      tag_239\n      jumpi\n      revert(0x00, 0x00)\n    tag_239:\n      pop\n      tag_240\n      tag_241\n      jump\t// in\n    tag_240:\n      mload(0x40)\n      tag_242\n      swap2\n      swap1\n      tag_115\n      jump\t// in\n    tag_242:\n      mload(0x40)\n      dup1\n      swap2\n      sub\n      swap1\n      return\n        /* \"protocol/Market.sol\":4185:4389  function totalDebt() public view returns (uint) {... */\n    tag_45:\n      callvalue\n      dup1\n      iszero\n      tag_243\n      jumpi\n      revert(0x00, 0x00)\n    tag_243:\n      pop\n      tag_244\n      tag_245\n      jump\t// in\n    tag_244:\n      mload(0x40)\n      tag_246\n      swap2\n      swap1\n      tag_59\n      jump\t// in\n    tag_246:\n      mload(0x40)\n      dup1\n      swap2\n      sub\n      swap1\n      return\n        /* \"protocol/Market.sol\":3829:4050  function _sharesForBorrowAmount(... */\n    tag_57:\n        /* \"protocol/Market.sol\":3909:3920  uint shares */\n      0x00\n        /* \"protocol/Market.sol\":3949:3950  0 */\n      0x00\n        /* \"protocol/Market.sol\":3940:3946  amount */\n      dup3\n        /* \"protocol/Market.sol\":3940:3950  amount > 0 */\n      gt\n        /* \"protocol/Market.sol\":3932:3951  require(amount > 0) */\n      tag_248\n      jumpi\n      revert(0x00, 0x00)\n    tag_248:\n        /* \"protocol/Market.sol\":3995:4006  borrowIndex */\n      sload(0x0f)\n        /* \"protocol/Market.sol\":454:458  1e18 */\n      0x0de0b6b3a7640000\n        /* \"protocol/Market.sol\":3971:3977  amount */\n      dup4\n        /* \"protocol/Market.sol\":3971:3991  amount * INDEX_SCALE */\n      tag_249\n      swap2\n      swap1\n      tag_250\n      jump\t// in\n    tag_249:\n        /* \"protocol/Market.sol\":3970:4006  (amount * INDEX_SCALE) / borrowIndex */\n      tag_251\n      swap2\n      swap1\n      tag_252\n      jump\t// in\n    tag_251:\n        /* \"protocol/Market.sol\":3961:4006  shares = (amount * INDEX_SCALE) / borrowIndex */\n      swap1\n      pop\n        /* \"protocol/Market.sol\":4030:4031  0 */\n      0x00\n        /* \"protocol/Market.sol\":4020:4026  shares */\n      dup2\n        /* \"protocol/Market.sol\":4020:4031  shares == 0 */\n      sub\n        /* \"protocol/Market.sol\":4016:4043  if (shares == 0) shares = 1 */\n      tag_253\n      jumpi\n        /* \"protocol/Market.sol\":4042:4043  1 */\n      0x01\n        /* \"protocol/Market.sol\":4033:4043  shares = 1 */\n      swap1\n      pop\n        /* \"protocol/Market.sol\":4016:4043  if (shares == 0) shares = 1 */\n    tag_253:\n        /* \"protocol/Market.sol\":3829:4050  function _sharesForBorrowAmount(... */\n      swap2\n      swap1\n      pop\n      jump\t// out\n        /* \"protocol/Market.sol\":8630:8738  function setLiquidator(address newLiquidator) external onlyOwner {... */\n    tag_64:\n        /* \"acess/Ownable.sol\":213:218  owner */\n      0x00\n      0x02\n      swap1\n      sload\n      swap1\n      0x0100\n      exp\n      swap1\n      div\n      0xffffffffffffffffffffffffffffffffffffffff\n      and\n        /* \"acess/Ownable.sol\":199:218  msg.sender == owner */\n      0xffffffffffffffffffffffffffffffffffffffff\n      and\n        /* \"acess/Ownable.sol\":199:209  msg.sender */\n      caller\n        /* \"acess/Ownable.sol\":199:218  msg.sender == owner */\n      0xffffffffffffffffffffffffffffffffffffffff\n      and\n      eq\n        /* \"acess/Ownable.sol\":191:219  require(msg.sender == owner) */\n      tag_255\n      jumpi\n      revert(0x00, 0x00)\n    tag_255:\n        /* \"protocol/Market.sol\":8718:8731  newLiquidator */\n      dup1\n        /* \"protocol/Market.sol\":8705:8715  liquidator */\n      0x07\n      0x00\n        /* \"protocol/Market.sol\":8705:8731  liquidator = newLiquidator */\n      0x0100\n      exp\n      dup2\n      sload\n      dup2\n      0xffffffffffffffffffffffffffffffffffffffff\n      mul\n      not\n      and\n      swap1\n      dup4\n      0xffffffffffffffffffffffffffffffffffffffff\n      and\n      mul\n      or\n      swap1\n      sstore\n      pop\n        /* \"protocol/Market.sol\":8630:8738  function setLiquidator(address newLiquidator) external onlyOwner {... */\n      pop\n      jump\t// out\n        /* \"protocol/Market.sol\":1309:1332  IERC20 public loanToken */\n    tag_67:\n      0x02\n      0x00\n      swap1\n      sload\n      swap1\n      0x0100\n      exp\n      swap1\n      div\n      0xffffffffffffffffffffffffffffffffffffffff\n      and\n      dup2\n      jump\t// out\n        /* \"protocol/Market.sol\":1794:1823  uint public totalBorrowShares */\n    tag_72:\n      sload(0x12)\n      dup2\n      jump\t// out\n        /* \"protocol/Market.sol\":1629:1660  uint public liquidationBonusBps */\n    tag_76:\n      sload(0x0d)\n      dup2\n      jump\t// out\n        /* \"protocol/Market.sol\":419:458  uint public constant INDEX_SCALE = 1e18 */\n    tag_80:\n        /* \"protocol/Market.sol\":454:458  1e18 */\n      0x0de0b6b3a7640000\n        /* \"protocol/Market.sol\":419:458  uint public constant INDEX_SCALE = 1e18 */\n      dup2\n      jump\t// out\n        /* \"protocol/Market.sol\":1666:1693  uint public lastAccrueBlock */\n    tag_84:\n      sload(0x0e)\n      dup2\n      jump\t// out\n        /* \"protocol/Market.sol\":7367:8040  function liquidate(address borrower) external onlyLiquidatorOrOwner {... */\n    tag_89:\n        /* \"protocol/Market.sol\":1102:1112  liquidator */\n      0x07\n      0x00\n      swap1\n      sload\n      swap1\n      0x0100\n      exp\n      swap1\n      div\n      0xffffffffffffffffffffffffffffffffffffffff\n      and\n        /* \"protocol/Market.sol\":1088:1112  msg.sender == liquidator */\n      0xffffffffffffffffffffffffffffffffffffffff\n      and\n        /* \"protocol/Market.sol\":1088:1098  msg.sender */\n      caller\n        /* \"protocol/Market.sol\":1088:1112  msg.sender == liquidator */\n      0xffffffffffffffffffffffffffffffffffffffff\n      and\n      eq\n        /* \"protocol/Market.sol\":1088:1135  msg.sender == liquidator || msg.sender == owner */\n      dup1\n      tag_258\n      jumpi\n      pop\n        /* \"protocol/Market.sol\":1130:1135  owner */\n      0x00\n      0x02\n      swap1\n      sload\n      swap1\n      0x0100\n      exp\n      swap1\n      div\n      0xffffffffffffffffffffffffffffffffffffffff\n      and\n        /* \"protocol/Market.sol\":1116:1135  msg.sender == owner */\n      0xffffffffffffffffffffffffffffffffffffffff\n      and\n        /* \"protocol/Market.sol\":1116:1126  msg.sender */\n      caller\n        /* \"protocol/Market.sol\":1116:1135  msg.sender == owner */\n      0xffffffffffffffffffffffffffffffffffffffff\n      and\n      eq\n        /* \"protocol/Market.sol\":1088:1135  msg.sender == liquidator || msg.sender == owner */\n    tag_258:\n        /* \"protocol/Market.sol\":1080:1136  require(msg.sender == liquidator || msg.sender == owner) */\n      tag_259\n      jumpi\n      revert(0x00, 0x00)\n    tag_259:\n        /* \"protocol/Market.sol\":7445:7461  accrueInterest() */\n      tag_261\n        /* \"protocol/Market.sol\":7445:7459  accrueInterest */\n      tag_191\n        /* \"protocol/Market.sol\":7445:7461  accrueInterest() */\n      jump\t// in\n    tag_261:\n        /* \"protocol/Market.sol\":7480:7500  _isHealthy(borrower) */\n      tag_262\n        /* \"protocol/Market.sol\":7491:7499  borrower */\n      dup2\n        /* \"protocol/Market.sol\":7480:7490  _isHealthy */\n      tag_182\n        /* \"protocol/Market.sol\":7480:7500  _isHealthy(borrower) */\n      jump\t// in\n    tag_262:\n        /* \"protocol/Market.sol\":7479:7500  !_isHealthy(borrower) */\n      iszero\n        /* \"protocol/Market.sol\":7471:7501  require(!_isHealthy(borrower)) */\n      tag_263\n      jumpi\n      revert(0x00, 0x00)\n    tag_263:\n        /* \"protocol/Market.sol\":7512:7530  Position storage p */\n      0x00\n        /* \"protocol/Market.sol\":7533:7542  positions */\n      0x01\n        /* \"protocol/Market.sol\":7533:7552  positions[borrower] */\n      0x00\n        /* \"protocol/Market.sol\":7543:7551  borrower */\n      dup4\n        /* \"protocol/Market.sol\":7533:7552  positions[borrower] */\n      0xffffffffffffffffffffffffffffffffffffffff\n      and\n      0xffffffffffffffffffffffffffffffffffffffff\n      and\n      dup2\n      mstore\n      0x20\n      add\n      swap1\n      dup2\n      mstore\n      0x20\n      add\n      0x00\n      keccak256\n        /* \"protocol/Market.sol\":7512:7552  Position storage p = positions[borrower] */\n      swap1\n      pop\n        /* \"protocol/Market.sol\":7562:7571  uint debt */\n      0x00\n        /* \"protocol/Market.sol\":7574:7590  debtOf(borrower) */\n      tag_264\n        /* \"protocol/Market.sol\":7581:7589  borrower */\n      dup4\n        /* \"protocol/Market.sol\":7574:7580  debtOf */\n      tag_225\n        /* \"protocol/Market.sol\":7574:7590  debtOf(borrower) */\n      jump\t// in\n    tag_264:\n        /* \"protocol/Market.sol\":7562:7590  uint debt = debtOf(borrower) */\n      swap1\n      pop\n        /* \"protocol/Market.sol\":7615:7616  0 */\n      0x00\n        /* \"protocol/Market.sol\":7608:7612  debt */\n      dup2\n        /* \"protocol/Market.sol\":7608:7616  debt > 0 */\n      gt\n        /* \"protocol/Market.sol\":7600:7617  require(debt > 0) */\n      tag_265\n      jumpi\n      revert(0x00, 0x00)\n    tag_265:\n        /* \"protocol/Market.sol\":7628:7639  uint reward */\n      0x00\n        /* \"protocol/Market.sol\":7687:7692  10000 */\n      0x2710\n        /* \"protocol/Market.sol\":7664:7683  liquidationBonusBps */\n      sload(0x0d)\n        /* \"protocol/Market.sol\":7643:7644  p */\n      dup5\n        /* \"protocol/Market.sol\":7643:7661  p.collateralShares */\n      0x00\n      add\n      sload\n        /* \"protocol/Market.sol\":7643:7683  p.collateralShares * liquidationBonusBps */\n      tag_266\n      swap2\n      swap1\n      tag_250\n      jump\t// in\n    tag_266:\n        /* \"protocol/Market.sol\":7642:7692  (p.collateralShares * liquidationBonusBps) / 10000 */\n      tag_267\n      swap2\n      swap1\n      tag_252\n      jump\t// in\n    tag_267:\n        /* \"protocol/Market.sol\":7628:7692  uint reward = (p.collateralShares * liquidationBonusBps) / 10000 */\n      swap1\n      pop\n        /* \"protocol/Market.sol\":7702:7716  uint remainder */\n      0x00\n        /* \"protocol/Market.sol\":7740:7746  reward */\n      dup2\n        /* \"protocol/Market.sol\":7719:7720  p */\n      dup5\n        /* \"protocol/Market.sol\":7719:7737  p.collateralShares */\n      0x00\n      add\n      sload\n        /* \"protocol/Market.sol\":7719:7746  p.collateralShares - reward */\n      tag_268\n      swap2\n      swap1\n      tag_269\n      jump\t// in\n    tag_268:\n        /* \"protocol/Market.sol\":7702:7746  uint remainder = p.collateralShares - reward */\n      swap1\n      pop\n        /* \"protocol/Market.sol\":7769:7770  0 */\n      0x00\n        /* \"protocol/Market.sol\":7760:7766  reward */\n      dup3\n        /* \"protocol/Market.sol\":7760:7770  reward > 0 */\n      gt\n        /* \"protocol/Market.sol\":7756:7816  if (reward > 0) collateralToken.transfer(msg.sender, reward) */\n      iszero\n      tag_270\n      jumpi\n        /* \"protocol/Market.sol\":7772:7787  collateralToken */\n      0x03\n      0x00\n      swap1\n      sload\n      swap1\n      0x0100\n      exp\n      swap1\n      div\n      0xffffffffffffffffffffffffffffffffffffffff\n      and\n        /* \"protocol/Market.sol\":7772:7796  collateralToken.transfer */\n      0xffffffffffffffffffffffffffffffffffffffff\n      and\n      0xa9059cbb\n        /* \"protocol/Market.sol\":7797:7807  msg.sender */\n      caller\n        /* \"protocol/Market.sol\":7809:7815  reward */\n      dup5\n        /* \"protocol/Market.sol\":7772:7816  collateralToken.transfer(msg.sender, reward) */\n      mload(0x40)\n      dup4\n      0xffffffff\n      and\n      0xe0\n      shl\n      dup2\n      mstore\n      0x04\n      add\n      tag_271\n      swap3\n      swap2\n      swap1\n      tag_272\n      jump\t// in\n    tag_271:\n      0x20\n      mload(0x40)\n      dup1\n      dup4\n      sub\n      dup2\n      0x00\n      dup8\n      gas\n      call\n      iszero\n      dup1\n      iszero\n      tag_274\n      jumpi\n      returndatacopy(0x00, 0x00, returndatasize)\n      revert(0x00, returndatasize)\n    tag_274:\n      pop\n      pop\n      pop\n      pop\n      mload(0x40)\n      returndatasize\n      not(0x1f)\n      0x1f\n      dup3\n      add\n      and\n      dup3\n      add\n      dup1\n      0x40\n      mstore\n      pop\n      dup2\n      add\n      swap1\n      tag_275\n      swap2\n      swap1\n      tag_276\n      jump\t// in\n    tag_275:\n      pop\n        /* \"protocol/Market.sol\":7756:7816  if (reward > 0) collateralToken.transfer(msg.sender, reward) */\n    tag_270:\n        /* \"protocol/Market.sol\":7842:7843  0 */\n      0x00\n        /* \"protocol/Market.sol\":7830:7839  remainder */\n      dup2\n        /* \"protocol/Market.sol\":7830:7843  remainder > 0 */\n      gt\n        /* \"protocol/Market.sol\":7826:7890  if (remainder > 0) collateralToken.transfer(treasury, remainder) */\n      iszero\n      tag_277\n      jumpi\n        /* \"protocol/Market.sol\":7845:7860  collateralToken */\n      0x03\n      0x00\n      swap1\n      sload\n      swap1\n      0x0100\n      exp\n      swap1\n      div\n      0xffffffffffffffffffffffffffffffffffffffff\n      and\n        /* \"protocol/Market.sol\":7845:7869  collateralToken.transfer */\n      0xffffffffffffffffffffffffffffffffffffffff\n      and\n      0xa9059cbb\n        /* \"protocol/Market.sol\":7870:7878  treasury */\n      0x09\n      0x00\n      swap1\n      sload\n      swap1\n      0x0100\n      exp\n      swap1\n      div\n      0xffffffffffffffffffffffffffffffffffffffff\n      and\n        /* \"protocol/Market.sol\":7880:7889  remainder */\n      dup4\n        /* \"protocol/Market.sol\":7845:7890  collateralToken.transfer(treasury, remainder) */\n      mload(0x40)\n      dup4\n      0xffffffff\n      and\n      0xe0\n      shl\n      dup2\n      mstore\n      0x04\n      add\n      tag_278\n      swap3\n      swap2\n      swap1\n      tag_272\n      jump\t// in\n    tag_278:\n      0x20\n      mload(0x40)\n      dup1\n      dup4\n      sub\n      dup2\n      0x00\n      dup8\n      gas\n      call\n      iszero\n      dup1\n      iszero\n      tag_280\n      jumpi\n      returndatacopy(0x00, 0x00, returndatasize)\n      revert(0x00, returndatasize)\n    tag_280:\n      pop\n      pop\n      pop\n      pop\n      mload(0x40)\n      returndatasize\n      not(0x1f)\n      0x1f\n      dup3\n      add\n      and\n      dup3\n      add\n      dup1\n      0x40\n      mstore\n      pop\n      dup2\n      add\n      swap1\n      tag_281\n      swap2\n      swap1\n      tag_276\n      jump\t// in\n    tag_281:\n      pop\n        /* \"protocol/Market.sol\":7826:7890  if (remainder > 0) collateralToken.transfer(treasury, remainder) */\n    tag_277:\n        /* \"protocol/Market.sol\":7922:7923  p */\n      dup4\n        /* \"protocol/Market.sol\":7922:7936  p.borrowShares */\n      0x01\n      add\n      sload\n        /* \"protocol/Market.sol\":7901:7918  totalBorrowShares */\n      0x12\n      0x00\n        /* \"protocol/Market.sol\":7901:7936  totalBorrowShares -= p.borrowShares */\n      dup3\n      dup3\n      sload\n      tag_282\n      swap2\n      swap1\n      tag_269\n      jump\t// in\n    tag_282:\n      swap3\n      pop\n      pop\n      dup2\n      swap1\n      sstore\n      pop\n        /* \"protocol/Market.sol\":7953:7962  positions */\n      0x01\n        /* \"protocol/Market.sol\":7953:7972  positions[borrower] */\n      0x00\n        /* \"protocol/Market.sol\":7963:7971  borrower */\n      dup7\n        /* \"protocol/Market.sol\":7953:7972  positions[borrower] */\n      0xffffffffffffffffffffffffffffffffffffffff\n      and\n      0xffffffffffffffffffffffffffffffffffffffff\n      and\n      dup2\n      mstore\n      0x20\n      add\n      swap1\n      dup2\n      mstore\n      0x20\n      add\n      0x00\n      keccak256\n      0x00\n        /* \"protocol/Market.sol\":7946:7972  delete positions[borrower] */\n      0x00\n      dup3\n      add\n      0x00\n      swap1\n      sstore\n      0x01\n      dup3\n      add\n      0x00\n      swap1\n      sstore\n      0x02\n      dup3\n      add\n      0x00\n      swap1\n      sstore\n      pop\n      pop\n        /* \"protocol/Market.sol\":8008:8018  msg.sender */\n      caller\n        /* \"protocol/Market.sol\":7987:8033  Liquidated(borrower, msg.sender, debt, reward) */\n      0xffffffffffffffffffffffffffffffffffffffff\n      and\n        /* \"protocol/Market.sol\":7998:8006  borrower */\n      dup6\n        /* \"protocol/Market.sol\":7987:8033  Liquidated(borrower, msg.sender, debt, reward) */\n      0xffffffffffffffffffffffffffffffffffffffff\n      and\n      0x1f0c6615429d1cdae0dfa233abf91d3b31cdbdd82c8081389832a61e1072f1ea\n        /* \"protocol/Market.sol\":8020:8024  debt */\n      dup6\n        /* \"protocol/Market.sol\":8026:8032  reward */\n      dup6\n        /* \"protocol/Market.sol\":7987:8033  Liquidated(borrower, msg.sender, debt, reward) */\n      mload(0x40)\n      tag_283\n      swap3\n      swap2\n      swap1\n      tag_284\n      jump\t// in\n    tag_283:\n      mload(0x40)\n      dup1\n      swap2\n      sub\n      swap1\n      log3\n        /* \"protocol/Market.sol\":7435:8040  {... */\n      pop\n      pop\n      pop\n      pop\n        /* \"protocol/Market.sol\":7367:8040  function liquidate(address borrower) external onlyLiquidatorOrOwner {... */\n      pop\n      jump\t// out\n        /* \"protocol/Market.sol\":1728:1754  uint public protocolFeeBps */\n    tag_92:\n      sload(0x10)\n      dup2\n      jump\t// out\n        /* \"proxy/UUPSUpgradeable.sol\":1745:1927  function upgradeTo(address newImplementation) external onlyProxy {... */\n    tag_97:\n        /* \"proxy/UUPSUpgradeable.sol\":1200:1206  __self */\n      immutable(\"0x3e53e6caa3d9267e13a0317305a21727fdeb46c2d5adc9160409eaa6e5fb3b60\")\n        /* \"proxy/UUPSUpgradeable.sol\":1183:1206  address(this) != __self */\n      0xffffffffffffffffffffffffffffffffffffffff\n      and\n        /* \"proxy/UUPSUpgradeable.sol\":1191:1195  this */\n      address\n        /* \"proxy/UUPSUpgradeable.sol\":1183:1206  address(this) != __self */\n      0xffffffffffffffffffffffffffffffffffffffff\n      and\n      sub\n        /* \"proxy/UUPSUpgradeable.sol\":1175:1227  require(address(this) != __self, \"NOT_DELEGATECALL\") */\n      tag_286\n      jumpi\n      mload(0x40)\n      0x08c379a000000000000000000000000000000000000000000000000000000000\n      dup2\n      mstore\n      0x04\n      add\n      tag_287\n      swap1\n      tag_288\n      jump\t// in\n    tag_287:\n      mload(0x40)\n      dup1\n      swap2\n      sub\n      swap1\n      revert\n    tag_286:\n        /* \"proxy/UUPSUpgradeable.sol\":1269:1275  __self */\n      immutable(\"0x3e53e6caa3d9267e13a0317305a21727fdeb46c2d5adc9160409eaa6e5fb3b60\")\n        /* \"proxy/UUPSUpgradeable.sol\":1245:1275  _getImplementation() == __self */\n      0xffffffffffffffffffffffffffffffffffffffff\n      and\n        /* \"proxy/UUPSUpgradeable.sol\":1245:1265  _getImplementation() */\n      tag_289\n        /* \"proxy/UUPSUpgradeable.sol\":1245:1263  _getImplementation */\n      tag_290\n        /* \"proxy/UUPSUpgradeable.sol\":1245:1265  _getImplementation() */\n      jump\t// in\n    tag_289:\n        /* \"proxy/UUPSUpgradeable.sol\":1245:1275  _getImplementation() == __self */\n      0xffffffffffffffffffffffffffffffffffffffff\n      and\n      eq\n        /* \"proxy/UUPSUpgradeable.sol\":1237:1294  require(_getImplementation() == __self, \"INACTIVE_PROXY\") */\n      tag_291\n      jumpi\n      mload(0x40)\n      0x08c379a000000000000000000000000000000000000000000000000000000000\n      dup2\n      mstore\n      0x04\n      add\n      tag_292\n      swap1\n      tag_293\n      jump\t// in\n    tag_292:\n      mload(0x40)\n      dup1\n      swap2\n      sub\n      swap1\n      revert\n    tag_291:\n        /* \"proxy/UUPSUpgradeable.sol\":1820:1856  _authorizeUpgrade(newImplementation) */\n      tag_295\n        /* \"proxy/UUPSUpgradeable.sol\":1838:1855  newImplementation */\n      dup2\n        /* \"proxy/UUPSUpgradeable.sol\":1820:1837  _authorizeUpgrade */\n      tag_296\n        /* \"proxy/UUPSUpgradeable.sol\":1820:1856  _authorizeUpgrade(newImplementation) */\n      jump\t// in\n    tag_295:\n        /* \"proxy/UUPSUpgradeable.sol\":1866:1920  _upgradeToAndCall(newImplementation, bytes(\"\"), false) */\n      tag_297\n        /* \"proxy/UUPSUpgradeable.sol\":1884:1901  newImplementation */\n      dup2\n        /* \"proxy/UUPSUpgradeable.sol\":1903:1912  bytes(\"\") */\n      mload(0x40)\n      dup1\n      0x20\n      add\n      0x40\n      mstore\n      dup1\n      0x00\n      dup2\n      mstore\n      pop\n        /* \"proxy/UUPSUpgradeable.sol\":1914:1919  false */\n      0x00\n        /* \"proxy/UUPSUpgradeable.sol\":1866:1883  _upgradeToAndCall */\n      tag_298\n        /* \"proxy/UUPSUpgradeable.sol\":1866:1920  _upgradeToAndCall(newImplementation, bytes(\"\"), false) */\n      jump\t// in\n    tag_297:\n        /* \"proxy/UUPSUpgradeable.sol\":1745:1927  function upgradeTo(address newImplementation) external onlyProxy {... */\n      pop\n      jump\t// out\n        /* \"protocol/Market.sol\":5240:5426  function supplyCollateral(uint amount) external {... */\n    tag_101:\n        /* \"protocol/Market.sol\":5298:5313  collateralToken */\n      0x03\n      0x00\n      swap1\n      sload\n      swap1\n      0x0100\n      exp\n      swap1\n      div\n      0xffffffffffffffffffffffffffffffffffffffff\n      and\n        /* \"protocol/Market.sol\":5298:5326  collateralToken.transferFrom */\n      0xffffffffffffffffffffffffffffffffffffffff\n      and\n      0x23b872dd\n        /* \"protocol/Market.sol\":5327:5337  msg.sender */\n      caller\n        /* \"protocol/Market.sol\":5347:5351  this */\n      address\n        /* \"protocol/Market.sol\":5354:5360  amount */\n      dup5\n        /* \"protocol/Market.sol\":5298:5361  collateralToken.transferFrom(msg.sender, address(this), amount) */\n      mload(0x40)\n      dup5\n      0xffffffff\n      and\n      0xe0\n      shl\n      dup2\n      mstore\n      0x04\n      add\n      tag_300\n      swap4\n      swap3\n      swap2\n      swap1\n      tag_301\n      jump\t// in\n    tag_300:\n      0x20\n      mload(0x40)\n      dup1\n      dup4\n      sub\n      dup2\n      0x00\n      dup8\n      gas\n      call\n      iszero\n      dup1\n      iszero\n      tag_303\n      jumpi\n      returndatacopy(0x00, 0x00, returndatasize)\n      revert(0x00, returndatasize)\n    tag_303:\n      pop\n      pop\n      pop\n      pop\n      mload(0x40)\n      returndatasize\n      not(0x1f)\n      0x1f\n      dup3\n      add\n      and\n      dup3\n      add\n      dup1\n      0x40\n      mstore\n      pop\n      dup2\n      add\n      swap1\n      tag_304\n      swap2\n      swap1\n      tag_276\n      jump\t// in\n    tag_304:\n      pop\n        /* \"protocol/Market.sol\":5413:5419  amount */\n      dup1\n        /* \"protocol/Market.sol\":5371:5380  positions */\n      0x01\n        /* \"protocol/Market.sol\":5371:5392  positions[msg.sender] */\n      0x00\n        /* \"protocol/Market.sol\":5381:5391  msg.sender */\n      caller\n        /* \"protocol/Market.sol\":5371:5392  positions[msg.sender] */\n      0xffffffffffffffffffffffffffffffffffffffff\n      and\n      0xffffffffffffffffffffffffffffffffffffffff\n      and\n      dup2\n      mstore\n      0x20\n      add\n      swap1\n      dup2\n      mstore\n      0x20\n      add\n      0x00\n      keccak256\n        /* \"protocol/Market.sol\":5371:5409  positions[msg.sender].collateralShares */\n      0x00\n      add\n      0x00\n        /* \"protocol/Market.sol\":5371:5419  positions[msg.sender].collateralShares += amount */\n      dup3\n      dup3\n      sload\n      tag_305\n      swap2\n      swap1\n      tag_306\n      jump\t// in\n    tag_305:\n      swap3\n      pop\n      pop\n      dup2\n      swap1\n      sstore\n      pop\n        /* \"protocol/Market.sol\":5240:5426  function supplyCollateral(uint amount) external {... */\n      pop\n      jump\t// out\n        /* \"protocol/Market.sol\":6452:7361  function repay(uint amount) external returns (uint remainingDebt) {... */\n    tag_105:\n        /* \"protocol/Market.sol\":6498:6516  uint remainingDebt */\n      0x00\n        /* \"protocol/Market.sol\":6545:6546  0 */\n      0x00\n        /* \"protocol/Market.sol\":6536:6542  amount */\n      dup3\n        /* \"protocol/Market.sol\":6536:6546  amount > 0 */\n      gt\n        /* \"protocol/Market.sol\":6528:6547  require(amount > 0) */\n      tag_308\n      jumpi\n      revert(0x00, 0x00)\n    tag_308:\n        /* \"protocol/Market.sol\":6557:6573  accrueInterest() */\n      tag_309\n        /* \"protocol/Market.sol\":6557:6571  accrueInterest */\n      tag_191\n        /* \"protocol/Market.sol\":6557:6573  accrueInterest() */\n      jump\t// in\n    tag_309:\n        /* \"protocol/Market.sol\":6584:6602  Position storage p */\n      0x00\n        /* \"protocol/Market.sol\":6605:6614  positions */\n      0x01\n        /* \"protocol/Market.sol\":6605:6626  positions[msg.sender] */\n      0x00\n        /* \"protocol/Market.sol\":6615:6625  msg.sender */\n      caller\n        /* \"protocol/Market.sol\":6605:6626  positions[msg.sender] */\n      0xffffffffffffffffffffffffffffffffffffffff\n      and\n      0xffffffffffffffffffffffffffffffffffffffff\n      and\n      dup2\n      mstore\n      0x20\n      add\n      swap1\n      dup2\n      mstore\n      0x20\n      add\n      0x00\n      keccak256\n        /* \"protocol/Market.sol\":6584:6626  Position storage p = positions[msg.sender] */\n      swap1\n      pop\n        /* \"protocol/Market.sol\":6636:6645  uint debt */\n      0x00\n        /* \"protocol/Market.sol\":6648:6666  debtOf(msg.sender) */\n      tag_310\n        /* \"protocol/Market.sol\":6655:6665  msg.sender */\n      caller\n        /* \"protocol/Market.sol\":6648:6654  debtOf */\n      tag_225\n        /* \"protocol/Market.sol\":6648:6666  debtOf(msg.sender) */\n      jump\t// in\n    tag_310:\n        /* \"protocol/Market.sol\":6636:6666  uint debt = debtOf(msg.sender) */\n      swap1\n      pop\n        /* \"protocol/Market.sol\":6691:6692  0 */\n      0x00\n        /* \"protocol/Market.sol\":6684:6688  debt */\n      dup2\n        /* \"protocol/Market.sol\":6684:6692  debt > 0 */\n      gt\n        /* \"protocol/Market.sol\":6676:6693  require(debt > 0) */\n      tag_311\n      jumpi\n      revert(0x00, 0x00)\n    tag_311:\n        /* \"protocol/Market.sol\":6703:6717  uint payAmount */\n      0x00\n        /* \"protocol/Market.sol\":6729:6733  debt */\n      dup2\n        /* \"protocol/Market.sol\":6720:6726  amount */\n      dup6\n        /* \"protocol/Market.sol\":6720:6733  amount > debt */\n      gt\n        /* \"protocol/Market.sol\":6720:6749  amount > debt ? debt : amount */\n      tag_312\n      jumpi\n        /* \"protocol/Market.sol\":6743:6749  amount */\n      dup5\n        /* \"protocol/Market.sol\":6720:6749  amount > debt ? debt : amount */\n      jump(tag_313)\n    tag_312:\n        /* \"protocol/Market.sol\":6736:6740  debt */\n      dup2\n        /* \"protocol/Market.sol\":6720:6749  amount > debt ? debt : amount */\n    tag_313:\n        /* \"protocol/Market.sol\":6703:6749  uint payAmount = amount > debt ? debt : amount */\n      swap1\n      pop\n        /* \"protocol/Market.sol\":6759:6768  loanToken */\n      0x02\n      0x00\n      swap1\n      sload\n      swap1\n      0x0100\n      exp\n      swap1\n      div\n      0xffffffffffffffffffffffffffffffffffffffff\n      and\n        /* \"protocol/Market.sol\":6759:6781  loanToken.transferFrom */\n      0xffffffffffffffffffffffffffffffffffffffff\n      and\n      0x23b872dd\n        /* \"protocol/Market.sol\":6782:6792  msg.sender */\n      caller\n        /* \"protocol/Market.sol\":6802:6806  this */\n      address\n        /* \"protocol/Market.sol\":6809:6818  payAmount */\n      dup5\n        /* \"protocol/Market.sol\":6759:6819  loanToken.transferFrom(msg.sender, address(this), payAmount) */\n      mload(0x40)\n      dup5\n      0xffffffff\n      and\n      0xe0\n      shl\n      dup2\n      mstore\n      0x04\n      add\n      tag_314\n      swap4\n      swap3\n      swap2\n      swap1\n      tag_301\n      jump\t// in\n    tag_314:\n      0x20\n      mload(0x40)\n      dup1\n      dup4\n      sub\n      dup2\n      0x00\n      dup8\n      gas\n      call\n      iszero\n      dup1\n      iszero\n      tag_316\n      jumpi\n      returndatacopy(0x00, 0x00, returndatasize)\n      revert(0x00, returndatasize)\n    tag_316:\n      pop\n      pop\n      pop\n      pop\n      mload(0x40)\n      returndatasize\n      not(0x1f)\n      0x1f\n      dup3\n      add\n      and\n      dup3\n      add\n      dup1\n      0x40\n      mstore\n      pop\n      dup2\n      add\n      swap1\n      tag_317\n      swap2\n      swap1\n      tag_276\n      jump\t// in\n    tag_317:\n      pop\n        /* \"protocol/Market.sol\":6830:6848  uint principalPaid */\n      0x00\n        /* \"protocol/Market.sol\":6865:6874  payAmount */\n      dup2\n        /* \"protocol/Market.sol\":6851:6852  p */\n      dup5\n        /* \"protocol/Market.sol\":6851:6862  p.principal */\n      0x02\n      add\n      sload\n        /* \"protocol/Market.sol\":6851:6874  p.principal > payAmount */\n      gt\n        /* \"protocol/Market.sol\":6851:6900  p.principal > payAmount ? payAmount : p.principal */\n      tag_318\n      jumpi\n        /* \"protocol/Market.sol\":6889:6890  p */\n      dup4\n        /* \"protocol/Market.sol\":6889:6900  p.principal */\n      0x02\n      add\n      sload\n        /* \"protocol/Market.sol\":6851:6900  p.principal > payAmount ? payAmount : p.principal */\n      jump(tag_319)\n    tag_318:\n        /* \"protocol/Market.sol\":6877:6886  payAmount */\n      dup2\n        /* \"protocol/Market.sol\":6851:6900  p.principal > payAmount ? payAmount : p.principal */\n    tag_319:\n        /* \"protocol/Market.sol\":6830:6900  uint principalPaid = p.principal > payAmount ? payAmount : p.principal */\n      swap1\n      pop\n        /* \"protocol/Market.sol\":6925:6938  principalPaid */\n      dup1\n        /* \"protocol/Market.sol\":6910:6911  p */\n      dup5\n        /* \"protocol/Market.sol\":6910:6921  p.principal */\n      0x02\n      add\n      0x00\n        /* \"protocol/Market.sol\":6910:6938  p.principal -= principalPaid */\n      dup3\n      dup3\n      sload\n      tag_320\n      swap2\n      swap1\n      tag_269\n      jump\t// in\n    tag_320:\n      swap3\n      pop\n      pop\n      dup2\n      swap1\n      sstore\n      pop\n        /* \"protocol/Market.sol\":7027:7031  1000 */\n      0x03e8\n        /* \"protocol/Market.sol\":7009:7023  protocolFeeBps */\n      sload(0x10)\n        /* \"protocol/Market.sol\":6992:7005  principalPaid */\n      dup3\n        /* \"protocol/Market.sol\":6980:6989  payAmount */\n      dup5\n        /* \"protocol/Market.sol\":6980:7005  payAmount - principalPaid */\n      tag_321\n      swap2\n      swap1\n      tag_269\n      jump\t// in\n    tag_321:\n        /* \"protocol/Market.sol\":6979:7023  (payAmount - principalPaid) * protocolFeeBps */\n      tag_322\n      swap2\n      swap1\n      tag_250\n      jump\t// in\n    tag_322:\n        /* \"protocol/Market.sol\":6978:7031  ((payAmount - principalPaid) * protocolFeeBps) / 1000 */\n      tag_323\n      swap2\n      swap1\n      tag_252\n      jump\t// in\n    tag_323:\n        /* \"protocol/Market.sol\":6948:6962  protocolFeeBps */\n      0x10\n      0x00\n        /* \"protocol/Market.sol\":6948:7031  protocolFeeBps +=... */\n      dup3\n      dup3\n      sload\n      tag_324\n      swap2\n      swap1\n      tag_306\n      jump\t// in\n    tag_324:\n      swap3\n      pop\n      pop\n      dup2\n      swap1\n      sstore\n      pop\n        /* \"protocol/Market.sol\":7042:7057  uint burnShares */\n      0x00\n        /* \"protocol/Market.sol\":7073:7077  debt */\n      dup4\n        /* \"protocol/Market.sol\":7060:7069  payAmount */\n      dup4\n        /* \"protocol/Market.sol\":7060:7077  payAmount == debt */\n      eq\n        /* \"protocol/Market.sol\":7060:7160  payAmount == debt... */\n      tag_325\n      jumpi\n        /* \"protocol/Market.sol\":7149:7160  borrowIndex */\n      sload(0x0f)\n        /* \"protocol/Market.sol\":454:458  1e18 */\n      0x0de0b6b3a7640000\n        /* \"protocol/Market.sol\":7122:7131  payAmount */\n      dup5\n        /* \"protocol/Market.sol\":7122:7145  payAmount * INDEX_SCALE */\n      tag_326\n      swap2\n      swap1\n      tag_250\n      jump\t// in\n    tag_326:\n        /* \"protocol/Market.sol\":7121:7160  (payAmount * INDEX_SCALE) / borrowIndex */\n      tag_327\n      swap2\n      swap1\n      tag_252\n      jump\t// in\n    tag_327:\n        /* \"protocol/Market.sol\":7060:7160  payAmount == debt... */\n      jump(tag_328)\n    tag_325:\n        /* \"protocol/Market.sol\":7092:7093  p */\n      dup5\n        /* \"protocol/Market.sol\":7092:7106  p.borrowShares */\n      0x01\n      add\n      sload\n        /* \"protocol/Market.sol\":7060:7160  payAmount == debt... */\n    tag_328:\n        /* \"protocol/Market.sol\":7042:7160  uint burnShares = payAmount == debt... */\n      swap1\n      pop\n        /* \"protocol/Market.sol\":7188:7189  p */\n      dup5\n        /* \"protocol/Market.sol\":7188:7202  p.borrowShares */\n      0x01\n      add\n      sload\n        /* \"protocol/Market.sol\":7175:7185  burnShares */\n      dup2\n        /* \"protocol/Market.sol\":7175:7202  burnShares > p.borrowShares */\n      gt\n        /* \"protocol/Market.sol\":7171:7231  if (burnShares > p.borrowShares) burnShares = p.borrowShares */\n      iszero\n      tag_329\n      jumpi\n        /* \"protocol/Market.sol\":7217:7218  p */\n      dup5\n        /* \"protocol/Market.sol\":7217:7231  p.borrowShares */\n      0x01\n      add\n      sload\n        /* \"protocol/Market.sol\":7204:7231  burnShares = p.borrowShares */\n      swap1\n      pop\n        /* \"protocol/Market.sol\":7171:7231  if (burnShares > p.borrowShares) burnShares = p.borrowShares */\n    tag_329:\n        /* \"protocol/Market.sol\":7259:7269  burnShares */\n      dup1\n        /* \"protocol/Market.sol\":7241:7242  p */\n      dup6\n        /* \"protocol/Market.sol\":7241:7255  p.borrowShares */\n      0x01\n      add\n      0x00\n        /* \"protocol/Market.sol\":7241:7269  p.borrowShares -= burnShares */\n      dup3\n      dup3\n      sload\n      tag_330\n      swap2\n      swap1\n      tag_269\n      jump\t// in\n    tag_330:\n      swap3\n      pop\n      pop\n      dup2\n      swap1\n      sstore\n      pop\n        /* \"protocol/Market.sol\":7300:7310  burnShares */\n      dup1\n        /* \"protocol/Market.sol\":7279:7296  totalBorrowShares */\n      0x12\n      0x00\n        /* \"protocol/Market.sol\":7279:7310  totalBorrowShares -= burnShares */\n      dup3\n      dup3\n      sload\n      tag_331\n      swap2\n      swap1\n      tag_269\n      jump\t// in\n    tag_331:\n      swap3\n      pop\n      pop\n      dup2\n      swap1\n      sstore\n      pop\n        /* \"protocol/Market.sol\":7336:7354  debtOf(msg.sender) */\n      tag_332\n        /* \"protocol/Market.sol\":7343:7353  msg.sender */\n      caller\n        /* \"protocol/Market.sol\":7336:7342  debtOf */\n      tag_225\n        /* \"protocol/Market.sol\":7336:7354  debtOf(msg.sender) */\n      jump\t// in\n    tag_332:\n        /* \"protocol/Market.sol\":7320:7354  remainingDebt = debtOf(msg.sender) */\n      swap6\n      pop\n        /* \"protocol/Market.sol\":6518:7361  {... */\n      pop\n      pop\n      pop\n      pop\n      pop\n        /* \"protocol/Market.sol\":6452:7361  function repay(uint amount) external returns (uint remainingDebt) {... */\n      swap2\n      swap1\n      pop\n      jump\t// out\n        /* \"protocol/Market.sol\":8109:8270  function onVaultWithdraw(uint amount) external onlyVault {... */\n    tag_110:\n        /* \"protocol/Market.sol\":1007:1012  vault */\n      0x08\n      0x00\n      swap1\n      sload\n      swap1\n      0x0100\n      exp\n      swap1\n      div\n      0xffffffffffffffffffffffffffffffffffffffff\n      and\n        /* \"protocol/Market.sol\":993:1012  msg.sender == vault */\n      0xffffffffffffffffffffffffffffffffffffffff\n      and\n        /* \"protocol/Market.sol\":993:1003  msg.sender */\n      caller\n        /* \"protocol/Market.sol\":993:1012  msg.sender == vault */\n      0xffffffffffffffffffffffffffffffffffffffff\n      and\n      eq\n        /* \"protocol/Market.sol\":985:1013  require(msg.sender == vault) */\n      tag_334\n      jumpi\n      revert(0x00, 0x00)\n    tag_334:\n        /* \"protocol/Market.sol\":8194:8214  availableLiquidity() */\n      tag_336\n        /* \"protocol/Market.sol\":8194:8212  availableLiquidity */\n      tag_155\n        /* \"protocol/Market.sol\":8194:8214  availableLiquidity() */\n      jump\t// in\n    tag_336:\n        /* \"protocol/Market.sol\":8184:8190  amount */\n      dup2\n        /* \"protocol/Market.sol\":8184:8214  amount <= availableLiquidity() */\n      gt\n      iszero\n        /* \"protocol/Market.sol\":8176:8215  require(amount <= availableLiquidity()) */\n      tag_337\n      jumpi\n      revert(0x00, 0x00)\n    tag_337:\n        /* \"protocol/Market.sol\":8225:8234  loanToken */\n      0x02\n      0x00\n      swap1\n      sload\n      swap1\n      0x0100\n      exp\n      swap1\n      div\n      0xffffffffffffffffffffffffffffffffffffffff\n      and\n        /* \"protocol/Market.sol\":8225:8243  loanToken.transfer */\n      0xffffffffffffffffffffffffffffffffffffffff\n      and\n      0xa9059cbb\n        /* \"protocol/Market.sol\":8244:8254  msg.sender */\n      caller\n        /* \"protocol/Market.sol\":8256:8262  amount */\n      dup4\n        /* \"protocol/Market.sol\":8225:8263  loanToken.transfer(msg.sender, amount) */\n      mload(0x40)\n      dup4\n      0xffffffff\n      and\n      0xe0\n      shl\n      dup2\n      mstore\n      0x04\n      add\n      tag_338\n      swap3\n      swap2\n      swap1\n      tag_272\n      jump\t// in\n    tag_338:\n      0x20\n      mload(0x40)\n      dup1\n      dup4\n      sub\n      dup2\n      0x00\n      dup8\n      gas\n      call\n      iszero\n      dup1\n      iszero\n      tag_340\n      jumpi\n      returndatacopy(0x00, 0x00, returndatasize)\n      revert(0x00, returndatasize)\n    tag_340:\n      pop\n      pop\n      pop\n      pop\n      mload(0x40)\n      returndatasize\n      not(0x1f)\n      0x1f\n      dup3\n      add\n      and\n      dup3\n      add\n      dup1\n      0x40\n      mstore\n      pop\n      dup2\n      add\n      swap1\n      tag_341\n      swap2\n      swap1\n      tag_276\n      jump\t// in\n    tag_341:\n      pop\n        /* \"protocol/Market.sol\":8109:8270  function onVaultWithdraw(uint amount) external onlyVault {... */\n      pop\n      jump\t// out\n        /* \"protocol/Market.sol\":1456:1481  address public liquidator */\n    tag_113:\n      0x07\n      0x00\n      swap1\n      sload\n      swap1\n      0x0100\n      exp\n      swap1\n      div\n      0xffffffffffffffffffffffffffffffffffffffff\n      and\n      dup2\n      jump\t// out\n        /* \"protocol/Market.sol\":1401:1420  string public title */\n    tag_118:\n      0x05\n      dup1\n      sload\n      tag_342\n      swap1\n      tag_343\n      jump\t// in\n    tag_342:\n      dup1\n      0x1f\n      add\n      0x20\n      dup1\n      swap2\n      div\n      mul\n      0x20\n      add\n      mload(0x40)\n      swap1\n      dup2\n      add\n      0x40\n      mstore\n      dup1\n      swap3\n      swap2\n      swap1\n      dup2\n      dup2\n      mstore\n      0x20\n      add\n      dup3\n      dup1\n      sload\n      tag_344\n      swap1\n      tag_343\n      jump\t// in\n    tag_344:\n      dup1\n      iszero\n      tag_345\n      jumpi\n      dup1\n      0x1f\n      lt\n      tag_346\n      jumpi\n      0x0100\n      dup1\n      dup4\n      sload\n      div\n      mul\n      dup4\n      mstore\n      swap2\n      0x20\n      add\n      swap2\n      jump(tag_345)\n    tag_346:\n      dup3\n      add\n      swap2\n      swap1\n      0x00\n      mstore\n      keccak256(0x00, 0x20)\n      swap1\n    tag_347:\n      dup2\n      sload\n      dup2\n      mstore\n      swap1\n      0x01\n      add\n      swap1\n      0x20\n      add\n      dup1\n      dup4\n      gt\n      tag_347\n      jumpi\n      dup3\n      swap1\n      sub\n      0x1f\n      and\n      dup3\n      add\n      swap2\n    tag_345:\n      pop\n      pop\n      pop\n      pop\n      pop\n      dup2\n      jump\t// out\n        /* \"protocol/Market.sol\":8045:8103  function onVaultDeposit(uint amount) external onlyVault {} */\n    tag_124:\n        /* \"protocol/Market.sol\":1007:1012  vault */\n      0x08\n      0x00\n      swap1\n      sload\n      swap1\n      0x0100\n      exp\n      swap1\n      div\n      0xffffffffffffffffffffffffffffffffffffffff\n      and\n        /* \"protocol/Market.sol\":993:1012  msg.sender == vault */\n      0xffffffffffffffffffffffffffffffffffffffff\n      and\n        /* \"protocol/Market.sol\":993:1003  msg.sender */\n      caller\n        /* \"protocol/Market.sol\":993:1012  msg.sender == vault */\n      0xffffffffffffffffffffffffffffffffffffffff\n      and\n      eq\n        /* \"protocol/Market.sol\":985:1013  require(msg.sender == vault) */\n      tag_349\n      jumpi\n      revert(0x00, 0x00)\n    tag_349:\n        /* \"protocol/Market.sol\":8045:8103  function onVaultDeposit(uint amount) external onlyVault {} */\n      pop\n      jump\t// out\n        /* \"proxy/UUPSUpgradeable.sol\":2028:2240  function upgradeToAndCall(address newImplementation, bytes calldata data) external payable onlyProxy {... */\n    tag_128:\n        /* \"proxy/UUPSUpgradeable.sol\":1200:1206  __self */\n      immutable(\"0x3e53e6caa3d9267e13a0317305a21727fdeb46c2d5adc9160409eaa6e5fb3b60\")\n        /* \"proxy/UUPSUpgradeable.sol\":1183:1206  address(this) != __self */\n      0xffffffffffffffffffffffffffffffffffffffff\n      and\n        /* \"proxy/UUPSUpgradeable.sol\":1191:1195  this */\n      address\n        /* \"proxy/UUPSUpgradeable.sol\":1183:1206  address(this) != __self */\n      0xffffffffffffffffffffffffffffffffffffffff\n      and\n      sub\n        /* \"proxy/UUPSUpgradeable.sol\":1175:1227  require(address(this) != __self, \"NOT_DELEGATECALL\") */\n      tag_352\n      jumpi\n      mload(0x40)\n      0x08c379a000000000000000000000000000000000000000000000000000000000\n      dup2\n      mstore\n      0x04\n      add\n      tag_353\n      swap1\n      tag_288\n      jump\t// in\n    tag_353:\n      mload(0x40)\n      dup1\n      swap2\n      sub\n      swap1\n      revert\n    tag_352:\n        /* \"proxy/UUPSUpgradeable.sol\":1269:1275  __self */\n      immutable(\"0x3e53e6caa3d9267e13a0317305a21727fdeb46c2d5adc9160409eaa6e5fb3b60\")\n        /* \"proxy/UUPSUpgradeable.sol\":1245:1275  _getImplementation() == __self */\n      0xffffffffffffffffffffffffffffffffffffffff\n      and\n        /* \"proxy/UUPSUpgradeable.sol\":1245:1265  _getImplementation() */\n      tag_354\n        /* \"proxy/UUPSUpgradeable.sol\":1245:1263  _getImplementation */\n      tag_290\n        /* \"proxy/UUPSUpgradeable.sol\":1245:1265  _getImplementation() */\n      jump\t// in\n    tag_354:\n        /* \"proxy/UUPSUpgradeable.sol\":1245:1275  _getImplementation() == __self */\n      0xffffffffffffffffffffffffffffffffffffffff\n      and\n      eq\n        /* \"proxy/UUPSUpgradeable.sol\":1237:1294  require(_getImplementation() == __self, \"INACTIVE_PROXY\") */\n      tag_355\n      jumpi\n      mload(0x40)\n      0x08c379a000000000000000000000000000000000000000000000000000000000\n      dup2\n      mstore\n      0x04\n      add\n      tag_356\n      swap1\n      tag_293\n      jump\t// in\n    tag_356:\n      mload(0x40)\n      dup1\n      swap2\n      sub\n      swap1\n      revert\n    tag_355:\n        /* \"proxy/UUPSUpgradeable.sol\":2139:2175  _authorizeUpgrade(newImplementation) */\n      tag_358\n        /* \"proxy/UUPSUpgradeable.sol\":2157:2174  newImplementation */\n      dup4\n        /* \"proxy/UUPSUpgradeable.sol\":2139:2156  _authorizeUpgrade */\n      tag_296\n        /* \"proxy/UUPSUpgradeable.sol\":2139:2175  _authorizeUpgrade(newImplementation) */\n      jump\t// in\n    tag_358:\n        /* \"proxy/UUPSUpgradeable.sol\":2185:2233  _upgradeToAndCall(newImplementation, data, true) */\n      tag_359\n        /* \"proxy/UUPSUpgradeable.sol\":2203:2220  newImplementation */\n      dup4\n        /* \"proxy/UUPSUpgradeable.sol\":2222:2226  data */\n      dup4\n      dup4\n        /* \"proxy/UUPSUpgradeable.sol\":2185:2233  _upgradeToAndCall(newImplementation, data, true) */\n      dup1\n      dup1\n      0x1f\n      add\n      0x20\n      dup1\n      swap2\n      div\n      mul\n      0x20\n      add\n      mload(0x40)\n      swap1\n      dup2\n      add\n      0x40\n      mstore\n      dup1\n      swap4\n      swap3\n      swap2\n      swap1\n      dup2\n      dup2\n      mstore\n      0x20\n      add\n      dup4\n      dup4\n      dup1\n      dup3\n      dup5\n      calldatacopy\n      0x00\n      dup2\n      dup5\n      add\n      mstore\n      not(0x1f)\n      0x1f\n      dup3\n      add\n      and\n      swap1\n      pop\n      dup1\n      dup4\n      add\n      swap3\n      pop\n      pop\n      pop\n      pop\n      pop\n      pop\n      pop\n        /* \"proxy/UUPSUpgradeable.sol\":2228:2232  true */\n      0x01\n        /* \"proxy/UUPSUpgradeable.sol\":2185:2202  _upgradeToAndCall */\n      tag_298\n        /* \"proxy/UUPSUpgradeable.sol\":2185:2233  _upgradeToAndCall(newImplementation, data, true) */\n      jump\t// in\n    tag_359:\n        /* \"proxy/UUPSUpgradeable.sol\":2028:2240  function upgradeToAndCall(address newImplementation, bytes calldata data) external payable onlyProxy {... */\n      pop\n      pop\n      pop\n      jump\t// out\n        /* \"proxy/UUPSUpgradeable.sol\":1577:1690  function proxiableUUID() external view notDelegated returns (bytes32) {... */\n    tag_131:\n        /* \"proxy/UUPSUpgradeable.sol\":1638:1645  bytes32 */\n      0x00\n        /* \"proxy/UUPSUpgradeable.sol\":1471:1477  __self */\n      immutable(\"0x3e53e6caa3d9267e13a0317305a21727fdeb46c2d5adc9160409eaa6e5fb3b60\")\n        /* \"proxy/UUPSUpgradeable.sol\":1454:1477  address(this) == __self */\n      0xffffffffffffffffffffffffffffffffffffffff\n      and\n        /* \"proxy/UUPSUpgradeable.sol\":1462:1466  this */\n      address\n        /* \"proxy/UUPSUpgradeable.sol\":1454:1477  address(this) == __self */\n      0xffffffffffffffffffffffffffffffffffffffff\n      and\n      eq\n        /* \"proxy/UUPSUpgradeable.sol\":1446:1501  require(address(this) == __self, \"ONLY_IMPLEMENTATION\") */\n      tag_361\n      jumpi\n      mload(0x40)\n      0x08c379a000000000000000000000000000000000000000000000000000000000\n      dup2\n      mstore\n      0x04\n      add\n      tag_362\n      swap1\n      tag_363\n      jump\t// in\n    tag_362:\n      mload(0x40)\n      dup1\n      swap2\n      sub\n      swap1\n      revert\n    tag_361:\n        /* \"proxy/UUPSUpgradeable.sol\":793:859  0x360894A13BA1A3210667C828492DB98DCA3E2076CC3735A920A3CA505D382BBC */\n      0x360894a13ba1a3210667c828492db98dca3e2076cc3735a920a3ca505d382bbc\n        /* \"proxy/UUPSUpgradeable.sol\":1664:1683  IMPLEMENTATION_SLOT */\n      0x00\n      shl\n        /* \"proxy/UUPSUpgradeable.sol\":1657:1683  return IMPLEMENTATION_SLOT */\n      swap1\n      pop\n        /* \"proxy/UUPSUpgradeable.sol\":1577:1690  function proxiableUUID() external view notDelegated returns (bytes32) {... */\n      swap1\n      jump\t// out\n        /* \"protocol/Market.sol\":902:947  mapping(address => Position) public positions */\n    tag_137:\n      mstore(0x20, 0x01)\n      dup1\n      0x00\n      mstore\n      keccak256(0x00, 0x40)\n      0x00\n      swap2\n      pop\n      swap1\n      pop\n      dup1\n      0x00\n      add\n      sload\n      swap1\n      dup1\n      0x01\n      add\n      sload\n      swap1\n      dup1\n      0x02\n      add\n      sload\n      swap1\n      pop\n      dup4\n      jump\t// out\n        /* \"protocol/Market.sol\":5432:5777  function withdrawCollateral(uint amount) external {... */\n    tag_143:\n        /* \"protocol/Market.sol\":5509:5510  0 */\n      0x00\n        /* \"protocol/Market.sol\":5500:5506  amount */\n      dup2\n        /* \"protocol/Market.sol\":5500:5510  amount > 0 */\n      gt\n        /* \"protocol/Market.sol\":5492:5511  require(amount > 0) */\n      tag_366\n      jumpi\n      revert(0x00, 0x00)\n    tag_366:\n        /* \"protocol/Market.sol\":5521:5537  accrueInterest() */\n      tag_367\n        /* \"protocol/Market.sol\":5521:5535  accrueInterest */\n      tag_191\n        /* \"protocol/Market.sol\":5521:5537  accrueInterest() */\n      jump\t// in\n    tag_367:\n        /* \"protocol/Market.sol\":5548:5566  Position storage p */\n      0x00\n        /* \"protocol/Market.sol\":5569:5578  positions */\n      0x01\n        /* \"protocol/Market.sol\":5569:5590  positions[msg.sender] */\n      0x00\n        /* \"protocol/Market.sol\":5579:5589  msg.sender */\n      caller\n        /* \"protocol/Market.sol\":5569:5590  positions[msg.sender] */\n      0xffffffffffffffffffffffffffffffffffffffff\n      and\n      0xffffffffffffffffffffffffffffffffffffffff\n      and\n      dup2\n      mstore\n      0x20\n      add\n      swap1\n      dup2\n      mstore\n      0x20\n      add\n      0x00\n      keccak256\n        /* \"protocol/Market.sol\":5548:5590  Position storage p = positions[msg.sender] */\n      swap1\n      pop\n        /* \"protocol/Market.sol\":5618:5619  p */\n      dup1\n        /* \"protocol/Market.sol\":5618:5636  p.collateralShares */\n      0x00\n      add\n      sload\n        /* \"protocol/Market.sol\":5608:5614  amount */\n      dup3\n        /* \"protocol/Market.sol\":5608:5636  amount <= p.collateralShares */\n      gt\n      iszero\n        /* \"protocol/Market.sol\":5600:5637  require(amount <= p.collateralShares) */\n      tag_368\n      jumpi\n      revert(0x00, 0x00)\n    tag_368:\n        /* \"protocol/Market.sol\":5669:5675  amount */\n      dup2\n        /* \"protocol/Market.sol\":5647:5648  p */\n      dup2\n        /* \"protocol/Market.sol\":5647:5665  p.collateralShares */\n      0x00\n      add\n      0x00\n        /* \"protocol/Market.sol\":5647:5675  p.collateralShares -= amount */\n      dup3\n      dup3\n      sload\n      tag_369\n      swap2\n      swap1\n      tag_269\n      jump\t// in\n    tag_369:\n      swap3\n      pop\n      pop\n      dup2\n      swap1\n      sstore\n      pop\n        /* \"protocol/Market.sol\":5693:5715  _isHealthy(msg.sender) */\n      tag_370\n        /* \"protocol/Market.sol\":5704:5714  msg.sender */\n      caller\n        /* \"protocol/Market.sol\":5693:5703  _isHealthy */\n      tag_182\n        /* \"protocol/Market.sol\":5693:5715  _isHealthy(msg.sender) */\n      jump\t// in\n    tag_370:\n        /* \"protocol/Market.sol\":5685:5716  require(_isHealthy(msg.sender)) */\n      tag_371\n      jumpi\n      revert(0x00, 0x00)\n    tag_371:\n        /* \"protocol/Market.sol\":5726:5741  collateralToken */\n      0x03\n      0x00\n      swap1\n      sload\n      swap1\n      0x0100\n      exp\n      swap1\n      div\n      0xffffffffffffffffffffffffffffffffffffffff\n      and\n        /* \"protocol/Market.sol\":5726:5750  collateralToken.transfer */\n      0xffffffffffffffffffffffffffffffffffffffff\n      and\n      0xa9059cbb\n        /* \"protocol/Market.sol\":5751:5761  msg.sender */\n      caller\n        /* \"protocol/Market.sol\":5763:5769  amount */\n      dup5\n        /* \"protocol/Market.sol\":5726:5770  collateralToken.transfer(msg.sender, amount) */\n      mload(0x40)\n      dup4\n      0xffffffff\n      and\n      0xe0\n      shl\n      dup2\n      mstore\n      0x04\n      add\n      tag_372\n      swap3\n      swap2\n      swap1\n      tag_272\n      jump\t// in\n    tag_372:\n      0x20\n      mload(0x40)\n      dup1\n      dup4\n      sub\n      dup2\n      0x00\n      dup8\n      gas\n      call\n      iszero\n      dup1\n      iszero\n      tag_374\n      jumpi\n      returndatacopy(0x00, 0x00, returndatasize)\n      revert(0x00, returndatasize)\n    tag_374:\n      pop\n      pop\n      pop\n      pop\n      mload(0x40)\n      returndatasize\n      not(0x1f)\n      0x1f\n      dup3\n      add\n      and\n      dup3\n      add\n      dup1\n      0x40\n      mstore\n      pop\n      dup2\n      add\n      swap1\n      tag_375\n      swap2\n      swap1\n      tag_276\n      jump\t// in\n    tag_375:\n      pop\n        /* \"protocol/Market.sol\":5482:5777  {... */\n      pop\n        /* \"protocol/Market.sol\":5432:5777  function withdrawCollateral(uint amount) external {... */\n      pop\n      jump\t// out\n        /* \"protocol/Market.sol\":1513:1536  address public treasury */\n    tag_146:\n      0x09\n      0x00\n      swap1\n      sload\n      swap1\n      0x0100\n      exp\n      swap1\n      div\n      0xffffffffffffffffffffffffffffffffffffffff\n      and\n      dup2\n      jump\t// out\n        /* \"protocol/Market.sol\":5783:5993  function healthFactor(address borrower) public view returns (uint) {... */\n    tag_151:\n        /* \"protocol/Market.sol\":5844:5848  uint */\n      0x00\n        /* \"protocol/Market.sol\":5860:5868  uint ltv */\n      0x00\n        /* \"protocol/Market.sol\":5871:5895  currentLltvBps(borrower) */\n      tag_377\n        /* \"protocol/Market.sol\":5886:5894  borrower */\n      dup4\n        /* \"protocol/Market.sol\":5871:5885  currentLltvBps */\n      tag_164\n        /* \"protocol/Market.sol\":5871:5895  currentLltvBps(borrower) */\n      jump\t// in\n    tag_377:\n        /* \"protocol/Market.sol\":5860:5895  uint ltv = currentLltvBps(borrower) */\n      swap1\n      pop\n        /* \"protocol/Market.sol\":5916:5917  0 */\n      0x00\n        /* \"protocol/Market.sol\":5909:5912  ltv */\n      dup2\n        /* \"protocol/Market.sol\":5909:5917  ltv == 0 */\n      sub\n        /* \"protocol/Market.sol\":5905:5940  if (ltv == 0) return type(uint).max */\n      tag_378\n      jumpi\n        /* \"protocol/Market.sol\":5926:5940  type(uint).max */\n      0xffffffffffffffffffffffffffffffffffffffffffffffffffffffffffffffff\n        /* \"protocol/Market.sol\":5919:5940  return type(uint).max */\n      swap2\n      pop\n      pop\n      jump(tag_376)\n        /* \"protocol/Market.sol\":5905:5940  if (ltv == 0) return type(uint).max */\n    tag_378:\n        /* \"protocol/Market.sol\":5983:5986  ltv */\n      dup1\n        /* \"protocol/Market.sol\":454:458  1e18 */\n      0x0de0b6b3a7640000\n        /* \"protocol/Market.sol\":5958:5965  lltvBps */\n      sload(0x0a)\n        /* \"protocol/Market.sol\":5958:5979  lltvBps * INDEX_SCALE */\n      tag_379\n      swap2\n      swap1\n      tag_250\n      jump\t// in\n    tag_379:\n        /* \"protocol/Market.sol\":5957:5986  (lltvBps * INDEX_SCALE) / ltv */\n      tag_380\n      swap2\n      swap1\n      tag_252\n      jump\t// in\n    tag_380:\n        /* \"protocol/Market.sol\":5950:5986  return (lltvBps * INDEX_SCALE) / ltv */\n      swap2\n      pop\n      pop\n        /* \"protocol/Market.sol\":5783:5993  function healthFactor(address borrower) public view returns (uint) {... */\n    tag_376:\n      swap2\n      swap1\n      pop\n      jump\t// out\n        /* \"protocol/Market.sol\":3256:3444  function availableLiquidity() public view returns (uint) {... */\n    tag_155:\n        /* \"protocol/Market.sol\":3307:3311  uint */\n      0x00\n        /* \"protocol/Market.sol\":3323:3331  uint bal */\n      0x00\n        /* \"protocol/Market.sol\":3334:3343  loanToken */\n      0x02\n      0x00\n      swap1\n      sload\n      swap1\n      0x0100\n      exp\n      swap1\n      div\n      0xffffffffffffffffffffffffffffffffffffffff\n      and\n        /* \"protocol/Market.sol\":3334:3353  loanToken.balanceOf */\n      0xffffffffffffffffffffffffffffffffffffffff\n      and\n      0x70a08231\n        /* \"protocol/Market.sol\":3362:3366  this */\n      address\n        /* \"protocol/Market.sol\":3334:3368  loanToken.balanceOf(address(this)) */\n      mload(0x40)\n      dup3\n      0xffffffff\n      and\n      0xe0\n      shl\n      dup2\n      mstore\n      0x04\n      add\n      tag_382\n      swap2\n      swap1\n      tag_115\n      jump\t// in\n    tag_382:\n      0x20\n      mload(0x40)\n      dup1\n      dup4\n      sub\n      dup2\n      dup7\n      gas\n      staticcall\n      iszero\n      dup1\n      iszero\n      tag_384\n      jumpi\n      returndatacopy(0x00, 0x00, returndatasize)\n      revert(0x00, returndatasize)\n    tag_384:\n      pop\n      pop\n      pop\n      pop\n      mload(0x40)\n      returndatasize\n      not(0x1f)\n      0x1f\n      dup3\n      add\n      and\n      dup3\n      add\n      dup1\n      0x40\n      mstore\n      pop\n      dup2\n      add\n      swap1\n      tag_385\n      swap2\n      swap1\n      tag_386\n      jump\t// in\n    tag_385:\n        /* \"protocol/Market.sol\":3323:3368  uint bal = loanToken.balanceOf(address(this)) */\n      swap1\n      pop\n        /* \"protocol/Market.sol\":3392:3408  protocolReserves */\n      sload(0x11)\n        /* \"protocol/Market.sol\":3385:3388  bal */\n      dup2\n        /* \"protocol/Market.sol\":3385:3408  bal <= protocolReserves */\n      gt\n      iszero\n        /* \"protocol/Market.sol\":3385:3437  bal <= protocolReserves ? 0 : bal - protocolReserves */\n      tag_387\n      jumpi\n        /* \"protocol/Market.sol\":3421:3437  protocolReserves */\n      sload(0x11)\n        /* \"protocol/Market.sol\":3415:3418  bal */\n      dup2\n        /* \"protocol/Market.sol\":3415:3437  bal - protocolReserves */\n      tag_388\n      swap2\n      swap1\n      tag_269\n      jump\t// in\n    tag_388:\n        /* \"protocol/Market.sol\":3385:3437  bal <= protocolReserves ? 0 : bal - protocolReserves */\n      jump(tag_389)\n    tag_387:\n        /* \"protocol/Market.sol\":3411:3412  0 */\n      0x00\n        /* \"protocol/Market.sol\":3385:3437  bal <= protocolReserves ? 0 : bal - protocolReserves */\n    tag_389:\n        /* \"protocol/Market.sol\":3378:3437  return bal <= protocolReserves ? 0 : bal - protocolReserves */\n      swap2\n      pop\n      pop\n        /* \"protocol/Market.sol\":3256:3444  function availableLiquidity() public view returns (uint) {... */\n      swap1\n      jump\t// out\n        /* \"protocol/Market.sol\":1426:1449  string public shareName */\n    tag_159:\n      0x06\n      dup1\n      sload\n      tag_390\n      swap1\n      tag_343\n      jump\t// in\n    tag_390:\n      dup1\n      0x1f\n      add\n      0x20\n      dup1\n      swap2\n      div\n      mul\n      0x20\n      add\n      mload(0x40)\n      swap1\n      dup2\n      add\n      0x40\n      mstore\n      dup1\n      swap3\n      swap2\n      swap1\n      dup2\n      dup2\n      mstore\n      0x20\n      add\n      dup3\n      dup1\n      sload\n      tag_391\n      swap1\n      tag_343\n      jump\t// in\n    tag_391:\n      dup1\n      iszero\n      tag_392\n      jumpi\n      dup1\n      0x1f\n      lt\n      tag_393\n      jumpi\n      0x0100\n      dup1\n      dup4\n      sload\n      div\n      mul\n      dup4\n      mstore\n      swap2\n      0x20\n      add\n      swap2\n      jump(tag_392)\n    tag_393:\n      dup3\n      add\n      swap2\n      swap1\n      0x00\n      mstore\n      keccak256(0x00, 0x20)\n      swap1\n    tag_394:\n      dup2\n      sload\n      dup2\n      mstore\n      swap1\n      0x01\n      add\n      swap1\n      0x20\n      add\n      dup1\n      dup4\n      gt\n      tag_394\n      jumpi\n      dup3\n      swap1\n      sub\n      0x1f\n      and\n      dup3\n      add\n      swap2\n    tag_392:\n      pop\n      pop\n      pop\n      pop\n      pop\n      dup2\n      jump\t// out\n        /* \"protocol/Market.sol\":4776:5234  function currentLltvBps(address borrower) public view returns (uint) {... */\n    tag_164:\n        /* \"protocol/Market.sol\":4839:4843  uint */\n      0x00\n        /* \"protocol/Market.sol\":4883:4884  0 */\n      0x00\n        /* \"protocol/Market.sol\":4863:4885  borrower != address(0) */\n      0xffffffffffffffffffffffffffffffffffffffff\n      and\n        /* \"protocol/Market.sol\":4863:4871  borrower */\n      dup3\n        /* \"protocol/Market.sol\":4863:4885  borrower != address(0) */\n      0xffffffffffffffffffffffffffffffffffffffff\n      and\n      sub\n        /* \"protocol/Market.sol\":4855:4886  require(borrower != address(0)) */\n      tag_396\n      jumpi\n      revert(0x00, 0x00)\n    tag_396:\n        /* \"protocol/Market.sol\":4896:4905  uint debt */\n      0x00\n        /* \"protocol/Market.sol\":4908:4924  debtOf(borrower) */\n      tag_397\n        /* \"protocol/Market.sol\":4915:4923  borrower */\n      dup4\n        /* \"protocol/Market.sol\":4908:4914  debtOf */\n      tag_225\n        /* \"protocol/Market.sol\":4908:4924  debtOf(borrower) */\n      jump\t// in\n    tag_397:\n        /* \"protocol/Market.sol\":4896:4924  uint debt = debtOf(borrower) */\n      swap1\n      pop\n        /* \"protocol/Market.sol\":4934:4952  Position storage p */\n      0x00\n        /* \"protocol/Market.sol\":4955:4964  positions */\n      0x01\n        /* \"protocol/Market.sol\":4955:4974  positions[borrower] */\n      0x00\n        /* \"protocol/Market.sol\":4965:4973  borrower */\n      dup6\n        /* \"protocol/Market.sol\":4955:4974  positions[borrower] */\n      0xffffffffffffffffffffffffffffffffffffffff\n      and\n      0xffffffffffffffffffffffffffffffffffffffff\n      and\n      dup2\n      mstore\n      0x20\n      add\n      swap1\n      dup2\n      mstore\n      0x20\n      add\n      0x00\n      keccak256\n        /* \"protocol/Market.sol\":4934:4974  Position storage p = positions[borrower] */\n      swap1\n      pop\n        /* \"protocol/Market.sol\":4996:4997  0 */\n      0x00\n        /* \"protocol/Market.sol\":4988:4992  debt */\n      dup3\n        /* \"protocol/Market.sol\":4988:4997  debt == 0 */\n      sub\n        /* \"protocol/Market.sol\":4984:5007  if (debt == 0) return 0 */\n      tag_398\n      jumpi\n        /* \"protocol/Market.sol\":5006:5007  0 */\n      0x00\n        /* \"protocol/Market.sol\":4999:5007  return 0 */\n      swap3\n      pop\n      pop\n      pop\n      jump(tag_395)\n        /* \"protocol/Market.sol\":4984:5007  if (debt == 0) return 0 */\n    tag_398:\n        /* \"protocol/Market.sol\":5043:5044  0 */\n      0x00\n        /* \"protocol/Market.sol\":5021:5022  p */\n      dup2\n        /* \"protocol/Market.sol\":5021:5039  p.collateralShares */\n      0x00\n      add\n      sload\n        /* \"protocol/Market.sol\":5021:5044  p.collateralShares == 0 */\n      sub\n        /* \"protocol/Market.sol\":5017:5067  if (p.collateralShares == 0) return type(uint).max */\n      tag_399\n      jumpi\n        /* \"protocol/Market.sol\":5053:5067  type(uint).max */\n      0xffffffffffffffffffffffffffffffffffffffffffffffffffffffffffffffff\n        /* \"protocol/Market.sol\":5046:5067  return type(uint).max */\n      swap3\n      pop\n      pop\n      pop\n      jump(tag_395)\n        /* \"protocol/Market.sol\":5017:5067  if (p.collateralShares == 0) return type(uint).max */\n    tag_399:\n        /* \"protocol/Market.sol\":5185:5191  oracle */\n      0x04\n      0x00\n      swap1\n      sload\n      swap1\n      0x0100\n      exp\n      swap1\n      div\n      0xffffffffffffffffffffffffffffffffffffffff\n      and\n        /* \"protocol/Market.sol\":5185:5200  oracle.getPrice */\n      0xffffffffffffffffffffffffffffffffffffffff\n      and\n      0x41976e09\n        /* \"protocol/Market.sol\":5209:5224  collateralToken */\n      0x03\n      0x00\n      swap1\n      sload\n      swap1\n      0x0100\n      exp\n      swap1\n      div\n      0xffffffffffffffffffffffffffffffffffffffff\n      and\n        /* \"protocol/Market.sol\":5185:5226  oracle.getPrice(address(collateralToken)) */\n      mload(0x40)\n      dup3\n      0xffffffff\n      and\n      0xe0\n      shl\n      dup2\n      mstore\n      0x04\n      add\n      tag_400\n      swap2\n      swap1\n      tag_115\n      jump\t// in\n    tag_400:\n      0x20\n      mload(0x40)\n      dup1\n      dup4\n      sub\n      dup2\n      dup7\n      gas\n      staticcall\n      iszero\n      dup1\n      iszero\n      tag_402\n      jumpi\n      returndatacopy(0x00, 0x00, returndatasize)\n      revert(0x00, returndatasize)\n    tag_402:\n      pop\n      pop\n      pop\n      pop\n      mload(0x40)\n      returndatasize\n      not(0x1f)\n      0x1f\n      dup3\n      add\n      and\n      dup3\n      add\n      dup1\n      0x40\n      mstore\n      pop\n      dup2\n      add\n      swap1\n      tag_403\n      swap2\n      swap1\n      tag_386\n      jump\t// in\n    tag_403:\n        /* \"protocol/Market.sol\":5164:5165  p */\n      dup2\n        /* \"protocol/Market.sol\":5164:5182  p.collateralShares */\n      0x00\n      add\n      sload\n        /* \"protocol/Market.sol\":5164:5226  p.collateralShares * oracle.getPrice(address(collateralToken)) */\n      tag_404\n      swap2\n      swap1\n      tag_250\n      jump\t// in\n    tag_404:\n        /* \"protocol/Market.sol\":5142:5147  10000 */\n      0x2710\n        /* \"protocol/Market.sol\":5104:5110  oracle */\n      0x04\n      0x00\n      swap1\n      sload\n      swap1\n      0x0100\n      exp\n      swap1\n      div\n      0xffffffffffffffffffffffffffffffffffffffff\n      and\n        /* \"protocol/Market.sol\":5104:5119  oracle.getPrice */\n      0xffffffffffffffffffffffffffffffffffffffff\n      and\n      0x41976e09\n        /* \"protocol/Market.sol\":5128:5137  loanToken */\n      0x02\n      0x00\n      swap1\n      sload\n      swap1\n      0x0100\n      exp\n      swap1\n      div\n      0xffffffffffffffffffffffffffffffffffffffff\n      and\n        /* \"protocol/Market.sol\":5104:5139  oracle.getPrice(address(loanToken)) */\n      mload(0x40)\n      dup3\n      0xffffffff\n      and\n      0xe0\n      shl\n      dup2\n      mstore\n      0x04\n      add\n      tag_405\n      swap2\n      swap1\n      tag_115\n      jump\t// in\n    tag_405:\n      0x20\n      mload(0x40)\n      dup1\n      dup4\n      sub\n      dup2\n      dup7\n      gas\n      staticcall\n      iszero\n      dup1\n      iszero\n      tag_407\n      jumpi\n      returndatacopy(0x00, 0x00, returndatasize)\n      revert(0x00, returndatasize)\n    tag_407:\n      pop\n      pop\n      pop\n      pop\n      mload(0x40)\n      returndatasize\n      not(0x1f)\n      0x1f\n      dup3\n      add\n      and\n      dup3\n      add\n      dup1\n      0x40\n      mstore\n      pop\n      dup2\n      add\n      swap1\n      tag_408\n      swap2\n      swap1\n      tag_386\n      jump\t// in\n    tag_408:\n        /* \"protocol/Market.sol\":5097:5101  debt */\n      dup5\n        /* \"protocol/Market.sol\":5097:5139  debt * oracle.getPrice(address(loanToken)) */\n      tag_409\n      swap2\n      swap1\n      tag_250\n      jump\t// in\n    tag_409:\n        /* \"protocol/Market.sol\":5097:5147  debt * oracle.getPrice(address(loanToken)) * 10000 */\n      tag_410\n      swap2\n      swap1\n      tag_250\n      jump\t// in\n    tag_410:\n        /* \"protocol/Market.sol\":5096:5227  (debt * oracle.getPrice(address(loanToken)) * 10000) /... */\n      tag_411\n      swap2\n      swap1\n      tag_252\n      jump\t// in\n    tag_411:\n        /* \"protocol/Market.sol\":5077:5227  return... */\n      swap3\n      pop\n      pop\n      pop\n        /* \"protocol/Market.sol\":4776:5234  function currentLltvBps(address borrower) public view returns (uint) {... */\n    tag_395:\n      swap2\n      swap1\n      pop\n      jump\t// out\n        /* \"protocol/Market.sol\":1568:1592  uint public interestRate */\n    tag_168:\n      sload(0x0b)\n      dup2\n      jump\t// out\n        /* \"protocol/Market.sol\":1373:1394  IOracle public oracle */\n    tag_172:\n      0x04\n      0x00\n      swap1\n      sload\n      swap1\n      0x0100\n      exp\n      swap1\n      div\n      0xffffffffffffffffffffffffffffffffffffffff\n      and\n      dup2\n      jump\t// out\n        /* \"acess/Ownable.sol\":133:153  address public owner */\n    tag_177:\n      0x00\n      0x02\n      swap1\n      sload\n      swap1\n      0x0100\n      exp\n      swap1\n      div\n      0xffffffffffffffffffffffffffffffffffffffff\n      and\n      dup2\n      jump\t// out\n        /* \"protocol/Market.sol\":4056:4179  function _isHealthy(address borrower) public view returns (bool) {... */\n    tag_182:\n        /* \"protocol/Market.sol\":4115:4119  bool */\n      0x00\n        /* \"protocol/Market.sol\":4165:4172  lltvBps */\n      sload(0x0a)\n        /* \"protocol/Market.sol\":4138:4162  currentLltvBps(borrower) */\n      tag_413\n        /* \"protocol/Market.sol\":4153:4161  borrower */\n      dup4\n        /* \"protocol/Market.sol\":4138:4152  currentLltvBps */\n      tag_164\n        /* \"protocol/Market.sol\":4138:4162  currentLltvBps(borrower) */\n      jump\t// in\n    tag_413:\n        /* \"protocol/Market.sol\":4138:4172  currentLltvBps(borrower) < lltvBps */\n      lt\n        /* \"protocol/Market.sol\":4131:4172  return currentLltvBps(borrower) < lltvBps */\n      swap1\n      pop\n        /* \"protocol/Market.sol\":4056:4179  function _isHealthy(address borrower) public view returns (bool) {... */\n      swap2\n      swap1\n      pop\n      jump\t// out\n        /* \"protocol/Market.sol\":1598:1623  uint public blocksPerYear */\n    tag_187:\n      sload(0x0c)\n      dup2\n      jump\t// out\n        /* \"protocol/Market.sol\":2871:3250  function accrueInterest() public {... */\n    tag_191:\n        /* \"protocol/Market.sol\":2934:2949  lastAccrueBlock */\n      sload(0x0e)\n        /* \"protocol/Market.sol\":2918:2930  block.number */\n      number\n        /* \"protocol/Market.sol\":2918:2949  block.number == lastAccrueBlock */\n      sub\n        /* \"protocol/Market.sol\":2914:2958  if (block.number == lastAccrueBlock) return; */\n      iszero\n        /* \"protocol/Market.sol\":2951:2958  return; */\n      tag_414\n        /* \"protocol/Market.sol\":2914:2958  if (block.number == lastAccrueBlock) return; */\n      jumpi\n        /* \"protocol/Market.sol\":2991:2992  0 */\n      0x00\n        /* \"protocol/Market.sol\":2971:2988  totalBorrowShares */\n      sload(0x12)\n        /* \"protocol/Market.sol\":2971:2992  totalBorrowShares > 0 */\n      gt\n        /* \"protocol/Market.sol\":2967:3204  if (totalBorrowShares > 0) {... */\n      iszero\n      tag_416\n      jumpi\n        /* \"protocol/Market.sol\":3008:3024  uint deltaBlocks */\n      0x00\n        /* \"protocol/Market.sol\":3042:3057  lastAccrueBlock */\n      sload(0x0e)\n        /* \"protocol/Market.sol\":3027:3039  block.number */\n      number\n        /* \"protocol/Market.sol\":3027:3057  block.number - lastAccrueBlock */\n      tag_417\n      swap2\n      swap1\n      tag_269\n      jump\t// in\n    tag_417:\n        /* \"protocol/Market.sol\":3008:3057  uint deltaBlocks = block.number - lastAccrueBlock */\n      swap1\n      pop\n        /* \"protocol/Market.sol\":3071:3082  uint growth */\n      0x00\n        /* \"protocol/Market.sol\":3116:3129  blocksPerYear */\n      sload(0x0c)\n        /* \"protocol/Market.sol\":3101:3112  deltaBlocks */\n      dup3\n        /* \"protocol/Market.sol\":3086:3098  interestRate */\n      sload(0x0b)\n        /* \"protocol/Market.sol\":3086:3112  interestRate * deltaBlocks */\n      tag_418\n      swap2\n      swap1\n      tag_250\n      jump\t// in\n    tag_418:\n        /* \"protocol/Market.sol\":3085:3129  (interestRate * deltaBlocks) / blocksPerYear */\n      tag_419\n      swap2\n      swap1\n      tag_252\n      jump\t// in\n    tag_419:\n        /* \"protocol/Market.sol\":3071:3129  uint growth = (interestRate * deltaBlocks) / blocksPerYear */\n      swap1\n      pop\n        /* \"protocol/Market.sol\":454:458  1e18 */\n      0x0de0b6b3a7640000\n        /* \"protocol/Market.sol\":3172:3178  growth */\n      dup2\n        /* \"protocol/Market.sol\":3158:3169  borrowIndex */\n      sload(0x0f)\n        /* \"protocol/Market.sol\":3158:3178  borrowIndex * growth */\n      tag_420\n      swap2\n      swap1\n      tag_250\n      jump\t// in\n    tag_420:\n        /* \"protocol/Market.sol\":3157:3193  (borrowIndex * growth) / INDEX_SCALE */\n      tag_421\n      swap2\n      swap1\n      tag_252\n      jump\t// in\n    tag_421:\n        /* \"protocol/Market.sol\":3143:3154  borrowIndex */\n      0x0f\n        /* \"protocol/Market.sol\":3143:3193  borrowIndex = (borrowIndex * growth) / INDEX_SCALE */\n      dup2\n      swap1\n      sstore\n      pop\n        /* \"protocol/Market.sol\":2994:3204  {... */\n      pop\n      pop\n        /* \"protocol/Market.sol\":2967:3204  if (totalBorrowShares > 0) {... */\n    tag_416:\n        /* \"protocol/Market.sol\":3231:3243  block.number */\n      number\n        /* \"protocol/Market.sol\":3213:3228  lastAccrueBlock */\n      sload(0x0e)\n        /* \"protocol/Market.sol\":3213:3243  lastAccrueBlock - block.number */\n      tag_422\n      swap2\n      swap1\n      tag_269\n      jump\t// in\n    tag_422:\n      pop\n        /* \"protocol/Market.sol\":2871:3250  function accrueInterest() public {... */\n    tag_414:\n      jump\t// out\n        /* \"protocol/Market.sol\":1699:1722  uint public borrowIndex */\n    tag_194:\n      sload(0x0f)\n      dup2\n      jump\t// out\n        /* \"protocol/Market.sol\":1830:2865  function initialize(... */\n    tag_200:\n        /* \"utils/Init.sol\":1076:1088  _initialized */\n      0x00\n      0x00\n      swap1\n      sload\n      swap1\n      0x0100\n      exp\n      swap1\n      div\n      0xff\n      and\n        /* \"utils/Init.sol\":1075:1088  !_initialized */\n      iszero\n        /* \"utils/Init.sol\":1075:1105  !_initialized || _initializing */\n      dup1\n      tag_424\n      jumpi\n      pop\n        /* \"utils/Init.sol\":1092:1105  _initializing */\n      0x00\n      0x01\n      swap1\n      sload\n      swap1\n      0x0100\n      exp\n      swap1\n      div\n      0xff\n      and\n        /* \"utils/Init.sol\":1075:1105  !_initialized || _initializing */\n    tag_424:\n        /* \"utils/Init.sol\":1067:1129  require(!_initialized || _initializing, \"ALREADY_INITIALIZED\") */\n      tag_425\n      jumpi\n      mload(0x40)\n      0x08c379a000000000000000000000000000000000000000000000000000000000\n      dup2\n      mstore\n      0x04\n      add\n      tag_426\n      swap1\n      tag_427\n      jump\t// in\n    tag_426:\n      mload(0x40)\n      dup1\n      swap2\n      sub\n      swap1\n      revert\n    tag_425:\n        /* \"utils/Init.sol\":1139:1154  bool isTopLevel */\n      0x00\n        /* \"utils/Init.sol\":1158:1171  _initializing */\n      0x00\n      0x01\n      swap1\n      sload\n      swap1\n      0x0100\n      exp\n      swap1\n      div\n      0xff\n      and\n        /* \"utils/Init.sol\":1157:1171  !_initializing */\n      iszero\n        /* \"utils/Init.sol\":1139:1171  bool isTopLevel = !_initializing */\n      swap1\n      pop\n        /* \"utils/Init.sol\":1186:1196  isTopLevel */\n      dup1\n        /* \"utils/Init.sol\":1182:1244  if (isTopLevel) { _initializing = true; _initialized = true; } */\n      iszero\n      tag_428\n      jumpi\n        /* \"utils/Init.sol\":1216:1220  true */\n      0x01\n        /* \"utils/Init.sol\":1200:1213  _initializing */\n      0x00\n      0x01\n        /* \"utils/Init.sol\":1200:1220  _initializing = true */\n      0x0100\n      exp\n      dup2\n      sload\n      dup2\n      0xff\n      mul\n      not\n      and\n      swap1\n      dup4\n      iszero\n      iszero\n      mul\n      or\n      swap1\n      sstore\n      pop\n        /* \"utils/Init.sol\":1237:1241  true */\n      0x01\n        /* \"utils/Init.sol\":1222:1234  _initialized */\n      0x00\n      0x00\n        /* \"utils/Init.sol\":1222:1241  _initialized = true */\n      0x0100\n      exp\n      dup2\n      sload\n      dup2\n      0xff\n      mul\n      not\n      and\n      swap1\n      dup4\n      iszero\n      iszero\n      mul\n      or\n      swap1\n      sstore\n      pop\n        /* \"utils/Init.sol\":1182:1244  if (isTopLevel) { _initializing = true; _initialized = true; } */\n    tag_428:\n        /* \"protocol/Market.sol\":2013:2014  0 */\n      0x00\n        /* \"protocol/Market.sol\":1994:2015  p.vault != address(0) */\n      0xffffffffffffffffffffffffffffffffffffffff\n      and\n        /* \"protocol/Market.sol\":1994:1995  p */\n      dup7\n        /* \"protocol/Market.sol\":1994:2001  p.vault */\n      0xc0\n      add\n      0x20\n      dup2\n      add\n      swap1\n      tag_430\n      swap2\n      swap1\n      tag_63\n      jump\t// in\n    tag_430:\n        /* \"protocol/Market.sol\":1994:2015  p.vault != address(0) */\n      0xffffffffffffffffffffffffffffffffffffffff\n      and\n      sub\n        /* \"protocol/Market.sol\":1986:2016  require(p.vault != address(0)) */\n      tag_431\n      jumpi\n      revert(0x00, 0x00)\n    tag_431:\n        /* \"protocol/Market.sol\":2057:2058  0 */\n      0x00\n        /* \"protocol/Market.sol\":2034:2059  p.loanToken != address(0) */\n      0xffffffffffffffffffffffffffffffffffffffff\n      and\n        /* \"protocol/Market.sol\":2034:2035  p */\n      dup7\n        /* \"protocol/Market.sol\":2034:2045  p.loanToken */\n      0x60\n      add\n      0x20\n      dup2\n      add\n      swap1\n      tag_432\n      swap2\n      swap1\n      tag_63\n      jump\t// in\n    tag_432:\n        /* \"protocol/Market.sol\":2034:2059  p.loanToken != address(0) */\n      0xffffffffffffffffffffffffffffffffffffffff\n      and\n      sub\n        /* \"protocol/Market.sol\":2026:2060  require(p.loanToken != address(0)) */\n      tag_433\n      jumpi\n      revert(0x00, 0x00)\n    tag_433:\n        /* \"protocol/Market.sol\":2107:2108  0 */\n      0x00\n        /* \"protocol/Market.sol\":2078:2109  p.collateralToken != address(0) */\n      0xffffffffffffffffffffffffffffffffffffffff\n      and\n        /* \"protocol/Market.sol\":2078:2079  p */\n      dup7\n        /* \"protocol/Market.sol\":2078:2095  p.collateralToken */\n      0x80\n      add\n      0x20\n      dup2\n      add\n      swap1\n      tag_434\n      swap2\n      swap1\n      tag_63\n      jump\t// in\n    tag_434:\n        /* \"protocol/Market.sol\":2078:2109  p.collateralToken != address(0) */\n      0xffffffffffffffffffffffffffffffffffffffff\n      and\n      sub\n        /* \"protocol/Market.sol\":2070:2110  require(p.collateralToken != address(0)) */\n      tag_435\n      jumpi\n      revert(0x00, 0x00)\n    tag_435:\n        /* \"protocol/Market.sol\":2148:2149  0 */\n      0x00\n        /* \"protocol/Market.sol\":2128:2150  p.oracle != address(0) */\n      0xffffffffffffffffffffffffffffffffffffffff\n      and\n        /* \"protocol/Market.sol\":2128:2129  p */\n      dup7\n        /* \"protocol/Market.sol\":2128:2136  p.oracle */\n      0xa0\n      add\n      0x20\n      dup2\n      add\n      swap1\n      tag_436\n      swap2\n      swap1\n      tag_63\n      jump\t// in\n    tag_436:\n        /* \"protocol/Market.sol\":2128:2150  p.oracle != address(0) */\n      0xffffffffffffffffffffffffffffffffffffffff\n      and\n      sub\n        /* \"protocol/Market.sol\":2120:2151  require(p.oracle != address(0)) */\n      tag_437\n      jumpi\n      revert(0x00, 0x00)\n    tag_437:\n        /* \"protocol/Market.sol\":2185:2186  0 */\n      0x00\n        /* \"protocol/Market.sol\":2169:2182  blocksPerYear */\n      sload(0x0c)\n        /* \"protocol/Market.sol\":2169:2186  blocksPerYear > 0 */\n      gt\n        /* \"protocol/Market.sol\":2161:2187  require(blocksPerYear > 0) */\n      tag_438\n      jumpi\n      revert(0x00, 0x00)\n    tag_438:\n        /* \"protocol/Market.sol\":2230:2235  10000 */\n      0x2710\n        /* \"protocol/Market.sol\":2205:2206  p */\n      dup7\n        /* \"protocol/Market.sol\":2205:2226  p.liquidationBonusBps */\n      0x0140\n      add\n      calldataload\n        /* \"protocol/Market.sol\":2205:2235  p.liquidationBonusBps <= 10000 */\n      gt\n      iszero\n        /* \"protocol/Market.sol\":2197:2236  require(p.liquidationBonusBps <= 10000) */\n      tag_439\n      jumpi\n      revert(0x00, 0x00)\n    tag_439:\n        /* \"protocol/Market.sol\":2267:2273  100000 */\n      0x0186a0\n        /* \"protocol/Market.sol\":2254:2255  p */\n      dup7\n        /* \"protocol/Market.sol\":2254:2263  p.lltvBps */\n      0xe0\n      add\n      calldataload\n        /* \"protocol/Market.sol\":2254:2273  p.lltvBps <= 100000 */\n      gt\n      iszero\n        /* \"protocol/Market.sol\":2246:2274  require(p.lltvBps <= 100000) */\n      tag_440\n      jumpi\n      revert(0x00, 0x00)\n    tag_440:\n        /* \"protocol/Market.sol\":2285:2308  __Ownable_init(p.owner) */\n      tag_441\n        /* \"protocol/Market.sol\":2300:2301  p */\n      dup7\n        /* \"protocol/Market.sol\":2300:2307  p.owner */\n      0x00\n      add\n      0x20\n      dup2\n      add\n      swap1\n      tag_442\n      swap2\n      swap1\n      tag_63\n      jump\t// in\n    tag_442:\n        /* \"protocol/Market.sol\":2285:2299  __Ownable_init */\n      tag_443\n        /* \"protocol/Market.sol\":2285:2308  __Ownable_init(p.owner) */\n      jump\t// in\n    tag_441:\n        /* \"protocol/Market.sol\":2327:2333  title_ */\n      dup5\n      dup5\n        /* \"protocol/Market.sol\":2319:2324  title */\n      0x05\n        /* \"protocol/Market.sol\":2319:2333  title = title_ */\n      swap2\n      dup3\n      tag_444\n      swap3\n      swap2\n      swap1\n      tag_445\n      jump\t// in\n    tag_444:\n      pop\n        /* \"protocol/Market.sol\":2355:2365  shareName_ */\n      dup3\n      dup3\n        /* \"protocol/Market.sol\":2343:2352  shareName */\n      0x06\n        /* \"protocol/Market.sol\":2343:2365  shareName = shareName_ */\n      swap2\n      dup3\n      tag_446\n      swap3\n      swap2\n      swap1\n      tag_445\n      jump\t// in\n    tag_446:\n      pop\n        /* \"protocol/Market.sol\":2395:2396  p */\n      dup6\n        /* \"protocol/Market.sol\":2395:2406  p.loanToken */\n      0x60\n      add\n      0x20\n      dup2\n      add\n      swap1\n      tag_447\n      swap2\n      swap1\n      tag_63\n      jump\t// in\n    tag_447:\n        /* \"protocol/Market.sol\":2376:2385  loanToken */\n      0x02\n      0x00\n        /* \"protocol/Market.sol\":2376:2407  loanToken = IERC20(p.loanToken) */\n      0x0100\n      exp\n      dup2\n      sload\n      dup2\n      0xffffffffffffffffffffffffffffffffffffffff\n      mul\n      not\n      and\n      swap1\n      dup4\n      0xffffffffffffffffffffffffffffffffffffffff\n      and\n      mul\n      or\n      swap1\n      sstore\n      pop\n        /* \"protocol/Market.sol\":2442:2443  p */\n      dup6\n        /* \"protocol/Market.sol\":2442:2459  p.collateralToken */\n      0x80\n      add\n      0x20\n      dup2\n      add\n      swap1\n      tag_448\n      swap2\n      swap1\n      tag_63\n      jump\t// in\n    tag_448:\n        /* \"protocol/Market.sol\":2417:2432  collateralToken */\n      0x03\n      0x00\n        /* \"protocol/Market.sol\":2417:2460  collateralToken = IERC20(p.collateralToken) */\n      0x0100\n      exp\n      dup2\n      sload\n      dup2\n      0xffffffffffffffffffffffffffffffffffffffff\n      mul\n      not\n      and\n      swap1\n      dup4\n      0xffffffffffffffffffffffffffffffffffffffff\n      and\n      mul\n      or\n      swap1\n      sstore\n      pop\n        /* \"protocol/Market.sol\":2487:2488  p */\n      dup6\n        /* \"protocol/Market.sol\":2487:2495  p.oracle */\n      0xa0\n      add\n      0x20\n      dup2\n      add\n      swap1\n      tag_449\n      swap2\n      swap1\n      tag_63\n      jump\t// in\n    tag_449:\n        /* \"protocol/Market.sol\":2470:2476  oracle */\n      0x04\n      0x00\n        /* \"protocol/Market.sol\":2470:2496  oracle = IOracle(p.oracle) */\n      0x0100\n      exp\n      dup2\n      sload\n      dup2\n      0xffffffffffffffffffffffffffffffffffffffff\n      mul\n      not\n      and\n      swap1\n      dup4\n      0xffffffffffffffffffffffffffffffffffffffff\n      and\n      mul\n      or\n      swap1\n      sstore\n      pop\n        /* \"protocol/Market.sol\":2515:2516  p */\n      dup6\n        /* \"protocol/Market.sol\":2515:2522  p.vault */\n      0xc0\n      add\n      0x20\n      dup2\n      add\n      swap1\n      tag_450\n      swap2\n      swap1\n      tag_63\n      jump\t// in\n    tag_450:\n        /* \"protocol/Market.sol\":2507:2512  vault */\n      0x08\n      0x00\n        /* \"protocol/Market.sol\":2507:2522  vault = p.vault */\n      0x0100\n      exp\n      dup2\n      sload\n      dup2\n      0xffffffffffffffffffffffffffffffffffffffff\n      mul\n      not\n      and\n      swap1\n      dup4\n      0xffffffffffffffffffffffffffffffffffffffff\n      and\n      mul\n      or\n      swap1\n      sstore\n      pop\n        /* \"protocol/Market.sol\":2543:2544  p */\n      dup6\n        /* \"protocol/Market.sol\":2543:2553  p.treasury */\n      0x40\n      add\n      0x20\n      dup2\n      add\n      swap1\n      tag_451\n      swap2\n      swap1\n      tag_63\n      jump\t// in\n    tag_451:\n        /* \"protocol/Market.sol\":2532:2540  treasury */\n      0x09\n      0x00\n        /* \"protocol/Market.sol\":2532:2553  treasury = p.treasury */\n      0x0100\n      exp\n      dup2\n      sload\n      dup2\n      0xffffffffffffffffffffffffffffffffffffffff\n      mul\n      not\n      and\n      swap1\n      dup4\n      0xffffffffffffffffffffffffffffffffffffffff\n      and\n      mul\n      or\n      swap1\n      sstore\n      pop\n        /* \"protocol/Market.sol\":2576:2577  p */\n      dup6\n        /* \"protocol/Market.sol\":2576:2588  p.liquidator */\n      0x20\n      add\n      0x20\n      dup2\n      add\n      swap1\n      tag_452\n      swap2\n      swap1\n      tag_63\n      jump\t// in\n    tag_452:\n        /* \"protocol/Market.sol\":2563:2573  liquidator */\n      0x07\n      0x00\n        /* \"protocol/Market.sol\":2563:2588  liquidator = p.liquidator */\n      0x0100\n      exp\n      dup2\n      sload\n      dup2\n      0xffffffffffffffffffffffffffffffffffffffff\n      mul\n      not\n      and\n      swap1\n      dup4\n      0xffffffffffffffffffffffffffffffffffffffff\n      and\n      mul\n      or\n      swap1\n      sstore\n      pop\n        /* \"protocol/Market.sol\":2609:2610  p */\n      dup6\n        /* \"protocol/Market.sol\":2609:2618  p.lltvBps */\n      0xe0\n      add\n      calldataload\n        /* \"protocol/Market.sol\":2599:2606  lltvBps */\n      0x0a\n        /* \"protocol/Market.sol\":2599:2618  lltvBps = p.lltvBps */\n      dup2\n      swap1\n      sstore\n      pop\n        /* \"protocol/Market.sol\":2646:2658  block.number */\n      number\n        /* \"protocol/Market.sol\":2628:2643  lastAccrueBlock */\n      0x0e\n        /* \"protocol/Market.sol\":2628:2658  lastAccrueBlock = block.number */\n      dup2\n      swap1\n      sstore\n      pop\n        /* \"protocol/Market.sol\":2684:2685  p */\n      dup6\n        /* \"protocol/Market.sol\":2684:2699  p.blocksPerYear */\n      0x0120\n      add\n      calldataload\n        /* \"protocol/Market.sol\":2668:2681  blocksPerYear */\n      0x0c\n        /* \"protocol/Market.sol\":2668:2699  blocksPerYear = p.blocksPerYear */\n      dup2\n      swap1\n      sstore\n      pop\n        /* \"protocol/Market.sol\":2724:2725  p */\n      dup6\n        /* \"protocol/Market.sol\":2724:2738  p.interestRate */\n      0x0100\n      add\n      calldataload\n        /* \"protocol/Market.sol\":2709:2721  interestRate */\n      0x0b\n        /* \"protocol/Market.sol\":2709:2738  interestRate = p.interestRate */\n      dup2\n      swap1\n      sstore\n      pop\n        /* \"protocol/Market.sol\":454:458  1e18 */\n      0x0de0b6b3a7640000\n        /* \"protocol/Market.sol\":2748:2759  borrowIndex */\n      0x0f\n        /* \"protocol/Market.sol\":2748:2773  borrowIndex = INDEX_SCALE */\n      dup2\n      swap1\n      sstore\n      pop\n        /* \"protocol/Market.sol\":2805:2806  p */\n      dup6\n        /* \"protocol/Market.sol\":2805:2826  p.liquidationBonusBps */\n      0x0140\n      add\n      calldataload\n        /* \"protocol/Market.sol\":2783:2802  liquidationBonusBps */\n      0x0d\n        /* \"protocol/Market.sol\":2783:2826  liquidationBonusBps = p.liquidationBonusBps */\n      dup2\n      swap1\n      sstore\n      pop\n        /* \"protocol/Market.sol\":2853:2858  30000 */\n      0x7530\n        /* \"protocol/Market.sol\":2836:2850  protocolFeeBps */\n      0x10\n        /* \"protocol/Market.sol\":2836:2858  protocolFeeBps = 30000 */\n      dup2\n      swap1\n      sstore\n      pop\n        /* \"utils/Init.sol\":1270:1280  isTopLevel */\n      dup1\n        /* \"utils/Init.sol\":1266:1303  if (isTopLevel) _initializing = false */\n      iszero\n      tag_453\n      jumpi\n        /* \"utils/Init.sol\":1298:1303  false */\n      0x00\n        /* \"utils/Init.sol\":1282:1295  _initializing */\n      0x00\n      0x01\n        /* \"utils/Init.sol\":1282:1303  _initializing = false */\n      0x0100\n      exp\n      dup2\n      sload\n      dup2\n      0xff\n      mul\n      not\n      and\n      swap1\n      dup4\n      iszero\n      iszero\n      mul\n      or\n      swap1\n      sstore\n      pop\n        /* \"utils/Init.sol\":1266:1303  if (isTopLevel) _initializing = false */\n    tag_453:\n        /* \"utils/Init.sol\":1057:1310  {... */\n      pop\n        /* \"protocol/Market.sol\":1830:2865  function initialize(... */\n      pop\n      pop\n      pop\n      pop\n      pop\n      jump\t// out\n        /* \"protocol/Market.sol\":1338:1367  IERC20 public collateralToken */\n    tag_203:\n      0x03\n      0x00\n      swap1\n      sload\n      swap1\n      0x0100\n      exp\n      swap1\n      div\n      0xffffffffffffffffffffffffffffffffffffffff\n      and\n      dup2\n      jump\t// out\n        /* \"protocol/Market.sol\":1543:1562  uint public lltvBps */\n    tag_207:\n      sload(0x0a)\n      dup2\n      jump\t// out\n        /* \"protocol/Market.sol\":5999:6446  function borrow(uint amount) external {... */\n    tag_212:\n        /* \"protocol/Market.sol\":6064:6065  0 */\n      0x00\n        /* \"protocol/Market.sol\":6055:6061  amount */\n      dup2\n        /* \"protocol/Market.sol\":6055:6065  amount > 0 */\n      gt\n        /* \"protocol/Market.sol\":6047:6066  require(amount > 0) */\n      tag_455\n      jumpi\n      revert(0x00, 0x00)\n    tag_455:\n        /* \"protocol/Market.sol\":6076:6092  accrueInterest() */\n      tag_456\n        /* \"protocol/Market.sol\":6076:6090  accrueInterest */\n      tag_191\n        /* \"protocol/Market.sol\":6076:6092  accrueInterest() */\n      jump\t// in\n    tag_456:\n        /* \"protocol/Market.sol\":6121:6141  availableLiquidity() */\n      tag_457\n        /* \"protocol/Market.sol\":6121:6139  availableLiquidity */\n      tag_155\n        /* \"protocol/Market.sol\":6121:6141  availableLiquidity() */\n      jump\t// in\n    tag_457:\n        /* \"protocol/Market.sol\":6111:6117  amount */\n      dup2\n        /* \"protocol/Market.sol\":6111:6141  amount <= availableLiquidity() */\n      gt\n      iszero\n        /* \"protocol/Market.sol\":6103:6142  require(amount <= availableLiquidity()) */\n      tag_458\n      jumpi\n      revert(0x00, 0x00)\n    tag_458:\n        /* \"protocol/Market.sol\":6152:6170  Position storage p */\n      0x00\n        /* \"protocol/Market.sol\":6173:6182  positions */\n      0x01\n        /* \"protocol/Market.sol\":6173:6194  positions[msg.sender] */\n      0x00\n        /* \"protocol/Market.sol\":6183:6193  msg.sender */\n      caller\n        /* \"protocol/Market.sol\":6173:6194  positions[msg.sender] */\n      0xffffffffffffffffffffffffffffffffffffffff\n      and\n      0xffffffffffffffffffffffffffffffffffffffff\n      and\n      dup2\n      mstore\n      0x20\n      add\n      swap1\n      dup2\n      mstore\n      0x20\n      add\n      0x00\n      keccak256\n        /* \"protocol/Market.sol\":6152:6194  Position storage p = positions[msg.sender] */\n      swap1\n      pop\n        /* \"protocol/Market.sol\":6204:6215  uint shares */\n      0x00\n        /* \"protocol/Market.sol\":6218:6248  _sharesForBorrowAmount(amount) */\n      tag_459\n        /* \"protocol/Market.sol\":6241:6247  amount */\n      dup4\n        /* \"protocol/Market.sol\":6218:6240  _sharesForBorrowAmount */\n      tag_57\n        /* \"protocol/Market.sol\":6218:6248  _sharesForBorrowAmount(amount) */\n      jump\t// in\n    tag_459:\n        /* \"protocol/Market.sol\":6204:6248  uint shares = _sharesForBorrowAmount(amount) */\n      swap1\n      pop\n        /* \"protocol/Market.sol\":6276:6282  shares */\n      dup1\n        /* \"protocol/Market.sol\":6258:6259  p */\n      dup3\n        /* \"protocol/Market.sol\":6258:6272  p.borrowShares */\n      0x01\n      add\n      0x00\n        /* \"protocol/Market.sol\":6258:6282  p.borrowShares += shares */\n      dup3\n      dup3\n      sload\n      tag_460\n      swap2\n      swap1\n      tag_306\n      jump\t// in\n    tag_460:\n      swap3\n      pop\n      pop\n      dup2\n      swap1\n      sstore\n      pop\n        /* \"protocol/Market.sol\":6307:6313  shares */\n      dup1\n        /* \"protocol/Market.sol\":6292:6293  p */\n      dup3\n        /* \"protocol/Market.sol\":6292:6303  p.principal */\n      0x02\n      add\n      0x00\n        /* \"protocol/Market.sol\":6292:6313  p.principal += shares */\n      dup3\n      dup3\n      sload\n      tag_461\n      swap2\n      swap1\n      tag_306\n      jump\t// in\n    tag_461:\n      swap3\n      pop\n      pop\n      dup2\n      swap1\n      sstore\n      pop\n        /* \"protocol/Market.sol\":6344:6350  shares */\n      dup1\n        /* \"protocol/Market.sol\":6323:6340  totalBorrowShares */\n      0x12\n      0x00\n        /* \"protocol/Market.sol\":6323:6350  totalBorrowShares += shares */\n      dup3\n      dup3\n      sload\n      tag_462\n      swap2\n      swap1\n      tag_306\n      jump\t// in\n    tag_462:\n      swap3\n      pop\n      pop\n      dup2\n      swap1\n      sstore\n      pop\n        /* \"protocol/Market.sol\":6368:6390  _isHealthy(msg.sender) */\n      tag_463\n        /* \"protocol/Market.sol\":6379:6389  msg.sender */\n      caller\n        /* \"protocol/Market.sol\":6368:6378  _isHealthy */\n      tag_182\n        /* \"protocol/Market.sol\":6368:6390  _isHealthy(msg.sender) */\n      jump\t// in\n    tag_463:\n        /* \"protocol/Market.sol\":6360:6391  require(_isHealthy(msg.sender)) */\n      tag_464\n      jumpi\n      revert(0x00, 0x00)\n    tag_464:\n        /* \"protocol/Market.sol\":6401:6410  loanToken */\n      0x02\n      0x00\n      swap1\n      sload\n      swap1\n      0x0100\n      exp\n      swap1\n      div\n      0xffffffffffffffffffffffffffffffffffffffff\n      and\n        /* \"protocol/Market.sol\":6401:6419  loanToken.transfer */\n      0xffffffffffffffffffffffffffffffffffffffff\n      and\n      0xa9059cbb\n        /* \"protocol/Market.sol\":6420:6430  msg.sender */\n      caller\n        /* \"protocol/Market.sol\":6432:6438  amount */\n      dup6\n        /* \"protocol/Market.sol\":6401:6439  loanToken.transfer(msg.sender, amount) */\n      mload(0x40)\n      dup4\n      0xffffffff\n      and\n      0xe0\n      shl\n      dup2\n      mstore\n      0x04\n      add\n      tag_465\n      swap3\n      swap2\n      swap1\n      tag_272\n      jump\t// in\n    tag_465:\n      0x20\n      mload(0x40)\n      dup1\n      dup4\n      sub\n      dup2\n      0x00\n      dup8\n      gas\n      call\n      iszero\n      dup1\n      iszero\n      tag_467\n      jumpi\n      returndatacopy(0x00, 0x00, returndatasize)\n      revert(0x00, returndatasize)\n    tag_467:\n      pop\n      pop\n      pop\n      pop\n      mload(0x40)\n      returndatasize\n      not(0x1f)\n      0x1f\n      dup3\n      add\n      and\n      dup3\n      add\n      dup1\n      0x40\n      mstore\n      pop\n      dup2\n      add\n      swap1\n      tag_468\n      swap2\n      swap1\n      tag_276\n      jump\t// in\n    tag_468:\n      pop\n        /* \"protocol/Market.sol\":6037:6446  {... */\n      pop\n      pop\n        /* \"protocol/Market.sol\":5999:6446  function borrow(uint amount) external {... */\n      pop\n      jump\t// out\n        /* \"protocol/Market.sol\":4662:4770  function assetManage() public view returns (uint) {... */\n    tag_215:\n        /* \"protocol/Market.sol\":4706:4710  uint */\n      0x00\n        /* \"protocol/Market.sol\":4752:4763  totalDebt() */\n      tag_470\n        /* \"protocol/Market.sol\":4752:4761  totalDebt */\n      tag_245\n        /* \"protocol/Market.sol\":4752:4763  totalDebt() */\n      jump\t// in\n    tag_470:\n        /* \"protocol/Market.sol\":4729:4749  availableLiquidity() */\n      tag_471\n        /* \"protocol/Market.sol\":4729:4747  availableLiquidity */\n      tag_155\n        /* \"protocol/Market.sol\":4729:4749  availableLiquidity() */\n      jump\t// in\n    tag_471:\n        /* \"protocol/Market.sol\":4729:4763  availableLiquidity() + totalDebt() */\n      tag_472\n      swap2\n      swap1\n      tag_306\n      jump\t// in\n    tag_472:\n        /* \"protocol/Market.sol\":4722:4763  return availableLiquidity() + totalDebt() */\n      swap1\n      pop\n        /* \"protocol/Market.sol\":4662:4770  function assetManage() public view returns (uint) {... */\n      swap1\n      jump\t// out\n        /* \"protocol/Market.sol\":8276:8624  function setRiskParams(... */\n    tag_221:\n        /* \"acess/Ownable.sol\":213:218  owner */\n      0x00\n      0x02\n      swap1\n      sload\n      swap1\n      0x0100\n      exp\n      swap1\n      div\n      0xffffffffffffffffffffffffffffffffffffffff\n      and\n        /* \"acess/Ownable.sol\":199:218  msg.sender == owner */\n      0xffffffffffffffffffffffffffffffffffffffff\n      and\n        /* \"acess/Ownable.sol\":199:209  msg.sender */\n      caller\n        /* \"acess/Ownable.sol\":199:218  msg.sender == owner */\n      0xffffffffffffffffffffffffffffffffffffffff\n      and\n      eq\n        /* \"acess/Ownable.sol\":191:219  require(msg.sender == owner) */\n      tag_474\n      jumpi\n      revert(0x00, 0x00)\n    tag_474:\n        /* \"protocol/Market.sol\":8448:8453  10000 */\n      0x2710\n        /* \"protocol/Market.sol\":8434:8444  newLltvBps */\n      dup4\n        /* \"protocol/Market.sol\":8434:8453  newLltvBps <= 10000 */\n      gt\n      iszero\n        /* \"protocol/Market.sol\":8426:8454  require(newLltvBps <= 10000) */\n      tag_476\n      jumpi\n      revert(0x00, 0x00)\n    tag_476:\n        /* \"protocol/Market.sol\":8486:8491  10000 */\n      0x2710\n        /* \"protocol/Market.sol\":8472:8482  newLltvBps */\n      dup4\n        /* \"protocol/Market.sol\":8472:8491  newLltvBps <= 10000 */\n      gt\n      iszero\n        /* \"protocol/Market.sol\":8464:8492  require(newLltvBps <= 10000) */\n      tag_477\n      jumpi\n      revert(0x00, 0x00)\n    tag_477:\n        /* \"protocol/Market.sol\":8513:8523  newLltvBps */\n      dup3\n        /* \"protocol/Market.sol\":8503:8510  lltvBps */\n      0x0a\n        /* \"protocol/Market.sol\":8503:8523  lltvBps = newLltvBps */\n      dup2\n      swap1\n      sstore\n      pop\n        /* \"protocol/Market.sol\":8548:8563  newInterestRate */\n      dup2\n        /* \"protocol/Market.sol\":8533:8545  interestRate */\n      0x0b\n        /* \"protocol/Market.sol\":8533:8563  interestRate = newInterestRate */\n      dup2\n      swap1\n      sstore\n      pop\n        /* \"protocol/Market.sol\":8595:8617  newLiquidationBonusBps */\n      dup1\n        /* \"protocol/Market.sol\":8573:8592  liquidationBonusBps */\n      0x0d\n        /* \"protocol/Market.sol\":8573:8617  liquidationBonusBps = newLiquidationBonusBps */\n      dup2\n      swap1\n      sstore\n      pop\n        /* \"protocol/Market.sol\":8276:8624  function setRiskParams(... */\n      pop\n      pop\n      pop\n      jump\t// out\n        /* \"protocol/Market.sol\":4395:4656  function debtOf(address borrower) public view returns (uint) {... */\n    tag_225:\n        /* \"protocol/Market.sol\":4450:4454  uint */\n      0x00\n        /* \"protocol/Market.sol\":4494:4495  0 */\n      0x00\n        /* \"protocol/Market.sol\":4474:4496  borrower != address(0) */\n      0xffffffffffffffffffffffffffffffffffffffff\n      and\n        /* \"protocol/Market.sol\":4474:4482  borrower */\n      dup3\n        /* \"protocol/Market.sol\":4474:4496  borrower != address(0) */\n      0xffffffffffffffffffffffffffffffffffffffff\n      and\n      sub\n        /* \"protocol/Market.sol\":4466:4497  require(borrower != address(0)) */\n      tag_479\n      jumpi\n      revert(0x00, 0x00)\n    tag_479:\n        /* \"protocol/Market.sol\":4508:4519  uint shares */\n      0x00\n        /* \"protocol/Market.sol\":4522:4531  positions */\n      0x01\n        /* \"protocol/Market.sol\":4522:4541  positions[borrower] */\n      0x00\n        /* \"protocol/Market.sol\":4532:4540  borrower */\n      dup5\n        /* \"protocol/Market.sol\":4522:4541  positions[borrower] */\n      0xffffffffffffffffffffffffffffffffffffffff\n      and\n      0xffffffffffffffffffffffffffffffffffffffff\n      and\n      dup2\n      mstore\n      0x20\n      add\n      swap1\n      dup2\n      mstore\n      0x20\n      add\n      0x00\n      keccak256\n        /* \"protocol/Market.sol\":4522:4554  positions[borrower].borrowShares */\n      0x01\n      add\n      sload\n        /* \"protocol/Market.sol\":4508:4554  uint shares = positions[borrower].borrowShares */\n      swap1\n      pop\n        /* \"protocol/Market.sol\":4593:4594  0 */\n      0x00\n        /* \"protocol/Market.sol\":4583:4589  shares */\n      dup2\n        /* \"protocol/Market.sol\":4583:4594  shares == 0 */\n      eq\n        /* \"protocol/Market.sol\":4583:4649  shares == 0 ? 0 : (shares * _projectedBorrowIndex()) / INDEX_SCALE */\n      tag_480\n      jumpi\n        /* \"protocol/Market.sol\":454:458  1e18 */\n      0x0de0b6b3a7640000\n        /* \"protocol/Market.sol\":4611:4634  _projectedBorrowIndex() */\n      tag_481\n        /* \"protocol/Market.sol\":4611:4632  _projectedBorrowIndex */\n      tag_482\n        /* \"protocol/Market.sol\":4611:4634  _projectedBorrowIndex() */\n      jump\t// in\n    tag_481:\n        /* \"protocol/Market.sol\":4602:4608  shares */\n      dup3\n        /* \"protocol/Market.sol\":4602:4634  shares * _projectedBorrowIndex() */\n      tag_483\n      swap2\n      swap1\n      tag_250\n      jump\t// in\n    tag_483:\n        /* \"protocol/Market.sol\":4601:4649  (shares * _projectedBorrowIndex()) / INDEX_SCALE */\n      tag_484\n      swap2\n      swap1\n      tag_252\n      jump\t// in\n    tag_484:\n        /* \"protocol/Market.sol\":4583:4649  shares == 0 ? 0 : (shares * _projectedBorrowIndex()) / INDEX_SCALE */\n      jump(tag_485)\n    tag_480:\n        /* \"protocol/Market.sol\":4597:4598  0 */\n      0x00\n        /* \"protocol/Market.sol\":4583:4649  shares == 0 ? 0 : (shares * _projectedBorrowIndex()) / INDEX_SCALE */\n    tag_485:\n        /* \"protocol/Market.sol\":4564:4649  return... */\n      swap2\n      pop\n      pop\n        /* \"protocol/Market.sol\":4395:4656  function debtOf(address borrower) public view returns (uint) {... */\n      swap2\n      swap1\n      pop\n      jump\t// out\n        /* \"acess/Ownable.sol\":394:532  function ownershipTransfer(address newOwner) external onlyOwner {... */\n    tag_230:\n        /* \"acess/Ownable.sol\":213:218  owner */\n      0x00\n      0x02\n      swap1\n      sload\n      swap1\n      0x0100\n      exp\n      swap1\n      div\n      0xffffffffffffffffffffffffffffffffffffffff\n      and\n        /* \"acess/Ownable.sol\":199:218  msg.sender == owner */\n      0xffffffffffffffffffffffffffffffffffffffff\n      and\n        /* \"acess/Ownable.sol\":199:209  msg.sender */\n      caller\n        /* \"acess/Ownable.sol\":199:218  msg.sender == owner */\n      0xffffffffffffffffffffffffffffffffffffffff\n      and\n      eq\n        /* \"acess/Ownable.sol\":191:219  require(msg.sender == owner) */\n      tag_487\n      jumpi\n      revert(0x00, 0x00)\n    tag_487:\n        /* \"acess/Ownable.sol\":496:497  0 */\n      0x00\n        /* \"acess/Ownable.sol\":476:498  newOwner != address(0) */\n      0xffffffffffffffffffffffffffffffffffffffff\n      and\n        /* \"acess/Ownable.sol\":476:484  newOwner */\n      dup2\n        /* \"acess/Ownable.sol\":476:498  newOwner != address(0) */\n      0xffffffffffffffffffffffffffffffffffffffff\n      and\n      sub\n        /* \"acess/Ownable.sol\":468:499  require(newOwner != address(0)) */\n      tag_489\n      jumpi\n      revert(0x00, 0x00)\n    tag_489:\n        /* \"acess/Ownable.sol\":517:525  newOwner */\n      dup1\n        /* \"acess/Ownable.sol\":509:514  owner */\n      0x00\n      0x02\n        /* \"acess/Ownable.sol\":509:525  owner = newOwner */\n      0x0100\n      exp\n      dup2\n      sload\n      dup2\n      0xffffffffffffffffffffffffffffffffffffffff\n      mul\n      not\n      and\n      swap1\n      dup4\n      0xffffffffffffffffffffffffffffffffffffffff\n      and\n      mul\n      or\n      swap1\n      sstore\n      pop\n        /* \"acess/Ownable.sol\":394:532  function ownershipTransfer(address newOwner) external onlyOwner {... */\n      pop\n      jump\t// out\n        /* \"protocol/Market.sol\":1760:1788  uint public protocolReserves */\n    tag_233:\n      sload(0x11)\n      dup2\n      jump\t// out\n        /* \"protocol/Market.sol\":8744:8844  function setTreasury(address newTreasury) external onlyOwner {... */\n    tag_238:\n        /* \"acess/Ownable.sol\":213:218  owner */\n      0x00\n      0x02\n      swap1\n      sload\n      swap1\n      0x0100\n      exp\n      swap1\n      div\n      0xffffffffffffffffffffffffffffffffffffffff\n      and\n        /* \"acess/Ownable.sol\":199:218  msg.sender == owner */\n      0xffffffffffffffffffffffffffffffffffffffff\n      and\n        /* \"acess/Ownable.sol\":199:209  msg.sender */\n      caller\n        /* \"acess/Ownable.sol\":199:218  msg.sender == owner */\n      0xffffffffffffffffffffffffffffffffffffffff\n      and\n      eq\n        /* \"acess/Ownable.sol\":191:219  require(msg.sender == owner) */\n      tag_491\n      jumpi\n      revert(0x00, 0x00)\n    tag_491:\n        /* \"protocol/Market.sol\":8826:8837  newTreasury */\n      dup1\n        /* \"protocol/Market.sol\":8815:8823  treasury */\n      0x09\n      0x00\n        /* \"protocol/Market.sol\":8815:8837  treasury = newTreasury */\n      0x0100\n      exp\n      dup2\n      sload\n      dup2\n      0xffffffffffffffffffffffffffffffffffffffff\n      mul\n      not\n      and\n      swap1\n      dup4\n      0xffffffffffffffffffffffffffffffffffffffff\n      and\n      mul\n      or\n      swap1\n      sstore\n      pop\n        /* \"protocol/Market.sol\":8744:8844  function setTreasury(address newTreasury) external onlyOwner {... */\n      pop\n      jump\t// out\n        /* \"protocol/Market.sol\":1487:1507  address public vault */\n    tag_241:\n      0x08\n      0x00\n      swap1\n      sload\n      swap1\n      0x0100\n      exp\n      swap1\n      div\n      0xffffffffffffffffffffffffffffffffffffffff\n      and\n      dup2\n      jump\t// out\n        /* \"protocol/Market.sol\":4185:4389  function totalDebt() public view returns (uint) {... */\n    tag_245:\n        /* \"protocol/Market.sol\":4227:4231  uint */\n      0x00\n        /* \"protocol/Market.sol\":4283:4284  0 */\n      0x00\n        /* \"protocol/Market.sol\":4262:4279  totalBorrowShares */\n      sload(0x12)\n        /* \"protocol/Market.sol\":4262:4284  totalBorrowShares == 0 */\n      eq\n        /* \"protocol/Market.sol\":4262:4382  totalBorrowShares == 0... */\n      tag_494\n      jumpi\n        /* \"protocol/Market.sol\":454:458  1e18 */\n      0x0de0b6b3a7640000\n        /* \"protocol/Market.sol\":4344:4367  _projectedBorrowIndex() */\n      tag_495\n        /* \"protocol/Market.sol\":4344:4365  _projectedBorrowIndex */\n      tag_482\n        /* \"protocol/Market.sol\":4344:4367  _projectedBorrowIndex() */\n      jump\t// in\n    tag_495:\n        /* \"protocol/Market.sol\":4324:4341  totalBorrowShares */\n      sload(0x12)\n        /* \"protocol/Market.sol\":4324:4367  totalBorrowShares * _projectedBorrowIndex() */\n      tag_496\n      swap2\n      swap1\n      tag_250\n      jump\t// in\n    tag_496:\n        /* \"protocol/Market.sol\":4323:4382  (totalBorrowShares * _projectedBorrowIndex()) / INDEX_SCALE */\n      tag_497\n      swap2\n      swap1\n      tag_252\n      jump\t// in\n    tag_497:\n        /* \"protocol/Market.sol\":4262:4382  totalBorrowShares == 0... */\n      jump(tag_498)\n    tag_494:\n        /* \"protocol/Market.sol\":4303:4304  0 */\n      0x00\n        /* \"protocol/Market.sol\":4262:4382  totalBorrowShares == 0... */\n    tag_498:\n        /* \"protocol/Market.sol\":4243:4382  return... */\n      swap1\n      pop\n        /* \"protocol/Market.sol\":4185:4389  function totalDebt() public view returns (uint) {... */\n      swap1\n      jump\t// out\n        /* \"proxy/UUPSUpgradeable.sol\":2514:2693  function _getImplementation() internal view returns (address impl) {... */\n    tag_290:\n        /* \"proxy/UUPSUpgradeable.sol\":2567:2579  address impl */\n      0x00\n        /* \"proxy/UUPSUpgradeable.sol\":2591:2603  bytes32 slot */\n      0x00\n        /* \"proxy/UUPSUpgradeable.sol\":793:859  0x360894A13BA1A3210667C828492DB98DCA3E2076CC3735A920A3CA505D382BBC */\n      0x360894a13ba1a3210667c828492db98dca3e2076cc3735a920a3ca505d382bbc\n        /* \"proxy/UUPSUpgradeable.sol\":2606:2625  IMPLEMENTATION_SLOT */\n      0x00\n      shl\n        /* \"proxy/UUPSUpgradeable.sol\":2591:2625  bytes32 slot = IMPLEMENTATION_SLOT */\n      swap1\n      pop\n        /* \"proxy/UUPSUpgradeable.sol\":2672:2676  slot */\n      dup1\n        /* \"proxy/UUPSUpgradeable.sol\":2666:2677  sload(slot) */\n      sload\n        /* \"proxy/UUPSUpgradeable.sol\":2658:2677  impl := sload(slot) */\n      swap2\n      pop\n        /* \"proxy/UUPSUpgradeable.sol\":2644:2687  {... */\n      pop\n        /* \"proxy/UUPSUpgradeable.sol\":2514:2693  function _getImplementation() internal view returns (address impl) {... */\n      swap1\n      jump\t// out\n        /* \"protocol/Market.sol\":8850:8916  function _authorizeUpgrade(address) internal override onlyOwner {} */\n    tag_296:\n        /* \"acess/Ownable.sol\":213:218  owner */\n      0x00\n      0x02\n      swap1\n      sload\n      swap1\n      0x0100\n      exp\n      swap1\n      div\n      0xffffffffffffffffffffffffffffffffffffffff\n      and\n        /* \"acess/Ownable.sol\":199:218  msg.sender == owner */\n      0xffffffffffffffffffffffffffffffffffffffff\n      and\n        /* \"acess/Ownable.sol\":199:209  msg.sender */\n      caller\n        /* \"acess/Ownable.sol\":199:218  msg.sender == owner */\n      0xffffffffffffffffffffffffffffffffffffffff\n      and\n      eq\n        /* \"acess/Ownable.sol\":191:219  require(msg.sender == owner) */\n      tag_501\n      jumpi\n      revert(0x00, 0x00)\n    tag_501:\n        /* \"protocol/Market.sol\":8850:8916  function _authorizeUpgrade(address) internal override onlyOwner {} */\n      pop\n      jump\t// out\n        /* \"proxy/UUPSUpgradeable.sol\":2809:3197  function _upgradeToAndCall(address newImplementation, bytes memory data, bool forceCall) internal {... */\n    tag_298:\n        /* \"proxy/UUPSUpgradeable.sol\":2954:2955  0 */\n      0x00\n        /* \"proxy/UUPSUpgradeable.sol\":2925:2956  newImplementation != address(0) */\n      0xffffffffffffffffffffffffffffffffffffffff\n      and\n        /* \"proxy/UUPSUpgradeable.sol\":2925:2942  newImplementation */\n      dup4\n        /* \"proxy/UUPSUpgradeable.sol\":2925:2956  newImplementation != address(0) */\n      0xffffffffffffffffffffffffffffffffffffffff\n      and\n      sub\n        /* \"proxy/UUPSUpgradeable.sol\":2917:2970  require(newImplementation != address(0), \"ZERO_IMPL\") */\n      tag_504\n      jumpi\n      mload(0x40)\n      0x08c379a000000000000000000000000000000000000000000000000000000000\n      dup2\n      mstore\n      0x04\n      add\n      tag_505\n      swap1\n      tag_506\n      jump\t// in\n    tag_505:\n      mload(0x40)\n      dup1\n      swap2\n      sub\n      swap1\n      revert\n    tag_504:\n        /* \"proxy/UUPSUpgradeable.sol\":2980:3017  _setImplementation(newImplementation) */\n      tag_507\n        /* \"proxy/UUPSUpgradeable.sol\":2999:3016  newImplementation */\n      dup4\n        /* \"proxy/UUPSUpgradeable.sol\":2980:2998  _setImplementation */\n      tag_508\n        /* \"proxy/UUPSUpgradeable.sol\":2980:3017  _setImplementation(newImplementation) */\n      jump\t// in\n    tag_507:\n        /* \"proxy/UUPSUpgradeable.sol\":3032:3041  forceCall */\n      dup1\n        /* \"proxy/UUPSUpgradeable.sol\":3032:3060  forceCall || data.length > 0 */\n      dup1\n      tag_509\n      jumpi\n      pop\n        /* \"proxy/UUPSUpgradeable.sol\":3059:3060  0 */\n      0x00\n        /* \"proxy/UUPSUpgradeable.sol\":3045:3049  data */\n      dup3\n        /* \"proxy/UUPSUpgradeable.sol\":3045:3056  data.length */\n      mload\n        /* \"proxy/UUPSUpgradeable.sol\":3045:3060  data.length > 0 */\n      gt\n        /* \"proxy/UUPSUpgradeable.sol\":3032:3060  forceCall || data.length > 0 */\n    tag_509:\n        /* \"proxy/UUPSUpgradeable.sol\":3028:3191  if (forceCall || data.length > 0) {... */\n      iszero\n      tag_510\n      jumpi\n        /* \"proxy/UUPSUpgradeable.sol\":3077:3084  bool ok */\n      0x00\n        /* \"proxy/UUPSUpgradeable.sol\":3086:3102  bytes memory err */\n      0x00\n        /* \"proxy/UUPSUpgradeable.sol\":3106:3123  newImplementation */\n      dup5\n        /* \"proxy/UUPSUpgradeable.sol\":3106:3136  newImplementation.delegatecall */\n      0xffffffffffffffffffffffffffffffffffffffff\n      and\n        /* \"proxy/UUPSUpgradeable.sol\":3137:3141  data */\n      dup5\n        /* \"proxy/UUPSUpgradeable.sol\":3106:3142  newImplementation.delegatecall(data) */\n      mload(0x40)\n      tag_511\n      swap2\n      swap1\n      tag_512\n      jump\t// in\n    tag_511:\n      0x00\n      mload(0x40)\n      dup1\n      dup4\n      sub\n      dup2\n      dup6\n      gas\n      delegatecall\n      swap2\n      pop\n      pop\n      returndatasize\n      dup1\n      0x00\n      dup2\n      eq\n      tag_515\n      jumpi\n      mload(0x40)\n      swap2\n      pop\n      and(add(returndatasize, 0x3f), not(0x1f))\n      dup3\n      add\n      0x40\n      mstore\n      returndatasize\n      dup3\n      mstore\n      returndatasize\n      0x00\n      0x20\n      dup5\n      add\n      returndatacopy\n      jump(tag_514)\n    tag_515:\n      0x60\n      swap2\n      pop\n    tag_514:\n      pop\n        /* \"proxy/UUPSUpgradeable.sol\":3076:3142  (bool ok, bytes memory err) = newImplementation.delegatecall(data) */\n      swap2\n      pop\n      swap2\n      pop\n        /* \"proxy/UUPSUpgradeable.sol\":3164:3166  ok */\n      dup2\n        /* \"proxy/UUPSUpgradeable.sol\":3175:3178  err */\n      dup2\n        /* \"proxy/UUPSUpgradeable.sol\":3156:3180  require(ok, string(err)) */\n      swap1\n      tag_516\n      jumpi\n      mload(0x40)\n      0x08c379a000000000000000000000000000000000000000000000000000000000\n      dup2\n      mstore\n      0x04\n      add\n      tag_517\n      swap2\n      swap1\n      tag_120\n      jump\t// in\n    tag_517:\n      mload(0x40)\n      dup1\n      swap2\n      sub\n      swap1\n      revert\n    tag_516:\n      pop\n        /* \"proxy/UUPSUpgradeable.sol\":3062:3191  {... */\n      pop\n      pop\n        /* \"proxy/UUPSUpgradeable.sol\":3028:3191  if (forceCall || data.length > 0) {... */\n    tag_510:\n        /* \"proxy/UUPSUpgradeable.sol\":2809:3197  function _upgradeToAndCall(address newImplementation, bytes memory data, bool forceCall) internal {... */\n      pop\n      pop\n      pop\n      jump\t// out\n        /* \"acess/Ownable.sol\":243:389  function __Ownable_init(address initializeOwner) internal {... */\n    tag_443:\n        /* \"acess/Ownable.sol\":346:347  0 */\n      0x00\n        /* \"acess/Ownable.sol\":319:348  initializeOwner != address(0) */\n      0xffffffffffffffffffffffffffffffffffffffff\n      and\n        /* \"acess/Ownable.sol\":319:334  initializeOwner */\n      dup2\n        /* \"acess/Ownable.sol\":319:348  initializeOwner != address(0) */\n      0xffffffffffffffffffffffffffffffffffffffff\n      and\n      sub\n        /* \"acess/Ownable.sol\":311:349  require(initializeOwner != address(0)) */\n      tag_519\n      jumpi\n      revert(0x00, 0x00)\n    tag_519:\n        /* \"acess/Ownable.sol\":367:382  initializeOwner */\n      dup1\n        /* \"acess/Ownable.sol\":359:364  owner */\n      0x00\n      0x02\n        /* \"acess/Ownable.sol\":359:382  owner = initializeOwner */\n      0x0100\n      exp\n      dup2\n      sload\n      dup2\n      0xffffffffffffffffffffffffffffffffffffffff\n      mul\n      not\n      and\n      swap1\n      dup4\n      0xffffffffffffffffffffffffffffffffffffffff\n      and\n      mul\n      or\n      swap1\n      sstore\n      pop\n        /* \"acess/Ownable.sol\":243:389  function __Ownable_init(address initializeOwner) internal {... */\n      pop\n      jump\t// out\n        /* \"protocol/Market.sol\":3450:3823  function _projectedBorrowIndex() internal view returns (uint index) {... */\n    tag_482:\n        /* \"protocol/Market.sol\":3506:3516  uint index */\n      0x00\n        /* \"protocol/Market.sol\":3536:3547  borrowIndex */\n      sload(0x0f)\n        /* \"protocol/Market.sol\":3528:3547  index = borrowIndex */\n      swap1\n      pop\n        /* \"protocol/Market.sol\":3577:3592  lastAccrueBlock */\n      sload(0x0e)\n        /* \"protocol/Market.sol\":3561:3573  block.number */\n      number\n        /* \"protocol/Market.sol\":3561:3592  block.number == lastAccrueBlock */\n      eq\n        /* \"protocol/Market.sol\":3561:3617  block.number == lastAccrueBlock && totalBorrowShares > 0 */\n      dup1\n      iszero\n      tag_521\n      jumpi\n      pop\n        /* \"protocol/Market.sol\":3616:3617  0 */\n      0x00\n        /* \"protocol/Market.sol\":3596:3613  totalBorrowShares */\n      sload(0x12)\n        /* \"protocol/Market.sol\":3596:3617  totalBorrowShares > 0 */\n      gt\n        /* \"protocol/Market.sol\":3561:3617  block.number == lastAccrueBlock && totalBorrowShares > 0 */\n    tag_521:\n        /* \"protocol/Market.sol\":3557:3817  if (block.number == lastAccrueBlock && totalBorrowShares > 0) {... */\n      iszero\n      tag_522\n      jumpi\n        /* \"protocol/Market.sol\":3633:3649  uint deltaBlocks */\n      0x00\n        /* \"protocol/Market.sol\":3667:3682  lastAccrueBlock */\n      sload(0x0e)\n        /* \"protocol/Market.sol\":3652:3664  block.number */\n      number\n        /* \"protocol/Market.sol\":3652:3682  block.number - lastAccrueBlock */\n      tag_523\n      swap2\n      swap1\n      tag_269\n      jump\t// in\n    tag_523:\n        /* \"protocol/Market.sol\":3633:3682  uint deltaBlocks = block.number - lastAccrueBlock */\n      swap1\n      pop\n        /* \"protocol/Market.sol\":3696:3707  uint growth */\n      0x00\n        /* \"protocol/Market.sol\":3741:3754  blocksPerYear */\n      sload(0x0c)\n        /* \"protocol/Market.sol\":3726:3737  deltaBlocks */\n      dup3\n        /* \"protocol/Market.sol\":3711:3723  interestRate */\n      sload(0x0b)\n        /* \"protocol/Market.sol\":3711:3737  interestRate * deltaBlocks */\n      tag_524\n      swap2\n      swap1\n      tag_250\n      jump\t// in\n    tag_524:\n        /* \"protocol/Market.sol\":3710:3754  (interestRate * deltaBlocks) / blocksPerYear */\n      tag_525\n      swap2\n      swap1\n      tag_252\n      jump\t// in\n    tag_525:\n        /* \"protocol/Market.sol\":3696:3754  uint growth = (interestRate * deltaBlocks) / blocksPerYear */\n      swap1\n      pop\n        /* \"protocol/Market.sol\":454:458  1e18 */\n      0x0de0b6b3a7640000\n        /* \"protocol/Market.sol\":3785:3791  growth */\n      dup2\n        /* \"protocol/Market.sol\":3777:3782  index */\n      dup5\n        /* \"protocol/Market.sol\":3777:3791  index * growth */\n      tag_526\n      swap2\n      swap1\n      tag_250\n      jump\t// in\n    tag_526:\n        /* \"protocol/Market.sol\":3776:3806  (index * growth) / INDEX_SCALE */\n      tag_527\n      swap2\n      swap1\n      tag_252\n      jump\t// in\n    tag_527:\n        /* \"protocol/Market.sol\":3768:3806  index = (index * growth) / INDEX_SCALE */\n      swap3\n      pop\n        /* \"protocol/Market.sol\":3619:3817  {... */\n      pop\n      pop\n        /* \"protocol/Market.sol\":3557:3817  if (block.number == lastAccrueBlock && totalBorrowShares > 0) {... */\n    tag_522:\n        /* \"protocol/Market.sol\":3450:3823  function _projectedBorrowIndex() internal view returns (uint index) {... */\n      swap1\n      jump\t// out\n        /* \"proxy/UUPSUpgradeable.sol\":3266:3453  function _setImplementation(address newImplementation) private {... */\n    tag_508:\n        /* \"proxy/UUPSUpgradeable.sol\":3339:3351  bytes32 slot */\n      0x00\n        /* \"proxy/UUPSUpgradeable.sol\":793:859  0x360894A13BA1A3210667C828492DB98DCA3E2076CC3735A920A3CA505D382BBC */\n      0x360894a13ba1a3210667c828492db98dca3e2076cc3735a920a3ca505d382bbc\n        /* \"proxy/UUPSUpgradeable.sol\":3354:3373  IMPLEMENTATION_SLOT */\n      0x00\n      shl\n        /* \"proxy/UUPSUpgradeable.sol\":3339:3373  bytes32 slot = IMPLEMENTATION_SLOT */\n      swap1\n      pop\n        /* \"proxy/UUPSUpgradeable.sol\":3419:3436  newImplementation */\n      dup2\n        /* \"proxy/UUPSUpgradeable.sol\":3413:3417  slot */\n      dup2\n        /* \"proxy/UUPSUpgradeable.sol\":3406:3437  sstore(slot, newImplementation) */\n      sstore\n        /* \"proxy/UUPSUpgradeable.sol\":3392:3447  {... */\n      pop\n        /* \"proxy/UUPSUpgradeable.sol\":3266:3453  function _setImplementation(address newImplementation) private {... */\n      pop\n      jump\t// out\n        /* \"#utility.yul\":88:205   */\n    tag_530:\n        /* \"#utility.yul\":197:198   */\n      0x00\n        /* \"#utility.yul\":194:195   */\n      0x00\n        /* \"#utility.yul\":187:199   */\n      revert\n        /* \"#utility.yul\":211:328   */\n    tag_531:\n        /* \"#utility.yul\":320:321   */\n      0x00\n        /* \"#utility.yul\":317:318   */\n      0x00\n        /* \"#utility.yul\":310:322   */\n      revert\n        /* \"#utility.yul\":334:411   */\n    tag_532:\n        /* \"#utility.yul\":371:378   */\n      0x00\n        /* \"#utility.yul\":400:405   */\n      dup2\n        /* \"#utility.yul\":389:405   */\n      swap1\n      pop\n        /* \"#utility.yul\":334:411   */\n      swap2\n      swap1\n      pop\n      jump\t// out\n        /* \"#utility.yul\":417:539   */\n    tag_533:\n        /* \"#utility.yul\":490:514   */\n      tag_605\n        /* \"#utility.yul\":508:513   */\n      dup2\n        /* \"#utility.yul\":490:514   */\n      tag_532\n      jump\t// in\n    tag_605:\n        /* \"#utility.yul\":483:488   */\n      dup2\n        /* \"#utility.yul\":480:515   */\n      eq\n        /* \"#utility.yul\":470:533   */\n      tag_606\n      jumpi\n        /* \"#utility.yul\":529:530   */\n      0x00\n        /* \"#utility.yul\":526:527   */\n      0x00\n        /* \"#utility.yul\":519:531   */\n      revert\n        /* \"#utility.yul\":470:533   */\n    tag_606:\n        /* \"#utility.yul\":417:539   */\n      pop\n      jump\t// out\n        /* \"#utility.yul\":545:684   */\n    tag_534:\n        /* \"#utility.yul\":591:596   */\n      0x00\n        /* \"#utility.yul\":629:635   */\n      dup2\n        /* \"#utility.yul\":616:636   */\n      calldataload\n        /* \"#utility.yul\":607:636   */\n      swap1\n      pop\n        /* \"#utility.yul\":645:678   */\n      tag_608\n        /* \"#utility.yul\":672:677   */\n      dup2\n        /* \"#utility.yul\":645:678   */\n      tag_533\n      jump\t// in\n    tag_608:\n        /* \"#utility.yul\":545:684   */\n      swap3\n      swap2\n      pop\n      pop\n      jump\t// out\n        /* \"#utility.yul\":690:1019   */\n    tag_56:\n        /* \"#utility.yul\":749:755   */\n      0x00\n        /* \"#utility.yul\":798:800   */\n      0x20\n        /* \"#utility.yul\":786:795   */\n      dup3\n        /* \"#utility.yul\":777:784   */\n      dup5\n        /* \"#utility.yul\":773:796   */\n      sub\n        /* \"#utility.yul\":769:801   */\n      slt\n        /* \"#utility.yul\":766:885   */\n      iszero\n      tag_610\n      jumpi\n        /* \"#utility.yul\":804:883   */\n      tag_611\n      tag_530\n      jump\t// in\n    tag_611:\n        /* \"#utility.yul\":766:885   */\n    tag_610:\n        /* \"#utility.yul\":924:925   */\n      0x00\n        /* \"#utility.yul\":949:1002   */\n      tag_612\n        /* \"#utility.yul\":994:1001   */\n      dup5\n        /* \"#utility.yul\":985:991   */\n      dup3\n        /* \"#utility.yul\":974:983   */\n      dup6\n        /* \"#utility.yul\":970:992   */\n      add\n        /* \"#utility.yul\":949:1002   */\n      tag_534\n      jump\t// in\n    tag_612:\n        /* \"#utility.yul\":939:1002   */\n      swap2\n      pop\n        /* \"#utility.yul\":895:1012   */\n      pop\n        /* \"#utility.yul\":690:1019   */\n      swap3\n      swap2\n      pop\n      pop\n      jump\t// out\n        /* \"#utility.yul\":1025:1143   */\n    tag_535:\n        /* \"#utility.yul\":1112:1136   */\n      tag_614\n        /* \"#utility.yul\":1130:1135   */\n      dup2\n        /* \"#utility.yul\":1112:1136   */\n      tag_532\n      jump\t// in\n    tag_614:\n        /* \"#utility.yul\":1107:1110   */\n      dup3\n        /* \"#utility.yul\":1100:1137   */\n      mstore\n        /* \"#utility.yul\":1025:1143   */\n      pop\n      pop\n      jump\t// out\n        /* \"#utility.yul\":1149:1371   */\n    tag_59:\n        /* \"#utility.yul\":1242:1246   */\n      0x00\n        /* \"#utility.yul\":1280:1282   */\n      0x20\n        /* \"#utility.yul\":1269:1278   */\n      dup3\n        /* \"#utility.yul\":1265:1283   */\n      add\n        /* \"#utility.yul\":1257:1283   */\n      swap1\n      pop\n        /* \"#utility.yul\":1293:1364   */\n      tag_616\n        /* \"#utility.yul\":1361:1362   */\n      0x00\n        /* \"#utility.yul\":1350:1359   */\n      dup4\n        /* \"#utility.yul\":1346:1363   */\n      add\n        /* \"#utility.yul\":1337:1343   */\n      dup5\n        /* \"#utility.yul\":1293:1364   */\n      tag_535\n      jump\t// in\n    tag_616:\n        /* \"#utility.yul\":1149:1371   */\n      swap3\n      swap2\n      pop\n      pop\n      jump\t// out\n        /* \"#utility.yul\":1377:1503   */\n    tag_536:\n        /* \"#utility.yul\":1414:1421   */\n      0x00\n        /* \"#utility.yul\":1454:1496   */\n      0xffffffffffffffffffffffffffffffffffffffff\n        /* \"#utility.yul\":1447:1452   */\n      dup3\n        /* \"#utility.yul\":1443:1497   */\n      and\n        /* \"#utility.yul\":1432:1497   */\n      swap1\n      pop\n        /* \"#utility.yul\":1377:1503   */\n      swap2\n      swap1\n      pop\n      jump\t// out\n        /* \"#utility.yul\":1509:1605   */\n    tag_537:\n        /* \"#utility.yul\":1546:1553   */\n      0x00\n        /* \"#utility.yul\":1575:1599   */\n      tag_619\n        /* \"#utility.yul\":1593:1598   */\n      dup3\n        /* \"#utility.yul\":1575:1599   */\n      tag_536\n      jump\t// in\n    tag_619:\n        /* \"#utility.yul\":1564:1599   */\n      swap1\n      pop\n        /* \"#utility.yul\":1509:1605   */\n      swap2\n      swap1\n      pop\n      jump\t// out\n        /* \"#utility.yul\":1611:1733   */\n    tag_538:\n        /* \"#utility.yul\":1684:1708   */\n      tag_621\n        /* \"#utility.yul\":1702:1707   */\n      dup2\n        /* \"#utility.yul\":1684:1708   */\n      tag_537\n      jump\t// in\n    tag_621:\n        /* \"#utility.yul\":1677:1682   */\n      dup2\n        /* \"#utility.yul\":1674:1709   */\n      eq\n        /* \"#utility.yul\":1664:1727   */\n      tag_622\n      jumpi\n        /* \"#utility.yul\":1723:1724   */\n      0x00\n        /* \"#utility.yul\":1720:1721   */\n      0x00\n        /* \"#utility.yul\":1713:1725   */\n      revert\n        /* \"#utility.yul\":1664:1727   */\n    tag_622:\n        /* \"#utility.yul\":1611:1733   */\n      pop\n      jump\t// out\n        /* \"#utility.yul\":1739:1878   */\n    tag_539:\n        /* \"#utility.yul\":1785:1790   */\n      0x00\n        /* \"#utility.yul\":1823:1829   */\n      dup2\n        /* \"#utility.yul\":1810:1830   */\n      calldataload\n        /* \"#utility.yul\":1801:1830   */\n      swap1\n      pop\n        /* \"#utility.yul\":1839:1872   */\n      tag_624\n        /* \"#utility.yul\":1866:1871   */\n      dup2\n        /* \"#utility.yul\":1839:1872   */\n      tag_538\n      jump\t// in\n    tag_624:\n        /* \"#utility.yul\":1739:1878   */\n      swap3\n      swap2\n      pop\n      pop\n      jump\t// out\n        /* \"#utility.yul\":1884:2213   */\n    tag_63:\n        /* \"#utility.yul\":1943:1949   */\n      0x00\n        /* \"#utility.yul\":1992:1994   */\n      0x20\n        /* \"#utility.yul\":1980:1989   */\n      dup3\n        /* \"#utility.yul\":1971:1978   */\n      dup5\n        /* \"#utility.yul\":1967:1990   */\n      sub\n        /* \"#utility.yul\":1963:1995   */\n      slt\n        /* \"#utility.yul\":1960:2079   */\n      iszero\n      tag_626\n      jumpi\n        /* \"#utility.yul\":1998:2077   */\n      tag_627\n      tag_530\n      jump\t// in\n    tag_627:\n        /* \"#utility.yul\":1960:2079   */\n    tag_626:\n        /* \"#utility.yul\":2118:2119   */\n      0x00\n        /* \"#utility.yul\":2143:2196   */\n      tag_628\n        /* \"#utility.yul\":2188:2195   */\n      dup5\n        /* \"#utility.yul\":2179:2185   */\n      dup3\n        /* \"#utility.yul\":2168:2177   */\n      dup6\n        /* \"#utility.yul\":2164:2186   */\n      add\n        /* \"#utility.yul\":2143:2196   */\n      tag_539\n      jump\t// in\n    tag_628:\n        /* \"#utility.yul\":2133:2196   */\n      swap2\n      pop\n        /* \"#utility.yul\":2089:2206   */\n      pop\n        /* \"#utility.yul\":1884:2213   */\n      swap3\n      swap2\n      pop\n      pop\n      jump\t// out\n        /* \"#utility.yul\":2219:2279   */\n    tag_540:\n        /* \"#utility.yul\":2247:2250   */\n      0x00\n        /* \"#utility.yul\":2268:2273   */\n      dup2\n        /* \"#utility.yul\":2261:2273   */\n      swap1\n      pop\n        /* \"#utility.yul\":2219:2279   */\n      swap2\n      swap1\n      pop\n      jump\t// out\n        /* \"#utility.yul\":2285:2427   */\n    tag_541:\n        /* \"#utility.yul\":2335:2344   */\n      0x00\n        /* \"#utility.yul\":2368:2421   */\n      tag_631\n        /* \"#utility.yul\":2386:2420   */\n      tag_632\n        /* \"#utility.yul\":2395:2419   */\n      tag_633\n        /* \"#utility.yul\":2413:2418   */\n      dup5\n        /* \"#utility.yul\":2395:2419   */\n      tag_536\n      jump\t// in\n    tag_633:\n        /* \"#utility.yul\":2386:2420   */\n      tag_540\n      jump\t// in\n    tag_632:\n        /* \"#utility.yul\":2368:2421   */\n      tag_536\n      jump\t// in\n    tag_631:\n        /* \"#utility.yul\":2355:2421   */\n      swap1\n      pop\n        /* \"#utility.yul\":2285:2427   */\n      swap2\n      swap1\n      pop\n      jump\t// out\n        /* \"#utility.yul\":2433:2559   */\n    tag_542:\n        /* \"#utility.yul\":2483:2492   */\n      0x00\n        /* \"#utility.yul\":2516:2553   */\n      tag_635\n        /* \"#utility.yul\":2547:2552   */\n      dup3\n        /* \"#utility.yul\":2516:2553   */\n      tag_541\n      jump\t// in\n    tag_635:\n        /* \"#utility.yul\":2503:2553   */\n      swap1\n      pop\n        /* \"#utility.yul\":2433:2559   */\n      swap2\n      swap1\n      pop\n      jump\t// out\n        /* \"#utility.yul\":2565:2705   */\n    tag_543:\n        /* \"#utility.yul\":2629:2638   */\n      0x00\n        /* \"#utility.yul\":2662:2699   */\n      tag_637\n        /* \"#utility.yul\":2693:2698   */\n      dup3\n        /* \"#utility.yul\":2662:2699   */\n      tag_542\n      jump\t// in\n    tag_637:\n        /* \"#utility.yul\":2649:2699   */\n      swap1\n      pop\n        /* \"#utility.yul\":2565:2705   */\n      swap2\n      swap1\n      pop\n      jump\t// out\n        /* \"#utility.yul\":2711:2870   */\n    tag_544:\n        /* \"#utility.yul\":2812:2863   */\n      tag_639\n        /* \"#utility.yul\":2857:2862   */\n      dup2\n        /* \"#utility.yul\":2812:2863   */\n      tag_543\n      jump\t// in\n    tag_639:\n        /* \"#utility.yul\":2807:2810   */\n      dup3\n        /* \"#utility.yul\":2800:2864   */\n      mstore\n        /* \"#utility.yul\":2711:2870   */\n      pop\n      pop\n      jump\t// out\n        /* \"#utility.yul\":2876:3126   */\n    tag_69:\n        /* \"#utility.yul\":2983:2987   */\n      0x00\n        /* \"#utility.yul\":3021:3023   */\n      0x20\n        /* \"#utility.yul\":3010:3019   */\n      dup3\n        /* \"#utility.yul\":3006:3024   */\n      add\n        /* \"#utility.yul\":2998:3024   */\n      swap1\n      pop\n        /* \"#utility.yul\":3034:3119   */\n      tag_641\n        /* \"#utility.yul\":3116:3117   */\n      0x00\n        /* \"#utility.yul\":3105:3114   */\n      dup4\n        /* \"#utility.yul\":3101:3118   */\n      add\n        /* \"#utility.yul\":3092:3098   */\n      dup5\n        /* \"#utility.yul\":3034:3119   */\n      tag_544\n      jump\t// in\n    tag_641:\n        /* \"#utility.yul\":2876:3126   */\n      swap3\n      swap2\n      pop\n      pop\n      jump\t// out\n        /* \"#utility.yul\":3132:3250   */\n    tag_545:\n        /* \"#utility.yul\":3219:3243   */\n      tag_643\n        /* \"#utility.yul\":3237:3242   */\n      dup2\n        /* \"#utility.yul\":3219:3243   */\n      tag_537\n      jump\t// in\n    tag_643:\n        /* \"#utility.yul\":3214:3217   */\n      dup3\n        /* \"#utility.yul\":3207:3244   */\n      mstore\n        /* \"#utility.yul\":3132:3250   */\n      pop\n      pop\n      jump\t// out\n        /* \"#utility.yul\":3256:3478   */\n    tag_115:\n        /* \"#utility.yul\":3349:3353   */\n      0x00\n        /* \"#utility.yul\":3387:3389   */\n      0x20\n        /* \"#utility.yul\":3376:3385   */\n      dup3\n        /* \"#utility.yul\":3372:3390   */\n      add\n        /* \"#utility.yul\":3364:3390   */\n      swap1\n      pop\n        /* \"#utility.yul\":3400:3471   */\n      tag_645\n        /* \"#utility.yul\":3468:3469   */\n      0x00\n        /* \"#utility.yul\":3457:3466   */\n      dup4\n        /* \"#utility.yul\":3453:3470   */\n      add\n        /* \"#utility.yul\":3444:3450   */\n      dup5\n        /* \"#utility.yul\":3400:3471   */\n      tag_545\n      jump\t// in\n    tag_645:\n        /* \"#utility.yul\":3256:3478   */\n      swap3\n      swap2\n      pop\n      pop\n      jump\t// out\n        /* \"#utility.yul\":3484:3583   */\n    tag_546:\n        /* \"#utility.yul\":3536:3542   */\n      0x00\n        /* \"#utility.yul\":3570:3575   */\n      dup2\n        /* \"#utility.yul\":3564:3576   */\n      mload\n        /* \"#utility.yul\":3554:3576   */\n      swap1\n      pop\n        /* \"#utility.yul\":3484:3583   */\n      swap2\n      swap1\n      pop\n      jump\t// out\n        /* \"#utility.yul\":3589:3758   */\n    tag_547:\n        /* \"#utility.yul\":3673:3684   */\n      0x00\n        /* \"#utility.yul\":3707:3713   */\n      dup3\n        /* \"#utility.yul\":3702:3705   */\n      dup3\n        /* \"#utility.yul\":3695:3714   */\n      mstore\n        /* \"#utility.yul\":3747:3751   */\n      0x20\n        /* \"#utility.yul\":3742:3745   */\n      dup3\n        /* \"#utility.yul\":3738:3752   */\n      add\n        /* \"#utility.yul\":3723:3752   */\n      swap1\n      pop\n        /* \"#utility.yul\":3589:3758   */\n      swap3\n      swap2\n      pop\n      pop\n      jump\t// out\n        /* \"#utility.yul\":3764:3903   */\n    tag_548:\n        /* \"#utility.yul\":3853:3859   */\n      dup3\n        /* \"#utility.yul\":3848:3851   */\n      dup2\n        /* \"#utility.yul\":3843:3846   */\n      dup4\n        /* \"#utility.yul\":3837:3860   */\n      mcopy\n        /* \"#utility.yul\":3894:3895   */\n      0x00\n        /* \"#utility.yul\":3885:3891   */\n      dup4\n        /* \"#utility.yul\":3880:3883   */\n      dup4\n        /* \"#utility.yul\":3876:3892   */\n      add\n        /* \"#utility.yul\":3869:3896   */\n      mstore\n        /* \"#utility.yul\":3764:3903   */\n      pop\n      pop\n      pop\n      jump\t// out\n        /* \"#utility.yul\":3909:4011   */\n    tag_549:\n        /* \"#utility.yul\":3950:3956   */\n      0x00\n        /* \"#utility.yul\":4001:4003   */\n      0x1f\n        /* \"#utility.yul\":3997:4004   */\n      not\n        /* \"#utility.yul\":3992:3994   */\n      0x1f\n        /* \"#utility.yul\":3985:3990   */\n      dup4\n        /* \"#utility.yul\":3981:3995   */\n      add\n        /* \"#utility.yul\":3977:4005   */\n      and\n        /* \"#utility.yul\":3967:4005   */\n      swap1\n      pop\n        /* \"#utility.yul\":3909:4011   */\n      swap2\n      swap1\n      pop\n      jump\t// out\n        /* \"#utility.yul\":4017:4394   */\n    tag_550:\n        /* \"#utility.yul\":4105:4108   */\n      0x00\n        /* \"#utility.yul\":4133:4172   */\n      tag_651\n        /* \"#utility.yul\":4166:4171   */\n      dup3\n        /* \"#utility.yul\":4133:4172   */\n      tag_546\n      jump\t// in\n    tag_651:\n        /* \"#utility.yul\":4188:4259   */\n      tag_652\n        /* \"#utility.yul\":4252:4258   */\n      dup2\n        /* \"#utility.yul\":4247:4250   */\n      dup6\n        /* \"#utility.yul\":4188:4259   */\n      tag_547\n      jump\t// in\n    tag_652:\n        /* \"#utility.yul\":4181:4259   */\n      swap4\n      pop\n        /* \"#utility.yul\":4268:4333   */\n      tag_653\n        /* \"#utility.yul\":4326:4332   */\n      dup2\n        /* \"#utility.yul\":4321:4324   */\n      dup6\n        /* \"#utility.yul\":4314:4318   */\n      0x20\n        /* \"#utility.yul\":4307:4312   */\n      dup7\n        /* \"#utility.yul\":4303:4319   */\n      add\n        /* \"#utility.yul\":4268:4333   */\n      tag_548\n      jump\t// in\n    tag_653:\n        /* \"#utility.yul\":4358:4387   */\n      tag_654\n        /* \"#utility.yul\":4380:4386   */\n      dup2\n        /* \"#utility.yul\":4358:4387   */\n      tag_549\n      jump\t// in\n    tag_654:\n        /* \"#utility.yul\":4353:4356   */\n      dup5\n        /* \"#utility.yul\":4349:4388   */\n      add\n        /* \"#utility.yul\":4342:4388   */\n      swap2\n      pop\n        /* \"#utility.yul\":4109:4394   */\n      pop\n        /* \"#utility.yul\":4017:4394   */\n      swap3\n      swap2\n      pop\n      pop\n      jump\t// out\n        /* \"#utility.yul\":4400:4713   */\n    tag_120:\n        /* \"#utility.yul\":4513:4517   */\n      0x00\n        /* \"#utility.yul\":4551:4553   */\n      0x20\n        /* \"#utility.yul\":4540:4549   */\n      dup3\n        /* \"#utility.yul\":4536:4554   */\n      add\n        /* \"#utility.yul\":4528:4554   */\n      swap1\n      pop\n        /* \"#utility.yul\":4600:4609   */\n      dup2\n        /* \"#utility.yul\":4594:4598   */\n      dup2\n        /* \"#utility.yul\":4590:4610   */\n      sub\n        /* \"#utility.yul\":4586:4587   */\n      0x00\n        /* \"#utility.yul\":4575:4584   */\n      dup4\n        /* \"#utility.yul\":4571:4588   */\n      add\n        /* \"#utility.yul\":4564:4611   */\n      mstore\n        /* \"#utility.yul\":4628:4706   */\n      tag_656\n        /* \"#utility.yul\":4701:4705   */\n      dup2\n        /* \"#utility.yul\":4692:4698   */\n      dup5\n        /* \"#utility.yul\":4628:4706   */\n      tag_550\n      jump\t// in\n    tag_656:\n        /* \"#utility.yul\":4620:4706   */\n      swap1\n      pop\n        /* \"#utility.yul\":4400:4713   */\n      swap3\n      swap2\n      pop\n      pop\n      jump\t// out\n        /* \"#utility.yul\":4719:4836   */\n    tag_551:\n        /* \"#utility.yul\":4828:4829   */\n      0x00\n        /* \"#utility.yul\":4825:4826   */\n      0x00\n        /* \"#utility.yul\":4818:4830   */\n      revert\n        /* \"#utility.yul\":4842:4959   */\n    tag_552:\n        /* \"#utility.yul\":4951:4952   */\n      0x00\n        /* \"#utility.yul\":4948:4949   */\n      0x00\n        /* \"#utility.yul\":4941:4953   */\n      revert\n        /* \"#utility.yul\":4965:5082   */\n    tag_553:\n        /* \"#utility.yul\":5074:5075   */\n      0x00\n        /* \"#utility.yul\":5071:5072   */\n      0x00\n        /* \"#utility.yul\":5064:5076   */\n      revert\n        /* \"#utility.yul\":5101:5653   */\n    tag_554:\n        /* \"#utility.yul\":5158:5166   */\n      0x00\n        /* \"#utility.yul\":5168:5174   */\n      0x00\n        /* \"#utility.yul\":5218:5221   */\n      dup4\n        /* \"#utility.yul\":5211:5215   */\n      0x1f\n        /* \"#utility.yul\":5203:5209   */\n      dup5\n        /* \"#utility.yul\":5199:5216   */\n      add\n        /* \"#utility.yul\":5195:5222   */\n      slt\n        /* \"#utility.yul\":5185:5307   */\n      tag_661\n      jumpi\n        /* \"#utility.yul\":5226:5305   */\n      tag_662\n      tag_551\n      jump\t// in\n    tag_662:\n        /* \"#utility.yul\":5185:5307   */\n    tag_661:\n        /* \"#utility.yul\":5339:5345   */\n      dup3\n        /* \"#utility.yul\":5326:5346   */\n      calldataload\n        /* \"#utility.yul\":5316:5346   */\n      swap1\n      pop\n        /* \"#utility.yul\":5369:5387   */\n      0xffffffffffffffff\n        /* \"#utility.yul\":5361:5367   */\n      dup2\n        /* \"#utility.yul\":5358:5388   */\n      gt\n        /* \"#utility.yul\":5355:5472   */\n      iszero\n      tag_663\n      jumpi\n        /* \"#utility.yul\":5391:5470   */\n      tag_664\n      tag_552\n      jump\t// in\n    tag_664:\n        /* \"#utility.yul\":5355:5472   */\n    tag_663:\n        /* \"#utility.yul\":5505:5509   */\n      0x20\n        /* \"#utility.yul\":5497:5503   */\n      dup4\n        /* \"#utility.yul\":5493:5510   */\n      add\n        /* \"#utility.yul\":5481:5510   */\n      swap2\n      pop\n        /* \"#utility.yul\":5559:5562   */\n      dup4\n        /* \"#utility.yul\":5551:5555   */\n      0x01\n        /* \"#utility.yul\":5543:5549   */\n      dup3\n        /* \"#utility.yul\":5539:5556   */\n      mul\n        /* \"#utility.yul\":5529:5537   */\n      dup4\n        /* \"#utility.yul\":5525:5557   */\n      add\n        /* \"#utility.yul\":5522:5563   */\n      gt\n        /* \"#utility.yul\":5519:5647   */\n      iszero\n      tag_665\n      jumpi\n        /* \"#utility.yul\":5566:5645   */\n      tag_666\n      tag_553\n      jump\t// in\n    tag_666:\n        /* \"#utility.yul\":5519:5647   */\n    tag_665:\n        /* \"#utility.yul\":5101:5653   */\n      swap3\n      pop\n      swap3\n      swap1\n      pop\n      jump\t// out\n        /* \"#utility.yul\":5659:6331   */\n    tag_127:\n        /* \"#utility.yul\":5738:5744   */\n      0x00\n        /* \"#utility.yul\":5746:5752   */\n      0x00\n        /* \"#utility.yul\":5754:5760   */\n      0x00\n        /* \"#utility.yul\":5803:5805   */\n      0x40\n        /* \"#utility.yul\":5791:5800   */\n      dup5\n        /* \"#utility.yul\":5782:5789   */\n      dup7\n        /* \"#utility.yul\":5778:5801   */\n      sub\n        /* \"#utility.yul\":5774:5806   */\n      slt\n        /* \"#utility.yul\":5771:5890   */\n      iszero\n      tag_668\n      jumpi\n        /* \"#utility.yul\":5809:5888   */\n      tag_669\n      tag_530\n      jump\t// in\n    tag_669:\n        /* \"#utility.yul\":5771:5890   */\n    tag_668:\n        /* \"#utility.yul\":5929:5930   */\n      0x00\n        /* \"#utility.yul\":5954:6007   */\n      tag_670\n        /* \"#utility.yul\":5999:6006   */\n      dup7\n        /* \"#utility.yul\":5990:5996   */\n      dup3\n        /* \"#utility.yul\":5979:5988   */\n      dup8\n        /* \"#utility.yul\":5975:5997   */\n      add\n        /* \"#utility.yul\":5954:6007   */\n      tag_539\n      jump\t// in\n    tag_670:\n        /* \"#utility.yul\":5944:6007   */\n      swap4\n      pop\n        /* \"#utility.yul\":5900:6017   */\n      pop\n        /* \"#utility.yul\":6084:6086   */\n      0x20\n        /* \"#utility.yul\":6073:6082   */\n      dup5\n        /* \"#utility.yul\":6069:6087   */\n      add\n        /* \"#utility.yul\":6056:6088   */\n      calldataload\n        /* \"#utility.yul\":6115:6133   */\n      0xffffffffffffffff\n        /* \"#utility.yul\":6107:6113   */\n      dup2\n        /* \"#utility.yul\":6104:6134   */\n      gt\n        /* \"#utility.yul\":6101:6218   */\n      iszero\n      tag_671\n      jumpi\n        /* \"#utility.yul\":6137:6216   */\n      tag_672\n      tag_531\n      jump\t// in\n    tag_672:\n        /* \"#utility.yul\":6101:6218   */\n    tag_671:\n        /* \"#utility.yul\":6250:6314   */\n      tag_673\n        /* \"#utility.yul\":6306:6313   */\n      dup7\n        /* \"#utility.yul\":6297:6303   */\n      dup3\n        /* \"#utility.yul\":6286:6295   */\n      dup8\n        /* \"#utility.yul\":6282:6304   */\n      add\n        /* \"#utility.yul\":6250:6314   */\n      tag_554\n      jump\t// in\n    tag_673:\n        /* \"#utility.yul\":6232:6314   */\n      swap3\n      pop\n      swap3\n      pop\n        /* \"#utility.yul\":6027:6324   */\n      pop\n        /* \"#utility.yul\":5659:6331   */\n      swap3\n      pop\n      swap3\n      pop\n      swap3\n      jump\t// out\n        /* \"#utility.yul\":6337:6414   */\n    tag_555:\n        /* \"#utility.yul\":6374:6381   */\n      0x00\n        /* \"#utility.yul\":6403:6408   */\n      dup2\n        /* \"#utility.yul\":6392:6408   */\n      swap1\n      pop\n        /* \"#utility.yul\":6337:6414   */\n      swap2\n      swap1\n      pop\n      jump\t// out\n        /* \"#utility.yul\":6420:6538   */\n    tag_556:\n        /* \"#utility.yul\":6507:6531   */\n      tag_676\n        /* \"#utility.yul\":6525:6530   */\n      dup2\n        /* \"#utility.yul\":6507:6531   */\n      tag_555\n      jump\t// in\n    tag_676:\n        /* \"#utility.yul\":6502:6505   */\n      dup3\n        /* \"#utility.yul\":6495:6532   */\n      mstore\n        /* \"#utility.yul\":6420:6538   */\n      pop\n      pop\n      jump\t// out\n        /* \"#utility.yul\":6544:6766   */\n    tag_133:\n        /* \"#utility.yul\":6637:6641   */\n      0x00\n        /* \"#utility.yul\":6675:6677   */\n      0x20\n        /* \"#utility.yul\":6664:6673   */\n      dup3\n        /* \"#utility.yul\":6660:6678   */\n      add\n        /* \"#utility.yul\":6652:6678   */\n      swap1\n      pop\n        /* \"#utility.yul\":6688:6759   */\n      tag_678\n        /* \"#utility.yul\":6756:6757   */\n      0x00\n        /* \"#utility.yul\":6745:6754   */\n      dup4\n        /* \"#utility.yul\":6741:6758   */\n      add\n        /* \"#utility.yul\":6732:6738   */\n      dup5\n        /* \"#utility.yul\":6688:6759   */\n      tag_556\n      jump\t// in\n    tag_678:\n        /* \"#utility.yul\":6544:6766   */\n      swap3\n      swap2\n      pop\n      pop\n      jump\t// out\n        /* \"#utility.yul\":6772:7214   */\n    tag_139:\n        /* \"#utility.yul\":6921:6925   */\n      0x00\n        /* \"#utility.yul\":6959:6961   */\n      0x60\n        /* \"#utility.yul\":6948:6957   */\n      dup3\n        /* \"#utility.yul\":6944:6962   */\n      add\n        /* \"#utility.yul\":6936:6962   */\n      swap1\n      pop\n        /* \"#utility.yul\":6972:7043   */\n      tag_680\n        /* \"#utility.yul\":7040:7041   */\n      0x00\n        /* \"#utility.yul\":7029:7038   */\n      dup4\n        /* \"#utility.yul\":7025:7042   */\n      add\n        /* \"#utility.yul\":7016:7022   */\n      dup7\n        /* \"#utility.yul\":6972:7043   */\n      tag_535\n      jump\t// in\n    tag_680:\n        /* \"#utility.yul\":7053:7125   */\n      tag_681\n        /* \"#utility.yul\":7121:7123   */\n      0x20\n        /* \"#utility.yul\":7110:7119   */\n      dup4\n        /* \"#utility.yul\":7106:7124   */\n      add\n        /* \"#utility.yul\":7097:7103   */\n      dup6\n        /* \"#utility.yul\":7053:7125   */\n      tag_535\n      jump\t// in\n    tag_681:\n        /* \"#utility.yul\":7135:7207   */\n      tag_682\n        /* \"#utility.yul\":7203:7205   */\n      0x40\n        /* \"#utility.yul\":7192:7201   */\n      dup4\n        /* \"#utility.yul\":7188:7206   */\n      add\n        /* \"#utility.yul\":7179:7185   */\n      dup5\n        /* \"#utility.yul\":7135:7207   */\n      tag_535\n      jump\t// in\n    tag_682:\n        /* \"#utility.yul\":6772:7214   */\n      swap5\n      swap4\n      pop\n      pop\n      pop\n      pop\n      jump\t// out\n        /* \"#utility.yul\":7220:7361   */\n    tag_557:\n        /* \"#utility.yul\":7285:7294   */\n      0x00\n        /* \"#utility.yul\":7318:7355   */\n      tag_684\n        /* \"#utility.yul\":7349:7354   */\n      dup3\n        /* \"#utility.yul\":7318:7355   */\n      tag_542\n      jump\t// in\n    tag_684:\n        /* \"#utility.yul\":7305:7355   */\n      swap1\n      pop\n        /* \"#utility.yul\":7220:7361   */\n      swap2\n      swap1\n      pop\n      jump\t// out\n        /* \"#utility.yul\":7367:7528   */\n    tag_558:\n        /* \"#utility.yul\":7469:7521   */\n      tag_686\n        /* \"#utility.yul\":7515:7520   */\n      dup2\n        /* \"#utility.yul\":7469:7521   */\n      tag_557\n      jump\t// in\n    tag_686:\n        /* \"#utility.yul\":7464:7467   */\n      dup3\n        /* \"#utility.yul\":7457:7522   */\n      mstore\n        /* \"#utility.yul\":7367:7528   */\n      pop\n      pop\n      jump\t// out\n        /* \"#utility.yul\":7534:7786   */\n    tag_174:\n        /* \"#utility.yul\":7642:7646   */\n      0x00\n        /* \"#utility.yul\":7680:7682   */\n      0x20\n        /* \"#utility.yul\":7669:7678   */\n      dup3\n        /* \"#utility.yul\":7665:7683   */\n      add\n        /* \"#utility.yul\":7657:7683   */\n      swap1\n      pop\n        /* \"#utility.yul\":7693:7779   */\n      tag_688\n        /* \"#utility.yul\":7776:7777   */\n      0x00\n        /* \"#utility.yul\":7765:7774   */\n      dup4\n        /* \"#utility.yul\":7761:7778   */\n      add\n        /* \"#utility.yul\":7752:7758   */\n      dup5\n        /* \"#utility.yul\":7693:7779   */\n      tag_558\n      jump\t// in\n    tag_688:\n        /* \"#utility.yul\":7534:7786   */\n      swap3\n      swap2\n      pop\n      pop\n      jump\t// out\n        /* \"#utility.yul\":7792:7882   */\n    tag_559:\n        /* \"#utility.yul\":7826:7833   */\n      0x00\n        /* \"#utility.yul\":7869:7874   */\n      dup2\n        /* \"#utility.yul\":7862:7875   */\n      iszero\n        /* \"#utility.yul\":7855:7876   */\n      iszero\n        /* \"#utility.yul\":7844:7876   */\n      swap1\n      pop\n        /* \"#utility.yul\":7792:7882   */\n      swap2\n      swap1\n      pop\n      jump\t// out\n        /* \"#utility.yul\":7888:7997   */\n    tag_560:\n        /* \"#utility.yul\":7969:7990   */\n      tag_691\n        /* \"#utility.yul\":7984:7989   */\n      dup2\n        /* \"#utility.yul\":7969:7990   */\n      tag_559\n      jump\t// in\n    tag_691:\n        /* \"#utility.yul\":7964:7967   */\n      dup3\n        /* \"#utility.yul\":7957:7991   */\n      mstore\n        /* \"#utility.yul\":7888:7997   */\n      pop\n      pop\n      jump\t// out\n        /* \"#utility.yul\":8003:8213   */\n    tag_184:\n        /* \"#utility.yul\":8090:8094   */\n      0x00\n        /* \"#utility.yul\":8128:8130   */\n      0x20\n        /* \"#utility.yul\":8117:8126   */\n      dup3\n        /* \"#utility.yul\":8113:8131   */\n      add\n        /* \"#utility.yul\":8105:8131   */\n      swap1\n      pop\n        /* \"#utility.yul\":8141:8206   */\n      tag_693\n        /* \"#utility.yul\":8203:8204   */\n      0x00\n        /* \"#utility.yul\":8192:8201   */\n      dup4\n        /* \"#utility.yul\":8188:8205   */\n      add\n        /* \"#utility.yul\":8179:8185   */\n      dup5\n        /* \"#utility.yul\":8141:8206   */\n      tag_560\n      jump\t// in\n    tag_693:\n        /* \"#utility.yul\":8003:8213   */\n      swap3\n      swap2\n      pop\n      pop\n      jump\t// out\n        /* \"#utility.yul\":8219:8336   */\n    tag_561:\n        /* \"#utility.yul\":8328:8329   */\n      0x00\n        /* \"#utility.yul\":8325:8326   */\n      0x00\n        /* \"#utility.yul\":8318:8330   */\n      revert\n        /* \"#utility.yul\":8374:8608   */\n    tag_562:\n        /* \"#utility.yul\":8449:8454   */\n      0x00\n        /* \"#utility.yul\":8490:8493   */\n      0x0160\n        /* \"#utility.yul\":8481:8487   */\n      dup3\n        /* \"#utility.yul\":8476:8479   */\n      dup5\n        /* \"#utility.yul\":8472:8488   */\n      sub\n        /* \"#utility.yul\":8468:8494   */\n      slt\n        /* \"#utility.yul\":8465:8578   */\n      iszero\n      tag_696\n      jumpi\n        /* \"#utility.yul\":8497:8576   */\n      tag_697\n      tag_561\n      jump\t// in\n    tag_697:\n        /* \"#utility.yul\":8465:8578   */\n    tag_696:\n        /* \"#utility.yul\":8596:8602   */\n      dup2\n        /* \"#utility.yul\":8587:8602   */\n      swap1\n      pop\n        /* \"#utility.yul\":8374:8608   */\n      swap3\n      swap2\n      pop\n      pop\n      jump\t// out\n        /* \"#utility.yul\":8628:9181   */\n    tag_563:\n        /* \"#utility.yul\":8686:8694   */\n      0x00\n        /* \"#utility.yul\":8696:8702   */\n      0x00\n        /* \"#utility.yul\":8746:8749   */\n      dup4\n        /* \"#utility.yul\":8739:8743   */\n      0x1f\n        /* \"#utility.yul\":8731:8737   */\n      dup5\n        /* \"#utility.yul\":8727:8744   */\n      add\n        /* \"#utility.yul\":8723:8750   */\n      slt\n        /* \"#utility.yul\":8713:8835   */\n      tag_699\n      jumpi\n        /* \"#utility.yul\":8754:8833   */\n      tag_700\n      tag_551\n      jump\t// in\n    tag_700:\n        /* \"#utility.yul\":8713:8835   */\n    tag_699:\n        /* \"#utility.yul\":8867:8873   */\n      dup3\n        /* \"#utility.yul\":8854:8874   */\n      calldataload\n        /* \"#utility.yul\":8844:8874   */\n      swap1\n      pop\n        /* \"#utility.yul\":8897:8915   */\n      0xffffffffffffffff\n        /* \"#utility.yul\":8889:8895   */\n      dup2\n        /* \"#utility.yul\":8886:8916   */\n      gt\n        /* \"#utility.yul\":8883:9000   */\n      iszero\n      tag_701\n      jumpi\n        /* \"#utility.yul\":8919:8998   */\n      tag_702\n      tag_552\n      jump\t// in\n    tag_702:\n        /* \"#utility.yul\":8883:9000   */\n    tag_701:\n        /* \"#utility.yul\":9033:9037   */\n      0x20\n        /* \"#utility.yul\":9025:9031   */\n      dup4\n        /* \"#utility.yul\":9021:9038   */\n      add\n        /* \"#utility.yul\":9009:9038   */\n      swap2\n      pop\n        /* \"#utility.yul\":9087:9090   */\n      dup4\n        /* \"#utility.yul\":9079:9083   */\n      0x01\n        /* \"#utility.yul\":9071:9077   */\n      dup3\n        /* \"#utility.yul\":9067:9084   */\n      mul\n        /* \"#utility.yul\":9057:9065   */\n      dup4\n        /* \"#utility.yul\":9053:9085   */\n      add\n        /* \"#utility.yul\":9050:9091   */\n      gt\n        /* \"#utility.yul\":9047:9175   */\n      iszero\n      tag_703\n      jumpi\n        /* \"#utility.yul\":9094:9173   */\n      tag_704\n      tag_553\n      jump\t// in\n    tag_704:\n        /* \"#utility.yul\":9047:9175   */\n    tag_703:\n        /* \"#utility.yul\":8628:9181   */\n      swap3\n      pop\n      swap3\n      swap1\n      pop\n      jump\t// out\n        /* \"#utility.yul\":9187:10267   */\n    tag_199:\n        /* \"#utility.yul\":9317:9323   */\n      0x00\n        /* \"#utility.yul\":9325:9331   */\n      0x00\n        /* \"#utility.yul\":9333:9339   */\n      0x00\n        /* \"#utility.yul\":9341:9347   */\n      0x00\n        /* \"#utility.yul\":9349:9355   */\n      0x00\n        /* \"#utility.yul\":9398:9401   */\n      0x01a0\n        /* \"#utility.yul\":9386:9395   */\n      dup7\n        /* \"#utility.yul\":9377:9384   */\n      dup9\n        /* \"#utility.yul\":9373:9396   */\n      sub\n        /* \"#utility.yul\":9369:9402   */\n      slt\n        /* \"#utility.yul\":9366:9486   */\n      iszero\n      tag_706\n      jumpi\n        /* \"#utility.yul\":9405:9484   */\n      tag_707\n      tag_530\n      jump\t// in\n    tag_707:\n        /* \"#utility.yul\":9366:9486   */\n    tag_706:\n        /* \"#utility.yul\":9525:9526   */\n      0x00\n        /* \"#utility.yul\":9550:9632   */\n      tag_708\n        /* \"#utility.yul\":9624:9631   */\n      dup9\n        /* \"#utility.yul\":9615:9621   */\n      dup3\n        /* \"#utility.yul\":9604:9613   */\n      dup10\n        /* \"#utility.yul\":9600:9622   */\n      add\n        /* \"#utility.yul\":9550:9632   */\n      tag_562\n      jump\t// in\n    tag_708:\n        /* \"#utility.yul\":9540:9632   */\n      swap6\n      pop\n        /* \"#utility.yul\":9496:9642   */\n      pop\n        /* \"#utility.yul\":9709:9712   */\n      0x0160\n        /* \"#utility.yul\":9698:9707   */\n      dup7\n        /* \"#utility.yul\":9694:9713   */\n      add\n        /* \"#utility.yul\":9681:9714   */\n      calldataload\n        /* \"#utility.yul\":9741:9759   */\n      0xffffffffffffffff\n        /* \"#utility.yul\":9733:9739   */\n      dup2\n        /* \"#utility.yul\":9730:9760   */\n      gt\n        /* \"#utility.yul\":9727:9844   */\n      iszero\n      tag_709\n      jumpi\n        /* \"#utility.yul\":9763:9842   */\n      tag_710\n      tag_531\n      jump\t// in\n    tag_710:\n        /* \"#utility.yul\":9727:9844   */\n    tag_709:\n        /* \"#utility.yul\":9876:9941   */\n      tag_711\n        /* \"#utility.yul\":9933:9940   */\n      dup9\n        /* \"#utility.yul\":9924:9930   */\n      dup3\n        /* \"#utility.yul\":9913:9922   */\n      dup10\n        /* \"#utility.yul\":9909:9931   */\n      add\n        /* \"#utility.yul\":9876:9941   */\n      tag_563\n      jump\t// in\n    tag_711:\n        /* \"#utility.yul\":9858:9941   */\n      swap5\n      pop\n      swap5\n      pop\n        /* \"#utility.yul\":9652:9951   */\n      pop\n        /* \"#utility.yul\":10018:10021   */\n      0x0180\n        /* \"#utility.yul\":10007:10016   */\n      dup7\n        /* \"#utility.yul\":10003:10022   */\n      add\n        /* \"#utility.yul\":9990:10023   */\n      calldataload\n        /* \"#utility.yul\":10050:10068   */\n      0xffffffffffffffff\n        /* \"#utility.yul\":10042:10048   */\n      dup2\n        /* \"#utility.yul\":10039:10069   */\n      gt\n        /* \"#utility.yul\":10036:10153   */\n      iszero\n      tag_712\n      jumpi\n        /* \"#utility.yul\":10072:10151   */\n      tag_713\n      tag_531\n      jump\t// in\n    tag_713:\n        /* \"#utility.yul\":10036:10153   */\n    tag_712:\n        /* \"#utility.yul\":10185:10250   */\n      tag_714\n        /* \"#utility.yul\":10242:10249   */\n      dup9\n        /* \"#utility.yul\":10233:10239   */\n      dup3\n        /* \"#utility.yul\":10222:10231   */\n      dup10\n        /* \"#utility.yul\":10218:10240   */\n      add\n        /* \"#utility.yul\":10185:10250   */\n      tag_563\n      jump\t// in\n    tag_714:\n        /* \"#utility.yul\":10167:10250   */\n      swap3\n      pop\n      swap3\n      pop\n        /* \"#utility.yul\":9961:10260   */\n      pop\n        /* \"#utility.yul\":9187:10267   */\n      swap3\n      swap6\n      pop\n      swap3\n      swap6\n      swap1\n      swap4\n      pop\n      jump\t// out\n        /* \"#utility.yul\":10273:10892   */\n    tag_220:\n        /* \"#utility.yul\":10350:10356   */\n      0x00\n        /* \"#utility.yul\":10358:10364   */\n      0x00\n        /* \"#utility.yul\":10366:10372   */\n      0x00\n        /* \"#utility.yul\":10415:10417   */\n      0x60\n        /* \"#utility.yul\":10403:10412   */\n      dup5\n        /* \"#utility.yul\":10394:10401   */\n      dup7\n        /* \"#utility.yul\":10390:10413   */\n      sub\n        /* \"#utility.yul\":10386:10418   */\n      slt\n        /* \"#utility.yul\":10383:10502   */\n      iszero\n      tag_716\n      jumpi\n        /* \"#utility.yul\":10421:10500   */\n      tag_717\n      tag_530\n      jump\t// in\n    tag_717:\n        /* \"#utility.yul\":10383:10502   */\n    tag_716:\n        /* \"#utility.yul\":10541:10542   */\n      0x00\n        /* \"#utility.yul\":10566:10619   */\n      tag_718\n        /* \"#utility.yul\":10611:10618   */\n      dup7\n        /* \"#utility.yul\":10602:10608   */\n      dup3\n        /* \"#utility.yul\":10591:10600   */\n      dup8\n        /* \"#utility.yul\":10587:10609   */\n      add\n        /* \"#utility.yul\":10566:10619   */\n      tag_534\n      jump\t// in\n    tag_718:\n        /* \"#utility.yul\":10556:10619   */\n      swap4\n      pop\n        /* \"#utility.yul\":10512:10629   */\n      pop\n        /* \"#utility.yul\":10668:10670   */\n      0x20\n        /* \"#utility.yul\":10694:10747   */\n      tag_719\n        /* \"#utility.yul\":10739:10746   */\n      dup7\n        /* \"#utility.yul\":10730:10736   */\n      dup3\n        /* \"#utility.yul\":10719:10728   */\n      dup8\n        /* \"#utility.yul\":10715:10737   */\n      add\n        /* \"#utility.yul\":10694:10747   */\n      tag_534\n      jump\t// in\n    tag_719:\n        /* \"#utility.yul\":10684:10747   */\n      swap3\n      pop\n        /* \"#utility.yul\":10639:10757   */\n      pop\n        /* \"#utility.yul\":10796:10798   */\n      0x40\n        /* \"#utility.yul\":10822:10875   */\n      tag_720\n        /* \"#utility.yul\":10867:10874   */\n      dup7\n        /* \"#utility.yul\":10858:10864   */\n      dup3\n        /* \"#utility.yul\":10847:10856   */\n      dup8\n        /* \"#utility.yul\":10843:10865   */\n      add\n        /* \"#utility.yul\":10822:10875   */\n      tag_534\n      jump\t// in\n    tag_720:\n        /* \"#utility.yul\":10812:10875   */\n      swap2\n      pop\n        /* \"#utility.yul\":10767:10885   */\n      pop\n        /* \"#utility.yul\":10273:10892   */\n      swap3\n      pop\n      swap3\n      pop\n      swap3\n      jump\t// out\n        /* \"#utility.yul\":10898:11078   */\n    tag_564:\n        /* \"#utility.yul\":10946:11023   */\n      0x4e487b7100000000000000000000000000000000000000000000000000000000\n        /* \"#utility.yul\":10943:10944   */\n      0x00\n        /* \"#utility.yul\":10936:11024   */\n      mstore\n        /* \"#utility.yul\":11043:11047   */\n      0x11\n        /* \"#utility.yul\":11040:11041   */\n      0x04\n        /* \"#utility.yul\":11033:11048   */\n      mstore\n        /* \"#utility.yul\":11067:11071   */\n      0x24\n        /* \"#utility.yul\":11064:11065   */\n      0x00\n        /* \"#utility.yul\":11057:11072   */\n      revert\n        /* \"#utility.yul\":11084:11494   */\n    tag_250:\n        /* \"#utility.yul\":11124:11131   */\n      0x00\n        /* \"#utility.yul\":11147:11167   */\n      tag_723\n        /* \"#utility.yul\":11165:11166   */\n      dup3\n        /* \"#utility.yul\":11147:11167   */\n      tag_532\n      jump\t// in\n    tag_723:\n        /* \"#utility.yul\":11142:11167   */\n      swap2\n      pop\n        /* \"#utility.yul\":11181:11201   */\n      tag_724\n        /* \"#utility.yul\":11199:11200   */\n      dup4\n        /* \"#utility.yul\":11181:11201   */\n      tag_532\n      jump\t// in\n    tag_724:\n        /* \"#utility.yul\":11176:11201   */\n      swap3\n      pop\n        /* \"#utility.yul\":11236:11237   */\n      dup3\n        /* \"#utility.yul\":11233:11234   */\n      dup3\n        /* \"#utility.yul\":11229:11238   */\n      mul\n        /* \"#utility.yul\":11258:11288   */\n      tag_725\n        /* \"#utility.yul\":11276:11287   */\n      dup2\n        /* \"#utility.yul\":11258:11288   */\n      tag_532\n      jump\t// in\n    tag_725:\n        /* \"#utility.yul\":11247:11288   */\n      swap2\n      pop\n        /* \"#utility.yul\":11437:11438   */\n      dup3\n        /* \"#utility.yul\":11428:11435   */\n      dup3\n        /* \"#utility.yul\":11424:11439   */\n      div\n        /* \"#utility.yul\":11421:11422   */\n      dup5\n        /* \"#utility.yul\":11418:11440   */\n      eq\n        /* \"#utility.yul\":11398:11399   */\n      dup4\n        /* \"#utility.yul\":11391:11400   */\n      iszero\n        /* \"#utility.yul\":11371:11454   */\n      or\n        /* \"#utility.yul\":11348:11487   */\n      tag_726\n      jumpi\n        /* \"#utility.yul\":11467:11485   */\n      tag_727\n      tag_564\n      jump\t// in\n    tag_727:\n        /* \"#utility.yul\":11348:11487   */\n    tag_726:\n        /* \"#utility.yul\":11132:11494   */\n      pop\n        /* \"#utility.yul\":11084:11494   */\n      swap3\n      swap2\n      pop\n      pop\n      jump\t// out\n        /* \"#utility.yul\":11500:11680   */\n    tag_565:\n        /* \"#utility.yul\":11548:11625   */\n      0x4e487b7100000000000000000000000000000000000000000000000000000000\n        /* \"#utility.yul\":11545:11546   */\n      0x00\n        /* \"#utility.yul\":11538:11626   */\n      mstore\n        /* \"#utility.yul\":11645:11649   */\n      0x12\n        /* \"#utility.yul\":11642:11643   */\n      0x04\n        /* \"#utility.yul\":11635:11650   */\n      mstore\n        /* \"#utility.yul\":11669:11673   */\n      0x24\n        /* \"#utility.yul\":11666:11667   */\n      0x00\n        /* \"#utility.yul\":11659:11674   */\n      revert\n        /* \"#utility.yul\":11686:11871   */\n    tag_252:\n        /* \"#utility.yul\":11726:11727   */\n      0x00\n        /* \"#utility.yul\":11743:11763   */\n      tag_730\n        /* \"#utility.yul\":11761:11762   */\n      dup3\n        /* \"#utility.yul\":11743:11763   */\n      tag_532\n      jump\t// in\n    tag_730:\n        /* \"#utility.yul\":11738:11763   */\n      swap2\n      pop\n        /* \"#utility.yul\":11777:11797   */\n      tag_731\n        /* \"#utility.yul\":11795:11796   */\n      dup4\n        /* \"#utility.yul\":11777:11797   */\n      tag_532\n      jump\t// in\n    tag_731:\n        /* \"#utility.yul\":11772:11797   */\n      swap3\n      pop\n        /* \"#utility.yul\":11816:11817   */\n      dup3\n        /* \"#utility.yul\":11806:11841   */\n      tag_732\n      jumpi\n        /* \"#utility.yul\":11821:11839   */\n      tag_733\n      tag_565\n      jump\t// in\n    tag_733:\n        /* \"#utility.yul\":11806:11841   */\n    tag_732:\n        /* \"#utility.yul\":11863:11864   */\n      dup3\n        /* \"#utility.yul\":11860:11861   */\n      dup3\n        /* \"#utility.yul\":11856:11865   */\n      div\n        /* \"#utility.yul\":11851:11865   */\n      swap1\n      pop\n        /* \"#utility.yul\":11686:11871   */\n      swap3\n      swap2\n      pop\n      pop\n      jump\t// out\n        /* \"#utility.yul\":11877:12071   */\n    tag_269:\n        /* \"#utility.yul\":11917:11921   */\n      0x00\n        /* \"#utility.yul\":11937:11957   */\n      tag_735\n        /* \"#utility.yul\":11955:11956   */\n      dup3\n        /* \"#utility.yul\":11937:11957   */\n      tag_532\n      jump\t// in\n    tag_735:\n        /* \"#utility.yul\":11932:11957   */\n      swap2\n      pop\n        /* \"#utility.yul\":11971:11991   */\n      tag_736\n        /* \"#utility.yul\":11989:11990   */\n      dup4\n        /* \"#utility.yul\":11971:11991   */\n      tag_532\n      jump\t// in\n    tag_736:\n        /* \"#utility.yul\":11966:11991   */\n      swap3\n      pop\n        /* \"#utility.yul\":12015:12016   */\n      dup3\n        /* \"#utility.yul\":12012:12013   */\n      dup3\n        /* \"#utility.yul\":12008:12017   */\n      sub\n        /* \"#utility.yul\":12000:12017   */\n      swap1\n      pop\n        /* \"#utility.yul\":12039:12040   */\n      dup2\n        /* \"#utility.yul\":12033:12037   */\n      dup2\n        /* \"#utility.yul\":12030:12041   */\n      gt\n        /* \"#utility.yul\":12027:12064   */\n      iszero\n      tag_737\n      jumpi\n        /* \"#utility.yul\":12044:12062   */\n      tag_738\n      tag_564\n      jump\t// in\n    tag_738:\n        /* \"#utility.yul\":12027:12064   */\n    tag_737:\n        /* \"#utility.yul\":11877:12071   */\n      swap3\n      swap2\n      pop\n      pop\n      jump\t// out\n        /* \"#utility.yul\":12077:12409   */\n    tag_272:\n        /* \"#utility.yul\":12198:12202   */\n      0x00\n        /* \"#utility.yul\":12236:12238   */\n      0x40\n        /* \"#utility.yul\":12225:12234   */\n      dup3\n        /* \"#utility.yul\":12221:12239   */\n      add\n        /* \"#utility.yul\":12213:12239   */\n      swap1\n      pop\n        /* \"#utility.yul\":12249:12320   */\n      tag_740\n        /* \"#utility.yul\":12317:12318   */\n      0x00\n        /* \"#utility.yul\":12306:12315   */\n      dup4\n        /* \"#utility.yul\":12302:12319   */\n      add\n        /* \"#utility.yul\":12293:12299   */\n      dup6\n        /* \"#utility.yul\":12249:12320   */\n      tag_545\n      jump\t// in\n    tag_740:\n        /* \"#utility.yul\":12330:12402   */\n      tag_741\n        /* \"#utility.yul\":12398:12400   */\n      0x20\n        /* \"#utility.yul\":12387:12396   */\n      dup4\n        /* \"#utility.yul\":12383:12401   */\n      add\n        /* \"#utility.yul\":12374:12380   */\n      dup5\n        /* \"#utility.yul\":12330:12402   */\n      tag_535\n      jump\t// in\n    tag_741:\n        /* \"#utility.yul\":12077:12409   */\n      swap4\n      swap3\n      pop\n      pop\n      pop\n      jump\t// out\n        /* \"#utility.yul\":12415:12531   */\n    tag_566:\n        /* \"#utility.yul\":12485:12506   */\n      tag_743\n        /* \"#utility.yul\":12500:12505   */\n      dup2\n        /* \"#utility.yul\":12485:12506   */\n      tag_559\n      jump\t// in\n    tag_743:\n        /* \"#utility.yul\":12478:12483   */\n      dup2\n        /* \"#utility.yul\":12475:12507   */\n      eq\n        /* \"#utility.yul\":12465:12525   */\n      tag_744\n      jumpi\n        /* \"#utility.yul\":12521:12522   */\n      0x00\n        /* \"#utility.yul\":12518:12519   */\n      0x00\n        /* \"#utility.yul\":12511:12523   */\n      revert\n        /* \"#utility.yul\":12465:12525   */\n    tag_744:\n        /* \"#utility.yul\":12415:12531   */\n      pop\n      jump\t// out\n        /* \"#utility.yul\":12537:12674   */\n    tag_567:\n        /* \"#utility.yul\":12591:12596   */\n      0x00\n        /* \"#utility.yul\":12622:12628   */\n      dup2\n        /* \"#utility.yul\":12616:12629   */\n      mload\n        /* \"#utility.yul\":12607:12629   */\n      swap1\n      pop\n        /* \"#utility.yul\":12638:12668   */\n      tag_746\n        /* \"#utility.yul\":12662:12667   */\n      dup2\n        /* \"#utility.yul\":12638:12668   */\n      tag_566\n      jump\t// in\n    tag_746:\n        /* \"#utility.yul\":12537:12674   */\n      swap3\n      swap2\n      pop\n      pop\n      jump\t// out\n        /* \"#utility.yul\":12680:13025   */\n    tag_276:\n        /* \"#utility.yul\":12747:12753   */\n      0x00\n        /* \"#utility.yul\":12796:12798   */\n      0x20\n        /* \"#utility.yul\":12784:12793   */\n      dup3\n        /* \"#utility.yul\":12775:12782   */\n      dup5\n        /* \"#utility.yul\":12771:12794   */\n      sub\n        /* \"#utility.yul\":12767:12799   */\n      slt\n        /* \"#utility.yul\":12764:12883   */\n      iszero\n      tag_748\n      jumpi\n        /* \"#utility.yul\":12802:12881   */\n      tag_749\n      tag_530\n      jump\t// in\n    tag_749:\n        /* \"#utility.yul\":12764:12883   */\n    tag_748:\n        /* \"#utility.yul\":12922:12923   */\n      0x00\n        /* \"#utility.yul\":12947:13008   */\n      tag_750\n        /* \"#utility.yul\":13000:13007   */\n      dup5\n        /* \"#utility.yul\":12991:12997   */\n      dup3\n        /* \"#utility.yul\":12980:12989   */\n      dup6\n        /* \"#utility.yul\":12976:12998   */\n      add\n        /* \"#utility.yul\":12947:13008   */\n      tag_567\n      jump\t// in\n    tag_750:\n        /* \"#utility.yul\":12937:13008   */\n      swap2\n      pop\n        /* \"#utility.yul\":12893:13018   */\n      pop\n        /* \"#utility.yul\":12680:13025   */\n      swap3\n      swap2\n      pop\n      pop\n      jump\t// out\n        /* \"#utility.yul\":13031:13363   */\n    tag_284:\n        /* \"#utility.yul\":13152:13156   */\n      0x00\n        /* \"#utility.yul\":13190:13192   */\n      0x40\n        /* \"#utility.yul\":13179:13188   */\n      dup3\n        /* \"#utility.yul\":13175:13193   */\n      add\n        /* \"#utility.yul\":13167:13193   */\n      swap1\n      pop\n        /* \"#utility.yul\":13203:13274   */\n      tag_752\n        /* \"#utility.yul\":13271:13272   */\n      0x00\n        /* \"#utility.yul\":13260:13269   */\n      dup4\n        /* \"#utility.yul\":13256:13273   */\n      add\n        /* \"#utility.yul\":13247:13253   */\n      dup6\n        /* \"#utility.yul\":13203:13274   */\n      tag_535\n      jump\t// in\n    tag_752:\n        /* \"#utility.yul\":13284:13356   */\n      tag_753\n        /* \"#utility.yul\":13352:13354   */\n      0x20\n        /* \"#utility.yul\":13341:13350   */\n      dup4\n        /* \"#utility.yul\":13337:13355   */\n      add\n        /* \"#utility.yul\":13328:13334   */\n      dup5\n        /* \"#utility.yul\":13284:13356   */\n      tag_535\n      jump\t// in\n    tag_753:\n        /* \"#utility.yul\":13031:13363   */\n      swap4\n      swap3\n      pop\n      pop\n      pop\n      jump\t// out\n        /* \"#utility.yul\":13369:13535   */\n    tag_568:\n        /* \"#utility.yul\":13509:13527   */\n      0x4e4f545f44454c454741544543414c4c00000000000000000000000000000000\n        /* \"#utility.yul\":13505:13506   */\n      0x00\n        /* \"#utility.yul\":13497:13503   */\n      dup3\n        /* \"#utility.yul\":13493:13507   */\n      add\n        /* \"#utility.yul\":13486:13528   */\n      mstore\n        /* \"#utility.yul\":13369:13535   */\n      pop\n      jump\t// out\n        /* \"#utility.yul\":13541:13907   */\n    tag_569:\n        /* \"#utility.yul\":13683:13686   */\n      0x00\n        /* \"#utility.yul\":13704:13771   */\n      tag_756\n        /* \"#utility.yul\":13768:13770   */\n      0x10\n        /* \"#utility.yul\":13763:13766   */\n      dup4\n        /* \"#utility.yul\":13704:13771   */\n      tag_547\n      jump\t// in\n    tag_756:\n        /* \"#utility.yul\":13697:13771   */\n      swap2\n      pop\n        /* \"#utility.yul\":13780:13873   */\n      tag_757\n        /* \"#utility.yul\":13869:13872   */\n      dup3\n        /* \"#utility.yul\":13780:13873   */\n      tag_568\n      jump\t// in\n    tag_757:\n        /* \"#utility.yul\":13898:13900   */\n      0x20\n        /* \"#utility.yul\":13893:13896   */\n      dup3\n        /* \"#utility.yul\":13889:13901   */\n      add\n        /* \"#utility.yul\":13882:13901   */\n      swap1\n      pop\n        /* \"#utility.yul\":13541:13907   */\n      swap2\n      swap1\n      pop\n      jump\t// out\n        /* \"#utility.yul\":13913:14332   */\n    tag_288:\n        /* \"#utility.yul\":14079:14083   */\n      0x00\n        /* \"#utility.yul\":14117:14119   */\n      0x20\n        /* \"#utility.yul\":14106:14115   */\n      dup3\n        /* \"#utility.yul\":14102:14120   */\n      add\n        /* \"#utility.yul\":14094:14120   */\n      swap1\n      pop\n        /* \"#utility.yul\":14166:14175   */\n      dup2\n        /* \"#utility.yul\":14160:14164   */\n      dup2\n        /* \"#utility.yul\":14156:14176   */\n      sub\n        /* \"#utility.yul\":14152:14153   */\n      0x00\n        /* \"#utility.yul\":14141:14150   */\n      dup4\n        /* \"#utility.yul\":14137:14154   */\n      add\n        /* \"#utility.yul\":14130:14177   */\n      mstore\n        /* \"#utility.yul\":14194:14325   */\n      tag_759\n        /* \"#utility.yul\":14320:14324   */\n      dup2\n        /* \"#utility.yul\":14194:14325   */\n      tag_569\n      jump\t// in\n    tag_759:\n        /* \"#utility.yul\":14186:14325   */\n      swap1\n      pop\n        /* \"#utility.yul\":13913:14332   */\n      swap2\n      swap1\n      pop\n      jump\t// out\n        /* \"#utility.yul\":14338:14502   */\n    tag_570:\n        /* \"#utility.yul\":14478:14494   */\n      0x494e4143544956455f50524f5859000000000000000000000000000000000000\n        /* \"#utility.yul\":14474:14475   */\n      0x00\n        /* \"#utility.yul\":14466:14472   */\n      dup3\n        /* \"#utility.yul\":14462:14476   */\n      add\n        /* \"#utility.yul\":14455:14495   */\n      mstore\n        /* \"#utility.yul\":14338:14502   */\n      pop\n      jump\t// out\n        /* \"#utility.yul\":14508:14874   */\n    tag_571:\n        /* \"#utility.yul\":14650:14653   */\n      0x00\n        /* \"#utility.yul\":14671:14738   */\n      tag_762\n        /* \"#utility.yul\":14735:14737   */\n      0x0e\n        /* \"#utility.yul\":14730:14733   */\n      dup4\n        /* \"#utility.yul\":14671:14738   */\n      tag_547\n      jump\t// in\n    tag_762:\n        /* \"#utility.yul\":14664:14738   */\n      swap2\n      pop\n        /* \"#utility.yul\":14747:14840   */\n      tag_763\n        /* \"#utility.yul\":14836:14839   */\n      dup3\n        /* \"#utility.yul\":14747:14840   */\n      tag_570\n      jump\t// in\n    tag_763:\n        /* \"#utility.yul\":14865:14867   */\n      0x20\n        /* \"#utility.yul\":14860:14863   */\n      dup3\n        /* \"#utility.yul\":14856:14868   */\n      add\n        /* \"#utility.yul\":14849:14868   */\n      swap1\n      pop\n        /* \"#utility.yul\":14508:14874   */\n      swap2\n      swap1\n      pop\n      jump\t// out\n        /* \"#utility.yul\":14880:15299   */\n    tag_293:\n        /* \"#utility.yul\":15046:15050   */\n      0x00\n        /* \"#utility.yul\":15084:15086   */\n      0x20\n        /* \"#utility.yul\":15073:15082   */\n      dup3\n        /* \"#utility.yul\":15069:15087   */\n      add\n        /* \"#utility.yul\":15061:15087   */\n      swap1\n      pop\n        /* \"#utility.yul\":15133:15142   */\n      dup2\n        /* \"#utility.yul\":15127:15131   */\n      dup2\n        /* \"#utility.yul\":15123:15143   */\n      sub\n        /* \"#utility.yul\":15119:15120   */\n      0x00\n        /* \"#utility.yul\":15108:15117   */\n      dup4\n        /* \"#utility.yul\":15104:15121   */\n      add\n        /* \"#utility.yul\":15097:15144   */\n      mstore\n        /* \"#utility.yul\":15161:15292   */\n      tag_765\n        /* \"#utility.yul\":15287:15291   */\n      dup2\n        /* \"#utility.yul\":15161:15292   */\n      tag_571\n      jump\t// in\n    tag_765:\n        /* \"#utility.yul\":15153:15292   */\n      swap1\n      pop\n        /* \"#utility.yul\":14880:15299   */\n      swap2\n      swap1\n      pop\n      jump\t// out\n        /* \"#utility.yul\":15305:15747   */\n    tag_301:\n        /* \"#utility.yul\":15454:15458   */\n      0x00\n        /* \"#utility.yul\":15492:15494   */\n      0x60\n        /* \"#utility.yul\":15481:15490   */\n      dup3\n        /* \"#utility.yul\":15477:15495   */\n      add\n        /* \"#utility.yul\":15469:15495   */\n      swap1\n      pop\n        /* \"#utility.yul\":15505:15576   */\n      tag_767\n        /* \"#utility.yul\":15573:15574   */\n      0x00\n        /* \"#utility.yul\":15562:15571   */\n      dup4\n        /* \"#utility.yul\":15558:15575   */\n      add\n        /* \"#utility.yul\":15549:15555   */\n      dup7\n        /* \"#utility.yul\":15505:15576   */\n      tag_545\n      jump\t// in\n    tag_767:\n        /* \"#utility.yul\":15586:15658   */\n      tag_768\n        /* \"#utility.yul\":15654:15656   */\n      0x20\n        /* \"#utility.yul\":15643:15652   */\n      dup4\n        /* \"#utility.yul\":15639:15657   */\n      add\n        /* \"#utility.yul\":15630:15636   */\n      dup6\n        /* \"#utility.yul\":15586:15658   */\n      tag_545\n      jump\t// in\n    tag_768:\n        /* \"#utility.yul\":15668:15740   */\n      tag_769\n        /* \"#utility.yul\":15736:15738   */\n      0x40\n        /* \"#utility.yul\":15725:15734   */\n      dup4\n        /* \"#utility.yul\":15721:15739   */\n      add\n        /* \"#utility.yul\":15712:15718   */\n      dup5\n        /* \"#utility.yul\":15668:15740   */\n      tag_535\n      jump\t// in\n    tag_769:\n        /* \"#utility.yul\":15305:15747   */\n      swap5\n      swap4\n      pop\n      pop\n      pop\n      pop\n      jump\t// out\n        /* \"#utility.yul\":15753:15944   */\n    tag_306:\n        /* \"#utility.yul\":15793:15796   */\n      0x00\n        /* \"#utility.yul\":15812:15832   */\n      tag_771\n        /* \"#utility.yul\":15830:15831   */\n      dup3\n        /* \"#utility.yul\":15812:15832   */\n      tag_532\n      jump\t// in\n    tag_771:\n        /* \"#utility.yul\":15807:15832   */\n      swap2\n      pop\n        /* \"#utility.yul\":15846:15866   */\n      tag_772\n        /* \"#utility.yul\":15864:15865   */\n      dup4\n        /* \"#utility.yul\":15846:15866   */\n      tag_532\n      jump\t// in\n    tag_772:\n        /* \"#utility.yul\":15841:15866   */\n      swap3\n      pop\n        /* \"#utility.yul\":15889:15890   */\n      dup3\n        /* \"#utility.yul\":15886:15887   */\n      dup3\n        /* \"#utility.yul\":15882:15891   */\n      add\n        /* \"#utility.yul\":15875:15891   */\n      swap1\n      pop\n        /* \"#utility.yul\":15910:15913   */\n      dup1\n        /* \"#utility.yul\":15907:15908   */\n      dup3\n        /* \"#utility.yul\":15904:15914   */\n      gt\n        /* \"#utility.yul\":15901:15937   */\n      iszero\n      tag_773\n      jumpi\n        /* \"#utility.yul\":15917:15935   */\n      tag_774\n      tag_564\n      jump\t// in\n    tag_774:\n        /* \"#utility.yul\":15901:15937   */\n    tag_773:\n        /* \"#utility.yul\":15753:15944   */\n      swap3\n      swap2\n      pop\n      pop\n      jump\t// out\n        /* \"#utility.yul\":15950:16130   */\n    tag_572:\n        /* \"#utility.yul\":15998:16075   */\n      0x4e487b7100000000000000000000000000000000000000000000000000000000\n        /* \"#utility.yul\":15995:15996   */\n      0x00\n        /* \"#utility.yul\":15988:16076   */\n      mstore\n        /* \"#utility.yul\":16095:16099   */\n      0x22\n        /* \"#utility.yul\":16092:16093   */\n      0x04\n        /* \"#utility.yul\":16085:16100   */\n      mstore\n        /* \"#utility.yul\":16119:16123   */\n      0x24\n        /* \"#utility.yul\":16116:16117   */\n      0x00\n        /* \"#utility.yul\":16109:16124   */\n      revert\n        /* \"#utility.yul\":16136:16456   */\n    tag_343:\n        /* \"#utility.yul\":16180:16186   */\n      0x00\n        /* \"#utility.yul\":16217:16218   */\n      0x02\n        /* \"#utility.yul\":16211:16215   */\n      dup3\n        /* \"#utility.yul\":16207:16219   */\n      div\n        /* \"#utility.yul\":16197:16219   */\n      swap1\n      pop\n        /* \"#utility.yul\":16264:16265   */\n      0x01\n        /* \"#utility.yul\":16258:16262   */\n      dup3\n        /* \"#utility.yul\":16254:16266   */\n      and\n        /* \"#utility.yul\":16285:16303   */\n      dup1\n        /* \"#utility.yul\":16275:16356   */\n      tag_777\n      jumpi\n        /* \"#utility.yul\":16341:16345   */\n      0x7f\n        /* \"#utility.yul\":16333:16339   */\n      dup3\n        /* \"#utility.yul\":16329:16346   */\n      and\n        /* \"#utility.yul\":16319:16346   */\n      swap2\n      pop\n        /* \"#utility.yul\":16275:16356   */\n    tag_777:\n        /* \"#utility.yul\":16403:16405   */\n      0x20\n        /* \"#utility.yul\":16395:16401   */\n      dup3\n        /* \"#utility.yul\":16392:16406   */\n      lt\n        /* \"#utility.yul\":16372:16390   */\n      dup2\n        /* \"#utility.yul\":16369:16407   */\n      sub\n        /* \"#utility.yul\":16366:16450   */\n      tag_778\n      jumpi\n        /* \"#utility.yul\":16422:16440   */\n      tag_779\n      tag_572\n      jump\t// in\n    tag_779:\n        /* \"#utility.yul\":16366:16450   */\n    tag_778:\n        /* \"#utility.yul\":16187:16456   */\n      pop\n        /* \"#utility.yul\":16136:16456   */\n      swap2\n      swap1\n      pop\n      jump\t// out\n        /* \"#utility.yul\":16462:16631   */\n    tag_573:\n        /* \"#utility.yul\":16602:16623   */\n      0x4f4e4c595f494d504c454d454e544154494f4e00000000000000000000000000\n        /* \"#utility.yul\":16598:16599   */\n      0x00\n        /* \"#utility.yul\":16590:16596   */\n      dup3\n        /* \"#utility.yul\":16586:16600   */\n      add\n        /* \"#utility.yul\":16579:16624   */\n      mstore\n        /* \"#utility.yul\":16462:16631   */\n      pop\n      jump\t// out\n        /* \"#utility.yul\":16637:17003   */\n    tag_574:\n        /* \"#utility.yul\":16779:16782   */\n      0x00\n        /* \"#utility.yul\":16800:16867   */\n      tag_782\n        /* \"#utility.yul\":16864:16866   */\n      0x13\n        /* \"#utility.yul\":16859:16862   */\n      dup4\n        /* \"#utility.yul\":16800:16867   */\n      tag_547\n      jump\t// in\n    tag_782:\n        /* \"#utility.yul\":16793:16867   */\n      swap2\n      pop\n        /* \"#utility.yul\":16876:16969   */\n      tag_783\n        /* \"#utility.yul\":16965:16968   */\n      dup3\n        /* \"#utility.yul\":16876:16969   */\n      tag_573\n      jump\t// in\n    tag_783:\n        /* \"#utility.yul\":16994:16996   */\n      0x20\n        /* \"#utility.yul\":16989:16992   */\n      dup3\n        /* \"#utility.yul\":16985:16997   */\n      add\n        /* \"#utility.yul\":16978:16997   */\n      swap1\n      pop\n        /* \"#utility.yul\":16637:17003   */\n      swap2\n      swap1\n      pop\n      jump\t// out\n        /* \"#utility.yul\":17009:17428   */\n    tag_363:\n        /* \"#utility.yul\":17175:17179   */\n      0x00\n        /* \"#utility.yul\":17213:17215   */\n      0x20\n        /* \"#utility.yul\":17202:17211   */\n      dup3\n        /* \"#utility.yul\":17198:17216   */\n      add\n        /* \"#utility.yul\":17190:17216   */\n      swap1\n      pop\n        /* \"#utility.yul\":17262:17271   */\n      dup2\n        /* \"#utility.yul\":17256:17260   */\n      dup2\n        /* \"#utility.yul\":17252:17272   */\n      sub\n        /* \"#utility.yul\":17248:17249   */\n      0x00\n        /* \"#utility.yul\":17237:17246   */\n      dup4\n        /* \"#utility.yul\":17233:17250   */\n      add\n        /* \"#utility.yul\":17226:17273   */\n      mstore\n        /* \"#utility.yul\":17290:17421   */\n      tag_785\n        /* \"#utility.yul\":17416:17420   */\n      dup2\n        /* \"#utility.yul\":17290:17421   */\n      tag_574\n      jump\t// in\n    tag_785:\n        /* \"#utility.yul\":17282:17421   */\n      swap1\n      pop\n        /* \"#utility.yul\":17009:17428   */\n      swap2\n      swap1\n      pop\n      jump\t// out\n        /* \"#utility.yul\":17434:17577   */\n    tag_575:\n        /* \"#utility.yul\":17491:17496   */\n      0x00\n        /* \"#utility.yul\":17522:17528   */\n      dup2\n        /* \"#utility.yul\":17516:17529   */\n      mload\n        /* \"#utility.yul\":17507:17529   */\n      swap1\n      pop\n        /* \"#utility.yul\":17538:17571   */\n      tag_787\n        /* \"#utility.yul\":17565:17570   */\n      dup2\n        /* \"#utility.yul\":17538:17571   */\n      tag_533\n      jump\t// in\n    tag_787:\n        /* \"#utility.yul\":17434:17577   */\n      swap3\n      swap2\n      pop\n      pop\n      jump\t// out\n        /* \"#utility.yul\":17583:17934   */\n    tag_386:\n        /* \"#utility.yul\":17653:17659   */\n      0x00\n        /* \"#utility.yul\":17702:17704   */\n      0x20\n        /* \"#utility.yul\":17690:17699   */\n      dup3\n        /* \"#utility.yul\":17681:17688   */\n      dup5\n        /* \"#utility.yul\":17677:17700   */\n      sub\n        /* \"#utility.yul\":17673:17705   */\n      slt\n        /* \"#utility.yul\":17670:17789   */\n      iszero\n      tag_789\n      jumpi\n        /* \"#utility.yul\":17708:17787   */\n      tag_790\n      tag_530\n      jump\t// in\n    tag_790:\n        /* \"#utility.yul\":17670:17789   */\n    tag_789:\n        /* \"#utility.yul\":17828:17829   */\n      0x00\n        /* \"#utility.yul\":17853:17917   */\n      tag_791\n        /* \"#utility.yul\":17909:17916   */\n      dup5\n        /* \"#utility.yul\":17900:17906   */\n      dup3\n        /* \"#utility.yul\":17889:17898   */\n      dup6\n        /* \"#utility.yul\":17885:17907   */\n      add\n        /* \"#utility.yul\":17853:17917   */\n      tag_575\n      jump\t// in\n    tag_791:\n        /* \"#utility.yul\":17843:17917   */\n      swap2\n      pop\n        /* \"#utility.yul\":17799:17927   */\n      pop\n        /* \"#utility.yul\":17583:17934   */\n      swap3\n      swap2\n      pop\n      pop\n      jump\t// out\n        /* \"#utility.yul\":17940:18109   */\n    tag_576:\n        /* \"#utility.yul\":18080:18101   */\n      0x414c52454144595f494e495449414c495a454400000000000000000000000000\n        /* \"#utility.yul\":18076:18077   */\n      0x00\n        /* \"#utility.yul\":18068:18074   */\n      dup3\n        /* \"#utility.yul\":18064:18078   */\n      add\n        /* \"#utility.yul\":18057:18102   */\n      mstore\n        /* \"#utility.yul\":17940:18109   */\n      pop\n      jump\t// out\n        /* \"#utility.yul\":18115:18481   */\n    tag_577:\n        /* \"#utility.yul\":18257:18260   */\n      0x00\n        /* \"#utility.yul\":18278:18345   */\n      tag_794\n        /* \"#utility.yul\":18342:18344   */\n      0x13\n        /* \"#utility.yul\":18337:18340   */\n      dup4\n        /* \"#utility.yul\":18278:18345   */\n      tag_547\n      jump\t// in\n    tag_794:\n        /* \"#utility.yul\":18271:18345   */\n      swap2\n      pop\n        /* \"#utility.yul\":18354:18447   */\n      tag_795\n        /* \"#utility.yul\":18443:18446   */\n      dup3\n        /* \"#utility.yul\":18354:18447   */\n      tag_576\n      jump\t// in\n    tag_795:\n        /* \"#utility.yul\":18472:18474   */\n      0x20\n        /* \"#utility.yul\":18467:18470   */\n      dup3\n        /* \"#utility.yul\":18463:18475   */\n      add\n        /* \"#utility.yul\":18456:18475   */\n      swap1\n      pop\n        /* \"#utility.yul\":18115:18481   */\n      swap2\n      swap1\n      pop\n      jump\t// out\n        /* \"#utility.yul\":18487:18906   */\n    tag_427:\n        /* \"#utility.yul\":18653:18657   */\n      0x00\n        /* \"#utility.yul\":18691:18693   */\n      0x20\n        /* \"#utility.yul\":18680:18689   */\n      dup3\n        /* \"#utility.yul\":18676:18694   */\n      add\n        /* \"#utility.yul\":18668:18694   */\n      swap1\n      pop\n        /* \"#utility.yul\":18740:18749   */\n      dup2\n        /* \"#utility.yul\":18734:18738   */\n      dup2\n        /* \"#utility.yul\":18730:18750   */\n      sub\n        /* \"#utility.yul\":18726:18727   */\n      0x00\n        /* \"#utility.yul\":18715:18724   */\n      dup4\n        /* \"#utility.yul\":18711:18728   */\n      add\n        /* \"#utility.yul\":18704:18751   */\n      mstore\n        /* \"#utility.yul\":18768:18899   */\n      tag_797\n        /* \"#utility.yul\":18894:18898   */\n      dup2\n        /* \"#utility.yul\":18768:18899   */\n      tag_577\n      jump\t// in\n    tag_797:\n        /* \"#utility.yul\":18760:18899   */\n      swap1\n      pop\n        /* \"#utility.yul\":18487:18906   */\n      swap2\n      swap1\n      pop\n      jump\t// out\n        /* \"#utility.yul\":18912:19009   */\n    tag_578:\n        /* \"#utility.yul\":18971:18977   */\n      0x00\n        /* \"#utility.yul\":18999:19002   */\n      dup3\n        /* \"#utility.yul\":18989:19002   */\n      swap1\n      pop\n        /* \"#utility.yul\":18912:19009   */\n      swap3\n      swap2\n      pop\n      pop\n      jump\t// out\n        /* \"#utility.yul\":19015:19195   */\n    tag_579:\n        /* \"#utility.yul\":19063:19140   */\n      0x4e487b7100000000000000000000000000000000000000000000000000000000\n        /* \"#utility.yul\":19060:19061   */\n      0x00\n        /* \"#utility.yul\":19053:19141   */\n      mstore\n        /* \"#utility.yul\":19160:19164   */\n      0x41\n        /* \"#utility.yul\":19157:19158   */\n      0x04\n        /* \"#utility.yul\":19150:19165   */\n      mstore\n        /* \"#utility.yul\":19184:19188   */\n      0x24\n        /* \"#utility.yul\":19181:19182   */\n      0x00\n        /* \"#utility.yul\":19174:19189   */\n      revert\n        /* \"#utility.yul\":19201:19342   */\n    tag_580:\n        /* \"#utility.yul\":19250:19254   */\n      0x00\n        /* \"#utility.yul\":19273:19276   */\n      dup2\n        /* \"#utility.yul\":19265:19276   */\n      swap1\n      pop\n        /* \"#utility.yul\":19296:19299   */\n      dup2\n        /* \"#utility.yul\":19293:19294   */\n      0x00\n        /* \"#utility.yul\":19286:19300   */\n      mstore\n        /* \"#utility.yul\":19330:19334   */\n      0x20\n        /* \"#utility.yul\":19327:19328   */\n      0x00\n        /* \"#utility.yul\":19317:19335   */\n      keccak256\n        /* \"#utility.yul\":19309:19335   */\n      swap1\n      pop\n        /* \"#utility.yul\":19201:19342   */\n      swap2\n      swap1\n      pop\n      jump\t// out\n        /* \"#utility.yul\":19348:19441   */\n    tag_581:\n        /* \"#utility.yul\":19385:19391   */\n      0x00\n        /* \"#utility.yul\":19432:19434   */\n      0x20\n        /* \"#utility.yul\":19427:19429   */\n      0x1f\n        /* \"#utility.yul\":19420:19425   */\n      dup4\n        /* \"#utility.yul\":19416:19430   */\n      add\n        /* \"#utility.yul\":19412:19435   */\n      div\n        /* \"#utility.yul\":19402:19435   */\n      swap1\n      pop\n        /* \"#utility.yul\":19348:19441   */\n      swap2\n      swap1\n      pop\n      jump\t// out\n        /* \"#utility.yul\":19447:19554   */\n    tag_582:\n        /* \"#utility.yul\":19491:19499   */\n      0x00\n        /* \"#utility.yul\":19541:19546   */\n      dup3\n        /* \"#utility.yul\":19535:19539   */\n      dup3\n        /* \"#utility.yul\":19531:19547   */\n      shl\n        /* \"#utility.yul\":19510:19547   */\n      swap1\n      pop\n        /* \"#utility.yul\":19447:19554   */\n      swap3\n      swap2\n      pop\n      pop\n      jump\t// out\n        /* \"#utility.yul\":19560:19953   */\n    tag_583:\n        /* \"#utility.yul\":19629:19635   */\n      0x00\n        /* \"#utility.yul\":19679:19680   */\n      0x08\n        /* \"#utility.yul\":19667:19677   */\n      dup4\n        /* \"#utility.yul\":19663:19681   */\n      mul\n        /* \"#utility.yul\":19702:19799   */\n      tag_804\n        /* \"#utility.yul\":19732:19798   */\n      0xffffffffffffffffffffffffffffffffffffffffffffffffffffffffffffffff\n        /* \"#utility.yul\":19721:19730   */\n      dup3\n        /* \"#utility.yul\":19702:19799   */\n      tag_582\n      jump\t// in\n    tag_804:\n        /* \"#utility.yul\":19820:19859   */\n      tag_805\n        /* \"#utility.yul\":19850:19858   */\n      dup7\n        /* \"#utility.yul\":19839:19848   */\n      dup4\n        /* \"#utility.yul\":19820:19859   */\n      tag_582\n      jump\t// in\n    tag_805:\n        /* \"#utility.yul\":19808:19859   */\n      swap6\n      pop\n        /* \"#utility.yul\":19892:19896   */\n      dup1\n        /* \"#utility.yul\":19888:19897   */\n      not\n        /* \"#utility.yul\":19881:19886   */\n      dup5\n        /* \"#utility.yul\":19877:19898   */\n      and\n        /* \"#utility.yul\":19868:19898   */\n      swap4\n      pop\n        /* \"#utility.yul\":19941:19945   */\n      dup1\n        /* \"#utility.yul\":19931:19939   */\n      dup7\n        /* \"#utility.yul\":19927:19946   */\n      and\n        /* \"#utility.yul\":19920:19925   */\n      dup5\n        /* \"#utility.yul\":19917:19947   */\n      or\n        /* \"#utility.yul\":19907:19947   */\n      swap3\n      pop\n        /* \"#utility.yul\":19636:19953   */\n      pop\n      pop\n        /* \"#utility.yul\":19560:19953   */\n      swap4\n      swap3\n      pop\n      pop\n      pop\n      jump\t// out\n        /* \"#utility.yul\":19959:20101   */\n    tag_584:\n        /* \"#utility.yul\":20009:20018   */\n      0x00\n        /* \"#utility.yul\":20042:20095   */\n      tag_807\n        /* \"#utility.yul\":20060:20094   */\n      tag_808\n        /* \"#utility.yul\":20069:20093   */\n      tag_809\n        /* \"#utility.yul\":20087:20092   */\n      dup5\n        /* \"#utility.yul\":20069:20093   */\n      tag_532\n      jump\t// in\n    tag_809:\n        /* \"#utility.yul\":20060:20094   */\n      tag_540\n      jump\t// in\n    tag_808:\n        /* \"#utility.yul\":20042:20095   */\n      tag_532\n      jump\t// in\n    tag_807:\n        /* \"#utility.yul\":20029:20095   */\n      swap1\n      pop\n        /* \"#utility.yul\":19959:20101   */\n      swap2\n      swap1\n      pop\n      jump\t// out\n        /* \"#utility.yul\":20107:20182   */\n    tag_585:\n        /* \"#utility.yul\":20150:20153   */\n      0x00\n        /* \"#utility.yul\":20171:20176   */\n      dup2\n        /* \"#utility.yul\":20164:20176   */\n      swap1\n      pop\n        /* \"#utility.yul\":20107:20182   */\n      swap2\n      swap1\n      pop\n      jump\t// out\n        /* \"#utility.yul\":20188:20457   */\n    tag_586:\n        /* \"#utility.yul\":20298:20337   */\n      tag_812\n        /* \"#utility.yul\":20329:20336   */\n      dup4\n        /* \"#utility.yul\":20298:20337   */\n      tag_584\n      jump\t// in\n    tag_812:\n        /* \"#utility.yul\":20359:20450   */\n      tag_813\n        /* \"#utility.yul\":20408:20449   */\n      tag_814\n        /* \"#utility.yul\":20432:20448   */\n      dup3\n        /* \"#utility.yul\":20408:20449   */\n      tag_585\n      jump\t// in\n    tag_814:\n        /* \"#utility.yul\":20400:20406   */\n      dup5\n        /* \"#utility.yul\":20393:20397   */\n      dup5\n        /* \"#utility.yul\":20387:20398   */\n      sload\n        /* \"#utility.yul\":20359:20450   */\n      tag_583\n      jump\t// in\n    tag_813:\n        /* \"#utility.yul\":20353:20357   */\n      dup3\n        /* \"#utility.yul\":20346:20451   */\n      sstore\n        /* \"#utility.yul\":20264:20457   */\n      pop\n        /* \"#utility.yul\":20188:20457   */\n      pop\n      pop\n      pop\n      jump\t// out\n        /* \"#utility.yul\":20463:20536   */\n    tag_587:\n        /* \"#utility.yul\":20508:20511   */\n      0x00\n        /* \"#utility.yul\":20529:20530   */\n      0x00\n        /* \"#utility.yul\":20522:20530   */\n      swap1\n      pop\n        /* \"#utility.yul\":20463:20536   */\n      swap1\n      jump\t// out\n        /* \"#utility.yul\":20542:20731   */\n    tag_588:\n        /* \"#utility.yul\":20619:20651   */\n      tag_817\n      tag_587\n      jump\t// in\n    tag_817:\n        /* \"#utility.yul\":20660:20725   */\n      tag_818\n        /* \"#utility.yul\":20718:20724   */\n      dup2\n        /* \"#utility.yul\":20710:20716   */\n      dup5\n        /* \"#utility.yul\":20704:20708   */\n      dup5\n        /* \"#utility.yul\":20660:20725   */\n      tag_586\n      jump\t// in\n    tag_818:\n        /* \"#utility.yul\":20595:20731   */\n      pop\n        /* \"#utility.yul\":20542:20731   */\n      pop\n      pop\n      jump\t// out\n        /* \"#utility.yul\":20737:20923   */\n    tag_589:\n        /* \"#utility.yul\":20797:20917   */\n    tag_820:\n        /* \"#utility.yul\":20814:20817   */\n      dup2\n        /* \"#utility.yul\":20807:20812   */\n      dup2\n        /* \"#utility.yul\":20804:20818   */\n      lt\n        /* \"#utility.yul\":20797:20917   */\n      iszero\n      tag_822\n      jumpi\n        /* \"#utility.yul\":20868:20907   */\n      tag_823\n        /* \"#utility.yul\":20905:20906   */\n      0x00\n        /* \"#utility.yul\":20898:20903   */\n      dup3\n        /* \"#utility.yul\":20868:20907   */\n      tag_588\n      jump\t// in\n    tag_823:\n        /* \"#utility.yul\":20841:20842   */\n      0x01\n        /* \"#utility.yul\":20834:20839   */\n      dup2\n        /* \"#utility.yul\":20830:20843   */\n      add\n        /* \"#utility.yul\":20821:20843   */\n      swap1\n      pop\n        /* \"#utility.yul\":20797:20917   */\n      jump(tag_820)\n    tag_822:\n        /* \"#utility.yul\":20737:20923   */\n      pop\n      pop\n      jump\t// out\n        /* \"#utility.yul\":20929:21472   */\n    tag_590:\n        /* \"#utility.yul\":21030:21032   */\n      0x1f\n        /* \"#utility.yul\":21025:21028   */\n      dup3\n        /* \"#utility.yul\":21022:21033   */\n      gt\n        /* \"#utility.yul\":21019:21465   */\n      iszero\n      tag_825\n      jumpi\n        /* \"#utility.yul\":21064:21102   */\n      tag_826\n        /* \"#utility.yul\":21096:21101   */\n      dup2\n        /* \"#utility.yul\":21064:21102   */\n      tag_580\n      jump\t// in\n    tag_826:\n        /* \"#utility.yul\":21148:21177   */\n      tag_827\n        /* \"#utility.yul\":21166:21176   */\n      dup5\n        /* \"#utility.yul\":21148:21177   */\n      tag_581\n      jump\t// in\n    tag_827:\n        /* \"#utility.yul\":21138:21146   */\n      dup2\n        /* \"#utility.yul\":21134:21178   */\n      add\n        /* \"#utility.yul\":21331:21333   */\n      0x20\n        /* \"#utility.yul\":21319:21329   */\n      dup6\n        /* \"#utility.yul\":21316:21334   */\n      lt\n        /* \"#utility.yul\":21313:21362   */\n      iszero\n      tag_828\n      jumpi\n        /* \"#utility.yul\":21352:21360   */\n      dup2\n        /* \"#utility.yul\":21337:21360   */\n      swap1\n      pop\n        /* \"#utility.yul\":21313:21362   */\n    tag_828:\n        /* \"#utility.yul\":21375:21455   */\n      tag_829\n        /* \"#utility.yul\":21431:21453   */\n      tag_830\n        /* \"#utility.yul\":21449:21452   */\n      dup6\n        /* \"#utility.yul\":21431:21453   */\n      tag_581\n      jump\t// in\n    tag_830:\n        /* \"#utility.yul\":21421:21429   */\n      dup4\n        /* \"#utility.yul\":21417:21454   */\n      add\n        /* \"#utility.yul\":21404:21415   */\n      dup3\n        /* \"#utility.yul\":21375:21455   */\n      tag_589\n      jump\t// in\n    tag_829:\n        /* \"#utility.yul\":21034:21465   */\n      pop\n      pop\n        /* \"#utility.yul\":21019:21465   */\n    tag_825:\n        /* \"#utility.yul\":20929:21472   */\n      pop\n      pop\n      pop\n      jump\t// out\n        /* \"#utility.yul\":21478:21595   */\n    tag_591:\n        /* \"#utility.yul\":21532:21540   */\n      0x00\n        /* \"#utility.yul\":21582:21587   */\n      dup3\n        /* \"#utility.yul\":21576:21580   */\n      dup3\n        /* \"#utility.yul\":21572:21588   */\n      shr\n        /* \"#utility.yul\":21551:21588   */\n      swap1\n      pop\n        /* \"#utility.yul\":21478:21595   */\n      swap3\n      swap2\n      pop\n      pop\n      jump\t// out\n        /* \"#utility.yul\":21601:21770   */\n    tag_592:\n        /* \"#utility.yul\":21645:21651   */\n      0x00\n        /* \"#utility.yul\":21678:21729   */\n      tag_833\n        /* \"#utility.yul\":21726:21727   */\n      0x00\n        /* \"#utility.yul\":21722:21728   */\n      not\n        /* \"#utility.yul\":21714:21719   */\n      dup5\n        /* \"#utility.yul\":21711:21712   */\n      0x08\n        /* \"#utility.yul\":21707:21720   */\n      mul\n        /* \"#utility.yul\":21678:21729   */\n      tag_591\n      jump\t// in\n    tag_833:\n        /* \"#utility.yul\":21674:21730   */\n      not\n        /* \"#utility.yul\":21759:21763   */\n      dup1\n        /* \"#utility.yul\":21753:21757   */\n      dup4\n        /* \"#utility.yul\":21749:21764   */\n      and\n        /* \"#utility.yul\":21739:21764   */\n      swap2\n      pop\n        /* \"#utility.yul\":21652:21770   */\n      pop\n        /* \"#utility.yul\":21601:21770   */\n      swap3\n      swap2\n      pop\n      pop\n      jump\t// out\n        /* \"#utility.yul\":21775:22070   */\n    tag_593:\n        /* \"#utility.yul\":21851:21855   */\n      0x00\n        /* \"#utility.yul\":21997:22026   */\n      tag_835\n        /* \"#utility.yul\":22022:22025   */\n      dup4\n        /* \"#utility.yul\":22016:22020   */\n      dup4\n        /* \"#utility.yul\":21997:22026   */\n      tag_592\n      jump\t// in\n    tag_835:\n        /* \"#utility.yul\":21989:22026   */\n      swap2\n      pop\n        /* \"#utility.yul\":22059:22062   */\n      dup3\n        /* \"#utility.yul\":22056:22057   */\n      0x02\n        /* \"#utility.yul\":22052:22063   */\n      mul\n        /* \"#utility.yul\":22046:22050   */\n      dup3\n        /* \"#utility.yul\":22043:22064   */\n      or\n        /* \"#utility.yul\":22035:22064   */\n      swap1\n      pop\n        /* \"#utility.yul\":21775:22070   */\n      swap3\n      swap2\n      pop\n      pop\n      jump\t// out\n        /* \"#utility.yul\":22075:23478   */\n    tag_445:\n        /* \"#utility.yul\":22199:22243   */\n      tag_837\n        /* \"#utility.yul\":22239:22242   */\n      dup4\n        /* \"#utility.yul\":22234:22237   */\n      dup4\n        /* \"#utility.yul\":22199:22243   */\n      tag_578\n      jump\t// in\n    tag_837:\n        /* \"#utility.yul\":22308:22326   */\n      0xffffffffffffffff\n        /* \"#utility.yul\":22300:22306   */\n      dup2\n        /* \"#utility.yul\":22297:22327   */\n      gt\n        /* \"#utility.yul\":22294:22350   */\n      iszero\n      tag_838\n      jumpi\n        /* \"#utility.yul\":22330:22348   */\n      tag_839\n      tag_579\n      jump\t// in\n    tag_839:\n        /* \"#utility.yul\":22294:22350   */\n    tag_838:\n        /* \"#utility.yul\":22374:22412   */\n      tag_840\n        /* \"#utility.yul\":22406:22410   */\n      dup3\n        /* \"#utility.yul\":22400:22411   */\n      sload\n        /* \"#utility.yul\":22374:22412   */\n      tag_343\n      jump\t// in\n    tag_840:\n        /* \"#utility.yul\":22459:22526   */\n      tag_841\n        /* \"#utility.yul\":22519:22525   */\n      dup3\n        /* \"#utility.yul\":22511:22517   */\n      dup3\n        /* \"#utility.yul\":22505:22509   */\n      dup6\n        /* \"#utility.yul\":22459:22526   */\n      tag_590\n      jump\t// in\n    tag_841:\n        /* \"#utility.yul\":22553:22554   */\n      0x00\n        /* \"#utility.yul\":22582:22584   */\n      0x1f\n        /* \"#utility.yul\":22574:22580   */\n      dup4\n        /* \"#utility.yul\":22571:22585   */\n      gt\n        /* \"#utility.yul\":22599:22600   */\n      0x01\n        /* \"#utility.yul\":22594:23226   */\n      dup2\n      eq\n      tag_843\n      jumpi\n        /* \"#utility.yul\":23270:23271   */\n      0x00\n        /* \"#utility.yul\":23287:23293   */\n      dup5\n        /* \"#utility.yul\":23284:23368   */\n      iszero\n      tag_844\n      jumpi\n        /* \"#utility.yul\":23343:23352   */\n      dup3\n        /* \"#utility.yul\":23338:23341   */\n      dup8\n        /* \"#utility.yul\":23334:23353   */\n      add\n        /* \"#utility.yul\":23321:23354   */\n      calldataload\n        /* \"#utility.yul\":23312:23354   */\n      swap1\n      pop\n        /* \"#utility.yul\":23284:23368   */\n    tag_844:\n        /* \"#utility.yul\":23394:23461   */\n      tag_845\n        /* \"#utility.yul\":23454:23460   */\n      dup6\n        /* \"#utility.yul\":23447:23452   */\n      dup3\n        /* \"#utility.yul\":23394:23461   */\n      tag_593\n      jump\t// in\n    tag_845:\n        /* \"#utility.yul\":23388:23392   */\n      dup7\n        /* \"#utility.yul\":23381:23462   */\n      sstore\n        /* \"#utility.yul\":23243:23472   */\n      pop\n        /* \"#utility.yul\":22564:23472   */\n      jump(tag_842)\n        /* \"#utility.yul\":22594:23226   */\n    tag_843:\n        /* \"#utility.yul\":22646:22650   */\n      0x1f\n        /* \"#utility.yul\":22642:22651   */\n      not\n        /* \"#utility.yul\":22634:22640   */\n      dup5\n        /* \"#utility.yul\":22630:22652   */\n      and\n        /* \"#utility.yul\":22680:22717   */\n      tag_846\n        /* \"#utility.yul\":22712:22716   */\n      dup7\n        /* \"#utility.yul\":22680:22717   */\n      tag_580\n      jump\t// in\n    tag_846:\n        /* \"#utility.yul\":22739:22740   */\n      0x00\n        /* \"#utility.yul\":22753:22968   */\n    tag_847:\n        /* \"#utility.yul\":22767:22774   */\n      dup3\n        /* \"#utility.yul\":22764:22765   */\n      dup2\n        /* \"#utility.yul\":22761:22775   */\n      lt\n        /* \"#utility.yul\":22753:22968   */\n      iszero\n      tag_849\n      jumpi\n        /* \"#utility.yul\":22853:22862   */\n      dup5\n        /* \"#utility.yul\":22848:22851   */\n      dup10\n        /* \"#utility.yul\":22844:22863   */\n      add\n        /* \"#utility.yul\":22831:22864   */\n      calldataload\n        /* \"#utility.yul\":22823:22829   */\n      dup3\n        /* \"#utility.yul\":22816:22865   */\n      sstore\n        /* \"#utility.yul\":22904:22905   */\n      0x01\n        /* \"#utility.yul\":22896:22902   */\n      dup3\n        /* \"#utility.yul\":22892:22906   */\n      add\n        /* \"#utility.yul\":22882:22906   */\n      swap2\n      pop\n        /* \"#utility.yul\":22951:22953   */\n      0x20\n        /* \"#utility.yul\":22940:22949   */\n      dup6\n        /* \"#utility.yul\":22936:22954   */\n      add\n        /* \"#utility.yul\":22923:22954   */\n      swap5\n      pop\n        /* \"#utility.yul\":22790:22794   */\n      0x20\n        /* \"#utility.yul\":22787:22788   */\n      dup2\n        /* \"#utility.yul\":22783:22795   */\n      add\n        /* \"#utility.yul\":22778:22795   */\n      swap1\n      pop\n        /* \"#utility.yul\":22753:22968   */\n      jump(tag_847)\n    tag_849:\n        /* \"#utility.yul\":22996:23002   */\n      dup7\n        /* \"#utility.yul\":22987:22994   */\n      dup4\n        /* \"#utility.yul\":22984:23003   */\n      lt\n        /* \"#utility.yul\":22981:23167   */\n      iszero\n      tag_850\n      jumpi\n        /* \"#utility.yul\":23061:23070   */\n      dup5\n        /* \"#utility.yul\":23056:23059   */\n      dup10\n        /* \"#utility.yul\":23052:23071   */\n      add\n        /* \"#utility.yul\":23039:23072   */\n      calldataload\n        /* \"#utility.yul\":23104:23152   */\n      tag_851\n        /* \"#utility.yul\":23146:23150   */\n      0x1f\n        /* \"#utility.yul\":23138:23144   */\n      dup10\n        /* \"#utility.yul\":23134:23151   */\n      and\n        /* \"#utility.yul\":23123:23132   */\n      dup3\n        /* \"#utility.yul\":23104:23152   */\n      tag_592\n      jump\t// in\n    tag_851:\n        /* \"#utility.yul\":23096:23102   */\n      dup4\n        /* \"#utility.yul\":23089:23153   */\n      sstore\n        /* \"#utility.yul\":23004:23167   */\n      pop\n        /* \"#utility.yul\":22981:23167   */\n    tag_850:\n        /* \"#utility.yul\":23213:23214   */\n      0x01\n        /* \"#utility.yul\":23209:23210   */\n      0x02\n        /* \"#utility.yul\":23201:23207   */\n      dup9\n        /* \"#utility.yul\":23197:23211   */\n      mul\n        /* \"#utility.yul\":23193:23215   */\n      add\n        /* \"#utility.yul\":23187:23191   */\n      dup9\n        /* \"#utility.yul\":23180:23216   */\n      sstore\n        /* \"#utility.yul\":22601:23226   */\n      pop\n      pop\n      pop\n        /* \"#utility.yul\":22564:23472   */\n    tag_842:\n      pop\n        /* \"#utility.yul\":22174:23478   */\n      pop\n      pop\n      pop\n        /* \"#utility.yul\":22075:23478   */\n      pop\n      pop\n      pop\n      jump\t// out\n        /* \"#utility.yul\":23484:23643   */\n    tag_594:\n        /* \"#utility.yul\":23624:23635   */\n      0x5a45524f5f494d504c0000000000000000000000000000000000000000000000\n        /* \"#utility.yul\":23620:23621   */\n      0x00\n        /* \"#utility.yul\":23612:23618   */\n      dup3\n        /* \"#utility.yul\":23608:23622   */\n      add\n        /* \"#utility.yul\":23601:23636   */\n      mstore\n        /* \"#utility.yul\":23484:23643   */\n      pop\n      jump\t// out\n        /* \"#utility.yul\":23649:24014   */\n    tag_595:\n        /* \"#utility.yul\":23791:23794   */\n      0x00\n        /* \"#utility.yul\":23812:23878   */\n      tag_854\n        /* \"#utility.yul\":23876:23877   */\n      0x09\n        /* \"#utility.yul\":23871:23874   */\n      dup4\n        /* \"#utility.yul\":23812:23878   */\n      tag_547\n      jump\t// in\n    tag_854:\n        /* \"#utility.yul\":23805:23878   */\n      swap2\n      pop\n        /* \"#utility.yul\":23887:23980   */\n      tag_855\n        /* \"#utility.yul\":23976:23979   */\n      dup3\n        /* \"#utility.yul\":23887:23980   */\n      tag_594\n      jump\t// in\n    tag_855:\n        /* \"#utility.yul\":24005:24007   */\n      0x20\n        /* \"#utility.yul\":24000:24003   */\n      dup3\n        /* \"#utility.yul\":23996:24008   */\n      add\n        /* \"#utility.yul\":23989:24008   */\n      swap1\n      pop\n        /* \"#utility.yul\":23649:24014   */\n      swap2\n      swap1\n      pop\n      jump\t// out\n        /* \"#utility.yul\":24020:24439   */\n    tag_506:\n        /* \"#utility.yul\":24186:24190   */\n      0x00\n        /* \"#utility.yul\":24224:24226   */\n      0x20\n        /* \"#utility.yul\":24213:24222   */\n      dup3\n        /* \"#utility.yul\":24209:24227   */\n      add\n        /* \"#utility.yul\":24201:24227   */\n      swap1\n      pop\n        /* \"#utility.yul\":24273:24282   */\n      dup2\n        /* \"#utility.yul\":24267:24271   */\n      dup2\n        /* \"#utility.yul\":24263:24283   */\n      sub\n        /* \"#utility.yul\":24259:24260   */\n      0x00\n        /* \"#utility.yul\":24248:24257   */\n      dup4\n        /* \"#utility.yul\":24244:24261   */\n      add\n        /* \"#utility.yul\":24237:24284   */\n      mstore\n        /* \"#utility.yul\":24301:24432   */\n      tag_857\n        /* \"#utility.yul\":24427:24431   */\n      dup2\n        /* \"#utility.yul\":24301:24432   */\n      tag_595\n      jump\t// in\n    tag_857:\n        /* \"#utility.yul\":24293:24432   */\n      swap1\n      pop\n        /* \"#utility.yul\":24020:24439   */\n      swap2\n      swap1\n      pop\n      jump\t// out\n        /* \"#utility.yul\":24445:24543   */\n    tag_596:\n        /* \"#utility.yul\":24496:24502   */\n      0x00\n        /* \"#utility.yul\":24530:24535   */\n      dup2\n        /* \"#utility.yul\":24524:24536   */\n      mload\n        /* \"#utility.yul\":24514:24536   */\n      swap1\n      pop\n        /* \"#utility.yul\":24445:24543   */\n      swap2\n      swap1\n      pop\n      jump\t// out\n        /* \"#utility.yul\":24549:24696   */\n    tag_597:\n        /* \"#utility.yul\":24650:24661   */\n      0x00\n        /* \"#utility.yul\":24687:24690   */\n      dup2\n        /* \"#utility.yul\":24672:24690   */\n      swap1\n      pop\n        /* \"#utility.yul\":24549:24696   */\n      swap3\n      swap2\n      pop\n      pop\n      jump\t// out\n        /* \"#utility.yul\":24702:25088   */\n    tag_598:\n        /* \"#utility.yul\":24806:24809   */\n      0x00\n        /* \"#utility.yul\":24834:24872   */\n      tag_861\n        /* \"#utility.yul\":24866:24871   */\n      dup3\n        /* \"#utility.yul\":24834:24872   */\n      tag_596\n      jump\t// in\n    tag_861:\n        /* \"#utility.yul\":24888:24976   */\n      tag_862\n        /* \"#utility.yul\":24969:24975   */\n      dup2\n        /* \"#utility.yul\":24964:24967   */\n      dup6\n        /* \"#utility.yul\":24888:24976   */\n      tag_597\n      jump\t// in\n    tag_862:\n        /* \"#utility.yul\":24881:24976   */\n      swap4\n      pop\n        /* \"#utility.yul\":24985:25050   */\n      tag_863\n        /* \"#utility.yul\":25043:25049   */\n      dup2\n        /* \"#utility.yul\":25038:25041   */\n      dup6\n        /* \"#utility.yul\":25031:25035   */\n      0x20\n        /* \"#utility.yul\":25024:25029   */\n      dup7\n        /* \"#utility.yul\":25020:25036   */\n      add\n        /* \"#utility.yul\":24985:25050   */\n      tag_548\n      jump\t// in\n    tag_863:\n        /* \"#utility.yul\":25075:25081   */\n      dup1\n        /* \"#utility.yul\":25070:25073   */\n      dup5\n        /* \"#utility.yul\":25066:25082   */\n      add\n        /* \"#utility.yul\":25059:25082   */\n      swap2\n      pop\n        /* \"#utility.yul\":24810:25088   */\n      pop\n        /* \"#utility.yul\":24702:25088   */\n      swap3\n      swap2\n      pop\n      pop\n      jump\t// out\n        /* \"#utility.yul\":25094:25365   */\n    tag_512:\n        /* \"#utility.yul\":25224:25227   */\n      0x00\n        /* \"#utility.yul\":25246:25339   */\n      tag_865\n        /* \"#utility.yul\":25335:25338   */\n      dup3\n        /* \"#utility.yul\":25326:25332   */\n      dup5\n        /* \"#utility.yul\":25246:25339   */\n      tag_598\n      jump\t// in\n    tag_865:\n        /* \"#utility.yul\":25239:25339   */\n      swap2\n      pop\n        /* \"#utility.yul\":25356:25359   */\n      dup2\n        /* \"#utility.yul\":25349:25359   */\n      swap1\n      pop\n        /* \"#utility.yul\":25094:25365   */\n      swap3\n      swap2\n      pop\n      pop\n      jump\t// out\n\n    auxdata: 0xa2646970667358221220ff0a09d984c04336cdedf1584d56f41357ccae916dfd7d43b208c20407ce029d64736f6c634300081e0033\n}\n",
				"bytecode": {
					"linkReferences": {},
					"object": "60a06040523073ffffffffffffffffffffffffffffffffffffffff1660809073ffffffffffffffffffffffffffffffffffffffff16815250348015610042575f5ffd5b5060805161374c6100775f395f8181610eab01528181610f390152818161151f015281816115ad01526116a0015261374c5ff3fe608060405260043610610265575f3560e01c80637437535911610143578063b2016bd4116100b5578063d283e75f11610079578063d283e75f146108dd578063d3a417a214610919578063d681a44914610941578063f0f442601461096b578063fbfa77cf14610993578063fc7b9c18146109bd57610265565b8063b2016bd41461080f578063b3604c9614610839578063c5ebeaec14610863578063c82f6d2f1461088b578063ced65b01146108b557610265565b80638da5cb5b116101075780638da5cb5b14610717578063a03b3c9514610741578063a385fb961461077d578063a6afed95146107a7578063aa5af0fd146107bd578063b1c0be34146107e757610265565b8063743753591461063357806376e9790a1461065d57806379f057a2146106875780637c3a00fd146106c35780637dc0d1d0146106ed57610265565b8063371fd8e6116101dc5780634f1ef286116101a05780634f1ef2861461052157806352d1902d1461053d57806355f57510146105675780636112fe2e146105a557806361d027b3146105cd5780636ad9f9df146105f757610265565b8063371fd8e6146104415780633e3722b61461047d5780634046ebae146104a55780634a79d50c146104cf5780634b92917a146104f957610265565b806327776ab51161022e57806327776ab51461034b57806329962904146103755780632f8655681461039f57806335659fb8146103c75780633659cfe6146103f1578063367febea1461041957610265565b8062249b441461026957806301c76f81146102a557806306d37817146102cd578063136cf1f7146102f757806319970d8e14610321575b5f5ffd5b348015610274575f5ffd5b5061028f600480360381019061028a9190612a84565b6109e7565b60405161029c9190612abe565b60405180910390f35b3480156102b0575f5ffd5b506102cb60048036038101906102c69190612b31565b610a27565b005b3480156102d8575f5ffd5b506102e1610ac2565b6040516102ee9190612bb7565b60405180910390f35b348015610302575f5ffd5b5061030b610ae7565b6040516103189190612abe565b60405180910390f35b34801561032c575f5ffd5b50610335610aed565b6040516103429190612abe565b60405180910390f35b348015610356575f5ffd5b5061035f610af3565b60405161036c9190612abe565b60405180910390f35b348015610380575f5ffd5b50610389610aff565b6040516103969190612abe565b60405180910390f35b3480156103aa575f5ffd5b506103c560048036038101906103c09190612b31565b610b05565b005b3480156103d2575f5ffd5b506103db610ea3565b6040516103e89190612abe565b60405180910390f35b3480156103fc575f5ffd5b5061041760048036038101906104129190612b31565b610ea9565b005b348015610424575f5ffd5b5061043f600480360381019061043a9190612a84565b610ff1565b005b34801561044c575f5ffd5b5061046760048036038101906104629190612a84565b6110e8565b6040516104749190612abe565b60405180910390f35b348015610488575f5ffd5b506104a3600480360381019061049e9190612a84565b611306565b005b3480156104b0575f5ffd5b506104b9611411565b6040516104c69190612bdf565b60405180910390f35b3480156104da575f5ffd5b506104e3611436565b6040516104f09190612c68565b60405180910390f35b348015610504575f5ffd5b5061051f600480360381019061051a9190612a84565b6114c2565b005b61053b60048036038101906105369190612ce9565b61151d565b005b348015610548575f5ffd5b5061055161169d565b60405161055e9190612d5e565b60405180910390f35b348015610572575f5ffd5b5061058d60048036038101906105889190612b31565b611754565b60405161059c93929190612d77565b60405180910390f35b3480156105b0575f5ffd5b506105cb60048036038101906105c69190612a84565b61177a565b005b3480156105d8575f5ffd5b506105e16118a7565b6040516105ee9190612bdf565b60405180910390f35b348015610602575f5ffd5b5061061d60048036038101906106189190612b31565b6118cc565b60405161062a9190612abe565b60405180910390f35b34801561063e575f5ffd5b50610647611933565b6040516106549190612abe565b60405180910390f35b348015610668575f5ffd5b506106716119f5565b60405161067e9190612c68565b60405180910390f35b348015610692575f5ffd5b506106ad60048036038101906106a89190612b31565b611a81565b6040516106ba9190612abe565b60405180910390f35b3480156106ce575f5ffd5b506106d7611cf8565b6040516106e49190612abe565b60405180910390f35b3480156106f8575f5ffd5b50610701611cfe565b60405161070e9190612dcc565b60405180910390f35b348015610722575f5ffd5b5061072b611d23565b6040516107389190612bdf565b60405180910390f35b34801561074c575f5ffd5b5061076760048036038101906107629190612b31565b611d48565b6040516107749190612dff565b60405180910390f35b348015610788575f5ffd5b50610791611d5d565b60405161079e9190612abe565b60405180910390f35b3480156107b2575f5ffd5b506107bb611d63565b005b3480156107c8575f5ffd5b506107d1611de2565b6040516107de9190612abe565b60405180910390f35b3480156107f2575f5ffd5b5061080d60048036038101906108089190612e90565b611de8565b005b34801561081a575f5ffd5b50610823612290565b6040516108309190612bb7565b60405180910390f35b348015610844575f5ffd5b5061084d6122b5565b60405161085a9190612abe565b60405180910390f35b34801561086e575f5ffd5b5061088960048036038101906108849190612a84565b6122bb565b005b348015610896575f5ffd5b5061089f61242c565b6040516108ac9190612abe565b60405180910390f35b3480156108c0575f5ffd5b506108db60048036038101906108d69190612f24565b61244c565b005b3480156108e8575f5ffd5b5061090360048036038101906108fe9190612b31565b6124da565b6040516109109190612abe565b60405180910390f35b348015610924575f5ffd5b5061093f600480360381019061093a9190612b31565b612592565b005b34801561094c575f5ffd5b50610955612664565b6040516109629190612abe565b60405180910390f35b348015610976575f5ffd5b50610991600480360381019061098c9190612b31565b61266a565b005b34801561099e575f5ffd5b506109a7612705565b6040516109b49190612bdf565b60405180910390f35b3480156109c8575f5ffd5b506109d161272a565b6040516109de9190612abe565b60405180910390f35b5f5f82116109f3575f5ffd5b600f54670de0b6b3a764000083610a0a9190612fa1565b610a14919061300f565b90505f8103610a2257600190505b919050565b5f60029054906101000a900473ffffffffffffffffffffffffffffffffffffffff1673ffffffffffffffffffffffffffffffffffffffff163373ffffffffffffffffffffffffffffffffffffffff1614610a7f575f5ffd5b8060075f6101000a81548173ffffffffffffffffffffffffffffffffffffffff021916908373ffffffffffffffffffffffffffffffffffffffff16021790555050565b60025f9054906101000a900473ffffffffffffffffffffffffffffffffffffffff1681565b60125481565b600d5481565b670de0b6b3a764000081565b600e5481565b60075f9054906101000a900473ffffffffffffffffffffffffffffffffffffffff1673ffffffffffffffffffffffffffffffffffffffff163373ffffffffffffffffffffffffffffffffffffffff161480610bac57505f60029054906101000a900473ffffffffffffffffffffffffffffffffffffffff1673ffffffffffffffffffffffffffffffffffffffff163373ffffffffffffffffffffffffffffffffffffffff16145b610bb4575f5ffd5b610bbc611d63565b610bc581611d48565b15610bce575f5ffd5b5f60015f8373ffffffffffffffffffffffffffffffffffffffff1673ffffffffffffffffffffffffffffffffffffffff1681526020019081526020015f2090505f610c18836124da565b90505f8111610c25575f5ffd5b5f612710600d54845f0154610c3a9190612fa1565b610c44919061300f565b90505f81845f0154610c56919061303f565b90505f821115610cfe5760035f9054906101000a900473ffffffffffffffffffffffffffffffffffffffff1673ffffffffffffffffffffffffffffffffffffffff1663a9059cbb33846040518363ffffffff1660e01b8152600401610cbc929190613072565b6020604051808303815f875af1158015610cd8573d5f5f3e3d5ffd5b505050506040513d601f19601f82011682018060405250810190610cfc91906130c3565b505b5f811115610dc55760035f9054906101000a900473ffffffffffffffffffffffffffffffffffffffff1673ffffffffffffffffffffffffffffffffffffffff1663a9059cbb60095f9054906101000a900473ffffffffffffffffffffffffffffffffffffffff16836040518363ffffffff1660e01b8152600401610d83929190613072565b6020604051808303815f875af1158015610d9f573d5f5f3e3d5ffd5b505050506040513d601f19601f82011682018060405250810190610dc391906130c3565b505b836001015460125f828254610dda919061303f565b9250508190555060015f8673ffffffffffffffffffffffffffffffffffffffff1673ffffffffffffffffffffffffffffffffffffffff1681526020019081526020015f205f5f82015f9055600182015f9055600282015f905550503373ffffffffffffffffffffffffffffffffffffffff168573ffffffffffffffffffffffffffffffffffffffff167f1f0c6615429d1cdae0dfa233abf91d3b31cdbdd82c8081389832a61e1072f1ea8585604051610e949291906130ee565b60405180910390a35050505050565b60105481565b7f000000000000000000000000000000000000000000000000000000000000000073ffffffffffffffffffffffffffffffffffffffff163073ffffffffffffffffffffffffffffffffffffffff1603610f37576040517f08c379a0000000000000000000000000000000000000000000000000000000008152600401610f2e9061315f565b60405180910390fd5b7f000000000000000000000000000000000000000000000000000000000000000073ffffffffffffffffffffffffffffffffffffffff16610f76612768565b73ffffffffffffffffffffffffffffffffffffffff1614610fcc576040517f08c379a0000000000000000000000000000000000000000000000000000000008152600401610fc3906131c7565b60405180910390fd5b610fd581612797565b610fee8160405180602001604052805f8152505f6127f2565b50565b60035f9054906101000a900473ffffffffffffffffffffffffffffffffffffffff1673ffffffffffffffffffffffffffffffffffffffff166323b872dd3330846040518463ffffffff1660e01b815260040161104f939291906131e5565b6020604051808303815f875af115801561106b573d5f5f3e3d5ffd5b505050506040513d601f19601f8201168201806040525081019061108f91906130c3565b508060015f3373ffffffffffffffffffffffffffffffffffffffff1673ffffffffffffffffffffffffffffffffffffffff1681526020019081526020015f205f015f8282546110de919061321a565b9250508190555050565b5f5f82116110f4575f5ffd5b6110fc611d63565b5f60015f3373ffffffffffffffffffffffffffffffffffffffff1673ffffffffffffffffffffffffffffffffffffffff1681526020019081526020015f2090505f611146336124da565b90505f8111611153575f5ffd5b5f8185116111615784611163565b815b905060025f9054906101000a900473ffffffffffffffffffffffffffffffffffffffff1673ffffffffffffffffffffffffffffffffffffffff166323b872dd3330846040518463ffffffff1660e01b81526004016111c3939291906131e5565b6020604051808303815f875af11580156111df573d5f5f3e3d5ffd5b505050506040513d601f19601f8201168201806040525081019061120391906130c3565b505f8184600201541161121a57836002015461121c565b815b905080846002015f828254611231919061303f565b925050819055506103e8601054828461124a919061303f565b6112549190612fa1565b61125e919061300f565b60105f82825461126e919061321a565b925050819055505f8383146112a357600f54670de0b6b3a7640000846112949190612fa1565b61129e919061300f565b6112a9565b84600101545b905084600101548111156112bf57846001015490505b80856001015f8282546112d2919061303f565b925050819055508060125f8282546112ea919061303f565b925050819055506112fa336124da565b95505050505050919050565b60085f9054906101000a900473ffffffffffffffffffffffffffffffffffffffff1673ffffffffffffffffffffffffffffffffffffffff163373ffffffffffffffffffffffffffffffffffffffff161461135e575f5ffd5b611366611933565b811115611371575f5ffd5b60025f9054906101000a900473ffffffffffffffffffffffffffffffffffffffff1673ffffffffffffffffffffffffffffffffffffffff1663a9059cbb33836040518363ffffffff1660e01b81526004016113cd929190613072565b6020604051808303815f875af11580156113e9573d5f5f3e3d5ffd5b505050506040513d601f19601f8201168201806040525081019061140d91906130c3565b5050565b60075f9054906101000a900473ffffffffffffffffffffffffffffffffffffffff1681565b600580546114439061327a565b80601f016020809104026020016040519081016040528092919081815260200182805461146f9061327a565b80156114ba5780601f10611491576101008083540402835291602001916114ba565b820191905f5260205f20905b81548152906001019060200180831161149d57829003601f168201915b505050505081565b60085f9054906101000a900473ffffffffffffffffffffffffffffffffffffffff1673ffffffffffffffffffffffffffffffffffffffff163373ffffffffffffffffffffffffffffffffffffffff161461151a575f5ffd5b50565b7f000000000000000000000000000000000000000000000000000000000000000073ffffffffffffffffffffffffffffffffffffffff163073ffffffffffffffffffffffffffffffffffffffff16036115ab576040517f08c379a00000000000000000000000000000000000000000000000000000000081526004016115a29061315f565b60405180910390fd5b7f000000000000000000000000000000000000000000000000000000000000000073ffffffffffffffffffffffffffffffffffffffff166115ea612768565b73ffffffffffffffffffffffffffffffffffffffff1614611640576040517f08c379a0000000000000000000000000000000000000000000000000000000008152600401611637906131c7565b60405180910390fd5b61164983612797565b6116988383838080601f0160208091040260200160405190810160405280939291908181526020018383808284375f81840152601f19601f8201169050808301925050505050505060016127f2565b505050565b5f7f000000000000000000000000000000000000000000000000000000000000000073ffffffffffffffffffffffffffffffffffffffff163073ffffffffffffffffffffffffffffffffffffffff161461172c576040517f08c379a0000000000000000000000000000000000000000000000000000000008152600401611723906132f4565b60405180910390fd5b7f360894a13ba1a3210667c828492db98dca3e2076cc3735a920a3ca505d382bbc5f1b905090565b6001602052805f5260405f205f91509050805f0154908060010154908060020154905083565b5f8111611785575f5ffd5b61178d611d63565b5f60015f3373ffffffffffffffffffffffffffffffffffffffff1673ffffffffffffffffffffffffffffffffffffffff1681526020019081526020015f209050805f01548211156117dc575f5ffd5b81815f015f8282546117ee919061303f565b925050819055506117fe33611d48565b611806575f5ffd5b60035f9054906101000a900473ffffffffffffffffffffffffffffffffffffffff1673ffffffffffffffffffffffffffffffffffffffff1663a9059cbb33846040518363ffffffff1660e01b8152600401611862929190613072565b6020604051808303815f875af115801561187e573d5f5f3e3d5ffd5b505050506040513d601f19601f820116820180604052508101906118a291906130c3565b505050565b60095f9054906101000a900473ffffffffffffffffffffffffffffffffffffffff1681565b5f5f6118d783611a81565b90505f8103611909577fffffffffffffffffffffffffffffffffffffffffffffffffffffffffffffffff91505061192e565b80670de0b6b3a7640000600a546119209190612fa1565b61192a919061300f565b9150505b919050565b5f5f60025f9054906101000a900473ffffffffffffffffffffffffffffffffffffffff1673ffffffffffffffffffffffffffffffffffffffff166370a08231306040518263ffffffff1660e01b815260040161198f9190612bdf565b602060405180830381865afa1580156119aa573d5f5f3e3d5ffd5b505050506040513d601f19601f820116820180604052508101906119ce9190613326565b90506011548111156119ed57601154816119e8919061303f565b6119ef565b5f5b91505090565b60068054611a029061327a565b80601f0160208091040260200160405190810160405280929190818152602001828054611a2e9061327a565b8015611a795780601f10611a5057610100808354040283529160200191611a79565b820191905f5260205f20905b815481529060010190602001808311611a5c57829003601f168201915b505050505081565b5f5f73ffffffffffffffffffffffffffffffffffffffff168273ffffffffffffffffffffffffffffffffffffffff1603611ab9575f5ffd5b5f611ac3836124da565b90505f60015f8573ffffffffffffffffffffffffffffffffffffffff1673ffffffffffffffffffffffffffffffffffffffff1681526020019081526020015f2090505f8203611b16575f92505050611cf3565b5f815f015403611b4a577fffffffffffffffffffffffffffffffffffffffffffffffffffffffffffffffff92505050611cf3565b60045f9054906101000a900473ffffffffffffffffffffffffffffffffffffffff1673ffffffffffffffffffffffffffffffffffffffff166341976e0960035f9054906101000a900473ffffffffffffffffffffffffffffffffffffffff166040518263ffffffff1660e01b8152600401611bc59190612bdf565b602060405180830381865afa158015611be0573d5f5f3e3d5ffd5b505050506040513d601f19601f82011682018060405250810190611c049190613326565b815f0154611c129190612fa1565b61271060045f9054906101000a900473ffffffffffffffffffffffffffffffffffffffff1673ffffffffffffffffffffffffffffffffffffffff166341976e0960025f9054906101000a900473ffffffffffffffffffffffffffffffffffffffff166040518263ffffffff1660e01b8152600401611c909190612bdf565b602060405180830381865afa158015611cab573d5f5f3e3d5ffd5b505050506040513d601f19601f82011682018060405250810190611ccf9190613326565b84611cda9190612fa1565b611ce49190612fa1565b611cee919061300f565b925050505b919050565b600b5481565b60045f9054906101000a900473ffffffffffffffffffffffffffffffffffffffff1681565b5f60029054906101000a900473ffffffffffffffffffffffffffffffffffffffff1681565b5f600a54611d5583611a81565b109050919050565b600c5481565b600e54430315611de0575f6012541115611dd0575f600e5443611d86919061303f565b90505f600c5482600b54611d9a9190612fa1565b611da4919061300f565b9050670de0b6b3a764000081600f54611dbd9190612fa1565b611dc7919061300f565b600f8190555050505b43600e54611dde919061303f565b505b565b600f5481565b5f5f9054906101000a900460ff161580611e0d57505f60019054906101000a900460ff165b611e4c576040517f08c379a0000000000000000000000000000000000000000000000000000000008152600401611e439061339b565b60405180910390fd5b5f5f60019054906101000a900460ff161590508015611e995760015f60016101000a81548160ff02191690831515021790555060015f5f6101000a81548160ff0219169083151502179055505b5f73ffffffffffffffffffffffffffffffffffffffff168660c0016020810190611ec39190612b31565b73ffffffffffffffffffffffffffffffffffffffff1603611ee2575f5ffd5b5f73ffffffffffffffffffffffffffffffffffffffff16866060016020810190611f0c9190612b31565b73ffffffffffffffffffffffffffffffffffffffff1603611f2b575f5ffd5b5f73ffffffffffffffffffffffffffffffffffffffff16866080016020810190611f559190612b31565b73ffffffffffffffffffffffffffffffffffffffff1603611f74575f5ffd5b5f73ffffffffffffffffffffffffffffffffffffffff168660a0016020810190611f9e9190612b31565b73ffffffffffffffffffffffffffffffffffffffff1603611fbd575f5ffd5b5f600c5411611fca575f5ffd5b6127108661014001351115611fdd575f5ffd5b620186a08660e001351115611ff0575f5ffd5b61200a865f0160208101906120059190612b31565b61292f565b84846005918261201b929190613587565b5082826006918261202d929190613587565b508560600160208101906120419190612b31565b60025f6101000a81548173ffffffffffffffffffffffffffffffffffffffff021916908373ffffffffffffffffffffffffffffffffffffffff1602179055508560800160208101906120939190612b31565b60035f6101000a81548173ffffffffffffffffffffffffffffffffffffffff021916908373ffffffffffffffffffffffffffffffffffffffff1602179055508560a00160208101906120e59190612b31565b60045f6101000a81548173ffffffffffffffffffffffffffffffffffffffff021916908373ffffffffffffffffffffffffffffffffffffffff1602179055508560c00160208101906121379190612b31565b60085f6101000a81548173ffffffffffffffffffffffffffffffffffffffff021916908373ffffffffffffffffffffffffffffffffffffffff1602179055508560400160208101906121899190612b31565b60095f6101000a81548173ffffffffffffffffffffffffffffffffffffffff021916908373ffffffffffffffffffffffffffffffffffffffff1602179055508560200160208101906121db9190612b31565b60075f6101000a81548173ffffffffffffffffffffffffffffffffffffffff021916908373ffffffffffffffffffffffffffffffffffffffff1602179055508560e00135600a8190555043600e81905550856101200135600c81905550856101000135600b81905550670de0b6b3a7640000600f81905550856101400135600d819055506175306010819055508015612288575f5f60016101000a81548160ff0219169083151502179055505b505050505050565b60035f9054906101000a900473ffffffffffffffffffffffffffffffffffffffff1681565b600a5481565b5f81116122c6575f5ffd5b6122ce611d63565b6122d6611933565b8111156122e1575f5ffd5b5f60015f3373ffffffffffffffffffffffffffffffffffffffff1673ffffffffffffffffffffffffffffffffffffffff1681526020019081526020015f2090505f61232b836109e7565b905080826001015f828254612340919061321a565b9250508190555080826002015f82825461235a919061321a565b925050819055508060125f828254612372919061321a565b9250508190555061238233611d48565b61238a575f5ffd5b60025f9054906101000a900473ffffffffffffffffffffffffffffffffffffffff1673ffffffffffffffffffffffffffffffffffffffff1663a9059cbb33856040518363ffffffff1660e01b81526004016123e6929190613072565b6020604051808303815f875af1158015612402573d5f5f3e3d5ffd5b505050506040513d601f19601f8201168201806040525081019061242691906130c3565b50505050565b5f61243561272a565b61243d611933565b612447919061321a565b905090565b5f60029054906101000a900473ffffffffffffffffffffffffffffffffffffffff1673ffffffffffffffffffffffffffffffffffffffff163373ffffffffffffffffffffffffffffffffffffffff16146124a4575f5ffd5b6127108311156124b2575f5ffd5b6127108311156124c0575f5ffd5b82600a8190555081600b8190555080600d81905550505050565b5f5f73ffffffffffffffffffffffffffffffffffffffff168273ffffffffffffffffffffffffffffffffffffffff1603612512575f5ffd5b5f60015f8473ffffffffffffffffffffffffffffffffffffffff1673ffffffffffffffffffffffffffffffffffffffff1681526020019081526020015f206001015490505f811461258857670de0b6b3a764000061256e6129a9565b826125799190612fa1565b612583919061300f565b61258a565b5f5b915050919050565b5f60029054906101000a900473ffffffffffffffffffffffffffffffffffffffff1673ffffffffffffffffffffffffffffffffffffffff163373ffffffffffffffffffffffffffffffffffffffff16146125ea575f5ffd5b5f73ffffffffffffffffffffffffffffffffffffffff168173ffffffffffffffffffffffffffffffffffffffff1603612621575f5ffd5b805f60026101000a81548173ffffffffffffffffffffffffffffffffffffffff021916908373ffffffffffffffffffffffffffffffffffffffff16021790555050565b60115481565b5f60029054906101000a900473ffffffffffffffffffffffffffffffffffffffff1673ffffffffffffffffffffffffffffffffffffffff163373ffffffffffffffffffffffffffffffffffffffff16146126c2575f5ffd5b8060095f6101000a81548173ffffffffffffffffffffffffffffffffffffffff021916908373ffffffffffffffffffffffffffffffffffffffff16021790555050565b60085f9054906101000a900473ffffffffffffffffffffffffffffffffffffffff1681565b5f5f6012541461276157670de0b6b3a76400006127456129a9565b6012546127529190612fa1565b61275c919061300f565b612763565b5f5b905090565b5f5f7f360894a13ba1a3210667c828492db98dca3e2076cc3735a920a3ca505d382bbc5f1b9050805491505090565b5f60029054906101000a900473ffffffffffffffffffffffffffffffffffffffff1673ffffffffffffffffffffffffffffffffffffffff163373ffffffffffffffffffffffffffffffffffffffff16146127ef575f5ffd5b50565b5f73ffffffffffffffffffffffffffffffffffffffff168373ffffffffffffffffffffffffffffffffffffffff1603612860576040517f08c379a00000000000000000000000000000000000000000000000000000000081526004016128579061369e565b60405180910390fd5b61286983612a1c565b808061287557505f8251115b1561292a575f5f8473ffffffffffffffffffffffffffffffffffffffff16846040516128a19190613700565b5f60405180830381855af49150503d805f81146128d9576040519150601f19603f3d011682016040523d82523d5f602084013e6128de565b606091505b5091509150818190612926576040517f08c379a000000000000000000000000000000000000000000000000000000000815260040161291d9190612c68565b60405180910390fd5b5050505b505050565b5f73ffffffffffffffffffffffffffffffffffffffff168173ffffffffffffffffffffffffffffffffffffffff1603612966575f5ffd5b805f60026101000a81548173ffffffffffffffffffffffffffffffffffffffff021916908373ffffffffffffffffffffffffffffffffffffffff16021790555050565b5f600f549050600e54431480156129c157505f601254115b15612a19575f600e54436129d5919061303f565b90505f600c5482600b546129e99190612fa1565b6129f3919061300f565b9050670de0b6b3a76400008184612a0a9190612fa1565b612a14919061300f565b925050505b90565b5f7f360894a13ba1a3210667c828492db98dca3e2076cc3735a920a3ca505d382bbc5f1b90508181555050565b5f5ffd5b5f5ffd5b5f819050919050565b612a6381612a51565b8114612a6d575f5ffd5b50565b5f81359050612a7e81612a5a565b92915050565b5f60208284031215612a9957612a98612a49565b5b5f612aa684828501612a70565b91505092915050565b612ab881612a51565b82525050565b5f602082019050612ad15f830184612aaf565b92915050565b5f73ffffffffffffffffffffffffffffffffffffffff82169050919050565b5f612b0082612ad7565b9050919050565b612b1081612af6565b8114612b1a575f5ffd5b50565b5f81359050612b2b81612b07565b92915050565b5f60208284031215612b4657612b45612a49565b5b5f612b5384828501612b1d565b91505092915050565b5f819050919050565b5f612b7f612b7a612b7584612ad7565b612b5c565b612ad7565b9050919050565b5f612b9082612b65565b9050919050565b5f612ba182612b86565b9050919050565b612bb181612b97565b82525050565b5f602082019050612bca5f830184612ba8565b92915050565b612bd981612af6565b82525050565b5f602082019050612bf25f830184612bd0565b92915050565b5f81519050919050565b5f82825260208201905092915050565b8281835e5f83830152505050565b5f601f19601f8301169050919050565b5f612c3a82612bf8565b612c448185612c02565b9350612c54818560208601612c12565b612c5d81612c20565b840191505092915050565b5f6020820190508181035f830152612c808184612c30565b905092915050565b5f5ffd5b5f5ffd5b5f5ffd5b5f5f83601f840112612ca957612ca8612c88565b5b8235905067ffffffffffffffff811115612cc657612cc5612c8c565b5b602083019150836001820283011115612ce257612ce1612c90565b5b9250929050565b5f5f5f60408486031215612d0057612cff612a49565b5b5f612d0d86828701612b1d565b935050602084013567ffffffffffffffff811115612d2e57612d2d612a4d565b5b612d3a86828701612c94565b92509250509250925092565b5f819050919050565b612d5881612d46565b82525050565b5f602082019050612d715f830184612d4f565b92915050565b5f606082019050612d8a5f830186612aaf565b612d976020830185612aaf565b612da46040830184612aaf565b949350505050565b5f612db682612b86565b9050919050565b612dc681612dac565b82525050565b5f602082019050612ddf5f830184612dbd565b92915050565b5f8115159050919050565b612df981612de5565b82525050565b5f602082019050612e125f830184612df0565b92915050565b5f5ffd5b5f6101608284031215612e3257612e31612e18565b5b81905092915050565b5f5f83601f840112612e5057612e4f612c88565b5b8235905067ffffffffffffffff811115612e6d57612e6c612c8c565b5b602083019150836001820283011115612e8957612e88612c90565b5b9250929050565b5f5f5f5f5f6101a08688031215612eaa57612ea9612a49565b5b5f612eb788828901612e1c565b95505061016086013567ffffffffffffffff811115612ed957612ed8612a4d565b5b612ee588828901612e3b565b945094505061018086013567ffffffffffffffff811115612f0957612f08612a4d565b5b612f1588828901612e3b565b92509250509295509295909350565b5f5f5f60608486031215612f3b57612f3a612a49565b5b5f612f4886828701612a70565b9350506020612f5986828701612a70565b9250506040612f6a86828701612a70565b9150509250925092565b7f4e487b71000000000000000000000000000000000000000000000000000000005f52601160045260245ffd5b5f612fab82612a51565b9150612fb683612a51565b9250828202612fc481612a51565b91508282048414831517612fdb57612fda612f74565b5b5092915050565b7f4e487b71000000000000000000000000000000000000000000000000000000005f52601260045260245ffd5b5f61301982612a51565b915061302483612a51565b92508261303457613033612fe2565b5b828204905092915050565b5f61304982612a51565b915061305483612a51565b925082820390508181111561306c5761306b612f74565b5b92915050565b5f6040820190506130855f830185612bd0565b6130926020830184612aaf565b9392505050565b6130a281612de5565b81146130ac575f5ffd5b50565b5f815190506130bd81613099565b92915050565b5f602082840312156130d8576130d7612a49565b5b5f6130e5848285016130af565b91505092915050565b5f6040820190506131015f830185612aaf565b61310e6020830184612aaf565b9392505050565b7f4e4f545f44454c454741544543414c4c000000000000000000000000000000005f82015250565b5f613149601083612c02565b915061315482613115565b602082019050919050565b5f6020820190508181035f8301526131768161313d565b9050919050565b7f494e4143544956455f50524f58590000000000000000000000000000000000005f82015250565b5f6131b1600e83612c02565b91506131bc8261317d565b602082019050919050565b5f6020820190508181035f8301526131de816131a5565b9050919050565b5f6060820190506131f85f830186612bd0565b6132056020830185612bd0565b6132126040830184612aaf565b949350505050565b5f61322482612a51565b915061322f83612a51565b925082820190508082111561324757613246612f74565b5b92915050565b7f4e487b71000000000000000000000000000000000000000000000000000000005f52602260045260245ffd5b5f600282049050600182168061329157607f821691505b6020821081036132a4576132a361324d565b5b50919050565b7f4f4e4c595f494d504c454d454e544154494f4e000000000000000000000000005f82015250565b5f6132de601383612c02565b91506132e9826132aa565b602082019050919050565b5f6020820190508181035f83015261330b816132d2565b9050919050565b5f8151905061332081612a5a565b92915050565b5f6020828403121561333b5761333a612a49565b5b5f61334884828501613312565b91505092915050565b7f414c52454144595f494e495449414c495a4544000000000000000000000000005f82015250565b5f613385601383612c02565b915061339082613351565b602082019050919050565b5f6020820190508181035f8301526133b281613379565b9050919050565b5f82905092915050565b7f4e487b71000000000000000000000000000000000000000000000000000000005f52604160045260245ffd5b5f819050815f5260205f209050919050565b5f6020601f8301049050919050565b5f82821b905092915050565b5f6008830261344c7fffffffffffffffffffffffffffffffffffffffffffffffffffffffffffffffff82613411565b6134568683613411565b95508019841693508086168417925050509392505050565b5f61348861348361347e84612a51565b612b5c565b612a51565b9050919050565b5f819050919050565b6134a18361346e565b6134b56134ad8261348f565b84845461341d565b825550505050565b5f5f905090565b6134cc6134bd565b6134d7818484613498565b505050565b5b818110156134fa576134ef5f826134c4565b6001810190506134dd565b5050565b601f82111561353f57613510816133f0565b61351984613402565b81016020851015613528578190505b61353c61353485613402565b8301826134dc565b50505b505050565b5f82821c905092915050565b5f61355f5f1984600802613544565b1980831691505092915050565b5f6135778383613550565b9150826002028217905092915050565b61359183836133b9565b67ffffffffffffffff8111156135aa576135a96133c3565b5b6135b4825461327a565b6135bf8282856134fe565b5f601f8311600181146135ec575f84156135da578287013590505b6135e4858261356c565b86555061364b565b601f1984166135fa866133f0565b5f5b82811015613621578489013582556001820191506020850194506020810190506135fc565b8683101561363e578489013561363a601f891682613550565b8355505b6001600288020188555050505b50505050505050565b7f5a45524f5f494d504c00000000000000000000000000000000000000000000005f82015250565b5f613688600983612c02565b915061369382613654565b602082019050919050565b5f6020820190508181035f8301526136b58161367c565b9050919050565b5f81519050919050565b5f81905092915050565b5f6136da826136bc565b6136e481856136c6565b93506136f4818560208601612c12565b80840191505092915050565b5f61370b82846136d0565b91508190509291505056fea2646970667358221220ff0a09d984c04336cdedf1584d56f41357ccae916dfd7d43b208c20407ce029d64736f6c634300081e0033",
					"opcodes": "PUSH1 0xA0 PUSH1 0x40 MSTORE ADDRESS PUSH20 0xFFFFFFFFFFFFFFFFFFFFFFFFFFFFFFFFFFFFFFFF AND PUSH1 0x80 SWAP1 PUSH20 0xFFFFFFFFFFFFFFFFFFFFFFFFFFFFFFFFFFFFFFFF AND DUP2 MSTORE POP CALLVALUE DUP1 ISZERO PUSH2 0x42 JUMPI PUSH0 PUSH0 REVERT JUMPDEST POP PUSH1 0x80 MLOAD PUSH2 0x374C PUSH2 0x77 PUSH0 CODECOPY PUSH0 DUP2 DUP2 PUSH2 0xEAB ADD MSTORE DUP2 DUP2 PUSH2 0xF39 ADD MSTORE DUP2 DUP2 PUSH2 0x151F ADD MSTORE DUP2 DUP2 PUSH2 0x15AD ADD MSTORE PUSH2 0x16A0 ADD MSTORE PUSH2 0x374C PUSH0 RETURN INVALID PUSH1 0x80 PUSH1 0x40 MSTORE PUSH1 0x4 CALLDATASIZE LT PUSH2 0x265 JUMPI PUSH0 CALLDATALOAD PUSH1 0xE0 SHR DUP1 PUSH4 0x74375359 GT PUSH2 0x143 JUMPI DUP1 PUSH4 0xB2016BD4 GT PUSH2 0xB5 JUMPI DUP1 PUSH4 0xD283E75F GT PUSH2 0x79 JUMPI DUP1 PUSH4 0xD283E75F EQ PUSH2 0x8DD JUMPI DUP1 PUSH4 0xD3A417A2 EQ PUSH2 0x919 JUMPI DUP1 PUSH4 0xD681A449 EQ PUSH2 0x941 JUMPI DUP1 PUSH4 0xF0F44260 EQ PUSH2 0x96B JUMPI DUP1 PUSH4 0xFBFA77CF EQ PUSH2 0x993 JUMPI DUP1 PUSH4 0xFC7B9C18 EQ PUSH2 0x9BD JUMPI PUSH2 0x265 JUMP JUMPDEST DUP1 PUSH4 0xB2016BD4 EQ PUSH2 0x80F JUMPI DUP1 PUSH4 0xB3604C96 EQ PUSH2 0x839 JUMPI DUP1 PUSH4 0xC5EBEAEC EQ PUSH2 0x863 JUMPI DUP1 PUSH4 0xC82F6D2F EQ PUSH2 0x88B JUMPI DUP1 PUSH4 0xCED65B01 EQ PUSH2 0x8B5 JUMPI PUSH2 0x265 JUMP JUMPDEST DUP1 PUSH4 0x8DA5CB5B GT PUSH2 0x107 JUMPI DUP1 PUSH4 0x8DA5CB5B EQ PUSH2 0x717 JUMPI DUP1 PUSH4 0xA03B3C95 EQ PUSH2 0x741 JUMPI DUP1 PUSH4 0xA385FB96 EQ PUSH2 0x77D JUMPI DUP1 PUSH4 0xA6AFED95 EQ PUSH2 0x7A7 JUMPI DUP1 PUSH4 0xAA5AF0FD EQ PUSH2 0x7BD JUMPI DUP1 PUSH4 0xB1C0BE34 EQ PUSH2 0x7E7 JUMPI PUSH2 0x265 JUMP JUMPDEST DUP1 PUSH4 0x74375359 EQ PUSH2 0x633 JUMPI DUP1 PUSH4 0x76E9790A EQ PUSH2 0x65D JUMPI DUP1 PUSH4 0x79F057A2 EQ PUSH2 0x687 JUMPI DUP1 PUSH4 0x7C3A00FD EQ PUSH2 0x6C3 JUMPI DUP1 PUSH4 0x7DC0D1D0 EQ PUSH2 0x6ED JUMPI PUSH2 0x265 JUMP JUMPDEST DUP1 PUSH4 0x371FD8E6 GT PUSH2 0x1DC JUMPI DUP1 PUSH4 0x4F1EF286 GT PUSH2 0x1A0 JUMPI DUP1 PUSH4 0x4F1EF286 EQ PUSH2 0x521 JUMPI DUP1 PUSH4 0x52D1902D EQ PUSH2 0x53D JUMPI DUP1 PUSH4 0x55F57510 EQ PUSH2 0x567 JUMPI DUP1 PUSH4 0x6112FE2E EQ PUSH2 0x5A5 JUMPI DUP1 PUSH4 0x61D027B3 EQ PUSH2 0x5CD JUMPI DUP1 PUSH4 0x6AD9F9DF EQ PUSH2 0x5F7 JUMPI PUSH2 0x265 JUMP JUMPDEST DUP1 PUSH4 0x371FD8E6 EQ PUSH2 0x441 JUMPI DUP1 PUSH4 0x3E3722B6 EQ PUSH2 0x47D JUMPI DUP1 PUSH4 0x4046EBAE EQ PUSH2 0x4A5 JUMPI DUP1 PUSH4 0x4A79D50C EQ PUSH2 0x4CF JUMPI DUP1 PUSH4 0x4B92917A EQ PUSH2 0x4F9 JUMPI PUSH2 0x265 JUMP JUMPDEST DUP1 PUSH4 0x27776AB5 GT PUSH2 0x22E JUMPI DUP1 PUSH4 0x27776AB5 EQ PUSH2 0x34B JUMPI DUP1 PUSH4 0x29962904 EQ PUSH2 0x375 JUMPI DUP1 PUSH4 0x2F865568 EQ PUSH2 0x39F JUMPI DUP1 PUSH4 0x35659FB8 EQ PUSH2 0x3C7 JUMPI DUP1 PUSH4 0x3659CFE6 EQ PUSH2 0x3F1 JUMPI DUP1 PUSH4 0x367FEBEA EQ PUSH2 0x419 JUMPI PUSH2 0x265 JUMP JUMPDEST DUP1 PUSH3 0x249B44 EQ PUSH2 0x269 JUMPI DUP1 PUSH4 0x1C76F81 EQ PUSH2 0x2A5 JUMPI DUP1 PUSH4 0x6D37817 EQ PUSH2 0x2CD JUMPI DUP1 PUSH4 0x136CF1F7 EQ PUSH2 0x2F7 JUMPI DUP1 PUSH4 0x19970D8E EQ PUSH2 0x321 JUMPI JUMPDEST PUSH0 PUSH0 REVERT JUMPDEST CALLVALUE DUP1 ISZERO PUSH2 0x274 JUMPI PUSH0 PUSH0 REVERT JUMPDEST POP PUSH2 0x28F PUSH1 0x4 DUP1 CALLDATASIZE SUB DUP2 ADD SWAP1 PUSH2 0x28A SWAP2 SWAP1 PUSH2 0x2A84 JUMP JUMPDEST PUSH2 0x9E7 JUMP JUMPDEST PUSH1 0x40 MLOAD PUSH2 0x29C SWAP2 SWAP1 PUSH2 0x2ABE JUMP JUMPDEST PUSH1 0x40 MLOAD DUP1 SWAP2 SUB SWAP1 RETURN JUMPDEST CALLVALUE DUP1 ISZERO PUSH2 0x2B0 JUMPI PUSH0 PUSH0 REVERT JUMPDEST POP PUSH2 0x2CB PUSH1 0x4 DUP1 CALLDATASIZE SUB DUP2 ADD SWAP1 PUSH2 0x2C6 SWAP2 SWAP1 PUSH2 0x2B31 JUMP JUMPDEST PUSH2 0xA27 JUMP JUMPDEST STOP JUMPDEST CALLVALUE DUP1 ISZERO PUSH2 0x2D8 JUMPI PUSH0 PUSH0 REVERT JUMPDEST POP PUSH2 0x2E1 PUSH2 0xAC2 JUMP JUMPDEST PUSH1 0x40 MLOAD PUSH2 0x2EE SWAP2 SWAP1 PUSH2 0x2BB7 JUMP JUMPDEST PUSH1 0x40 MLOAD DUP1 SWAP2 SUB SWAP1 RETURN JUMPDEST CALLVALUE DUP1 ISZERO PUSH2 0x302 JUMPI PUSH0 PUSH0 REVERT JUMPDEST POP PUSH2 0x30B PUSH2 0xAE7 JUMP JUMPDEST PUSH1 0x40 MLOAD PUSH2 0x318 SWAP2 SWAP1 PUSH2 0x2ABE JUMP JUMPDEST PUSH1 0x40 MLOAD DUP1 SWAP2 SUB SWAP1 RETURN JUMPDEST CALLVALUE DUP1 ISZERO PUSH2 0x32C JUMPI PUSH0 PUSH0 REVERT JUMPDEST POP PUSH2 0x335 PUSH2 0xAED JUMP JUMPDEST PUSH1 0x40 MLOAD PUSH2 0x342 SWAP2 SWAP1 PUSH2 0x2ABE JUMP JUMPDEST PUSH1 0x40 MLOAD DUP1 SWAP2 SUB SWAP1 RETURN JUMPDEST CALLVALUE DUP1 ISZERO PUSH2 0x356 JUMPI PUSH0 PUSH0 REVERT JUMPDEST POP PUSH2 0x35F PUSH2 0xAF3 JUMP JUMPDEST PUSH1 0x40 MLOAD PUSH2 0x36C SWAP2 SWAP1 PUSH2 0x2ABE JUMP JUMPDEST PUSH1 0x40 MLOAD DUP1 SWAP2 SUB SWAP1 RETURN JUMPDEST CALLVALUE DUP1 ISZERO PUSH2 0x380 JUMPI PUSH0 PUSH0 REVERT JUMPDEST POP PUSH2 0x389 PUSH2 0xAFF JUMP JUMPDEST PUSH1 0x40 MLOAD PUSH2 0x396 SWAP2 SWAP1 PUSH2 0x2ABE JUMP JUMPDEST PUSH1 0x40 MLOAD DUP1 SWAP2 SUB SWAP1 RETURN JUMPDEST CALLVALUE DUP1 ISZERO PUSH2 0x3AA JUMPI PUSH0 PUSH0 REVERT JUMPDEST POP PUSH2 0x3C5 PUSH1 0x4 DUP1 CALLDATASIZE SUB DUP2 ADD SWAP1 PUSH2 0x3C0 SWAP2 SWAP1 PUSH2 0x2B31 JUMP JUMPDEST PUSH2 0xB05 JUMP JUMPDEST STOP JUMPDEST CALLVALUE DUP1 ISZERO PUSH2 0x3D2 JUMPI PUSH0 PUSH0 REVERT JUMPDEST POP PUSH2 0x3DB PUSH2 0xEA3 JUMP JUMPDEST PUSH1 0x40 MLOAD PUSH2 0x3E8 SWAP2 SWAP1 PUSH2 0x2ABE JUMP JUMPDEST PUSH1 0x40 MLOAD DUP1 SWAP2 SUB SWAP1 RETURN JUMPDEST CALLVALUE DUP1 ISZERO PUSH2 0x3FC JUMPI PUSH0 PUSH0 REVERT JUMPDEST POP PUSH2 0x417 PUSH1 0x4 DUP1 CALLDATASIZE SUB DUP2 ADD SWAP1 PUSH2 0x412 SWAP2 SWAP1 PUSH2 0x2B31 JUMP JUMPDEST PUSH2 0xEA9 JUMP JUMPDEST STOP JUMPDEST CALLVALUE DUP1 ISZERO PUSH2 0x424 JUMPI PUSH0 PUSH0 REVERT JUMPDEST POP PUSH2 0x43F PUSH1 0x4 DUP1 CALLDATASIZE SUB DUP2 ADD SWAP1 PUSH2 0x43A SWAP2 SWAP1 PUSH2 0x2A84 JUMP JUMPDEST PUSH2 0xFF1 JUMP JUMPDEST STOP JUMPDEST CALLVALUE DUP1 ISZERO PUSH2 0x44C JUMPI PUSH0 PUSH0 REVERT JUMPDEST POP PUSH2 0x467 PUSH1 0x4 DUP1 CALLDATASIZE SUB DUP2 ADD SWAP1 PUSH2 0x462 SWAP2 SWAP1 PUSH2 0x2A84 JUMP JUMPDEST PUSH2 0x10E8 JUMP JUMPDEST PUSH1 0x40 MLOAD PUSH2 0x474 SWAP2 SWAP1 PUSH2 0x2ABE JUMP JUMPDEST PUSH1 0x40 MLOAD DUP1 SWAP2 SUB SWAP1 RETURN JUMPDEST CALLVALUE DUP1 ISZERO PUSH2 0x488 JUMPI PUSH0 PUSH0 REVERT JUMPDEST POP PUSH2 0x4A3 PUSH1 0x4 DUP1 CALLDATASIZE SUB DUP2 ADD SWAP1 PUSH2 0x49E SWAP2 SWAP1 PUSH2 0x2A84 JUMP JUMPDEST PUSH2 0x1306 JUMP JUMPDEST STOP JUMPDEST CALLVALUE DUP1 ISZERO PUSH2 0x4B0 JUMPI PUSH0 PUSH0 REVERT JUMPDEST POP PUSH2 0x4B9 PUSH2 0x1411 JUMP JUMPDEST PUSH1 0x40 MLOAD PUSH2 0x4C6 SWAP2 SWAP1 PUSH2 0x2BDF JUMP JUMPDEST PUSH1 0x40 MLOAD DUP1 SWAP2 SUB SWAP1 RETURN JUMPDEST CALLVALUE DUP1 ISZERO PUSH2 0x4DA JUMPI PUSH0 PUSH0 REVERT JUMPDEST POP PUSH2 0x4E3 PUSH2 0x1436 JUMP JUMPDEST PUSH1 0x40 MLOAD PUSH2 0x4F0 SWAP2 SWAP1 PUSH2 0x2C68 JUMP JUMPDEST PUSH1 0x40 MLOAD DUP1 SWAP2 SUB SWAP1 RETURN JUMPDEST CALLVALUE DUP1 ISZERO PUSH2 0x504 JUMPI PUSH0 PUSH0 REVERT JUMPDEST POP PUSH2 0x51F PUSH1 0x4 DUP1 CALLDATASIZE SUB DUP2 ADD SWAP1 PUSH2 0x51A SWAP2 SWAP1 PUSH2 0x2A84 JUMP JUMPDEST PUSH2 0x14C2 JUMP JUMPDEST STOP JUMPDEST PUSH2 0x53B PUSH1 0x4 DUP1 CALLDATASIZE SUB DUP2 ADD SWAP1 PUSH2 0x536 SWAP2 SWAP1 PUSH2 0x2CE9 JUMP JUMPDEST PUSH2 0x151D JUMP JUMPDEST STOP JUMPDEST CALLVALUE DUP1 ISZERO PUSH2 0x548 JUMPI PUSH0 PUSH0 REVERT JUMPDEST POP PUSH2 0x551 PUSH2 0x169D JUMP JUMPDEST PUSH1 0x40 MLOAD PUSH2 0x55E SWAP2 SWAP1 PUSH2 0x2D5E JUMP JUMPDEST PUSH1 0x40 MLOAD DUP1 SWAP2 SUB SWAP1 RETURN JUMPDEST CALLVALUE DUP1 ISZERO PUSH2 0x572 JUMPI PUSH0 PUSH0 REVERT JUMPDEST POP PUSH2 0x58D PUSH1 0x4 DUP1 CALLDATASIZE SUB DUP2 ADD SWAP1 PUSH2 0x588 SWAP2 SWAP1 PUSH2 0x2B31 JUMP JUMPDEST PUSH2 0x1754 JUMP JUMPDEST PUSH1 0x40 MLOAD PUSH2 0x59C SWAP4 SWAP3 SWAP2 SWAP1 PUSH2 0x2D77 JUMP JUMPDEST PUSH1 0x40 MLOAD DUP1 SWAP2 SUB SWAP1 RETURN JUMPDEST CALLVALUE DUP1 ISZERO PUSH2 0x5B0 JUMPI PUSH0 PUSH0 REVERT JUMPDEST POP PUSH2 0x5CB PUSH1 0x4 DUP1 CALLDATASIZE SUB DUP2 ADD SWAP1 PUSH2 0x5C6 SWAP2 SWAP1 PUSH2 0x2A84 JUMP JUMPDEST PUSH2 0x177A JUMP JUMPDEST STOP JUMPDEST CALLVALUE DUP1 ISZERO PUSH2 0x5D8 JUMPI PUSH0 PUSH0 REVERT JUMPDEST POP PUSH2 0x5E1 PUSH2 0x18A7 JUMP JUMPDEST PUSH1 0x40 MLOAD PUSH2 0x5EE SWAP2 SWAP1 PUSH2 0x2BDF JUMP JUMPDEST PUSH1 0x40 MLOAD DUP1 SWAP2 SUB SWAP1 RETURN JUMPDEST CALLVALUE DUP1 ISZERO PUSH2 0x602 JUMPI PUSH0 PUSH0 REVERT JUMPDEST POP PUSH2 0x61D PUSH1 0x4 DUP1 CALLDATASIZE SUB DUP2 ADD SWAP1 PUSH2 0x618 SWAP2 SWAP1 PUSH2 0x2B31 JUMP JUMPDEST PUSH2 0x18CC JUMP JUMPDEST PUSH1 0x40 MLOAD PUSH2 0x62A SWAP2 SWAP1 PUSH2 0x2ABE JUMP JUMPDEST PUSH1 0x40 MLOAD DUP1 SWAP2 SUB SWAP1 RETURN JUMPDEST CALLVALUE DUP1 ISZERO PUSH2 0x63E JUMPI PUSH0 PUSH0 REVERT JUMPDEST POP PUSH2 0x647 PUSH2 0x1933 JUMP JUMPDEST PUSH1 0x40 MLOAD PUSH2 0x654 SWAP2 SWAP1 PUSH2 0x2ABE JUMP JUMPDEST PUSH1 0x40 MLOAD DUP1 SWAP2 SUB SWAP1 RETURN JUMPDEST CALLVALUE DUP1 ISZERO PUSH2 0x668 JUMPI PUSH0 PUSH0 REVERT JUMPDEST POP PUSH2 0x671 PUSH2 0x19F5 JUMP JUMPDEST PUSH1 0x40 MLOAD PUSH2 0x67E SWAP2 SWAP1 PUSH2 0x2C68 JUMP JUMPDEST PUSH1 0x40 MLOAD DUP1 SWAP2 SUB SWAP1 RETURN JUMPDEST CALLVALUE DUP1 ISZERO PUSH2 0x692 JUMPI PUSH0 PUSH0 REVERT JUMPDEST POP PUSH2 0x6AD PUSH1 0x4 DUP1 CALLDATASIZE SUB DUP2 ADD SWAP1 PUSH2 0x6A8 SWAP2 SWAP1 PUSH2 0x2B31 JUMP JUMPDEST PUSH2 0x1A81 JUMP JUMPDEST PUSH1 0x40 MLOAD PUSH2 0x6BA SWAP2 SWAP1 PUSH2 0x2ABE JUMP JUMPDEST PUSH1 0x40 MLOAD DUP1 SWAP2 SUB SWAP1 RETURN JUMPDEST CALLVALUE DUP1 ISZERO PUSH2 0x6CE JUMPI PUSH0 PUSH0 REVERT JUMPDEST POP PUSH2 0x6D7 PUSH2 0x1CF8 JUMP JUMPDEST PUSH1 0x40 MLOAD PUSH2 0x6E4 SWAP2 SWAP1 PUSH2 0x2ABE JUMP JUMPDEST PUSH1 0x40 MLOAD DUP1 SWAP2 SUB SWAP1 RETURN JUMPDEST CALLVALUE DUP1 ISZERO PUSH2 0x6F8 JUMPI PUSH0 PUSH0 REVERT JUMPDEST POP PUSH2 0x701 PUSH2 0x1CFE JUMP JUMPDEST PUSH1 0x40 MLOAD PUSH2 0x70E SWAP2 SWAP1 PUSH2 0x2DCC JUMP JUMPDEST PUSH1 0x40 MLOAD DUP1 SWAP2 SUB SWAP1 RETURN JUMPDEST CALLVALUE DUP1 ISZERO PUSH2 0x722 JUMPI PUSH0 PUSH0 REVERT JUMPDEST POP PUSH2 0x72B PUSH2 0x1D23 JUMP JUMPDEST PUSH1 0x40 MLOAD PUSH2 0x738 SWAP2 SWAP1 PUSH2 0x2BDF JUMP JUMPDEST PUSH1 0x40 MLOAD DUP1 SWAP2 SUB SWAP1 RETURN JUMPDEST CALLVALUE DUP1 ISZERO PUSH2 0x74C JUMPI PUSH0 PUSH0 REVERT JUMPDEST POP PUSH2 0x767 PUSH1 0x4 DUP1 CALLDATASIZE SUB DUP2 ADD SWAP1 PUSH2 0x762 SWAP2 SWAP1 PUSH2 0x2B31 JUMP JUMPDEST PUSH2 0x1D48 JUMP JUMPDEST PUSH1 0x40 MLOAD PUSH2 0x774 SWAP2 SWAP1 PUSH2 0x2DFF JUMP JUMPDEST PUSH1 0x40 MLOAD DUP1 SWAP2 SUB SWAP1 RETURN JUMPDEST CALLVALUE DUP1 ISZERO PUSH2 0x788 JUMPI PUSH0 PUSH0 REVERT JUMPDEST POP PUSH2 0x791 PUSH2 0x1D5D JUMP JUMPDEST PUSH1 0x40 MLOAD PUSH2 0x79E SWAP2 SWAP1 PUSH2 0x2ABE JUMP JUMPDEST PUSH1 0x40 MLOAD DUP1 SWAP2 SUB SWAP1 RETURN JUMPDEST CALLVALUE DUP1 ISZERO PUSH2 0x7B2 JUMPI PUSH0 PUSH0 REVERT JUMPDEST POP PUSH2 0x7BB PUSH2 0x1D63 JUMP JUMPDEST STOP JUMPDEST CALLVALUE DUP1 ISZERO PUSH2 0x7C8 JUMPI PUSH0 PUSH0 REVERT JUMPDEST POP PUSH2 0x7D1 PUSH2 0x1DE2 JUMP JUMPDEST PUSH1 0x40 MLOAD PUSH2 0x7DE SWAP2 SWAP1 PUSH2 0x2ABE JUMP JUMPDEST PUSH1 0x40 MLOAD DUP1 SWAP2 SUB SWAP1 RETURN JUMPDEST CALLVALUE DUP1 ISZERO PUSH2 0x7F2 JUMPI PUSH0 PUSH0 REVERT JUMPDEST POP PUSH2 0x80D PUSH1 0x4 DUP1 CALLDATASIZE SUB DUP2 ADD SWAP1 PUSH2 0x808 SWAP2 SWAP1 PUSH2 0x2E90 JUMP JUMPDEST PUSH2 0x1DE8 JUMP JUMPDEST STOP JUMPDEST CALLVALUE DUP1 ISZERO PUSH2 0x81A JUMPI PUSH0 PUSH0 REVERT JUMPDEST POP PUSH2 0x823 PUSH2 0x2290 JUMP JUMPDEST PUSH1 0x40 MLOAD PUSH2 0x830 SWAP2 SWAP1 PUSH2 0x2BB7 JUMP JUMPDEST PUSH1 0x40 MLOAD DUP1 SWAP2 SUB SWAP1 RETURN JUMPDEST CALLVALUE DUP1 ISZERO PUSH2 0x844 JUMPI PUSH0 PUSH0 REVERT JUMPDEST POP PUSH2 0x84D PUSH2 0x22B5 JUMP JUMPDEST PUSH1 0x40 MLOAD PUSH2 0x85A SWAP2 SWAP1 PUSH2 0x2ABE JUMP JUMPDEST PUSH1 0x40 MLOAD DUP1 SWAP2 SUB SWAP1 RETURN JUMPDEST CALLVALUE DUP1 ISZERO PUSH2 0x86E JUMPI PUSH0 PUSH0 REVERT JUMPDEST POP PUSH2 0x889 PUSH1 0x4 DUP1 CALLDATASIZE SUB DUP2 ADD SWAP1 PUSH2 0x884 SWAP2 SWAP1 PUSH2 0x2A84 JUMP JUMPDEST PUSH2 0x22BB JUMP JUMPDEST STOP JUMPDEST CALLVALUE DUP1 ISZERO PUSH2 0x896 JUMPI PUSH0 PUSH0 REVERT JUMPDEST POP PUSH2 0x89F PUSH2 0x242C JUMP JUMPDEST PUSH1 0x40 MLOAD PUSH2 0x8AC SWAP2 SWAP1 PUSH2 0x2ABE JUMP JUMPDEST PUSH1 0x40 MLOAD DUP1 SWAP2 SUB SWAP1 RETURN JUMPDEST CALLVALUE DUP1 ISZERO PUSH2 0x8C0 JUMPI PUSH0 PUSH0 REVERT JUMPDEST POP PUSH2 0x8DB PUSH1 0x4 DUP1 CALLDATASIZE SUB DUP2 ADD SWAP1 PUSH2 0x8D6 SWAP2 SWAP1 PUSH2 0x2F24 JUMP JUMPDEST PUSH2 0x244C JUMP JUMPDEST STOP JUMPDEST CALLVALUE DUP1 ISZERO PUSH2 0x8E8 JUMPI PUSH0 PUSH0 REVERT JUMPDEST POP PUSH2 0x903 PUSH1 0x4 DUP1 CALLDATASIZE SUB DUP2 ADD SWAP1 PUSH2 0x8FE SWAP2 SWAP1 PUSH2 0x2B31 JUMP JUMPDEST PUSH2 0x24DA JUMP JUMPDEST PUSH1 0x40 MLOAD PUSH2 0x910 SWAP2 SWAP1 PUSH2 0x2ABE JUMP JUMPDEST PUSH1 0x40 MLOAD DUP1 SWAP2 SUB SWAP1 RETURN JUMPDEST CALLVALUE DUP1 ISZERO PUSH2 0x924 JUMPI PUSH0 PUSH0 REVERT JUMPDEST POP PUSH2 0x93F PUSH1 0x4 DUP1 CALLDATASIZE SUB DUP2 ADD SWAP1 PUSH2 0x93A SWAP2 SWAP1 PUSH2 0x2B31 JUMP JUMPDEST PUSH2 0x2592 JUMP JUMPDEST STOP JUMPDEST CALLVALUE DUP1 ISZERO PUSH2 0x94C JUMPI PUSH0 PUSH0 REVERT JUMPDEST POP PUSH2 0x955 PUSH2 0x2664 JUMP JUMPDEST PUSH1 0x40 MLOAD PUSH2 0x962 SWAP2 SWAP1 PUSH2 0x2ABE JUMP JUMPDEST PUSH1 0x40 MLOAD DUP1 SWAP2 SUB SWAP1 RETURN JUMPDEST CALLVALUE DUP1 ISZERO PUSH2 0x976 JUMPI PUSH0 PUSH0 REVERT JUMPDEST POP PUSH2 0x991 PUSH1 0x4 DUP1 CALLDATASIZE SUB DUP2 ADD SWAP1 PUSH2 0x98C SWAP2 SWAP1 PUSH2 0x2B31 JUMP JUMPDEST PUSH2 0x266A JUMP JUMPDEST STOP JUMPDEST CALLVALUE DUP1 ISZERO PUSH2 0x99E JUMPI PUSH0 PUSH0 REVERT JUMPDEST POP PUSH2 0x9A7 PUSH2 0x2705 JUMP JUMPDEST PUSH1 0x40 MLOAD PUSH2 0x9B4 SWAP2 SWAP1 PUSH2 0x2BDF JUMP JUMPDEST PUSH1 0x40 MLOAD DUP1 SWAP2 SUB SWAP1 RETURN JUMPDEST CALLVALUE DUP1 ISZERO PUSH2 0x9C8 JUMPI PUSH0 PUSH0 REVERT JUMPDEST POP PUSH2 0x9D1 PUSH2 0x272A JUMP JUMPDEST PUSH1 0x40 MLOAD PUSH2 0x9DE SWAP2 SWAP1 PUSH2 0x2ABE JUMP JUMPDEST PUSH1 0x40 MLOAD DUP1 SWAP2 SUB SWAP1 RETURN JUMPDEST PUSH0 PUSH0 DUP3 GT PUSH2 0x9F3 JUMPI PUSH0 PUSH0 REVERT JUMPDEST PUSH1 0xF SLOAD PUSH8 0xDE0B6B3A7640000 DUP4 PUSH2 0xA0A SWAP2 SWAP1 PUSH2 0x2FA1 JUMP JUMPDEST PUSH2 0xA14 SWAP2 SWAP1 PUSH2 0x300F JUMP JUMPDEST SWAP1 POP PUSH0 DUP2 SUB PUSH2 0xA22 JUMPI PUSH1 0x1 SWAP1 POP JUMPDEST SWAP2 SWAP1 POP JUMP JUMPDEST PUSH0 PUSH1 0x2 SWAP1 SLOAD SWAP1 PUSH2 0x100 EXP SWAP1 DIV PUSH20 0xFFFFFFFFFFFFFFFFFFFFFFFFFFFFFFFFFFFFFFFF AND PUSH20 0xFFFFFFFFFFFFFFFFFFFFFFFFFFFFFFFFFFFFFFFF AND CALLER PUSH20 0xFFFFFFFFFFFFFFFFFFFFFFFFFFFFFFFFFFFFFFFF AND EQ PUSH2 0xA7F JUMPI PUSH0 PUSH0 REVERT JUMPDEST DUP1 PUSH1 0x7 PUSH0 PUSH2 0x100 EXP DUP2 SLOAD DUP2 PUSH20 0xFFFFFFFFFFFFFFFFFFFFFFFFFFFFFFFFFFFFFFFF MUL NOT AND SWAP1 DUP4 PUSH20 0xFFFFFFFFFFFFFFFFFFFFFFFFFFFFFFFFFFFFFFFF AND MUL OR SWAP1 SSTORE POP POP JUMP JUMPDEST PUSH1 0x2 PUSH0 SWAP1 SLOAD SWAP1 PUSH2 0x100 EXP SWAP1 DIV PUSH20 0xFFFFFFFFFFFFFFFFFFFFFFFFFFFFFFFFFFFFFFFF AND DUP2 JUMP JUMPDEST PUSH1 0x12 SLOAD DUP2 JUMP JUMPDEST PUSH1 0xD SLOAD DUP2 JUMP JUMPDEST PUSH8 0xDE0B6B3A7640000 DUP2 JUMP JUMPDEST PUSH1 0xE SLOAD DUP2 JUMP JUMPDEST PUSH1 0x7 PUSH0 SWAP1 SLOAD SWAP1 PUSH2 0x100 EXP SWAP1 DIV PUSH20 0xFFFFFFFFFFFFFFFFFFFFFFFFFFFFFFFFFFFFFFFF AND PUSH20 0xFFFFFFFFFFFFFFFFFFFFFFFFFFFFFFFFFFFFFFFF AND CALLER PUSH20 0xFFFFFFFFFFFFFFFFFFFFFFFFFFFFFFFFFFFFFFFF AND EQ DUP1 PUSH2 0xBAC JUMPI POP PUSH0 PUSH1 0x2 SWAP1 SLOAD SWAP1 PUSH2 0x100 EXP SWAP1 DIV PUSH20 0xFFFFFFFFFFFFFFFFFFFFFFFFFFFFFFFFFFFFFFFF AND PUSH20 0xFFFFFFFFFFFFFFFFFFFFFFFFFFFFFFFFFFFFFFFF AND CALLER PUSH20 0xFFFFFFFFFFFFFFFFFFFFFFFFFFFFFFFFFFFFFFFF AND EQ JUMPDEST PUSH2 0xBB4 JUMPI PUSH0 PUSH0 REVERT JUMPDEST PUSH2 0xBBC PUSH2 0x1D63 JUMP JUMPDEST PUSH2 0xBC5 DUP2 PUSH2 0x1D48 JUMP JUMPDEST ISZERO PUSH2 0xBCE JUMPI PUSH0 PUSH0 REVERT JUMPDEST PUSH0 PUSH1 0x1 PUSH0 DUP4 PUSH20 0xFFFFFFFFFFFFFFFFFFFFFFFFFFFFFFFFFFFFFFFF AND PUSH20 0xFFFFFFFFFFFFFFFFFFFFFFFFFFFFFFFFFFFFFFFF AND DUP2 MSTORE PUSH1 0x20 ADD SWAP1 DUP2 MSTORE PUSH1 0x20 ADD PUSH0 KECCAK256 SWAP1 POP PUSH0 PUSH2 0xC18 DUP4 PUSH2 0x24DA JUMP JUMPDEST SWAP1 POP PUSH0 DUP2 GT PUSH2 0xC25 JUMPI PUSH0 PUSH0 REVERT JUMPDEST PUSH0 PUSH2 0x2710 PUSH1 0xD SLOAD DUP5 PUSH0 ADD SLOAD PUSH2 0xC3A SWAP2 SWAP1 PUSH2 0x2FA1 JUMP JUMPDEST PUSH2 0xC44 SWAP2 SWAP1 PUSH2 0x300F JUMP JUMPDEST SWAP1 POP PUSH0 DUP2 DUP5 PUSH0 ADD SLOAD PUSH2 0xC56 SWAP2 SWAP1 PUSH2 0x303F JUMP JUMPDEST SWAP1 POP PUSH0 DUP3 GT ISZERO PUSH2 0xCFE JUMPI PUSH1 0x3 PUSH0 SWAP1 SLOAD SWAP1 PUSH2 0x100 EXP SWAP1 DIV PUSH20 0xFFFFFFFFFFFFFFFFFFFFFFFFFFFFFFFFFFFFFFFF AND PUSH20 0xFFFFFFFFFFFFFFFFFFFFFFFFFFFFFFFFFFFFFFFF AND PUSH4 0xA9059CBB CALLER DUP5 PUSH1 0x40 MLOAD DUP4 PUSH4 0xFFFFFFFF AND PUSH1 0xE0 SHL DUP2 MSTORE PUSH1 0x4 ADD PUSH2 0xCBC SWAP3 SWAP2 SWAP1 PUSH2 0x3072 JUMP JUMPDEST PUSH1 0x20 PUSH1 0x40 MLOAD DUP1 DUP4 SUB DUP2 PUSH0 DUP8 GAS CALL ISZERO DUP1 ISZERO PUSH2 0xCD8 JUMPI RETURNDATASIZE PUSH0 PUSH0 RETURNDATACOPY RETURNDATASIZE PUSH0 REVERT JUMPDEST POP POP POP POP PUSH1 0x40 MLOAD RETURNDATASIZE PUSH1 0x1F NOT PUSH1 0x1F DUP3 ADD AND DUP3 ADD DUP1 PUSH1 0x40 MSTORE POP DUP2 ADD SWAP1 PUSH2 0xCFC SWAP2 SWAP1 PUSH2 0x30C3 JUMP JUMPDEST POP JUMPDEST PUSH0 DUP2 GT ISZERO PUSH2 0xDC5 JUMPI PUSH1 0x3 PUSH0 SWAP1 SLOAD SWAP1 PUSH2 0x100 EXP SWAP1 DIV PUSH20 0xFFFFFFFFFFFFFFFFFFFFFFFFFFFFFFFFFFFFFFFF AND PUSH20 0xFFFFFFFFFFFFFFFFFFFFFFFFFFFFFFFFFFFFFFFF AND PUSH4 0xA9059CBB PUSH1 0x9 PUSH0 SWAP1 SLOAD SWAP1 PUSH2 0x100 EXP SWAP1 DIV PUSH20 0xFFFFFFFFFFFFFFFFFFFFFFFFFFFFFFFFFFFFFFFF AND DUP4 PUSH1 0x40 MLOAD DUP4 PUSH4 0xFFFFFFFF AND PUSH1 0xE0 SHL DUP2 MSTORE PUSH1 0x4 ADD PUSH2 0xD83 SWAP3 SWAP2 SWAP1 PUSH2 0x3072 JUMP JUMPDEST PUSH1 0x20 PUSH1 0x40 MLOAD DUP1 DUP4 SUB DUP2 PUSH0 DUP8 GAS CALL ISZERO DUP1 ISZERO PUSH2 0xD9F JUMPI RETURNDATASIZE PUSH0 PUSH0 RETURNDATACOPY RETURNDATASIZE PUSH0 REVERT JUMPDEST POP POP POP POP PUSH1 0x40 MLOAD RETURNDATASIZE PUSH1 0x1F NOT PUSH1 0x1F DUP3 ADD AND DUP3 ADD DUP1 PUSH1 0x40 MSTORE POP DUP2 ADD SWAP1 PUSH2 0xDC3 SWAP2 SWAP1 PUSH2 0x30C3 JUMP JUMPDEST POP JUMPDEST DUP4 PUSH1 0x1 ADD SLOAD PUSH1 0x12 PUSH0 DUP3 DUP3 SLOAD PUSH2 0xDDA SWAP2 SWAP1 PUSH2 0x303F JUMP JUMPDEST SWAP3 POP POP DUP2 SWAP1 SSTORE POP PUSH1 0x1 PUSH0 DUP7 PUSH20 0xFFFFFFFFFFFFFFFFFFFFFFFFFFFFFFFFFFFFFFFF AND PUSH20 0xFFFFFFFFFFFFFFFFFFFFFFFFFFFFFFFFFFFFFFFF AND DUP2 MSTORE PUSH1 0x20 ADD SWAP1 DUP2 MSTORE PUSH1 0x20 ADD PUSH0 KECCAK256 PUSH0 PUSH0 DUP3 ADD PUSH0 SWAP1 SSTORE PUSH1 0x1 DUP3 ADD PUSH0 SWAP1 SSTORE PUSH1 0x2 DUP3 ADD PUSH0 SWAP1 SSTORE POP POP CALLER PUSH20 0xFFFFFFFFFFFFFFFFFFFFFFFFFFFFFFFFFFFFFFFF AND DUP6 PUSH20 0xFFFFFFFFFFFFFFFFFFFFFFFFFFFFFFFFFFFFFFFF AND PUSH32 0x1F0C6615429D1CDAE0DFA233ABF91D3B31CDBDD82C8081389832A61E1072F1EA DUP6 DUP6 PUSH1 0x40 MLOAD PUSH2 0xE94 SWAP3 SWAP2 SWAP1 PUSH2 0x30EE JUMP JUMPDEST PUSH1 0x40 MLOAD DUP1 SWAP2 SUB SWAP1 LOG3 POP POP POP POP POP JUMP JUMPDEST PUSH1 0x10 SLOAD DUP2 JUMP JUMPDEST PUSH32 0x0 PUSH20 0xFFFFFFFFFFFFFFFFFFFFFFFFFFFFFFFFFFFFFFFF AND ADDRESS PUSH20 0xFFFFFFFFFFFFFFFFFFFFFFFFFFFFFFFFFFFFFFFF AND SUB PUSH2 0xF37 JUMPI PUSH1 0x40 MLOAD PUSH32 0x8C379A000000000000000000000000000000000000000000000000000000000 DUP2 MSTORE PUSH1 0x4 ADD PUSH2 0xF2E SWAP1 PUSH2 0x315F JUMP JUMPDEST PUSH1 0x40 MLOAD DUP1 SWAP2 SUB SWAP1 REVERT JUMPDEST PUSH32 0x0 PUSH20 0xFFFFFFFFFFFFFFFFFFFFFFFFFFFFFFFFFFFFFFFF AND PUSH2 0xF76 PUSH2 0x2768 JUMP JUMPDEST PUSH20 0xFFFFFFFFFFFFFFFFFFFFFFFFFFFFFFFFFFFFFFFF AND EQ PUSH2 0xFCC JUMPI PUSH1 0x40 MLOAD PUSH32 0x8C379A000000000000000000000000000000000000000000000000000000000 DUP2 MSTORE PUSH1 0x4 ADD PUSH2 0xFC3 SWAP1 PUSH2 0x31C7 JUMP JUMPDEST PUSH1 0x40 MLOAD DUP1 SWAP2 SUB SWAP1 REVERT JUMPDEST PUSH2 0xFD5 DUP2 PUSH2 0x2797 JUMP JUMPDEST PUSH2 0xFEE DUP2 PUSH1 0x40 MLOAD DUP1 PUSH1 0x20 ADD PUSH1 0x40 MSTORE DUP1 PUSH0 DUP2 MSTORE POP PUSH0 PUSH2 0x27F2 JUMP JUMPDEST POP JUMP JUMPDEST PUSH1 0x3 PUSH0 SWAP1 SLOAD SWAP1 PUSH2 0x100 EXP SWAP1 DIV PUSH20 0xFFFFFFFFFFFFFFFFFFFFFFFFFFFFFFFFFFFFFFFF AND PUSH20 0xFFFFFFFFFFFFFFFFFFFFFFFFFFFFFFFFFFFFFFFF AND PUSH4 0x23B872DD CALLER ADDRESS DUP5 PUSH1 0x40 MLOAD DUP5 PUSH4 0xFFFFFFFF AND PUSH1 0xE0 SHL DUP2 MSTORE PUSH1 0x4 ADD PUSH2 0x104F SWAP4 SWAP3 SWAP2 SWAP1 PUSH2 0x31E5 JUMP JUMPDEST PUSH1 0x20 PUSH1 0x40 MLOAD DUP1 DUP4 SUB DUP2 PUSH0 DUP8 GAS CALL ISZERO DUP1 ISZERO PUSH2 0x106B JUMPI RETURNDATASIZE PUSH0 PUSH0 RETURNDATACOPY RETURNDATASIZE PUSH0 REVERT JUMPDEST POP POP POP POP PUSH1 0x40 MLOAD RETURNDATASIZE PUSH1 0x1F NOT PUSH1 0x1F DUP3 ADD AND DUP3 ADD DUP1 PUSH1 0x40 MSTORE POP DUP2 ADD SWAP1 PUSH2 0x108F SWAP2 SWAP1 PUSH2 0x30C3 JUMP JUMPDEST POP DUP1 PUSH1 0x1 PUSH0 CALLER PUSH20 0xFFFFFFFFFFFFFFFFFFFFFFFFFFFFFFFFFFFFFFFF AND PUSH20 0xFFFFFFFFFFFFFFFFFFFFFFFFFFFFFFFFFFFFFFFF AND DUP2 MSTORE PUSH1 0x20 ADD SWAP1 DUP2 MSTORE PUSH1 0x20 ADD PUSH0 KECCAK256 PUSH0 ADD PUSH0 DUP3 DUP3 SLOAD PUSH2 0x10DE SWAP2 SWAP1 PUSH2 0x321A JUMP JUMPDEST SWAP3 POP POP DUP2 SWAP1 SSTORE POP POP JUMP JUMPDEST PUSH0 PUSH0 DUP3 GT PUSH2 0x10F4 JUMPI PUSH0 PUSH0 REVERT JUMPDEST PUSH2 0x10FC PUSH2 0x1D63 JUMP JUMPDEST PUSH0 PUSH1 0x1 PUSH0 CALLER PUSH20 0xFFFFFFFFFFFFFFFFFFFFFFFFFFFFFFFFFFFFFFFF AND PUSH20 0xFFFFFFFFFFFFFFFFFFFFFFFFFFFFFFFFFFFFFFFF AND DUP2 MSTORE PUSH1 0x20 ADD SWAP1 DUP2 MSTORE PUSH1 0x20 ADD PUSH0 KECCAK256 SWAP1 POP PUSH0 PUSH2 0x1146 CALLER PUSH2 0x24DA JUMP JUMPDEST SWAP1 POP PUSH0 DUP2 GT PUSH2 0x1153 JUMPI PUSH0 PUSH0 REVERT JUMPDEST PUSH0 DUP2 DUP6 GT PUSH2 0x1161 JUMPI DUP5 PUSH2 0x1163 JUMP JUMPDEST DUP2 JUMPDEST SWAP1 POP PUSH1 0x2 PUSH0 SWAP1 SLOAD SWAP1 PUSH2 0x100 EXP SWAP1 DIV PUSH20 0xFFFFFFFFFFFFFFFFFFFFFFFFFFFFFFFFFFFFFFFF AND PUSH20 0xFFFFFFFFFFFFFFFFFFFFFFFFFFFFFFFFFFFFFFFF AND PUSH4 0x23B872DD CALLER ADDRESS DUP5 PUSH1 0x40 MLOAD DUP5 PUSH4 0xFFFFFFFF AND PUSH1 0xE0 SHL DUP2 MSTORE PUSH1 0x4 ADD PUSH2 0x11C3 SWAP4 SWAP3 SWAP2 SWAP1 PUSH2 0x31E5 JUMP JUMPDEST PUSH1 0x20 PUSH1 0x40 MLOAD DUP1 DUP4 SUB DUP2 PUSH0 DUP8 GAS CALL ISZERO DUP1 ISZERO PUSH2 0x11DF JUMPI RETURNDATASIZE PUSH0 PUSH0 RETURNDATACOPY RETURNDATASIZE PUSH0 REVERT JUMPDEST POP POP POP POP PUSH1 0x40 MLOAD RETURNDATASIZE PUSH1 0x1F NOT PUSH1 0x1F DUP3 ADD AND DUP3 ADD DUP1 PUSH1 0x40 MSTORE POP DUP2 ADD SWAP1 PUSH2 0x1203 SWAP2 SWAP1 PUSH2 0x30C3 JUMP JUMPDEST POP PUSH0 DUP2 DUP5 PUSH1 0x2 ADD SLOAD GT PUSH2 0x121A JUMPI DUP4 PUSH1 0x2 ADD SLOAD PUSH2 0x121C JUMP JUMPDEST DUP2 JUMPDEST SWAP1 POP DUP1 DUP5 PUSH1 0x2 ADD PUSH0 DUP3 DUP3 SLOAD PUSH2 0x1231 SWAP2 SWAP1 PUSH2 0x303F JUMP JUMPDEST SWAP3 POP POP DUP2 SWAP1 SSTORE POP PUSH2 0x3E8 PUSH1 0x10 SLOAD DUP3 DUP5 PUSH2 0x124A SWAP2 SWAP1 PUSH2 0x303F JUMP JUMPDEST PUSH2 0x1254 SWAP2 SWAP1 PUSH2 0x2FA1 JUMP JUMPDEST PUSH2 0x125E SWAP2 SWAP1 PUSH2 0x300F JUMP JUMPDEST PUSH1 0x10 PUSH0 DUP3 DUP3 SLOAD PUSH2 0x126E SWAP2 SWAP1 PUSH2 0x321A JUMP JUMPDEST SWAP3 POP POP DUP2 SWAP1 SSTORE POP PUSH0 DUP4 DUP4 EQ PUSH2 0x12A3 JUMPI PUSH1 0xF SLOAD PUSH8 0xDE0B6B3A7640000 DUP5 PUSH2 0x1294 SWAP2 SWAP1 PUSH2 0x2FA1 JUMP JUMPDEST PUSH2 0x129E SWAP2 SWAP1 PUSH2 0x300F JUMP JUMPDEST PUSH2 0x12A9 JUMP JUMPDEST DUP5 PUSH1 0x1 ADD SLOAD JUMPDEST SWAP1 POP DUP5 PUSH1 0x1 ADD SLOAD DUP2 GT ISZERO PUSH2 0x12BF JUMPI DUP5 PUSH1 0x1 ADD SLOAD SWAP1 POP JUMPDEST DUP1 DUP6 PUSH1 0x1 ADD PUSH0 DUP3 DUP3 SLOAD PUSH2 0x12D2 SWAP2 SWAP1 PUSH2 0x303F JUMP JUMPDEST SWAP3 POP POP DUP2 SWAP1 SSTORE POP DUP1 PUSH1 0x12 PUSH0 DUP3 DUP3 SLOAD PUSH2 0x12EA SWAP2 SWAP1 PUSH2 0x303F JUMP JUMPDEST SWAP3 POP POP DUP2 SWAP1 SSTORE POP PUSH2 0x12FA CALLER PUSH2 0x24DA JUMP JUMPDEST SWAP6 POP POP POP POP POP POP SWAP2 SWAP1 POP JUMP JUMPDEST PUSH1 0x8 PUSH0 SWAP1 SLOAD SWAP1 PUSH2 0x100 EXP SWAP1 DIV PUSH20 0xFFFFFFFFFFFFFFFFFFFFFFFFFFFFFFFFFFFFFFFF AND PUSH20 0xFFFFFFFFFFFFFFFFFFFFFFFFFFFFFFFFFFFFFFFF AND CALLER PUSH20 0xFFFFFFFFFFFFFFFFFFFFFFFFFFFFFFFFFFFFFFFF AND EQ PUSH2 0x135E JUMPI PUSH0 PUSH0 REVERT JUMPDEST PUSH2 0x1366 PUSH2 0x1933 JUMP JUMPDEST DUP2 GT ISZERO PUSH2 0x1371 JUMPI PUSH0 PUSH0 REVERT JUMPDEST PUSH1 0x2 PUSH0 SWAP1 SLOAD SWAP1 PUSH2 0x100 EXP SWAP1 DIV PUSH20 0xFFFFFFFFFFFFFFFFFFFFFFFFFFFFFFFFFFFFFFFF AND PUSH20 0xFFFFFFFFFFFFFFFFFFFFFFFFFFFFFFFFFFFFFFFF AND PUSH4 0xA9059CBB CALLER DUP4 PUSH1 0x40 MLOAD DUP4 PUSH4 0xFFFFFFFF AND PUSH1 0xE0 SHL DUP2 MSTORE PUSH1 0x4 ADD PUSH2 0x13CD SWAP3 SWAP2 SWAP1 PUSH2 0x3072 JUMP JUMPDEST PUSH1 0x20 PUSH1 0x40 MLOAD DUP1 DUP4 SUB DUP2 PUSH0 DUP8 GAS CALL ISZERO DUP1 ISZERO PUSH2 0x13E9 JUMPI RETURNDATASIZE PUSH0 PUSH0 RETURNDATACOPY RETURNDATASIZE PUSH0 REVERT JUMPDEST POP POP POP POP PUSH1 0x40 MLOAD RETURNDATASIZE PUSH1 0x1F NOT PUSH1 0x1F DUP3 ADD AND DUP3 ADD DUP1 PUSH1 0x40 MSTORE POP DUP2 ADD SWAP1 PUSH2 0x140D SWAP2 SWAP1 PUSH2 0x30C3 JUMP JUMPDEST POP POP JUMP JUMPDEST PUSH1 0x7 PUSH0 SWAP1 SLOAD SWAP1 PUSH2 0x100 EXP SWAP1 DIV PUSH20 0xFFFFFFFFFFFFFFFFFFFFFFFFFFFFFFFFFFFFFFFF AND DUP2 JUMP JUMPDEST PUSH1 0x5 DUP1 SLOAD PUSH2 0x1443 SWAP1 PUSH2 0x327A JUMP JUMPDEST DUP1 PUSH1 0x1F ADD PUSH1 0x20 DUP1 SWAP2 DIV MUL PUSH1 0x20 ADD PUSH1 0x40 MLOAD SWAP1 DUP2 ADD PUSH1 0x40 MSTORE DUP1 SWAP3 SWAP2 SWAP1 DUP2 DUP2 MSTORE PUSH1 0x20 ADD DUP3 DUP1 SLOAD PUSH2 0x146F SWAP1 PUSH2 0x327A JUMP JUMPDEST DUP1 ISZERO PUSH2 0x14BA JUMPI DUP1 PUSH1 0x1F LT PUSH2 0x1491 JUMPI PUSH2 0x100 DUP1 DUP4 SLOAD DIV MUL DUP4 MSTORE SWAP2 PUSH1 0x20 ADD SWAP2 PUSH2 0x14BA JUMP JUMPDEST DUP3 ADD SWAP2 SWAP1 PUSH0 MSTORE PUSH1 0x20 PUSH0 KECCAK256 SWAP1 JUMPDEST DUP2 SLOAD DUP2 MSTORE SWAP1 PUSH1 0x1 ADD SWAP1 PUSH1 0x20 ADD DUP1 DUP4 GT PUSH2 0x149D JUMPI DUP3 SWAP1 SUB PUSH1 0x1F AND DUP3 ADD SWAP2 JUMPDEST POP POP POP POP POP DUP2 JUMP JUMPDEST PUSH1 0x8 PUSH0 SWAP1 SLOAD SWAP1 PUSH2 0x100 EXP SWAP1 DIV PUSH20 0xFFFFFFFFFFFFFFFFFFFFFFFFFFFFFFFFFFFFFFFF AND PUSH20 0xFFFFFFFFFFFFFFFFFFFFFFFFFFFFFFFFFFFFFFFF AND CALLER PUSH20 0xFFFFFFFFFFFFFFFFFFFFFFFFFFFFFFFFFFFFFFFF AND EQ PUSH2 0x151A JUMPI PUSH0 PUSH0 REVERT JUMPDEST POP JUMP JUMPDEST PUSH32 0x0 PUSH20 0xFFFFFFFFFFFFFFFFFFFFFFFFFFFFFFFFFFFFFFFF AND ADDRESS PUSH20 0xFFFFFFFFFFFFFFFFFFFFFFFFFFFFFFFFFFFFFFFF AND SUB PUSH2 0x15AB JUMPI PUSH1 0x40 MLOAD PUSH32 0x8C379A000000000000000000000000000000000000000000000000000000000 DUP2 MSTORE PUSH1 0x4 ADD PUSH2 0x15A2 SWAP1 PUSH2 0x315F JUMP JUMPDEST PUSH1 0x40 MLOAD DUP1 SWAP2 SUB SWAP1 REVERT JUMPDEST PUSH32 0x0 PUSH20 0xFFFFFFFFFFFFFFFFFFFFFFFFFFFFFFFFFFFFFFFF AND PUSH2 0x15EA PUSH2 0x2768 JUMP JUMPDEST PUSH20 0xFFFFFFFFFFFFFFFFFFFFFFFFFFFFFFFFFFFFFFFF AND EQ PUSH2 0x1640 JUMPI PUSH1 0x40 MLOAD PUSH32 0x8C379A000000000000000000000000000000000000000000000000000000000 DUP2 MSTORE PUSH1 0x4 ADD PUSH2 0x1637 SWAP1 PUSH2 0x31C7 JUMP JUMPDEST PUSH1 0x40 MLOAD DUP1 SWAP2 SUB SWAP1 REVERT JUMPDEST PUSH2 0x1649 DUP4 PUSH2 0x2797 JUMP JUMPDEST PUSH2 0x1698 DUP4 DUP4 DUP4 DUP1 DUP1 PUSH1 0x1F ADD PUSH1 0x20 DUP1 SWAP2 DIV MUL PUSH1 0x20 ADD PUSH1 0x40 MLOAD SWAP1 DUP2 ADD PUSH1 0x40 MSTORE DUP1 SWAP4 SWAP3 SWAP2 SWAP1 DUP2 DUP2 MSTORE PUSH1 0x20 ADD DUP4 DUP4 DUP1 DUP3 DUP5 CALLDATACOPY PUSH0 DUP2 DUP5 ADD MSTORE PUSH1 0x1F NOT PUSH1 0x1F DUP3 ADD AND SWAP1 POP DUP1 DUP4 ADD SWAP3 POP POP POP POP POP POP POP PUSH1 0x1 PUSH2 0x27F2 JUMP JUMPDEST POP POP POP JUMP JUMPDEST PUSH0 PUSH32 0x0 PUSH20 0xFFFFFFFFFFFFFFFFFFFFFFFFFFFFFFFFFFFFFFFF AND ADDRESS PUSH20 0xFFFFFFFFFFFFFFFFFFFFFFFFFFFFFFFFFFFFFFFF AND EQ PUSH2 0x172C JUMPI PUSH1 0x40 MLOAD PUSH32 0x8C379A000000000000000000000000000000000000000000000000000000000 DUP2 MSTORE PUSH1 0x4 ADD PUSH2 0x1723 SWAP1 PUSH2 0x32F4 JUMP JUMPDEST PUSH1 0x40 MLOAD DUP1 SWAP2 SUB SWAP1 REVERT JUMPDEST PUSH32 0x360894A13BA1A3210667C828492DB98DCA3E2076CC3735A920A3CA505D382BBC PUSH0 SHL SWAP1 POP SWAP1 JUMP JUMPDEST PUSH1 0x1 PUSH1 0x20 MSTORE DUP1 PUSH0 MSTORE PUSH1 0x40 PUSH0 KECCAK256 PUSH0 SWAP2 POP SWAP1 POP DUP1 PUSH0 ADD SLOAD SWAP1 DUP1 PUSH1 0x1 ADD SLOAD SWAP1 DUP1 PUSH1 0x2 ADD SLOAD SWAP1 POP DUP4 JUMP JUMPDEST PUSH0 DUP2 GT PUSH2 0x1785 JUMPI PUSH0 PUSH0 REVERT JUMPDEST PUSH2 0x178D PUSH2 0x1D63 JUMP JUMPDEST PUSH0 PUSH1 0x1 PUSH0 CALLER PUSH20 0xFFFFFFFFFFFFFFFFFFFFFFFFFFFFFFFFFFFFFFFF AND PUSH20 0xFFFFFFFFFFFFFFFFFFFFFFFFFFFFFFFFFFFFFFFF AND DUP2 MSTORE PUSH1 0x20 ADD SWAP1 DUP2 MSTORE PUSH1 0x20 ADD PUSH0 KECCAK256 SWAP1 POP DUP1 PUSH0 ADD SLOAD DUP3 GT ISZERO PUSH2 0x17DC JUMPI PUSH0 PUSH0 REVERT JUMPDEST DUP2 DUP2 PUSH0 ADD PUSH0 DUP3 DUP3 SLOAD PUSH2 0x17EE SWAP2 SWAP1 PUSH2 0x303F JUMP JUMPDEST SWAP3 POP POP DUP2 SWAP1 SSTORE POP PUSH2 0x17FE CALLER PUSH2 0x1D48 JUMP JUMPDEST PUSH2 0x1806 JUMPI PUSH0 PUSH0 REVERT JUMPDEST PUSH1 0x3 PUSH0 SWAP1 SLOAD SWAP1 PUSH2 0x100 EXP SWAP1 DIV PUSH20 0xFFFFFFFFFFFFFFFFFFFFFFFFFFFFFFFFFFFFFFFF AND PUSH20 0xFFFFFFFFFFFFFFFFFFFFFFFFFFFFFFFFFFFFFFFF AND PUSH4 0xA9059CBB CALLER DUP5 PUSH1 0x40 MLOAD DUP4 PUSH4 0xFFFFFFFF AND PUSH1 0xE0 SHL DUP2 MSTORE PUSH1 0x4 ADD PUSH2 0x1862 SWAP3 SWAP2 SWAP1 PUSH2 0x3072 JUMP JUMPDEST PUSH1 0x20 PUSH1 0x40 MLOAD DUP1 DUP4 SUB DUP2 PUSH0 DUP8 GAS CALL ISZERO DUP1 ISZERO PUSH2 0x187E JUMPI RETURNDATASIZE PUSH0 PUSH0 RETURNDATACOPY RETURNDATASIZE PUSH0 REVERT JUMPDEST POP POP POP POP PUSH1 0x40 MLOAD RETURNDATASIZE PUSH1 0x1F NOT PUSH1 0x1F DUP3 ADD AND DUP3 ADD DUP1 PUSH1 0x40 MSTORE POP DUP2 ADD SWAP1 PUSH2 0x18A2 SWAP2 SWAP1 PUSH2 0x30C3 JUMP JUMPDEST POP POP POP JUMP JUMPDEST PUSH1 0x9 PUSH0 SWAP1 SLOAD SWAP1 PUSH2 0x100 EXP SWAP1 DIV PUSH20 0xFFFFFFFFFFFFFFFFFFFFFFFFFFFFFFFFFFFFFFFF AND DUP2 JUMP JUMPDEST PUSH0 PUSH0 PUSH2 0x18D7 DUP4 PUSH2 0x1A81 JUMP JUMPDEST SWAP1 POP PUSH0 DUP2 SUB PUSH2 0x1909 JUMPI PUSH32 0xFFFFFFFFFFFFFFFFFFFFFFFFFFFFFFFFFFFFFFFFFFFFFFFFFFFFFFFFFFFFFFFF SWAP2 POP POP PUSH2 0x192E JUMP JUMPDEST DUP1 PUSH8 0xDE0B6B3A7640000 PUSH1 0xA SLOAD PUSH2 0x1920 SWAP2 SWAP1 PUSH2 0x2FA1 JUMP JUMPDEST PUSH2 0x192A SWAP2 SWAP1 PUSH2 0x300F JUMP JUMPDEST SWAP2 POP POP JUMPDEST SWAP2 SWAP1 POP JUMP JUMPDEST PUSH0 PUSH0 PUSH1 0x2 PUSH0 SWAP1 SLOAD SWAP1 PUSH2 0x100 EXP SWAP1 DIV PUSH20 0xFFFFFFFFFFFFFFFFFFFFFFFFFFFFFFFFFFFFFFFF AND PUSH20 0xFFFFFFFFFFFFFFFFFFFFFFFFFFFFFFFFFFFFFFFF AND PUSH4 0x70A08231 ADDRESS PUSH1 0x40 MLOAD DUP3 PUSH4 0xFFFFFFFF AND PUSH1 0xE0 SHL DUP2 MSTORE PUSH1 0x4 ADD PUSH2 0x198F SWAP2 SWAP1 PUSH2 0x2BDF JUMP JUMPDEST PUSH1 0x20 PUSH1 0x40 MLOAD DUP1 DUP4 SUB DUP2 DUP7 GAS STATICCALL ISZERO DUP1 ISZERO PUSH2 0x19AA JUMPI RETURNDATASIZE PUSH0 PUSH0 RETURNDATACOPY RETURNDATASIZE PUSH0 REVERT JUMPDEST POP POP POP POP PUSH1 0x40 MLOAD RETURNDATASIZE PUSH1 0x1F NOT PUSH1 0x1F DUP3 ADD AND DUP3 ADD DUP1 PUSH1 0x40 MSTORE POP DUP2 ADD SWAP1 PUSH2 0x19CE SWAP2 SWAP1 PUSH2 0x3326 JUMP JUMPDEST SWAP1 POP PUSH1 0x11 SLOAD DUP2 GT ISZERO PUSH2 0x19ED JUMPI PUSH1 0x11 SLOAD DUP2 PUSH2 0x19E8 SWAP2 SWAP1 PUSH2 0x303F JUMP JUMPDEST PUSH2 0x19EF JUMP JUMPDEST PUSH0 JUMPDEST SWAP2 POP POP SWAP1 JUMP JUMPDEST PUSH1 0x6 DUP1 SLOAD PUSH2 0x1A02 SWAP1 PUSH2 0x327A JUMP JUMPDEST DUP1 PUSH1 0x1F ADD PUSH1 0x20 DUP1 SWAP2 DIV MUL PUSH1 0x20 ADD PUSH1 0x40 MLOAD SWAP1 DUP2 ADD PUSH1 0x40 MSTORE DUP1 SWAP3 SWAP2 SWAP1 DUP2 DUP2 MSTORE PUSH1 0x20 ADD DUP3 DUP1 SLOAD PUSH2 0x1A2E SWAP1 PUSH2 0x327A JUMP JUMPDEST DUP1 ISZERO PUSH2 0x1A79 JUMPI DUP1 PUSH1 0x1F LT PUSH2 0x1A50 JUMPI PUSH2 0x100 DUP1 DUP4 SLOAD DIV MUL DUP4 MSTORE SWAP2 PUSH1 0x20 ADD SWAP2 PUSH2 0x1A79 JUMP JUMPDEST DUP3 ADD SWAP2 SWAP1 PUSH0 MSTORE PUSH1 0x20 PUSH0 KECCAK256 SWAP1 JUMPDEST DUP2 SLOAD DUP2 MSTORE SWAP1 PUSH1 0x1 ADD SWAP1 PUSH1 0x20 ADD DUP1 DUP4 GT PUSH2 0x1A5C JUMPI DUP3 SWAP1 SUB PUSH1 0x1F AND DUP3 ADD SWAP2 JUMPDEST POP POP POP POP POP DUP2 JUMP JUMPDEST PUSH0 PUSH0 PUSH20 0xFFFFFFFFFFFFFFFFFFFFFFFFFFFFFFFFFFFFFFFF AND DUP3 PUSH20 0xFFFFFFFFFFFFFFFFFFFFFFFFFFFFFFFFFFFFFFFF AND SUB PUSH2 0x1AB9 JUMPI PUSH0 PUSH0 REVERT JUMPDEST PUSH0 PUSH2 0x1AC3 DUP4 PUSH2 0x24DA JUMP JUMPDEST SWAP1 POP PUSH0 PUSH1 0x1 PUSH0 DUP6 PUSH20 0xFFFFFFFFFFFFFFFFFFFFFFFFFFFFFFFFFFFFFFFF AND PUSH20 0xFFFFFFFFFFFFFFFFFFFFFFFFFFFFFFFFFFFFFFFF AND DUP2 MSTORE PUSH1 0x20 ADD SWAP1 DUP2 MSTORE PUSH1 0x20 ADD PUSH0 KECCAK256 SWAP1 POP PUSH0 DUP3 SUB PUSH2 0x1B16 JUMPI PUSH0 SWAP3 POP POP POP PUSH2 0x1CF3 JUMP JUMPDEST PUSH0 DUP2 PUSH0 ADD SLOAD SUB PUSH2 0x1B4A JUMPI PUSH32 0xFFFFFFFFFFFFFFFFFFFFFFFFFFFFFFFFFFFFFFFFFFFFFFFFFFFFFFFFFFFFFFFF SWAP3 POP POP POP PUSH2 0x1CF3 JUMP JUMPDEST PUSH1 0x4 PUSH0 SWAP1 SLOAD SWAP1 PUSH2 0x100 EXP SWAP1 DIV PUSH20 0xFFFFFFFFFFFFFFFFFFFFFFFFFFFFFFFFFFFFFFFF AND PUSH20 0xFFFFFFFFFFFFFFFFFFFFFFFFFFFFFFFFFFFFFFFF AND PUSH4 0x41976E09 PUSH1 0x3 PUSH0 SWAP1 SLOAD SWAP1 PUSH2 0x100 EXP SWAP1 DIV PUSH20 0xFFFFFFFFFFFFFFFFFFFFFFFFFFFFFFFFFFFFFFFF AND PUSH1 0x40 MLOAD DUP3 PUSH4 0xFFFFFFFF AND PUSH1 0xE0 SHL DUP2 MSTORE PUSH1 0x4 ADD PUSH2 0x1BC5 SWAP2 SWAP1 PUSH2 0x2BDF JUMP JUMPDEST PUSH1 0x20 PUSH1 0x40 MLOAD DUP1 DUP4 SUB DUP2 DUP7 GAS STATICCALL ISZERO DUP1 ISZERO PUSH2 0x1BE0 JUMPI RETURNDATASIZE PUSH0 PUSH0 RETURNDATACOPY RETURNDATASIZE PUSH0 REVERT JUMPDEST POP POP POP POP PUSH1 0x40 MLOAD RETURNDATASIZE PUSH1 0x1F NOT PUSH1 0x1F DUP3 ADD AND DUP3 ADD DUP1 PUSH1 0x40 MSTORE POP DUP2 ADD SWAP1 PUSH2 0x1C04 SWAP2 SWAP1 PUSH2 0x3326 JUMP JUMPDEST DUP2 PUSH0 ADD SLOAD PUSH2 0x1C12 SWAP2 SWAP1 PUSH2 0x2FA1 JUMP JUMPDEST PUSH2 0x2710 PUSH1 0x4 PUSH0 SWAP1 SLOAD SWAP1 PUSH2 0x100 EXP SWAP1 DIV PUSH20 0xFFFFFFFFFFFFFFFFFFFFFFFFFFFFFFFFFFFFFFFF AND PUSH20 0xFFFFFFFFFFFFFFFFFFFFFFFFFFFFFFFFFFFFFFFF AND PUSH4 0x41976E09 PUSH1 0x2 PUSH0 SWAP1 SLOAD SWAP1 PUSH2 0x100 EXP SWAP1 DIV PUSH20 0xFFFFFFFFFFFFFFFFFFFFFFFFFFFFFFFFFFFFFFFF AND PUSH1 0x40 MLOAD DUP3 PUSH4 0xFFFFFFFF AND PUSH1 0xE0 SHL DUP2 MSTORE PUSH1 0x4 ADD PUSH2 0x1C90 SWAP2 SWAP1 PUSH2 0x2BDF JUMP JUMPDEST PUSH1 0x20 PUSH1 0x40 MLOAD DUP1 DUP4 SUB DUP2 DUP7 GAS STATICCALL ISZERO DUP1 ISZERO PUSH2 0x1CAB JUMPI RETURNDATASIZE PUSH0 PUSH0 RETURNDATACOPY RETURNDATASIZE PUSH0 REVERT JUMPDEST POP POP POP POP PUSH1 0x40 MLOAD RETURNDATASIZE PUSH1 0x1F NOT PUSH1 0x1F DUP3 ADD AND DUP3 ADD DUP1 PUSH1 0x40 MSTORE POP DUP2 ADD SWAP1 PUSH2 0x1CCF SWAP2 SWAP1 PUSH2 0x3326 JUMP JUMPDEST DUP5 PUSH2 0x1CDA SWAP2 SWAP1 PUSH2 0x2FA1 JUMP JUMPDEST PUSH2 0x1CE4 SWAP2 SWAP1 PUSH2 0x2FA1 JUMP JUMPDEST PUSH2 0x1CEE SWAP2 SWAP1 PUSH2 0x300F JUMP JUMPDEST SWAP3 POP POP POP JUMPDEST SWAP2 SWAP1 POP JUMP JUMPDEST PUSH1 0xB SLOAD DUP2 JUMP JUMPDEST PUSH1 0x4 PUSH0 SWAP1 SLOAD SWAP1 PUSH2 0x100 EXP SWAP1 DIV PUSH20 0xFFFFFFFFFFFFFFFFFFFFFFFFFFFFFFFFFFFFFFFF AND DUP2 JUMP JUMPDEST PUSH0 PUSH1 0x2 SWAP1 SLOAD SWAP1 PUSH2 0x100 EXP SWAP1 DIV PUSH20 0xFFFFFFFFFFFFFFFFFFFFFFFFFFFFFFFFFFFFFFFF AND DUP2 JUMP JUMPDEST PUSH0 PUSH1 0xA SLOAD PUSH2 0x1D55 DUP4 PUSH2 0x1A81 JUMP JUMPDEST LT SWAP1 POP SWAP2 SWAP1 POP JUMP JUMPDEST PUSH1 0xC SLOAD DUP2 JUMP JUMPDEST PUSH1 0xE SLOAD NUMBER SUB ISZERO PUSH2 0x1DE0 JUMPI PUSH0 PUSH1 0x12 SLOAD GT ISZERO PUSH2 0x1DD0 JUMPI PUSH0 PUSH1 0xE SLOAD NUMBER PUSH2 0x1D86 SWAP2 SWAP1 PUSH2 0x303F JUMP JUMPDEST SWAP1 POP PUSH0 PUSH1 0xC SLOAD DUP3 PUSH1 0xB SLOAD PUSH2 0x1D9A SWAP2 SWAP1 PUSH2 0x2FA1 JUMP JUMPDEST PUSH2 0x1DA4 SWAP2 SWAP1 PUSH2 0x300F JUMP JUMPDEST SWAP1 POP PUSH8 0xDE0B6B3A7640000 DUP2 PUSH1 0xF SLOAD PUSH2 0x1DBD SWAP2 SWAP1 PUSH2 0x2FA1 JUMP JUMPDEST PUSH2 0x1DC7 SWAP2 SWAP1 PUSH2 0x300F JUMP JUMPDEST PUSH1 0xF DUP2 SWAP1 SSTORE POP POP POP JUMPDEST NUMBER PUSH1 0xE SLOAD PUSH2 0x1DDE SWAP2 SWAP1 PUSH2 0x303F JUMP JUMPDEST POP JUMPDEST JUMP JUMPDEST PUSH1 0xF SLOAD DUP2 JUMP JUMPDEST PUSH0 PUSH0 SWAP1 SLOAD SWAP1 PUSH2 0x100 EXP SWAP1 DIV PUSH1 0xFF AND ISZERO DUP1 PUSH2 0x1E0D JUMPI POP PUSH0 PUSH1 0x1 SWAP1 SLOAD SWAP1 PUSH2 0x100 EXP SWAP1 DIV PUSH1 0xFF AND JUMPDEST PUSH2 0x1E4C JUMPI PUSH1 0x40 MLOAD PUSH32 0x8C379A000000000000000000000000000000000000000000000000000000000 DUP2 MSTORE PUSH1 0x4 ADD PUSH2 0x1E43 SWAP1 PUSH2 0x339B JUMP JUMPDEST PUSH1 0x40 MLOAD DUP1 SWAP2 SUB SWAP1 REVERT JUMPDEST PUSH0 PUSH0 PUSH1 0x1 SWAP1 SLOAD SWAP1 PUSH2 0x100 EXP SWAP1 DIV PUSH1 0xFF AND ISZERO SWAP1 POP DUP1 ISZERO PUSH2 0x1E99 JUMPI PUSH1 0x1 PUSH0 PUSH1 0x1 PUSH2 0x100 EXP DUP2 SLOAD DUP2 PUSH1 0xFF MUL NOT AND SWAP1 DUP4 ISZERO ISZERO MUL OR SWAP1 SSTORE POP PUSH1 0x1 PUSH0 PUSH0 PUSH2 0x100 EXP DUP2 SLOAD DUP2 PUSH1 0xFF MUL NOT AND SWAP1 DUP4 ISZERO ISZERO MUL OR SWAP1 SSTORE POP JUMPDEST PUSH0 PUSH20 0xFFFFFFFFFFFFFFFFFFFFFFFFFFFFFFFFFFFFFFFF AND DUP7 PUSH1 0xC0 ADD PUSH1 0x20 DUP2 ADD SWAP1 PUSH2 0x1EC3 SWAP2 SWAP1 PUSH2 0x2B31 JUMP JUMPDEST PUSH20 0xFFFFFFFFFFFFFFFFFFFFFFFFFFFFFFFFFFFFFFFF AND SUB PUSH2 0x1EE2 JUMPI PUSH0 PUSH0 REVERT JUMPDEST PUSH0 PUSH20 0xFFFFFFFFFFFFFFFFFFFFFFFFFFFFFFFFFFFFFFFF AND DUP7 PUSH1 0x60 ADD PUSH1 0x20 DUP2 ADD SWAP1 PUSH2 0x1F0C SWAP2 SWAP1 PUSH2 0x2B31 JUMP JUMPDEST PUSH20 0xFFFFFFFFFFFFFFFFFFFFFFFFFFFFFFFFFFFFFFFF AND SUB PUSH2 0x1F2B JUMPI PUSH0 PUSH0 REVERT JUMPDEST PUSH0 PUSH20 0xFFFFFFFFFFFFFFFFFFFFFFFFFFFFFFFFFFFFFFFF AND DUP7 PUSH1 0x80 ADD PUSH1 0x20 DUP2 ADD SWAP1 PUSH2 0x1F55 SWAP2 SWAP1 PUSH2 0x2B31 JUMP JUMPDEST PUSH20 0xFFFFFFFFFFFFFFFFFFFFFFFFFFFFFFFFFFFFFFFF AND SUB PUSH2 0x1F74 JUMPI PUSH0 PUSH0 REVERT JUMPDEST PUSH0 PUSH20 0xFFFFFFFFFFFFFFFFFFFFFFFFFFFFFFFFFFFFFFFF AND DUP7 PUSH1 0xA0 ADD PUSH1 0x20 DUP2 ADD SWAP1 PUSH2 0x1F9E SWAP2 SWAP1 PUSH2 0x2B31 JUMP JUMPDEST PUSH20 0xFFFFFFFFFFFFFFFFFFFFFFFFFFFFFFFFFFFFFFFF AND SUB PUSH2 0x1FBD JUMPI PUSH0 PUSH0 REVERT JUMPDEST PUSH0 PUSH1 0xC SLOAD GT PUSH2 0x1FCA JUMPI PUSH0 PUSH0 REVERT JUMPDEST PUSH2 0x2710 DUP7 PUSH2 0x140 ADD CALLDATALOAD GT ISZERO PUSH2 0x1FDD JUMPI PUSH0 PUSH0 REVERT JUMPDEST PUSH3 0x186A0 DUP7 PUSH1 0xE0 ADD CALLDATALOAD GT ISZERO PUSH2 0x1FF0 JUMPI PUSH0 PUSH0 REVERT JUMPDEST PUSH2 0x200A DUP7 PUSH0 ADD PUSH1 0x20 DUP2 ADD SWAP1 PUSH2 0x2005 SWAP2 SWAP1 PUSH2 0x2B31 JUMP JUMPDEST PUSH2 0x292F JUMP JUMPDEST DUP5 DUP5 PUSH1 0x5 SWAP2 DUP3 PUSH2 0x201B SWAP3 SWAP2 SWAP1 PUSH2 0x3587 JUMP JUMPDEST POP DUP3 DUP3 PUSH1 0x6 SWAP2 DUP3 PUSH2 0x202D SWAP3 SWAP2 SWAP1 PUSH2 0x3587 JUMP JUMPDEST POP DUP6 PUSH1 0x60 ADD PUSH1 0x20 DUP2 ADD SWAP1 PUSH2 0x2041 SWAP2 SWAP1 PUSH2 0x2B31 JUMP JUMPDEST PUSH1 0x2 PUSH0 PUSH2 0x100 EXP DUP2 SLOAD DUP2 PUSH20 0xFFFFFFFFFFFFFFFFFFFFFFFFFFFFFFFFFFFFFFFF MUL NOT AND SWAP1 DUP4 PUSH20 0xFFFFFFFFFFFFFFFFFFFFFFFFFFFFFFFFFFFFFFFF AND MUL OR SWAP1 SSTORE POP DUP6 PUSH1 0x80 ADD PUSH1 0x20 DUP2 ADD SWAP1 PUSH2 0x2093 SWAP2 SWAP1 PUSH2 0x2B31 JUMP JUMPDEST PUSH1 0x3 PUSH0 PUSH2 0x100 EXP DUP2 SLOAD DUP2 PUSH20 0xFFFFFFFFFFFFFFFFFFFFFFFFFFFFFFFFFFFFFFFF MUL NOT AND SWAP1 DUP4 PUSH20 0xFFFFFFFFFFFFFFFFFFFFFFFFFFFFFFFFFFFFFFFF AND MUL OR SWAP1 SSTORE POP DUP6 PUSH1 0xA0 ADD PUSH1 0x20 DUP2 ADD SWAP1 PUSH2 0x20E5 SWAP2 SWAP1 PUSH2 0x2B31 JUMP JUMPDEST PUSH1 0x4 PUSH0 PUSH2 0x100 EXP DUP2 SLOAD DUP2 PUSH20 0xFFFFFFFFFFFFFFFFFFFFFFFFFFFFFFFFFFFFFFFF MUL NOT AND SWAP1 DUP4 PUSH20 0xFFFFFFFFFFFFFFFFFFFFFFFFFFFFFFFFFFFFFFFF AND MUL OR SWAP1 SSTORE POP DUP6 PUSH1 0xC0 ADD PUSH1 0x20 DUP2 ADD SWAP1 PUSH2 0x2137 SWAP2 SWAP1 PUSH2 0x2B31 JUMP JUMPDEST PUSH1 0x8 PUSH0 PUSH2 0x100 EXP DUP2 SLOAD DUP2 PUSH20 0xFFFFFFFFFFFFFFFFFFFFFFFFFFFFFFFFFFFFFFFF MUL NOT AND SWAP1 DUP4 PUSH20 0xFFFFFFFFFFFFFFFFFFFFFFFFFFFFFFFFFFFFFFFF AND MUL OR SWAP1 SSTORE POP DUP6 PUSH1 0x40 ADD PUSH1 0x20 DUP2 ADD SWAP1 PUSH2 0x2189 SWAP2 SWAP1 PUSH2 0x2B31 JUMP JUMPDEST PUSH1 0x9 PUSH0 PUSH2 0x100 EXP DUP2 SLOAD DUP2 PUSH20 0xFFFFFFFFFFFFFFFFFFFFFFFFFFFFFFFFFFFFFFFF MUL NOT AND SWAP1 DUP4 PUSH20 0xFFFFFFFFFFFFFFFFFFFFFFFFFFFFFFFFFFFFFFFF AND MUL OR SWAP1 SSTORE POP DUP6 PUSH1 0x20 ADD PUSH1 0x20 DUP2 ADD SWAP1 PUSH2 0x21DB SWAP2 SWAP1 PUSH2 0x2B31 JUMP JUMPDEST PUSH1 0x7 PUSH0 PUSH2 0x100 EXP DUP2 SLOAD DUP2 PUSH20 0xFFFFFFFFFFFFFFFFFFFFFFFFFFFFFFFFFFFFFFFF MUL NOT AND SWAP1 DUP4 PUSH20 0xFFFFFFFFFFFFFFFFFFFFFFFFFFFFFFFFFFFFFFFF AND MUL OR SWAP1 SSTORE POP DUP6 PUSH1 0xE0 ADD CALLDATALOAD PUSH1 0xA DUP2 SWAP1 SSTORE POP NUMBER PUSH1 0xE DUP2 SWAP1 SSTORE POP DUP6 PUSH2 0x120 ADD CALLDATALOAD PUSH1 0xC DUP2 SWAP1 SSTORE POP DUP6 PUSH2 0x100 ADD CALLDATALOAD PUSH1 0xB DUP2 SWAP1 SSTORE POP PUSH8 0xDE0B6B3A7640000 PUSH1 0xF DUP2 SWAP1 SSTORE POP DUP6 PUSH2 0x140 ADD CALLDATALOAD PUSH1 0xD DUP2 SWAP1 SSTORE POP PUSH2 0x7530 PUSH1 0x10 DUP2 SWAP1 SSTORE POP DUP1 ISZERO PUSH2 0x2288 JUMPI PUSH0 PUSH0 PUSH1 0x1 PUSH2 0x100 EXP DUP2 SLOAD DUP2 PUSH1 0xFF MUL NOT AND SWAP1 DUP4 ISZERO ISZERO MUL OR SWAP1 SSTORE POP JUMPDEST POP POP POP POP POP POP JUMP JUMPDEST PUSH1 0x3 PUSH0 SWAP1 SLOAD SWAP1 PUSH2 0x100 EXP SWAP1 DIV PUSH20 0xFFFFFFFFFFFFFFFFFFFFFFFFFFFFFFFFFFFFFFFF AND DUP2 JUMP JUMPDEST PUSH1 0xA SLOAD DUP2 JUMP JUMPDEST PUSH0 DUP2 GT PUSH2 0x22C6 JUMPI PUSH0 PUSH0 REVERT JUMPDEST PUSH2 0x22CE PUSH2 0x1D63 JUMP JUMPDEST PUSH2 0x22D6 PUSH2 0x1933 JUMP JUMPDEST DUP2 GT ISZERO PUSH2 0x22E1 JUMPI PUSH0 PUSH0 REVERT JUMPDEST PUSH0 PUSH1 0x1 PUSH0 CALLER PUSH20 0xFFFFFFFFFFFFFFFFFFFFFFFFFFFFFFFFFFFFFFFF AND PUSH20 0xFFFFFFFFFFFFFFFFFFFFFFFFFFFFFFFFFFFFFFFF AND DUP2 MSTORE PUSH1 0x20 ADD SWAP1 DUP2 MSTORE PUSH1 0x20 ADD PUSH0 KECCAK256 SWAP1 POP PUSH0 PUSH2 0x232B DUP4 PUSH2 0x9E7 JUMP JUMPDEST SWAP1 POP DUP1 DUP3 PUSH1 0x1 ADD PUSH0 DUP3 DUP3 SLOAD PUSH2 0x2340 SWAP2 SWAP1 PUSH2 0x321A JUMP JUMPDEST SWAP3 POP POP DUP2 SWAP1 SSTORE POP DUP1 DUP3 PUSH1 0x2 ADD PUSH0 DUP3 DUP3 SLOAD PUSH2 0x235A SWAP2 SWAP1 PUSH2 0x321A JUMP JUMPDEST SWAP3 POP POP DUP2 SWAP1 SSTORE POP DUP1 PUSH1 0x12 PUSH0 DUP3 DUP3 SLOAD PUSH2 0x2372 SWAP2 SWAP1 PUSH2 0x321A JUMP JUMPDEST SWAP3 POP POP DUP2 SWAP1 SSTORE POP PUSH2 0x2382 CALLER PUSH2 0x1D48 JUMP JUMPDEST PUSH2 0x238A JUMPI PUSH0 PUSH0 REVERT JUMPDEST PUSH1 0x2 PUSH0 SWAP1 SLOAD SWAP1 PUSH2 0x100 EXP SWAP1 DIV PUSH20 0xFFFFFFFFFFFFFFFFFFFFFFFFFFFFFFFFFFFFFFFF AND PUSH20 0xFFFFFFFFFFFFFFFFFFFFFFFFFFFFFFFFFFFFFFFF AND PUSH4 0xA9059CBB CALLER DUP6 PUSH1 0x40 MLOAD DUP4 PUSH4 0xFFFFFFFF AND PUSH1 0xE0 SHL DUP2 MSTORE PUSH1 0x4 ADD PUSH2 0x23E6 SWAP3 SWAP2 SWAP1 PUSH2 0x3072 JUMP JUMPDEST PUSH1 0x20 PUSH1 0x40 MLOAD DUP1 DUP4 SUB DUP2 PUSH0 DUP8 GAS CALL ISZERO DUP1 ISZERO PUSH2 0x2402 JUMPI RETURNDATASIZE PUSH0 PUSH0 RETURNDATACOPY RETURNDATASIZE PUSH0 REVERT JUMPDEST POP POP POP POP PUSH1 0x40 MLOAD RETURNDATASIZE PUSH1 0x1F NOT PUSH1 0x1F DUP3 ADD AND DUP3 ADD DUP1 PUSH1 0x40 MSTORE POP DUP2 ADD SWAP1 PUSH2 0x2426 SWAP2 SWAP1 PUSH2 0x30C3 JUMP JUMPDEST POP POP POP POP JUMP JUMPDEST PUSH0 PUSH2 0x2435 PUSH2 0x272A JUMP JUMPDEST PUSH2 0x243D PUSH2 0x1933 JUMP JUMPDEST PUSH2 0x2447 SWAP2 SWAP1 PUSH2 0x321A JUMP JUMPDEST SWAP1 POP SWAP1 JUMP JUMPDEST PUSH0 PUSH1 0x2 SWAP1 SLOAD SWAP1 PUSH2 0x100 EXP SWAP1 DIV PUSH20 0xFFFFFFFFFFFFFFFFFFFFFFFFFFFFFFFFFFFFFFFF AND PUSH20 0xFFFFFFFFFFFFFFFFFFFFFFFFFFFFFFFFFFFFFFFF AND CALLER PUSH20 0xFFFFFFFFFFFFFFFFFFFFFFFFFFFFFFFFFFFFFFFF AND EQ PUSH2 0x24A4 JUMPI PUSH0 PUSH0 REVERT JUMPDEST PUSH2 0x2710 DUP4 GT ISZERO PUSH2 0x24B2 JUMPI PUSH0 PUSH0 REVERT JUMPDEST PUSH2 0x2710 DUP4 GT ISZERO PUSH2 0x24C0 JUMPI PUSH0 PUSH0 REVERT JUMPDEST DUP3 PUSH1 0xA DUP2 SWAP1 SSTORE POP DUP2 PUSH1 0xB DUP2 SWAP1 SSTORE POP DUP1 PUSH1 0xD DUP2 SWAP1 SSTORE POP POP POP POP JUMP JUMPDEST PUSH0 PUSH0 PUSH20 0xFFFFFFFFFFFFFFFFFFFFFFFFFFFFFFFFFFFFFFFF AND DUP3 PUSH20 0xFFFFFFFFFFFFFFFFFFFFFFFFFFFFFFFFFFFFFFFF AND SUB PUSH2 0x2512 JUMPI PUSH0 PUSH0 REVERT JUMPDEST PUSH0 PUSH1 0x1 PUSH0 DUP5 PUSH20 0xFFFFFFFFFFFFFFFFFFFFFFFFFFFFFFFFFFFFFFFF AND PUSH20 0xFFFFFFFFFFFFFFFFFFFFFFFFFFFFFFFFFFFFFFFF AND DUP2 MSTORE PUSH1 0x20 ADD SWAP1 DUP2 MSTORE PUSH1 0x20 ADD PUSH0 KECCAK256 PUSH1 0x1 ADD SLOAD SWAP1 POP PUSH0 DUP2 EQ PUSH2 0x2588 JUMPI PUSH8 0xDE0B6B3A7640000 PUSH2 0x256E PUSH2 0x29A9 JUMP JUMPDEST DUP3 PUSH2 0x2579 SWAP2 SWAP1 PUSH2 0x2FA1 JUMP JUMPDEST PUSH2 0x2583 SWAP2 SWAP1 PUSH2 0x300F JUMP JUMPDEST PUSH2 0x258A JUMP JUMPDEST PUSH0 JUMPDEST SWAP2 POP POP SWAP2 SWAP1 POP JUMP JUMPDEST PUSH0 PUSH1 0x2 SWAP1 SLOAD SWAP1 PUSH2 0x100 EXP SWAP1 DIV PUSH20 0xFFFFFFFFFFFFFFFFFFFFFFFFFFFFFFFFFFFFFFFF AND PUSH20 0xFFFFFFFFFFFFFFFFFFFFFFFFFFFFFFFFFFFFFFFF AND CALLER PUSH20 0xFFFFFFFFFFFFFFFFFFFFFFFFFFFFFFFFFFFFFFFF AND EQ PUSH2 0x25EA JUMPI PUSH0 PUSH0 REVERT JUMPDEST PUSH0 PUSH20 0xFFFFFFFFFFFFFFFFFFFFFFFFFFFFFFFFFFFFFFFF AND DUP2 PUSH20 0xFFFFFFFFFFFFFFFFFFFFFFFFFFFFFFFFFFFFFFFF AND SUB PUSH2 0x2621 JUMPI PUSH0 PUSH0 REVERT JUMPDEST DUP1 PUSH0 PUSH1 0x2 PUSH2 0x100 EXP DUP2 SLOAD DUP2 PUSH20 0xFFFFFFFFFFFFFFFFFFFFFFFFFFFFFFFFFFFFFFFF MUL NOT AND SWAP1 DUP4 PUSH20 0xFFFFFFFFFFFFFFFFFFFFFFFFFFFFFFFFFFFFFFFF AND MUL OR SWAP1 SSTORE POP POP JUMP JUMPDEST PUSH1 0x11 SLOAD DUP2 JUMP JUMPDEST PUSH0 PUSH1 0x2 SWAP1 SLOAD SWAP1 PUSH2 0x100 EXP SWAP1 DIV PUSH20 0xFFFFFFFFFFFFFFFFFFFFFFFFFFFFFFFFFFFFFFFF AND PUSH20 0xFFFFFFFFFFFFFFFFFFFFFFFFFFFFFFFFFFFFFFFF AND CALLER PUSH20 0xFFFFFFFFFFFFFFFFFFFFFFFFFFFFFFFFFFFFFFFF AND EQ PUSH2 0x26C2 JUMPI PUSH0 PUSH0 REVERT JUMPDEST DUP1 PUSH1 0x9 PUSH0 PUSH2 0x100 EXP DUP2 SLOAD DUP2 PUSH20 0xFFFFFFFFFFFFFFFFFFFFFFFFFFFFFFFFFFFFFFFF MUL NOT AND SWAP1 DUP4 PUSH20 0xFFFFFFFFFFFFFFFFFFFFFFFFFFFFFFFFFFFFFFFF AND MUL OR SWAP1 SSTORE POP POP JUMP JUMPDEST PUSH1 0x8 PUSH0 SWAP1 SLOAD SWAP1 PUSH2 0x100 EXP SWAP1 DIV PUSH20 0xFFFFFFFFFFFFFFFFFFFFFFFFFFFFFFFFFFFFFFFF AND DUP2 JUMP JUMPDEST PUSH0 PUSH0 PUSH1 0x12 SLOAD EQ PUSH2 0x2761 JUMPI PUSH8 0xDE0B6B3A7640000 PUSH2 0x2745 PUSH2 0x29A9 JUMP JUMPDEST PUSH1 0x12 SLOAD PUSH2 0x2752 SWAP2 SWAP1 PUSH2 0x2FA1 JUMP JUMPDEST PUSH2 0x275C SWAP2 SWAP1 PUSH2 0x300F JUMP JUMPDEST PUSH2 0x2763 JUMP JUMPDEST PUSH0 JUMPDEST SWAP1 POP SWAP1 JUMP JUMPDEST PUSH0 PUSH0 PUSH32 0x360894A13BA1A3210667C828492DB98DCA3E2076CC3735A920A3CA505D382BBC PUSH0 SHL SWAP1 POP DUP1 SLOAD SWAP2 POP POP SWAP1 JUMP JUMPDEST PUSH0 PUSH1 0x2 SWAP1 SLOAD SWAP1 PUSH2 0x100 EXP SWAP1 DIV PUSH20 0xFFFFFFFFFFFFFFFFFFFFFFFFFFFFFFFFFFFFFFFF AND PUSH20 0xFFFFFFFFFFFFFFFFFFFFFFFFFFFFFFFFFFFFFFFF AND CALLER PUSH20 0xFFFFFFFFFFFFFFFFFFFFFFFFFFFFFFFFFFFFFFFF AND EQ PUSH2 0x27EF JUMPI PUSH0 PUSH0 REVERT JUMPDEST POP JUMP JUMPDEST PUSH0 PUSH20 0xFFFFFFFFFFFFFFFFFFFFFFFFFFFFFFFFFFFFFFFF AND DUP4 PUSH20 0xFFFFFFFFFFFFFFFFFFFFFFFFFFFFFFFFFFFFFFFF AND SUB PUSH2 0x2860 JUMPI PUSH1 0x40 MLOAD PUSH32 0x8C379A000000000000000000000000000000000000000000000000000000000 DUP2 MSTORE PUSH1 0x4 ADD PUSH2 0x2857 SWAP1 PUSH2 0x369E JUMP JUMPDEST PUSH1 0x40 MLOAD DUP1 SWAP2 SUB SWAP1 REVERT JUMPDEST PUSH2 0x2869 DUP4 PUSH2 0x2A1C JUMP JUMPDEST DUP1 DUP1 PUSH2 0x2875 JUMPI POP PUSH0 DUP3 MLOAD GT JUMPDEST ISZERO PUSH2 0x292A JUMPI PUSH0 PUSH0 DUP5 PUSH20 0xFFFFFFFFFFFFFFFFFFFFFFFFFFFFFFFFFFFFFFFF AND DUP5 PUSH1 0x40 MLOAD PUSH2 0x28A1 SWAP2 SWAP1 PUSH2 0x3700 JUMP JUMPDEST PUSH0 PUSH1 0x40 MLOAD DUP1 DUP4 SUB DUP2 DUP6 GAS DELEGATECALL SWAP2 POP POP RETURNDATASIZE DUP1 PUSH0 DUP2 EQ PUSH2 0x28D9 JUMPI PUSH1 0x40 MLOAD SWAP2 POP PUSH1 0x1F NOT PUSH1 0x3F RETURNDATASIZE ADD AND DUP3 ADD PUSH1 0x40 MSTORE RETURNDATASIZE DUP3 MSTORE RETURNDATASIZE PUSH0 PUSH1 0x20 DUP5 ADD RETURNDATACOPY PUSH2 0x28DE JUMP JUMPDEST PUSH1 0x60 SWAP2 POP JUMPDEST POP SWAP2 POP SWAP2 POP DUP2 DUP2 SWAP1 PUSH2 0x2926 JUMPI PUSH1 0x40 MLOAD PUSH32 0x8C379A000000000000000000000000000000000000000000000000000000000 DUP2 MSTORE PUSH1 0x4 ADD PUSH2 0x291D SWAP2 SWAP1 PUSH2 0x2C68 JUMP JUMPDEST PUSH1 0x40 MLOAD DUP1 SWAP2 SUB SWAP1 REVERT JUMPDEST POP POP POP JUMPDEST POP POP POP JUMP JUMPDEST PUSH0 PUSH20 0xFFFFFFFFFFFFFFFFFFFFFFFFFFFFFFFFFFFFFFFF AND DUP2 PUSH20 0xFFFFFFFFFFFFFFFFFFFFFFFFFFFFFFFFFFFFFFFF AND SUB PUSH2 0x2966 JUMPI PUSH0 PUSH0 REVERT JUMPDEST DUP1 PUSH0 PUSH1 0x2 PUSH2 0x100 EXP DUP2 SLOAD DUP2 PUSH20 0xFFFFFFFFFFFFFFFFFFFFFFFFFFFFFFFFFFFFFFFF MUL NOT AND SWAP1 DUP4 PUSH20 0xFFFFFFFFFFFFFFFFFFFFFFFFFFFFFFFFFFFFFFFF AND MUL OR SWAP1 SSTORE POP POP JUMP JUMPDEST PUSH0 PUSH1 0xF SLOAD SWAP1 POP PUSH1 0xE SLOAD NUMBER EQ DUP1 ISZERO PUSH2 0x29C1 JUMPI POP PUSH0 PUSH1 0x12 SLOAD GT JUMPDEST ISZERO PUSH2 0x2A19 JUMPI PUSH0 PUSH1 0xE SLOAD NUMBER PUSH2 0x29D5 SWAP2 SWAP1 PUSH2 0x303F JUMP JUMPDEST SWAP1 POP PUSH0 PUSH1 0xC SLOAD DUP3 PUSH1 0xB SLOAD PUSH2 0x29E9 SWAP2 SWAP1 PUSH2 0x2FA1 JUMP JUMPDEST PUSH2 0x29F3 SWAP2 SWAP1 PUSH2 0x300F JUMP JUMPDEST SWAP1 POP PUSH8 0xDE0B6B3A7640000 DUP2 DUP5 PUSH2 0x2A0A SWAP2 SWAP1 PUSH2 0x2FA1 JUMP JUMPDEST PUSH2 0x2A14 SWAP2 SWAP1 PUSH2 0x300F JUMP JUMPDEST SWAP3 POP POP POP JUMPDEST SWAP1 JUMP JUMPDEST PUSH0 PUSH32 0x360894A13BA1A3210667C828492DB98DCA3E2076CC3735A920A3CA505D382BBC PUSH0 SHL SWAP1 POP DUP2 DUP2 SSTORE POP POP JUMP JUMPDEST PUSH0 PUSH0 REVERT JUMPDEST PUSH0 PUSH0 REVERT JUMPDEST PUSH0 DUP2 SWAP1 POP SWAP2 SWAP1 POP JUMP JUMPDEST PUSH2 0x2A63 DUP2 PUSH2 0x2A51 JUMP JUMPDEST DUP2 EQ PUSH2 0x2A6D JUMPI PUSH0 PUSH0 REVERT JUMPDEST POP JUMP JUMPDEST PUSH0 DUP2 CALLDATALOAD SWAP1 POP PUSH2 0x2A7E DUP2 PUSH2 0x2A5A JUMP JUMPDEST SWAP3 SWAP2 POP POP JUMP JUMPDEST PUSH0 PUSH1 0x20 DUP3 DUP5 SUB SLT ISZERO PUSH2 0x2A99 JUMPI PUSH2 0x2A98 PUSH2 0x2A49 JUMP JUMPDEST JUMPDEST PUSH0 PUSH2 0x2AA6 DUP5 DUP3 DUP6 ADD PUSH2 0x2A70 JUMP JUMPDEST SWAP2 POP POP SWAP3 SWAP2 POP POP JUMP JUMPDEST PUSH2 0x2AB8 DUP2 PUSH2 0x2A51 JUMP JUMPDEST DUP3 MSTORE POP POP JUMP JUMPDEST PUSH0 PUSH1 0x20 DUP3 ADD SWAP1 POP PUSH2 0x2AD1 PUSH0 DUP4 ADD DUP5 PUSH2 0x2AAF JUMP JUMPDEST SWAP3 SWAP2 POP POP JUMP JUMPDEST PUSH0 PUSH20 0xFFFFFFFFFFFFFFFFFFFFFFFFFFFFFFFFFFFFFFFF DUP3 AND SWAP1 POP SWAP2 SWAP1 POP JUMP JUMPDEST PUSH0 PUSH2 0x2B00 DUP3 PUSH2 0x2AD7 JUMP JUMPDEST SWAP1 POP SWAP2 SWAP1 POP JUMP JUMPDEST PUSH2 0x2B10 DUP2 PUSH2 0x2AF6 JUMP JUMPDEST DUP2 EQ PUSH2 0x2B1A JUMPI PUSH0 PUSH0 REVERT JUMPDEST POP JUMP JUMPDEST PUSH0 DUP2 CALLDATALOAD SWAP1 POP PUSH2 0x2B2B DUP2 PUSH2 0x2B07 JUMP JUMPDEST SWAP3 SWAP2 POP POP JUMP JUMPDEST PUSH0 PUSH1 0x20 DUP3 DUP5 SUB SLT ISZERO PUSH2 0x2B46 JUMPI PUSH2 0x2B45 PUSH2 0x2A49 JUMP JUMPDEST JUMPDEST PUSH0 PUSH2 0x2B53 DUP5 DUP3 DUP6 ADD PUSH2 0x2B1D JUMP JUMPDEST SWAP2 POP POP SWAP3 SWAP2 POP POP JUMP JUMPDEST PUSH0 DUP2 SWAP1 POP SWAP2 SWAP1 POP JUMP JUMPDEST PUSH0 PUSH2 0x2B7F PUSH2 0x2B7A PUSH2 0x2B75 DUP5 PUSH2 0x2AD7 JUMP JUMPDEST PUSH2 0x2B5C JUMP JUMPDEST PUSH2 0x2AD7 JUMP JUMPDEST SWAP1 POP SWAP2 SWAP1 POP JUMP JUMPDEST PUSH0 PUSH2 0x2B90 DUP3 PUSH2 0x2B65 JUMP JUMPDEST SWAP1 POP SWAP2 SWAP1 POP JUMP JUMPDEST PUSH0 PUSH2 0x2BA1 DUP3 PUSH2 0x2B86 JUMP JUMPDEST SWAP1 POP SWAP2 SWAP1 POP JUMP JUMPDEST PUSH2 0x2BB1 DUP2 PUSH2 0x2B97 JUMP JUMPDEST DUP3 MSTORE POP POP JUMP JUMPDEST PUSH0 PUSH1 0x20 DUP3 ADD SWAP1 POP PUSH2 0x2BCA PUSH0 DUP4 ADD DUP5 PUSH2 0x2BA8 JUMP JUMPDEST SWAP3 SWAP2 POP POP JUMP JUMPDEST PUSH2 0x2BD9 DUP2 PUSH2 0x2AF6 JUMP JUMPDEST DUP3 MSTORE POP POP JUMP JUMPDEST PUSH0 PUSH1 0x20 DUP3 ADD SWAP1 POP PUSH2 0x2BF2 PUSH0 DUP4 ADD DUP5 PUSH2 0x2BD0 JUMP JUMPDEST SWAP3 SWAP2 POP POP JUMP JUMPDEST PUSH0 DUP2 MLOAD SWAP1 POP SWAP2 SWAP1 POP JUMP JUMPDEST PUSH0 DUP3 DUP3 MSTORE PUSH1 0x20 DUP3 ADD SWAP1 POP SWAP3 SWAP2 POP POP JUMP JUMPDEST DUP3 DUP2 DUP4 MCOPY PUSH0 DUP4 DUP4 ADD MSTORE POP POP POP JUMP JUMPDEST PUSH0 PUSH1 0x1F NOT PUSH1 0x1F DUP4 ADD AND SWAP1 POP SWAP2 SWAP1 POP JUMP JUMPDEST PUSH0 PUSH2 0x2C3A DUP3 PUSH2 0x2BF8 JUMP JUMPDEST PUSH2 0x2C44 DUP2 DUP6 PUSH2 0x2C02 JUMP JUMPDEST SWAP4 POP PUSH2 0x2C54 DUP2 DUP6 PUSH1 0x20 DUP7 ADD PUSH2 0x2C12 JUMP JUMPDEST PUSH2 0x2C5D DUP2 PUSH2 0x2C20 JUMP JUMPDEST DUP5 ADD SWAP2 POP POP SWAP3 SWAP2 POP POP JUMP JUMPDEST PUSH0 PUSH1 0x20 DUP3 ADD SWAP1 POP DUP2 DUP2 SUB PUSH0 DUP4 ADD MSTORE PUSH2 0x2C80 DUP2 DUP5 PUSH2 0x2C30 JUMP JUMPDEST SWAP1 POP SWAP3 SWAP2 POP POP JUMP JUMPDEST PUSH0 PUSH0 REVERT JUMPDEST PUSH0 PUSH0 REVERT JUMPDEST PUSH0 PUSH0 REVERT JUMPDEST PUSH0 PUSH0 DUP4 PUSH1 0x1F DUP5 ADD SLT PUSH2 0x2CA9 JUMPI PUSH2 0x2CA8 PUSH2 0x2C88 JUMP JUMPDEST JUMPDEST DUP3 CALLDATALOAD SWAP1 POP PUSH8 0xFFFFFFFFFFFFFFFF DUP2 GT ISZERO PUSH2 0x2CC6 JUMPI PUSH2 0x2CC5 PUSH2 0x2C8C JUMP JUMPDEST JUMPDEST PUSH1 0x20 DUP4 ADD SWAP2 POP DUP4 PUSH1 0x1 DUP3 MUL DUP4 ADD GT ISZERO PUSH2 0x2CE2 JUMPI PUSH2 0x2CE1 PUSH2 0x2C90 JUMP JUMPDEST JUMPDEST SWAP3 POP SWAP3 SWAP1 POP JUMP JUMPDEST PUSH0 PUSH0 PUSH0 PUSH1 0x40 DUP5 DUP7 SUB SLT ISZERO PUSH2 0x2D00 JUMPI PUSH2 0x2CFF PUSH2 0x2A49 JUMP JUMPDEST JUMPDEST PUSH0 PUSH2 0x2D0D DUP7 DUP3 DUP8 ADD PUSH2 0x2B1D JUMP JUMPDEST SWAP4 POP POP PUSH1 0x20 DUP5 ADD CALLDATALOAD PUSH8 0xFFFFFFFFFFFFFFFF DUP2 GT ISZERO PUSH2 0x2D2E JUMPI PUSH2 0x2D2D PUSH2 0x2A4D JUMP JUMPDEST JUMPDEST PUSH2 0x2D3A DUP7 DUP3 DUP8 ADD PUSH2 0x2C94 JUMP JUMPDEST SWAP3 POP SWAP3 POP POP SWAP3 POP SWAP3 POP SWAP3 JUMP JUMPDEST PUSH0 DUP2 SWAP1 POP SWAP2 SWAP1 POP JUMP JUMPDEST PUSH2 0x2D58 DUP2 PUSH2 0x2D46 JUMP JUMPDEST DUP3 MSTORE POP POP JUMP JUMPDEST PUSH0 PUSH1 0x20 DUP3 ADD SWAP1 POP PUSH2 0x2D71 PUSH0 DUP4 ADD DUP5 PUSH2 0x2D4F JUMP JUMPDEST SWAP3 SWAP2 POP POP JUMP JUMPDEST PUSH0 PUSH1 0x60 DUP3 ADD SWAP1 POP PUSH2 0x2D8A PUSH0 DUP4 ADD DUP7 PUSH2 0x2AAF JUMP JUMPDEST PUSH2 0x2D97 PUSH1 0x20 DUP4 ADD DUP6 PUSH2 0x2AAF JUMP JUMPDEST PUSH2 0x2DA4 PUSH1 0x40 DUP4 ADD DUP5 PUSH2 0x2AAF JUMP JUMPDEST SWAP5 SWAP4 POP POP POP POP JUMP JUMPDEST PUSH0 PUSH2 0x2DB6 DUP3 PUSH2 0x2B86 JUMP JUMPDEST SWAP1 POP SWAP2 SWAP1 POP JUMP JUMPDEST PUSH2 0x2DC6 DUP2 PUSH2 0x2DAC JUMP JUMPDEST DUP3 MSTORE POP POP JUMP JUMPDEST PUSH0 PUSH1 0x20 DUP3 ADD SWAP1 POP PUSH2 0x2DDF PUSH0 DUP4 ADD DUP5 PUSH2 0x2DBD JUMP JUMPDEST SWAP3 SWAP2 POP POP JUMP JUMPDEST PUSH0 DUP2 ISZERO ISZERO SWAP1 POP SWAP2 SWAP1 POP JUMP JUMPDEST PUSH2 0x2DF9 DUP2 PUSH2 0x2DE5 JUMP JUMPDEST DUP3 MSTORE POP POP JUMP JUMPDEST PUSH0 PUSH1 0x20 DUP3 ADD SWAP1 POP PUSH2 0x2E12 PUSH0 DUP4 ADD DUP5 PUSH2 0x2DF0 JUMP JUMPDEST SWAP3 SWAP2 POP POP JUMP JUMPDEST PUSH0 PUSH0 REVERT JUMPDEST PUSH0 PUSH2 0x160 DUP3 DUP5 SUB SLT ISZERO PUSH2 0x2E32 JUMPI PUSH2 0x2E31 PUSH2 0x2E18 JUMP JUMPDEST JUMPDEST DUP2 SWAP1 POP SWAP3 SWAP2 POP POP JUMP JUMPDEST PUSH0 PUSH0 DUP4 PUSH1 0x1F DUP5 ADD SLT PUSH2 0x2E50 JUMPI PUSH2 0x2E4F PUSH2 0x2C88 JUMP JUMPDEST JUMPDEST DUP3 CALLDATALOAD SWAP1 POP PUSH8 0xFFFFFFFFFFFFFFFF DUP2 GT ISZERO PUSH2 0x2E6D JUMPI PUSH2 0x2E6C PUSH2 0x2C8C JUMP JUMPDEST JUMPDEST PUSH1 0x20 DUP4 ADD SWAP2 POP DUP4 PUSH1 0x1 DUP3 MUL DUP4 ADD GT ISZERO PUSH2 0x2E89 JUMPI PUSH2 0x2E88 PUSH2 0x2C90 JUMP JUMPDEST JUMPDEST SWAP3 POP SWAP3 SWAP1 POP JUMP JUMPDEST PUSH0 PUSH0 PUSH0 PUSH0 PUSH0 PUSH2 0x1A0 DUP7 DUP9 SUB SLT ISZERO PUSH2 0x2EAA JUMPI PUSH2 0x2EA9 PUSH2 0x2A49 JUMP JUMPDEST JUMPDEST PUSH0 PUSH2 0x2EB7 DUP9 DUP3 DUP10 ADD PUSH2 0x2E1C JUMP JUMPDEST SWAP6 POP POP PUSH2 0x160 DUP7 ADD CALLDATALOAD PUSH8 0xFFFFFFFFFFFFFFFF DUP2 GT ISZERO PUSH2 0x2ED9 JUMPI PUSH2 0x2ED8 PUSH2 0x2A4D JUMP JUMPDEST JUMPDEST PUSH2 0x2EE5 DUP9 DUP3 DUP10 ADD PUSH2 0x2E3B JUMP JUMPDEST SWAP5 POP SWAP5 POP POP PUSH2 0x180 DUP7 ADD CALLDATALOAD PUSH8 0xFFFFFFFFFFFFFFFF DUP2 GT ISZERO PUSH2 0x2F09 JUMPI PUSH2 0x2F08 PUSH2 0x2A4D JUMP JUMPDEST JUMPDEST PUSH2 0x2F15 DUP9 DUP3 DUP10 ADD PUSH2 0x2E3B JUMP JUMPDEST SWAP3 POP SWAP3 POP POP SWAP3 SWAP6 POP SWAP3 SWAP6 SWAP1 SWAP4 POP JUMP JUMPDEST PUSH0 PUSH0 PUSH0 PUSH1 0x60 DUP5 DUP7 SUB SLT ISZERO PUSH2 0x2F3B JUMPI PUSH2 0x2F3A PUSH2 0x2A49 JUMP JUMPDEST JUMPDEST PUSH0 PUSH2 0x2F48 DUP7 DUP3 DUP8 ADD PUSH2 0x2A70 JUMP JUMPDEST SWAP4 POP POP PUSH1 0x20 PUSH2 0x2F59 DUP7 DUP3 DUP8 ADD PUSH2 0x2A70 JUMP JUMPDEST SWAP3 POP POP PUSH1 0x40 PUSH2 0x2F6A DUP7 DUP3 DUP8 ADD PUSH2 0x2A70 JUMP JUMPDEST SWAP2 POP POP SWAP3 POP SWAP3 POP SWAP3 JUMP JUMPDEST PUSH32 0x4E487B7100000000000000000000000000000000000000000000000000000000 PUSH0 MSTORE PUSH1 0x11 PUSH1 0x4 MSTORE PUSH1 0x24 PUSH0 REVERT JUMPDEST PUSH0 PUSH2 0x2FAB DUP3 PUSH2 0x2A51 JUMP JUMPDEST SWAP2 POP PUSH2 0x2FB6 DUP4 PUSH2 0x2A51 JUMP JUMPDEST SWAP3 POP DUP3 DUP3 MUL PUSH2 0x2FC4 DUP2 PUSH2 0x2A51 JUMP JUMPDEST SWAP2 POP DUP3 DUP3 DIV DUP5 EQ DUP4 ISZERO OR PUSH2 0x2FDB JUMPI PUSH2 0x2FDA PUSH2 0x2F74 JUMP JUMPDEST JUMPDEST POP SWAP3 SWAP2 POP POP JUMP JUMPDEST PUSH32 0x4E487B7100000000000000000000000000000000000000000000000000000000 PUSH0 MSTORE PUSH1 0x12 PUSH1 0x4 MSTORE PUSH1 0x24 PUSH0 REVERT JUMPDEST PUSH0 PUSH2 0x3019 DUP3 PUSH2 0x2A51 JUMP JUMPDEST SWAP2 POP PUSH2 0x3024 DUP4 PUSH2 0x2A51 JUMP JUMPDEST SWAP3 POP DUP3 PUSH2 0x3034 JUMPI PUSH2 0x3033 PUSH2 0x2FE2 JUMP JUMPDEST JUMPDEST DUP3 DUP3 DIV SWAP1 POP SWAP3 SWAP2 POP POP JUMP JUMPDEST PUSH0 PUSH2 0x3049 DUP3 PUSH2 0x2A51 JUMP JUMPDEST SWAP2 POP PUSH2 0x3054 DUP4 PUSH2 0x2A51 JUMP JUMPDEST SWAP3 POP DUP3 DUP3 SUB SWAP1 POP DUP2 DUP2 GT ISZERO PUSH2 0x306C JUMPI PUSH2 0x306B PUSH2 0x2F74 JUMP JUMPDEST JUMPDEST SWAP3 SWAP2 POP POP JUMP JUMPDEST PUSH0 PUSH1 0x40 DUP3 ADD SWAP1 POP PUSH2 0x3085 PUSH0 DUP4 ADD DUP6 PUSH2 0x2BD0 JUMP JUMPDEST PUSH2 0x3092 PUSH1 0x20 DUP4 ADD DUP5 PUSH2 0x2AAF JUMP JUMPDEST SWAP4 SWAP3 POP POP POP JUMP JUMPDEST PUSH2 0x30A2 DUP2 PUSH2 0x2DE5 JUMP JUMPDEST DUP2 EQ PUSH2 0x30AC JUMPI PUSH0 PUSH0 REVERT JUMPDEST POP JUMP JUMPDEST PUSH0 DUP2 MLOAD SWAP1 POP PUSH2 0x30BD DUP2 PUSH2 0x3099 JUMP JUMPDEST SWAP3 SWAP2 POP POP JUMP JUMPDEST PUSH0 PUSH1 0x20 DUP3 DUP5 SUB SLT ISZERO PUSH2 0x30D8 JUMPI PUSH2 0x30D7 PUSH2 0x2A49 JUMP JUMPDEST JUMPDEST PUSH0 PUSH2 0x30E5 DUP5 DUP3 DUP6 ADD PUSH2 0x30AF JUMP JUMPDEST SWAP2 POP POP SWAP3 SWAP2 POP POP JUMP JUMPDEST PUSH0 PUSH1 0x40 DUP3 ADD SWAP1 POP PUSH2 0x3101 PUSH0 DUP4 ADD DUP6 PUSH2 0x2AAF JUMP JUMPDEST PUSH2 0x310E PUSH1 0x20 DUP4 ADD DUP5 PUSH2 0x2AAF JUMP JUMPDEST SWAP4 SWAP3 POP POP POP JUMP JUMPDEST PUSH32 0x4E4F545F44454C454741544543414C4C00000000000000000000000000000000 PUSH0 DUP3 ADD MSTORE POP JUMP JUMPDEST PUSH0 PUSH2 0x3149 PUSH1 0x10 DUP4 PUSH2 0x2C02 JUMP JUMPDEST SWAP2 POP PUSH2 0x3154 DUP3 PUSH2 0x3115 JUMP JUMPDEST PUSH1 0x20 DUP3 ADD SWAP1 POP SWAP2 SWAP1 POP JUMP JUMPDEST PUSH0 PUSH1 0x20 DUP3 ADD SWAP1 POP DUP2 DUP2 SUB PUSH0 DUP4 ADD MSTORE PUSH2 0x3176 DUP2 PUSH2 0x313D JUMP JUMPDEST SWAP1 POP SWAP2 SWAP1 POP JUMP JUMPDEST PUSH32 0x494E4143544956455F50524F5859000000000000000000000000000000000000 PUSH0 DUP3 ADD MSTORE POP JUMP JUMPDEST PUSH0 PUSH2 0x31B1 PUSH1 0xE DUP4 PUSH2 0x2C02 JUMP JUMPDEST SWAP2 POP PUSH2 0x31BC DUP3 PUSH2 0x317D JUMP JUMPDEST PUSH1 0x20 DUP3 ADD SWAP1 POP SWAP2 SWAP1 POP JUMP JUMPDEST PUSH0 PUSH1 0x20 DUP3 ADD SWAP1 POP DUP2 DUP2 SUB PUSH0 DUP4 ADD MSTORE PUSH2 0x31DE DUP2 PUSH2 0x31A5 JUMP JUMPDEST SWAP1 POP SWAP2 SWAP1 POP JUMP JUMPDEST PUSH0 PUSH1 0x60 DUP3 ADD SWAP1 POP PUSH2 0x31F8 PUSH0 DUP4 ADD DUP7 PUSH2 0x2BD0 JUMP JUMPDEST PUSH2 0x3205 PUSH1 0x20 DUP4 ADD DUP6 PUSH2 0x2BD0 JUMP JUMPDEST PUSH2 0x3212 PUSH1 0x40 DUP4 ADD DUP5 PUSH2 0x2AAF JUMP JUMPDEST SWAP5 SWAP4 POP POP POP POP JUMP JUMPDEST PUSH0 PUSH2 0x3224 DUP3 PUSH2 0x2A51 JUMP JUMPDEST SWAP2 POP PUSH2 0x322F DUP4 PUSH2 0x2A51 JUMP JUMPDEST SWAP3 POP DUP3 DUP3 ADD SWAP1 POP DUP1 DUP3 GT ISZERO PUSH2 0x3247 JUMPI PUSH2 0x3246 PUSH2 0x2F74 JUMP JUMPDEST JUMPDEST SWAP3 SWAP2 POP POP JUMP JUMPDEST PUSH32 0x4E487B7100000000000000000000000000000000000000000000000000000000 PUSH0 MSTORE PUSH1 0x22 PUSH1 0x4 MSTORE PUSH1 0x24 PUSH0 REVERT JUMPDEST PUSH0 PUSH1 0x2 DUP3 DIV SWAP1 POP PUSH1 0x1 DUP3 AND DUP1 PUSH2 0x3291 JUMPI PUSH1 0x7F DUP3 AND SWAP2 POP JUMPDEST PUSH1 0x20 DUP3 LT DUP2 SUB PUSH2 0x32A4 JUMPI PUSH2 0x32A3 PUSH2 0x324D JUMP JUMPDEST JUMPDEST POP SWAP2 SWAP1 POP JUMP JUMPDEST PUSH32 0x4F4E4C595F494D504C454D454E544154494F4E00000000000000000000000000 PUSH0 DUP3 ADD MSTORE POP JUMP JUMPDEST PUSH0 PUSH2 0x32DE PUSH1 0x13 DUP4 PUSH2 0x2C02 JUMP JUMPDEST SWAP2 POP PUSH2 0x32E9 DUP3 PUSH2 0x32AA JUMP JUMPDEST PUSH1 0x20 DUP3 ADD SWAP1 POP SWAP2 SWAP1 POP JUMP JUMPDEST PUSH0 PUSH1 0x20 DUP3 ADD SWAP1 POP DUP2 DUP2 SUB PUSH0 DUP4 ADD MSTORE PUSH2 0x330B DUP2 PUSH2 0x32D2 JUMP JUMPDEST SWAP1 POP SWAP2 SWAP1 POP JUMP JUMPDEST PUSH0 DUP2 MLOAD SWAP1 POP PUSH2 0x3320 DUP2 PUSH2 0x2A5A JUMP JUMPDEST SWAP3 SWAP2 POP POP JUMP JUMPDEST PUSH0 PUSH1 0x20 DUP3 DUP5 SUB SLT ISZERO PUSH2 0x333B JUMPI PUSH2 0x333A PUSH2 0x2A49 JUMP JUMPDEST JUMPDEST PUSH0 PUSH2 0x3348 DUP5 DUP3 DUP6 ADD PUSH2 0x3312 JUMP JUMPDEST SWAP2 POP POP SWAP3 SWAP2 POP POP JUMP JUMPDEST PUSH32 0x414C52454144595F494E495449414C495A454400000000000000000000000000 PUSH0 DUP3 ADD MSTORE POP JUMP JUMPDEST PUSH0 PUSH2 0x3385 PUSH1 0x13 DUP4 PUSH2 0x2C02 JUMP JUMPDEST SWAP2 POP PUSH2 0x3390 DUP3 PUSH2 0x3351 JUMP JUMPDEST PUSH1 0x20 DUP3 ADD SWAP1 POP SWAP2 SWAP1 POP JUMP JUMPDEST PUSH0 PUSH1 0x20 DUP3 ADD SWAP1 POP DUP2 DUP2 SUB PUSH0 DUP4 ADD MSTORE PUSH2 0x33B2 DUP2 PUSH2 0x3379 JUMP JUMPDEST SWAP1 POP SWAP2 SWAP1 POP JUMP JUMPDEST PUSH0 DUP3 SWAP1 POP SWAP3 SWAP2 POP POP JUMP JUMPDEST PUSH32 0x4E487B7100000000000000000000000000000000000000000000000000000000 PUSH0 MSTORE PUSH1 0x41 PUSH1 0x4 MSTORE PUSH1 0x24 PUSH0 REVERT JUMPDEST PUSH0 DUP2 SWAP1 POP DUP2 PUSH0 MSTORE PUSH1 0x20 PUSH0 KECCAK256 SWAP1 POP SWAP2 SWAP1 POP JUMP JUMPDEST PUSH0 PUSH1 0x20 PUSH1 0x1F DUP4 ADD DIV SWAP1 POP SWAP2 SWAP1 POP JUMP JUMPDEST PUSH0 DUP3 DUP3 SHL SWAP1 POP SWAP3 SWAP2 POP POP JUMP JUMPDEST PUSH0 PUSH1 0x8 DUP4 MUL PUSH2 0x344C PUSH32 0xFFFFFFFFFFFFFFFFFFFFFFFFFFFFFFFFFFFFFFFFFFFFFFFFFFFFFFFFFFFFFFFF DUP3 PUSH2 0x3411 JUMP JUMPDEST PUSH2 0x3456 DUP7 DUP4 PUSH2 0x3411 JUMP JUMPDEST SWAP6 POP DUP1 NOT DUP5 AND SWAP4 POP DUP1 DUP7 AND DUP5 OR SWAP3 POP POP POP SWAP4 SWAP3 POP POP POP JUMP JUMPDEST PUSH0 PUSH2 0x3488 PUSH2 0x3483 PUSH2 0x347E DUP5 PUSH2 0x2A51 JUMP JUMPDEST PUSH2 0x2B5C JUMP JUMPDEST PUSH2 0x2A51 JUMP JUMPDEST SWAP1 POP SWAP2 SWAP1 POP JUMP JUMPDEST PUSH0 DUP2 SWAP1 POP SWAP2 SWAP1 POP JUMP JUMPDEST PUSH2 0x34A1 DUP4 PUSH2 0x346E JUMP JUMPDEST PUSH2 0x34B5 PUSH2 0x34AD DUP3 PUSH2 0x348F JUMP JUMPDEST DUP5 DUP5 SLOAD PUSH2 0x341D JUMP JUMPDEST DUP3 SSTORE POP POP POP POP JUMP JUMPDEST PUSH0 PUSH0 SWAP1 POP SWAP1 JUMP JUMPDEST PUSH2 0x34CC PUSH2 0x34BD JUMP JUMPDEST PUSH2 0x34D7 DUP2 DUP5 DUP5 PUSH2 0x3498 JUMP JUMPDEST POP POP POP JUMP JUMPDEST JUMPDEST DUP2 DUP2 LT ISZERO PUSH2 0x34FA JUMPI PUSH2 0x34EF PUSH0 DUP3 PUSH2 0x34C4 JUMP JUMPDEST PUSH1 0x1 DUP2 ADD SWAP1 POP PUSH2 0x34DD JUMP JUMPDEST POP POP JUMP JUMPDEST PUSH1 0x1F DUP3 GT ISZERO PUSH2 0x353F JUMPI PUSH2 0x3510 DUP2 PUSH2 0x33F0 JUMP JUMPDEST PUSH2 0x3519 DUP5 PUSH2 0x3402 JUMP JUMPDEST DUP2 ADD PUSH1 0x20 DUP6 LT ISZERO PUSH2 0x3528 JUMPI DUP2 SWAP1 POP JUMPDEST PUSH2 0x353C PUSH2 0x3534 DUP6 PUSH2 0x3402 JUMP JUMPDEST DUP4 ADD DUP3 PUSH2 0x34DC JUMP JUMPDEST POP POP JUMPDEST POP POP POP JUMP JUMPDEST PUSH0 DUP3 DUP3 SHR SWAP1 POP SWAP3 SWAP2 POP POP JUMP JUMPDEST PUSH0 PUSH2 0x355F PUSH0 NOT DUP5 PUSH1 0x8 MUL PUSH2 0x3544 JUMP JUMPDEST NOT DUP1 DUP4 AND SWAP2 POP POP SWAP3 SWAP2 POP POP JUMP JUMPDEST PUSH0 PUSH2 0x3577 DUP4 DUP4 PUSH2 0x3550 JUMP JUMPDEST SWAP2 POP DUP3 PUSH1 0x2 MUL DUP3 OR SWAP1 POP SWAP3 SWAP2 POP POP JUMP JUMPDEST PUSH2 0x3591 DUP4 DUP4 PUSH2 0x33B9 JUMP JUMPDEST PUSH8 0xFFFFFFFFFFFFFFFF DUP2 GT ISZERO PUSH2 0x35AA JUMPI PUSH2 0x35A9 PUSH2 0x33C3 JUMP JUMPDEST JUMPDEST PUSH2 0x35B4 DUP3 SLOAD PUSH2 0x327A JUMP JUMPDEST PUSH2 0x35BF DUP3 DUP3 DUP6 PUSH2 0x34FE JUMP JUMPDEST PUSH0 PUSH1 0x1F DUP4 GT PUSH1 0x1 DUP2 EQ PUSH2 0x35EC JUMPI PUSH0 DUP5 ISZERO PUSH2 0x35DA JUMPI DUP3 DUP8 ADD CALLDATALOAD SWAP1 POP JUMPDEST PUSH2 0x35E4 DUP6 DUP3 PUSH2 0x356C JUMP JUMPDEST DUP7 SSTORE POP PUSH2 0x364B JUMP JUMPDEST PUSH1 0x1F NOT DUP5 AND PUSH2 0x35FA DUP7 PUSH2 0x33F0 JUMP JUMPDEST PUSH0 JUMPDEST DUP3 DUP2 LT ISZERO PUSH2 0x3621 JUMPI DUP5 DUP10 ADD CALLDATALOAD DUP3 SSTORE PUSH1 0x1 DUP3 ADD SWAP2 POP PUSH1 0x20 DUP6 ADD SWAP5 POP PUSH1 0x20 DUP2 ADD SWAP1 POP PUSH2 0x35FC JUMP JUMPDEST DUP7 DUP4 LT ISZERO PUSH2 0x363E JUMPI DUP5 DUP10 ADD CALLDATALOAD PUSH2 0x363A PUSH1 0x1F DUP10 AND DUP3 PUSH2 0x3550 JUMP JUMPDEST DUP4 SSTORE POP JUMPDEST PUSH1 0x1 PUSH1 0x2 DUP9 MUL ADD DUP9 SSTORE POP POP POP JUMPDEST POP POP POP POP POP POP POP JUMP JUMPDEST PUSH32 0x5A45524F5F494D504C0000000000000000000000000000000000000000000000 PUSH0 DUP3 ADD MSTORE POP JUMP JUMPDEST PUSH0 PUSH2 0x3688 PUSH1 0x9 DUP4 PUSH2 0x2C02 JUMP JUMPDEST SWAP2 POP PUSH2 0x3693 DUP3 PUSH2 0x3654 JUMP JUMPDEST PUSH1 0x20 DUP3 ADD SWAP1 POP SWAP2 SWAP1 POP JUMP JUMPDEST PUSH0 PUSH1 0x20 DUP3 ADD SWAP1 POP DUP2 DUP2 SUB PUSH0 DUP4 ADD MSTORE PUSH2 0x36B5 DUP2 PUSH2 0x367C JUMP JUMPDEST SWAP1 POP SWAP2 SWAP1 POP JUMP JUMPDEST PUSH0 DUP2 MLOAD SWAP1 POP SWAP2 SWAP1 POP JUMP JUMPDEST PUSH0 DUP2 SWAP1 POP SWAP3 SWAP2 POP POP JUMP JUMPDEST PUSH0 PUSH2 0x36DA DUP3 PUSH2 0x36BC JUMP JUMPDEST PUSH2 0x36E4 DUP2 DUP6 PUSH2 0x36C6 JUMP JUMPDEST SWAP4 POP PUSH2 0x36F4 DUP2 DUP6 PUSH1 0x20 DUP7 ADD PUSH2 0x2C12 JUMP JUMPDEST DUP1 DUP5 ADD SWAP2 POP POP SWAP3 SWAP2 POP POP JUMP JUMPDEST PUSH0 PUSH2 0x370B DUP3 DUP5 PUSH2 0x36D0 JUMP JUMPDEST SWAP2 POP DUP2 SWAP1 POP SWAP3 SWAP2 POP POP JUMP INVALID LOG2 PUSH5 0x6970667358 0x22 SLT KECCAK256 SELFDESTRUCT EXP MULMOD 0xD9 DUP5 0xC0 NUMBER CALLDATASIZE 0xCD 0xED CALL PC 0x4D JUMP DELEGATECALL SGT JUMPI 0xCC 0xAE SWAP2 PUSH14 0xFD7D43B208C20407CE029D64736F PUSH13 0x634300081E0033000000000000 "
				},
				"gasEstimates": {
					"creation": {
						"codeDepositCost": "2831200",
						"executionCost": "infinite",
						"totalCost": "infinite"
					},
					"external": {
						"INDEX_SCALE()": "371",
						"_isHealthy(address)": "infinite",
						"_sharesForBorrowAmount(uint256)": "infinite",
						"accrueInterest()": "infinite",
						"assetManage()": "infinite",
						"availableLiquidity()": "infinite",
						"blocksPerYear()": "2514",
						"borrow(uint256)": "infinite",
						"borrowIndex()": "2558",
						"collateralToken()": "infinite",
						"currentLltvBps(address)": "infinite",
						"debtOf(address)": "infinite",
						"healthFactor(address)": "infinite",
						"initialize((address,address,address,address,address,address,address,uint256,uint256,uint256,uint256),string,string)": "infinite",
						"interestRate()": "2537",
						"lastAccrueBlock()": "2493",
						"liquidate(address)": "infinite",
						"liquidationBonusBps()": "2560",
						"liquidator()": "2598",
						"lltvBps()": "2492",
						"loanToken()": "infinite",
						"onVaultDeposit(uint256)": "2704",
						"onVaultWithdraw(uint256)": "infinite",
						"oracle()": "infinite",
						"owner()": "2603",
						"ownershipTransfer(address)": "27084",
						"positions(address)": "infinite",
						"protocolFeeBps()": "2537",
						"protocolReserves()": "2513",
						"proxiableUUID()": "infinite",
						"repay(uint256)": "infinite",
						"setLiquidator(address)": "27003",
						"setRiskParams(uint256,uint256,uint256)": "infinite",
						"setTreasury(address)": "27044",
						"shareName()": "infinite",
						"supplyCollateral(uint256)": "infinite",
						"title()": "infinite",
						"totalBorrowShares()": "2538",
						"totalDebt()": "infinite",
						"treasury()": "2641",
						"upgradeTo(address)": "infinite",
						"upgradeToAndCall(address,bytes)": "infinite",
						"vault()": "2640",
						"withdrawCollateral(uint256)": "infinite"
					},
					"internal": {
						"_authorizeUpgrade(address)": "2230",
						"_projectedBorrowIndex()": "infinite"
					}
				},
				"methodIdentifiers": {
					"INDEX_SCALE()": "27776ab5",
					"_isHealthy(address)": "a03b3c95",
					"_sharesForBorrowAmount(uint256)": "00249b44",
					"accrueInterest()": "a6afed95",
					"assetManage()": "c82f6d2f",
					"availableLiquidity()": "74375359",
					"blocksPerYear()": "a385fb96",
					"borrow(uint256)": "c5ebeaec",
					"borrowIndex()": "aa5af0fd",
					"collateralToken()": "b2016bd4",
					"currentLltvBps(address)": "79f057a2",
					"debtOf(address)": "d283e75f",
					"healthFactor(address)": "6ad9f9df",
					"initialize((address,address,address,address,address,address,address,uint256,uint256,uint256,uint256),string,string)": "b1c0be34",
					"interestRate()": "7c3a00fd",
					"lastAccrueBlock()": "29962904",
					"liquidate(address)": "2f865568",
					"liquidationBonusBps()": "19970d8e",
					"liquidator()": "4046ebae",
					"lltvBps()": "b3604c96",
					"loanToken()": "06d37817",
					"onVaultDeposit(uint256)": "4b92917a",
					"onVaultWithdraw(uint256)": "3e3722b6",
					"oracle()": "7dc0d1d0",
					"owner()": "8da5cb5b",
					"ownershipTransfer(address)": "d3a417a2",
					"positions(address)": "55f57510",
					"protocolFeeBps()": "35659fb8",
					"protocolReserves()": "d681a449",
					"proxiableUUID()": "52d1902d",
					"repay(uint256)": "371fd8e6",
					"setLiquidator(address)": "01c76f81",
					"setRiskParams(uint256,uint256,uint256)": "ced65b01",
					"setTreasury(address)": "f0f44260",
					"shareName()": "76e9790a",
					"supplyCollateral(uint256)": "367febea",
					"title()": "4a79d50c",
					"totalBorrowShares()": "136cf1f7",
					"totalDebt()": "fc7b9c18",
					"treasury()": "61d027b3",
					"upgradeTo(address)": "3659cfe6",
					"upgradeToAndCall(address,bytes)": "4f1ef286",
					"vault()": "fbfa77cf",
					"withdrawCollateral(uint256)": "6112fe2e"
				}
			},
			"storageLayout": {
				"storage": [
					{
						"astId": 1449,
						"contract": "protocol/Market.sol:Market",
						"label": "_initialized",
						"offset": 0,
						"slot": "0",
						"type": "t_bool"
					},
					{
						"astId": 1452,
						"contract": "protocol/Market.sol:Market",
						"label": "_initializing",
						"offset": 1,
						"slot": "0",
						"type": "t_bool"
					},
					{
						"astId": 7,
						"contract": "protocol/Market.sol:Market",
						"label": "owner",
						"offset": 2,
						"slot": "0",
						"type": "t_address"
					},
					{
						"astId": 226,
						"contract": "protocol/Market.sol:Market",
						"label": "positions",
						"offset": 0,
						"slot": "1",
						"type": "t_mapping(t_address,t_struct(Position)198_storage)"
					},
					{
						"astId": 266,
						"contract": "protocol/Market.sol:Market",
						"label": "loanToken",
						"offset": 0,
						"slot": "2",
						"type": "t_contract(IERC20)137"
					},
					{
						"astId": 269,
						"contract": "protocol/Market.sol:Market",
						"label": "collateralToken",
						"offset": 0,
						"slot": "3",
						"type": "t_contract(IERC20)137"
					},
					{
						"astId": 272,
						"contract": "protocol/Market.sol:Market",
						"label": "oracle",
						"offset": 0,
						"slot": "4",
						"type": "t_contract(IOracle)170"
					},
					{
						"astId": 274,
						"contract": "protocol/Market.sol:Market",
						"label": "title",
						"offset": 0,
						"slot": "5",
						"type": "t_string_storage"
					},
					{
						"astId": 276,
						"contract": "protocol/Market.sol:Market",
						"label": "shareName",
						"offset": 0,
						"slot": "6",
						"type": "t_string_storage"
					},
					{
						"astId": 278,
						"contract": "protocol/Market.sol:Market",
						"label": "liquidator",
						"offset": 0,
						"slot": "7",
						"type": "t_address"
					},
					{
						"astId": 280,
						"contract": "protocol/Market.sol:Market",
						"label": "vault",
						"offset": 0,
						"slot": "8",
						"type": "t_address"
					},
					{
						"astId": 282,
						"contract": "protocol/Market.sol:Market",
						"label": "treasury",
						"offset": 0,
						"slot": "9",
						"type": "t_address"
					},
					{
						"astId": 284,
						"contract": "protocol/Market.sol:Market",
						"label": "lltvBps",
						"offset": 0,
						"slot": "10",
						"type": "t_uint256"
					},
					{
						"astId": 286,
						"contract": "protocol/Market.sol:Market",
						"label": "interestRate",
						"offset": 0,
						"slot": "11",
						"type": "t_uint256"
					},
					{
						"astId": 288,
						"contract": "protocol/Market.sol:Market",
						"label": "blocksPerYear",
						"offset": 0,
						"slot": "12",
						"type": "t_uint256"
					},
					{
						"astId": 290,
						"contract": "protocol/Market.sol:Market",
						"label": "liquidationBonusBps",
						"offset": 0,
						"slot": "13",
						"type": "t_uint256"
					},
					{
						"astId": 292,
						"contract": "protocol/Market.sol:Market",
						"label": "lastAccrueBlock",
						"offset": 0,
						"slot": "14",
						"type": "t_uint256"
					},
					{
						"astId": 294,
						"contract": "protocol/Market.sol:Market",
						"label": "borrowIndex",
						"offset": 0,
						"slot": "15",
						"type": "t_uint256"
					},
					{
						"astId": 296,
						"contract": "protocol/Market.sol:Market",
						"label": "protocolFeeBps",
						"offset": 0,
						"slot": "16",
						"type": "t_uint256"
					},
					{
						"astId": 298,
						"contract": "protocol/Market.sol:Market",
						"label": "protocolReserves",
						"offset": 0,
						"slot": "17",
						"type": "t_uint256"
					},
					{
						"astId": 300,
						"contract": "protocol/Market.sol:Market",
						"label": "totalBorrowShares",
						"offset": 0,
						"slot": "18",
						"type": "t_uint256"
					}
				],
				"types": {
					"t_address": {
						"encoding": "inplace",
						"label": "address",
						"numberOfBytes": "20"
					},
					"t_bool": {
						"encoding": "inplace",
						"label": "bool",
						"numberOfBytes": "1"
					},
					"t_contract(IERC20)137": {
						"encoding": "inplace",
						"label": "contract IERC20",
						"numberOfBytes": "20"
					},
					"t_contract(IOracle)170": {
						"encoding": "inplace",
						"label": "contract IOracle",
						"numberOfBytes": "20"
					},
					"t_mapping(t_address,t_struct(Position)198_storage)": {
						"encoding": "mapping",
						"key": "t_address",
						"label": "mapping(address => struct Market.Position)",
						"numberOfBytes": "32",
						"value": "t_struct(Position)198_storage"
					},
					"t_string_storage": {
						"encoding": "bytes",
						"label": "string",
						"numberOfBytes": "32"
					},
					"t_struct(Position)198_storage": {
						"encoding": "inplace",
						"label": "struct Market.Position",
						"members": [
							{
								"astId": 193,
								"contract": "protocol/Market.sol:Market",
								"label": "collateralShares",
								"offset": 0,
								"slot": "0",
								"type": "t_uint256"
							},
							{
								"astId": 195,
								"contract": "protocol/Market.sol:Market",
								"label": "borrowShares",
								"offset": 0,
								"slot": "1",
								"type": "t_uint256"
							},
							{
								"astId": 197,
								"contract": "protocol/Market.sol:Market",
								"label": "principal",
								"offset": 0,
								"slot": "2",
								"type": "t_uint256"
							}
						],
						"numberOfBytes": "96"
					},
					"t_uint256": {
						"encoding": "inplace",
						"label": "uint256",
						"numberOfBytes": "32"
					}
				}
			},
			"userdoc": {
				"kind": "user",
				"methods": {
					"proxiableUUID()": {
						"notice": "UUID UUPS-слота по EIP-1822."
					},
					"upgradeTo(address)": {
						"notice": "Обновить implementation."
					},
					"upgradeToAndCall(address,bytes)": {
						"notice": "Обновить implementation и сразу вызвать migration-хук."
					}
				},
				"version": 1
			}
		}
	}
}