{
	"protocol/Market.sol": {
		"Market": {
			"abi": [
				{
					"anonymous": false,
					"inputs": [
						{
							"indexed": true,
							"internalType": "address",
							"name": "borrower",
							"type": "address"
						},
						{
							"indexed": true,
							"internalType": "address",
							"name": "liquidator",
							"type": "address"
						},
						{
							"indexed": false,
							"internalType": "uint256",
							"name": "debt",
							"type": "uint256"
						},
						{
							"indexed": false,
							"internalType": "uint256",
							"name": "rewardCollateral",
							"type": "uint256"
						}
					],
					"name": "Liquidated",
					"type": "event"
				},
				{
					"inputs": [],
					"name": "INDEX_SCALE",
					"outputs": [
						{
							"internalType": "uint256",
							"name": "",
							"type": "uint256"
						}
					],
					"stateMutability": "view",
					"type": "function"
				},
				{
					"inputs": [
						{
							"internalType": "address",
							"name": "borrower",
							"type": "address"
						}
					],
					"name": "_isHealthy",
					"outputs": [
						{
							"internalType": "bool",
							"name": "",
							"type": "bool"
						}
					],
					"stateMutability": "view",
					"type": "function"
				},
				{
					"inputs": [
						{
							"internalType": "uint256",
							"name": "amount",
							"type": "uint256"
						}
					],
					"name": "_sharesForBorrowAmount",
					"outputs": [
						{
							"internalType": "uint256",
							"name": "shares",
							"type": "uint256"
						}
					],
					"stateMutability": "view",
					"type": "function"
				},
				{
					"inputs": [],
					"name": "accrueInterest",
					"outputs": [],
					"stateMutability": "nonpayable",
					"type": "function"
				},
				{
					"inputs": [],
					"name": "assetManage",
					"outputs": [
						{
							"internalType": "uint256",
							"name": "",
							"type": "uint256"
						}
					],
					"stateMutability": "view",
					"type": "function"
				},
				{
					"inputs": [],
					"name": "availableLiquidity",
					"outputs": [
						{
							"internalType": "uint256",
							"name": "",
							"type": "uint256"
						}
					],
					"stateMutability": "view",
					"type": "function"
				},
				{
					"inputs": [],
					"name": "blocksPerYear",
					"outputs": [
						{
							"internalType": "uint256",
							"name": "",
							"type": "uint256"
						}
					],
					"stateMutability": "view",
					"type": "function"
				},
				{
					"inputs": [
						{
							"internalType": "uint256",
							"name": "amount",
							"type": "uint256"
						}
					],
					"name": "borrow",
					"outputs": [],
					"stateMutability": "nonpayable",
					"type": "function"
				},
				{
					"inputs": [],
					"name": "borrowIndex",
					"outputs": [
						{
							"internalType": "uint256",
							"name": "",
							"type": "uint256"
						}
					],
					"stateMutability": "view",
					"type": "function"
				},
				{
					"inputs": [
						{
							"internalType": "uint256",
							"name": "",
							"type": "uint256"
						}
					],
					"name": "borrowers",
					"outputs": [
						{
							"internalType": "address",
							"name": "",
							"type": "address"
						}
					],
					"stateMutability": "view",
					"type": "function"
				},
				{
					"inputs": [],
					"name": "collateralToken",
					"outputs": [
						{
							"internalType": "contract IERC20",
							"name": "",
							"type": "address"
						}
					],
					"stateMutability": "view",
					"type": "function"
				},
				{
					"inputs": [
						{
							"internalType": "address",
							"name": "borrower",
							"type": "address"
						}
					],
					"name": "currentLltvBps",
					"outputs": [
						{
							"internalType": "uint256",
							"name": "",
							"type": "uint256"
						}
					],
					"stateMutability": "view",
					"type": "function"
				},
				{
					"inputs": [
						{
							"internalType": "address",
							"name": "borrower",
							"type": "address"
						}
					],
					"name": "debtOf",
					"outputs": [
						{
							"internalType": "uint256",
							"name": "",
							"type": "uint256"
						}
					],
					"stateMutability": "view",
					"type": "function"
				},
				{
					"inputs": [
						{
							"internalType": "address",
							"name": "borrower",
							"type": "address"
						}
					],
					"name": "healthFactor",
					"outputs": [
						{
							"internalType": "uint256",
							"name": "",
							"type": "uint256"
						}
					],
					"stateMutability": "view",
					"type": "function"
				},
				{
					"inputs": [
						{
							"components": [
								{
									"internalType": "address",
									"name": "owner",
									"type": "address"
								},
								{
									"internalType": "address",
									"name": "liquidator",
									"type": "address"
								},
								{
									"internalType": "address",
									"name": "treasury",
									"type": "address"
								},
								{
									"internalType": "address",
									"name": "loanToken",
									"type": "address"
								},
								{
									"internalType": "address",
									"name": "collateralToken",
									"type": "address"
								},
								{
									"internalType": "address",
									"name": "oracle",
									"type": "address"
								},
								{
									"internalType": "address",
									"name": "vault",
									"type": "address"
								},
								{
									"internalType": "uint256",
									"name": "lltvBps",
									"type": "uint256"
								},
								{
									"internalType": "uint256",
									"name": "interestRate",
									"type": "uint256"
								},
								{
									"internalType": "uint256",
									"name": "blocksPerYear",
									"type": "uint256"
								},
								{
									"internalType": "uint256",
									"name": "liquidationBonusBps",
									"type": "uint256"
								}
							],
							"internalType": "struct Market.InitParams",
							"name": "p",
							"type": "tuple"
						},
						{
							"internalType": "string",
							"name": "title_",
							"type": "string"
						},
						{
							"internalType": "string",
							"name": "shareName_",
							"type": "string"
						}
					],
					"name": "initialize",
					"outputs": [],
					"stateMutability": "nonpayable",
					"type": "function"
				},
				{
					"inputs": [],
					"name": "interestRate",
					"outputs": [
						{
							"internalType": "uint256",
							"name": "",
							"type": "uint256"
						}
					],
					"stateMutability": "view",
					"type": "function"
				},
				{
					"inputs": [],
					"name": "lastAccrueBlock",
					"outputs": [
						{
							"internalType": "uint256",
							"name": "",
							"type": "uint256"
						}
					],
					"stateMutability": "view",
					"type": "function"
				},
				{
					"inputs": [
						{
							"internalType": "address",
							"name": "borrower",
							"type": "address"
						}
					],
					"name": "liquidate",
					"outputs": [],
					"stateMutability": "nonpayable",
					"type": "function"
				},
				{
					"inputs": [],
					"name": "liquidationBonusBps",
					"outputs": [
						{
							"internalType": "uint256",
							"name": "",
							"type": "uint256"
						}
					],
					"stateMutability": "view",
					"type": "function"
				},
				{
					"inputs": [],
					"name": "liquidator",
					"outputs": [
						{
							"internalType": "address",
							"name": "",
							"type": "address"
						}
					],
					"stateMutability": "view",
					"type": "function"
				},
				{
					"inputs": [],
					"name": "lltvBps",
					"outputs": [
						{
							"internalType": "uint256",
							"name": "",
							"type": "uint256"
						}
					],
					"stateMutability": "view",
					"type": "function"
				},
				{
					"inputs": [],
					"name": "loanToken",
					"outputs": [
						{
							"internalType": "contract IERC20",
							"name": "",
							"type": "address"
						}
					],
					"stateMutability": "view",
					"type": "function"
				},
				{
					"inputs": [
						{
							"internalType": "uint256",
							"name": "amount",
							"type": "uint256"
						}
					],
					"name": "onVaultDeposit",
					"outputs": [],
					"stateMutability": "nonpayable",
					"type": "function"
				},
				{
					"inputs": [
						{
							"internalType": "uint256",
							"name": "amount",
							"type": "uint256"
						}
					],
					"name": "onVaultWithdraw",
					"outputs": [],
					"stateMutability": "nonpayable",
					"type": "function"
				},
				{
					"inputs": [],
					"name": "oracle",
					"outputs": [
						{
							"internalType": "contract IOracle",
							"name": "",
							"type": "address"
						}
					],
					"stateMutability": "view",
					"type": "function"
				},
				{
					"inputs": [],
					"name": "owner",
					"outputs": [
						{
							"internalType": "address",
							"name": "",
							"type": "address"
						}
					],
					"stateMutability": "view",
					"type": "function"
				},
				{
					"inputs": [
						{
							"internalType": "address",
							"name": "newOwner",
							"type": "address"
						}
					],
					"name": "ownershipTransfer",
					"outputs": [],
					"stateMutability": "nonpayable",
					"type": "function"
				},
				{
					"inputs": [
						{
							"internalType": "address",
							"name": "",
							"type": "address"
						}
					],
					"name": "positions",
					"outputs": [
						{
							"internalType": "uint256",
							"name": "collateralShares",
							"type": "uint256"
						},
						{
							"internalType": "uint256",
							"name": "borrowShares",
							"type": "uint256"
						},
						{
							"internalType": "uint256",
							"name": "principal",
							"type": "uint256"
						}
					],
					"stateMutability": "view",
					"type": "function"
				},
				{
					"inputs": [],
					"name": "protocolFeeBps",
					"outputs": [
						{
							"internalType": "uint256",
							"name": "",
							"type": "uint256"
						}
					],
					"stateMutability": "view",
					"type": "function"
				},
				{
					"inputs": [],
					"name": "protocolReserves",
					"outputs": [
						{
							"internalType": "uint256",
							"name": "",
							"type": "uint256"
						}
					],
					"stateMutability": "view",
					"type": "function"
				},
				{
					"inputs": [],
					"name": "proxiableUUID",
					"outputs": [
						{
							"internalType": "bytes32",
							"name": "",
							"type": "bytes32"
						}
					],
					"stateMutability": "view",
					"type": "function"
				},
				{
					"inputs": [
						{
							"internalType": "uint256",
							"name": "amount",
							"type": "uint256"
						}
					],
					"name": "repay",
					"outputs": [
						{
							"internalType": "uint256",
							"name": "remainingDebt",
							"type": "uint256"
						}
					],
					"stateMutability": "nonpayable",
					"type": "function"
				},
				{
					"inputs": [
						{
							"internalType": "address",
							"name": "newLiquidator",
							"type": "address"
						}
					],
					"name": "setLiquidator",
					"outputs": [],
					"stateMutability": "nonpayable",
					"type": "function"
				},
				{
					"inputs": [
						{
							"internalType": "uint256",
							"name": "newLltvBps",
							"type": "uint256"
						},
						{
							"internalType": "uint256",
							"name": "newInterestRate",
							"type": "uint256"
						},
						{
							"internalType": "uint256",
							"name": "newLiquidationBonusBps",
							"type": "uint256"
						}
					],
					"name": "setRiskParams",
					"outputs": [],
					"stateMutability": "nonpayable",
					"type": "function"
				},
				{
					"inputs": [
						{
							"internalType": "address",
							"name": "newTreasury",
							"type": "address"
						}
					],
					"name": "setTreasury",
					"outputs": [],
					"stateMutability": "nonpayable",
					"type": "function"
				},
				{
					"inputs": [],
					"name": "shareName",
					"outputs": [
						{
							"internalType": "string",
							"name": "",
							"type": "string"
						}
					],
					"stateMutability": "view",
					"type": "function"
				},
				{
					"inputs": [
						{
							"internalType": "uint256",
							"name": "amount",
							"type": "uint256"
						}
					],
					"name": "supplyCollateral",
					"outputs": [],
					"stateMutability": "nonpayable",
					"type": "function"
				},
				{
					"inputs": [],
					"name": "title",
					"outputs": [
						{
							"internalType": "string",
							"name": "",
							"type": "string"
						}
					],
					"stateMutability": "view",
					"type": "function"
				},
				{
					"inputs": [],
					"name": "totalBorrowShares",
					"outputs": [
						{
							"internalType": "uint256",
							"name": "",
							"type": "uint256"
						}
					],
					"stateMutability": "view",
					"type": "function"
				},
				{
					"inputs": [],
					"name": "totalDebt",
					"outputs": [
						{
							"internalType": "uint256",
							"name": "",
							"type": "uint256"
						}
					],
					"stateMutability": "view",
					"type": "function"
				},
				{
					"inputs": [],
					"name": "treasury",
					"outputs": [
						{
							"internalType": "address",
							"name": "",
							"type": "address"
						}
					],
					"stateMutability": "view",
					"type": "function"
				},
				{
					"inputs": [
						{
							"internalType": "address",
							"name": "newImplementation",
							"type": "address"
						}
					],
					"name": "upgradeTo",
					"outputs": [],
					"stateMutability": "nonpayable",
					"type": "function"
				},
				{
					"inputs": [
						{
							"internalType": "address",
							"name": "newImplementation",
							"type": "address"
						},
						{
							"internalType": "bytes",
							"name": "data",
							"type": "bytes"
						}
					],
					"name": "upgradeToAndCall",
					"outputs": [],
					"stateMutability": "payable",
					"type": "function"
				},
				{
					"inputs": [],
					"name": "vault",
					"outputs": [
						{
							"internalType": "address",
							"name": "",
							"type": "address"
						}
					],
					"stateMutability": "view",
					"type": "function"
				},
				{
					"inputs": [
						{
							"internalType": "uint256",
							"name": "amount",
							"type": "uint256"
						}
					],
					"name": "withdrawCollateral",
					"outputs": [],
					"stateMutability": "nonpayable",
					"type": "function"
				}
			],
			"devdoc": {
				"kind": "dev",
				"methods": {},
				"version": 1
			},
			"evm": {
				"assembly": "    /* \"protocol/Market.sol\":360:9000  contract Market is Ownable, IMarket, UUPSUpgradeable {... */\n  mstore(0x40, 0xa0)\n    /* \"proxy/UUPSUpgradeable.sol\":1021:1025  this */\n  address\n    /* \"proxy/UUPSUpgradeable.sol\":978:1026  address private immutable __self = address(this) */\n  0xffffffffffffffffffffffffffffffffffffffff\n  and\n  0x80\n  swap1\n  0xffffffffffffffffffffffffffffffffffffffff\n  and\n  dup2\n  mstore\n  pop\n    /* \"protocol/Market.sol\":360:9000  contract Market is Ownable, IMarket, UUPSUpgradeable {... */\n  callvalue\n  dup1\n  iszero\n  tag_1\n  jumpi\n  revert(0x00, 0x00)\ntag_1:\n  pop\n  mload(0x80)\n  codecopy(0x00, dataOffset(sub_0), dataSize(sub_0))\n  0x00\n  assignImmutable(\"0x2e415caec8d91e458e1b9987576611b087b1a3cc6a704a90bb9e06da9759f8e6\")\n  return(0x00, dataSize(sub_0))\nstop\n\nsub_0: assembly {\n        /* \"protocol/Market.sol\":360:9000  contract Market is Ownable, IMarket, UUPSUpgradeable {... */\n      mstore(0x40, 0x80)\n      jumpi(tag_1, lt(calldatasize, 0x04))\n      shr(0xe0, calldataload(0x00))\n      dup1\n      0x74375359\n      gt\n      tag_47\n      jumpi\n      dup1\n      0xb1c0be34\n      gt\n      tag_48\n      jumpi\n      dup1\n      0xd283e75f\n      gt\n      tag_49\n      jumpi\n      dup1\n      0xd283e75f\n      eq\n      tag_41\n      jumpi\n      dup1\n      0xd3a417a2\n      eq\n      tag_42\n      jumpi\n      dup1\n      0xd681a449\n      eq\n      tag_43\n      jumpi\n      dup1\n      0xf0f44260\n      eq\n      tag_44\n      jumpi\n      dup1\n      0xfbfa77cf\n      eq\n      tag_45\n      jumpi\n      dup1\n      0xfc7b9c18\n      eq\n      tag_46\n      jumpi\n      jump(tag_1)\n    tag_49:\n      dup1\n      0xb1c0be34\n      eq\n      tag_35\n      jumpi\n      dup1\n      0xb2016bd4\n      eq\n      tag_36\n      jumpi\n      dup1\n      0xb3604c96\n      eq\n      tag_37\n      jumpi\n      dup1\n      0xc5ebeaec\n      eq\n      tag_38\n      jumpi\n      dup1\n      0xc82f6d2f\n      eq\n      tag_39\n      jumpi\n      dup1\n      0xced65b01\n      eq\n      tag_40\n      jumpi\n      jump(tag_1)\n    tag_48:\n      dup1\n      0x7dc0d1d0\n      gt\n      tag_50\n      jumpi\n      dup1\n      0x7dc0d1d0\n      eq\n      tag_29\n      jumpi\n      dup1\n      0x8da5cb5b\n      eq\n      tag_30\n      jumpi\n      dup1\n      0xa03b3c95\n      eq\n      tag_31\n      jumpi\n      dup1\n      0xa385fb96\n      eq\n      tag_32\n      jumpi\n      dup1\n      0xa6afed95\n      eq\n      tag_33\n      jumpi\n      dup1\n      0xaa5af0fd\n      eq\n      tag_34\n      jumpi\n      jump(tag_1)\n    tag_50:\n      dup1\n      0x74375359\n      eq\n      tag_24\n      jumpi\n      dup1\n      0x76e9790a\n      eq\n      tag_25\n      jumpi\n      dup1\n      0x7924d93f\n      eq\n      tag_26\n      jumpi\n      dup1\n      0x79f057a2\n      eq\n      tag_27\n      jumpi\n      dup1\n      0x7c3a00fd\n      eq\n      tag_28\n      jumpi\n      jump(tag_1)\n    tag_47:\n      dup1\n      0x371fd8e6\n      gt\n      tag_51\n      jumpi\n      dup1\n      0x4f1ef286\n      gt\n      tag_52\n      jumpi\n      dup1\n      0x4f1ef286\n      eq\n      tag_18\n      jumpi\n      dup1\n      0x52d1902d\n      eq\n      tag_19\n      jumpi\n      dup1\n      0x55f57510\n      eq\n      tag_20\n      jumpi\n      dup1\n      0x6112fe2e\n      eq\n      tag_21\n      jumpi\n      dup1\n      0x61d027b3\n      eq\n      tag_22\n      jumpi\n      dup1\n      0x6ad9f9df\n      eq\n      tag_23\n      jumpi\n      jump(tag_1)\n    tag_52:\n      dup1\n      0x371fd8e6\n      eq\n      tag_13\n      jumpi\n      dup1\n      0x3e3722b6\n      eq\n      tag_14\n      jumpi\n      dup1\n      0x4046ebae\n      eq\n      tag_15\n      jumpi\n      dup1\n      0x4a79d50c\n      eq\n      tag_16\n      jumpi\n      dup1\n      0x4b92917a\n      eq\n      tag_17\n      jumpi\n      jump(tag_1)\n    tag_51:\n      dup1\n      0x27776ab5\n      gt\n      tag_53\n      jumpi\n      dup1\n      0x27776ab5\n      eq\n      tag_7\n      jumpi\n      dup1\n      0x29962904\n      eq\n      tag_8\n      jumpi\n      dup1\n      0x2f865568\n      eq\n      tag_9\n      jumpi\n      dup1\n      0x35659fb8\n      eq\n      tag_10\n      jumpi\n      dup1\n      0x3659cfe6\n      eq\n      tag_11\n      jumpi\n      dup1\n      0x367febea\n      eq\n      tag_12\n      jumpi\n      jump(tag_1)\n    tag_53:\n      dup1\n      0x249b44\n      eq\n      tag_2\n      jumpi\n      dup1\n      0x01c76f81\n      eq\n      tag_3\n      jumpi\n      dup1\n      0x06d37817\n      eq\n      tag_4\n      jumpi\n      dup1\n      0x136cf1f7\n      eq\n      tag_5\n      jumpi\n      dup1\n      0x19970d8e\n      eq\n      tag_6\n      jumpi\n    tag_1:\n      revert(0x00, 0x00)\n        /* \"protocol/Market.sol\":3861:4082  function _sharesForBorrowAmount(... */\n    tag_2:\n      callvalue\n      dup1\n      iszero\n      tag_54\n      jumpi\n      revert(0x00, 0x00)\n    tag_54:\n      pop\n      tag_55\n      0x04\n      dup1\n      calldatasize\n      sub\n      dup2\n      add\n      swap1\n      tag_56\n      swap2\n      swap1\n      tag_57\n      jump\t// in\n    tag_56:\n      tag_58\n      jump\t// in\n    tag_55:\n      mload(0x40)\n      tag_59\n      swap2\n      swap1\n      tag_60\n      jump\t// in\n    tag_59:\n      mload(0x40)\n      dup1\n      swap2\n      sub\n      swap1\n      return\n        /* \"protocol/Market.sol\":8712:8820  function setLiquidator(address newLiquidator) external onlyOwner {... */\n    tag_3:\n      callvalue\n      dup1\n      iszero\n      tag_61\n      jumpi\n      revert(0x00, 0x00)\n    tag_61:\n      pop\n      tag_62\n      0x04\n      dup1\n      calldatasize\n      sub\n      dup2\n      add\n      swap1\n      tag_63\n      swap2\n      swap1\n      tag_64\n      jump\t// in\n    tag_63:\n      tag_65\n      jump\t// in\n    tag_62:\n      stop\n        /* \"protocol/Market.sol\":1341:1364  IERC20 public loanToken */\n    tag_4:\n      callvalue\n      dup1\n      iszero\n      tag_66\n      jumpi\n      revert(0x00, 0x00)\n    tag_66:\n      pop\n      tag_67\n      tag_68\n      jump\t// in\n    tag_67:\n      mload(0x40)\n      tag_69\n      swap2\n      swap1\n      tag_70\n      jump\t// in\n    tag_69:\n      mload(0x40)\n      dup1\n      swap2\n      sub\n      swap1\n      return\n        /* \"protocol/Market.sol\":1826:1855  uint public totalBorrowShares */\n    tag_5:\n      callvalue\n      dup1\n      iszero\n      tag_71\n      jumpi\n      revert(0x00, 0x00)\n    tag_71:\n      pop\n      tag_72\n      tag_73\n      jump\t// in\n    tag_72:\n      mload(0x40)\n      tag_74\n      swap2\n      swap1\n      tag_60\n      jump\t// in\n    tag_74:\n      mload(0x40)\n      dup1\n      swap2\n      sub\n      swap1\n      return\n        /* \"protocol/Market.sol\":1661:1692  uint public liquidationBonusBps */\n    tag_6:\n      callvalue\n      dup1\n      iszero\n      tag_75\n      jumpi\n      revert(0x00, 0x00)\n    tag_75:\n      pop\n      tag_76\n      tag_77\n      jump\t// in\n    tag_76:\n      mload(0x40)\n      tag_78\n      swap2\n      swap1\n      tag_60\n      jump\t// in\n    tag_78:\n      mload(0x40)\n      dup1\n      swap2\n      sub\n      swap1\n      return\n        /* \"protocol/Market.sol\":419:458  uint public constant INDEX_SCALE = 1e18 */\n    tag_7:\n      callvalue\n      dup1\n      iszero\n      tag_79\n      jumpi\n      revert(0x00, 0x00)\n    tag_79:\n      pop\n      tag_80\n      tag_81\n      jump\t// in\n    tag_80:\n      mload(0x40)\n      tag_82\n      swap2\n      swap1\n      tag_60\n      jump\t// in\n    tag_82:\n      mload(0x40)\n      dup1\n      swap2\n      sub\n      swap1\n      return\n        /* \"protocol/Market.sol\":1698:1725  uint public lastAccrueBlock */\n    tag_8:\n      callvalue\n      dup1\n      iszero\n      tag_83\n      jumpi\n      revert(0x00, 0x00)\n    tag_83:\n      pop\n      tag_84\n      tag_85\n      jump\t// in\n    tag_84:\n      mload(0x40)\n      tag_86\n      swap2\n      swap1\n      tag_60\n      jump\t// in\n    tag_86:\n      mload(0x40)\n      dup1\n      swap2\n      sub\n      swap1\n      return\n        /* \"protocol/Market.sol\":7423:8122  function liquidate(address borrower) external onlyLiquidatorOrOwner {... */\n    tag_9:\n      callvalue\n      dup1\n      iszero\n      tag_87\n      jumpi\n      revert(0x00, 0x00)\n    tag_87:\n      pop\n      tag_88\n      0x04\n      dup1\n      calldatasize\n      sub\n      dup2\n      add\n      swap1\n      tag_89\n      swap2\n      swap1\n      tag_64\n      jump\t// in\n    tag_89:\n      tag_90\n      jump\t// in\n    tag_88:\n      stop\n        /* \"protocol/Market.sol\":1760:1786  uint public protocolFeeBps */\n    tag_10:\n      callvalue\n      dup1\n      iszero\n      tag_91\n      jumpi\n      revert(0x00, 0x00)\n    tag_91:\n      pop\n      tag_92\n      tag_93\n      jump\t// in\n    tag_92:\n      mload(0x40)\n      tag_94\n      swap2\n      swap1\n      tag_60\n      jump\t// in\n    tag_94:\n      mload(0x40)\n      dup1\n      swap2\n      sub\n      swap1\n      return\n        /* \"proxy/UUPSUpgradeable.sol\":1745:1927  function upgradeTo(address newImplementation) external onlyProxy {... */\n    tag_11:\n      callvalue\n      dup1\n      iszero\n      tag_95\n      jumpi\n      revert(0x00, 0x00)\n    tag_95:\n      pop\n      tag_96\n      0x04\n      dup1\n      calldatasize\n      sub\n      dup2\n      add\n      swap1\n      tag_97\n      swap2\n      swap1\n      tag_64\n      jump\t// in\n    tag_97:\n      tag_98\n      jump\t// in\n    tag_96:\n      stop\n        /* \"protocol/Market.sol\":5272:5458  function supplyCollateral(uint amount) external {... */\n    tag_12:\n      callvalue\n      dup1\n      iszero\n      tag_99\n      jumpi\n      revert(0x00, 0x00)\n    tag_99:\n      pop\n      tag_100\n      0x04\n      dup1\n      calldatasize\n      sub\n      dup2\n      add\n      swap1\n      tag_101\n      swap2\n      swap1\n      tag_57\n      jump\t// in\n    tag_101:\n      tag_102\n      jump\t// in\n    tag_100:\n      stop\n        /* \"protocol/Market.sol\":6520:7417  function repay(uint amount) external returns (uint remainingDebt) {... */\n    tag_13:\n      callvalue\n      dup1\n      iszero\n      tag_103\n      jumpi\n      revert(0x00, 0x00)\n    tag_103:\n      pop\n      tag_104\n      0x04\n      dup1\n      calldatasize\n      sub\n      dup2\n      add\n      swap1\n      tag_105\n      swap2\n      swap1\n      tag_57\n      jump\t// in\n    tag_105:\n      tag_106\n      jump\t// in\n    tag_104:\n      mload(0x40)\n      tag_107\n      swap2\n      swap1\n      tag_60\n      jump\t// in\n    tag_107:\n      mload(0x40)\n      dup1\n      swap2\n      sub\n      swap1\n      return\n        /* \"protocol/Market.sol\":8191:8352  function onVaultWithdraw(uint amount) external onlyVault {... */\n    tag_14:\n      callvalue\n      dup1\n      iszero\n      tag_108\n      jumpi\n      revert(0x00, 0x00)\n    tag_108:\n      pop\n      tag_109\n      0x04\n      dup1\n      calldatasize\n      sub\n      dup2\n      add\n      swap1\n      tag_110\n      swap2\n      swap1\n      tag_57\n      jump\t// in\n    tag_110:\n      tag_111\n      jump\t// in\n    tag_109:\n      stop\n        /* \"protocol/Market.sol\":1488:1513  address public liquidator */\n    tag_15:\n      callvalue\n      dup1\n      iszero\n      tag_112\n      jumpi\n      revert(0x00, 0x00)\n    tag_112:\n      pop\n      tag_113\n      tag_114\n      jump\t// in\n    tag_113:\n      mload(0x40)\n      tag_115\n      swap2\n      swap1\n      tag_116\n      jump\t// in\n    tag_115:\n      mload(0x40)\n      dup1\n      swap2\n      sub\n      swap1\n      return\n        /* \"protocol/Market.sol\":1433:1452  string public title */\n    tag_16:\n      callvalue\n      dup1\n      iszero\n      tag_117\n      jumpi\n      revert(0x00, 0x00)\n    tag_117:\n      pop\n      tag_118\n      tag_119\n      jump\t// in\n    tag_118:\n      mload(0x40)\n      tag_120\n      swap2\n      swap1\n      tag_121\n      jump\t// in\n    tag_120:\n      mload(0x40)\n      dup1\n      swap2\n      sub\n      swap1\n      return\n        /* \"protocol/Market.sol\":8127:8185  function onVaultDeposit(uint amount) external onlyVault {} */\n    tag_17:\n      callvalue\n      dup1\n      iszero\n      tag_122\n      jumpi\n      revert(0x00, 0x00)\n    tag_122:\n      pop\n      tag_123\n      0x04\n      dup1\n      calldatasize\n      sub\n      dup2\n      add\n      swap1\n      tag_124\n      swap2\n      swap1\n      tag_57\n      jump\t// in\n    tag_124:\n      tag_125\n      jump\t// in\n    tag_123:\n      stop\n        /* \"proxy/UUPSUpgradeable.sol\":2028:2240  function upgradeToAndCall(address newImplementation, bytes calldata data) external payable onlyProxy {... */\n    tag_18:\n      tag_126\n      0x04\n      dup1\n      calldatasize\n      sub\n      dup2\n      add\n      swap1\n      tag_127\n      swap2\n      swap1\n      tag_128\n      jump\t// in\n    tag_127:\n      tag_129\n      jump\t// in\n    tag_126:\n      stop\n        /* \"proxy/UUPSUpgradeable.sol\":1577:1690  function proxiableUUID() external view notDelegated returns (bytes32) {... */\n    tag_19:\n      callvalue\n      dup1\n      iszero\n      tag_130\n      jumpi\n      revert(0x00, 0x00)\n    tag_130:\n      pop\n      tag_131\n      tag_132\n      jump\t// in\n    tag_131:\n      mload(0x40)\n      tag_133\n      swap2\n      swap1\n      tag_134\n      jump\t// in\n    tag_133:\n      mload(0x40)\n      dup1\n      swap2\n      sub\n      swap1\n      return\n        /* \"protocol/Market.sol\":934:979  mapping(address => Position) public positions */\n    tag_20:\n      callvalue\n      dup1\n      iszero\n      tag_135\n      jumpi\n      revert(0x00, 0x00)\n    tag_135:\n      pop\n      tag_136\n      0x04\n      dup1\n      calldatasize\n      sub\n      dup2\n      add\n      swap1\n      tag_137\n      swap2\n      swap1\n      tag_64\n      jump\t// in\n    tag_137:\n      tag_138\n      jump\t// in\n    tag_136:\n      mload(0x40)\n      tag_139\n      swap4\n      swap3\n      swap2\n      swap1\n      tag_140\n      jump\t// in\n    tag_139:\n      mload(0x40)\n      dup1\n      swap2\n      sub\n      swap1\n      return\n        /* \"protocol/Market.sol\":5464:5809  function withdrawCollateral(uint amount) external {... */\n    tag_21:\n      callvalue\n      dup1\n      iszero\n      tag_141\n      jumpi\n      revert(0x00, 0x00)\n    tag_141:\n      pop\n      tag_142\n      0x04\n      dup1\n      calldatasize\n      sub\n      dup2\n      add\n      swap1\n      tag_143\n      swap2\n      swap1\n      tag_57\n      jump\t// in\n    tag_143:\n      tag_144\n      jump\t// in\n    tag_142:\n      stop\n        /* \"protocol/Market.sol\":1545:1568  address public treasury */\n    tag_22:\n      callvalue\n      dup1\n      iszero\n      tag_145\n      jumpi\n      revert(0x00, 0x00)\n    tag_145:\n      pop\n      tag_146\n      tag_147\n      jump\t// in\n    tag_146:\n      mload(0x40)\n      tag_148\n      swap2\n      swap1\n      tag_116\n      jump\t// in\n    tag_148:\n      mload(0x40)\n      dup1\n      swap2\n      sub\n      swap1\n      return\n        /* \"protocol/Market.sol\":5815:6025  function healthFactor(address borrower) public view returns (uint) {... */\n    tag_23:\n      callvalue\n      dup1\n      iszero\n      tag_149\n      jumpi\n      revert(0x00, 0x00)\n    tag_149:\n      pop\n      tag_150\n      0x04\n      dup1\n      calldatasize\n      sub\n      dup2\n      add\n      swap1\n      tag_151\n      swap2\n      swap1\n      tag_64\n      jump\t// in\n    tag_151:\n      tag_152\n      jump\t// in\n    tag_150:\n      mload(0x40)\n      tag_153\n      swap2\n      swap1\n      tag_60\n      jump\t// in\n    tag_153:\n      mload(0x40)\n      dup1\n      swap2\n      sub\n      swap1\n      return\n        /* \"protocol/Market.sol\":3288:3476  function availableLiquidity() public view returns (uint) {... */\n    tag_24:\n      callvalue\n      dup1\n      iszero\n      tag_154\n      jumpi\n      revert(0x00, 0x00)\n    tag_154:\n      pop\n      tag_155\n      tag_156\n      jump\t// in\n    tag_155:\n      mload(0x40)\n      tag_157\n      swap2\n      swap1\n      tag_60\n      jump\t// in\n    tag_157:\n      mload(0x40)\n      dup1\n      swap2\n      sub\n      swap1\n      return\n        /* \"protocol/Market.sol\":1458:1481  string public shareName */\n    tag_25:\n      callvalue\n      dup1\n      iszero\n      tag_158\n      jumpi\n      revert(0x00, 0x00)\n    tag_158:\n      pop\n      tag_159\n      tag_160\n      jump\t// in\n    tag_159:\n      mload(0x40)\n      tag_161\n      swap2\n      swap1\n      tag_121\n      jump\t// in\n    tag_161:\n      mload(0x40)\n      dup1\n      swap2\n      sub\n      swap1\n      return\n        /* \"protocol/Market.sol\":464:490  address[] public borrowers */\n    tag_26:\n      callvalue\n      dup1\n      iszero\n      tag_162\n      jumpi\n      revert(0x00, 0x00)\n    tag_162:\n      pop\n      tag_163\n      0x04\n      dup1\n      calldatasize\n      sub\n      dup2\n      add\n      swap1\n      tag_164\n      swap2\n      swap1\n      tag_57\n      jump\t// in\n    tag_164:\n      tag_165\n      jump\t// in\n    tag_163:\n      mload(0x40)\n      tag_166\n      swap2\n      swap1\n      tag_116\n      jump\t// in\n    tag_166:\n      mload(0x40)\n      dup1\n      swap2\n      sub\n      swap1\n      return\n        /* \"protocol/Market.sol\":4808:5266  function currentLltvBps(address borrower) public view returns (uint) {... */\n    tag_27:\n      callvalue\n      dup1\n      iszero\n      tag_167\n      jumpi\n      revert(0x00, 0x00)\n    tag_167:\n      pop\n      tag_168\n      0x04\n      dup1\n      calldatasize\n      sub\n      dup2\n      add\n      swap1\n      tag_169\n      swap2\n      swap1\n      tag_64\n      jump\t// in\n    tag_169:\n      tag_170\n      jump\t// in\n    tag_168:\n      mload(0x40)\n      tag_171\n      swap2\n      swap1\n      tag_60\n      jump\t// in\n    tag_171:\n      mload(0x40)\n      dup1\n      swap2\n      sub\n      swap1\n      return\n        /* \"protocol/Market.sol\":1600:1624  uint public interestRate */\n    tag_28:\n      callvalue\n      dup1\n      iszero\n      tag_172\n      jumpi\n      revert(0x00, 0x00)\n    tag_172:\n      pop\n      tag_173\n      tag_174\n      jump\t// in\n    tag_173:\n      mload(0x40)\n      tag_175\n      swap2\n      swap1\n      tag_60\n      jump\t// in\n    tag_175:\n      mload(0x40)\n      dup1\n      swap2\n      sub\n      swap1\n      return\n        /* \"protocol/Market.sol\":1405:1426  IOracle public oracle */\n    tag_29:\n      callvalue\n      dup1\n      iszero\n      tag_176\n      jumpi\n      revert(0x00, 0x00)\n    tag_176:\n      pop\n      tag_177\n      tag_178\n      jump\t// in\n    tag_177:\n      mload(0x40)\n      tag_179\n      swap2\n      swap1\n      tag_180\n      jump\t// in\n    tag_179:\n      mload(0x40)\n      dup1\n      swap2\n      sub\n      swap1\n      return\n        /* \"acess/Ownable.sol\":133:153  address public owner */\n    tag_30:\n      callvalue\n      dup1\n      iszero\n      tag_181\n      jumpi\n      revert(0x00, 0x00)\n    tag_181:\n      pop\n      tag_182\n      tag_183\n      jump\t// in\n    tag_182:\n      mload(0x40)\n      tag_184\n      swap2\n      swap1\n      tag_116\n      jump\t// in\n    tag_184:\n      mload(0x40)\n      dup1\n      swap2\n      sub\n      swap1\n      return\n        /* \"protocol/Market.sol\":4088:4211  function _isHealthy(address borrower) public view returns (bool) {... */\n    tag_31:\n      callvalue\n      dup1\n      iszero\n      tag_185\n      jumpi\n      revert(0x00, 0x00)\n    tag_185:\n      pop\n      tag_186\n      0x04\n      dup1\n      calldatasize\n      sub\n      dup2\n      add\n      swap1\n      tag_187\n      swap2\n      swap1\n      tag_64\n      jump\t// in\n    tag_187:\n      tag_188\n      jump\t// in\n    tag_186:\n      mload(0x40)\n      tag_189\n      swap2\n      swap1\n      tag_190\n      jump\t// in\n    tag_189:\n      mload(0x40)\n      dup1\n      swap2\n      sub\n      swap1\n      return\n        /* \"protocol/Market.sol\":1630:1655  uint public blocksPerYear */\n    tag_32:\n      callvalue\n      dup1\n      iszero\n      tag_191\n      jumpi\n      revert(0x00, 0x00)\n    tag_191:\n      pop\n      tag_192\n      tag_193\n      jump\t// in\n    tag_192:\n      mload(0x40)\n      tag_194\n      swap2\n      swap1\n      tag_60\n      jump\t// in\n    tag_194:\n      mload(0x40)\n      dup1\n      swap2\n      sub\n      swap1\n      return\n        /* \"protocol/Market.sol\":2903:3282  function accrueInterest() public {... */\n    tag_33:\n      callvalue\n      dup1\n      iszero\n      tag_195\n      jumpi\n      revert(0x00, 0x00)\n    tag_195:\n      pop\n      tag_196\n      tag_197\n      jump\t// in\n    tag_196:\n      stop\n        /* \"protocol/Market.sol\":1731:1754  uint public borrowIndex */\n    tag_34:\n      callvalue\n      dup1\n      iszero\n      tag_198\n      jumpi\n      revert(0x00, 0x00)\n    tag_198:\n      pop\n      tag_199\n      tag_200\n      jump\t// in\n    tag_199:\n      mload(0x40)\n      tag_201\n      swap2\n      swap1\n      tag_60\n      jump\t// in\n    tag_201:\n      mload(0x40)\n      dup1\n      swap2\n      sub\n      swap1\n      return\n        /* \"protocol/Market.sol\":1862:2897  function initialize(... */\n    tag_35:\n      callvalue\n      dup1\n      iszero\n      tag_202\n      jumpi\n      revert(0x00, 0x00)\n    tag_202:\n      pop\n      tag_203\n      0x04\n      dup1\n      calldatasize\n      sub\n      dup2\n      add\n      swap1\n      tag_204\n      swap2\n      swap1\n      tag_205\n      jump\t// in\n    tag_204:\n      tag_206\n      jump\t// in\n    tag_203:\n      stop\n        /* \"protocol/Market.sol\":1370:1399  IERC20 public collateralToken */\n    tag_36:\n      callvalue\n      dup1\n      iszero\n      tag_207\n      jumpi\n      revert(0x00, 0x00)\n    tag_207:\n      pop\n      tag_208\n      tag_209\n      jump\t// in\n    tag_208:\n      mload(0x40)\n      tag_210\n      swap2\n      swap1\n      tag_70\n      jump\t// in\n    tag_210:\n      mload(0x40)\n      dup1\n      swap2\n      sub\n      swap1\n      return\n        /* \"protocol/Market.sol\":1575:1594  uint public lltvBps */\n    tag_37:\n      callvalue\n      dup1\n      iszero\n      tag_211\n      jumpi\n      revert(0x00, 0x00)\n    tag_211:\n      pop\n      tag_212\n      tag_213\n      jump\t// in\n    tag_212:\n      mload(0x40)\n      tag_214\n      swap2\n      swap1\n      tag_60\n      jump\t// in\n    tag_214:\n      mload(0x40)\n      dup1\n      swap2\n      sub\n      swap1\n      return\n        /* \"protocol/Market.sol\":6031:6514  function borrow(uint amount) external {... */\n    tag_38:\n      callvalue\n      dup1\n      iszero\n      tag_215\n      jumpi\n      revert(0x00, 0x00)\n    tag_215:\n      pop\n      tag_216\n      0x04\n      dup1\n      calldatasize\n      sub\n      dup2\n      add\n      swap1\n      tag_217\n      swap2\n      swap1\n      tag_57\n      jump\t// in\n    tag_217:\n      tag_218\n      jump\t// in\n    tag_216:\n      stop\n        /* \"protocol/Market.sol\":4694:4802  function assetManage() public view returns (uint) {... */\n    tag_39:\n      callvalue\n      dup1\n      iszero\n      tag_219\n      jumpi\n      revert(0x00, 0x00)\n    tag_219:\n      pop\n      tag_220\n      tag_221\n      jump\t// in\n    tag_220:\n      mload(0x40)\n      tag_222\n      swap2\n      swap1\n      tag_60\n      jump\t// in\n    tag_222:\n      mload(0x40)\n      dup1\n      swap2\n      sub\n      swap1\n      return\n        /* \"protocol/Market.sol\":8358:8706  function setRiskParams(... */\n    tag_40:\n      callvalue\n      dup1\n      iszero\n      tag_223\n      jumpi\n      revert(0x00, 0x00)\n    tag_223:\n      pop\n      tag_224\n      0x04\n      dup1\n      calldatasize\n      sub\n      dup2\n      add\n      swap1\n      tag_225\n      swap2\n      swap1\n      tag_226\n      jump\t// in\n    tag_225:\n      tag_227\n      jump\t// in\n    tag_224:\n      stop\n        /* \"protocol/Market.sol\":4427:4688  function debtOf(address borrower) public view returns (uint) {... */\n    tag_41:\n      callvalue\n      dup1\n      iszero\n      tag_228\n      jumpi\n      revert(0x00, 0x00)\n    tag_228:\n      pop\n      tag_229\n      0x04\n      dup1\n      calldatasize\n      sub\n      dup2\n      add\n      swap1\n      tag_230\n      swap2\n      swap1\n      tag_64\n      jump\t// in\n    tag_230:\n      tag_231\n      jump\t// in\n    tag_229:\n      mload(0x40)\n      tag_232\n      swap2\n      swap1\n      tag_60\n      jump\t// in\n    tag_232:\n      mload(0x40)\n      dup1\n      swap2\n      sub\n      swap1\n      return\n        /* \"acess/Ownable.sol\":394:532  function ownershipTransfer(address newOwner) external onlyOwner {... */\n    tag_42:\n      callvalue\n      dup1\n      iszero\n      tag_233\n      jumpi\n      revert(0x00, 0x00)\n    tag_233:\n      pop\n      tag_234\n      0x04\n      dup1\n      calldatasize\n      sub\n      dup2\n      add\n      swap1\n      tag_235\n      swap2\n      swap1\n      tag_64\n      jump\t// in\n    tag_235:\n      tag_236\n      jump\t// in\n    tag_234:\n      stop\n        /* \"protocol/Market.sol\":1792:1820  uint public protocolReserves */\n    tag_43:\n      callvalue\n      dup1\n      iszero\n      tag_237\n      jumpi\n      revert(0x00, 0x00)\n    tag_237:\n      pop\n      tag_238\n      tag_239\n      jump\t// in\n    tag_238:\n      mload(0x40)\n      tag_240\n      swap2\n      swap1\n      tag_60\n      jump\t// in\n    tag_240:\n      mload(0x40)\n      dup1\n      swap2\n      sub\n      swap1\n      return\n        /* \"protocol/Market.sol\":8826:8926  function setTreasury(address newTreasury) external onlyOwner {... */\n    tag_44:\n      callvalue\n      dup1\n      iszero\n      tag_241\n      jumpi\n      revert(0x00, 0x00)\n    tag_241:\n      pop\n      tag_242\n      0x04\n      dup1\n      calldatasize\n      sub\n      dup2\n      add\n      swap1\n      tag_243\n      swap2\n      swap1\n      tag_64\n      jump\t// in\n    tag_243:\n      tag_244\n      jump\t// in\n    tag_242:\n      stop\n        /* \"protocol/Market.sol\":1519:1539  address public vault */\n    tag_45:\n      callvalue\n      dup1\n      iszero\n      tag_245\n      jumpi\n      revert(0x00, 0x00)\n    tag_245:\n      pop\n      tag_246\n      tag_247\n      jump\t// in\n    tag_246:\n      mload(0x40)\n      tag_248\n      swap2\n      swap1\n      tag_116\n      jump\t// in\n    tag_248:\n      mload(0x40)\n      dup1\n      swap2\n      sub\n      swap1\n      return\n        /* \"protocol/Market.sol\":4217:4421  function totalDebt() public view returns (uint) {... */\n    tag_46:\n      callvalue\n      dup1\n      iszero\n      tag_249\n      jumpi\n      revert(0x00, 0x00)\n    tag_249:\n      pop\n      tag_250\n      tag_251\n      jump\t// in\n    tag_250:\n      mload(0x40)\n      tag_252\n      swap2\n      swap1\n      tag_60\n      jump\t// in\n    tag_252:\n      mload(0x40)\n      dup1\n      swap2\n      sub\n      swap1\n      return\n        /* \"protocol/Market.sol\":3861:4082  function _sharesForBorrowAmount(... */\n    tag_58:\n        /* \"protocol/Market.sol\":3941:3952  uint shares */\n      0x00\n        /* \"protocol/Market.sol\":3981:3982  0 */\n      0x00\n        /* \"protocol/Market.sol\":3972:3978  amount */\n      dup3\n        /* \"protocol/Market.sol\":3972:3982  amount > 0 */\n      gt\n        /* \"protocol/Market.sol\":3964:3983  require(amount > 0) */\n      tag_254\n      jumpi\n      revert(0x00, 0x00)\n    tag_254:\n        /* \"protocol/Market.sol\":4027:4038  borrowIndex */\n      sload(0x10)\n        /* \"protocol/Market.sol\":454:458  1e18 */\n      0x0de0b6b3a7640000\n        /* \"protocol/Market.sol\":4003:4009  amount */\n      dup4\n        /* \"protocol/Market.sol\":4003:4023  amount * INDEX_SCALE */\n      tag_255\n      swap2\n      swap1\n      tag_256\n      jump\t// in\n    tag_255:\n        /* \"protocol/Market.sol\":4002:4038  (amount * INDEX_SCALE) / borrowIndex */\n      tag_257\n      swap2\n      swap1\n      tag_258\n      jump\t// in\n    tag_257:\n        /* \"protocol/Market.sol\":3993:4038  shares = (amount * INDEX_SCALE) / borrowIndex */\n      swap1\n      pop\n        /* \"protocol/Market.sol\":4062:4063  0 */\n      0x00\n        /* \"protocol/Market.sol\":4052:4058  shares */\n      dup2\n        /* \"protocol/Market.sol\":4052:4063  shares == 0 */\n      sub\n        /* \"protocol/Market.sol\":4048:4075  if (shares == 0) shares = 1 */\n      tag_259\n      jumpi\n        /* \"protocol/Market.sol\":4074:4075  1 */\n      0x01\n        /* \"protocol/Market.sol\":4065:4075  shares = 1 */\n      swap1\n      pop\n        /* \"protocol/Market.sol\":4048:4075  if (shares == 0) shares = 1 */\n    tag_259:\n        /* \"protocol/Market.sol\":3861:4082  function _sharesForBorrowAmount(... */\n      swap2\n      swap1\n      pop\n      jump\t// out\n        /* \"protocol/Market.sol\":8712:8820  function setLiquidator(address newLiquidator) external onlyOwner {... */\n    tag_65:\n        /* \"acess/Ownable.sol\":213:218  owner */\n      0x00\n      0x02\n      swap1\n      sload\n      swap1\n      0x0100\n      exp\n      swap1\n      div\n      0xffffffffffffffffffffffffffffffffffffffff\n      and\n        /* \"acess/Ownable.sol\":199:218  msg.sender == owner */\n      0xffffffffffffffffffffffffffffffffffffffff\n      and\n        /* \"acess/Ownable.sol\":199:209  msg.sender */\n      caller\n        /* \"acess/Ownable.sol\":199:218  msg.sender == owner */\n      0xffffffffffffffffffffffffffffffffffffffff\n      and\n      eq\n        /* \"acess/Ownable.sol\":191:219  require(msg.sender == owner) */\n      tag_261\n      jumpi\n      revert(0x00, 0x00)\n    tag_261:\n        /* \"protocol/Market.sol\":8800:8813  newLiquidator */\n      dup1\n        /* \"protocol/Market.sol\":8787:8797  liquidator */\n      0x08\n      0x00\n        /* \"protocol/Market.sol\":8787:8813  liquidator = newLiquidator */\n      0x0100\n      exp\n      dup2\n      sload\n      dup2\n      0xffffffffffffffffffffffffffffffffffffffff\n      mul\n      not\n      and\n      swap1\n      dup4\n      0xffffffffffffffffffffffffffffffffffffffff\n      and\n      mul\n      or\n      swap1\n      sstore\n      pop\n        /* \"protocol/Market.sol\":8712:8820  function setLiquidator(address newLiquidator) external onlyOwner {... */\n      pop\n      jump\t// out\n        /* \"protocol/Market.sol\":1341:1364  IERC20 public loanToken */\n    tag_68:\n      0x03\n      0x00\n      swap1\n      sload\n      swap1\n      0x0100\n      exp\n      swap1\n      div\n      0xffffffffffffffffffffffffffffffffffffffff\n      and\n      dup2\n      jump\t// out\n        /* \"protocol/Market.sol\":1826:1855  uint public totalBorrowShares */\n    tag_73:\n      sload(0x13)\n      dup2\n      jump\t// out\n        /* \"protocol/Market.sol\":1661:1692  uint public liquidationBonusBps */\n    tag_77:\n      sload(0x0e)\n      dup2\n      jump\t// out\n        /* \"protocol/Market.sol\":419:458  uint public constant INDEX_SCALE = 1e18 */\n    tag_81:\n        /* \"protocol/Market.sol\":454:458  1e18 */\n      0x0de0b6b3a7640000\n        /* \"protocol/Market.sol\":419:458  uint public constant INDEX_SCALE = 1e18 */\n      dup2\n      jump\t// out\n        /* \"protocol/Market.sol\":1698:1725  uint public lastAccrueBlock */\n    tag_85:\n      sload(0x0f)\n      dup2\n      jump\t// out\n        /* \"protocol/Market.sol\":7423:8122  function liquidate(address borrower) external onlyLiquidatorOrOwner {... */\n    tag_90:\n        /* \"protocol/Market.sol\":1134:1144  liquidator */\n      0x08\n      0x00\n      swap1\n      sload\n      swap1\n      0x0100\n      exp\n      swap1\n      div\n      0xffffffffffffffffffffffffffffffffffffffff\n      and\n        /* \"protocol/Market.sol\":1120:1144  msg.sender == liquidator */\n      0xffffffffffffffffffffffffffffffffffffffff\n      and\n        /* \"protocol/Market.sol\":1120:1130  msg.sender */\n      caller\n        /* \"protocol/Market.sol\":1120:1144  msg.sender == liquidator */\n      0xffffffffffffffffffffffffffffffffffffffff\n      and\n      eq\n        /* \"protocol/Market.sol\":1120:1167  msg.sender == liquidator || msg.sender == owner */\n      dup1\n      tag_264\n      jumpi\n      pop\n        /* \"protocol/Market.sol\":1162:1167  owner */\n      0x00\n      0x02\n      swap1\n      sload\n      swap1\n      0x0100\n      exp\n      swap1\n      div\n      0xffffffffffffffffffffffffffffffffffffffff\n      and\n        /* \"protocol/Market.sol\":1148:1167  msg.sender == owner */\n      0xffffffffffffffffffffffffffffffffffffffff\n      and\n        /* \"protocol/Market.sol\":1148:1158  msg.sender */\n      caller\n        /* \"protocol/Market.sol\":1148:1167  msg.sender == owner */\n      0xffffffffffffffffffffffffffffffffffffffff\n      and\n      eq\n        /* \"protocol/Market.sol\":1120:1167  msg.sender == liquidator || msg.sender == owner */\n    tag_264:\n        /* \"protocol/Market.sol\":1112:1168  require(msg.sender == liquidator || msg.sender == owner) */\n      tag_265\n      jumpi\n      revert(0x00, 0x00)\n    tag_265:\n        /* \"protocol/Market.sol\":7501:7517  accrueInterest() */\n      tag_267\n        /* \"protocol/Market.sol\":7501:7515  accrueInterest */\n      tag_197\n        /* \"protocol/Market.sol\":7501:7517  accrueInterest() */\n      jump\t// in\n    tag_267:\n        /* \"protocol/Market.sol\":7536:7556  _isHealthy(borrower) */\n      tag_268\n        /* \"protocol/Market.sol\":7547:7555  borrower */\n      dup2\n        /* \"protocol/Market.sol\":7536:7546  _isHealthy */\n      tag_188\n        /* \"protocol/Market.sol\":7536:7556  _isHealthy(borrower) */\n      jump\t// in\n    tag_268:\n        /* \"protocol/Market.sol\":7535:7556  !_isHealthy(borrower) */\n      iszero\n        /* \"protocol/Market.sol\":7527:7557  require(!_isHealthy(borrower)) */\n      tag_269\n      jumpi\n      revert(0x00, 0x00)\n    tag_269:\n        /* \"protocol/Market.sol\":7568:7586  Position storage p */\n      0x00\n        /* \"protocol/Market.sol\":7589:7598  positions */\n      0x02\n        /* \"protocol/Market.sol\":7589:7608  positions[borrower] */\n      0x00\n        /* \"protocol/Market.sol\":7599:7607  borrower */\n      dup4\n        /* \"protocol/Market.sol\":7589:7608  positions[borrower] */\n      0xffffffffffffffffffffffffffffffffffffffff\n      and\n      0xffffffffffffffffffffffffffffffffffffffff\n      and\n      dup2\n      mstore\n      0x20\n      add\n      swap1\n      dup2\n      mstore\n      0x20\n      add\n      0x00\n      keccak256\n        /* \"protocol/Market.sol\":7568:7608  Position storage p = positions[borrower] */\n      swap1\n      pop\n        /* \"protocol/Market.sol\":7618:7627  uint debt */\n      0x00\n        /* \"protocol/Market.sol\":7630:7646  debtOf(borrower) */\n      tag_270\n        /* \"protocol/Market.sol\":7637:7645  borrower */\n      dup4\n        /* \"protocol/Market.sol\":7630:7636  debtOf */\n      tag_231\n        /* \"protocol/Market.sol\":7630:7646  debtOf(borrower) */\n      jump\t// in\n    tag_270:\n        /* \"protocol/Market.sol\":7618:7646  uint debt = debtOf(borrower) */\n      swap1\n      pop\n        /* \"protocol/Market.sol\":7671:7672  0 */\n      0x00\n        /* \"protocol/Market.sol\":7664:7668  debt */\n      dup2\n        /* \"protocol/Market.sol\":7664:7672  debt > 0 */\n      gt\n        /* \"protocol/Market.sol\":7656:7673  require(debt > 0) */\n      tag_271\n      jumpi\n      revert(0x00, 0x00)\n    tag_271:\n        /* \"protocol/Market.sol\":7684:7695  uint reward */\n      0x00\n        /* \"protocol/Market.sol\":7743:7748  10000 */\n      0x2710\n        /* \"protocol/Market.sol\":7720:7739  liquidationBonusBps */\n      sload(0x0e)\n        /* \"protocol/Market.sol\":7699:7700  p */\n      dup5\n        /* \"protocol/Market.sol\":7699:7717  p.collateralShares */\n      0x00\n      add\n      sload\n        /* \"protocol/Market.sol\":7699:7739  p.collateralShares * liquidationBonusBps */\n      tag_272\n      swap2\n      swap1\n      tag_256\n      jump\t// in\n    tag_272:\n        /* \"protocol/Market.sol\":7698:7748  (p.collateralShares * liquidationBonusBps) / 10000 */\n      tag_273\n      swap2\n      swap1\n      tag_258\n      jump\t// in\n    tag_273:\n        /* \"protocol/Market.sol\":7684:7748  uint reward = (p.collateralShares * liquidationBonusBps) / 10000 */\n      swap1\n      pop\n        /* \"protocol/Market.sol\":7758:7772  uint remainder */\n      0x00\n        /* \"protocol/Market.sol\":7796:7802  reward */\n      dup2\n        /* \"protocol/Market.sol\":7775:7776  p */\n      dup5\n        /* \"protocol/Market.sol\":7775:7793  p.collateralShares */\n      0x00\n      add\n      sload\n        /* \"protocol/Market.sol\":7775:7802  p.collateralShares - reward */\n      tag_274\n      swap2\n      swap1\n      tag_275\n      jump\t// in\n    tag_274:\n        /* \"protocol/Market.sol\":7758:7802  uint remainder = p.collateralShares - reward */\n      swap1\n      pop\n        /* \"protocol/Market.sol\":7825:7826  0 */\n      0x00\n        /* \"protocol/Market.sol\":7816:7822  reward */\n      dup3\n        /* \"protocol/Market.sol\":7816:7826  reward > 0 */\n      gt\n        /* \"protocol/Market.sol\":7812:7872  if (reward > 0) collateralToken.transfer(msg.sender, reward) */\n      iszero\n      tag_276\n      jumpi\n        /* \"protocol/Market.sol\":7828:7843  collateralToken */\n      0x04\n      0x00\n      swap1\n      sload\n      swap1\n      0x0100\n      exp\n      swap1\n      div\n      0xffffffffffffffffffffffffffffffffffffffff\n      and\n        /* \"protocol/Market.sol\":7828:7852  collateralToken.transfer */\n      0xffffffffffffffffffffffffffffffffffffffff\n      and\n      0xa9059cbb\n        /* \"protocol/Market.sol\":7853:7863  msg.sender */\n      caller\n        /* \"protocol/Market.sol\":7865:7871  reward */\n      dup5\n        /* \"protocol/Market.sol\":7828:7872  collateralToken.transfer(msg.sender, reward) */\n      mload(0x40)\n      dup4\n      0xffffffff\n      and\n      0xe0\n      shl\n      dup2\n      mstore\n      0x04\n      add\n      tag_277\n      swap3\n      swap2\n      swap1\n      tag_278\n      jump\t// in\n    tag_277:\n      0x20\n      mload(0x40)\n      dup1\n      dup4\n      sub\n      dup2\n      0x00\n      dup8\n      gas\n      call\n      iszero\n      dup1\n      iszero\n      tag_280\n      jumpi\n      returndatacopy(0x00, 0x00, returndatasize)\n      revert(0x00, returndatasize)\n    tag_280:\n      pop\n      pop\n      pop\n      pop\n      mload(0x40)\n      returndatasize\n      not(0x1f)\n      0x1f\n      dup3\n      add\n      and\n      dup3\n      add\n      dup1\n      0x40\n      mstore\n      pop\n      dup2\n      add\n      swap1\n      tag_281\n      swap2\n      swap1\n      tag_282\n      jump\t// in\n    tag_281:\n      pop\n        /* \"protocol/Market.sol\":7812:7872  if (reward > 0) collateralToken.transfer(msg.sender, reward) */\n    tag_276:\n        /* \"protocol/Market.sol\":7898:7899  0 */\n      0x00\n        /* \"protocol/Market.sol\":7886:7895  remainder */\n      dup2\n        /* \"protocol/Market.sol\":7886:7899  remainder > 0 */\n      gt\n        /* \"protocol/Market.sol\":7882:7946  if (remainder > 0) collateralToken.transfer(treasury, remainder) */\n      iszero\n      tag_283\n      jumpi\n        /* \"protocol/Market.sol\":7901:7916  collateralToken */\n      0x04\n      0x00\n      swap1\n      sload\n      swap1\n      0x0100\n      exp\n      swap1\n      div\n      0xffffffffffffffffffffffffffffffffffffffff\n      and\n        /* \"protocol/Market.sol\":7901:7925  collateralToken.transfer */\n      0xffffffffffffffffffffffffffffffffffffffff\n      and\n      0xa9059cbb\n        /* \"protocol/Market.sol\":7926:7934  treasury */\n      0x0a\n      0x00\n      swap1\n      sload\n      swap1\n      0x0100\n      exp\n      swap1\n      div\n      0xffffffffffffffffffffffffffffffffffffffff\n      and\n        /* \"protocol/Market.sol\":7936:7945  remainder */\n      dup4\n        /* \"protocol/Market.sol\":7901:7946  collateralToken.transfer(treasury, remainder) */\n      mload(0x40)\n      dup4\n      0xffffffff\n      and\n      0xe0\n      shl\n      dup2\n      mstore\n      0x04\n      add\n      tag_284\n      swap3\n      swap2\n      swap1\n      tag_278\n      jump\t// in\n    tag_284:\n      0x20\n      mload(0x40)\n      dup1\n      dup4\n      sub\n      dup2\n      0x00\n      dup8\n      gas\n      call\n      iszero\n      dup1\n      iszero\n      tag_286\n      jumpi\n      returndatacopy(0x00, 0x00, returndatasize)\n      revert(0x00, returndatasize)\n    tag_286:\n      pop\n      pop\n      pop\n      pop\n      mload(0x40)\n      returndatasize\n      not(0x1f)\n      0x1f\n      dup3\n      add\n      and\n      dup3\n      add\n      dup1\n      0x40\n      mstore\n      pop\n      dup2\n      add\n      swap1\n      tag_287\n      swap2\n      swap1\n      tag_282\n      jump\t// in\n    tag_287:\n      pop\n        /* \"protocol/Market.sol\":7882:7946  if (remainder > 0) collateralToken.transfer(treasury, remainder) */\n    tag_283:\n        /* \"protocol/Market.sol\":7978:7979  p */\n      dup4\n        /* \"protocol/Market.sol\":7978:7992  p.borrowShares */\n      0x01\n      add\n      sload\n        /* \"protocol/Market.sol\":7957:7974  totalBorrowShares */\n      0x13\n      0x00\n        /* \"protocol/Market.sol\":7957:7992  totalBorrowShares -= p.borrowShares */\n      dup3\n      dup3\n      sload\n      tag_288\n      swap2\n      swap1\n      tag_275\n      jump\t// in\n    tag_288:\n      swap3\n      pop\n      pop\n      dup2\n      swap1\n      sstore\n      pop\n        /* \"protocol/Market.sol\":8009:8018  positions */\n      0x02\n        /* \"protocol/Market.sol\":8009:8028  positions[borrower] */\n      0x00\n        /* \"protocol/Market.sol\":8019:8027  borrower */\n      dup7\n        /* \"protocol/Market.sol\":8009:8028  positions[borrower] */\n      0xffffffffffffffffffffffffffffffffffffffff\n      and\n      0xffffffffffffffffffffffffffffffffffffffff\n      and\n      dup2\n      mstore\n      0x20\n      add\n      swap1\n      dup2\n      mstore\n      0x20\n      add\n      0x00\n      keccak256\n      0x00\n        /* \"protocol/Market.sol\":8002:8028  delete positions[borrower] */\n      0x00\n      dup3\n      add\n      0x00\n      swap1\n      sstore\n      0x01\n      dup3\n      add\n      0x00\n      swap1\n      sstore\n      0x02\n      dup3\n      add\n      0x00\n      swap1\n      sstore\n      pop\n      pop\n        /* \"protocol/Market.sol\":8038:8047  borrowers */\n      0x01\n        /* \"protocol/Market.sol\":8038:8053  borrowers.pop() */\n      dup1\n      sload\n      dup1\n      tag_289\n      jumpi\n      tag_290\n      tag_291\n      jump\t// in\n    tag_290:\n    tag_289:\n      0x01\n      swap1\n      sub\n      dup2\n      dup2\n      swap1\n      0x00\n      mstore\n      keccak256(0x00, 0x20)\n      add\n      exp(0x0100, 0x00)\n      dup2\n      sload\n      swap1\n      0xffffffffffffffffffffffffffffffffffffffff\n      mul\n      not\n      and\n      swap1\n      sstore\n      swap1\n      sstore\n        /* \"protocol/Market.sol\":8090:8100  msg.sender */\n      caller\n        /* \"protocol/Market.sol\":8069:8115  Liquidated(borrower, msg.sender, debt, reward) */\n      0xffffffffffffffffffffffffffffffffffffffff\n      and\n        /* \"protocol/Market.sol\":8080:8088  borrower */\n      dup6\n        /* \"protocol/Market.sol\":8069:8115  Liquidated(borrower, msg.sender, debt, reward) */\n      0xffffffffffffffffffffffffffffffffffffffff\n      and\n      0x1f0c6615429d1cdae0dfa233abf91d3b31cdbdd82c8081389832a61e1072f1ea\n        /* \"protocol/Market.sol\":8102:8106  debt */\n      dup6\n        /* \"protocol/Market.sol\":8108:8114  reward */\n      dup6\n        /* \"protocol/Market.sol\":8069:8115  Liquidated(borrower, msg.sender, debt, reward) */\n      mload(0x40)\n      tag_293\n      swap3\n      swap2\n      swap1\n      tag_294\n      jump\t// in\n    tag_293:\n      mload(0x40)\n      dup1\n      swap2\n      sub\n      swap1\n      log3\n        /* \"protocol/Market.sol\":7491:8122  {... */\n      pop\n      pop\n      pop\n      pop\n        /* \"protocol/Market.sol\":7423:8122  function liquidate(address borrower) external onlyLiquidatorOrOwner {... */\n      pop\n      jump\t// out\n        /* \"protocol/Market.sol\":1760:1786  uint public protocolFeeBps */\n    tag_93:\n      sload(0x11)\n      dup2\n      jump\t// out\n        /* \"proxy/UUPSUpgradeable.sol\":1745:1927  function upgradeTo(address newImplementation) external onlyProxy {... */\n    tag_98:\n        /* \"proxy/UUPSUpgradeable.sol\":1200:1206  __self */\n      immutable(\"0x2e415caec8d91e458e1b9987576611b087b1a3cc6a704a90bb9e06da9759f8e6\")\n        /* \"proxy/UUPSUpgradeable.sol\":1183:1206  address(this) != __self */\n      0xffffffffffffffffffffffffffffffffffffffff\n      and\n        /* \"proxy/UUPSUpgradeable.sol\":1191:1195  this */\n      address\n        /* \"proxy/UUPSUpgradeable.sol\":1183:1206  address(this) != __self */\n      0xffffffffffffffffffffffffffffffffffffffff\n      and\n      sub\n        /* \"proxy/UUPSUpgradeable.sol\":1175:1227  require(address(this) != __self, \"NOT_DELEGATECALL\") */\n      tag_296\n      jumpi\n      mload(0x40)\n      0x08c379a000000000000000000000000000000000000000000000000000000000\n      dup2\n      mstore\n      0x04\n      add\n      tag_297\n      swap1\n      tag_298\n      jump\t// in\n    tag_297:\n      mload(0x40)\n      dup1\n      swap2\n      sub\n      swap1\n      revert\n    tag_296:\n        /* \"proxy/UUPSUpgradeable.sol\":1269:1275  __self */\n      immutable(\"0x2e415caec8d91e458e1b9987576611b087b1a3cc6a704a90bb9e06da9759f8e6\")\n        /* \"proxy/UUPSUpgradeable.sol\":1245:1275  _getImplementation() == __self */\n      0xffffffffffffffffffffffffffffffffffffffff\n      and\n        /* \"proxy/UUPSUpgradeable.sol\":1245:1265  _getImplementation() */\n      tag_299\n        /* \"proxy/UUPSUpgradeable.sol\":1245:1263  _getImplementation */\n      tag_300\n        /* \"proxy/UUPSUpgradeable.sol\":1245:1265  _getImplementation() */\n      jump\t// in\n    tag_299:\n        /* \"proxy/UUPSUpgradeable.sol\":1245:1275  _getImplementation() == __self */\n      0xffffffffffffffffffffffffffffffffffffffff\n      and\n      eq\n        /* \"proxy/UUPSUpgradeable.sol\":1237:1294  require(_getImplementation() == __self, \"INACTIVE_PROXY\") */\n      tag_301\n      jumpi\n      mload(0x40)\n      0x08c379a000000000000000000000000000000000000000000000000000000000\n      dup2\n      mstore\n      0x04\n      add\n      tag_302\n      swap1\n      tag_303\n      jump\t// in\n    tag_302:\n      mload(0x40)\n      dup1\n      swap2\n      sub\n      swap1\n      revert\n    tag_301:\n        /* \"proxy/UUPSUpgradeable.sol\":1820:1856  _authorizeUpgrade(newImplementation) */\n      tag_305\n        /* \"proxy/UUPSUpgradeable.sol\":1838:1855  newImplementation */\n      dup2\n        /* \"proxy/UUPSUpgradeable.sol\":1820:1837  _authorizeUpgrade */\n      tag_306\n        /* \"proxy/UUPSUpgradeable.sol\":1820:1856  _authorizeUpgrade(newImplementation) */\n      jump\t// in\n    tag_305:\n        /* \"proxy/UUPSUpgradeable.sol\":1866:1920  _upgradeToAndCall(newImplementation, bytes(\"\"), false) */\n      tag_307\n        /* \"proxy/UUPSUpgradeable.sol\":1884:1901  newImplementation */\n      dup2\n        /* \"proxy/UUPSUpgradeable.sol\":1903:1912  bytes(\"\") */\n      mload(0x40)\n      dup1\n      0x20\n      add\n      0x40\n      mstore\n      dup1\n      0x00\n      dup2\n      mstore\n      pop\n        /* \"proxy/UUPSUpgradeable.sol\":1914:1919  false */\n      0x00\n        /* \"proxy/UUPSUpgradeable.sol\":1866:1883  _upgradeToAndCall */\n      tag_308\n        /* \"proxy/UUPSUpgradeable.sol\":1866:1920  _upgradeToAndCall(newImplementation, bytes(\"\"), false) */\n      jump\t// in\n    tag_307:\n        /* \"proxy/UUPSUpgradeable.sol\":1745:1927  function upgradeTo(address newImplementation) external onlyProxy {... */\n      pop\n      jump\t// out\n        /* \"protocol/Market.sol\":5272:5458  function supplyCollateral(uint amount) external {... */\n    tag_102:\n        /* \"protocol/Market.sol\":5330:5345  collateralToken */\n      0x04\n      0x00\n      swap1\n      sload\n      swap1\n      0x0100\n      exp\n      swap1\n      div\n      0xffffffffffffffffffffffffffffffffffffffff\n      and\n        /* \"protocol/Market.sol\":5330:5358  collateralToken.transferFrom */\n      0xffffffffffffffffffffffffffffffffffffffff\n      and\n      0x23b872dd\n        /* \"protocol/Market.sol\":5359:5369  msg.sender */\n      caller\n        /* \"protocol/Market.sol\":5379:5383  this */\n      address\n        /* \"protocol/Market.sol\":5386:5392  amount */\n      dup5\n        /* \"protocol/Market.sol\":5330:5393  collateralToken.transferFrom(msg.sender, address(this), amount) */\n      mload(0x40)\n      dup5\n      0xffffffff\n      and\n      0xe0\n      shl\n      dup2\n      mstore\n      0x04\n      add\n      tag_310\n      swap4\n      swap3\n      swap2\n      swap1\n      tag_311\n      jump\t// in\n    tag_310:\n      0x20\n      mload(0x40)\n      dup1\n      dup4\n      sub\n      dup2\n      0x00\n      dup8\n      gas\n      call\n      iszero\n      dup1\n      iszero\n      tag_313\n      jumpi\n      returndatacopy(0x00, 0x00, returndatasize)\n      revert(0x00, returndatasize)\n    tag_313:\n      pop\n      pop\n      pop\n      pop\n      mload(0x40)\n      returndatasize\n      not(0x1f)\n      0x1f\n      dup3\n      add\n      and\n      dup3\n      add\n      dup1\n      0x40\n      mstore\n      pop\n      dup2\n      add\n      swap1\n      tag_314\n      swap2\n      swap1\n      tag_282\n      jump\t// in\n    tag_314:\n      pop\n        /* \"protocol/Market.sol\":5445:5451  amount */\n      dup1\n        /* \"protocol/Market.sol\":5403:5412  positions */\n      0x02\n        /* \"protocol/Market.sol\":5403:5424  positions[msg.sender] */\n      0x00\n        /* \"protocol/Market.sol\":5413:5423  msg.sender */\n      caller\n        /* \"protocol/Market.sol\":5403:5424  positions[msg.sender] */\n      0xffffffffffffffffffffffffffffffffffffffff\n      and\n      0xffffffffffffffffffffffffffffffffffffffff\n      and\n      dup2\n      mstore\n      0x20\n      add\n      swap1\n      dup2\n      mstore\n      0x20\n      add\n      0x00\n      keccak256\n        /* \"protocol/Market.sol\":5403:5441  positions[msg.sender].collateralShares */\n      0x00\n      add\n      0x00\n        /* \"protocol/Market.sol\":5403:5451  positions[msg.sender].collateralShares += amount */\n      dup3\n      dup3\n      sload\n      tag_315\n      swap2\n      swap1\n      tag_316\n      jump\t// in\n    tag_315:\n      swap3\n      pop\n      pop\n      dup2\n      swap1\n      sstore\n      pop\n        /* \"protocol/Market.sol\":5272:5458  function supplyCollateral(uint amount) external {... */\n      pop\n      jump\t// out\n        /* \"protocol/Market.sol\":6520:7417  function repay(uint amount) external returns (uint remainingDebt) {... */\n    tag_106:\n        /* \"protocol/Market.sol\":6566:6584  uint remainingDebt */\n      0x00\n        /* \"protocol/Market.sol\":6613:6614  0 */\n      0x00\n        /* \"protocol/Market.sol\":6604:6610  amount */\n      dup3\n        /* \"protocol/Market.sol\":6604:6614  amount > 0 */\n      gt\n        /* \"protocol/Market.sol\":6596:6615  require(amount > 0) */\n      tag_318\n      jumpi\n      revert(0x00, 0x00)\n    tag_318:\n        /* \"protocol/Market.sol\":6625:6641  accrueInterest() */\n      tag_319\n        /* \"protocol/Market.sol\":6625:6639  accrueInterest */\n      tag_197\n        /* \"protocol/Market.sol\":6625:6641  accrueInterest() */\n      jump\t// in\n    tag_319:\n        /* \"protocol/Market.sol\":6652:6670  Position storage p */\n      0x00\n        /* \"protocol/Market.sol\":6673:6682  positions */\n      0x02\n        /* \"protocol/Market.sol\":6673:6694  positions[msg.sender] */\n      0x00\n        /* \"protocol/Market.sol\":6683:6693  msg.sender */\n      caller\n        /* \"protocol/Market.sol\":6673:6694  positions[msg.sender] */\n      0xffffffffffffffffffffffffffffffffffffffff\n      and\n      0xffffffffffffffffffffffffffffffffffffffff\n      and\n      dup2\n      mstore\n      0x20\n      add\n      swap1\n      dup2\n      mstore\n      0x20\n      add\n      0x00\n      keccak256\n        /* \"protocol/Market.sol\":6652:6694  Position storage p = positions[msg.sender] */\n      swap1\n      pop\n        /* \"protocol/Market.sol\":6704:6713  uint debt */\n      0x00\n        /* \"protocol/Market.sol\":6716:6734  debtOf(msg.sender) */\n      tag_320\n        /* \"protocol/Market.sol\":6723:6733  msg.sender */\n      caller\n        /* \"protocol/Market.sol\":6716:6722  debtOf */\n      tag_231\n        /* \"protocol/Market.sol\":6716:6734  debtOf(msg.sender) */\n      jump\t// in\n    tag_320:\n        /* \"protocol/Market.sol\":6704:6734  uint debt = debtOf(msg.sender) */\n      swap1\n      pop\n        /* \"protocol/Market.sol\":6759:6760  0 */\n      0x00\n        /* \"protocol/Market.sol\":6752:6756  debt */\n      dup2\n        /* \"protocol/Market.sol\":6752:6760  debt > 0 */\n      gt\n        /* \"protocol/Market.sol\":6744:6761  require(debt > 0) */\n      tag_321\n      jumpi\n      revert(0x00, 0x00)\n    tag_321:\n        /* \"protocol/Market.sol\":6771:6785  uint payAmount */\n      0x00\n        /* \"protocol/Market.sol\":6797:6801  debt */\n      dup2\n        /* \"protocol/Market.sol\":6788:6794  amount */\n      dup6\n        /* \"protocol/Market.sol\":6788:6801  amount > debt */\n      gt\n        /* \"protocol/Market.sol\":6788:6817  amount > debt ? debt : amount */\n      tag_322\n      jumpi\n        /* \"protocol/Market.sol\":6811:6817  amount */\n      dup5\n        /* \"protocol/Market.sol\":6788:6817  amount > debt ? debt : amount */\n      jump(tag_323)\n    tag_322:\n        /* \"protocol/Market.sol\":6804:6808  debt */\n      dup2\n        /* \"protocol/Market.sol\":6788:6817  amount > debt ? debt : amount */\n    tag_323:\n        /* \"protocol/Market.sol\":6771:6817  uint payAmount = amount > debt ? debt : amount */\n      swap1\n      pop\n        /* \"protocol/Market.sol\":6827:6836  loanToken */\n      0x03\n      0x00\n      swap1\n      sload\n      swap1\n      0x0100\n      exp\n      swap1\n      div\n      0xffffffffffffffffffffffffffffffffffffffff\n      and\n        /* \"protocol/Market.sol\":6827:6849  loanToken.transferFrom */\n      0xffffffffffffffffffffffffffffffffffffffff\n      and\n      0x23b872dd\n        /* \"protocol/Market.sol\":6850:6860  msg.sender */\n      caller\n        /* \"protocol/Market.sol\":6870:6874  this */\n      address\n        /* \"protocol/Market.sol\":6877:6886  payAmount */\n      dup5\n        /* \"protocol/Market.sol\":6827:6887  loanToken.transferFrom(msg.sender, address(this), payAmount) */\n      mload(0x40)\n      dup5\n      0xffffffff\n      and\n      0xe0\n      shl\n      dup2\n      mstore\n      0x04\n      add\n      tag_324\n      swap4\n      swap3\n      swap2\n      swap1\n      tag_311\n      jump\t// in\n    tag_324:\n      0x20\n      mload(0x40)\n      dup1\n      dup4\n      sub\n      dup2\n      0x00\n      dup8\n      gas\n      call\n      iszero\n      dup1\n      iszero\n      tag_326\n      jumpi\n      returndatacopy(0x00, 0x00, returndatasize)\n      revert(0x00, returndatasize)\n    tag_326:\n      pop\n      pop\n      pop\n      pop\n      mload(0x40)\n      returndatasize\n      not(0x1f)\n      0x1f\n      dup3\n      add\n      and\n      dup3\n      add\n      dup1\n      0x40\n      mstore\n      pop\n      dup2\n      add\n      swap1\n      tag_327\n      swap2\n      swap1\n      tag_282\n      jump\t// in\n    tag_327:\n      pop\n        /* \"protocol/Market.sol\":6898:6916  uint principalPaid */\n      0x00\n        /* \"protocol/Market.sol\":6933:6942  payAmount */\n      dup2\n        /* \"protocol/Market.sol\":6919:6920  p */\n      dup5\n        /* \"protocol/Market.sol\":6919:6930  p.principal */\n      0x02\n      add\n      sload\n        /* \"protocol/Market.sol\":6919:6942  p.principal > payAmount */\n      gt\n        /* \"protocol/Market.sol\":6919:6968  p.principal > payAmount ? payAmount : p.principal */\n      tag_328\n      jumpi\n        /* \"protocol/Market.sol\":6957:6958  p */\n      dup4\n        /* \"protocol/Market.sol\":6957:6968  p.principal */\n      0x02\n      add\n      sload\n        /* \"protocol/Market.sol\":6919:6968  p.principal > payAmount ? payAmount : p.principal */\n      jump(tag_329)\n    tag_328:\n        /* \"protocol/Market.sol\":6945:6954  payAmount */\n      dup2\n        /* \"protocol/Market.sol\":6919:6968  p.principal > payAmount ? payAmount : p.principal */\n    tag_329:\n        /* \"protocol/Market.sol\":6898:6968  uint principalPaid = p.principal > payAmount ? payAmount : p.principal */\n      swap1\n      pop\n        /* \"protocol/Market.sol\":6993:7006  principalPaid */\n      dup1\n        /* \"protocol/Market.sol\":6978:6979  p */\n      dup5\n        /* \"protocol/Market.sol\":6978:6989  p.principal */\n      0x02\n      add\n      0x00\n        /* \"protocol/Market.sol\":6978:7006  p.principal -= principalPaid */\n      dup3\n      dup3\n      sload\n      tag_330\n      swap2\n      swap1\n      tag_275\n      jump\t// in\n    tag_330:\n      swap3\n      pop\n      pop\n      dup2\n      swap1\n      sstore\n      pop\n        /* \"protocol/Market.sol\":7083:7087  1000 */\n      0x03e8\n        /* \"protocol/Market.sol\":7065:7079  protocolFeeBps */\n      sload(0x11)\n        /* \"protocol/Market.sol\":7048:7061  principalPaid */\n      dup3\n        /* \"protocol/Market.sol\":7036:7045  payAmount */\n      dup5\n        /* \"protocol/Market.sol\":7036:7061  payAmount - principalPaid */\n      tag_331\n      swap2\n      swap1\n      tag_275\n      jump\t// in\n    tag_331:\n        /* \"protocol/Market.sol\":7035:7079  (payAmount - principalPaid) * protocolFeeBps */\n      tag_332\n      swap2\n      swap1\n      tag_256\n      jump\t// in\n    tag_332:\n        /* \"protocol/Market.sol\":7034:7087  ((payAmount - principalPaid) * protocolFeeBps) / 1000 */\n      tag_333\n      swap2\n      swap1\n      tag_258\n      jump\t// in\n    tag_333:\n        /* \"protocol/Market.sol\":7016:7030  protocolFeeBps */\n      0x11\n      0x00\n        /* \"protocol/Market.sol\":7016:7087  protocolFeeBps += ((payAmount - principalPaid) * protocolFeeBps) / 1000 */\n      dup3\n      dup3\n      sload\n      tag_334\n      swap2\n      swap1\n      tag_316\n      jump\t// in\n    tag_334:\n      swap3\n      pop\n      pop\n      dup2\n      swap1\n      sstore\n      pop\n        /* \"protocol/Market.sol\":7098:7113  uint burnShares */\n      0x00\n        /* \"protocol/Market.sol\":7129:7133  debt */\n      dup4\n        /* \"protocol/Market.sol\":7116:7125  payAmount */\n      dup4\n        /* \"protocol/Market.sol\":7116:7133  payAmount == debt */\n      eq\n        /* \"protocol/Market.sol\":7116:7216  payAmount == debt... */\n      tag_335\n      jumpi\n        /* \"protocol/Market.sol\":7205:7216  borrowIndex */\n      sload(0x10)\n        /* \"protocol/Market.sol\":454:458  1e18 */\n      0x0de0b6b3a7640000\n        /* \"protocol/Market.sol\":7178:7187  payAmount */\n      dup5\n        /* \"protocol/Market.sol\":7178:7201  payAmount * INDEX_SCALE */\n      tag_336\n      swap2\n      swap1\n      tag_256\n      jump\t// in\n    tag_336:\n        /* \"protocol/Market.sol\":7177:7216  (payAmount * INDEX_SCALE) / borrowIndex */\n      tag_337\n      swap2\n      swap1\n      tag_258\n      jump\t// in\n    tag_337:\n        /* \"protocol/Market.sol\":7116:7216  payAmount == debt... */\n      jump(tag_338)\n    tag_335:\n        /* \"protocol/Market.sol\":7148:7149  p */\n      dup5\n        /* \"protocol/Market.sol\":7148:7162  p.borrowShares */\n      0x01\n      add\n      sload\n        /* \"protocol/Market.sol\":7116:7216  payAmount == debt... */\n    tag_338:\n        /* \"protocol/Market.sol\":7098:7216  uint burnShares = payAmount == debt... */\n      swap1\n      pop\n        /* \"protocol/Market.sol\":7244:7245  p */\n      dup5\n        /* \"protocol/Market.sol\":7244:7258  p.borrowShares */\n      0x01\n      add\n      sload\n        /* \"protocol/Market.sol\":7231:7241  burnShares */\n      dup2\n        /* \"protocol/Market.sol\":7231:7258  burnShares > p.borrowShares */\n      gt\n        /* \"protocol/Market.sol\":7227:7287  if (burnShares > p.borrowShares) burnShares = p.borrowShares */\n      iszero\n      tag_339\n      jumpi\n        /* \"protocol/Market.sol\":7273:7274  p */\n      dup5\n        /* \"protocol/Market.sol\":7273:7287  p.borrowShares */\n      0x01\n      add\n      sload\n        /* \"protocol/Market.sol\":7260:7287  burnShares = p.borrowShares */\n      swap1\n      pop\n        /* \"protocol/Market.sol\":7227:7287  if (burnShares > p.borrowShares) burnShares = p.borrowShares */\n    tag_339:\n        /* \"protocol/Market.sol\":7315:7325  burnShares */\n      dup1\n        /* \"protocol/Market.sol\":7297:7298  p */\n      dup6\n        /* \"protocol/Market.sol\":7297:7311  p.borrowShares */\n      0x01\n      add\n      0x00\n        /* \"protocol/Market.sol\":7297:7325  p.borrowShares -= burnShares */\n      dup3\n      dup3\n      sload\n      tag_340\n      swap2\n      swap1\n      tag_275\n      jump\t// in\n    tag_340:\n      swap3\n      pop\n      pop\n      dup2\n      swap1\n      sstore\n      pop\n        /* \"protocol/Market.sol\":7356:7366  burnShares */\n      dup1\n        /* \"protocol/Market.sol\":7335:7352  totalBorrowShares */\n      0x13\n      0x00\n        /* \"protocol/Market.sol\":7335:7366  totalBorrowShares -= burnShares */\n      dup3\n      dup3\n      sload\n      tag_341\n      swap2\n      swap1\n      tag_275\n      jump\t// in\n    tag_341:\n      swap3\n      pop\n      pop\n      dup2\n      swap1\n      sstore\n      pop\n        /* \"protocol/Market.sol\":7392:7410  debtOf(msg.sender) */\n      tag_342\n        /* \"protocol/Market.sol\":7399:7409  msg.sender */\n      caller\n        /* \"protocol/Market.sol\":7392:7398  debtOf */\n      tag_231\n        /* \"protocol/Market.sol\":7392:7410  debtOf(msg.sender) */\n      jump\t// in\n    tag_342:\n        /* \"protocol/Market.sol\":7376:7410  remainingDebt = debtOf(msg.sender) */\n      swap6\n      pop\n        /* \"protocol/Market.sol\":6586:7417  {... */\n      pop\n      pop\n      pop\n      pop\n      pop\n        /* \"protocol/Market.sol\":6520:7417  function repay(uint amount) external returns (uint remainingDebt) {... */\n      swap2\n      swap1\n      pop\n      jump\t// out\n        /* \"protocol/Market.sol\":8191:8352  function onVaultWithdraw(uint amount) external onlyVault {... */\n    tag_111:\n        /* \"protocol/Market.sol\":1039:1044  vault */\n      0x09\n      0x00\n      swap1\n      sload\n      swap1\n      0x0100\n      exp\n      swap1\n      div\n      0xffffffffffffffffffffffffffffffffffffffff\n      and\n        /* \"protocol/Market.sol\":1025:1044  msg.sender == vault */\n      0xffffffffffffffffffffffffffffffffffffffff\n      and\n        /* \"protocol/Market.sol\":1025:1035  msg.sender */\n      caller\n        /* \"protocol/Market.sol\":1025:1044  msg.sender == vault */\n      0xffffffffffffffffffffffffffffffffffffffff\n      and\n      eq\n        /* \"protocol/Market.sol\":1017:1045  require(msg.sender == vault) */\n      tag_344\n      jumpi\n      revert(0x00, 0x00)\n    tag_344:\n        /* \"protocol/Market.sol\":8276:8296  availableLiquidity() */\n      tag_346\n        /* \"protocol/Market.sol\":8276:8294  availableLiquidity */\n      tag_156\n        /* \"protocol/Market.sol\":8276:8296  availableLiquidity() */\n      jump\t// in\n    tag_346:\n        /* \"protocol/Market.sol\":8266:8272  amount */\n      dup2\n        /* \"protocol/Market.sol\":8266:8296  amount <= availableLiquidity() */\n      gt\n      iszero\n        /* \"protocol/Market.sol\":8258:8297  require(amount <= availableLiquidity()) */\n      tag_347\n      jumpi\n      revert(0x00, 0x00)\n    tag_347:\n        /* \"protocol/Market.sol\":8307:8316  loanToken */\n      0x03\n      0x00\n      swap1\n      sload\n      swap1\n      0x0100\n      exp\n      swap1\n      div\n      0xffffffffffffffffffffffffffffffffffffffff\n      and\n        /* \"protocol/Market.sol\":8307:8325  loanToken.transfer */\n      0xffffffffffffffffffffffffffffffffffffffff\n      and\n      0xa9059cbb\n        /* \"protocol/Market.sol\":8326:8336  msg.sender */\n      caller\n        /* \"protocol/Market.sol\":8338:8344  amount */\n      dup4\n        /* \"protocol/Market.sol\":8307:8345  loanToken.transfer(msg.sender, amount) */\n      mload(0x40)\n      dup4\n      0xffffffff\n      and\n      0xe0\n      shl\n      dup2\n      mstore\n      0x04\n      add\n      tag_348\n      swap3\n      swap2\n      swap1\n      tag_278\n      jump\t// in\n    tag_348:\n      0x20\n      mload(0x40)\n      dup1\n      dup4\n      sub\n      dup2\n      0x00\n      dup8\n      gas\n      call\n      iszero\n      dup1\n      iszero\n      tag_350\n      jumpi\n      returndatacopy(0x00, 0x00, returndatasize)\n      revert(0x00, returndatasize)\n    tag_350:\n      pop\n      pop\n      pop\n      pop\n      mload(0x40)\n      returndatasize\n      not(0x1f)\n      0x1f\n      dup3\n      add\n      and\n      dup3\n      add\n      dup1\n      0x40\n      mstore\n      pop\n      dup2\n      add\n      swap1\n      tag_351\n      swap2\n      swap1\n      tag_282\n      jump\t// in\n    tag_351:\n      pop\n        /* \"protocol/Market.sol\":8191:8352  function onVaultWithdraw(uint amount) external onlyVault {... */\n      pop\n      jump\t// out\n        /* \"protocol/Market.sol\":1488:1513  address public liquidator */\n    tag_114:\n      0x08\n      0x00\n      swap1\n      sload\n      swap1\n      0x0100\n      exp\n      swap1\n      div\n      0xffffffffffffffffffffffffffffffffffffffff\n      and\n      dup2\n      jump\t// out\n        /* \"protocol/Market.sol\":1433:1452  string public title */\n    tag_119:\n      0x06\n      dup1\n      sload\n      tag_352\n      swap1\n      tag_353\n      jump\t// in\n    tag_352:\n      dup1\n      0x1f\n      add\n      0x20\n      dup1\n      swap2\n      div\n      mul\n      0x20\n      add\n      mload(0x40)\n      swap1\n      dup2\n      add\n      0x40\n      mstore\n      dup1\n      swap3\n      swap2\n      swap1\n      dup2\n      dup2\n      mstore\n      0x20\n      add\n      dup3\n      dup1\n      sload\n      tag_354\n      swap1\n      tag_353\n      jump\t// in\n    tag_354:\n      dup1\n      iszero\n      tag_355\n      jumpi\n      dup1\n      0x1f\n      lt\n      tag_356\n      jumpi\n      0x0100\n      dup1\n      dup4\n      sload\n      div\n      mul\n      dup4\n      mstore\n      swap2\n      0x20\n      add\n      swap2\n      jump(tag_355)\n    tag_356:\n      dup3\n      add\n      swap2\n      swap1\n      0x00\n      mstore\n      keccak256(0x00, 0x20)\n      swap1\n    tag_357:\n      dup2\n      sload\n      dup2\n      mstore\n      swap1\n      0x01\n      add\n      swap1\n      0x20\n      add\n      dup1\n      dup4\n      gt\n      tag_357\n      jumpi\n      dup3\n      swap1\n      sub\n      0x1f\n      and\n      dup3\n      add\n      swap2\n    tag_355:\n      pop\n      pop\n      pop\n      pop\n      pop\n      dup2\n      jump\t// out\n        /* \"protocol/Market.sol\":8127:8185  function onVaultDeposit(uint amount) external onlyVault {} */\n    tag_125:\n        /* \"protocol/Market.sol\":1039:1044  vault */\n      0x09\n      0x00\n      swap1\n      sload\n      swap1\n      0x0100\n      exp\n      swap1\n      div\n      0xffffffffffffffffffffffffffffffffffffffff\n      and\n        /* \"protocol/Market.sol\":1025:1044  msg.sender == vault */\n      0xffffffffffffffffffffffffffffffffffffffff\n      and\n        /* \"protocol/Market.sol\":1025:1035  msg.sender */\n      caller\n        /* \"protocol/Market.sol\":1025:1044  msg.sender == vault */\n      0xffffffffffffffffffffffffffffffffffffffff\n      and\n      eq\n        /* \"protocol/Market.sol\":1017:1045  require(msg.sender == vault) */\n      tag_359\n      jumpi\n      revert(0x00, 0x00)\n    tag_359:\n        /* \"protocol/Market.sol\":8127:8185  function onVaultDeposit(uint amount) external onlyVault {} */\n      pop\n      jump\t// out\n        /* \"proxy/UUPSUpgradeable.sol\":2028:2240  function upgradeToAndCall(address newImplementation, bytes calldata data) external payable onlyProxy {... */\n    tag_129:\n        /* \"proxy/UUPSUpgradeable.sol\":1200:1206  __self */\n      immutable(\"0x2e415caec8d91e458e1b9987576611b087b1a3cc6a704a90bb9e06da9759f8e6\")\n        /* \"proxy/UUPSUpgradeable.sol\":1183:1206  address(this) != __self */\n      0xffffffffffffffffffffffffffffffffffffffff\n      and\n        /* \"proxy/UUPSUpgradeable.sol\":1191:1195  this */\n      address\n        /* \"proxy/UUPSUpgradeable.sol\":1183:1206  address(this) != __self */\n      0xffffffffffffffffffffffffffffffffffffffff\n      and\n      sub\n        /* \"proxy/UUPSUpgradeable.sol\":1175:1227  require(address(this) != __self, \"NOT_DELEGATECALL\") */\n      tag_362\n      jumpi\n      mload(0x40)\n      0x08c379a000000000000000000000000000000000000000000000000000000000\n      dup2\n      mstore\n      0x04\n      add\n      tag_363\n      swap1\n      tag_298\n      jump\t// in\n    tag_363:\n      mload(0x40)\n      dup1\n      swap2\n      sub\n      swap1\n      revert\n    tag_362:\n        /* \"proxy/UUPSUpgradeable.sol\":1269:1275  __self */\n      immutable(\"0x2e415caec8d91e458e1b9987576611b087b1a3cc6a704a90bb9e06da9759f8e6\")\n        /* \"proxy/UUPSUpgradeable.sol\":1245:1275  _getImplementation() == __self */\n      0xffffffffffffffffffffffffffffffffffffffff\n      and\n        /* \"proxy/UUPSUpgradeable.sol\":1245:1265  _getImplementation() */\n      tag_364\n        /* \"proxy/UUPSUpgradeable.sol\":1245:1263  _getImplementation */\n      tag_300\n        /* \"proxy/UUPSUpgradeable.sol\":1245:1265  _getImplementation() */\n      jump\t// in\n    tag_364:\n        /* \"proxy/UUPSUpgradeable.sol\":1245:1275  _getImplementation() == __self */\n      0xffffffffffffffffffffffffffffffffffffffff\n      and\n      eq\n        /* \"proxy/UUPSUpgradeable.sol\":1237:1294  require(_getImplementation() == __self, \"INACTIVE_PROXY\") */\n      tag_365\n      jumpi\n      mload(0x40)\n      0x08c379a000000000000000000000000000000000000000000000000000000000\n      dup2\n      mstore\n      0x04\n      add\n      tag_366\n      swap1\n      tag_303\n      jump\t// in\n    tag_366:\n      mload(0x40)\n      dup1\n      swap2\n      sub\n      swap1\n      revert\n    tag_365:\n        /* \"proxy/UUPSUpgradeable.sol\":2139:2175  _authorizeUpgrade(newImplementation) */\n      tag_368\n        /* \"proxy/UUPSUpgradeable.sol\":2157:2174  newImplementation */\n      dup4\n        /* \"proxy/UUPSUpgradeable.sol\":2139:2156  _authorizeUpgrade */\n      tag_306\n        /* \"proxy/UUPSUpgradeable.sol\":2139:2175  _authorizeUpgrade(newImplementation) */\n      jump\t// in\n    tag_368:\n        /* \"proxy/UUPSUpgradeable.sol\":2185:2233  _upgradeToAndCall(newImplementation, data, true) */\n      tag_369\n        /* \"proxy/UUPSUpgradeable.sol\":2203:2220  newImplementation */\n      dup4\n        /* \"proxy/UUPSUpgradeable.sol\":2222:2226  data */\n      dup4\n      dup4\n        /* \"proxy/UUPSUpgradeable.sol\":2185:2233  _upgradeToAndCall(newImplementation, data, true) */\n      dup1\n      dup1\n      0x1f\n      add\n      0x20\n      dup1\n      swap2\n      div\n      mul\n      0x20\n      add\n      mload(0x40)\n      swap1\n      dup2\n      add\n      0x40\n      mstore\n      dup1\n      swap4\n      swap3\n      swap2\n      swap1\n      dup2\n      dup2\n      mstore\n      0x20\n      add\n      dup4\n      dup4\n      dup1\n      dup3\n      dup5\n      calldatacopy\n      0x00\n      dup2\n      dup5\n      add\n      mstore\n      not(0x1f)\n      0x1f\n      dup3\n      add\n      and\n      swap1\n      pop\n      dup1\n      dup4\n      add\n      swap3\n      pop\n      pop\n      pop\n      pop\n      pop\n      pop\n      pop\n        /* \"proxy/UUPSUpgradeable.sol\":2228:2232  true */\n      0x01\n        /* \"proxy/UUPSUpgradeable.sol\":2185:2202  _upgradeToAndCall */\n      tag_308\n        /* \"proxy/UUPSUpgradeable.sol\":2185:2233  _upgradeToAndCall(newImplementation, data, true) */\n      jump\t// in\n    tag_369:\n        /* \"proxy/UUPSUpgradeable.sol\":2028:2240  function upgradeToAndCall(address newImplementation, bytes calldata data) external payable onlyProxy {... */\n      pop\n      pop\n      pop\n      jump\t// out\n        /* \"proxy/UUPSUpgradeable.sol\":1577:1690  function proxiableUUID() external view notDelegated returns (bytes32) {... */\n    tag_132:\n        /* \"proxy/UUPSUpgradeable.sol\":1638:1645  bytes32 */\n      0x00\n        /* \"proxy/UUPSUpgradeable.sol\":1471:1477  __self */\n      immutable(\"0x2e415caec8d91e458e1b9987576611b087b1a3cc6a704a90bb9e06da9759f8e6\")\n        /* \"proxy/UUPSUpgradeable.sol\":1454:1477  address(this) == __self */\n      0xffffffffffffffffffffffffffffffffffffffff\n      and\n        /* \"proxy/UUPSUpgradeable.sol\":1462:1466  this */\n      address\n        /* \"proxy/UUPSUpgradeable.sol\":1454:1477  address(this) == __self */\n      0xffffffffffffffffffffffffffffffffffffffff\n      and\n      eq\n        /* \"proxy/UUPSUpgradeable.sol\":1446:1501  require(address(this) == __self, \"ONLY_IMPLEMENTATION\") */\n      tag_371\n      jumpi\n      mload(0x40)\n      0x08c379a000000000000000000000000000000000000000000000000000000000\n      dup2\n      mstore\n      0x04\n      add\n      tag_372\n      swap1\n      tag_373\n      jump\t// in\n    tag_372:\n      mload(0x40)\n      dup1\n      swap2\n      sub\n      swap1\n      revert\n    tag_371:\n        /* \"proxy/UUPSUpgradeable.sol\":793:859  0x360894A13BA1A3210667C828492DB98DCA3E2076CC3735A920A3CA505D382BBC */\n      0x360894a13ba1a3210667c828492db98dca3e2076cc3735a920a3ca505d382bbc\n        /* \"proxy/UUPSUpgradeable.sol\":1664:1683  IMPLEMENTATION_SLOT */\n      0x00\n      shl\n        /* \"proxy/UUPSUpgradeable.sol\":1657:1683  return IMPLEMENTATION_SLOT */\n      swap1\n      pop\n        /* \"proxy/UUPSUpgradeable.sol\":1577:1690  function proxiableUUID() external view notDelegated returns (bytes32) {... */\n      swap1\n      jump\t// out\n        /* \"protocol/Market.sol\":934:979  mapping(address => Position) public positions */\n    tag_138:\n      mstore(0x20, 0x02)\n      dup1\n      0x00\n      mstore\n      keccak256(0x00, 0x40)\n      0x00\n      swap2\n      pop\n      swap1\n      pop\n      dup1\n      0x00\n      add\n      sload\n      swap1\n      dup1\n      0x01\n      add\n      sload\n      swap1\n      dup1\n      0x02\n      add\n      sload\n      swap1\n      pop\n      dup4\n      jump\t// out\n        /* \"protocol/Market.sol\":5464:5809  function withdrawCollateral(uint amount) external {... */\n    tag_144:\n        /* \"protocol/Market.sol\":5541:5542  0 */\n      0x00\n        /* \"protocol/Market.sol\":5532:5538  amount */\n      dup2\n        /* \"protocol/Market.sol\":5532:5542  amount > 0 */\n      gt\n        /* \"protocol/Market.sol\":5524:5543  require(amount > 0) */\n      tag_376\n      jumpi\n      revert(0x00, 0x00)\n    tag_376:\n        /* \"protocol/Market.sol\":5553:5569  accrueInterest() */\n      tag_377\n        /* \"protocol/Market.sol\":5553:5567  accrueInterest */\n      tag_197\n        /* \"protocol/Market.sol\":5553:5569  accrueInterest() */\n      jump\t// in\n    tag_377:\n        /* \"protocol/Market.sol\":5580:5598  Position storage p */\n      0x00\n        /* \"protocol/Market.sol\":5601:5610  positions */\n      0x02\n        /* \"protocol/Market.sol\":5601:5622  positions[msg.sender] */\n      0x00\n        /* \"protocol/Market.sol\":5611:5621  msg.sender */\n      caller\n        /* \"protocol/Market.sol\":5601:5622  positions[msg.sender] */\n      0xffffffffffffffffffffffffffffffffffffffff\n      and\n      0xffffffffffffffffffffffffffffffffffffffff\n      and\n      dup2\n      mstore\n      0x20\n      add\n      swap1\n      dup2\n      mstore\n      0x20\n      add\n      0x00\n      keccak256\n        /* \"protocol/Market.sol\":5580:5622  Position storage p = positions[msg.sender] */\n      swap1\n      pop\n        /* \"protocol/Market.sol\":5650:5651  p */\n      dup1\n        /* \"protocol/Market.sol\":5650:5668  p.collateralShares */\n      0x00\n      add\n      sload\n        /* \"protocol/Market.sol\":5640:5646  amount */\n      dup3\n        /* \"protocol/Market.sol\":5640:5668  amount <= p.collateralShares */\n      gt\n      iszero\n        /* \"protocol/Market.sol\":5632:5669  require(amount <= p.collateralShares) */\n      tag_378\n      jumpi\n      revert(0x00, 0x00)\n    tag_378:\n        /* \"protocol/Market.sol\":5701:5707  amount */\n      dup2\n        /* \"protocol/Market.sol\":5679:5680  p */\n      dup2\n        /* \"protocol/Market.sol\":5679:5697  p.collateralShares */\n      0x00\n      add\n      0x00\n        /* \"protocol/Market.sol\":5679:5707  p.collateralShares -= amount */\n      dup3\n      dup3\n      sload\n      tag_379\n      swap2\n      swap1\n      tag_275\n      jump\t// in\n    tag_379:\n      swap3\n      pop\n      pop\n      dup2\n      swap1\n      sstore\n      pop\n        /* \"protocol/Market.sol\":5725:5747  _isHealthy(msg.sender) */\n      tag_380\n        /* \"protocol/Market.sol\":5736:5746  msg.sender */\n      caller\n        /* \"protocol/Market.sol\":5725:5735  _isHealthy */\n      tag_188\n        /* \"protocol/Market.sol\":5725:5747  _isHealthy(msg.sender) */\n      jump\t// in\n    tag_380:\n        /* \"protocol/Market.sol\":5717:5748  require(_isHealthy(msg.sender)) */\n      tag_381\n      jumpi\n      revert(0x00, 0x00)\n    tag_381:\n        /* \"protocol/Market.sol\":5758:5773  collateralToken */\n      0x04\n      0x00\n      swap1\n      sload\n      swap1\n      0x0100\n      exp\n      swap1\n      div\n      0xffffffffffffffffffffffffffffffffffffffff\n      and\n        /* \"protocol/Market.sol\":5758:5782  collateralToken.transfer */\n      0xffffffffffffffffffffffffffffffffffffffff\n      and\n      0xa9059cbb\n        /* \"protocol/Market.sol\":5783:5793  msg.sender */\n      caller\n        /* \"protocol/Market.sol\":5795:5801  amount */\n      dup5\n        /* \"protocol/Market.sol\":5758:5802  collateralToken.transfer(msg.sender, amount) */\n      mload(0x40)\n      dup4\n      0xffffffff\n      and\n      0xe0\n      shl\n      dup2\n      mstore\n      0x04\n      add\n      tag_382\n      swap3\n      swap2\n      swap1\n      tag_278\n      jump\t// in\n    tag_382:\n      0x20\n      mload(0x40)\n      dup1\n      dup4\n      sub\n      dup2\n      0x00\n      dup8\n      gas\n      call\n      iszero\n      dup1\n      iszero\n      tag_384\n      jumpi\n      returndatacopy(0x00, 0x00, returndatasize)\n      revert(0x00, returndatasize)\n    tag_384:\n      pop\n      pop\n      pop\n      pop\n      mload(0x40)\n      returndatasize\n      not(0x1f)\n      0x1f\n      dup3\n      add\n      and\n      dup3\n      add\n      dup1\n      0x40\n      mstore\n      pop\n      dup2\n      add\n      swap1\n      tag_385\n      swap2\n      swap1\n      tag_282\n      jump\t// in\n    tag_385:\n      pop\n        /* \"protocol/Market.sol\":5514:5809  {... */\n      pop\n        /* \"protocol/Market.sol\":5464:5809  function withdrawCollateral(uint amount) external {... */\n      pop\n      jump\t// out\n        /* \"protocol/Market.sol\":1545:1568  address public treasury */\n    tag_147:\n      0x0a\n      0x00\n      swap1\n      sload\n      swap1\n      0x0100\n      exp\n      swap1\n      div\n      0xffffffffffffffffffffffffffffffffffffffff\n      and\n      dup2\n      jump\t// out\n        /* \"protocol/Market.sol\":5815:6025  function healthFactor(address borrower) public view returns (uint) {... */\n    tag_152:\n        /* \"protocol/Market.sol\":5876:5880  uint */\n      0x00\n        /* \"protocol/Market.sol\":5892:5900  uint ltv */\n      0x00\n        /* \"protocol/Market.sol\":5903:5927  currentLltvBps(borrower) */\n      tag_387\n        /* \"protocol/Market.sol\":5918:5926  borrower */\n      dup4\n        /* \"protocol/Market.sol\":5903:5917  currentLltvBps */\n      tag_170\n        /* \"protocol/Market.sol\":5903:5927  currentLltvBps(borrower) */\n      jump\t// in\n    tag_387:\n        /* \"protocol/Market.sol\":5892:5927  uint ltv = currentLltvBps(borrower) */\n      swap1\n      pop\n        /* \"protocol/Market.sol\":5948:5949  0 */\n      0x00\n        /* \"protocol/Market.sol\":5941:5944  ltv */\n      dup2\n        /* \"protocol/Market.sol\":5941:5949  ltv == 0 */\n      sub\n        /* \"protocol/Market.sol\":5937:5972  if (ltv == 0) return type(uint).max */\n      tag_388\n      jumpi\n        /* \"protocol/Market.sol\":5958:5972  type(uint).max */\n      0xffffffffffffffffffffffffffffffffffffffffffffffffffffffffffffffff\n        /* \"protocol/Market.sol\":5951:5972  return type(uint).max */\n      swap2\n      pop\n      pop\n      jump(tag_386)\n        /* \"protocol/Market.sol\":5937:5972  if (ltv == 0) return type(uint).max */\n    tag_388:\n        /* \"protocol/Market.sol\":6015:6018  ltv */\n      dup1\n        /* \"protocol/Market.sol\":454:458  1e18 */\n      0x0de0b6b3a7640000\n        /* \"protocol/Market.sol\":5990:5997  lltvBps */\n      sload(0x0b)\n        /* \"protocol/Market.sol\":5990:6011  lltvBps * INDEX_SCALE */\n      tag_389\n      swap2\n      swap1\n      tag_256\n      jump\t// in\n    tag_389:\n        /* \"protocol/Market.sol\":5989:6018  (lltvBps * INDEX_SCALE) / ltv */\n      tag_390\n      swap2\n      swap1\n      tag_258\n      jump\t// in\n    tag_390:\n        /* \"protocol/Market.sol\":5982:6018  return (lltvBps * INDEX_SCALE) / ltv */\n      swap2\n      pop\n      pop\n        /* \"protocol/Market.sol\":5815:6025  function healthFactor(address borrower) public view returns (uint) {... */\n    tag_386:\n      swap2\n      swap1\n      pop\n      jump\t// out\n        /* \"protocol/Market.sol\":3288:3476  function availableLiquidity() public view returns (uint) {... */\n    tag_156:\n        /* \"protocol/Market.sol\":3339:3343  uint */\n      0x00\n        /* \"protocol/Market.sol\":3355:3363  uint bal */\n      0x00\n        /* \"protocol/Market.sol\":3366:3375  loanToken */\n      0x03\n      0x00\n      swap1\n      sload\n      swap1\n      0x0100\n      exp\n      swap1\n      div\n      0xffffffffffffffffffffffffffffffffffffffff\n      and\n        /* \"protocol/Market.sol\":3366:3385  loanToken.balanceOf */\n      0xffffffffffffffffffffffffffffffffffffffff\n      and\n      0x70a08231\n        /* \"protocol/Market.sol\":3394:3398  this */\n      address\n        /* \"protocol/Market.sol\":3366:3400  loanToken.balanceOf(address(this)) */\n      mload(0x40)\n      dup3\n      0xffffffff\n      and\n      0xe0\n      shl\n      dup2\n      mstore\n      0x04\n      add\n      tag_392\n      swap2\n      swap1\n      tag_116\n      jump\t// in\n    tag_392:\n      0x20\n      mload(0x40)\n      dup1\n      dup4\n      sub\n      dup2\n      dup7\n      gas\n      staticcall\n      iszero\n      dup1\n      iszero\n      tag_394\n      jumpi\n      returndatacopy(0x00, 0x00, returndatasize)\n      revert(0x00, returndatasize)\n    tag_394:\n      pop\n      pop\n      pop\n      pop\n      mload(0x40)\n      returndatasize\n      not(0x1f)\n      0x1f\n      dup3\n      add\n      and\n      dup3\n      add\n      dup1\n      0x40\n      mstore\n      pop\n      dup2\n      add\n      swap1\n      tag_395\n      swap2\n      swap1\n      tag_396\n      jump\t// in\n    tag_395:\n        /* \"protocol/Market.sol\":3355:3400  uint bal = loanToken.balanceOf(address(this)) */\n      swap1\n      pop\n        /* \"protocol/Market.sol\":3424:3440  protocolReserves */\n      sload(0x12)\n        /* \"protocol/Market.sol\":3417:3420  bal */\n      dup2\n        /* \"protocol/Market.sol\":3417:3440  bal <= protocolReserves */\n      gt\n      iszero\n        /* \"protocol/Market.sol\":3417:3469  bal <= protocolReserves ? 0 : bal - protocolReserves */\n      tag_397\n      jumpi\n        /* \"protocol/Market.sol\":3453:3469  protocolReserves */\n      sload(0x12)\n        /* \"protocol/Market.sol\":3447:3450  bal */\n      dup2\n        /* \"protocol/Market.sol\":3447:3469  bal - protocolReserves */\n      tag_398\n      swap2\n      swap1\n      tag_275\n      jump\t// in\n    tag_398:\n        /* \"protocol/Market.sol\":3417:3469  bal <= protocolReserves ? 0 : bal - protocolReserves */\n      jump(tag_399)\n    tag_397:\n        /* \"protocol/Market.sol\":3443:3444  0 */\n      0x00\n        /* \"protocol/Market.sol\":3417:3469  bal <= protocolReserves ? 0 : bal - protocolReserves */\n    tag_399:\n        /* \"protocol/Market.sol\":3410:3469  return bal <= protocolReserves ? 0 : bal - protocolReserves */\n      swap2\n      pop\n      pop\n        /* \"protocol/Market.sol\":3288:3476  function availableLiquidity() public view returns (uint) {... */\n      swap1\n      jump\t// out\n        /* \"protocol/Market.sol\":1458:1481  string public shareName */\n    tag_160:\n      0x07\n      dup1\n      sload\n      tag_400\n      swap1\n      tag_353\n      jump\t// in\n    tag_400:\n      dup1\n      0x1f\n      add\n      0x20\n      dup1\n      swap2\n      div\n      mul\n      0x20\n      add\n      mload(0x40)\n      swap1\n      dup2\n      add\n      0x40\n      mstore\n      dup1\n      swap3\n      swap2\n      swap1\n      dup2\n      dup2\n      mstore\n      0x20\n      add\n      dup3\n      dup1\n      sload\n      tag_401\n      swap1\n      tag_353\n      jump\t// in\n    tag_401:\n      dup1\n      iszero\n      tag_402\n      jumpi\n      dup1\n      0x1f\n      lt\n      tag_403\n      jumpi\n      0x0100\n      dup1\n      dup4\n      sload\n      div\n      mul\n      dup4\n      mstore\n      swap2\n      0x20\n      add\n      swap2\n      jump(tag_402)\n    tag_403:\n      dup3\n      add\n      swap2\n      swap1\n      0x00\n      mstore\n      keccak256(0x00, 0x20)\n      swap1\n    tag_404:\n      dup2\n      sload\n      dup2\n      mstore\n      swap1\n      0x01\n      add\n      swap1\n      0x20\n      add\n      dup1\n      dup4\n      gt\n      tag_404\n      jumpi\n      dup3\n      swap1\n      sub\n      0x1f\n      and\n      dup3\n      add\n      swap2\n    tag_402:\n      pop\n      pop\n      pop\n      pop\n      pop\n      dup2\n      jump\t// out\n        /* \"protocol/Market.sol\":464:490  address[] public borrowers */\n    tag_165:\n      0x01\n      dup2\n      dup2\n      sload\n      dup2\n      lt\n      tag_405\n      jumpi\n      0x00\n      dup1\n      revert\n    tag_405:\n      swap1\n      0x00\n      mstore\n      keccak256(0x00, 0x20)\n      add\n      0x00\n      swap2\n      pop\n      sload\n      swap1\n      0x0100\n      exp\n      swap1\n      div\n      0xffffffffffffffffffffffffffffffffffffffff\n      and\n      dup2\n      jump\t// out\n        /* \"protocol/Market.sol\":4808:5266  function currentLltvBps(address borrower) public view returns (uint) {... */\n    tag_170:\n        /* \"protocol/Market.sol\":4871:4875  uint */\n      0x00\n        /* \"protocol/Market.sol\":4915:4916  0 */\n      0x00\n        /* \"protocol/Market.sol\":4895:4917  borrower != address(0) */\n      0xffffffffffffffffffffffffffffffffffffffff\n      and\n        /* \"protocol/Market.sol\":4895:4903  borrower */\n      dup3\n        /* \"protocol/Market.sol\":4895:4917  borrower != address(0) */\n      0xffffffffffffffffffffffffffffffffffffffff\n      and\n      sub\n        /* \"protocol/Market.sol\":4887:4918  require(borrower != address(0)) */\n      tag_408\n      jumpi\n      revert(0x00, 0x00)\n    tag_408:\n        /* \"protocol/Market.sol\":4928:4937  uint debt */\n      0x00\n        /* \"protocol/Market.sol\":4940:4956  debtOf(borrower) */\n      tag_409\n        /* \"protocol/Market.sol\":4947:4955  borrower */\n      dup4\n        /* \"protocol/Market.sol\":4940:4946  debtOf */\n      tag_231\n        /* \"protocol/Market.sol\":4940:4956  debtOf(borrower) */\n      jump\t// in\n    tag_409:\n        /* \"protocol/Market.sol\":4928:4956  uint debt = debtOf(borrower) */\n      swap1\n      pop\n        /* \"protocol/Market.sol\":4966:4984  Position storage p */\n      0x00\n        /* \"protocol/Market.sol\":4987:4996  positions */\n      0x02\n        /* \"protocol/Market.sol\":4987:5006  positions[borrower] */\n      0x00\n        /* \"protocol/Market.sol\":4997:5005  borrower */\n      dup6\n        /* \"protocol/Market.sol\":4987:5006  positions[borrower] */\n      0xffffffffffffffffffffffffffffffffffffffff\n      and\n      0xffffffffffffffffffffffffffffffffffffffff\n      and\n      dup2\n      mstore\n      0x20\n      add\n      swap1\n      dup2\n      mstore\n      0x20\n      add\n      0x00\n      keccak256\n        /* \"protocol/Market.sol\":4966:5006  Position storage p = positions[borrower] */\n      swap1\n      pop\n        /* \"protocol/Market.sol\":5028:5029  0 */\n      0x00\n        /* \"protocol/Market.sol\":5020:5024  debt */\n      dup3\n        /* \"protocol/Market.sol\":5020:5029  debt == 0 */\n      sub\n        /* \"protocol/Market.sol\":5016:5039  if (debt == 0) return 0 */\n      tag_410\n      jumpi\n        /* \"protocol/Market.sol\":5038:5039  0 */\n      0x00\n        /* \"protocol/Market.sol\":5031:5039  return 0 */\n      swap3\n      pop\n      pop\n      pop\n      jump(tag_407)\n        /* \"protocol/Market.sol\":5016:5039  if (debt == 0) return 0 */\n    tag_410:\n        /* \"protocol/Market.sol\":5075:5076  0 */\n      0x00\n        /* \"protocol/Market.sol\":5053:5054  p */\n      dup2\n        /* \"protocol/Market.sol\":5053:5071  p.collateralShares */\n      0x00\n      add\n      sload\n        /* \"protocol/Market.sol\":5053:5076  p.collateralShares == 0 */\n      sub\n        /* \"protocol/Market.sol\":5049:5099  if (p.collateralShares == 0) return type(uint).max */\n      tag_411\n      jumpi\n        /* \"protocol/Market.sol\":5085:5099  type(uint).max */\n      0xffffffffffffffffffffffffffffffffffffffffffffffffffffffffffffffff\n        /* \"protocol/Market.sol\":5078:5099  return type(uint).max */\n      swap3\n      pop\n      pop\n      pop\n      jump(tag_407)\n        /* \"protocol/Market.sol\":5049:5099  if (p.collateralShares == 0) return type(uint).max */\n    tag_411:\n        /* \"protocol/Market.sol\":5217:5223  oracle */\n      0x05\n      0x00\n      swap1\n      sload\n      swap1\n      0x0100\n      exp\n      swap1\n      div\n      0xffffffffffffffffffffffffffffffffffffffff\n      and\n        /* \"protocol/Market.sol\":5217:5232  oracle.getPrice */\n      0xffffffffffffffffffffffffffffffffffffffff\n      and\n      0x41976e09\n        /* \"protocol/Market.sol\":5241:5256  collateralToken */\n      0x04\n      0x00\n      swap1\n      sload\n      swap1\n      0x0100\n      exp\n      swap1\n      div\n      0xffffffffffffffffffffffffffffffffffffffff\n      and\n        /* \"protocol/Market.sol\":5217:5258  oracle.getPrice(address(collateralToken)) */\n      mload(0x40)\n      dup3\n      0xffffffff\n      and\n      0xe0\n      shl\n      dup2\n      mstore\n      0x04\n      add\n      tag_412\n      swap2\n      swap1\n      tag_116\n      jump\t// in\n    tag_412:\n      0x20\n      mload(0x40)\n      dup1\n      dup4\n      sub\n      dup2\n      dup7\n      gas\n      staticcall\n      iszero\n      dup1\n      iszero\n      tag_414\n      jumpi\n      returndatacopy(0x00, 0x00, returndatasize)\n      revert(0x00, returndatasize)\n    tag_414:\n      pop\n      pop\n      pop\n      pop\n      mload(0x40)\n      returndatasize\n      not(0x1f)\n      0x1f\n      dup3\n      add\n      and\n      dup3\n      add\n      dup1\n      0x40\n      mstore\n      pop\n      dup2\n      add\n      swap1\n      tag_415\n      swap2\n      swap1\n      tag_396\n      jump\t// in\n    tag_415:\n        /* \"protocol/Market.sol\":5196:5197  p */\n      dup2\n        /* \"protocol/Market.sol\":5196:5214  p.collateralShares */\n      0x00\n      add\n      sload\n        /* \"protocol/Market.sol\":5196:5258  p.collateralShares * oracle.getPrice(address(collateralToken)) */\n      tag_416\n      swap2\n      swap1\n      tag_256\n      jump\t// in\n    tag_416:\n        /* \"protocol/Market.sol\":5174:5179  10000 */\n      0x2710\n        /* \"protocol/Market.sol\":5136:5142  oracle */\n      0x05\n      0x00\n      swap1\n      sload\n      swap1\n      0x0100\n      exp\n      swap1\n      div\n      0xffffffffffffffffffffffffffffffffffffffff\n      and\n        /* \"protocol/Market.sol\":5136:5151  oracle.getPrice */\n      0xffffffffffffffffffffffffffffffffffffffff\n      and\n      0x41976e09\n        /* \"protocol/Market.sol\":5160:5169  loanToken */\n      0x03\n      0x00\n      swap1\n      sload\n      swap1\n      0x0100\n      exp\n      swap1\n      div\n      0xffffffffffffffffffffffffffffffffffffffff\n      and\n        /* \"protocol/Market.sol\":5136:5171  oracle.getPrice(address(loanToken)) */\n      mload(0x40)\n      dup3\n      0xffffffff\n      and\n      0xe0\n      shl\n      dup2\n      mstore\n      0x04\n      add\n      tag_417\n      swap2\n      swap1\n      tag_116\n      jump\t// in\n    tag_417:\n      0x20\n      mload(0x40)\n      dup1\n      dup4\n      sub\n      dup2\n      dup7\n      gas\n      staticcall\n      iszero\n      dup1\n      iszero\n      tag_419\n      jumpi\n      returndatacopy(0x00, 0x00, returndatasize)\n      revert(0x00, returndatasize)\n    tag_419:\n      pop\n      pop\n      pop\n      pop\n      mload(0x40)\n      returndatasize\n      not(0x1f)\n      0x1f\n      dup3\n      add\n      and\n      dup3\n      add\n      dup1\n      0x40\n      mstore\n      pop\n      dup2\n      add\n      swap1\n      tag_420\n      swap2\n      swap1\n      tag_396\n      jump\t// in\n    tag_420:\n        /* \"protocol/Market.sol\":5129:5133  debt */\n      dup5\n        /* \"protocol/Market.sol\":5129:5171  debt * oracle.getPrice(address(loanToken)) */\n      tag_421\n      swap2\n      swap1\n      tag_256\n      jump\t// in\n    tag_421:\n        /* \"protocol/Market.sol\":5129:5179  debt * oracle.getPrice(address(loanToken)) * 10000 */\n      tag_422\n      swap2\n      swap1\n      tag_256\n      jump\t// in\n    tag_422:\n        /* \"protocol/Market.sol\":5128:5259  (debt * oracle.getPrice(address(loanToken)) * 10000) /... */\n      tag_423\n      swap2\n      swap1\n      tag_258\n      jump\t// in\n    tag_423:\n        /* \"protocol/Market.sol\":5109:5259  return... */\n      swap3\n      pop\n      pop\n      pop\n        /* \"protocol/Market.sol\":4808:5266  function currentLltvBps(address borrower) public view returns (uint) {... */\n    tag_407:\n      swap2\n      swap1\n      pop\n      jump\t// out\n        /* \"protocol/Market.sol\":1600:1624  uint public interestRate */\n    tag_174:\n      sload(0x0c)\n      dup2\n      jump\t// out\n        /* \"protocol/Market.sol\":1405:1426  IOracle public oracle */\n    tag_178:\n      0x05\n      0x00\n      swap1\n      sload\n      swap1\n      0x0100\n      exp\n      swap1\n      div\n      0xffffffffffffffffffffffffffffffffffffffff\n      and\n      dup2\n      jump\t// out\n        /* \"acess/Ownable.sol\":133:153  address public owner */\n    tag_183:\n      0x00\n      0x02\n      swap1\n      sload\n      swap1\n      0x0100\n      exp\n      swap1\n      div\n      0xffffffffffffffffffffffffffffffffffffffff\n      and\n      dup2\n      jump\t// out\n        /* \"protocol/Market.sol\":4088:4211  function _isHealthy(address borrower) public view returns (bool) {... */\n    tag_188:\n        /* \"protocol/Market.sol\":4147:4151  bool */\n      0x00\n        /* \"protocol/Market.sol\":4197:4204  lltvBps */\n      sload(0x0b)\n        /* \"protocol/Market.sol\":4170:4194  currentLltvBps(borrower) */\n      tag_425\n        /* \"protocol/Market.sol\":4185:4193  borrower */\n      dup4\n        /* \"protocol/Market.sol\":4170:4184  currentLltvBps */\n      tag_170\n        /* \"protocol/Market.sol\":4170:4194  currentLltvBps(borrower) */\n      jump\t// in\n    tag_425:\n        /* \"protocol/Market.sol\":4170:4204  currentLltvBps(borrower) < lltvBps */\n      lt\n        /* \"protocol/Market.sol\":4163:4204  return currentLltvBps(borrower) < lltvBps */\n      swap1\n      pop\n        /* \"protocol/Market.sol\":4088:4211  function _isHealthy(address borrower) public view returns (bool) {... */\n      swap2\n      swap1\n      pop\n      jump\t// out\n        /* \"protocol/Market.sol\":1630:1655  uint public blocksPerYear */\n    tag_193:\n      sload(0x0d)\n      dup2\n      jump\t// out\n        /* \"protocol/Market.sol\":2903:3282  function accrueInterest() public {... */\n    tag_197:\n        /* \"protocol/Market.sol\":2966:2981  lastAccrueBlock */\n      sload(0x0f)\n        /* \"protocol/Market.sol\":2950:2962  block.number */\n      number\n        /* \"protocol/Market.sol\":2950:2981  block.number == lastAccrueBlock */\n      sub\n        /* \"protocol/Market.sol\":2946:2990  if (block.number == lastAccrueBlock) return; */\n      iszero\n        /* \"protocol/Market.sol\":2983:2990  return; */\n      tag_426\n        /* \"protocol/Market.sol\":2946:2990  if (block.number == lastAccrueBlock) return; */\n      jumpi\n        /* \"protocol/Market.sol\":3023:3024  0 */\n      0x00\n        /* \"protocol/Market.sol\":3003:3020  totalBorrowShares */\n      sload(0x13)\n        /* \"protocol/Market.sol\":3003:3024  totalBorrowShares > 0 */\n      gt\n        /* \"protocol/Market.sol\":2999:3236  if (totalBorrowShares > 0) {... */\n      iszero\n      tag_428\n      jumpi\n        /* \"protocol/Market.sol\":3040:3056  uint deltaBlocks */\n      0x00\n        /* \"protocol/Market.sol\":3074:3089  lastAccrueBlock */\n      sload(0x0f)\n        /* \"protocol/Market.sol\":3059:3071  block.number */\n      number\n        /* \"protocol/Market.sol\":3059:3089  block.number - lastAccrueBlock */\n      tag_429\n      swap2\n      swap1\n      tag_275\n      jump\t// in\n    tag_429:\n        /* \"protocol/Market.sol\":3040:3089  uint deltaBlocks = block.number - lastAccrueBlock */\n      swap1\n      pop\n        /* \"protocol/Market.sol\":3103:3114  uint growth */\n      0x00\n        /* \"protocol/Market.sol\":3148:3161  blocksPerYear */\n      sload(0x0d)\n        /* \"protocol/Market.sol\":3133:3144  deltaBlocks */\n      dup3\n        /* \"protocol/Market.sol\":3118:3130  interestRate */\n      sload(0x0c)\n        /* \"protocol/Market.sol\":3118:3144  interestRate * deltaBlocks */\n      tag_430\n      swap2\n      swap1\n      tag_256\n      jump\t// in\n    tag_430:\n        /* \"protocol/Market.sol\":3117:3161  (interestRate * deltaBlocks) / blocksPerYear */\n      tag_431\n      swap2\n      swap1\n      tag_258\n      jump\t// in\n    tag_431:\n        /* \"protocol/Market.sol\":3103:3161  uint growth = (interestRate * deltaBlocks) / blocksPerYear */\n      swap1\n      pop\n        /* \"protocol/Market.sol\":454:458  1e18 */\n      0x0de0b6b3a7640000\n        /* \"protocol/Market.sol\":3204:3210  growth */\n      dup2\n        /* \"protocol/Market.sol\":3190:3201  borrowIndex */\n      sload(0x10)\n        /* \"protocol/Market.sol\":3190:3210  borrowIndex * growth */\n      tag_432\n      swap2\n      swap1\n      tag_256\n      jump\t// in\n    tag_432:\n        /* \"protocol/Market.sol\":3189:3225  (borrowIndex * growth) / INDEX_SCALE */\n      tag_433\n      swap2\n      swap1\n      tag_258\n      jump\t// in\n    tag_433:\n        /* \"protocol/Market.sol\":3175:3186  borrowIndex */\n      0x10\n        /* \"protocol/Market.sol\":3175:3225  borrowIndex = (borrowIndex * growth) / INDEX_SCALE */\n      dup2\n      swap1\n      sstore\n      pop\n        /* \"protocol/Market.sol\":3026:3236  {... */\n      pop\n      pop\n        /* \"protocol/Market.sol\":2999:3236  if (totalBorrowShares > 0) {... */\n    tag_428:\n        /* \"protocol/Market.sol\":3263:3275  block.number */\n      number\n        /* \"protocol/Market.sol\":3245:3260  lastAccrueBlock */\n      sload(0x0f)\n        /* \"protocol/Market.sol\":3245:3275  lastAccrueBlock - block.number */\n      tag_434\n      swap2\n      swap1\n      tag_275\n      jump\t// in\n    tag_434:\n      pop\n        /* \"protocol/Market.sol\":2903:3282  function accrueInterest() public {... */\n    tag_426:\n      jump\t// out\n        /* \"protocol/Market.sol\":1731:1754  uint public borrowIndex */\n    tag_200:\n      sload(0x10)\n      dup2\n      jump\t// out\n        /* \"protocol/Market.sol\":1862:2897  function initialize(... */\n    tag_206:\n        /* \"utils/Init.sol\":1076:1088  _initialized */\n      0x00\n      0x00\n      swap1\n      sload\n      swap1\n      0x0100\n      exp\n      swap1\n      div\n      0xff\n      and\n        /* \"utils/Init.sol\":1075:1088  !_initialized */\n      iszero\n        /* \"utils/Init.sol\":1075:1105  !_initialized || _initializing */\n      dup1\n      tag_436\n      jumpi\n      pop\n        /* \"utils/Init.sol\":1092:1105  _initializing */\n      0x00\n      0x01\n      swap1\n      sload\n      swap1\n      0x0100\n      exp\n      swap1\n      div\n      0xff\n      and\n        /* \"utils/Init.sol\":1075:1105  !_initialized || _initializing */\n    tag_436:\n        /* \"utils/Init.sol\":1067:1129  require(!_initialized || _initializing, \"ALREADY_INITIALIZED\") */\n      tag_437\n      jumpi\n      mload(0x40)\n      0x08c379a000000000000000000000000000000000000000000000000000000000\n      dup2\n      mstore\n      0x04\n      add\n      tag_438\n      swap1\n      tag_439\n      jump\t// in\n    tag_438:\n      mload(0x40)\n      dup1\n      swap2\n      sub\n      swap1\n      revert\n    tag_437:\n        /* \"utils/Init.sol\":1139:1154  bool isTopLevel */\n      0x00\n        /* \"utils/Init.sol\":1158:1171  _initializing */\n      0x00\n      0x01\n      swap1\n      sload\n      swap1\n      0x0100\n      exp\n      swap1\n      div\n      0xff\n      and\n        /* \"utils/Init.sol\":1157:1171  !_initializing */\n      iszero\n        /* \"utils/Init.sol\":1139:1171  bool isTopLevel = !_initializing */\n      swap1\n      pop\n        /* \"utils/Init.sol\":1186:1196  isTopLevel */\n      dup1\n        /* \"utils/Init.sol\":1182:1244  if (isTopLevel) { _initializing = true; _initialized = true; } */\n      iszero\n      tag_440\n      jumpi\n        /* \"utils/Init.sol\":1216:1220  true */\n      0x01\n        /* \"utils/Init.sol\":1200:1213  _initializing */\n      0x00\n      0x01\n        /* \"utils/Init.sol\":1200:1220  _initializing = true */\n      0x0100\n      exp\n      dup2\n      sload\n      dup2\n      0xff\n      mul\n      not\n      and\n      swap1\n      dup4\n      iszero\n      iszero\n      mul\n      or\n      swap1\n      sstore\n      pop\n        /* \"utils/Init.sol\":1237:1241  true */\n      0x01\n        /* \"utils/Init.sol\":1222:1234  _initialized */\n      0x00\n      0x00\n        /* \"utils/Init.sol\":1222:1241  _initialized = true */\n      0x0100\n      exp\n      dup2\n      sload\n      dup2\n      0xff\n      mul\n      not\n      and\n      swap1\n      dup4\n      iszero\n      iszero\n      mul\n      or\n      swap1\n      sstore\n      pop\n        /* \"utils/Init.sol\":1182:1244  if (isTopLevel) { _initializing = true; _initialized = true; } */\n    tag_440:\n        /* \"protocol/Market.sol\":2045:2046  0 */\n      0x00\n        /* \"protocol/Market.sol\":2026:2047  p.vault != address(0) */\n      0xffffffffffffffffffffffffffffffffffffffff\n      and\n        /* \"protocol/Market.sol\":2026:2027  p */\n      dup7\n        /* \"protocol/Market.sol\":2026:2033  p.vault */\n      0xc0\n      add\n      0x20\n      dup2\n      add\n      swap1\n      tag_442\n      swap2\n      swap1\n      tag_64\n      jump\t// in\n    tag_442:\n        /* \"protocol/Market.sol\":2026:2047  p.vault != address(0) */\n      0xffffffffffffffffffffffffffffffffffffffff\n      and\n      sub\n        /* \"protocol/Market.sol\":2018:2048  require(p.vault != address(0)) */\n      tag_443\n      jumpi\n      revert(0x00, 0x00)\n    tag_443:\n        /* \"protocol/Market.sol\":2089:2090  0 */\n      0x00\n        /* \"protocol/Market.sol\":2066:2091  p.loanToken != address(0) */\n      0xffffffffffffffffffffffffffffffffffffffff\n      and\n        /* \"protocol/Market.sol\":2066:2067  p */\n      dup7\n        /* \"protocol/Market.sol\":2066:2077  p.loanToken */\n      0x60\n      add\n      0x20\n      dup2\n      add\n      swap1\n      tag_444\n      swap2\n      swap1\n      tag_64\n      jump\t// in\n    tag_444:\n        /* \"protocol/Market.sol\":2066:2091  p.loanToken != address(0) */\n      0xffffffffffffffffffffffffffffffffffffffff\n      and\n      sub\n        /* \"protocol/Market.sol\":2058:2092  require(p.loanToken != address(0)) */\n      tag_445\n      jumpi\n      revert(0x00, 0x00)\n    tag_445:\n        /* \"protocol/Market.sol\":2139:2140  0 */\n      0x00\n        /* \"protocol/Market.sol\":2110:2141  p.collateralToken != address(0) */\n      0xffffffffffffffffffffffffffffffffffffffff\n      and\n        /* \"protocol/Market.sol\":2110:2111  p */\n      dup7\n        /* \"protocol/Market.sol\":2110:2127  p.collateralToken */\n      0x80\n      add\n      0x20\n      dup2\n      add\n      swap1\n      tag_446\n      swap2\n      swap1\n      tag_64\n      jump\t// in\n    tag_446:\n        /* \"protocol/Market.sol\":2110:2141  p.collateralToken != address(0) */\n      0xffffffffffffffffffffffffffffffffffffffff\n      and\n      sub\n        /* \"protocol/Market.sol\":2102:2142  require(p.collateralToken != address(0)) */\n      tag_447\n      jumpi\n      revert(0x00, 0x00)\n    tag_447:\n        /* \"protocol/Market.sol\":2180:2181  0 */\n      0x00\n        /* \"protocol/Market.sol\":2160:2182  p.oracle != address(0) */\n      0xffffffffffffffffffffffffffffffffffffffff\n      and\n        /* \"protocol/Market.sol\":2160:2161  p */\n      dup7\n        /* \"protocol/Market.sol\":2160:2168  p.oracle */\n      0xa0\n      add\n      0x20\n      dup2\n      add\n      swap1\n      tag_448\n      swap2\n      swap1\n      tag_64\n      jump\t// in\n    tag_448:\n        /* \"protocol/Market.sol\":2160:2182  p.oracle != address(0) */\n      0xffffffffffffffffffffffffffffffffffffffff\n      and\n      sub\n        /* \"protocol/Market.sol\":2152:2183  require(p.oracle != address(0)) */\n      tag_449\n      jumpi\n      revert(0x00, 0x00)\n    tag_449:\n        /* \"protocol/Market.sol\":2217:2218  0 */\n      0x00\n        /* \"protocol/Market.sol\":2201:2214  blocksPerYear */\n      sload(0x0d)\n        /* \"protocol/Market.sol\":2201:2218  blocksPerYear > 0 */\n      gt\n        /* \"protocol/Market.sol\":2193:2219  require(blocksPerYear > 0) */\n      tag_450\n      jumpi\n      revert(0x00, 0x00)\n    tag_450:\n        /* \"protocol/Market.sol\":2262:2267  10000 */\n      0x2710\n        /* \"protocol/Market.sol\":2237:2238  p */\n      dup7\n        /* \"protocol/Market.sol\":2237:2258  p.liquidationBonusBps */\n      0x0140\n      add\n      calldataload\n        /* \"protocol/Market.sol\":2237:2267  p.liquidationBonusBps <= 10000 */\n      gt\n      iszero\n        /* \"protocol/Market.sol\":2229:2268  require(p.liquidationBonusBps <= 10000) */\n      tag_451\n      jumpi\n      revert(0x00, 0x00)\n    tag_451:\n        /* \"protocol/Market.sol\":2299:2305  100000 */\n      0x0186a0\n        /* \"protocol/Market.sol\":2286:2287  p */\n      dup7\n        /* \"protocol/Market.sol\":2286:2295  p.lltvBps */\n      0xe0\n      add\n      calldataload\n        /* \"protocol/Market.sol\":2286:2305  p.lltvBps <= 100000 */\n      gt\n      iszero\n        /* \"protocol/Market.sol\":2278:2306  require(p.lltvBps <= 100000) */\n      tag_452\n      jumpi\n      revert(0x00, 0x00)\n    tag_452:\n        /* \"protocol/Market.sol\":2317:2340  __Ownable_init(p.owner) */\n      tag_453\n        /* \"protocol/Market.sol\":2332:2333  p */\n      dup7\n        /* \"protocol/Market.sol\":2332:2339  p.owner */\n      0x00\n      add\n      0x20\n      dup2\n      add\n      swap1\n      tag_454\n      swap2\n      swap1\n      tag_64\n      jump\t// in\n    tag_454:\n        /* \"protocol/Market.sol\":2317:2331  __Ownable_init */\n      tag_455\n        /* \"protocol/Market.sol\":2317:2340  __Ownable_init(p.owner) */\n      jump\t// in\n    tag_453:\n        /* \"protocol/Market.sol\":2359:2365  title_ */\n      dup5\n      dup5\n        /* \"protocol/Market.sol\":2351:2356  title */\n      0x06\n        /* \"protocol/Market.sol\":2351:2365  title = title_ */\n      swap2\n      dup3\n      tag_456\n      swap3\n      swap2\n      swap1\n      tag_457\n      jump\t// in\n    tag_456:\n      pop\n        /* \"protocol/Market.sol\":2387:2397  shareName_ */\n      dup3\n      dup3\n        /* \"protocol/Market.sol\":2375:2384  shareName */\n      0x07\n        /* \"protocol/Market.sol\":2375:2397  shareName = shareName_ */\n      swap2\n      dup3\n      tag_458\n      swap3\n      swap2\n      swap1\n      tag_457\n      jump\t// in\n    tag_458:\n      pop\n        /* \"protocol/Market.sol\":2427:2428  p */\n      dup6\n        /* \"protocol/Market.sol\":2427:2438  p.loanToken */\n      0x60\n      add\n      0x20\n      dup2\n      add\n      swap1\n      tag_459\n      swap2\n      swap1\n      tag_64\n      jump\t// in\n    tag_459:\n        /* \"protocol/Market.sol\":2408:2417  loanToken */\n      0x03\n      0x00\n        /* \"protocol/Market.sol\":2408:2439  loanToken = IERC20(p.loanToken) */\n      0x0100\n      exp\n      dup2\n      sload\n      dup2\n      0xffffffffffffffffffffffffffffffffffffffff\n      mul\n      not\n      and\n      swap1\n      dup4\n      0xffffffffffffffffffffffffffffffffffffffff\n      and\n      mul\n      or\n      swap1\n      sstore\n      pop\n        /* \"protocol/Market.sol\":2474:2475  p */\n      dup6\n        /* \"protocol/Market.sol\":2474:2491  p.collateralToken */\n      0x80\n      add\n      0x20\n      dup2\n      add\n      swap1\n      tag_460\n      swap2\n      swap1\n      tag_64\n      jump\t// in\n    tag_460:\n        /* \"protocol/Market.sol\":2449:2464  collateralToken */\n      0x04\n      0x00\n        /* \"protocol/Market.sol\":2449:2492  collateralToken = IERC20(p.collateralToken) */\n      0x0100\n      exp\n      dup2\n      sload\n      dup2\n      0xffffffffffffffffffffffffffffffffffffffff\n      mul\n      not\n      and\n      swap1\n      dup4\n      0xffffffffffffffffffffffffffffffffffffffff\n      and\n      mul\n      or\n      swap1\n      sstore\n      pop\n        /* \"protocol/Market.sol\":2519:2520  p */\n      dup6\n        /* \"protocol/Market.sol\":2519:2527  p.oracle */\n      0xa0\n      add\n      0x20\n      dup2\n      add\n      swap1\n      tag_461\n      swap2\n      swap1\n      tag_64\n      jump\t// in\n    tag_461:\n        /* \"protocol/Market.sol\":2502:2508  oracle */\n      0x05\n      0x00\n        /* \"protocol/Market.sol\":2502:2528  oracle = IOracle(p.oracle) */\n      0x0100\n      exp\n      dup2\n      sload\n      dup2\n      0xffffffffffffffffffffffffffffffffffffffff\n      mul\n      not\n      and\n      swap1\n      dup4\n      0xffffffffffffffffffffffffffffffffffffffff\n      and\n      mul\n      or\n      swap1\n      sstore\n      pop\n        /* \"protocol/Market.sol\":2547:2548  p */\n      dup6\n        /* \"protocol/Market.sol\":2547:2554  p.vault */\n      0xc0\n      add\n      0x20\n      dup2\n      add\n      swap1\n      tag_462\n      swap2\n      swap1\n      tag_64\n      jump\t// in\n    tag_462:\n        /* \"protocol/Market.sol\":2539:2544  vault */\n      0x09\n      0x00\n        /* \"protocol/Market.sol\":2539:2554  vault = p.vault */\n      0x0100\n      exp\n      dup2\n      sload\n      dup2\n      0xffffffffffffffffffffffffffffffffffffffff\n      mul\n      not\n      and\n      swap1\n      dup4\n      0xffffffffffffffffffffffffffffffffffffffff\n      and\n      mul\n      or\n      swap1\n      sstore\n      pop\n        /* \"protocol/Market.sol\":2575:2576  p */\n      dup6\n        /* \"protocol/Market.sol\":2575:2585  p.treasury */\n      0x40\n      add\n      0x20\n      dup2\n      add\n      swap1\n      tag_463\n      swap2\n      swap1\n      tag_64\n      jump\t// in\n    tag_463:\n        /* \"protocol/Market.sol\":2564:2572  treasury */\n      0x0a\n      0x00\n        /* \"protocol/Market.sol\":2564:2585  treasury = p.treasury */\n      0x0100\n      exp\n      dup2\n      sload\n      dup2\n      0xffffffffffffffffffffffffffffffffffffffff\n      mul\n      not\n      and\n      swap1\n      dup4\n      0xffffffffffffffffffffffffffffffffffffffff\n      and\n      mul\n      or\n      swap1\n      sstore\n      pop\n        /* \"protocol/Market.sol\":2608:2609  p */\n      dup6\n        /* \"protocol/Market.sol\":2608:2620  p.liquidator */\n      0x20\n      add\n      0x20\n      dup2\n      add\n      swap1\n      tag_464\n      swap2\n      swap1\n      tag_64\n      jump\t// in\n    tag_464:\n        /* \"protocol/Market.sol\":2595:2605  liquidator */\n      0x08\n      0x00\n        /* \"protocol/Market.sol\":2595:2620  liquidator = p.liquidator */\n      0x0100\n      exp\n      dup2\n      sload\n      dup2\n      0xffffffffffffffffffffffffffffffffffffffff\n      mul\n      not\n      and\n      swap1\n      dup4\n      0xffffffffffffffffffffffffffffffffffffffff\n      and\n      mul\n      or\n      swap1\n      sstore\n      pop\n        /* \"protocol/Market.sol\":2641:2642  p */\n      dup6\n        /* \"protocol/Market.sol\":2641:2650  p.lltvBps */\n      0xe0\n      add\n      calldataload\n        /* \"protocol/Market.sol\":2631:2638  lltvBps */\n      0x0b\n        /* \"protocol/Market.sol\":2631:2650  lltvBps = p.lltvBps */\n      dup2\n      swap1\n      sstore\n      pop\n        /* \"protocol/Market.sol\":2678:2690  block.number */\n      number\n        /* \"protocol/Market.sol\":2660:2675  lastAccrueBlock */\n      0x0f\n        /* \"protocol/Market.sol\":2660:2690  lastAccrueBlock = block.number */\n      dup2\n      swap1\n      sstore\n      pop\n        /* \"protocol/Market.sol\":2716:2717  p */\n      dup6\n        /* \"protocol/Market.sol\":2716:2731  p.blocksPerYear */\n      0x0120\n      add\n      calldataload\n        /* \"protocol/Market.sol\":2700:2713  blocksPerYear */\n      0x0d\n        /* \"protocol/Market.sol\":2700:2731  blocksPerYear = p.blocksPerYear */\n      dup2\n      swap1\n      sstore\n      pop\n        /* \"protocol/Market.sol\":2756:2757  p */\n      dup6\n        /* \"protocol/Market.sol\":2756:2770  p.interestRate */\n      0x0100\n      add\n      calldataload\n        /* \"protocol/Market.sol\":2741:2753  interestRate */\n      0x0c\n        /* \"protocol/Market.sol\":2741:2770  interestRate = p.interestRate */\n      dup2\n      swap1\n      sstore\n      pop\n        /* \"protocol/Market.sol\":454:458  1e18 */\n      0x0de0b6b3a7640000\n        /* \"protocol/Market.sol\":2780:2791  borrowIndex */\n      0x10\n        /* \"protocol/Market.sol\":2780:2805  borrowIndex = INDEX_SCALE */\n      dup2\n      swap1\n      sstore\n      pop\n        /* \"protocol/Market.sol\":2837:2838  p */\n      dup6\n        /* \"protocol/Market.sol\":2837:2858  p.liquidationBonusBps */\n      0x0140\n      add\n      calldataload\n        /* \"protocol/Market.sol\":2815:2834  liquidationBonusBps */\n      0x0e\n        /* \"protocol/Market.sol\":2815:2858  liquidationBonusBps = p.liquidationBonusBps */\n      dup2\n      swap1\n      sstore\n      pop\n        /* \"protocol/Market.sol\":2885:2890  30000 */\n      0x7530\n        /* \"protocol/Market.sol\":2868:2882  protocolFeeBps */\n      0x11\n        /* \"protocol/Market.sol\":2868:2890  protocolFeeBps = 30000 */\n      dup2\n      swap1\n      sstore\n      pop\n        /* \"utils/Init.sol\":1270:1280  isTopLevel */\n      dup1\n        /* \"utils/Init.sol\":1266:1303  if (isTopLevel) _initializing = false */\n      iszero\n      tag_465\n      jumpi\n        /* \"utils/Init.sol\":1298:1303  false */\n      0x00\n        /* \"utils/Init.sol\":1282:1295  _initializing */\n      0x00\n      0x01\n        /* \"utils/Init.sol\":1282:1303  _initializing = false */\n      0x0100\n      exp\n      dup2\n      sload\n      dup2\n      0xff\n      mul\n      not\n      and\n      swap1\n      dup4\n      iszero\n      iszero\n      mul\n      or\n      swap1\n      sstore\n      pop\n        /* \"utils/Init.sol\":1266:1303  if (isTopLevel) _initializing = false */\n    tag_465:\n        /* \"utils/Init.sol\":1057:1310  {... */\n      pop\n        /* \"protocol/Market.sol\":1862:2897  function initialize(... */\n      pop\n      pop\n      pop\n      pop\n      pop\n      jump\t// out\n        /* \"protocol/Market.sol\":1370:1399  IERC20 public collateralToken */\n    tag_209:\n      0x04\n      0x00\n      swap1\n      sload\n      swap1\n      0x0100\n      exp\n      swap1\n      div\n      0xffffffffffffffffffffffffffffffffffffffff\n      and\n      dup2\n      jump\t// out\n        /* \"protocol/Market.sol\":1575:1594  uint public lltvBps */\n    tag_213:\n      sload(0x0b)\n      dup2\n      jump\t// out\n        /* \"protocol/Market.sol\":6031:6514  function borrow(uint amount) external {... */\n    tag_218:\n        /* \"protocol/Market.sol\":6096:6097  0 */\n      0x00\n        /* \"protocol/Market.sol\":6087:6093  amount */\n      dup2\n        /* \"protocol/Market.sol\":6087:6097  amount > 0 */\n      gt\n        /* \"protocol/Market.sol\":6079:6098  require(amount > 0) */\n      tag_467\n      jumpi\n      revert(0x00, 0x00)\n    tag_467:\n        /* \"protocol/Market.sol\":6108:6124  accrueInterest() */\n      tag_468\n        /* \"protocol/Market.sol\":6108:6122  accrueInterest */\n      tag_197\n        /* \"protocol/Market.sol\":6108:6124  accrueInterest() */\n      jump\t// in\n    tag_468:\n        /* \"protocol/Market.sol\":6153:6173  availableLiquidity() */\n      tag_469\n        /* \"protocol/Market.sol\":6153:6171  availableLiquidity */\n      tag_156\n        /* \"protocol/Market.sol\":6153:6173  availableLiquidity() */\n      jump\t// in\n    tag_469:\n        /* \"protocol/Market.sol\":6143:6149  amount */\n      dup2\n        /* \"protocol/Market.sol\":6143:6173  amount <= availableLiquidity() */\n      gt\n      iszero\n        /* \"protocol/Market.sol\":6135:6174  require(amount <= availableLiquidity()) */\n      tag_470\n      jumpi\n      revert(0x00, 0x00)\n    tag_470:\n        /* \"protocol/Market.sol\":6184:6202  Position storage p */\n      0x00\n        /* \"protocol/Market.sol\":6205:6214  positions */\n      0x02\n        /* \"protocol/Market.sol\":6205:6226  positions[msg.sender] */\n      0x00\n        /* \"protocol/Market.sol\":6215:6225  msg.sender */\n      caller\n        /* \"protocol/Market.sol\":6205:6226  positions[msg.sender] */\n      0xffffffffffffffffffffffffffffffffffffffff\n      and\n      0xffffffffffffffffffffffffffffffffffffffff\n      and\n      dup2\n      mstore\n      0x20\n      add\n      swap1\n      dup2\n      mstore\n      0x20\n      add\n      0x00\n      keccak256\n        /* \"protocol/Market.sol\":6184:6226  Position storage p = positions[msg.sender] */\n      swap1\n      pop\n        /* \"protocol/Market.sol\":6236:6247  uint shares */\n      0x00\n        /* \"protocol/Market.sol\":6250:6280  _sharesForBorrowAmount(amount) */\n      tag_471\n        /* \"protocol/Market.sol\":6273:6279  amount */\n      dup4\n        /* \"protocol/Market.sol\":6250:6272  _sharesForBorrowAmount */\n      tag_58\n        /* \"protocol/Market.sol\":6250:6280  _sharesForBorrowAmount(amount) */\n      jump\t// in\n    tag_471:\n        /* \"protocol/Market.sol\":6236:6280  uint shares = _sharesForBorrowAmount(amount) */\n      swap1\n      pop\n        /* \"protocol/Market.sol\":6308:6314  shares */\n      dup1\n        /* \"protocol/Market.sol\":6290:6291  p */\n      dup3\n        /* \"protocol/Market.sol\":6290:6304  p.borrowShares */\n      0x01\n      add\n      0x00\n        /* \"protocol/Market.sol\":6290:6314  p.borrowShares += shares */\n      dup3\n      dup3\n      sload\n      tag_472\n      swap2\n      swap1\n      tag_316\n      jump\t// in\n    tag_472:\n      swap3\n      pop\n      pop\n      dup2\n      swap1\n      sstore\n      pop\n        /* \"protocol/Market.sol\":6339:6345  shares */\n      dup1\n        /* \"protocol/Market.sol\":6324:6325  p */\n      dup3\n        /* \"protocol/Market.sol\":6324:6335  p.principal */\n      0x02\n      add\n      0x00\n        /* \"protocol/Market.sol\":6324:6345  p.principal += shares */\n      dup3\n      dup3\n      sload\n      tag_473\n      swap2\n      swap1\n      tag_316\n      jump\t// in\n    tag_473:\n      swap3\n      pop\n      pop\n      dup2\n      swap1\n      sstore\n      pop\n        /* \"protocol/Market.sol\":6376:6382  shares */\n      dup1\n        /* \"protocol/Market.sol\":6355:6372  totalBorrowShares */\n      0x13\n      0x00\n        /* \"protocol/Market.sol\":6355:6382  totalBorrowShares += shares */\n      dup3\n      dup3\n      sload\n      tag_474\n      swap2\n      swap1\n      tag_316\n      jump\t// in\n    tag_474:\n      swap3\n      pop\n      pop\n      dup2\n      swap1\n      sstore\n      pop\n        /* \"protocol/Market.sol\":6400:6422  _isHealthy(msg.sender) */\n      tag_475\n        /* \"protocol/Market.sol\":6411:6421  msg.sender */\n      caller\n        /* \"protocol/Market.sol\":6400:6410  _isHealthy */\n      tag_188\n        /* \"protocol/Market.sol\":6400:6422  _isHealthy(msg.sender) */\n      jump\t// in\n    tag_475:\n        /* \"protocol/Market.sol\":6392:6423  require(_isHealthy(msg.sender)) */\n      tag_476\n      jumpi\n      revert(0x00, 0x00)\n    tag_476:\n        /* \"protocol/Market.sol\":6433:6442  loanToken */\n      0x03\n      0x00\n      swap1\n      sload\n      swap1\n      0x0100\n      exp\n      swap1\n      div\n      0xffffffffffffffffffffffffffffffffffffffff\n      and\n        /* \"protocol/Market.sol\":6433:6451  loanToken.transfer */\n      0xffffffffffffffffffffffffffffffffffffffff\n      and\n      0xa9059cbb\n        /* \"protocol/Market.sol\":6452:6462  msg.sender */\n      caller\n        /* \"protocol/Market.sol\":6464:6470  amount */\n      dup6\n        /* \"protocol/Market.sol\":6433:6471  loanToken.transfer(msg.sender, amount) */\n      mload(0x40)\n      dup4\n      0xffffffff\n      and\n      0xe0\n      shl\n      dup2\n      mstore\n      0x04\n      add\n      tag_477\n      swap3\n      swap2\n      swap1\n      tag_278\n      jump\t// in\n    tag_477:\n      0x20\n      mload(0x40)\n      dup1\n      dup4\n      sub\n      dup2\n      0x00\n      dup8\n      gas\n      call\n      iszero\n      dup1\n      iszero\n      tag_479\n      jumpi\n      returndatacopy(0x00, 0x00, returndatasize)\n      revert(0x00, returndatasize)\n    tag_479:\n      pop\n      pop\n      pop\n      pop\n      mload(0x40)\n      returndatasize\n      not(0x1f)\n      0x1f\n      dup3\n      add\n      and\n      dup3\n      add\n      dup1\n      0x40\n      mstore\n      pop\n      dup2\n      add\n      swap1\n      tag_480\n      swap2\n      swap1\n      tag_282\n      jump\t// in\n    tag_480:\n      pop\n        /* \"protocol/Market.sol\":6481:6490  borrowers */\n      0x01\n        /* \"protocol/Market.sol\":6496:6506  msg.sender */\n      caller\n        /* \"protocol/Market.sol\":6481:6507  borrowers.push(msg.sender) */\n      swap1\n      dup1\n      0x01\n      dup2\n      sload\n      add\n      dup1\n      dup3\n      sstore\n      dup1\n      swap2\n      pop\n      pop\n      0x01\n      swap1\n      sub\n      swap1\n      0x00\n      mstore\n      keccak256(0x00, 0x20)\n      add\n      0x00\n      swap1\n      swap2\n      swap1\n      swap2\n      swap1\n      swap2\n      0x0100\n      exp\n      dup2\n      sload\n      dup2\n      0xffffffffffffffffffffffffffffffffffffffff\n      mul\n      not\n      and\n      swap1\n      dup4\n      0xffffffffffffffffffffffffffffffffffffffff\n      and\n      mul\n      or\n      swap1\n      sstore\n      pop\n        /* \"protocol/Market.sol\":6069:6514  {... */\n      pop\n      pop\n        /* \"protocol/Market.sol\":6031:6514  function borrow(uint amount) external {... */\n      pop\n      jump\t// out\n        /* \"protocol/Market.sol\":4694:4802  function assetManage() public view returns (uint) {... */\n    tag_221:\n        /* \"protocol/Market.sol\":4738:4742  uint */\n      0x00\n        /* \"protocol/Market.sol\":4784:4795  totalDebt() */\n      tag_483\n        /* \"protocol/Market.sol\":4784:4793  totalDebt */\n      tag_251\n        /* \"protocol/Market.sol\":4784:4795  totalDebt() */\n      jump\t// in\n    tag_483:\n        /* \"protocol/Market.sol\":4761:4781  availableLiquidity() */\n      tag_484\n        /* \"protocol/Market.sol\":4761:4779  availableLiquidity */\n      tag_156\n        /* \"protocol/Market.sol\":4761:4781  availableLiquidity() */\n      jump\t// in\n    tag_484:\n        /* \"protocol/Market.sol\":4761:4795  availableLiquidity() + totalDebt() */\n      tag_485\n      swap2\n      swap1\n      tag_316\n      jump\t// in\n    tag_485:\n        /* \"protocol/Market.sol\":4754:4795  return availableLiquidity() + totalDebt() */\n      swap1\n      pop\n        /* \"protocol/Market.sol\":4694:4802  function assetManage() public view returns (uint) {... */\n      swap1\n      jump\t// out\n        /* \"protocol/Market.sol\":8358:8706  function setRiskParams(... */\n    tag_227:\n        /* \"acess/Ownable.sol\":213:218  owner */\n      0x00\n      0x02\n      swap1\n      sload\n      swap1\n      0x0100\n      exp\n      swap1\n      div\n      0xffffffffffffffffffffffffffffffffffffffff\n      and\n        /* \"acess/Ownable.sol\":199:218  msg.sender == owner */\n      0xffffffffffffffffffffffffffffffffffffffff\n      and\n        /* \"acess/Ownable.sol\":199:209  msg.sender */\n      caller\n        /* \"acess/Ownable.sol\":199:218  msg.sender == owner */\n      0xffffffffffffffffffffffffffffffffffffffff\n      and\n      eq\n        /* \"acess/Ownable.sol\":191:219  require(msg.sender == owner) */\n      tag_487\n      jumpi\n      revert(0x00, 0x00)\n    tag_487:\n        /* \"protocol/Market.sol\":8530:8535  10000 */\n      0x2710\n        /* \"protocol/Market.sol\":8516:8526  newLltvBps */\n      dup4\n        /* \"protocol/Market.sol\":8516:8535  newLltvBps <= 10000 */\n      gt\n      iszero\n        /* \"protocol/Market.sol\":8508:8536  require(newLltvBps <= 10000) */\n      tag_489\n      jumpi\n      revert(0x00, 0x00)\n    tag_489:\n        /* \"protocol/Market.sol\":8568:8573  10000 */\n      0x2710\n        /* \"protocol/Market.sol\":8554:8564  newLltvBps */\n      dup4\n        /* \"protocol/Market.sol\":8554:8573  newLltvBps <= 10000 */\n      gt\n      iszero\n        /* \"protocol/Market.sol\":8546:8574  require(newLltvBps <= 10000) */\n      tag_490\n      jumpi\n      revert(0x00, 0x00)\n    tag_490:\n        /* \"protocol/Market.sol\":8595:8605  newLltvBps */\n      dup3\n        /* \"protocol/Market.sol\":8585:8592  lltvBps */\n      0x0b\n        /* \"protocol/Market.sol\":8585:8605  lltvBps = newLltvBps */\n      dup2\n      swap1\n      sstore\n      pop\n        /* \"protocol/Market.sol\":8630:8645  newInterestRate */\n      dup2\n        /* \"protocol/Market.sol\":8615:8627  interestRate */\n      0x0c\n        /* \"protocol/Market.sol\":8615:8645  interestRate = newInterestRate */\n      dup2\n      swap1\n      sstore\n      pop\n        /* \"protocol/Market.sol\":8677:8699  newLiquidationBonusBps */\n      dup1\n        /* \"protocol/Market.sol\":8655:8674  liquidationBonusBps */\n      0x0e\n        /* \"protocol/Market.sol\":8655:8699  liquidationBonusBps = newLiquidationBonusBps */\n      dup2\n      swap1\n      sstore\n      pop\n        /* \"protocol/Market.sol\":8358:8706  function setRiskParams(... */\n      pop\n      pop\n      pop\n      jump\t// out\n        /* \"protocol/Market.sol\":4427:4688  function debtOf(address borrower) public view returns (uint) {... */\n    tag_231:\n        /* \"protocol/Market.sol\":4482:4486  uint */\n      0x00\n        /* \"protocol/Market.sol\":4526:4527  0 */\n      0x00\n        /* \"protocol/Market.sol\":4506:4528  borrower != address(0) */\n      0xffffffffffffffffffffffffffffffffffffffff\n      and\n        /* \"protocol/Market.sol\":4506:4514  borrower */\n      dup3\n        /* \"protocol/Market.sol\":4506:4528  borrower != address(0) */\n      0xffffffffffffffffffffffffffffffffffffffff\n      and\n      sub\n        /* \"protocol/Market.sol\":4498:4529  require(borrower != address(0)) */\n      tag_492\n      jumpi\n      revert(0x00, 0x00)\n    tag_492:\n        /* \"protocol/Market.sol\":4540:4551  uint shares */\n      0x00\n        /* \"protocol/Market.sol\":4554:4563  positions */\n      0x02\n        /* \"protocol/Market.sol\":4554:4573  positions[borrower] */\n      0x00\n        /* \"protocol/Market.sol\":4564:4572  borrower */\n      dup5\n        /* \"protocol/Market.sol\":4554:4573  positions[borrower] */\n      0xffffffffffffffffffffffffffffffffffffffff\n      and\n      0xffffffffffffffffffffffffffffffffffffffff\n      and\n      dup2\n      mstore\n      0x20\n      add\n      swap1\n      dup2\n      mstore\n      0x20\n      add\n      0x00\n      keccak256\n        /* \"protocol/Market.sol\":4554:4586  positions[borrower].borrowShares */\n      0x01\n      add\n      sload\n        /* \"protocol/Market.sol\":4540:4586  uint shares = positions[borrower].borrowShares */\n      swap1\n      pop\n        /* \"protocol/Market.sol\":4625:4626  0 */\n      0x00\n        /* \"protocol/Market.sol\":4615:4621  shares */\n      dup2\n        /* \"protocol/Market.sol\":4615:4626  shares == 0 */\n      eq\n        /* \"protocol/Market.sol\":4615:4681  shares == 0 ? 0 : (shares * _projectedBorrowIndex()) / INDEX_SCALE */\n      tag_493\n      jumpi\n        /* \"protocol/Market.sol\":454:458  1e18 */\n      0x0de0b6b3a7640000\n        /* \"protocol/Market.sol\":4643:4666  _projectedBorrowIndex() */\n      tag_494\n        /* \"protocol/Market.sol\":4643:4664  _projectedBorrowIndex */\n      tag_495\n        /* \"protocol/Market.sol\":4643:4666  _projectedBorrowIndex() */\n      jump\t// in\n    tag_494:\n        /* \"protocol/Market.sol\":4634:4640  shares */\n      dup3\n        /* \"protocol/Market.sol\":4634:4666  shares * _projectedBorrowIndex() */\n      tag_496\n      swap2\n      swap1\n      tag_256\n      jump\t// in\n    tag_496:\n        /* \"protocol/Market.sol\":4633:4681  (shares * _projectedBorrowIndex()) / INDEX_SCALE */\n      tag_497\n      swap2\n      swap1\n      tag_258\n      jump\t// in\n    tag_497:\n        /* \"protocol/Market.sol\":4615:4681  shares == 0 ? 0 : (shares * _projectedBorrowIndex()) / INDEX_SCALE */\n      jump(tag_498)\n    tag_493:\n        /* \"protocol/Market.sol\":4629:4630  0 */\n      0x00\n        /* \"protocol/Market.sol\":4615:4681  shares == 0 ? 0 : (shares * _projectedBorrowIndex()) / INDEX_SCALE */\n    tag_498:\n        /* \"protocol/Market.sol\":4596:4681  return... */\n      swap2\n      pop\n      pop\n        /* \"protocol/Market.sol\":4427:4688  function debtOf(address borrower) public view returns (uint) {... */\n      swap2\n      swap1\n      pop\n      jump\t// out\n        /* \"acess/Ownable.sol\":394:532  function ownershipTransfer(address newOwner) external onlyOwner {... */\n    tag_236:\n        /* \"acess/Ownable.sol\":213:218  owner */\n      0x00\n      0x02\n      swap1\n      sload\n      swap1\n      0x0100\n      exp\n      swap1\n      div\n      0xffffffffffffffffffffffffffffffffffffffff\n      and\n        /* \"acess/Ownable.sol\":199:218  msg.sender == owner */\n      0xffffffffffffffffffffffffffffffffffffffff\n      and\n        /* \"acess/Ownable.sol\":199:209  msg.sender */\n      caller\n        /* \"acess/Ownable.sol\":199:218  msg.sender == owner */\n      0xffffffffffffffffffffffffffffffffffffffff\n      and\n      eq\n        /* \"acess/Ownable.sol\":191:219  require(msg.sender == owner) */\n      tag_500\n      jumpi\n      revert(0x00, 0x00)\n    tag_500:\n        /* \"acess/Ownable.sol\":496:497  0 */\n      0x00\n        /* \"acess/Ownable.sol\":476:498  newOwner != address(0) */\n      0xffffffffffffffffffffffffffffffffffffffff\n      and\n        /* \"acess/Ownable.sol\":476:484  newOwner */\n      dup2\n        /* \"acess/Ownable.sol\":476:498  newOwner != address(0) */\n      0xffffffffffffffffffffffffffffffffffffffff\n      and\n      sub\n        /* \"acess/Ownable.sol\":468:499  require(newOwner != address(0)) */\n      tag_502\n      jumpi\n      revert(0x00, 0x00)\n    tag_502:\n        /* \"acess/Ownable.sol\":517:525  newOwner */\n      dup1\n        /* \"acess/Ownable.sol\":509:514  owner */\n      0x00\n      0x02\n        /* \"acess/Ownable.sol\":509:525  owner = newOwner */\n      0x0100\n      exp\n      dup2\n      sload\n      dup2\n      0xffffffffffffffffffffffffffffffffffffffff\n      mul\n      not\n      and\n      swap1\n      dup4\n      0xffffffffffffffffffffffffffffffffffffffff\n      and\n      mul\n      or\n      swap1\n      sstore\n      pop\n        /* \"acess/Ownable.sol\":394:532  function ownershipTransfer(address newOwner) external onlyOwner {... */\n      pop\n      jump\t// out\n        /* \"protocol/Market.sol\":1792:1820  uint public protocolReserves */\n    tag_239:\n      sload(0x12)\n      dup2\n      jump\t// out\n        /* \"protocol/Market.sol\":8826:8926  function setTreasury(address newTreasury) external onlyOwner {... */\n    tag_244:\n        /* \"acess/Ownable.sol\":213:218  owner */\n      0x00\n      0x02\n      swap1\n      sload\n      swap1\n      0x0100\n      exp\n      swap1\n      div\n      0xffffffffffffffffffffffffffffffffffffffff\n      and\n        /* \"acess/Ownable.sol\":199:218  msg.sender == owner */\n      0xffffffffffffffffffffffffffffffffffffffff\n      and\n        /* \"acess/Ownable.sol\":199:209  msg.sender */\n      caller\n        /* \"acess/Ownable.sol\":199:218  msg.sender == owner */\n      0xffffffffffffffffffffffffffffffffffffffff\n      and\n      eq\n        /* \"acess/Ownable.sol\":191:219  require(msg.sender == owner) */\n      tag_504\n      jumpi\n      revert(0x00, 0x00)\n    tag_504:\n        /* \"protocol/Market.sol\":8908:8919  newTreasury */\n      dup1\n        /* \"protocol/Market.sol\":8897:8905  treasury */\n      0x0a\n      0x00\n        /* \"protocol/Market.sol\":8897:8919  treasury = newTreasury */\n      0x0100\n      exp\n      dup2\n      sload\n      dup2\n      0xffffffffffffffffffffffffffffffffffffffff\n      mul\n      not\n      and\n      swap1\n      dup4\n      0xffffffffffffffffffffffffffffffffffffffff\n      and\n      mul\n      or\n      swap1\n      sstore\n      pop\n        /* \"protocol/Market.sol\":8826:8926  function setTreasury(address newTreasury) external onlyOwner {... */\n      pop\n      jump\t// out\n        /* \"protocol/Market.sol\":1519:1539  address public vault */\n    tag_247:\n      0x09\n      0x00\n      swap1\n      sload\n      swap1\n      0x0100\n      exp\n      swap1\n      div\n      0xffffffffffffffffffffffffffffffffffffffff\n      and\n      dup2\n      jump\t// out\n        /* \"protocol/Market.sol\":4217:4421  function totalDebt() public view returns (uint) {... */\n    tag_251:\n        /* \"protocol/Market.sol\":4259:4263  uint */\n      0x00\n        /* \"protocol/Market.sol\":4315:4316  0 */\n      0x00\n        /* \"protocol/Market.sol\":4294:4311  totalBorrowShares */\n      sload(0x13)\n        /* \"protocol/Market.sol\":4294:4316  totalBorrowShares == 0 */\n      eq\n        /* \"protocol/Market.sol\":4294:4414  totalBorrowShares == 0... */\n      tag_507\n      jumpi\n        /* \"protocol/Market.sol\":454:458  1e18 */\n      0x0de0b6b3a7640000\n        /* \"protocol/Market.sol\":4376:4399  _projectedBorrowIndex() */\n      tag_508\n        /* \"protocol/Market.sol\":4376:4397  _projectedBorrowIndex */\n      tag_495\n        /* \"protocol/Market.sol\":4376:4399  _projectedBorrowIndex() */\n      jump\t// in\n    tag_508:\n        /* \"protocol/Market.sol\":4356:4373  totalBorrowShares */\n      sload(0x13)\n        /* \"protocol/Market.sol\":4356:4399  totalBorrowShares * _projectedBorrowIndex() */\n      tag_509\n      swap2\n      swap1\n      tag_256\n      jump\t// in\n    tag_509:\n        /* \"protocol/Market.sol\":4355:4414  (totalBorrowShares * _projectedBorrowIndex()) / INDEX_SCALE */\n      tag_510\n      swap2\n      swap1\n      tag_258\n      jump\t// in\n    tag_510:\n        /* \"protocol/Market.sol\":4294:4414  totalBorrowShares == 0... */\n      jump(tag_511)\n    tag_507:\n        /* \"protocol/Market.sol\":4335:4336  0 */\n      0x00\n        /* \"protocol/Market.sol\":4294:4414  totalBorrowShares == 0... */\n    tag_511:\n        /* \"protocol/Market.sol\":4275:4414  return... */\n      swap1\n      pop\n        /* \"protocol/Market.sol\":4217:4421  function totalDebt() public view returns (uint) {... */\n      swap1\n      jump\t// out\n        /* \"proxy/UUPSUpgradeable.sol\":2514:2693  function _getImplementation() internal view returns (address impl) {... */\n    tag_300:\n        /* \"proxy/UUPSUpgradeable.sol\":2567:2579  address impl */\n      0x00\n        /* \"proxy/UUPSUpgradeable.sol\":2591:2603  bytes32 slot */\n      0x00\n        /* \"proxy/UUPSUpgradeable.sol\":793:859  0x360894A13BA1A3210667C828492DB98DCA3E2076CC3735A920A3CA505D382BBC */\n      0x360894a13ba1a3210667c828492db98dca3e2076cc3735a920a3ca505d382bbc\n        /* \"proxy/UUPSUpgradeable.sol\":2606:2625  IMPLEMENTATION_SLOT */\n      0x00\n      shl\n        /* \"proxy/UUPSUpgradeable.sol\":2591:2625  bytes32 slot = IMPLEMENTATION_SLOT */\n      swap1\n      pop\n        /* \"proxy/UUPSUpgradeable.sol\":2672:2676  slot */\n      dup1\n        /* \"proxy/UUPSUpgradeable.sol\":2666:2677  sload(slot) */\n      sload\n        /* \"proxy/UUPSUpgradeable.sol\":2658:2677  impl := sload(slot) */\n      swap2\n      pop\n        /* \"proxy/UUPSUpgradeable.sol\":2644:2687  {... */\n      pop\n        /* \"proxy/UUPSUpgradeable.sol\":2514:2693  function _getImplementation() internal view returns (address impl) {... */\n      swap1\n      jump\t// out\n        /* \"protocol/Market.sol\":8932:8998  function _authorizeUpgrade(address) internal override onlyOwner {} */\n    tag_306:\n        /* \"acess/Ownable.sol\":213:218  owner */\n      0x00\n      0x02\n      swap1\n      sload\n      swap1\n      0x0100\n      exp\n      swap1\n      div\n      0xffffffffffffffffffffffffffffffffffffffff\n      and\n        /* \"acess/Ownable.sol\":199:218  msg.sender == owner */\n      0xffffffffffffffffffffffffffffffffffffffff\n      and\n        /* \"acess/Ownable.sol\":199:209  msg.sender */\n      caller\n        /* \"acess/Ownable.sol\":199:218  msg.sender == owner */\n      0xffffffffffffffffffffffffffffffffffffffff\n      and\n      eq\n        /* \"acess/Ownable.sol\":191:219  require(msg.sender == owner) */\n      tag_514\n      jumpi\n      revert(0x00, 0x00)\n    tag_514:\n        /* \"protocol/Market.sol\":8932:8998  function _authorizeUpgrade(address) internal override onlyOwner {} */\n      pop\n      jump\t// out\n        /* \"proxy/UUPSUpgradeable.sol\":2809:3197  function _upgradeToAndCall(address newImplementation, bytes memory data, bool forceCall) internal {... */\n    tag_308:\n        /* \"proxy/UUPSUpgradeable.sol\":2954:2955  0 */\n      0x00\n        /* \"proxy/UUPSUpgradeable.sol\":2925:2956  newImplementation != address(0) */\n      0xffffffffffffffffffffffffffffffffffffffff\n      and\n        /* \"proxy/UUPSUpgradeable.sol\":2925:2942  newImplementation */\n      dup4\n        /* \"proxy/UUPSUpgradeable.sol\":2925:2956  newImplementation != address(0) */\n      0xffffffffffffffffffffffffffffffffffffffff\n      and\n      sub\n        /* \"proxy/UUPSUpgradeable.sol\":2917:2970  require(newImplementation != address(0), \"ZERO_IMPL\") */\n      tag_517\n      jumpi\n      mload(0x40)\n      0x08c379a000000000000000000000000000000000000000000000000000000000\n      dup2\n      mstore\n      0x04\n      add\n      tag_518\n      swap1\n      tag_519\n      jump\t// in\n    tag_518:\n      mload(0x40)\n      dup1\n      swap2\n      sub\n      swap1\n      revert\n    tag_517:\n        /* \"proxy/UUPSUpgradeable.sol\":2980:3017  _setImplementation(newImplementation) */\n      tag_520\n        /* \"proxy/UUPSUpgradeable.sol\":2999:3016  newImplementation */\n      dup4\n        /* \"proxy/UUPSUpgradeable.sol\":2980:2998  _setImplementation */\n      tag_521\n        /* \"proxy/UUPSUpgradeable.sol\":2980:3017  _setImplementation(newImplementation) */\n      jump\t// in\n    tag_520:\n        /* \"proxy/UUPSUpgradeable.sol\":3032:3041  forceCall */\n      dup1\n        /* \"proxy/UUPSUpgradeable.sol\":3032:3060  forceCall || data.length > 0 */\n      dup1\n      tag_522\n      jumpi\n      pop\n        /* \"proxy/UUPSUpgradeable.sol\":3059:3060  0 */\n      0x00\n        /* \"proxy/UUPSUpgradeable.sol\":3045:3049  data */\n      dup3\n        /* \"proxy/UUPSUpgradeable.sol\":3045:3056  data.length */\n      mload\n        /* \"proxy/UUPSUpgradeable.sol\":3045:3060  data.length > 0 */\n      gt\n        /* \"proxy/UUPSUpgradeable.sol\":3032:3060  forceCall || data.length > 0 */\n    tag_522:\n        /* \"proxy/UUPSUpgradeable.sol\":3028:3191  if (forceCall || data.length > 0) {... */\n      iszero\n      tag_523\n      jumpi\n        /* \"proxy/UUPSUpgradeable.sol\":3077:3084  bool ok */\n      0x00\n        /* \"proxy/UUPSUpgradeable.sol\":3086:3102  bytes memory err */\n      0x00\n        /* \"proxy/UUPSUpgradeable.sol\":3106:3123  newImplementation */\n      dup5\n        /* \"proxy/UUPSUpgradeable.sol\":3106:3136  newImplementation.delegatecall */\n      0xffffffffffffffffffffffffffffffffffffffff\n      and\n        /* \"proxy/UUPSUpgradeable.sol\":3137:3141  data */\n      dup5\n        /* \"proxy/UUPSUpgradeable.sol\":3106:3142  newImplementation.delegatecall(data) */\n      mload(0x40)\n      tag_524\n      swap2\n      swap1\n      tag_525\n      jump\t// in\n    tag_524:\n      0x00\n      mload(0x40)\n      dup1\n      dup4\n      sub\n      dup2\n      dup6\n      gas\n      delegatecall\n      swap2\n      pop\n      pop\n      returndatasize\n      dup1\n      0x00\n      dup2\n      eq\n      tag_528\n      jumpi\n      mload(0x40)\n      swap2\n      pop\n      and(add(returndatasize, 0x3f), not(0x1f))\n      dup3\n      add\n      0x40\n      mstore\n      returndatasize\n      dup3\n      mstore\n      returndatasize\n      0x00\n      0x20\n      dup5\n      add\n      returndatacopy\n      jump(tag_527)\n    tag_528:\n      0x60\n      swap2\n      pop\n    tag_527:\n      pop\n        /* \"proxy/UUPSUpgradeable.sol\":3076:3142  (bool ok, bytes memory err) = newImplementation.delegatecall(data) */\n      swap2\n      pop\n      swap2\n      pop\n        /* \"proxy/UUPSUpgradeable.sol\":3164:3166  ok */\n      dup2\n        /* \"proxy/UUPSUpgradeable.sol\":3175:3178  err */\n      dup2\n        /* \"proxy/UUPSUpgradeable.sol\":3156:3180  require(ok, string(err)) */\n      swap1\n      tag_529\n      jumpi\n      mload(0x40)\n      0x08c379a000000000000000000000000000000000000000000000000000000000\n      dup2\n      mstore\n      0x04\n      add\n      tag_530\n      swap2\n      swap1\n      tag_121\n      jump\t// in\n    tag_530:\n      mload(0x40)\n      dup1\n      swap2\n      sub\n      swap1\n      revert\n    tag_529:\n      pop\n        /* \"proxy/UUPSUpgradeable.sol\":3062:3191  {... */\n      pop\n      pop\n        /* \"proxy/UUPSUpgradeable.sol\":3028:3191  if (forceCall || data.length > 0) {... */\n    tag_523:\n        /* \"proxy/UUPSUpgradeable.sol\":2809:3197  function _upgradeToAndCall(address newImplementation, bytes memory data, bool forceCall) internal {... */\n      pop\n      pop\n      pop\n      jump\t// out\n        /* \"acess/Ownable.sol\":243:389  function __Ownable_init(address initializeOwner) internal {... */\n    tag_455:\n        /* \"acess/Ownable.sol\":346:347  0 */\n      0x00\n        /* \"acess/Ownable.sol\":319:348  initializeOwner != address(0) */\n      0xffffffffffffffffffffffffffffffffffffffff\n      and\n        /* \"acess/Ownable.sol\":319:334  initializeOwner */\n      dup2\n        /* \"acess/Ownable.sol\":319:348  initializeOwner != address(0) */\n      0xffffffffffffffffffffffffffffffffffffffff\n      and\n      sub\n        /* \"acess/Ownable.sol\":311:349  require(initializeOwner != address(0)) */\n      tag_532\n      jumpi\n      revert(0x00, 0x00)\n    tag_532:\n        /* \"acess/Ownable.sol\":367:382  initializeOwner */\n      dup1\n        /* \"acess/Ownable.sol\":359:364  owner */\n      0x00\n      0x02\n        /* \"acess/Ownable.sol\":359:382  owner = initializeOwner */\n      0x0100\n      exp\n      dup2\n      sload\n      dup2\n      0xffffffffffffffffffffffffffffffffffffffff\n      mul\n      not\n      and\n      swap1\n      dup4\n      0xffffffffffffffffffffffffffffffffffffffff\n      and\n      mul\n      or\n      swap1\n      sstore\n      pop\n        /* \"acess/Ownable.sol\":243:389  function __Ownable_init(address initializeOwner) internal {... */\n      pop\n      jump\t// out\n        /* \"protocol/Market.sol\":3482:3855  function _projectedBorrowIndex() internal view returns (uint index) {... */\n    tag_495:\n        /* \"protocol/Market.sol\":3538:3548  uint index */\n      0x00\n        /* \"protocol/Market.sol\":3568:3579  borrowIndex */\n      sload(0x10)\n        /* \"protocol/Market.sol\":3560:3579  index = borrowIndex */\n      swap1\n      pop\n        /* \"protocol/Market.sol\":3609:3624  lastAccrueBlock */\n      sload(0x0f)\n        /* \"protocol/Market.sol\":3593:3605  block.number */\n      number\n        /* \"protocol/Market.sol\":3593:3624  block.number == lastAccrueBlock */\n      eq\n        /* \"protocol/Market.sol\":3593:3649  block.number == lastAccrueBlock && totalBorrowShares > 0 */\n      dup1\n      iszero\n      tag_534\n      jumpi\n      pop\n        /* \"protocol/Market.sol\":3648:3649  0 */\n      0x00\n        /* \"protocol/Market.sol\":3628:3645  totalBorrowShares */\n      sload(0x13)\n        /* \"protocol/Market.sol\":3628:3649  totalBorrowShares > 0 */\n      gt\n        /* \"protocol/Market.sol\":3593:3649  block.number == lastAccrueBlock && totalBorrowShares > 0 */\n    tag_534:\n        /* \"protocol/Market.sol\":3589:3849  if (block.number == lastAccrueBlock && totalBorrowShares > 0) {... */\n      iszero\n      tag_535\n      jumpi\n        /* \"protocol/Market.sol\":3665:3681  uint deltaBlocks */\n      0x00\n        /* \"protocol/Market.sol\":3699:3714  lastAccrueBlock */\n      sload(0x0f)\n        /* \"protocol/Market.sol\":3684:3696  block.number */\n      number\n        /* \"protocol/Market.sol\":3684:3714  block.number - lastAccrueBlock */\n      tag_536\n      swap2\n      swap1\n      tag_275\n      jump\t// in\n    tag_536:\n        /* \"protocol/Market.sol\":3665:3714  uint deltaBlocks = block.number - lastAccrueBlock */\n      swap1\n      pop\n        /* \"protocol/Market.sol\":3728:3739  uint growth */\n      0x00\n        /* \"protocol/Market.sol\":3773:3786  blocksPerYear */\n      sload(0x0d)\n        /* \"protocol/Market.sol\":3758:3769  deltaBlocks */\n      dup3\n        /* \"protocol/Market.sol\":3743:3755  interestRate */\n      sload(0x0c)\n        /* \"protocol/Market.sol\":3743:3769  interestRate * deltaBlocks */\n      tag_537\n      swap2\n      swap1\n      tag_256\n      jump\t// in\n    tag_537:\n        /* \"protocol/Market.sol\":3742:3786  (interestRate * deltaBlocks) / blocksPerYear */\n      tag_538\n      swap2\n      swap1\n      tag_258\n      jump\t// in\n    tag_538:\n        /* \"protocol/Market.sol\":3728:3786  uint growth = (interestRate * deltaBlocks) / blocksPerYear */\n      swap1\n      pop\n        /* \"protocol/Market.sol\":454:458  1e18 */\n      0x0de0b6b3a7640000\n        /* \"protocol/Market.sol\":3817:3823  growth */\n      dup2\n        /* \"protocol/Market.sol\":3809:3814  index */\n      dup5\n        /* \"protocol/Market.sol\":3809:3823  index * growth */\n      tag_539\n      swap2\n      swap1\n      tag_256\n      jump\t// in\n    tag_539:\n        /* \"protocol/Market.sol\":3808:3838  (index * growth) / INDEX_SCALE */\n      tag_540\n      swap2\n      swap1\n      tag_258\n      jump\t// in\n    tag_540:\n        /* \"protocol/Market.sol\":3800:3838  index = (index * growth) / INDEX_SCALE */\n      swap3\n      pop\n        /* \"protocol/Market.sol\":3651:3849  {... */\n      pop\n      pop\n        /* \"protocol/Market.sol\":3589:3849  if (block.number == lastAccrueBlock && totalBorrowShares > 0) {... */\n    tag_535:\n        /* \"protocol/Market.sol\":3482:3855  function _projectedBorrowIndex() internal view returns (uint index) {... */\n      swap1\n      jump\t// out\n        /* \"proxy/UUPSUpgradeable.sol\":3266:3453  function _setImplementation(address newImplementation) private {... */\n    tag_521:\n        /* \"proxy/UUPSUpgradeable.sol\":3339:3351  bytes32 slot */\n      0x00\n        /* \"proxy/UUPSUpgradeable.sol\":793:859  0x360894A13BA1A3210667C828492DB98DCA3E2076CC3735A920A3CA505D382BBC */\n      0x360894a13ba1a3210667c828492db98dca3e2076cc3735a920a3ca505d382bbc\n        /* \"proxy/UUPSUpgradeable.sol\":3354:3373  IMPLEMENTATION_SLOT */\n      0x00\n      shl\n        /* \"proxy/UUPSUpgradeable.sol\":3339:3373  bytes32 slot = IMPLEMENTATION_SLOT */\n      swap1\n      pop\n        /* \"proxy/UUPSUpgradeable.sol\":3419:3436  newImplementation */\n      dup2\n        /* \"proxy/UUPSUpgradeable.sol\":3413:3417  slot */\n      dup2\n        /* \"proxy/UUPSUpgradeable.sol\":3406:3437  sstore(slot, newImplementation) */\n      sstore\n        /* \"proxy/UUPSUpgradeable.sol\":3392:3447  {... */\n      pop\n        /* \"proxy/UUPSUpgradeable.sol\":3266:3453  function _setImplementation(address newImplementation) private {... */\n      pop\n      jump\t// out\n        /* \"#utility.yul\":88:205   */\n    tag_543:\n        /* \"#utility.yul\":197:198   */\n      0x00\n        /* \"#utility.yul\":194:195   */\n      0x00\n        /* \"#utility.yul\":187:199   */\n      revert\n        /* \"#utility.yul\":211:328   */\n    tag_544:\n        /* \"#utility.yul\":320:321   */\n      0x00\n        /* \"#utility.yul\":317:318   */\n      0x00\n        /* \"#utility.yul\":310:322   */\n      revert\n        /* \"#utility.yul\":334:411   */\n    tag_545:\n        /* \"#utility.yul\":371:378   */\n      0x00\n        /* \"#utility.yul\":400:405   */\n      dup2\n        /* \"#utility.yul\":389:405   */\n      swap1\n      pop\n        /* \"#utility.yul\":334:411   */\n      swap2\n      swap1\n      pop\n      jump\t// out\n        /* \"#utility.yul\":417:539   */\n    tag_546:\n        /* \"#utility.yul\":490:514   */\n      tag_618\n        /* \"#utility.yul\":508:513   */\n      dup2\n        /* \"#utility.yul\":490:514   */\n      tag_545\n      jump\t// in\n    tag_618:\n        /* \"#utility.yul\":483:488   */\n      dup2\n        /* \"#utility.yul\":480:515   */\n      eq\n        /* \"#utility.yul\":470:533   */\n      tag_619\n      jumpi\n        /* \"#utility.yul\":529:530   */\n      0x00\n        /* \"#utility.yul\":526:527   */\n      0x00\n        /* \"#utility.yul\":519:531   */\n      revert\n        /* \"#utility.yul\":470:533   */\n    tag_619:\n        /* \"#utility.yul\":417:539   */\n      pop\n      jump\t// out\n        /* \"#utility.yul\":545:684   */\n    tag_547:\n        /* \"#utility.yul\":591:596   */\n      0x00\n        /* \"#utility.yul\":629:635   */\n      dup2\n        /* \"#utility.yul\":616:636   */\n      calldataload\n        /* \"#utility.yul\":607:636   */\n      swap1\n      pop\n        /* \"#utility.yul\":645:678   */\n      tag_621\n        /* \"#utility.yul\":672:677   */\n      dup2\n        /* \"#utility.yul\":645:678   */\n      tag_546\n      jump\t// in\n    tag_621:\n        /* \"#utility.yul\":545:684   */\n      swap3\n      swap2\n      pop\n      pop\n      jump\t// out\n        /* \"#utility.yul\":690:1019   */\n    tag_57:\n        /* \"#utility.yul\":749:755   */\n      0x00\n        /* \"#utility.yul\":798:800   */\n      0x20\n        /* \"#utility.yul\":786:795   */\n      dup3\n        /* \"#utility.yul\":777:784   */\n      dup5\n        /* \"#utility.yul\":773:796   */\n      sub\n        /* \"#utility.yul\":769:801   */\n      slt\n        /* \"#utility.yul\":766:885   */\n      iszero\n      tag_623\n      jumpi\n        /* \"#utility.yul\":804:883   */\n      tag_624\n      tag_543\n      jump\t// in\n    tag_624:\n        /* \"#utility.yul\":766:885   */\n    tag_623:\n        /* \"#utility.yul\":924:925   */\n      0x00\n        /* \"#utility.yul\":949:1002   */\n      tag_625\n        /* \"#utility.yul\":994:1001   */\n      dup5\n        /* \"#utility.yul\":985:991   */\n      dup3\n        /* \"#utility.yul\":974:983   */\n      dup6\n        /* \"#utility.yul\":970:992   */\n      add\n        /* \"#utility.yul\":949:1002   */\n      tag_547\n      jump\t// in\n    tag_625:\n        /* \"#utility.yul\":939:1002   */\n      swap2\n      pop\n        /* \"#utility.yul\":895:1012   */\n      pop\n        /* \"#utility.yul\":690:1019   */\n      swap3\n      swap2\n      pop\n      pop\n      jump\t// out\n        /* \"#utility.yul\":1025:1143   */\n    tag_548:\n        /* \"#utility.yul\":1112:1136   */\n      tag_627\n        /* \"#utility.yul\":1130:1135   */\n      dup2\n        /* \"#utility.yul\":1112:1136   */\n      tag_545\n      jump\t// in\n    tag_627:\n        /* \"#utility.yul\":1107:1110   */\n      dup3\n        /* \"#utility.yul\":1100:1137   */\n      mstore\n        /* \"#utility.yul\":1025:1143   */\n      pop\n      pop\n      jump\t// out\n        /* \"#utility.yul\":1149:1371   */\n    tag_60:\n        /* \"#utility.yul\":1242:1246   */\n      0x00\n        /* \"#utility.yul\":1280:1282   */\n      0x20\n        /* \"#utility.yul\":1269:1278   */\n      dup3\n        /* \"#utility.yul\":1265:1283   */\n      add\n        /* \"#utility.yul\":1257:1283   */\n      swap1\n      pop\n        /* \"#utility.yul\":1293:1364   */\n      tag_629\n        /* \"#utility.yul\":1361:1362   */\n      0x00\n        /* \"#utility.yul\":1350:1359   */\n      dup4\n        /* \"#utility.yul\":1346:1363   */\n      add\n        /* \"#utility.yul\":1337:1343   */\n      dup5\n        /* \"#utility.yul\":1293:1364   */\n      tag_548\n      jump\t// in\n    tag_629:\n        /* \"#utility.yul\":1149:1371   */\n      swap3\n      swap2\n      pop\n      pop\n      jump\t// out\n        /* \"#utility.yul\":1377:1503   */\n    tag_549:\n        /* \"#utility.yul\":1414:1421   */\n      0x00\n        /* \"#utility.yul\":1454:1496   */\n      0xffffffffffffffffffffffffffffffffffffffff\n        /* \"#utility.yul\":1447:1452   */\n      dup3\n        /* \"#utility.yul\":1443:1497   */\n      and\n        /* \"#utility.yul\":1432:1497   */\n      swap1\n      pop\n        /* \"#utility.yul\":1377:1503   */\n      swap2\n      swap1\n      pop\n      jump\t// out\n        /* \"#utility.yul\":1509:1605   */\n    tag_550:\n        /* \"#utility.yul\":1546:1553   */\n      0x00\n        /* \"#utility.yul\":1575:1599   */\n      tag_632\n        /* \"#utility.yul\":1593:1598   */\n      dup3\n        /* \"#utility.yul\":1575:1599   */\n      tag_549\n      jump\t// in\n    tag_632:\n        /* \"#utility.yul\":1564:1599   */\n      swap1\n      pop\n        /* \"#utility.yul\":1509:1605   */\n      swap2\n      swap1\n      pop\n      jump\t// out\n        /* \"#utility.yul\":1611:1733   */\n    tag_551:\n        /* \"#utility.yul\":1684:1708   */\n      tag_634\n        /* \"#utility.yul\":1702:1707   */\n      dup2\n        /* \"#utility.yul\":1684:1708   */\n      tag_550\n      jump\t// in\n    tag_634:\n        /* \"#utility.yul\":1677:1682   */\n      dup2\n        /* \"#utility.yul\":1674:1709   */\n      eq\n        /* \"#utility.yul\":1664:1727   */\n      tag_635\n      jumpi\n        /* \"#utility.yul\":1723:1724   */\n      0x00\n        /* \"#utility.yul\":1720:1721   */\n      0x00\n        /* \"#utility.yul\":1713:1725   */\n      revert\n        /* \"#utility.yul\":1664:1727   */\n    tag_635:\n        /* \"#utility.yul\":1611:1733   */\n      pop\n      jump\t// out\n        /* \"#utility.yul\":1739:1878   */\n    tag_552:\n        /* \"#utility.yul\":1785:1790   */\n      0x00\n        /* \"#utility.yul\":1823:1829   */\n      dup2\n        /* \"#utility.yul\":1810:1830   */\n      calldataload\n        /* \"#utility.yul\":1801:1830   */\n      swap1\n      pop\n        /* \"#utility.yul\":1839:1872   */\n      tag_637\n        /* \"#utility.yul\":1866:1871   */\n      dup2\n        /* \"#utility.yul\":1839:1872   */\n      tag_551\n      jump\t// in\n    tag_637:\n        /* \"#utility.yul\":1739:1878   */\n      swap3\n      swap2\n      pop\n      pop\n      jump\t// out\n        /* \"#utility.yul\":1884:2213   */\n    tag_64:\n        /* \"#utility.yul\":1943:1949   */\n      0x00\n        /* \"#utility.yul\":1992:1994   */\n      0x20\n        /* \"#utility.yul\":1980:1989   */\n      dup3\n        /* \"#utility.yul\":1971:1978   */\n      dup5\n        /* \"#utility.yul\":1967:1990   */\n      sub\n        /* \"#utility.yul\":1963:1995   */\n      slt\n        /* \"#utility.yul\":1960:2079   */\n      iszero\n      tag_639\n      jumpi\n        /* \"#utility.yul\":1998:2077   */\n      tag_640\n      tag_543\n      jump\t// in\n    tag_640:\n        /* \"#utility.yul\":1960:2079   */\n    tag_639:\n        /* \"#utility.yul\":2118:2119   */\n      0x00\n        /* \"#utility.yul\":2143:2196   */\n      tag_641\n        /* \"#utility.yul\":2188:2195   */\n      dup5\n        /* \"#utility.yul\":2179:2185   */\n      dup3\n        /* \"#utility.yul\":2168:2177   */\n      dup6\n        /* \"#utility.yul\":2164:2186   */\n      add\n        /* \"#utility.yul\":2143:2196   */\n      tag_552\n      jump\t// in\n    tag_641:\n        /* \"#utility.yul\":2133:2196   */\n      swap2\n      pop\n        /* \"#utility.yul\":2089:2206   */\n      pop\n        /* \"#utility.yul\":1884:2213   */\n      swap3\n      swap2\n      pop\n      pop\n      jump\t// out\n        /* \"#utility.yul\":2219:2279   */\n    tag_553:\n        /* \"#utility.yul\":2247:2250   */\n      0x00\n        /* \"#utility.yul\":2268:2273   */\n      dup2\n        /* \"#utility.yul\":2261:2273   */\n      swap1\n      pop\n        /* \"#utility.yul\":2219:2279   */\n      swap2\n      swap1\n      pop\n      jump\t// out\n        /* \"#utility.yul\":2285:2427   */\n    tag_554:\n        /* \"#utility.yul\":2335:2344   */\n      0x00\n        /* \"#utility.yul\":2368:2421   */\n      tag_644\n        /* \"#utility.yul\":2386:2420   */\n      tag_645\n        /* \"#utility.yul\":2395:2419   */\n      tag_646\n        /* \"#utility.yul\":2413:2418   */\n      dup5\n        /* \"#utility.yul\":2395:2419   */\n      tag_549\n      jump\t// in\n    tag_646:\n        /* \"#utility.yul\":2386:2420   */\n      tag_553\n      jump\t// in\n    tag_645:\n        /* \"#utility.yul\":2368:2421   */\n      tag_549\n      jump\t// in\n    tag_644:\n        /* \"#utility.yul\":2355:2421   */\n      swap1\n      pop\n        /* \"#utility.yul\":2285:2427   */\n      swap2\n      swap1\n      pop\n      jump\t// out\n        /* \"#utility.yul\":2433:2559   */\n    tag_555:\n        /* \"#utility.yul\":2483:2492   */\n      0x00\n        /* \"#utility.yul\":2516:2553   */\n      tag_648\n        /* \"#utility.yul\":2547:2552   */\n      dup3\n        /* \"#utility.yul\":2516:2553   */\n      tag_554\n      jump\t// in\n    tag_648:\n        /* \"#utility.yul\":2503:2553   */\n      swap1\n      pop\n        /* \"#utility.yul\":2433:2559   */\n      swap2\n      swap1\n      pop\n      jump\t// out\n        /* \"#utility.yul\":2565:2705   */\n    tag_556:\n        /* \"#utility.yul\":2629:2638   */\n      0x00\n        /* \"#utility.yul\":2662:2699   */\n      tag_650\n        /* \"#utility.yul\":2693:2698   */\n      dup3\n        /* \"#utility.yul\":2662:2699   */\n      tag_555\n      jump\t// in\n    tag_650:\n        /* \"#utility.yul\":2649:2699   */\n      swap1\n      pop\n        /* \"#utility.yul\":2565:2705   */\n      swap2\n      swap1\n      pop\n      jump\t// out\n        /* \"#utility.yul\":2711:2870   */\n    tag_557:\n        /* \"#utility.yul\":2812:2863   */\n      tag_652\n        /* \"#utility.yul\":2857:2862   */\n      dup2\n        /* \"#utility.yul\":2812:2863   */\n      tag_556\n      jump\t// in\n    tag_652:\n        /* \"#utility.yul\":2807:2810   */\n      dup3\n        /* \"#utility.yul\":2800:2864   */\n      mstore\n        /* \"#utility.yul\":2711:2870   */\n      pop\n      pop\n      jump\t// out\n        /* \"#utility.yul\":2876:3126   */\n    tag_70:\n        /* \"#utility.yul\":2983:2987   */\n      0x00\n        /* \"#utility.yul\":3021:3023   */\n      0x20\n        /* \"#utility.yul\":3010:3019   */\n      dup3\n        /* \"#utility.yul\":3006:3024   */\n      add\n        /* \"#utility.yul\":2998:3024   */\n      swap1\n      pop\n        /* \"#utility.yul\":3034:3119   */\n      tag_654\n        /* \"#utility.yul\":3116:3117   */\n      0x00\n        /* \"#utility.yul\":3105:3114   */\n      dup4\n        /* \"#utility.yul\":3101:3118   */\n      add\n        /* \"#utility.yul\":3092:3098   */\n      dup5\n        /* \"#utility.yul\":3034:3119   */\n      tag_557\n      jump\t// in\n    tag_654:\n        /* \"#utility.yul\":2876:3126   */\n      swap3\n      swap2\n      pop\n      pop\n      jump\t// out\n        /* \"#utility.yul\":3132:3250   */\n    tag_558:\n        /* \"#utility.yul\":3219:3243   */\n      tag_656\n        /* \"#utility.yul\":3237:3242   */\n      dup2\n        /* \"#utility.yul\":3219:3243   */\n      tag_550\n      jump\t// in\n    tag_656:\n        /* \"#utility.yul\":3214:3217   */\n      dup3\n        /* \"#utility.yul\":3207:3244   */\n      mstore\n        /* \"#utility.yul\":3132:3250   */\n      pop\n      pop\n      jump\t// out\n        /* \"#utility.yul\":3256:3478   */\n    tag_116:\n        /* \"#utility.yul\":3349:3353   */\n      0x00\n        /* \"#utility.yul\":3387:3389   */\n      0x20\n        /* \"#utility.yul\":3376:3385   */\n      dup3\n        /* \"#utility.yul\":3372:3390   */\n      add\n        /* \"#utility.yul\":3364:3390   */\n      swap1\n      pop\n        /* \"#utility.yul\":3400:3471   */\n      tag_658\n        /* \"#utility.yul\":3468:3469   */\n      0x00\n        /* \"#utility.yul\":3457:3466   */\n      dup4\n        /* \"#utility.yul\":3453:3470   */\n      add\n        /* \"#utility.yul\":3444:3450   */\n      dup5\n        /* \"#utility.yul\":3400:3471   */\n      tag_558\n      jump\t// in\n    tag_658:\n        /* \"#utility.yul\":3256:3478   */\n      swap3\n      swap2\n      pop\n      pop\n      jump\t// out\n        /* \"#utility.yul\":3484:3583   */\n    tag_559:\n        /* \"#utility.yul\":3536:3542   */\n      0x00\n        /* \"#utility.yul\":3570:3575   */\n      dup2\n        /* \"#utility.yul\":3564:3576   */\n      mload\n        /* \"#utility.yul\":3554:3576   */\n      swap1\n      pop\n        /* \"#utility.yul\":3484:3583   */\n      swap2\n      swap1\n      pop\n      jump\t// out\n        /* \"#utility.yul\":3589:3758   */\n    tag_560:\n        /* \"#utility.yul\":3673:3684   */\n      0x00\n        /* \"#utility.yul\":3707:3713   */\n      dup3\n        /* \"#utility.yul\":3702:3705   */\n      dup3\n        /* \"#utility.yul\":3695:3714   */\n      mstore\n        /* \"#utility.yul\":3747:3751   */\n      0x20\n        /* \"#utility.yul\":3742:3745   */\n      dup3\n        /* \"#utility.yul\":3738:3752   */\n      add\n        /* \"#utility.yul\":3723:3752   */\n      swap1\n      pop\n        /* \"#utility.yul\":3589:3758   */\n      swap3\n      swap2\n      pop\n      pop\n      jump\t// out\n        /* \"#utility.yul\":3764:3903   */\n    tag_561:\n        /* \"#utility.yul\":3853:3859   */\n      dup3\n        /* \"#utility.yul\":3848:3851   */\n      dup2\n        /* \"#utility.yul\":3843:3846   */\n      dup4\n        /* \"#utility.yul\":3837:3860   */\n      mcopy\n        /* \"#utility.yul\":3894:3895   */\n      0x00\n        /* \"#utility.yul\":3885:3891   */\n      dup4\n        /* \"#utility.yul\":3880:3883   */\n      dup4\n        /* \"#utility.yul\":3876:3892   */\n      add\n        /* \"#utility.yul\":3869:3896   */\n      mstore\n        /* \"#utility.yul\":3764:3903   */\n      pop\n      pop\n      pop\n      jump\t// out\n        /* \"#utility.yul\":3909:4011   */\n    tag_562:\n        /* \"#utility.yul\":3950:3956   */\n      0x00\n        /* \"#utility.yul\":4001:4003   */\n      0x1f\n        /* \"#utility.yul\":3997:4004   */\n      not\n        /* \"#utility.yul\":3992:3994   */\n      0x1f\n        /* \"#utility.yul\":3985:3990   */\n      dup4\n        /* \"#utility.yul\":3981:3995   */\n      add\n        /* \"#utility.yul\":3977:4005   */\n      and\n        /* \"#utility.yul\":3967:4005   */\n      swap1\n      pop\n        /* \"#utility.yul\":3909:4011   */\n      swap2\n      swap1\n      pop\n      jump\t// out\n        /* \"#utility.yul\":4017:4394   */\n    tag_563:\n        /* \"#utility.yul\":4105:4108   */\n      0x00\n        /* \"#utility.yul\":4133:4172   */\n      tag_664\n        /* \"#utility.yul\":4166:4171   */\n      dup3\n        /* \"#utility.yul\":4133:4172   */\n      tag_559\n      jump\t// in\n    tag_664:\n        /* \"#utility.yul\":4188:4259   */\n      tag_665\n        /* \"#utility.yul\":4252:4258   */\n      dup2\n        /* \"#utility.yul\":4247:4250   */\n      dup6\n        /* \"#utility.yul\":4188:4259   */\n      tag_560\n      jump\t// in\n    tag_665:\n        /* \"#utility.yul\":4181:4259   */\n      swap4\n      pop\n        /* \"#utility.yul\":4268:4333   */\n      tag_666\n        /* \"#utility.yul\":4326:4332   */\n      dup2\n        /* \"#utility.yul\":4321:4324   */\n      dup6\n        /* \"#utility.yul\":4314:4318   */\n      0x20\n        /* \"#utility.yul\":4307:4312   */\n      dup7\n        /* \"#utility.yul\":4303:4319   */\n      add\n        /* \"#utility.yul\":4268:4333   */\n      tag_561\n      jump\t// in\n    tag_666:\n        /* \"#utility.yul\":4358:4387   */\n      tag_667\n        /* \"#utility.yul\":4380:4386   */\n      dup2\n        /* \"#utility.yul\":4358:4387   */\n      tag_562\n      jump\t// in\n    tag_667:\n        /* \"#utility.yul\":4353:4356   */\n      dup5\n        /* \"#utility.yul\":4349:4388   */\n      add\n        /* \"#utility.yul\":4342:4388   */\n      swap2\n      pop\n        /* \"#utility.yul\":4109:4394   */\n      pop\n        /* \"#utility.yul\":4017:4394   */\n      swap3\n      swap2\n      pop\n      pop\n      jump\t// out\n        /* \"#utility.yul\":4400:4713   */\n    tag_121:\n        /* \"#utility.yul\":4513:4517   */\n      0x00\n        /* \"#utility.yul\":4551:4553   */\n      0x20\n        /* \"#utility.yul\":4540:4549   */\n      dup3\n        /* \"#utility.yul\":4536:4554   */\n      add\n        /* \"#utility.yul\":4528:4554   */\n      swap1\n      pop\n        /* \"#utility.yul\":4600:4609   */\n      dup2\n        /* \"#utility.yul\":4594:4598   */\n      dup2\n        /* \"#utility.yul\":4590:4610   */\n      sub\n        /* \"#utility.yul\":4586:4587   */\n      0x00\n        /* \"#utility.yul\":4575:4584   */\n      dup4\n        /* \"#utility.yul\":4571:4588   */\n      add\n        /* \"#utility.yul\":4564:4611   */\n      mstore\n        /* \"#utility.yul\":4628:4706   */\n      tag_669\n        /* \"#utility.yul\":4701:4705   */\n      dup2\n        /* \"#utility.yul\":4692:4698   */\n      dup5\n        /* \"#utility.yul\":4628:4706   */\n      tag_563\n      jump\t// in\n    tag_669:\n        /* \"#utility.yul\":4620:4706   */\n      swap1\n      pop\n        /* \"#utility.yul\":4400:4713   */\n      swap3\n      swap2\n      pop\n      pop\n      jump\t// out\n        /* \"#utility.yul\":4719:4836   */\n    tag_564:\n        /* \"#utility.yul\":4828:4829   */\n      0x00\n        /* \"#utility.yul\":4825:4826   */\n      0x00\n        /* \"#utility.yul\":4818:4830   */\n      revert\n        /* \"#utility.yul\":4842:4959   */\n    tag_565:\n        /* \"#utility.yul\":4951:4952   */\n      0x00\n        /* \"#utility.yul\":4948:4949   */\n      0x00\n        /* \"#utility.yul\":4941:4953   */\n      revert\n        /* \"#utility.yul\":4965:5082   */\n    tag_566:\n        /* \"#utility.yul\":5074:5075   */\n      0x00\n        /* \"#utility.yul\":5071:5072   */\n      0x00\n        /* \"#utility.yul\":5064:5076   */\n      revert\n        /* \"#utility.yul\":5101:5653   */\n    tag_567:\n        /* \"#utility.yul\":5158:5166   */\n      0x00\n        /* \"#utility.yul\":5168:5174   */\n      0x00\n        /* \"#utility.yul\":5218:5221   */\n      dup4\n        /* \"#utility.yul\":5211:5215   */\n      0x1f\n        /* \"#utility.yul\":5203:5209   */\n      dup5\n        /* \"#utility.yul\":5199:5216   */\n      add\n        /* \"#utility.yul\":5195:5222   */\n      slt\n        /* \"#utility.yul\":5185:5307   */\n      tag_674\n      jumpi\n        /* \"#utility.yul\":5226:5305   */\n      tag_675\n      tag_564\n      jump\t// in\n    tag_675:\n        /* \"#utility.yul\":5185:5307   */\n    tag_674:\n        /* \"#utility.yul\":5339:5345   */\n      dup3\n        /* \"#utility.yul\":5326:5346   */\n      calldataload\n        /* \"#utility.yul\":5316:5346   */\n      swap1\n      pop\n        /* \"#utility.yul\":5369:5387   */\n      0xffffffffffffffff\n        /* \"#utility.yul\":5361:5367   */\n      dup2\n        /* \"#utility.yul\":5358:5388   */\n      gt\n        /* \"#utility.yul\":5355:5472   */\n      iszero\n      tag_676\n      jumpi\n        /* \"#utility.yul\":5391:5470   */\n      tag_677\n      tag_565\n      jump\t// in\n    tag_677:\n        /* \"#utility.yul\":5355:5472   */\n    tag_676:\n        /* \"#utility.yul\":5505:5509   */\n      0x20\n        /* \"#utility.yul\":5497:5503   */\n      dup4\n        /* \"#utility.yul\":5493:5510   */\n      add\n        /* \"#utility.yul\":5481:5510   */\n      swap2\n      pop\n        /* \"#utility.yul\":5559:5562   */\n      dup4\n        /* \"#utility.yul\":5551:5555   */\n      0x01\n        /* \"#utility.yul\":5543:5549   */\n      dup3\n        /* \"#utility.yul\":5539:5556   */\n      mul\n        /* \"#utility.yul\":5529:5537   */\n      dup4\n        /* \"#utility.yul\":5525:5557   */\n      add\n        /* \"#utility.yul\":5522:5563   */\n      gt\n        /* \"#utility.yul\":5519:5647   */\n      iszero\n      tag_678\n      jumpi\n        /* \"#utility.yul\":5566:5645   */\n      tag_679\n      tag_566\n      jump\t// in\n    tag_679:\n        /* \"#utility.yul\":5519:5647   */\n    tag_678:\n        /* \"#utility.yul\":5101:5653   */\n      swap3\n      pop\n      swap3\n      swap1\n      pop\n      jump\t// out\n        /* \"#utility.yul\":5659:6331   */\n    tag_128:\n        /* \"#utility.yul\":5738:5744   */\n      0x00\n        /* \"#utility.yul\":5746:5752   */\n      0x00\n        /* \"#utility.yul\":5754:5760   */\n      0x00\n        /* \"#utility.yul\":5803:5805   */\n      0x40\n        /* \"#utility.yul\":5791:5800   */\n      dup5\n        /* \"#utility.yul\":5782:5789   */\n      dup7\n        /* \"#utility.yul\":5778:5801   */\n      sub\n        /* \"#utility.yul\":5774:5806   */\n      slt\n        /* \"#utility.yul\":5771:5890   */\n      iszero\n      tag_681\n      jumpi\n        /* \"#utility.yul\":5809:5888   */\n      tag_682\n      tag_543\n      jump\t// in\n    tag_682:\n        /* \"#utility.yul\":5771:5890   */\n    tag_681:\n        /* \"#utility.yul\":5929:5930   */\n      0x00\n        /* \"#utility.yul\":5954:6007   */\n      tag_683\n        /* \"#utility.yul\":5999:6006   */\n      dup7\n        /* \"#utility.yul\":5990:5996   */\n      dup3\n        /* \"#utility.yul\":5979:5988   */\n      dup8\n        /* \"#utility.yul\":5975:5997   */\n      add\n        /* \"#utility.yul\":5954:6007   */\n      tag_552\n      jump\t// in\n    tag_683:\n        /* \"#utility.yul\":5944:6007   */\n      swap4\n      pop\n        /* \"#utility.yul\":5900:6017   */\n      pop\n        /* \"#utility.yul\":6084:6086   */\n      0x20\n        /* \"#utility.yul\":6073:6082   */\n      dup5\n        /* \"#utility.yul\":6069:6087   */\n      add\n        /* \"#utility.yul\":6056:6088   */\n      calldataload\n        /* \"#utility.yul\":6115:6133   */\n      0xffffffffffffffff\n        /* \"#utility.yul\":6107:6113   */\n      dup2\n        /* \"#utility.yul\":6104:6134   */\n      gt\n        /* \"#utility.yul\":6101:6218   */\n      iszero\n      tag_684\n      jumpi\n        /* \"#utility.yul\":6137:6216   */\n      tag_685\n      tag_544\n      jump\t// in\n    tag_685:\n        /* \"#utility.yul\":6101:6218   */\n    tag_684:\n        /* \"#utility.yul\":6250:6314   */\n      tag_686\n        /* \"#utility.yul\":6306:6313   */\n      dup7\n        /* \"#utility.yul\":6297:6303   */\n      dup3\n        /* \"#utility.yul\":6286:6295   */\n      dup8\n        /* \"#utility.yul\":6282:6304   */\n      add\n        /* \"#utility.yul\":6250:6314   */\n      tag_567\n      jump\t// in\n    tag_686:\n        /* \"#utility.yul\":6232:6314   */\n      swap3\n      pop\n      swap3\n      pop\n        /* \"#utility.yul\":6027:6324   */\n      pop\n        /* \"#utility.yul\":5659:6331   */\n      swap3\n      pop\n      swap3\n      pop\n      swap3\n      jump\t// out\n        /* \"#utility.yul\":6337:6414   */\n    tag_568:\n        /* \"#utility.yul\":6374:6381   */\n      0x00\n        /* \"#utility.yul\":6403:6408   */\n      dup2\n        /* \"#utility.yul\":6392:6408   */\n      swap1\n      pop\n        /* \"#utility.yul\":6337:6414   */\n      swap2\n      swap1\n      pop\n      jump\t// out\n        /* \"#utility.yul\":6420:6538   */\n    tag_569:\n        /* \"#utility.yul\":6507:6531   */\n      tag_689\n        /* \"#utility.yul\":6525:6530   */\n      dup2\n        /* \"#utility.yul\":6507:6531   */\n      tag_568\n      jump\t// in\n    tag_689:\n        /* \"#utility.yul\":6502:6505   */\n      dup3\n        /* \"#utility.yul\":6495:6532   */\n      mstore\n        /* \"#utility.yul\":6420:6538   */\n      pop\n      pop\n      jump\t// out\n        /* \"#utility.yul\":6544:6766   */\n    tag_134:\n        /* \"#utility.yul\":6637:6641   */\n      0x00\n        /* \"#utility.yul\":6675:6677   */\n      0x20\n        /* \"#utility.yul\":6664:6673   */\n      dup3\n        /* \"#utility.yul\":6660:6678   */\n      add\n        /* \"#utility.yul\":6652:6678   */\n      swap1\n      pop\n        /* \"#utility.yul\":6688:6759   */\n      tag_691\n        /* \"#utility.yul\":6756:6757   */\n      0x00\n        /* \"#utility.yul\":6745:6754   */\n      dup4\n        /* \"#utility.yul\":6741:6758   */\n      add\n        /* \"#utility.yul\":6732:6738   */\n      dup5\n        /* \"#utility.yul\":6688:6759   */\n      tag_569\n      jump\t// in\n    tag_691:\n        /* \"#utility.yul\":6544:6766   */\n      swap3\n      swap2\n      pop\n      pop\n      jump\t// out\n        /* \"#utility.yul\":6772:7214   */\n    tag_140:\n        /* \"#utility.yul\":6921:6925   */\n      0x00\n        /* \"#utility.yul\":6959:6961   */\n      0x60\n        /* \"#utility.yul\":6948:6957   */\n      dup3\n        /* \"#utility.yul\":6944:6962   */\n      add\n        /* \"#utility.yul\":6936:6962   */\n      swap1\n      pop\n        /* \"#utility.yul\":6972:7043   */\n      tag_693\n        /* \"#utility.yul\":7040:7041   */\n      0x00\n        /* \"#utility.yul\":7029:7038   */\n      dup4\n        /* \"#utility.yul\":7025:7042   */\n      add\n        /* \"#utility.yul\":7016:7022   */\n      dup7\n        /* \"#utility.yul\":6972:7043   */\n      tag_548\n      jump\t// in\n    tag_693:\n        /* \"#utility.yul\":7053:7125   */\n      tag_694\n        /* \"#utility.yul\":7121:7123   */\n      0x20\n        /* \"#utility.yul\":7110:7119   */\n      dup4\n        /* \"#utility.yul\":7106:7124   */\n      add\n        /* \"#utility.yul\":7097:7103   */\n      dup6\n        /* \"#utility.yul\":7053:7125   */\n      tag_548\n      jump\t// in\n    tag_694:\n        /* \"#utility.yul\":7135:7207   */\n      tag_695\n        /* \"#utility.yul\":7203:7205   */\n      0x40\n        /* \"#utility.yul\":7192:7201   */\n      dup4\n        /* \"#utility.yul\":7188:7206   */\n      add\n        /* \"#utility.yul\":7179:7185   */\n      dup5\n        /* \"#utility.yul\":7135:7207   */\n      tag_548\n      jump\t// in\n    tag_695:\n        /* \"#utility.yul\":6772:7214   */\n      swap5\n      swap4\n      pop\n      pop\n      pop\n      pop\n      jump\t// out\n        /* \"#utility.yul\":7220:7361   */\n    tag_570:\n        /* \"#utility.yul\":7285:7294   */\n      0x00\n        /* \"#utility.yul\":7318:7355   */\n      tag_697\n        /* \"#utility.yul\":7349:7354   */\n      dup3\n        /* \"#utility.yul\":7318:7355   */\n      tag_555\n      jump\t// in\n    tag_697:\n        /* \"#utility.yul\":7305:7355   */\n      swap1\n      pop\n        /* \"#utility.yul\":7220:7361   */\n      swap2\n      swap1\n      pop\n      jump\t// out\n        /* \"#utility.yul\":7367:7528   */\n    tag_571:\n        /* \"#utility.yul\":7469:7521   */\n      tag_699\n        /* \"#utility.yul\":7515:7520   */\n      dup2\n        /* \"#utility.yul\":7469:7521   */\n      tag_570\n      jump\t// in\n    tag_699:\n        /* \"#utility.yul\":7464:7467   */\n      dup3\n        /* \"#utility.yul\":7457:7522   */\n      mstore\n        /* \"#utility.yul\":7367:7528   */\n      pop\n      pop\n      jump\t// out\n        /* \"#utility.yul\":7534:7786   */\n    tag_180:\n        /* \"#utility.yul\":7642:7646   */\n      0x00\n        /* \"#utility.yul\":7680:7682   */\n      0x20\n        /* \"#utility.yul\":7669:7678   */\n      dup3\n        /* \"#utility.yul\":7665:7683   */\n      add\n        /* \"#utility.yul\":7657:7683   */\n      swap1\n      pop\n        /* \"#utility.yul\":7693:7779   */\n      tag_701\n        /* \"#utility.yul\":7776:7777   */\n      0x00\n        /* \"#utility.yul\":7765:7774   */\n      dup4\n        /* \"#utility.yul\":7761:7778   */\n      add\n        /* \"#utility.yul\":7752:7758   */\n      dup5\n        /* \"#utility.yul\":7693:7779   */\n      tag_571\n      jump\t// in\n    tag_701:\n        /* \"#utility.yul\":7534:7786   */\n      swap3\n      swap2\n      pop\n      pop\n      jump\t// out\n        /* \"#utility.yul\":7792:7882   */\n    tag_572:\n        /* \"#utility.yul\":7826:7833   */\n      0x00\n        /* \"#utility.yul\":7869:7874   */\n      dup2\n        /* \"#utility.yul\":7862:7875   */\n      iszero\n        /* \"#utility.yul\":7855:7876   */\n      iszero\n        /* \"#utility.yul\":7844:7876   */\n      swap1\n      pop\n        /* \"#utility.yul\":7792:7882   */\n      swap2\n      swap1\n      pop\n      jump\t// out\n        /* \"#utility.yul\":7888:7997   */\n    tag_573:\n        /* \"#utility.yul\":7969:7990   */\n      tag_704\n        /* \"#utility.yul\":7984:7989   */\n      dup2\n        /* \"#utility.yul\":7969:7990   */\n      tag_572\n      jump\t// in\n    tag_704:\n        /* \"#utility.yul\":7964:7967   */\n      dup3\n        /* \"#utility.yul\":7957:7991   */\n      mstore\n        /* \"#utility.yul\":7888:7997   */\n      pop\n      pop\n      jump\t// out\n        /* \"#utility.yul\":8003:8213   */\n    tag_190:\n        /* \"#utility.yul\":8090:8094   */\n      0x00\n        /* \"#utility.yul\":8128:8130   */\n      0x20\n        /* \"#utility.yul\":8117:8126   */\n      dup3\n        /* \"#utility.yul\":8113:8131   */\n      add\n        /* \"#utility.yul\":8105:8131   */\n      swap1\n      pop\n        /* \"#utility.yul\":8141:8206   */\n      tag_706\n        /* \"#utility.yul\":8203:8204   */\n      0x00\n        /* \"#utility.yul\":8192:8201   */\n      dup4\n        /* \"#utility.yul\":8188:8205   */\n      add\n        /* \"#utility.yul\":8179:8185   */\n      dup5\n        /* \"#utility.yul\":8141:8206   */\n      tag_573\n      jump\t// in\n    tag_706:\n        /* \"#utility.yul\":8003:8213   */\n      swap3\n      swap2\n      pop\n      pop\n      jump\t// out\n        /* \"#utility.yul\":8219:8336   */\n    tag_574:\n        /* \"#utility.yul\":8328:8329   */\n      0x00\n        /* \"#utility.yul\":8325:8326   */\n      0x00\n        /* \"#utility.yul\":8318:8330   */\n      revert\n        /* \"#utility.yul\":8374:8608   */\n    tag_575:\n        /* \"#utility.yul\":8449:8454   */\n      0x00\n        /* \"#utility.yul\":8490:8493   */\n      0x0160\n        /* \"#utility.yul\":8481:8487   */\n      dup3\n        /* \"#utility.yul\":8476:8479   */\n      dup5\n        /* \"#utility.yul\":8472:8488   */\n      sub\n        /* \"#utility.yul\":8468:8494   */\n      slt\n        /* \"#utility.yul\":8465:8578   */\n      iszero\n      tag_709\n      jumpi\n        /* \"#utility.yul\":8497:8576   */\n      tag_710\n      tag_574\n      jump\t// in\n    tag_710:\n        /* \"#utility.yul\":8465:8578   */\n    tag_709:\n        /* \"#utility.yul\":8596:8602   */\n      dup2\n        /* \"#utility.yul\":8587:8602   */\n      swap1\n      pop\n        /* \"#utility.yul\":8374:8608   */\n      swap3\n      swap2\n      pop\n      pop\n      jump\t// out\n        /* \"#utility.yul\":8628:9181   */\n    tag_576:\n        /* \"#utility.yul\":8686:8694   */\n      0x00\n        /* \"#utility.yul\":8696:8702   */\n      0x00\n        /* \"#utility.yul\":8746:8749   */\n      dup4\n        /* \"#utility.yul\":8739:8743   */\n      0x1f\n        /* \"#utility.yul\":8731:8737   */\n      dup5\n        /* \"#utility.yul\":8727:8744   */\n      add\n        /* \"#utility.yul\":8723:8750   */\n      slt\n        /* \"#utility.yul\":8713:8835   */\n      tag_712\n      jumpi\n        /* \"#utility.yul\":8754:8833   */\n      tag_713\n      tag_564\n      jump\t// in\n    tag_713:\n        /* \"#utility.yul\":8713:8835   */\n    tag_712:\n        /* \"#utility.yul\":8867:8873   */\n      dup3\n        /* \"#utility.yul\":8854:8874   */\n      calldataload\n        /* \"#utility.yul\":8844:8874   */\n      swap1\n      pop\n        /* \"#utility.yul\":8897:8915   */\n      0xffffffffffffffff\n        /* \"#utility.yul\":8889:8895   */\n      dup2\n        /* \"#utility.yul\":8886:8916   */\n      gt\n        /* \"#utility.yul\":8883:9000   */\n      iszero\n      tag_714\n      jumpi\n        /* \"#utility.yul\":8919:8998   */\n      tag_715\n      tag_565\n      jump\t// in\n    tag_715:\n        /* \"#utility.yul\":8883:9000   */\n    tag_714:\n        /* \"#utility.yul\":9033:9037   */\n      0x20\n        /* \"#utility.yul\":9025:9031   */\n      dup4\n        /* \"#utility.yul\":9021:9038   */\n      add\n        /* \"#utility.yul\":9009:9038   */\n      swap2\n      pop\n        /* \"#utility.yul\":9087:9090   */\n      dup4\n        /* \"#utility.yul\":9079:9083   */\n      0x01\n        /* \"#utility.yul\":9071:9077   */\n      dup3\n        /* \"#utility.yul\":9067:9084   */\n      mul\n        /* \"#utility.yul\":9057:9065   */\n      dup4\n        /* \"#utility.yul\":9053:9085   */\n      add\n        /* \"#utility.yul\":9050:9091   */\n      gt\n        /* \"#utility.yul\":9047:9175   */\n      iszero\n      tag_716\n      jumpi\n        /* \"#utility.yul\":9094:9173   */\n      tag_717\n      tag_566\n      jump\t// in\n    tag_717:\n        /* \"#utility.yul\":9047:9175   */\n    tag_716:\n        /* \"#utility.yul\":8628:9181   */\n      swap3\n      pop\n      swap3\n      swap1\n      pop\n      jump\t// out\n        /* \"#utility.yul\":9187:10267   */\n    tag_205:\n        /* \"#utility.yul\":9317:9323   */\n      0x00\n        /* \"#utility.yul\":9325:9331   */\n      0x00\n        /* \"#utility.yul\":9333:9339   */\n      0x00\n        /* \"#utility.yul\":9341:9347   */\n      0x00\n        /* \"#utility.yul\":9349:9355   */\n      0x00\n        /* \"#utility.yul\":9398:9401   */\n      0x01a0\n        /* \"#utility.yul\":9386:9395   */\n      dup7\n        /* \"#utility.yul\":9377:9384   */\n      dup9\n        /* \"#utility.yul\":9373:9396   */\n      sub\n        /* \"#utility.yul\":9369:9402   */\n      slt\n        /* \"#utility.yul\":9366:9486   */\n      iszero\n      tag_719\n      jumpi\n        /* \"#utility.yul\":9405:9484   */\n      tag_720\n      tag_543\n      jump\t// in\n    tag_720:\n        /* \"#utility.yul\":9366:9486   */\n    tag_719:\n        /* \"#utility.yul\":9525:9526   */\n      0x00\n        /* \"#utility.yul\":9550:9632   */\n      tag_721\n        /* \"#utility.yul\":9624:9631   */\n      dup9\n        /* \"#utility.yul\":9615:9621   */\n      dup3\n        /* \"#utility.yul\":9604:9613   */\n      dup10\n        /* \"#utility.yul\":9600:9622   */\n      add\n        /* \"#utility.yul\":9550:9632   */\n      tag_575\n      jump\t// in\n    tag_721:\n        /* \"#utility.yul\":9540:9632   */\n      swap6\n      pop\n        /* \"#utility.yul\":9496:9642   */\n      pop\n        /* \"#utility.yul\":9709:9712   */\n      0x0160\n        /* \"#utility.yul\":9698:9707   */\n      dup7\n        /* \"#utility.yul\":9694:9713   */\n      add\n        /* \"#utility.yul\":9681:9714   */\n      calldataload\n        /* \"#utility.yul\":9741:9759   */\n      0xffffffffffffffff\n        /* \"#utility.yul\":9733:9739   */\n      dup2\n        /* \"#utility.yul\":9730:9760   */\n      gt\n        /* \"#utility.yul\":9727:9844   */\n      iszero\n      tag_722\n      jumpi\n        /* \"#utility.yul\":9763:9842   */\n      tag_723\n      tag_544\n      jump\t// in\n    tag_723:\n        /* \"#utility.yul\":9727:9844   */\n    tag_722:\n        /* \"#utility.yul\":9876:9941   */\n      tag_724\n        /* \"#utility.yul\":9933:9940   */\n      dup9\n        /* \"#utility.yul\":9924:9930   */\n      dup3\n        /* \"#utility.yul\":9913:9922   */\n      dup10\n        /* \"#utility.yul\":9909:9931   */\n      add\n        /* \"#utility.yul\":9876:9941   */\n      tag_576\n      jump\t// in\n    tag_724:\n        /* \"#utility.yul\":9858:9941   */\n      swap5\n      pop\n      swap5\n      pop\n        /* \"#utility.yul\":9652:9951   */\n      pop\n        /* \"#utility.yul\":10018:10021   */\n      0x0180\n        /* \"#utility.yul\":10007:10016   */\n      dup7\n        /* \"#utility.yul\":10003:10022   */\n      add\n        /* \"#utility.yul\":9990:10023   */\n      calldataload\n        /* \"#utility.yul\":10050:10068   */\n      0xffffffffffffffff\n        /* \"#utility.yul\":10042:10048   */\n      dup2\n        /* \"#utility.yul\":10039:10069   */\n      gt\n        /* \"#utility.yul\":10036:10153   */\n      iszero\n      tag_725\n      jumpi\n        /* \"#utility.yul\":10072:10151   */\n      tag_726\n      tag_544\n      jump\t// in\n    tag_726:\n        /* \"#utility.yul\":10036:10153   */\n    tag_725:\n        /* \"#utility.yul\":10185:10250   */\n      tag_727\n        /* \"#utility.yul\":10242:10249   */\n      dup9\n        /* \"#utility.yul\":10233:10239   */\n      dup3\n        /* \"#utility.yul\":10222:10231   */\n      dup10\n        /* \"#utility.yul\":10218:10240   */\n      add\n        /* \"#utility.yul\":10185:10250   */\n      tag_576\n      jump\t// in\n    tag_727:\n        /* \"#utility.yul\":10167:10250   */\n      swap3\n      pop\n      swap3\n      pop\n        /* \"#utility.yul\":9961:10260   */\n      pop\n        /* \"#utility.yul\":9187:10267   */\n      swap3\n      swap6\n      pop\n      swap3\n      swap6\n      swap1\n      swap4\n      pop\n      jump\t// out\n        /* \"#utility.yul\":10273:10892   */\n    tag_226:\n        /* \"#utility.yul\":10350:10356   */\n      0x00\n        /* \"#utility.yul\":10358:10364   */\n      0x00\n        /* \"#utility.yul\":10366:10372   */\n      0x00\n        /* \"#utility.yul\":10415:10417   */\n      0x60\n        /* \"#utility.yul\":10403:10412   */\n      dup5\n        /* \"#utility.yul\":10394:10401   */\n      dup7\n        /* \"#utility.yul\":10390:10413   */\n      sub\n        /* \"#utility.yul\":10386:10418   */\n      slt\n        /* \"#utility.yul\":10383:10502   */\n      iszero\n      tag_729\n      jumpi\n        /* \"#utility.yul\":10421:10500   */\n      tag_730\n      tag_543\n      jump\t// in\n    tag_730:\n        /* \"#utility.yul\":10383:10502   */\n    tag_729:\n        /* \"#utility.yul\":10541:10542   */\n      0x00\n        /* \"#utility.yul\":10566:10619   */\n      tag_731\n        /* \"#utility.yul\":10611:10618   */\n      dup7\n        /* \"#utility.yul\":10602:10608   */\n      dup3\n        /* \"#utility.yul\":10591:10600   */\n      dup8\n        /* \"#utility.yul\":10587:10609   */\n      add\n        /* \"#utility.yul\":10566:10619   */\n      tag_547\n      jump\t// in\n    tag_731:\n        /* \"#utility.yul\":10556:10619   */\n      swap4\n      pop\n        /* \"#utility.yul\":10512:10629   */\n      pop\n        /* \"#utility.yul\":10668:10670   */\n      0x20\n        /* \"#utility.yul\":10694:10747   */\n      tag_732\n        /* \"#utility.yul\":10739:10746   */\n      dup7\n        /* \"#utility.yul\":10730:10736   */\n      dup3\n        /* \"#utility.yul\":10719:10728   */\n      dup8\n        /* \"#utility.yul\":10715:10737   */\n      add\n        /* \"#utility.yul\":10694:10747   */\n      tag_547\n      jump\t// in\n    tag_732:\n        /* \"#utility.yul\":10684:10747   */\n      swap3\n      pop\n        /* \"#utility.yul\":10639:10757   */\n      pop\n        /* \"#utility.yul\":10796:10798   */\n      0x40\n        /* \"#utility.yul\":10822:10875   */\n      tag_733\n        /* \"#utility.yul\":10867:10874   */\n      dup7\n        /* \"#utility.yul\":10858:10864   */\n      dup3\n        /* \"#utility.yul\":10847:10856   */\n      dup8\n        /* \"#utility.yul\":10843:10865   */\n      add\n        /* \"#utility.yul\":10822:10875   */\n      tag_547\n      jump\t// in\n    tag_733:\n        /* \"#utility.yul\":10812:10875   */\n      swap2\n      pop\n        /* \"#utility.yul\":10767:10885   */\n      pop\n        /* \"#utility.yul\":10273:10892   */\n      swap3\n      pop\n      swap3\n      pop\n      swap3\n      jump\t// out\n        /* \"#utility.yul\":10898:11078   */\n    tag_577:\n        /* \"#utility.yul\":10946:11023   */\n      0x4e487b7100000000000000000000000000000000000000000000000000000000\n        /* \"#utility.yul\":10943:10944   */\n      0x00\n        /* \"#utility.yul\":10936:11024   */\n      mstore\n        /* \"#utility.yul\":11043:11047   */\n      0x11\n        /* \"#utility.yul\":11040:11041   */\n      0x04\n        /* \"#utility.yul\":11033:11048   */\n      mstore\n        /* \"#utility.yul\":11067:11071   */\n      0x24\n        /* \"#utility.yul\":11064:11065   */\n      0x00\n        /* \"#utility.yul\":11057:11072   */\n      revert\n        /* \"#utility.yul\":11084:11494   */\n    tag_256:\n        /* \"#utility.yul\":11124:11131   */\n      0x00\n        /* \"#utility.yul\":11147:11167   */\n      tag_736\n        /* \"#utility.yul\":11165:11166   */\n      dup3\n        /* \"#utility.yul\":11147:11167   */\n      tag_545\n      jump\t// in\n    tag_736:\n        /* \"#utility.yul\":11142:11167   */\n      swap2\n      pop\n        /* \"#utility.yul\":11181:11201   */\n      tag_737\n        /* \"#utility.yul\":11199:11200   */\n      dup4\n        /* \"#utility.yul\":11181:11201   */\n      tag_545\n      jump\t// in\n    tag_737:\n        /* \"#utility.yul\":11176:11201   */\n      swap3\n      pop\n        /* \"#utility.yul\":11236:11237   */\n      dup3\n        /* \"#utility.yul\":11233:11234   */\n      dup3\n        /* \"#utility.yul\":11229:11238   */\n      mul\n        /* \"#utility.yul\":11258:11288   */\n      tag_738\n        /* \"#utility.yul\":11276:11287   */\n      dup2\n        /* \"#utility.yul\":11258:11288   */\n      tag_545\n      jump\t// in\n    tag_738:\n        /* \"#utility.yul\":11247:11288   */\n      swap2\n      pop\n        /* \"#utility.yul\":11437:11438   */\n      dup3\n        /* \"#utility.yul\":11428:11435   */\n      dup3\n        /* \"#utility.yul\":11424:11439   */\n      div\n        /* \"#utility.yul\":11421:11422   */\n      dup5\n        /* \"#utility.yul\":11418:11440   */\n      eq\n        /* \"#utility.yul\":11398:11399   */\n      dup4\n        /* \"#utility.yul\":11391:11400   */\n      iszero\n        /* \"#utility.yul\":11371:11454   */\n      or\n        /* \"#utility.yul\":11348:11487   */\n      tag_739\n      jumpi\n        /* \"#utility.yul\":11467:11485   */\n      tag_740\n      tag_577\n      jump\t// in\n    tag_740:\n        /* \"#utility.yul\":11348:11487   */\n    tag_739:\n        /* \"#utility.yul\":11132:11494   */\n      pop\n        /* \"#utility.yul\":11084:11494   */\n      swap3\n      swap2\n      pop\n      pop\n      jump\t// out\n        /* \"#utility.yul\":11500:11680   */\n    tag_578:\n        /* \"#utility.yul\":11548:11625   */\n      0x4e487b7100000000000000000000000000000000000000000000000000000000\n        /* \"#utility.yul\":11545:11546   */\n      0x00\n        /* \"#utility.yul\":11538:11626   */\n      mstore\n        /* \"#utility.yul\":11645:11649   */\n      0x12\n        /* \"#utility.yul\":11642:11643   */\n      0x04\n        /* \"#utility.yul\":11635:11650   */\n      mstore\n        /* \"#utility.yul\":11669:11673   */\n      0x24\n        /* \"#utility.yul\":11666:11667   */\n      0x00\n        /* \"#utility.yul\":11659:11674   */\n      revert\n        /* \"#utility.yul\":11686:11871   */\n    tag_258:\n        /* \"#utility.yul\":11726:11727   */\n      0x00\n        /* \"#utility.yul\":11743:11763   */\n      tag_743\n        /* \"#utility.yul\":11761:11762   */\n      dup3\n        /* \"#utility.yul\":11743:11763   */\n      tag_545\n      jump\t// in\n    tag_743:\n        /* \"#utility.yul\":11738:11763   */\n      swap2\n      pop\n        /* \"#utility.yul\":11777:11797   */\n      tag_744\n        /* \"#utility.yul\":11795:11796   */\n      dup4\n        /* \"#utility.yul\":11777:11797   */\n      tag_545\n      jump\t// in\n    tag_744:\n        /* \"#utility.yul\":11772:11797   */\n      swap3\n      pop\n        /* \"#utility.yul\":11816:11817   */\n      dup3\n        /* \"#utility.yul\":11806:11841   */\n      tag_745\n      jumpi\n        /* \"#utility.yul\":11821:11839   */\n      tag_746\n      tag_578\n      jump\t// in\n    tag_746:\n        /* \"#utility.yul\":11806:11841   */\n    tag_745:\n        /* \"#utility.yul\":11863:11864   */\n      dup3\n        /* \"#utility.yul\":11860:11861   */\n      dup3\n        /* \"#utility.yul\":11856:11865   */\n      div\n        /* \"#utility.yul\":11851:11865   */\n      swap1\n      pop\n        /* \"#utility.yul\":11686:11871   */\n      swap3\n      swap2\n      pop\n      pop\n      jump\t// out\n        /* \"#utility.yul\":11877:12071   */\n    tag_275:\n        /* \"#utility.yul\":11917:11921   */\n      0x00\n        /* \"#utility.yul\":11937:11957   */\n      tag_748\n        /* \"#utility.yul\":11955:11956   */\n      dup3\n        /* \"#utility.yul\":11937:11957   */\n      tag_545\n      jump\t// in\n    tag_748:\n        /* \"#utility.yul\":11932:11957   */\n      swap2\n      pop\n        /* \"#utility.yul\":11971:11991   */\n      tag_749\n        /* \"#utility.yul\":11989:11990   */\n      dup4\n        /* \"#utility.yul\":11971:11991   */\n      tag_545\n      jump\t// in\n    tag_749:\n        /* \"#utility.yul\":11966:11991   */\n      swap3\n      pop\n        /* \"#utility.yul\":12015:12016   */\n      dup3\n        /* \"#utility.yul\":12012:12013   */\n      dup3\n        /* \"#utility.yul\":12008:12017   */\n      sub\n        /* \"#utility.yul\":12000:12017   */\n      swap1\n      pop\n        /* \"#utility.yul\":12039:12040   */\n      dup2\n        /* \"#utility.yul\":12033:12037   */\n      dup2\n        /* \"#utility.yul\":12030:12041   */\n      gt\n        /* \"#utility.yul\":12027:12064   */\n      iszero\n      tag_750\n      jumpi\n        /* \"#utility.yul\":12044:12062   */\n      tag_751\n      tag_577\n      jump\t// in\n    tag_751:\n        /* \"#utility.yul\":12027:12064   */\n    tag_750:\n        /* \"#utility.yul\":11877:12071   */\n      swap3\n      swap2\n      pop\n      pop\n      jump\t// out\n        /* \"#utility.yul\":12077:12409   */\n    tag_278:\n        /* \"#utility.yul\":12198:12202   */\n      0x00\n        /* \"#utility.yul\":12236:12238   */\n      0x40\n        /* \"#utility.yul\":12225:12234   */\n      dup3\n        /* \"#utility.yul\":12221:12239   */\n      add\n        /* \"#utility.yul\":12213:12239   */\n      swap1\n      pop\n        /* \"#utility.yul\":12249:12320   */\n      tag_753\n        /* \"#utility.yul\":12317:12318   */\n      0x00\n        /* \"#utility.yul\":12306:12315   */\n      dup4\n        /* \"#utility.yul\":12302:12319   */\n      add\n        /* \"#utility.yul\":12293:12299   */\n      dup6\n        /* \"#utility.yul\":12249:12320   */\n      tag_558\n      jump\t// in\n    tag_753:\n        /* \"#utility.yul\":12330:12402   */\n      tag_754\n        /* \"#utility.yul\":12398:12400   */\n      0x20\n        /* \"#utility.yul\":12387:12396   */\n      dup4\n        /* \"#utility.yul\":12383:12401   */\n      add\n        /* \"#utility.yul\":12374:12380   */\n      dup5\n        /* \"#utility.yul\":12330:12402   */\n      tag_548\n      jump\t// in\n    tag_754:\n        /* \"#utility.yul\":12077:12409   */\n      swap4\n      swap3\n      pop\n      pop\n      pop\n      jump\t// out\n        /* \"#utility.yul\":12415:12531   */\n    tag_579:\n        /* \"#utility.yul\":12485:12506   */\n      tag_756\n        /* \"#utility.yul\":12500:12505   */\n      dup2\n        /* \"#utility.yul\":12485:12506   */\n      tag_572\n      jump\t// in\n    tag_756:\n        /* \"#utility.yul\":12478:12483   */\n      dup2\n        /* \"#utility.yul\":12475:12507   */\n      eq\n        /* \"#utility.yul\":12465:12525   */\n      tag_757\n      jumpi\n        /* \"#utility.yul\":12521:12522   */\n      0x00\n        /* \"#utility.yul\":12518:12519   */\n      0x00\n        /* \"#utility.yul\":12511:12523   */\n      revert\n        /* \"#utility.yul\":12465:12525   */\n    tag_757:\n        /* \"#utility.yul\":12415:12531   */\n      pop\n      jump\t// out\n        /* \"#utility.yul\":12537:12674   */\n    tag_580:\n        /* \"#utility.yul\":12591:12596   */\n      0x00\n        /* \"#utility.yul\":12622:12628   */\n      dup2\n        /* \"#utility.yul\":12616:12629   */\n      mload\n        /* \"#utility.yul\":12607:12629   */\n      swap1\n      pop\n        /* \"#utility.yul\":12638:12668   */\n      tag_759\n        /* \"#utility.yul\":12662:12667   */\n      dup2\n        /* \"#utility.yul\":12638:12668   */\n      tag_579\n      jump\t// in\n    tag_759:\n        /* \"#utility.yul\":12537:12674   */\n      swap3\n      swap2\n      pop\n      pop\n      jump\t// out\n        /* \"#utility.yul\":12680:13025   */\n    tag_282:\n        /* \"#utility.yul\":12747:12753   */\n      0x00\n        /* \"#utility.yul\":12796:12798   */\n      0x20\n        /* \"#utility.yul\":12784:12793   */\n      dup3\n        /* \"#utility.yul\":12775:12782   */\n      dup5\n        /* \"#utility.yul\":12771:12794   */\n      sub\n        /* \"#utility.yul\":12767:12799   */\n      slt\n        /* \"#utility.yul\":12764:12883   */\n      iszero\n      tag_761\n      jumpi\n        /* \"#utility.yul\":12802:12881   */\n      tag_762\n      tag_543\n      jump\t// in\n    tag_762:\n        /* \"#utility.yul\":12764:12883   */\n    tag_761:\n        /* \"#utility.yul\":12922:12923   */\n      0x00\n        /* \"#utility.yul\":12947:13008   */\n      tag_763\n        /* \"#utility.yul\":13000:13007   */\n      dup5\n        /* \"#utility.yul\":12991:12997   */\n      dup3\n        /* \"#utility.yul\":12980:12989   */\n      dup6\n        /* \"#utility.yul\":12976:12998   */\n      add\n        /* \"#utility.yul\":12947:13008   */\n      tag_580\n      jump\t// in\n    tag_763:\n        /* \"#utility.yul\":12937:13008   */\n      swap2\n      pop\n        /* \"#utility.yul\":12893:13018   */\n      pop\n        /* \"#utility.yul\":12680:13025   */\n      swap3\n      swap2\n      pop\n      pop\n      jump\t// out\n        /* \"#utility.yul\":13031:13211   */\n    tag_291:\n        /* \"#utility.yul\":13079:13156   */\n      0x4e487b7100000000000000000000000000000000000000000000000000000000\n        /* \"#utility.yul\":13076:13077   */\n      0x00\n        /* \"#utility.yul\":13069:13157   */\n      mstore\n        /* \"#utility.yul\":13176:13180   */\n      0x31\n        /* \"#utility.yul\":13173:13174   */\n      0x04\n        /* \"#utility.yul\":13166:13181   */\n      mstore\n        /* \"#utility.yul\":13200:13204   */\n      0x24\n        /* \"#utility.yul\":13197:13198   */\n      0x00\n        /* \"#utility.yul\":13190:13205   */\n      revert\n        /* \"#utility.yul\":13217:13549   */\n    tag_294:\n        /* \"#utility.yul\":13338:13342   */\n      0x00\n        /* \"#utility.yul\":13376:13378   */\n      0x40\n        /* \"#utility.yul\":13365:13374   */\n      dup3\n        /* \"#utility.yul\":13361:13379   */\n      add\n        /* \"#utility.yul\":13353:13379   */\n      swap1\n      pop\n        /* \"#utility.yul\":13389:13460   */\n      tag_766\n        /* \"#utility.yul\":13457:13458   */\n      0x00\n        /* \"#utility.yul\":13446:13455   */\n      dup4\n        /* \"#utility.yul\":13442:13459   */\n      add\n        /* \"#utility.yul\":13433:13439   */\n      dup6\n        /* \"#utility.yul\":13389:13460   */\n      tag_548\n      jump\t// in\n    tag_766:\n        /* \"#utility.yul\":13470:13542   */\n      tag_767\n        /* \"#utility.yul\":13538:13540   */\n      0x20\n        /* \"#utility.yul\":13527:13536   */\n      dup4\n        /* \"#utility.yul\":13523:13541   */\n      add\n        /* \"#utility.yul\":13514:13520   */\n      dup5\n        /* \"#utility.yul\":13470:13542   */\n      tag_548\n      jump\t// in\n    tag_767:\n        /* \"#utility.yul\":13217:13549   */\n      swap4\n      swap3\n      pop\n      pop\n      pop\n      jump\t// out\n        /* \"#utility.yul\":13555:13721   */\n    tag_581:\n        /* \"#utility.yul\":13695:13713   */\n      0x4e4f545f44454c454741544543414c4c00000000000000000000000000000000\n        /* \"#utility.yul\":13691:13692   */\n      0x00\n        /* \"#utility.yul\":13683:13689   */\n      dup3\n        /* \"#utility.yul\":13679:13693   */\n      add\n        /* \"#utility.yul\":13672:13714   */\n      mstore\n        /* \"#utility.yul\":13555:13721   */\n      pop\n      jump\t// out\n        /* \"#utility.yul\":13727:14093   */\n    tag_582:\n        /* \"#utility.yul\":13869:13872   */\n      0x00\n        /* \"#utility.yul\":13890:13957   */\n      tag_770\n        /* \"#utility.yul\":13954:13956   */\n      0x10\n        /* \"#utility.yul\":13949:13952   */\n      dup4\n        /* \"#utility.yul\":13890:13957   */\n      tag_560\n      jump\t// in\n    tag_770:\n        /* \"#utility.yul\":13883:13957   */\n      swap2\n      pop\n        /* \"#utility.yul\":13966:14059   */\n      tag_771\n        /* \"#utility.yul\":14055:14058   */\n      dup3\n        /* \"#utility.yul\":13966:14059   */\n      tag_581\n      jump\t// in\n    tag_771:\n        /* \"#utility.yul\":14084:14086   */\n      0x20\n        /* \"#utility.yul\":14079:14082   */\n      dup3\n        /* \"#utility.yul\":14075:14087   */\n      add\n        /* \"#utility.yul\":14068:14087   */\n      swap1\n      pop\n        /* \"#utility.yul\":13727:14093   */\n      swap2\n      swap1\n      pop\n      jump\t// out\n        /* \"#utility.yul\":14099:14518   */\n    tag_298:\n        /* \"#utility.yul\":14265:14269   */\n      0x00\n        /* \"#utility.yul\":14303:14305   */\n      0x20\n        /* \"#utility.yul\":14292:14301   */\n      dup3\n        /* \"#utility.yul\":14288:14306   */\n      add\n        /* \"#utility.yul\":14280:14306   */\n      swap1\n      pop\n        /* \"#utility.yul\":14352:14361   */\n      dup2\n        /* \"#utility.yul\":14346:14350   */\n      dup2\n        /* \"#utility.yul\":14342:14362   */\n      sub\n        /* \"#utility.yul\":14338:14339   */\n      0x00\n        /* \"#utility.yul\":14327:14336   */\n      dup4\n        /* \"#utility.yul\":14323:14340   */\n      add\n        /* \"#utility.yul\":14316:14363   */\n      mstore\n        /* \"#utility.yul\":14380:14511   */\n      tag_773\n        /* \"#utility.yul\":14506:14510   */\n      dup2\n        /* \"#utility.yul\":14380:14511   */\n      tag_582\n      jump\t// in\n    tag_773:\n        /* \"#utility.yul\":14372:14511   */\n      swap1\n      pop\n        /* \"#utility.yul\":14099:14518   */\n      swap2\n      swap1\n      pop\n      jump\t// out\n        /* \"#utility.yul\":14524:14688   */\n    tag_583:\n        /* \"#utility.yul\":14664:14680   */\n      0x494e4143544956455f50524f5859000000000000000000000000000000000000\n        /* \"#utility.yul\":14660:14661   */\n      0x00\n        /* \"#utility.yul\":14652:14658   */\n      dup3\n        /* \"#utility.yul\":14648:14662   */\n      add\n        /* \"#utility.yul\":14641:14681   */\n      mstore\n        /* \"#utility.yul\":14524:14688   */\n      pop\n      jump\t// out\n        /* \"#utility.yul\":14694:15060   */\n    tag_584:\n        /* \"#utility.yul\":14836:14839   */\n      0x00\n        /* \"#utility.yul\":14857:14924   */\n      tag_776\n        /* \"#utility.yul\":14921:14923   */\n      0x0e\n        /* \"#utility.yul\":14916:14919   */\n      dup4\n        /* \"#utility.yul\":14857:14924   */\n      tag_560\n      jump\t// in\n    tag_776:\n        /* \"#utility.yul\":14850:14924   */\n      swap2\n      pop\n        /* \"#utility.yul\":14933:15026   */\n      tag_777\n        /* \"#utility.yul\":15022:15025   */\n      dup3\n        /* \"#utility.yul\":14933:15026   */\n      tag_583\n      jump\t// in\n    tag_777:\n        /* \"#utility.yul\":15051:15053   */\n      0x20\n        /* \"#utility.yul\":15046:15049   */\n      dup3\n        /* \"#utility.yul\":15042:15054   */\n      add\n        /* \"#utility.yul\":15035:15054   */\n      swap1\n      pop\n        /* \"#utility.yul\":14694:15060   */\n      swap2\n      swap1\n      pop\n      jump\t// out\n        /* \"#utility.yul\":15066:15485   */\n    tag_303:\n        /* \"#utility.yul\":15232:15236   */\n      0x00\n        /* \"#utility.yul\":15270:15272   */\n      0x20\n        /* \"#utility.yul\":15259:15268   */\n      dup3\n        /* \"#utility.yul\":15255:15273   */\n      add\n        /* \"#utility.yul\":15247:15273   */\n      swap1\n      pop\n        /* \"#utility.yul\":15319:15328   */\n      dup2\n        /* \"#utility.yul\":15313:15317   */\n      dup2\n        /* \"#utility.yul\":15309:15329   */\n      sub\n        /* \"#utility.yul\":15305:15306   */\n      0x00\n        /* \"#utility.yul\":15294:15303   */\n      dup4\n        /* \"#utility.yul\":15290:15307   */\n      add\n        /* \"#utility.yul\":15283:15330   */\n      mstore\n        /* \"#utility.yul\":15347:15478   */\n      tag_779\n        /* \"#utility.yul\":15473:15477   */\n      dup2\n        /* \"#utility.yul\":15347:15478   */\n      tag_584\n      jump\t// in\n    tag_779:\n        /* \"#utility.yul\":15339:15478   */\n      swap1\n      pop\n        /* \"#utility.yul\":15066:15485   */\n      swap2\n      swap1\n      pop\n      jump\t// out\n        /* \"#utility.yul\":15491:15933   */\n    tag_311:\n        /* \"#utility.yul\":15640:15644   */\n      0x00\n        /* \"#utility.yul\":15678:15680   */\n      0x60\n        /* \"#utility.yul\":15667:15676   */\n      dup3\n        /* \"#utility.yul\":15663:15681   */\n      add\n        /* \"#utility.yul\":15655:15681   */\n      swap1\n      pop\n        /* \"#utility.yul\":15691:15762   */\n      tag_781\n        /* \"#utility.yul\":15759:15760   */\n      0x00\n        /* \"#utility.yul\":15748:15757   */\n      dup4\n        /* \"#utility.yul\":15744:15761   */\n      add\n        /* \"#utility.yul\":15735:15741   */\n      dup7\n        /* \"#utility.yul\":15691:15762   */\n      tag_558\n      jump\t// in\n    tag_781:\n        /* \"#utility.yul\":15772:15844   */\n      tag_782\n        /* \"#utility.yul\":15840:15842   */\n      0x20\n        /* \"#utility.yul\":15829:15838   */\n      dup4\n        /* \"#utility.yul\":15825:15843   */\n      add\n        /* \"#utility.yul\":15816:15822   */\n      dup6\n        /* \"#utility.yul\":15772:15844   */\n      tag_558\n      jump\t// in\n    tag_782:\n        /* \"#utility.yul\":15854:15926   */\n      tag_783\n        /* \"#utility.yul\":15922:15924   */\n      0x40\n        /* \"#utility.yul\":15911:15920   */\n      dup4\n        /* \"#utility.yul\":15907:15925   */\n      add\n        /* \"#utility.yul\":15898:15904   */\n      dup5\n        /* \"#utility.yul\":15854:15926   */\n      tag_548\n      jump\t// in\n    tag_783:\n        /* \"#utility.yul\":15491:15933   */\n      swap5\n      swap4\n      pop\n      pop\n      pop\n      pop\n      jump\t// out\n        /* \"#utility.yul\":15939:16130   */\n    tag_316:\n        /* \"#utility.yul\":15979:15982   */\n      0x00\n        /* \"#utility.yul\":15998:16018   */\n      tag_785\n        /* \"#utility.yul\":16016:16017   */\n      dup3\n        /* \"#utility.yul\":15998:16018   */\n      tag_545\n      jump\t// in\n    tag_785:\n        /* \"#utility.yul\":15993:16018   */\n      swap2\n      pop\n        /* \"#utility.yul\":16032:16052   */\n      tag_786\n        /* \"#utility.yul\":16050:16051   */\n      dup4\n        /* \"#utility.yul\":16032:16052   */\n      tag_545\n      jump\t// in\n    tag_786:\n        /* \"#utility.yul\":16027:16052   */\n      swap3\n      pop\n        /* \"#utility.yul\":16075:16076   */\n      dup3\n        /* \"#utility.yul\":16072:16073   */\n      dup3\n        /* \"#utility.yul\":16068:16077   */\n      add\n        /* \"#utility.yul\":16061:16077   */\n      swap1\n      pop\n        /* \"#utility.yul\":16096:16099   */\n      dup1\n        /* \"#utility.yul\":16093:16094   */\n      dup3\n        /* \"#utility.yul\":16090:16100   */\n      gt\n        /* \"#utility.yul\":16087:16123   */\n      iszero\n      tag_787\n      jumpi\n        /* \"#utility.yul\":16103:16121   */\n      tag_788\n      tag_577\n      jump\t// in\n    tag_788:\n        /* \"#utility.yul\":16087:16123   */\n    tag_787:\n        /* \"#utility.yul\":15939:16130   */\n      swap3\n      swap2\n      pop\n      pop\n      jump\t// out\n        /* \"#utility.yul\":16136:16316   */\n    tag_585:\n        /* \"#utility.yul\":16184:16261   */\n      0x4e487b7100000000000000000000000000000000000000000000000000000000\n        /* \"#utility.yul\":16181:16182   */\n      0x00\n        /* \"#utility.yul\":16174:16262   */\n      mstore\n        /* \"#utility.yul\":16281:16285   */\n      0x22\n        /* \"#utility.yul\":16278:16279   */\n      0x04\n        /* \"#utility.yul\":16271:16286   */\n      mstore\n        /* \"#utility.yul\":16305:16309   */\n      0x24\n        /* \"#utility.yul\":16302:16303   */\n      0x00\n        /* \"#utility.yul\":16295:16310   */\n      revert\n        /* \"#utility.yul\":16322:16642   */\n    tag_353:\n        /* \"#utility.yul\":16366:16372   */\n      0x00\n        /* \"#utility.yul\":16403:16404   */\n      0x02\n        /* \"#utility.yul\":16397:16401   */\n      dup3\n        /* \"#utility.yul\":16393:16405   */\n      div\n        /* \"#utility.yul\":16383:16405   */\n      swap1\n      pop\n        /* \"#utility.yul\":16450:16451   */\n      0x01\n        /* \"#utility.yul\":16444:16448   */\n      dup3\n        /* \"#utility.yul\":16440:16452   */\n      and\n        /* \"#utility.yul\":16471:16489   */\n      dup1\n        /* \"#utility.yul\":16461:16542   */\n      tag_791\n      jumpi\n        /* \"#utility.yul\":16527:16531   */\n      0x7f\n        /* \"#utility.yul\":16519:16525   */\n      dup3\n        /* \"#utility.yul\":16515:16532   */\n      and\n        /* \"#utility.yul\":16505:16532   */\n      swap2\n      pop\n        /* \"#utility.yul\":16461:16542   */\n    tag_791:\n        /* \"#utility.yul\":16589:16591   */\n      0x20\n        /* \"#utility.yul\":16581:16587   */\n      dup3\n        /* \"#utility.yul\":16578:16592   */\n      lt\n        /* \"#utility.yul\":16558:16576   */\n      dup2\n        /* \"#utility.yul\":16555:16593   */\n      sub\n        /* \"#utility.yul\":16552:16636   */\n      tag_792\n      jumpi\n        /* \"#utility.yul\":16608:16626   */\n      tag_793\n      tag_585\n      jump\t// in\n    tag_793:\n        /* \"#utility.yul\":16552:16636   */\n    tag_792:\n        /* \"#utility.yul\":16373:16642   */\n      pop\n        /* \"#utility.yul\":16322:16642   */\n      swap2\n      swap1\n      pop\n      jump\t// out\n        /* \"#utility.yul\":16648:16817   */\n    tag_586:\n        /* \"#utility.yul\":16788:16809   */\n      0x4f4e4c595f494d504c454d454e544154494f4e00000000000000000000000000\n        /* \"#utility.yul\":16784:16785   */\n      0x00\n        /* \"#utility.yul\":16776:16782   */\n      dup3\n        /* \"#utility.yul\":16772:16786   */\n      add\n        /* \"#utility.yul\":16765:16810   */\n      mstore\n        /* \"#utility.yul\":16648:16817   */\n      pop\n      jump\t// out\n        /* \"#utility.yul\":16823:17189   */\n    tag_587:\n        /* \"#utility.yul\":16965:16968   */\n      0x00\n        /* \"#utility.yul\":16986:17053   */\n      tag_796\n        /* \"#utility.yul\":17050:17052   */\n      0x13\n        /* \"#utility.yul\":17045:17048   */\n      dup4\n        /* \"#utility.yul\":16986:17053   */\n      tag_560\n      jump\t// in\n    tag_796:\n        /* \"#utility.yul\":16979:17053   */\n      swap2\n      pop\n        /* \"#utility.yul\":17062:17155   */\n      tag_797\n        /* \"#utility.yul\":17151:17154   */\n      dup3\n        /* \"#utility.yul\":17062:17155   */\n      tag_586\n      jump\t// in\n    tag_797:\n        /* \"#utility.yul\":17180:17182   */\n      0x20\n        /* \"#utility.yul\":17175:17178   */\n      dup3\n        /* \"#utility.yul\":17171:17183   */\n      add\n        /* \"#utility.yul\":17164:17183   */\n      swap1\n      pop\n        /* \"#utility.yul\":16823:17189   */\n      swap2\n      swap1\n      pop\n      jump\t// out\n        /* \"#utility.yul\":17195:17614   */\n    tag_373:\n        /* \"#utility.yul\":17361:17365   */\n      0x00\n        /* \"#utility.yul\":17399:17401   */\n      0x20\n        /* \"#utility.yul\":17388:17397   */\n      dup3\n        /* \"#utility.yul\":17384:17402   */\n      add\n        /* \"#utility.yul\":17376:17402   */\n      swap1\n      pop\n        /* \"#utility.yul\":17448:17457   */\n      dup2\n        /* \"#utility.yul\":17442:17446   */\n      dup2\n        /* \"#utility.yul\":17438:17458   */\n      sub\n        /* \"#utility.yul\":17434:17435   */\n      0x00\n        /* \"#utility.yul\":17423:17432   */\n      dup4\n        /* \"#utility.yul\":17419:17436   */\n      add\n        /* \"#utility.yul\":17412:17459   */\n      mstore\n        /* \"#utility.yul\":17476:17607   */\n      tag_799\n        /* \"#utility.yul\":17602:17606   */\n      dup2\n        /* \"#utility.yul\":17476:17607   */\n      tag_587\n      jump\t// in\n    tag_799:\n        /* \"#utility.yul\":17468:17607   */\n      swap1\n      pop\n        /* \"#utility.yul\":17195:17614   */\n      swap2\n      swap1\n      pop\n      jump\t// out\n        /* \"#utility.yul\":17620:17763   */\n    tag_588:\n        /* \"#utility.yul\":17677:17682   */\n      0x00\n        /* \"#utility.yul\":17708:17714   */\n      dup2\n        /* \"#utility.yul\":17702:17715   */\n      mload\n        /* \"#utility.yul\":17693:17715   */\n      swap1\n      pop\n        /* \"#utility.yul\":17724:17757   */\n      tag_801\n        /* \"#utility.yul\":17751:17756   */\n      dup2\n        /* \"#utility.yul\":17724:17757   */\n      tag_546\n      jump\t// in\n    tag_801:\n        /* \"#utility.yul\":17620:17763   */\n      swap3\n      swap2\n      pop\n      pop\n      jump\t// out\n        /* \"#utility.yul\":17769:18120   */\n    tag_396:\n        /* \"#utility.yul\":17839:17845   */\n      0x00\n        /* \"#utility.yul\":17888:17890   */\n      0x20\n        /* \"#utility.yul\":17876:17885   */\n      dup3\n        /* \"#utility.yul\":17867:17874   */\n      dup5\n        /* \"#utility.yul\":17863:17886   */\n      sub\n        /* \"#utility.yul\":17859:17891   */\n      slt\n        /* \"#utility.yul\":17856:17975   */\n      iszero\n      tag_803\n      jumpi\n        /* \"#utility.yul\":17894:17973   */\n      tag_804\n      tag_543\n      jump\t// in\n    tag_804:\n        /* \"#utility.yul\":17856:17975   */\n    tag_803:\n        /* \"#utility.yul\":18014:18015   */\n      0x00\n        /* \"#utility.yul\":18039:18103   */\n      tag_805\n        /* \"#utility.yul\":18095:18102   */\n      dup5\n        /* \"#utility.yul\":18086:18092   */\n      dup3\n        /* \"#utility.yul\":18075:18084   */\n      dup6\n        /* \"#utility.yul\":18071:18093   */\n      add\n        /* \"#utility.yul\":18039:18103   */\n      tag_588\n      jump\t// in\n    tag_805:\n        /* \"#utility.yul\":18029:18103   */\n      swap2\n      pop\n        /* \"#utility.yul\":17985:18113   */\n      pop\n        /* \"#utility.yul\":17769:18120   */\n      swap3\n      swap2\n      pop\n      pop\n      jump\t// out\n        /* \"#utility.yul\":18126:18295   */\n    tag_589:\n        /* \"#utility.yul\":18266:18287   */\n      0x414c52454144595f494e495449414c495a454400000000000000000000000000\n        /* \"#utility.yul\":18262:18263   */\n      0x00\n        /* \"#utility.yul\":18254:18260   */\n      dup3\n        /* \"#utility.yul\":18250:18264   */\n      add\n        /* \"#utility.yul\":18243:18288   */\n      mstore\n        /* \"#utility.yul\":18126:18295   */\n      pop\n      jump\t// out\n        /* \"#utility.yul\":18301:18667   */\n    tag_590:\n        /* \"#utility.yul\":18443:18446   */\n      0x00\n        /* \"#utility.yul\":18464:18531   */\n      tag_808\n        /* \"#utility.yul\":18528:18530   */\n      0x13\n        /* \"#utility.yul\":18523:18526   */\n      dup4\n        /* \"#utility.yul\":18464:18531   */\n      tag_560\n      jump\t// in\n    tag_808:\n        /* \"#utility.yul\":18457:18531   */\n      swap2\n      pop\n        /* \"#utility.yul\":18540:18633   */\n      tag_809\n        /* \"#utility.yul\":18629:18632   */\n      dup3\n        /* \"#utility.yul\":18540:18633   */\n      tag_589\n      jump\t// in\n    tag_809:\n        /* \"#utility.yul\":18658:18660   */\n      0x20\n        /* \"#utility.yul\":18653:18656   */\n      dup3\n        /* \"#utility.yul\":18649:18661   */\n      add\n        /* \"#utility.yul\":18642:18661   */\n      swap1\n      pop\n        /* \"#utility.yul\":18301:18667   */\n      swap2\n      swap1\n      pop\n      jump\t// out\n        /* \"#utility.yul\":18673:19092   */\n    tag_439:\n        /* \"#utility.yul\":18839:18843   */\n      0x00\n        /* \"#utility.yul\":18877:18879   */\n      0x20\n        /* \"#utility.yul\":18866:18875   */\n      dup3\n        /* \"#utility.yul\":18862:18880   */\n      add\n        /* \"#utility.yul\":18854:18880   */\n      swap1\n      pop\n        /* \"#utility.yul\":18926:18935   */\n      dup2\n        /* \"#utility.yul\":18920:18924   */\n      dup2\n        /* \"#utility.yul\":18916:18936   */\n      sub\n        /* \"#utility.yul\":18912:18913   */\n      0x00\n        /* \"#utility.yul\":18901:18910   */\n      dup4\n        /* \"#utility.yul\":18897:18914   */\n      add\n        /* \"#utility.yul\":18890:18937   */\n      mstore\n        /* \"#utility.yul\":18954:19085   */\n      tag_811\n        /* \"#utility.yul\":19080:19084   */\n      dup2\n        /* \"#utility.yul\":18954:19085   */\n      tag_590\n      jump\t// in\n    tag_811:\n        /* \"#utility.yul\":18946:19085   */\n      swap1\n      pop\n        /* \"#utility.yul\":18673:19092   */\n      swap2\n      swap1\n      pop\n      jump\t// out\n        /* \"#utility.yul\":19098:19195   */\n    tag_591:\n        /* \"#utility.yul\":19157:19163   */\n      0x00\n        /* \"#utility.yul\":19185:19188   */\n      dup3\n        /* \"#utility.yul\":19175:19188   */\n      swap1\n      pop\n        /* \"#utility.yul\":19098:19195   */\n      swap3\n      swap2\n      pop\n      pop\n      jump\t// out\n        /* \"#utility.yul\":19201:19381   */\n    tag_592:\n        /* \"#utility.yul\":19249:19326   */\n      0x4e487b7100000000000000000000000000000000000000000000000000000000\n        /* \"#utility.yul\":19246:19247   */\n      0x00\n        /* \"#utility.yul\":19239:19327   */\n      mstore\n        /* \"#utility.yul\":19346:19350   */\n      0x41\n        /* \"#utility.yul\":19343:19344   */\n      0x04\n        /* \"#utility.yul\":19336:19351   */\n      mstore\n        /* \"#utility.yul\":19370:19374   */\n      0x24\n        /* \"#utility.yul\":19367:19368   */\n      0x00\n        /* \"#utility.yul\":19360:19375   */\n      revert\n        /* \"#utility.yul\":19387:19528   */\n    tag_593:\n        /* \"#utility.yul\":19436:19440   */\n      0x00\n        /* \"#utility.yul\":19459:19462   */\n      dup2\n        /* \"#utility.yul\":19451:19462   */\n      swap1\n      pop\n        /* \"#utility.yul\":19482:19485   */\n      dup2\n        /* \"#utility.yul\":19479:19480   */\n      0x00\n        /* \"#utility.yul\":19472:19486   */\n      mstore\n        /* \"#utility.yul\":19516:19520   */\n      0x20\n        /* \"#utility.yul\":19513:19514   */\n      0x00\n        /* \"#utility.yul\":19503:19521   */\n      keccak256\n        /* \"#utility.yul\":19495:19521   */\n      swap1\n      pop\n        /* \"#utility.yul\":19387:19528   */\n      swap2\n      swap1\n      pop\n      jump\t// out\n        /* \"#utility.yul\":19534:19627   */\n    tag_594:\n        /* \"#utility.yul\":19571:19577   */\n      0x00\n        /* \"#utility.yul\":19618:19620   */\n      0x20\n        /* \"#utility.yul\":19613:19615   */\n      0x1f\n        /* \"#utility.yul\":19606:19611   */\n      dup4\n        /* \"#utility.yul\":19602:19616   */\n      add\n        /* \"#utility.yul\":19598:19621   */\n      div\n        /* \"#utility.yul\":19588:19621   */\n      swap1\n      pop\n        /* \"#utility.yul\":19534:19627   */\n      swap2\n      swap1\n      pop\n      jump\t// out\n        /* \"#utility.yul\":19633:19740   */\n    tag_595:\n        /* \"#utility.yul\":19677:19685   */\n      0x00\n        /* \"#utility.yul\":19727:19732   */\n      dup3\n        /* \"#utility.yul\":19721:19725   */\n      dup3\n        /* \"#utility.yul\":19717:19733   */\n      shl\n        /* \"#utility.yul\":19696:19733   */\n      swap1\n      pop\n        /* \"#utility.yul\":19633:19740   */\n      swap3\n      swap2\n      pop\n      pop\n      jump\t// out\n        /* \"#utility.yul\":19746:20139   */\n    tag_596:\n        /* \"#utility.yul\":19815:19821   */\n      0x00\n        /* \"#utility.yul\":19865:19866   */\n      0x08\n        /* \"#utility.yul\":19853:19863   */\n      dup4\n        /* \"#utility.yul\":19849:19867   */\n      mul\n        /* \"#utility.yul\":19888:19985   */\n      tag_818\n        /* \"#utility.yul\":19918:19984   */\n      0xffffffffffffffffffffffffffffffffffffffffffffffffffffffffffffffff\n        /* \"#utility.yul\":19907:19916   */\n      dup3\n        /* \"#utility.yul\":19888:19985   */\n      tag_595\n      jump\t// in\n    tag_818:\n        /* \"#utility.yul\":20006:20045   */\n      tag_819\n        /* \"#utility.yul\":20036:20044   */\n      dup7\n        /* \"#utility.yul\":20025:20034   */\n      dup4\n        /* \"#utility.yul\":20006:20045   */\n      tag_595\n      jump\t// in\n    tag_819:\n        /* \"#utility.yul\":19994:20045   */\n      swap6\n      pop\n        /* \"#utility.yul\":20078:20082   */\n      dup1\n        /* \"#utility.yul\":20074:20083   */\n      not\n        /* \"#utility.yul\":20067:20072   */\n      dup5\n        /* \"#utility.yul\":20063:20084   */\n      and\n        /* \"#utility.yul\":20054:20084   */\n      swap4\n      pop\n        /* \"#utility.yul\":20127:20131   */\n      dup1\n        /* \"#utility.yul\":20117:20125   */\n      dup7\n        /* \"#utility.yul\":20113:20132   */\n      and\n        /* \"#utility.yul\":20106:20111   */\n      dup5\n        /* \"#utility.yul\":20103:20133   */\n      or\n        /* \"#utility.yul\":20093:20133   */\n      swap3\n      pop\n        /* \"#utility.yul\":19822:20139   */\n      pop\n      pop\n        /* \"#utility.yul\":19746:20139   */\n      swap4\n      swap3\n      pop\n      pop\n      pop\n      jump\t// out\n        /* \"#utility.yul\":20145:20287   */\n    tag_597:\n        /* \"#utility.yul\":20195:20204   */\n      0x00\n        /* \"#utility.yul\":20228:20281   */\n      tag_821\n        /* \"#utility.yul\":20246:20280   */\n      tag_822\n        /* \"#utility.yul\":20255:20279   */\n      tag_823\n        /* \"#utility.yul\":20273:20278   */\n      dup5\n        /* \"#utility.yul\":20255:20279   */\n      tag_545\n      jump\t// in\n    tag_823:\n        /* \"#utility.yul\":20246:20280   */\n      tag_553\n      jump\t// in\n    tag_822:\n        /* \"#utility.yul\":20228:20281   */\n      tag_545\n      jump\t// in\n    tag_821:\n        /* \"#utility.yul\":20215:20281   */\n      swap1\n      pop\n        /* \"#utility.yul\":20145:20287   */\n      swap2\n      swap1\n      pop\n      jump\t// out\n        /* \"#utility.yul\":20293:20368   */\n    tag_598:\n        /* \"#utility.yul\":20336:20339   */\n      0x00\n        /* \"#utility.yul\":20357:20362   */\n      dup2\n        /* \"#utility.yul\":20350:20362   */\n      swap1\n      pop\n        /* \"#utility.yul\":20293:20368   */\n      swap2\n      swap1\n      pop\n      jump\t// out\n        /* \"#utility.yul\":20374:20643   */\n    tag_599:\n        /* \"#utility.yul\":20484:20523   */\n      tag_826\n        /* \"#utility.yul\":20515:20522   */\n      dup4\n        /* \"#utility.yul\":20484:20523   */\n      tag_597\n      jump\t// in\n    tag_826:\n        /* \"#utility.yul\":20545:20636   */\n      tag_827\n        /* \"#utility.yul\":20594:20635   */\n      tag_828\n        /* \"#utility.yul\":20618:20634   */\n      dup3\n        /* \"#utility.yul\":20594:20635   */\n      tag_598\n      jump\t// in\n    tag_828:\n        /* \"#utility.yul\":20586:20592   */\n      dup5\n        /* \"#utility.yul\":20579:20583   */\n      dup5\n        /* \"#utility.yul\":20573:20584   */\n      sload\n        /* \"#utility.yul\":20545:20636   */\n      tag_596\n      jump\t// in\n    tag_827:\n        /* \"#utility.yul\":20539:20543   */\n      dup3\n        /* \"#utility.yul\":20532:20637   */\n      sstore\n        /* \"#utility.yul\":20450:20643   */\n      pop\n        /* \"#utility.yul\":20374:20643   */\n      pop\n      pop\n      pop\n      jump\t// out\n        /* \"#utility.yul\":20649:20722   */\n    tag_600:\n        /* \"#utility.yul\":20694:20697   */\n      0x00\n        /* \"#utility.yul\":20715:20716   */\n      0x00\n        /* \"#utility.yul\":20708:20716   */\n      swap1\n      pop\n        /* \"#utility.yul\":20649:20722   */\n      swap1\n      jump\t// out\n        /* \"#utility.yul\":20728:20917   */\n    tag_601:\n        /* \"#utility.yul\":20805:20837   */\n      tag_831\n      tag_600\n      jump\t// in\n    tag_831:\n        /* \"#utility.yul\":20846:20911   */\n      tag_832\n        /* \"#utility.yul\":20904:20910   */\n      dup2\n        /* \"#utility.yul\":20896:20902   */\n      dup5\n        /* \"#utility.yul\":20890:20894   */\n      dup5\n        /* \"#utility.yul\":20846:20911   */\n      tag_599\n      jump\t// in\n    tag_832:\n        /* \"#utility.yul\":20781:20917   */\n      pop\n        /* \"#utility.yul\":20728:20917   */\n      pop\n      pop\n      jump\t// out\n        /* \"#utility.yul\":20923:21109   */\n    tag_602:\n        /* \"#utility.yul\":20983:21103   */\n    tag_834:\n        /* \"#utility.yul\":21000:21003   */\n      dup2\n        /* \"#utility.yul\":20993:20998   */\n      dup2\n        /* \"#utility.yul\":20990:21004   */\n      lt\n        /* \"#utility.yul\":20983:21103   */\n      iszero\n      tag_836\n      jumpi\n        /* \"#utility.yul\":21054:21093   */\n      tag_837\n        /* \"#utility.yul\":21091:21092   */\n      0x00\n        /* \"#utility.yul\":21084:21089   */\n      dup3\n        /* \"#utility.yul\":21054:21093   */\n      tag_601\n      jump\t// in\n    tag_837:\n        /* \"#utility.yul\":21027:21028   */\n      0x01\n        /* \"#utility.yul\":21020:21025   */\n      dup2\n        /* \"#utility.yul\":21016:21029   */\n      add\n        /* \"#utility.yul\":21007:21029   */\n      swap1\n      pop\n        /* \"#utility.yul\":20983:21103   */\n      jump(tag_834)\n    tag_836:\n        /* \"#utility.yul\":20923:21109   */\n      pop\n      pop\n      jump\t// out\n        /* \"#utility.yul\":21115:21658   */\n    tag_603:\n        /* \"#utility.yul\":21216:21218   */\n      0x1f\n        /* \"#utility.yul\":21211:21214   */\n      dup3\n        /* \"#utility.yul\":21208:21219   */\n      gt\n        /* \"#utility.yul\":21205:21651   */\n      iszero\n      tag_839\n      jumpi\n        /* \"#utility.yul\":21250:21288   */\n      tag_840\n        /* \"#utility.yul\":21282:21287   */\n      dup2\n        /* \"#utility.yul\":21250:21288   */\n      tag_593\n      jump\t// in\n    tag_840:\n        /* \"#utility.yul\":21334:21363   */\n      tag_841\n        /* \"#utility.yul\":21352:21362   */\n      dup5\n        /* \"#utility.yul\":21334:21363   */\n      tag_594\n      jump\t// in\n    tag_841:\n        /* \"#utility.yul\":21324:21332   */\n      dup2\n        /* \"#utility.yul\":21320:21364   */\n      add\n        /* \"#utility.yul\":21517:21519   */\n      0x20\n        /* \"#utility.yul\":21505:21515   */\n      dup6\n        /* \"#utility.yul\":21502:21520   */\n      lt\n        /* \"#utility.yul\":21499:21548   */\n      iszero\n      tag_842\n      jumpi\n        /* \"#utility.yul\":21538:21546   */\n      dup2\n        /* \"#utility.yul\":21523:21546   */\n      swap1\n      pop\n        /* \"#utility.yul\":21499:21548   */\n    tag_842:\n        /* \"#utility.yul\":21561:21641   */\n      tag_843\n        /* \"#utility.yul\":21617:21639   */\n      tag_844\n        /* \"#utility.yul\":21635:21638   */\n      dup6\n        /* \"#utility.yul\":21617:21639   */\n      tag_594\n      jump\t// in\n    tag_844:\n        /* \"#utility.yul\":21607:21615   */\n      dup4\n        /* \"#utility.yul\":21603:21640   */\n      add\n        /* \"#utility.yul\":21590:21601   */\n      dup3\n        /* \"#utility.yul\":21561:21641   */\n      tag_602\n      jump\t// in\n    tag_843:\n        /* \"#utility.yul\":21220:21651   */\n      pop\n      pop\n        /* \"#utility.yul\":21205:21651   */\n    tag_839:\n        /* \"#utility.yul\":21115:21658   */\n      pop\n      pop\n      pop\n      jump\t// out\n        /* \"#utility.yul\":21664:21781   */\n    tag_604:\n        /* \"#utility.yul\":21718:21726   */\n      0x00\n        /* \"#utility.yul\":21768:21773   */\n      dup3\n        /* \"#utility.yul\":21762:21766   */\n      dup3\n        /* \"#utility.yul\":21758:21774   */\n      shr\n        /* \"#utility.yul\":21737:21774   */\n      swap1\n      pop\n        /* \"#utility.yul\":21664:21781   */\n      swap3\n      swap2\n      pop\n      pop\n      jump\t// out\n        /* \"#utility.yul\":21787:21956   */\n    tag_605:\n        /* \"#utility.yul\":21831:21837   */\n      0x00\n        /* \"#utility.yul\":21864:21915   */\n      tag_847\n        /* \"#utility.yul\":21912:21913   */\n      0x00\n        /* \"#utility.yul\":21908:21914   */\n      not\n        /* \"#utility.yul\":21900:21905   */\n      dup5\n        /* \"#utility.yul\":21897:21898   */\n      0x08\n        /* \"#utility.yul\":21893:21906   */\n      mul\n        /* \"#utility.yul\":21864:21915   */\n      tag_604\n      jump\t// in\n    tag_847:\n        /* \"#utility.yul\":21860:21916   */\n      not\n        /* \"#utility.yul\":21945:21949   */\n      dup1\n        /* \"#utility.yul\":21939:21943   */\n      dup4\n        /* \"#utility.yul\":21935:21950   */\n      and\n        /* \"#utility.yul\":21925:21950   */\n      swap2\n      pop\n        /* \"#utility.yul\":21838:21956   */\n      pop\n        /* \"#utility.yul\":21787:21956   */\n      swap3\n      swap2\n      pop\n      pop\n      jump\t// out\n        /* \"#utility.yul\":21961:22256   */\n    tag_606:\n        /* \"#utility.yul\":22037:22041   */\n      0x00\n        /* \"#utility.yul\":22183:22212   */\n      tag_849\n        /* \"#utility.yul\":22208:22211   */\n      dup4\n        /* \"#utility.yul\":22202:22206   */\n      dup4\n        /* \"#utility.yul\":22183:22212   */\n      tag_605\n      jump\t// in\n    tag_849:\n        /* \"#utility.yul\":22175:22212   */\n      swap2\n      pop\n        /* \"#utility.yul\":22245:22248   */\n      dup3\n        /* \"#utility.yul\":22242:22243   */\n      0x02\n        /* \"#utility.yul\":22238:22249   */\n      mul\n        /* \"#utility.yul\":22232:22236   */\n      dup3\n        /* \"#utility.yul\":22229:22250   */\n      or\n        /* \"#utility.yul\":22221:22250   */\n      swap1\n      pop\n        /* \"#utility.yul\":21961:22256   */\n      swap3\n      swap2\n      pop\n      pop\n      jump\t// out\n        /* \"#utility.yul\":22261:23664   */\n    tag_457:\n        /* \"#utility.yul\":22385:22429   */\n      tag_851\n        /* \"#utility.yul\":22425:22428   */\n      dup4\n        /* \"#utility.yul\":22420:22423   */\n      dup4\n        /* \"#utility.yul\":22385:22429   */\n      tag_591\n      jump\t// in\n    tag_851:\n        /* \"#utility.yul\":22494:22512   */\n      0xffffffffffffffff\n        /* \"#utility.yul\":22486:22492   */\n      dup2\n        /* \"#utility.yul\":22483:22513   */\n      gt\n        /* \"#utility.yul\":22480:22536   */\n      iszero\n      tag_852\n      jumpi\n        /* \"#utility.yul\":22516:22534   */\n      tag_853\n      tag_592\n      jump\t// in\n    tag_853:\n        /* \"#utility.yul\":22480:22536   */\n    tag_852:\n        /* \"#utility.yul\":22560:22598   */\n      tag_854\n        /* \"#utility.yul\":22592:22596   */\n      dup3\n        /* \"#utility.yul\":22586:22597   */\n      sload\n        /* \"#utility.yul\":22560:22598   */\n      tag_353\n      jump\t// in\n    tag_854:\n        /* \"#utility.yul\":22645:22712   */\n      tag_855\n        /* \"#utility.yul\":22705:22711   */\n      dup3\n        /* \"#utility.yul\":22697:22703   */\n      dup3\n        /* \"#utility.yul\":22691:22695   */\n      dup6\n        /* \"#utility.yul\":22645:22712   */\n      tag_603\n      jump\t// in\n    tag_855:\n        /* \"#utility.yul\":22739:22740   */\n      0x00\n        /* \"#utility.yul\":22768:22770   */\n      0x1f\n        /* \"#utility.yul\":22760:22766   */\n      dup4\n        /* \"#utility.yul\":22757:22771   */\n      gt\n        /* \"#utility.yul\":22785:22786   */\n      0x01\n        /* \"#utility.yul\":22780:23412   */\n      dup2\n      eq\n      tag_857\n      jumpi\n        /* \"#utility.yul\":23456:23457   */\n      0x00\n        /* \"#utility.yul\":23473:23479   */\n      dup5\n        /* \"#utility.yul\":23470:23554   */\n      iszero\n      tag_858\n      jumpi\n        /* \"#utility.yul\":23529:23538   */\n      dup3\n        /* \"#utility.yul\":23524:23527   */\n      dup8\n        /* \"#utility.yul\":23520:23539   */\n      add\n        /* \"#utility.yul\":23507:23540   */\n      calldataload\n        /* \"#utility.yul\":23498:23540   */\n      swap1\n      pop\n        /* \"#utility.yul\":23470:23554   */\n    tag_858:\n        /* \"#utility.yul\":23580:23647   */\n      tag_859\n        /* \"#utility.yul\":23640:23646   */\n      dup6\n        /* \"#utility.yul\":23633:23638   */\n      dup3\n        /* \"#utility.yul\":23580:23647   */\n      tag_606\n      jump\t// in\n    tag_859:\n        /* \"#utility.yul\":23574:23578   */\n      dup7\n        /* \"#utility.yul\":23567:23648   */\n      sstore\n        /* \"#utility.yul\":23429:23658   */\n      pop\n        /* \"#utility.yul\":22750:23658   */\n      jump(tag_856)\n        /* \"#utility.yul\":22780:23412   */\n    tag_857:\n        /* \"#utility.yul\":22832:22836   */\n      0x1f\n        /* \"#utility.yul\":22828:22837   */\n      not\n        /* \"#utility.yul\":22820:22826   */\n      dup5\n        /* \"#utility.yul\":22816:22838   */\n      and\n        /* \"#utility.yul\":22866:22903   */\n      tag_860\n        /* \"#utility.yul\":22898:22902   */\n      dup7\n        /* \"#utility.yul\":22866:22903   */\n      tag_593\n      jump\t// in\n    tag_860:\n        /* \"#utility.yul\":22925:22926   */\n      0x00\n        /* \"#utility.yul\":22939:23154   */\n    tag_861:\n        /* \"#utility.yul\":22953:22960   */\n      dup3\n        /* \"#utility.yul\":22950:22951   */\n      dup2\n        /* \"#utility.yul\":22947:22961   */\n      lt\n        /* \"#utility.yul\":22939:23154   */\n      iszero\n      tag_863\n      jumpi\n        /* \"#utility.yul\":23039:23048   */\n      dup5\n        /* \"#utility.yul\":23034:23037   */\n      dup10\n        /* \"#utility.yul\":23030:23049   */\n      add\n        /* \"#utility.yul\":23017:23050   */\n      calldataload\n        /* \"#utility.yul\":23009:23015   */\n      dup3\n        /* \"#utility.yul\":23002:23051   */\n      sstore\n        /* \"#utility.yul\":23090:23091   */\n      0x01\n        /* \"#utility.yul\":23082:23088   */\n      dup3\n        /* \"#utility.yul\":23078:23092   */\n      add\n        /* \"#utility.yul\":23068:23092   */\n      swap2\n      pop\n        /* \"#utility.yul\":23137:23139   */\n      0x20\n        /* \"#utility.yul\":23126:23135   */\n      dup6\n        /* \"#utility.yul\":23122:23140   */\n      add\n        /* \"#utility.yul\":23109:23140   */\n      swap5\n      pop\n        /* \"#utility.yul\":22976:22980   */\n      0x20\n        /* \"#utility.yul\":22973:22974   */\n      dup2\n        /* \"#utility.yul\":22969:22981   */\n      add\n        /* \"#utility.yul\":22964:22981   */\n      swap1\n      pop\n        /* \"#utility.yul\":22939:23154   */\n      jump(tag_861)\n    tag_863:\n        /* \"#utility.yul\":23182:23188   */\n      dup7\n        /* \"#utility.yul\":23173:23180   */\n      dup4\n        /* \"#utility.yul\":23170:23189   */\n      lt\n        /* \"#utility.yul\":23167:23353   */\n      iszero\n      tag_864\n      jumpi\n        /* \"#utility.yul\":23247:23256   */\n      dup5\n        /* \"#utility.yul\":23242:23245   */\n      dup10\n        /* \"#utility.yul\":23238:23257   */\n      add\n        /* \"#utility.yul\":23225:23258   */\n      calldataload\n        /* \"#utility.yul\":23290:23338   */\n      tag_865\n        /* \"#utility.yul\":23332:23336   */\n      0x1f\n        /* \"#utility.yul\":23324:23330   */\n      dup10\n        /* \"#utility.yul\":23320:23337   */\n      and\n        /* \"#utility.yul\":23309:23318   */\n      dup3\n        /* \"#utility.yul\":23290:23338   */\n      tag_605\n      jump\t// in\n    tag_865:\n        /* \"#utility.yul\":23282:23288   */\n      dup4\n        /* \"#utility.yul\":23275:23339   */\n      sstore\n        /* \"#utility.yul\":23190:23353   */\n      pop\n        /* \"#utility.yul\":23167:23353   */\n    tag_864:\n        /* \"#utility.yul\":23399:23400   */\n      0x01\n        /* \"#utility.yul\":23395:23396   */\n      0x02\n        /* \"#utility.yul\":23387:23393   */\n      dup9\n        /* \"#utility.yul\":23383:23397   */\n      mul\n        /* \"#utility.yul\":23379:23401   */\n      add\n        /* \"#utility.yul\":23373:23377   */\n      dup9\n        /* \"#utility.yul\":23366:23402   */\n      sstore\n        /* \"#utility.yul\":22787:23412   */\n      pop\n      pop\n      pop\n        /* \"#utility.yul\":22750:23658   */\n    tag_856:\n      pop\n        /* \"#utility.yul\":22360:23664   */\n      pop\n      pop\n      pop\n        /* \"#utility.yul\":22261:23664   */\n      pop\n      pop\n      pop\n      jump\t// out\n        /* \"#utility.yul\":23670:23829   */\n    tag_607:\n        /* \"#utility.yul\":23810:23821   */\n      0x5a45524f5f494d504c0000000000000000000000000000000000000000000000\n        /* \"#utility.yul\":23806:23807   */\n      0x00\n        /* \"#utility.yul\":23798:23804   */\n      dup3\n        /* \"#utility.yul\":23794:23808   */\n      add\n        /* \"#utility.yul\":23787:23822   */\n      mstore\n        /* \"#utility.yul\":23670:23829   */\n      pop\n      jump\t// out\n        /* \"#utility.yul\":23835:24200   */\n    tag_608:\n        /* \"#utility.yul\":23977:23980   */\n      0x00\n        /* \"#utility.yul\":23998:24064   */\n      tag_868\n        /* \"#utility.yul\":24062:24063   */\n      0x09\n        /* \"#utility.yul\":24057:24060   */\n      dup4\n        /* \"#utility.yul\":23998:24064   */\n      tag_560\n      jump\t// in\n    tag_868:\n        /* \"#utility.yul\":23991:24064   */\n      swap2\n      pop\n        /* \"#utility.yul\":24073:24166   */\n      tag_869\n        /* \"#utility.yul\":24162:24165   */\n      dup3\n        /* \"#utility.yul\":24073:24166   */\n      tag_607\n      jump\t// in\n    tag_869:\n        /* \"#utility.yul\":24191:24193   */\n      0x20\n        /* \"#utility.yul\":24186:24189   */\n      dup3\n        /* \"#utility.yul\":24182:24194   */\n      add\n        /* \"#utility.yul\":24175:24194   */\n      swap1\n      pop\n        /* \"#utility.yul\":23835:24200   */\n      swap2\n      swap1\n      pop\n      jump\t// out\n        /* \"#utility.yul\":24206:24625   */\n    tag_519:\n        /* \"#utility.yul\":24372:24376   */\n      0x00\n        /* \"#utility.yul\":24410:24412   */\n      0x20\n        /* \"#utility.yul\":24399:24408   */\n      dup3\n        /* \"#utility.yul\":24395:24413   */\n      add\n        /* \"#utility.yul\":24387:24413   */\n      swap1\n      pop\n        /* \"#utility.yul\":24459:24468   */\n      dup2\n        /* \"#utility.yul\":24453:24457   */\n      dup2\n        /* \"#utility.yul\":24449:24469   */\n      sub\n        /* \"#utility.yul\":24445:24446   */\n      0x00\n        /* \"#utility.yul\":24434:24443   */\n      dup4\n        /* \"#utility.yul\":24430:24447   */\n      add\n        /* \"#utility.yul\":24423:24470   */\n      mstore\n        /* \"#utility.yul\":24487:24618   */\n      tag_871\n        /* \"#utility.yul\":24613:24617   */\n      dup2\n        /* \"#utility.yul\":24487:24618   */\n      tag_608\n      jump\t// in\n    tag_871:\n        /* \"#utility.yul\":24479:24618   */\n      swap1\n      pop\n        /* \"#utility.yul\":24206:24625   */\n      swap2\n      swap1\n      pop\n      jump\t// out\n        /* \"#utility.yul\":24631:24729   */\n    tag_609:\n        /* \"#utility.yul\":24682:24688   */\n      0x00\n        /* \"#utility.yul\":24716:24721   */\n      dup2\n        /* \"#utility.yul\":24710:24722   */\n      mload\n        /* \"#utility.yul\":24700:24722   */\n      swap1\n      pop\n        /* \"#utility.yul\":24631:24729   */\n      swap2\n      swap1\n      pop\n      jump\t// out\n        /* \"#utility.yul\":24735:24882   */\n    tag_610:\n        /* \"#utility.yul\":24836:24847   */\n      0x00\n        /* \"#utility.yul\":24873:24876   */\n      dup2\n        /* \"#utility.yul\":24858:24876   */\n      swap1\n      pop\n        /* \"#utility.yul\":24735:24882   */\n      swap3\n      swap2\n      pop\n      pop\n      jump\t// out\n        /* \"#utility.yul\":24888:25274   */\n    tag_611:\n        /* \"#utility.yul\":24992:24995   */\n      0x00\n        /* \"#utility.yul\":25020:25058   */\n      tag_875\n        /* \"#utility.yul\":25052:25057   */\n      dup3\n        /* \"#utility.yul\":25020:25058   */\n      tag_609\n      jump\t// in\n    tag_875:\n        /* \"#utility.yul\":25074:25162   */\n      tag_876\n        /* \"#utility.yul\":25155:25161   */\n      dup2\n        /* \"#utility.yul\":25150:25153   */\n      dup6\n        /* \"#utility.yul\":25074:25162   */\n      tag_610\n      jump\t// in\n    tag_876:\n        /* \"#utility.yul\":25067:25162   */\n      swap4\n      pop\n        /* \"#utility.yul\":25171:25236   */\n      tag_877\n        /* \"#utility.yul\":25229:25235   */\n      dup2\n        /* \"#utility.yul\":25224:25227   */\n      dup6\n        /* \"#utility.yul\":25217:25221   */\n      0x20\n        /* \"#utility.yul\":25210:25215   */\n      dup7\n        /* \"#utility.yul\":25206:25222   */\n      add\n        /* \"#utility.yul\":25171:25236   */\n      tag_561\n      jump\t// in\n    tag_877:\n        /* \"#utility.yul\":25261:25267   */\n      dup1\n        /* \"#utility.yul\":25256:25259   */\n      dup5\n        /* \"#utility.yul\":25252:25268   */\n      add\n        /* \"#utility.yul\":25245:25268   */\n      swap2\n      pop\n        /* \"#utility.yul\":24996:25274   */\n      pop\n        /* \"#utility.yul\":24888:25274   */\n      swap3\n      swap2\n      pop\n      pop\n      jump\t// out\n        /* \"#utility.yul\":25280:25551   */\n    tag_525:\n        /* \"#utility.yul\":25410:25413   */\n      0x00\n        /* \"#utility.yul\":25432:25525   */\n      tag_879\n        /* \"#utility.yul\":25521:25524   */\n      dup3\n        /* \"#utility.yul\":25512:25518   */\n      dup5\n        /* \"#utility.yul\":25432:25525   */\n      tag_611\n      jump\t// in\n    tag_879:\n        /* \"#utility.yul\":25425:25525   */\n      swap2\n      pop\n        /* \"#utility.yul\":25542:25545   */\n      dup2\n        /* \"#utility.yul\":25535:25545   */\n      swap1\n      pop\n        /* \"#utility.yul\":25280:25551   */\n      swap3\n      swap2\n      pop\n      pop\n      jump\t// out\n\n    auxdata: 0xa26469706673582212209f9b76e7dbb05ca5e23a210353b82c7656002b9eb98468d00d9b2311daeba50664736f6c634300081e0033\n}\n",
				"bytecode": {
					"linkReferences": {},
					"object": "60a06040523073ffffffffffffffffffffffffffffffffffffffff1660809073ffffffffffffffffffffffffffffffffffffffff16815250348015610042575f5ffd5b5060805161389f6100775f395f8181610f3601528181610fc4015281816115aa01528181611638015261172b015261389f5ff3fe608060405260043610610270575f3560e01c8063743753591161014e578063b1c0be34116100c0578063d283e75f11610079578063d283e75f14610924578063d3a417a214610960578063d681a44914610988578063f0f44260146109b2578063fbfa77cf146109da578063fc7b9c1814610a0457610270565b8063b1c0be341461082e578063b2016bd414610856578063b3604c9614610880578063c5ebeaec146108aa578063c82f6d2f146108d2578063ced65b01146108fc57610270565b80637dc0d1d0116101125780637dc0d1d0146107345780638da5cb5b1461075e578063a03b3c9514610788578063a385fb96146107c4578063a6afed95146107ee578063aa5af0fd1461080457610270565b8063743753591461063e57806376e9790a146106685780637924d93f1461069257806379f057a2146106ce5780637c3a00fd1461070a57610270565b8063371fd8e6116101e75780634f1ef286116101ab5780634f1ef2861461052c57806352d1902d1461054857806355f57510146105725780636112fe2e146105b057806361d027b3146105d85780636ad9f9df1461060257610270565b8063371fd8e61461044c5780633e3722b6146104885780634046ebae146104b05780634a79d50c146104da5780634b92917a1461050457610270565b806327776ab51161023957806327776ab51461035657806329962904146103805780632f865568146103aa57806335659fb8146103d25780633659cfe6146103fc578063367febea1461042457610270565b8062249b441461027457806301c76f81146102b057806306d37817146102d8578063136cf1f71461030257806319970d8e1461032c575b5f5ffd5b34801561027f575f5ffd5b5061029a60048036038101906102959190612baa565b610a2e565b6040516102a79190612be4565b60405180910390f35b3480156102bb575f5ffd5b506102d660048036038101906102d19190612c57565b610a6e565b005b3480156102e3575f5ffd5b506102ec610b09565b6040516102f99190612cdd565b60405180910390f35b34801561030d575f5ffd5b50610316610b2e565b6040516103239190612be4565b60405180910390f35b348015610337575f5ffd5b50610340610b34565b60405161034d9190612be4565b60405180910390f35b348015610361575f5ffd5b5061036a610b3a565b6040516103779190612be4565b60405180910390f35b34801561038b575f5ffd5b50610394610b46565b6040516103a19190612be4565b60405180910390f35b3480156103b5575f5ffd5b506103d060048036038101906103cb9190612c57565b610b4c565b005b3480156103dd575f5ffd5b506103e6610f2e565b6040516103f39190612be4565b60405180910390f35b348015610407575f5ffd5b50610422600480360381019061041d9190612c57565b610f34565b005b34801561042f575f5ffd5b5061044a60048036038101906104459190612baa565b61107c565b005b348015610457575f5ffd5b50610472600480360381019061046d9190612baa565b611173565b60405161047f9190612be4565b60405180910390f35b348015610493575f5ffd5b506104ae60048036038101906104a99190612baa565b611391565b005b3480156104bb575f5ffd5b506104c461149c565b6040516104d19190612d05565b60405180910390f35b3480156104e5575f5ffd5b506104ee6114c1565b6040516104fb9190612d8e565b60405180910390f35b34801561050f575f5ffd5b5061052a60048036038101906105259190612baa565b61154d565b005b61054660048036038101906105419190612e0f565b6115a8565b005b348015610553575f5ffd5b5061055c611728565b6040516105699190612e84565b60405180910390f35b34801561057d575f5ffd5b5061059860048036038101906105939190612c57565b6117df565b6040516105a793929190612e9d565b60405180910390f35b3480156105bb575f5ffd5b506105d660048036038101906105d19190612baa565b611805565b005b3480156105e3575f5ffd5b506105ec611932565b6040516105f99190612d05565b60405180910390f35b34801561060d575f5ffd5b5061062860048036038101906106239190612c57565b611957565b6040516106359190612be4565b60405180910390f35b348015610649575f5ffd5b506106526119be565b60405161065f9190612be4565b60405180910390f35b348015610673575f5ffd5b5061067c611a80565b6040516106899190612d8e565b60405180910390f35b34801561069d575f5ffd5b506106b860048036038101906106b39190612baa565b611b0c565b6040516106c59190612d05565b60405180910390f35b3480156106d9575f5ffd5b506106f460048036038101906106ef9190612c57565b611b47565b6040516107019190612be4565b60405180910390f35b348015610715575f5ffd5b5061071e611dbe565b60405161072b9190612be4565b60405180910390f35b34801561073f575f5ffd5b50610748611dc4565b6040516107559190612ef2565b60405180910390f35b348015610769575f5ffd5b50610772611de9565b60405161077f9190612d05565b60405180910390f35b348015610793575f5ffd5b506107ae60048036038101906107a99190612c57565b611e0e565b6040516107bb9190612f25565b60405180910390f35b3480156107cf575f5ffd5b506107d8611e23565b6040516107e59190612be4565b60405180910390f35b3480156107f9575f5ffd5b50610802611e29565b005b34801561080f575f5ffd5b50610818611ea8565b6040516108259190612be4565b60405180910390f35b348015610839575f5ffd5b50610854600480360381019061084f9190612fb6565b611eae565b005b348015610861575f5ffd5b5061086a612356565b6040516108779190612cdd565b60405180910390f35b34801561088b575f5ffd5b5061089461237b565b6040516108a19190612be4565b60405180910390f35b3480156108b5575f5ffd5b506108d060048036038101906108cb9190612baa565b612381565b005b3480156108dd575f5ffd5b506108e6612552565b6040516108f39190612be4565b60405180910390f35b348015610907575f5ffd5b50610922600480360381019061091d919061304a565b612572565b005b34801561092f575f5ffd5b5061094a60048036038101906109459190612c57565b612600565b6040516109579190612be4565b60405180910390f35b34801561096b575f5ffd5b5061098660048036038101906109819190612c57565b6126b8565b005b348015610993575f5ffd5b5061099c61278a565b6040516109a99190612be4565b60405180910390f35b3480156109bd575f5ffd5b506109d860048036038101906109d39190612c57565b612790565b005b3480156109e5575f5ffd5b506109ee61282b565b6040516109fb9190612d05565b60405180910390f35b348015610a0f575f5ffd5b50610a18612850565b604051610a259190612be4565b60405180910390f35b5f5f8211610a3a575f5ffd5b601054670de0b6b3a764000083610a5191906130c7565b610a5b9190613135565b90505f8103610a6957600190505b919050565b5f60029054906101000a900473ffffffffffffffffffffffffffffffffffffffff1673ffffffffffffffffffffffffffffffffffffffff163373ffffffffffffffffffffffffffffffffffffffff1614610ac6575f5ffd5b8060085f6101000a81548173ffffffffffffffffffffffffffffffffffffffff021916908373ffffffffffffffffffffffffffffffffffffffff16021790555050565b60035f9054906101000a900473ffffffffffffffffffffffffffffffffffffffff1681565b60135481565b600e5481565b670de0b6b3a764000081565b600f5481565b60085f9054906101000a900473ffffffffffffffffffffffffffffffffffffffff1673ffffffffffffffffffffffffffffffffffffffff163373ffffffffffffffffffffffffffffffffffffffff161480610bf357505f60029054906101000a900473ffffffffffffffffffffffffffffffffffffffff1673ffffffffffffffffffffffffffffffffffffffff163373ffffffffffffffffffffffffffffffffffffffff16145b610bfb575f5ffd5b610c03611e29565b610c0c81611e0e565b15610c15575f5ffd5b5f60025f8373ffffffffffffffffffffffffffffffffffffffff1673ffffffffffffffffffffffffffffffffffffffff1681526020019081526020015f2090505f610c5f83612600565b90505f8111610c6c575f5ffd5b5f612710600e54845f0154610c8191906130c7565b610c8b9190613135565b90505f81845f0154610c9d9190613165565b90505f821115610d455760045f9054906101000a900473ffffffffffffffffffffffffffffffffffffffff1673ffffffffffffffffffffffffffffffffffffffff1663a9059cbb33846040518363ffffffff1660e01b8152600401610d03929190613198565b6020604051808303815f875af1158015610d1f573d5f5f3e3d5ffd5b505050506040513d601f19601f82011682018060405250810190610d4391906131e9565b505b5f811115610e0c5760045f9054906101000a900473ffffffffffffffffffffffffffffffffffffffff1673ffffffffffffffffffffffffffffffffffffffff1663a9059cbb600a5f9054906101000a900473ffffffffffffffffffffffffffffffffffffffff16836040518363ffffffff1660e01b8152600401610dca929190613198565b6020604051808303815f875af1158015610de6573d5f5f3e3d5ffd5b505050506040513d601f19601f82011682018060405250810190610e0a91906131e9565b505b836001015460135f828254610e219190613165565b9250508190555060025f8673ffffffffffffffffffffffffffffffffffffffff1673ffffffffffffffffffffffffffffffffffffffff1681526020019081526020015f205f5f82015f9055600182015f9055600282015f905550506001805480610e8e57610e8d613214565b5b600190038181905f5260205f20015f6101000a81549073ffffffffffffffffffffffffffffffffffffffff021916905590553373ffffffffffffffffffffffffffffffffffffffff168573ffffffffffffffffffffffffffffffffffffffff167f1f0c6615429d1cdae0dfa233abf91d3b31cdbdd82c8081389832a61e1072f1ea8585604051610f1f929190613241565b60405180910390a35050505050565b60115481565b7f000000000000000000000000000000000000000000000000000000000000000073ffffffffffffffffffffffffffffffffffffffff163073ffffffffffffffffffffffffffffffffffffffff1603610fc2576040517f08c379a0000000000000000000000000000000000000000000000000000000008152600401610fb9906132b2565b60405180910390fd5b7f000000000000000000000000000000000000000000000000000000000000000073ffffffffffffffffffffffffffffffffffffffff1661100161288e565b73ffffffffffffffffffffffffffffffffffffffff1614611057576040517f08c379a000000000000000000000000000000000000000000000000000000000815260040161104e9061331a565b60405180910390fd5b611060816128bd565b6110798160405180602001604052805f8152505f612918565b50565b60045f9054906101000a900473ffffffffffffffffffffffffffffffffffffffff1673ffffffffffffffffffffffffffffffffffffffff166323b872dd3330846040518463ffffffff1660e01b81526004016110da93929190613338565b6020604051808303815f875af11580156110f6573d5f5f3e3d5ffd5b505050506040513d601f19601f8201168201806040525081019061111a91906131e9565b508060025f3373ffffffffffffffffffffffffffffffffffffffff1673ffffffffffffffffffffffffffffffffffffffff1681526020019081526020015f205f015f828254611169919061336d565b9250508190555050565b5f5f821161117f575f5ffd5b611187611e29565b5f60025f3373ffffffffffffffffffffffffffffffffffffffff1673ffffffffffffffffffffffffffffffffffffffff1681526020019081526020015f2090505f6111d133612600565b90505f81116111de575f5ffd5b5f8185116111ec57846111ee565b815b905060035f9054906101000a900473ffffffffffffffffffffffffffffffffffffffff1673ffffffffffffffffffffffffffffffffffffffff166323b872dd3330846040518463ffffffff1660e01b815260040161124e93929190613338565b6020604051808303815f875af115801561126a573d5f5f3e3d5ffd5b505050506040513d601f19601f8201168201806040525081019061128e91906131e9565b505f818460020154116112a55783600201546112a7565b815b905080846002015f8282546112bc9190613165565b925050819055506103e860115482846112d59190613165565b6112df91906130c7565b6112e99190613135565b60115f8282546112f9919061336d565b925050819055505f83831461132e57601054670de0b6b3a76400008461131f91906130c7565b6113299190613135565b611334565b84600101545b9050846001015481111561134a57846001015490505b80856001015f82825461135d9190613165565b925050819055508060135f8282546113759190613165565b9250508190555061138533612600565b95505050505050919050565b60095f9054906101000a900473ffffffffffffffffffffffffffffffffffffffff1673ffffffffffffffffffffffffffffffffffffffff163373ffffffffffffffffffffffffffffffffffffffff16146113e9575f5ffd5b6113f16119be565b8111156113fc575f5ffd5b60035f9054906101000a900473ffffffffffffffffffffffffffffffffffffffff1673ffffffffffffffffffffffffffffffffffffffff1663a9059cbb33836040518363ffffffff1660e01b8152600401611458929190613198565b6020604051808303815f875af1158015611474573d5f5f3e3d5ffd5b505050506040513d601f19601f8201168201806040525081019061149891906131e9565b5050565b60085f9054906101000a900473ffffffffffffffffffffffffffffffffffffffff1681565b600680546114ce906133cd565b80601f01602080910402602001604051908101604052809291908181526020018280546114fa906133cd565b80156115455780601f1061151c57610100808354040283529160200191611545565b820191905f5260205f20905b81548152906001019060200180831161152857829003601f168201915b505050505081565b60095f9054906101000a900473ffffffffffffffffffffffffffffffffffffffff1673ffffffffffffffffffffffffffffffffffffffff163373ffffffffffffffffffffffffffffffffffffffff16146115a5575f5ffd5b50565b7f000000000000000000000000000000000000000000000000000000000000000073ffffffffffffffffffffffffffffffffffffffff163073ffffffffffffffffffffffffffffffffffffffff1603611636576040517f08c379a000000000000000000000000000000000000000000000000000000000815260040161162d906132b2565b60405180910390fd5b7f000000000000000000000000000000000000000000000000000000000000000073ffffffffffffffffffffffffffffffffffffffff1661167561288e565b73ffffffffffffffffffffffffffffffffffffffff16146116cb576040517f08c379a00000000000000000000000000000000000000000000000000000000081526004016116c29061331a565b60405180910390fd5b6116d4836128bd565b6117238383838080601f0160208091040260200160405190810160405280939291908181526020018383808284375f81840152601f19601f820116905080830192505050505050506001612918565b505050565b5f7f000000000000000000000000000000000000000000000000000000000000000073ffffffffffffffffffffffffffffffffffffffff163073ffffffffffffffffffffffffffffffffffffffff16146117b7576040517f08c379a00000000000000000000000000000000000000000000000000000000081526004016117ae90613447565b60405180910390fd5b7f360894a13ba1a3210667c828492db98dca3e2076cc3735a920a3ca505d382bbc5f1b905090565b6002602052805f5260405f205f91509050805f0154908060010154908060020154905083565b5f8111611810575f5ffd5b611818611e29565b5f60025f3373ffffffffffffffffffffffffffffffffffffffff1673ffffffffffffffffffffffffffffffffffffffff1681526020019081526020015f209050805f0154821115611867575f5ffd5b81815f015f8282546118799190613165565b9250508190555061188933611e0e565b611891575f5ffd5b60045f9054906101000a900473ffffffffffffffffffffffffffffffffffffffff1673ffffffffffffffffffffffffffffffffffffffff1663a9059cbb33846040518363ffffffff1660e01b81526004016118ed929190613198565b6020604051808303815f875af1158015611909573d5f5f3e3d5ffd5b505050506040513d601f19601f8201168201806040525081019061192d91906131e9565b505050565b600a5f9054906101000a900473ffffffffffffffffffffffffffffffffffffffff1681565b5f5f61196283611b47565b90505f8103611994577fffffffffffffffffffffffffffffffffffffffffffffffffffffffffffffffff9150506119b9565b80670de0b6b3a7640000600b546119ab91906130c7565b6119b59190613135565b9150505b919050565b5f5f60035f9054906101000a900473ffffffffffffffffffffffffffffffffffffffff1673ffffffffffffffffffffffffffffffffffffffff166370a08231306040518263ffffffff1660e01b8152600401611a1a9190612d05565b602060405180830381865afa158015611a35573d5f5f3e3d5ffd5b505050506040513d601f19601f82011682018060405250810190611a599190613479565b9050601254811115611a785760125481611a739190613165565b611a7a565b5f5b91505090565b60078054611a8d906133cd565b80601f0160208091040260200160405190810160405280929190818152602001828054611ab9906133cd565b8015611b045780601f10611adb57610100808354040283529160200191611b04565b820191905f5260205f20905b815481529060010190602001808311611ae757829003601f168201915b505050505081565b60018181548110611b1b575f80fd5b905f5260205f20015f915054906101000a900473ffffffffffffffffffffffffffffffffffffffff1681565b5f5f73ffffffffffffffffffffffffffffffffffffffff168273ffffffffffffffffffffffffffffffffffffffff1603611b7f575f5ffd5b5f611b8983612600565b90505f60025f8573ffffffffffffffffffffffffffffffffffffffff1673ffffffffffffffffffffffffffffffffffffffff1681526020019081526020015f2090505f8203611bdc575f92505050611db9565b5f815f015403611c10577fffffffffffffffffffffffffffffffffffffffffffffffffffffffffffffffff92505050611db9565b60055f9054906101000a900473ffffffffffffffffffffffffffffffffffffffff1673ffffffffffffffffffffffffffffffffffffffff166341976e0960045f9054906101000a900473ffffffffffffffffffffffffffffffffffffffff166040518263ffffffff1660e01b8152600401611c8b9190612d05565b602060405180830381865afa158015611ca6573d5f5f3e3d5ffd5b505050506040513d601f19601f82011682018060405250810190611cca9190613479565b815f0154611cd891906130c7565b61271060055f9054906101000a900473ffffffffffffffffffffffffffffffffffffffff1673ffffffffffffffffffffffffffffffffffffffff166341976e0960035f9054906101000a900473ffffffffffffffffffffffffffffffffffffffff166040518263ffffffff1660e01b8152600401611d569190612d05565b602060405180830381865afa158015611d71573d5f5f3e3d5ffd5b505050506040513d601f19601f82011682018060405250810190611d959190613479565b84611da091906130c7565b611daa91906130c7565b611db49190613135565b925050505b919050565b600c5481565b60055f9054906101000a900473ffffffffffffffffffffffffffffffffffffffff1681565b5f60029054906101000a900473ffffffffffffffffffffffffffffffffffffffff1681565b5f600b54611e1b83611b47565b109050919050565b600d5481565b600f54430315611ea6575f6013541115611e96575f600f5443611e4c9190613165565b90505f600d5482600c54611e6091906130c7565b611e6a9190613135565b9050670de0b6b3a764000081601054611e8391906130c7565b611e8d9190613135565b60108190555050505b43600f54611ea49190613165565b505b565b60105481565b5f5f9054906101000a900460ff161580611ed357505f60019054906101000a900460ff165b611f12576040517f08c379a0000000000000000000000000000000000000000000000000000000008152600401611f09906134ee565b60405180910390fd5b5f5f60019054906101000a900460ff161590508015611f5f5760015f60016101000a81548160ff02191690831515021790555060015f5f6101000a81548160ff0219169083151502179055505b5f73ffffffffffffffffffffffffffffffffffffffff168660c0016020810190611f899190612c57565b73ffffffffffffffffffffffffffffffffffffffff1603611fa8575f5ffd5b5f73ffffffffffffffffffffffffffffffffffffffff16866060016020810190611fd29190612c57565b73ffffffffffffffffffffffffffffffffffffffff1603611ff1575f5ffd5b5f73ffffffffffffffffffffffffffffffffffffffff1686608001602081019061201b9190612c57565b73ffffffffffffffffffffffffffffffffffffffff160361203a575f5ffd5b5f73ffffffffffffffffffffffffffffffffffffffff168660a00160208101906120649190612c57565b73ffffffffffffffffffffffffffffffffffffffff1603612083575f5ffd5b5f600d5411612090575f5ffd5b61271086610140013511156120a3575f5ffd5b620186a08660e0013511156120b6575f5ffd5b6120d0865f0160208101906120cb9190612c57565b612a55565b8484600691826120e19291906136da565b508282600791826120f39291906136da565b508560600160208101906121079190612c57565b60035f6101000a81548173ffffffffffffffffffffffffffffffffffffffff021916908373ffffffffffffffffffffffffffffffffffffffff1602179055508560800160208101906121599190612c57565b60045f6101000a81548173ffffffffffffffffffffffffffffffffffffffff021916908373ffffffffffffffffffffffffffffffffffffffff1602179055508560a00160208101906121ab9190612c57565b60055f6101000a81548173ffffffffffffffffffffffffffffffffffffffff021916908373ffffffffffffffffffffffffffffffffffffffff1602179055508560c00160208101906121fd9190612c57565b60095f6101000a81548173ffffffffffffffffffffffffffffffffffffffff021916908373ffffffffffffffffffffffffffffffffffffffff16021790555085604001602081019061224f9190612c57565b600a5f6101000a81548173ffffffffffffffffffffffffffffffffffffffff021916908373ffffffffffffffffffffffffffffffffffffffff1602179055508560200160208101906122a19190612c57565b60085f6101000a81548173ffffffffffffffffffffffffffffffffffffffff021916908373ffffffffffffffffffffffffffffffffffffffff1602179055508560e00135600b8190555043600f81905550856101200135600d81905550856101000135600c81905550670de0b6b3a7640000601081905550856101400135600e81905550617530601181905550801561234e575f5f60016101000a81548160ff0219169083151502179055505b505050505050565b60045f9054906101000a900473ffffffffffffffffffffffffffffffffffffffff1681565b600b5481565b5f811161238c575f5ffd5b612394611e29565b61239c6119be565b8111156123a7575f5ffd5b5f60025f3373ffffffffffffffffffffffffffffffffffffffff1673ffffffffffffffffffffffffffffffffffffffff1681526020019081526020015f2090505f6123f183610a2e565b905080826001015f828254612406919061336d565b9250508190555080826002015f828254612420919061336d565b925050819055508060135f828254612438919061336d565b9250508190555061244833611e0e565b612450575f5ffd5b60035f9054906101000a900473ffffffffffffffffffffffffffffffffffffffff1673ffffffffffffffffffffffffffffffffffffffff1663a9059cbb33856040518363ffffffff1660e01b81526004016124ac929190613198565b6020604051808303815f875af11580156124c8573d5f5f3e3d5ffd5b505050506040513d601f19601f820116820180604052508101906124ec91906131e9565b50600133908060018154018082558091505060019003905f5260205f20015f9091909190916101000a81548173ffffffffffffffffffffffffffffffffffffffff021916908373ffffffffffffffffffffffffffffffffffffffff160217905550505050565b5f61255b612850565b6125636119be565b61256d919061336d565b905090565b5f60029054906101000a900473ffffffffffffffffffffffffffffffffffffffff1673ffffffffffffffffffffffffffffffffffffffff163373ffffffffffffffffffffffffffffffffffffffff16146125ca575f5ffd5b6127108311156125d8575f5ffd5b6127108311156125e6575f5ffd5b82600b8190555081600c8190555080600e81905550505050565b5f5f73ffffffffffffffffffffffffffffffffffffffff168273ffffffffffffffffffffffffffffffffffffffff1603612638575f5ffd5b5f60025f8473ffffffffffffffffffffffffffffffffffffffff1673ffffffffffffffffffffffffffffffffffffffff1681526020019081526020015f206001015490505f81146126ae57670de0b6b3a7640000612694612acf565b8261269f91906130c7565b6126a99190613135565b6126b0565b5f5b915050919050565b5f60029054906101000a900473ffffffffffffffffffffffffffffffffffffffff1673ffffffffffffffffffffffffffffffffffffffff163373ffffffffffffffffffffffffffffffffffffffff1614612710575f5ffd5b5f73ffffffffffffffffffffffffffffffffffffffff168173ffffffffffffffffffffffffffffffffffffffff1603612747575f5ffd5b805f60026101000a81548173ffffffffffffffffffffffffffffffffffffffff021916908373ffffffffffffffffffffffffffffffffffffffff16021790555050565b60125481565b5f60029054906101000a900473ffffffffffffffffffffffffffffffffffffffff1673ffffffffffffffffffffffffffffffffffffffff163373ffffffffffffffffffffffffffffffffffffffff16146127e8575f5ffd5b80600a5f6101000a81548173ffffffffffffffffffffffffffffffffffffffff021916908373ffffffffffffffffffffffffffffffffffffffff16021790555050565b60095f9054906101000a900473ffffffffffffffffffffffffffffffffffffffff1681565b5f5f6013541461288757670de0b6b3a764000061286b612acf565b60135461287891906130c7565b6128829190613135565b612889565b5f5b905090565b5f5f7f360894a13ba1a3210667c828492db98dca3e2076cc3735a920a3ca505d382bbc5f1b9050805491505090565b5f60029054906101000a900473ffffffffffffffffffffffffffffffffffffffff1673ffffffffffffffffffffffffffffffffffffffff163373ffffffffffffffffffffffffffffffffffffffff1614612915575f5ffd5b50565b5f73ffffffffffffffffffffffffffffffffffffffff168373ffffffffffffffffffffffffffffffffffffffff1603612986576040517f08c379a000000000000000000000000000000000000000000000000000000000815260040161297d906137f1565b60405180910390fd5b61298f83612b42565b808061299b57505f8251115b15612a50575f5f8473ffffffffffffffffffffffffffffffffffffffff16846040516129c79190613853565b5f60405180830381855af49150503d805f81146129ff576040519150601f19603f3d011682016040523d82523d5f602084013e612a04565b606091505b5091509150818190612a4c576040517f08c379a0000000000000000000000000000000000000000000000000000000008152600401612a439190612d8e565b60405180910390fd5b5050505b505050565b5f73ffffffffffffffffffffffffffffffffffffffff168173ffffffffffffffffffffffffffffffffffffffff1603612a8c575f5ffd5b805f60026101000a81548173ffffffffffffffffffffffffffffffffffffffff021916908373ffffffffffffffffffffffffffffffffffffffff16021790555050565b5f6010549050600f5443148015612ae757505f601354115b15612b3f575f600f5443612afb9190613165565b90505f600d5482600c54612b0f91906130c7565b612b199190613135565b9050670de0b6b3a76400008184612b3091906130c7565b612b3a9190613135565b925050505b90565b5f7f360894a13ba1a3210667c828492db98dca3e2076cc3735a920a3ca505d382bbc5f1b90508181555050565b5f5ffd5b5f5ffd5b5f819050919050565b612b8981612b77565b8114612b93575f5ffd5b50565b5f81359050612ba481612b80565b92915050565b5f60208284031215612bbf57612bbe612b6f565b5b5f612bcc84828501612b96565b91505092915050565b612bde81612b77565b82525050565b5f602082019050612bf75f830184612bd5565b92915050565b5f73ffffffffffffffffffffffffffffffffffffffff82169050919050565b5f612c2682612bfd565b9050919050565b612c3681612c1c565b8114612c40575f5ffd5b50565b5f81359050612c5181612c2d565b92915050565b5f60208284031215612c6c57612c6b612b6f565b5b5f612c7984828501612c43565b91505092915050565b5f819050919050565b5f612ca5612ca0612c9b84612bfd565b612c82565b612bfd565b9050919050565b5f612cb682612c8b565b9050919050565b5f612cc782612cac565b9050919050565b612cd781612cbd565b82525050565b5f602082019050612cf05f830184612cce565b92915050565b612cff81612c1c565b82525050565b5f602082019050612d185f830184612cf6565b92915050565b5f81519050919050565b5f82825260208201905092915050565b8281835e5f83830152505050565b5f601f19601f8301169050919050565b5f612d6082612d1e565b612d6a8185612d28565b9350612d7a818560208601612d38565b612d8381612d46565b840191505092915050565b5f6020820190508181035f830152612da68184612d56565b905092915050565b5f5ffd5b5f5ffd5b5f5ffd5b5f5f83601f840112612dcf57612dce612dae565b5b8235905067ffffffffffffffff811115612dec57612deb612db2565b5b602083019150836001820283011115612e0857612e07612db6565b5b9250929050565b5f5f5f60408486031215612e2657612e25612b6f565b5b5f612e3386828701612c43565b935050602084013567ffffffffffffffff811115612e5457612e53612b73565b5b612e6086828701612dba565b92509250509250925092565b5f819050919050565b612e7e81612e6c565b82525050565b5f602082019050612e975f830184612e75565b92915050565b5f606082019050612eb05f830186612bd5565b612ebd6020830185612bd5565b612eca6040830184612bd5565b949350505050565b5f612edc82612cac565b9050919050565b612eec81612ed2565b82525050565b5f602082019050612f055f830184612ee3565b92915050565b5f8115159050919050565b612f1f81612f0b565b82525050565b5f602082019050612f385f830184612f16565b92915050565b5f5ffd5b5f6101608284031215612f5857612f57612f3e565b5b81905092915050565b5f5f83601f840112612f7657612f75612dae565b5b8235905067ffffffffffffffff811115612f9357612f92612db2565b5b602083019150836001820283011115612faf57612fae612db6565b5b9250929050565b5f5f5f5f5f6101a08688031215612fd057612fcf612b6f565b5b5f612fdd88828901612f42565b95505061016086013567ffffffffffffffff811115612fff57612ffe612b73565b5b61300b88828901612f61565b945094505061018086013567ffffffffffffffff81111561302f5761302e612b73565b5b61303b88828901612f61565b92509250509295509295909350565b5f5f5f6060848603121561306157613060612b6f565b5b5f61306e86828701612b96565b935050602061307f86828701612b96565b925050604061309086828701612b96565b9150509250925092565b7f4e487b71000000000000000000000000000000000000000000000000000000005f52601160045260245ffd5b5f6130d182612b77565b91506130dc83612b77565b92508282026130ea81612b77565b915082820484148315176131015761310061309a565b5b5092915050565b7f4e487b71000000000000000000000000000000000000000000000000000000005f52601260045260245ffd5b5f61313f82612b77565b915061314a83612b77565b92508261315a57613159613108565b5b828204905092915050565b5f61316f82612b77565b915061317a83612b77565b92508282039050818111156131925761319161309a565b5b92915050565b5f6040820190506131ab5f830185612cf6565b6131b86020830184612bd5565b9392505050565b6131c881612f0b565b81146131d2575f5ffd5b50565b5f815190506131e3816131bf565b92915050565b5f602082840312156131fe576131fd612b6f565b5b5f61320b848285016131d5565b91505092915050565b7f4e487b71000000000000000000000000000000000000000000000000000000005f52603160045260245ffd5b5f6040820190506132545f830185612bd5565b6132616020830184612bd5565b9392505050565b7f4e4f545f44454c454741544543414c4c000000000000000000000000000000005f82015250565b5f61329c601083612d28565b91506132a782613268565b602082019050919050565b5f6020820190508181035f8301526132c981613290565b9050919050565b7f494e4143544956455f50524f58590000000000000000000000000000000000005f82015250565b5f613304600e83612d28565b915061330f826132d0565b602082019050919050565b5f6020820190508181035f830152613331816132f8565b9050919050565b5f60608201905061334b5f830186612cf6565b6133586020830185612cf6565b6133656040830184612bd5565b949350505050565b5f61337782612b77565b915061338283612b77565b925082820190508082111561339a5761339961309a565b5b92915050565b7f4e487b71000000000000000000000000000000000000000000000000000000005f52602260045260245ffd5b5f60028204905060018216806133e457607f821691505b6020821081036133f7576133f66133a0565b5b50919050565b7f4f4e4c595f494d504c454d454e544154494f4e000000000000000000000000005f82015250565b5f613431601383612d28565b915061343c826133fd565b602082019050919050565b5f6020820190508181035f83015261345e81613425565b9050919050565b5f8151905061347381612b80565b92915050565b5f6020828403121561348e5761348d612b6f565b5b5f61349b84828501613465565b91505092915050565b7f414c52454144595f494e495449414c495a4544000000000000000000000000005f82015250565b5f6134d8601383612d28565b91506134e3826134a4565b602082019050919050565b5f6020820190508181035f830152613505816134cc565b9050919050565b5f82905092915050565b7f4e487b71000000000000000000000000000000000000000000000000000000005f52604160045260245ffd5b5f819050815f5260205f209050919050565b5f6020601f8301049050919050565b5f82821b905092915050565b5f6008830261359f7fffffffffffffffffffffffffffffffffffffffffffffffffffffffffffffffff82613564565b6135a98683613564565b95508019841693508086168417925050509392505050565b5f6135db6135d66135d184612b77565b612c82565b612b77565b9050919050565b5f819050919050565b6135f4836135c1565b613608613600826135e2565b848454613570565b825550505050565b5f5f905090565b61361f613610565b61362a8184846135eb565b505050565b5b8181101561364d576136425f82613617565b600181019050613630565b5050565b601f8211156136925761366381613543565b61366c84613555565b8101602085101561367b578190505b61368f61368785613555565b83018261362f565b50505b505050565b5f82821c905092915050565b5f6136b25f1984600802613697565b1980831691505092915050565b5f6136ca83836136a3565b9150826002028217905092915050565b6136e4838361350c565b67ffffffffffffffff8111156136fd576136fc613516565b5b61370782546133cd565b613712828285613651565b5f601f83116001811461373f575f841561372d578287013590505b61373785826136bf565b86555061379e565b601f19841661374d86613543565b5f5b828110156137745784890135825560018201915060208501945060208101905061374f565b86831015613791578489013561378d601f8916826136a3565b8355505b6001600288020188555050505b50505050505050565b7f5a45524f5f494d504c00000000000000000000000000000000000000000000005f82015250565b5f6137db600983612d28565b91506137e6826137a7565b602082019050919050565b5f6020820190508181035f830152613808816137cf565b9050919050565b5f81519050919050565b5f81905092915050565b5f61382d8261380f565b6138378185613819565b9350613847818560208601612d38565b80840191505092915050565b5f61385e8284613823565b91508190509291505056fea26469706673582212209f9b76e7dbb05ca5e23a210353b82c7656002b9eb98468d00d9b2311daeba50664736f6c634300081e0033",
					"opcodes": "PUSH1 0xA0 PUSH1 0x40 MSTORE ADDRESS PUSH20 0xFFFFFFFFFFFFFFFFFFFFFFFFFFFFFFFFFFFFFFFF AND PUSH1 0x80 SWAP1 PUSH20 0xFFFFFFFFFFFFFFFFFFFFFFFFFFFFFFFFFFFFFFFF AND DUP2 MSTORE POP CALLVALUE DUP1 ISZERO PUSH2 0x42 JUMPI PUSH0 PUSH0 REVERT JUMPDEST POP PUSH1 0x80 MLOAD PUSH2 0x389F PUSH2 0x77 PUSH0 CODECOPY PUSH0 DUP2 DUP2 PUSH2 0xF36 ADD MSTORE DUP2 DUP2 PUSH2 0xFC4 ADD MSTORE DUP2 DUP2 PUSH2 0x15AA ADD MSTORE DUP2 DUP2 PUSH2 0x1638 ADD MSTORE PUSH2 0x172B ADD MSTORE PUSH2 0x389F PUSH0 RETURN INVALID PUSH1 0x80 PUSH1 0x40 MSTORE PUSH1 0x4 CALLDATASIZE LT PUSH2 0x270 JUMPI PUSH0 CALLDATALOAD PUSH1 0xE0 SHR DUP1 PUSH4 0x74375359 GT PUSH2 0x14E JUMPI DUP1 PUSH4 0xB1C0BE34 GT PUSH2 0xC0 JUMPI DUP1 PUSH4 0xD283E75F GT PUSH2 0x79 JUMPI DUP1 PUSH4 0xD283E75F EQ PUSH2 0x924 JUMPI DUP1 PUSH4 0xD3A417A2 EQ PUSH2 0x960 JUMPI DUP1 PUSH4 0xD681A449 EQ PUSH2 0x988 JUMPI DUP1 PUSH4 0xF0F44260 EQ PUSH2 0x9B2 JUMPI DUP1 PUSH4 0xFBFA77CF EQ PUSH2 0x9DA JUMPI DUP1 PUSH4 0xFC7B9C18 EQ PUSH2 0xA04 JUMPI PUSH2 0x270 JUMP JUMPDEST DUP1 PUSH4 0xB1C0BE34 EQ PUSH2 0x82E JUMPI DUP1 PUSH4 0xB2016BD4 EQ PUSH2 0x856 JUMPI DUP1 PUSH4 0xB3604C96 EQ PUSH2 0x880 JUMPI DUP1 PUSH4 0xC5EBEAEC EQ PUSH2 0x8AA JUMPI DUP1 PUSH4 0xC82F6D2F EQ PUSH2 0x8D2 JUMPI DUP1 PUSH4 0xCED65B01 EQ PUSH2 0x8FC JUMPI PUSH2 0x270 JUMP JUMPDEST DUP1 PUSH4 0x7DC0D1D0 GT PUSH2 0x112 JUMPI DUP1 PUSH4 0x7DC0D1D0 EQ PUSH2 0x734 JUMPI DUP1 PUSH4 0x8DA5CB5B EQ PUSH2 0x75E JUMPI DUP1 PUSH4 0xA03B3C95 EQ PUSH2 0x788 JUMPI DUP1 PUSH4 0xA385FB96 EQ PUSH2 0x7C4 JUMPI DUP1 PUSH4 0xA6AFED95 EQ PUSH2 0x7EE JUMPI DUP1 PUSH4 0xAA5AF0FD EQ PUSH2 0x804 JUMPI PUSH2 0x270 JUMP JUMPDEST DUP1 PUSH4 0x74375359 EQ PUSH2 0x63E JUMPI DUP1 PUSH4 0x76E9790A EQ PUSH2 0x668 JUMPI DUP1 PUSH4 0x7924D93F EQ PUSH2 0x692 JUMPI DUP1 PUSH4 0x79F057A2 EQ PUSH2 0x6CE JUMPI DUP1 PUSH4 0x7C3A00FD EQ PUSH2 0x70A JUMPI PUSH2 0x270 JUMP JUMPDEST DUP1 PUSH4 0x371FD8E6 GT PUSH2 0x1E7 JUMPI DUP1 PUSH4 0x4F1EF286 GT PUSH2 0x1AB JUMPI DUP1 PUSH4 0x4F1EF286 EQ PUSH2 0x52C JUMPI DUP1 PUSH4 0x52D1902D EQ PUSH2 0x548 JUMPI DUP1 PUSH4 0x55F57510 EQ PUSH2 0x572 JUMPI DUP1 PUSH4 0x6112FE2E EQ PUSH2 0x5B0 JUMPI DUP1 PUSH4 0x61D027B3 EQ PUSH2 0x5D8 JUMPI DUP1 PUSH4 0x6AD9F9DF EQ PUSH2 0x602 JUMPI PUSH2 0x270 JUMP JUMPDEST DUP1 PUSH4 0x371FD8E6 EQ PUSH2 0x44C JUMPI DUP1 PUSH4 0x3E3722B6 EQ PUSH2 0x488 JUMPI DUP1 PUSH4 0x4046EBAE EQ PUSH2 0x4B0 JUMPI DUP1 PUSH4 0x4A79D50C EQ PUSH2 0x4DA JUMPI DUP1 PUSH4 0x4B92917A EQ PUSH2 0x504 JUMPI PUSH2 0x270 JUMP JUMPDEST DUP1 PUSH4 0x27776AB5 GT PUSH2 0x239 JUMPI DUP1 PUSH4 0x27776AB5 EQ PUSH2 0x356 JUMPI DUP1 PUSH4 0x29962904 EQ PUSH2 0x380 JUMPI DUP1 PUSH4 0x2F865568 EQ PUSH2 0x3AA JUMPI DUP1 PUSH4 0x35659FB8 EQ PUSH2 0x3D2 JUMPI DUP1 PUSH4 0x3659CFE6 EQ PUSH2 0x3FC JUMPI DUP1 PUSH4 0x367FEBEA EQ PUSH2 0x424 JUMPI PUSH2 0x270 JUMP JUMPDEST DUP1 PUSH3 0x249B44 EQ PUSH2 0x274 JUMPI DUP1 PUSH4 0x1C76F81 EQ PUSH2 0x2B0 JUMPI DUP1 PUSH4 0x6D37817 EQ PUSH2 0x2D8 JUMPI DUP1 PUSH4 0x136CF1F7 EQ PUSH2 0x302 JUMPI DUP1 PUSH4 0x19970D8E EQ PUSH2 0x32C JUMPI JUMPDEST PUSH0 PUSH0 REVERT JUMPDEST CALLVALUE DUP1 ISZERO PUSH2 0x27F JUMPI PUSH0 PUSH0 REVERT JUMPDEST POP PUSH2 0x29A PUSH1 0x4 DUP1 CALLDATASIZE SUB DUP2 ADD SWAP1 PUSH2 0x295 SWAP2 SWAP1 PUSH2 0x2BAA JUMP JUMPDEST PUSH2 0xA2E JUMP JUMPDEST PUSH1 0x40 MLOAD PUSH2 0x2A7 SWAP2 SWAP1 PUSH2 0x2BE4 JUMP JUMPDEST PUSH1 0x40 MLOAD DUP1 SWAP2 SUB SWAP1 RETURN JUMPDEST CALLVALUE DUP1 ISZERO PUSH2 0x2BB JUMPI PUSH0 PUSH0 REVERT JUMPDEST POP PUSH2 0x2D6 PUSH1 0x4 DUP1 CALLDATASIZE SUB DUP2 ADD SWAP1 PUSH2 0x2D1 SWAP2 SWAP1 PUSH2 0x2C57 JUMP JUMPDEST PUSH2 0xA6E JUMP JUMPDEST STOP JUMPDEST CALLVALUE DUP1 ISZERO PUSH2 0x2E3 JUMPI PUSH0 PUSH0 REVERT JUMPDEST POP PUSH2 0x2EC PUSH2 0xB09 JUMP JUMPDEST PUSH1 0x40 MLOAD PUSH2 0x2F9 SWAP2 SWAP1 PUSH2 0x2CDD JUMP JUMPDEST PUSH1 0x40 MLOAD DUP1 SWAP2 SUB SWAP1 RETURN JUMPDEST CALLVALUE DUP1 ISZERO PUSH2 0x30D JUMPI PUSH0 PUSH0 REVERT JUMPDEST POP PUSH2 0x316 PUSH2 0xB2E JUMP JUMPDEST PUSH1 0x40 MLOAD PUSH2 0x323 SWAP2 SWAP1 PUSH2 0x2BE4 JUMP JUMPDEST PUSH1 0x40 MLOAD DUP1 SWAP2 SUB SWAP1 RETURN JUMPDEST CALLVALUE DUP1 ISZERO PUSH2 0x337 JUMPI PUSH0 PUSH0 REVERT JUMPDEST POP PUSH2 0x340 PUSH2 0xB34 JUMP JUMPDEST PUSH1 0x40 MLOAD PUSH2 0x34D SWAP2 SWAP1 PUSH2 0x2BE4 JUMP JUMPDEST PUSH1 0x40 MLOAD DUP1 SWAP2 SUB SWAP1 RETURN JUMPDEST CALLVALUE DUP1 ISZERO PUSH2 0x361 JUMPI PUSH0 PUSH0 REVERT JUMPDEST POP PUSH2 0x36A PUSH2 0xB3A JUMP JUMPDEST PUSH1 0x40 MLOAD PUSH2 0x377 SWAP2 SWAP1 PUSH2 0x2BE4 JUMP JUMPDEST PUSH1 0x40 MLOAD DUP1 SWAP2 SUB SWAP1 RETURN JUMPDEST CALLVALUE DUP1 ISZERO PUSH2 0x38B JUMPI PUSH0 PUSH0 REVERT JUMPDEST POP PUSH2 0x394 PUSH2 0xB46 JUMP JUMPDEST PUSH1 0x40 MLOAD PUSH2 0x3A1 SWAP2 SWAP1 PUSH2 0x2BE4 JUMP JUMPDEST PUSH1 0x40 MLOAD DUP1 SWAP2 SUB SWAP1 RETURN JUMPDEST CALLVALUE DUP1 ISZERO PUSH2 0x3B5 JUMPI PUSH0 PUSH0 REVERT JUMPDEST POP PUSH2 0x3D0 PUSH1 0x4 DUP1 CALLDATASIZE SUB DUP2 ADD SWAP1 PUSH2 0x3CB SWAP2 SWAP1 PUSH2 0x2C57 JUMP JUMPDEST PUSH2 0xB4C JUMP JUMPDEST STOP JUMPDEST CALLVALUE DUP1 ISZERO PUSH2 0x3DD JUMPI PUSH0 PUSH0 REVERT JUMPDEST POP PUSH2 0x3E6 PUSH2 0xF2E JUMP JUMPDEST PUSH1 0x40 MLOAD PUSH2 0x3F3 SWAP2 SWAP1 PUSH2 0x2BE4 JUMP JUMPDEST PUSH1 0x40 MLOAD DUP1 SWAP2 SUB SWAP1 RETURN JUMPDEST CALLVALUE DUP1 ISZERO PUSH2 0x407 JUMPI PUSH0 PUSH0 REVERT JUMPDEST POP PUSH2 0x422 PUSH1 0x4 DUP1 CALLDATASIZE SUB DUP2 ADD SWAP1 PUSH2 0x41D SWAP2 SWAP1 PUSH2 0x2C57 JUMP JUMPDEST PUSH2 0xF34 JUMP JUMPDEST STOP JUMPDEST CALLVALUE DUP1 ISZERO PUSH2 0x42F JUMPI PUSH0 PUSH0 REVERT JUMPDEST POP PUSH2 0x44A PUSH1 0x4 DUP1 CALLDATASIZE SUB DUP2 ADD SWAP1 PUSH2 0x445 SWAP2 SWAP1 PUSH2 0x2BAA JUMP JUMPDEST PUSH2 0x107C JUMP JUMPDEST STOP JUMPDEST CALLVALUE DUP1 ISZERO PUSH2 0x457 JUMPI PUSH0 PUSH0 REVERT JUMPDEST POP PUSH2 0x472 PUSH1 0x4 DUP1 CALLDATASIZE SUB DUP2 ADD SWAP1 PUSH2 0x46D SWAP2 SWAP1 PUSH2 0x2BAA JUMP JUMPDEST PUSH2 0x1173 JUMP JUMPDEST PUSH1 0x40 MLOAD PUSH2 0x47F SWAP2 SWAP1 PUSH2 0x2BE4 JUMP JUMPDEST PUSH1 0x40 MLOAD DUP1 SWAP2 SUB SWAP1 RETURN JUMPDEST CALLVALUE DUP1 ISZERO PUSH2 0x493 JUMPI PUSH0 PUSH0 REVERT JUMPDEST POP PUSH2 0x4AE PUSH1 0x4 DUP1 CALLDATASIZE SUB DUP2 ADD SWAP1 PUSH2 0x4A9 SWAP2 SWAP1 PUSH2 0x2BAA JUMP JUMPDEST PUSH2 0x1391 JUMP JUMPDEST STOP JUMPDEST CALLVALUE DUP1 ISZERO PUSH2 0x4BB JUMPI PUSH0 PUSH0 REVERT JUMPDEST POP PUSH2 0x4C4 PUSH2 0x149C JUMP JUMPDEST PUSH1 0x40 MLOAD PUSH2 0x4D1 SWAP2 SWAP1 PUSH2 0x2D05 JUMP JUMPDEST PUSH1 0x40 MLOAD DUP1 SWAP2 SUB SWAP1 RETURN JUMPDEST CALLVALUE DUP1 ISZERO PUSH2 0x4E5 JUMPI PUSH0 PUSH0 REVERT JUMPDEST POP PUSH2 0x4EE PUSH2 0x14C1 JUMP JUMPDEST PUSH1 0x40 MLOAD PUSH2 0x4FB SWAP2 SWAP1 PUSH2 0x2D8E JUMP JUMPDEST PUSH1 0x40 MLOAD DUP1 SWAP2 SUB SWAP1 RETURN JUMPDEST CALLVALUE DUP1 ISZERO PUSH2 0x50F JUMPI PUSH0 PUSH0 REVERT JUMPDEST POP PUSH2 0x52A PUSH1 0x4 DUP1 CALLDATASIZE SUB DUP2 ADD SWAP1 PUSH2 0x525 SWAP2 SWAP1 PUSH2 0x2BAA JUMP JUMPDEST PUSH2 0x154D JUMP JUMPDEST STOP JUMPDEST PUSH2 0x546 PUSH1 0x4 DUP1 CALLDATASIZE SUB DUP2 ADD SWAP1 PUSH2 0x541 SWAP2 SWAP1 PUSH2 0x2E0F JUMP JUMPDEST PUSH2 0x15A8 JUMP JUMPDEST STOP JUMPDEST CALLVALUE DUP1 ISZERO PUSH2 0x553 JUMPI PUSH0 PUSH0 REVERT JUMPDEST POP PUSH2 0x55C PUSH2 0x1728 JUMP JUMPDEST PUSH1 0x40 MLOAD PUSH2 0x569 SWAP2 SWAP1 PUSH2 0x2E84 JUMP JUMPDEST PUSH1 0x40 MLOAD DUP1 SWAP2 SUB SWAP1 RETURN JUMPDEST CALLVALUE DUP1 ISZERO PUSH2 0x57D JUMPI PUSH0 PUSH0 REVERT JUMPDEST POP PUSH2 0x598 PUSH1 0x4 DUP1 CALLDATASIZE SUB DUP2 ADD SWAP1 PUSH2 0x593 SWAP2 SWAP1 PUSH2 0x2C57 JUMP JUMPDEST PUSH2 0x17DF JUMP JUMPDEST PUSH1 0x40 MLOAD PUSH2 0x5A7 SWAP4 SWAP3 SWAP2 SWAP1 PUSH2 0x2E9D JUMP JUMPDEST PUSH1 0x40 MLOAD DUP1 SWAP2 SUB SWAP1 RETURN JUMPDEST CALLVALUE DUP1 ISZERO PUSH2 0x5BB JUMPI PUSH0 PUSH0 REVERT JUMPDEST POP PUSH2 0x5D6 PUSH1 0x4 DUP1 CALLDATASIZE SUB DUP2 ADD SWAP1 PUSH2 0x5D1 SWAP2 SWAP1 PUSH2 0x2BAA JUMP JUMPDEST PUSH2 0x1805 JUMP JUMPDEST STOP JUMPDEST CALLVALUE DUP1 ISZERO PUSH2 0x5E3 JUMPI PUSH0 PUSH0 REVERT JUMPDEST POP PUSH2 0x5EC PUSH2 0x1932 JUMP JUMPDEST PUSH1 0x40 MLOAD PUSH2 0x5F9 SWAP2 SWAP1 PUSH2 0x2D05 JUMP JUMPDEST PUSH1 0x40 MLOAD DUP1 SWAP2 SUB SWAP1 RETURN JUMPDEST CALLVALUE DUP1 ISZERO PUSH2 0x60D JUMPI PUSH0 PUSH0 REVERT JUMPDEST POP PUSH2 0x628 PUSH1 0x4 DUP1 CALLDATASIZE SUB DUP2 ADD SWAP1 PUSH2 0x623 SWAP2 SWAP1 PUSH2 0x2C57 JUMP JUMPDEST PUSH2 0x1957 JUMP JUMPDEST PUSH1 0x40 MLOAD PUSH2 0x635 SWAP2 SWAP1 PUSH2 0x2BE4 JUMP JUMPDEST PUSH1 0x40 MLOAD DUP1 SWAP2 SUB SWAP1 RETURN JUMPDEST CALLVALUE DUP1 ISZERO PUSH2 0x649 JUMPI PUSH0 PUSH0 REVERT JUMPDEST POP PUSH2 0x652 PUSH2 0x19BE JUMP JUMPDEST PUSH1 0x40 MLOAD PUSH2 0x65F SWAP2 SWAP1 PUSH2 0x2BE4 JUMP JUMPDEST PUSH1 0x40 MLOAD DUP1 SWAP2 SUB SWAP1 RETURN JUMPDEST CALLVALUE DUP1 ISZERO PUSH2 0x673 JUMPI PUSH0 PUSH0 REVERT JUMPDEST POP PUSH2 0x67C PUSH2 0x1A80 JUMP JUMPDEST PUSH1 0x40 MLOAD PUSH2 0x689 SWAP2 SWAP1 PUSH2 0x2D8E JUMP JUMPDEST PUSH1 0x40 MLOAD DUP1 SWAP2 SUB SWAP1 RETURN JUMPDEST CALLVALUE DUP1 ISZERO PUSH2 0x69D JUMPI PUSH0 PUSH0 REVERT JUMPDEST POP PUSH2 0x6B8 PUSH1 0x4 DUP1 CALLDATASIZE SUB DUP2 ADD SWAP1 PUSH2 0x6B3 SWAP2 SWAP1 PUSH2 0x2BAA JUMP JUMPDEST PUSH2 0x1B0C JUMP JUMPDEST PUSH1 0x40 MLOAD PUSH2 0x6C5 SWAP2 SWAP1 PUSH2 0x2D05 JUMP JUMPDEST PUSH1 0x40 MLOAD DUP1 SWAP2 SUB SWAP1 RETURN JUMPDEST CALLVALUE DUP1 ISZERO PUSH2 0x6D9 JUMPI PUSH0 PUSH0 REVERT JUMPDEST POP PUSH2 0x6F4 PUSH1 0x4 DUP1 CALLDATASIZE SUB DUP2 ADD SWAP1 PUSH2 0x6EF SWAP2 SWAP1 PUSH2 0x2C57 JUMP JUMPDEST PUSH2 0x1B47 JUMP JUMPDEST PUSH1 0x40 MLOAD PUSH2 0x701 SWAP2 SWAP1 PUSH2 0x2BE4 JUMP JUMPDEST PUSH1 0x40 MLOAD DUP1 SWAP2 SUB SWAP1 RETURN JUMPDEST CALLVALUE DUP1 ISZERO PUSH2 0x715 JUMPI PUSH0 PUSH0 REVERT JUMPDEST POP PUSH2 0x71E PUSH2 0x1DBE JUMP JUMPDEST PUSH1 0x40 MLOAD PUSH2 0x72B SWAP2 SWAP1 PUSH2 0x2BE4 JUMP JUMPDEST PUSH1 0x40 MLOAD DUP1 SWAP2 SUB SWAP1 RETURN JUMPDEST CALLVALUE DUP1 ISZERO PUSH2 0x73F JUMPI PUSH0 PUSH0 REVERT JUMPDEST POP PUSH2 0x748 PUSH2 0x1DC4 JUMP JUMPDEST PUSH1 0x40 MLOAD PUSH2 0x755 SWAP2 SWAP1 PUSH2 0x2EF2 JUMP JUMPDEST PUSH1 0x40 MLOAD DUP1 SWAP2 SUB SWAP1 RETURN JUMPDEST CALLVALUE DUP1 ISZERO PUSH2 0x769 JUMPI PUSH0 PUSH0 REVERT JUMPDEST POP PUSH2 0x772 PUSH2 0x1DE9 JUMP JUMPDEST PUSH1 0x40 MLOAD PUSH2 0x77F SWAP2 SWAP1 PUSH2 0x2D05 JUMP JUMPDEST PUSH1 0x40 MLOAD DUP1 SWAP2 SUB SWAP1 RETURN JUMPDEST CALLVALUE DUP1 ISZERO PUSH2 0x793 JUMPI PUSH0 PUSH0 REVERT JUMPDEST POP PUSH2 0x7AE PUSH1 0x4 DUP1 CALLDATASIZE SUB DUP2 ADD SWAP1 PUSH2 0x7A9 SWAP2 SWAP1 PUSH2 0x2C57 JUMP JUMPDEST PUSH2 0x1E0E JUMP JUMPDEST PUSH1 0x40 MLOAD PUSH2 0x7BB SWAP2 SWAP1 PUSH2 0x2F25 JUMP JUMPDEST PUSH1 0x40 MLOAD DUP1 SWAP2 SUB SWAP1 RETURN JUMPDEST CALLVALUE DUP1 ISZERO PUSH2 0x7CF JUMPI PUSH0 PUSH0 REVERT JUMPDEST POP PUSH2 0x7D8 PUSH2 0x1E23 JUMP JUMPDEST PUSH1 0x40 MLOAD PUSH2 0x7E5 SWAP2 SWAP1 PUSH2 0x2BE4 JUMP JUMPDEST PUSH1 0x40 MLOAD DUP1 SWAP2 SUB SWAP1 RETURN JUMPDEST CALLVALUE DUP1 ISZERO PUSH2 0x7F9 JUMPI PUSH0 PUSH0 REVERT JUMPDEST POP PUSH2 0x802 PUSH2 0x1E29 JUMP JUMPDEST STOP JUMPDEST CALLVALUE DUP1 ISZERO PUSH2 0x80F JUMPI PUSH0 PUSH0 REVERT JUMPDEST POP PUSH2 0x818 PUSH2 0x1EA8 JUMP JUMPDEST PUSH1 0x40 MLOAD PUSH2 0x825 SWAP2 SWAP1 PUSH2 0x2BE4 JUMP JUMPDEST PUSH1 0x40 MLOAD DUP1 SWAP2 SUB SWAP1 RETURN JUMPDEST CALLVALUE DUP1 ISZERO PUSH2 0x839 JUMPI PUSH0 PUSH0 REVERT JUMPDEST POP PUSH2 0x854 PUSH1 0x4 DUP1 CALLDATASIZE SUB DUP2 ADD SWAP1 PUSH2 0x84F SWAP2 SWAP1 PUSH2 0x2FB6 JUMP JUMPDEST PUSH2 0x1EAE JUMP JUMPDEST STOP JUMPDEST CALLVALUE DUP1 ISZERO PUSH2 0x861 JUMPI PUSH0 PUSH0 REVERT JUMPDEST POP PUSH2 0x86A PUSH2 0x2356 JUMP JUMPDEST PUSH1 0x40 MLOAD PUSH2 0x877 SWAP2 SWAP1 PUSH2 0x2CDD JUMP JUMPDEST PUSH1 0x40 MLOAD DUP1 SWAP2 SUB SWAP1 RETURN JUMPDEST CALLVALUE DUP1 ISZERO PUSH2 0x88B JUMPI PUSH0 PUSH0 REVERT JUMPDEST POP PUSH2 0x894 PUSH2 0x237B JUMP JUMPDEST PUSH1 0x40 MLOAD PUSH2 0x8A1 SWAP2 SWAP1 PUSH2 0x2BE4 JUMP JUMPDEST PUSH1 0x40 MLOAD DUP1 SWAP2 SUB SWAP1 RETURN JUMPDEST CALLVALUE DUP1 ISZERO PUSH2 0x8B5 JUMPI PUSH0 PUSH0 REVERT JUMPDEST POP PUSH2 0x8D0 PUSH1 0x4 DUP1 CALLDATASIZE SUB DUP2 ADD SWAP1 PUSH2 0x8CB SWAP2 SWAP1 PUSH2 0x2BAA JUMP JUMPDEST PUSH2 0x2381 JUMP JUMPDEST STOP JUMPDEST CALLVALUE DUP1 ISZERO PUSH2 0x8DD JUMPI PUSH0 PUSH0 REVERT JUMPDEST POP PUSH2 0x8E6 PUSH2 0x2552 JUMP JUMPDEST PUSH1 0x40 MLOAD PUSH2 0x8F3 SWAP2 SWAP1 PUSH2 0x2BE4 JUMP JUMPDEST PUSH1 0x40 MLOAD DUP1 SWAP2 SUB SWAP1 RETURN JUMPDEST CALLVALUE DUP1 ISZERO PUSH2 0x907 JUMPI PUSH0 PUSH0 REVERT JUMPDEST POP PUSH2 0x922 PUSH1 0x4 DUP1 CALLDATASIZE SUB DUP2 ADD SWAP1 PUSH2 0x91D SWAP2 SWAP1 PUSH2 0x304A JUMP JUMPDEST PUSH2 0x2572 JUMP JUMPDEST STOP JUMPDEST CALLVALUE DUP1 ISZERO PUSH2 0x92F JUMPI PUSH0 PUSH0 REVERT JUMPDEST POP PUSH2 0x94A PUSH1 0x4 DUP1 CALLDATASIZE SUB DUP2 ADD SWAP1 PUSH2 0x945 SWAP2 SWAP1 PUSH2 0x2C57 JUMP JUMPDEST PUSH2 0x2600 JUMP JUMPDEST PUSH1 0x40 MLOAD PUSH2 0x957 SWAP2 SWAP1 PUSH2 0x2BE4 JUMP JUMPDEST PUSH1 0x40 MLOAD DUP1 SWAP2 SUB SWAP1 RETURN JUMPDEST CALLVALUE DUP1 ISZERO PUSH2 0x96B JUMPI PUSH0 PUSH0 REVERT JUMPDEST POP PUSH2 0x986 PUSH1 0x4 DUP1 CALLDATASIZE SUB DUP2 ADD SWAP1 PUSH2 0x981 SWAP2 SWAP1 PUSH2 0x2C57 JUMP JUMPDEST PUSH2 0x26B8 JUMP JUMPDEST STOP JUMPDEST CALLVALUE DUP1 ISZERO PUSH2 0x993 JUMPI PUSH0 PUSH0 REVERT JUMPDEST POP PUSH2 0x99C PUSH2 0x278A JUMP JUMPDEST PUSH1 0x40 MLOAD PUSH2 0x9A9 SWAP2 SWAP1 PUSH2 0x2BE4 JUMP JUMPDEST PUSH1 0x40 MLOAD DUP1 SWAP2 SUB SWAP1 RETURN JUMPDEST CALLVALUE DUP1 ISZERO PUSH2 0x9BD JUMPI PUSH0 PUSH0 REVERT JUMPDEST POP PUSH2 0x9D8 PUSH1 0x4 DUP1 CALLDATASIZE SUB DUP2 ADD SWAP1 PUSH2 0x9D3 SWAP2 SWAP1 PUSH2 0x2C57 JUMP JUMPDEST PUSH2 0x2790 JUMP JUMPDEST STOP JUMPDEST CALLVALUE DUP1 ISZERO PUSH2 0x9E5 JUMPI PUSH0 PUSH0 REVERT JUMPDEST POP PUSH2 0x9EE PUSH2 0x282B JUMP JUMPDEST PUSH1 0x40 MLOAD PUSH2 0x9FB SWAP2 SWAP1 PUSH2 0x2D05 JUMP JUMPDEST PUSH1 0x40 MLOAD DUP1 SWAP2 SUB SWAP1 RETURN JUMPDEST CALLVALUE DUP1 ISZERO PUSH2 0xA0F JUMPI PUSH0 PUSH0 REVERT JUMPDEST POP PUSH2 0xA18 PUSH2 0x2850 JUMP JUMPDEST PUSH1 0x40 MLOAD PUSH2 0xA25 SWAP2 SWAP1 PUSH2 0x2BE4 JUMP JUMPDEST PUSH1 0x40 MLOAD DUP1 SWAP2 SUB SWAP1 RETURN JUMPDEST PUSH0 PUSH0 DUP3 GT PUSH2 0xA3A JUMPI PUSH0 PUSH0 REVERT JUMPDEST PUSH1 0x10 SLOAD PUSH8 0xDE0B6B3A7640000 DUP4 PUSH2 0xA51 SWAP2 SWAP1 PUSH2 0x30C7 JUMP JUMPDEST PUSH2 0xA5B SWAP2 SWAP1 PUSH2 0x3135 JUMP JUMPDEST SWAP1 POP PUSH0 DUP2 SUB PUSH2 0xA69 JUMPI PUSH1 0x1 SWAP1 POP JUMPDEST SWAP2 SWAP1 POP JUMP JUMPDEST PUSH0 PUSH1 0x2 SWAP1 SLOAD SWAP1 PUSH2 0x100 EXP SWAP1 DIV PUSH20 0xFFFFFFFFFFFFFFFFFFFFFFFFFFFFFFFFFFFFFFFF AND PUSH20 0xFFFFFFFFFFFFFFFFFFFFFFFFFFFFFFFFFFFFFFFF AND CALLER PUSH20 0xFFFFFFFFFFFFFFFFFFFFFFFFFFFFFFFFFFFFFFFF AND EQ PUSH2 0xAC6 JUMPI PUSH0 PUSH0 REVERT JUMPDEST DUP1 PUSH1 0x8 PUSH0 PUSH2 0x100 EXP DUP2 SLOAD DUP2 PUSH20 0xFFFFFFFFFFFFFFFFFFFFFFFFFFFFFFFFFFFFFFFF MUL NOT AND SWAP1 DUP4 PUSH20 0xFFFFFFFFFFFFFFFFFFFFFFFFFFFFFFFFFFFFFFFF AND MUL OR SWAP1 SSTORE POP POP JUMP JUMPDEST PUSH1 0x3 PUSH0 SWAP1 SLOAD SWAP1 PUSH2 0x100 EXP SWAP1 DIV PUSH20 0xFFFFFFFFFFFFFFFFFFFFFFFFFFFFFFFFFFFFFFFF AND DUP2 JUMP JUMPDEST PUSH1 0x13 SLOAD DUP2 JUMP JUMPDEST PUSH1 0xE SLOAD DUP2 JUMP JUMPDEST PUSH8 0xDE0B6B3A7640000 DUP2 JUMP JUMPDEST PUSH1 0xF SLOAD DUP2 JUMP JUMPDEST PUSH1 0x8 PUSH0 SWAP1 SLOAD SWAP1 PUSH2 0x100 EXP SWAP1 DIV PUSH20 0xFFFFFFFFFFFFFFFFFFFFFFFFFFFFFFFFFFFFFFFF AND PUSH20 0xFFFFFFFFFFFFFFFFFFFFFFFFFFFFFFFFFFFFFFFF AND CALLER PUSH20 0xFFFFFFFFFFFFFFFFFFFFFFFFFFFFFFFFFFFFFFFF AND EQ DUP1 PUSH2 0xBF3 JUMPI POP PUSH0 PUSH1 0x2 SWAP1 SLOAD SWAP1 PUSH2 0x100 EXP SWAP1 DIV PUSH20 0xFFFFFFFFFFFFFFFFFFFFFFFFFFFFFFFFFFFFFFFF AND PUSH20 0xFFFFFFFFFFFFFFFFFFFFFFFFFFFFFFFFFFFFFFFF AND CALLER PUSH20 0xFFFFFFFFFFFFFFFFFFFFFFFFFFFFFFFFFFFFFFFF AND EQ JUMPDEST PUSH2 0xBFB JUMPI PUSH0 PUSH0 REVERT JUMPDEST PUSH2 0xC03 PUSH2 0x1E29 JUMP JUMPDEST PUSH2 0xC0C DUP2 PUSH2 0x1E0E JUMP JUMPDEST ISZERO PUSH2 0xC15 JUMPI PUSH0 PUSH0 REVERT JUMPDEST PUSH0 PUSH1 0x2 PUSH0 DUP4 PUSH20 0xFFFFFFFFFFFFFFFFFFFFFFFFFFFFFFFFFFFFFFFF AND PUSH20 0xFFFFFFFFFFFFFFFFFFFFFFFFFFFFFFFFFFFFFFFF AND DUP2 MSTORE PUSH1 0x20 ADD SWAP1 DUP2 MSTORE PUSH1 0x20 ADD PUSH0 KECCAK256 SWAP1 POP PUSH0 PUSH2 0xC5F DUP4 PUSH2 0x2600 JUMP JUMPDEST SWAP1 POP PUSH0 DUP2 GT PUSH2 0xC6C JUMPI PUSH0 PUSH0 REVERT JUMPDEST PUSH0 PUSH2 0x2710 PUSH1 0xE SLOAD DUP5 PUSH0 ADD SLOAD PUSH2 0xC81 SWAP2 SWAP1 PUSH2 0x30C7 JUMP JUMPDEST PUSH2 0xC8B SWAP2 SWAP1 PUSH2 0x3135 JUMP JUMPDEST SWAP1 POP PUSH0 DUP2 DUP5 PUSH0 ADD SLOAD PUSH2 0xC9D SWAP2 SWAP1 PUSH2 0x3165 JUMP JUMPDEST SWAP1 POP PUSH0 DUP3 GT ISZERO PUSH2 0xD45 JUMPI PUSH1 0x4 PUSH0 SWAP1 SLOAD SWAP1 PUSH2 0x100 EXP SWAP1 DIV PUSH20 0xFFFFFFFFFFFFFFFFFFFFFFFFFFFFFFFFFFFFFFFF AND PUSH20 0xFFFFFFFFFFFFFFFFFFFFFFFFFFFFFFFFFFFFFFFF AND PUSH4 0xA9059CBB CALLER DUP5 PUSH1 0x40 MLOAD DUP4 PUSH4 0xFFFFFFFF AND PUSH1 0xE0 SHL DUP2 MSTORE PUSH1 0x4 ADD PUSH2 0xD03 SWAP3 SWAP2 SWAP1 PUSH2 0x3198 JUMP JUMPDEST PUSH1 0x20 PUSH1 0x40 MLOAD DUP1 DUP4 SUB DUP2 PUSH0 DUP8 GAS CALL ISZERO DUP1 ISZERO PUSH2 0xD1F JUMPI RETURNDATASIZE PUSH0 PUSH0 RETURNDATACOPY RETURNDATASIZE PUSH0 REVERT JUMPDEST POP POP POP POP PUSH1 0x40 MLOAD RETURNDATASIZE PUSH1 0x1F NOT PUSH1 0x1F DUP3 ADD AND DUP3 ADD DUP1 PUSH1 0x40 MSTORE POP DUP2 ADD SWAP1 PUSH2 0xD43 SWAP2 SWAP1 PUSH2 0x31E9 JUMP JUMPDEST POP JUMPDEST PUSH0 DUP2 GT ISZERO PUSH2 0xE0C JUMPI PUSH1 0x4 PUSH0 SWAP1 SLOAD SWAP1 PUSH2 0x100 EXP SWAP1 DIV PUSH20 0xFFFFFFFFFFFFFFFFFFFFFFFFFFFFFFFFFFFFFFFF AND PUSH20 0xFFFFFFFFFFFFFFFFFFFFFFFFFFFFFFFFFFFFFFFF AND PUSH4 0xA9059CBB PUSH1 0xA PUSH0 SWAP1 SLOAD SWAP1 PUSH2 0x100 EXP SWAP1 DIV PUSH20 0xFFFFFFFFFFFFFFFFFFFFFFFFFFFFFFFFFFFFFFFF AND DUP4 PUSH1 0x40 MLOAD DUP4 PUSH4 0xFFFFFFFF AND PUSH1 0xE0 SHL DUP2 MSTORE PUSH1 0x4 ADD PUSH2 0xDCA SWAP3 SWAP2 SWAP1 PUSH2 0x3198 JUMP JUMPDEST PUSH1 0x20 PUSH1 0x40 MLOAD DUP1 DUP4 SUB DUP2 PUSH0 DUP8 GAS CALL ISZERO DUP1 ISZERO PUSH2 0xDE6 JUMPI RETURNDATASIZE PUSH0 PUSH0 RETURNDATACOPY RETURNDATASIZE PUSH0 REVERT JUMPDEST POP POP POP POP PUSH1 0x40 MLOAD RETURNDATASIZE PUSH1 0x1F NOT PUSH1 0x1F DUP3 ADD AND DUP3 ADD DUP1 PUSH1 0x40 MSTORE POP DUP2 ADD SWAP1 PUSH2 0xE0A SWAP2 SWAP1 PUSH2 0x31E9 JUMP JUMPDEST POP JUMPDEST DUP4 PUSH1 0x1 ADD SLOAD PUSH1 0x13 PUSH0 DUP3 DUP3 SLOAD PUSH2 0xE21 SWAP2 SWAP1 PUSH2 0x3165 JUMP JUMPDEST SWAP3 POP POP DUP2 SWAP1 SSTORE POP PUSH1 0x2 PUSH0 DUP7 PUSH20 0xFFFFFFFFFFFFFFFFFFFFFFFFFFFFFFFFFFFFFFFF AND PUSH20 0xFFFFFFFFFFFFFFFFFFFFFFFFFFFFFFFFFFFFFFFF AND DUP2 MSTORE PUSH1 0x20 ADD SWAP1 DUP2 MSTORE PUSH1 0x20 ADD PUSH0 KECCAK256 PUSH0 PUSH0 DUP3 ADD PUSH0 SWAP1 SSTORE PUSH1 0x1 DUP3 ADD PUSH0 SWAP1 SSTORE PUSH1 0x2 DUP3 ADD PUSH0 SWAP1 SSTORE POP POP PUSH1 0x1 DUP1 SLOAD DUP1 PUSH2 0xE8E JUMPI PUSH2 0xE8D PUSH2 0x3214 JUMP JUMPDEST JUMPDEST PUSH1 0x1 SWAP1 SUB DUP2 DUP2 SWAP1 PUSH0 MSTORE PUSH1 0x20 PUSH0 KECCAK256 ADD PUSH0 PUSH2 0x100 EXP DUP2 SLOAD SWAP1 PUSH20 0xFFFFFFFFFFFFFFFFFFFFFFFFFFFFFFFFFFFFFFFF MUL NOT AND SWAP1 SSTORE SWAP1 SSTORE CALLER PUSH20 0xFFFFFFFFFFFFFFFFFFFFFFFFFFFFFFFFFFFFFFFF AND DUP6 PUSH20 0xFFFFFFFFFFFFFFFFFFFFFFFFFFFFFFFFFFFFFFFF AND PUSH32 0x1F0C6615429D1CDAE0DFA233ABF91D3B31CDBDD82C8081389832A61E1072F1EA DUP6 DUP6 PUSH1 0x40 MLOAD PUSH2 0xF1F SWAP3 SWAP2 SWAP1 PUSH2 0x3241 JUMP JUMPDEST PUSH1 0x40 MLOAD DUP1 SWAP2 SUB SWAP1 LOG3 POP POP POP POP POP JUMP JUMPDEST PUSH1 0x11 SLOAD DUP2 JUMP JUMPDEST PUSH32 0x0 PUSH20 0xFFFFFFFFFFFFFFFFFFFFFFFFFFFFFFFFFFFFFFFF AND ADDRESS PUSH20 0xFFFFFFFFFFFFFFFFFFFFFFFFFFFFFFFFFFFFFFFF AND SUB PUSH2 0xFC2 JUMPI PUSH1 0x40 MLOAD PUSH32 0x8C379A000000000000000000000000000000000000000000000000000000000 DUP2 MSTORE PUSH1 0x4 ADD PUSH2 0xFB9 SWAP1 PUSH2 0x32B2 JUMP JUMPDEST PUSH1 0x40 MLOAD DUP1 SWAP2 SUB SWAP1 REVERT JUMPDEST PUSH32 0x0 PUSH20 0xFFFFFFFFFFFFFFFFFFFFFFFFFFFFFFFFFFFFFFFF AND PUSH2 0x1001 PUSH2 0x288E JUMP JUMPDEST PUSH20 0xFFFFFFFFFFFFFFFFFFFFFFFFFFFFFFFFFFFFFFFF AND EQ PUSH2 0x1057 JUMPI PUSH1 0x40 MLOAD PUSH32 0x8C379A000000000000000000000000000000000000000000000000000000000 DUP2 MSTORE PUSH1 0x4 ADD PUSH2 0x104E SWAP1 PUSH2 0x331A JUMP JUMPDEST PUSH1 0x40 MLOAD DUP1 SWAP2 SUB SWAP1 REVERT JUMPDEST PUSH2 0x1060 DUP2 PUSH2 0x28BD JUMP JUMPDEST PUSH2 0x1079 DUP2 PUSH1 0x40 MLOAD DUP1 PUSH1 0x20 ADD PUSH1 0x40 MSTORE DUP1 PUSH0 DUP2 MSTORE POP PUSH0 PUSH2 0x2918 JUMP JUMPDEST POP JUMP JUMPDEST PUSH1 0x4 PUSH0 SWAP1 SLOAD SWAP1 PUSH2 0x100 EXP SWAP1 DIV PUSH20 0xFFFFFFFFFFFFFFFFFFFFFFFFFFFFFFFFFFFFFFFF AND PUSH20 0xFFFFFFFFFFFFFFFFFFFFFFFFFFFFFFFFFFFFFFFF AND PUSH4 0x23B872DD CALLER ADDRESS DUP5 PUSH1 0x40 MLOAD DUP5 PUSH4 0xFFFFFFFF AND PUSH1 0xE0 SHL DUP2 MSTORE PUSH1 0x4 ADD PUSH2 0x10DA SWAP4 SWAP3 SWAP2 SWAP1 PUSH2 0x3338 JUMP JUMPDEST PUSH1 0x20 PUSH1 0x40 MLOAD DUP1 DUP4 SUB DUP2 PUSH0 DUP8 GAS CALL ISZERO DUP1 ISZERO PUSH2 0x10F6 JUMPI RETURNDATASIZE PUSH0 PUSH0 RETURNDATACOPY RETURNDATASIZE PUSH0 REVERT JUMPDEST POP POP POP POP PUSH1 0x40 MLOAD RETURNDATASIZE PUSH1 0x1F NOT PUSH1 0x1F DUP3 ADD AND DUP3 ADD DUP1 PUSH1 0x40 MSTORE POP DUP2 ADD SWAP1 PUSH2 0x111A SWAP2 SWAP1 PUSH2 0x31E9 JUMP JUMPDEST POP DUP1 PUSH1 0x2 PUSH0 CALLER PUSH20 0xFFFFFFFFFFFFFFFFFFFFFFFFFFFFFFFFFFFFFFFF AND PUSH20 0xFFFFFFFFFFFFFFFFFFFFFFFFFFFFFFFFFFFFFFFF AND DUP2 MSTORE PUSH1 0x20 ADD SWAP1 DUP2 MSTORE PUSH1 0x20 ADD PUSH0 KECCAK256 PUSH0 ADD PUSH0 DUP3 DUP3 SLOAD PUSH2 0x1169 SWAP2 SWAP1 PUSH2 0x336D JUMP JUMPDEST SWAP3 POP POP DUP2 SWAP1 SSTORE POP POP JUMP JUMPDEST PUSH0 PUSH0 DUP3 GT PUSH2 0x117F JUMPI PUSH0 PUSH0 REVERT JUMPDEST PUSH2 0x1187 PUSH2 0x1E29 JUMP JUMPDEST PUSH0 PUSH1 0x2 PUSH0 CALLER PUSH20 0xFFFFFFFFFFFFFFFFFFFFFFFFFFFFFFFFFFFFFFFF AND PUSH20 0xFFFFFFFFFFFFFFFFFFFFFFFFFFFFFFFFFFFFFFFF AND DUP2 MSTORE PUSH1 0x20 ADD SWAP1 DUP2 MSTORE PUSH1 0x20 ADD PUSH0 KECCAK256 SWAP1 POP PUSH0 PUSH2 0x11D1 CALLER PUSH2 0x2600 JUMP JUMPDEST SWAP1 POP PUSH0 DUP2 GT PUSH2 0x11DE JUMPI PUSH0 PUSH0 REVERT JUMPDEST PUSH0 DUP2 DUP6 GT PUSH2 0x11EC JUMPI DUP5 PUSH2 0x11EE JUMP JUMPDEST DUP2 JUMPDEST SWAP1 POP PUSH1 0x3 PUSH0 SWAP1 SLOAD SWAP1 PUSH2 0x100 EXP SWAP1 DIV PUSH20 0xFFFFFFFFFFFFFFFFFFFFFFFFFFFFFFFFFFFFFFFF AND PUSH20 0xFFFFFFFFFFFFFFFFFFFFFFFFFFFFFFFFFFFFFFFF AND PUSH4 0x23B872DD CALLER ADDRESS DUP5 PUSH1 0x40 MLOAD DUP5 PUSH4 0xFFFFFFFF AND PUSH1 0xE0 SHL DUP2 MSTORE PUSH1 0x4 ADD PUSH2 0x124E SWAP4 SWAP3 SWAP2 SWAP1 PUSH2 0x3338 JUMP JUMPDEST PUSH1 0x20 PUSH1 0x40 MLOAD DUP1 DUP4 SUB DUP2 PUSH0 DUP8 GAS CALL ISZERO DUP1 ISZERO PUSH2 0x126A JUMPI RETURNDATASIZE PUSH0 PUSH0 RETURNDATACOPY RETURNDATASIZE PUSH0 REVERT JUMPDEST POP POP POP POP PUSH1 0x40 MLOAD RETURNDATASIZE PUSH1 0x1F NOT PUSH1 0x1F DUP3 ADD AND DUP3 ADD DUP1 PUSH1 0x40 MSTORE POP DUP2 ADD SWAP1 PUSH2 0x128E SWAP2 SWAP1 PUSH2 0x31E9 JUMP JUMPDEST POP PUSH0 DUP2 DUP5 PUSH1 0x2 ADD SLOAD GT PUSH2 0x12A5 JUMPI DUP4 PUSH1 0x2 ADD SLOAD PUSH2 0x12A7 JUMP JUMPDEST DUP2 JUMPDEST SWAP1 POP DUP1 DUP5 PUSH1 0x2 ADD PUSH0 DUP3 DUP3 SLOAD PUSH2 0x12BC SWAP2 SWAP1 PUSH2 0x3165 JUMP JUMPDEST SWAP3 POP POP DUP2 SWAP1 SSTORE POP PUSH2 0x3E8 PUSH1 0x11 SLOAD DUP3 DUP5 PUSH2 0x12D5 SWAP2 SWAP1 PUSH2 0x3165 JUMP JUMPDEST PUSH2 0x12DF SWAP2 SWAP1 PUSH2 0x30C7 JUMP JUMPDEST PUSH2 0x12E9 SWAP2 SWAP1 PUSH2 0x3135 JUMP JUMPDEST PUSH1 0x11 PUSH0 DUP3 DUP3 SLOAD PUSH2 0x12F9 SWAP2 SWAP1 PUSH2 0x336D JUMP JUMPDEST SWAP3 POP POP DUP2 SWAP1 SSTORE POP PUSH0 DUP4 DUP4 EQ PUSH2 0x132E JUMPI PUSH1 0x10 SLOAD PUSH8 0xDE0B6B3A7640000 DUP5 PUSH2 0x131F SWAP2 SWAP1 PUSH2 0x30C7 JUMP JUMPDEST PUSH2 0x1329 SWAP2 SWAP1 PUSH2 0x3135 JUMP JUMPDEST PUSH2 0x1334 JUMP JUMPDEST DUP5 PUSH1 0x1 ADD SLOAD JUMPDEST SWAP1 POP DUP5 PUSH1 0x1 ADD SLOAD DUP2 GT ISZERO PUSH2 0x134A JUMPI DUP5 PUSH1 0x1 ADD SLOAD SWAP1 POP JUMPDEST DUP1 DUP6 PUSH1 0x1 ADD PUSH0 DUP3 DUP3 SLOAD PUSH2 0x135D SWAP2 SWAP1 PUSH2 0x3165 JUMP JUMPDEST SWAP3 POP POP DUP2 SWAP1 SSTORE POP DUP1 PUSH1 0x13 PUSH0 DUP3 DUP3 SLOAD PUSH2 0x1375 SWAP2 SWAP1 PUSH2 0x3165 JUMP JUMPDEST SWAP3 POP POP DUP2 SWAP1 SSTORE POP PUSH2 0x1385 CALLER PUSH2 0x2600 JUMP JUMPDEST SWAP6 POP POP POP POP POP POP SWAP2 SWAP1 POP JUMP JUMPDEST PUSH1 0x9 PUSH0 SWAP1 SLOAD SWAP1 PUSH2 0x100 EXP SWAP1 DIV PUSH20 0xFFFFFFFFFFFFFFFFFFFFFFFFFFFFFFFFFFFFFFFF AND PUSH20 0xFFFFFFFFFFFFFFFFFFFFFFFFFFFFFFFFFFFFFFFF AND CALLER PUSH20 0xFFFFFFFFFFFFFFFFFFFFFFFFFFFFFFFFFFFFFFFF AND EQ PUSH2 0x13E9 JUMPI PUSH0 PUSH0 REVERT JUMPDEST PUSH2 0x13F1 PUSH2 0x19BE JUMP JUMPDEST DUP2 GT ISZERO PUSH2 0x13FC JUMPI PUSH0 PUSH0 REVERT JUMPDEST PUSH1 0x3 PUSH0 SWAP1 SLOAD SWAP1 PUSH2 0x100 EXP SWAP1 DIV PUSH20 0xFFFFFFFFFFFFFFFFFFFFFFFFFFFFFFFFFFFFFFFF AND PUSH20 0xFFFFFFFFFFFFFFFFFFFFFFFFFFFFFFFFFFFFFFFF AND PUSH4 0xA9059CBB CALLER DUP4 PUSH1 0x40 MLOAD DUP4 PUSH4 0xFFFFFFFF AND PUSH1 0xE0 SHL DUP2 MSTORE PUSH1 0x4 ADD PUSH2 0x1458 SWAP3 SWAP2 SWAP1 PUSH2 0x3198 JUMP JUMPDEST PUSH1 0x20 PUSH1 0x40 MLOAD DUP1 DUP4 SUB DUP2 PUSH0 DUP8 GAS CALL ISZERO DUP1 ISZERO PUSH2 0x1474 JUMPI RETURNDATASIZE PUSH0 PUSH0 RETURNDATACOPY RETURNDATASIZE PUSH0 REVERT JUMPDEST POP POP POP POP PUSH1 0x40 MLOAD RETURNDATASIZE PUSH1 0x1F NOT PUSH1 0x1F DUP3 ADD AND DUP3 ADD DUP1 PUSH1 0x40 MSTORE POP DUP2 ADD SWAP1 PUSH2 0x1498 SWAP2 SWAP1 PUSH2 0x31E9 JUMP JUMPDEST POP POP JUMP JUMPDEST PUSH1 0x8 PUSH0 SWAP1 SLOAD SWAP1 PUSH2 0x100 EXP SWAP1 DIV PUSH20 0xFFFFFFFFFFFFFFFFFFFFFFFFFFFFFFFFFFFFFFFF AND DUP2 JUMP JUMPDEST PUSH1 0x6 DUP1 SLOAD PUSH2 0x14CE SWAP1 PUSH2 0x33CD JUMP JUMPDEST DUP1 PUSH1 0x1F ADD PUSH1 0x20 DUP1 SWAP2 DIV MUL PUSH1 0x20 ADD PUSH1 0x40 MLOAD SWAP1 DUP2 ADD PUSH1 0x40 MSTORE DUP1 SWAP3 SWAP2 SWAP1 DUP2 DUP2 MSTORE PUSH1 0x20 ADD DUP3 DUP1 SLOAD PUSH2 0x14FA SWAP1 PUSH2 0x33CD JUMP JUMPDEST DUP1 ISZERO PUSH2 0x1545 JUMPI DUP1 PUSH1 0x1F LT PUSH2 0x151C JUMPI PUSH2 0x100 DUP1 DUP4 SLOAD DIV MUL DUP4 MSTORE SWAP2 PUSH1 0x20 ADD SWAP2 PUSH2 0x1545 JUMP JUMPDEST DUP3 ADD SWAP2 SWAP1 PUSH0 MSTORE PUSH1 0x20 PUSH0 KECCAK256 SWAP1 JUMPDEST DUP2 SLOAD DUP2 MSTORE SWAP1 PUSH1 0x1 ADD SWAP1 PUSH1 0x20 ADD DUP1 DUP4 GT PUSH2 0x1528 JUMPI DUP3 SWAP1 SUB PUSH1 0x1F AND DUP3 ADD SWAP2 JUMPDEST POP POP POP POP POP DUP2 JUMP JUMPDEST PUSH1 0x9 PUSH0 SWAP1 SLOAD SWAP1 PUSH2 0x100 EXP SWAP1 DIV PUSH20 0xFFFFFFFFFFFFFFFFFFFFFFFFFFFFFFFFFFFFFFFF AND PUSH20 0xFFFFFFFFFFFFFFFFFFFFFFFFFFFFFFFFFFFFFFFF AND CALLER PUSH20 0xFFFFFFFFFFFFFFFFFFFFFFFFFFFFFFFFFFFFFFFF AND EQ PUSH2 0x15A5 JUMPI PUSH0 PUSH0 REVERT JUMPDEST POP JUMP JUMPDEST PUSH32 0x0 PUSH20 0xFFFFFFFFFFFFFFFFFFFFFFFFFFFFFFFFFFFFFFFF AND ADDRESS PUSH20 0xFFFFFFFFFFFFFFFFFFFFFFFFFFFFFFFFFFFFFFFF AND SUB PUSH2 0x1636 JUMPI PUSH1 0x40 MLOAD PUSH32 0x8C379A000000000000000000000000000000000000000000000000000000000 DUP2 MSTORE PUSH1 0x4 ADD PUSH2 0x162D SWAP1 PUSH2 0x32B2 JUMP JUMPDEST PUSH1 0x40 MLOAD DUP1 SWAP2 SUB SWAP1 REVERT JUMPDEST PUSH32 0x0 PUSH20 0xFFFFFFFFFFFFFFFFFFFFFFFFFFFFFFFFFFFFFFFF AND PUSH2 0x1675 PUSH2 0x288E JUMP JUMPDEST PUSH20 0xFFFFFFFFFFFFFFFFFFFFFFFFFFFFFFFFFFFFFFFF AND EQ PUSH2 0x16CB JUMPI PUSH1 0x40 MLOAD PUSH32 0x8C379A000000000000000000000000000000000000000000000000000000000 DUP2 MSTORE PUSH1 0x4 ADD PUSH2 0x16C2 SWAP1 PUSH2 0x331A JUMP JUMPDEST PUSH1 0x40 MLOAD DUP1 SWAP2 SUB SWAP1 REVERT JUMPDEST PUSH2 0x16D4 DUP4 PUSH2 0x28BD JUMP JUMPDEST PUSH2 0x1723 DUP4 DUP4 DUP4 DUP1 DUP1 PUSH1 0x1F ADD PUSH1 0x20 DUP1 SWAP2 DIV MUL PUSH1 0x20 ADD PUSH1 0x40 MLOAD SWAP1 DUP2 ADD PUSH1 0x40 MSTORE DUP1 SWAP4 SWAP3 SWAP2 SWAP1 DUP2 DUP2 MSTORE PUSH1 0x20 ADD DUP4 DUP4 DUP1 DUP3 DUP5 CALLDATACOPY PUSH0 DUP2 DUP5 ADD MSTORE PUSH1 0x1F NOT PUSH1 0x1F DUP3 ADD AND SWAP1 POP DUP1 DUP4 ADD SWAP3 POP POP POP POP POP POP POP PUSH1 0x1 PUSH2 0x2918 JUMP JUMPDEST POP POP POP JUMP JUMPDEST PUSH0 PUSH32 0x0 PUSH20 0xFFFFFFFFFFFFFFFFFFFFFFFFFFFFFFFFFFFFFFFF AND ADDRESS PUSH20 0xFFFFFFFFFFFFFFFFFFFFFFFFFFFFFFFFFFFFFFFF AND EQ PUSH2 0x17B7 JUMPI PUSH1 0x40 MLOAD PUSH32 0x8C379A000000000000000000000000000000000000000000000000000000000 DUP2 MSTORE PUSH1 0x4 ADD PUSH2 0x17AE SWAP1 PUSH2 0x3447 JUMP JUMPDEST PUSH1 0x40 MLOAD DUP1 SWAP2 SUB SWAP1 REVERT JUMPDEST PUSH32 0x360894A13BA1A3210667C828492DB98DCA3E2076CC3735A920A3CA505D382BBC PUSH0 SHL SWAP1 POP SWAP1 JUMP JUMPDEST PUSH1 0x2 PUSH1 0x20 MSTORE DUP1 PUSH0 MSTORE PUSH1 0x40 PUSH0 KECCAK256 PUSH0 SWAP2 POP SWAP1 POP DUP1 PUSH0 ADD SLOAD SWAP1 DUP1 PUSH1 0x1 ADD SLOAD SWAP1 DUP1 PUSH1 0x2 ADD SLOAD SWAP1 POP DUP4 JUMP JUMPDEST PUSH0 DUP2 GT PUSH2 0x1810 JUMPI PUSH0 PUSH0 REVERT JUMPDEST PUSH2 0x1818 PUSH2 0x1E29 JUMP JUMPDEST PUSH0 PUSH1 0x2 PUSH0 CALLER PUSH20 0xFFFFFFFFFFFFFFFFFFFFFFFFFFFFFFFFFFFFFFFF AND PUSH20 0xFFFFFFFFFFFFFFFFFFFFFFFFFFFFFFFFFFFFFFFF AND DUP2 MSTORE PUSH1 0x20 ADD SWAP1 DUP2 MSTORE PUSH1 0x20 ADD PUSH0 KECCAK256 SWAP1 POP DUP1 PUSH0 ADD SLOAD DUP3 GT ISZERO PUSH2 0x1867 JUMPI PUSH0 PUSH0 REVERT JUMPDEST DUP2 DUP2 PUSH0 ADD PUSH0 DUP3 DUP3 SLOAD PUSH2 0x1879 SWAP2 SWAP1 PUSH2 0x3165 JUMP JUMPDEST SWAP3 POP POP DUP2 SWAP1 SSTORE POP PUSH2 0x1889 CALLER PUSH2 0x1E0E JUMP JUMPDEST PUSH2 0x1891 JUMPI PUSH0 PUSH0 REVERT JUMPDEST PUSH1 0x4 PUSH0 SWAP1 SLOAD SWAP1 PUSH2 0x100 EXP SWAP1 DIV PUSH20 0xFFFFFFFFFFFFFFFFFFFFFFFFFFFFFFFFFFFFFFFF AND PUSH20 0xFFFFFFFFFFFFFFFFFFFFFFFFFFFFFFFFFFFFFFFF AND PUSH4 0xA9059CBB CALLER DUP5 PUSH1 0x40 MLOAD DUP4 PUSH4 0xFFFFFFFF AND PUSH1 0xE0 SHL DUP2 MSTORE PUSH1 0x4 ADD PUSH2 0x18ED SWAP3 SWAP2 SWAP1 PUSH2 0x3198 JUMP JUMPDEST PUSH1 0x20 PUSH1 0x40 MLOAD DUP1 DUP4 SUB DUP2 PUSH0 DUP8 GAS CALL ISZERO DUP1 ISZERO PUSH2 0x1909 JUMPI RETURNDATASIZE PUSH0 PUSH0 RETURNDATACOPY RETURNDATASIZE PUSH0 REVERT JUMPDEST POP POP POP POP PUSH1 0x40 MLOAD RETURNDATASIZE PUSH1 0x1F NOT PUSH1 0x1F DUP3 ADD AND DUP3 ADD DUP1 PUSH1 0x40 MSTORE POP DUP2 ADD SWAP1 PUSH2 0x192D SWAP2 SWAP1 PUSH2 0x31E9 JUMP JUMPDEST POP POP POP JUMP JUMPDEST PUSH1 0xA PUSH0 SWAP1 SLOAD SWAP1 PUSH2 0x100 EXP SWAP1 DIV PUSH20 0xFFFFFFFFFFFFFFFFFFFFFFFFFFFFFFFFFFFFFFFF AND DUP2 JUMP JUMPDEST PUSH0 PUSH0 PUSH2 0x1962 DUP4 PUSH2 0x1B47 JUMP JUMPDEST SWAP1 POP PUSH0 DUP2 SUB PUSH2 0x1994 JUMPI PUSH32 0xFFFFFFFFFFFFFFFFFFFFFFFFFFFFFFFFFFFFFFFFFFFFFFFFFFFFFFFFFFFFFFFF SWAP2 POP POP PUSH2 0x19B9 JUMP JUMPDEST DUP1 PUSH8 0xDE0B6B3A7640000 PUSH1 0xB SLOAD PUSH2 0x19AB SWAP2 SWAP1 PUSH2 0x30C7 JUMP JUMPDEST PUSH2 0x19B5 SWAP2 SWAP1 PUSH2 0x3135 JUMP JUMPDEST SWAP2 POP POP JUMPDEST SWAP2 SWAP1 POP JUMP JUMPDEST PUSH0 PUSH0 PUSH1 0x3 PUSH0 SWAP1 SLOAD SWAP1 PUSH2 0x100 EXP SWAP1 DIV PUSH20 0xFFFFFFFFFFFFFFFFFFFFFFFFFFFFFFFFFFFFFFFF AND PUSH20 0xFFFFFFFFFFFFFFFFFFFFFFFFFFFFFFFFFFFFFFFF AND PUSH4 0x70A08231 ADDRESS PUSH1 0x40 MLOAD DUP3 PUSH4 0xFFFFFFFF AND PUSH1 0xE0 SHL DUP2 MSTORE PUSH1 0x4 ADD PUSH2 0x1A1A SWAP2 SWAP1 PUSH2 0x2D05 JUMP JUMPDEST PUSH1 0x20 PUSH1 0x40 MLOAD DUP1 DUP4 SUB DUP2 DUP7 GAS STATICCALL ISZERO DUP1 ISZERO PUSH2 0x1A35 JUMPI RETURNDATASIZE PUSH0 PUSH0 RETURNDATACOPY RETURNDATASIZE PUSH0 REVERT JUMPDEST POP POP POP POP PUSH1 0x40 MLOAD RETURNDATASIZE PUSH1 0x1F NOT PUSH1 0x1F DUP3 ADD AND DUP3 ADD DUP1 PUSH1 0x40 MSTORE POP DUP2 ADD SWAP1 PUSH2 0x1A59 SWAP2 SWAP1 PUSH2 0x3479 JUMP JUMPDEST SWAP1 POP PUSH1 0x12 SLOAD DUP2 GT ISZERO PUSH2 0x1A78 JUMPI PUSH1 0x12 SLOAD DUP2 PUSH2 0x1A73 SWAP2 SWAP1 PUSH2 0x3165 JUMP JUMPDEST PUSH2 0x1A7A JUMP JUMPDEST PUSH0 JUMPDEST SWAP2 POP POP SWAP1 JUMP JUMPDEST PUSH1 0x7 DUP1 SLOAD PUSH2 0x1A8D SWAP1 PUSH2 0x33CD JUMP JUMPDEST DUP1 PUSH1 0x1F ADD PUSH1 0x20 DUP1 SWAP2 DIV MUL PUSH1 0x20 ADD PUSH1 0x40 MLOAD SWAP1 DUP2 ADD PUSH1 0x40 MSTORE DUP1 SWAP3 SWAP2 SWAP1 DUP2 DUP2 MSTORE PUSH1 0x20 ADD DUP3 DUP1 SLOAD PUSH2 0x1AB9 SWAP1 PUSH2 0x33CD JUMP JUMPDEST DUP1 ISZERO PUSH2 0x1B04 JUMPI DUP1 PUSH1 0x1F LT PUSH2 0x1ADB JUMPI PUSH2 0x100 DUP1 DUP4 SLOAD DIV MUL DUP4 MSTORE SWAP2 PUSH1 0x20 ADD SWAP2 PUSH2 0x1B04 JUMP JUMPDEST DUP3 ADD SWAP2 SWAP1 PUSH0 MSTORE PUSH1 0x20 PUSH0 KECCAK256 SWAP1 JUMPDEST DUP2 SLOAD DUP2 MSTORE SWAP1 PUSH1 0x1 ADD SWAP1 PUSH1 0x20 ADD DUP1 DUP4 GT PUSH2 0x1AE7 JUMPI DUP3 SWAP1 SUB PUSH1 0x1F AND DUP3 ADD SWAP2 JUMPDEST POP POP POP POP POP DUP2 JUMP JUMPDEST PUSH1 0x1 DUP2 DUP2 SLOAD DUP2 LT PUSH2 0x1B1B JUMPI PUSH0 DUP1 REVERT JUMPDEST SWAP1 PUSH0 MSTORE PUSH1 0x20 PUSH0 KECCAK256 ADD PUSH0 SWAP2 POP SLOAD SWAP1 PUSH2 0x100 EXP SWAP1 DIV PUSH20 0xFFFFFFFFFFFFFFFFFFFFFFFFFFFFFFFFFFFFFFFF AND DUP2 JUMP JUMPDEST PUSH0 PUSH0 PUSH20 0xFFFFFFFFFFFFFFFFFFFFFFFFFFFFFFFFFFFFFFFF AND DUP3 PUSH20 0xFFFFFFFFFFFFFFFFFFFFFFFFFFFFFFFFFFFFFFFF AND SUB PUSH2 0x1B7F JUMPI PUSH0 PUSH0 REVERT JUMPDEST PUSH0 PUSH2 0x1B89 DUP4 PUSH2 0x2600 JUMP JUMPDEST SWAP1 POP PUSH0 PUSH1 0x2 PUSH0 DUP6 PUSH20 0xFFFFFFFFFFFFFFFFFFFFFFFFFFFFFFFFFFFFFFFF AND PUSH20 0xFFFFFFFFFFFFFFFFFFFFFFFFFFFFFFFFFFFFFFFF AND DUP2 MSTORE PUSH1 0x20 ADD SWAP1 DUP2 MSTORE PUSH1 0x20 ADD PUSH0 KECCAK256 SWAP1 POP PUSH0 DUP3 SUB PUSH2 0x1BDC JUMPI PUSH0 SWAP3 POP POP POP PUSH2 0x1DB9 JUMP JUMPDEST PUSH0 DUP2 PUSH0 ADD SLOAD SUB PUSH2 0x1C10 JUMPI PUSH32 0xFFFFFFFFFFFFFFFFFFFFFFFFFFFFFFFFFFFFFFFFFFFFFFFFFFFFFFFFFFFFFFFF SWAP3 POP POP POP PUSH2 0x1DB9 JUMP JUMPDEST PUSH1 0x5 PUSH0 SWAP1 SLOAD SWAP1 PUSH2 0x100 EXP SWAP1 DIV PUSH20 0xFFFFFFFFFFFFFFFFFFFFFFFFFFFFFFFFFFFFFFFF AND PUSH20 0xFFFFFFFFFFFFFFFFFFFFFFFFFFFFFFFFFFFFFFFF AND PUSH4 0x41976E09 PUSH1 0x4 PUSH0 SWAP1 SLOAD SWAP1 PUSH2 0x100 EXP SWAP1 DIV PUSH20 0xFFFFFFFFFFFFFFFFFFFFFFFFFFFFFFFFFFFFFFFF AND PUSH1 0x40 MLOAD DUP3 PUSH4 0xFFFFFFFF AND PUSH1 0xE0 SHL DUP2 MSTORE PUSH1 0x4 ADD PUSH2 0x1C8B SWAP2 SWAP1 PUSH2 0x2D05 JUMP JUMPDEST PUSH1 0x20 PUSH1 0x40 MLOAD DUP1 DUP4 SUB DUP2 DUP7 GAS STATICCALL ISZERO DUP1 ISZERO PUSH2 0x1CA6 JUMPI RETURNDATASIZE PUSH0 PUSH0 RETURNDATACOPY RETURNDATASIZE PUSH0 REVERT JUMPDEST POP POP POP POP PUSH1 0x40 MLOAD RETURNDATASIZE PUSH1 0x1F NOT PUSH1 0x1F DUP3 ADD AND DUP3 ADD DUP1 PUSH1 0x40 MSTORE POP DUP2 ADD SWAP1 PUSH2 0x1CCA SWAP2 SWAP1 PUSH2 0x3479 JUMP JUMPDEST DUP2 PUSH0 ADD SLOAD PUSH2 0x1CD8 SWAP2 SWAP1 PUSH2 0x30C7 JUMP JUMPDEST PUSH2 0x2710 PUSH1 0x5 PUSH0 SWAP1 SLOAD SWAP1 PUSH2 0x100 EXP SWAP1 DIV PUSH20 0xFFFFFFFFFFFFFFFFFFFFFFFFFFFFFFFFFFFFFFFF AND PUSH20 0xFFFFFFFFFFFFFFFFFFFFFFFFFFFFFFFFFFFFFFFF AND PUSH4 0x41976E09 PUSH1 0x3 PUSH0 SWAP1 SLOAD SWAP1 PUSH2 0x100 EXP SWAP1 DIV PUSH20 0xFFFFFFFFFFFFFFFFFFFFFFFFFFFFFFFFFFFFFFFF AND PUSH1 0x40 MLOAD DUP3 PUSH4 0xFFFFFFFF AND PUSH1 0xE0 SHL DUP2 MSTORE PUSH1 0x4 ADD PUSH2 0x1D56 SWAP2 SWAP1 PUSH2 0x2D05 JUMP JUMPDEST PUSH1 0x20 PUSH1 0x40 MLOAD DUP1 DUP4 SUB DUP2 DUP7 GAS STATICCALL ISZERO DUP1 ISZERO PUSH2 0x1D71 JUMPI RETURNDATASIZE PUSH0 PUSH0 RETURNDATACOPY RETURNDATASIZE PUSH0 REVERT JUMPDEST POP POP POP POP PUSH1 0x40 MLOAD RETURNDATASIZE PUSH1 0x1F NOT PUSH1 0x1F DUP3 ADD AND DUP3 ADD DUP1 PUSH1 0x40 MSTORE POP DUP2 ADD SWAP1 PUSH2 0x1D95 SWAP2 SWAP1 PUSH2 0x3479 JUMP JUMPDEST DUP5 PUSH2 0x1DA0 SWAP2 SWAP1 PUSH2 0x30C7 JUMP JUMPDEST PUSH2 0x1DAA SWAP2 SWAP1 PUSH2 0x30C7 JUMP JUMPDEST PUSH2 0x1DB4 SWAP2 SWAP1 PUSH2 0x3135 JUMP JUMPDEST SWAP3 POP POP POP JUMPDEST SWAP2 SWAP1 POP JUMP JUMPDEST PUSH1 0xC SLOAD DUP2 JUMP JUMPDEST PUSH1 0x5 PUSH0 SWAP1 SLOAD SWAP1 PUSH2 0x100 EXP SWAP1 DIV PUSH20 0xFFFFFFFFFFFFFFFFFFFFFFFFFFFFFFFFFFFFFFFF AND DUP2 JUMP JUMPDEST PUSH0 PUSH1 0x2 SWAP1 SLOAD SWAP1 PUSH2 0x100 EXP SWAP1 DIV PUSH20 0xFFFFFFFFFFFFFFFFFFFFFFFFFFFFFFFFFFFFFFFF AND DUP2 JUMP JUMPDEST PUSH0 PUSH1 0xB SLOAD PUSH2 0x1E1B DUP4 PUSH2 0x1B47 JUMP JUMPDEST LT SWAP1 POP SWAP2 SWAP1 POP JUMP JUMPDEST PUSH1 0xD SLOAD DUP2 JUMP JUMPDEST PUSH1 0xF SLOAD NUMBER SUB ISZERO PUSH2 0x1EA6 JUMPI PUSH0 PUSH1 0x13 SLOAD GT ISZERO PUSH2 0x1E96 JUMPI PUSH0 PUSH1 0xF SLOAD NUMBER PUSH2 0x1E4C SWAP2 SWAP1 PUSH2 0x3165 JUMP JUMPDEST SWAP1 POP PUSH0 PUSH1 0xD SLOAD DUP3 PUSH1 0xC SLOAD PUSH2 0x1E60 SWAP2 SWAP1 PUSH2 0x30C7 JUMP JUMPDEST PUSH2 0x1E6A SWAP2 SWAP1 PUSH2 0x3135 JUMP JUMPDEST SWAP1 POP PUSH8 0xDE0B6B3A7640000 DUP2 PUSH1 0x10 SLOAD PUSH2 0x1E83 SWAP2 SWAP1 PUSH2 0x30C7 JUMP JUMPDEST PUSH2 0x1E8D SWAP2 SWAP1 PUSH2 0x3135 JUMP JUMPDEST PUSH1 0x10 DUP2 SWAP1 SSTORE POP POP POP JUMPDEST NUMBER PUSH1 0xF SLOAD PUSH2 0x1EA4 SWAP2 SWAP1 PUSH2 0x3165 JUMP JUMPDEST POP JUMPDEST JUMP JUMPDEST PUSH1 0x10 SLOAD DUP2 JUMP JUMPDEST PUSH0 PUSH0 SWAP1 SLOAD SWAP1 PUSH2 0x100 EXP SWAP1 DIV PUSH1 0xFF AND ISZERO DUP1 PUSH2 0x1ED3 JUMPI POP PUSH0 PUSH1 0x1 SWAP1 SLOAD SWAP1 PUSH2 0x100 EXP SWAP1 DIV PUSH1 0xFF AND JUMPDEST PUSH2 0x1F12 JUMPI PUSH1 0x40 MLOAD PUSH32 0x8C379A000000000000000000000000000000000000000000000000000000000 DUP2 MSTORE PUSH1 0x4 ADD PUSH2 0x1F09 SWAP1 PUSH2 0x34EE JUMP JUMPDEST PUSH1 0x40 MLOAD DUP1 SWAP2 SUB SWAP1 REVERT JUMPDEST PUSH0 PUSH0 PUSH1 0x1 SWAP1 SLOAD SWAP1 PUSH2 0x100 EXP SWAP1 DIV PUSH1 0xFF AND ISZERO SWAP1 POP DUP1 ISZERO PUSH2 0x1F5F JUMPI PUSH1 0x1 PUSH0 PUSH1 0x1 PUSH2 0x100 EXP DUP2 SLOAD DUP2 PUSH1 0xFF MUL NOT AND SWAP1 DUP4 ISZERO ISZERO MUL OR SWAP1 SSTORE POP PUSH1 0x1 PUSH0 PUSH0 PUSH2 0x100 EXP DUP2 SLOAD DUP2 PUSH1 0xFF MUL NOT AND SWAP1 DUP4 ISZERO ISZERO MUL OR SWAP1 SSTORE POP JUMPDEST PUSH0 PUSH20 0xFFFFFFFFFFFFFFFFFFFFFFFFFFFFFFFFFFFFFFFF AND DUP7 PUSH1 0xC0 ADD PUSH1 0x20 DUP2 ADD SWAP1 PUSH2 0x1F89 SWAP2 SWAP1 PUSH2 0x2C57 JUMP JUMPDEST PUSH20 0xFFFFFFFFFFFFFFFFFFFFFFFFFFFFFFFFFFFFFFFF AND SUB PUSH2 0x1FA8 JUMPI PUSH0 PUSH0 REVERT JUMPDEST PUSH0 PUSH20 0xFFFFFFFFFFFFFFFFFFFFFFFFFFFFFFFFFFFFFFFF AND DUP7 PUSH1 0x60 ADD PUSH1 0x20 DUP2 ADD SWAP1 PUSH2 0x1FD2 SWAP2 SWAP1 PUSH2 0x2C57 JUMP JUMPDEST PUSH20 0xFFFFFFFFFFFFFFFFFFFFFFFFFFFFFFFFFFFFFFFF AND SUB PUSH2 0x1FF1 JUMPI PUSH0 PUSH0 REVERT JUMPDEST PUSH0 PUSH20 0xFFFFFFFFFFFFFFFFFFFFFFFFFFFFFFFFFFFFFFFF AND DUP7 PUSH1 0x80 ADD PUSH1 0x20 DUP2 ADD SWAP1 PUSH2 0x201B SWAP2 SWAP1 PUSH2 0x2C57 JUMP JUMPDEST PUSH20 0xFFFFFFFFFFFFFFFFFFFFFFFFFFFFFFFFFFFFFFFF AND SUB PUSH2 0x203A JUMPI PUSH0 PUSH0 REVERT JUMPDEST PUSH0 PUSH20 0xFFFFFFFFFFFFFFFFFFFFFFFFFFFFFFFFFFFFFFFF AND DUP7 PUSH1 0xA0 ADD PUSH1 0x20 DUP2 ADD SWAP1 PUSH2 0x2064 SWAP2 SWAP1 PUSH2 0x2C57 JUMP JUMPDEST PUSH20 0xFFFFFFFFFFFFFFFFFFFFFFFFFFFFFFFFFFFFFFFF AND SUB PUSH2 0x2083 JUMPI PUSH0 PUSH0 REVERT JUMPDEST PUSH0 PUSH1 0xD SLOAD GT PUSH2 0x2090 JUMPI PUSH0 PUSH0 REVERT JUMPDEST PUSH2 0x2710 DUP7 PUSH2 0x140 ADD CALLDATALOAD GT ISZERO PUSH2 0x20A3 JUMPI PUSH0 PUSH0 REVERT JUMPDEST PUSH3 0x186A0 DUP7 PUSH1 0xE0 ADD CALLDATALOAD GT ISZERO PUSH2 0x20B6 JUMPI PUSH0 PUSH0 REVERT JUMPDEST PUSH2 0x20D0 DUP7 PUSH0 ADD PUSH1 0x20 DUP2 ADD SWAP1 PUSH2 0x20CB SWAP2 SWAP1 PUSH2 0x2C57 JUMP JUMPDEST PUSH2 0x2A55 JUMP JUMPDEST DUP5 DUP5 PUSH1 0x6 SWAP2 DUP3 PUSH2 0x20E1 SWAP3 SWAP2 SWAP1 PUSH2 0x36DA JUMP JUMPDEST POP DUP3 DUP3 PUSH1 0x7 SWAP2 DUP3 PUSH2 0x20F3 SWAP3 SWAP2 SWAP1 PUSH2 0x36DA JUMP JUMPDEST POP DUP6 PUSH1 0x60 ADD PUSH1 0x20 DUP2 ADD SWAP1 PUSH2 0x2107 SWAP2 SWAP1 PUSH2 0x2C57 JUMP JUMPDEST PUSH1 0x3 PUSH0 PUSH2 0x100 EXP DUP2 SLOAD DUP2 PUSH20 0xFFFFFFFFFFFFFFFFFFFFFFFFFFFFFFFFFFFFFFFF MUL NOT AND SWAP1 DUP4 PUSH20 0xFFFFFFFFFFFFFFFFFFFFFFFFFFFFFFFFFFFFFFFF AND MUL OR SWAP1 SSTORE POP DUP6 PUSH1 0x80 ADD PUSH1 0x20 DUP2 ADD SWAP1 PUSH2 0x2159 SWAP2 SWAP1 PUSH2 0x2C57 JUMP JUMPDEST PUSH1 0x4 PUSH0 PUSH2 0x100 EXP DUP2 SLOAD DUP2 PUSH20 0xFFFFFFFFFFFFFFFFFFFFFFFFFFFFFFFFFFFFFFFF MUL NOT AND SWAP1 DUP4 PUSH20 0xFFFFFFFFFFFFFFFFFFFFFFFFFFFFFFFFFFFFFFFF AND MUL OR SWAP1 SSTORE POP DUP6 PUSH1 0xA0 ADD PUSH1 0x20 DUP2 ADD SWAP1 PUSH2 0x21AB SWAP2 SWAP1 PUSH2 0x2C57 JUMP JUMPDEST PUSH1 0x5 PUSH0 PUSH2 0x100 EXP DUP2 SLOAD DUP2 PUSH20 0xFFFFFFFFFFFFFFFFFFFFFFFFFFFFFFFFFFFFFFFF MUL NOT AND SWAP1 DUP4 PUSH20 0xFFFFFFFFFFFFFFFFFFFFFFFFFFFFFFFFFFFFFFFF AND MUL OR SWAP1 SSTORE POP DUP6 PUSH1 0xC0 ADD PUSH1 0x20 DUP2 ADD SWAP1 PUSH2 0x21FD SWAP2 SWAP1 PUSH2 0x2C57 JUMP JUMPDEST PUSH1 0x9 PUSH0 PUSH2 0x100 EXP DUP2 SLOAD DUP2 PUSH20 0xFFFFFFFFFFFFFFFFFFFFFFFFFFFFFFFFFFFFFFFF MUL NOT AND SWAP1 DUP4 PUSH20 0xFFFFFFFFFFFFFFFFFFFFFFFFFFFFFFFFFFFFFFFF AND MUL OR SWAP1 SSTORE POP DUP6 PUSH1 0x40 ADD PUSH1 0x20 DUP2 ADD SWAP1 PUSH2 0x224F SWAP2 SWAP1 PUSH2 0x2C57 JUMP JUMPDEST PUSH1 0xA PUSH0 PUSH2 0x100 EXP DUP2 SLOAD DUP2 PUSH20 0xFFFFFFFFFFFFFFFFFFFFFFFFFFFFFFFFFFFFFFFF MUL NOT AND SWAP1 DUP4 PUSH20 0xFFFFFFFFFFFFFFFFFFFFFFFFFFFFFFFFFFFFFFFF AND MUL OR SWAP1 SSTORE POP DUP6 PUSH1 0x20 ADD PUSH1 0x20 DUP2 ADD SWAP1 PUSH2 0x22A1 SWAP2 SWAP1 PUSH2 0x2C57 JUMP JUMPDEST PUSH1 0x8 PUSH0 PUSH2 0x100 EXP DUP2 SLOAD DUP2 PUSH20 0xFFFFFFFFFFFFFFFFFFFFFFFFFFFFFFFFFFFFFFFF MUL NOT AND SWAP1 DUP4 PUSH20 0xFFFFFFFFFFFFFFFFFFFFFFFFFFFFFFFFFFFFFFFF AND MUL OR SWAP1 SSTORE POP DUP6 PUSH1 0xE0 ADD CALLDATALOAD PUSH1 0xB DUP2 SWAP1 SSTORE POP NUMBER PUSH1 0xF DUP2 SWAP1 SSTORE POP DUP6 PUSH2 0x120 ADD CALLDATALOAD PUSH1 0xD DUP2 SWAP1 SSTORE POP DUP6 PUSH2 0x100 ADD CALLDATALOAD PUSH1 0xC DUP2 SWAP1 SSTORE POP PUSH8 0xDE0B6B3A7640000 PUSH1 0x10 DUP2 SWAP1 SSTORE POP DUP6 PUSH2 0x140 ADD CALLDATALOAD PUSH1 0xE DUP2 SWAP1 SSTORE POP PUSH2 0x7530 PUSH1 0x11 DUP2 SWAP1 SSTORE POP DUP1 ISZERO PUSH2 0x234E JUMPI PUSH0 PUSH0 PUSH1 0x1 PUSH2 0x100 EXP DUP2 SLOAD DUP2 PUSH1 0xFF MUL NOT AND SWAP1 DUP4 ISZERO ISZERO MUL OR SWAP1 SSTORE POP JUMPDEST POP POP POP POP POP POP JUMP JUMPDEST PUSH1 0x4 PUSH0 SWAP1 SLOAD SWAP1 PUSH2 0x100 EXP SWAP1 DIV PUSH20 0xFFFFFFFFFFFFFFFFFFFFFFFFFFFFFFFFFFFFFFFF AND DUP2 JUMP JUMPDEST PUSH1 0xB SLOAD DUP2 JUMP JUMPDEST PUSH0 DUP2 GT PUSH2 0x238C JUMPI PUSH0 PUSH0 REVERT JUMPDEST PUSH2 0x2394 PUSH2 0x1E29 JUMP JUMPDEST PUSH2 0x239C PUSH2 0x19BE JUMP JUMPDEST DUP2 GT ISZERO PUSH2 0x23A7 JUMPI PUSH0 PUSH0 REVERT JUMPDEST PUSH0 PUSH1 0x2 PUSH0 CALLER PUSH20 0xFFFFFFFFFFFFFFFFFFFFFFFFFFFFFFFFFFFFFFFF AND PUSH20 0xFFFFFFFFFFFFFFFFFFFFFFFFFFFFFFFFFFFFFFFF AND DUP2 MSTORE PUSH1 0x20 ADD SWAP1 DUP2 MSTORE PUSH1 0x20 ADD PUSH0 KECCAK256 SWAP1 POP PUSH0 PUSH2 0x23F1 DUP4 PUSH2 0xA2E JUMP JUMPDEST SWAP1 POP DUP1 DUP3 PUSH1 0x1 ADD PUSH0 DUP3 DUP3 SLOAD PUSH2 0x2406 SWAP2 SWAP1 PUSH2 0x336D JUMP JUMPDEST SWAP3 POP POP DUP2 SWAP1 SSTORE POP DUP1 DUP3 PUSH1 0x2 ADD PUSH0 DUP3 DUP3 SLOAD PUSH2 0x2420 SWAP2 SWAP1 PUSH2 0x336D JUMP JUMPDEST SWAP3 POP POP DUP2 SWAP1 SSTORE POP DUP1 PUSH1 0x13 PUSH0 DUP3 DUP3 SLOAD PUSH2 0x2438 SWAP2 SWAP1 PUSH2 0x336D JUMP JUMPDEST SWAP3 POP POP DUP2 SWAP1 SSTORE POP PUSH2 0x2448 CALLER PUSH2 0x1E0E JUMP JUMPDEST PUSH2 0x2450 JUMPI PUSH0 PUSH0 REVERT JUMPDEST PUSH1 0x3 PUSH0 SWAP1 SLOAD SWAP1 PUSH2 0x100 EXP SWAP1 DIV PUSH20 0xFFFFFFFFFFFFFFFFFFFFFFFFFFFFFFFFFFFFFFFF AND PUSH20 0xFFFFFFFFFFFFFFFFFFFFFFFFFFFFFFFFFFFFFFFF AND PUSH4 0xA9059CBB CALLER DUP6 PUSH1 0x40 MLOAD DUP4 PUSH4 0xFFFFFFFF AND PUSH1 0xE0 SHL DUP2 MSTORE PUSH1 0x4 ADD PUSH2 0x24AC SWAP3 SWAP2 SWAP1 PUSH2 0x3198 JUMP JUMPDEST PUSH1 0x20 PUSH1 0x40 MLOAD DUP1 DUP4 SUB DUP2 PUSH0 DUP8 GAS CALL ISZERO DUP1 ISZERO PUSH2 0x24C8 JUMPI RETURNDATASIZE PUSH0 PUSH0 RETURNDATACOPY RETURNDATASIZE PUSH0 REVERT JUMPDEST POP POP POP POP PUSH1 0x40 MLOAD RETURNDATASIZE PUSH1 0x1F NOT PUSH1 0x1F DUP3 ADD AND DUP3 ADD DUP1 PUSH1 0x40 MSTORE POP DUP2 ADD SWAP1 PUSH2 0x24EC SWAP2 SWAP1 PUSH2 0x31E9 JUMP JUMPDEST POP PUSH1 0x1 CALLER SWAP1 DUP1 PUSH1 0x1 DUP2 SLOAD ADD DUP1 DUP3 SSTORE DUP1 SWAP2 POP POP PUSH1 0x1 SWAP1 SUB SWAP1 PUSH0 MSTORE PUSH1 0x20 PUSH0 KECCAK256 ADD PUSH0 SWAP1 SWAP2 SWAP1 SWAP2 SWAP1 SWAP2 PUSH2 0x100 EXP DUP2 SLOAD DUP2 PUSH20 0xFFFFFFFFFFFFFFFFFFFFFFFFFFFFFFFFFFFFFFFF MUL NOT AND SWAP1 DUP4 PUSH20 0xFFFFFFFFFFFFFFFFFFFFFFFFFFFFFFFFFFFFFFFF AND MUL OR SWAP1 SSTORE POP POP POP POP JUMP JUMPDEST PUSH0 PUSH2 0x255B PUSH2 0x2850 JUMP JUMPDEST PUSH2 0x2563 PUSH2 0x19BE JUMP JUMPDEST PUSH2 0x256D SWAP2 SWAP1 PUSH2 0x336D JUMP JUMPDEST SWAP1 POP SWAP1 JUMP JUMPDEST PUSH0 PUSH1 0x2 SWAP1 SLOAD SWAP1 PUSH2 0x100 EXP SWAP1 DIV PUSH20 0xFFFFFFFFFFFFFFFFFFFFFFFFFFFFFFFFFFFFFFFF AND PUSH20 0xFFFFFFFFFFFFFFFFFFFFFFFFFFFFFFFFFFFFFFFF AND CALLER PUSH20 0xFFFFFFFFFFFFFFFFFFFFFFFFFFFFFFFFFFFFFFFF AND EQ PUSH2 0x25CA JUMPI PUSH0 PUSH0 REVERT JUMPDEST PUSH2 0x2710 DUP4 GT ISZERO PUSH2 0x25D8 JUMPI PUSH0 PUSH0 REVERT JUMPDEST PUSH2 0x2710 DUP4 GT ISZERO PUSH2 0x25E6 JUMPI PUSH0 PUSH0 REVERT JUMPDEST DUP3 PUSH1 0xB DUP2 SWAP1 SSTORE POP DUP2 PUSH1 0xC DUP2 SWAP1 SSTORE POP DUP1 PUSH1 0xE DUP2 SWAP1 SSTORE POP POP POP POP JUMP JUMPDEST PUSH0 PUSH0 PUSH20 0xFFFFFFFFFFFFFFFFFFFFFFFFFFFFFFFFFFFFFFFF AND DUP3 PUSH20 0xFFFFFFFFFFFFFFFFFFFFFFFFFFFFFFFFFFFFFFFF AND SUB PUSH2 0x2638 JUMPI PUSH0 PUSH0 REVERT JUMPDEST PUSH0 PUSH1 0x2 PUSH0 DUP5 PUSH20 0xFFFFFFFFFFFFFFFFFFFFFFFFFFFFFFFFFFFFFFFF AND PUSH20 0xFFFFFFFFFFFFFFFFFFFFFFFFFFFFFFFFFFFFFFFF AND DUP2 MSTORE PUSH1 0x20 ADD SWAP1 DUP2 MSTORE PUSH1 0x20 ADD PUSH0 KECCAK256 PUSH1 0x1 ADD SLOAD SWAP1 POP PUSH0 DUP2 EQ PUSH2 0x26AE JUMPI PUSH8 0xDE0B6B3A7640000 PUSH2 0x2694 PUSH2 0x2ACF JUMP JUMPDEST DUP3 PUSH2 0x269F SWAP2 SWAP1 PUSH2 0x30C7 JUMP JUMPDEST PUSH2 0x26A9 SWAP2 SWAP1 PUSH2 0x3135 JUMP JUMPDEST PUSH2 0x26B0 JUMP JUMPDEST PUSH0 JUMPDEST SWAP2 POP POP SWAP2 SWAP1 POP JUMP JUMPDEST PUSH0 PUSH1 0x2 SWAP1 SLOAD SWAP1 PUSH2 0x100 EXP SWAP1 DIV PUSH20 0xFFFFFFFFFFFFFFFFFFFFFFFFFFFFFFFFFFFFFFFF AND PUSH20 0xFFFFFFFFFFFFFFFFFFFFFFFFFFFFFFFFFFFFFFFF AND CALLER PUSH20 0xFFFFFFFFFFFFFFFFFFFFFFFFFFFFFFFFFFFFFFFF AND EQ PUSH2 0x2710 JUMPI PUSH0 PUSH0 REVERT JUMPDEST PUSH0 PUSH20 0xFFFFFFFFFFFFFFFFFFFFFFFFFFFFFFFFFFFFFFFF AND DUP2 PUSH20 0xFFFFFFFFFFFFFFFFFFFFFFFFFFFFFFFFFFFFFFFF AND SUB PUSH2 0x2747 JUMPI PUSH0 PUSH0 REVERT JUMPDEST DUP1 PUSH0 PUSH1 0x2 PUSH2 0x100 EXP DUP2 SLOAD DUP2 PUSH20 0xFFFFFFFFFFFFFFFFFFFFFFFFFFFFFFFFFFFFFFFF MUL NOT AND SWAP1 DUP4 PUSH20 0xFFFFFFFFFFFFFFFFFFFFFFFFFFFFFFFFFFFFFFFF AND MUL OR SWAP1 SSTORE POP POP JUMP JUMPDEST PUSH1 0x12 SLOAD DUP2 JUMP JUMPDEST PUSH0 PUSH1 0x2 SWAP1 SLOAD SWAP1 PUSH2 0x100 EXP SWAP1 DIV PUSH20 0xFFFFFFFFFFFFFFFFFFFFFFFFFFFFFFFFFFFFFFFF AND PUSH20 0xFFFFFFFFFFFFFFFFFFFFFFFFFFFFFFFFFFFFFFFF AND CALLER PUSH20 0xFFFFFFFFFFFFFFFFFFFFFFFFFFFFFFFFFFFFFFFF AND EQ PUSH2 0x27E8 JUMPI PUSH0 PUSH0 REVERT JUMPDEST DUP1 PUSH1 0xA PUSH0 PUSH2 0x100 EXP DUP2 SLOAD DUP2 PUSH20 0xFFFFFFFFFFFFFFFFFFFFFFFFFFFFFFFFFFFFFFFF MUL NOT AND SWAP1 DUP4 PUSH20 0xFFFFFFFFFFFFFFFFFFFFFFFFFFFFFFFFFFFFFFFF AND MUL OR SWAP1 SSTORE POP POP JUMP JUMPDEST PUSH1 0x9 PUSH0 SWAP1 SLOAD SWAP1 PUSH2 0x100 EXP SWAP1 DIV PUSH20 0xFFFFFFFFFFFFFFFFFFFFFFFFFFFFFFFFFFFFFFFF AND DUP2 JUMP JUMPDEST PUSH0 PUSH0 PUSH1 0x13 SLOAD EQ PUSH2 0x2887 JUMPI PUSH8 0xDE0B6B3A7640000 PUSH2 0x286B PUSH2 0x2ACF JUMP JUMPDEST PUSH1 0x13 SLOAD PUSH2 0x2878 SWAP2 SWAP1 PUSH2 0x30C7 JUMP JUMPDEST PUSH2 0x2882 SWAP2 SWAP1 PUSH2 0x3135 JUMP JUMPDEST PUSH2 0x2889 JUMP JUMPDEST PUSH0 JUMPDEST SWAP1 POP SWAP1 JUMP JUMPDEST PUSH0 PUSH0 PUSH32 0x360894A13BA1A3210667C828492DB98DCA3E2076CC3735A920A3CA505D382BBC PUSH0 SHL SWAP1 POP DUP1 SLOAD SWAP2 POP POP SWAP1 JUMP JUMPDEST PUSH0 PUSH1 0x2 SWAP1 SLOAD SWAP1 PUSH2 0x100 EXP SWAP1 DIV PUSH20 0xFFFFFFFFFFFFFFFFFFFFFFFFFFFFFFFFFFFFFFFF AND PUSH20 0xFFFFFFFFFFFFFFFFFFFFFFFFFFFFFFFFFFFFFFFF AND CALLER PUSH20 0xFFFFFFFFFFFFFFFFFFFFFFFFFFFFFFFFFFFFFFFF AND EQ PUSH2 0x2915 JUMPI PUSH0 PUSH0 REVERT JUMPDEST POP JUMP JUMPDEST PUSH0 PUSH20 0xFFFFFFFFFFFFFFFFFFFFFFFFFFFFFFFFFFFFFFFF AND DUP4 PUSH20 0xFFFFFFFFFFFFFFFFFFFFFFFFFFFFFFFFFFFFFFFF AND SUB PUSH2 0x2986 JUMPI PUSH1 0x40 MLOAD PUSH32 0x8C379A000000000000000000000000000000000000000000000000000000000 DUP2 MSTORE PUSH1 0x4 ADD PUSH2 0x297D SWAP1 PUSH2 0x37F1 JUMP JUMPDEST PUSH1 0x40 MLOAD DUP1 SWAP2 SUB SWAP1 REVERT JUMPDEST PUSH2 0x298F DUP4 PUSH2 0x2B42 JUMP JUMPDEST DUP1 DUP1 PUSH2 0x299B JUMPI POP PUSH0 DUP3 MLOAD GT JUMPDEST ISZERO PUSH2 0x2A50 JUMPI PUSH0 PUSH0 DUP5 PUSH20 0xFFFFFFFFFFFFFFFFFFFFFFFFFFFFFFFFFFFFFFFF AND DUP5 PUSH1 0x40 MLOAD PUSH2 0x29C7 SWAP2 SWAP1 PUSH2 0x3853 JUMP JUMPDEST PUSH0 PUSH1 0x40 MLOAD DUP1 DUP4 SUB DUP2 DUP6 GAS DELEGATECALL SWAP2 POP POP RETURNDATASIZE DUP1 PUSH0 DUP2 EQ PUSH2 0x29FF JUMPI PUSH1 0x40 MLOAD SWAP2 POP PUSH1 0x1F NOT PUSH1 0x3F RETURNDATASIZE ADD AND DUP3 ADD PUSH1 0x40 MSTORE RETURNDATASIZE DUP3 MSTORE RETURNDATASIZE PUSH0 PUSH1 0x20 DUP5 ADD RETURNDATACOPY PUSH2 0x2A04 JUMP JUMPDEST PUSH1 0x60 SWAP2 POP JUMPDEST POP SWAP2 POP SWAP2 POP DUP2 DUP2 SWAP1 PUSH2 0x2A4C JUMPI PUSH1 0x40 MLOAD PUSH32 0x8C379A000000000000000000000000000000000000000000000000000000000 DUP2 MSTORE PUSH1 0x4 ADD PUSH2 0x2A43 SWAP2 SWAP1 PUSH2 0x2D8E JUMP JUMPDEST PUSH1 0x40 MLOAD DUP1 SWAP2 SUB SWAP1 REVERT JUMPDEST POP POP POP JUMPDEST POP POP POP JUMP JUMPDEST PUSH0 PUSH20 0xFFFFFFFFFFFFFFFFFFFFFFFFFFFFFFFFFFFFFFFF AND DUP2 PUSH20 0xFFFFFFFFFFFFFFFFFFFFFFFFFFFFFFFFFFFFFFFF AND SUB PUSH2 0x2A8C JUMPI PUSH0 PUSH0 REVERT JUMPDEST DUP1 PUSH0 PUSH1 0x2 PUSH2 0x100 EXP DUP2 SLOAD DUP2 PUSH20 0xFFFFFFFFFFFFFFFFFFFFFFFFFFFFFFFFFFFFFFFF MUL NOT AND SWAP1 DUP4 PUSH20 0xFFFFFFFFFFFFFFFFFFFFFFFFFFFFFFFFFFFFFFFF AND MUL OR SWAP1 SSTORE POP POP JUMP JUMPDEST PUSH0 PUSH1 0x10 SLOAD SWAP1 POP PUSH1 0xF SLOAD NUMBER EQ DUP1 ISZERO PUSH2 0x2AE7 JUMPI POP PUSH0 PUSH1 0x13 SLOAD GT JUMPDEST ISZERO PUSH2 0x2B3F JUMPI PUSH0 PUSH1 0xF SLOAD NUMBER PUSH2 0x2AFB SWAP2 SWAP1 PUSH2 0x3165 JUMP JUMPDEST SWAP1 POP PUSH0 PUSH1 0xD SLOAD DUP3 PUSH1 0xC SLOAD PUSH2 0x2B0F SWAP2 SWAP1 PUSH2 0x30C7 JUMP JUMPDEST PUSH2 0x2B19 SWAP2 SWAP1 PUSH2 0x3135 JUMP JUMPDEST SWAP1 POP PUSH8 0xDE0B6B3A7640000 DUP2 DUP5 PUSH2 0x2B30 SWAP2 SWAP1 PUSH2 0x30C7 JUMP JUMPDEST PUSH2 0x2B3A SWAP2 SWAP1 PUSH2 0x3135 JUMP JUMPDEST SWAP3 POP POP POP JUMPDEST SWAP1 JUMP JUMPDEST PUSH0 PUSH32 0x360894A13BA1A3210667C828492DB98DCA3E2076CC3735A920A3CA505D382BBC PUSH0 SHL SWAP1 POP DUP2 DUP2 SSTORE POP POP JUMP JUMPDEST PUSH0 PUSH0 REVERT JUMPDEST PUSH0 PUSH0 REVERT JUMPDEST PUSH0 DUP2 SWAP1 POP SWAP2 SWAP1 POP JUMP JUMPDEST PUSH2 0x2B89 DUP2 PUSH2 0x2B77 JUMP JUMPDEST DUP2 EQ PUSH2 0x2B93 JUMPI PUSH0 PUSH0 REVERT JUMPDEST POP JUMP JUMPDEST PUSH0 DUP2 CALLDATALOAD SWAP1 POP PUSH2 0x2BA4 DUP2 PUSH2 0x2B80 JUMP JUMPDEST SWAP3 SWAP2 POP POP JUMP JUMPDEST PUSH0 PUSH1 0x20 DUP3 DUP5 SUB SLT ISZERO PUSH2 0x2BBF JUMPI PUSH2 0x2BBE PUSH2 0x2B6F JUMP JUMPDEST JUMPDEST PUSH0 PUSH2 0x2BCC DUP5 DUP3 DUP6 ADD PUSH2 0x2B96 JUMP JUMPDEST SWAP2 POP POP SWAP3 SWAP2 POP POP JUMP JUMPDEST PUSH2 0x2BDE DUP2 PUSH2 0x2B77 JUMP JUMPDEST DUP3 MSTORE POP POP JUMP JUMPDEST PUSH0 PUSH1 0x20 DUP3 ADD SWAP1 POP PUSH2 0x2BF7 PUSH0 DUP4 ADD DUP5 PUSH2 0x2BD5 JUMP JUMPDEST SWAP3 SWAP2 POP POP JUMP JUMPDEST PUSH0 PUSH20 0xFFFFFFFFFFFFFFFFFFFFFFFFFFFFFFFFFFFFFFFF DUP3 AND SWAP1 POP SWAP2 SWAP1 POP JUMP JUMPDEST PUSH0 PUSH2 0x2C26 DUP3 PUSH2 0x2BFD JUMP JUMPDEST SWAP1 POP SWAP2 SWAP1 POP JUMP JUMPDEST PUSH2 0x2C36 DUP2 PUSH2 0x2C1C JUMP JUMPDEST DUP2 EQ PUSH2 0x2C40 JUMPI PUSH0 PUSH0 REVERT JUMPDEST POP JUMP JUMPDEST PUSH0 DUP2 CALLDATALOAD SWAP1 POP PUSH2 0x2C51 DUP2 PUSH2 0x2C2D JUMP JUMPDEST SWAP3 SWAP2 POP POP JUMP JUMPDEST PUSH0 PUSH1 0x20 DUP3 DUP5 SUB SLT ISZERO PUSH2 0x2C6C JUMPI PUSH2 0x2C6B PUSH2 0x2B6F JUMP JUMPDEST JUMPDEST PUSH0 PUSH2 0x2C79 DUP5 DUP3 DUP6 ADD PUSH2 0x2C43 JUMP JUMPDEST SWAP2 POP POP SWAP3 SWAP2 POP POP JUMP JUMPDEST PUSH0 DUP2 SWAP1 POP SWAP2 SWAP1 POP JUMP JUMPDEST PUSH0 PUSH2 0x2CA5 PUSH2 0x2CA0 PUSH2 0x2C9B DUP5 PUSH2 0x2BFD JUMP JUMPDEST PUSH2 0x2C82 JUMP JUMPDEST PUSH2 0x2BFD JUMP JUMPDEST SWAP1 POP SWAP2 SWAP1 POP JUMP JUMPDEST PUSH0 PUSH2 0x2CB6 DUP3 PUSH2 0x2C8B JUMP JUMPDEST SWAP1 POP SWAP2 SWAP1 POP JUMP JUMPDEST PUSH0 PUSH2 0x2CC7 DUP3 PUSH2 0x2CAC JUMP JUMPDEST SWAP1 POP SWAP2 SWAP1 POP JUMP JUMPDEST PUSH2 0x2CD7 DUP2 PUSH2 0x2CBD JUMP JUMPDEST DUP3 MSTORE POP POP JUMP JUMPDEST PUSH0 PUSH1 0x20 DUP3 ADD SWAP1 POP PUSH2 0x2CF0 PUSH0 DUP4 ADD DUP5 PUSH2 0x2CCE JUMP JUMPDEST SWAP3 SWAP2 POP POP JUMP JUMPDEST PUSH2 0x2CFF DUP2 PUSH2 0x2C1C JUMP JUMPDEST DUP3 MSTORE POP POP JUMP JUMPDEST PUSH0 PUSH1 0x20 DUP3 ADD SWAP1 POP PUSH2 0x2D18 PUSH0 DUP4 ADD DUP5 PUSH2 0x2CF6 JUMP JUMPDEST SWAP3 SWAP2 POP POP JUMP JUMPDEST PUSH0 DUP2 MLOAD SWAP1 POP SWAP2 SWAP1 POP JUMP JUMPDEST PUSH0 DUP3 DUP3 MSTORE PUSH1 0x20 DUP3 ADD SWAP1 POP SWAP3 SWAP2 POP POP JUMP JUMPDEST DUP3 DUP2 DUP4 MCOPY PUSH0 DUP4 DUP4 ADD MSTORE POP POP POP JUMP JUMPDEST PUSH0 PUSH1 0x1F NOT PUSH1 0x1F DUP4 ADD AND SWAP1 POP SWAP2 SWAP1 POP JUMP JUMPDEST PUSH0 PUSH2 0x2D60 DUP3 PUSH2 0x2D1E JUMP JUMPDEST PUSH2 0x2D6A DUP2 DUP6 PUSH2 0x2D28 JUMP JUMPDEST SWAP4 POP PUSH2 0x2D7A DUP2 DUP6 PUSH1 0x20 DUP7 ADD PUSH2 0x2D38 JUMP JUMPDEST PUSH2 0x2D83 DUP2 PUSH2 0x2D46 JUMP JUMPDEST DUP5 ADD SWAP2 POP POP SWAP3 SWAP2 POP POP JUMP JUMPDEST PUSH0 PUSH1 0x20 DUP3 ADD SWAP1 POP DUP2 DUP2 SUB PUSH0 DUP4 ADD MSTORE PUSH2 0x2DA6 DUP2 DUP5 PUSH2 0x2D56 JUMP JUMPDEST SWAP1 POP SWAP3 SWAP2 POP POP JUMP JUMPDEST PUSH0 PUSH0 REVERT JUMPDEST PUSH0 PUSH0 REVERT JUMPDEST PUSH0 PUSH0 REVERT JUMPDEST PUSH0 PUSH0 DUP4 PUSH1 0x1F DUP5 ADD SLT PUSH2 0x2DCF JUMPI PUSH2 0x2DCE PUSH2 0x2DAE JUMP JUMPDEST JUMPDEST DUP3 CALLDATALOAD SWAP1 POP PUSH8 0xFFFFFFFFFFFFFFFF DUP2 GT ISZERO PUSH2 0x2DEC JUMPI PUSH2 0x2DEB PUSH2 0x2DB2 JUMP JUMPDEST JUMPDEST PUSH1 0x20 DUP4 ADD SWAP2 POP DUP4 PUSH1 0x1 DUP3 MUL DUP4 ADD GT ISZERO PUSH2 0x2E08 JUMPI PUSH2 0x2E07 PUSH2 0x2DB6 JUMP JUMPDEST JUMPDEST SWAP3 POP SWAP3 SWAP1 POP JUMP JUMPDEST PUSH0 PUSH0 PUSH0 PUSH1 0x40 DUP5 DUP7 SUB SLT ISZERO PUSH2 0x2E26 JUMPI PUSH2 0x2E25 PUSH2 0x2B6F JUMP JUMPDEST JUMPDEST PUSH0 PUSH2 0x2E33 DUP7 DUP3 DUP8 ADD PUSH2 0x2C43 JUMP JUMPDEST SWAP4 POP POP PUSH1 0x20 DUP5 ADD CALLDATALOAD PUSH8 0xFFFFFFFFFFFFFFFF DUP2 GT ISZERO PUSH2 0x2E54 JUMPI PUSH2 0x2E53 PUSH2 0x2B73 JUMP JUMPDEST JUMPDEST PUSH2 0x2E60 DUP7 DUP3 DUP8 ADD PUSH2 0x2DBA JUMP JUMPDEST SWAP3 POP SWAP3 POP POP SWAP3 POP SWAP3 POP SWAP3 JUMP JUMPDEST PUSH0 DUP2 SWAP1 POP SWAP2 SWAP1 POP JUMP JUMPDEST PUSH2 0x2E7E DUP2 PUSH2 0x2E6C JUMP JUMPDEST DUP3 MSTORE POP POP JUMP JUMPDEST PUSH0 PUSH1 0x20 DUP3 ADD SWAP1 POP PUSH2 0x2E97 PUSH0 DUP4 ADD DUP5 PUSH2 0x2E75 JUMP JUMPDEST SWAP3 SWAP2 POP POP JUMP JUMPDEST PUSH0 PUSH1 0x60 DUP3 ADD SWAP1 POP PUSH2 0x2EB0 PUSH0 DUP4 ADD DUP7 PUSH2 0x2BD5 JUMP JUMPDEST PUSH2 0x2EBD PUSH1 0x20 DUP4 ADD DUP6 PUSH2 0x2BD5 JUMP JUMPDEST PUSH2 0x2ECA PUSH1 0x40 DUP4 ADD DUP5 PUSH2 0x2BD5 JUMP JUMPDEST SWAP5 SWAP4 POP POP POP POP JUMP JUMPDEST PUSH0 PUSH2 0x2EDC DUP3 PUSH2 0x2CAC JUMP JUMPDEST SWAP1 POP SWAP2 SWAP1 POP JUMP JUMPDEST PUSH2 0x2EEC DUP2 PUSH2 0x2ED2 JUMP JUMPDEST DUP3 MSTORE POP POP JUMP JUMPDEST PUSH0 PUSH1 0x20 DUP3 ADD SWAP1 POP PUSH2 0x2F05 PUSH0 DUP4 ADD DUP5 PUSH2 0x2EE3 JUMP JUMPDEST SWAP3 SWAP2 POP POP JUMP JUMPDEST PUSH0 DUP2 ISZERO ISZERO SWAP1 POP SWAP2 SWAP1 POP JUMP JUMPDEST PUSH2 0x2F1F DUP2 PUSH2 0x2F0B JUMP JUMPDEST DUP3 MSTORE POP POP JUMP JUMPDEST PUSH0 PUSH1 0x20 DUP3 ADD SWAP1 POP PUSH2 0x2F38 PUSH0 DUP4 ADD DUP5 PUSH2 0x2F16 JUMP JUMPDEST SWAP3 SWAP2 POP POP JUMP JUMPDEST PUSH0 PUSH0 REVERT JUMPDEST PUSH0 PUSH2 0x160 DUP3 DUP5 SUB SLT ISZERO PUSH2 0x2F58 JUMPI PUSH2 0x2F57 PUSH2 0x2F3E JUMP JUMPDEST JUMPDEST DUP2 SWAP1 POP SWAP3 SWAP2 POP POP JUMP JUMPDEST PUSH0 PUSH0 DUP4 PUSH1 0x1F DUP5 ADD SLT PUSH2 0x2F76 JUMPI PUSH2 0x2F75 PUSH2 0x2DAE JUMP JUMPDEST JUMPDEST DUP3 CALLDATALOAD SWAP1 POP PUSH8 0xFFFFFFFFFFFFFFFF DUP2 GT ISZERO PUSH2 0x2F93 JUMPI PUSH2 0x2F92 PUSH2 0x2DB2 JUMP JUMPDEST JUMPDEST PUSH1 0x20 DUP4 ADD SWAP2 POP DUP4 PUSH1 0x1 DUP3 MUL DUP4 ADD GT ISZERO PUSH2 0x2FAF JUMPI PUSH2 0x2FAE PUSH2 0x2DB6 JUMP JUMPDEST JUMPDEST SWAP3 POP SWAP3 SWAP1 POP JUMP JUMPDEST PUSH0 PUSH0 PUSH0 PUSH0 PUSH0 PUSH2 0x1A0 DUP7 DUP9 SUB SLT ISZERO PUSH2 0x2FD0 JUMPI PUSH2 0x2FCF PUSH2 0x2B6F JUMP JUMPDEST JUMPDEST PUSH0 PUSH2 0x2FDD DUP9 DUP3 DUP10 ADD PUSH2 0x2F42 JUMP JUMPDEST SWAP6 POP POP PUSH2 0x160 DUP7 ADD CALLDATALOAD PUSH8 0xFFFFFFFFFFFFFFFF DUP2 GT ISZERO PUSH2 0x2FFF JUMPI PUSH2 0x2FFE PUSH2 0x2B73 JUMP JUMPDEST JUMPDEST PUSH2 0x300B DUP9 DUP3 DUP10 ADD PUSH2 0x2F61 JUMP JUMPDEST SWAP5 POP SWAP5 POP POP PUSH2 0x180 DUP7 ADD CALLDATALOAD PUSH8 0xFFFFFFFFFFFFFFFF DUP2 GT ISZERO PUSH2 0x302F JUMPI PUSH2 0x302E PUSH2 0x2B73 JUMP JUMPDEST JUMPDEST PUSH2 0x303B DUP9 DUP3 DUP10 ADD PUSH2 0x2F61 JUMP JUMPDEST SWAP3 POP SWAP3 POP POP SWAP3 SWAP6 POP SWAP3 SWAP6 SWAP1 SWAP4 POP JUMP JUMPDEST PUSH0 PUSH0 PUSH0 PUSH1 0x60 DUP5 DUP7 SUB SLT ISZERO PUSH2 0x3061 JUMPI PUSH2 0x3060 PUSH2 0x2B6F JUMP JUMPDEST JUMPDEST PUSH0 PUSH2 0x306E DUP7 DUP3 DUP8 ADD PUSH2 0x2B96 JUMP JUMPDEST SWAP4 POP POP PUSH1 0x20 PUSH2 0x307F DUP7 DUP3 DUP8 ADD PUSH2 0x2B96 JUMP JUMPDEST SWAP3 POP POP PUSH1 0x40 PUSH2 0x3090 DUP7 DUP3 DUP8 ADD PUSH2 0x2B96 JUMP JUMPDEST SWAP2 POP POP SWAP3 POP SWAP3 POP SWAP3 JUMP JUMPDEST PUSH32 0x4E487B7100000000000000000000000000000000000000000000000000000000 PUSH0 MSTORE PUSH1 0x11 PUSH1 0x4 MSTORE PUSH1 0x24 PUSH0 REVERT JUMPDEST PUSH0 PUSH2 0x30D1 DUP3 PUSH2 0x2B77 JUMP JUMPDEST SWAP2 POP PUSH2 0x30DC DUP4 PUSH2 0x2B77 JUMP JUMPDEST SWAP3 POP DUP3 DUP3 MUL PUSH2 0x30EA DUP2 PUSH2 0x2B77 JUMP JUMPDEST SWAP2 POP DUP3 DUP3 DIV DUP5 EQ DUP4 ISZERO OR PUSH2 0x3101 JUMPI PUSH2 0x3100 PUSH2 0x309A JUMP JUMPDEST JUMPDEST POP SWAP3 SWAP2 POP POP JUMP JUMPDEST PUSH32 0x4E487B7100000000000000000000000000000000000000000000000000000000 PUSH0 MSTORE PUSH1 0x12 PUSH1 0x4 MSTORE PUSH1 0x24 PUSH0 REVERT JUMPDEST PUSH0 PUSH2 0x313F DUP3 PUSH2 0x2B77 JUMP JUMPDEST SWAP2 POP PUSH2 0x314A DUP4 PUSH2 0x2B77 JUMP JUMPDEST SWAP3 POP DUP3 PUSH2 0x315A JUMPI PUSH2 0x3159 PUSH2 0x3108 JUMP JUMPDEST JUMPDEST DUP3 DUP3 DIV SWAP1 POP SWAP3 SWAP2 POP POP JUMP JUMPDEST PUSH0 PUSH2 0x316F DUP3 PUSH2 0x2B77 JUMP JUMPDEST SWAP2 POP PUSH2 0x317A DUP4 PUSH2 0x2B77 JUMP JUMPDEST SWAP3 POP DUP3 DUP3 SUB SWAP1 POP DUP2 DUP2 GT ISZERO PUSH2 0x3192 JUMPI PUSH2 0x3191 PUSH2 0x309A JUMP JUMPDEST JUMPDEST SWAP3 SWAP2 POP POP JUMP JUMPDEST PUSH0 PUSH1 0x40 DUP3 ADD SWAP1 POP PUSH2 0x31AB PUSH0 DUP4 ADD DUP6 PUSH2 0x2CF6 JUMP JUMPDEST PUSH2 0x31B8 PUSH1 0x20 DUP4 ADD DUP5 PUSH2 0x2BD5 JUMP JUMPDEST SWAP4 SWAP3 POP POP POP JUMP JUMPDEST PUSH2 0x31C8 DUP2 PUSH2 0x2F0B JUMP JUMPDEST DUP2 EQ PUSH2 0x31D2 JUMPI PUSH0 PUSH0 REVERT JUMPDEST POP JUMP JUMPDEST PUSH0 DUP2 MLOAD SWAP1 POP PUSH2 0x31E3 DUP2 PUSH2 0x31BF JUMP JUMPDEST SWAP3 SWAP2 POP POP JUMP JUMPDEST PUSH0 PUSH1 0x20 DUP3 DUP5 SUB SLT ISZERO PUSH2 0x31FE JUMPI PUSH2 0x31FD PUSH2 0x2B6F JUMP JUMPDEST JUMPDEST PUSH0 PUSH2 0x320B DUP5 DUP3 DUP6 ADD PUSH2 0x31D5 JUMP JUMPDEST SWAP2 POP POP SWAP3 SWAP2 POP POP JUMP JUMPDEST PUSH32 0x4E487B7100000000000000000000000000000000000000000000000000000000 PUSH0 MSTORE PUSH1 0x31 PUSH1 0x4 MSTORE PUSH1 0x24 PUSH0 REVERT JUMPDEST PUSH0 PUSH1 0x40 DUP3 ADD SWAP1 POP PUSH2 0x3254 PUSH0 DUP4 ADD DUP6 PUSH2 0x2BD5 JUMP JUMPDEST PUSH2 0x3261 PUSH1 0x20 DUP4 ADD DUP5 PUSH2 0x2BD5 JUMP JUMPDEST SWAP4 SWAP3 POP POP POP JUMP JUMPDEST PUSH32 0x4E4F545F44454C454741544543414C4C00000000000000000000000000000000 PUSH0 DUP3 ADD MSTORE POP JUMP JUMPDEST PUSH0 PUSH2 0x329C PUSH1 0x10 DUP4 PUSH2 0x2D28 JUMP JUMPDEST SWAP2 POP PUSH2 0x32A7 DUP3 PUSH2 0x3268 JUMP JUMPDEST PUSH1 0x20 DUP3 ADD SWAP1 POP SWAP2 SWAP1 POP JUMP JUMPDEST PUSH0 PUSH1 0x20 DUP3 ADD SWAP1 POP DUP2 DUP2 SUB PUSH0 DUP4 ADD MSTORE PUSH2 0x32C9 DUP2 PUSH2 0x3290 JUMP JUMPDEST SWAP1 POP SWAP2 SWAP1 POP JUMP JUMPDEST PUSH32 0x494E4143544956455F50524F5859000000000000000000000000000000000000 PUSH0 DUP3 ADD MSTORE POP JUMP JUMPDEST PUSH0 PUSH2 0x3304 PUSH1 0xE DUP4 PUSH2 0x2D28 JUMP JUMPDEST SWAP2 POP PUSH2 0x330F DUP3 PUSH2 0x32D0 JUMP JUMPDEST PUSH1 0x20 DUP3 ADD SWAP1 POP SWAP2 SWAP1 POP JUMP JUMPDEST PUSH0 PUSH1 0x20 DUP3 ADD SWAP1 POP DUP2 DUP2 SUB PUSH0 DUP4 ADD MSTORE PUSH2 0x3331 DUP2 PUSH2 0x32F8 JUMP JUMPDEST SWAP1 POP SWAP2 SWAP1 POP JUMP JUMPDEST PUSH0 PUSH1 0x60 DUP3 ADD SWAP1 POP PUSH2 0x334B PUSH0 DUP4 ADD DUP7 PUSH2 0x2CF6 JUMP JUMPDEST PUSH2 0x3358 PUSH1 0x20 DUP4 ADD DUP6 PUSH2 0x2CF6 JUMP JUMPDEST PUSH2 0x3365 PUSH1 0x40 DUP4 ADD DUP5 PUSH2 0x2BD5 JUMP JUMPDEST SWAP5 SWAP4 POP POP POP POP JUMP JUMPDEST PUSH0 PUSH2 0x3377 DUP3 PUSH2 0x2B77 JUMP JUMPDEST SWAP2 POP PUSH2 0x3382 DUP4 PUSH2 0x2B77 JUMP JUMPDEST SWAP3 POP DUP3 DUP3 ADD SWAP1 POP DUP1 DUP3 GT ISZERO PUSH2 0x339A JUMPI PUSH2 0x3399 PUSH2 0x309A JUMP JUMPDEST JUMPDEST SWAP3 SWAP2 POP POP JUMP JUMPDEST PUSH32 0x4E487B7100000000000000000000000000000000000000000000000000000000 PUSH0 MSTORE PUSH1 0x22 PUSH1 0x4 MSTORE PUSH1 0x24 PUSH0 REVERT JUMPDEST PUSH0 PUSH1 0x2 DUP3 DIV SWAP1 POP PUSH1 0x1 DUP3 AND DUP1 PUSH2 0x33E4 JUMPI PUSH1 0x7F DUP3 AND SWAP2 POP JUMPDEST PUSH1 0x20 DUP3 LT DUP2 SUB PUSH2 0x33F7 JUMPI PUSH2 0x33F6 PUSH2 0x33A0 JUMP JUMPDEST JUMPDEST POP SWAP2 SWAP1 POP JUMP JUMPDEST PUSH32 0x4F4E4C595F494D504C454D454E544154494F4E00000000000000000000000000 PUSH0 DUP3 ADD MSTORE POP JUMP JUMPDEST PUSH0 PUSH2 0x3431 PUSH1 0x13 DUP4 PUSH2 0x2D28 JUMP JUMPDEST SWAP2 POP PUSH2 0x343C DUP3 PUSH2 0x33FD JUMP JUMPDEST PUSH1 0x20 DUP3 ADD SWAP1 POP SWAP2 SWAP1 POP JUMP JUMPDEST PUSH0 PUSH1 0x20 DUP3 ADD SWAP1 POP DUP2 DUP2 SUB PUSH0 DUP4 ADD MSTORE PUSH2 0x345E DUP2 PUSH2 0x3425 JUMP JUMPDEST SWAP1 POP SWAP2 SWAP1 POP JUMP JUMPDEST PUSH0 DUP2 MLOAD SWAP1 POP PUSH2 0x3473 DUP2 PUSH2 0x2B80 JUMP JUMPDEST SWAP3 SWAP2 POP POP JUMP JUMPDEST PUSH0 PUSH1 0x20 DUP3 DUP5 SUB SLT ISZERO PUSH2 0x348E JUMPI PUSH2 0x348D PUSH2 0x2B6F JUMP JUMPDEST JUMPDEST PUSH0 PUSH2 0x349B DUP5 DUP3 DUP6 ADD PUSH2 0x3465 JUMP JUMPDEST SWAP2 POP POP SWAP3 SWAP2 POP POP JUMP JUMPDEST PUSH32 0x414C52454144595F494E495449414C495A454400000000000000000000000000 PUSH0 DUP3 ADD MSTORE POP JUMP JUMPDEST PUSH0 PUSH2 0x34D8 PUSH1 0x13 DUP4 PUSH2 0x2D28 JUMP JUMPDEST SWAP2 POP PUSH2 0x34E3 DUP3 PUSH2 0x34A4 JUMP JUMPDEST PUSH1 0x20 DUP3 ADD SWAP1 POP SWAP2 SWAP1 POP JUMP JUMPDEST PUSH0 PUSH1 0x20 DUP3 ADD SWAP1 POP DUP2 DUP2 SUB PUSH0 DUP4 ADD MSTORE PUSH2 0x3505 DUP2 PUSH2 0x34CC JUMP JUMPDEST SWAP1 POP SWAP2 SWAP1 POP JUMP JUMPDEST PUSH0 DUP3 SWAP1 POP SWAP3 SWAP2 POP POP JUMP JUMPDEST PUSH32 0x4E487B7100000000000000000000000000000000000000000000000000000000 PUSH0 MSTORE PUSH1 0x41 PUSH1 0x4 MSTORE PUSH1 0x24 PUSH0 REVERT JUMPDEST PUSH0 DUP2 SWAP1 POP DUP2 PUSH0 MSTORE PUSH1 0x20 PUSH0 KECCAK256 SWAP1 POP SWAP2 SWAP1 POP JUMP JUMPDEST PUSH0 PUSH1 0x20 PUSH1 0x1F DUP4 ADD DIV SWAP1 POP SWAP2 SWAP1 POP JUMP JUMPDEST PUSH0 DUP3 DUP3 SHL SWAP1 POP SWAP3 SWAP2 POP POP JUMP JUMPDEST PUSH0 PUSH1 0x8 DUP4 MUL PUSH2 0x359F PUSH32 0xFFFFFFFFFFFFFFFFFFFFFFFFFFFFFFFFFFFFFFFFFFFFFFFFFFFFFFFFFFFFFFFF DUP3 PUSH2 0x3564 JUMP JUMPDEST PUSH2 0x35A9 DUP7 DUP4 PUSH2 0x3564 JUMP JUMPDEST SWAP6 POP DUP1 NOT DUP5 AND SWAP4 POP DUP1 DUP7 AND DUP5 OR SWAP3 POP POP POP SWAP4 SWAP3 POP POP POP JUMP JUMPDEST PUSH0 PUSH2 0x35DB PUSH2 0x35D6 PUSH2 0x35D1 DUP5 PUSH2 0x2B77 JUMP JUMPDEST PUSH2 0x2C82 JUMP JUMPDEST PUSH2 0x2B77 JUMP JUMPDEST SWAP1 POP SWAP2 SWAP1 POP JUMP JUMPDEST PUSH0 DUP2 SWAP1 POP SWAP2 SWAP1 POP JUMP JUMPDEST PUSH2 0x35F4 DUP4 PUSH2 0x35C1 JUMP JUMPDEST PUSH2 0x3608 PUSH2 0x3600 DUP3 PUSH2 0x35E2 JUMP JUMPDEST DUP5 DUP5 SLOAD PUSH2 0x3570 JUMP JUMPDEST DUP3 SSTORE POP POP POP POP JUMP JUMPDEST PUSH0 PUSH0 SWAP1 POP SWAP1 JUMP JUMPDEST PUSH2 0x361F PUSH2 0x3610 JUMP JUMPDEST PUSH2 0x362A DUP2 DUP5 DUP5 PUSH2 0x35EB JUMP JUMPDEST POP POP POP JUMP JUMPDEST JUMPDEST DUP2 DUP2 LT ISZERO PUSH2 0x364D JUMPI PUSH2 0x3642 PUSH0 DUP3 PUSH2 0x3617 JUMP JUMPDEST PUSH1 0x1 DUP2 ADD SWAP1 POP PUSH2 0x3630 JUMP JUMPDEST POP POP JUMP JUMPDEST PUSH1 0x1F DUP3 GT ISZERO PUSH2 0x3692 JUMPI PUSH2 0x3663 DUP2 PUSH2 0x3543 JUMP JUMPDEST PUSH2 0x366C DUP5 PUSH2 0x3555 JUMP JUMPDEST DUP2 ADD PUSH1 0x20 DUP6 LT ISZERO PUSH2 0x367B JUMPI DUP2 SWAP1 POP JUMPDEST PUSH2 0x368F PUSH2 0x3687 DUP6 PUSH2 0x3555 JUMP JUMPDEST DUP4 ADD DUP3 PUSH2 0x362F JUMP JUMPDEST POP POP JUMPDEST POP POP POP JUMP JUMPDEST PUSH0 DUP3 DUP3 SHR SWAP1 POP SWAP3 SWAP2 POP POP JUMP JUMPDEST PUSH0 PUSH2 0x36B2 PUSH0 NOT DUP5 PUSH1 0x8 MUL PUSH2 0x3697 JUMP JUMPDEST NOT DUP1 DUP4 AND SWAP2 POP POP SWAP3 SWAP2 POP POP JUMP JUMPDEST PUSH0 PUSH2 0x36CA DUP4 DUP4 PUSH2 0x36A3 JUMP JUMPDEST SWAP2 POP DUP3 PUSH1 0x2 MUL DUP3 OR SWAP1 POP SWAP3 SWAP2 POP POP JUMP JUMPDEST PUSH2 0x36E4 DUP4 DUP4 PUSH2 0x350C JUMP JUMPDEST PUSH8 0xFFFFFFFFFFFFFFFF DUP2 GT ISZERO PUSH2 0x36FD JUMPI PUSH2 0x36FC PUSH2 0x3516 JUMP JUMPDEST JUMPDEST PUSH2 0x3707 DUP3 SLOAD PUSH2 0x33CD JUMP JUMPDEST PUSH2 0x3712 DUP3 DUP3 DUP6 PUSH2 0x3651 JUMP JUMPDEST PUSH0 PUSH1 0x1F DUP4 GT PUSH1 0x1 DUP2 EQ PUSH2 0x373F JUMPI PUSH0 DUP5 ISZERO PUSH2 0x372D JUMPI DUP3 DUP8 ADD CALLDATALOAD SWAP1 POP JUMPDEST PUSH2 0x3737 DUP6 DUP3 PUSH2 0x36BF JUMP JUMPDEST DUP7 SSTORE POP PUSH2 0x379E JUMP JUMPDEST PUSH1 0x1F NOT DUP5 AND PUSH2 0x374D DUP7 PUSH2 0x3543 JUMP JUMPDEST PUSH0 JUMPDEST DUP3 DUP2 LT ISZERO PUSH2 0x3774 JUMPI DUP5 DUP10 ADD CALLDATALOAD DUP3 SSTORE PUSH1 0x1 DUP3 ADD SWAP2 POP PUSH1 0x20 DUP6 ADD SWAP5 POP PUSH1 0x20 DUP2 ADD SWAP1 POP PUSH2 0x374F JUMP JUMPDEST DUP7 DUP4 LT ISZERO PUSH2 0x3791 JUMPI DUP5 DUP10 ADD CALLDATALOAD PUSH2 0x378D PUSH1 0x1F DUP10 AND DUP3 PUSH2 0x36A3 JUMP JUMPDEST DUP4 SSTORE POP JUMPDEST PUSH1 0x1 PUSH1 0x2 DUP9 MUL ADD DUP9 SSTORE POP POP POP JUMPDEST POP POP POP POP POP POP POP JUMP JUMPDEST PUSH32 0x5A45524F5F494D504C0000000000000000000000000000000000000000000000 PUSH0 DUP3 ADD MSTORE POP JUMP JUMPDEST PUSH0 PUSH2 0x37DB PUSH1 0x9 DUP4 PUSH2 0x2D28 JUMP JUMPDEST SWAP2 POP PUSH2 0x37E6 DUP3 PUSH2 0x37A7 JUMP JUMPDEST PUSH1 0x20 DUP3 ADD SWAP1 POP SWAP2 SWAP1 POP JUMP JUMPDEST PUSH0 PUSH1 0x20 DUP3 ADD SWAP1 POP DUP2 DUP2 SUB PUSH0 DUP4 ADD MSTORE PUSH2 0x3808 DUP2 PUSH2 0x37CF JUMP JUMPDEST SWAP1 POP SWAP2 SWAP1 POP JUMP JUMPDEST PUSH0 DUP2 MLOAD SWAP1 POP SWAP2 SWAP1 POP JUMP JUMPDEST PUSH0 DUP2 SWAP1 POP SWAP3 SWAP2 POP POP JUMP JUMPDEST PUSH0 PUSH2 0x382D DUP3 PUSH2 0x380F JUMP JUMPDEST PUSH2 0x3837 DUP2 DUP6 PUSH2 0x3819 JUMP JUMPDEST SWAP4 POP PUSH2 0x3847 DUP2 DUP6 PUSH1 0x20 DUP7 ADD PUSH2 0x2D38 JUMP JUMPDEST DUP1 DUP5 ADD SWAP2 POP POP SWAP3 SWAP2 POP POP JUMP JUMPDEST PUSH0 PUSH2 0x385E DUP3 DUP5 PUSH2 0x3823 JUMP JUMPDEST SWAP2 POP DUP2 SWAP1 POP SWAP3 SWAP2 POP POP JUMP INVALID LOG2 PUSH5 0x6970667358 0x22 SLT KECCAK256 SWAP16 SWAP12 PUSH23 0xE7DBB05CA5E23A210353B82C7656002B9EB98468D00D9B 0x23 GT 0xDA 0xEB 0xA5 MOD PUSH5 0x736F6C6343 STOP ADDMOD 0x1E STOP CALLER "
				},
				"gasEstimates": {
					"creation": {
						"codeDepositCost": "2899000",
						"executionCost": "infinite",
						"totalCost": "infinite"
					},
					"external": {
						"INDEX_SCALE()": "371",
						"_isHealthy(address)": "infinite",
						"_sharesForBorrowAmount(uint256)": "infinite",
						"accrueInterest()": "infinite",
						"assetManage()": "infinite",
						"availableLiquidity()": "infinite",
						"blocksPerYear()": "2536",
						"borrow(uint256)": "infinite",
						"borrowIndex()": "2580",
						"borrowers(uint256)": "5034",
						"collateralToken()": "infinite",
						"currentLltvBps(address)": "infinite",
						"debtOf(address)": "infinite",
						"healthFactor(address)": "infinite",
						"initialize((address,address,address,address,address,address,address,uint256,uint256,uint256,uint256),string,string)": "infinite",
						"interestRate()": "2559",
						"lastAccrueBlock()": "2493",
						"liquidate(address)": "infinite",
						"liquidationBonusBps()": "2560",
						"liquidator()": "2598",
						"lltvBps()": "2514",
						"loanToken()": "infinite",
						"onVaultDeposit(uint256)": "2704",
						"onVaultWithdraw(uint256)": "infinite",
						"oracle()": "infinite",
						"owner()": "2625",
						"ownershipTransfer(address)": "27084",
						"positions(address)": "infinite",
						"protocolFeeBps()": "2537",
						"protocolReserves()": "2513",
						"proxiableUUID()": "infinite",
						"repay(uint256)": "infinite",
						"setLiquidator(address)": "27003",
						"setRiskParams(uint256,uint256,uint256)": "infinite",
						"setTreasury(address)": "27044",
						"shareName()": "infinite",
						"supplyCollateral(uint256)": "infinite",
						"title()": "infinite",
						"totalBorrowShares()": "2538",
						"totalDebt()": "infinite",
						"treasury()": "2641",
						"upgradeTo(address)": "infinite",
						"upgradeToAndCall(address,bytes)": "infinite",
						"vault()": "2640",
						"withdrawCollateral(uint256)": "infinite"
					},
					"internal": {
						"_authorizeUpgrade(address)": "2230",
						"_projectedBorrowIndex()": "infinite"
					}
				},
				"methodIdentifiers": {
					"INDEX_SCALE()": "27776ab5",
					"_isHealthy(address)": "a03b3c95",
					"_sharesForBorrowAmount(uint256)": "00249b44",
					"accrueInterest()": "a6afed95",
					"assetManage()": "c82f6d2f",
					"availableLiquidity()": "74375359",
					"blocksPerYear()": "a385fb96",
					"borrow(uint256)": "c5ebeaec",
					"borrowIndex()": "aa5af0fd",
					"borrowers(uint256)": "7924d93f",
					"collateralToken()": "b2016bd4",
					"currentLltvBps(address)": "79f057a2",
					"debtOf(address)": "d283e75f",
					"healthFactor(address)": "6ad9f9df",
					"initialize((address,address,address,address,address,address,address,uint256,uint256,uint256,uint256),string,string)": "b1c0be34",
					"interestRate()": "7c3a00fd",
					"lastAccrueBlock()": "29962904",
					"liquidate(address)": "2f865568",
					"liquidationBonusBps()": "19970d8e",
					"liquidator()": "4046ebae",
					"lltvBps()": "b3604c96",
					"loanToken()": "06d37817",
					"onVaultDeposit(uint256)": "4b92917a",
					"onVaultWithdraw(uint256)": "3e3722b6",
					"oracle()": "7dc0d1d0",
					"owner()": "8da5cb5b",
					"ownershipTransfer(address)": "d3a417a2",
					"positions(address)": "55f57510",
					"protocolFeeBps()": "35659fb8",
					"protocolReserves()": "d681a449",
					"proxiableUUID()": "52d1902d",
					"repay(uint256)": "371fd8e6",
					"setLiquidator(address)": "01c76f81",
					"setRiskParams(uint256,uint256,uint256)": "ced65b01",
					"setTreasury(address)": "f0f44260",
					"shareName()": "76e9790a",
					"supplyCollateral(uint256)": "367febea",
					"title()": "4a79d50c",
					"totalBorrowShares()": "136cf1f7",
					"totalDebt()": "fc7b9c18",
					"treasury()": "61d027b3",
					"upgradeTo(address)": "3659cfe6",
					"upgradeToAndCall(address,bytes)": "4f1ef286",
					"vault()": "fbfa77cf",
					"withdrawCollateral(uint256)": "6112fe2e"
				}
			},
			"storageLayout": {
				"storage": [
					{
						"astId": 1464,
						"contract": "protocol/Market.sol:Market",
						"label": "_initialized",
						"offset": 0,
						"slot": "0",
						"type": "t_bool"
					},
					{
						"astId": 1467,
						"contract": "protocol/Market.sol:Market",
						"label": "_initializing",
						"offset": 1,
						"slot": "0",
						"type": "t_bool"
					},
					{
						"astId": 7,
						"contract": "protocol/Market.sol:Market",
						"label": "owner",
						"offset": 2,
						"slot": "0",
						"type": "t_address"
					},
					{
						"astId": 194,
						"contract": "protocol/Market.sol:Market",
						"label": "borrowers",
						"offset": 0,
						"slot": "1",
						"type": "t_array(t_address)dyn_storage"
					},
					{
						"astId": 229,
						"contract": "protocol/Market.sol:Market",
						"label": "positions",
						"offset": 0,
						"slot": "2",
						"type": "t_mapping(t_address,t_struct(Position)201_storage)"
					},
					{
						"astId": 269,
						"contract": "protocol/Market.sol:Market",
						"label": "loanToken",
						"offset": 0,
						"slot": "3",
						"type": "t_contract(IERC20)137"
					},
					{
						"astId": 272,
						"contract": "protocol/Market.sol:Market",
						"label": "collateralToken",
						"offset": 0,
						"slot": "4",
						"type": "t_contract(IERC20)137"
					},
					{
						"astId": 275,
						"contract": "protocol/Market.sol:Market",
						"label": "oracle",
						"offset": 0,
						"slot": "5",
						"type": "t_contract(IOracle)170"
					},
					{
						"astId": 277,
						"contract": "protocol/Market.sol:Market",
						"label": "title",
						"offset": 0,
						"slot": "6",
						"type": "t_string_storage"
					},
					{
						"astId": 279,
						"contract": "protocol/Market.sol:Market",
						"label": "shareName",
						"offset": 0,
						"slot": "7",
						"type": "t_string_storage"
					},
					{
						"astId": 281,
						"contract": "protocol/Market.sol:Market",
						"label": "liquidator",
						"offset": 0,
						"slot": "8",
						"type": "t_address"
					},
					{
						"astId": 283,
						"contract": "protocol/Market.sol:Market",
						"label": "vault",
						"offset": 0,
						"slot": "9",
						"type": "t_address"
					},
					{
						"astId": 285,
						"contract": "protocol/Market.sol:Market",
						"label": "treasury",
						"offset": 0,
						"slot": "10",
						"type": "t_address"
					},
					{
						"astId": 287,
						"contract": "protocol/Market.sol:Market",
						"label": "lltvBps",
						"offset": 0,
						"slot": "11",
						"type": "t_uint256"
					},
					{
						"astId": 289,
						"contract": "protocol/Market.sol:Market",
						"label": "interestRate",
						"offset": 0,
						"slot": "12",
						"type": "t_uint256"
					},
					{
						"astId": 291,
						"contract": "protocol/Market.sol:Market",
						"label": "blocksPerYear",
						"offset": 0,
						"slot": "13",
						"type": "t_uint256"
					},
					{
						"astId": 293,
						"contract": "protocol/Market.sol:Market",
						"label": "liquidationBonusBps",
						"offset": 0,
						"slot": "14",
						"type": "t_uint256"
					},
					{
						"astId": 295,
						"contract": "protocol/Market.sol:Market",
						"label": "lastAccrueBlock",
						"offset": 0,
						"slot": "15",
						"type": "t_uint256"
					},
					{
						"astId": 297,
						"contract": "protocol/Market.sol:Market",
						"label": "borrowIndex",
						"offset": 0,
						"slot": "16",
						"type": "t_uint256"
					},
					{
						"astId": 299,
						"contract": "protocol/Market.sol:Market",
						"label": "protocolFeeBps",
						"offset": 0,
						"slot": "17",
						"type": "t_uint256"
					},
					{
						"astId": 301,
						"contract": "protocol/Market.sol:Market",
						"label": "protocolReserves",
						"offset": 0,
						"slot": "18",
						"type": "t_uint256"
					},
					{
						"astId": 303,
						"contract": "protocol/Market.sol:Market",
						"label": "totalBorrowShares",
						"offset": 0,
						"slot": "19",
						"type": "t_uint256"
					}
				],
				"types": {
					"t_address": {
						"encoding": "inplace",
						"label": "address",
						"numberOfBytes": "20"
					},
					"t_array(t_address)dyn_storage": {
						"base": "t_address",
						"encoding": "dynamic_array",
						"label": "address[]",
						"numberOfBytes": "32"
					},
					"t_bool": {
						"encoding": "inplace",
						"label": "bool",
						"numberOfBytes": "1"
					},
					"t_contract(IERC20)137": {
						"encoding": "inplace",
						"label": "contract IERC20",
						"numberOfBytes": "20"
					},
					"t_contract(IOracle)170": {
						"encoding": "inplace",
						"label": "contract IOracle",
						"numberOfBytes": "20"
					},
					"t_mapping(t_address,t_struct(Position)201_storage)": {
						"encoding": "mapping",
						"key": "t_address",
						"label": "mapping(address => struct Market.Position)",
						"numberOfBytes": "32",
						"value": "t_struct(Position)201_storage"
					},
					"t_string_storage": {
						"encoding": "bytes",
						"label": "string",
						"numberOfBytes": "32"
					},
					"t_struct(Position)201_storage": {
						"encoding": "inplace",
						"label": "struct Market.Position",
						"members": [
							{
								"astId": 196,
								"contract": "protocol/Market.sol:Market",
								"label": "collateralShares",
								"offset": 0,
								"slot": "0",
								"type": "t_uint256"
							},
							{
								"astId": 198,
								"contract": "protocol/Market.sol:Market",
								"label": "borrowShares",
								"offset": 0,
								"slot": "1",
								"type": "t_uint256"
							},
							{
								"astId": 200,
								"contract": "protocol/Market.sol:Market",
								"label": "principal",
								"offset": 0,
								"slot": "2",
								"type": "t_uint256"
							}
						],
						"numberOfBytes": "96"
					},
					"t_uint256": {
						"encoding": "inplace",
						"label": "uint256",
						"numberOfBytes": "32"
					}
				}
			},
			"userdoc": {
				"kind": "user",
				"methods": {
					"proxiableUUID()": {
						"notice": "UUID UUPS-слота по EIP-1822."
					},
					"upgradeTo(address)": {
						"notice": "Обновить implementation."
					},
					"upgradeToAndCall(address,bytes)": {
						"notice": "Обновить implementation и сразу вызвать migration-хук."
					}
				},
				"version": 1
			}
		}
	}
}