{
	"contracts/protocol/Market.sol": {
		"Market": {
			"abi": [
				{
					"anonymous": false,
					"inputs": [
						{
							"indexed": true,
							"internalType": "address",
							"name": "borrower",
							"type": "address"
						},
						{
							"indexed": true,
							"internalType": "address",
							"name": "liquidator_",
							"type": "address"
						},
						{
							"indexed": false,
							"internalType": "uint256",
							"name": "debt",
							"type": "uint256"
						},
						{
							"indexed": false,
							"internalType": "uint256",
							"name": "rewardCollateral",
							"type": "uint256"
						}
					],
					"name": "Liquidated",
					"type": "event"
				},
				{
					"inputs": [],
					"name": "INDEX_SCALE",
					"outputs": [
						{
							"internalType": "uint256",
							"name": "",
							"type": "uint256"
						}
					],
					"stateMutability": "view",
					"type": "function"
				},
				{
					"inputs": [],
					"name": "accrueInterest",
					"outputs": [],
					"stateMutability": "nonpayable",
					"type": "function"
				},
				{
					"inputs": [],
					"name": "assetManage",
					"outputs": [
						{
							"internalType": "uint256",
							"name": "",
							"type": "uint256"
						}
					],
					"stateMutability": "view",
					"type": "function"
				},
				{
					"inputs": [],
					"name": "availableLiquidity",
					"outputs": [
						{
							"internalType": "uint256",
							"name": "",
							"type": "uint256"
						}
					],
					"stateMutability": "view",
					"type": "function"
				},
				{
					"inputs": [],
					"name": "blocksPerYear",
					"outputs": [
						{
							"internalType": "uint256",
							"name": "",
							"type": "uint256"
						}
					],
					"stateMutability": "view",
					"type": "function"
				},
				{
					"inputs": [
						{
							"internalType": "uint256",
							"name": "amount",
							"type": "uint256"
						}
					],
					"name": "borrow",
					"outputs": [],
					"stateMutability": "nonpayable",
					"type": "function"
				},
				{
					"inputs": [],
					"name": "borrowIndex",
					"outputs": [
						{
							"internalType": "uint256",
							"name": "",
							"type": "uint256"
						}
					],
					"stateMutability": "view",
					"type": "function"
				},
				{
					"inputs": [],
					"name": "collateralToken",
					"outputs": [
						{
							"internalType": "contract IERC20",
							"name": "",
							"type": "address"
						}
					],
					"stateMutability": "view",
					"type": "function"
				},
				{
					"inputs": [
						{
							"internalType": "address",
							"name": "borrower",
							"type": "address"
						}
					],
					"name": "currentLtvBps",
					"outputs": [
						{
							"internalType": "uint256",
							"name": "",
							"type": "uint256"
						}
					],
					"stateMutability": "view",
					"type": "function"
				},
				{
					"inputs": [
						{
							"internalType": "address",
							"name": "borrower",
							"type": "address"
						}
					],
					"name": "debtOf",
					"outputs": [
						{
							"internalType": "uint256",
							"name": "",
							"type": "uint256"
						}
					],
					"stateMutability": "view",
					"type": "function"
				},
				{
					"inputs": [
						{
							"internalType": "address",
							"name": "borrower",
							"type": "address"
						}
					],
					"name": "healthFactor",
					"outputs": [
						{
							"internalType": "uint256",
							"name": "",
							"type": "uint256"
						}
					],
					"stateMutability": "view",
					"type": "function"
				},
				{
					"inputs": [
						{
							"components": [
								{
									"internalType": "address",
									"name": "owner",
									"type": "address"
								},
								{
									"internalType": "address",
									"name": "vault",
									"type": "address"
								},
								{
									"internalType": "address",
									"name": "loanToken",
									"type": "address"
								},
								{
									"internalType": "address",
									"name": "collateralToken",
									"type": "address"
								},
								{
									"internalType": "address",
									"name": "oracle",
									"type": "address"
								},
								{
									"internalType": "address",
									"name": "treasury",
									"type": "address"
								},
								{
									"internalType": "address",
									"name": "liquidator",
									"type": "address"
								},
								{
									"internalType": "uint256",
									"name": "lltvBps",
									"type": "uint256"
								},
								{
									"internalType": "uint256",
									"name": "interestRate",
									"type": "uint256"
								},
								{
									"internalType": "uint256",
									"name": "blocksPerYear",
									"type": "uint256"
								},
								{
									"internalType": "uint256",
									"name": "liquidationBonusBps",
									"type": "uint256"
								}
							],
							"internalType": "struct Market.InitParams",
							"name": "p",
							"type": "tuple"
						},
						{
							"internalType": "string",
							"name": "title_",
							"type": "string"
						},
						{
							"internalType": "string",
							"name": "shareName_",
							"type": "string"
						}
					],
					"name": "initialize",
					"outputs": [],
					"stateMutability": "nonpayable",
					"type": "function"
				},
				{
					"inputs": [],
					"name": "interestRate",
					"outputs": [
						{
							"internalType": "uint256",
							"name": "",
							"type": "uint256"
						}
					],
					"stateMutability": "view",
					"type": "function"
				},
				{
					"inputs": [],
					"name": "lastAccrueBlock",
					"outputs": [
						{
							"internalType": "uint256",
							"name": "",
							"type": "uint256"
						}
					],
					"stateMutability": "view",
					"type": "function"
				},
				{
					"inputs": [
						{
							"internalType": "address",
							"name": "borrower",
							"type": "address"
						}
					],
					"name": "liquidate",
					"outputs": [],
					"stateMutability": "nonpayable",
					"type": "function"
				},
				{
					"inputs": [],
					"name": "liquidationBonusBps",
					"outputs": [
						{
							"internalType": "uint256",
							"name": "",
							"type": "uint256"
						}
					],
					"stateMutability": "view",
					"type": "function"
				},
				{
					"inputs": [],
					"name": "liquidator",
					"outputs": [
						{
							"internalType": "address",
							"name": "",
							"type": "address"
						}
					],
					"stateMutability": "view",
					"type": "function"
				},
				{
					"inputs": [],
					"name": "lltvBps",
					"outputs": [
						{
							"internalType": "uint256",
							"name": "",
							"type": "uint256"
						}
					],
					"stateMutability": "view",
					"type": "function"
				},
				{
					"inputs": [],
					"name": "loanToken",
					"outputs": [
						{
							"internalType": "contract IERC20",
							"name": "",
							"type": "address"
						}
					],
					"stateMutability": "view",
					"type": "function"
				},
				{
					"inputs": [
						{
							"internalType": "uint256",
							"name": "",
							"type": "uint256"
						}
					],
					"name": "onVaultDeposit",
					"outputs": [],
					"stateMutability": "nonpayable",
					"type": "function"
				},
				{
					"inputs": [
						{
							"internalType": "uint256",
							"name": "amount",
							"type": "uint256"
						}
					],
					"name": "onVaultWithdraw",
					"outputs": [],
					"stateMutability": "nonpayable",
					"type": "function"
				},
				{
					"inputs": [],
					"name": "oracle",
					"outputs": [
						{
							"internalType": "contract IOracle",
							"name": "",
							"type": "address"
						}
					],
					"stateMutability": "view",
					"type": "function"
				},
				{
					"inputs": [],
					"name": "owner",
					"outputs": [
						{
							"internalType": "address",
							"name": "",
							"type": "address"
						}
					],
					"stateMutability": "view",
					"type": "function"
				},
				{
					"inputs": [
						{
							"internalType": "address",
							"name": "newOwner",
							"type": "address"
						}
					],
					"name": "ownershipTransfer",
					"outputs": [],
					"stateMutability": "nonpayable",
					"type": "function"
				},
				{
					"inputs": [
						{
							"internalType": "address",
							"name": "",
							"type": "address"
						}
					],
					"name": "positions",
					"outputs": [
						{
							"internalType": "uint256",
							"name": "collateralShares",
							"type": "uint256"
						},
						{
							"internalType": "uint256",
							"name": "borrowShares",
							"type": "uint256"
						},
						{
							"internalType": "uint256",
							"name": "principal",
							"type": "uint256"
						}
					],
					"stateMutability": "view",
					"type": "function"
				},
				{
					"inputs": [],
					"name": "protocolFeeBps",
					"outputs": [
						{
							"internalType": "uint256",
							"name": "",
							"type": "uint256"
						}
					],
					"stateMutability": "view",
					"type": "function"
				},
				{
					"inputs": [],
					"name": "protocolReserves",
					"outputs": [
						{
							"internalType": "uint256",
							"name": "",
							"type": "uint256"
						}
					],
					"stateMutability": "view",
					"type": "function"
				},
				{
					"inputs": [],
					"name": "proxiableUUID",
					"outputs": [
						{
							"internalType": "bytes32",
							"name": "",
							"type": "bytes32"
						}
					],
					"stateMutability": "view",
					"type": "function"
				},
				{
					"inputs": [
						{
							"internalType": "uint256",
							"name": "amount",
							"type": "uint256"
						}
					],
					"name": "repay",
					"outputs": [
						{
							"internalType": "uint256",
							"name": "remainingDebt",
							"type": "uint256"
						}
					],
					"stateMutability": "nonpayable",
					"type": "function"
				},
				{
					"inputs": [
						{
							"internalType": "uint256",
							"name": "newLltvBps",
							"type": "uint256"
						},
						{
							"internalType": "uint256",
							"name": "newInterestRate",
							"type": "uint256"
						},
						{
							"internalType": "uint256",
							"name": "newLiquidationBonusBps",
							"type": "uint256"
						}
					],
					"name": "setRiskParams",
					"outputs": [],
					"stateMutability": "nonpayable",
					"type": "function"
				},
				{
					"inputs": [],
					"name": "shareName",
					"outputs": [
						{
							"internalType": "string",
							"name": "",
							"type": "string"
						}
					],
					"stateMutability": "view",
					"type": "function"
				},
				{
					"inputs": [
						{
							"internalType": "uint256",
							"name": "amount",
							"type": "uint256"
						}
					],
					"name": "supplyCollateral",
					"outputs": [],
					"stateMutability": "nonpayable",
					"type": "function"
				},
				{
					"inputs": [],
					"name": "title",
					"outputs": [
						{
							"internalType": "string",
							"name": "",
							"type": "string"
						}
					],
					"stateMutability": "view",
					"type": "function"
				},
				{
					"inputs": [],
					"name": "totalBorrowShares",
					"outputs": [
						{
							"internalType": "uint256",
							"name": "",
							"type": "uint256"
						}
					],
					"stateMutability": "view",
					"type": "function"
				},
				{
					"inputs": [],
					"name": "totalDebt",
					"outputs": [
						{
							"internalType": "uint256",
							"name": "",
							"type": "uint256"
						}
					],
					"stateMutability": "view",
					"type": "function"
				},
				{
					"inputs": [],
					"name": "treasury",
					"outputs": [
						{
							"internalType": "address",
							"name": "",
							"type": "address"
						}
					],
					"stateMutability": "view",
					"type": "function"
				},
				{
					"inputs": [
						{
							"internalType": "address",
							"name": "newImplementation",
							"type": "address"
						}
					],
					"name": "upgradeTo",
					"outputs": [],
					"stateMutability": "nonpayable",
					"type": "function"
				},
				{
					"inputs": [
						{
							"internalType": "address",
							"name": "newImplementation",
							"type": "address"
						},
						{
							"internalType": "bytes",
							"name": "data",
							"type": "bytes"
						}
					],
					"name": "upgradeToAndCall",
					"outputs": [],
					"stateMutability": "payable",
					"type": "function"
				},
				{
					"inputs": [],
					"name": "vault",
					"outputs": [
						{
							"internalType": "address",
							"name": "",
							"type": "address"
						}
					],
					"stateMutability": "view",
					"type": "function"
				},
				{
					"inputs": [
						{
							"internalType": "uint256",
							"name": "amount",
							"type": "uint256"
						}
					],
					"name": "withdrawCollateral",
					"outputs": [],
					"stateMutability": "nonpayable",
					"type": "function"
				}
			],
			"devdoc": {
				"kind": "dev",
				"methods": {},
				"version": 1
			},
			"evm": {
				"assembly": "    /* \"contracts/protocol/Market.sol\":417:9780  contract Market is Ownable, IMarket, UUPSUpgradeable {... */\n  mstore(0x40, 0xa0)\n    /* \"contracts/proxy/UUPSUpgradeable.sol\":1021:1025  this */\n  address\n    /* \"contracts/proxy/UUPSUpgradeable.sol\":978:1026  address private immutable __self = address(this) */\n  0xffffffffffffffffffffffffffffffffffffffff\n  and\n  0x80\n  swap1\n  0xffffffffffffffffffffffffffffffffffffffff\n  and\n  dup2\n  mstore\n  pop\n    /* \"contracts/protocol/Market.sol\":417:9780  contract Market is Ownable, IMarket, UUPSUpgradeable {... */\n  callvalue\n  dup1\n  iszero\n  tag_1\n  jumpi\n  revert(0x00, 0x00)\ntag_1:\n  pop\n  mload(0x80)\n  codecopy(0x00, dataOffset(sub_0), dataSize(sub_0))\n  0x00\n  assignImmutable(\"0x10799ed351f1df4ff4762868bcc7c50d97bda88611d64914f3777e66c054a3\")\n  return(0x00, dataSize(sub_0))\nstop\n\nsub_0: assembly {\n        /* \"contracts/protocol/Market.sol\":417:9780  contract Market is Ownable, IMarket, UUPSUpgradeable {... */\n      mstore(0x40, 0x80)\n      jumpi(tag_1, lt(calldatasize, 0x04))\n      shr(0xe0, calldataload(0x00))\n      dup1\n      0x6ad9f9df\n      gt\n      tag_42\n      jumpi\n      dup1\n      0xb2016bd4\n      gt\n      tag_43\n      jumpi\n      dup1\n      0xd283e75f\n      gt\n      tag_44\n      jumpi\n      dup1\n      0xd283e75f\n      eq\n      tag_37\n      jumpi\n      dup1\n      0xd3a417a2\n      eq\n      tag_38\n      jumpi\n      dup1\n      0xd681a449\n      eq\n      tag_39\n      jumpi\n      dup1\n      0xfbfa77cf\n      eq\n      tag_40\n      jumpi\n      dup1\n      0xfc7b9c18\n      eq\n      tag_41\n      jumpi\n      jump(tag_1)\n    tag_44:\n      dup1\n      0xb2016bd4\n      eq\n      tag_32\n      jumpi\n      dup1\n      0xb3604c96\n      eq\n      tag_33\n      jumpi\n      dup1\n      0xc5ebeaec\n      eq\n      tag_34\n      jumpi\n      dup1\n      0xc82f6d2f\n      eq\n      tag_35\n      jumpi\n      dup1\n      0xced65b01\n      eq\n      tag_36\n      jumpi\n      jump(tag_1)\n    tag_43:\n      dup1\n      0x8da5cb5b\n      gt\n      tag_45\n      jumpi\n      dup1\n      0x8da5cb5b\n      eq\n      tag_27\n      jumpi\n      dup1\n      0xa385fb96\n      eq\n      tag_28\n      jumpi\n      dup1\n      0xa6afed95\n      eq\n      tag_29\n      jumpi\n      dup1\n      0xaa5af0fd\n      eq\n      tag_30\n      jumpi\n      dup1\n      0xb1c0be34\n      eq\n      tag_31\n      jumpi\n      jump(tag_1)\n    tag_45:\n      dup1\n      0x6ad9f9df\n      eq\n      tag_22\n      jumpi\n      dup1\n      0x74375359\n      eq\n      tag_23\n      jumpi\n      dup1\n      0x76e9790a\n      eq\n      tag_24\n      jumpi\n      dup1\n      0x7c3a00fd\n      eq\n      tag_25\n      jumpi\n      dup1\n      0x7dc0d1d0\n      eq\n      tag_26\n      jumpi\n      jump(tag_1)\n    tag_42:\n      dup1\n      0x3e3722b6\n      gt\n      tag_46\n      jumpi\n      dup1\n      0x52d1902d\n      gt\n      tag_47\n      jumpi\n      dup1\n      0x52d1902d\n      eq\n      tag_17\n      jumpi\n      dup1\n      0x55f57510\n      eq\n      tag_18\n      jumpi\n      dup1\n      0x6112fe2e\n      eq\n      tag_19\n      jumpi\n      dup1\n      0x61d027b3\n      eq\n      tag_20\n      jumpi\n      dup1\n      0x6711a640\n      eq\n      tag_21\n      jumpi\n      jump(tag_1)\n    tag_47:\n      dup1\n      0x3e3722b6\n      eq\n      tag_12\n      jumpi\n      dup1\n      0x4046ebae\n      eq\n      tag_13\n      jumpi\n      dup1\n      0x4a79d50c\n      eq\n      tag_14\n      jumpi\n      dup1\n      0x4b92917a\n      eq\n      tag_15\n      jumpi\n      dup1\n      0x4f1ef286\n      eq\n      tag_16\n      jumpi\n      jump(tag_1)\n    tag_46:\n      dup1\n      0x2f865568\n      gt\n      tag_48\n      jumpi\n      dup1\n      0x2f865568\n      eq\n      tag_7\n      jumpi\n      dup1\n      0x35659fb8\n      eq\n      tag_8\n      jumpi\n      dup1\n      0x3659cfe6\n      eq\n      tag_9\n      jumpi\n      dup1\n      0x367febea\n      eq\n      tag_10\n      jumpi\n      dup1\n      0x371fd8e6\n      eq\n      tag_11\n      jumpi\n      jump(tag_1)\n    tag_48:\n      dup1\n      0x06d37817\n      eq\n      tag_2\n      jumpi\n      dup1\n      0x136cf1f7\n      eq\n      tag_3\n      jumpi\n      dup1\n      0x19970d8e\n      eq\n      tag_4\n      jumpi\n      dup1\n      0x27776ab5\n      eq\n      tag_5\n      jumpi\n      dup1\n      0x29962904\n      eq\n      tag_6\n      jumpi\n    tag_1:\n      revert(0x00, 0x00)\n        /* \"contracts/protocol/Market.sol\":1333:1356  IERC20 public loanToken */\n    tag_2:\n      callvalue\n      dup1\n      iszero\n      tag_49\n      jumpi\n      revert(0x00, 0x00)\n    tag_49:\n      pop\n      tag_50\n      tag_51\n      jump\t// in\n    tag_50:\n      mload(0x40)\n      tag_52\n      swap2\n      swap1\n      tag_53\n      jump\t// in\n    tag_52:\n      mload(0x40)\n      dup1\n      swap2\n      sub\n      swap1\n      return\n        /* \"contracts/protocol/Market.sol\":1802:1834  uint256 public totalBorrowShares */\n    tag_3:\n      callvalue\n      dup1\n      iszero\n      tag_54\n      jumpi\n      revert(0x00, 0x00)\n    tag_54:\n      pop\n      tag_55\n      tag_56\n      jump\t// in\n    tag_55:\n      mload(0x40)\n      tag_57\n      swap2\n      swap1\n      tag_58\n      jump\t// in\n    tag_57:\n      mload(0x40)\n      dup1\n      swap2\n      sub\n      swap1\n      return\n        /* \"contracts/protocol/Market.sol\":1592:1626  uint256 public liquidationBonusBps */\n    tag_4:\n      callvalue\n      dup1\n      iszero\n      tag_59\n      jumpi\n      revert(0x00, 0x00)\n    tag_59:\n      pop\n      tag_60\n      tag_61\n      jump\t// in\n    tag_60:\n      mload(0x40)\n      tag_62\n      swap2\n      swap1\n      tag_58\n      jump\t// in\n    tag_62:\n      mload(0x40)\n      dup1\n      swap2\n      sub\n      swap1\n      return\n        /* \"contracts/protocol/Market.sol\":478:520  uint256 public constant INDEX_SCALE = 1e18 */\n    tag_5:\n      callvalue\n      dup1\n      iszero\n      tag_63\n      jumpi\n      revert(0x00, 0x00)\n    tag_63:\n      pop\n      tag_64\n      tag_65\n      jump\t// in\n    tag_64:\n      mload(0x40)\n      tag_66\n      swap2\n      swap1\n      tag_58\n      jump\t// in\n    tag_66:\n      mload(0x40)\n      dup1\n      swap2\n      sub\n      swap1\n      return\n        /* \"contracts/protocol/Market.sol\":1766:1796  uint256 public lastAccrueBlock */\n    tag_6:\n      callvalue\n      dup1\n      iszero\n      tag_67\n      jumpi\n      revert(0x00, 0x00)\n    tag_67:\n      pop\n      tag_68\n      tag_69\n      jump\t// in\n    tag_68:\n      mload(0x40)\n      tag_70\n      swap2\n      swap1\n      tag_58\n      jump\t// in\n    tag_70:\n      mload(0x40)\n      dup1\n      swap2\n      sub\n      swap1\n      return\n        /* \"contracts/protocol/Market.sol\":7415:8125  function liquidate(address borrower) external onlyLiquidatorOrOwner {... */\n    tag_7:\n      callvalue\n      dup1\n      iszero\n      tag_71\n      jumpi\n      revert(0x00, 0x00)\n    tag_71:\n      pop\n      tag_72\n      0x04\n      dup1\n      calldatasize\n      sub\n      dup2\n      add\n      swap1\n      tag_73\n      swap2\n      swap1\n      tag_74\n      jump\t// in\n    tag_73:\n      tag_75\n      jump\t// in\n    tag_72:\n      stop\n        /* \"contracts/protocol/Market.sol\":1632:1661  uint256 public protocolFeeBps */\n    tag_8:\n      callvalue\n      dup1\n      iszero\n      tag_76\n      jumpi\n      revert(0x00, 0x00)\n    tag_76:\n      pop\n      tag_77\n      tag_78\n      jump\t// in\n    tag_77:\n      mload(0x40)\n      tag_79\n      swap2\n      swap1\n      tag_58\n      jump\t// in\n    tag_79:\n      mload(0x40)\n      dup1\n      swap2\n      sub\n      swap1\n      return\n        /* \"contracts/proxy/UUPSUpgradeable.sol\":1745:1927  function upgradeTo(address newImplementation) external onlyProxy {... */\n    tag_9:\n      callvalue\n      dup1\n      iszero\n      tag_80\n      jumpi\n      revert(0x00, 0x00)\n    tag_80:\n      pop\n      tag_81\n      0x04\n      dup1\n      calldatasize\n      sub\n      dup2\n      add\n      swap1\n      tag_82\n      swap2\n      swap1\n      tag_74\n      jump\t// in\n    tag_82:\n      tag_83\n      jump\t// in\n    tag_81:\n      stop\n        /* \"contracts/protocol/Market.sol\":5318:5551  function supplyCollateral(uint256 amount) external {... */\n    tag_10:\n      callvalue\n      dup1\n      iszero\n      tag_84\n      jumpi\n      revert(0x00, 0x00)\n    tag_84:\n      pop\n      tag_85\n      0x04\n      dup1\n      calldatasize\n      sub\n      dup2\n      add\n      swap1\n      tag_86\n      swap2\n      swap1\n      tag_87\n      jump\t// in\n    tag_86:\n      tag_88\n      jump\t// in\n    tag_85:\n      stop\n        /* \"contracts/protocol/Market.sol\":6493:7409  function repay(uint256 amount) external returns (uint256 remainingDebt) {... */\n    tag_11:\n      callvalue\n      dup1\n      iszero\n      tag_89\n      jumpi\n      revert(0x00, 0x00)\n    tag_89:\n      pop\n      tag_90\n      0x04\n      dup1\n      calldatasize\n      sub\n      dup2\n      add\n      swap1\n      tag_91\n      swap2\n      swap1\n      tag_87\n      jump\t// in\n    tag_91:\n      tag_92\n      jump\t// in\n    tag_90:\n      mload(0x40)\n      tag_93\n      swap2\n      swap1\n      tag_58\n      jump\t// in\n    tag_93:\n      mload(0x40)\n      dup1\n      swap2\n      sub\n      swap1\n      return\n        /* \"contracts/protocol/Market.sol\":8191:8376  function onVaultWithdraw(uint256 amount) external onlyVault {... */\n    tag_12:\n      callvalue\n      dup1\n      iszero\n      tag_94\n      jumpi\n      revert(0x00, 0x00)\n    tag_94:\n      pop\n      tag_95\n      0x04\n      dup1\n      calldatasize\n      sub\n      dup2\n      add\n      swap1\n      tag_96\n      swap2\n      swap1\n      tag_87\n      jump\t// in\n    tag_96:\n      tag_97\n      jump\t// in\n    tag_95:\n      stop\n        /* \"contracts/protocol/Market.sol\":1533:1558  address public liquidator */\n    tag_13:\n      callvalue\n      dup1\n      iszero\n      tag_98\n      jumpi\n      revert(0x00, 0x00)\n    tag_98:\n      pop\n      tag_99\n      tag_100\n      jump\t// in\n    tag_99:\n      mload(0x40)\n      tag_101\n      swap2\n      swap1\n      tag_102\n      jump\t// in\n    tag_101:\n      mload(0x40)\n      dup1\n      swap2\n      sub\n      swap1\n      return\n        /* \"contracts/protocol/Market.sol\":1424:1443  string public title */\n    tag_14:\n      callvalue\n      dup1\n      iszero\n      tag_103\n      jumpi\n      revert(0x00, 0x00)\n    tag_103:\n      pop\n      tag_104\n      tag_105\n      jump\t// in\n    tag_104:\n      mload(0x40)\n      tag_106\n      swap2\n      swap1\n      tag_107\n      jump\t// in\n    tag_106:\n      mload(0x40)\n      dup1\n      swap2\n      sub\n      swap1\n      return\n        /* \"contracts/protocol/Market.sol\":8131:8185  function onVaultDeposit(uint256) external onlyVault {} */\n    tag_15:\n      callvalue\n      dup1\n      iszero\n      tag_108\n      jumpi\n      revert(0x00, 0x00)\n    tag_108:\n      pop\n      tag_109\n      0x04\n      dup1\n      calldatasize\n      sub\n      dup2\n      add\n      swap1\n      tag_110\n      swap2\n      swap1\n      tag_87\n      jump\t// in\n    tag_110:\n      tag_111\n      jump\t// in\n    tag_109:\n      stop\n        /* \"contracts/proxy/UUPSUpgradeable.sol\":2028:2240  function upgradeToAndCall(address newImplementation, bytes calldata data) external payable onlyProxy {... */\n    tag_16:\n      tag_112\n      0x04\n      dup1\n      calldatasize\n      sub\n      dup2\n      add\n      swap1\n      tag_113\n      swap2\n      swap1\n      tag_114\n      jump\t// in\n    tag_113:\n      tag_115\n      jump\t// in\n    tag_112:\n      stop\n        /* \"contracts/proxy/UUPSUpgradeable.sol\":1577:1690  function proxiableUUID() external view notDelegated returns (bytes32) {... */\n    tag_17:\n      callvalue\n      dup1\n      iszero\n      tag_116\n      jumpi\n      revert(0x00, 0x00)\n    tag_116:\n      pop\n      tag_117\n      tag_118\n      jump\t// in\n    tag_117:\n      mload(0x40)\n      tag_119\n      swap2\n      swap1\n      tag_120\n      jump\t// in\n    tag_119:\n      mload(0x40)\n      dup1\n      swap2\n      sub\n      swap1\n      return\n        /* \"contracts/protocol/Market.sol\":1877:1922  mapping(address => Position) public positions */\n    tag_18:\n      callvalue\n      dup1\n      iszero\n      tag_121\n      jumpi\n      revert(0x00, 0x00)\n    tag_121:\n      pop\n      tag_122\n      0x04\n      dup1\n      calldatasize\n      sub\n      dup2\n      add\n      swap1\n      tag_123\n      swap2\n      swap1\n      tag_74\n      jump\t// in\n    tag_123:\n      tag_124\n      jump\t// in\n    tag_122:\n      mload(0x40)\n      tag_125\n      swap4\n      swap3\n      swap2\n      swap1\n      tag_126\n      jump\t// in\n    tag_125:\n      mload(0x40)\n      dup1\n      swap2\n      sub\n      swap1\n      return\n        /* \"contracts/protocol/Market.sol\":5557:5966  function withdrawCollateral(uint256 amount) external {... */\n    tag_19:\n      callvalue\n      dup1\n      iszero\n      tag_127\n      jumpi\n      revert(0x00, 0x00)\n    tag_127:\n      pop\n      tag_128\n      0x04\n      dup1\n      calldatasize\n      sub\n      dup2\n      add\n      swap1\n      tag_129\n      swap2\n      swap1\n      tag_87\n      jump\t// in\n    tag_129:\n      tag_130\n      jump\t// in\n    tag_128:\n      stop\n        /* \"contracts/protocol/Market.sol\":1504:1527  address public treasury */\n    tag_20:\n      callvalue\n      dup1\n      iszero\n      tag_131\n      jumpi\n      revert(0x00, 0x00)\n    tag_131:\n      pop\n      tag_132\n      tag_133\n      jump\t// in\n    tag_132:\n      mload(0x40)\n      tag_134\n      swap2\n      swap1\n      tag_102\n      jump\t// in\n    tag_134:\n      mload(0x40)\n      dup1\n      swap2\n      sub\n      swap1\n      return\n        /* \"contracts/protocol/Market.sol\":4549:5088  function currentLtvBps(address borrower) public view returns (uint256) {... */\n    tag_21:\n      callvalue\n      dup1\n      iszero\n      tag_135\n      jumpi\n      revert(0x00, 0x00)\n    tag_135:\n      pop\n      tag_136\n      0x04\n      dup1\n      calldatasize\n      sub\n      dup2\n      add\n      swap1\n      tag_137\n      swap2\n      swap1\n      tag_74\n      jump\t// in\n    tag_137:\n      tag_138\n      jump\t// in\n    tag_136:\n      mload(0x40)\n      tag_139\n      swap2\n      swap1\n      tag_58\n      jump\t// in\n    tag_139:\n      mload(0x40)\n      dup1\n      swap2\n      sub\n      swap1\n      return\n        /* \"contracts/protocol/Market.sol\":5094:5312  function healthFactor(address borrower) public view returns (uint256) {... */\n    tag_22:\n      callvalue\n      dup1\n      iszero\n      tag_140\n      jumpi\n      revert(0x00, 0x00)\n    tag_140:\n      pop\n      tag_141\n      0x04\n      dup1\n      calldatasize\n      sub\n      dup2\n      add\n      swap1\n      tag_142\n      swap2\n      swap1\n      tag_74\n      jump\t// in\n    tag_142:\n      tag_143\n      jump\t// in\n    tag_141:\n      mload(0x40)\n      tag_144\n      swap2\n      swap1\n      tag_58\n      jump\t// in\n    tag_144:\n      mload(0x40)\n      dup1\n      swap2\n      sub\n      swap1\n      return\n        /* \"contracts/protocol/Market.sol\":3844:4038  function availableLiquidity() public view returns (uint256) {... */\n    tag_23:\n      callvalue\n      dup1\n      iszero\n      tag_145\n      jumpi\n      revert(0x00, 0x00)\n    tag_145:\n      pop\n      tag_146\n      tag_147\n      jump\t// in\n    tag_146:\n      mload(0x40)\n      tag_148\n      swap2\n      swap1\n      tag_58\n      jump\t// in\n    tag_148:\n      mload(0x40)\n      dup1\n      swap2\n      sub\n      swap1\n      return\n        /* \"contracts/protocol/Market.sol\":1449:1472  string public shareName */\n    tag_24:\n      callvalue\n      dup1\n      iszero\n      tag_149\n      jumpi\n      revert(0x00, 0x00)\n    tag_149:\n      pop\n      tag_150\n      tag_151\n      jump\t// in\n    tag_150:\n      mload(0x40)\n      tag_152\n      swap2\n      swap1\n      tag_107\n      jump\t// in\n    tag_152:\n      mload(0x40)\n      dup1\n      swap2\n      sub\n      swap1\n      return\n        /* \"contracts/protocol/Market.sol\":1667:1694  uint256 public interestRate */\n    tag_25:\n      callvalue\n      dup1\n      iszero\n      tag_153\n      jumpi\n      revert(0x00, 0x00)\n    tag_153:\n      pop\n      tag_154\n      tag_155\n      jump\t// in\n    tag_154:\n      mload(0x40)\n      tag_156\n      swap2\n      swap1\n      tag_58\n      jump\t// in\n    tag_156:\n      mload(0x40)\n      dup1\n      swap2\n      sub\n      swap1\n      return\n        /* \"contracts/protocol/Market.sol\":1397:1418  IOracle public oracle */\n    tag_26:\n      callvalue\n      dup1\n      iszero\n      tag_157\n      jumpi\n      revert(0x00, 0x00)\n    tag_157:\n      pop\n      tag_158\n      tag_159\n      jump\t// in\n    tag_158:\n      mload(0x40)\n      tag_160\n      swap2\n      swap1\n      tag_161\n      jump\t// in\n    tag_160:\n      mload(0x40)\n      dup1\n      swap2\n      sub\n      swap1\n      return\n        /* \"contracts/acess/Ownable.sol\":133:153  address public owner */\n    tag_27:\n      callvalue\n      dup1\n      iszero\n      tag_162\n      jumpi\n      revert(0x00, 0x00)\n    tag_162:\n      pop\n      tag_163\n      tag_164\n      jump\t// in\n    tag_163:\n      mload(0x40)\n      tag_165\n      swap2\n      swap1\n      tag_102\n      jump\t// in\n    tag_165:\n      mload(0x40)\n      dup1\n      swap2\n      sub\n      swap1\n      return\n        /* \"contracts/protocol/Market.sol\":1700:1728  uint256 public blocksPerYear */\n    tag_28:\n      callvalue\n      dup1\n      iszero\n      tag_166\n      jumpi\n      revert(0x00, 0x00)\n    tag_166:\n      pop\n      tag_167\n      tag_168\n      jump\t// in\n    tag_167:\n      mload(0x40)\n      tag_169\n      swap2\n      swap1\n      tag_58\n      jump\t// in\n    tag_169:\n      mload(0x40)\n      dup1\n      swap2\n      sub\n      swap1\n      return\n        /* \"contracts/protocol/Market.sol\":3452:3838  function accrueInterest() public {... */\n    tag_29:\n      callvalue\n      dup1\n      iszero\n      tag_170\n      jumpi\n      revert(0x00, 0x00)\n    tag_170:\n      pop\n      tag_171\n      tag_172\n      jump\t// in\n    tag_171:\n      stop\n        /* \"contracts/protocol/Market.sol\":1734:1760  uint256 public borrowIndex */\n    tag_30:\n      callvalue\n      dup1\n      iszero\n      tag_173\n      jumpi\n      revert(0x00, 0x00)\n    tag_173:\n      pop\n      tag_174\n      tag_175\n      jump\t// in\n    tag_174:\n      mload(0x40)\n      tag_176\n      swap2\n      swap1\n      tag_58\n      jump\t// in\n    tag_176:\n      mload(0x40)\n      dup1\n      swap2\n      sub\n      swap1\n      return\n        /* \"contracts/protocol/Market.sol\":2284:3446  function initialize(InitParams calldata p, string calldata title_, string calldata shareName_) external initializer {... */\n    tag_31:\n      callvalue\n      dup1\n      iszero\n      tag_177\n      jumpi\n      revert(0x00, 0x00)\n    tag_177:\n      pop\n      tag_178\n      0x04\n      dup1\n      calldatasize\n      sub\n      dup2\n      add\n      swap1\n      tag_179\n      swap2\n      swap1\n      tag_180\n      jump\t// in\n    tag_179:\n      tag_181\n      jump\t// in\n    tag_178:\n      stop\n        /* \"contracts/protocol/Market.sol\":1362:1391  IERC20 public collateralToken */\n    tag_32:\n      callvalue\n      dup1\n      iszero\n      tag_182\n      jumpi\n      revert(0x00, 0x00)\n    tag_182:\n      pop\n      tag_183\n      tag_184\n      jump\t// in\n    tag_183:\n      mload(0x40)\n      tag_185\n      swap2\n      swap1\n      tag_53\n      jump\t// in\n    tag_185:\n      mload(0x40)\n      dup1\n      swap2\n      sub\n      swap1\n      return\n        /* \"contracts/protocol/Market.sol\":1564:1586  uint256 public lltvBps */\n    tag_33:\n      callvalue\n      dup1\n      iszero\n      tag_186\n      jumpi\n      revert(0x00, 0x00)\n    tag_186:\n      pop\n      tag_187\n      tag_188\n      jump\t// in\n    tag_187:\n      mload(0x40)\n      tag_189\n      swap2\n      swap1\n      tag_58\n      jump\t// in\n    tag_189:\n      mload(0x40)\n      dup1\n      swap2\n      sub\n      swap1\n      return\n        /* \"contracts/protocol/Market.sol\":5972:6487  function borrow(uint256 amount) external {... */\n    tag_34:\n      callvalue\n      dup1\n      iszero\n      tag_190\n      jumpi\n      revert(0x00, 0x00)\n    tag_190:\n      pop\n      tag_191\n      0x04\n      dup1\n      calldatasize\n      sub\n      dup2\n      add\n      swap1\n      tag_192\n      swap2\n      swap1\n      tag_87\n      jump\t// in\n    tag_192:\n      tag_193\n      jump\t// in\n    tag_191:\n      stop\n        /* \"contracts/protocol/Market.sol\":4213:4324  function assetManage() public view returns (uint256) {... */\n    tag_35:\n      callvalue\n      dup1\n      iszero\n      tag_194\n      jumpi\n      revert(0x00, 0x00)\n    tag_194:\n      pop\n      tag_195\n      tag_196\n      jump\t// in\n    tag_195:\n      mload(0x40)\n      tag_197\n      swap2\n      swap1\n      tag_58\n      jump\t// in\n    tag_197:\n      mload(0x40)\n      dup1\n      swap2\n      sub\n      swap1\n      return\n        /* \"contracts/protocol/Market.sol\":8382:8775  function setRiskParams(uint256 newLltvBps, uint256 newInterestRate, uint256 newLiquidationBonusBps) external onlyOwner {... */\n    tag_36:\n      callvalue\n      dup1\n      iszero\n      tag_198\n      jumpi\n      revert(0x00, 0x00)\n    tag_198:\n      pop\n      tag_199\n      0x04\n      dup1\n      calldatasize\n      sub\n      dup2\n      add\n      swap1\n      tag_200\n      swap2\n      swap1\n      tag_201\n      jump\t// in\n    tag_200:\n      tag_202\n      jump\t// in\n    tag_199:\n      stop\n        /* \"contracts/protocol/Market.sol\":4330:4543  function debtOf(address borrower) public view returns (uint256) {... */\n    tag_37:\n      callvalue\n      dup1\n      iszero\n      tag_203\n      jumpi\n      revert(0x00, 0x00)\n    tag_203:\n      pop\n      tag_204\n      0x04\n      dup1\n      calldatasize\n      sub\n      dup2\n      add\n      swap1\n      tag_205\n      swap2\n      swap1\n      tag_74\n      jump\t// in\n    tag_205:\n      tag_206\n      jump\t// in\n    tag_204:\n      mload(0x40)\n      tag_207\n      swap2\n      swap1\n      tag_58\n      jump\t// in\n    tag_207:\n      mload(0x40)\n      dup1\n      swap2\n      sub\n      swap1\n      return\n        /* \"contracts/acess/Ownable.sol\":394:532  function ownershipTransfer(address newOwner) external onlyOwner {... */\n    tag_38:\n      callvalue\n      dup1\n      iszero\n      tag_208\n      jumpi\n      revert(0x00, 0x00)\n    tag_208:\n      pop\n      tag_209\n      0x04\n      dup1\n      calldatasize\n      sub\n      dup2\n      add\n      swap1\n      tag_210\n      swap2\n      swap1\n      tag_74\n      jump\t// in\n    tag_210:\n      tag_211\n      jump\t// in\n    tag_209:\n      stop\n        /* \"contracts/protocol/Market.sol\":1840:1871  uint256 public protocolReserves */\n    tag_39:\n      callvalue\n      dup1\n      iszero\n      tag_212\n      jumpi\n      revert(0x00, 0x00)\n    tag_212:\n      pop\n      tag_213\n      tag_214\n      jump\t// in\n    tag_213:\n      mload(0x40)\n      tag_215\n      swap2\n      swap1\n      tag_58\n      jump\t// in\n    tag_215:\n      mload(0x40)\n      dup1\n      swap2\n      sub\n      swap1\n      return\n        /* \"contracts/protocol/Market.sol\":1478:1498  address public vault */\n    tag_40:\n      callvalue\n      dup1\n      iszero\n      tag_216\n      jumpi\n      revert(0x00, 0x00)\n    tag_216:\n      pop\n      tag_217\n      tag_218\n      jump\t// in\n    tag_217:\n      mload(0x40)\n      tag_219\n      swap2\n      swap1\n      tag_102\n      jump\t// in\n    tag_219:\n      mload(0x40)\n      dup1\n      swap2\n      sub\n      swap1\n      return\n        /* \"contracts/protocol/Market.sol\":4044:4207  function totalDebt() public view returns (uint256) {... */\n    tag_41:\n      callvalue\n      dup1\n      iszero\n      tag_220\n      jumpi\n      revert(0x00, 0x00)\n    tag_220:\n      pop\n      tag_221\n      tag_222\n      jump\t// in\n    tag_221:\n      mload(0x40)\n      tag_223\n      swap2\n      swap1\n      tag_58\n      jump\t// in\n    tag_223:\n      mload(0x40)\n      dup1\n      swap2\n      sub\n      swap1\n      return\n        /* \"contracts/protocol/Market.sol\":1333:1356  IERC20 public loanToken */\n    tag_51:\n      0x01\n      0x00\n      swap1\n      sload\n      swap1\n      0x0100\n      exp\n      swap1\n      div\n      0xffffffffffffffffffffffffffffffffffffffff\n      and\n      dup2\n      jump\t// out\n        /* \"contracts/protocol/Market.sol\":1802:1834  uint256 public totalBorrowShares */\n    tag_56:\n      sload(0x10)\n      dup2\n      jump\t// out\n        /* \"contracts/protocol/Market.sol\":1592:1626  uint256 public liquidationBonusBps */\n    tag_61:\n      sload(0x0a)\n      dup2\n      jump\t// out\n        /* \"contracts/protocol/Market.sol\":478:520  uint256 public constant INDEX_SCALE = 1e18 */\n    tag_65:\n        /* \"contracts/protocol/Market.sol\":516:520  1e18 */\n      0x0de0b6b3a7640000\n        /* \"contracts/protocol/Market.sol\":478:520  uint256 public constant INDEX_SCALE = 1e18 */\n      dup2\n      jump\t// out\n        /* \"contracts/protocol/Market.sol\":1766:1796  uint256 public lastAccrueBlock */\n    tag_69:\n      sload(0x0f)\n      dup2\n      jump\t// out\n        /* \"contracts/protocol/Market.sol\":7415:8125  function liquidate(address borrower) external onlyLiquidatorOrOwner {... */\n    tag_75:\n        /* \"contracts/protocol/Market.sol\":2208:2218  liquidator */\n      0x08\n      0x00\n      swap1\n      sload\n      swap1\n      0x0100\n      exp\n      swap1\n      div\n      0xffffffffffffffffffffffffffffffffffffffff\n      and\n        /* \"contracts/protocol/Market.sol\":2194:2218  msg.sender == liquidator */\n      0xffffffffffffffffffffffffffffffffffffffff\n      and\n        /* \"contracts/protocol/Market.sol\":2194:2204  msg.sender */\n      caller\n        /* \"contracts/protocol/Market.sol\":2194:2218  msg.sender == liquidator */\n      0xffffffffffffffffffffffffffffffffffffffff\n      and\n      eq\n        /* \"contracts/protocol/Market.sol\":2194:2241  msg.sender == liquidator || msg.sender == owner */\n      dup1\n      tag_225\n      jumpi\n      pop\n        /* \"contracts/protocol/Market.sol\":2236:2241  owner */\n      0x00\n      0x02\n      swap1\n      sload\n      swap1\n      0x0100\n      exp\n      swap1\n      div\n      0xffffffffffffffffffffffffffffffffffffffff\n      and\n        /* \"contracts/protocol/Market.sol\":2222:2241  msg.sender == owner */\n      0xffffffffffffffffffffffffffffffffffffffff\n      and\n        /* \"contracts/protocol/Market.sol\":2222:2232  msg.sender */\n      caller\n        /* \"contracts/protocol/Market.sol\":2222:2241  msg.sender == owner */\n      0xffffffffffffffffffffffffffffffffffffffff\n      and\n      eq\n        /* \"contracts/protocol/Market.sol\":2194:2241  msg.sender == liquidator || msg.sender == owner */\n    tag_225:\n        /* \"contracts/protocol/Market.sol\":2186:2260  require(msg.sender == liquidator || msg.sender == owner, \"NOT_LIQUIDATOR\") */\n      tag_226\n      jumpi\n      mload(0x40)\n      0x08c379a000000000000000000000000000000000000000000000000000000000\n      dup2\n      mstore\n      0x04\n      add\n      tag_227\n      swap1\n      tag_228\n      jump\t// in\n    tag_227:\n      mload(0x40)\n      dup1\n      swap2\n      sub\n      swap1\n      revert\n    tag_226:\n        /* \"contracts/protocol/Market.sol\":7493:7509  accrueInterest() */\n      tag_230\n        /* \"contracts/protocol/Market.sol\":7493:7507  accrueInterest */\n      tag_172\n        /* \"contracts/protocol/Market.sol\":7493:7509  accrueInterest() */\n      jump\t// in\n    tag_230:\n        /* \"contracts/protocol/Market.sol\":7528:7548  _isHealthy(borrower) */\n      tag_231\n        /* \"contracts/protocol/Market.sol\":7539:7547  borrower */\n      dup2\n        /* \"contracts/protocol/Market.sol\":7528:7538  _isHealthy */\n      tag_232\n        /* \"contracts/protocol/Market.sol\":7528:7548  _isHealthy(borrower) */\n      jump\t// in\n    tag_231:\n        /* \"contracts/protocol/Market.sol\":7527:7548  !_isHealthy(borrower) */\n      iszero\n        /* \"contracts/protocol/Market.sol\":7519:7569  require(!_isHealthy(borrower), \"POSITION_HEALTHY\") */\n      tag_233\n      jumpi\n      mload(0x40)\n      0x08c379a000000000000000000000000000000000000000000000000000000000\n      dup2\n      mstore\n      0x04\n      add\n      tag_234\n      swap1\n      tag_235\n      jump\t// in\n    tag_234:\n      mload(0x40)\n      dup1\n      swap2\n      sub\n      swap1\n      revert\n    tag_233:\n        /* \"contracts/protocol/Market.sol\":7579:7597  Position storage p */\n      0x00\n        /* \"contracts/protocol/Market.sol\":7600:7609  positions */\n      0x12\n        /* \"contracts/protocol/Market.sol\":7600:7619  positions[borrower] */\n      0x00\n        /* \"contracts/protocol/Market.sol\":7610:7618  borrower */\n      dup4\n        /* \"contracts/protocol/Market.sol\":7600:7619  positions[borrower] */\n      0xffffffffffffffffffffffffffffffffffffffff\n      and\n      0xffffffffffffffffffffffffffffffffffffffff\n      and\n      dup2\n      mstore\n      0x20\n      add\n      swap1\n      dup2\n      mstore\n      0x20\n      add\n      0x00\n      keccak256\n        /* \"contracts/protocol/Market.sol\":7579:7619  Position storage p = positions[borrower] */\n      swap1\n      pop\n        /* \"contracts/protocol/Market.sol\":7629:7641  uint256 debt */\n      0x00\n        /* \"contracts/protocol/Market.sol\":7644:7660  debtOf(borrower) */\n      tag_236\n        /* \"contracts/protocol/Market.sol\":7651:7659  borrower */\n      dup4\n        /* \"contracts/protocol/Market.sol\":7644:7650  debtOf */\n      tag_206\n        /* \"contracts/protocol/Market.sol\":7644:7660  debtOf(borrower) */\n      jump\t// in\n    tag_236:\n        /* \"contracts/protocol/Market.sol\":7629:7660  uint256 debt = debtOf(borrower) */\n      swap1\n      pop\n        /* \"contracts/protocol/Market.sol\":7685:7686  0 */\n      0x00\n        /* \"contracts/protocol/Market.sol\":7678:7682  debt */\n      dup2\n        /* \"contracts/protocol/Market.sol\":7678:7686  debt > 0 */\n      gt\n        /* \"contracts/protocol/Market.sol\":7670:7698  require(debt > 0, \"NO_DEBT\") */\n      tag_237\n      jumpi\n      mload(0x40)\n      0x08c379a000000000000000000000000000000000000000000000000000000000\n      dup2\n      mstore\n      0x04\n      add\n      tag_238\n      swap1\n      tag_239\n      jump\t// in\n    tag_238:\n      mload(0x40)\n      dup1\n      swap2\n      sub\n      swap1\n      revert\n    tag_237:\n        /* \"contracts/protocol/Market.sol\":7708:7722  uint256 reward */\n      0x00\n        /* \"contracts/protocol/Market.sol\":7770:7775  10000 */\n      0x2710\n        /* \"contracts/protocol/Market.sol\":7747:7766  liquidationBonusBps */\n      sload(0x0a)\n        /* \"contracts/protocol/Market.sol\":7726:7727  p */\n      dup5\n        /* \"contracts/protocol/Market.sol\":7726:7744  p.collateralShares */\n      0x00\n      add\n      sload\n        /* \"contracts/protocol/Market.sol\":7726:7766  p.collateralShares * liquidationBonusBps */\n      tag_240\n      swap2\n      swap1\n      tag_241\n      jump\t// in\n    tag_240:\n        /* \"contracts/protocol/Market.sol\":7725:7775  (p.collateralShares * liquidationBonusBps) / 10000 */\n      tag_242\n      swap2\n      swap1\n      tag_243\n      jump\t// in\n    tag_242:\n        /* \"contracts/protocol/Market.sol\":7708:7775  uint256 reward = (p.collateralShares * liquidationBonusBps) / 10000 */\n      swap1\n      pop\n        /* \"contracts/protocol/Market.sol\":7785:7802  uint256 remainder */\n      0x00\n        /* \"contracts/protocol/Market.sol\":7826:7832  reward */\n      dup2\n        /* \"contracts/protocol/Market.sol\":7805:7806  p */\n      dup5\n        /* \"contracts/protocol/Market.sol\":7805:7823  p.collateralShares */\n      0x00\n      add\n      sload\n        /* \"contracts/protocol/Market.sol\":7805:7832  p.collateralShares - reward */\n      tag_244\n      swap2\n      swap1\n      tag_245\n      jump\t// in\n    tag_244:\n        /* \"contracts/protocol/Market.sol\":7785:7832  uint256 remainder = p.collateralShares - reward */\n      swap1\n      pop\n        /* \"contracts/protocol/Market.sol\":7855:7856  0 */\n      0x00\n        /* \"contracts/protocol/Market.sol\":7846:7852  reward */\n      dup3\n        /* \"contracts/protocol/Market.sol\":7846:7856  reward > 0 */\n      gt\n        /* \"contracts/protocol/Market.sol\":7842:7902  if (reward > 0) collateralToken.transfer(msg.sender, reward) */\n      iszero\n      tag_246\n      jumpi\n        /* \"contracts/protocol/Market.sol\":7858:7873  collateralToken */\n      0x02\n      0x00\n      swap1\n      sload\n      swap1\n      0x0100\n      exp\n      swap1\n      div\n      0xffffffffffffffffffffffffffffffffffffffff\n      and\n        /* \"contracts/protocol/Market.sol\":7858:7882  collateralToken.transfer */\n      0xffffffffffffffffffffffffffffffffffffffff\n      and\n      0xa9059cbb\n        /* \"contracts/protocol/Market.sol\":7883:7893  msg.sender */\n      caller\n        /* \"contracts/protocol/Market.sol\":7895:7901  reward */\n      dup5\n        /* \"contracts/protocol/Market.sol\":7858:7902  collateralToken.transfer(msg.sender, reward) */\n      mload(0x40)\n      dup4\n      0xffffffff\n      and\n      0xe0\n      shl\n      dup2\n      mstore\n      0x04\n      add\n      tag_247\n      swap3\n      swap2\n      swap1\n      tag_248\n      jump\t// in\n    tag_247:\n      0x20\n      mload(0x40)\n      dup1\n      dup4\n      sub\n      dup2\n      0x00\n      dup8\n      gas\n      call\n      iszero\n      dup1\n      iszero\n      tag_250\n      jumpi\n      returndatacopy(0x00, 0x00, returndatasize)\n      revert(0x00, returndatasize)\n    tag_250:\n      pop\n      pop\n      pop\n      pop\n      mload(0x40)\n      returndatasize\n      not(0x1f)\n      0x1f\n      dup3\n      add\n      and\n      dup3\n      add\n      dup1\n      0x40\n      mstore\n      pop\n      dup2\n      add\n      swap1\n      tag_251\n      swap2\n      swap1\n      tag_252\n      jump\t// in\n    tag_251:\n      pop\n        /* \"contracts/protocol/Market.sol\":7842:7902  if (reward > 0) collateralToken.transfer(msg.sender, reward) */\n    tag_246:\n        /* \"contracts/protocol/Market.sol\":7928:7929  0 */\n      0x00\n        /* \"contracts/protocol/Market.sol\":7916:7925  remainder */\n      dup2\n        /* \"contracts/protocol/Market.sol\":7916:7929  remainder > 0 */\n      gt\n        /* \"contracts/protocol/Market.sol\":7912:7976  if (remainder > 0) collateralToken.transfer(treasury, remainder) */\n      iszero\n      tag_253\n      jumpi\n        /* \"contracts/protocol/Market.sol\":7931:7946  collateralToken */\n      0x02\n      0x00\n      swap1\n      sload\n      swap1\n      0x0100\n      exp\n      swap1\n      div\n      0xffffffffffffffffffffffffffffffffffffffff\n      and\n        /* \"contracts/protocol/Market.sol\":7931:7955  collateralToken.transfer */\n      0xffffffffffffffffffffffffffffffffffffffff\n      and\n      0xa9059cbb\n        /* \"contracts/protocol/Market.sol\":7956:7964  treasury */\n      0x07\n      0x00\n      swap1\n      sload\n      swap1\n      0x0100\n      exp\n      swap1\n      div\n      0xffffffffffffffffffffffffffffffffffffffff\n      and\n        /* \"contracts/protocol/Market.sol\":7966:7975  remainder */\n      dup4\n        /* \"contracts/protocol/Market.sol\":7931:7976  collateralToken.transfer(treasury, remainder) */\n      mload(0x40)\n      dup4\n      0xffffffff\n      and\n      0xe0\n      shl\n      dup2\n      mstore\n      0x04\n      add\n      tag_254\n      swap3\n      swap2\n      swap1\n      tag_248\n      jump\t// in\n    tag_254:\n      0x20\n      mload(0x40)\n      dup1\n      dup4\n      sub\n      dup2\n      0x00\n      dup8\n      gas\n      call\n      iszero\n      dup1\n      iszero\n      tag_256\n      jumpi\n      returndatacopy(0x00, 0x00, returndatasize)\n      revert(0x00, returndatasize)\n    tag_256:\n      pop\n      pop\n      pop\n      pop\n      mload(0x40)\n      returndatasize\n      not(0x1f)\n      0x1f\n      dup3\n      add\n      and\n      dup3\n      add\n      dup1\n      0x40\n      mstore\n      pop\n      dup2\n      add\n      swap1\n      tag_257\n      swap2\n      swap1\n      tag_252\n      jump\t// in\n    tag_257:\n      pop\n        /* \"contracts/protocol/Market.sol\":7912:7976  if (remainder > 0) collateralToken.transfer(treasury, remainder) */\n    tag_253:\n        /* \"contracts/protocol/Market.sol\":8007:8008  p */\n      dup4\n        /* \"contracts/protocol/Market.sol\":8007:8021  p.borrowShares */\n      0x01\n      add\n      sload\n        /* \"contracts/protocol/Market.sol\":7986:8003  totalBorrowShares */\n      0x10\n      0x00\n        /* \"contracts/protocol/Market.sol\":7986:8021  totalBorrowShares -= p.borrowShares */\n      dup3\n      dup3\n      sload\n      tag_258\n      swap2\n      swap1\n      tag_245\n      jump\t// in\n    tag_258:\n      swap3\n      pop\n      pop\n      dup2\n      swap1\n      sstore\n      pop\n        /* \"contracts/protocol/Market.sol\":8038:8047  positions */\n      0x12\n        /* \"contracts/protocol/Market.sol\":8038:8057  positions[borrower] */\n      0x00\n        /* \"contracts/protocol/Market.sol\":8048:8056  borrower */\n      dup7\n        /* \"contracts/protocol/Market.sol\":8038:8057  positions[borrower] */\n      0xffffffffffffffffffffffffffffffffffffffff\n      and\n      0xffffffffffffffffffffffffffffffffffffffff\n      and\n      dup2\n      mstore\n      0x20\n      add\n      swap1\n      dup2\n      mstore\n      0x20\n      add\n      0x00\n      keccak256\n      0x00\n        /* \"contracts/protocol/Market.sol\":8031:8057  delete positions[borrower] */\n      0x00\n      dup3\n      add\n      0x00\n      swap1\n      sstore\n      0x01\n      dup3\n      add\n      0x00\n      swap1\n      sstore\n      0x02\n      dup3\n      add\n      0x00\n      swap1\n      sstore\n      pop\n      pop\n        /* \"contracts/protocol/Market.sol\":8093:8103  msg.sender */\n      caller\n        /* \"contracts/protocol/Market.sol\":8072:8118  Liquidated(borrower, msg.sender, debt, reward) */\n      0xffffffffffffffffffffffffffffffffffffffff\n      and\n        /* \"contracts/protocol/Market.sol\":8083:8091  borrower */\n      dup6\n        /* \"contracts/protocol/Market.sol\":8072:8118  Liquidated(borrower, msg.sender, debt, reward) */\n      0xffffffffffffffffffffffffffffffffffffffff\n      and\n      0x1f0c6615429d1cdae0dfa233abf91d3b31cdbdd82c8081389832a61e1072f1ea\n        /* \"contracts/protocol/Market.sol\":8105:8109  debt */\n      dup6\n        /* \"contracts/protocol/Market.sol\":8111:8117  reward */\n      dup6\n        /* \"contracts/protocol/Market.sol\":8072:8118  Liquidated(borrower, msg.sender, debt, reward) */\n      mload(0x40)\n      tag_259\n      swap3\n      swap2\n      swap1\n      tag_260\n      jump\t// in\n    tag_259:\n      mload(0x40)\n      dup1\n      swap2\n      sub\n      swap1\n      log3\n        /* \"contracts/protocol/Market.sol\":7483:8125  {... */\n      pop\n      pop\n      pop\n      pop\n        /* \"contracts/protocol/Market.sol\":7415:8125  function liquidate(address borrower) external onlyLiquidatorOrOwner {... */\n      pop\n      jump\t// out\n        /* \"contracts/protocol/Market.sol\":1632:1661  uint256 public protocolFeeBps */\n    tag_78:\n      sload(0x0b)\n      dup2\n      jump\t// out\n        /* \"contracts/proxy/UUPSUpgradeable.sol\":1745:1927  function upgradeTo(address newImplementation) external onlyProxy {... */\n    tag_83:\n        /* \"contracts/proxy/UUPSUpgradeable.sol\":1200:1206  __self */\n      immutable(\"0x10799ed351f1df4ff4762868bcc7c50d97bda88611d64914f3777e66c054a3\")\n        /* \"contracts/proxy/UUPSUpgradeable.sol\":1183:1206  address(this) != __self */\n      0xffffffffffffffffffffffffffffffffffffffff\n      and\n        /* \"contracts/proxy/UUPSUpgradeable.sol\":1191:1195  this */\n      address\n        /* \"contracts/proxy/UUPSUpgradeable.sol\":1183:1206  address(this) != __self */\n      0xffffffffffffffffffffffffffffffffffffffff\n      and\n      sub\n        /* \"contracts/proxy/UUPSUpgradeable.sol\":1175:1227  require(address(this) != __self, \"NOT_DELEGATECALL\") */\n      tag_262\n      jumpi\n      mload(0x40)\n      0x08c379a000000000000000000000000000000000000000000000000000000000\n      dup2\n      mstore\n      0x04\n      add\n      tag_263\n      swap1\n      tag_264\n      jump\t// in\n    tag_263:\n      mload(0x40)\n      dup1\n      swap2\n      sub\n      swap1\n      revert\n    tag_262:\n        /* \"contracts/proxy/UUPSUpgradeable.sol\":1269:1275  __self */\n      immutable(\"0x10799ed351f1df4ff4762868bcc7c50d97bda88611d64914f3777e66c054a3\")\n        /* \"contracts/proxy/UUPSUpgradeable.sol\":1245:1275  _getImplementation() == __self */\n      0xffffffffffffffffffffffffffffffffffffffff\n      and\n        /* \"contracts/proxy/UUPSUpgradeable.sol\":1245:1265  _getImplementation() */\n      tag_265\n        /* \"contracts/proxy/UUPSUpgradeable.sol\":1245:1263  _getImplementation */\n      tag_266\n        /* \"contracts/proxy/UUPSUpgradeable.sol\":1245:1265  _getImplementation() */\n      jump\t// in\n    tag_265:\n        /* \"contracts/proxy/UUPSUpgradeable.sol\":1245:1275  _getImplementation() == __self */\n      0xffffffffffffffffffffffffffffffffffffffff\n      and\n      eq\n        /* \"contracts/proxy/UUPSUpgradeable.sol\":1237:1294  require(_getImplementation() == __self, \"INACTIVE_PROXY\") */\n      tag_267\n      jumpi\n      mload(0x40)\n      0x08c379a000000000000000000000000000000000000000000000000000000000\n      dup2\n      mstore\n      0x04\n      add\n      tag_268\n      swap1\n      tag_269\n      jump\t// in\n    tag_268:\n      mload(0x40)\n      dup1\n      swap2\n      sub\n      swap1\n      revert\n    tag_267:\n        /* \"contracts/proxy/UUPSUpgradeable.sol\":1820:1856  _authorizeUpgrade(newImplementation) */\n      tag_271\n        /* \"contracts/proxy/UUPSUpgradeable.sol\":1838:1855  newImplementation */\n      dup2\n        /* \"contracts/proxy/UUPSUpgradeable.sol\":1820:1837  _authorizeUpgrade */\n      tag_272\n        /* \"contracts/proxy/UUPSUpgradeable.sol\":1820:1856  _authorizeUpgrade(newImplementation) */\n      jump\t// in\n    tag_271:\n        /* \"contracts/proxy/UUPSUpgradeable.sol\":1866:1920  _upgradeToAndCall(newImplementation, bytes(\"\"), false) */\n      tag_273\n        /* \"contracts/proxy/UUPSUpgradeable.sol\":1884:1901  newImplementation */\n      dup2\n        /* \"contracts/proxy/UUPSUpgradeable.sol\":1903:1912  bytes(\"\") */\n      mload(0x40)\n      dup1\n      0x20\n      add\n      0x40\n      mstore\n      dup1\n      0x00\n      dup2\n      mstore\n      pop\n        /* \"contracts/proxy/UUPSUpgradeable.sol\":1914:1919  false */\n      0x00\n        /* \"contracts/proxy/UUPSUpgradeable.sol\":1866:1883  _upgradeToAndCall */\n      tag_274\n        /* \"contracts/proxy/UUPSUpgradeable.sol\":1866:1920  _upgradeToAndCall(newImplementation, bytes(\"\"), false) */\n      jump\t// in\n    tag_273:\n        /* \"contracts/proxy/UUPSUpgradeable.sol\":1745:1927  function upgradeTo(address newImplementation) external onlyProxy {... */\n      pop\n      jump\t// out\n        /* \"contracts/protocol/Market.sol\":5318:5551  function supplyCollateral(uint256 amount) external {... */\n    tag_88:\n        /* \"contracts/protocol/Market.sol\":5396:5397  0 */\n      0x00\n        /* \"contracts/protocol/Market.sol\":5387:5393  amount */\n      dup2\n        /* \"contracts/protocol/Market.sol\":5387:5397  amount > 0 */\n      gt\n        /* \"contracts/protocol/Market.sol\":5379:5413  require(amount > 0, \"ZERO_AMOUNT\") */\n      tag_276\n      jumpi\n      mload(0x40)\n      0x08c379a000000000000000000000000000000000000000000000000000000000\n      dup2\n      mstore\n      0x04\n      add\n      tag_277\n      swap1\n      tag_278\n      jump\t// in\n    tag_277:\n      mload(0x40)\n      dup1\n      swap2\n      sub\n      swap1\n      revert\n    tag_276:\n        /* \"contracts/protocol/Market.sol\":5423:5438  collateralToken */\n      0x02\n      0x00\n      swap1\n      sload\n      swap1\n      0x0100\n      exp\n      swap1\n      div\n      0xffffffffffffffffffffffffffffffffffffffff\n      and\n        /* \"contracts/protocol/Market.sol\":5423:5451  collateralToken.transferFrom */\n      0xffffffffffffffffffffffffffffffffffffffff\n      and\n      0x23b872dd\n        /* \"contracts/protocol/Market.sol\":5452:5462  msg.sender */\n      caller\n        /* \"contracts/protocol/Market.sol\":5472:5476  this */\n      address\n        /* \"contracts/protocol/Market.sol\":5479:5485  amount */\n      dup5\n        /* \"contracts/protocol/Market.sol\":5423:5486  collateralToken.transferFrom(msg.sender, address(this), amount) */\n      mload(0x40)\n      dup5\n      0xffffffff\n      and\n      0xe0\n      shl\n      dup2\n      mstore\n      0x04\n      add\n      tag_279\n      swap4\n      swap3\n      swap2\n      swap1\n      tag_280\n      jump\t// in\n    tag_279:\n      0x20\n      mload(0x40)\n      dup1\n      dup4\n      sub\n      dup2\n      0x00\n      dup8\n      gas\n      call\n      iszero\n      dup1\n      iszero\n      tag_282\n      jumpi\n      returndatacopy(0x00, 0x00, returndatasize)\n      revert(0x00, returndatasize)\n    tag_282:\n      pop\n      pop\n      pop\n      pop\n      mload(0x40)\n      returndatasize\n      not(0x1f)\n      0x1f\n      dup3\n      add\n      and\n      dup3\n      add\n      dup1\n      0x40\n      mstore\n      pop\n      dup2\n      add\n      swap1\n      tag_283\n      swap2\n      swap1\n      tag_252\n      jump\t// in\n    tag_283:\n      pop\n        /* \"contracts/protocol/Market.sol\":5538:5544  amount */\n      dup1\n        /* \"contracts/protocol/Market.sol\":5496:5505  positions */\n      0x12\n        /* \"contracts/protocol/Market.sol\":5496:5517  positions[msg.sender] */\n      0x00\n        /* \"contracts/protocol/Market.sol\":5506:5516  msg.sender */\n      caller\n        /* \"contracts/protocol/Market.sol\":5496:5517  positions[msg.sender] */\n      0xffffffffffffffffffffffffffffffffffffffff\n      and\n      0xffffffffffffffffffffffffffffffffffffffff\n      and\n      dup2\n      mstore\n      0x20\n      add\n      swap1\n      dup2\n      mstore\n      0x20\n      add\n      0x00\n      keccak256\n        /* \"contracts/protocol/Market.sol\":5496:5534  positions[msg.sender].collateralShares */\n      0x00\n      add\n      0x00\n        /* \"contracts/protocol/Market.sol\":5496:5544  positions[msg.sender].collateralShares += amount */\n      dup3\n      dup3\n      sload\n      tag_284\n      swap2\n      swap1\n      tag_285\n      jump\t// in\n    tag_284:\n      swap3\n      pop\n      pop\n      dup2\n      swap1\n      sstore\n      pop\n        /* \"contracts/protocol/Market.sol\":5318:5551  function supplyCollateral(uint256 amount) external {... */\n      pop\n      jump\t// out\n        /* \"contracts/protocol/Market.sol\":6493:7409  function repay(uint256 amount) external returns (uint256 remainingDebt) {... */\n    tag_92:\n        /* \"contracts/protocol/Market.sol\":6542:6563  uint256 remainingDebt */\n      0x00\n        /* \"contracts/protocol/Market.sol\":6592:6593  0 */\n      0x00\n        /* \"contracts/protocol/Market.sol\":6583:6589  amount */\n      dup3\n        /* \"contracts/protocol/Market.sol\":6583:6593  amount > 0 */\n      gt\n        /* \"contracts/protocol/Market.sol\":6575:6609  require(amount > 0, \"ZERO_AMOUNT\") */\n      tag_287\n      jumpi\n      mload(0x40)\n      0x08c379a000000000000000000000000000000000000000000000000000000000\n      dup2\n      mstore\n      0x04\n      add\n      tag_288\n      swap1\n      tag_278\n      jump\t// in\n    tag_288:\n      mload(0x40)\n      dup1\n      swap2\n      sub\n      swap1\n      revert\n    tag_287:\n        /* \"contracts/protocol/Market.sol\":6619:6635  accrueInterest() */\n      tag_289\n        /* \"contracts/protocol/Market.sol\":6619:6633  accrueInterest */\n      tag_172\n        /* \"contracts/protocol/Market.sol\":6619:6635  accrueInterest() */\n      jump\t// in\n    tag_289:\n        /* \"contracts/protocol/Market.sol\":6645:6663  Position storage p */\n      0x00\n        /* \"contracts/protocol/Market.sol\":6666:6675  positions */\n      0x12\n        /* \"contracts/protocol/Market.sol\":6666:6687  positions[msg.sender] */\n      0x00\n        /* \"contracts/protocol/Market.sol\":6676:6686  msg.sender */\n      caller\n        /* \"contracts/protocol/Market.sol\":6666:6687  positions[msg.sender] */\n      0xffffffffffffffffffffffffffffffffffffffff\n      and\n      0xffffffffffffffffffffffffffffffffffffffff\n      and\n      dup2\n      mstore\n      0x20\n      add\n      swap1\n      dup2\n      mstore\n      0x20\n      add\n      0x00\n      keccak256\n        /* \"contracts/protocol/Market.sol\":6645:6687  Position storage p = positions[msg.sender] */\n      swap1\n      pop\n        /* \"contracts/protocol/Market.sol\":6697:6709  uint256 debt */\n      0x00\n        /* \"contracts/protocol/Market.sol\":6712:6730  debtOf(msg.sender) */\n      tag_290\n        /* \"contracts/protocol/Market.sol\":6719:6729  msg.sender */\n      caller\n        /* \"contracts/protocol/Market.sol\":6712:6718  debtOf */\n      tag_206\n        /* \"contracts/protocol/Market.sol\":6712:6730  debtOf(msg.sender) */\n      jump\t// in\n    tag_290:\n        /* \"contracts/protocol/Market.sol\":6697:6730  uint256 debt = debtOf(msg.sender) */\n      swap1\n      pop\n        /* \"contracts/protocol/Market.sol\":6755:6756  0 */\n      0x00\n        /* \"contracts/protocol/Market.sol\":6748:6752  debt */\n      dup2\n        /* \"contracts/protocol/Market.sol\":6748:6756  debt > 0 */\n      gt\n        /* \"contracts/protocol/Market.sol\":6740:6768  require(debt > 0, \"NO_DEBT\") */\n      tag_291\n      jumpi\n      mload(0x40)\n      0x08c379a000000000000000000000000000000000000000000000000000000000\n      dup2\n      mstore\n      0x04\n      add\n      tag_292\n      swap1\n      tag_239\n      jump\t// in\n    tag_292:\n      mload(0x40)\n      dup1\n      swap2\n      sub\n      swap1\n      revert\n    tag_291:\n        /* \"contracts/protocol/Market.sol\":6778:6795  uint256 payAmount */\n      0x00\n        /* \"contracts/protocol/Market.sol\":6807:6811  debt */\n      dup2\n        /* \"contracts/protocol/Market.sol\":6798:6804  amount */\n      dup6\n        /* \"contracts/protocol/Market.sol\":6798:6811  amount > debt */\n      gt\n        /* \"contracts/protocol/Market.sol\":6798:6827  amount > debt ? debt : amount */\n      tag_293\n      jumpi\n        /* \"contracts/protocol/Market.sol\":6821:6827  amount */\n      dup5\n        /* \"contracts/protocol/Market.sol\":6798:6827  amount > debt ? debt : amount */\n      jump(tag_294)\n    tag_293:\n        /* \"contracts/protocol/Market.sol\":6814:6818  debt */\n      dup2\n        /* \"contracts/protocol/Market.sol\":6798:6827  amount > debt ? debt : amount */\n    tag_294:\n        /* \"contracts/protocol/Market.sol\":6778:6827  uint256 payAmount = amount > debt ? debt : amount */\n      swap1\n      pop\n        /* \"contracts/protocol/Market.sol\":6837:6846  loanToken */\n      0x01\n      0x00\n      swap1\n      sload\n      swap1\n      0x0100\n      exp\n      swap1\n      div\n      0xffffffffffffffffffffffffffffffffffffffff\n      and\n        /* \"contracts/protocol/Market.sol\":6837:6859  loanToken.transferFrom */\n      0xffffffffffffffffffffffffffffffffffffffff\n      and\n      0x23b872dd\n        /* \"contracts/protocol/Market.sol\":6860:6870  msg.sender */\n      caller\n        /* \"contracts/protocol/Market.sol\":6880:6884  this */\n      address\n        /* \"contracts/protocol/Market.sol\":6887:6896  payAmount */\n      dup5\n        /* \"contracts/protocol/Market.sol\":6837:6897  loanToken.transferFrom(msg.sender, address(this), payAmount) */\n      mload(0x40)\n      dup5\n      0xffffffff\n      and\n      0xe0\n      shl\n      dup2\n      mstore\n      0x04\n      add\n      tag_295\n      swap4\n      swap3\n      swap2\n      swap1\n      tag_280\n      jump\t// in\n    tag_295:\n      0x20\n      mload(0x40)\n      dup1\n      dup4\n      sub\n      dup2\n      0x00\n      dup8\n      gas\n      call\n      iszero\n      dup1\n      iszero\n      tag_297\n      jumpi\n      returndatacopy(0x00, 0x00, returndatasize)\n      revert(0x00, returndatasize)\n    tag_297:\n      pop\n      pop\n      pop\n      pop\n      mload(0x40)\n      returndatasize\n      not(0x1f)\n      0x1f\n      dup3\n      add\n      and\n      dup3\n      add\n      dup1\n      0x40\n      mstore\n      pop\n      dup2\n      add\n      swap1\n      tag_298\n      swap2\n      swap1\n      tag_252\n      jump\t// in\n    tag_298:\n      pop\n        /* \"contracts/protocol/Market.sol\":6907:6928  uint256 principalPaid */\n      0x00\n        /* \"contracts/protocol/Market.sol\":6945:6954  payAmount */\n      dup2\n        /* \"contracts/protocol/Market.sol\":6931:6932  p */\n      dup5\n        /* \"contracts/protocol/Market.sol\":6931:6942  p.principal */\n      0x02\n      add\n      sload\n        /* \"contracts/protocol/Market.sol\":6931:6954  p.principal > payAmount */\n      gt\n        /* \"contracts/protocol/Market.sol\":6931:6980  p.principal > payAmount ? payAmount : p.principal */\n      tag_299\n      jumpi\n        /* \"contracts/protocol/Market.sol\":6969:6970  p */\n      dup4\n        /* \"contracts/protocol/Market.sol\":6969:6980  p.principal */\n      0x02\n      add\n      sload\n        /* \"contracts/protocol/Market.sol\":6931:6980  p.principal > payAmount ? payAmount : p.principal */\n      jump(tag_300)\n    tag_299:\n        /* \"contracts/protocol/Market.sol\":6957:6966  payAmount */\n      dup2\n        /* \"contracts/protocol/Market.sol\":6931:6980  p.principal > payAmount ? payAmount : p.principal */\n    tag_300:\n        /* \"contracts/protocol/Market.sol\":6907:6980  uint256 principalPaid = p.principal > payAmount ? payAmount : p.principal */\n      swap1\n      pop\n        /* \"contracts/protocol/Market.sol\":7005:7018  principalPaid */\n      dup1\n        /* \"contracts/protocol/Market.sol\":6990:6991  p */\n      dup5\n        /* \"contracts/protocol/Market.sol\":6990:7001  p.principal */\n      0x02\n      add\n      0x00\n        /* \"contracts/protocol/Market.sol\":6990:7018  p.principal -= principalPaid */\n      dup3\n      dup3\n      sload\n      tag_301\n      swap2\n      swap1\n      tag_245\n      jump\t// in\n    tag_301:\n      swap3\n      pop\n      pop\n      dup2\n      swap1\n      sstore\n      pop\n        /* \"contracts/protocol/Market.sol\":7097:7102  10000 */\n      0x2710\n        /* \"contracts/protocol/Market.sol\":7079:7093  protocolFeeBps */\n      sload(0x0b)\n        /* \"contracts/protocol/Market.sol\":7062:7075  principalPaid */\n      dup3\n        /* \"contracts/protocol/Market.sol\":7050:7059  payAmount */\n      dup5\n        /* \"contracts/protocol/Market.sol\":7050:7075  payAmount - principalPaid */\n      tag_302\n      swap2\n      swap1\n      tag_245\n      jump\t// in\n    tag_302:\n        /* \"contracts/protocol/Market.sol\":7049:7093  (payAmount - principalPaid) * protocolFeeBps */\n      tag_303\n      swap2\n      swap1\n      tag_241\n      jump\t// in\n    tag_303:\n        /* \"contracts/protocol/Market.sol\":7048:7102  ((payAmount - principalPaid) * protocolFeeBps) / 10000 */\n      tag_304\n      swap2\n      swap1\n      tag_243\n      jump\t// in\n    tag_304:\n        /* \"contracts/protocol/Market.sol\":7028:7044  protocolReserves */\n      0x11\n      0x00\n        /* \"contracts/protocol/Market.sol\":7028:7102  protocolReserves += ((payAmount - principalPaid) * protocolFeeBps) / 10000 */\n      dup3\n      dup3\n      sload\n      tag_305\n      swap2\n      swap1\n      tag_285\n      jump\t// in\n    tag_305:\n      swap3\n      pop\n      pop\n      dup2\n      swap1\n      sstore\n      pop\n        /* \"contracts/protocol/Market.sol\":7112:7130  uint256 burnShares */\n      0x00\n        /* \"contracts/protocol/Market.sol\":7146:7150  debt */\n      dup4\n        /* \"contracts/protocol/Market.sol\":7133:7142  payAmount */\n      dup4\n        /* \"contracts/protocol/Market.sol\":7133:7150  payAmount == debt */\n      eq\n        /* \"contracts/protocol/Market.sol\":7133:7209  payAmount == debt ? p.borrowShares : (payAmount * INDEX_SCALE) / borrowIndex */\n      tag_306\n      jumpi\n        /* \"contracts/protocol/Market.sol\":7198:7209  borrowIndex */\n      sload(0x0e)\n        /* \"contracts/protocol/Market.sol\":516:520  1e18 */\n      0x0de0b6b3a7640000\n        /* \"contracts/protocol/Market.sol\":7171:7180  payAmount */\n      dup5\n        /* \"contracts/protocol/Market.sol\":7171:7194  payAmount * INDEX_SCALE */\n      tag_307\n      swap2\n      swap1\n      tag_241\n      jump\t// in\n    tag_307:\n        /* \"contracts/protocol/Market.sol\":7170:7209  (payAmount * INDEX_SCALE) / borrowIndex */\n      tag_308\n      swap2\n      swap1\n      tag_243\n      jump\t// in\n    tag_308:\n        /* \"contracts/protocol/Market.sol\":7133:7209  payAmount == debt ? p.borrowShares : (payAmount * INDEX_SCALE) / borrowIndex */\n      jump(tag_309)\n    tag_306:\n        /* \"contracts/protocol/Market.sol\":7153:7154  p */\n      dup5\n        /* \"contracts/protocol/Market.sol\":7153:7167  p.borrowShares */\n      0x01\n      add\n      sload\n        /* \"contracts/protocol/Market.sol\":7133:7209  payAmount == debt ? p.borrowShares : (payAmount * INDEX_SCALE) / borrowIndex */\n    tag_309:\n        /* \"contracts/protocol/Market.sol\":7112:7209  uint256 burnShares = payAmount == debt ? p.borrowShares : (payAmount * INDEX_SCALE) / borrowIndex */\n      swap1\n      pop\n        /* \"contracts/protocol/Market.sol\":7236:7237  p */\n      dup5\n        /* \"contracts/protocol/Market.sol\":7236:7250  p.borrowShares */\n      0x01\n      add\n      sload\n        /* \"contracts/protocol/Market.sol\":7223:7233  burnShares */\n      dup2\n        /* \"contracts/protocol/Market.sol\":7223:7250  burnShares > p.borrowShares */\n      gt\n        /* \"contracts/protocol/Market.sol\":7219:7279  if (burnShares > p.borrowShares) burnShares = p.borrowShares */\n      iszero\n      tag_310\n      jumpi\n        /* \"contracts/protocol/Market.sol\":7265:7266  p */\n      dup5\n        /* \"contracts/protocol/Market.sol\":7265:7279  p.borrowShares */\n      0x01\n      add\n      sload\n        /* \"contracts/protocol/Market.sol\":7252:7279  burnShares = p.borrowShares */\n      swap1\n      pop\n        /* \"contracts/protocol/Market.sol\":7219:7279  if (burnShares > p.borrowShares) burnShares = p.borrowShares */\n    tag_310:\n        /* \"contracts/protocol/Market.sol\":7307:7317  burnShares */\n      dup1\n        /* \"contracts/protocol/Market.sol\":7289:7290  p */\n      dup6\n        /* \"contracts/protocol/Market.sol\":7289:7303  p.borrowShares */\n      0x01\n      add\n      0x00\n        /* \"contracts/protocol/Market.sol\":7289:7317  p.borrowShares -= burnShares */\n      dup3\n      dup3\n      sload\n      tag_311\n      swap2\n      swap1\n      tag_245\n      jump\t// in\n    tag_311:\n      swap3\n      pop\n      pop\n      dup2\n      swap1\n      sstore\n      pop\n        /* \"contracts/protocol/Market.sol\":7348:7358  burnShares */\n      dup1\n        /* \"contracts/protocol/Market.sol\":7327:7344  totalBorrowShares */\n      0x10\n      0x00\n        /* \"contracts/protocol/Market.sol\":7327:7358  totalBorrowShares -= burnShares */\n      dup3\n      dup3\n      sload\n      tag_312\n      swap2\n      swap1\n      tag_245\n      jump\t// in\n    tag_312:\n      swap3\n      pop\n      pop\n      dup2\n      swap1\n      sstore\n      pop\n        /* \"contracts/protocol/Market.sol\":7384:7402  debtOf(msg.sender) */\n      tag_313\n        /* \"contracts/protocol/Market.sol\":7391:7401  msg.sender */\n      caller\n        /* \"contracts/protocol/Market.sol\":7384:7390  debtOf */\n      tag_206\n        /* \"contracts/protocol/Market.sol\":7384:7402  debtOf(msg.sender) */\n      jump\t// in\n    tag_313:\n        /* \"contracts/protocol/Market.sol\":7368:7402  remainingDebt = debtOf(msg.sender) */\n      swap6\n      pop\n        /* \"contracts/protocol/Market.sol\":6565:7409  {... */\n      pop\n      pop\n      pop\n      pop\n      pop\n        /* \"contracts/protocol/Market.sol\":6493:7409  function repay(uint256 amount) external returns (uint256 remainingDebt) {... */\n      swap2\n      swap1\n      pop\n      jump\t// out\n        /* \"contracts/protocol/Market.sol\":8191:8376  function onVaultWithdraw(uint256 amount) external onlyVault {... */\n    tag_97:\n        /* \"contracts/protocol/Market.sol\":2100:2105  vault */\n      0x06\n      0x00\n      swap1\n      sload\n      swap1\n      0x0100\n      exp\n      swap1\n      div\n      0xffffffffffffffffffffffffffffffffffffffff\n      and\n        /* \"contracts/protocol/Market.sol\":2086:2105  msg.sender == vault */\n      0xffffffffffffffffffffffffffffffffffffffff\n      and\n        /* \"contracts/protocol/Market.sol\":2086:2096  msg.sender */\n      caller\n        /* \"contracts/protocol/Market.sol\":2086:2105  msg.sender == vault */\n      0xffffffffffffffffffffffffffffffffffffffff\n      and\n      eq\n        /* \"contracts/protocol/Market.sol\":2078:2119  require(msg.sender == vault, \"NOT_VAULT\") */\n      tag_315\n      jumpi\n      mload(0x40)\n      0x08c379a000000000000000000000000000000000000000000000000000000000\n      dup2\n      mstore\n      0x04\n      add\n      tag_316\n      swap1\n      tag_317\n      jump\t// in\n    tag_316:\n      mload(0x40)\n      dup1\n      swap2\n      sub\n      swap1\n      revert\n    tag_315:\n        /* \"contracts/protocol/Market.sol\":8279:8299  availableLiquidity() */\n      tag_319\n        /* \"contracts/protocol/Market.sol\":8279:8297  availableLiquidity */\n      tag_147\n        /* \"contracts/protocol/Market.sol\":8279:8299  availableLiquidity() */\n      jump\t// in\n    tag_319:\n        /* \"contracts/protocol/Market.sol\":8269:8275  amount */\n      dup2\n        /* \"contracts/protocol/Market.sol\":8269:8299  amount <= availableLiquidity() */\n      gt\n      iszero\n        /* \"contracts/protocol/Market.sol\":8261:8326  require(amount <= availableLiquidity(), \"INSUFFICIENT_LIQUIDITY\") */\n      tag_320\n      jumpi\n      mload(0x40)\n      0x08c379a000000000000000000000000000000000000000000000000000000000\n      dup2\n      mstore\n      0x04\n      add\n      tag_321\n      swap1\n      tag_322\n      jump\t// in\n    tag_321:\n      mload(0x40)\n      dup1\n      swap2\n      sub\n      swap1\n      revert\n    tag_320:\n        /* \"contracts/protocol/Market.sol\":8336:8345  loanToken */\n      0x01\n      0x00\n      swap1\n      sload\n      swap1\n      0x0100\n      exp\n      swap1\n      div\n      0xffffffffffffffffffffffffffffffffffffffff\n      and\n        /* \"contracts/protocol/Market.sol\":8336:8354  loanToken.transfer */\n      0xffffffffffffffffffffffffffffffffffffffff\n      and\n      0xa9059cbb\n        /* \"contracts/protocol/Market.sol\":8355:8360  vault */\n      0x06\n      0x00\n      swap1\n      sload\n      swap1\n      0x0100\n      exp\n      swap1\n      div\n      0xffffffffffffffffffffffffffffffffffffffff\n      and\n        /* \"contracts/protocol/Market.sol\":8362:8368  amount */\n      dup4\n        /* \"contracts/protocol/Market.sol\":8336:8369  loanToken.transfer(vault, amount) */\n      mload(0x40)\n      dup4\n      0xffffffff\n      and\n      0xe0\n      shl\n      dup2\n      mstore\n      0x04\n      add\n      tag_323\n      swap3\n      swap2\n      swap1\n      tag_248\n      jump\t// in\n    tag_323:\n      0x20\n      mload(0x40)\n      dup1\n      dup4\n      sub\n      dup2\n      0x00\n      dup8\n      gas\n      call\n      iszero\n      dup1\n      iszero\n      tag_325\n      jumpi\n      returndatacopy(0x00, 0x00, returndatasize)\n      revert(0x00, returndatasize)\n    tag_325:\n      pop\n      pop\n      pop\n      pop\n      mload(0x40)\n      returndatasize\n      not(0x1f)\n      0x1f\n      dup3\n      add\n      and\n      dup3\n      add\n      dup1\n      0x40\n      mstore\n      pop\n      dup2\n      add\n      swap1\n      tag_326\n      swap2\n      swap1\n      tag_252\n      jump\t// in\n    tag_326:\n      pop\n        /* \"contracts/protocol/Market.sol\":8191:8376  function onVaultWithdraw(uint256 amount) external onlyVault {... */\n      pop\n      jump\t// out\n        /* \"contracts/protocol/Market.sol\":1533:1558  address public liquidator */\n    tag_100:\n      0x08\n      0x00\n      swap1\n      sload\n      swap1\n      0x0100\n      exp\n      swap1\n      div\n      0xffffffffffffffffffffffffffffffffffffffff\n      and\n      dup2\n      jump\t// out\n        /* \"contracts/protocol/Market.sol\":1424:1443  string public title */\n    tag_105:\n      0x04\n      dup1\n      sload\n      tag_327\n      swap1\n      tag_328\n      jump\t// in\n    tag_327:\n      dup1\n      0x1f\n      add\n      0x20\n      dup1\n      swap2\n      div\n      mul\n      0x20\n      add\n      mload(0x40)\n      swap1\n      dup2\n      add\n      0x40\n      mstore\n      dup1\n      swap3\n      swap2\n      swap1\n      dup2\n      dup2\n      mstore\n      0x20\n      add\n      dup3\n      dup1\n      sload\n      tag_329\n      swap1\n      tag_328\n      jump\t// in\n    tag_329:\n      dup1\n      iszero\n      tag_330\n      jumpi\n      dup1\n      0x1f\n      lt\n      tag_331\n      jumpi\n      0x0100\n      dup1\n      dup4\n      sload\n      div\n      mul\n      dup4\n      mstore\n      swap2\n      0x20\n      add\n      swap2\n      jump(tag_330)\n    tag_331:\n      dup3\n      add\n      swap2\n      swap1\n      0x00\n      mstore\n      keccak256(0x00, 0x20)\n      swap1\n    tag_332:\n      dup2\n      sload\n      dup2\n      mstore\n      swap1\n      0x01\n      add\n      swap1\n      0x20\n      add\n      dup1\n      dup4\n      gt\n      tag_332\n      jumpi\n      dup3\n      swap1\n      sub\n      0x1f\n      and\n      dup3\n      add\n      swap2\n    tag_330:\n      pop\n      pop\n      pop\n      pop\n      pop\n      dup2\n      jump\t// out\n        /* \"contracts/protocol/Market.sol\":8131:8185  function onVaultDeposit(uint256) external onlyVault {} */\n    tag_111:\n        /* \"contracts/protocol/Market.sol\":2100:2105  vault */\n      0x06\n      0x00\n      swap1\n      sload\n      swap1\n      0x0100\n      exp\n      swap1\n      div\n      0xffffffffffffffffffffffffffffffffffffffff\n      and\n        /* \"contracts/protocol/Market.sol\":2086:2105  msg.sender == vault */\n      0xffffffffffffffffffffffffffffffffffffffff\n      and\n        /* \"contracts/protocol/Market.sol\":2086:2096  msg.sender */\n      caller\n        /* \"contracts/protocol/Market.sol\":2086:2105  msg.sender == vault */\n      0xffffffffffffffffffffffffffffffffffffffff\n      and\n      eq\n        /* \"contracts/protocol/Market.sol\":2078:2119  require(msg.sender == vault, \"NOT_VAULT\") */\n      tag_334\n      jumpi\n      mload(0x40)\n      0x08c379a000000000000000000000000000000000000000000000000000000000\n      dup2\n      mstore\n      0x04\n      add\n      tag_335\n      swap1\n      tag_317\n      jump\t// in\n    tag_335:\n      mload(0x40)\n      dup1\n      swap2\n      sub\n      swap1\n      revert\n    tag_334:\n        /* \"contracts/protocol/Market.sol\":8131:8185  function onVaultDeposit(uint256) external onlyVault {} */\n      pop\n      jump\t// out\n        /* \"contracts/proxy/UUPSUpgradeable.sol\":2028:2240  function upgradeToAndCall(address newImplementation, bytes calldata data) external payable onlyProxy {... */\n    tag_115:\n        /* \"contracts/proxy/UUPSUpgradeable.sol\":1200:1206  __self */\n      immutable(\"0x10799ed351f1df4ff4762868bcc7c50d97bda88611d64914f3777e66c054a3\")\n        /* \"contracts/proxy/UUPSUpgradeable.sol\":1183:1206  address(this) != __self */\n      0xffffffffffffffffffffffffffffffffffffffff\n      and\n        /* \"contracts/proxy/UUPSUpgradeable.sol\":1191:1195  this */\n      address\n        /* \"contracts/proxy/UUPSUpgradeable.sol\":1183:1206  address(this) != __self */\n      0xffffffffffffffffffffffffffffffffffffffff\n      and\n      sub\n        /* \"contracts/proxy/UUPSUpgradeable.sol\":1175:1227  require(address(this) != __self, \"NOT_DELEGATECALL\") */\n      tag_338\n      jumpi\n      mload(0x40)\n      0x08c379a000000000000000000000000000000000000000000000000000000000\n      dup2\n      mstore\n      0x04\n      add\n      tag_339\n      swap1\n      tag_264\n      jump\t// in\n    tag_339:\n      mload(0x40)\n      dup1\n      swap2\n      sub\n      swap1\n      revert\n    tag_338:\n        /* \"contracts/proxy/UUPSUpgradeable.sol\":1269:1275  __self */\n      immutable(\"0x10799ed351f1df4ff4762868bcc7c50d97bda88611d64914f3777e66c054a3\")\n        /* \"contracts/proxy/UUPSUpgradeable.sol\":1245:1275  _getImplementation() == __self */\n      0xffffffffffffffffffffffffffffffffffffffff\n      and\n        /* \"contracts/proxy/UUPSUpgradeable.sol\":1245:1265  _getImplementation() */\n      tag_340\n        /* \"contracts/proxy/UUPSUpgradeable.sol\":1245:1263  _getImplementation */\n      tag_266\n        /* \"contracts/proxy/UUPSUpgradeable.sol\":1245:1265  _getImplementation() */\n      jump\t// in\n    tag_340:\n        /* \"contracts/proxy/UUPSUpgradeable.sol\":1245:1275  _getImplementation() == __self */\n      0xffffffffffffffffffffffffffffffffffffffff\n      and\n      eq\n        /* \"contracts/proxy/UUPSUpgradeable.sol\":1237:1294  require(_getImplementation() == __self, \"INACTIVE_PROXY\") */\n      tag_341\n      jumpi\n      mload(0x40)\n      0x08c379a000000000000000000000000000000000000000000000000000000000\n      dup2\n      mstore\n      0x04\n      add\n      tag_342\n      swap1\n      tag_269\n      jump\t// in\n    tag_342:\n      mload(0x40)\n      dup1\n      swap2\n      sub\n      swap1\n      revert\n    tag_341:\n        /* \"contracts/proxy/UUPSUpgradeable.sol\":2139:2175  _authorizeUpgrade(newImplementation) */\n      tag_344\n        /* \"contracts/proxy/UUPSUpgradeable.sol\":2157:2174  newImplementation */\n      dup4\n        /* \"contracts/proxy/UUPSUpgradeable.sol\":2139:2156  _authorizeUpgrade */\n      tag_272\n        /* \"contracts/proxy/UUPSUpgradeable.sol\":2139:2175  _authorizeUpgrade(newImplementation) */\n      jump\t// in\n    tag_344:\n        /* \"contracts/proxy/UUPSUpgradeable.sol\":2185:2233  _upgradeToAndCall(newImplementation, data, true) */\n      tag_345\n        /* \"contracts/proxy/UUPSUpgradeable.sol\":2203:2220  newImplementation */\n      dup4\n        /* \"contracts/proxy/UUPSUpgradeable.sol\":2222:2226  data */\n      dup4\n      dup4\n        /* \"contracts/proxy/UUPSUpgradeable.sol\":2185:2233  _upgradeToAndCall(newImplementation, data, true) */\n      dup1\n      dup1\n      0x1f\n      add\n      0x20\n      dup1\n      swap2\n      div\n      mul\n      0x20\n      add\n      mload(0x40)\n      swap1\n      dup2\n      add\n      0x40\n      mstore\n      dup1\n      swap4\n      swap3\n      swap2\n      swap1\n      dup2\n      dup2\n      mstore\n      0x20\n      add\n      dup4\n      dup4\n      dup1\n      dup3\n      dup5\n      calldatacopy\n      0x00\n      dup2\n      dup5\n      add\n      mstore\n      not(0x1f)\n      0x1f\n      dup3\n      add\n      and\n      swap1\n      pop\n      dup1\n      dup4\n      add\n      swap3\n      pop\n      pop\n      pop\n      pop\n      pop\n      pop\n      pop\n        /* \"contracts/proxy/UUPSUpgradeable.sol\":2228:2232  true */\n      0x01\n        /* \"contracts/proxy/UUPSUpgradeable.sol\":2185:2202  _upgradeToAndCall */\n      tag_274\n        /* \"contracts/proxy/UUPSUpgradeable.sol\":2185:2233  _upgradeToAndCall(newImplementation, data, true) */\n      jump\t// in\n    tag_345:\n        /* \"contracts/proxy/UUPSUpgradeable.sol\":2028:2240  function upgradeToAndCall(address newImplementation, bytes calldata data) external payable onlyProxy {... */\n      pop\n      pop\n      pop\n      jump\t// out\n        /* \"contracts/proxy/UUPSUpgradeable.sol\":1577:1690  function proxiableUUID() external view notDelegated returns (bytes32) {... */\n    tag_118:\n        /* \"contracts/proxy/UUPSUpgradeable.sol\":1638:1645  bytes32 */\n      0x00\n        /* \"contracts/proxy/UUPSUpgradeable.sol\":1471:1477  __self */\n      immutable(\"0x10799ed351f1df4ff4762868bcc7c50d97bda88611d64914f3777e66c054a3\")\n        /* \"contracts/proxy/UUPSUpgradeable.sol\":1454:1477  address(this) == __self */\n      0xffffffffffffffffffffffffffffffffffffffff\n      and\n        /* \"contracts/proxy/UUPSUpgradeable.sol\":1462:1466  this */\n      address\n        /* \"contracts/proxy/UUPSUpgradeable.sol\":1454:1477  address(this) == __self */\n      0xffffffffffffffffffffffffffffffffffffffff\n      and\n      eq\n        /* \"contracts/proxy/UUPSUpgradeable.sol\":1446:1501  require(address(this) == __self, \"ONLY_IMPLEMENTATION\") */\n      tag_347\n      jumpi\n      mload(0x40)\n      0x08c379a000000000000000000000000000000000000000000000000000000000\n      dup2\n      mstore\n      0x04\n      add\n      tag_348\n      swap1\n      tag_349\n      jump\t// in\n    tag_348:\n      mload(0x40)\n      dup1\n      swap2\n      sub\n      swap1\n      revert\n    tag_347:\n        /* \"contracts/proxy/UUPSUpgradeable.sol\":793:859  0x360894A13BA1A3210667C828492DB98DCA3E2076CC3735A920A3CA505D382BBC */\n      0x360894a13ba1a3210667c828492db98dca3e2076cc3735a920a3ca505d382bbc\n        /* \"contracts/proxy/UUPSUpgradeable.sol\":1664:1683  IMPLEMENTATION_SLOT */\n      0x00\n      shl\n        /* \"contracts/proxy/UUPSUpgradeable.sol\":1657:1683  return IMPLEMENTATION_SLOT */\n      swap1\n      pop\n        /* \"contracts/proxy/UUPSUpgradeable.sol\":1577:1690  function proxiableUUID() external view notDelegated returns (bytes32) {... */\n      swap1\n      jump\t// out\n        /* \"contracts/protocol/Market.sol\":1877:1922  mapping(address => Position) public positions */\n    tag_124:\n      mstore(0x20, 0x12)\n      dup1\n      0x00\n      mstore\n      keccak256(0x00, 0x40)\n      0x00\n      swap2\n      pop\n      swap1\n      pop\n      dup1\n      0x00\n      add\n      sload\n      swap1\n      dup1\n      0x01\n      add\n      sload\n      swap1\n      dup1\n      0x02\n      add\n      sload\n      swap1\n      pop\n      dup4\n      jump\t// out\n        /* \"contracts/protocol/Market.sol\":5557:5966  function withdrawCollateral(uint256 amount) external {... */\n    tag_130:\n        /* \"contracts/protocol/Market.sol\":5637:5638  0 */\n      0x00\n        /* \"contracts/protocol/Market.sol\":5628:5634  amount */\n      dup2\n        /* \"contracts/protocol/Market.sol\":5628:5638  amount > 0 */\n      gt\n        /* \"contracts/protocol/Market.sol\":5620:5654  require(amount > 0, \"ZERO_AMOUNT\") */\n      tag_352\n      jumpi\n      mload(0x40)\n      0x08c379a000000000000000000000000000000000000000000000000000000000\n      dup2\n      mstore\n      0x04\n      add\n      tag_353\n      swap1\n      tag_278\n      jump\t// in\n    tag_353:\n      mload(0x40)\n      dup1\n      swap2\n      sub\n      swap1\n      revert\n    tag_352:\n        /* \"contracts/protocol/Market.sol\":5664:5680  accrueInterest() */\n      tag_354\n        /* \"contracts/protocol/Market.sol\":5664:5678  accrueInterest */\n      tag_172\n        /* \"contracts/protocol/Market.sol\":5664:5680  accrueInterest() */\n      jump\t// in\n    tag_354:\n        /* \"contracts/protocol/Market.sol\":5690:5708  Position storage p */\n      0x00\n        /* \"contracts/protocol/Market.sol\":5711:5720  positions */\n      0x12\n        /* \"contracts/protocol/Market.sol\":5711:5732  positions[msg.sender] */\n      0x00\n        /* \"contracts/protocol/Market.sol\":5721:5731  msg.sender */\n      caller\n        /* \"contracts/protocol/Market.sol\":5711:5732  positions[msg.sender] */\n      0xffffffffffffffffffffffffffffffffffffffff\n      and\n      0xffffffffffffffffffffffffffffffffffffffff\n      and\n      dup2\n      mstore\n      0x20\n      add\n      swap1\n      dup2\n      mstore\n      0x20\n      add\n      0x00\n      keccak256\n        /* \"contracts/protocol/Market.sol\":5690:5732  Position storage p = positions[msg.sender] */\n      swap1\n      pop\n        /* \"contracts/protocol/Market.sol\":5760:5761  p */\n      dup1\n        /* \"contracts/protocol/Market.sol\":5760:5778  p.collateralShares */\n      0x00\n      add\n      sload\n        /* \"contracts/protocol/Market.sol\":5750:5756  amount */\n      dup3\n        /* \"contracts/protocol/Market.sol\":5750:5778  amount <= p.collateralShares */\n      gt\n      iszero\n        /* \"contracts/protocol/Market.sol\":5742:5801  require(amount <= p.collateralShares, \"EXCEEDS_COLLATERAL\") */\n      tag_355\n      jumpi\n      mload(0x40)\n      0x08c379a000000000000000000000000000000000000000000000000000000000\n      dup2\n      mstore\n      0x04\n      add\n      tag_356\n      swap1\n      tag_357\n      jump\t// in\n    tag_356:\n      mload(0x40)\n      dup1\n      swap2\n      sub\n      swap1\n      revert\n    tag_355:\n        /* \"contracts/protocol/Market.sol\":5833:5839  amount */\n      dup2\n        /* \"contracts/protocol/Market.sol\":5811:5812  p */\n      dup2\n        /* \"contracts/protocol/Market.sol\":5811:5829  p.collateralShares */\n      0x00\n      add\n      0x00\n        /* \"contracts/protocol/Market.sol\":5811:5839  p.collateralShares -= amount */\n      dup3\n      dup3\n      sload\n      tag_358\n      swap2\n      swap1\n      tag_245\n      jump\t// in\n    tag_358:\n      swap3\n      pop\n      pop\n      dup2\n      swap1\n      sstore\n      pop\n        /* \"contracts/protocol/Market.sol\":5857:5879  _isHealthy(msg.sender) */\n      tag_359\n        /* \"contracts/protocol/Market.sol\":5868:5878  msg.sender */\n      caller\n        /* \"contracts/protocol/Market.sol\":5857:5867  _isHealthy */\n      tag_232\n        /* \"contracts/protocol/Market.sol\":5857:5879  _isHealthy(msg.sender) */\n      jump\t// in\n    tag_359:\n        /* \"contracts/protocol/Market.sol\":5849:5905  require(_isHealthy(msg.sender), \"WOULD_BE_LIQUIDATABLE\") */\n      tag_360\n      jumpi\n      mload(0x40)\n      0x08c379a000000000000000000000000000000000000000000000000000000000\n      dup2\n      mstore\n      0x04\n      add\n      tag_361\n      swap1\n      tag_362\n      jump\t// in\n    tag_361:\n      mload(0x40)\n      dup1\n      swap2\n      sub\n      swap1\n      revert\n    tag_360:\n        /* \"contracts/protocol/Market.sol\":5915:5930  collateralToken */\n      0x02\n      0x00\n      swap1\n      sload\n      swap1\n      0x0100\n      exp\n      swap1\n      div\n      0xffffffffffffffffffffffffffffffffffffffff\n      and\n        /* \"contracts/protocol/Market.sol\":5915:5939  collateralToken.transfer */\n      0xffffffffffffffffffffffffffffffffffffffff\n      and\n      0xa9059cbb\n        /* \"contracts/protocol/Market.sol\":5940:5950  msg.sender */\n      caller\n        /* \"contracts/protocol/Market.sol\":5952:5958  amount */\n      dup5\n        /* \"contracts/protocol/Market.sol\":5915:5959  collateralToken.transfer(msg.sender, amount) */\n      mload(0x40)\n      dup4\n      0xffffffff\n      and\n      0xe0\n      shl\n      dup2\n      mstore\n      0x04\n      add\n      tag_363\n      swap3\n      swap2\n      swap1\n      tag_248\n      jump\t// in\n    tag_363:\n      0x20\n      mload(0x40)\n      dup1\n      dup4\n      sub\n      dup2\n      0x00\n      dup8\n      gas\n      call\n      iszero\n      dup1\n      iszero\n      tag_365\n      jumpi\n      returndatacopy(0x00, 0x00, returndatasize)\n      revert(0x00, returndatasize)\n    tag_365:\n      pop\n      pop\n      pop\n      pop\n      mload(0x40)\n      returndatasize\n      not(0x1f)\n      0x1f\n      dup3\n      add\n      and\n      dup3\n      add\n      dup1\n      0x40\n      mstore\n      pop\n      dup2\n      add\n      swap1\n      tag_366\n      swap2\n      swap1\n      tag_252\n      jump\t// in\n    tag_366:\n      pop\n        /* \"contracts/protocol/Market.sol\":5610:5966  {... */\n      pop\n        /* \"contracts/protocol/Market.sol\":5557:5966  function withdrawCollateral(uint256 amount) external {... */\n      pop\n      jump\t// out\n        /* \"contracts/protocol/Market.sol\":1504:1527  address public treasury */\n    tag_133:\n      0x07\n      0x00\n      swap1\n      sload\n      swap1\n      0x0100\n      exp\n      swap1\n      div\n      0xffffffffffffffffffffffffffffffffffffffff\n      and\n      dup2\n      jump\t// out\n        /* \"contracts/protocol/Market.sol\":4549:5088  function currentLtvBps(address borrower) public view returns (uint256) {... */\n    tag_138:\n        /* \"contracts/protocol/Market.sol\":4611:4618  uint256 */\n      0x00\n        /* \"contracts/protocol/Market.sol\":4630:4648  Position storage p */\n      0x00\n        /* \"contracts/protocol/Market.sol\":4651:4660  positions */\n      0x12\n        /* \"contracts/protocol/Market.sol\":4651:4670  positions[borrower] */\n      0x00\n        /* \"contracts/protocol/Market.sol\":4661:4669  borrower */\n      dup5\n        /* \"contracts/protocol/Market.sol\":4651:4670  positions[borrower] */\n      0xffffffffffffffffffffffffffffffffffffffff\n      and\n      0xffffffffffffffffffffffffffffffffffffffff\n      and\n      dup2\n      mstore\n      0x20\n      add\n      swap1\n      dup2\n      mstore\n      0x20\n      add\n      0x00\n      keccak256\n        /* \"contracts/protocol/Market.sol\":4630:4670  Position storage p = positions[borrower] */\n      swap1\n      pop\n        /* \"contracts/protocol/Market.sol\":4680:4692  uint256 debt */\n      0x00\n        /* \"contracts/protocol/Market.sol\":4695:4711  debtOf(borrower) */\n      tag_368\n        /* \"contracts/protocol/Market.sol\":4702:4710  borrower */\n      dup5\n        /* \"contracts/protocol/Market.sol\":4695:4701  debtOf */\n      tag_206\n        /* \"contracts/protocol/Market.sol\":4695:4711  debtOf(borrower) */\n      jump\t// in\n    tag_368:\n        /* \"contracts/protocol/Market.sol\":4680:4711  uint256 debt = debtOf(borrower) */\n      swap1\n      pop\n        /* \"contracts/protocol/Market.sol\":4733:4734  0 */\n      0x00\n        /* \"contracts/protocol/Market.sol\":4725:4729  debt */\n      dup2\n        /* \"contracts/protocol/Market.sol\":4725:4734  debt == 0 */\n      sub\n        /* \"contracts/protocol/Market.sol\":4721:4744  if (debt == 0) return 0 */\n      tag_369\n      jumpi\n        /* \"contracts/protocol/Market.sol\":4743:4744  0 */\n      0x00\n        /* \"contracts/protocol/Market.sol\":4736:4744  return 0 */\n      swap3\n      pop\n      pop\n      pop\n      jump(tag_367)\n        /* \"contracts/protocol/Market.sol\":4721:4744  if (debt == 0) return 0 */\n    tag_369:\n        /* \"contracts/protocol/Market.sol\":4780:4781  0 */\n      0x00\n        /* \"contracts/protocol/Market.sol\":4758:4759  p */\n      dup3\n        /* \"contracts/protocol/Market.sol\":4758:4776  p.collateralShares */\n      0x00\n      add\n      sload\n        /* \"contracts/protocol/Market.sol\":4758:4781  p.collateralShares == 0 */\n      sub\n        /* \"contracts/protocol/Market.sol\":4754:4807  if (p.collateralShares == 0) return type(uint256).max */\n      tag_370\n      jumpi\n        /* \"contracts/protocol/Market.sol\":4790:4807  type(uint256).max */\n      0xffffffffffffffffffffffffffffffffffffffffffffffffffffffffffffffff\n        /* \"contracts/protocol/Market.sol\":4783:4807  return type(uint256).max */\n      swap3\n      pop\n      pop\n      pop\n      jump(tag_367)\n        /* \"contracts/protocol/Market.sol\":4754:4807  if (p.collateralShares == 0) return type(uint256).max */\n    tag_370:\n        /* \"contracts/protocol/Market.sol\":4817:4834  uint256 debtValue */\n      0x00\n        /* \"contracts/protocol/Market.sol\":4837:4874  _tokenValue(debt, address(loanToken)) */\n      tag_371\n        /* \"contracts/protocol/Market.sol\":4849:4853  debt */\n      dup3\n        /* \"contracts/protocol/Market.sol\":4863:4872  loanToken */\n      0x01\n      0x00\n      swap1\n      sload\n      swap1\n      0x0100\n      exp\n      swap1\n      div\n      0xffffffffffffffffffffffffffffffffffffffff\n      and\n        /* \"contracts/protocol/Market.sol\":4837:4848  _tokenValue */\n      tag_372\n        /* \"contracts/protocol/Market.sol\":4837:4874  _tokenValue(debt, address(loanToken)) */\n      jump\t// in\n    tag_371:\n        /* \"contracts/protocol/Market.sol\":4817:4874  uint256 debtValue = _tokenValue(debt, address(loanToken)) */\n      swap1\n      pop\n        /* \"contracts/protocol/Market.sol\":4884:4907  uint256 collateralValue */\n      0x00\n        /* \"contracts/protocol/Market.sol\":4910:4967  _tokenValue(p.collateralShares, address(collateralToken)) */\n      tag_373\n        /* \"contracts/protocol/Market.sol\":4922:4923  p */\n      dup5\n        /* \"contracts/protocol/Market.sol\":4922:4940  p.collateralShares */\n      0x00\n      add\n      sload\n        /* \"contracts/protocol/Market.sol\":4950:4965  collateralToken */\n      0x02\n      0x00\n      swap1\n      sload\n      swap1\n      0x0100\n      exp\n      swap1\n      div\n      0xffffffffffffffffffffffffffffffffffffffff\n      and\n        /* \"contracts/protocol/Market.sol\":4910:4921  _tokenValue */\n      tag_372\n        /* \"contracts/protocol/Market.sol\":4910:4967  _tokenValue(p.collateralShares, address(collateralToken)) */\n      jump\t// in\n    tag_373:\n        /* \"contracts/protocol/Market.sol\":4884:4967  uint256 collateralValue = _tokenValue(p.collateralShares, address(collateralToken)) */\n      swap1\n      pop\n        /* \"contracts/protocol/Market.sol\":5000:5001  0 */\n      0x00\n        /* \"contracts/protocol/Market.sol\":4981:4996  collateralValue */\n      dup2\n        /* \"contracts/protocol/Market.sol\":4981:5001  collateralValue == 0 */\n      sub\n        /* \"contracts/protocol/Market.sol\":4977:5027  if (collateralValue == 0) return type(uint256).max */\n      tag_374\n      jumpi\n        /* \"contracts/protocol/Market.sol\":5010:5027  type(uint256).max */\n      0xffffffffffffffffffffffffffffffffffffffffffffffffffffffffffffffff\n        /* \"contracts/protocol/Market.sol\":5003:5027  return type(uint256).max */\n      swap5\n      pop\n      pop\n      pop\n      pop\n      pop\n      jump(tag_367)\n        /* \"contracts/protocol/Market.sol\":4977:5027  if (collateralValue == 0) return type(uint256).max */\n    tag_374:\n        /* \"contracts/protocol/Market.sol\":5066:5081  collateralValue */\n      dup1\n        /* \"contracts/protocol/Market.sol\":5057:5062  10000 */\n      0x2710\n        /* \"contracts/protocol/Market.sol\":5045:5054  debtValue */\n      dup4\n        /* \"contracts/protocol/Market.sol\":5045:5062  debtValue * 10000 */\n      tag_375\n      swap2\n      swap1\n      tag_241\n      jump\t// in\n    tag_375:\n        /* \"contracts/protocol/Market.sol\":5044:5081  (debtValue * 10000) / collateralValue */\n      tag_376\n      swap2\n      swap1\n      tag_243\n      jump\t// in\n    tag_376:\n        /* \"contracts/protocol/Market.sol\":5037:5081  return (debtValue * 10000) / collateralValue */\n      swap5\n      pop\n      pop\n      pop\n      pop\n      pop\n        /* \"contracts/protocol/Market.sol\":4549:5088  function currentLtvBps(address borrower) public view returns (uint256) {... */\n    tag_367:\n      swap2\n      swap1\n      pop\n      jump\t// out\n        /* \"contracts/protocol/Market.sol\":5094:5312  function healthFactor(address borrower) public view returns (uint256) {... */\n    tag_143:\n        /* \"contracts/protocol/Market.sol\":5155:5162  uint256 */\n      0x00\n        /* \"contracts/protocol/Market.sol\":5174:5185  uint256 ltv */\n      0x00\n        /* \"contracts/protocol/Market.sol\":5188:5211  currentLtvBps(borrower) */\n      tag_378\n        /* \"contracts/protocol/Market.sol\":5202:5210  borrower */\n      dup4\n        /* \"contracts/protocol/Market.sol\":5188:5201  currentLtvBps */\n      tag_138\n        /* \"contracts/protocol/Market.sol\":5188:5211  currentLtvBps(borrower) */\n      jump\t// in\n    tag_378:\n        /* \"contracts/protocol/Market.sol\":5174:5211  uint256 ltv = currentLtvBps(borrower) */\n      swap1\n      pop\n        /* \"contracts/protocol/Market.sol\":5232:5233  0 */\n      0x00\n        /* \"contracts/protocol/Market.sol\":5225:5228  ltv */\n      dup2\n        /* \"contracts/protocol/Market.sol\":5225:5233  ltv == 0 */\n      sub\n        /* \"contracts/protocol/Market.sol\":5221:5259  if (ltv == 0) return type(uint256).max */\n      tag_379\n      jumpi\n        /* \"contracts/protocol/Market.sol\":5242:5259  type(uint256).max */\n      0xffffffffffffffffffffffffffffffffffffffffffffffffffffffffffffffff\n        /* \"contracts/protocol/Market.sol\":5235:5259  return type(uint256).max */\n      swap2\n      pop\n      pop\n      jump(tag_377)\n        /* \"contracts/protocol/Market.sol\":5221:5259  if (ltv == 0) return type(uint256).max */\n    tag_379:\n        /* \"contracts/protocol/Market.sol\":5302:5305  ltv */\n      dup1\n        /* \"contracts/protocol/Market.sol\":516:520  1e18 */\n      0x0de0b6b3a7640000\n        /* \"contracts/protocol/Market.sol\":5277:5284  lltvBps */\n      sload(0x09)\n        /* \"contracts/protocol/Market.sol\":5277:5298  lltvBps * INDEX_SCALE */\n      tag_380\n      swap2\n      swap1\n      tag_241\n      jump\t// in\n    tag_380:\n        /* \"contracts/protocol/Market.sol\":5276:5305  (lltvBps * INDEX_SCALE) / ltv */\n      tag_381\n      swap2\n      swap1\n      tag_243\n      jump\t// in\n    tag_381:\n        /* \"contracts/protocol/Market.sol\":5269:5305  return (lltvBps * INDEX_SCALE) / ltv */\n      swap2\n      pop\n      pop\n        /* \"contracts/protocol/Market.sol\":5094:5312  function healthFactor(address borrower) public view returns (uint256) {... */\n    tag_377:\n      swap2\n      swap1\n      pop\n      jump\t// out\n        /* \"contracts/protocol/Market.sol\":3844:4038  function availableLiquidity() public view returns (uint256) {... */\n    tag_147:\n        /* \"contracts/protocol/Market.sol\":3895:3902  uint256 */\n      0x00\n        /* \"contracts/protocol/Market.sol\":3914:3925  uint256 bal */\n      0x00\n        /* \"contracts/protocol/Market.sol\":3928:3937  loanToken */\n      0x01\n      0x00\n      swap1\n      sload\n      swap1\n      0x0100\n      exp\n      swap1\n      div\n      0xffffffffffffffffffffffffffffffffffffffff\n      and\n        /* \"contracts/protocol/Market.sol\":3928:3947  loanToken.balanceOf */\n      0xffffffffffffffffffffffffffffffffffffffff\n      and\n      0x70a08231\n        /* \"contracts/protocol/Market.sol\":3956:3960  this */\n      address\n        /* \"contracts/protocol/Market.sol\":3928:3962  loanToken.balanceOf(address(this)) */\n      mload(0x40)\n      dup3\n      0xffffffff\n      and\n      0xe0\n      shl\n      dup2\n      mstore\n      0x04\n      add\n      tag_383\n      swap2\n      swap1\n      tag_102\n      jump\t// in\n    tag_383:\n      0x20\n      mload(0x40)\n      dup1\n      dup4\n      sub\n      dup2\n      dup7\n      gas\n      staticcall\n      iszero\n      dup1\n      iszero\n      tag_385\n      jumpi\n      returndatacopy(0x00, 0x00, returndatasize)\n      revert(0x00, returndatasize)\n    tag_385:\n      pop\n      pop\n      pop\n      pop\n      mload(0x40)\n      returndatasize\n      not(0x1f)\n      0x1f\n      dup3\n      add\n      and\n      dup3\n      add\n      dup1\n      0x40\n      mstore\n      pop\n      dup2\n      add\n      swap1\n      tag_386\n      swap2\n      swap1\n      tag_387\n      jump\t// in\n    tag_386:\n        /* \"contracts/protocol/Market.sol\":3914:3962  uint256 bal = loanToken.balanceOf(address(this)) */\n      swap1\n      pop\n        /* \"contracts/protocol/Market.sol\":3986:4002  protocolReserves */\n      sload(0x11)\n        /* \"contracts/protocol/Market.sol\":3979:3982  bal */\n      dup2\n        /* \"contracts/protocol/Market.sol\":3979:4002  bal <= protocolReserves */\n      gt\n      iszero\n        /* \"contracts/protocol/Market.sol\":3979:4031  bal <= protocolReserves ? 0 : bal - protocolReserves */\n      tag_388\n      jumpi\n        /* \"contracts/protocol/Market.sol\":4015:4031  protocolReserves */\n      sload(0x11)\n        /* \"contracts/protocol/Market.sol\":4009:4012  bal */\n      dup2\n        /* \"contracts/protocol/Market.sol\":4009:4031  bal - protocolReserves */\n      tag_389\n      swap2\n      swap1\n      tag_245\n      jump\t// in\n    tag_389:\n        /* \"contracts/protocol/Market.sol\":3979:4031  bal <= protocolReserves ? 0 : bal - protocolReserves */\n      jump(tag_390)\n    tag_388:\n        /* \"contracts/protocol/Market.sol\":4005:4006  0 */\n      0x00\n        /* \"contracts/protocol/Market.sol\":3979:4031  bal <= protocolReserves ? 0 : bal - protocolReserves */\n    tag_390:\n        /* \"contracts/protocol/Market.sol\":3972:4031  return bal <= protocolReserves ? 0 : bal - protocolReserves */\n      swap2\n      pop\n      pop\n        /* \"contracts/protocol/Market.sol\":3844:4038  function availableLiquidity() public view returns (uint256) {... */\n      swap1\n      jump\t// out\n        /* \"contracts/protocol/Market.sol\":1449:1472  string public shareName */\n    tag_151:\n      0x05\n      dup1\n      sload\n      tag_391\n      swap1\n      tag_328\n      jump\t// in\n    tag_391:\n      dup1\n      0x1f\n      add\n      0x20\n      dup1\n      swap2\n      div\n      mul\n      0x20\n      add\n      mload(0x40)\n      swap1\n      dup2\n      add\n      0x40\n      mstore\n      dup1\n      swap3\n      swap2\n      swap1\n      dup2\n      dup2\n      mstore\n      0x20\n      add\n      dup3\n      dup1\n      sload\n      tag_392\n      swap1\n      tag_328\n      jump\t// in\n    tag_392:\n      dup1\n      iszero\n      tag_393\n      jumpi\n      dup1\n      0x1f\n      lt\n      tag_394\n      jumpi\n      0x0100\n      dup1\n      dup4\n      sload\n      div\n      mul\n      dup4\n      mstore\n      swap2\n      0x20\n      add\n      swap2\n      jump(tag_393)\n    tag_394:\n      dup3\n      add\n      swap2\n      swap1\n      0x00\n      mstore\n      keccak256(0x00, 0x20)\n      swap1\n    tag_395:\n      dup2\n      sload\n      dup2\n      mstore\n      swap1\n      0x01\n      add\n      swap1\n      0x20\n      add\n      dup1\n      dup4\n      gt\n      tag_395\n      jumpi\n      dup3\n      swap1\n      sub\n      0x1f\n      and\n      dup3\n      add\n      swap2\n    tag_393:\n      pop\n      pop\n      pop\n      pop\n      pop\n      dup2\n      jump\t// out\n        /* \"contracts/protocol/Market.sol\":1667:1694  uint256 public interestRate */\n    tag_155:\n      sload(0x0c)\n      dup2\n      jump\t// out\n        /* \"contracts/protocol/Market.sol\":1397:1418  IOracle public oracle */\n    tag_159:\n      0x03\n      0x00\n      swap1\n      sload\n      swap1\n      0x0100\n      exp\n      swap1\n      div\n      0xffffffffffffffffffffffffffffffffffffffff\n      and\n      dup2\n      jump\t// out\n        /* \"contracts/acess/Ownable.sol\":133:153  address public owner */\n    tag_164:\n      0x00\n      0x02\n      swap1\n      sload\n      swap1\n      0x0100\n      exp\n      swap1\n      div\n      0xffffffffffffffffffffffffffffffffffffffff\n      and\n      dup2\n      jump\t// out\n        /* \"contracts/protocol/Market.sol\":1700:1728  uint256 public blocksPerYear */\n    tag_168:\n      sload(0x0d)\n      dup2\n      jump\t// out\n        /* \"contracts/protocol/Market.sol\":3452:3838  function accrueInterest() public {... */\n    tag_172:\n        /* \"contracts/protocol/Market.sol\":3515:3530  lastAccrueBlock */\n      sload(0x0f)\n        /* \"contracts/protocol/Market.sol\":3499:3511  block.number */\n      number\n        /* \"contracts/protocol/Market.sol\":3499:3530  block.number == lastAccrueBlock */\n      sub\n        /* \"contracts/protocol/Market.sol\":3495:3539  if (block.number == lastAccrueBlock) return; */\n      iszero\n        /* \"contracts/protocol/Market.sol\":3532:3539  return; */\n      tag_396\n        /* \"contracts/protocol/Market.sol\":3495:3539  if (block.number == lastAccrueBlock) return; */\n      jumpi\n        /* \"contracts/protocol/Market.sol\":3572:3573  0 */\n      0x00\n        /* \"contracts/protocol/Market.sol\":3552:3569  totalBorrowShares */\n      sload(0x10)\n        /* \"contracts/protocol/Market.sol\":3552:3573  totalBorrowShares > 0 */\n      gt\n        /* \"contracts/protocol/Market.sol\":3548:3792  if (totalBorrowShares > 0) {... */\n      iszero\n      tag_398\n      jumpi\n        /* \"contracts/protocol/Market.sol\":3589:3608  uint256 deltaBlocks */\n      0x00\n        /* \"contracts/protocol/Market.sol\":3626:3641  lastAccrueBlock */\n      sload(0x0f)\n        /* \"contracts/protocol/Market.sol\":3611:3623  block.number */\n      number\n        /* \"contracts/protocol/Market.sol\":3611:3641  block.number - lastAccrueBlock */\n      tag_399\n      swap2\n      swap1\n      tag_245\n      jump\t// in\n    tag_399:\n        /* \"contracts/protocol/Market.sol\":3589:3641  uint256 deltaBlocks = block.number - lastAccrueBlock */\n      swap1\n      pop\n        /* \"contracts/protocol/Market.sol\":3655:3669  uint256 growth */\n      0x00\n        /* \"contracts/protocol/Market.sol\":3703:3716  blocksPerYear */\n      sload(0x0d)\n        /* \"contracts/protocol/Market.sol\":3688:3699  deltaBlocks */\n      dup3\n        /* \"contracts/protocol/Market.sol\":3673:3685  interestRate */\n      sload(0x0c)\n        /* \"contracts/protocol/Market.sol\":3673:3699  interestRate * deltaBlocks */\n      tag_400\n      swap2\n      swap1\n      tag_241\n      jump\t// in\n    tag_400:\n        /* \"contracts/protocol/Market.sol\":3672:3716  (interestRate * deltaBlocks) / blocksPerYear */\n      tag_401\n      swap2\n      swap1\n      tag_243\n      jump\t// in\n    tag_401:\n        /* \"contracts/protocol/Market.sol\":3655:3716  uint256 growth = (interestRate * deltaBlocks) / blocksPerYear */\n      swap1\n      pop\n        /* \"contracts/protocol/Market.sol\":516:520  1e18 */\n      0x0de0b6b3a7640000\n        /* \"contracts/protocol/Market.sol\":3760:3766  growth */\n      dup2\n        /* \"contracts/protocol/Market.sol\":3746:3757  borrowIndex */\n      sload(0x0e)\n        /* \"contracts/protocol/Market.sol\":3746:3766  borrowIndex * growth */\n      tag_402\n      swap2\n      swap1\n      tag_241\n      jump\t// in\n    tag_402:\n        /* \"contracts/protocol/Market.sol\":3745:3781  (borrowIndex * growth) / INDEX_SCALE */\n      tag_403\n      swap2\n      swap1\n      tag_243\n      jump\t// in\n    tag_403:\n        /* \"contracts/protocol/Market.sol\":3730:3741  borrowIndex */\n      0x0e\n      0x00\n        /* \"contracts/protocol/Market.sol\":3730:3781  borrowIndex += (borrowIndex * growth) / INDEX_SCALE */\n      dup3\n      dup3\n      sload\n      tag_404\n      swap2\n      swap1\n      tag_285\n      jump\t// in\n    tag_404:\n      swap3\n      pop\n      pop\n      dup2\n      swap1\n      sstore\n      pop\n        /* \"contracts/protocol/Market.sol\":3575:3792  {... */\n      pop\n      pop\n        /* \"contracts/protocol/Market.sol\":3548:3792  if (totalBorrowShares > 0) {... */\n    tag_398:\n        /* \"contracts/protocol/Market.sol\":3819:3831  block.number */\n      number\n        /* \"contracts/protocol/Market.sol\":3801:3816  lastAccrueBlock */\n      0x0f\n        /* \"contracts/protocol/Market.sol\":3801:3831  lastAccrueBlock = block.number */\n      dup2\n      swap1\n      sstore\n      pop\n        /* \"contracts/protocol/Market.sol\":3452:3838  function accrueInterest() public {... */\n    tag_396:\n      jump\t// out\n        /* \"contracts/protocol/Market.sol\":1734:1760  uint256 public borrowIndex */\n    tag_175:\n      sload(0x0e)\n      dup2\n      jump\t// out\n        /* \"contracts/protocol/Market.sol\":2284:3446  function initialize(InitParams calldata p, string calldata title_, string calldata shareName_) external initializer {... */\n    tag_181:\n        /* \"contracts/utils/Init.sol\":1076:1088  _initialized */\n      0x00\n      0x00\n      swap1\n      sload\n      swap1\n      0x0100\n      exp\n      swap1\n      div\n      0xff\n      and\n        /* \"contracts/utils/Init.sol\":1075:1088  !_initialized */\n      iszero\n        /* \"contracts/utils/Init.sol\":1075:1105  !_initialized || _initializing */\n      dup1\n      tag_406\n      jumpi\n      pop\n        /* \"contracts/utils/Init.sol\":1092:1105  _initializing */\n      0x00\n      0x01\n      swap1\n      sload\n      swap1\n      0x0100\n      exp\n      swap1\n      div\n      0xff\n      and\n        /* \"contracts/utils/Init.sol\":1075:1105  !_initialized || _initializing */\n    tag_406:\n        /* \"contracts/utils/Init.sol\":1067:1129  require(!_initialized || _initializing, \"ALREADY_INITIALIZED\") */\n      tag_407\n      jumpi\n      mload(0x40)\n      0x08c379a000000000000000000000000000000000000000000000000000000000\n      dup2\n      mstore\n      0x04\n      add\n      tag_408\n      swap1\n      tag_409\n      jump\t// in\n    tag_408:\n      mload(0x40)\n      dup1\n      swap2\n      sub\n      swap1\n      revert\n    tag_407:\n        /* \"contracts/utils/Init.sol\":1139:1154  bool isTopLevel */\n      0x00\n        /* \"contracts/utils/Init.sol\":1158:1171  _initializing */\n      0x00\n      0x01\n      swap1\n      sload\n      swap1\n      0x0100\n      exp\n      swap1\n      div\n      0xff\n      and\n        /* \"contracts/utils/Init.sol\":1157:1171  !_initializing */\n      iszero\n        /* \"contracts/utils/Init.sol\":1139:1171  bool isTopLevel = !_initializing */\n      swap1\n      pop\n        /* \"contracts/utils/Init.sol\":1186:1196  isTopLevel */\n      dup1\n        /* \"contracts/utils/Init.sol\":1182:1244  if (isTopLevel) { _initializing = true; _initialized = true; } */\n      iszero\n      tag_410\n      jumpi\n        /* \"contracts/utils/Init.sol\":1216:1220  true */\n      0x01\n        /* \"contracts/utils/Init.sol\":1200:1213  _initializing */\n      0x00\n      0x01\n        /* \"contracts/utils/Init.sol\":1200:1220  _initializing = true */\n      0x0100\n      exp\n      dup2\n      sload\n      dup2\n      0xff\n      mul\n      not\n      and\n      swap1\n      dup4\n      iszero\n      iszero\n      mul\n      or\n      swap1\n      sstore\n      pop\n        /* \"contracts/utils/Init.sol\":1237:1241  true */\n      0x01\n        /* \"contracts/utils/Init.sol\":1222:1234  _initialized */\n      0x00\n      0x00\n        /* \"contracts/utils/Init.sol\":1222:1241  _initialized = true */\n      0x0100\n      exp\n      dup2\n      sload\n      dup2\n      0xff\n      mul\n      not\n      and\n      swap1\n      dup4\n      iszero\n      iszero\n      mul\n      or\n      swap1\n      sstore\n      pop\n        /* \"contracts/utils/Init.sol\":1182:1244  if (isTopLevel) { _initializing = true; _initialized = true; } */\n    tag_410:\n        /* \"contracts/protocol/Market.sol\":2437:2438  0 */\n      0x00\n        /* \"contracts/protocol/Market.sol\":2418:2439  p.vault != address(0) */\n      0xffffffffffffffffffffffffffffffffffffffff\n      and\n        /* \"contracts/protocol/Market.sol\":2418:2419  p */\n      dup7\n        /* \"contracts/protocol/Market.sol\":2418:2425  p.vault */\n      0x20\n      add\n      0x20\n      dup2\n      add\n      swap1\n      tag_412\n      swap2\n      swap1\n      tag_74\n      jump\t// in\n    tag_412:\n        /* \"contracts/protocol/Market.sol\":2418:2439  p.vault != address(0) */\n      0xffffffffffffffffffffffffffffffffffffffff\n      and\n      sub\n        /* \"contracts/protocol/Market.sol\":2410:2454  require(p.vault != address(0), \"ZERO_VAULT\") */\n      tag_413\n      jumpi\n      mload(0x40)\n      0x08c379a000000000000000000000000000000000000000000000000000000000\n      dup2\n      mstore\n      0x04\n      add\n      tag_414\n      swap1\n      tag_415\n      jump\t// in\n    tag_414:\n      mload(0x40)\n      dup1\n      swap2\n      sub\n      swap1\n      revert\n    tag_413:\n        /* \"contracts/protocol/Market.sol\":2495:2496  0 */\n      0x00\n        /* \"contracts/protocol/Market.sol\":2472:2497  p.loanToken != address(0) */\n      0xffffffffffffffffffffffffffffffffffffffff\n      and\n        /* \"contracts/protocol/Market.sol\":2472:2473  p */\n      dup7\n        /* \"contracts/protocol/Market.sol\":2472:2483  p.loanToken */\n      0x40\n      add\n      0x20\n      dup2\n      add\n      swap1\n      tag_416\n      swap2\n      swap1\n      tag_74\n      jump\t// in\n    tag_416:\n        /* \"contracts/protocol/Market.sol\":2472:2497  p.loanToken != address(0) */\n      0xffffffffffffffffffffffffffffffffffffffff\n      and\n      sub\n        /* \"contracts/protocol/Market.sol\":2464:2511  require(p.loanToken != address(0), \"ZERO_LOAN\") */\n      tag_417\n      jumpi\n      mload(0x40)\n      0x08c379a000000000000000000000000000000000000000000000000000000000\n      dup2\n      mstore\n      0x04\n      add\n      tag_418\n      swap1\n      tag_419\n      jump\t// in\n    tag_418:\n      mload(0x40)\n      dup1\n      swap2\n      sub\n      swap1\n      revert\n    tag_417:\n        /* \"contracts/protocol/Market.sol\":2558:2559  0 */\n      0x00\n        /* \"contracts/protocol/Market.sol\":2529:2560  p.collateralToken != address(0) */\n      0xffffffffffffffffffffffffffffffffffffffff\n      and\n        /* \"contracts/protocol/Market.sol\":2529:2530  p */\n      dup7\n        /* \"contracts/protocol/Market.sol\":2529:2546  p.collateralToken */\n      0x60\n      add\n      0x20\n      dup2\n      add\n      swap1\n      tag_420\n      swap2\n      swap1\n      tag_74\n      jump\t// in\n    tag_420:\n        /* \"contracts/protocol/Market.sol\":2529:2560  p.collateralToken != address(0) */\n      0xffffffffffffffffffffffffffffffffffffffff\n      and\n      sub\n        /* \"contracts/protocol/Market.sol\":2521:2580  require(p.collateralToken != address(0), \"ZERO_COLLATERAL\") */\n      tag_421\n      jumpi\n      mload(0x40)\n      0x08c379a000000000000000000000000000000000000000000000000000000000\n      dup2\n      mstore\n      0x04\n      add\n      tag_422\n      swap1\n      tag_423\n      jump\t// in\n    tag_422:\n      mload(0x40)\n      dup1\n      swap2\n      sub\n      swap1\n      revert\n    tag_421:\n        /* \"contracts/protocol/Market.sol\":2618:2619  0 */\n      0x00\n        /* \"contracts/protocol/Market.sol\":2598:2620  p.oracle != address(0) */\n      0xffffffffffffffffffffffffffffffffffffffff\n      and\n        /* \"contracts/protocol/Market.sol\":2598:2599  p */\n      dup7\n        /* \"contracts/protocol/Market.sol\":2598:2606  p.oracle */\n      0x80\n      add\n      0x20\n      dup2\n      add\n      swap1\n      tag_424\n      swap2\n      swap1\n      tag_74\n      jump\t// in\n    tag_424:\n        /* \"contracts/protocol/Market.sol\":2598:2620  p.oracle != address(0) */\n      0xffffffffffffffffffffffffffffffffffffffff\n      and\n      sub\n        /* \"contracts/protocol/Market.sol\":2590:2636  require(p.oracle != address(0), \"ZERO_ORACLE\") */\n      tag_425\n      jumpi\n      mload(0x40)\n      0x08c379a000000000000000000000000000000000000000000000000000000000\n      dup2\n      mstore\n      0x04\n      add\n      tag_426\n      swap1\n      tag_427\n      jump\t// in\n    tag_426:\n      mload(0x40)\n      dup1\n      swap2\n      sub\n      swap1\n      revert\n    tag_425:\n        /* \"contracts/protocol/Market.sol\":2676:2677  0 */\n      0x00\n        /* \"contracts/protocol/Market.sol\":2654:2678  p.treasury != address(0) */\n      0xffffffffffffffffffffffffffffffffffffffff\n      and\n        /* \"contracts/protocol/Market.sol\":2654:2655  p */\n      dup7\n        /* \"contracts/protocol/Market.sol\":2654:2664  p.treasury */\n      0xa0\n      add\n      0x20\n      dup2\n      add\n      swap1\n      tag_428\n      swap2\n      swap1\n      tag_74\n      jump\t// in\n    tag_428:\n        /* \"contracts/protocol/Market.sol\":2654:2678  p.treasury != address(0) */\n      0xffffffffffffffffffffffffffffffffffffffff\n      and\n      sub\n        /* \"contracts/protocol/Market.sol\":2646:2696  require(p.treasury != address(0), \"ZERO_TREASURY\") */\n      tag_429\n      jumpi\n      mload(0x40)\n      0x08c379a000000000000000000000000000000000000000000000000000000000\n      dup2\n      mstore\n      0x04\n      add\n      tag_430\n      swap1\n      tag_431\n      jump\t// in\n    tag_430:\n      mload(0x40)\n      dup1\n      swap2\n      sub\n      swap1\n      revert\n    tag_429:\n        /* \"contracts/protocol/Market.sol\":2732:2733  0 */\n      0x00\n        /* \"contracts/protocol/Market.sol\":2714:2715  p */\n      dup7\n        /* \"contracts/protocol/Market.sol\":2714:2729  p.blocksPerYear */\n      0x0120\n      add\n      calldataload\n        /* \"contracts/protocol/Market.sol\":2714:2733  p.blocksPerYear > 0 */\n      gt\n        /* \"contracts/protocol/Market.sol\":2706:2746  require(p.blocksPerYear > 0, \"ZERO_BPY\") */\n      tag_432\n      jumpi\n      mload(0x40)\n      0x08c379a000000000000000000000000000000000000000000000000000000000\n      dup2\n      mstore\n      0x04\n      add\n      tag_433\n      swap1\n      tag_434\n      jump\t// in\n    tag_433:\n      mload(0x40)\n      dup1\n      swap2\n      sub\n      swap1\n      revert\n    tag_432:\n        /* \"contracts/protocol/Market.sol\":2777:2782  10000 */\n      0x2710\n        /* \"contracts/protocol/Market.sol\":2764:2765  p */\n      dup7\n        /* \"contracts/protocol/Market.sol\":2764:2773  p.lltvBps */\n      0xe0\n      add\n      calldataload\n        /* \"contracts/protocol/Market.sol\":2764:2782  p.lltvBps <= 10000 */\n      gt\n      iszero\n        /* \"contracts/protocol/Market.sol\":2756:2795  require(p.lltvBps <= 10000, \"BAD_LLTV\") */\n      tag_435\n      jumpi\n      mload(0x40)\n      0x08c379a000000000000000000000000000000000000000000000000000000000\n      dup2\n      mstore\n      0x04\n      add\n      tag_436\n      swap1\n      tag_437\n      jump\t// in\n    tag_436:\n      mload(0x40)\n      dup1\n      swap2\n      sub\n      swap1\n      revert\n    tag_435:\n        /* \"contracts/protocol/Market.sol\":2838:2843  10000 */\n      0x2710\n        /* \"contracts/protocol/Market.sol\":2813:2814  p */\n      dup7\n        /* \"contracts/protocol/Market.sol\":2813:2834  p.liquidationBonusBps */\n      0x0140\n      add\n      calldataload\n        /* \"contracts/protocol/Market.sol\":2813:2843  p.liquidationBonusBps <= 10000 */\n      gt\n      iszero\n        /* \"contracts/protocol/Market.sol\":2805:2861  require(p.liquidationBonusBps <= 10000, \"BAD_LIQ_BONUS\") */\n      tag_438\n      jumpi\n      mload(0x40)\n      0x08c379a000000000000000000000000000000000000000000000000000000000\n      dup2\n      mstore\n      0x04\n      add\n      tag_439\n      swap1\n      tag_440\n      jump\t// in\n    tag_439:\n      mload(0x40)\n      dup1\n      swap2\n      sub\n      swap1\n      revert\n    tag_438:\n        /* \"contracts/protocol/Market.sol\":2871:2894  __Ownable_init(p.owner) */\n      tag_441\n        /* \"contracts/protocol/Market.sol\":2886:2887  p */\n      dup7\n        /* \"contracts/protocol/Market.sol\":2886:2893  p.owner */\n      0x00\n      add\n      0x20\n      dup2\n      add\n      swap1\n      tag_442\n      swap2\n      swap1\n      tag_74\n      jump\t// in\n    tag_442:\n        /* \"contracts/protocol/Market.sol\":2871:2885  __Ownable_init */\n      tag_443\n        /* \"contracts/protocol/Market.sol\":2871:2894  __Ownable_init(p.owner) */\n      jump\t// in\n    tag_441:\n        /* \"contracts/protocol/Market.sol\":2912:2913  p */\n      dup6\n        /* \"contracts/protocol/Market.sol\":2912:2919  p.vault */\n      0x20\n      add\n      0x20\n      dup2\n      add\n      swap1\n      tag_444\n      swap2\n      swap1\n      tag_74\n      jump\t// in\n    tag_444:\n        /* \"contracts/protocol/Market.sol\":2904:2909  vault */\n      0x06\n      0x00\n        /* \"contracts/protocol/Market.sol\":2904:2919  vault = p.vault */\n      0x0100\n      exp\n      dup2\n      sload\n      dup2\n      0xffffffffffffffffffffffffffffffffffffffff\n      mul\n      not\n      and\n      swap1\n      dup4\n      0xffffffffffffffffffffffffffffffffffffffff\n      and\n      mul\n      or\n      swap1\n      sstore\n      pop\n        /* \"contracts/protocol/Market.sol\":2948:2949  p */\n      dup6\n        /* \"contracts/protocol/Market.sol\":2948:2959  p.loanToken */\n      0x40\n      add\n      0x20\n      dup2\n      add\n      swap1\n      tag_445\n      swap2\n      swap1\n      tag_74\n      jump\t// in\n    tag_445:\n        /* \"contracts/protocol/Market.sol\":2929:2938  loanToken */\n      0x01\n      0x00\n        /* \"contracts/protocol/Market.sol\":2929:2960  loanToken = IERC20(p.loanToken) */\n      0x0100\n      exp\n      dup2\n      sload\n      dup2\n      0xffffffffffffffffffffffffffffffffffffffff\n      mul\n      not\n      and\n      swap1\n      dup4\n      0xffffffffffffffffffffffffffffffffffffffff\n      and\n      mul\n      or\n      swap1\n      sstore\n      pop\n        /* \"contracts/protocol/Market.sol\":2995:2996  p */\n      dup6\n        /* \"contracts/protocol/Market.sol\":2995:3012  p.collateralToken */\n      0x60\n      add\n      0x20\n      dup2\n      add\n      swap1\n      tag_446\n      swap2\n      swap1\n      tag_74\n      jump\t// in\n    tag_446:\n        /* \"contracts/protocol/Market.sol\":2970:2985  collateralToken */\n      0x02\n      0x00\n        /* \"contracts/protocol/Market.sol\":2970:3013  collateralToken = IERC20(p.collateralToken) */\n      0x0100\n      exp\n      dup2\n      sload\n      dup2\n      0xffffffffffffffffffffffffffffffffffffffff\n      mul\n      not\n      and\n      swap1\n      dup4\n      0xffffffffffffffffffffffffffffffffffffffff\n      and\n      mul\n      or\n      swap1\n      sstore\n      pop\n        /* \"contracts/protocol/Market.sol\":3040:3041  p */\n      dup6\n        /* \"contracts/protocol/Market.sol\":3040:3048  p.oracle */\n      0x80\n      add\n      0x20\n      dup2\n      add\n      swap1\n      tag_447\n      swap2\n      swap1\n      tag_74\n      jump\t// in\n    tag_447:\n        /* \"contracts/protocol/Market.sol\":3023:3029  oracle */\n      0x03\n      0x00\n        /* \"contracts/protocol/Market.sol\":3023:3049  oracle = IOracle(p.oracle) */\n      0x0100\n      exp\n      dup2\n      sload\n      dup2\n      0xffffffffffffffffffffffffffffffffffffffff\n      mul\n      not\n      and\n      swap1\n      dup4\n      0xffffffffffffffffffffffffffffffffffffffff\n      and\n      mul\n      or\n      swap1\n      sstore\n      pop\n        /* \"contracts/protocol/Market.sol\":3070:3071  p */\n      dup6\n        /* \"contracts/protocol/Market.sol\":3070:3080  p.treasury */\n      0xa0\n      add\n      0x20\n      dup2\n      add\n      swap1\n      tag_448\n      swap2\n      swap1\n      tag_74\n      jump\t// in\n    tag_448:\n        /* \"contracts/protocol/Market.sol\":3059:3067  treasury */\n      0x07\n      0x00\n        /* \"contracts/protocol/Market.sol\":3059:3080  treasury = p.treasury */\n      0x0100\n      exp\n      dup2\n      sload\n      dup2\n      0xffffffffffffffffffffffffffffffffffffffff\n      mul\n      not\n      and\n      swap1\n      dup4\n      0xffffffffffffffffffffffffffffffffffffffff\n      and\n      mul\n      or\n      swap1\n      sstore\n      pop\n        /* \"contracts/protocol/Market.sol\":3103:3104  p */\n      dup6\n        /* \"contracts/protocol/Market.sol\":3103:3115  p.liquidator */\n      0xc0\n      add\n      0x20\n      dup2\n      add\n      swap1\n      tag_449\n      swap2\n      swap1\n      tag_74\n      jump\t// in\n    tag_449:\n        /* \"contracts/protocol/Market.sol\":3090:3100  liquidator */\n      0x08\n      0x00\n        /* \"contracts/protocol/Market.sol\":3090:3115  liquidator = p.liquidator */\n      0x0100\n      exp\n      dup2\n      sload\n      dup2\n      0xffffffffffffffffffffffffffffffffffffffff\n      mul\n      not\n      and\n      swap1\n      dup4\n      0xffffffffffffffffffffffffffffffffffffffff\n      and\n      mul\n      or\n      swap1\n      sstore\n      pop\n        /* \"contracts/protocol/Market.sol\":3133:3139  title_ */\n      dup5\n      dup5\n        /* \"contracts/protocol/Market.sol\":3125:3130  title */\n      0x04\n        /* \"contracts/protocol/Market.sol\":3125:3139  title = title_ */\n      swap2\n      dup3\n      tag_450\n      swap3\n      swap2\n      swap1\n      tag_451\n      jump\t// in\n    tag_450:\n      pop\n        /* \"contracts/protocol/Market.sol\":3161:3171  shareName_ */\n      dup3\n      dup3\n        /* \"contracts/protocol/Market.sol\":3149:3158  shareName */\n      0x05\n        /* \"contracts/protocol/Market.sol\":3149:3171  shareName = shareName_ */\n      swap2\n      dup3\n      tag_452\n      swap3\n      swap2\n      swap1\n      tag_451\n      jump\t// in\n    tag_452:\n      pop\n        /* \"contracts/protocol/Market.sol\":3191:3192  p */\n      dup6\n        /* \"contracts/protocol/Market.sol\":3191:3200  p.lltvBps */\n      0xe0\n      add\n      calldataload\n        /* \"contracts/protocol/Market.sol\":3181:3188  lltvBps */\n      0x09\n        /* \"contracts/protocol/Market.sol\":3181:3200  lltvBps = p.lltvBps */\n      dup2\n      swap1\n      sstore\n      pop\n        /* \"contracts/protocol/Market.sol\":3225:3226  p */\n      dup6\n        /* \"contracts/protocol/Market.sol\":3225:3239  p.interestRate */\n      0x0100\n      add\n      calldataload\n        /* \"contracts/protocol/Market.sol\":3210:3222  interestRate */\n      0x0c\n        /* \"contracts/protocol/Market.sol\":3210:3239  interestRate = p.interestRate */\n      dup2\n      swap1\n      sstore\n      pop\n        /* \"contracts/protocol/Market.sol\":3265:3266  p */\n      dup6\n        /* \"contracts/protocol/Market.sol\":3265:3280  p.blocksPerYear */\n      0x0120\n      add\n      calldataload\n        /* \"contracts/protocol/Market.sol\":3249:3262  blocksPerYear */\n      0x0d\n        /* \"contracts/protocol/Market.sol\":3249:3280  blocksPerYear = p.blocksPerYear */\n      dup2\n      swap1\n      sstore\n      pop\n        /* \"contracts/protocol/Market.sol\":3312:3313  p */\n      dup6\n        /* \"contracts/protocol/Market.sol\":3312:3333  p.liquidationBonusBps */\n      0x0140\n      add\n      calldataload\n        /* \"contracts/protocol/Market.sol\":3290:3309  liquidationBonusBps */\n      0x0a\n        /* \"contracts/protocol/Market.sol\":3290:3333  liquidationBonusBps = p.liquidationBonusBps */\n      dup2\n      swap1\n      sstore\n      pop\n        /* \"contracts/protocol/Market.sol\":3360:3364  3000 */\n      0x0bb8\n        /* \"contracts/protocol/Market.sol\":3343:3357  protocolFeeBps */\n      0x0b\n        /* \"contracts/protocol/Market.sol\":3343:3364  protocolFeeBps = 3000 */\n      dup2\n      swap1\n      sstore\n      pop\n        /* \"contracts/protocol/Market.sol\":516:520  1e18 */\n      0x0de0b6b3a7640000\n        /* \"contracts/protocol/Market.sol\":3374:3385  borrowIndex */\n      0x0e\n        /* \"contracts/protocol/Market.sol\":3374:3399  borrowIndex = INDEX_SCALE */\n      dup2\n      swap1\n      sstore\n      pop\n        /* \"contracts/protocol/Market.sol\":3427:3439  block.number */\n      number\n        /* \"contracts/protocol/Market.sol\":3409:3424  lastAccrueBlock */\n      0x0f\n        /* \"contracts/protocol/Market.sol\":3409:3439  lastAccrueBlock = block.number */\n      dup2\n      swap1\n      sstore\n      pop\n        /* \"contracts/utils/Init.sol\":1270:1280  isTopLevel */\n      dup1\n        /* \"contracts/utils/Init.sol\":1266:1303  if (isTopLevel) _initializing = false */\n      iszero\n      tag_453\n      jumpi\n        /* \"contracts/utils/Init.sol\":1298:1303  false */\n      0x00\n        /* \"contracts/utils/Init.sol\":1282:1295  _initializing */\n      0x00\n      0x01\n        /* \"contracts/utils/Init.sol\":1282:1303  _initializing = false */\n      0x0100\n      exp\n      dup2\n      sload\n      dup2\n      0xff\n      mul\n      not\n      and\n      swap1\n      dup4\n      iszero\n      iszero\n      mul\n      or\n      swap1\n      sstore\n      pop\n        /* \"contracts/utils/Init.sol\":1266:1303  if (isTopLevel) _initializing = false */\n    tag_453:\n        /* \"contracts/utils/Init.sol\":1057:1310  {... */\n      pop\n        /* \"contracts/protocol/Market.sol\":2284:3446  function initialize(InitParams calldata p, string calldata title_, string calldata shareName_) external initializer {... */\n      pop\n      pop\n      pop\n      pop\n      pop\n      jump\t// out\n        /* \"contracts/protocol/Market.sol\":1362:1391  IERC20 public collateralToken */\n    tag_184:\n      0x02\n      0x00\n      swap1\n      sload\n      swap1\n      0x0100\n      exp\n      swap1\n      div\n      0xffffffffffffffffffffffffffffffffffffffff\n      and\n      dup2\n      jump\t// out\n        /* \"contracts/protocol/Market.sol\":1564:1586  uint256 public lltvBps */\n    tag_188:\n      sload(0x09)\n      dup2\n      jump\t// out\n        /* \"contracts/protocol/Market.sol\":5972:6487  function borrow(uint256 amount) external {... */\n    tag_193:\n        /* \"contracts/protocol/Market.sol\":6040:6041  0 */\n      0x00\n        /* \"contracts/protocol/Market.sol\":6031:6037  amount */\n      dup2\n        /* \"contracts/protocol/Market.sol\":6031:6041  amount > 0 */\n      gt\n        /* \"contracts/protocol/Market.sol\":6023:6057  require(amount > 0, \"ZERO_AMOUNT\") */\n      tag_455\n      jumpi\n      mload(0x40)\n      0x08c379a000000000000000000000000000000000000000000000000000000000\n      dup2\n      mstore\n      0x04\n      add\n      tag_456\n      swap1\n      tag_278\n      jump\t// in\n    tag_456:\n      mload(0x40)\n      dup1\n      swap2\n      sub\n      swap1\n      revert\n    tag_455:\n        /* \"contracts/protocol/Market.sol\":6067:6083  accrueInterest() */\n      tag_457\n        /* \"contracts/protocol/Market.sol\":6067:6081  accrueInterest */\n      tag_172\n        /* \"contracts/protocol/Market.sol\":6067:6083  accrueInterest() */\n      jump\t// in\n    tag_457:\n        /* \"contracts/protocol/Market.sol\":6111:6131  availableLiquidity() */\n      tag_458\n        /* \"contracts/protocol/Market.sol\":6111:6129  availableLiquidity */\n      tag_147\n        /* \"contracts/protocol/Market.sol\":6111:6131  availableLiquidity() */\n      jump\t// in\n    tag_458:\n        /* \"contracts/protocol/Market.sol\":6101:6107  amount */\n      dup2\n        /* \"contracts/protocol/Market.sol\":6101:6131  amount <= availableLiquidity() */\n      gt\n      iszero\n        /* \"contracts/protocol/Market.sol\":6093:6158  require(amount <= availableLiquidity(), \"INSUFFICIENT_LIQUIDITY\") */\n      tag_459\n      jumpi\n      mload(0x40)\n      0x08c379a000000000000000000000000000000000000000000000000000000000\n      dup2\n      mstore\n      0x04\n      add\n      tag_460\n      swap1\n      tag_322\n      jump\t// in\n    tag_460:\n      mload(0x40)\n      dup1\n      swap2\n      sub\n      swap1\n      revert\n    tag_459:\n        /* \"contracts/protocol/Market.sol\":6168:6186  Position storage p */\n      0x00\n        /* \"contracts/protocol/Market.sol\":6189:6198  positions */\n      0x12\n        /* \"contracts/protocol/Market.sol\":6189:6210  positions[msg.sender] */\n      0x00\n        /* \"contracts/protocol/Market.sol\":6199:6209  msg.sender */\n      caller\n        /* \"contracts/protocol/Market.sol\":6189:6210  positions[msg.sender] */\n      0xffffffffffffffffffffffffffffffffffffffff\n      and\n      0xffffffffffffffffffffffffffffffffffffffff\n      and\n      dup2\n      mstore\n      0x20\n      add\n      swap1\n      dup2\n      mstore\n      0x20\n      add\n      0x00\n      keccak256\n        /* \"contracts/protocol/Market.sol\":6168:6210  Position storage p = positions[msg.sender] */\n      swap1\n      pop\n        /* \"contracts/protocol/Market.sol\":6220:6234  uint256 shares */\n      0x00\n        /* \"contracts/protocol/Market.sol\":6237:6267  _sharesForBorrowAmount(amount) */\n      tag_461\n        /* \"contracts/protocol/Market.sol\":6260:6266  amount */\n      dup4\n        /* \"contracts/protocol/Market.sol\":6237:6259  _sharesForBorrowAmount */\n      tag_462\n        /* \"contracts/protocol/Market.sol\":6237:6267  _sharesForBorrowAmount(amount) */\n      jump\t// in\n    tag_461:\n        /* \"contracts/protocol/Market.sol\":6220:6267  uint256 shares = _sharesForBorrowAmount(amount) */\n      swap1\n      pop\n        /* \"contracts/protocol/Market.sol\":6295:6301  shares */\n      dup1\n        /* \"contracts/protocol/Market.sol\":6277:6278  p */\n      dup3\n        /* \"contracts/protocol/Market.sol\":6277:6291  p.borrowShares */\n      0x01\n      add\n      0x00\n        /* \"contracts/protocol/Market.sol\":6277:6301  p.borrowShares += shares */\n      dup3\n      dup3\n      sload\n      tag_463\n      swap2\n      swap1\n      tag_285\n      jump\t// in\n    tag_463:\n      swap3\n      pop\n      pop\n      dup2\n      swap1\n      sstore\n      pop\n        /* \"contracts/protocol/Market.sol\":6326:6332  amount */\n      dup3\n        /* \"contracts/protocol/Market.sol\":6311:6312  p */\n      dup3\n        /* \"contracts/protocol/Market.sol\":6311:6322  p.principal */\n      0x02\n      add\n      0x00\n        /* \"contracts/protocol/Market.sol\":6311:6332  p.principal += amount */\n      dup3\n      dup3\n      sload\n      tag_464\n      swap2\n      swap1\n      tag_285\n      jump\t// in\n    tag_464:\n      swap3\n      pop\n      pop\n      dup2\n      swap1\n      sstore\n      pop\n        /* \"contracts/protocol/Market.sol\":6363:6369  shares */\n      dup1\n        /* \"contracts/protocol/Market.sol\":6342:6359  totalBorrowShares */\n      0x10\n      0x00\n        /* \"contracts/protocol/Market.sol\":6342:6369  totalBorrowShares += shares */\n      dup3\n      dup3\n      sload\n      tag_465\n      swap2\n      swap1\n      tag_285\n      jump\t// in\n    tag_465:\n      swap3\n      pop\n      pop\n      dup2\n      swap1\n      sstore\n      pop\n        /* \"contracts/protocol/Market.sol\":6387:6409  _isHealthy(msg.sender) */\n      tag_466\n        /* \"contracts/protocol/Market.sol\":6398:6408  msg.sender */\n      caller\n        /* \"contracts/protocol/Market.sol\":6387:6397  _isHealthy */\n      tag_232\n        /* \"contracts/protocol/Market.sol\":6387:6409  _isHealthy(msg.sender) */\n      jump\t// in\n    tag_466:\n        /* \"contracts/protocol/Market.sol\":6379:6432  require(_isHealthy(msg.sender), \"BORROW_BREAKS_LLTV\") */\n      tag_467\n      jumpi\n      mload(0x40)\n      0x08c379a000000000000000000000000000000000000000000000000000000000\n      dup2\n      mstore\n      0x04\n      add\n      tag_468\n      swap1\n      tag_469\n      jump\t// in\n    tag_468:\n      mload(0x40)\n      dup1\n      swap2\n      sub\n      swap1\n      revert\n    tag_467:\n        /* \"contracts/protocol/Market.sol\":6442:6451  loanToken */\n      0x01\n      0x00\n      swap1\n      sload\n      swap1\n      0x0100\n      exp\n      swap1\n      div\n      0xffffffffffffffffffffffffffffffffffffffff\n      and\n        /* \"contracts/protocol/Market.sol\":6442:6460  loanToken.transfer */\n      0xffffffffffffffffffffffffffffffffffffffff\n      and\n      0xa9059cbb\n        /* \"contracts/protocol/Market.sol\":6461:6471  msg.sender */\n      caller\n        /* \"contracts/protocol/Market.sol\":6473:6479  amount */\n      dup6\n        /* \"contracts/protocol/Market.sol\":6442:6480  loanToken.transfer(msg.sender, amount) */\n      mload(0x40)\n      dup4\n      0xffffffff\n      and\n      0xe0\n      shl\n      dup2\n      mstore\n      0x04\n      add\n      tag_470\n      swap3\n      swap2\n      swap1\n      tag_248\n      jump\t// in\n    tag_470:\n      0x20\n      mload(0x40)\n      dup1\n      dup4\n      sub\n      dup2\n      0x00\n      dup8\n      gas\n      call\n      iszero\n      dup1\n      iszero\n      tag_472\n      jumpi\n      returndatacopy(0x00, 0x00, returndatasize)\n      revert(0x00, returndatasize)\n    tag_472:\n      pop\n      pop\n      pop\n      pop\n      mload(0x40)\n      returndatasize\n      not(0x1f)\n      0x1f\n      dup3\n      add\n      and\n      dup3\n      add\n      dup1\n      0x40\n      mstore\n      pop\n      dup2\n      add\n      swap1\n      tag_473\n      swap2\n      swap1\n      tag_252\n      jump\t// in\n    tag_473:\n      pop\n        /* \"contracts/protocol/Market.sol\":6013:6487  {... */\n      pop\n      pop\n        /* \"contracts/protocol/Market.sol\":5972:6487  function borrow(uint256 amount) external {... */\n      pop\n      jump\t// out\n        /* \"contracts/protocol/Market.sol\":4213:4324  function assetManage() public view returns (uint256) {... */\n    tag_196:\n        /* \"contracts/protocol/Market.sol\":4257:4264  uint256 */\n      0x00\n        /* \"contracts/protocol/Market.sol\":4306:4317  totalDebt() */\n      tag_475\n        /* \"contracts/protocol/Market.sol\":4306:4315  totalDebt */\n      tag_222\n        /* \"contracts/protocol/Market.sol\":4306:4317  totalDebt() */\n      jump\t// in\n    tag_475:\n        /* \"contracts/protocol/Market.sol\":4283:4303  availableLiquidity() */\n      tag_476\n        /* \"contracts/protocol/Market.sol\":4283:4301  availableLiquidity */\n      tag_147\n        /* \"contracts/protocol/Market.sol\":4283:4303  availableLiquidity() */\n      jump\t// in\n    tag_476:\n        /* \"contracts/protocol/Market.sol\":4283:4317  availableLiquidity() + totalDebt() */\n      tag_477\n      swap2\n      swap1\n      tag_285\n      jump\t// in\n    tag_477:\n        /* \"contracts/protocol/Market.sol\":4276:4317  return availableLiquidity() + totalDebt() */\n      swap1\n      pop\n        /* \"contracts/protocol/Market.sol\":4213:4324  function assetManage() public view returns (uint256) {... */\n      swap1\n      jump\t// out\n        /* \"contracts/protocol/Market.sol\":8382:8775  function setRiskParams(uint256 newLltvBps, uint256 newInterestRate, uint256 newLiquidationBonusBps) external onlyOwner {... */\n    tag_202:\n        /* \"contracts/acess/Ownable.sol\":213:218  owner */\n      0x00\n      0x02\n      swap1\n      sload\n      swap1\n      0x0100\n      exp\n      swap1\n      div\n      0xffffffffffffffffffffffffffffffffffffffff\n      and\n        /* \"contracts/acess/Ownable.sol\":199:218  msg.sender == owner */\n      0xffffffffffffffffffffffffffffffffffffffff\n      and\n        /* \"contracts/acess/Ownable.sol\":199:209  msg.sender */\n      caller\n        /* \"contracts/acess/Ownable.sol\":199:218  msg.sender == owner */\n      0xffffffffffffffffffffffffffffffffffffffff\n      and\n      eq\n        /* \"contracts/acess/Ownable.sol\":191:219  require(msg.sender == owner) */\n      tag_479\n      jumpi\n      revert(0x00, 0x00)\n    tag_479:\n        /* \"contracts/protocol/Market.sol\":8533:8538  10000 */\n      0x2710\n        /* \"contracts/protocol/Market.sol\":8519:8529  newLltvBps */\n      dup4\n        /* \"contracts/protocol/Market.sol\":8519:8538  newLltvBps <= 10000 */\n      gt\n      iszero\n        /* \"contracts/protocol/Market.sol\":8511:8551  require(newLltvBps <= 10000, \"BAD_LLTV\") */\n      tag_481\n      jumpi\n      mload(0x40)\n      0x08c379a000000000000000000000000000000000000000000000000000000000\n      dup2\n      mstore\n      0x04\n      add\n      tag_482\n      swap1\n      tag_437\n      jump\t// in\n    tag_482:\n      mload(0x40)\n      dup1\n      swap2\n      sub\n      swap1\n      revert\n    tag_481:\n        /* \"contracts/protocol/Market.sol\":8595:8600  10000 */\n      0x2710\n        /* \"contracts/protocol/Market.sol\":8569:8591  newLiquidationBonusBps */\n      dup2\n        /* \"contracts/protocol/Market.sol\":8569:8600  newLiquidationBonusBps <= 10000 */\n      gt\n      iszero\n        /* \"contracts/protocol/Market.sol\":8561:8618  require(newLiquidationBonusBps <= 10000, \"BAD_LIQ_BONUS\") */\n      tag_483\n      jumpi\n      mload(0x40)\n      0x08c379a000000000000000000000000000000000000000000000000000000000\n      dup2\n      mstore\n      0x04\n      add\n      tag_484\n      swap1\n      tag_440\n      jump\t// in\n    tag_484:\n      mload(0x40)\n      dup1\n      swap2\n      sub\n      swap1\n      revert\n    tag_483:\n        /* \"contracts/protocol/Market.sol\":8628:8644  accrueInterest() */\n      tag_485\n        /* \"contracts/protocol/Market.sol\":8628:8642  accrueInterest */\n      tag_172\n        /* \"contracts/protocol/Market.sol\":8628:8644  accrueInterest() */\n      jump\t// in\n    tag_485:\n        /* \"contracts/protocol/Market.sol\":8664:8674  newLltvBps */\n      dup3\n        /* \"contracts/protocol/Market.sol\":8654:8661  lltvBps */\n      0x09\n        /* \"contracts/protocol/Market.sol\":8654:8674  lltvBps = newLltvBps */\n      dup2\n      swap1\n      sstore\n      pop\n        /* \"contracts/protocol/Market.sol\":8699:8714  newInterestRate */\n      dup2\n        /* \"contracts/protocol/Market.sol\":8684:8696  interestRate */\n      0x0c\n        /* \"contracts/protocol/Market.sol\":8684:8714  interestRate = newInterestRate */\n      dup2\n      swap1\n      sstore\n      pop\n        /* \"contracts/protocol/Market.sol\":8746:8768  newLiquidationBonusBps */\n      dup1\n        /* \"contracts/protocol/Market.sol\":8724:8743  liquidationBonusBps */\n      0x0a\n        /* \"contracts/protocol/Market.sol\":8724:8768  liquidationBonusBps = newLiquidationBonusBps */\n      dup2\n      swap1\n      sstore\n      pop\n        /* \"contracts/protocol/Market.sol\":8382:8775  function setRiskParams(uint256 newLltvBps, uint256 newInterestRate, uint256 newLiquidationBonusBps) external onlyOwner {... */\n      pop\n      pop\n      pop\n      jump\t// out\n        /* \"contracts/protocol/Market.sol\":4330:4543  function debtOf(address borrower) public view returns (uint256) {... */\n    tag_206:\n        /* \"contracts/protocol/Market.sol\":4385:4392  uint256 */\n      0x00\n        /* \"contracts/protocol/Market.sol\":4404:4418  uint256 shares */\n      0x00\n        /* \"contracts/protocol/Market.sol\":4421:4430  positions */\n      0x12\n        /* \"contracts/protocol/Market.sol\":4421:4440  positions[borrower] */\n      0x00\n        /* \"contracts/protocol/Market.sol\":4431:4439  borrower */\n      dup5\n        /* \"contracts/protocol/Market.sol\":4421:4440  positions[borrower] */\n      0xffffffffffffffffffffffffffffffffffffffff\n      and\n      0xffffffffffffffffffffffffffffffffffffffff\n      and\n      dup2\n      mstore\n      0x20\n      add\n      swap1\n      dup2\n      mstore\n      0x20\n      add\n      0x00\n      keccak256\n        /* \"contracts/protocol/Market.sol\":4421:4453  positions[borrower].borrowShares */\n      0x01\n      add\n      sload\n        /* \"contracts/protocol/Market.sol\":4404:4453  uint256 shares = positions[borrower].borrowShares */\n      swap1\n      pop\n        /* \"contracts/protocol/Market.sol\":4480:4481  0 */\n      0x00\n        /* \"contracts/protocol/Market.sol\":4470:4476  shares */\n      dup2\n        /* \"contracts/protocol/Market.sol\":4470:4481  shares == 0 */\n      eq\n        /* \"contracts/protocol/Market.sol\":4470:4536  shares == 0 ? 0 : (shares * _projectedBorrowIndex()) / INDEX_SCALE */\n      tag_487\n      jumpi\n        /* \"contracts/protocol/Market.sol\":516:520  1e18 */\n      0x0de0b6b3a7640000\n        /* \"contracts/protocol/Market.sol\":4498:4521  _projectedBorrowIndex() */\n      tag_488\n        /* \"contracts/protocol/Market.sol\":4498:4519  _projectedBorrowIndex */\n      tag_489\n        /* \"contracts/protocol/Market.sol\":4498:4521  _projectedBorrowIndex() */\n      jump\t// in\n    tag_488:\n        /* \"contracts/protocol/Market.sol\":4489:4495  shares */\n      dup3\n        /* \"contracts/protocol/Market.sol\":4489:4521  shares * _projectedBorrowIndex() */\n      tag_490\n      swap2\n      swap1\n      tag_241\n      jump\t// in\n    tag_490:\n        /* \"contracts/protocol/Market.sol\":4488:4536  (shares * _projectedBorrowIndex()) / INDEX_SCALE */\n      tag_491\n      swap2\n      swap1\n      tag_243\n      jump\t// in\n    tag_491:\n        /* \"contracts/protocol/Market.sol\":4470:4536  shares == 0 ? 0 : (shares * _projectedBorrowIndex()) / INDEX_SCALE */\n      jump(tag_492)\n    tag_487:\n        /* \"contracts/protocol/Market.sol\":4484:4485  0 */\n      0x00\n        /* \"contracts/protocol/Market.sol\":4470:4536  shares == 0 ? 0 : (shares * _projectedBorrowIndex()) / INDEX_SCALE */\n    tag_492:\n        /* \"contracts/protocol/Market.sol\":4463:4536  return shares == 0 ? 0 : (shares * _projectedBorrowIndex()) / INDEX_SCALE */\n      swap2\n      pop\n      pop\n        /* \"contracts/protocol/Market.sol\":4330:4543  function debtOf(address borrower) public view returns (uint256) {... */\n      swap2\n      swap1\n      pop\n      jump\t// out\n        /* \"contracts/acess/Ownable.sol\":394:532  function ownershipTransfer(address newOwner) external onlyOwner {... */\n    tag_211:\n        /* \"contracts/acess/Ownable.sol\":213:218  owner */\n      0x00\n      0x02\n      swap1\n      sload\n      swap1\n      0x0100\n      exp\n      swap1\n      div\n      0xffffffffffffffffffffffffffffffffffffffff\n      and\n        /* \"contracts/acess/Ownable.sol\":199:218  msg.sender == owner */\n      0xffffffffffffffffffffffffffffffffffffffff\n      and\n        /* \"contracts/acess/Ownable.sol\":199:209  msg.sender */\n      caller\n        /* \"contracts/acess/Ownable.sol\":199:218  msg.sender == owner */\n      0xffffffffffffffffffffffffffffffffffffffff\n      and\n      eq\n        /* \"contracts/acess/Ownable.sol\":191:219  require(msg.sender == owner) */\n      tag_494\n      jumpi\n      revert(0x00, 0x00)\n    tag_494:\n        /* \"contracts/acess/Ownable.sol\":496:497  0 */\n      0x00\n        /* \"contracts/acess/Ownable.sol\":476:498  newOwner != address(0) */\n      0xffffffffffffffffffffffffffffffffffffffff\n      and\n        /* \"contracts/acess/Ownable.sol\":476:484  newOwner */\n      dup2\n        /* \"contracts/acess/Ownable.sol\":476:498  newOwner != address(0) */\n      0xffffffffffffffffffffffffffffffffffffffff\n      and\n      sub\n        /* \"contracts/acess/Ownable.sol\":468:499  require(newOwner != address(0)) */\n      tag_496\n      jumpi\n      revert(0x00, 0x00)\n    tag_496:\n        /* \"contracts/acess/Ownable.sol\":517:525  newOwner */\n      dup1\n        /* \"contracts/acess/Ownable.sol\":509:514  owner */\n      0x00\n      0x02\n        /* \"contracts/acess/Ownable.sol\":509:525  owner = newOwner */\n      0x0100\n      exp\n      dup2\n      sload\n      dup2\n      0xffffffffffffffffffffffffffffffffffffffff\n      mul\n      not\n      and\n      swap1\n      dup4\n      0xffffffffffffffffffffffffffffffffffffffff\n      and\n      mul\n      or\n      swap1\n      sstore\n      pop\n        /* \"contracts/acess/Ownable.sol\":394:532  function ownershipTransfer(address newOwner) external onlyOwner {... */\n      pop\n      jump\t// out\n        /* \"contracts/protocol/Market.sol\":1840:1871  uint256 public protocolReserves */\n    tag_214:\n      sload(0x11)\n      dup2\n      jump\t// out\n        /* \"contracts/protocol/Market.sol\":1478:1498  address public vault */\n    tag_218:\n      0x06\n      0x00\n      swap1\n      sload\n      swap1\n      0x0100\n      exp\n      swap1\n      div\n      0xffffffffffffffffffffffffffffffffffffffff\n      and\n      dup2\n      jump\t// out\n        /* \"contracts/protocol/Market.sol\":4044:4207  function totalDebt() public view returns (uint256) {... */\n    tag_222:\n        /* \"contracts/protocol/Market.sol\":4086:4093  uint256 */\n      0x00\n        /* \"contracts/protocol/Market.sol\":4133:4134  0 */\n      0x00\n        /* \"contracts/protocol/Market.sol\":4112:4129  totalBorrowShares */\n      sload(0x10)\n        /* \"contracts/protocol/Market.sol\":4112:4134  totalBorrowShares == 0 */\n      eq\n        /* \"contracts/protocol/Market.sol\":4112:4200  totalBorrowShares == 0 ? 0 : (totalBorrowShares * _projectedBorrowIndex()) / INDEX_SCALE */\n      tag_498\n      jumpi\n        /* \"contracts/protocol/Market.sol\":516:520  1e18 */\n      0x0de0b6b3a7640000\n        /* \"contracts/protocol/Market.sol\":4162:4185  _projectedBorrowIndex() */\n      tag_499\n        /* \"contracts/protocol/Market.sol\":4162:4183  _projectedBorrowIndex */\n      tag_489\n        /* \"contracts/protocol/Market.sol\":4162:4185  _projectedBorrowIndex() */\n      jump\t// in\n    tag_499:\n        /* \"contracts/protocol/Market.sol\":4142:4159  totalBorrowShares */\n      sload(0x10)\n        /* \"contracts/protocol/Market.sol\":4142:4185  totalBorrowShares * _projectedBorrowIndex() */\n      tag_500\n      swap2\n      swap1\n      tag_241\n      jump\t// in\n    tag_500:\n        /* \"contracts/protocol/Market.sol\":4141:4200  (totalBorrowShares * _projectedBorrowIndex()) / INDEX_SCALE */\n      tag_501\n      swap2\n      swap1\n      tag_243\n      jump\t// in\n    tag_501:\n        /* \"contracts/protocol/Market.sol\":4112:4200  totalBorrowShares == 0 ? 0 : (totalBorrowShares * _projectedBorrowIndex()) / INDEX_SCALE */\n      jump(tag_502)\n    tag_498:\n        /* \"contracts/protocol/Market.sol\":4137:4138  0 */\n      0x00\n        /* \"contracts/protocol/Market.sol\":4112:4200  totalBorrowShares == 0 ? 0 : (totalBorrowShares * _projectedBorrowIndex()) / INDEX_SCALE */\n    tag_502:\n        /* \"contracts/protocol/Market.sol\":4105:4200  return totalBorrowShares == 0 ? 0 : (totalBorrowShares * _projectedBorrowIndex()) / INDEX_SCALE */\n      swap1\n      pop\n        /* \"contracts/protocol/Market.sol\":4044:4207  function totalDebt() public view returns (uint256) {... */\n      swap1\n      jump\t// out\n        /* \"contracts/protocol/Market.sol\":8973:9097  function _isHealthy(address borrower) internal view returns (bool) {... */\n    tag_232:\n        /* \"contracts/protocol/Market.sol\":9034:9038  bool */\n      0x00\n        /* \"contracts/protocol/Market.sol\":9083:9090  lltvBps */\n      sload(0x09)\n        /* \"contracts/protocol/Market.sol\":9057:9080  currentLtvBps(borrower) */\n      tag_504\n        /* \"contracts/protocol/Market.sol\":9071:9079  borrower */\n      dup4\n        /* \"contracts/protocol/Market.sol\":9057:9070  currentLtvBps */\n      tag_138\n        /* \"contracts/protocol/Market.sol\":9057:9080  currentLtvBps(borrower) */\n      jump\t// in\n    tag_504:\n        /* \"contracts/protocol/Market.sol\":9057:9090  currentLtvBps(borrower) < lltvBps */\n      lt\n        /* \"contracts/protocol/Market.sol\":9050:9090  return currentLtvBps(borrower) < lltvBps */\n      swap1\n      pop\n        /* \"contracts/protocol/Market.sol\":8973:9097  function _isHealthy(address borrower) internal view returns (bool) {... */\n      swap2\n      swap1\n      pop\n      jump\t// out\n        /* \"contracts/proxy/UUPSUpgradeable.sol\":2514:2693  function _getImplementation() internal view returns (address impl) {... */\n    tag_266:\n        /* \"contracts/proxy/UUPSUpgradeable.sol\":2567:2579  address impl */\n      0x00\n        /* \"contracts/proxy/UUPSUpgradeable.sol\":2591:2603  bytes32 slot */\n      0x00\n        /* \"contracts/proxy/UUPSUpgradeable.sol\":793:859  0x360894A13BA1A3210667C828492DB98DCA3E2076CC3735A920A3CA505D382BBC */\n      0x360894a13ba1a3210667c828492db98dca3e2076cc3735a920a3ca505d382bbc\n        /* \"contracts/proxy/UUPSUpgradeable.sol\":2606:2625  IMPLEMENTATION_SLOT */\n      0x00\n      shl\n        /* \"contracts/proxy/UUPSUpgradeable.sol\":2591:2625  bytes32 slot = IMPLEMENTATION_SLOT */\n      swap1\n      pop\n        /* \"contracts/proxy/UUPSUpgradeable.sol\":2672:2676  slot */\n      dup1\n        /* \"contracts/proxy/UUPSUpgradeable.sol\":2666:2677  sload(slot) */\n      sload\n        /* \"contracts/proxy/UUPSUpgradeable.sol\":2658:2677  impl := sload(slot) */\n      swap2\n      pop\n        /* \"contracts/proxy/UUPSUpgradeable.sol\":2644:2687  {... */\n      pop\n        /* \"contracts/proxy/UUPSUpgradeable.sol\":2514:2693  function _getImplementation() internal view returns (address impl) {... */\n      swap1\n      jump\t// out\n        /* \"contracts/protocol/Market.sol\":9712:9778  function _authorizeUpgrade(address) internal override onlyOwner {} */\n    tag_272:\n        /* \"contracts/acess/Ownable.sol\":213:218  owner */\n      0x00\n      0x02\n      swap1\n      sload\n      swap1\n      0x0100\n      exp\n      swap1\n      div\n      0xffffffffffffffffffffffffffffffffffffffff\n      and\n        /* \"contracts/acess/Ownable.sol\":199:218  msg.sender == owner */\n      0xffffffffffffffffffffffffffffffffffffffff\n      and\n        /* \"contracts/acess/Ownable.sol\":199:209  msg.sender */\n      caller\n        /* \"contracts/acess/Ownable.sol\":199:218  msg.sender == owner */\n      0xffffffffffffffffffffffffffffffffffffffff\n      and\n      eq\n        /* \"contracts/acess/Ownable.sol\":191:219  require(msg.sender == owner) */\n      tag_507\n      jumpi\n      revert(0x00, 0x00)\n    tag_507:\n        /* \"contracts/protocol/Market.sol\":9712:9778  function _authorizeUpgrade(address) internal override onlyOwner {} */\n      pop\n      jump\t// out\n        /* \"contracts/proxy/UUPSUpgradeable.sol\":2809:3197  function _upgradeToAndCall(address newImplementation, bytes memory data, bool forceCall) internal {... */\n    tag_274:\n        /* \"contracts/proxy/UUPSUpgradeable.sol\":2954:2955  0 */\n      0x00\n        /* \"contracts/proxy/UUPSUpgradeable.sol\":2925:2956  newImplementation != address(0) */\n      0xffffffffffffffffffffffffffffffffffffffff\n      and\n        /* \"contracts/proxy/UUPSUpgradeable.sol\":2925:2942  newImplementation */\n      dup4\n        /* \"contracts/proxy/UUPSUpgradeable.sol\":2925:2956  newImplementation != address(0) */\n      0xffffffffffffffffffffffffffffffffffffffff\n      and\n      sub\n        /* \"contracts/proxy/UUPSUpgradeable.sol\":2917:2970  require(newImplementation != address(0), \"ZERO_IMPL\") */\n      tag_510\n      jumpi\n      mload(0x40)\n      0x08c379a000000000000000000000000000000000000000000000000000000000\n      dup2\n      mstore\n      0x04\n      add\n      tag_511\n      swap1\n      tag_512\n      jump\t// in\n    tag_511:\n      mload(0x40)\n      dup1\n      swap2\n      sub\n      swap1\n      revert\n    tag_510:\n        /* \"contracts/proxy/UUPSUpgradeable.sol\":2980:3017  _setImplementation(newImplementation) */\n      tag_513\n        /* \"contracts/proxy/UUPSUpgradeable.sol\":2999:3016  newImplementation */\n      dup4\n        /* \"contracts/proxy/UUPSUpgradeable.sol\":2980:2998  _setImplementation */\n      tag_514\n        /* \"contracts/proxy/UUPSUpgradeable.sol\":2980:3017  _setImplementation(newImplementation) */\n      jump\t// in\n    tag_513:\n        /* \"contracts/proxy/UUPSUpgradeable.sol\":3032:3041  forceCall */\n      dup1\n        /* \"contracts/proxy/UUPSUpgradeable.sol\":3032:3060  forceCall || data.length > 0 */\n      dup1\n      tag_515\n      jumpi\n      pop\n        /* \"contracts/proxy/UUPSUpgradeable.sol\":3059:3060  0 */\n      0x00\n        /* \"contracts/proxy/UUPSUpgradeable.sol\":3045:3049  data */\n      dup3\n        /* \"contracts/proxy/UUPSUpgradeable.sol\":3045:3056  data.length */\n      mload\n        /* \"contracts/proxy/UUPSUpgradeable.sol\":3045:3060  data.length > 0 */\n      gt\n        /* \"contracts/proxy/UUPSUpgradeable.sol\":3032:3060  forceCall || data.length > 0 */\n    tag_515:\n        /* \"contracts/proxy/UUPSUpgradeable.sol\":3028:3191  if (forceCall || data.length > 0) {... */\n      iszero\n      tag_516\n      jumpi\n        /* \"contracts/proxy/UUPSUpgradeable.sol\":3077:3084  bool ok */\n      0x00\n        /* \"contracts/proxy/UUPSUpgradeable.sol\":3086:3102  bytes memory err */\n      0x00\n        /* \"contracts/proxy/UUPSUpgradeable.sol\":3106:3123  newImplementation */\n      dup5\n        /* \"contracts/proxy/UUPSUpgradeable.sol\":3106:3136  newImplementation.delegatecall */\n      0xffffffffffffffffffffffffffffffffffffffff\n      and\n        /* \"contracts/proxy/UUPSUpgradeable.sol\":3137:3141  data */\n      dup5\n        /* \"contracts/proxy/UUPSUpgradeable.sol\":3106:3142  newImplementation.delegatecall(data) */\n      mload(0x40)\n      tag_517\n      swap2\n      swap1\n      tag_518\n      jump\t// in\n    tag_517:\n      0x00\n      mload(0x40)\n      dup1\n      dup4\n      sub\n      dup2\n      dup6\n      gas\n      delegatecall\n      swap2\n      pop\n      pop\n      returndatasize\n      dup1\n      0x00\n      dup2\n      eq\n      tag_521\n      jumpi\n      mload(0x40)\n      swap2\n      pop\n      and(add(returndatasize, 0x3f), not(0x1f))\n      dup3\n      add\n      0x40\n      mstore\n      returndatasize\n      dup3\n      mstore\n      returndatasize\n      0x00\n      0x20\n      dup5\n      add\n      returndatacopy\n      jump(tag_520)\n    tag_521:\n      0x60\n      swap2\n      pop\n    tag_520:\n      pop\n        /* \"contracts/proxy/UUPSUpgradeable.sol\":3076:3142  (bool ok, bytes memory err) = newImplementation.delegatecall(data) */\n      swap2\n      pop\n      swap2\n      pop\n        /* \"contracts/proxy/UUPSUpgradeable.sol\":3164:3166  ok */\n      dup2\n        /* \"contracts/proxy/UUPSUpgradeable.sol\":3175:3178  err */\n      dup2\n        /* \"contracts/proxy/UUPSUpgradeable.sol\":3156:3180  require(ok, string(err)) */\n      swap1\n      tag_522\n      jumpi\n      mload(0x40)\n      0x08c379a000000000000000000000000000000000000000000000000000000000\n      dup2\n      mstore\n      0x04\n      add\n      tag_523\n      swap2\n      swap1\n      tag_107\n      jump\t// in\n    tag_523:\n      mload(0x40)\n      dup1\n      swap2\n      sub\n      swap1\n      revert\n    tag_522:\n      pop\n        /* \"contracts/proxy/UUPSUpgradeable.sol\":3062:3191  {... */\n      pop\n      pop\n        /* \"contracts/proxy/UUPSUpgradeable.sol\":3028:3191  if (forceCall || data.length > 0) {... */\n    tag_516:\n        /* \"contracts/proxy/UUPSUpgradeable.sol\":2809:3197  function _upgradeToAndCall(address newImplementation, bytes memory data, bool forceCall) internal {... */\n      pop\n      pop\n      pop\n      jump\t// out\n        /* \"contracts/protocol/Market.sol\":9491:9706  function _tokenValue(uint256 amount, address token) internal view returns (uint256) {... */\n    tag_372:\n        /* \"contracts/protocol/Market.sol\":9566:9573  uint256 */\n      0x00\n        /* \"contracts/protocol/Market.sol\":9585:9599  uint8 decimals */\n      0x00\n        /* \"contracts/protocol/Market.sol\":9613:9618  token */\n      dup3\n        /* \"contracts/protocol/Market.sol\":9602:9628  IERC20Meta(token).decimals */\n      0xffffffffffffffffffffffffffffffffffffffff\n      and\n      0x313ce567\n        /* \"contracts/protocol/Market.sol\":9602:9630  IERC20Meta(token).decimals() */\n      mload(0x40)\n      dup2\n      0xffffffff\n      and\n      0xe0\n      shl\n      dup2\n      mstore\n      0x04\n      add\n      0x20\n      mload(0x40)\n      dup1\n      dup4\n      sub\n      dup2\n      dup7\n      gas\n      staticcall\n      iszero\n      dup1\n      iszero\n      tag_526\n      jumpi\n      returndatacopy(0x00, 0x00, returndatasize)\n      revert(0x00, returndatasize)\n    tag_526:\n      pop\n      pop\n      pop\n      pop\n      mload(0x40)\n      returndatasize\n      not(0x1f)\n      0x1f\n      dup3\n      add\n      and\n      dup3\n      add\n      dup1\n      0x40\n      mstore\n      pop\n      dup2\n      add\n      swap1\n      tag_527\n      swap2\n      swap1\n      tag_528\n      jump\t// in\n    tag_527:\n        /* \"contracts/protocol/Market.sol\":9585:9630  uint8 decimals = IERC20Meta(token).decimals() */\n      swap1\n      pop\n        /* \"contracts/protocol/Market.sol\":9690:9698  decimals */\n      dup1\n        /* \"contracts/protocol/Market.sol\":9684:9686  10 */\n      0x0a\n        /* \"contracts/protocol/Market.sol\":9684:9698  10 ** decimals */\n      tag_529\n      swap2\n      swap1\n      tag_530\n      jump\t// in\n    tag_529:\n        /* \"contracts/protocol/Market.sol\":9657:9663  oracle */\n      0x03\n      0x00\n      swap1\n      sload\n      swap1\n      0x0100\n      exp\n      swap1\n      div\n      0xffffffffffffffffffffffffffffffffffffffff\n      and\n        /* \"contracts/protocol/Market.sol\":9657:9672  oracle.getPrice */\n      0xffffffffffffffffffffffffffffffffffffffff\n      and\n      0x41976e09\n        /* \"contracts/protocol/Market.sol\":9673:9678  token */\n      dup6\n        /* \"contracts/protocol/Market.sol\":9657:9679  oracle.getPrice(token) */\n      mload(0x40)\n      dup3\n      0xffffffff\n      and\n      0xe0\n      shl\n      dup2\n      mstore\n      0x04\n      add\n      tag_531\n      swap2\n      swap1\n      tag_102\n      jump\t// in\n    tag_531:\n      0x20\n      mload(0x40)\n      dup1\n      dup4\n      sub\n      dup2\n      dup7\n      gas\n      staticcall\n      iszero\n      dup1\n      iszero\n      tag_533\n      jumpi\n      returndatacopy(0x00, 0x00, returndatasize)\n      revert(0x00, returndatasize)\n    tag_533:\n      pop\n      pop\n      pop\n      pop\n      mload(0x40)\n      returndatasize\n      not(0x1f)\n      0x1f\n      dup3\n      add\n      and\n      dup3\n      add\n      dup1\n      0x40\n      mstore\n      pop\n      dup2\n      add\n      swap1\n      tag_534\n      swap2\n      swap1\n      tag_387\n      jump\t// in\n    tag_534:\n        /* \"contracts/protocol/Market.sol\":9648:9654  amount */\n      dup6\n        /* \"contracts/protocol/Market.sol\":9648:9679  amount * oracle.getPrice(token) */\n      tag_535\n      swap2\n      swap1\n      tag_241\n      jump\t// in\n    tag_535:\n        /* \"contracts/protocol/Market.sol\":9647:9699  (amount * oracle.getPrice(token)) / (10 ** decimals) */\n      tag_536\n      swap2\n      swap1\n      tag_243\n      jump\t// in\n    tag_536:\n        /* \"contracts/protocol/Market.sol\":9640:9699  return (amount * oracle.getPrice(token)) / (10 ** decimals) */\n      swap2\n      pop\n      pop\n        /* \"contracts/protocol/Market.sol\":9491:9706  function _tokenValue(uint256 amount, address token) internal view returns (uint256) {... */\n      swap3\n      swap2\n      pop\n      pop\n      jump\t// out\n        /* \"contracts/acess/Ownable.sol\":243:389  function __Ownable_init(address initializeOwner) internal {... */\n    tag_443:\n        /* \"contracts/acess/Ownable.sol\":346:347  0 */\n      0x00\n        /* \"contracts/acess/Ownable.sol\":319:348  initializeOwner != address(0) */\n      0xffffffffffffffffffffffffffffffffffffffff\n      and\n        /* \"contracts/acess/Ownable.sol\":319:334  initializeOwner */\n      dup2\n        /* \"contracts/acess/Ownable.sol\":319:348  initializeOwner != address(0) */\n      0xffffffffffffffffffffffffffffffffffffffff\n      and\n      sub\n        /* \"contracts/acess/Ownable.sol\":311:349  require(initializeOwner != address(0)) */\n      tag_538\n      jumpi\n      revert(0x00, 0x00)\n    tag_538:\n        /* \"contracts/acess/Ownable.sol\":367:382  initializeOwner */\n      dup1\n        /* \"contracts/acess/Ownable.sol\":359:364  owner */\n      0x00\n      0x02\n        /* \"contracts/acess/Ownable.sol\":359:382  owner = initializeOwner */\n      0x0100\n      exp\n      dup2\n      sload\n      dup2\n      0xffffffffffffffffffffffffffffffffffffffff\n      mul\n      not\n      and\n      swap1\n      dup4\n      0xffffffffffffffffffffffffffffffffffffffff\n      and\n      mul\n      or\n      swap1\n      sstore\n      pop\n        /* \"contracts/acess/Ownable.sol\":243:389  function __Ownable_init(address initializeOwner) internal {... */\n      pop\n      jump\t// out\n        /* \"contracts/protocol/Market.sol\":8781:8967  function _sharesForBorrowAmount(uint256 amount) internal view returns (uint256 shares) {... */\n    tag_462:\n        /* \"contracts/protocol/Market.sol\":8852:8866  uint256 shares */\n      0x00\n        /* \"contracts/protocol/Market.sol\":8912:8923  borrowIndex */\n      sload(0x0e)\n        /* \"contracts/protocol/Market.sol\":516:520  1e18 */\n      0x0de0b6b3a7640000\n        /* \"contracts/protocol/Market.sol\":8888:8894  amount */\n      dup4\n        /* \"contracts/protocol/Market.sol\":8888:8908  amount * INDEX_SCALE */\n      tag_540\n      swap2\n      swap1\n      tag_241\n      jump\t// in\n    tag_540:\n        /* \"contracts/protocol/Market.sol\":8887:8923  (amount * INDEX_SCALE) / borrowIndex */\n      tag_541\n      swap2\n      swap1\n      tag_243\n      jump\t// in\n    tag_541:\n        /* \"contracts/protocol/Market.sol\":8878:8923  shares = (amount * INDEX_SCALE) / borrowIndex */\n      swap1\n      pop\n        /* \"contracts/protocol/Market.sol\":8947:8948  0 */\n      0x00\n        /* \"contracts/protocol/Market.sol\":8937:8943  shares */\n      dup2\n        /* \"contracts/protocol/Market.sol\":8937:8948  shares == 0 */\n      sub\n        /* \"contracts/protocol/Market.sol\":8933:8960  if (shares == 0) shares = 1 */\n      tag_542\n      jumpi\n        /* \"contracts/protocol/Market.sol\":8959:8960  1 */\n      0x01\n        /* \"contracts/protocol/Market.sol\":8950:8960  shares = 1 */\n      swap1\n      pop\n        /* \"contracts/protocol/Market.sol\":8933:8960  if (shares == 0) shares = 1 */\n    tag_542:\n        /* \"contracts/protocol/Market.sol\":8781:8967  function _sharesForBorrowAmount(uint256 amount) internal view returns (uint256 shares) {... */\n      swap2\n      swap1\n      pop\n      jump\t// out\n        /* \"contracts/protocol/Market.sol\":9103:9485  function _projectedBorrowIndex() internal view returns (uint256 index) {... */\n    tag_489:\n        /* \"contracts/protocol/Market.sol\":9159:9172  uint256 index */\n      0x00\n        /* \"contracts/protocol/Market.sol\":9192:9203  borrowIndex */\n      sload(0x0e)\n        /* \"contracts/protocol/Market.sol\":9184:9203  index = borrowIndex */\n      swap1\n      pop\n        /* \"contracts/protocol/Market.sol\":9232:9247  lastAccrueBlock */\n      sload(0x0f)\n        /* \"contracts/protocol/Market.sol\":9217:9229  block.number */\n      number\n        /* \"contracts/protocol/Market.sol\":9217:9247  block.number > lastAccrueBlock */\n      gt\n        /* \"contracts/protocol/Market.sol\":9217:9272  block.number > lastAccrueBlock && totalBorrowShares > 0 */\n      dup1\n      iszero\n      tag_544\n      jumpi\n      pop\n        /* \"contracts/protocol/Market.sol\":9271:9272  0 */\n      0x00\n        /* \"contracts/protocol/Market.sol\":9251:9268  totalBorrowShares */\n      sload(0x10)\n        /* \"contracts/protocol/Market.sol\":9251:9272  totalBorrowShares > 0 */\n      gt\n        /* \"contracts/protocol/Market.sol\":9217:9272  block.number > lastAccrueBlock && totalBorrowShares > 0 */\n    tag_544:\n        /* \"contracts/protocol/Market.sol\":9213:9479  if (block.number > lastAccrueBlock && totalBorrowShares > 0) {... */\n      iszero\n      tag_545\n      jumpi\n        /* \"contracts/protocol/Market.sol\":9288:9307  uint256 deltaBlocks */\n      0x00\n        /* \"contracts/protocol/Market.sol\":9325:9340  lastAccrueBlock */\n      sload(0x0f)\n        /* \"contracts/protocol/Market.sol\":9310:9322  block.number */\n      number\n        /* \"contracts/protocol/Market.sol\":9310:9340  block.number - lastAccrueBlock */\n      tag_546\n      swap2\n      swap1\n      tag_245\n      jump\t// in\n    tag_546:\n        /* \"contracts/protocol/Market.sol\":9288:9340  uint256 deltaBlocks = block.number - lastAccrueBlock */\n      swap1\n      pop\n        /* \"contracts/protocol/Market.sol\":9354:9368  uint256 growth */\n      0x00\n        /* \"contracts/protocol/Market.sol\":9402:9415  blocksPerYear */\n      sload(0x0d)\n        /* \"contracts/protocol/Market.sol\":9387:9398  deltaBlocks */\n      dup3\n        /* \"contracts/protocol/Market.sol\":9372:9384  interestRate */\n      sload(0x0c)\n        /* \"contracts/protocol/Market.sol\":9372:9398  interestRate * deltaBlocks */\n      tag_547\n      swap2\n      swap1\n      tag_241\n      jump\t// in\n    tag_547:\n        /* \"contracts/protocol/Market.sol\":9371:9415  (interestRate * deltaBlocks) / blocksPerYear */\n      tag_548\n      swap2\n      swap1\n      tag_243\n      jump\t// in\n    tag_548:\n        /* \"contracts/protocol/Market.sol\":9354:9415  uint256 growth = (interestRate * deltaBlocks) / blocksPerYear */\n      swap1\n      pop\n        /* \"contracts/protocol/Market.sol\":516:520  1e18 */\n      0x0de0b6b3a7640000\n        /* \"contracts/protocol/Market.sol\":9447:9453  growth */\n      dup2\n        /* \"contracts/protocol/Market.sol\":9439:9444  index */\n      dup5\n        /* \"contracts/protocol/Market.sol\":9439:9453  index * growth */\n      tag_549\n      swap2\n      swap1\n      tag_241\n      jump\t// in\n    tag_549:\n        /* \"contracts/protocol/Market.sol\":9438:9468  (index * growth) / INDEX_SCALE */\n      tag_550\n      swap2\n      swap1\n      tag_243\n      jump\t// in\n    tag_550:\n        /* \"contracts/protocol/Market.sol\":9429:9468  index += (index * growth) / INDEX_SCALE */\n      dup4\n      tag_551\n      swap2\n      swap1\n      tag_285\n      jump\t// in\n    tag_551:\n      swap3\n      pop\n        /* \"contracts/protocol/Market.sol\":9274:9479  {... */\n      pop\n      pop\n        /* \"contracts/protocol/Market.sol\":9213:9479  if (block.number > lastAccrueBlock && totalBorrowShares > 0) {... */\n    tag_545:\n        /* \"contracts/protocol/Market.sol\":9103:9485  function _projectedBorrowIndex() internal view returns (uint256 index) {... */\n      swap1\n      jump\t// out\n        /* \"contracts/proxy/UUPSUpgradeable.sol\":3266:3453  function _setImplementation(address newImplementation) private {... */\n    tag_514:\n        /* \"contracts/proxy/UUPSUpgradeable.sol\":3339:3351  bytes32 slot */\n      0x00\n        /* \"contracts/proxy/UUPSUpgradeable.sol\":793:859  0x360894A13BA1A3210667C828492DB98DCA3E2076CC3735A920A3CA505D382BBC */\n      0x360894a13ba1a3210667c828492db98dca3e2076cc3735a920a3ca505d382bbc\n        /* \"contracts/proxy/UUPSUpgradeable.sol\":3354:3373  IMPLEMENTATION_SLOT */\n      0x00\n      shl\n        /* \"contracts/proxy/UUPSUpgradeable.sol\":3339:3373  bytes32 slot = IMPLEMENTATION_SLOT */\n      swap1\n      pop\n        /* \"contracts/proxy/UUPSUpgradeable.sol\":3419:3436  newImplementation */\n      dup2\n        /* \"contracts/proxy/UUPSUpgradeable.sol\":3413:3417  slot */\n      dup2\n        /* \"contracts/proxy/UUPSUpgradeable.sol\":3406:3437  sstore(slot, newImplementation) */\n      sstore\n        /* \"contracts/proxy/UUPSUpgradeable.sol\":3392:3447  {... */\n      pop\n        /* \"contracts/proxy/UUPSUpgradeable.sol\":3266:3453  function _setImplementation(address newImplementation) private {... */\n      pop\n      jump\t// out\n        /* \"#utility.yul\":7:133   */\n    tag_553:\n        /* \"#utility.yul\":44:51   */\n      0x00\n        /* \"#utility.yul\":84:126   */\n      0xffffffffffffffffffffffffffffffffffffffff\n        /* \"#utility.yul\":77:82   */\n      dup3\n        /* \"#utility.yul\":73:127   */\n      and\n        /* \"#utility.yul\":62:127   */\n      swap1\n      pop\n        /* \"#utility.yul\":7:133   */\n      swap2\n      swap1\n      pop\n      jump\t// out\n        /* \"#utility.yul\":139:199   */\n    tag_554:\n        /* \"#utility.yul\":167:170   */\n      0x00\n        /* \"#utility.yul\":188:193   */\n      dup2\n        /* \"#utility.yul\":181:193   */\n      swap1\n      pop\n        /* \"#utility.yul\":139:199   */\n      swap2\n      swap1\n      pop\n      jump\t// out\n        /* \"#utility.yul\":205:347   */\n    tag_555:\n        /* \"#utility.yul\":255:264   */\n      0x00\n        /* \"#utility.yul\":288:341   */\n      tag_666\n        /* \"#utility.yul\":306:340   */\n      tag_667\n        /* \"#utility.yul\":315:339   */\n      tag_668\n        /* \"#utility.yul\":333:338   */\n      dup5\n        /* \"#utility.yul\":315:339   */\n      tag_553\n      jump\t// in\n    tag_668:\n        /* \"#utility.yul\":306:340   */\n      tag_554\n      jump\t// in\n    tag_667:\n        /* \"#utility.yul\":288:341   */\n      tag_553\n      jump\t// in\n    tag_666:\n        /* \"#utility.yul\":275:341   */\n      swap1\n      pop\n        /* \"#utility.yul\":205:347   */\n      swap2\n      swap1\n      pop\n      jump\t// out\n        /* \"#utility.yul\":353:479   */\n    tag_556:\n        /* \"#utility.yul\":403:412   */\n      0x00\n        /* \"#utility.yul\":436:473   */\n      tag_670\n        /* \"#utility.yul\":467:472   */\n      dup3\n        /* \"#utility.yul\":436:473   */\n      tag_555\n      jump\t// in\n    tag_670:\n        /* \"#utility.yul\":423:473   */\n      swap1\n      pop\n        /* \"#utility.yul\":353:479   */\n      swap2\n      swap1\n      pop\n      jump\t// out\n        /* \"#utility.yul\":485:625   */\n    tag_557:\n        /* \"#utility.yul\":549:558   */\n      0x00\n        /* \"#utility.yul\":582:619   */\n      tag_672\n        /* \"#utility.yul\":613:618   */\n      dup3\n        /* \"#utility.yul\":582:619   */\n      tag_556\n      jump\t// in\n    tag_672:\n        /* \"#utility.yul\":569:619   */\n      swap1\n      pop\n        /* \"#utility.yul\":485:625   */\n      swap2\n      swap1\n      pop\n      jump\t// out\n        /* \"#utility.yul\":631:790   */\n    tag_558:\n        /* \"#utility.yul\":732:783   */\n      tag_674\n        /* \"#utility.yul\":777:782   */\n      dup2\n        /* \"#utility.yul\":732:783   */\n      tag_557\n      jump\t// in\n    tag_674:\n        /* \"#utility.yul\":727:730   */\n      dup3\n        /* \"#utility.yul\":720:784   */\n      mstore\n        /* \"#utility.yul\":631:790   */\n      pop\n      pop\n      jump\t// out\n        /* \"#utility.yul\":796:1046   */\n    tag_53:\n        /* \"#utility.yul\":903:907   */\n      0x00\n        /* \"#utility.yul\":941:943   */\n      0x20\n        /* \"#utility.yul\":930:939   */\n      dup3\n        /* \"#utility.yul\":926:944   */\n      add\n        /* \"#utility.yul\":918:944   */\n      swap1\n      pop\n        /* \"#utility.yul\":954:1039   */\n      tag_676\n        /* \"#utility.yul\":1036:1037   */\n      0x00\n        /* \"#utility.yul\":1025:1034   */\n      dup4\n        /* \"#utility.yul\":1021:1038   */\n      add\n        /* \"#utility.yul\":1012:1018   */\n      dup5\n        /* \"#utility.yul\":954:1039   */\n      tag_558\n      jump\t// in\n    tag_676:\n        /* \"#utility.yul\":796:1046   */\n      swap3\n      swap2\n      pop\n      pop\n      jump\t// out\n        /* \"#utility.yul\":1052:1129   */\n    tag_559:\n        /* \"#utility.yul\":1089:1096   */\n      0x00\n        /* \"#utility.yul\":1118:1123   */\n      dup2\n        /* \"#utility.yul\":1107:1123   */\n      swap1\n      pop\n        /* \"#utility.yul\":1052:1129   */\n      swap2\n      swap1\n      pop\n      jump\t// out\n        /* \"#utility.yul\":1135:1253   */\n    tag_560:\n        /* \"#utility.yul\":1222:1246   */\n      tag_679\n        /* \"#utility.yul\":1240:1245   */\n      dup2\n        /* \"#utility.yul\":1222:1246   */\n      tag_559\n      jump\t// in\n    tag_679:\n        /* \"#utility.yul\":1217:1220   */\n      dup3\n        /* \"#utility.yul\":1210:1247   */\n      mstore\n        /* \"#utility.yul\":1135:1253   */\n      pop\n      pop\n      jump\t// out\n        /* \"#utility.yul\":1259:1481   */\n    tag_58:\n        /* \"#utility.yul\":1352:1356   */\n      0x00\n        /* \"#utility.yul\":1390:1392   */\n      0x20\n        /* \"#utility.yul\":1379:1388   */\n      dup3\n        /* \"#utility.yul\":1375:1393   */\n      add\n        /* \"#utility.yul\":1367:1393   */\n      swap1\n      pop\n        /* \"#utility.yul\":1403:1474   */\n      tag_681\n        /* \"#utility.yul\":1471:1472   */\n      0x00\n        /* \"#utility.yul\":1460:1469   */\n      dup4\n        /* \"#utility.yul\":1456:1473   */\n      add\n        /* \"#utility.yul\":1447:1453   */\n      dup5\n        /* \"#utility.yul\":1403:1474   */\n      tag_560\n      jump\t// in\n    tag_681:\n        /* \"#utility.yul\":1259:1481   */\n      swap3\n      swap2\n      pop\n      pop\n      jump\t// out\n        /* \"#utility.yul\":1568:1685   */\n    tag_562:\n        /* \"#utility.yul\":1677:1678   */\n      0x00\n        /* \"#utility.yul\":1674:1675   */\n      0x00\n        /* \"#utility.yul\":1667:1679   */\n      revert\n        /* \"#utility.yul\":1691:1808   */\n    tag_563:\n        /* \"#utility.yul\":1800:1801   */\n      0x00\n        /* \"#utility.yul\":1797:1798   */\n      0x00\n        /* \"#utility.yul\":1790:1802   */\n      revert\n        /* \"#utility.yul\":1814:1910   */\n    tag_564:\n        /* \"#utility.yul\":1851:1858   */\n      0x00\n        /* \"#utility.yul\":1880:1904   */\n      tag_686\n        /* \"#utility.yul\":1898:1903   */\n      dup3\n        /* \"#utility.yul\":1880:1904   */\n      tag_553\n      jump\t// in\n    tag_686:\n        /* \"#utility.yul\":1869:1904   */\n      swap1\n      pop\n        /* \"#utility.yul\":1814:1910   */\n      swap2\n      swap1\n      pop\n      jump\t// out\n        /* \"#utility.yul\":1916:2038   */\n    tag_565:\n        /* \"#utility.yul\":1989:2013   */\n      tag_688\n        /* \"#utility.yul\":2007:2012   */\n      dup2\n        /* \"#utility.yul\":1989:2013   */\n      tag_564\n      jump\t// in\n    tag_688:\n        /* \"#utility.yul\":1982:1987   */\n      dup2\n        /* \"#utility.yul\":1979:2014   */\n      eq\n        /* \"#utility.yul\":1969:2032   */\n      tag_689\n      jumpi\n        /* \"#utility.yul\":2028:2029   */\n      0x00\n        /* \"#utility.yul\":2025:2026   */\n      0x00\n        /* \"#utility.yul\":2018:2030   */\n      revert\n        /* \"#utility.yul\":1969:2032   */\n    tag_689:\n        /* \"#utility.yul\":1916:2038   */\n      pop\n      jump\t// out\n        /* \"#utility.yul\":2044:2183   */\n    tag_566:\n        /* \"#utility.yul\":2090:2095   */\n      0x00\n        /* \"#utility.yul\":2128:2134   */\n      dup2\n        /* \"#utility.yul\":2115:2135   */\n      calldataload\n        /* \"#utility.yul\":2106:2135   */\n      swap1\n      pop\n        /* \"#utility.yul\":2144:2177   */\n      tag_691\n        /* \"#utility.yul\":2171:2176   */\n      dup2\n        /* \"#utility.yul\":2144:2177   */\n      tag_565\n      jump\t// in\n    tag_691:\n        /* \"#utility.yul\":2044:2183   */\n      swap3\n      swap2\n      pop\n      pop\n      jump\t// out\n        /* \"#utility.yul\":2189:2518   */\n    tag_74:\n        /* \"#utility.yul\":2248:2254   */\n      0x00\n        /* \"#utility.yul\":2297:2299   */\n      0x20\n        /* \"#utility.yul\":2285:2294   */\n      dup3\n        /* \"#utility.yul\":2276:2283   */\n      dup5\n        /* \"#utility.yul\":2272:2295   */\n      sub\n        /* \"#utility.yul\":2268:2300   */\n      slt\n        /* \"#utility.yul\":2265:2384   */\n      iszero\n      tag_693\n      jumpi\n        /* \"#utility.yul\":2303:2382   */\n      tag_694\n      tag_562\n      jump\t// in\n    tag_694:\n        /* \"#utility.yul\":2265:2384   */\n    tag_693:\n        /* \"#utility.yul\":2423:2424   */\n      0x00\n        /* \"#utility.yul\":2448:2501   */\n      tag_695\n        /* \"#utility.yul\":2493:2500   */\n      dup5\n        /* \"#utility.yul\":2484:2490   */\n      dup3\n        /* \"#utility.yul\":2473:2482   */\n      dup6\n        /* \"#utility.yul\":2469:2491   */\n      add\n        /* \"#utility.yul\":2448:2501   */\n      tag_566\n      jump\t// in\n    tag_695:\n        /* \"#utility.yul\":2438:2501   */\n      swap2\n      pop\n        /* \"#utility.yul\":2394:2511   */\n      pop\n        /* \"#utility.yul\":2189:2518   */\n      swap3\n      swap2\n      pop\n      pop\n      jump\t// out\n        /* \"#utility.yul\":2524:2646   */\n    tag_567:\n        /* \"#utility.yul\":2597:2621   */\n      tag_697\n        /* \"#utility.yul\":2615:2620   */\n      dup2\n        /* \"#utility.yul\":2597:2621   */\n      tag_559\n      jump\t// in\n    tag_697:\n        /* \"#utility.yul\":2590:2595   */\n      dup2\n        /* \"#utility.yul\":2587:2622   */\n      eq\n        /* \"#utility.yul\":2577:2640   */\n      tag_698\n      jumpi\n        /* \"#utility.yul\":2636:2637   */\n      0x00\n        /* \"#utility.yul\":2633:2634   */\n      0x00\n        /* \"#utility.yul\":2626:2638   */\n      revert\n        /* \"#utility.yul\":2577:2640   */\n    tag_698:\n        /* \"#utility.yul\":2524:2646   */\n      pop\n      jump\t// out\n        /* \"#utility.yul\":2652:2791   */\n    tag_568:\n        /* \"#utility.yul\":2698:2703   */\n      0x00\n        /* \"#utility.yul\":2736:2742   */\n      dup2\n        /* \"#utility.yul\":2723:2743   */\n      calldataload\n        /* \"#utility.yul\":2714:2743   */\n      swap1\n      pop\n        /* \"#utility.yul\":2752:2785   */\n      tag_700\n        /* \"#utility.yul\":2779:2784   */\n      dup2\n        /* \"#utility.yul\":2752:2785   */\n      tag_567\n      jump\t// in\n    tag_700:\n        /* \"#utility.yul\":2652:2791   */\n      swap3\n      swap2\n      pop\n      pop\n      jump\t// out\n        /* \"#utility.yul\":2797:3126   */\n    tag_87:\n        /* \"#utility.yul\":2856:2862   */\n      0x00\n        /* \"#utility.yul\":2905:2907   */\n      0x20\n        /* \"#utility.yul\":2893:2902   */\n      dup3\n        /* \"#utility.yul\":2884:2891   */\n      dup5\n        /* \"#utility.yul\":2880:2903   */\n      sub\n        /* \"#utility.yul\":2876:2908   */\n      slt\n        /* \"#utility.yul\":2873:2992   */\n      iszero\n      tag_702\n      jumpi\n        /* \"#utility.yul\":2911:2990   */\n      tag_703\n      tag_562\n      jump\t// in\n    tag_703:\n        /* \"#utility.yul\":2873:2992   */\n    tag_702:\n        /* \"#utility.yul\":3031:3032   */\n      0x00\n        /* \"#utility.yul\":3056:3109   */\n      tag_704\n        /* \"#utility.yul\":3101:3108   */\n      dup5\n        /* \"#utility.yul\":3092:3098   */\n      dup3\n        /* \"#utility.yul\":3081:3090   */\n      dup6\n        /* \"#utility.yul\":3077:3099   */\n      add\n        /* \"#utility.yul\":3056:3109   */\n      tag_568\n      jump\t// in\n    tag_704:\n        /* \"#utility.yul\":3046:3109   */\n      swap2\n      pop\n        /* \"#utility.yul\":3002:3119   */\n      pop\n        /* \"#utility.yul\":2797:3126   */\n      swap3\n      swap2\n      pop\n      pop\n      jump\t// out\n        /* \"#utility.yul\":3132:3250   */\n    tag_569:\n        /* \"#utility.yul\":3219:3243   */\n      tag_706\n        /* \"#utility.yul\":3237:3242   */\n      dup2\n        /* \"#utility.yul\":3219:3243   */\n      tag_564\n      jump\t// in\n    tag_706:\n        /* \"#utility.yul\":3214:3217   */\n      dup3\n        /* \"#utility.yul\":3207:3244   */\n      mstore\n        /* \"#utility.yul\":3132:3250   */\n      pop\n      pop\n      jump\t// out\n        /* \"#utility.yul\":3256:3478   */\n    tag_102:\n        /* \"#utility.yul\":3349:3353   */\n      0x00\n        /* \"#utility.yul\":3387:3389   */\n      0x20\n        /* \"#utility.yul\":3376:3385   */\n      dup3\n        /* \"#utility.yul\":3372:3390   */\n      add\n        /* \"#utility.yul\":3364:3390   */\n      swap1\n      pop\n        /* \"#utility.yul\":3400:3471   */\n      tag_708\n        /* \"#utility.yul\":3468:3469   */\n      0x00\n        /* \"#utility.yul\":3457:3466   */\n      dup4\n        /* \"#utility.yul\":3453:3470   */\n      add\n        /* \"#utility.yul\":3444:3450   */\n      dup5\n        /* \"#utility.yul\":3400:3471   */\n      tag_569\n      jump\t// in\n    tag_708:\n        /* \"#utility.yul\":3256:3478   */\n      swap3\n      swap2\n      pop\n      pop\n      jump\t// out\n        /* \"#utility.yul\":3484:3583   */\n    tag_570:\n        /* \"#utility.yul\":3536:3542   */\n      0x00\n        /* \"#utility.yul\":3570:3575   */\n      dup2\n        /* \"#utility.yul\":3564:3576   */\n      mload\n        /* \"#utility.yul\":3554:3576   */\n      swap1\n      pop\n        /* \"#utility.yul\":3484:3583   */\n      swap2\n      swap1\n      pop\n      jump\t// out\n        /* \"#utility.yul\":3589:3758   */\n    tag_571:\n        /* \"#utility.yul\":3673:3684   */\n      0x00\n        /* \"#utility.yul\":3707:3713   */\n      dup3\n        /* \"#utility.yul\":3702:3705   */\n      dup3\n        /* \"#utility.yul\":3695:3714   */\n      mstore\n        /* \"#utility.yul\":3747:3751   */\n      0x20\n        /* \"#utility.yul\":3742:3745   */\n      dup3\n        /* \"#utility.yul\":3738:3752   */\n      add\n        /* \"#utility.yul\":3723:3752   */\n      swap1\n      pop\n        /* \"#utility.yul\":3589:3758   */\n      swap3\n      swap2\n      pop\n      pop\n      jump\t// out\n        /* \"#utility.yul\":3764:3903   */\n    tag_572:\n        /* \"#utility.yul\":3853:3859   */\n      dup3\n        /* \"#utility.yul\":3848:3851   */\n      dup2\n        /* \"#utility.yul\":3843:3846   */\n      dup4\n        /* \"#utility.yul\":3837:3860   */\n      mcopy\n        /* \"#utility.yul\":3894:3895   */\n      0x00\n        /* \"#utility.yul\":3885:3891   */\n      dup4\n        /* \"#utility.yul\":3880:3883   */\n      dup4\n        /* \"#utility.yul\":3876:3892   */\n      add\n        /* \"#utility.yul\":3869:3896   */\n      mstore\n        /* \"#utility.yul\":3764:3903   */\n      pop\n      pop\n      pop\n      jump\t// out\n        /* \"#utility.yul\":3909:4011   */\n    tag_573:\n        /* \"#utility.yul\":3950:3956   */\n      0x00\n        /* \"#utility.yul\":4001:4003   */\n      0x1f\n        /* \"#utility.yul\":3997:4004   */\n      not\n        /* \"#utility.yul\":3992:3994   */\n      0x1f\n        /* \"#utility.yul\":3985:3990   */\n      dup4\n        /* \"#utility.yul\":3981:3995   */\n      add\n        /* \"#utility.yul\":3977:4005   */\n      and\n        /* \"#utility.yul\":3967:4005   */\n      swap1\n      pop\n        /* \"#utility.yul\":3909:4011   */\n      swap2\n      swap1\n      pop\n      jump\t// out\n        /* \"#utility.yul\":4017:4394   */\n    tag_574:\n        /* \"#utility.yul\":4105:4108   */\n      0x00\n        /* \"#utility.yul\":4133:4172   */\n      tag_714\n        /* \"#utility.yul\":4166:4171   */\n      dup3\n        /* \"#utility.yul\":4133:4172   */\n      tag_570\n      jump\t// in\n    tag_714:\n        /* \"#utility.yul\":4188:4259   */\n      tag_715\n        /* \"#utility.yul\":4252:4258   */\n      dup2\n        /* \"#utility.yul\":4247:4250   */\n      dup6\n        /* \"#utility.yul\":4188:4259   */\n      tag_571\n      jump\t// in\n    tag_715:\n        /* \"#utility.yul\":4181:4259   */\n      swap4\n      pop\n        /* \"#utility.yul\":4268:4333   */\n      tag_716\n        /* \"#utility.yul\":4326:4332   */\n      dup2\n        /* \"#utility.yul\":4321:4324   */\n      dup6\n        /* \"#utility.yul\":4314:4318   */\n      0x20\n        /* \"#utility.yul\":4307:4312   */\n      dup7\n        /* \"#utility.yul\":4303:4319   */\n      add\n        /* \"#utility.yul\":4268:4333   */\n      tag_572\n      jump\t// in\n    tag_716:\n        /* \"#utility.yul\":4358:4387   */\n      tag_717\n        /* \"#utility.yul\":4380:4386   */\n      dup2\n        /* \"#utility.yul\":4358:4387   */\n      tag_573\n      jump\t// in\n    tag_717:\n        /* \"#utility.yul\":4353:4356   */\n      dup5\n        /* \"#utility.yul\":4349:4388   */\n      add\n        /* \"#utility.yul\":4342:4388   */\n      swap2\n      pop\n        /* \"#utility.yul\":4109:4394   */\n      pop\n        /* \"#utility.yul\":4017:4394   */\n      swap3\n      swap2\n      pop\n      pop\n      jump\t// out\n        /* \"#utility.yul\":4400:4713   */\n    tag_107:\n        /* \"#utility.yul\":4513:4517   */\n      0x00\n        /* \"#utility.yul\":4551:4553   */\n      0x20\n        /* \"#utility.yul\":4540:4549   */\n      dup3\n        /* \"#utility.yul\":4536:4554   */\n      add\n        /* \"#utility.yul\":4528:4554   */\n      swap1\n      pop\n        /* \"#utility.yul\":4600:4609   */\n      dup2\n        /* \"#utility.yul\":4594:4598   */\n      dup2\n        /* \"#utility.yul\":4590:4610   */\n      sub\n        /* \"#utility.yul\":4586:4587   */\n      0x00\n        /* \"#utility.yul\":4575:4584   */\n      dup4\n        /* \"#utility.yul\":4571:4588   */\n      add\n        /* \"#utility.yul\":4564:4611   */\n      mstore\n        /* \"#utility.yul\":4628:4706   */\n      tag_719\n        /* \"#utility.yul\":4701:4705   */\n      dup2\n        /* \"#utility.yul\":4692:4698   */\n      dup5\n        /* \"#utility.yul\":4628:4706   */\n      tag_574\n      jump\t// in\n    tag_719:\n        /* \"#utility.yul\":4620:4706   */\n      swap1\n      pop\n        /* \"#utility.yul\":4400:4713   */\n      swap3\n      swap2\n      pop\n      pop\n      jump\t// out\n        /* \"#utility.yul\":4719:4836   */\n    tag_575:\n        /* \"#utility.yul\":4828:4829   */\n      0x00\n        /* \"#utility.yul\":4825:4826   */\n      0x00\n        /* \"#utility.yul\":4818:4830   */\n      revert\n        /* \"#utility.yul\":4842:4959   */\n    tag_576:\n        /* \"#utility.yul\":4951:4952   */\n      0x00\n        /* \"#utility.yul\":4948:4949   */\n      0x00\n        /* \"#utility.yul\":4941:4953   */\n      revert\n        /* \"#utility.yul\":4965:5082   */\n    tag_577:\n        /* \"#utility.yul\":5074:5075   */\n      0x00\n        /* \"#utility.yul\":5071:5072   */\n      0x00\n        /* \"#utility.yul\":5064:5076   */\n      revert\n        /* \"#utility.yul\":5101:5653   */\n    tag_578:\n        /* \"#utility.yul\":5158:5166   */\n      0x00\n        /* \"#utility.yul\":5168:5174   */\n      0x00\n        /* \"#utility.yul\":5218:5221   */\n      dup4\n        /* \"#utility.yul\":5211:5215   */\n      0x1f\n        /* \"#utility.yul\":5203:5209   */\n      dup5\n        /* \"#utility.yul\":5199:5216   */\n      add\n        /* \"#utility.yul\":5195:5222   */\n      slt\n        /* \"#utility.yul\":5185:5307   */\n      tag_724\n      jumpi\n        /* \"#utility.yul\":5226:5305   */\n      tag_725\n      tag_575\n      jump\t// in\n    tag_725:\n        /* \"#utility.yul\":5185:5307   */\n    tag_724:\n        /* \"#utility.yul\":5339:5345   */\n      dup3\n        /* \"#utility.yul\":5326:5346   */\n      calldataload\n        /* \"#utility.yul\":5316:5346   */\n      swap1\n      pop\n        /* \"#utility.yul\":5369:5387   */\n      0xffffffffffffffff\n        /* \"#utility.yul\":5361:5367   */\n      dup2\n        /* \"#utility.yul\":5358:5388   */\n      gt\n        /* \"#utility.yul\":5355:5472   */\n      iszero\n      tag_726\n      jumpi\n        /* \"#utility.yul\":5391:5470   */\n      tag_727\n      tag_576\n      jump\t// in\n    tag_727:\n        /* \"#utility.yul\":5355:5472   */\n    tag_726:\n        /* \"#utility.yul\":5505:5509   */\n      0x20\n        /* \"#utility.yul\":5497:5503   */\n      dup4\n        /* \"#utility.yul\":5493:5510   */\n      add\n        /* \"#utility.yul\":5481:5510   */\n      swap2\n      pop\n        /* \"#utility.yul\":5559:5562   */\n      dup4\n        /* \"#utility.yul\":5551:5555   */\n      0x01\n        /* \"#utility.yul\":5543:5549   */\n      dup3\n        /* \"#utility.yul\":5539:5556   */\n      mul\n        /* \"#utility.yul\":5529:5537   */\n      dup4\n        /* \"#utility.yul\":5525:5557   */\n      add\n        /* \"#utility.yul\":5522:5563   */\n      gt\n        /* \"#utility.yul\":5519:5647   */\n      iszero\n      tag_728\n      jumpi\n        /* \"#utility.yul\":5566:5645   */\n      tag_729\n      tag_577\n      jump\t// in\n    tag_729:\n        /* \"#utility.yul\":5519:5647   */\n    tag_728:\n        /* \"#utility.yul\":5101:5653   */\n      swap3\n      pop\n      swap3\n      swap1\n      pop\n      jump\t// out\n        /* \"#utility.yul\":5659:6331   */\n    tag_114:\n        /* \"#utility.yul\":5738:5744   */\n      0x00\n        /* \"#utility.yul\":5746:5752   */\n      0x00\n        /* \"#utility.yul\":5754:5760   */\n      0x00\n        /* \"#utility.yul\":5803:5805   */\n      0x40\n        /* \"#utility.yul\":5791:5800   */\n      dup5\n        /* \"#utility.yul\":5782:5789   */\n      dup7\n        /* \"#utility.yul\":5778:5801   */\n      sub\n        /* \"#utility.yul\":5774:5806   */\n      slt\n        /* \"#utility.yul\":5771:5890   */\n      iszero\n      tag_731\n      jumpi\n        /* \"#utility.yul\":5809:5888   */\n      tag_732\n      tag_562\n      jump\t// in\n    tag_732:\n        /* \"#utility.yul\":5771:5890   */\n    tag_731:\n        /* \"#utility.yul\":5929:5930   */\n      0x00\n        /* \"#utility.yul\":5954:6007   */\n      tag_733\n        /* \"#utility.yul\":5999:6006   */\n      dup7\n        /* \"#utility.yul\":5990:5996   */\n      dup3\n        /* \"#utility.yul\":5979:5988   */\n      dup8\n        /* \"#utility.yul\":5975:5997   */\n      add\n        /* \"#utility.yul\":5954:6007   */\n      tag_566\n      jump\t// in\n    tag_733:\n        /* \"#utility.yul\":5944:6007   */\n      swap4\n      pop\n        /* \"#utility.yul\":5900:6017   */\n      pop\n        /* \"#utility.yul\":6084:6086   */\n      0x20\n        /* \"#utility.yul\":6073:6082   */\n      dup5\n        /* \"#utility.yul\":6069:6087   */\n      add\n        /* \"#utility.yul\":6056:6088   */\n      calldataload\n        /* \"#utility.yul\":6115:6133   */\n      0xffffffffffffffff\n        /* \"#utility.yul\":6107:6113   */\n      dup2\n        /* \"#utility.yul\":6104:6134   */\n      gt\n        /* \"#utility.yul\":6101:6218   */\n      iszero\n      tag_734\n      jumpi\n        /* \"#utility.yul\":6137:6216   */\n      tag_735\n      tag_563\n      jump\t// in\n    tag_735:\n        /* \"#utility.yul\":6101:6218   */\n    tag_734:\n        /* \"#utility.yul\":6250:6314   */\n      tag_736\n        /* \"#utility.yul\":6306:6313   */\n      dup7\n        /* \"#utility.yul\":6297:6303   */\n      dup3\n        /* \"#utility.yul\":6286:6295   */\n      dup8\n        /* \"#utility.yul\":6282:6304   */\n      add\n        /* \"#utility.yul\":6250:6314   */\n      tag_578\n      jump\t// in\n    tag_736:\n        /* \"#utility.yul\":6232:6314   */\n      swap3\n      pop\n      swap3\n      pop\n        /* \"#utility.yul\":6027:6324   */\n      pop\n        /* \"#utility.yul\":5659:6331   */\n      swap3\n      pop\n      swap3\n      pop\n      swap3\n      jump\t// out\n        /* \"#utility.yul\":6337:6414   */\n    tag_579:\n        /* \"#utility.yul\":6374:6381   */\n      0x00\n        /* \"#utility.yul\":6403:6408   */\n      dup2\n        /* \"#utility.yul\":6392:6408   */\n      swap1\n      pop\n        /* \"#utility.yul\":6337:6414   */\n      swap2\n      swap1\n      pop\n      jump\t// out\n        /* \"#utility.yul\":6420:6538   */\n    tag_580:\n        /* \"#utility.yul\":6507:6531   */\n      tag_739\n        /* \"#utility.yul\":6525:6530   */\n      dup2\n        /* \"#utility.yul\":6507:6531   */\n      tag_579\n      jump\t// in\n    tag_739:\n        /* \"#utility.yul\":6502:6505   */\n      dup3\n        /* \"#utility.yul\":6495:6532   */\n      mstore\n        /* \"#utility.yul\":6420:6538   */\n      pop\n      pop\n      jump\t// out\n        /* \"#utility.yul\":6544:6766   */\n    tag_120:\n        /* \"#utility.yul\":6637:6641   */\n      0x00\n        /* \"#utility.yul\":6675:6677   */\n      0x20\n        /* \"#utility.yul\":6664:6673   */\n      dup3\n        /* \"#utility.yul\":6660:6678   */\n      add\n        /* \"#utility.yul\":6652:6678   */\n      swap1\n      pop\n        /* \"#utility.yul\":6688:6759   */\n      tag_741\n        /* \"#utility.yul\":6756:6757   */\n      0x00\n        /* \"#utility.yul\":6745:6754   */\n      dup4\n        /* \"#utility.yul\":6741:6758   */\n      add\n        /* \"#utility.yul\":6732:6738   */\n      dup5\n        /* \"#utility.yul\":6688:6759   */\n      tag_580\n      jump\t// in\n    tag_741:\n        /* \"#utility.yul\":6544:6766   */\n      swap3\n      swap2\n      pop\n      pop\n      jump\t// out\n        /* \"#utility.yul\":6772:7214   */\n    tag_126:\n        /* \"#utility.yul\":6921:6925   */\n      0x00\n        /* \"#utility.yul\":6959:6961   */\n      0x60\n        /* \"#utility.yul\":6948:6957   */\n      dup3\n        /* \"#utility.yul\":6944:6962   */\n      add\n        /* \"#utility.yul\":6936:6962   */\n      swap1\n      pop\n        /* \"#utility.yul\":6972:7043   */\n      tag_743\n        /* \"#utility.yul\":7040:7041   */\n      0x00\n        /* \"#utility.yul\":7029:7038   */\n      dup4\n        /* \"#utility.yul\":7025:7042   */\n      add\n        /* \"#utility.yul\":7016:7022   */\n      dup7\n        /* \"#utility.yul\":6972:7043   */\n      tag_560\n      jump\t// in\n    tag_743:\n        /* \"#utility.yul\":7053:7125   */\n      tag_744\n        /* \"#utility.yul\":7121:7123   */\n      0x20\n        /* \"#utility.yul\":7110:7119   */\n      dup4\n        /* \"#utility.yul\":7106:7124   */\n      add\n        /* \"#utility.yul\":7097:7103   */\n      dup6\n        /* \"#utility.yul\":7053:7125   */\n      tag_560\n      jump\t// in\n    tag_744:\n        /* \"#utility.yul\":7135:7207   */\n      tag_745\n        /* \"#utility.yul\":7203:7205   */\n      0x40\n        /* \"#utility.yul\":7192:7201   */\n      dup4\n        /* \"#utility.yul\":7188:7206   */\n      add\n        /* \"#utility.yul\":7179:7185   */\n      dup5\n        /* \"#utility.yul\":7135:7207   */\n      tag_560\n      jump\t// in\n    tag_745:\n        /* \"#utility.yul\":6772:7214   */\n      swap5\n      swap4\n      pop\n      pop\n      pop\n      pop\n      jump\t// out\n        /* \"#utility.yul\":7220:7361   */\n    tag_581:\n        /* \"#utility.yul\":7285:7294   */\n      0x00\n        /* \"#utility.yul\":7318:7355   */\n      tag_747\n        /* \"#utility.yul\":7349:7354   */\n      dup3\n        /* \"#utility.yul\":7318:7355   */\n      tag_556\n      jump\t// in\n    tag_747:\n        /* \"#utility.yul\":7305:7355   */\n      swap1\n      pop\n        /* \"#utility.yul\":7220:7361   */\n      swap2\n      swap1\n      pop\n      jump\t// out\n        /* \"#utility.yul\":7367:7528   */\n    tag_582:\n        /* \"#utility.yul\":7469:7521   */\n      tag_749\n        /* \"#utility.yul\":7515:7520   */\n      dup2\n        /* \"#utility.yul\":7469:7521   */\n      tag_581\n      jump\t// in\n    tag_749:\n        /* \"#utility.yul\":7464:7467   */\n      dup3\n        /* \"#utility.yul\":7457:7522   */\n      mstore\n        /* \"#utility.yul\":7367:7528   */\n      pop\n      pop\n      jump\t// out\n        /* \"#utility.yul\":7534:7786   */\n    tag_161:\n        /* \"#utility.yul\":7642:7646   */\n      0x00\n        /* \"#utility.yul\":7680:7682   */\n      0x20\n        /* \"#utility.yul\":7669:7678   */\n      dup3\n        /* \"#utility.yul\":7665:7683   */\n      add\n        /* \"#utility.yul\":7657:7683   */\n      swap1\n      pop\n        /* \"#utility.yul\":7693:7779   */\n      tag_751\n        /* \"#utility.yul\":7776:7777   */\n      0x00\n        /* \"#utility.yul\":7765:7774   */\n      dup4\n        /* \"#utility.yul\":7761:7778   */\n      add\n        /* \"#utility.yul\":7752:7758   */\n      dup5\n        /* \"#utility.yul\":7693:7779   */\n      tag_582\n      jump\t// in\n    tag_751:\n        /* \"#utility.yul\":7534:7786   */\n      swap3\n      swap2\n      pop\n      pop\n      jump\t// out\n        /* \"#utility.yul\":7792:7909   */\n    tag_583:\n        /* \"#utility.yul\":7901:7902   */\n      0x00\n        /* \"#utility.yul\":7898:7899   */\n      0x00\n        /* \"#utility.yul\":7891:7903   */\n      revert\n        /* \"#utility.yul\":7947:8181   */\n    tag_584:\n        /* \"#utility.yul\":8022:8027   */\n      0x00\n        /* \"#utility.yul\":8063:8066   */\n      0x0160\n        /* \"#utility.yul\":8054:8060   */\n      dup3\n        /* \"#utility.yul\":8049:8052   */\n      dup5\n        /* \"#utility.yul\":8045:8061   */\n      sub\n        /* \"#utility.yul\":8041:8067   */\n      slt\n        /* \"#utility.yul\":8038:8151   */\n      iszero\n      tag_754\n      jumpi\n        /* \"#utility.yul\":8070:8149   */\n      tag_755\n      tag_583\n      jump\t// in\n    tag_755:\n        /* \"#utility.yul\":8038:8151   */\n    tag_754:\n        /* \"#utility.yul\":8169:8175   */\n      dup2\n        /* \"#utility.yul\":8160:8175   */\n      swap1\n      pop\n        /* \"#utility.yul\":7947:8181   */\n      swap3\n      swap2\n      pop\n      pop\n      jump\t// out\n        /* \"#utility.yul\":8201:8754   */\n    tag_585:\n        /* \"#utility.yul\":8259:8267   */\n      0x00\n        /* \"#utility.yul\":8269:8275   */\n      0x00\n        /* \"#utility.yul\":8319:8322   */\n      dup4\n        /* \"#utility.yul\":8312:8316   */\n      0x1f\n        /* \"#utility.yul\":8304:8310   */\n      dup5\n        /* \"#utility.yul\":8300:8317   */\n      add\n        /* \"#utility.yul\":8296:8323   */\n      slt\n        /* \"#utility.yul\":8286:8408   */\n      tag_757\n      jumpi\n        /* \"#utility.yul\":8327:8406   */\n      tag_758\n      tag_575\n      jump\t// in\n    tag_758:\n        /* \"#utility.yul\":8286:8408   */\n    tag_757:\n        /* \"#utility.yul\":8440:8446   */\n      dup3\n        /* \"#utility.yul\":8427:8447   */\n      calldataload\n        /* \"#utility.yul\":8417:8447   */\n      swap1\n      pop\n        /* \"#utility.yul\":8470:8488   */\n      0xffffffffffffffff\n        /* \"#utility.yul\":8462:8468   */\n      dup2\n        /* \"#utility.yul\":8459:8489   */\n      gt\n        /* \"#utility.yul\":8456:8573   */\n      iszero\n      tag_759\n      jumpi\n        /* \"#utility.yul\":8492:8571   */\n      tag_760\n      tag_576\n      jump\t// in\n    tag_760:\n        /* \"#utility.yul\":8456:8573   */\n    tag_759:\n        /* \"#utility.yul\":8606:8610   */\n      0x20\n        /* \"#utility.yul\":8598:8604   */\n      dup4\n        /* \"#utility.yul\":8594:8611   */\n      add\n        /* \"#utility.yul\":8582:8611   */\n      swap2\n      pop\n        /* \"#utility.yul\":8660:8663   */\n      dup4\n        /* \"#utility.yul\":8652:8656   */\n      0x01\n        /* \"#utility.yul\":8644:8650   */\n      dup3\n        /* \"#utility.yul\":8640:8657   */\n      mul\n        /* \"#utility.yul\":8630:8638   */\n      dup4\n        /* \"#utility.yul\":8626:8658   */\n      add\n        /* \"#utility.yul\":8623:8664   */\n      gt\n        /* \"#utility.yul\":8620:8748   */\n      iszero\n      tag_761\n      jumpi\n        /* \"#utility.yul\":8667:8746   */\n      tag_762\n      tag_577\n      jump\t// in\n    tag_762:\n        /* \"#utility.yul\":8620:8748   */\n    tag_761:\n        /* \"#utility.yul\":8201:8754   */\n      swap3\n      pop\n      swap3\n      swap1\n      pop\n      jump\t// out\n        /* \"#utility.yul\":8760:9840   */\n    tag_180:\n        /* \"#utility.yul\":8890:8896   */\n      0x00\n        /* \"#utility.yul\":8898:8904   */\n      0x00\n        /* \"#utility.yul\":8906:8912   */\n      0x00\n        /* \"#utility.yul\":8914:8920   */\n      0x00\n        /* \"#utility.yul\":8922:8928   */\n      0x00\n        /* \"#utility.yul\":8971:8974   */\n      0x01a0\n        /* \"#utility.yul\":8959:8968   */\n      dup7\n        /* \"#utility.yul\":8950:8957   */\n      dup9\n        /* \"#utility.yul\":8946:8969   */\n      sub\n        /* \"#utility.yul\":8942:8975   */\n      slt\n        /* \"#utility.yul\":8939:9059   */\n      iszero\n      tag_764\n      jumpi\n        /* \"#utility.yul\":8978:9057   */\n      tag_765\n      tag_562\n      jump\t// in\n    tag_765:\n        /* \"#utility.yul\":8939:9059   */\n    tag_764:\n        /* \"#utility.yul\":9098:9099   */\n      0x00\n        /* \"#utility.yul\":9123:9205   */\n      tag_766\n        /* \"#utility.yul\":9197:9204   */\n      dup9\n        /* \"#utility.yul\":9188:9194   */\n      dup3\n        /* \"#utility.yul\":9177:9186   */\n      dup10\n        /* \"#utility.yul\":9173:9195   */\n      add\n        /* \"#utility.yul\":9123:9205   */\n      tag_584\n      jump\t// in\n    tag_766:\n        /* \"#utility.yul\":9113:9205   */\n      swap6\n      pop\n        /* \"#utility.yul\":9069:9215   */\n      pop\n        /* \"#utility.yul\":9282:9285   */\n      0x0160\n        /* \"#utility.yul\":9271:9280   */\n      dup7\n        /* \"#utility.yul\":9267:9286   */\n      add\n        /* \"#utility.yul\":9254:9287   */\n      calldataload\n        /* \"#utility.yul\":9314:9332   */\n      0xffffffffffffffff\n        /* \"#utility.yul\":9306:9312   */\n      dup2\n        /* \"#utility.yul\":9303:9333   */\n      gt\n        /* \"#utility.yul\":9300:9417   */\n      iszero\n      tag_767\n      jumpi\n        /* \"#utility.yul\":9336:9415   */\n      tag_768\n      tag_563\n      jump\t// in\n    tag_768:\n        /* \"#utility.yul\":9300:9417   */\n    tag_767:\n        /* \"#utility.yul\":9449:9514   */\n      tag_769\n        /* \"#utility.yul\":9506:9513   */\n      dup9\n        /* \"#utility.yul\":9497:9503   */\n      dup3\n        /* \"#utility.yul\":9486:9495   */\n      dup10\n        /* \"#utility.yul\":9482:9504   */\n      add\n        /* \"#utility.yul\":9449:9514   */\n      tag_585\n      jump\t// in\n    tag_769:\n        /* \"#utility.yul\":9431:9514   */\n      swap5\n      pop\n      swap5\n      pop\n        /* \"#utility.yul\":9225:9524   */\n      pop\n        /* \"#utility.yul\":9591:9594   */\n      0x0180\n        /* \"#utility.yul\":9580:9589   */\n      dup7\n        /* \"#utility.yul\":9576:9595   */\n      add\n        /* \"#utility.yul\":9563:9596   */\n      calldataload\n        /* \"#utility.yul\":9623:9641   */\n      0xffffffffffffffff\n        /* \"#utility.yul\":9615:9621   */\n      dup2\n        /* \"#utility.yul\":9612:9642   */\n      gt\n        /* \"#utility.yul\":9609:9726   */\n      iszero\n      tag_770\n      jumpi\n        /* \"#utility.yul\":9645:9724   */\n      tag_771\n      tag_563\n      jump\t// in\n    tag_771:\n        /* \"#utility.yul\":9609:9726   */\n    tag_770:\n        /* \"#utility.yul\":9758:9823   */\n      tag_772\n        /* \"#utility.yul\":9815:9822   */\n      dup9\n        /* \"#utility.yul\":9806:9812   */\n      dup3\n        /* \"#utility.yul\":9795:9804   */\n      dup10\n        /* \"#utility.yul\":9791:9813   */\n      add\n        /* \"#utility.yul\":9758:9823   */\n      tag_585\n      jump\t// in\n    tag_772:\n        /* \"#utility.yul\":9740:9823   */\n      swap3\n      pop\n      swap3\n      pop\n        /* \"#utility.yul\":9534:9833   */\n      pop\n        /* \"#utility.yul\":8760:9840   */\n      swap3\n      swap6\n      pop\n      swap3\n      swap6\n      swap1\n      swap4\n      pop\n      jump\t// out\n        /* \"#utility.yul\":9846:10465   */\n    tag_201:\n        /* \"#utility.yul\":9923:9929   */\n      0x00\n        /* \"#utility.yul\":9931:9937   */\n      0x00\n        /* \"#utility.yul\":9939:9945   */\n      0x00\n        /* \"#utility.yul\":9988:9990   */\n      0x60\n        /* \"#utility.yul\":9976:9985   */\n      dup5\n        /* \"#utility.yul\":9967:9974   */\n      dup7\n        /* \"#utility.yul\":9963:9986   */\n      sub\n        /* \"#utility.yul\":9959:9991   */\n      slt\n        /* \"#utility.yul\":9956:10075   */\n      iszero\n      tag_774\n      jumpi\n        /* \"#utility.yul\":9994:10073   */\n      tag_775\n      tag_562\n      jump\t// in\n    tag_775:\n        /* \"#utility.yul\":9956:10075   */\n    tag_774:\n        /* \"#utility.yul\":10114:10115   */\n      0x00\n        /* \"#utility.yul\":10139:10192   */\n      tag_776\n        /* \"#utility.yul\":10184:10191   */\n      dup7\n        /* \"#utility.yul\":10175:10181   */\n      dup3\n        /* \"#utility.yul\":10164:10173   */\n      dup8\n        /* \"#utility.yul\":10160:10182   */\n      add\n        /* \"#utility.yul\":10139:10192   */\n      tag_568\n      jump\t// in\n    tag_776:\n        /* \"#utility.yul\":10129:10192   */\n      swap4\n      pop\n        /* \"#utility.yul\":10085:10202   */\n      pop\n        /* \"#utility.yul\":10241:10243   */\n      0x20\n        /* \"#utility.yul\":10267:10320   */\n      tag_777\n        /* \"#utility.yul\":10312:10319   */\n      dup7\n        /* \"#utility.yul\":10303:10309   */\n      dup3\n        /* \"#utility.yul\":10292:10301   */\n      dup8\n        /* \"#utility.yul\":10288:10310   */\n      add\n        /* \"#utility.yul\":10267:10320   */\n      tag_568\n      jump\t// in\n    tag_777:\n        /* \"#utility.yul\":10257:10320   */\n      swap3\n      pop\n        /* \"#utility.yul\":10212:10330   */\n      pop\n        /* \"#utility.yul\":10369:10371   */\n      0x40\n        /* \"#utility.yul\":10395:10448   */\n      tag_778\n        /* \"#utility.yul\":10440:10447   */\n      dup7\n        /* \"#utility.yul\":10431:10437   */\n      dup3\n        /* \"#utility.yul\":10420:10429   */\n      dup8\n        /* \"#utility.yul\":10416:10438   */\n      add\n        /* \"#utility.yul\":10395:10448   */\n      tag_568\n      jump\t// in\n    tag_778:\n        /* \"#utility.yul\":10385:10448   */\n      swap2\n      pop\n        /* \"#utility.yul\":10340:10458   */\n      pop\n        /* \"#utility.yul\":9846:10465   */\n      swap3\n      pop\n      swap3\n      pop\n      swap3\n      jump\t// out\n        /* \"#utility.yul\":10471:10635   */\n    tag_586:\n        /* \"#utility.yul\":10611:10627   */\n      0x4e4f545f4c495155494441544f52000000000000000000000000000000000000\n        /* \"#utility.yul\":10607:10608   */\n      0x00\n        /* \"#utility.yul\":10599:10605   */\n      dup3\n        /* \"#utility.yul\":10595:10609   */\n      add\n        /* \"#utility.yul\":10588:10628   */\n      mstore\n        /* \"#utility.yul\":10471:10635   */\n      pop\n      jump\t// out\n        /* \"#utility.yul\":10641:11007   */\n    tag_587:\n        /* \"#utility.yul\":10783:10786   */\n      0x00\n        /* \"#utility.yul\":10804:10871   */\n      tag_781\n        /* \"#utility.yul\":10868:10870   */\n      0x0e\n        /* \"#utility.yul\":10863:10866   */\n      dup4\n        /* \"#utility.yul\":10804:10871   */\n      tag_571\n      jump\t// in\n    tag_781:\n        /* \"#utility.yul\":10797:10871   */\n      swap2\n      pop\n        /* \"#utility.yul\":10880:10973   */\n      tag_782\n        /* \"#utility.yul\":10969:10972   */\n      dup3\n        /* \"#utility.yul\":10880:10973   */\n      tag_586\n      jump\t// in\n    tag_782:\n        /* \"#utility.yul\":10998:11000   */\n      0x20\n        /* \"#utility.yul\":10993:10996   */\n      dup3\n        /* \"#utility.yul\":10989:11001   */\n      add\n        /* \"#utility.yul\":10982:11001   */\n      swap1\n      pop\n        /* \"#utility.yul\":10641:11007   */\n      swap2\n      swap1\n      pop\n      jump\t// out\n        /* \"#utility.yul\":11013:11432   */\n    tag_228:\n        /* \"#utility.yul\":11179:11183   */\n      0x00\n        /* \"#utility.yul\":11217:11219   */\n      0x20\n        /* \"#utility.yul\":11206:11215   */\n      dup3\n        /* \"#utility.yul\":11202:11220   */\n      add\n        /* \"#utility.yul\":11194:11220   */\n      swap1\n      pop\n        /* \"#utility.yul\":11266:11275   */\n      dup2\n        /* \"#utility.yul\":11260:11264   */\n      dup2\n        /* \"#utility.yul\":11256:11276   */\n      sub\n        /* \"#utility.yul\":11252:11253   */\n      0x00\n        /* \"#utility.yul\":11241:11250   */\n      dup4\n        /* \"#utility.yul\":11237:11254   */\n      add\n        /* \"#utility.yul\":11230:11277   */\n      mstore\n        /* \"#utility.yul\":11294:11425   */\n      tag_784\n        /* \"#utility.yul\":11420:11424   */\n      dup2\n        /* \"#utility.yul\":11294:11425   */\n      tag_587\n      jump\t// in\n    tag_784:\n        /* \"#utility.yul\":11286:11425   */\n      swap1\n      pop\n        /* \"#utility.yul\":11013:11432   */\n      swap2\n      swap1\n      pop\n      jump\t// out\n        /* \"#utility.yul\":11438:11604   */\n    tag_588:\n        /* \"#utility.yul\":11578:11596   */\n      0x504f534954494f4e5f4845414c54485900000000000000000000000000000000\n        /* \"#utility.yul\":11574:11575   */\n      0x00\n        /* \"#utility.yul\":11566:11572   */\n      dup3\n        /* \"#utility.yul\":11562:11576   */\n      add\n        /* \"#utility.yul\":11555:11597   */\n      mstore\n        /* \"#utility.yul\":11438:11604   */\n      pop\n      jump\t// out\n        /* \"#utility.yul\":11610:11976   */\n    tag_589:\n        /* \"#utility.yul\":11752:11755   */\n      0x00\n        /* \"#utility.yul\":11773:11840   */\n      tag_787\n        /* \"#utility.yul\":11837:11839   */\n      0x10\n        /* \"#utility.yul\":11832:11835   */\n      dup4\n        /* \"#utility.yul\":11773:11840   */\n      tag_571\n      jump\t// in\n    tag_787:\n        /* \"#utility.yul\":11766:11840   */\n      swap2\n      pop\n        /* \"#utility.yul\":11849:11942   */\n      tag_788\n        /* \"#utility.yul\":11938:11941   */\n      dup3\n        /* \"#utility.yul\":11849:11942   */\n      tag_588\n      jump\t// in\n    tag_788:\n        /* \"#utility.yul\":11967:11969   */\n      0x20\n        /* \"#utility.yul\":11962:11965   */\n      dup3\n        /* \"#utility.yul\":11958:11970   */\n      add\n        /* \"#utility.yul\":11951:11970   */\n      swap1\n      pop\n        /* \"#utility.yul\":11610:11976   */\n      swap2\n      swap1\n      pop\n      jump\t// out\n        /* \"#utility.yul\":11982:12401   */\n    tag_235:\n        /* \"#utility.yul\":12148:12152   */\n      0x00\n        /* \"#utility.yul\":12186:12188   */\n      0x20\n        /* \"#utility.yul\":12175:12184   */\n      dup3\n        /* \"#utility.yul\":12171:12189   */\n      add\n        /* \"#utility.yul\":12163:12189   */\n      swap1\n      pop\n        /* \"#utility.yul\":12235:12244   */\n      dup2\n        /* \"#utility.yul\":12229:12233   */\n      dup2\n        /* \"#utility.yul\":12225:12245   */\n      sub\n        /* \"#utility.yul\":12221:12222   */\n      0x00\n        /* \"#utility.yul\":12210:12219   */\n      dup4\n        /* \"#utility.yul\":12206:12223   */\n      add\n        /* \"#utility.yul\":12199:12246   */\n      mstore\n        /* \"#utility.yul\":12263:12394   */\n      tag_790\n        /* \"#utility.yul\":12389:12393   */\n      dup2\n        /* \"#utility.yul\":12263:12394   */\n      tag_589\n      jump\t// in\n    tag_790:\n        /* \"#utility.yul\":12255:12394   */\n      swap1\n      pop\n        /* \"#utility.yul\":11982:12401   */\n      swap2\n      swap1\n      pop\n      jump\t// out\n        /* \"#utility.yul\":12407:12564   */\n    tag_590:\n        /* \"#utility.yul\":12547:12556   */\n      0x4e4f5f4445425400000000000000000000000000000000000000000000000000\n        /* \"#utility.yul\":12543:12544   */\n      0x00\n        /* \"#utility.yul\":12535:12541   */\n      dup3\n        /* \"#utility.yul\":12531:12545   */\n      add\n        /* \"#utility.yul\":12524:12557   */\n      mstore\n        /* \"#utility.yul\":12407:12564   */\n      pop\n      jump\t// out\n        /* \"#utility.yul\":12570:12935   */\n    tag_591:\n        /* \"#utility.yul\":12712:12715   */\n      0x00\n        /* \"#utility.yul\":12733:12799   */\n      tag_793\n        /* \"#utility.yul\":12797:12798   */\n      0x07\n        /* \"#utility.yul\":12792:12795   */\n      dup4\n        /* \"#utility.yul\":12733:12799   */\n      tag_571\n      jump\t// in\n    tag_793:\n        /* \"#utility.yul\":12726:12799   */\n      swap2\n      pop\n        /* \"#utility.yul\":12808:12901   */\n      tag_794\n        /* \"#utility.yul\":12897:12900   */\n      dup3\n        /* \"#utility.yul\":12808:12901   */\n      tag_590\n      jump\t// in\n    tag_794:\n        /* \"#utility.yul\":12926:12928   */\n      0x20\n        /* \"#utility.yul\":12921:12924   */\n      dup3\n        /* \"#utility.yul\":12917:12929   */\n      add\n        /* \"#utility.yul\":12910:12929   */\n      swap1\n      pop\n        /* \"#utility.yul\":12570:12935   */\n      swap2\n      swap1\n      pop\n      jump\t// out\n        /* \"#utility.yul\":12941:13360   */\n    tag_239:\n        /* \"#utility.yul\":13107:13111   */\n      0x00\n        /* \"#utility.yul\":13145:13147   */\n      0x20\n        /* \"#utility.yul\":13134:13143   */\n      dup3\n        /* \"#utility.yul\":13130:13148   */\n      add\n        /* \"#utility.yul\":13122:13148   */\n      swap1\n      pop\n        /* \"#utility.yul\":13194:13203   */\n      dup2\n        /* \"#utility.yul\":13188:13192   */\n      dup2\n        /* \"#utility.yul\":13184:13204   */\n      sub\n        /* \"#utility.yul\":13180:13181   */\n      0x00\n        /* \"#utility.yul\":13169:13178   */\n      dup4\n        /* \"#utility.yul\":13165:13182   */\n      add\n        /* \"#utility.yul\":13158:13205   */\n      mstore\n        /* \"#utility.yul\":13222:13353   */\n      tag_796\n        /* \"#utility.yul\":13348:13352   */\n      dup2\n        /* \"#utility.yul\":13222:13353   */\n      tag_591\n      jump\t// in\n    tag_796:\n        /* \"#utility.yul\":13214:13353   */\n      swap1\n      pop\n        /* \"#utility.yul\":12941:13360   */\n      swap2\n      swap1\n      pop\n      jump\t// out\n        /* \"#utility.yul\":13366:13546   */\n    tag_592:\n        /* \"#utility.yul\":13414:13491   */\n      0x4e487b7100000000000000000000000000000000000000000000000000000000\n        /* \"#utility.yul\":13411:13412   */\n      0x00\n        /* \"#utility.yul\":13404:13492   */\n      mstore\n        /* \"#utility.yul\":13511:13515   */\n      0x11\n        /* \"#utility.yul\":13508:13509   */\n      0x04\n        /* \"#utility.yul\":13501:13516   */\n      mstore\n        /* \"#utility.yul\":13535:13539   */\n      0x24\n        /* \"#utility.yul\":13532:13533   */\n      0x00\n        /* \"#utility.yul\":13525:13540   */\n      revert\n        /* \"#utility.yul\":13552:13962   */\n    tag_241:\n        /* \"#utility.yul\":13592:13599   */\n      0x00\n        /* \"#utility.yul\":13615:13635   */\n      tag_799\n        /* \"#utility.yul\":13633:13634   */\n      dup3\n        /* \"#utility.yul\":13615:13635   */\n      tag_559\n      jump\t// in\n    tag_799:\n        /* \"#utility.yul\":13610:13635   */\n      swap2\n      pop\n        /* \"#utility.yul\":13649:13669   */\n      tag_800\n        /* \"#utility.yul\":13667:13668   */\n      dup4\n        /* \"#utility.yul\":13649:13669   */\n      tag_559\n      jump\t// in\n    tag_800:\n        /* \"#utility.yul\":13644:13669   */\n      swap3\n      pop\n        /* \"#utility.yul\":13704:13705   */\n      dup3\n        /* \"#utility.yul\":13701:13702   */\n      dup3\n        /* \"#utility.yul\":13697:13706   */\n      mul\n        /* \"#utility.yul\":13726:13756   */\n      tag_801\n        /* \"#utility.yul\":13744:13755   */\n      dup2\n        /* \"#utility.yul\":13726:13756   */\n      tag_559\n      jump\t// in\n    tag_801:\n        /* \"#utility.yul\":13715:13756   */\n      swap2\n      pop\n        /* \"#utility.yul\":13905:13906   */\n      dup3\n        /* \"#utility.yul\":13896:13903   */\n      dup3\n        /* \"#utility.yul\":13892:13907   */\n      div\n        /* \"#utility.yul\":13889:13890   */\n      dup5\n        /* \"#utility.yul\":13886:13908   */\n      eq\n        /* \"#utility.yul\":13866:13867   */\n      dup4\n        /* \"#utility.yul\":13859:13868   */\n      iszero\n        /* \"#utility.yul\":13839:13922   */\n      or\n        /* \"#utility.yul\":13816:13955   */\n      tag_802\n      jumpi\n        /* \"#utility.yul\":13935:13953   */\n      tag_803\n      tag_592\n      jump\t// in\n    tag_803:\n        /* \"#utility.yul\":13816:13955   */\n    tag_802:\n        /* \"#utility.yul\":13600:13962   */\n      pop\n        /* \"#utility.yul\":13552:13962   */\n      swap3\n      swap2\n      pop\n      pop\n      jump\t// out\n        /* \"#utility.yul\":13968:14148   */\n    tag_593:\n        /* \"#utility.yul\":14016:14093   */\n      0x4e487b7100000000000000000000000000000000000000000000000000000000\n        /* \"#utility.yul\":14013:14014   */\n      0x00\n        /* \"#utility.yul\":14006:14094   */\n      mstore\n        /* \"#utility.yul\":14113:14117   */\n      0x12\n        /* \"#utility.yul\":14110:14111   */\n      0x04\n        /* \"#utility.yul\":14103:14118   */\n      mstore\n        /* \"#utility.yul\":14137:14141   */\n      0x24\n        /* \"#utility.yul\":14134:14135   */\n      0x00\n        /* \"#utility.yul\":14127:14142   */\n      revert\n        /* \"#utility.yul\":14154:14339   */\n    tag_243:\n        /* \"#utility.yul\":14194:14195   */\n      0x00\n        /* \"#utility.yul\":14211:14231   */\n      tag_806\n        /* \"#utility.yul\":14229:14230   */\n      dup3\n        /* \"#utility.yul\":14211:14231   */\n      tag_559\n      jump\t// in\n    tag_806:\n        /* \"#utility.yul\":14206:14231   */\n      swap2\n      pop\n        /* \"#utility.yul\":14245:14265   */\n      tag_807\n        /* \"#utility.yul\":14263:14264   */\n      dup4\n        /* \"#utility.yul\":14245:14265   */\n      tag_559\n      jump\t// in\n    tag_807:\n        /* \"#utility.yul\":14240:14265   */\n      swap3\n      pop\n        /* \"#utility.yul\":14284:14285   */\n      dup3\n        /* \"#utility.yul\":14274:14309   */\n      tag_808\n      jumpi\n        /* \"#utility.yul\":14289:14307   */\n      tag_809\n      tag_593\n      jump\t// in\n    tag_809:\n        /* \"#utility.yul\":14274:14309   */\n    tag_808:\n        /* \"#utility.yul\":14331:14332   */\n      dup3\n        /* \"#utility.yul\":14328:14329   */\n      dup3\n        /* \"#utility.yul\":14324:14333   */\n      div\n        /* \"#utility.yul\":14319:14333   */\n      swap1\n      pop\n        /* \"#utility.yul\":14154:14339   */\n      swap3\n      swap2\n      pop\n      pop\n      jump\t// out\n        /* \"#utility.yul\":14345:14539   */\n    tag_245:\n        /* \"#utility.yul\":14385:14389   */\n      0x00\n        /* \"#utility.yul\":14405:14425   */\n      tag_811\n        /* \"#utility.yul\":14423:14424   */\n      dup3\n        /* \"#utility.yul\":14405:14425   */\n      tag_559\n      jump\t// in\n    tag_811:\n        /* \"#utility.yul\":14400:14425   */\n      swap2\n      pop\n        /* \"#utility.yul\":14439:14459   */\n      tag_812\n        /* \"#utility.yul\":14457:14458   */\n      dup4\n        /* \"#utility.yul\":14439:14459   */\n      tag_559\n      jump\t// in\n    tag_812:\n        /* \"#utility.yul\":14434:14459   */\n      swap3\n      pop\n        /* \"#utility.yul\":14483:14484   */\n      dup3\n        /* \"#utility.yul\":14480:14481   */\n      dup3\n        /* \"#utility.yul\":14476:14485   */\n      sub\n        /* \"#utility.yul\":14468:14485   */\n      swap1\n      pop\n        /* \"#utility.yul\":14507:14508   */\n      dup2\n        /* \"#utility.yul\":14501:14505   */\n      dup2\n        /* \"#utility.yul\":14498:14509   */\n      gt\n        /* \"#utility.yul\":14495:14532   */\n      iszero\n      tag_813\n      jumpi\n        /* \"#utility.yul\":14512:14530   */\n      tag_814\n      tag_592\n      jump\t// in\n    tag_814:\n        /* \"#utility.yul\":14495:14532   */\n    tag_813:\n        /* \"#utility.yul\":14345:14539   */\n      swap3\n      swap2\n      pop\n      pop\n      jump\t// out\n        /* \"#utility.yul\":14545:14877   */\n    tag_248:\n        /* \"#utility.yul\":14666:14670   */\n      0x00\n        /* \"#utility.yul\":14704:14706   */\n      0x40\n        /* \"#utility.yul\":14693:14702   */\n      dup3\n        /* \"#utility.yul\":14689:14707   */\n      add\n        /* \"#utility.yul\":14681:14707   */\n      swap1\n      pop\n        /* \"#utility.yul\":14717:14788   */\n      tag_816\n        /* \"#utility.yul\":14785:14786   */\n      0x00\n        /* \"#utility.yul\":14774:14783   */\n      dup4\n        /* \"#utility.yul\":14770:14787   */\n      add\n        /* \"#utility.yul\":14761:14767   */\n      dup6\n        /* \"#utility.yul\":14717:14788   */\n      tag_569\n      jump\t// in\n    tag_816:\n        /* \"#utility.yul\":14798:14870   */\n      tag_817\n        /* \"#utility.yul\":14866:14868   */\n      0x20\n        /* \"#utility.yul\":14855:14864   */\n      dup4\n        /* \"#utility.yul\":14851:14869   */\n      add\n        /* \"#utility.yul\":14842:14848   */\n      dup5\n        /* \"#utility.yul\":14798:14870   */\n      tag_560\n      jump\t// in\n    tag_817:\n        /* \"#utility.yul\":14545:14877   */\n      swap4\n      swap3\n      pop\n      pop\n      pop\n      jump\t// out\n        /* \"#utility.yul\":14883:14973   */\n    tag_594:\n        /* \"#utility.yul\":14917:14924   */\n      0x00\n        /* \"#utility.yul\":14960:14965   */\n      dup2\n        /* \"#utility.yul\":14953:14966   */\n      iszero\n        /* \"#utility.yul\":14946:14967   */\n      iszero\n        /* \"#utility.yul\":14935:14967   */\n      swap1\n      pop\n        /* \"#utility.yul\":14883:14973   */\n      swap2\n      swap1\n      pop\n      jump\t// out\n        /* \"#utility.yul\":14979:15095   */\n    tag_595:\n        /* \"#utility.yul\":15049:15070   */\n      tag_820\n        /* \"#utility.yul\":15064:15069   */\n      dup2\n        /* \"#utility.yul\":15049:15070   */\n      tag_594\n      jump\t// in\n    tag_820:\n        /* \"#utility.yul\":15042:15047   */\n      dup2\n        /* \"#utility.yul\":15039:15071   */\n      eq\n        /* \"#utility.yul\":15029:15089   */\n      tag_821\n      jumpi\n        /* \"#utility.yul\":15085:15086   */\n      0x00\n        /* \"#utility.yul\":15082:15083   */\n      0x00\n        /* \"#utility.yul\":15075:15087   */\n      revert\n        /* \"#utility.yul\":15029:15089   */\n    tag_821:\n        /* \"#utility.yul\":14979:15095   */\n      pop\n      jump\t// out\n        /* \"#utility.yul\":15101:15238   */\n    tag_596:\n        /* \"#utility.yul\":15155:15160   */\n      0x00\n        /* \"#utility.yul\":15186:15192   */\n      dup2\n        /* \"#utility.yul\":15180:15193   */\n      mload\n        /* \"#utility.yul\":15171:15193   */\n      swap1\n      pop\n        /* \"#utility.yul\":15202:15232   */\n      tag_823\n        /* \"#utility.yul\":15226:15231   */\n      dup2\n        /* \"#utility.yul\":15202:15232   */\n      tag_595\n      jump\t// in\n    tag_823:\n        /* \"#utility.yul\":15101:15238   */\n      swap3\n      swap2\n      pop\n      pop\n      jump\t// out\n        /* \"#utility.yul\":15244:15589   */\n    tag_252:\n        /* \"#utility.yul\":15311:15317   */\n      0x00\n        /* \"#utility.yul\":15360:15362   */\n      0x20\n        /* \"#utility.yul\":15348:15357   */\n      dup3\n        /* \"#utility.yul\":15339:15346   */\n      dup5\n        /* \"#utility.yul\":15335:15358   */\n      sub\n        /* \"#utility.yul\":15331:15363   */\n      slt\n        /* \"#utility.yul\":15328:15447   */\n      iszero\n      tag_825\n      jumpi\n        /* \"#utility.yul\":15366:15445   */\n      tag_826\n      tag_562\n      jump\t// in\n    tag_826:\n        /* \"#utility.yul\":15328:15447   */\n    tag_825:\n        /* \"#utility.yul\":15486:15487   */\n      0x00\n        /* \"#utility.yul\":15511:15572   */\n      tag_827\n        /* \"#utility.yul\":15564:15571   */\n      dup5\n        /* \"#utility.yul\":15555:15561   */\n      dup3\n        /* \"#utility.yul\":15544:15553   */\n      dup6\n        /* \"#utility.yul\":15540:15562   */\n      add\n        /* \"#utility.yul\":15511:15572   */\n      tag_596\n      jump\t// in\n    tag_827:\n        /* \"#utility.yul\":15501:15572   */\n      swap2\n      pop\n        /* \"#utility.yul\":15457:15582   */\n      pop\n        /* \"#utility.yul\":15244:15589   */\n      swap3\n      swap2\n      pop\n      pop\n      jump\t// out\n        /* \"#utility.yul\":15595:15927   */\n    tag_260:\n        /* \"#utility.yul\":15716:15720   */\n      0x00\n        /* \"#utility.yul\":15754:15756   */\n      0x40\n        /* \"#utility.yul\":15743:15752   */\n      dup3\n        /* \"#utility.yul\":15739:15757   */\n      add\n        /* \"#utility.yul\":15731:15757   */\n      swap1\n      pop\n        /* \"#utility.yul\":15767:15838   */\n      tag_829\n        /* \"#utility.yul\":15835:15836   */\n      0x00\n        /* \"#utility.yul\":15824:15833   */\n      dup4\n        /* \"#utility.yul\":15820:15837   */\n      add\n        /* \"#utility.yul\":15811:15817   */\n      dup6\n        /* \"#utility.yul\":15767:15838   */\n      tag_560\n      jump\t// in\n    tag_829:\n        /* \"#utility.yul\":15848:15920   */\n      tag_830\n        /* \"#utility.yul\":15916:15918   */\n      0x20\n        /* \"#utility.yul\":15905:15914   */\n      dup4\n        /* \"#utility.yul\":15901:15919   */\n      add\n        /* \"#utility.yul\":15892:15898   */\n      dup5\n        /* \"#utility.yul\":15848:15920   */\n      tag_560\n      jump\t// in\n    tag_830:\n        /* \"#utility.yul\":15595:15927   */\n      swap4\n      swap3\n      pop\n      pop\n      pop\n      jump\t// out\n        /* \"#utility.yul\":15933:16099   */\n    tag_597:\n        /* \"#utility.yul\":16073:16091   */\n      0x4e4f545f44454c454741544543414c4c00000000000000000000000000000000\n        /* \"#utility.yul\":16069:16070   */\n      0x00\n        /* \"#utility.yul\":16061:16067   */\n      dup3\n        /* \"#utility.yul\":16057:16071   */\n      add\n        /* \"#utility.yul\":16050:16092   */\n      mstore\n        /* \"#utility.yul\":15933:16099   */\n      pop\n      jump\t// out\n        /* \"#utility.yul\":16105:16471   */\n    tag_598:\n        /* \"#utility.yul\":16247:16250   */\n      0x00\n        /* \"#utility.yul\":16268:16335   */\n      tag_833\n        /* \"#utility.yul\":16332:16334   */\n      0x10\n        /* \"#utility.yul\":16327:16330   */\n      dup4\n        /* \"#utility.yul\":16268:16335   */\n      tag_571\n      jump\t// in\n    tag_833:\n        /* \"#utility.yul\":16261:16335   */\n      swap2\n      pop\n        /* \"#utility.yul\":16344:16437   */\n      tag_834\n        /* \"#utility.yul\":16433:16436   */\n      dup3\n        /* \"#utility.yul\":16344:16437   */\n      tag_597\n      jump\t// in\n    tag_834:\n        /* \"#utility.yul\":16462:16464   */\n      0x20\n        /* \"#utility.yul\":16457:16460   */\n      dup3\n        /* \"#utility.yul\":16453:16465   */\n      add\n        /* \"#utility.yul\":16446:16465   */\n      swap1\n      pop\n        /* \"#utility.yul\":16105:16471   */\n      swap2\n      swap1\n      pop\n      jump\t// out\n        /* \"#utility.yul\":16477:16896   */\n    tag_264:\n        /* \"#utility.yul\":16643:16647   */\n      0x00\n        /* \"#utility.yul\":16681:16683   */\n      0x20\n        /* \"#utility.yul\":16670:16679   */\n      dup3\n        /* \"#utility.yul\":16666:16684   */\n      add\n        /* \"#utility.yul\":16658:16684   */\n      swap1\n      pop\n        /* \"#utility.yul\":16730:16739   */\n      dup2\n        /* \"#utility.yul\":16724:16728   */\n      dup2\n        /* \"#utility.yul\":16720:16740   */\n      sub\n        /* \"#utility.yul\":16716:16717   */\n      0x00\n        /* \"#utility.yul\":16705:16714   */\n      dup4\n        /* \"#utility.yul\":16701:16718   */\n      add\n        /* \"#utility.yul\":16694:16741   */\n      mstore\n        /* \"#utility.yul\":16758:16889   */\n      tag_836\n        /* \"#utility.yul\":16884:16888   */\n      dup2\n        /* \"#utility.yul\":16758:16889   */\n      tag_598\n      jump\t// in\n    tag_836:\n        /* \"#utility.yul\":16750:16889   */\n      swap1\n      pop\n        /* \"#utility.yul\":16477:16896   */\n      swap2\n      swap1\n      pop\n      jump\t// out\n        /* \"#utility.yul\":16902:17066   */\n    tag_599:\n        /* \"#utility.yul\":17042:17058   */\n      0x494e4143544956455f50524f5859000000000000000000000000000000000000\n        /* \"#utility.yul\":17038:17039   */\n      0x00\n        /* \"#utility.yul\":17030:17036   */\n      dup3\n        /* \"#utility.yul\":17026:17040   */\n      add\n        /* \"#utility.yul\":17019:17059   */\n      mstore\n        /* \"#utility.yul\":16902:17066   */\n      pop\n      jump\t// out\n        /* \"#utility.yul\":17072:17438   */\n    tag_600:\n        /* \"#utility.yul\":17214:17217   */\n      0x00\n        /* \"#utility.yul\":17235:17302   */\n      tag_839\n        /* \"#utility.yul\":17299:17301   */\n      0x0e\n        /* \"#utility.yul\":17294:17297   */\n      dup4\n        /* \"#utility.yul\":17235:17302   */\n      tag_571\n      jump\t// in\n    tag_839:\n        /* \"#utility.yul\":17228:17302   */\n      swap2\n      pop\n        /* \"#utility.yul\":17311:17404   */\n      tag_840\n        /* \"#utility.yul\":17400:17403   */\n      dup3\n        /* \"#utility.yul\":17311:17404   */\n      tag_599\n      jump\t// in\n    tag_840:\n        /* \"#utility.yul\":17429:17431   */\n      0x20\n        /* \"#utility.yul\":17424:17427   */\n      dup3\n        /* \"#utility.yul\":17420:17432   */\n      add\n        /* \"#utility.yul\":17413:17432   */\n      swap1\n      pop\n        /* \"#utility.yul\":17072:17438   */\n      swap2\n      swap1\n      pop\n      jump\t// out\n        /* \"#utility.yul\":17444:17863   */\n    tag_269:\n        /* \"#utility.yul\":17610:17614   */\n      0x00\n        /* \"#utility.yul\":17648:17650   */\n      0x20\n        /* \"#utility.yul\":17637:17646   */\n      dup3\n        /* \"#utility.yul\":17633:17651   */\n      add\n        /* \"#utility.yul\":17625:17651   */\n      swap1\n      pop\n        /* \"#utility.yul\":17697:17706   */\n      dup2\n        /* \"#utility.yul\":17691:17695   */\n      dup2\n        /* \"#utility.yul\":17687:17707   */\n      sub\n        /* \"#utility.yul\":17683:17684   */\n      0x00\n        /* \"#utility.yul\":17672:17681   */\n      dup4\n        /* \"#utility.yul\":17668:17685   */\n      add\n        /* \"#utility.yul\":17661:17708   */\n      mstore\n        /* \"#utility.yul\":17725:17856   */\n      tag_842\n        /* \"#utility.yul\":17851:17855   */\n      dup2\n        /* \"#utility.yul\":17725:17856   */\n      tag_600\n      jump\t// in\n    tag_842:\n        /* \"#utility.yul\":17717:17856   */\n      swap1\n      pop\n        /* \"#utility.yul\":17444:17863   */\n      swap2\n      swap1\n      pop\n      jump\t// out\n        /* \"#utility.yul\":17869:18030   */\n    tag_601:\n        /* \"#utility.yul\":18009:18022   */\n      0x5a45524f5f414d4f554e54000000000000000000000000000000000000000000\n        /* \"#utility.yul\":18005:18006   */\n      0x00\n        /* \"#utility.yul\":17997:18003   */\n      dup3\n        /* \"#utility.yul\":17993:18007   */\n      add\n        /* \"#utility.yul\":17986:18023   */\n      mstore\n        /* \"#utility.yul\":17869:18030   */\n      pop\n      jump\t// out\n        /* \"#utility.yul\":18036:18402   */\n    tag_602:\n        /* \"#utility.yul\":18178:18181   */\n      0x00\n        /* \"#utility.yul\":18199:18266   */\n      tag_845\n        /* \"#utility.yul\":18263:18265   */\n      0x0b\n        /* \"#utility.yul\":18258:18261   */\n      dup4\n        /* \"#utility.yul\":18199:18266   */\n      tag_571\n      jump\t// in\n    tag_845:\n        /* \"#utility.yul\":18192:18266   */\n      swap2\n      pop\n        /* \"#utility.yul\":18275:18368   */\n      tag_846\n        /* \"#utility.yul\":18364:18367   */\n      dup3\n        /* \"#utility.yul\":18275:18368   */\n      tag_601\n      jump\t// in\n    tag_846:\n        /* \"#utility.yul\":18393:18395   */\n      0x20\n        /* \"#utility.yul\":18388:18391   */\n      dup3\n        /* \"#utility.yul\":18384:18396   */\n      add\n        /* \"#utility.yul\":18377:18396   */\n      swap1\n      pop\n        /* \"#utility.yul\":18036:18402   */\n      swap2\n      swap1\n      pop\n      jump\t// out\n        /* \"#utility.yul\":18408:18827   */\n    tag_278:\n        /* \"#utility.yul\":18574:18578   */\n      0x00\n        /* \"#utility.yul\":18612:18614   */\n      0x20\n        /* \"#utility.yul\":18601:18610   */\n      dup3\n        /* \"#utility.yul\":18597:18615   */\n      add\n        /* \"#utility.yul\":18589:18615   */\n      swap1\n      pop\n        /* \"#utility.yul\":18661:18670   */\n      dup2\n        /* \"#utility.yul\":18655:18659   */\n      dup2\n        /* \"#utility.yul\":18651:18671   */\n      sub\n        /* \"#utility.yul\":18647:18648   */\n      0x00\n        /* \"#utility.yul\":18636:18645   */\n      dup4\n        /* \"#utility.yul\":18632:18649   */\n      add\n        /* \"#utility.yul\":18625:18672   */\n      mstore\n        /* \"#utility.yul\":18689:18820   */\n      tag_848\n        /* \"#utility.yul\":18815:18819   */\n      dup2\n        /* \"#utility.yul\":18689:18820   */\n      tag_602\n      jump\t// in\n    tag_848:\n        /* \"#utility.yul\":18681:18820   */\n      swap1\n      pop\n        /* \"#utility.yul\":18408:18827   */\n      swap2\n      swap1\n      pop\n      jump\t// out\n        /* \"#utility.yul\":18833:19275   */\n    tag_280:\n        /* \"#utility.yul\":18982:18986   */\n      0x00\n        /* \"#utility.yul\":19020:19022   */\n      0x60\n        /* \"#utility.yul\":19009:19018   */\n      dup3\n        /* \"#utility.yul\":19005:19023   */\n      add\n        /* \"#utility.yul\":18997:19023   */\n      swap1\n      pop\n        /* \"#utility.yul\":19033:19104   */\n      tag_850\n        /* \"#utility.yul\":19101:19102   */\n      0x00\n        /* \"#utility.yul\":19090:19099   */\n      dup4\n        /* \"#utility.yul\":19086:19103   */\n      add\n        /* \"#utility.yul\":19077:19083   */\n      dup7\n        /* \"#utility.yul\":19033:19104   */\n      tag_569\n      jump\t// in\n    tag_850:\n        /* \"#utility.yul\":19114:19186   */\n      tag_851\n        /* \"#utility.yul\":19182:19184   */\n      0x20\n        /* \"#utility.yul\":19171:19180   */\n      dup4\n        /* \"#utility.yul\":19167:19185   */\n      add\n        /* \"#utility.yul\":19158:19164   */\n      dup6\n        /* \"#utility.yul\":19114:19186   */\n      tag_569\n      jump\t// in\n    tag_851:\n        /* \"#utility.yul\":19196:19268   */\n      tag_852\n        /* \"#utility.yul\":19264:19266   */\n      0x40\n        /* \"#utility.yul\":19253:19262   */\n      dup4\n        /* \"#utility.yul\":19249:19267   */\n      add\n        /* \"#utility.yul\":19240:19246   */\n      dup5\n        /* \"#utility.yul\":19196:19268   */\n      tag_560\n      jump\t// in\n    tag_852:\n        /* \"#utility.yul\":18833:19275   */\n      swap5\n      swap4\n      pop\n      pop\n      pop\n      pop\n      jump\t// out\n        /* \"#utility.yul\":19281:19472   */\n    tag_285:\n        /* \"#utility.yul\":19321:19324   */\n      0x00\n        /* \"#utility.yul\":19340:19360   */\n      tag_854\n        /* \"#utility.yul\":19358:19359   */\n      dup3\n        /* \"#utility.yul\":19340:19360   */\n      tag_559\n      jump\t// in\n    tag_854:\n        /* \"#utility.yul\":19335:19360   */\n      swap2\n      pop\n        /* \"#utility.yul\":19374:19394   */\n      tag_855\n        /* \"#utility.yul\":19392:19393   */\n      dup4\n        /* \"#utility.yul\":19374:19394   */\n      tag_559\n      jump\t// in\n    tag_855:\n        /* \"#utility.yul\":19369:19394   */\n      swap3\n      pop\n        /* \"#utility.yul\":19417:19418   */\n      dup3\n        /* \"#utility.yul\":19414:19415   */\n      dup3\n        /* \"#utility.yul\":19410:19419   */\n      add\n        /* \"#utility.yul\":19403:19419   */\n      swap1\n      pop\n        /* \"#utility.yul\":19438:19441   */\n      dup1\n        /* \"#utility.yul\":19435:19436   */\n      dup3\n        /* \"#utility.yul\":19432:19442   */\n      gt\n        /* \"#utility.yul\":19429:19465   */\n      iszero\n      tag_856\n      jumpi\n        /* \"#utility.yul\":19445:19463   */\n      tag_857\n      tag_592\n      jump\t// in\n    tag_857:\n        /* \"#utility.yul\":19429:19465   */\n    tag_856:\n        /* \"#utility.yul\":19281:19472   */\n      swap3\n      swap2\n      pop\n      pop\n      jump\t// out\n        /* \"#utility.yul\":19478:19637   */\n    tag_603:\n        /* \"#utility.yul\":19618:19629   */\n      0x4e4f545f5641554c540000000000000000000000000000000000000000000000\n        /* \"#utility.yul\":19614:19615   */\n      0x00\n        /* \"#utility.yul\":19606:19612   */\n      dup3\n        /* \"#utility.yul\":19602:19616   */\n      add\n        /* \"#utility.yul\":19595:19630   */\n      mstore\n        /* \"#utility.yul\":19478:19637   */\n      pop\n      jump\t// out\n        /* \"#utility.yul\":19643:20008   */\n    tag_604:\n        /* \"#utility.yul\":19785:19788   */\n      0x00\n        /* \"#utility.yul\":19806:19872   */\n      tag_860\n        /* \"#utility.yul\":19870:19871   */\n      0x09\n        /* \"#utility.yul\":19865:19868   */\n      dup4\n        /* \"#utility.yul\":19806:19872   */\n      tag_571\n      jump\t// in\n    tag_860:\n        /* \"#utility.yul\":19799:19872   */\n      swap2\n      pop\n        /* \"#utility.yul\":19881:19974   */\n      tag_861\n        /* \"#utility.yul\":19970:19973   */\n      dup3\n        /* \"#utility.yul\":19881:19974   */\n      tag_603\n      jump\t// in\n    tag_861:\n        /* \"#utility.yul\":19999:20001   */\n      0x20\n        /* \"#utility.yul\":19994:19997   */\n      dup3\n        /* \"#utility.yul\":19990:20002   */\n      add\n        /* \"#utility.yul\":19983:20002   */\n      swap1\n      pop\n        /* \"#utility.yul\":19643:20008   */\n      swap2\n      swap1\n      pop\n      jump\t// out\n        /* \"#utility.yul\":20014:20433   */\n    tag_317:\n        /* \"#utility.yul\":20180:20184   */\n      0x00\n        /* \"#utility.yul\":20218:20220   */\n      0x20\n        /* \"#utility.yul\":20207:20216   */\n      dup3\n        /* \"#utility.yul\":20203:20221   */\n      add\n        /* \"#utility.yul\":20195:20221   */\n      swap1\n      pop\n        /* \"#utility.yul\":20267:20276   */\n      dup2\n        /* \"#utility.yul\":20261:20265   */\n      dup2\n        /* \"#utility.yul\":20257:20277   */\n      sub\n        /* \"#utility.yul\":20253:20254   */\n      0x00\n        /* \"#utility.yul\":20242:20251   */\n      dup4\n        /* \"#utility.yul\":20238:20255   */\n      add\n        /* \"#utility.yul\":20231:20278   */\n      mstore\n        /* \"#utility.yul\":20295:20426   */\n      tag_863\n        /* \"#utility.yul\":20421:20425   */\n      dup2\n        /* \"#utility.yul\":20295:20426   */\n      tag_604\n      jump\t// in\n    tag_863:\n        /* \"#utility.yul\":20287:20426   */\n      swap1\n      pop\n        /* \"#utility.yul\":20014:20433   */\n      swap2\n      swap1\n      pop\n      jump\t// out\n        /* \"#utility.yul\":20439:20611   */\n    tag_605:\n        /* \"#utility.yul\":20579:20603   */\n      0x494e53554646494349454e545f4c495155494449545900000000000000000000\n        /* \"#utility.yul\":20575:20576   */\n      0x00\n        /* \"#utility.yul\":20567:20573   */\n      dup3\n        /* \"#utility.yul\":20563:20577   */\n      add\n        /* \"#utility.yul\":20556:20604   */\n      mstore\n        /* \"#utility.yul\":20439:20611   */\n      pop\n      jump\t// out\n        /* \"#utility.yul\":20617:20983   */\n    tag_606:\n        /* \"#utility.yul\":20759:20762   */\n      0x00\n        /* \"#utility.yul\":20780:20847   */\n      tag_866\n        /* \"#utility.yul\":20844:20846   */\n      0x16\n        /* \"#utility.yul\":20839:20842   */\n      dup4\n        /* \"#utility.yul\":20780:20847   */\n      tag_571\n      jump\t// in\n    tag_866:\n        /* \"#utility.yul\":20773:20847   */\n      swap2\n      pop\n        /* \"#utility.yul\":20856:20949   */\n      tag_867\n        /* \"#utility.yul\":20945:20948   */\n      dup3\n        /* \"#utility.yul\":20856:20949   */\n      tag_605\n      jump\t// in\n    tag_867:\n        /* \"#utility.yul\":20974:20976   */\n      0x20\n        /* \"#utility.yul\":20969:20972   */\n      dup3\n        /* \"#utility.yul\":20965:20977   */\n      add\n        /* \"#utility.yul\":20958:20977   */\n      swap1\n      pop\n        /* \"#utility.yul\":20617:20983   */\n      swap2\n      swap1\n      pop\n      jump\t// out\n        /* \"#utility.yul\":20989:21408   */\n    tag_322:\n        /* \"#utility.yul\":21155:21159   */\n      0x00\n        /* \"#utility.yul\":21193:21195   */\n      0x20\n        /* \"#utility.yul\":21182:21191   */\n      dup3\n        /* \"#utility.yul\":21178:21196   */\n      add\n        /* \"#utility.yul\":21170:21196   */\n      swap1\n      pop\n        /* \"#utility.yul\":21242:21251   */\n      dup2\n        /* \"#utility.yul\":21236:21240   */\n      dup2\n        /* \"#utility.yul\":21232:21252   */\n      sub\n        /* \"#utility.yul\":21228:21229   */\n      0x00\n        /* \"#utility.yul\":21217:21226   */\n      dup4\n        /* \"#utility.yul\":21213:21230   */\n      add\n        /* \"#utility.yul\":21206:21253   */\n      mstore\n        /* \"#utility.yul\":21270:21401   */\n      tag_869\n        /* \"#utility.yul\":21396:21400   */\n      dup2\n        /* \"#utility.yul\":21270:21401   */\n      tag_606\n      jump\t// in\n    tag_869:\n        /* \"#utility.yul\":21262:21401   */\n      swap1\n      pop\n        /* \"#utility.yul\":20989:21408   */\n      swap2\n      swap1\n      pop\n      jump\t// out\n        /* \"#utility.yul\":21414:21594   */\n    tag_607:\n        /* \"#utility.yul\":21462:21539   */\n      0x4e487b7100000000000000000000000000000000000000000000000000000000\n        /* \"#utility.yul\":21459:21460   */\n      0x00\n        /* \"#utility.yul\":21452:21540   */\n      mstore\n        /* \"#utility.yul\":21559:21563   */\n      0x22\n        /* \"#utility.yul\":21556:21557   */\n      0x04\n        /* \"#utility.yul\":21549:21564   */\n      mstore\n        /* \"#utility.yul\":21583:21587   */\n      0x24\n        /* \"#utility.yul\":21580:21581   */\n      0x00\n        /* \"#utility.yul\":21573:21588   */\n      revert\n        /* \"#utility.yul\":21600:21920   */\n    tag_328:\n        /* \"#utility.yul\":21644:21650   */\n      0x00\n        /* \"#utility.yul\":21681:21682   */\n      0x02\n        /* \"#utility.yul\":21675:21679   */\n      dup3\n        /* \"#utility.yul\":21671:21683   */\n      div\n        /* \"#utility.yul\":21661:21683   */\n      swap1\n      pop\n        /* \"#utility.yul\":21728:21729   */\n      0x01\n        /* \"#utility.yul\":21722:21726   */\n      dup3\n        /* \"#utility.yul\":21718:21730   */\n      and\n        /* \"#utility.yul\":21749:21767   */\n      dup1\n        /* \"#utility.yul\":21739:21820   */\n      tag_872\n      jumpi\n        /* \"#utility.yul\":21805:21809   */\n      0x7f\n        /* \"#utility.yul\":21797:21803   */\n      dup3\n        /* \"#utility.yul\":21793:21810   */\n      and\n        /* \"#utility.yul\":21783:21810   */\n      swap2\n      pop\n        /* \"#utility.yul\":21739:21820   */\n    tag_872:\n        /* \"#utility.yul\":21867:21869   */\n      0x20\n        /* \"#utility.yul\":21859:21865   */\n      dup3\n        /* \"#utility.yul\":21856:21870   */\n      lt\n        /* \"#utility.yul\":21836:21854   */\n      dup2\n        /* \"#utility.yul\":21833:21871   */\n      sub\n        /* \"#utility.yul\":21830:21914   */\n      tag_873\n      jumpi\n        /* \"#utility.yul\":21886:21904   */\n      tag_874\n      tag_607\n      jump\t// in\n    tag_874:\n        /* \"#utility.yul\":21830:21914   */\n    tag_873:\n        /* \"#utility.yul\":21651:21920   */\n      pop\n        /* \"#utility.yul\":21600:21920   */\n      swap2\n      swap1\n      pop\n      jump\t// out\n        /* \"#utility.yul\":21926:22095   */\n    tag_608:\n        /* \"#utility.yul\":22066:22087   */\n      0x4f4e4c595f494d504c454d454e544154494f4e00000000000000000000000000\n        /* \"#utility.yul\":22062:22063   */\n      0x00\n        /* \"#utility.yul\":22054:22060   */\n      dup3\n        /* \"#utility.yul\":22050:22064   */\n      add\n        /* \"#utility.yul\":22043:22088   */\n      mstore\n        /* \"#utility.yul\":21926:22095   */\n      pop\n      jump\t// out\n        /* \"#utility.yul\":22101:22467   */\n    tag_609:\n        /* \"#utility.yul\":22243:22246   */\n      0x00\n        /* \"#utility.yul\":22264:22331   */\n      tag_877\n        /* \"#utility.yul\":22328:22330   */\n      0x13\n        /* \"#utility.yul\":22323:22326   */\n      dup4\n        /* \"#utility.yul\":22264:22331   */\n      tag_571\n      jump\t// in\n    tag_877:\n        /* \"#utility.yul\":22257:22331   */\n      swap2\n      pop\n        /* \"#utility.yul\":22340:22433   */\n      tag_878\n        /* \"#utility.yul\":22429:22432   */\n      dup3\n        /* \"#utility.yul\":22340:22433   */\n      tag_608\n      jump\t// in\n    tag_878:\n        /* \"#utility.yul\":22458:22460   */\n      0x20\n        /* \"#utility.yul\":22453:22456   */\n      dup3\n        /* \"#utility.yul\":22449:22461   */\n      add\n        /* \"#utility.yul\":22442:22461   */\n      swap1\n      pop\n        /* \"#utility.yul\":22101:22467   */\n      swap2\n      swap1\n      pop\n      jump\t// out\n        /* \"#utility.yul\":22473:22892   */\n    tag_349:\n        /* \"#utility.yul\":22639:22643   */\n      0x00\n        /* \"#utility.yul\":22677:22679   */\n      0x20\n        /* \"#utility.yul\":22666:22675   */\n      dup3\n        /* \"#utility.yul\":22662:22680   */\n      add\n        /* \"#utility.yul\":22654:22680   */\n      swap1\n      pop\n        /* \"#utility.yul\":22726:22735   */\n      dup2\n        /* \"#utility.yul\":22720:22724   */\n      dup2\n        /* \"#utility.yul\":22716:22736   */\n      sub\n        /* \"#utility.yul\":22712:22713   */\n      0x00\n        /* \"#utility.yul\":22701:22710   */\n      dup4\n        /* \"#utility.yul\":22697:22714   */\n      add\n        /* \"#utility.yul\":22690:22737   */\n      mstore\n        /* \"#utility.yul\":22754:22885   */\n      tag_880\n        /* \"#utility.yul\":22880:22884   */\n      dup2\n        /* \"#utility.yul\":22754:22885   */\n      tag_609\n      jump\t// in\n    tag_880:\n        /* \"#utility.yul\":22746:22885   */\n      swap1\n      pop\n        /* \"#utility.yul\":22473:22892   */\n      swap2\n      swap1\n      pop\n      jump\t// out\n        /* \"#utility.yul\":22898:23066   */\n    tag_610:\n        /* \"#utility.yul\":23038:23058   */\n      0x455843454544535f434f4c4c41544552414c0000000000000000000000000000\n        /* \"#utility.yul\":23034:23035   */\n      0x00\n        /* \"#utility.yul\":23026:23032   */\n      dup3\n        /* \"#utility.yul\":23022:23036   */\n      add\n        /* \"#utility.yul\":23015:23059   */\n      mstore\n        /* \"#utility.yul\":22898:23066   */\n      pop\n      jump\t// out\n        /* \"#utility.yul\":23072:23438   */\n    tag_611:\n        /* \"#utility.yul\":23214:23217   */\n      0x00\n        /* \"#utility.yul\":23235:23302   */\n      tag_883\n        /* \"#utility.yul\":23299:23301   */\n      0x12\n        /* \"#utility.yul\":23294:23297   */\n      dup4\n        /* \"#utility.yul\":23235:23302   */\n      tag_571\n      jump\t// in\n    tag_883:\n        /* \"#utility.yul\":23228:23302   */\n      swap2\n      pop\n        /* \"#utility.yul\":23311:23404   */\n      tag_884\n        /* \"#utility.yul\":23400:23403   */\n      dup3\n        /* \"#utility.yul\":23311:23404   */\n      tag_610\n      jump\t// in\n    tag_884:\n        /* \"#utility.yul\":23429:23431   */\n      0x20\n        /* \"#utility.yul\":23424:23427   */\n      dup3\n        /* \"#utility.yul\":23420:23432   */\n      add\n        /* \"#utility.yul\":23413:23432   */\n      swap1\n      pop\n        /* \"#utility.yul\":23072:23438   */\n      swap2\n      swap1\n      pop\n      jump\t// out\n        /* \"#utility.yul\":23444:23863   */\n    tag_357:\n        /* \"#utility.yul\":23610:23614   */\n      0x00\n        /* \"#utility.yul\":23648:23650   */\n      0x20\n        /* \"#utility.yul\":23637:23646   */\n      dup3\n        /* \"#utility.yul\":23633:23651   */\n      add\n        /* \"#utility.yul\":23625:23651   */\n      swap1\n      pop\n        /* \"#utility.yul\":23697:23706   */\n      dup2\n        /* \"#utility.yul\":23691:23695   */\n      dup2\n        /* \"#utility.yul\":23687:23707   */\n      sub\n        /* \"#utility.yul\":23683:23684   */\n      0x00\n        /* \"#utility.yul\":23672:23681   */\n      dup4\n        /* \"#utility.yul\":23668:23685   */\n      add\n        /* \"#utility.yul\":23661:23708   */\n      mstore\n        /* \"#utility.yul\":23725:23856   */\n      tag_886\n        /* \"#utility.yul\":23851:23855   */\n      dup2\n        /* \"#utility.yul\":23725:23856   */\n      tag_611\n      jump\t// in\n    tag_886:\n        /* \"#utility.yul\":23717:23856   */\n      swap1\n      pop\n        /* \"#utility.yul\":23444:23863   */\n      swap2\n      swap1\n      pop\n      jump\t// out\n        /* \"#utility.yul\":23869:24040   */\n    tag_612:\n        /* \"#utility.yul\":24009:24032   */\n      0x574f554c445f42455f4c4951554944415441424c450000000000000000000000\n        /* \"#utility.yul\":24005:24006   */\n      0x00\n        /* \"#utility.yul\":23997:24003   */\n      dup3\n        /* \"#utility.yul\":23993:24007   */\n      add\n        /* \"#utility.yul\":23986:24033   */\n      mstore\n        /* \"#utility.yul\":23869:24040   */\n      pop\n      jump\t// out\n        /* \"#utility.yul\":24046:24412   */\n    tag_613:\n        /* \"#utility.yul\":24188:24191   */\n      0x00\n        /* \"#utility.yul\":24209:24276   */\n      tag_889\n        /* \"#utility.yul\":24273:24275   */\n      0x15\n        /* \"#utility.yul\":24268:24271   */\n      dup4\n        /* \"#utility.yul\":24209:24276   */\n      tag_571\n      jump\t// in\n    tag_889:\n        /* \"#utility.yul\":24202:24276   */\n      swap2\n      pop\n        /* \"#utility.yul\":24285:24378   */\n      tag_890\n        /* \"#utility.yul\":24374:24377   */\n      dup3\n        /* \"#utility.yul\":24285:24378   */\n      tag_612\n      jump\t// in\n    tag_890:\n        /* \"#utility.yul\":24403:24405   */\n      0x20\n        /* \"#utility.yul\":24398:24401   */\n      dup3\n        /* \"#utility.yul\":24394:24406   */\n      add\n        /* \"#utility.yul\":24387:24406   */\n      swap1\n      pop\n        /* \"#utility.yul\":24046:24412   */\n      swap2\n      swap1\n      pop\n      jump\t// out\n        /* \"#utility.yul\":24418:24837   */\n    tag_362:\n        /* \"#utility.yul\":24584:24588   */\n      0x00\n        /* \"#utility.yul\":24622:24624   */\n      0x20\n        /* \"#utility.yul\":24611:24620   */\n      dup3\n        /* \"#utility.yul\":24607:24625   */\n      add\n        /* \"#utility.yul\":24599:24625   */\n      swap1\n      pop\n        /* \"#utility.yul\":24671:24680   */\n      dup2\n        /* \"#utility.yul\":24665:24669   */\n      dup2\n        /* \"#utility.yul\":24661:24681   */\n      sub\n        /* \"#utility.yul\":24657:24658   */\n      0x00\n        /* \"#utility.yul\":24646:24655   */\n      dup4\n        /* \"#utility.yul\":24642:24659   */\n      add\n        /* \"#utility.yul\":24635:24682   */\n      mstore\n        /* \"#utility.yul\":24699:24830   */\n      tag_892\n        /* \"#utility.yul\":24825:24829   */\n      dup2\n        /* \"#utility.yul\":24699:24830   */\n      tag_613\n      jump\t// in\n    tag_892:\n        /* \"#utility.yul\":24691:24830   */\n      swap1\n      pop\n        /* \"#utility.yul\":24418:24837   */\n      swap2\n      swap1\n      pop\n      jump\t// out\n        /* \"#utility.yul\":24843:24986   */\n    tag_614:\n        /* \"#utility.yul\":24900:24905   */\n      0x00\n        /* \"#utility.yul\":24931:24937   */\n      dup2\n        /* \"#utility.yul\":24925:24938   */\n      mload\n        /* \"#utility.yul\":24916:24938   */\n      swap1\n      pop\n        /* \"#utility.yul\":24947:24980   */\n      tag_894\n        /* \"#utility.yul\":24974:24979   */\n      dup2\n        /* \"#utility.yul\":24947:24980   */\n      tag_567\n      jump\t// in\n    tag_894:\n        /* \"#utility.yul\":24843:24986   */\n      swap3\n      swap2\n      pop\n      pop\n      jump\t// out\n        /* \"#utility.yul\":24992:25343   */\n    tag_387:\n        /* \"#utility.yul\":25062:25068   */\n      0x00\n        /* \"#utility.yul\":25111:25113   */\n      0x20\n        /* \"#utility.yul\":25099:25108   */\n      dup3\n        /* \"#utility.yul\":25090:25097   */\n      dup5\n        /* \"#utility.yul\":25086:25109   */\n      sub\n        /* \"#utility.yul\":25082:25114   */\n      slt\n        /* \"#utility.yul\":25079:25198   */\n      iszero\n      tag_896\n      jumpi\n        /* \"#utility.yul\":25117:25196   */\n      tag_897\n      tag_562\n      jump\t// in\n    tag_897:\n        /* \"#utility.yul\":25079:25198   */\n    tag_896:\n        /* \"#utility.yul\":25237:25238   */\n      0x00\n        /* \"#utility.yul\":25262:25326   */\n      tag_898\n        /* \"#utility.yul\":25318:25325   */\n      dup5\n        /* \"#utility.yul\":25309:25315   */\n      dup3\n        /* \"#utility.yul\":25298:25307   */\n      dup6\n        /* \"#utility.yul\":25294:25316   */\n      add\n        /* \"#utility.yul\":25262:25326   */\n      tag_614\n      jump\t// in\n    tag_898:\n        /* \"#utility.yul\":25252:25326   */\n      swap2\n      pop\n        /* \"#utility.yul\":25208:25336   */\n      pop\n        /* \"#utility.yul\":24992:25343   */\n      swap3\n      swap2\n      pop\n      pop\n      jump\t// out\n        /* \"#utility.yul\":25349:25518   */\n    tag_615:\n        /* \"#utility.yul\":25489:25510   */\n      0x414c52454144595f494e495449414c495a454400000000000000000000000000\n        /* \"#utility.yul\":25485:25486   */\n      0x00\n        /* \"#utility.yul\":25477:25483   */\n      dup3\n        /* \"#utility.yul\":25473:25487   */\n      add\n        /* \"#utility.yul\":25466:25511   */\n      mstore\n        /* \"#utility.yul\":25349:25518   */\n      pop\n      jump\t// out\n        /* \"#utility.yul\":25524:25890   */\n    tag_616:\n        /* \"#utility.yul\":25666:25669   */\n      0x00\n        /* \"#utility.yul\":25687:25754   */\n      tag_901\n        /* \"#utility.yul\":25751:25753   */\n      0x13\n        /* \"#utility.yul\":25746:25749   */\n      dup4\n        /* \"#utility.yul\":25687:25754   */\n      tag_571\n      jump\t// in\n    tag_901:\n        /* \"#utility.yul\":25680:25754   */\n      swap2\n      pop\n        /* \"#utility.yul\":25763:25856   */\n      tag_902\n        /* \"#utility.yul\":25852:25855   */\n      dup3\n        /* \"#utility.yul\":25763:25856   */\n      tag_615\n      jump\t// in\n    tag_902:\n        /* \"#utility.yul\":25881:25883   */\n      0x20\n        /* \"#utility.yul\":25876:25879   */\n      dup3\n        /* \"#utility.yul\":25872:25884   */\n      add\n        /* \"#utility.yul\":25865:25884   */\n      swap1\n      pop\n        /* \"#utility.yul\":25524:25890   */\n      swap2\n      swap1\n      pop\n      jump\t// out\n        /* \"#utility.yul\":25896:26315   */\n    tag_409:\n        /* \"#utility.yul\":26062:26066   */\n      0x00\n        /* \"#utility.yul\":26100:26102   */\n      0x20\n        /* \"#utility.yul\":26089:26098   */\n      dup3\n        /* \"#utility.yul\":26085:26103   */\n      add\n        /* \"#utility.yul\":26077:26103   */\n      swap1\n      pop\n        /* \"#utility.yul\":26149:26158   */\n      dup2\n        /* \"#utility.yul\":26143:26147   */\n      dup2\n        /* \"#utility.yul\":26139:26159   */\n      sub\n        /* \"#utility.yul\":26135:26136   */\n      0x00\n        /* \"#utility.yul\":26124:26133   */\n      dup4\n        /* \"#utility.yul\":26120:26137   */\n      add\n        /* \"#utility.yul\":26113:26160   */\n      mstore\n        /* \"#utility.yul\":26177:26308   */\n      tag_904\n        /* \"#utility.yul\":26303:26307   */\n      dup2\n        /* \"#utility.yul\":26177:26308   */\n      tag_616\n      jump\t// in\n    tag_904:\n        /* \"#utility.yul\":26169:26308   */\n      swap1\n      pop\n        /* \"#utility.yul\":25896:26315   */\n      swap2\n      swap1\n      pop\n      jump\t// out\n        /* \"#utility.yul\":26321:26481   */\n    tag_617:\n        /* \"#utility.yul\":26461:26473   */\n      0x5a45524f5f5641554c5400000000000000000000000000000000000000000000\n        /* \"#utility.yul\":26457:26458   */\n      0x00\n        /* \"#utility.yul\":26449:26455   */\n      dup3\n        /* \"#utility.yul\":26445:26459   */\n      add\n        /* \"#utility.yul\":26438:26474   */\n      mstore\n        /* \"#utility.yul\":26321:26481   */\n      pop\n      jump\t// out\n        /* \"#utility.yul\":26487:26853   */\n    tag_618:\n        /* \"#utility.yul\":26629:26632   */\n      0x00\n        /* \"#utility.yul\":26650:26717   */\n      tag_907\n        /* \"#utility.yul\":26714:26716   */\n      0x0a\n        /* \"#utility.yul\":26709:26712   */\n      dup4\n        /* \"#utility.yul\":26650:26717   */\n      tag_571\n      jump\t// in\n    tag_907:\n        /* \"#utility.yul\":26643:26717   */\n      swap2\n      pop\n        /* \"#utility.yul\":26726:26819   */\n      tag_908\n        /* \"#utility.yul\":26815:26818   */\n      dup3\n        /* \"#utility.yul\":26726:26819   */\n      tag_617\n      jump\t// in\n    tag_908:\n        /* \"#utility.yul\":26844:26846   */\n      0x20\n        /* \"#utility.yul\":26839:26842   */\n      dup3\n        /* \"#utility.yul\":26835:26847   */\n      add\n        /* \"#utility.yul\":26828:26847   */\n      swap1\n      pop\n        /* \"#utility.yul\":26487:26853   */\n      swap2\n      swap1\n      pop\n      jump\t// out\n        /* \"#utility.yul\":26859:27278   */\n    tag_415:\n        /* \"#utility.yul\":27025:27029   */\n      0x00\n        /* \"#utility.yul\":27063:27065   */\n      0x20\n        /* \"#utility.yul\":27052:27061   */\n      dup3\n        /* \"#utility.yul\":27048:27066   */\n      add\n        /* \"#utility.yul\":27040:27066   */\n      swap1\n      pop\n        /* \"#utility.yul\":27112:27121   */\n      dup2\n        /* \"#utility.yul\":27106:27110   */\n      dup2\n        /* \"#utility.yul\":27102:27122   */\n      sub\n        /* \"#utility.yul\":27098:27099   */\n      0x00\n        /* \"#utility.yul\":27087:27096   */\n      dup4\n        /* \"#utility.yul\":27083:27100   */\n      add\n        /* \"#utility.yul\":27076:27123   */\n      mstore\n        /* \"#utility.yul\":27140:27271   */\n      tag_910\n        /* \"#utility.yul\":27266:27270   */\n      dup2\n        /* \"#utility.yul\":27140:27271   */\n      tag_618\n      jump\t// in\n    tag_910:\n        /* \"#utility.yul\":27132:27271   */\n      swap1\n      pop\n        /* \"#utility.yul\":26859:27278   */\n      swap2\n      swap1\n      pop\n      jump\t// out\n        /* \"#utility.yul\":27284:27443   */\n    tag_619:\n        /* \"#utility.yul\":27424:27435   */\n      0x5a45524f5f4c4f414e0000000000000000000000000000000000000000000000\n        /* \"#utility.yul\":27420:27421   */\n      0x00\n        /* \"#utility.yul\":27412:27418   */\n      dup3\n        /* \"#utility.yul\":27408:27422   */\n      add\n        /* \"#utility.yul\":27401:27436   */\n      mstore\n        /* \"#utility.yul\":27284:27443   */\n      pop\n      jump\t// out\n        /* \"#utility.yul\":27449:27814   */\n    tag_620:\n        /* \"#utility.yul\":27591:27594   */\n      0x00\n        /* \"#utility.yul\":27612:27678   */\n      tag_913\n        /* \"#utility.yul\":27676:27677   */\n      0x09\n        /* \"#utility.yul\":27671:27674   */\n      dup4\n        /* \"#utility.yul\":27612:27678   */\n      tag_571\n      jump\t// in\n    tag_913:\n        /* \"#utility.yul\":27605:27678   */\n      swap2\n      pop\n        /* \"#utility.yul\":27687:27780   */\n      tag_914\n        /* \"#utility.yul\":27776:27779   */\n      dup3\n        /* \"#utility.yul\":27687:27780   */\n      tag_619\n      jump\t// in\n    tag_914:\n        /* \"#utility.yul\":27805:27807   */\n      0x20\n        /* \"#utility.yul\":27800:27803   */\n      dup3\n        /* \"#utility.yul\":27796:27808   */\n      add\n        /* \"#utility.yul\":27789:27808   */\n      swap1\n      pop\n        /* \"#utility.yul\":27449:27814   */\n      swap2\n      swap1\n      pop\n      jump\t// out\n        /* \"#utility.yul\":27820:28239   */\n    tag_419:\n        /* \"#utility.yul\":27986:27990   */\n      0x00\n        /* \"#utility.yul\":28024:28026   */\n      0x20\n        /* \"#utility.yul\":28013:28022   */\n      dup3\n        /* \"#utility.yul\":28009:28027   */\n      add\n        /* \"#utility.yul\":28001:28027   */\n      swap1\n      pop\n        /* \"#utility.yul\":28073:28082   */\n      dup2\n        /* \"#utility.yul\":28067:28071   */\n      dup2\n        /* \"#utility.yul\":28063:28083   */\n      sub\n        /* \"#utility.yul\":28059:28060   */\n      0x00\n        /* \"#utility.yul\":28048:28057   */\n      dup4\n        /* \"#utility.yul\":28044:28061   */\n      add\n        /* \"#utility.yul\":28037:28084   */\n      mstore\n        /* \"#utility.yul\":28101:28232   */\n      tag_916\n        /* \"#utility.yul\":28227:28231   */\n      dup2\n        /* \"#utility.yul\":28101:28232   */\n      tag_620\n      jump\t// in\n    tag_916:\n        /* \"#utility.yul\":28093:28232   */\n      swap1\n      pop\n        /* \"#utility.yul\":27820:28239   */\n      swap2\n      swap1\n      pop\n      jump\t// out\n        /* \"#utility.yul\":28245:28410   */\n    tag_621:\n        /* \"#utility.yul\":28385:28402   */\n      0x5a45524f5f434f4c4c41544552414c0000000000000000000000000000000000\n        /* \"#utility.yul\":28381:28382   */\n      0x00\n        /* \"#utility.yul\":28373:28379   */\n      dup3\n        /* \"#utility.yul\":28369:28383   */\n      add\n        /* \"#utility.yul\":28362:28403   */\n      mstore\n        /* \"#utility.yul\":28245:28410   */\n      pop\n      jump\t// out\n        /* \"#utility.yul\":28416:28782   */\n    tag_622:\n        /* \"#utility.yul\":28558:28561   */\n      0x00\n        /* \"#utility.yul\":28579:28646   */\n      tag_919\n        /* \"#utility.yul\":28643:28645   */\n      0x0f\n        /* \"#utility.yul\":28638:28641   */\n      dup4\n        /* \"#utility.yul\":28579:28646   */\n      tag_571\n      jump\t// in\n    tag_919:\n        /* \"#utility.yul\":28572:28646   */\n      swap2\n      pop\n        /* \"#utility.yul\":28655:28748   */\n      tag_920\n        /* \"#utility.yul\":28744:28747   */\n      dup3\n        /* \"#utility.yul\":28655:28748   */\n      tag_621\n      jump\t// in\n    tag_920:\n        /* \"#utility.yul\":28773:28775   */\n      0x20\n        /* \"#utility.yul\":28768:28771   */\n      dup3\n        /* \"#utility.yul\":28764:28776   */\n      add\n        /* \"#utility.yul\":28757:28776   */\n      swap1\n      pop\n        /* \"#utility.yul\":28416:28782   */\n      swap2\n      swap1\n      pop\n      jump\t// out\n        /* \"#utility.yul\":28788:29207   */\n    tag_423:\n        /* \"#utility.yul\":28954:28958   */\n      0x00\n        /* \"#utility.yul\":28992:28994   */\n      0x20\n        /* \"#utility.yul\":28981:28990   */\n      dup3\n        /* \"#utility.yul\":28977:28995   */\n      add\n        /* \"#utility.yul\":28969:28995   */\n      swap1\n      pop\n        /* \"#utility.yul\":29041:29050   */\n      dup2\n        /* \"#utility.yul\":29035:29039   */\n      dup2\n        /* \"#utility.yul\":29031:29051   */\n      sub\n        /* \"#utility.yul\":29027:29028   */\n      0x00\n        /* \"#utility.yul\":29016:29025   */\n      dup4\n        /* \"#utility.yul\":29012:29029   */\n      add\n        /* \"#utility.yul\":29005:29052   */\n      mstore\n        /* \"#utility.yul\":29069:29200   */\n      tag_922\n        /* \"#utility.yul\":29195:29199   */\n      dup2\n        /* \"#utility.yul\":29069:29200   */\n      tag_622\n      jump\t// in\n    tag_922:\n        /* \"#utility.yul\":29061:29200   */\n      swap1\n      pop\n        /* \"#utility.yul\":28788:29207   */\n      swap2\n      swap1\n      pop\n      jump\t// out\n        /* \"#utility.yul\":29213:29374   */\n    tag_623:\n        /* \"#utility.yul\":29353:29366   */\n      0x5a45524f5f4f5241434c45000000000000000000000000000000000000000000\n        /* \"#utility.yul\":29349:29350   */\n      0x00\n        /* \"#utility.yul\":29341:29347   */\n      dup3\n        /* \"#utility.yul\":29337:29351   */\n      add\n        /* \"#utility.yul\":29330:29367   */\n      mstore\n        /* \"#utility.yul\":29213:29374   */\n      pop\n      jump\t// out\n        /* \"#utility.yul\":29380:29746   */\n    tag_624:\n        /* \"#utility.yul\":29522:29525   */\n      0x00\n        /* \"#utility.yul\":29543:29610   */\n      tag_925\n        /* \"#utility.yul\":29607:29609   */\n      0x0b\n        /* \"#utility.yul\":29602:29605   */\n      dup4\n        /* \"#utility.yul\":29543:29610   */\n      tag_571\n      jump\t// in\n    tag_925:\n        /* \"#utility.yul\":29536:29610   */\n      swap2\n      pop\n        /* \"#utility.yul\":29619:29712   */\n      tag_926\n        /* \"#utility.yul\":29708:29711   */\n      dup3\n        /* \"#utility.yul\":29619:29712   */\n      tag_623\n      jump\t// in\n    tag_926:\n        /* \"#utility.yul\":29737:29739   */\n      0x20\n        /* \"#utility.yul\":29732:29735   */\n      dup3\n        /* \"#utility.yul\":29728:29740   */\n      add\n        /* \"#utility.yul\":29721:29740   */\n      swap1\n      pop\n        /* \"#utility.yul\":29380:29746   */\n      swap2\n      swap1\n      pop\n      jump\t// out\n        /* \"#utility.yul\":29752:30171   */\n    tag_427:\n        /* \"#utility.yul\":29918:29922   */\n      0x00\n        /* \"#utility.yul\":29956:29958   */\n      0x20\n        /* \"#utility.yul\":29945:29954   */\n      dup3\n        /* \"#utility.yul\":29941:29959   */\n      add\n        /* \"#utility.yul\":29933:29959   */\n      swap1\n      pop\n        /* \"#utility.yul\":30005:30014   */\n      dup2\n        /* \"#utility.yul\":29999:30003   */\n      dup2\n        /* \"#utility.yul\":29995:30015   */\n      sub\n        /* \"#utility.yul\":29991:29992   */\n      0x00\n        /* \"#utility.yul\":29980:29989   */\n      dup4\n        /* \"#utility.yul\":29976:29993   */\n      add\n        /* \"#utility.yul\":29969:30016   */\n      mstore\n        /* \"#utility.yul\":30033:30164   */\n      tag_928\n        /* \"#utility.yul\":30159:30163   */\n      dup2\n        /* \"#utility.yul\":30033:30164   */\n      tag_624\n      jump\t// in\n    tag_928:\n        /* \"#utility.yul\":30025:30164   */\n      swap1\n      pop\n        /* \"#utility.yul\":29752:30171   */\n      swap2\n      swap1\n      pop\n      jump\t// out\n        /* \"#utility.yul\":30177:30340   */\n    tag_625:\n        /* \"#utility.yul\":30317:30332   */\n      0x5a45524f5f545245415355525900000000000000000000000000000000000000\n        /* \"#utility.yul\":30313:30314   */\n      0x00\n        /* \"#utility.yul\":30305:30311   */\n      dup3\n        /* \"#utility.yul\":30301:30315   */\n      add\n        /* \"#utility.yul\":30294:30333   */\n      mstore\n        /* \"#utility.yul\":30177:30340   */\n      pop\n      jump\t// out\n        /* \"#utility.yul\":30346:30712   */\n    tag_626:\n        /* \"#utility.yul\":30488:30491   */\n      0x00\n        /* \"#utility.yul\":30509:30576   */\n      tag_931\n        /* \"#utility.yul\":30573:30575   */\n      0x0d\n        /* \"#utility.yul\":30568:30571   */\n      dup4\n        /* \"#utility.yul\":30509:30576   */\n      tag_571\n      jump\t// in\n    tag_931:\n        /* \"#utility.yul\":30502:30576   */\n      swap2\n      pop\n        /* \"#utility.yul\":30585:30678   */\n      tag_932\n        /* \"#utility.yul\":30674:30677   */\n      dup3\n        /* \"#utility.yul\":30585:30678   */\n      tag_625\n      jump\t// in\n    tag_932:\n        /* \"#utility.yul\":30703:30705   */\n      0x20\n        /* \"#utility.yul\":30698:30701   */\n      dup3\n        /* \"#utility.yul\":30694:30706   */\n      add\n        /* \"#utility.yul\":30687:30706   */\n      swap1\n      pop\n        /* \"#utility.yul\":30346:30712   */\n      swap2\n      swap1\n      pop\n      jump\t// out\n        /* \"#utility.yul\":30718:31137   */\n    tag_431:\n        /* \"#utility.yul\":30884:30888   */\n      0x00\n        /* \"#utility.yul\":30922:30924   */\n      0x20\n        /* \"#utility.yul\":30911:30920   */\n      dup3\n        /* \"#utility.yul\":30907:30925   */\n      add\n        /* \"#utility.yul\":30899:30925   */\n      swap1\n      pop\n        /* \"#utility.yul\":30971:30980   */\n      dup2\n        /* \"#utility.yul\":30965:30969   */\n      dup2\n        /* \"#utility.yul\":30961:30981   */\n      sub\n        /* \"#utility.yul\":30957:30958   */\n      0x00\n        /* \"#utility.yul\":30946:30955   */\n      dup4\n        /* \"#utility.yul\":30942:30959   */\n      add\n        /* \"#utility.yul\":30935:30982   */\n      mstore\n        /* \"#utility.yul\":30999:31130   */\n      tag_934\n        /* \"#utility.yul\":31125:31129   */\n      dup2\n        /* \"#utility.yul\":30999:31130   */\n      tag_626\n      jump\t// in\n    tag_934:\n        /* \"#utility.yul\":30991:31130   */\n      swap1\n      pop\n        /* \"#utility.yul\":30718:31137   */\n      swap2\n      swap1\n      pop\n      jump\t// out\n        /* \"#utility.yul\":31143:31301   */\n    tag_627:\n        /* \"#utility.yul\":31283:31293   */\n      0x5a45524f5f425059000000000000000000000000000000000000000000000000\n        /* \"#utility.yul\":31279:31280   */\n      0x00\n        /* \"#utility.yul\":31271:31277   */\n      dup3\n        /* \"#utility.yul\":31267:31281   */\n      add\n        /* \"#utility.yul\":31260:31294   */\n      mstore\n        /* \"#utility.yul\":31143:31301   */\n      pop\n      jump\t// out\n        /* \"#utility.yul\":31307:31672   */\n    tag_628:\n        /* \"#utility.yul\":31449:31452   */\n      0x00\n        /* \"#utility.yul\":31470:31536   */\n      tag_937\n        /* \"#utility.yul\":31534:31535   */\n      0x08\n        /* \"#utility.yul\":31529:31532   */\n      dup4\n        /* \"#utility.yul\":31470:31536   */\n      tag_571\n      jump\t// in\n    tag_937:\n        /* \"#utility.yul\":31463:31536   */\n      swap2\n      pop\n        /* \"#utility.yul\":31545:31638   */\n      tag_938\n        /* \"#utility.yul\":31634:31637   */\n      dup3\n        /* \"#utility.yul\":31545:31638   */\n      tag_627\n      jump\t// in\n    tag_938:\n        /* \"#utility.yul\":31663:31665   */\n      0x20\n        /* \"#utility.yul\":31658:31661   */\n      dup3\n        /* \"#utility.yul\":31654:31666   */\n      add\n        /* \"#utility.yul\":31647:31666   */\n      swap1\n      pop\n        /* \"#utility.yul\":31307:31672   */\n      swap2\n      swap1\n      pop\n      jump\t// out\n        /* \"#utility.yul\":31678:32097   */\n    tag_434:\n        /* \"#utility.yul\":31844:31848   */\n      0x00\n        /* \"#utility.yul\":31882:31884   */\n      0x20\n        /* \"#utility.yul\":31871:31880   */\n      dup3\n        /* \"#utility.yul\":31867:31885   */\n      add\n        /* \"#utility.yul\":31859:31885   */\n      swap1\n      pop\n        /* \"#utility.yul\":31931:31940   */\n      dup2\n        /* \"#utility.yul\":31925:31929   */\n      dup2\n        /* \"#utility.yul\":31921:31941   */\n      sub\n        /* \"#utility.yul\":31917:31918   */\n      0x00\n        /* \"#utility.yul\":31906:31915   */\n      dup4\n        /* \"#utility.yul\":31902:31919   */\n      add\n        /* \"#utility.yul\":31895:31942   */\n      mstore\n        /* \"#utility.yul\":31959:32090   */\n      tag_940\n        /* \"#utility.yul\":32085:32089   */\n      dup2\n        /* \"#utility.yul\":31959:32090   */\n      tag_628\n      jump\t// in\n    tag_940:\n        /* \"#utility.yul\":31951:32090   */\n      swap1\n      pop\n        /* \"#utility.yul\":31678:32097   */\n      swap2\n      swap1\n      pop\n      jump\t// out\n        /* \"#utility.yul\":32103:32261   */\n    tag_629:\n        /* \"#utility.yul\":32243:32253   */\n      0x4241445f4c4c5456000000000000000000000000000000000000000000000000\n        /* \"#utility.yul\":32239:32240   */\n      0x00\n        /* \"#utility.yul\":32231:32237   */\n      dup3\n        /* \"#utility.yul\":32227:32241   */\n      add\n        /* \"#utility.yul\":32220:32254   */\n      mstore\n        /* \"#utility.yul\":32103:32261   */\n      pop\n      jump\t// out\n        /* \"#utility.yul\":32267:32632   */\n    tag_630:\n        /* \"#utility.yul\":32409:32412   */\n      0x00\n        /* \"#utility.yul\":32430:32496   */\n      tag_943\n        /* \"#utility.yul\":32494:32495   */\n      0x08\n        /* \"#utility.yul\":32489:32492   */\n      dup4\n        /* \"#utility.yul\":32430:32496   */\n      tag_571\n      jump\t// in\n    tag_943:\n        /* \"#utility.yul\":32423:32496   */\n      swap2\n      pop\n        /* \"#utility.yul\":32505:32598   */\n      tag_944\n        /* \"#utility.yul\":32594:32597   */\n      dup3\n        /* \"#utility.yul\":32505:32598   */\n      tag_629\n      jump\t// in\n    tag_944:\n        /* \"#utility.yul\":32623:32625   */\n      0x20\n        /* \"#utility.yul\":32618:32621   */\n      dup3\n        /* \"#utility.yul\":32614:32626   */\n      add\n        /* \"#utility.yul\":32607:32626   */\n      swap1\n      pop\n        /* \"#utility.yul\":32267:32632   */\n      swap2\n      swap1\n      pop\n      jump\t// out\n        /* \"#utility.yul\":32638:33057   */\n    tag_437:\n        /* \"#utility.yul\":32804:32808   */\n      0x00\n        /* \"#utility.yul\":32842:32844   */\n      0x20\n        /* \"#utility.yul\":32831:32840   */\n      dup3\n        /* \"#utility.yul\":32827:32845   */\n      add\n        /* \"#utility.yul\":32819:32845   */\n      swap1\n      pop\n        /* \"#utility.yul\":32891:32900   */\n      dup2\n        /* \"#utility.yul\":32885:32889   */\n      dup2\n        /* \"#utility.yul\":32881:32901   */\n      sub\n        /* \"#utility.yul\":32877:32878   */\n      0x00\n        /* \"#utility.yul\":32866:32875   */\n      dup4\n        /* \"#utility.yul\":32862:32879   */\n      add\n        /* \"#utility.yul\":32855:32902   */\n      mstore\n        /* \"#utility.yul\":32919:33050   */\n      tag_946\n        /* \"#utility.yul\":33045:33049   */\n      dup2\n        /* \"#utility.yul\":32919:33050   */\n      tag_630\n      jump\t// in\n    tag_946:\n        /* \"#utility.yul\":32911:33050   */\n      swap1\n      pop\n        /* \"#utility.yul\":32638:33057   */\n      swap2\n      swap1\n      pop\n      jump\t// out\n        /* \"#utility.yul\":33063:33226   */\n    tag_631:\n        /* \"#utility.yul\":33203:33218   */\n      0x4241445f4c49515f424f4e555300000000000000000000000000000000000000\n        /* \"#utility.yul\":33199:33200   */\n      0x00\n        /* \"#utility.yul\":33191:33197   */\n      dup3\n        /* \"#utility.yul\":33187:33201   */\n      add\n        /* \"#utility.yul\":33180:33219   */\n      mstore\n        /* \"#utility.yul\":33063:33226   */\n      pop\n      jump\t// out\n        /* \"#utility.yul\":33232:33598   */\n    tag_632:\n        /* \"#utility.yul\":33374:33377   */\n      0x00\n        /* \"#utility.yul\":33395:33462   */\n      tag_949\n        /* \"#utility.yul\":33459:33461   */\n      0x0d\n        /* \"#utility.yul\":33454:33457   */\n      dup4\n        /* \"#utility.yul\":33395:33462   */\n      tag_571\n      jump\t// in\n    tag_949:\n        /* \"#utility.yul\":33388:33462   */\n      swap2\n      pop\n        /* \"#utility.yul\":33471:33564   */\n      tag_950\n        /* \"#utility.yul\":33560:33563   */\n      dup3\n        /* \"#utility.yul\":33471:33564   */\n      tag_631\n      jump\t// in\n    tag_950:\n        /* \"#utility.yul\":33589:33591   */\n      0x20\n        /* \"#utility.yul\":33584:33587   */\n      dup3\n        /* \"#utility.yul\":33580:33592   */\n      add\n        /* \"#utility.yul\":33573:33592   */\n      swap1\n      pop\n        /* \"#utility.yul\":33232:33598   */\n      swap2\n      swap1\n      pop\n      jump\t// out\n        /* \"#utility.yul\":33604:34023   */\n    tag_440:\n        /* \"#utility.yul\":33770:33774   */\n      0x00\n        /* \"#utility.yul\":33808:33810   */\n      0x20\n        /* \"#utility.yul\":33797:33806   */\n      dup3\n        /* \"#utility.yul\":33793:33811   */\n      add\n        /* \"#utility.yul\":33785:33811   */\n      swap1\n      pop\n        /* \"#utility.yul\":33857:33866   */\n      dup2\n        /* \"#utility.yul\":33851:33855   */\n      dup2\n        /* \"#utility.yul\":33847:33867   */\n      sub\n        /* \"#utility.yul\":33843:33844   */\n      0x00\n        /* \"#utility.yul\":33832:33841   */\n      dup4\n        /* \"#utility.yul\":33828:33845   */\n      add\n        /* \"#utility.yul\":33821:33868   */\n      mstore\n        /* \"#utility.yul\":33885:34016   */\n      tag_952\n        /* \"#utility.yul\":34011:34015   */\n      dup2\n        /* \"#utility.yul\":33885:34016   */\n      tag_632\n      jump\t// in\n    tag_952:\n        /* \"#utility.yul\":33877:34016   */\n      swap1\n      pop\n        /* \"#utility.yul\":33604:34023   */\n      swap2\n      swap1\n      pop\n      jump\t// out\n        /* \"#utility.yul\":34029:34126   */\n    tag_633:\n        /* \"#utility.yul\":34088:34094   */\n      0x00\n        /* \"#utility.yul\":34116:34119   */\n      dup3\n        /* \"#utility.yul\":34106:34119   */\n      swap1\n      pop\n        /* \"#utility.yul\":34029:34126   */\n      swap3\n      swap2\n      pop\n      pop\n      jump\t// out\n        /* \"#utility.yul\":34132:34312   */\n    tag_634:\n        /* \"#utility.yul\":34180:34257   */\n      0x4e487b7100000000000000000000000000000000000000000000000000000000\n        /* \"#utility.yul\":34177:34178   */\n      0x00\n        /* \"#utility.yul\":34170:34258   */\n      mstore\n        /* \"#utility.yul\":34277:34281   */\n      0x41\n        /* \"#utility.yul\":34274:34275   */\n      0x04\n        /* \"#utility.yul\":34267:34282   */\n      mstore\n        /* \"#utility.yul\":34301:34305   */\n      0x24\n        /* \"#utility.yul\":34298:34299   */\n      0x00\n        /* \"#utility.yul\":34291:34306   */\n      revert\n        /* \"#utility.yul\":34318:34459   */\n    tag_635:\n        /* \"#utility.yul\":34367:34371   */\n      0x00\n        /* \"#utility.yul\":34390:34393   */\n      dup2\n        /* \"#utility.yul\":34382:34393   */\n      swap1\n      pop\n        /* \"#utility.yul\":34413:34416   */\n      dup2\n        /* \"#utility.yul\":34410:34411   */\n      0x00\n        /* \"#utility.yul\":34403:34417   */\n      mstore\n        /* \"#utility.yul\":34447:34451   */\n      0x20\n        /* \"#utility.yul\":34444:34445   */\n      0x00\n        /* \"#utility.yul\":34434:34452   */\n      keccak256\n        /* \"#utility.yul\":34426:34452   */\n      swap1\n      pop\n        /* \"#utility.yul\":34318:34459   */\n      swap2\n      swap1\n      pop\n      jump\t// out\n        /* \"#utility.yul\":34465:34558   */\n    tag_636:\n        /* \"#utility.yul\":34502:34508   */\n      0x00\n        /* \"#utility.yul\":34549:34551   */\n      0x20\n        /* \"#utility.yul\":34544:34546   */\n      0x1f\n        /* \"#utility.yul\":34537:34542   */\n      dup4\n        /* \"#utility.yul\":34533:34547   */\n      add\n        /* \"#utility.yul\":34529:34552   */\n      div\n        /* \"#utility.yul\":34519:34552   */\n      swap1\n      pop\n        /* \"#utility.yul\":34465:34558   */\n      swap2\n      swap1\n      pop\n      jump\t// out\n        /* \"#utility.yul\":34564:34671   */\n    tag_637:\n        /* \"#utility.yul\":34608:34616   */\n      0x00\n        /* \"#utility.yul\":34658:34663   */\n      dup3\n        /* \"#utility.yul\":34652:34656   */\n      dup3\n        /* \"#utility.yul\":34648:34664   */\n      shl\n        /* \"#utility.yul\":34627:34664   */\n      swap1\n      pop\n        /* \"#utility.yul\":34564:34671   */\n      swap3\n      swap2\n      pop\n      pop\n      jump\t// out\n        /* \"#utility.yul\":34677:35070   */\n    tag_638:\n        /* \"#utility.yul\":34746:34752   */\n      0x00\n        /* \"#utility.yul\":34796:34797   */\n      0x08\n        /* \"#utility.yul\":34784:34794   */\n      dup4\n        /* \"#utility.yul\":34780:34798   */\n      mul\n        /* \"#utility.yul\":34819:34916   */\n      tag_959\n        /* \"#utility.yul\":34849:34915   */\n      0xffffffffffffffffffffffffffffffffffffffffffffffffffffffffffffffff\n        /* \"#utility.yul\":34838:34847   */\n      dup3\n        /* \"#utility.yul\":34819:34916   */\n      tag_637\n      jump\t// in\n    tag_959:\n        /* \"#utility.yul\":34937:34976   */\n      tag_960\n        /* \"#utility.yul\":34967:34975   */\n      dup7\n        /* \"#utility.yul\":34956:34965   */\n      dup4\n        /* \"#utility.yul\":34937:34976   */\n      tag_637\n      jump\t// in\n    tag_960:\n        /* \"#utility.yul\":34925:34976   */\n      swap6\n      pop\n        /* \"#utility.yul\":35009:35013   */\n      dup1\n        /* \"#utility.yul\":35005:35014   */\n      not\n        /* \"#utility.yul\":34998:35003   */\n      dup5\n        /* \"#utility.yul\":34994:35015   */\n      and\n        /* \"#utility.yul\":34985:35015   */\n      swap4\n      pop\n        /* \"#utility.yul\":35058:35062   */\n      dup1\n        /* \"#utility.yul\":35048:35056   */\n      dup7\n        /* \"#utility.yul\":35044:35063   */\n      and\n        /* \"#utility.yul\":35037:35042   */\n      dup5\n        /* \"#utility.yul\":35034:35064   */\n      or\n        /* \"#utility.yul\":35024:35064   */\n      swap3\n      pop\n        /* \"#utility.yul\":34753:35070   */\n      pop\n      pop\n        /* \"#utility.yul\":34677:35070   */\n      swap4\n      swap3\n      pop\n      pop\n      pop\n      jump\t// out\n        /* \"#utility.yul\":35076:35218   */\n    tag_639:\n        /* \"#utility.yul\":35126:35135   */\n      0x00\n        /* \"#utility.yul\":35159:35212   */\n      tag_962\n        /* \"#utility.yul\":35177:35211   */\n      tag_963\n        /* \"#utility.yul\":35186:35210   */\n      tag_964\n        /* \"#utility.yul\":35204:35209   */\n      dup5\n        /* \"#utility.yul\":35186:35210   */\n      tag_559\n      jump\t// in\n    tag_964:\n        /* \"#utility.yul\":35177:35211   */\n      tag_554\n      jump\t// in\n    tag_963:\n        /* \"#utility.yul\":35159:35212   */\n      tag_559\n      jump\t// in\n    tag_962:\n        /* \"#utility.yul\":35146:35212   */\n      swap1\n      pop\n        /* \"#utility.yul\":35076:35218   */\n      swap2\n      swap1\n      pop\n      jump\t// out\n        /* \"#utility.yul\":35224:35299   */\n    tag_640:\n        /* \"#utility.yul\":35267:35270   */\n      0x00\n        /* \"#utility.yul\":35288:35293   */\n      dup2\n        /* \"#utility.yul\":35281:35293   */\n      swap1\n      pop\n        /* \"#utility.yul\":35224:35299   */\n      swap2\n      swap1\n      pop\n      jump\t// out\n        /* \"#utility.yul\":35305:35574   */\n    tag_641:\n        /* \"#utility.yul\":35415:35454   */\n      tag_967\n        /* \"#utility.yul\":35446:35453   */\n      dup4\n        /* \"#utility.yul\":35415:35454   */\n      tag_639\n      jump\t// in\n    tag_967:\n        /* \"#utility.yul\":35476:35567   */\n      tag_968\n        /* \"#utility.yul\":35525:35566   */\n      tag_969\n        /* \"#utility.yul\":35549:35565   */\n      dup3\n        /* \"#utility.yul\":35525:35566   */\n      tag_640\n      jump\t// in\n    tag_969:\n        /* \"#utility.yul\":35517:35523   */\n      dup5\n        /* \"#utility.yul\":35510:35514   */\n      dup5\n        /* \"#utility.yul\":35504:35515   */\n      sload\n        /* \"#utility.yul\":35476:35567   */\n      tag_638\n      jump\t// in\n    tag_968:\n        /* \"#utility.yul\":35470:35474   */\n      dup3\n        /* \"#utility.yul\":35463:35568   */\n      sstore\n        /* \"#utility.yul\":35381:35574   */\n      pop\n        /* \"#utility.yul\":35305:35574   */\n      pop\n      pop\n      pop\n      jump\t// out\n        /* \"#utility.yul\":35580:35653   */\n    tag_642:\n        /* \"#utility.yul\":35625:35628   */\n      0x00\n        /* \"#utility.yul\":35646:35647   */\n      0x00\n        /* \"#utility.yul\":35639:35647   */\n      swap1\n      pop\n        /* \"#utility.yul\":35580:35653   */\n      swap1\n      jump\t// out\n        /* \"#utility.yul\":35659:35848   */\n    tag_643:\n        /* \"#utility.yul\":35736:35768   */\n      tag_972\n      tag_642\n      jump\t// in\n    tag_972:\n        /* \"#utility.yul\":35777:35842   */\n      tag_973\n        /* \"#utility.yul\":35835:35841   */\n      dup2\n        /* \"#utility.yul\":35827:35833   */\n      dup5\n        /* \"#utility.yul\":35821:35825   */\n      dup5\n        /* \"#utility.yul\":35777:35842   */\n      tag_641\n      jump\t// in\n    tag_973:\n        /* \"#utility.yul\":35712:35848   */\n      pop\n        /* \"#utility.yul\":35659:35848   */\n      pop\n      pop\n      jump\t// out\n        /* \"#utility.yul\":35854:36040   */\n    tag_644:\n        /* \"#utility.yul\":35914:36034   */\n    tag_975:\n        /* \"#utility.yul\":35931:35934   */\n      dup2\n        /* \"#utility.yul\":35924:35929   */\n      dup2\n        /* \"#utility.yul\":35921:35935   */\n      lt\n        /* \"#utility.yul\":35914:36034   */\n      iszero\n      tag_977\n      jumpi\n        /* \"#utility.yul\":35985:36024   */\n      tag_978\n        /* \"#utility.yul\":36022:36023   */\n      0x00\n        /* \"#utility.yul\":36015:36020   */\n      dup3\n        /* \"#utility.yul\":35985:36024   */\n      tag_643\n      jump\t// in\n    tag_978:\n        /* \"#utility.yul\":35958:35959   */\n      0x01\n        /* \"#utility.yul\":35951:35956   */\n      dup2\n        /* \"#utility.yul\":35947:35960   */\n      add\n        /* \"#utility.yul\":35938:35960   */\n      swap1\n      pop\n        /* \"#utility.yul\":35914:36034   */\n      jump(tag_975)\n    tag_977:\n        /* \"#utility.yul\":35854:36040   */\n      pop\n      pop\n      jump\t// out\n        /* \"#utility.yul\":36046:36589   */\n    tag_645:\n        /* \"#utility.yul\":36147:36149   */\n      0x1f\n        /* \"#utility.yul\":36142:36145   */\n      dup3\n        /* \"#utility.yul\":36139:36150   */\n      gt\n        /* \"#utility.yul\":36136:36582   */\n      iszero\n      tag_980\n      jumpi\n        /* \"#utility.yul\":36181:36219   */\n      tag_981\n        /* \"#utility.yul\":36213:36218   */\n      dup2\n        /* \"#utility.yul\":36181:36219   */\n      tag_635\n      jump\t// in\n    tag_981:\n        /* \"#utility.yul\":36265:36294   */\n      tag_982\n        /* \"#utility.yul\":36283:36293   */\n      dup5\n        /* \"#utility.yul\":36265:36294   */\n      tag_636\n      jump\t// in\n    tag_982:\n        /* \"#utility.yul\":36255:36263   */\n      dup2\n        /* \"#utility.yul\":36251:36295   */\n      add\n        /* \"#utility.yul\":36448:36450   */\n      0x20\n        /* \"#utility.yul\":36436:36446   */\n      dup6\n        /* \"#utility.yul\":36433:36451   */\n      lt\n        /* \"#utility.yul\":36430:36479   */\n      iszero\n      tag_983\n      jumpi\n        /* \"#utility.yul\":36469:36477   */\n      dup2\n        /* \"#utility.yul\":36454:36477   */\n      swap1\n      pop\n        /* \"#utility.yul\":36430:36479   */\n    tag_983:\n        /* \"#utility.yul\":36492:36572   */\n      tag_984\n        /* \"#utility.yul\":36548:36570   */\n      tag_985\n        /* \"#utility.yul\":36566:36569   */\n      dup6\n        /* \"#utility.yul\":36548:36570   */\n      tag_636\n      jump\t// in\n    tag_985:\n        /* \"#utility.yul\":36538:36546   */\n      dup4\n        /* \"#utility.yul\":36534:36571   */\n      add\n        /* \"#utility.yul\":36521:36532   */\n      dup3\n        /* \"#utility.yul\":36492:36572   */\n      tag_644\n      jump\t// in\n    tag_984:\n        /* \"#utility.yul\":36151:36582   */\n      pop\n      pop\n        /* \"#utility.yul\":36136:36582   */\n    tag_980:\n        /* \"#utility.yul\":36046:36589   */\n      pop\n      pop\n      pop\n      jump\t// out\n        /* \"#utility.yul\":36595:36712   */\n    tag_646:\n        /* \"#utility.yul\":36649:36657   */\n      0x00\n        /* \"#utility.yul\":36699:36704   */\n      dup3\n        /* \"#utility.yul\":36693:36697   */\n      dup3\n        /* \"#utility.yul\":36689:36705   */\n      shr\n        /* \"#utility.yul\":36668:36705   */\n      swap1\n      pop\n        /* \"#utility.yul\":36595:36712   */\n      swap3\n      swap2\n      pop\n      pop\n      jump\t// out\n        /* \"#utility.yul\":36718:36887   */\n    tag_647:\n        /* \"#utility.yul\":36762:36768   */\n      0x00\n        /* \"#utility.yul\":36795:36846   */\n      tag_988\n        /* \"#utility.yul\":36843:36844   */\n      0x00\n        /* \"#utility.yul\":36839:36845   */\n      not\n        /* \"#utility.yul\":36831:36836   */\n      dup5\n        /* \"#utility.yul\":36828:36829   */\n      0x08\n        /* \"#utility.yul\":36824:36837   */\n      mul\n        /* \"#utility.yul\":36795:36846   */\n      tag_646\n      jump\t// in\n    tag_988:\n        /* \"#utility.yul\":36791:36847   */\n      not\n        /* \"#utility.yul\":36876:36880   */\n      dup1\n        /* \"#utility.yul\":36870:36874   */\n      dup4\n        /* \"#utility.yul\":36866:36881   */\n      and\n        /* \"#utility.yul\":36856:36881   */\n      swap2\n      pop\n        /* \"#utility.yul\":36769:36887   */\n      pop\n        /* \"#utility.yul\":36718:36887   */\n      swap3\n      swap2\n      pop\n      pop\n      jump\t// out\n        /* \"#utility.yul\":36892:37187   */\n    tag_648:\n        /* \"#utility.yul\":36968:36972   */\n      0x00\n        /* \"#utility.yul\":37114:37143   */\n      tag_990\n        /* \"#utility.yul\":37139:37142   */\n      dup4\n        /* \"#utility.yul\":37133:37137   */\n      dup4\n        /* \"#utility.yul\":37114:37143   */\n      tag_647\n      jump\t// in\n    tag_990:\n        /* \"#utility.yul\":37106:37143   */\n      swap2\n      pop\n        /* \"#utility.yul\":37176:37179   */\n      dup3\n        /* \"#utility.yul\":37173:37174   */\n      0x02\n        /* \"#utility.yul\":37169:37180   */\n      mul\n        /* \"#utility.yul\":37163:37167   */\n      dup3\n        /* \"#utility.yul\":37160:37181   */\n      or\n        /* \"#utility.yul\":37152:37181   */\n      swap1\n      pop\n        /* \"#utility.yul\":36892:37187   */\n      swap3\n      swap2\n      pop\n      pop\n      jump\t// out\n        /* \"#utility.yul\":37192:38595   */\n    tag_451:\n        /* \"#utility.yul\":37316:37360   */\n      tag_992\n        /* \"#utility.yul\":37356:37359   */\n      dup4\n        /* \"#utility.yul\":37351:37354   */\n      dup4\n        /* \"#utility.yul\":37316:37360   */\n      tag_633\n      jump\t// in\n    tag_992:\n        /* \"#utility.yul\":37425:37443   */\n      0xffffffffffffffff\n        /* \"#utility.yul\":37417:37423   */\n      dup2\n        /* \"#utility.yul\":37414:37444   */\n      gt\n        /* \"#utility.yul\":37411:37467   */\n      iszero\n      tag_993\n      jumpi\n        /* \"#utility.yul\":37447:37465   */\n      tag_994\n      tag_634\n      jump\t// in\n    tag_994:\n        /* \"#utility.yul\":37411:37467   */\n    tag_993:\n        /* \"#utility.yul\":37491:37529   */\n      tag_995\n        /* \"#utility.yul\":37523:37527   */\n      dup3\n        /* \"#utility.yul\":37517:37528   */\n      sload\n        /* \"#utility.yul\":37491:37529   */\n      tag_328\n      jump\t// in\n    tag_995:\n        /* \"#utility.yul\":37576:37643   */\n      tag_996\n        /* \"#utility.yul\":37636:37642   */\n      dup3\n        /* \"#utility.yul\":37628:37634   */\n      dup3\n        /* \"#utility.yul\":37622:37626   */\n      dup6\n        /* \"#utility.yul\":37576:37643   */\n      tag_645\n      jump\t// in\n    tag_996:\n        /* \"#utility.yul\":37670:37671   */\n      0x00\n        /* \"#utility.yul\":37699:37701   */\n      0x1f\n        /* \"#utility.yul\":37691:37697   */\n      dup4\n        /* \"#utility.yul\":37688:37702   */\n      gt\n        /* \"#utility.yul\":37716:37717   */\n      0x01\n        /* \"#utility.yul\":37711:38343   */\n      dup2\n      eq\n      tag_998\n      jumpi\n        /* \"#utility.yul\":38387:38388   */\n      0x00\n        /* \"#utility.yul\":38404:38410   */\n      dup5\n        /* \"#utility.yul\":38401:38485   */\n      iszero\n      tag_999\n      jumpi\n        /* \"#utility.yul\":38460:38469   */\n      dup3\n        /* \"#utility.yul\":38455:38458   */\n      dup8\n        /* \"#utility.yul\":38451:38470   */\n      add\n        /* \"#utility.yul\":38438:38471   */\n      calldataload\n        /* \"#utility.yul\":38429:38471   */\n      swap1\n      pop\n        /* \"#utility.yul\":38401:38485   */\n    tag_999:\n        /* \"#utility.yul\":38511:38578   */\n      tag_1000\n        /* \"#utility.yul\":38571:38577   */\n      dup6\n        /* \"#utility.yul\":38564:38569   */\n      dup3\n        /* \"#utility.yul\":38511:38578   */\n      tag_648\n      jump\t// in\n    tag_1000:\n        /* \"#utility.yul\":38505:38509   */\n      dup7\n        /* \"#utility.yul\":38498:38579   */\n      sstore\n        /* \"#utility.yul\":38360:38589   */\n      pop\n        /* \"#utility.yul\":37681:38589   */\n      jump(tag_997)\n        /* \"#utility.yul\":37711:38343   */\n    tag_998:\n        /* \"#utility.yul\":37763:37767   */\n      0x1f\n        /* \"#utility.yul\":37759:37768   */\n      not\n        /* \"#utility.yul\":37751:37757   */\n      dup5\n        /* \"#utility.yul\":37747:37769   */\n      and\n        /* \"#utility.yul\":37797:37834   */\n      tag_1001\n        /* \"#utility.yul\":37829:37833   */\n      dup7\n        /* \"#utility.yul\":37797:37834   */\n      tag_635\n      jump\t// in\n    tag_1001:\n        /* \"#utility.yul\":37856:37857   */\n      0x00\n        /* \"#utility.yul\":37870:38085   */\n    tag_1002:\n        /* \"#utility.yul\":37884:37891   */\n      dup3\n        /* \"#utility.yul\":37881:37882   */\n      dup2\n        /* \"#utility.yul\":37878:37892   */\n      lt\n        /* \"#utility.yul\":37870:38085   */\n      iszero\n      tag_1004\n      jumpi\n        /* \"#utility.yul\":37970:37979   */\n      dup5\n        /* \"#utility.yul\":37965:37968   */\n      dup10\n        /* \"#utility.yul\":37961:37980   */\n      add\n        /* \"#utility.yul\":37948:37981   */\n      calldataload\n        /* \"#utility.yul\":37940:37946   */\n      dup3\n        /* \"#utility.yul\":37933:37982   */\n      sstore\n        /* \"#utility.yul\":38021:38022   */\n      0x01\n        /* \"#utility.yul\":38013:38019   */\n      dup3\n        /* \"#utility.yul\":38009:38023   */\n      add\n        /* \"#utility.yul\":37999:38023   */\n      swap2\n      pop\n        /* \"#utility.yul\":38068:38070   */\n      0x20\n        /* \"#utility.yul\":38057:38066   */\n      dup6\n        /* \"#utility.yul\":38053:38071   */\n      add\n        /* \"#utility.yul\":38040:38071   */\n      swap5\n      pop\n        /* \"#utility.yul\":37907:37911   */\n      0x20\n        /* \"#utility.yul\":37904:37905   */\n      dup2\n        /* \"#utility.yul\":37900:37912   */\n      add\n        /* \"#utility.yul\":37895:37912   */\n      swap1\n      pop\n        /* \"#utility.yul\":37870:38085   */\n      jump(tag_1002)\n    tag_1004:\n        /* \"#utility.yul\":38113:38119   */\n      dup7\n        /* \"#utility.yul\":38104:38111   */\n      dup4\n        /* \"#utility.yul\":38101:38120   */\n      lt\n        /* \"#utility.yul\":38098:38284   */\n      iszero\n      tag_1005\n      jumpi\n        /* \"#utility.yul\":38178:38187   */\n      dup5\n        /* \"#utility.yul\":38173:38176   */\n      dup10\n        /* \"#utility.yul\":38169:38188   */\n      add\n        /* \"#utility.yul\":38156:38189   */\n      calldataload\n        /* \"#utility.yul\":38221:38269   */\n      tag_1006\n        /* \"#utility.yul\":38263:38267   */\n      0x1f\n        /* \"#utility.yul\":38255:38261   */\n      dup10\n        /* \"#utility.yul\":38251:38268   */\n      and\n        /* \"#utility.yul\":38240:38249   */\n      dup3\n        /* \"#utility.yul\":38221:38269   */\n      tag_647\n      jump\t// in\n    tag_1006:\n        /* \"#utility.yul\":38213:38219   */\n      dup4\n        /* \"#utility.yul\":38206:38270   */\n      sstore\n        /* \"#utility.yul\":38121:38284   */\n      pop\n        /* \"#utility.yul\":38098:38284   */\n    tag_1005:\n        /* \"#utility.yul\":38330:38331   */\n      0x01\n        /* \"#utility.yul\":38326:38327   */\n      0x02\n        /* \"#utility.yul\":38318:38324   */\n      dup9\n        /* \"#utility.yul\":38314:38328   */\n      mul\n        /* \"#utility.yul\":38310:38332   */\n      add\n        /* \"#utility.yul\":38304:38308   */\n      dup9\n        /* \"#utility.yul\":38297:38333   */\n      sstore\n        /* \"#utility.yul\":37718:38343   */\n      pop\n      pop\n      pop\n        /* \"#utility.yul\":37681:38589   */\n    tag_997:\n      pop\n        /* \"#utility.yul\":37291:38595   */\n      pop\n      pop\n      pop\n        /* \"#utility.yul\":37192:38595   */\n      pop\n      pop\n      pop\n      jump\t// out\n        /* \"#utility.yul\":38601:38769   */\n    tag_649:\n        /* \"#utility.yul\":38741:38761   */\n      0x424f52524f575f425245414b535f4c4c54560000000000000000000000000000\n        /* \"#utility.yul\":38737:38738   */\n      0x00\n        /* \"#utility.yul\":38729:38735   */\n      dup3\n        /* \"#utility.yul\":38725:38739   */\n      add\n        /* \"#utility.yul\":38718:38762   */\n      mstore\n        /* \"#utility.yul\":38601:38769   */\n      pop\n      jump\t// out\n        /* \"#utility.yul\":38775:39141   */\n    tag_650:\n        /* \"#utility.yul\":38917:38920   */\n      0x00\n        /* \"#utility.yul\":38938:39005   */\n      tag_1009\n        /* \"#utility.yul\":39002:39004   */\n      0x12\n        /* \"#utility.yul\":38997:39000   */\n      dup4\n        /* \"#utility.yul\":38938:39005   */\n      tag_571\n      jump\t// in\n    tag_1009:\n        /* \"#utility.yul\":38931:39005   */\n      swap2\n      pop\n        /* \"#utility.yul\":39014:39107   */\n      tag_1010\n        /* \"#utility.yul\":39103:39106   */\n      dup3\n        /* \"#utility.yul\":39014:39107   */\n      tag_649\n      jump\t// in\n    tag_1010:\n        /* \"#utility.yul\":39132:39134   */\n      0x20\n        /* \"#utility.yul\":39127:39130   */\n      dup3\n        /* \"#utility.yul\":39123:39135   */\n      add\n        /* \"#utility.yul\":39116:39135   */\n      swap1\n      pop\n        /* \"#utility.yul\":38775:39141   */\n      swap2\n      swap1\n      pop\n      jump\t// out\n        /* \"#utility.yul\":39147:39566   */\n    tag_469:\n        /* \"#utility.yul\":39313:39317   */\n      0x00\n        /* \"#utility.yul\":39351:39353   */\n      0x20\n        /* \"#utility.yul\":39340:39349   */\n      dup3\n        /* \"#utility.yul\":39336:39354   */\n      add\n        /* \"#utility.yul\":39328:39354   */\n      swap1\n      pop\n        /* \"#utility.yul\":39400:39409   */\n      dup2\n        /* \"#utility.yul\":39394:39398   */\n      dup2\n        /* \"#utility.yul\":39390:39410   */\n      sub\n        /* \"#utility.yul\":39386:39387   */\n      0x00\n        /* \"#utility.yul\":39375:39384   */\n      dup4\n        /* \"#utility.yul\":39371:39388   */\n      add\n        /* \"#utility.yul\":39364:39411   */\n      mstore\n        /* \"#utility.yul\":39428:39559   */\n      tag_1012\n        /* \"#utility.yul\":39554:39558   */\n      dup2\n        /* \"#utility.yul\":39428:39559   */\n      tag_650\n      jump\t// in\n    tag_1012:\n        /* \"#utility.yul\":39420:39559   */\n      swap1\n      pop\n        /* \"#utility.yul\":39147:39566   */\n      swap2\n      swap1\n      pop\n      jump\t// out\n        /* \"#utility.yul\":39572:39731   */\n    tag_651:\n        /* \"#utility.yul\":39712:39723   */\n      0x5a45524f5f494d504c0000000000000000000000000000000000000000000000\n        /* \"#utility.yul\":39708:39709   */\n      0x00\n        /* \"#utility.yul\":39700:39706   */\n      dup3\n        /* \"#utility.yul\":39696:39710   */\n      add\n        /* \"#utility.yul\":39689:39724   */\n      mstore\n        /* \"#utility.yul\":39572:39731   */\n      pop\n      jump\t// out\n        /* \"#utility.yul\":39737:40102   */\n    tag_652:\n        /* \"#utility.yul\":39879:39882   */\n      0x00\n        /* \"#utility.yul\":39900:39966   */\n      tag_1015\n        /* \"#utility.yul\":39964:39965   */\n      0x09\n        /* \"#utility.yul\":39959:39962   */\n      dup4\n        /* \"#utility.yul\":39900:39966   */\n      tag_571\n      jump\t// in\n    tag_1015:\n        /* \"#utility.yul\":39893:39966   */\n      swap2\n      pop\n        /* \"#utility.yul\":39975:40068   */\n      tag_1016\n        /* \"#utility.yul\":40064:40067   */\n      dup3\n        /* \"#utility.yul\":39975:40068   */\n      tag_651\n      jump\t// in\n    tag_1016:\n        /* \"#utility.yul\":40093:40095   */\n      0x20\n        /* \"#utility.yul\":40088:40091   */\n      dup3\n        /* \"#utility.yul\":40084:40096   */\n      add\n        /* \"#utility.yul\":40077:40096   */\n      swap1\n      pop\n        /* \"#utility.yul\":39737:40102   */\n      swap2\n      swap1\n      pop\n      jump\t// out\n        /* \"#utility.yul\":40108:40527   */\n    tag_512:\n        /* \"#utility.yul\":40274:40278   */\n      0x00\n        /* \"#utility.yul\":40312:40314   */\n      0x20\n        /* \"#utility.yul\":40301:40310   */\n      dup3\n        /* \"#utility.yul\":40297:40315   */\n      add\n        /* \"#utility.yul\":40289:40315   */\n      swap1\n      pop\n        /* \"#utility.yul\":40361:40370   */\n      dup2\n        /* \"#utility.yul\":40355:40359   */\n      dup2\n        /* \"#utility.yul\":40351:40371   */\n      sub\n        /* \"#utility.yul\":40347:40348   */\n      0x00\n        /* \"#utility.yul\":40336:40345   */\n      dup4\n        /* \"#utility.yul\":40332:40349   */\n      add\n        /* \"#utility.yul\":40325:40372   */\n      mstore\n        /* \"#utility.yul\":40389:40520   */\n      tag_1018\n        /* \"#utility.yul\":40515:40519   */\n      dup2\n        /* \"#utility.yul\":40389:40520   */\n      tag_652\n      jump\t// in\n    tag_1018:\n        /* \"#utility.yul\":40381:40520   */\n      swap1\n      pop\n        /* \"#utility.yul\":40108:40527   */\n      swap2\n      swap1\n      pop\n      jump\t// out\n        /* \"#utility.yul\":40533:40631   */\n    tag_653:\n        /* \"#utility.yul\":40584:40590   */\n      0x00\n        /* \"#utility.yul\":40618:40623   */\n      dup2\n        /* \"#utility.yul\":40612:40624   */\n      mload\n        /* \"#utility.yul\":40602:40624   */\n      swap1\n      pop\n        /* \"#utility.yul\":40533:40631   */\n      swap2\n      swap1\n      pop\n      jump\t// out\n        /* \"#utility.yul\":40637:40784   */\n    tag_654:\n        /* \"#utility.yul\":40738:40749   */\n      0x00\n        /* \"#utility.yul\":40775:40778   */\n      dup2\n        /* \"#utility.yul\":40760:40778   */\n      swap1\n      pop\n        /* \"#utility.yul\":40637:40784   */\n      swap3\n      swap2\n      pop\n      pop\n      jump\t// out\n        /* \"#utility.yul\":40790:41176   */\n    tag_655:\n        /* \"#utility.yul\":40894:40897   */\n      0x00\n        /* \"#utility.yul\":40922:40960   */\n      tag_1022\n        /* \"#utility.yul\":40954:40959   */\n      dup3\n        /* \"#utility.yul\":40922:40960   */\n      tag_653\n      jump\t// in\n    tag_1022:\n        /* \"#utility.yul\":40976:41064   */\n      tag_1023\n        /* \"#utility.yul\":41057:41063   */\n      dup2\n        /* \"#utility.yul\":41052:41055   */\n      dup6\n        /* \"#utility.yul\":40976:41064   */\n      tag_654\n      jump\t// in\n    tag_1023:\n        /* \"#utility.yul\":40969:41064   */\n      swap4\n      pop\n        /* \"#utility.yul\":41073:41138   */\n      tag_1024\n        /* \"#utility.yul\":41131:41137   */\n      dup2\n        /* \"#utility.yul\":41126:41129   */\n      dup6\n        /* \"#utility.yul\":41119:41123   */\n      0x20\n        /* \"#utility.yul\":41112:41117   */\n      dup7\n        /* \"#utility.yul\":41108:41124   */\n      add\n        /* \"#utility.yul\":41073:41138   */\n      tag_572\n      jump\t// in\n    tag_1024:\n        /* \"#utility.yul\":41163:41169   */\n      dup1\n        /* \"#utility.yul\":41158:41161   */\n      dup5\n        /* \"#utility.yul\":41154:41170   */\n      add\n        /* \"#utility.yul\":41147:41170   */\n      swap2\n      pop\n        /* \"#utility.yul\":40898:41176   */\n      pop\n        /* \"#utility.yul\":40790:41176   */\n      swap3\n      swap2\n      pop\n      pop\n      jump\t// out\n        /* \"#utility.yul\":41182:41453   */\n    tag_518:\n        /* \"#utility.yul\":41312:41315   */\n      0x00\n        /* \"#utility.yul\":41334:41427   */\n      tag_1026\n        /* \"#utility.yul\":41423:41426   */\n      dup3\n        /* \"#utility.yul\":41414:41420   */\n      dup5\n        /* \"#utility.yul\":41334:41427   */\n      tag_655\n      jump\t// in\n    tag_1026:\n        /* \"#utility.yul\":41327:41427   */\n      swap2\n      pop\n        /* \"#utility.yul\":41444:41447   */\n      dup2\n        /* \"#utility.yul\":41437:41447   */\n      swap1\n      pop\n        /* \"#utility.yul\":41182:41453   */\n      swap3\n      swap2\n      pop\n      pop\n      jump\t// out\n        /* \"#utility.yul\":41459:41545   */\n    tag_656:\n        /* \"#utility.yul\":41494:41501   */\n      0x00\n        /* \"#utility.yul\":41534:41538   */\n      0xff\n        /* \"#utility.yul\":41527:41532   */\n      dup3\n        /* \"#utility.yul\":41523:41539   */\n      and\n        /* \"#utility.yul\":41512:41539   */\n      swap1\n      pop\n        /* \"#utility.yul\":41459:41545   */\n      swap2\n      swap1\n      pop\n      jump\t// out\n        /* \"#utility.yul\":41551:41669   */\n    tag_657:\n        /* \"#utility.yul\":41622:41644   */\n      tag_1029\n        /* \"#utility.yul\":41638:41643   */\n      dup2\n        /* \"#utility.yul\":41622:41644   */\n      tag_656\n      jump\t// in\n    tag_1029:\n        /* \"#utility.yul\":41615:41620   */\n      dup2\n        /* \"#utility.yul\":41612:41645   */\n      eq\n        /* \"#utility.yul\":41602:41663   */\n      tag_1030\n      jumpi\n        /* \"#utility.yul\":41659:41660   */\n      0x00\n        /* \"#utility.yul\":41656:41657   */\n      0x00\n        /* \"#utility.yul\":41649:41661   */\n      revert\n        /* \"#utility.yul\":41602:41663   */\n    tag_1030:\n        /* \"#utility.yul\":41551:41669   */\n      pop\n      jump\t// out\n        /* \"#utility.yul\":41675:41814   */\n    tag_658:\n        /* \"#utility.yul\":41730:41735   */\n      0x00\n        /* \"#utility.yul\":41761:41767   */\n      dup2\n        /* \"#utility.yul\":41755:41768   */\n      mload\n        /* \"#utility.yul\":41746:41768   */\n      swap1\n      pop\n        /* \"#utility.yul\":41777:41808   */\n      tag_1032\n        /* \"#utility.yul\":41802:41807   */\n      dup2\n        /* \"#utility.yul\":41777:41808   */\n      tag_657\n      jump\t// in\n    tag_1032:\n        /* \"#utility.yul\":41675:41814   */\n      swap3\n      swap2\n      pop\n      pop\n      jump\t// out\n        /* \"#utility.yul\":41820:42167   */\n    tag_528:\n        /* \"#utility.yul\":41888:41894   */\n      0x00\n        /* \"#utility.yul\":41937:41939   */\n      0x20\n        /* \"#utility.yul\":41925:41934   */\n      dup3\n        /* \"#utility.yul\":41916:41923   */\n      dup5\n        /* \"#utility.yul\":41912:41935   */\n      sub\n        /* \"#utility.yul\":41908:41940   */\n      slt\n        /* \"#utility.yul\":41905:42024   */\n      iszero\n      tag_1034\n      jumpi\n        /* \"#utility.yul\":41943:42022   */\n      tag_1035\n      tag_562\n      jump\t// in\n    tag_1035:\n        /* \"#utility.yul\":41905:42024   */\n    tag_1034:\n        /* \"#utility.yul\":42063:42064   */\n      0x00\n        /* \"#utility.yul\":42088:42150   */\n      tag_1036\n        /* \"#utility.yul\":42142:42149   */\n      dup5\n        /* \"#utility.yul\":42133:42139   */\n      dup3\n        /* \"#utility.yul\":42122:42131   */\n      dup6\n        /* \"#utility.yul\":42118:42140   */\n      add\n        /* \"#utility.yul\":42088:42150   */\n      tag_658\n      jump\t// in\n    tag_1036:\n        /* \"#utility.yul\":42078:42150   */\n      swap2\n      pop\n        /* \"#utility.yul\":42034:42160   */\n      pop\n        /* \"#utility.yul\":41820:42167   */\n      swap3\n      swap2\n      pop\n      pop\n      jump\t// out\n        /* \"#utility.yul\":42173:42275   */\n    tag_659:\n        /* \"#utility.yul\":42215:42223   */\n      0x00\n        /* \"#utility.yul\":42262:42267   */\n      dup2\n        /* \"#utility.yul\":42259:42260   */\n      0x01\n        /* \"#utility.yul\":42255:42268   */\n      shr\n        /* \"#utility.yul\":42234:42268   */\n      swap1\n      pop\n        /* \"#utility.yul\":42173:42275   */\n      swap2\n      swap1\n      pop\n      jump\t// out\n        /* \"#utility.yul\":42281:43129   */\n    tag_660:\n        /* \"#utility.yul\":42342:42347   */\n      0x00\n        /* \"#utility.yul\":42349:42353   */\n      0x00\n        /* \"#utility.yul\":42373:42379   */\n      dup3\n        /* \"#utility.yul\":42364:42379   */\n      swap2\n      pop\n        /* \"#utility.yul\":42397:42402   */\n      dup4\n        /* \"#utility.yul\":42388:42402   */\n      swap1\n      pop\n        /* \"#utility.yul\":42411:43123   */\n    tag_1039:\n        /* \"#utility.yul\":42432:42433   */\n      0x01\n        /* \"#utility.yul\":42422:42430   */\n      dup6\n        /* \"#utility.yul\":42419:42434   */\n      gt\n        /* \"#utility.yul\":42411:43123   */\n      iszero\n      tag_1041\n      jumpi\n        /* \"#utility.yul\":42527:42531   */\n      dup1\n        /* \"#utility.yul\":42522:42525   */\n      dup7\n        /* \"#utility.yul\":42518:42532   */\n      div\n        /* \"#utility.yul\":42512:42516   */\n      dup2\n        /* \"#utility.yul\":42509:42533   */\n      gt\n        /* \"#utility.yul\":42506:42556   */\n      iszero\n      tag_1042\n      jumpi\n        /* \"#utility.yul\":42536:42554   */\n      tag_1043\n      tag_592\n      jump\t// in\n    tag_1043:\n        /* \"#utility.yul\":42506:42556   */\n    tag_1042:\n        /* \"#utility.yul\":42586:42587   */\n      0x01\n        /* \"#utility.yul\":42576:42584   */\n      dup6\n        /* \"#utility.yul\":42572:42588   */\n      and\n        /* \"#utility.yul\":42569:43020   */\n      iszero\n      tag_1044\n      jumpi\n        /* \"#utility.yul\":43001:43005   */\n      dup1\n        /* \"#utility.yul\":42994:42999   */\n      dup3\n        /* \"#utility.yul\":42990:43006   */\n      mul\n        /* \"#utility.yul\":42981:43006   */\n      swap2\n      pop\n        /* \"#utility.yul\":42569:43020   */\n    tag_1044:\n        /* \"#utility.yul\":43051:43055   */\n      dup1\n        /* \"#utility.yul\":43045:43049   */\n      dup2\n        /* \"#utility.yul\":43041:43056   */\n      mul\n        /* \"#utility.yul\":43033:43056   */\n      swap1\n      pop\n        /* \"#utility.yul\":43081:43113   */\n      tag_1045\n        /* \"#utility.yul\":43104:43112   */\n      dup6\n        /* \"#utility.yul\":43081:43113   */\n      tag_659\n      jump\t// in\n    tag_1045:\n        /* \"#utility.yul\":43069:43113   */\n      swap5\n      pop\n        /* \"#utility.yul\":42411:43123   */\n      jump(tag_1039)\n    tag_1041:\n        /* \"#utility.yul\":42281:43129   */\n      swap5\n      pop\n      swap5\n      swap3\n      pop\n      pop\n      pop\n      jump\t// out\n        /* \"#utility.yul\":43135:44208   */\n    tag_661:\n        /* \"#utility.yul\":43189:43194   */\n      0x00\n        /* \"#utility.yul\":43380:43388   */\n      dup3\n        /* \"#utility.yul\":43370:43410   */\n      tag_1047\n      jumpi\n        /* \"#utility.yul\":43401:43402   */\n      0x01\n        /* \"#utility.yul\":43392:43402   */\n      swap1\n      pop\n        /* \"#utility.yul\":43403:43408   */\n      jump(tag_1046)\n        /* \"#utility.yul\":43370:43410   */\n    tag_1047:\n        /* \"#utility.yul\":43429:43433   */\n      dup2\n        /* \"#utility.yul\":43419:43455   */\n      tag_1048\n      jumpi\n        /* \"#utility.yul\":43446:43447   */\n      0x00\n        /* \"#utility.yul\":43437:43447   */\n      swap1\n      pop\n        /* \"#utility.yul\":43448:43453   */\n      jump(tag_1046)\n        /* \"#utility.yul\":43419:43455   */\n    tag_1048:\n        /* \"#utility.yul\":43515:43519   */\n      dup2\n        /* \"#utility.yul\":43563:43564   */\n      0x01\n        /* \"#utility.yul\":43558:43585   */\n      dup2\n      eq\n      tag_1050\n      jumpi\n        /* \"#utility.yul\":43599:43600   */\n      0x02\n        /* \"#utility.yul\":43594:43785   */\n      dup2\n      eq\n      tag_1051\n      jumpi\n        /* \"#utility.yul\":43508:43785   */\n      jump(tag_1049)\n        /* \"#utility.yul\":43558:43585   */\n    tag_1050:\n        /* \"#utility.yul\":43576:43577   */\n      0x01\n        /* \"#utility.yul\":43567:43577   */\n      swap2\n      pop\n        /* \"#utility.yul\":43578:43583   */\n      pop\n      jump(tag_1046)\n        /* \"#utility.yul\":43594:43785   */\n    tag_1051:\n        /* \"#utility.yul\":43639:43642   */\n      0xff\n        /* \"#utility.yul\":43629:43637   */\n      dup5\n        /* \"#utility.yul\":43626:43643   */\n      gt\n        /* \"#utility.yul\":43623:43666   */\n      iszero\n      tag_1052\n      jumpi\n        /* \"#utility.yul\":43646:43664   */\n      tag_1053\n      tag_592\n      jump\t// in\n    tag_1053:\n        /* \"#utility.yul\":43623:43666   */\n    tag_1052:\n        /* \"#utility.yul\":43695:43703   */\n      dup4\n        /* \"#utility.yul\":43692:43693   */\n      0x02\n        /* \"#utility.yul\":43688:43704   */\n      exp\n        /* \"#utility.yul\":43679:43704   */\n      swap2\n      pop\n        /* \"#utility.yul\":43730:43733   */\n      dup5\n        /* \"#utility.yul\":43723:43728   */\n      dup3\n        /* \"#utility.yul\":43720:43734   */\n      gt\n        /* \"#utility.yul\":43717:43757   */\n      iszero\n      tag_1054\n      jumpi\n        /* \"#utility.yul\":43737:43755   */\n      tag_1055\n      tag_592\n      jump\t// in\n    tag_1055:\n        /* \"#utility.yul\":43717:43757   */\n    tag_1054:\n        /* \"#utility.yul\":43770:43775   */\n      pop\n      jump(tag_1046)\n        /* \"#utility.yul\":43508:43785   */\n    tag_1049:\n      pop\n        /* \"#utility.yul\":43894:43896   */\n      0x20\n        /* \"#utility.yul\":43884:43892   */\n      dup4\n        /* \"#utility.yul\":43881:43897   */\n      lt\n        /* \"#utility.yul\":43875:43878   */\n      0x0133\n        /* \"#utility.yul\":43869:43873   */\n      dup4\n        /* \"#utility.yul\":43866:43879   */\n      lt\n        /* \"#utility.yul\":43862:43898   */\n      and\n        /* \"#utility.yul\":43844:43846   */\n      0x4e\n        /* \"#utility.yul\":43834:43842   */\n      dup5\n        /* \"#utility.yul\":43831:43847   */\n      lt\n        /* \"#utility.yul\":43826:43828   */\n      0x0b\n        /* \"#utility.yul\":43820:43824   */\n      dup5\n        /* \"#utility.yul\":43817:43829   */\n      lt\n        /* \"#utility.yul\":43813:43848   */\n      and\n        /* \"#utility.yul\":43797:43908   */\n      or\n        /* \"#utility.yul\":43794:44040   */\n      iszero\n      tag_1056\n      jumpi\n        /* \"#utility.yul\":43950:43958   */\n      dup3\n        /* \"#utility.yul\":43944:43948   */\n      dup3\n        /* \"#utility.yul\":43940:43959   */\n      exp\n        /* \"#utility.yul\":43931:43959   */\n      swap1\n      pop\n        /* \"#utility.yul\":43985:43988   */\n      dup4\n        /* \"#utility.yul\":43978:43983   */\n      dup2\n        /* \"#utility.yul\":43975:43989   */\n      gt\n        /* \"#utility.yul\":43972:44012   */\n      iszero\n      tag_1057\n      jumpi\n        /* \"#utility.yul\":43992:44010   */\n      tag_1058\n      tag_592\n      jump\t// in\n    tag_1058:\n        /* \"#utility.yul\":43972:44012   */\n    tag_1057:\n        /* \"#utility.yul\":44025:44030   */\n      jump(tag_1046)\n        /* \"#utility.yul\":43794:44040   */\n    tag_1056:\n        /* \"#utility.yul\":44065:44107   */\n      tag_1059\n        /* \"#utility.yul\":44103:44106   */\n      dup5\n        /* \"#utility.yul\":44093:44101   */\n      dup5\n        /* \"#utility.yul\":44087:44091   */\n      dup5\n        /* \"#utility.yul\":44084:44085   */\n      0x01\n        /* \"#utility.yul\":44065:44107   */\n      tag_660\n      jump\t// in\n    tag_1059:\n        /* \"#utility.yul\":44050:44107   */\n      swap3\n      pop\n      swap1\n      pop\n        /* \"#utility.yul\":44139:44143   */\n      dup2\n        /* \"#utility.yul\":44134:44137   */\n      dup5\n        /* \"#utility.yul\":44130:44144   */\n      div\n        /* \"#utility.yul\":44123:44128   */\n      dup2\n        /* \"#utility.yul\":44120:44145   */\n      gt\n        /* \"#utility.yul\":44117:44168   */\n      iszero\n      tag_1060\n      jumpi\n        /* \"#utility.yul\":44148:44166   */\n      tag_1061\n      tag_592\n      jump\t// in\n    tag_1061:\n        /* \"#utility.yul\":44117:44168   */\n    tag_1060:\n        /* \"#utility.yul\":44197:44201   */\n      dup2\n        /* \"#utility.yul\":44190:44195   */\n      dup2\n        /* \"#utility.yul\":44186:44202   */\n      mul\n        /* \"#utility.yul\":44177:44202   */\n      swap1\n      pop\n        /* \"#utility.yul\":43135:44208   */\n    tag_1046:\n      swap4\n      swap3\n      pop\n      pop\n      pop\n      jump\t// out\n        /* \"#utility.yul\":44214:44495   */\n    tag_530:\n        /* \"#utility.yul\":44272:44277   */\n      0x00\n        /* \"#utility.yul\":44296:44319   */\n      tag_1063\n        /* \"#utility.yul\":44314:44318   */\n      dup3\n        /* \"#utility.yul\":44296:44319   */\n      tag_559\n      jump\t// in\n    tag_1063:\n        /* \"#utility.yul\":44288:44319   */\n      swap2\n      pop\n        /* \"#utility.yul\":44340:44365   */\n      tag_1064\n        /* \"#utility.yul\":44356:44364   */\n      dup4\n        /* \"#utility.yul\":44340:44365   */\n      tag_656\n      jump\t// in\n    tag_1064:\n        /* \"#utility.yul\":44328:44365   */\n      swap3\n      pop\n        /* \"#utility.yul\":44384:44488   */\n      tag_1065\n        /* \"#utility.yul\":44421:44487   */\n      0xffffffffffffffffffffffffffffffffffffffffffffffffffffffffffffffff\n        /* \"#utility.yul\":44411:44419   */\n      dup5\n        /* \"#utility.yul\":44405:44409   */\n      dup5\n        /* \"#utility.yul\":44384:44488   */\n      tag_661\n      jump\t// in\n    tag_1065:\n        /* \"#utility.yul\":44375:44488   */\n      swap1\n      pop\n        /* \"#utility.yul\":44214:44495   */\n      swap3\n      swap2\n      pop\n      pop\n      jump\t// out\n\n    auxdata: 0xa2646970667358221220299ea4ef6d344e1ff26ca01f052c606443286687f6d95cc28d2c9ffffc51872964736f6c634300081e0033\n}\n",
				"bytecode": {
					"linkReferences": {},
					"object": "60a06040523073ffffffffffffffffffffffffffffffffffffffff1660809073ffffffffffffffffffffffffffffffffffffffff16815250348015610042575f5ffd5b506080516143746100775f395f8181610d8201528181610e100152818161156c015281816115fa01526116ed01526143745ff3fe60806040526004361061023a575f3560e01c80636ad9f9df1161012d578063b2016bd4116100aa578063d283e75f1161006e578063d283e75f14610812578063d3a417a21461084e578063d681a44914610876578063fbfa77cf146108a0578063fc7b9c18146108ca5761023a565b8063b2016bd414610744578063b3604c961461076e578063c5ebeaec14610798578063c82f6d2f146107c0578063ced65b01146107ea5761023a565b80638da5cb5b116100f15780638da5cb5b14610688578063a385fb96146106b2578063a6afed95146106dc578063aa5af0fd146106f2578063b1c0be341461071c5761023a565b80636ad9f9df146105a457806374375359146105e057806376e9790a1461060a5780637c3a00fd146106345780637dc0d1d01461065e5761023a565b80633e3722b6116101bb57806352d1902d1161017f57806352d1902d146104ae57806355f57510146104d85780636112fe2e1461051657806361d027b31461053e5780636711a640146105685761023a565b80633e3722b6146103ee5780634046ebae146104165780634a79d50c146104405780634b92917a1461046a5780634f1ef286146104925761023a565b80632f865568116102025780632f8655681461031057806335659fb8146103385780633659cfe614610362578063367febea1461038a578063371fd8e6146103b25761023a565b806306d378171461023e578063136cf1f71461026857806319970d8e1461029257806327776ab5146102bc57806329962904146102e6575b5f5ffd5b348015610249575f5ffd5b506102526108f4565b60405161025f9190612e51565b60405180910390f35b348015610273575f5ffd5b5061027c610919565b6040516102899190612e82565b60405180910390f35b34801561029d575f5ffd5b506102a661091f565b6040516102b39190612e82565b60405180910390f35b3480156102c7575f5ffd5b506102d0610925565b6040516102dd9190612e82565b60405180910390f35b3480156102f1575f5ffd5b506102fa610931565b6040516103079190612e82565b60405180910390f35b34801561031b575f5ffd5b5061033660048036038101906103319190612ede565b610937565b005b348015610343575f5ffd5b5061034c610d7a565b6040516103599190612e82565b60405180910390f35b34801561036d575f5ffd5b5061038860048036038101906103839190612ede565b610d80565b005b348015610395575f5ffd5b506103b060048036038101906103ab9190612f33565b610ec8565b005b3480156103bd575f5ffd5b506103d860048036038101906103d39190612f33565b611001565b6040516103e59190612e82565b60405180910390f35b3480156103f9575f5ffd5b50610414600480360381019061040f9190612f33565b61128d565b005b348015610421575f5ffd5b5061042a611427565b6040516104379190612f6d565b60405180910390f35b34801561044b575f5ffd5b5061045461144c565b6040516104619190612ff6565b60405180910390f35b348015610475575f5ffd5b50610490600480360381019061048b9190612f33565b6114d8565b005b6104ac60048036038101906104a79190613077565b61156a565b005b3480156104b9575f5ffd5b506104c26116ea565b6040516104cf91906130ec565b60405180910390f35b3480156104e3575f5ffd5b506104fe60048036038101906104f99190612ede565b6117a1565b60405161050d93929190613105565b60405180910390f35b348015610521575f5ffd5b5061053c60048036038101906105379190612f33565b6117c7565b005b348015610549575f5ffd5b50610552611999565b60405161055f9190612f6d565b60405180910390f35b348015610573575f5ffd5b5061058e60048036038101906105899190612ede565b6119be565b60405161059b9190612e82565b60405180910390f35b3480156105af575f5ffd5b506105ca60048036038101906105c59190612ede565b611b07565b6040516105d79190612e82565b60405180910390f35b3480156105eb575f5ffd5b506105f4611b6e565b6040516106019190612e82565b60405180910390f35b348015610615575f5ffd5b5061061e611c30565b60405161062b9190612ff6565b60405180910390f35b34801561063f575f5ffd5b50610648611cbc565b6040516106559190612e82565b60405180910390f35b348015610669575f5ffd5b50610672611cc2565b60405161067f919061315a565b60405180910390f35b348015610693575f5ffd5b5061069c611ce7565b6040516106a99190612f6d565b60405180910390f35b3480156106bd575f5ffd5b506106c6611d0c565b6040516106d39190612e82565b60405180910390f35b3480156106e7575f5ffd5b506106f0611d12565b005b3480156106fd575f5ffd5b50610706611d9a565b6040516107139190612e82565b60405180910390f35b348015610727575f5ffd5b50610742600480360381019061073d91906131eb565b611da0565b005b34801561074f575f5ffd5b5061075861244b565b6040516107659190612e51565b60405180910390f35b348015610779575f5ffd5b50610782612470565b60405161078f9190612e82565b60405180910390f35b3480156107a3575f5ffd5b506107be60048036038101906107b99190612f33565b612476565b005b3480156107cb575f5ffd5b506107d461268c565b6040516107e19190612e82565b60405180910390f35b3480156107f5575f5ffd5b50610810600480360381019061080b919061327f565b6126ac565b005b34801561081d575f5ffd5b5061083860048036038101906108339190612ede565b6127b0565b6040516108459190612e82565b60405180910390f35b348015610859575f5ffd5b50610874600480360381019061086f9190612ede565b612831565b005b348015610881575f5ffd5b5061088a612903565b6040516108979190612e82565b60405180910390f35b3480156108ab575f5ffd5b506108b4612909565b6040516108c19190612f6d565b60405180910390f35b3480156108d5575f5ffd5b506108de61292e565b6040516108eb9190612e82565b60405180910390f35b60015f9054906101000a900473ffffffffffffffffffffffffffffffffffffffff1681565b60105481565b600a5481565b670de0b6b3a764000081565b600f5481565b60085f9054906101000a900473ffffffffffffffffffffffffffffffffffffffff1673ffffffffffffffffffffffffffffffffffffffff163373ffffffffffffffffffffffffffffffffffffffff1614806109de57505f60029054906101000a900473ffffffffffffffffffffffffffffffffffffffff1673ffffffffffffffffffffffffffffffffffffffff163373ffffffffffffffffffffffffffffffffffffffff16145b610a1d576040517f08c379a0000000000000000000000000000000000000000000000000000000008152600401610a1490613319565b60405180910390fd5b610a25611d12565b610a2e8161296c565b15610a6e576040517f08c379a0000000000000000000000000000000000000000000000000000000008152600401610a6590613381565b60405180910390fd5b5f60125f8373ffffffffffffffffffffffffffffffffffffffff1673ffffffffffffffffffffffffffffffffffffffff1681526020019081526020015f2090505f610ab8836127b0565b90505f8111610afc576040517f08c379a0000000000000000000000000000000000000000000000000000000008152600401610af3906133e9565b60405180910390fd5b5f612710600a54845f0154610b119190613434565b610b1b91906134a2565b90505f81845f0154610b2d91906134d2565b90505f821115610bd55760025f9054906101000a900473ffffffffffffffffffffffffffffffffffffffff1673ffffffffffffffffffffffffffffffffffffffff1663a9059cbb33846040518363ffffffff1660e01b8152600401610b93929190613505565b6020604051808303815f875af1158015610baf573d5f5f3e3d5ffd5b505050506040513d601f19601f82011682018060405250810190610bd39190613561565b505b5f811115610c9c5760025f9054906101000a900473ffffffffffffffffffffffffffffffffffffffff1673ffffffffffffffffffffffffffffffffffffffff1663a9059cbb60075f9054906101000a900473ffffffffffffffffffffffffffffffffffffffff16836040518363ffffffff1660e01b8152600401610c5a929190613505565b6020604051808303815f875af1158015610c76573d5f5f3e3d5ffd5b505050506040513d601f19601f82011682018060405250810190610c9a9190613561565b505b836001015460105f828254610cb191906134d2565b9250508190555060125f8673ffffffffffffffffffffffffffffffffffffffff1673ffffffffffffffffffffffffffffffffffffffff1681526020019081526020015f205f5f82015f9055600182015f9055600282015f905550503373ffffffffffffffffffffffffffffffffffffffff168573ffffffffffffffffffffffffffffffffffffffff167f1f0c6615429d1cdae0dfa233abf91d3b31cdbdd82c8081389832a61e1072f1ea8585604051610d6b92919061358c565b60405180910390a35050505050565b600b5481565b7f000000000000000000000000000000000000000000000000000000000000000073ffffffffffffffffffffffffffffffffffffffff163073ffffffffffffffffffffffffffffffffffffffff1603610e0e576040517f08c379a0000000000000000000000000000000000000000000000000000000008152600401610e05906135fd565b60405180910390fd5b7f000000000000000000000000000000000000000000000000000000000000000073ffffffffffffffffffffffffffffffffffffffff16610e4d612981565b73ffffffffffffffffffffffffffffffffffffffff1614610ea3576040517f08c379a0000000000000000000000000000000000000000000000000000000008152600401610e9a90613665565b60405180910390fd5b610eac816129b0565b610ec58160405180602001604052805f8152505f612a0b565b50565b5f8111610f0a576040517f08c379a0000000000000000000000000000000000000000000000000000000008152600401610f01906136cd565b60405180910390fd5b60025f9054906101000a900473ffffffffffffffffffffffffffffffffffffffff1673ffffffffffffffffffffffffffffffffffffffff166323b872dd3330846040518463ffffffff1660e01b8152600401610f68939291906136eb565b6020604051808303815f875af1158015610f84573d5f5f3e3d5ffd5b505050506040513d601f19601f82011682018060405250810190610fa89190613561565b508060125f3373ffffffffffffffffffffffffffffffffffffffff1673ffffffffffffffffffffffffffffffffffffffff1681526020019081526020015f205f015f828254610ff79190613720565b9250508190555050565b5f5f8211611044576040517f08c379a000000000000000000000000000000000000000000000000000000000815260040161103b906136cd565b60405180910390fd5b61104c611d12565b5f60125f3373ffffffffffffffffffffffffffffffffffffffff1673ffffffffffffffffffffffffffffffffffffffff1681526020019081526020015f2090505f611096336127b0565b90505f81116110da576040517f08c379a00000000000000000000000000000000000000000000000000000000081526004016110d1906133e9565b60405180910390fd5b5f8185116110e857846110ea565b815b905060015f9054906101000a900473ffffffffffffffffffffffffffffffffffffffff1673ffffffffffffffffffffffffffffffffffffffff166323b872dd3330846040518463ffffffff1660e01b815260040161114a939291906136eb565b6020604051808303815f875af1158015611166573d5f5f3e3d5ffd5b505050506040513d601f19601f8201168201806040525081019061118a9190613561565b505f818460020154116111a15783600201546111a3565b815b905080846002015f8282546111b891906134d2565b92505081905550612710600b5482846111d191906134d2565b6111db9190613434565b6111e591906134a2565b60115f8282546111f59190613720565b925050819055505f83831461122a57600e54670de0b6b3a76400008461121b9190613434565b61122591906134a2565b611230565b84600101545b9050846001015481111561124657846001015490505b80856001015f82825461125991906134d2565b925050819055508060105f82825461127191906134d2565b92505081905550611281336127b0565b95505050505050919050565b60065f9054906101000a900473ffffffffffffffffffffffffffffffffffffffff1673ffffffffffffffffffffffffffffffffffffffff163373ffffffffffffffffffffffffffffffffffffffff161461131c576040517f08c379a00000000000000000000000000000000000000000000000000000000081526004016113139061379d565b60405180910390fd5b611324611b6e565b811115611366576040517f08c379a000000000000000000000000000000000000000000000000000000000815260040161135d90613805565b60405180910390fd5b60015f9054906101000a900473ffffffffffffffffffffffffffffffffffffffff1673ffffffffffffffffffffffffffffffffffffffff1663a9059cbb60065f9054906101000a900473ffffffffffffffffffffffffffffffffffffffff16836040518363ffffffff1660e01b81526004016113e3929190613505565b6020604051808303815f875af11580156113ff573d5f5f3e3d5ffd5b505050506040513d601f19601f820116820180604052508101906114239190613561565b5050565b60085f9054906101000a900473ffffffffffffffffffffffffffffffffffffffff1681565b6004805461145990613850565b80601f016020809104026020016040519081016040528092919081815260200182805461148590613850565b80156114d05780601f106114a7576101008083540402835291602001916114d0565b820191905f5260205f20905b8154815290600101906020018083116114b357829003601f168201915b505050505081565b60065f9054906101000a900473ffffffffffffffffffffffffffffffffffffffff1673ffffffffffffffffffffffffffffffffffffffff163373ffffffffffffffffffffffffffffffffffffffff1614611567576040517f08c379a000000000000000000000000000000000000000000000000000000000815260040161155e9061379d565b60405180910390fd5b50565b7f000000000000000000000000000000000000000000000000000000000000000073ffffffffffffffffffffffffffffffffffffffff163073ffffffffffffffffffffffffffffffffffffffff16036115f8576040517f08c379a00000000000000000000000000000000000000000000000000000000081526004016115ef906135fd565b60405180910390fd5b7f000000000000000000000000000000000000000000000000000000000000000073ffffffffffffffffffffffffffffffffffffffff16611637612981565b73ffffffffffffffffffffffffffffffffffffffff161461168d576040517f08c379a000000000000000000000000000000000000000000000000000000000815260040161168490613665565b60405180910390fd5b611696836129b0565b6116e58383838080601f0160208091040260200160405190810160405280939291908181526020018383808284375f81840152601f19601f820116905080830192505050505050506001612a0b565b505050565b5f7f000000000000000000000000000000000000000000000000000000000000000073ffffffffffffffffffffffffffffffffffffffff163073ffffffffffffffffffffffffffffffffffffffff1614611779576040517f08c379a0000000000000000000000000000000000000000000000000000000008152600401611770906138ca565b60405180910390fd5b7f360894a13ba1a3210667c828492db98dca3e2076cc3735a920a3ca505d382bbc5f1b905090565b6012602052805f5260405f205f91509050805f0154908060010154908060020154905083565b5f8111611809576040517f08c379a0000000000000000000000000000000000000000000000000000000008152600401611800906136cd565b60405180910390fd5b611811611d12565b5f60125f3373ffffffffffffffffffffffffffffffffffffffff1673ffffffffffffffffffffffffffffffffffffffff1681526020019081526020015f209050805f0154821115611897576040517f08c379a000000000000000000000000000000000000000000000000000000000815260040161188e90613932565b60405180910390fd5b81815f015f8282546118a991906134d2565b925050819055506118b93361296c565b6118f8576040517f08c379a00000000000000000000000000000000000000000000000000000000081526004016118ef9061399a565b60405180910390fd5b60025f9054906101000a900473ffffffffffffffffffffffffffffffffffffffff1673ffffffffffffffffffffffffffffffffffffffff1663a9059cbb33846040518363ffffffff1660e01b8152600401611954929190613505565b6020604051808303815f875af1158015611970573d5f5f3e3d5ffd5b505050506040513d601f19601f820116820180604052508101906119949190613561565b505050565b60075f9054906101000a900473ffffffffffffffffffffffffffffffffffffffff1681565b5f5f60125f8473ffffffffffffffffffffffffffffffffffffffff1673ffffffffffffffffffffffffffffffffffffffff1681526020019081526020015f2090505f611a09846127b0565b90505f8103611a1c575f92505050611b02565b5f825f015403611a50577fffffffffffffffffffffffffffffffffffffffffffffffffffffffffffffffff92505050611b02565b5f611a7c8260015f9054906101000a900473ffffffffffffffffffffffffffffffffffffffff16612b48565b90505f611aad845f015460025f9054906101000a900473ffffffffffffffffffffffffffffffffffffffff16612b48565b90505f8103611ae2577fffffffffffffffffffffffffffffffffffffffffffffffffffffffffffffffff945050505050611b02565b8061271083611af19190613434565b611afb91906134a2565b9450505050505b919050565b5f5f611b12836119be565b90505f8103611b44577fffffffffffffffffffffffffffffffffffffffffffffffffffffffffffffffff915050611b69565b80670de0b6b3a7640000600954611b5b9190613434565b611b6591906134a2565b9150505b919050565b5f5f60015f9054906101000a900473ffffffffffffffffffffffffffffffffffffffff1673ffffffffffffffffffffffffffffffffffffffff166370a08231306040518263ffffffff1660e01b8152600401611bca9190612f6d565b602060405180830381865afa158015611be5573d5f5f3e3d5ffd5b505050506040513d601f19601f82011682018060405250810190611c0991906139cc565b9050601154811115611c285760115481611c2391906134d2565b611c2a565b5f5b91505090565b60058054611c3d90613850565b80601f0160208091040260200160405190810160405280929190818152602001828054611c6990613850565b8015611cb45780601f10611c8b57610100808354040283529160200191611cb4565b820191905f5260205f20905b815481529060010190602001808311611c9757829003601f168201915b505050505081565b600c5481565b60035f9054906101000a900473ffffffffffffffffffffffffffffffffffffffff1681565b5f60029054906101000a900473ffffffffffffffffffffffffffffffffffffffff1681565b600d5481565b600f54430315611d98575f6010541115611d90575f600f5443611d3591906134d2565b90505f600d5482600c54611d499190613434565b611d5391906134a2565b9050670de0b6b3a764000081600e54611d6c9190613434565b611d7691906134a2565b600e5f828254611d869190613720565b9250508190555050505b43600f819055505b565b600e5481565b5f5f9054906101000a900460ff161580611dc557505f60019054906101000a900460ff165b611e04576040517f08c379a0000000000000000000000000000000000000000000000000000000008152600401611dfb90613a41565b60405180910390fd5b5f5f60019054906101000a900460ff161590508015611e515760015f60016101000a81548160ff02191690831515021790555060015f5f6101000a81548160ff0219169083151502179055505b5f73ffffffffffffffffffffffffffffffffffffffff16866020016020810190611e7b9190612ede565b73ffffffffffffffffffffffffffffffffffffffff1603611ed1576040517f08c379a0000000000000000000000000000000000000000000000000000000008152600401611ec890613aa9565b60405180910390fd5b5f73ffffffffffffffffffffffffffffffffffffffff16866040016020810190611efb9190612ede565b73ffffffffffffffffffffffffffffffffffffffff1603611f51576040517f08c379a0000000000000000000000000000000000000000000000000000000008152600401611f4890613b11565b60405180910390fd5b5f73ffffffffffffffffffffffffffffffffffffffff16866060016020810190611f7b9190612ede565b73ffffffffffffffffffffffffffffffffffffffff1603611fd1576040517f08c379a0000000000000000000000000000000000000000000000000000000008152600401611fc890613b79565b60405180910390fd5b5f73ffffffffffffffffffffffffffffffffffffffff16866080016020810190611ffb9190612ede565b73ffffffffffffffffffffffffffffffffffffffff1603612051576040517f08c379a000000000000000000000000000000000000000000000000000000000815260040161204890613be1565b60405180910390fd5b5f73ffffffffffffffffffffffffffffffffffffffff168660a001602081019061207b9190612ede565b73ffffffffffffffffffffffffffffffffffffffff16036120d1576040517f08c379a00000000000000000000000000000000000000000000000000000000081526004016120c890613c49565b60405180910390fd5b5f86610120013511612118576040517f08c379a000000000000000000000000000000000000000000000000000000000815260040161210f90613cb1565b60405180910390fd5b6127108660e001351115612161576040517f08c379a000000000000000000000000000000000000000000000000000000000815260040161215890613d19565b60405180910390fd5b61271086610140013511156121ab576040517f08c379a00000000000000000000000000000000000000000000000000000000081526004016121a290613d81565b60405180910390fd5b6121c5865f0160208101906121c09190612ede565b612c7d565b8560200160208101906121d89190612ede565b60065f6101000a81548173ffffffffffffffffffffffffffffffffffffffff021916908373ffffffffffffffffffffffffffffffffffffffff16021790555085604001602081019061222a9190612ede565b60015f6101000a81548173ffffffffffffffffffffffffffffffffffffffff021916908373ffffffffffffffffffffffffffffffffffffffff16021790555085606001602081019061227c9190612ede565b60025f6101000a81548173ffffffffffffffffffffffffffffffffffffffff021916908373ffffffffffffffffffffffffffffffffffffffff1602179055508560800160208101906122ce9190612ede565b60035f6101000a81548173ffffffffffffffffffffffffffffffffffffffff021916908373ffffffffffffffffffffffffffffffffffffffff1602179055508560a00160208101906123209190612ede565b60075f6101000a81548173ffffffffffffffffffffffffffffffffffffffff021916908373ffffffffffffffffffffffffffffffffffffffff1602179055508560c00160208101906123729190612ede565b60085f6101000a81548173ffffffffffffffffffffffffffffffffffffffff021916908373ffffffffffffffffffffffffffffffffffffffff1602179055508484600491826123c2929190613f6d565b508282600591826123d4929190613f6d565b508560e00135600981905550856101000135600c81905550856101200135600d81905550856101400135600a81905550610bb8600b81905550670de0b6b3a7640000600e8190555043600f819055508015612443575f5f60016101000a81548160ff0219169083151502179055505b505050505050565b60025f9054906101000a900473ffffffffffffffffffffffffffffffffffffffff1681565b60095481565b5f81116124b8576040517f08c379a00000000000000000000000000000000000000000000000000000000081526004016124af906136cd565b60405180910390fd5b6124c0611d12565b6124c8611b6e565b81111561250a576040517f08c379a000000000000000000000000000000000000000000000000000000000815260040161250190613805565b60405180910390fd5b5f60125f3373ffffffffffffffffffffffffffffffffffffffff1673ffffffffffffffffffffffffffffffffffffffff1681526020019081526020015f2090505f61255483612cf7565b905080826001015f8282546125699190613720565b9250508190555082826002015f8282546125839190613720565b925050819055508060105f82825461259b9190613720565b925050819055506125ab3361296c565b6125ea576040517f08c379a00000000000000000000000000000000000000000000000000000000081526004016125e190614084565b60405180910390fd5b60015f9054906101000a900473ffffffffffffffffffffffffffffffffffffffff1673ffffffffffffffffffffffffffffffffffffffff1663a9059cbb33856040518363ffffffff1660e01b8152600401612646929190613505565b6020604051808303815f875af1158015612662573d5f5f3e3d5ffd5b505050506040513d601f19601f820116820180604052508101906126869190613561565b50505050565b5f61269561292e565b61269d611b6e565b6126a79190613720565b905090565b5f60029054906101000a900473ffffffffffffffffffffffffffffffffffffffff1673ffffffffffffffffffffffffffffffffffffffff163373ffffffffffffffffffffffffffffffffffffffff1614612704575f5ffd5b612710831115612749576040517f08c379a000000000000000000000000000000000000000000000000000000000815260040161274090613d19565b60405180910390fd5b61271081111561278e576040517f08c379a000000000000000000000000000000000000000000000000000000000815260040161278590613d81565b60405180910390fd5b612796611d12565b8260098190555081600c8190555080600a81905550505050565b5f5f60125f8473ffffffffffffffffffffffffffffffffffffffff1673ffffffffffffffffffffffffffffffffffffffff1681526020019081526020015f206001015490505f811461282757670de0b6b3a764000061280d612d2c565b826128189190613434565b61282291906134a2565b612829565b5f5b915050919050565b5f60029054906101000a900473ffffffffffffffffffffffffffffffffffffffff1673ffffffffffffffffffffffffffffffffffffffff163373ffffffffffffffffffffffffffffffffffffffff1614612889575f5ffd5b5f73ffffffffffffffffffffffffffffffffffffffff168173ffffffffffffffffffffffffffffffffffffffff16036128c0575f5ffd5b805f60026101000a81548173ffffffffffffffffffffffffffffffffffffffff021916908373ffffffffffffffffffffffffffffffffffffffff16021790555050565b60115481565b60065f9054906101000a900473ffffffffffffffffffffffffffffffffffffffff1681565b5f5f6010541461296557670de0b6b3a7640000612949612d2c565b6010546129569190613434565b61296091906134a2565b612967565b5f5b905090565b5f600954612979836119be565b109050919050565b5f5f7f360894a13ba1a3210667c828492db98dca3e2076cc3735a920a3ca505d382bbc5f1b9050805491505090565b5f60029054906101000a900473ffffffffffffffffffffffffffffffffffffffff1673ffffffffffffffffffffffffffffffffffffffff163373ffffffffffffffffffffffffffffffffffffffff1614612a08575f5ffd5b50565b5f73ffffffffffffffffffffffffffffffffffffffff168373ffffffffffffffffffffffffffffffffffffffff1603612a79576040517f08c379a0000000000000000000000000000000000000000000000000000000008152600401612a70906140ec565b60405180910390fd5b612a8283612daa565b8080612a8e57505f8251115b15612b43575f5f8473ffffffffffffffffffffffffffffffffffffffff1684604051612aba919061414e565b5f60405180830381855af49150503d805f8114612af2576040519150601f19603f3d011682016040523d82523d5f602084013e612af7565b606091505b5091509150818190612b3f576040517f08c379a0000000000000000000000000000000000000000000000000000000008152600401612b369190612ff6565b60405180910390fd5b5050505b505050565b5f5f8273ffffffffffffffffffffffffffffffffffffffff1663313ce5676040518163ffffffff1660e01b8152600401602060405180830381865afa158015612b93573d5f5f3e3d5ffd5b505050506040513d601f19601f82011682018060405250810190612bb7919061419a565b905080600a612bc691906142f4565b60035f9054906101000a900473ffffffffffffffffffffffffffffffffffffffff1673ffffffffffffffffffffffffffffffffffffffff166341976e09856040518263ffffffff1660e01b8152600401612c209190612f6d565b602060405180830381865afa158015612c3b573d5f5f3e3d5ffd5b505050506040513d601f19601f82011682018060405250810190612c5f91906139cc565b85612c6a9190613434565b612c7491906134a2565b91505092915050565b5f73ffffffffffffffffffffffffffffffffffffffff168173ffffffffffffffffffffffffffffffffffffffff1603612cb4575f5ffd5b805f60026101000a81548173ffffffffffffffffffffffffffffffffffffffff021916908373ffffffffffffffffffffffffffffffffffffffff16021790555050565b5f600e54670de0b6b3a764000083612d0f9190613434565b612d1991906134a2565b90505f8103612d2757600190505b919050565b5f600e549050600f5443118015612d4457505f601054115b15612da7575f600f5443612d5891906134d2565b90505f600d5482600c54612d6c9190613434565b612d7691906134a2565b9050670de0b6b3a76400008184612d8d9190613434565b612d9791906134a2565b83612da29190613720565b925050505b90565b5f7f360894a13ba1a3210667c828492db98dca3e2076cc3735a920a3ca505d382bbc5f1b90508181555050565b5f73ffffffffffffffffffffffffffffffffffffffff82169050919050565b5f819050919050565b5f612e19612e14612e0f84612dd7565b612df6565b612dd7565b9050919050565b5f612e2a82612dff565b9050919050565b5f612e3b82612e20565b9050919050565b612e4b81612e31565b82525050565b5f602082019050612e645f830184612e42565b92915050565b5f819050919050565b612e7c81612e6a565b82525050565b5f602082019050612e955f830184612e73565b92915050565b5f5ffd5b5f5ffd5b5f612ead82612dd7565b9050919050565b612ebd81612ea3565b8114612ec7575f5ffd5b50565b5f81359050612ed881612eb4565b92915050565b5f60208284031215612ef357612ef2612e9b565b5b5f612f0084828501612eca565b91505092915050565b612f1281612e6a565b8114612f1c575f5ffd5b50565b5f81359050612f2d81612f09565b92915050565b5f60208284031215612f4857612f47612e9b565b5b5f612f5584828501612f1f565b91505092915050565b612f6781612ea3565b82525050565b5f602082019050612f805f830184612f5e565b92915050565b5f81519050919050565b5f82825260208201905092915050565b8281835e5f83830152505050565b5f601f19601f8301169050919050565b5f612fc882612f86565b612fd28185612f90565b9350612fe2818560208601612fa0565b612feb81612fae565b840191505092915050565b5f6020820190508181035f83015261300e8184612fbe565b905092915050565b5f5ffd5b5f5ffd5b5f5ffd5b5f5f83601f84011261303757613036613016565b5b8235905067ffffffffffffffff8111156130545761305361301a565b5b6020830191508360018202830111156130705761306f61301e565b5b9250929050565b5f5f5f6040848603121561308e5761308d612e9b565b5b5f61309b86828701612eca565b935050602084013567ffffffffffffffff8111156130bc576130bb612e9f565b5b6130c886828701613022565b92509250509250925092565b5f819050919050565b6130e6816130d4565b82525050565b5f6020820190506130ff5f8301846130dd565b92915050565b5f6060820190506131185f830186612e73565b6131256020830185612e73565b6131326040830184612e73565b949350505050565b5f61314482612e20565b9050919050565b6131548161313a565b82525050565b5f60208201905061316d5f83018461314b565b92915050565b5f5ffd5b5f610160828403121561318d5761318c613173565b5b81905092915050565b5f5f83601f8401126131ab576131aa613016565b5b8235905067ffffffffffffffff8111156131c8576131c761301a565b5b6020830191508360018202830111156131e4576131e361301e565b5b9250929050565b5f5f5f5f5f6101a0868803121561320557613204612e9b565b5b5f61321288828901613177565b95505061016086013567ffffffffffffffff81111561323457613233612e9f565b5b61324088828901613196565b945094505061018086013567ffffffffffffffff81111561326457613263612e9f565b5b61327088828901613196565b92509250509295509295909350565b5f5f5f6060848603121561329657613295612e9b565b5b5f6132a386828701612f1f565b93505060206132b486828701612f1f565b92505060406132c586828701612f1f565b9150509250925092565b7f4e4f545f4c495155494441544f520000000000000000000000000000000000005f82015250565b5f613303600e83612f90565b915061330e826132cf565b602082019050919050565b5f6020820190508181035f830152613330816132f7565b9050919050565b7f504f534954494f4e5f4845414c544859000000000000000000000000000000005f82015250565b5f61336b601083612f90565b915061337682613337565b602082019050919050565b5f6020820190508181035f8301526133988161335f565b9050919050565b7f4e4f5f44454254000000000000000000000000000000000000000000000000005f82015250565b5f6133d3600783612f90565b91506133de8261339f565b602082019050919050565b5f6020820190508181035f830152613400816133c7565b9050919050565b7f4e487b71000000000000000000000000000000000000000000000000000000005f52601160045260245ffd5b5f61343e82612e6a565b915061344983612e6a565b925082820261345781612e6a565b9150828204841483151761346e5761346d613407565b5b5092915050565b7f4e487b71000000000000000000000000000000000000000000000000000000005f52601260045260245ffd5b5f6134ac82612e6a565b91506134b783612e6a565b9250826134c7576134c6613475565b5b828204905092915050565b5f6134dc82612e6a565b91506134e783612e6a565b92508282039050818111156134ff576134fe613407565b5b92915050565b5f6040820190506135185f830185612f5e565b6135256020830184612e73565b9392505050565b5f8115159050919050565b6135408161352c565b811461354a575f5ffd5b50565b5f8151905061355b81613537565b92915050565b5f6020828403121561357657613575612e9b565b5b5f6135838482850161354d565b91505092915050565b5f60408201905061359f5f830185612e73565b6135ac6020830184612e73565b9392505050565b7f4e4f545f44454c454741544543414c4c000000000000000000000000000000005f82015250565b5f6135e7601083612f90565b91506135f2826135b3565b602082019050919050565b5f6020820190508181035f830152613614816135db565b9050919050565b7f494e4143544956455f50524f58590000000000000000000000000000000000005f82015250565b5f61364f600e83612f90565b915061365a8261361b565b602082019050919050565b5f6020820190508181035f83015261367c81613643565b9050919050565b7f5a45524f5f414d4f554e540000000000000000000000000000000000000000005f82015250565b5f6136b7600b83612f90565b91506136c282613683565b602082019050919050565b5f6020820190508181035f8301526136e4816136ab565b9050919050565b5f6060820190506136fe5f830186612f5e565b61370b6020830185612f5e565b6137186040830184612e73565b949350505050565b5f61372a82612e6a565b915061373583612e6a565b925082820190508082111561374d5761374c613407565b5b92915050565b7f4e4f545f5641554c5400000000000000000000000000000000000000000000005f82015250565b5f613787600983612f90565b915061379282613753565b602082019050919050565b5f6020820190508181035f8301526137b48161377b565b9050919050565b7f494e53554646494349454e545f4c4951554944495459000000000000000000005f82015250565b5f6137ef601683612f90565b91506137fa826137bb565b602082019050919050565b5f6020820190508181035f83015261381c816137e3565b9050919050565b7f4e487b71000000000000000000000000000000000000000000000000000000005f52602260045260245ffd5b5f600282049050600182168061386757607f821691505b60208210810361387a57613879613823565b5b50919050565b7f4f4e4c595f494d504c454d454e544154494f4e000000000000000000000000005f82015250565b5f6138b4601383612f90565b91506138bf82613880565b602082019050919050565b5f6020820190508181035f8301526138e1816138a8565b9050919050565b7f455843454544535f434f4c4c41544552414c00000000000000000000000000005f82015250565b5f61391c601283612f90565b9150613927826138e8565b602082019050919050565b5f6020820190508181035f83015261394981613910565b9050919050565b7f574f554c445f42455f4c4951554944415441424c4500000000000000000000005f82015250565b5f613984601583612f90565b915061398f82613950565b602082019050919050565b5f6020820190508181035f8301526139b181613978565b9050919050565b5f815190506139c681612f09565b92915050565b5f602082840312156139e1576139e0612e9b565b5b5f6139ee848285016139b8565b91505092915050565b7f414c52454144595f494e495449414c495a4544000000000000000000000000005f82015250565b5f613a2b601383612f90565b9150613a36826139f7565b602082019050919050565b5f6020820190508181035f830152613a5881613a1f565b9050919050565b7f5a45524f5f5641554c54000000000000000000000000000000000000000000005f82015250565b5f613a93600a83612f90565b9150613a9e82613a5f565b602082019050919050565b5f6020820190508181035f830152613ac081613a87565b9050919050565b7f5a45524f5f4c4f414e00000000000000000000000000000000000000000000005f82015250565b5f613afb600983612f90565b9150613b0682613ac7565b602082019050919050565b5f6020820190508181035f830152613b2881613aef565b9050919050565b7f5a45524f5f434f4c4c41544552414c00000000000000000000000000000000005f82015250565b5f613b63600f83612f90565b9150613b6e82613b2f565b602082019050919050565b5f6020820190508181035f830152613b9081613b57565b9050919050565b7f5a45524f5f4f5241434c450000000000000000000000000000000000000000005f82015250565b5f613bcb600b83612f90565b9150613bd682613b97565b602082019050919050565b5f6020820190508181035f830152613bf881613bbf565b9050919050565b7f5a45524f5f5452454153555259000000000000000000000000000000000000005f82015250565b5f613c33600d83612f90565b9150613c3e82613bff565b602082019050919050565b5f6020820190508181035f830152613c6081613c27565b9050919050565b7f5a45524f5f4250590000000000000000000000000000000000000000000000005f82015250565b5f613c9b600883612f90565b9150613ca682613c67565b602082019050919050565b5f6020820190508181035f830152613cc881613c8f565b9050919050565b7f4241445f4c4c54560000000000000000000000000000000000000000000000005f82015250565b5f613d03600883612f90565b9150613d0e82613ccf565b602082019050919050565b5f6020820190508181035f830152613d3081613cf7565b9050919050565b7f4241445f4c49515f424f4e5553000000000000000000000000000000000000005f82015250565b5f613d6b600d83612f90565b9150613d7682613d37565b602082019050919050565b5f6020820190508181035f830152613d9881613d5f565b9050919050565b5f82905092915050565b7f4e487b71000000000000000000000000000000000000000000000000000000005f52604160045260245ffd5b5f819050815f5260205f209050919050565b5f6020601f8301049050919050565b5f82821b905092915050565b5f60088302613e327fffffffffffffffffffffffffffffffffffffffffffffffffffffffffffffffff82613df7565b613e3c8683613df7565b95508019841693508086168417925050509392505050565b5f613e6e613e69613e6484612e6a565b612df6565b612e6a565b9050919050565b5f819050919050565b613e8783613e54565b613e9b613e9382613e75565b848454613e03565b825550505050565b5f5f905090565b613eb2613ea3565b613ebd818484613e7e565b505050565b5b81811015613ee057613ed55f82613eaa565b600181019050613ec3565b5050565b601f821115613f2557613ef681613dd6565b613eff84613de8565b81016020851015613f0e578190505b613f22613f1a85613de8565b830182613ec2565b50505b505050565b5f82821c905092915050565b5f613f455f1984600802613f2a565b1980831691505092915050565b5f613f5d8383613f36565b9150826002028217905092915050565b613f778383613d9f565b67ffffffffffffffff811115613f9057613f8f613da9565b5b613f9a8254613850565b613fa5828285613ee4565b5f601f831160018114613fd2575f8415613fc0578287013590505b613fca8582613f52565b865550614031565b601f198416613fe086613dd6565b5f5b8281101561400757848901358255600182019150602085019450602081019050613fe2565b868310156140245784890135614020601f891682613f36565b8355505b6001600288020188555050505b50505050505050565b7f424f52524f575f425245414b535f4c4c545600000000000000000000000000005f82015250565b5f61406e601283612f90565b91506140798261403a565b602082019050919050565b5f6020820190508181035f83015261409b81614062565b9050919050565b7f5a45524f5f494d504c00000000000000000000000000000000000000000000005f82015250565b5f6140d6600983612f90565b91506140e1826140a2565b602082019050919050565b5f6020820190508181035f830152614103816140ca565b9050919050565b5f81519050919050565b5f81905092915050565b5f6141288261410a565b6141328185614114565b9350614142818560208601612fa0565b80840191505092915050565b5f614159828461411e565b915081905092915050565b5f60ff82169050919050565b61417981614164565b8114614183575f5ffd5b50565b5f8151905061419481614170565b92915050565b5f602082840312156141af576141ae612e9b565b5b5f6141bc84828501614186565b91505092915050565b5f8160011c9050919050565b5f5f8291508390505b600185111561421a578086048111156141f6576141f5613407565b5b60018516156142055780820291505b8081029050614213856141c5565b94506141da565b94509492505050565b5f8261423257600190506142ed565b8161423f575f90506142ed565b8160018114614255576002811461425f5761428e565b60019150506142ed565b60ff84111561427157614270613407565b5b8360020a91508482111561428857614287613407565b5b506142ed565b5060208310610133831016604e8410600b84101617156142c35782820a9050838111156142be576142bd613407565b5b6142ed565b6142d084848460016141d1565b925090508184048111156142e7576142e6613407565b5b81810290505b9392505050565b5f6142fe82612e6a565b915061430983614164565b92506143367fffffffffffffffffffffffffffffffffffffffffffffffffffffffffffffffff8484614223565b90509291505056fea2646970667358221220299ea4ef6d344e1ff26ca01f052c606443286687f6d95cc28d2c9ffffc51872964736f6c634300081e0033",
					"opcodes": "PUSH1 0xA0 PUSH1 0x40 MSTORE ADDRESS PUSH20 0xFFFFFFFFFFFFFFFFFFFFFFFFFFFFFFFFFFFFFFFF AND PUSH1 0x80 SWAP1 PUSH20 0xFFFFFFFFFFFFFFFFFFFFFFFFFFFFFFFFFFFFFFFF AND DUP2 MSTORE POP CALLVALUE DUP1 ISZERO PUSH2 0x42 JUMPI PUSH0 PUSH0 REVERT JUMPDEST POP PUSH1 0x80 MLOAD PUSH2 0x4374 PUSH2 0x77 PUSH0 CODECOPY PUSH0 DUP2 DUP2 PUSH2 0xD82 ADD MSTORE DUP2 DUP2 PUSH2 0xE10 ADD MSTORE DUP2 DUP2 PUSH2 0x156C ADD MSTORE DUP2 DUP2 PUSH2 0x15FA ADD MSTORE PUSH2 0x16ED ADD MSTORE PUSH2 0x4374 PUSH0 RETURN INVALID PUSH1 0x80 PUSH1 0x40 MSTORE PUSH1 0x4 CALLDATASIZE LT PUSH2 0x23A JUMPI PUSH0 CALLDATALOAD PUSH1 0xE0 SHR DUP1 PUSH4 0x6AD9F9DF GT PUSH2 0x12D JUMPI DUP1 PUSH4 0xB2016BD4 GT PUSH2 0xAA JUMPI DUP1 PUSH4 0xD283E75F GT PUSH2 0x6E JUMPI DUP1 PUSH4 0xD283E75F EQ PUSH2 0x812 JUMPI DUP1 PUSH4 0xD3A417A2 EQ PUSH2 0x84E JUMPI DUP1 PUSH4 0xD681A449 EQ PUSH2 0x876 JUMPI DUP1 PUSH4 0xFBFA77CF EQ PUSH2 0x8A0 JUMPI DUP1 PUSH4 0xFC7B9C18 EQ PUSH2 0x8CA JUMPI PUSH2 0x23A JUMP JUMPDEST DUP1 PUSH4 0xB2016BD4 EQ PUSH2 0x744 JUMPI DUP1 PUSH4 0xB3604C96 EQ PUSH2 0x76E JUMPI DUP1 PUSH4 0xC5EBEAEC EQ PUSH2 0x798 JUMPI DUP1 PUSH4 0xC82F6D2F EQ PUSH2 0x7C0 JUMPI DUP1 PUSH4 0xCED65B01 EQ PUSH2 0x7EA JUMPI PUSH2 0x23A JUMP JUMPDEST DUP1 PUSH4 0x8DA5CB5B GT PUSH2 0xF1 JUMPI DUP1 PUSH4 0x8DA5CB5B EQ PUSH2 0x688 JUMPI DUP1 PUSH4 0xA385FB96 EQ PUSH2 0x6B2 JUMPI DUP1 PUSH4 0xA6AFED95 EQ PUSH2 0x6DC JUMPI DUP1 PUSH4 0xAA5AF0FD EQ PUSH2 0x6F2 JUMPI DUP1 PUSH4 0xB1C0BE34 EQ PUSH2 0x71C JUMPI PUSH2 0x23A JUMP JUMPDEST DUP1 PUSH4 0x6AD9F9DF EQ PUSH2 0x5A4 JUMPI DUP1 PUSH4 0x74375359 EQ PUSH2 0x5E0 JUMPI DUP1 PUSH4 0x76E9790A EQ PUSH2 0x60A JUMPI DUP1 PUSH4 0x7C3A00FD EQ PUSH2 0x634 JUMPI DUP1 PUSH4 0x7DC0D1D0 EQ PUSH2 0x65E JUMPI PUSH2 0x23A JUMP JUMPDEST DUP1 PUSH4 0x3E3722B6 GT PUSH2 0x1BB JUMPI DUP1 PUSH4 0x52D1902D GT PUSH2 0x17F JUMPI DUP1 PUSH4 0x52D1902D EQ PUSH2 0x4AE JUMPI DUP1 PUSH4 0x55F57510 EQ PUSH2 0x4D8 JUMPI DUP1 PUSH4 0x6112FE2E EQ PUSH2 0x516 JUMPI DUP1 PUSH4 0x61D027B3 EQ PUSH2 0x53E JUMPI DUP1 PUSH4 0x6711A640 EQ PUSH2 0x568 JUMPI PUSH2 0x23A JUMP JUMPDEST DUP1 PUSH4 0x3E3722B6 EQ PUSH2 0x3EE JUMPI DUP1 PUSH4 0x4046EBAE EQ PUSH2 0x416 JUMPI DUP1 PUSH4 0x4A79D50C EQ PUSH2 0x440 JUMPI DUP1 PUSH4 0x4B92917A EQ PUSH2 0x46A JUMPI DUP1 PUSH4 0x4F1EF286 EQ PUSH2 0x492 JUMPI PUSH2 0x23A JUMP JUMPDEST DUP1 PUSH4 0x2F865568 GT PUSH2 0x202 JUMPI DUP1 PUSH4 0x2F865568 EQ PUSH2 0x310 JUMPI DUP1 PUSH4 0x35659FB8 EQ PUSH2 0x338 JUMPI DUP1 PUSH4 0x3659CFE6 EQ PUSH2 0x362 JUMPI DUP1 PUSH4 0x367FEBEA EQ PUSH2 0x38A JUMPI DUP1 PUSH4 0x371FD8E6 EQ PUSH2 0x3B2 JUMPI PUSH2 0x23A JUMP JUMPDEST DUP1 PUSH4 0x6D37817 EQ PUSH2 0x23E JUMPI DUP1 PUSH4 0x136CF1F7 EQ PUSH2 0x268 JUMPI DUP1 PUSH4 0x19970D8E EQ PUSH2 0x292 JUMPI DUP1 PUSH4 0x27776AB5 EQ PUSH2 0x2BC JUMPI DUP1 PUSH4 0x29962904 EQ PUSH2 0x2E6 JUMPI JUMPDEST PUSH0 PUSH0 REVERT JUMPDEST CALLVALUE DUP1 ISZERO PUSH2 0x249 JUMPI PUSH0 PUSH0 REVERT JUMPDEST POP PUSH2 0x252 PUSH2 0x8F4 JUMP JUMPDEST PUSH1 0x40 MLOAD PUSH2 0x25F SWAP2 SWAP1 PUSH2 0x2E51 JUMP JUMPDEST PUSH1 0x40 MLOAD DUP1 SWAP2 SUB SWAP1 RETURN JUMPDEST CALLVALUE DUP1 ISZERO PUSH2 0x273 JUMPI PUSH0 PUSH0 REVERT JUMPDEST POP PUSH2 0x27C PUSH2 0x919 JUMP JUMPDEST PUSH1 0x40 MLOAD PUSH2 0x289 SWAP2 SWAP1 PUSH2 0x2E82 JUMP JUMPDEST PUSH1 0x40 MLOAD DUP1 SWAP2 SUB SWAP1 RETURN JUMPDEST CALLVALUE DUP1 ISZERO PUSH2 0x29D JUMPI PUSH0 PUSH0 REVERT JUMPDEST POP PUSH2 0x2A6 PUSH2 0x91F JUMP JUMPDEST PUSH1 0x40 MLOAD PUSH2 0x2B3 SWAP2 SWAP1 PUSH2 0x2E82 JUMP JUMPDEST PUSH1 0x40 MLOAD DUP1 SWAP2 SUB SWAP1 RETURN JUMPDEST CALLVALUE DUP1 ISZERO PUSH2 0x2C7 JUMPI PUSH0 PUSH0 REVERT JUMPDEST POP PUSH2 0x2D0 PUSH2 0x925 JUMP JUMPDEST PUSH1 0x40 MLOAD PUSH2 0x2DD SWAP2 SWAP1 PUSH2 0x2E82 JUMP JUMPDEST PUSH1 0x40 MLOAD DUP1 SWAP2 SUB SWAP1 RETURN JUMPDEST CALLVALUE DUP1 ISZERO PUSH2 0x2F1 JUMPI PUSH0 PUSH0 REVERT JUMPDEST POP PUSH2 0x2FA PUSH2 0x931 JUMP JUMPDEST PUSH1 0x40 MLOAD PUSH2 0x307 SWAP2 SWAP1 PUSH2 0x2E82 JUMP JUMPDEST PUSH1 0x40 MLOAD DUP1 SWAP2 SUB SWAP1 RETURN JUMPDEST CALLVALUE DUP1 ISZERO PUSH2 0x31B JUMPI PUSH0 PUSH0 REVERT JUMPDEST POP PUSH2 0x336 PUSH1 0x4 DUP1 CALLDATASIZE SUB DUP2 ADD SWAP1 PUSH2 0x331 SWAP2 SWAP1 PUSH2 0x2EDE JUMP JUMPDEST PUSH2 0x937 JUMP JUMPDEST STOP JUMPDEST CALLVALUE DUP1 ISZERO PUSH2 0x343 JUMPI PUSH0 PUSH0 REVERT JUMPDEST POP PUSH2 0x34C PUSH2 0xD7A JUMP JUMPDEST PUSH1 0x40 MLOAD PUSH2 0x359 SWAP2 SWAP1 PUSH2 0x2E82 JUMP JUMPDEST PUSH1 0x40 MLOAD DUP1 SWAP2 SUB SWAP1 RETURN JUMPDEST CALLVALUE DUP1 ISZERO PUSH2 0x36D JUMPI PUSH0 PUSH0 REVERT JUMPDEST POP PUSH2 0x388 PUSH1 0x4 DUP1 CALLDATASIZE SUB DUP2 ADD SWAP1 PUSH2 0x383 SWAP2 SWAP1 PUSH2 0x2EDE JUMP JUMPDEST PUSH2 0xD80 JUMP JUMPDEST STOP JUMPDEST CALLVALUE DUP1 ISZERO PUSH2 0x395 JUMPI PUSH0 PUSH0 REVERT JUMPDEST POP PUSH2 0x3B0 PUSH1 0x4 DUP1 CALLDATASIZE SUB DUP2 ADD SWAP1 PUSH2 0x3AB SWAP2 SWAP1 PUSH2 0x2F33 JUMP JUMPDEST PUSH2 0xEC8 JUMP JUMPDEST STOP JUMPDEST CALLVALUE DUP1 ISZERO PUSH2 0x3BD JUMPI PUSH0 PUSH0 REVERT JUMPDEST POP PUSH2 0x3D8 PUSH1 0x4 DUP1 CALLDATASIZE SUB DUP2 ADD SWAP1 PUSH2 0x3D3 SWAP2 SWAP1 PUSH2 0x2F33 JUMP JUMPDEST PUSH2 0x1001 JUMP JUMPDEST PUSH1 0x40 MLOAD PUSH2 0x3E5 SWAP2 SWAP1 PUSH2 0x2E82 JUMP JUMPDEST PUSH1 0x40 MLOAD DUP1 SWAP2 SUB SWAP1 RETURN JUMPDEST CALLVALUE DUP1 ISZERO PUSH2 0x3F9 JUMPI PUSH0 PUSH0 REVERT JUMPDEST POP PUSH2 0x414 PUSH1 0x4 DUP1 CALLDATASIZE SUB DUP2 ADD SWAP1 PUSH2 0x40F SWAP2 SWAP1 PUSH2 0x2F33 JUMP JUMPDEST PUSH2 0x128D JUMP JUMPDEST STOP JUMPDEST CALLVALUE DUP1 ISZERO PUSH2 0x421 JUMPI PUSH0 PUSH0 REVERT JUMPDEST POP PUSH2 0x42A PUSH2 0x1427 JUMP JUMPDEST PUSH1 0x40 MLOAD PUSH2 0x437 SWAP2 SWAP1 PUSH2 0x2F6D JUMP JUMPDEST PUSH1 0x40 MLOAD DUP1 SWAP2 SUB SWAP1 RETURN JUMPDEST CALLVALUE DUP1 ISZERO PUSH2 0x44B JUMPI PUSH0 PUSH0 REVERT JUMPDEST POP PUSH2 0x454 PUSH2 0x144C JUMP JUMPDEST PUSH1 0x40 MLOAD PUSH2 0x461 SWAP2 SWAP1 PUSH2 0x2FF6 JUMP JUMPDEST PUSH1 0x40 MLOAD DUP1 SWAP2 SUB SWAP1 RETURN JUMPDEST CALLVALUE DUP1 ISZERO PUSH2 0x475 JUMPI PUSH0 PUSH0 REVERT JUMPDEST POP PUSH2 0x490 PUSH1 0x4 DUP1 CALLDATASIZE SUB DUP2 ADD SWAP1 PUSH2 0x48B SWAP2 SWAP1 PUSH2 0x2F33 JUMP JUMPDEST PUSH2 0x14D8 JUMP JUMPDEST STOP JUMPDEST PUSH2 0x4AC PUSH1 0x4 DUP1 CALLDATASIZE SUB DUP2 ADD SWAP1 PUSH2 0x4A7 SWAP2 SWAP1 PUSH2 0x3077 JUMP JUMPDEST PUSH2 0x156A JUMP JUMPDEST STOP JUMPDEST CALLVALUE DUP1 ISZERO PUSH2 0x4B9 JUMPI PUSH0 PUSH0 REVERT JUMPDEST POP PUSH2 0x4C2 PUSH2 0x16EA JUMP JUMPDEST PUSH1 0x40 MLOAD PUSH2 0x4CF SWAP2 SWAP1 PUSH2 0x30EC JUMP JUMPDEST PUSH1 0x40 MLOAD DUP1 SWAP2 SUB SWAP1 RETURN JUMPDEST CALLVALUE DUP1 ISZERO PUSH2 0x4E3 JUMPI PUSH0 PUSH0 REVERT JUMPDEST POP PUSH2 0x4FE PUSH1 0x4 DUP1 CALLDATASIZE SUB DUP2 ADD SWAP1 PUSH2 0x4F9 SWAP2 SWAP1 PUSH2 0x2EDE JUMP JUMPDEST PUSH2 0x17A1 JUMP JUMPDEST PUSH1 0x40 MLOAD PUSH2 0x50D SWAP4 SWAP3 SWAP2 SWAP1 PUSH2 0x3105 JUMP JUMPDEST PUSH1 0x40 MLOAD DUP1 SWAP2 SUB SWAP1 RETURN JUMPDEST CALLVALUE DUP1 ISZERO PUSH2 0x521 JUMPI PUSH0 PUSH0 REVERT JUMPDEST POP PUSH2 0x53C PUSH1 0x4 DUP1 CALLDATASIZE SUB DUP2 ADD SWAP1 PUSH2 0x537 SWAP2 SWAP1 PUSH2 0x2F33 JUMP JUMPDEST PUSH2 0x17C7 JUMP JUMPDEST STOP JUMPDEST CALLVALUE DUP1 ISZERO PUSH2 0x549 JUMPI PUSH0 PUSH0 REVERT JUMPDEST POP PUSH2 0x552 PUSH2 0x1999 JUMP JUMPDEST PUSH1 0x40 MLOAD PUSH2 0x55F SWAP2 SWAP1 PUSH2 0x2F6D JUMP JUMPDEST PUSH1 0x40 MLOAD DUP1 SWAP2 SUB SWAP1 RETURN JUMPDEST CALLVALUE DUP1 ISZERO PUSH2 0x573 JUMPI PUSH0 PUSH0 REVERT JUMPDEST POP PUSH2 0x58E PUSH1 0x4 DUP1 CALLDATASIZE SUB DUP2 ADD SWAP1 PUSH2 0x589 SWAP2 SWAP1 PUSH2 0x2EDE JUMP JUMPDEST PUSH2 0x19BE JUMP JUMPDEST PUSH1 0x40 MLOAD PUSH2 0x59B SWAP2 SWAP1 PUSH2 0x2E82 JUMP JUMPDEST PUSH1 0x40 MLOAD DUP1 SWAP2 SUB SWAP1 RETURN JUMPDEST CALLVALUE DUP1 ISZERO PUSH2 0x5AF JUMPI PUSH0 PUSH0 REVERT JUMPDEST POP PUSH2 0x5CA PUSH1 0x4 DUP1 CALLDATASIZE SUB DUP2 ADD SWAP1 PUSH2 0x5C5 SWAP2 SWAP1 PUSH2 0x2EDE JUMP JUMPDEST PUSH2 0x1B07 JUMP JUMPDEST PUSH1 0x40 MLOAD PUSH2 0x5D7 SWAP2 SWAP1 PUSH2 0x2E82 JUMP JUMPDEST PUSH1 0x40 MLOAD DUP1 SWAP2 SUB SWAP1 RETURN JUMPDEST CALLVALUE DUP1 ISZERO PUSH2 0x5EB JUMPI PUSH0 PUSH0 REVERT JUMPDEST POP PUSH2 0x5F4 PUSH2 0x1B6E JUMP JUMPDEST PUSH1 0x40 MLOAD PUSH2 0x601 SWAP2 SWAP1 PUSH2 0x2E82 JUMP JUMPDEST PUSH1 0x40 MLOAD DUP1 SWAP2 SUB SWAP1 RETURN JUMPDEST CALLVALUE DUP1 ISZERO PUSH2 0x615 JUMPI PUSH0 PUSH0 REVERT JUMPDEST POP PUSH2 0x61E PUSH2 0x1C30 JUMP JUMPDEST PUSH1 0x40 MLOAD PUSH2 0x62B SWAP2 SWAP1 PUSH2 0x2FF6 JUMP JUMPDEST PUSH1 0x40 MLOAD DUP1 SWAP2 SUB SWAP1 RETURN JUMPDEST CALLVALUE DUP1 ISZERO PUSH2 0x63F JUMPI PUSH0 PUSH0 REVERT JUMPDEST POP PUSH2 0x648 PUSH2 0x1CBC JUMP JUMPDEST PUSH1 0x40 MLOAD PUSH2 0x655 SWAP2 SWAP1 PUSH2 0x2E82 JUMP JUMPDEST PUSH1 0x40 MLOAD DUP1 SWAP2 SUB SWAP1 RETURN JUMPDEST CALLVALUE DUP1 ISZERO PUSH2 0x669 JUMPI PUSH0 PUSH0 REVERT JUMPDEST POP PUSH2 0x672 PUSH2 0x1CC2 JUMP JUMPDEST PUSH1 0x40 MLOAD PUSH2 0x67F SWAP2 SWAP1 PUSH2 0x315A JUMP JUMPDEST PUSH1 0x40 MLOAD DUP1 SWAP2 SUB SWAP1 RETURN JUMPDEST CALLVALUE DUP1 ISZERO PUSH2 0x693 JUMPI PUSH0 PUSH0 REVERT JUMPDEST POP PUSH2 0x69C PUSH2 0x1CE7 JUMP JUMPDEST PUSH1 0x40 MLOAD PUSH2 0x6A9 SWAP2 SWAP1 PUSH2 0x2F6D JUMP JUMPDEST PUSH1 0x40 MLOAD DUP1 SWAP2 SUB SWAP1 RETURN JUMPDEST CALLVALUE DUP1 ISZERO PUSH2 0x6BD JUMPI PUSH0 PUSH0 REVERT JUMPDEST POP PUSH2 0x6C6 PUSH2 0x1D0C JUMP JUMPDEST PUSH1 0x40 MLOAD PUSH2 0x6D3 SWAP2 SWAP1 PUSH2 0x2E82 JUMP JUMPDEST PUSH1 0x40 MLOAD DUP1 SWAP2 SUB SWAP1 RETURN JUMPDEST CALLVALUE DUP1 ISZERO PUSH2 0x6E7 JUMPI PUSH0 PUSH0 REVERT JUMPDEST POP PUSH2 0x6F0 PUSH2 0x1D12 JUMP JUMPDEST STOP JUMPDEST CALLVALUE DUP1 ISZERO PUSH2 0x6FD JUMPI PUSH0 PUSH0 REVERT JUMPDEST POP PUSH2 0x706 PUSH2 0x1D9A JUMP JUMPDEST PUSH1 0x40 MLOAD PUSH2 0x713 SWAP2 SWAP1 PUSH2 0x2E82 JUMP JUMPDEST PUSH1 0x40 MLOAD DUP1 SWAP2 SUB SWAP1 RETURN JUMPDEST CALLVALUE DUP1 ISZERO PUSH2 0x727 JUMPI PUSH0 PUSH0 REVERT JUMPDEST POP PUSH2 0x742 PUSH1 0x4 DUP1 CALLDATASIZE SUB DUP2 ADD SWAP1 PUSH2 0x73D SWAP2 SWAP1 PUSH2 0x31EB JUMP JUMPDEST PUSH2 0x1DA0 JUMP JUMPDEST STOP JUMPDEST CALLVALUE DUP1 ISZERO PUSH2 0x74F JUMPI PUSH0 PUSH0 REVERT JUMPDEST POP PUSH2 0x758 PUSH2 0x244B JUMP JUMPDEST PUSH1 0x40 MLOAD PUSH2 0x765 SWAP2 SWAP1 PUSH2 0x2E51 JUMP JUMPDEST PUSH1 0x40 MLOAD DUP1 SWAP2 SUB SWAP1 RETURN JUMPDEST CALLVALUE DUP1 ISZERO PUSH2 0x779 JUMPI PUSH0 PUSH0 REVERT JUMPDEST POP PUSH2 0x782 PUSH2 0x2470 JUMP JUMPDEST PUSH1 0x40 MLOAD PUSH2 0x78F SWAP2 SWAP1 PUSH2 0x2E82 JUMP JUMPDEST PUSH1 0x40 MLOAD DUP1 SWAP2 SUB SWAP1 RETURN JUMPDEST CALLVALUE DUP1 ISZERO PUSH2 0x7A3 JUMPI PUSH0 PUSH0 REVERT JUMPDEST POP PUSH2 0x7BE PUSH1 0x4 DUP1 CALLDATASIZE SUB DUP2 ADD SWAP1 PUSH2 0x7B9 SWAP2 SWAP1 PUSH2 0x2F33 JUMP JUMPDEST PUSH2 0x2476 JUMP JUMPDEST STOP JUMPDEST CALLVALUE DUP1 ISZERO PUSH2 0x7CB JUMPI PUSH0 PUSH0 REVERT JUMPDEST POP PUSH2 0x7D4 PUSH2 0x268C JUMP JUMPDEST PUSH1 0x40 MLOAD PUSH2 0x7E1 SWAP2 SWAP1 PUSH2 0x2E82 JUMP JUMPDEST PUSH1 0x40 MLOAD DUP1 SWAP2 SUB SWAP1 RETURN JUMPDEST CALLVALUE DUP1 ISZERO PUSH2 0x7F5 JUMPI PUSH0 PUSH0 REVERT JUMPDEST POP PUSH2 0x810 PUSH1 0x4 DUP1 CALLDATASIZE SUB DUP2 ADD SWAP1 PUSH2 0x80B SWAP2 SWAP1 PUSH2 0x327F JUMP JUMPDEST PUSH2 0x26AC JUMP JUMPDEST STOP JUMPDEST CALLVALUE DUP1 ISZERO PUSH2 0x81D JUMPI PUSH0 PUSH0 REVERT JUMPDEST POP PUSH2 0x838 PUSH1 0x4 DUP1 CALLDATASIZE SUB DUP2 ADD SWAP1 PUSH2 0x833 SWAP2 SWAP1 PUSH2 0x2EDE JUMP JUMPDEST PUSH2 0x27B0 JUMP JUMPDEST PUSH1 0x40 MLOAD PUSH2 0x845 SWAP2 SWAP1 PUSH2 0x2E82 JUMP JUMPDEST PUSH1 0x40 MLOAD DUP1 SWAP2 SUB SWAP1 RETURN JUMPDEST CALLVALUE DUP1 ISZERO PUSH2 0x859 JUMPI PUSH0 PUSH0 REVERT JUMPDEST POP PUSH2 0x874 PUSH1 0x4 DUP1 CALLDATASIZE SUB DUP2 ADD SWAP1 PUSH2 0x86F SWAP2 SWAP1 PUSH2 0x2EDE JUMP JUMPDEST PUSH2 0x2831 JUMP JUMPDEST STOP JUMPDEST CALLVALUE DUP1 ISZERO PUSH2 0x881 JUMPI PUSH0 PUSH0 REVERT JUMPDEST POP PUSH2 0x88A PUSH2 0x2903 JUMP JUMPDEST PUSH1 0x40 MLOAD PUSH2 0x897 SWAP2 SWAP1 PUSH2 0x2E82 JUMP JUMPDEST PUSH1 0x40 MLOAD DUP1 SWAP2 SUB SWAP1 RETURN JUMPDEST CALLVALUE DUP1 ISZERO PUSH2 0x8AB JUMPI PUSH0 PUSH0 REVERT JUMPDEST POP PUSH2 0x8B4 PUSH2 0x2909 JUMP JUMPDEST PUSH1 0x40 MLOAD PUSH2 0x8C1 SWAP2 SWAP1 PUSH2 0x2F6D JUMP JUMPDEST PUSH1 0x40 MLOAD DUP1 SWAP2 SUB SWAP1 RETURN JUMPDEST CALLVALUE DUP1 ISZERO PUSH2 0x8D5 JUMPI PUSH0 PUSH0 REVERT JUMPDEST POP PUSH2 0x8DE PUSH2 0x292E JUMP JUMPDEST PUSH1 0x40 MLOAD PUSH2 0x8EB SWAP2 SWAP1 PUSH2 0x2E82 JUMP JUMPDEST PUSH1 0x40 MLOAD DUP1 SWAP2 SUB SWAP1 RETURN JUMPDEST PUSH1 0x1 PUSH0 SWAP1 SLOAD SWAP1 PUSH2 0x100 EXP SWAP1 DIV PUSH20 0xFFFFFFFFFFFFFFFFFFFFFFFFFFFFFFFFFFFFFFFF AND DUP2 JUMP JUMPDEST PUSH1 0x10 SLOAD DUP2 JUMP JUMPDEST PUSH1 0xA SLOAD DUP2 JUMP JUMPDEST PUSH8 0xDE0B6B3A7640000 DUP2 JUMP JUMPDEST PUSH1 0xF SLOAD DUP2 JUMP JUMPDEST PUSH1 0x8 PUSH0 SWAP1 SLOAD SWAP1 PUSH2 0x100 EXP SWAP1 DIV PUSH20 0xFFFFFFFFFFFFFFFFFFFFFFFFFFFFFFFFFFFFFFFF AND PUSH20 0xFFFFFFFFFFFFFFFFFFFFFFFFFFFFFFFFFFFFFFFF AND CALLER PUSH20 0xFFFFFFFFFFFFFFFFFFFFFFFFFFFFFFFFFFFFFFFF AND EQ DUP1 PUSH2 0x9DE JUMPI POP PUSH0 PUSH1 0x2 SWAP1 SLOAD SWAP1 PUSH2 0x100 EXP SWAP1 DIV PUSH20 0xFFFFFFFFFFFFFFFFFFFFFFFFFFFFFFFFFFFFFFFF AND PUSH20 0xFFFFFFFFFFFFFFFFFFFFFFFFFFFFFFFFFFFFFFFF AND CALLER PUSH20 0xFFFFFFFFFFFFFFFFFFFFFFFFFFFFFFFFFFFFFFFF AND EQ JUMPDEST PUSH2 0xA1D JUMPI PUSH1 0x40 MLOAD PUSH32 0x8C379A000000000000000000000000000000000000000000000000000000000 DUP2 MSTORE PUSH1 0x4 ADD PUSH2 0xA14 SWAP1 PUSH2 0x3319 JUMP JUMPDEST PUSH1 0x40 MLOAD DUP1 SWAP2 SUB SWAP1 REVERT JUMPDEST PUSH2 0xA25 PUSH2 0x1D12 JUMP JUMPDEST PUSH2 0xA2E DUP2 PUSH2 0x296C JUMP JUMPDEST ISZERO PUSH2 0xA6E JUMPI PUSH1 0x40 MLOAD PUSH32 0x8C379A000000000000000000000000000000000000000000000000000000000 DUP2 MSTORE PUSH1 0x4 ADD PUSH2 0xA65 SWAP1 PUSH2 0x3381 JUMP JUMPDEST PUSH1 0x40 MLOAD DUP1 SWAP2 SUB SWAP1 REVERT JUMPDEST PUSH0 PUSH1 0x12 PUSH0 DUP4 PUSH20 0xFFFFFFFFFFFFFFFFFFFFFFFFFFFFFFFFFFFFFFFF AND PUSH20 0xFFFFFFFFFFFFFFFFFFFFFFFFFFFFFFFFFFFFFFFF AND DUP2 MSTORE PUSH1 0x20 ADD SWAP1 DUP2 MSTORE PUSH1 0x20 ADD PUSH0 KECCAK256 SWAP1 POP PUSH0 PUSH2 0xAB8 DUP4 PUSH2 0x27B0 JUMP JUMPDEST SWAP1 POP PUSH0 DUP2 GT PUSH2 0xAFC JUMPI PUSH1 0x40 MLOAD PUSH32 0x8C379A000000000000000000000000000000000000000000000000000000000 DUP2 MSTORE PUSH1 0x4 ADD PUSH2 0xAF3 SWAP1 PUSH2 0x33E9 JUMP JUMPDEST PUSH1 0x40 MLOAD DUP1 SWAP2 SUB SWAP1 REVERT JUMPDEST PUSH0 PUSH2 0x2710 PUSH1 0xA SLOAD DUP5 PUSH0 ADD SLOAD PUSH2 0xB11 SWAP2 SWAP1 PUSH2 0x3434 JUMP JUMPDEST PUSH2 0xB1B SWAP2 SWAP1 PUSH2 0x34A2 JUMP JUMPDEST SWAP1 POP PUSH0 DUP2 DUP5 PUSH0 ADD SLOAD PUSH2 0xB2D SWAP2 SWAP1 PUSH2 0x34D2 JUMP JUMPDEST SWAP1 POP PUSH0 DUP3 GT ISZERO PUSH2 0xBD5 JUMPI PUSH1 0x2 PUSH0 SWAP1 SLOAD SWAP1 PUSH2 0x100 EXP SWAP1 DIV PUSH20 0xFFFFFFFFFFFFFFFFFFFFFFFFFFFFFFFFFFFFFFFF AND PUSH20 0xFFFFFFFFFFFFFFFFFFFFFFFFFFFFFFFFFFFFFFFF AND PUSH4 0xA9059CBB CALLER DUP5 PUSH1 0x40 MLOAD DUP4 PUSH4 0xFFFFFFFF AND PUSH1 0xE0 SHL DUP2 MSTORE PUSH1 0x4 ADD PUSH2 0xB93 SWAP3 SWAP2 SWAP1 PUSH2 0x3505 JUMP JUMPDEST PUSH1 0x20 PUSH1 0x40 MLOAD DUP1 DUP4 SUB DUP2 PUSH0 DUP8 GAS CALL ISZERO DUP1 ISZERO PUSH2 0xBAF JUMPI RETURNDATASIZE PUSH0 PUSH0 RETURNDATACOPY RETURNDATASIZE PUSH0 REVERT JUMPDEST POP POP POP POP PUSH1 0x40 MLOAD RETURNDATASIZE PUSH1 0x1F NOT PUSH1 0x1F DUP3 ADD AND DUP3 ADD DUP1 PUSH1 0x40 MSTORE POP DUP2 ADD SWAP1 PUSH2 0xBD3 SWAP2 SWAP1 PUSH2 0x3561 JUMP JUMPDEST POP JUMPDEST PUSH0 DUP2 GT ISZERO PUSH2 0xC9C JUMPI PUSH1 0x2 PUSH0 SWAP1 SLOAD SWAP1 PUSH2 0x100 EXP SWAP1 DIV PUSH20 0xFFFFFFFFFFFFFFFFFFFFFFFFFFFFFFFFFFFFFFFF AND PUSH20 0xFFFFFFFFFFFFFFFFFFFFFFFFFFFFFFFFFFFFFFFF AND PUSH4 0xA9059CBB PUSH1 0x7 PUSH0 SWAP1 SLOAD SWAP1 PUSH2 0x100 EXP SWAP1 DIV PUSH20 0xFFFFFFFFFFFFFFFFFFFFFFFFFFFFFFFFFFFFFFFF AND DUP4 PUSH1 0x40 MLOAD DUP4 PUSH4 0xFFFFFFFF AND PUSH1 0xE0 SHL DUP2 MSTORE PUSH1 0x4 ADD PUSH2 0xC5A SWAP3 SWAP2 SWAP1 PUSH2 0x3505 JUMP JUMPDEST PUSH1 0x20 PUSH1 0x40 MLOAD DUP1 DUP4 SUB DUP2 PUSH0 DUP8 GAS CALL ISZERO DUP1 ISZERO PUSH2 0xC76 JUMPI RETURNDATASIZE PUSH0 PUSH0 RETURNDATACOPY RETURNDATASIZE PUSH0 REVERT JUMPDEST POP POP POP POP PUSH1 0x40 MLOAD RETURNDATASIZE PUSH1 0x1F NOT PUSH1 0x1F DUP3 ADD AND DUP3 ADD DUP1 PUSH1 0x40 MSTORE POP DUP2 ADD SWAP1 PUSH2 0xC9A SWAP2 SWAP1 PUSH2 0x3561 JUMP JUMPDEST POP JUMPDEST DUP4 PUSH1 0x1 ADD SLOAD PUSH1 0x10 PUSH0 DUP3 DUP3 SLOAD PUSH2 0xCB1 SWAP2 SWAP1 PUSH2 0x34D2 JUMP JUMPDEST SWAP3 POP POP DUP2 SWAP1 SSTORE POP PUSH1 0x12 PUSH0 DUP7 PUSH20 0xFFFFFFFFFFFFFFFFFFFFFFFFFFFFFFFFFFFFFFFF AND PUSH20 0xFFFFFFFFFFFFFFFFFFFFFFFFFFFFFFFFFFFFFFFF AND DUP2 MSTORE PUSH1 0x20 ADD SWAP1 DUP2 MSTORE PUSH1 0x20 ADD PUSH0 KECCAK256 PUSH0 PUSH0 DUP3 ADD PUSH0 SWAP1 SSTORE PUSH1 0x1 DUP3 ADD PUSH0 SWAP1 SSTORE PUSH1 0x2 DUP3 ADD PUSH0 SWAP1 SSTORE POP POP CALLER PUSH20 0xFFFFFFFFFFFFFFFFFFFFFFFFFFFFFFFFFFFFFFFF AND DUP6 PUSH20 0xFFFFFFFFFFFFFFFFFFFFFFFFFFFFFFFFFFFFFFFF AND PUSH32 0x1F0C6615429D1CDAE0DFA233ABF91D3B31CDBDD82C8081389832A61E1072F1EA DUP6 DUP6 PUSH1 0x40 MLOAD PUSH2 0xD6B SWAP3 SWAP2 SWAP1 PUSH2 0x358C JUMP JUMPDEST PUSH1 0x40 MLOAD DUP1 SWAP2 SUB SWAP1 LOG3 POP POP POP POP POP JUMP JUMPDEST PUSH1 0xB SLOAD DUP2 JUMP JUMPDEST PUSH32 0x0 PUSH20 0xFFFFFFFFFFFFFFFFFFFFFFFFFFFFFFFFFFFFFFFF AND ADDRESS PUSH20 0xFFFFFFFFFFFFFFFFFFFFFFFFFFFFFFFFFFFFFFFF AND SUB PUSH2 0xE0E JUMPI PUSH1 0x40 MLOAD PUSH32 0x8C379A000000000000000000000000000000000000000000000000000000000 DUP2 MSTORE PUSH1 0x4 ADD PUSH2 0xE05 SWAP1 PUSH2 0x35FD JUMP JUMPDEST PUSH1 0x40 MLOAD DUP1 SWAP2 SUB SWAP1 REVERT JUMPDEST PUSH32 0x0 PUSH20 0xFFFFFFFFFFFFFFFFFFFFFFFFFFFFFFFFFFFFFFFF AND PUSH2 0xE4D PUSH2 0x2981 JUMP JUMPDEST PUSH20 0xFFFFFFFFFFFFFFFFFFFFFFFFFFFFFFFFFFFFFFFF AND EQ PUSH2 0xEA3 JUMPI PUSH1 0x40 MLOAD PUSH32 0x8C379A000000000000000000000000000000000000000000000000000000000 DUP2 MSTORE PUSH1 0x4 ADD PUSH2 0xE9A SWAP1 PUSH2 0x3665 JUMP JUMPDEST PUSH1 0x40 MLOAD DUP1 SWAP2 SUB SWAP1 REVERT JUMPDEST PUSH2 0xEAC DUP2 PUSH2 0x29B0 JUMP JUMPDEST PUSH2 0xEC5 DUP2 PUSH1 0x40 MLOAD DUP1 PUSH1 0x20 ADD PUSH1 0x40 MSTORE DUP1 PUSH0 DUP2 MSTORE POP PUSH0 PUSH2 0x2A0B JUMP JUMPDEST POP JUMP JUMPDEST PUSH0 DUP2 GT PUSH2 0xF0A JUMPI PUSH1 0x40 MLOAD PUSH32 0x8C379A000000000000000000000000000000000000000000000000000000000 DUP2 MSTORE PUSH1 0x4 ADD PUSH2 0xF01 SWAP1 PUSH2 0x36CD JUMP JUMPDEST PUSH1 0x40 MLOAD DUP1 SWAP2 SUB SWAP1 REVERT JUMPDEST PUSH1 0x2 PUSH0 SWAP1 SLOAD SWAP1 PUSH2 0x100 EXP SWAP1 DIV PUSH20 0xFFFFFFFFFFFFFFFFFFFFFFFFFFFFFFFFFFFFFFFF AND PUSH20 0xFFFFFFFFFFFFFFFFFFFFFFFFFFFFFFFFFFFFFFFF AND PUSH4 0x23B872DD CALLER ADDRESS DUP5 PUSH1 0x40 MLOAD DUP5 PUSH4 0xFFFFFFFF AND PUSH1 0xE0 SHL DUP2 MSTORE PUSH1 0x4 ADD PUSH2 0xF68 SWAP4 SWAP3 SWAP2 SWAP1 PUSH2 0x36EB JUMP JUMPDEST PUSH1 0x20 PUSH1 0x40 MLOAD DUP1 DUP4 SUB DUP2 PUSH0 DUP8 GAS CALL ISZERO DUP1 ISZERO PUSH2 0xF84 JUMPI RETURNDATASIZE PUSH0 PUSH0 RETURNDATACOPY RETURNDATASIZE PUSH0 REVERT JUMPDEST POP POP POP POP PUSH1 0x40 MLOAD RETURNDATASIZE PUSH1 0x1F NOT PUSH1 0x1F DUP3 ADD AND DUP3 ADD DUP1 PUSH1 0x40 MSTORE POP DUP2 ADD SWAP1 PUSH2 0xFA8 SWAP2 SWAP1 PUSH2 0x3561 JUMP JUMPDEST POP DUP1 PUSH1 0x12 PUSH0 CALLER PUSH20 0xFFFFFFFFFFFFFFFFFFFFFFFFFFFFFFFFFFFFFFFF AND PUSH20 0xFFFFFFFFFFFFFFFFFFFFFFFFFFFFFFFFFFFFFFFF AND DUP2 MSTORE PUSH1 0x20 ADD SWAP1 DUP2 MSTORE PUSH1 0x20 ADD PUSH0 KECCAK256 PUSH0 ADD PUSH0 DUP3 DUP3 SLOAD PUSH2 0xFF7 SWAP2 SWAP1 PUSH2 0x3720 JUMP JUMPDEST SWAP3 POP POP DUP2 SWAP1 SSTORE POP POP JUMP JUMPDEST PUSH0 PUSH0 DUP3 GT PUSH2 0x1044 JUMPI PUSH1 0x40 MLOAD PUSH32 0x8C379A000000000000000000000000000000000000000000000000000000000 DUP2 MSTORE PUSH1 0x4 ADD PUSH2 0x103B SWAP1 PUSH2 0x36CD JUMP JUMPDEST PUSH1 0x40 MLOAD DUP1 SWAP2 SUB SWAP1 REVERT JUMPDEST PUSH2 0x104C PUSH2 0x1D12 JUMP JUMPDEST PUSH0 PUSH1 0x12 PUSH0 CALLER PUSH20 0xFFFFFFFFFFFFFFFFFFFFFFFFFFFFFFFFFFFFFFFF AND PUSH20 0xFFFFFFFFFFFFFFFFFFFFFFFFFFFFFFFFFFFFFFFF AND DUP2 MSTORE PUSH1 0x20 ADD SWAP1 DUP2 MSTORE PUSH1 0x20 ADD PUSH0 KECCAK256 SWAP1 POP PUSH0 PUSH2 0x1096 CALLER PUSH2 0x27B0 JUMP JUMPDEST SWAP1 POP PUSH0 DUP2 GT PUSH2 0x10DA JUMPI PUSH1 0x40 MLOAD PUSH32 0x8C379A000000000000000000000000000000000000000000000000000000000 DUP2 MSTORE PUSH1 0x4 ADD PUSH2 0x10D1 SWAP1 PUSH2 0x33E9 JUMP JUMPDEST PUSH1 0x40 MLOAD DUP1 SWAP2 SUB SWAP1 REVERT JUMPDEST PUSH0 DUP2 DUP6 GT PUSH2 0x10E8 JUMPI DUP5 PUSH2 0x10EA JUMP JUMPDEST DUP2 JUMPDEST SWAP1 POP PUSH1 0x1 PUSH0 SWAP1 SLOAD SWAP1 PUSH2 0x100 EXP SWAP1 DIV PUSH20 0xFFFFFFFFFFFFFFFFFFFFFFFFFFFFFFFFFFFFFFFF AND PUSH20 0xFFFFFFFFFFFFFFFFFFFFFFFFFFFFFFFFFFFFFFFF AND PUSH4 0x23B872DD CALLER ADDRESS DUP5 PUSH1 0x40 MLOAD DUP5 PUSH4 0xFFFFFFFF AND PUSH1 0xE0 SHL DUP2 MSTORE PUSH1 0x4 ADD PUSH2 0x114A SWAP4 SWAP3 SWAP2 SWAP1 PUSH2 0x36EB JUMP JUMPDEST PUSH1 0x20 PUSH1 0x40 MLOAD DUP1 DUP4 SUB DUP2 PUSH0 DUP8 GAS CALL ISZERO DUP1 ISZERO PUSH2 0x1166 JUMPI RETURNDATASIZE PUSH0 PUSH0 RETURNDATACOPY RETURNDATASIZE PUSH0 REVERT JUMPDEST POP POP POP POP PUSH1 0x40 MLOAD RETURNDATASIZE PUSH1 0x1F NOT PUSH1 0x1F DUP3 ADD AND DUP3 ADD DUP1 PUSH1 0x40 MSTORE POP DUP2 ADD SWAP1 PUSH2 0x118A SWAP2 SWAP1 PUSH2 0x3561 JUMP JUMPDEST POP PUSH0 DUP2 DUP5 PUSH1 0x2 ADD SLOAD GT PUSH2 0x11A1 JUMPI DUP4 PUSH1 0x2 ADD SLOAD PUSH2 0x11A3 JUMP JUMPDEST DUP2 JUMPDEST SWAP1 POP DUP1 DUP5 PUSH1 0x2 ADD PUSH0 DUP3 DUP3 SLOAD PUSH2 0x11B8 SWAP2 SWAP1 PUSH2 0x34D2 JUMP JUMPDEST SWAP3 POP POP DUP2 SWAP1 SSTORE POP PUSH2 0x2710 PUSH1 0xB SLOAD DUP3 DUP5 PUSH2 0x11D1 SWAP2 SWAP1 PUSH2 0x34D2 JUMP JUMPDEST PUSH2 0x11DB SWAP2 SWAP1 PUSH2 0x3434 JUMP JUMPDEST PUSH2 0x11E5 SWAP2 SWAP1 PUSH2 0x34A2 JUMP JUMPDEST PUSH1 0x11 PUSH0 DUP3 DUP3 SLOAD PUSH2 0x11F5 SWAP2 SWAP1 PUSH2 0x3720 JUMP JUMPDEST SWAP3 POP POP DUP2 SWAP1 SSTORE POP PUSH0 DUP4 DUP4 EQ PUSH2 0x122A JUMPI PUSH1 0xE SLOAD PUSH8 0xDE0B6B3A7640000 DUP5 PUSH2 0x121B SWAP2 SWAP1 PUSH2 0x3434 JUMP JUMPDEST PUSH2 0x1225 SWAP2 SWAP1 PUSH2 0x34A2 JUMP JUMPDEST PUSH2 0x1230 JUMP JUMPDEST DUP5 PUSH1 0x1 ADD SLOAD JUMPDEST SWAP1 POP DUP5 PUSH1 0x1 ADD SLOAD DUP2 GT ISZERO PUSH2 0x1246 JUMPI DUP5 PUSH1 0x1 ADD SLOAD SWAP1 POP JUMPDEST DUP1 DUP6 PUSH1 0x1 ADD PUSH0 DUP3 DUP3 SLOAD PUSH2 0x1259 SWAP2 SWAP1 PUSH2 0x34D2 JUMP JUMPDEST SWAP3 POP POP DUP2 SWAP1 SSTORE POP DUP1 PUSH1 0x10 PUSH0 DUP3 DUP3 SLOAD PUSH2 0x1271 SWAP2 SWAP1 PUSH2 0x34D2 JUMP JUMPDEST SWAP3 POP POP DUP2 SWAP1 SSTORE POP PUSH2 0x1281 CALLER PUSH2 0x27B0 JUMP JUMPDEST SWAP6 POP POP POP POP POP POP SWAP2 SWAP1 POP JUMP JUMPDEST PUSH1 0x6 PUSH0 SWAP1 SLOAD SWAP1 PUSH2 0x100 EXP SWAP1 DIV PUSH20 0xFFFFFFFFFFFFFFFFFFFFFFFFFFFFFFFFFFFFFFFF AND PUSH20 0xFFFFFFFFFFFFFFFFFFFFFFFFFFFFFFFFFFFFFFFF AND CALLER PUSH20 0xFFFFFFFFFFFFFFFFFFFFFFFFFFFFFFFFFFFFFFFF AND EQ PUSH2 0x131C JUMPI PUSH1 0x40 MLOAD PUSH32 0x8C379A000000000000000000000000000000000000000000000000000000000 DUP2 MSTORE PUSH1 0x4 ADD PUSH2 0x1313 SWAP1 PUSH2 0x379D JUMP JUMPDEST PUSH1 0x40 MLOAD DUP1 SWAP2 SUB SWAP1 REVERT JUMPDEST PUSH2 0x1324 PUSH2 0x1B6E JUMP JUMPDEST DUP2 GT ISZERO PUSH2 0x1366 JUMPI PUSH1 0x40 MLOAD PUSH32 0x8C379A000000000000000000000000000000000000000000000000000000000 DUP2 MSTORE PUSH1 0x4 ADD PUSH2 0x135D SWAP1 PUSH2 0x3805 JUMP JUMPDEST PUSH1 0x40 MLOAD DUP1 SWAP2 SUB SWAP1 REVERT JUMPDEST PUSH1 0x1 PUSH0 SWAP1 SLOAD SWAP1 PUSH2 0x100 EXP SWAP1 DIV PUSH20 0xFFFFFFFFFFFFFFFFFFFFFFFFFFFFFFFFFFFFFFFF AND PUSH20 0xFFFFFFFFFFFFFFFFFFFFFFFFFFFFFFFFFFFFFFFF AND PUSH4 0xA9059CBB PUSH1 0x6 PUSH0 SWAP1 SLOAD SWAP1 PUSH2 0x100 EXP SWAP1 DIV PUSH20 0xFFFFFFFFFFFFFFFFFFFFFFFFFFFFFFFFFFFFFFFF AND DUP4 PUSH1 0x40 MLOAD DUP4 PUSH4 0xFFFFFFFF AND PUSH1 0xE0 SHL DUP2 MSTORE PUSH1 0x4 ADD PUSH2 0x13E3 SWAP3 SWAP2 SWAP1 PUSH2 0x3505 JUMP JUMPDEST PUSH1 0x20 PUSH1 0x40 MLOAD DUP1 DUP4 SUB DUP2 PUSH0 DUP8 GAS CALL ISZERO DUP1 ISZERO PUSH2 0x13FF JUMPI RETURNDATASIZE PUSH0 PUSH0 RETURNDATACOPY RETURNDATASIZE PUSH0 REVERT JUMPDEST POP POP POP POP PUSH1 0x40 MLOAD RETURNDATASIZE PUSH1 0x1F NOT PUSH1 0x1F DUP3 ADD AND DUP3 ADD DUP1 PUSH1 0x40 MSTORE POP DUP2 ADD SWAP1 PUSH2 0x1423 SWAP2 SWAP1 PUSH2 0x3561 JUMP JUMPDEST POP POP JUMP JUMPDEST PUSH1 0x8 PUSH0 SWAP1 SLOAD SWAP1 PUSH2 0x100 EXP SWAP1 DIV PUSH20 0xFFFFFFFFFFFFFFFFFFFFFFFFFFFFFFFFFFFFFFFF AND DUP2 JUMP JUMPDEST PUSH1 0x4 DUP1 SLOAD PUSH2 0x1459 SWAP1 PUSH2 0x3850 JUMP JUMPDEST DUP1 PUSH1 0x1F ADD PUSH1 0x20 DUP1 SWAP2 DIV MUL PUSH1 0x20 ADD PUSH1 0x40 MLOAD SWAP1 DUP2 ADD PUSH1 0x40 MSTORE DUP1 SWAP3 SWAP2 SWAP1 DUP2 DUP2 MSTORE PUSH1 0x20 ADD DUP3 DUP1 SLOAD PUSH2 0x1485 SWAP1 PUSH2 0x3850 JUMP JUMPDEST DUP1 ISZERO PUSH2 0x14D0 JUMPI DUP1 PUSH1 0x1F LT PUSH2 0x14A7 JUMPI PUSH2 0x100 DUP1 DUP4 SLOAD DIV MUL DUP4 MSTORE SWAP2 PUSH1 0x20 ADD SWAP2 PUSH2 0x14D0 JUMP JUMPDEST DUP3 ADD SWAP2 SWAP1 PUSH0 MSTORE PUSH1 0x20 PUSH0 KECCAK256 SWAP1 JUMPDEST DUP2 SLOAD DUP2 MSTORE SWAP1 PUSH1 0x1 ADD SWAP1 PUSH1 0x20 ADD DUP1 DUP4 GT PUSH2 0x14B3 JUMPI DUP3 SWAP1 SUB PUSH1 0x1F AND DUP3 ADD SWAP2 JUMPDEST POP POP POP POP POP DUP2 JUMP JUMPDEST PUSH1 0x6 PUSH0 SWAP1 SLOAD SWAP1 PUSH2 0x100 EXP SWAP1 DIV PUSH20 0xFFFFFFFFFFFFFFFFFFFFFFFFFFFFFFFFFFFFFFFF AND PUSH20 0xFFFFFFFFFFFFFFFFFFFFFFFFFFFFFFFFFFFFFFFF AND CALLER PUSH20 0xFFFFFFFFFFFFFFFFFFFFFFFFFFFFFFFFFFFFFFFF AND EQ PUSH2 0x1567 JUMPI PUSH1 0x40 MLOAD PUSH32 0x8C379A000000000000000000000000000000000000000000000000000000000 DUP2 MSTORE PUSH1 0x4 ADD PUSH2 0x155E SWAP1 PUSH2 0x379D JUMP JUMPDEST PUSH1 0x40 MLOAD DUP1 SWAP2 SUB SWAP1 REVERT JUMPDEST POP JUMP JUMPDEST PUSH32 0x0 PUSH20 0xFFFFFFFFFFFFFFFFFFFFFFFFFFFFFFFFFFFFFFFF AND ADDRESS PUSH20 0xFFFFFFFFFFFFFFFFFFFFFFFFFFFFFFFFFFFFFFFF AND SUB PUSH2 0x15F8 JUMPI PUSH1 0x40 MLOAD PUSH32 0x8C379A000000000000000000000000000000000000000000000000000000000 DUP2 MSTORE PUSH1 0x4 ADD PUSH2 0x15EF SWAP1 PUSH2 0x35FD JUMP JUMPDEST PUSH1 0x40 MLOAD DUP1 SWAP2 SUB SWAP1 REVERT JUMPDEST PUSH32 0x0 PUSH20 0xFFFFFFFFFFFFFFFFFFFFFFFFFFFFFFFFFFFFFFFF AND PUSH2 0x1637 PUSH2 0x2981 JUMP JUMPDEST PUSH20 0xFFFFFFFFFFFFFFFFFFFFFFFFFFFFFFFFFFFFFFFF AND EQ PUSH2 0x168D JUMPI PUSH1 0x40 MLOAD PUSH32 0x8C379A000000000000000000000000000000000000000000000000000000000 DUP2 MSTORE PUSH1 0x4 ADD PUSH2 0x1684 SWAP1 PUSH2 0x3665 JUMP JUMPDEST PUSH1 0x40 MLOAD DUP1 SWAP2 SUB SWAP1 REVERT JUMPDEST PUSH2 0x1696 DUP4 PUSH2 0x29B0 JUMP JUMPDEST PUSH2 0x16E5 DUP4 DUP4 DUP4 DUP1 DUP1 PUSH1 0x1F ADD PUSH1 0x20 DUP1 SWAP2 DIV MUL PUSH1 0x20 ADD PUSH1 0x40 MLOAD SWAP1 DUP2 ADD PUSH1 0x40 MSTORE DUP1 SWAP4 SWAP3 SWAP2 SWAP1 DUP2 DUP2 MSTORE PUSH1 0x20 ADD DUP4 DUP4 DUP1 DUP3 DUP5 CALLDATACOPY PUSH0 DUP2 DUP5 ADD MSTORE PUSH1 0x1F NOT PUSH1 0x1F DUP3 ADD AND SWAP1 POP DUP1 DUP4 ADD SWAP3 POP POP POP POP POP POP POP PUSH1 0x1 PUSH2 0x2A0B JUMP JUMPDEST POP POP POP JUMP JUMPDEST PUSH0 PUSH32 0x0 PUSH20 0xFFFFFFFFFFFFFFFFFFFFFFFFFFFFFFFFFFFFFFFF AND ADDRESS PUSH20 0xFFFFFFFFFFFFFFFFFFFFFFFFFFFFFFFFFFFFFFFF AND EQ PUSH2 0x1779 JUMPI PUSH1 0x40 MLOAD PUSH32 0x8C379A000000000000000000000000000000000000000000000000000000000 DUP2 MSTORE PUSH1 0x4 ADD PUSH2 0x1770 SWAP1 PUSH2 0x38CA JUMP JUMPDEST PUSH1 0x40 MLOAD DUP1 SWAP2 SUB SWAP1 REVERT JUMPDEST PUSH32 0x360894A13BA1A3210667C828492DB98DCA3E2076CC3735A920A3CA505D382BBC PUSH0 SHL SWAP1 POP SWAP1 JUMP JUMPDEST PUSH1 0x12 PUSH1 0x20 MSTORE DUP1 PUSH0 MSTORE PUSH1 0x40 PUSH0 KECCAK256 PUSH0 SWAP2 POP SWAP1 POP DUP1 PUSH0 ADD SLOAD SWAP1 DUP1 PUSH1 0x1 ADD SLOAD SWAP1 DUP1 PUSH1 0x2 ADD SLOAD SWAP1 POP DUP4 JUMP JUMPDEST PUSH0 DUP2 GT PUSH2 0x1809 JUMPI PUSH1 0x40 MLOAD PUSH32 0x8C379A000000000000000000000000000000000000000000000000000000000 DUP2 MSTORE PUSH1 0x4 ADD PUSH2 0x1800 SWAP1 PUSH2 0x36CD JUMP JUMPDEST PUSH1 0x40 MLOAD DUP1 SWAP2 SUB SWAP1 REVERT JUMPDEST PUSH2 0x1811 PUSH2 0x1D12 JUMP JUMPDEST PUSH0 PUSH1 0x12 PUSH0 CALLER PUSH20 0xFFFFFFFFFFFFFFFFFFFFFFFFFFFFFFFFFFFFFFFF AND PUSH20 0xFFFFFFFFFFFFFFFFFFFFFFFFFFFFFFFFFFFFFFFF AND DUP2 MSTORE PUSH1 0x20 ADD SWAP1 DUP2 MSTORE PUSH1 0x20 ADD PUSH0 KECCAK256 SWAP1 POP DUP1 PUSH0 ADD SLOAD DUP3 GT ISZERO PUSH2 0x1897 JUMPI PUSH1 0x40 MLOAD PUSH32 0x8C379A000000000000000000000000000000000000000000000000000000000 DUP2 MSTORE PUSH1 0x4 ADD PUSH2 0x188E SWAP1 PUSH2 0x3932 JUMP JUMPDEST PUSH1 0x40 MLOAD DUP1 SWAP2 SUB SWAP1 REVERT JUMPDEST DUP2 DUP2 PUSH0 ADD PUSH0 DUP3 DUP3 SLOAD PUSH2 0x18A9 SWAP2 SWAP1 PUSH2 0x34D2 JUMP JUMPDEST SWAP3 POP POP DUP2 SWAP1 SSTORE POP PUSH2 0x18B9 CALLER PUSH2 0x296C JUMP JUMPDEST PUSH2 0x18F8 JUMPI PUSH1 0x40 MLOAD PUSH32 0x8C379A000000000000000000000000000000000000000000000000000000000 DUP2 MSTORE PUSH1 0x4 ADD PUSH2 0x18EF SWAP1 PUSH2 0x399A JUMP JUMPDEST PUSH1 0x40 MLOAD DUP1 SWAP2 SUB SWAP1 REVERT JUMPDEST PUSH1 0x2 PUSH0 SWAP1 SLOAD SWAP1 PUSH2 0x100 EXP SWAP1 DIV PUSH20 0xFFFFFFFFFFFFFFFFFFFFFFFFFFFFFFFFFFFFFFFF AND PUSH20 0xFFFFFFFFFFFFFFFFFFFFFFFFFFFFFFFFFFFFFFFF AND PUSH4 0xA9059CBB CALLER DUP5 PUSH1 0x40 MLOAD DUP4 PUSH4 0xFFFFFFFF AND PUSH1 0xE0 SHL DUP2 MSTORE PUSH1 0x4 ADD PUSH2 0x1954 SWAP3 SWAP2 SWAP1 PUSH2 0x3505 JUMP JUMPDEST PUSH1 0x20 PUSH1 0x40 MLOAD DUP1 DUP4 SUB DUP2 PUSH0 DUP8 GAS CALL ISZERO DUP1 ISZERO PUSH2 0x1970 JUMPI RETURNDATASIZE PUSH0 PUSH0 RETURNDATACOPY RETURNDATASIZE PUSH0 REVERT JUMPDEST POP POP POP POP PUSH1 0x40 MLOAD RETURNDATASIZE PUSH1 0x1F NOT PUSH1 0x1F DUP3 ADD AND DUP3 ADD DUP1 PUSH1 0x40 MSTORE POP DUP2 ADD SWAP1 PUSH2 0x1994 SWAP2 SWAP1 PUSH2 0x3561 JUMP JUMPDEST POP POP POP JUMP JUMPDEST PUSH1 0x7 PUSH0 SWAP1 SLOAD SWAP1 PUSH2 0x100 EXP SWAP1 DIV PUSH20 0xFFFFFFFFFFFFFFFFFFFFFFFFFFFFFFFFFFFFFFFF AND DUP2 JUMP JUMPDEST PUSH0 PUSH0 PUSH1 0x12 PUSH0 DUP5 PUSH20 0xFFFFFFFFFFFFFFFFFFFFFFFFFFFFFFFFFFFFFFFF AND PUSH20 0xFFFFFFFFFFFFFFFFFFFFFFFFFFFFFFFFFFFFFFFF AND DUP2 MSTORE PUSH1 0x20 ADD SWAP1 DUP2 MSTORE PUSH1 0x20 ADD PUSH0 KECCAK256 SWAP1 POP PUSH0 PUSH2 0x1A09 DUP5 PUSH2 0x27B0 JUMP JUMPDEST SWAP1 POP PUSH0 DUP2 SUB PUSH2 0x1A1C JUMPI PUSH0 SWAP3 POP POP POP PUSH2 0x1B02 JUMP JUMPDEST PUSH0 DUP3 PUSH0 ADD SLOAD SUB PUSH2 0x1A50 JUMPI PUSH32 0xFFFFFFFFFFFFFFFFFFFFFFFFFFFFFFFFFFFFFFFFFFFFFFFFFFFFFFFFFFFFFFFF SWAP3 POP POP POP PUSH2 0x1B02 JUMP JUMPDEST PUSH0 PUSH2 0x1A7C DUP3 PUSH1 0x1 PUSH0 SWAP1 SLOAD SWAP1 PUSH2 0x100 EXP SWAP1 DIV PUSH20 0xFFFFFFFFFFFFFFFFFFFFFFFFFFFFFFFFFFFFFFFF AND PUSH2 0x2B48 JUMP JUMPDEST SWAP1 POP PUSH0 PUSH2 0x1AAD DUP5 PUSH0 ADD SLOAD PUSH1 0x2 PUSH0 SWAP1 SLOAD SWAP1 PUSH2 0x100 EXP SWAP1 DIV PUSH20 0xFFFFFFFFFFFFFFFFFFFFFFFFFFFFFFFFFFFFFFFF AND PUSH2 0x2B48 JUMP JUMPDEST SWAP1 POP PUSH0 DUP2 SUB PUSH2 0x1AE2 JUMPI PUSH32 0xFFFFFFFFFFFFFFFFFFFFFFFFFFFFFFFFFFFFFFFFFFFFFFFFFFFFFFFFFFFFFFFF SWAP5 POP POP POP POP POP PUSH2 0x1B02 JUMP JUMPDEST DUP1 PUSH2 0x2710 DUP4 PUSH2 0x1AF1 SWAP2 SWAP1 PUSH2 0x3434 JUMP JUMPDEST PUSH2 0x1AFB SWAP2 SWAP1 PUSH2 0x34A2 JUMP JUMPDEST SWAP5 POP POP POP POP POP JUMPDEST SWAP2 SWAP1 POP JUMP JUMPDEST PUSH0 PUSH0 PUSH2 0x1B12 DUP4 PUSH2 0x19BE JUMP JUMPDEST SWAP1 POP PUSH0 DUP2 SUB PUSH2 0x1B44 JUMPI PUSH32 0xFFFFFFFFFFFFFFFFFFFFFFFFFFFFFFFFFFFFFFFFFFFFFFFFFFFFFFFFFFFFFFFF SWAP2 POP POP PUSH2 0x1B69 JUMP JUMPDEST DUP1 PUSH8 0xDE0B6B3A7640000 PUSH1 0x9 SLOAD PUSH2 0x1B5B SWAP2 SWAP1 PUSH2 0x3434 JUMP JUMPDEST PUSH2 0x1B65 SWAP2 SWAP1 PUSH2 0x34A2 JUMP JUMPDEST SWAP2 POP POP JUMPDEST SWAP2 SWAP1 POP JUMP JUMPDEST PUSH0 PUSH0 PUSH1 0x1 PUSH0 SWAP1 SLOAD SWAP1 PUSH2 0x100 EXP SWAP1 DIV PUSH20 0xFFFFFFFFFFFFFFFFFFFFFFFFFFFFFFFFFFFFFFFF AND PUSH20 0xFFFFFFFFFFFFFFFFFFFFFFFFFFFFFFFFFFFFFFFF AND PUSH4 0x70A08231 ADDRESS PUSH1 0x40 MLOAD DUP3 PUSH4 0xFFFFFFFF AND PUSH1 0xE0 SHL DUP2 MSTORE PUSH1 0x4 ADD PUSH2 0x1BCA SWAP2 SWAP1 PUSH2 0x2F6D JUMP JUMPDEST PUSH1 0x20 PUSH1 0x40 MLOAD DUP1 DUP4 SUB DUP2 DUP7 GAS STATICCALL ISZERO DUP1 ISZERO PUSH2 0x1BE5 JUMPI RETURNDATASIZE PUSH0 PUSH0 RETURNDATACOPY RETURNDATASIZE PUSH0 REVERT JUMPDEST POP POP POP POP PUSH1 0x40 MLOAD RETURNDATASIZE PUSH1 0x1F NOT PUSH1 0x1F DUP3 ADD AND DUP3 ADD DUP1 PUSH1 0x40 MSTORE POP DUP2 ADD SWAP1 PUSH2 0x1C09 SWAP2 SWAP1 PUSH2 0x39CC JUMP JUMPDEST SWAP1 POP PUSH1 0x11 SLOAD DUP2 GT ISZERO PUSH2 0x1C28 JUMPI PUSH1 0x11 SLOAD DUP2 PUSH2 0x1C23 SWAP2 SWAP1 PUSH2 0x34D2 JUMP JUMPDEST PUSH2 0x1C2A JUMP JUMPDEST PUSH0 JUMPDEST SWAP2 POP POP SWAP1 JUMP JUMPDEST PUSH1 0x5 DUP1 SLOAD PUSH2 0x1C3D SWAP1 PUSH2 0x3850 JUMP JUMPDEST DUP1 PUSH1 0x1F ADD PUSH1 0x20 DUP1 SWAP2 DIV MUL PUSH1 0x20 ADD PUSH1 0x40 MLOAD SWAP1 DUP2 ADD PUSH1 0x40 MSTORE DUP1 SWAP3 SWAP2 SWAP1 DUP2 DUP2 MSTORE PUSH1 0x20 ADD DUP3 DUP1 SLOAD PUSH2 0x1C69 SWAP1 PUSH2 0x3850 JUMP JUMPDEST DUP1 ISZERO PUSH2 0x1CB4 JUMPI DUP1 PUSH1 0x1F LT PUSH2 0x1C8B JUMPI PUSH2 0x100 DUP1 DUP4 SLOAD DIV MUL DUP4 MSTORE SWAP2 PUSH1 0x20 ADD SWAP2 PUSH2 0x1CB4 JUMP JUMPDEST DUP3 ADD SWAP2 SWAP1 PUSH0 MSTORE PUSH1 0x20 PUSH0 KECCAK256 SWAP1 JUMPDEST DUP2 SLOAD DUP2 MSTORE SWAP1 PUSH1 0x1 ADD SWAP1 PUSH1 0x20 ADD DUP1 DUP4 GT PUSH2 0x1C97 JUMPI DUP3 SWAP1 SUB PUSH1 0x1F AND DUP3 ADD SWAP2 JUMPDEST POP POP POP POP POP DUP2 JUMP JUMPDEST PUSH1 0xC SLOAD DUP2 JUMP JUMPDEST PUSH1 0x3 PUSH0 SWAP1 SLOAD SWAP1 PUSH2 0x100 EXP SWAP1 DIV PUSH20 0xFFFFFFFFFFFFFFFFFFFFFFFFFFFFFFFFFFFFFFFF AND DUP2 JUMP JUMPDEST PUSH0 PUSH1 0x2 SWAP1 SLOAD SWAP1 PUSH2 0x100 EXP SWAP1 DIV PUSH20 0xFFFFFFFFFFFFFFFFFFFFFFFFFFFFFFFFFFFFFFFF AND DUP2 JUMP JUMPDEST PUSH1 0xD SLOAD DUP2 JUMP JUMPDEST PUSH1 0xF SLOAD NUMBER SUB ISZERO PUSH2 0x1D98 JUMPI PUSH0 PUSH1 0x10 SLOAD GT ISZERO PUSH2 0x1D90 JUMPI PUSH0 PUSH1 0xF SLOAD NUMBER PUSH2 0x1D35 SWAP2 SWAP1 PUSH2 0x34D2 JUMP JUMPDEST SWAP1 POP PUSH0 PUSH1 0xD SLOAD DUP3 PUSH1 0xC SLOAD PUSH2 0x1D49 SWAP2 SWAP1 PUSH2 0x3434 JUMP JUMPDEST PUSH2 0x1D53 SWAP2 SWAP1 PUSH2 0x34A2 JUMP JUMPDEST SWAP1 POP PUSH8 0xDE0B6B3A7640000 DUP2 PUSH1 0xE SLOAD PUSH2 0x1D6C SWAP2 SWAP1 PUSH2 0x3434 JUMP JUMPDEST PUSH2 0x1D76 SWAP2 SWAP1 PUSH2 0x34A2 JUMP JUMPDEST PUSH1 0xE PUSH0 DUP3 DUP3 SLOAD PUSH2 0x1D86 SWAP2 SWAP1 PUSH2 0x3720 JUMP JUMPDEST SWAP3 POP POP DUP2 SWAP1 SSTORE POP POP POP JUMPDEST NUMBER PUSH1 0xF DUP2 SWAP1 SSTORE POP JUMPDEST JUMP JUMPDEST PUSH1 0xE SLOAD DUP2 JUMP JUMPDEST PUSH0 PUSH0 SWAP1 SLOAD SWAP1 PUSH2 0x100 EXP SWAP1 DIV PUSH1 0xFF AND ISZERO DUP1 PUSH2 0x1DC5 JUMPI POP PUSH0 PUSH1 0x1 SWAP1 SLOAD SWAP1 PUSH2 0x100 EXP SWAP1 DIV PUSH1 0xFF AND JUMPDEST PUSH2 0x1E04 JUMPI PUSH1 0x40 MLOAD PUSH32 0x8C379A000000000000000000000000000000000000000000000000000000000 DUP2 MSTORE PUSH1 0x4 ADD PUSH2 0x1DFB SWAP1 PUSH2 0x3A41 JUMP JUMPDEST PUSH1 0x40 MLOAD DUP1 SWAP2 SUB SWAP1 REVERT JUMPDEST PUSH0 PUSH0 PUSH1 0x1 SWAP1 SLOAD SWAP1 PUSH2 0x100 EXP SWAP1 DIV PUSH1 0xFF AND ISZERO SWAP1 POP DUP1 ISZERO PUSH2 0x1E51 JUMPI PUSH1 0x1 PUSH0 PUSH1 0x1 PUSH2 0x100 EXP DUP2 SLOAD DUP2 PUSH1 0xFF MUL NOT AND SWAP1 DUP4 ISZERO ISZERO MUL OR SWAP1 SSTORE POP PUSH1 0x1 PUSH0 PUSH0 PUSH2 0x100 EXP DUP2 SLOAD DUP2 PUSH1 0xFF MUL NOT AND SWAP1 DUP4 ISZERO ISZERO MUL OR SWAP1 SSTORE POP JUMPDEST PUSH0 PUSH20 0xFFFFFFFFFFFFFFFFFFFFFFFFFFFFFFFFFFFFFFFF AND DUP7 PUSH1 0x20 ADD PUSH1 0x20 DUP2 ADD SWAP1 PUSH2 0x1E7B SWAP2 SWAP1 PUSH2 0x2EDE JUMP JUMPDEST PUSH20 0xFFFFFFFFFFFFFFFFFFFFFFFFFFFFFFFFFFFFFFFF AND SUB PUSH2 0x1ED1 JUMPI PUSH1 0x40 MLOAD PUSH32 0x8C379A000000000000000000000000000000000000000000000000000000000 DUP2 MSTORE PUSH1 0x4 ADD PUSH2 0x1EC8 SWAP1 PUSH2 0x3AA9 JUMP JUMPDEST PUSH1 0x40 MLOAD DUP1 SWAP2 SUB SWAP1 REVERT JUMPDEST PUSH0 PUSH20 0xFFFFFFFFFFFFFFFFFFFFFFFFFFFFFFFFFFFFFFFF AND DUP7 PUSH1 0x40 ADD PUSH1 0x20 DUP2 ADD SWAP1 PUSH2 0x1EFB SWAP2 SWAP1 PUSH2 0x2EDE JUMP JUMPDEST PUSH20 0xFFFFFFFFFFFFFFFFFFFFFFFFFFFFFFFFFFFFFFFF AND SUB PUSH2 0x1F51 JUMPI PUSH1 0x40 MLOAD PUSH32 0x8C379A000000000000000000000000000000000000000000000000000000000 DUP2 MSTORE PUSH1 0x4 ADD PUSH2 0x1F48 SWAP1 PUSH2 0x3B11 JUMP JUMPDEST PUSH1 0x40 MLOAD DUP1 SWAP2 SUB SWAP1 REVERT JUMPDEST PUSH0 PUSH20 0xFFFFFFFFFFFFFFFFFFFFFFFFFFFFFFFFFFFFFFFF AND DUP7 PUSH1 0x60 ADD PUSH1 0x20 DUP2 ADD SWAP1 PUSH2 0x1F7B SWAP2 SWAP1 PUSH2 0x2EDE JUMP JUMPDEST PUSH20 0xFFFFFFFFFFFFFFFFFFFFFFFFFFFFFFFFFFFFFFFF AND SUB PUSH2 0x1FD1 JUMPI PUSH1 0x40 MLOAD PUSH32 0x8C379A000000000000000000000000000000000000000000000000000000000 DUP2 MSTORE PUSH1 0x4 ADD PUSH2 0x1FC8 SWAP1 PUSH2 0x3B79 JUMP JUMPDEST PUSH1 0x40 MLOAD DUP1 SWAP2 SUB SWAP1 REVERT JUMPDEST PUSH0 PUSH20 0xFFFFFFFFFFFFFFFFFFFFFFFFFFFFFFFFFFFFFFFF AND DUP7 PUSH1 0x80 ADD PUSH1 0x20 DUP2 ADD SWAP1 PUSH2 0x1FFB SWAP2 SWAP1 PUSH2 0x2EDE JUMP JUMPDEST PUSH20 0xFFFFFFFFFFFFFFFFFFFFFFFFFFFFFFFFFFFFFFFF AND SUB PUSH2 0x2051 JUMPI PUSH1 0x40 MLOAD PUSH32 0x8C379A000000000000000000000000000000000000000000000000000000000 DUP2 MSTORE PUSH1 0x4 ADD PUSH2 0x2048 SWAP1 PUSH2 0x3BE1 JUMP JUMPDEST PUSH1 0x40 MLOAD DUP1 SWAP2 SUB SWAP1 REVERT JUMPDEST PUSH0 PUSH20 0xFFFFFFFFFFFFFFFFFFFFFFFFFFFFFFFFFFFFFFFF AND DUP7 PUSH1 0xA0 ADD PUSH1 0x20 DUP2 ADD SWAP1 PUSH2 0x207B SWAP2 SWAP1 PUSH2 0x2EDE JUMP JUMPDEST PUSH20 0xFFFFFFFFFFFFFFFFFFFFFFFFFFFFFFFFFFFFFFFF AND SUB PUSH2 0x20D1 JUMPI PUSH1 0x40 MLOAD PUSH32 0x8C379A000000000000000000000000000000000000000000000000000000000 DUP2 MSTORE PUSH1 0x4 ADD PUSH2 0x20C8 SWAP1 PUSH2 0x3C49 JUMP JUMPDEST PUSH1 0x40 MLOAD DUP1 SWAP2 SUB SWAP1 REVERT JUMPDEST PUSH0 DUP7 PUSH2 0x120 ADD CALLDATALOAD GT PUSH2 0x2118 JUMPI PUSH1 0x40 MLOAD PUSH32 0x8C379A000000000000000000000000000000000000000000000000000000000 DUP2 MSTORE PUSH1 0x4 ADD PUSH2 0x210F SWAP1 PUSH2 0x3CB1 JUMP JUMPDEST PUSH1 0x40 MLOAD DUP1 SWAP2 SUB SWAP1 REVERT JUMPDEST PUSH2 0x2710 DUP7 PUSH1 0xE0 ADD CALLDATALOAD GT ISZERO PUSH2 0x2161 JUMPI PUSH1 0x40 MLOAD PUSH32 0x8C379A000000000000000000000000000000000000000000000000000000000 DUP2 MSTORE PUSH1 0x4 ADD PUSH2 0x2158 SWAP1 PUSH2 0x3D19 JUMP JUMPDEST PUSH1 0x40 MLOAD DUP1 SWAP2 SUB SWAP1 REVERT JUMPDEST PUSH2 0x2710 DUP7 PUSH2 0x140 ADD CALLDATALOAD GT ISZERO PUSH2 0x21AB JUMPI PUSH1 0x40 MLOAD PUSH32 0x8C379A000000000000000000000000000000000000000000000000000000000 DUP2 MSTORE PUSH1 0x4 ADD PUSH2 0x21A2 SWAP1 PUSH2 0x3D81 JUMP JUMPDEST PUSH1 0x40 MLOAD DUP1 SWAP2 SUB SWAP1 REVERT JUMPDEST PUSH2 0x21C5 DUP7 PUSH0 ADD PUSH1 0x20 DUP2 ADD SWAP1 PUSH2 0x21C0 SWAP2 SWAP1 PUSH2 0x2EDE JUMP JUMPDEST PUSH2 0x2C7D JUMP JUMPDEST DUP6 PUSH1 0x20 ADD PUSH1 0x20 DUP2 ADD SWAP1 PUSH2 0x21D8 SWAP2 SWAP1 PUSH2 0x2EDE JUMP JUMPDEST PUSH1 0x6 PUSH0 PUSH2 0x100 EXP DUP2 SLOAD DUP2 PUSH20 0xFFFFFFFFFFFFFFFFFFFFFFFFFFFFFFFFFFFFFFFF MUL NOT AND SWAP1 DUP4 PUSH20 0xFFFFFFFFFFFFFFFFFFFFFFFFFFFFFFFFFFFFFFFF AND MUL OR SWAP1 SSTORE POP DUP6 PUSH1 0x40 ADD PUSH1 0x20 DUP2 ADD SWAP1 PUSH2 0x222A SWAP2 SWAP1 PUSH2 0x2EDE JUMP JUMPDEST PUSH1 0x1 PUSH0 PUSH2 0x100 EXP DUP2 SLOAD DUP2 PUSH20 0xFFFFFFFFFFFFFFFFFFFFFFFFFFFFFFFFFFFFFFFF MUL NOT AND SWAP1 DUP4 PUSH20 0xFFFFFFFFFFFFFFFFFFFFFFFFFFFFFFFFFFFFFFFF AND MUL OR SWAP1 SSTORE POP DUP6 PUSH1 0x60 ADD PUSH1 0x20 DUP2 ADD SWAP1 PUSH2 0x227C SWAP2 SWAP1 PUSH2 0x2EDE JUMP JUMPDEST PUSH1 0x2 PUSH0 PUSH2 0x100 EXP DUP2 SLOAD DUP2 PUSH20 0xFFFFFFFFFFFFFFFFFFFFFFFFFFFFFFFFFFFFFFFF MUL NOT AND SWAP1 DUP4 PUSH20 0xFFFFFFFFFFFFFFFFFFFFFFFFFFFFFFFFFFFFFFFF AND MUL OR SWAP1 SSTORE POP DUP6 PUSH1 0x80 ADD PUSH1 0x20 DUP2 ADD SWAP1 PUSH2 0x22CE SWAP2 SWAP1 PUSH2 0x2EDE JUMP JUMPDEST PUSH1 0x3 PUSH0 PUSH2 0x100 EXP DUP2 SLOAD DUP2 PUSH20 0xFFFFFFFFFFFFFFFFFFFFFFFFFFFFFFFFFFFFFFFF MUL NOT AND SWAP1 DUP4 PUSH20 0xFFFFFFFFFFFFFFFFFFFFFFFFFFFFFFFFFFFFFFFF AND MUL OR SWAP1 SSTORE POP DUP6 PUSH1 0xA0 ADD PUSH1 0x20 DUP2 ADD SWAP1 PUSH2 0x2320 SWAP2 SWAP1 PUSH2 0x2EDE JUMP JUMPDEST PUSH1 0x7 PUSH0 PUSH2 0x100 EXP DUP2 SLOAD DUP2 PUSH20 0xFFFFFFFFFFFFFFFFFFFFFFFFFFFFFFFFFFFFFFFF MUL NOT AND SWAP1 DUP4 PUSH20 0xFFFFFFFFFFFFFFFFFFFFFFFFFFFFFFFFFFFFFFFF AND MUL OR SWAP1 SSTORE POP DUP6 PUSH1 0xC0 ADD PUSH1 0x20 DUP2 ADD SWAP1 PUSH2 0x2372 SWAP2 SWAP1 PUSH2 0x2EDE JUMP JUMPDEST PUSH1 0x8 PUSH0 PUSH2 0x100 EXP DUP2 SLOAD DUP2 PUSH20 0xFFFFFFFFFFFFFFFFFFFFFFFFFFFFFFFFFFFFFFFF MUL NOT AND SWAP1 DUP4 PUSH20 0xFFFFFFFFFFFFFFFFFFFFFFFFFFFFFFFFFFFFFFFF AND MUL OR SWAP1 SSTORE POP DUP5 DUP5 PUSH1 0x4 SWAP2 DUP3 PUSH2 0x23C2 SWAP3 SWAP2 SWAP1 PUSH2 0x3F6D JUMP JUMPDEST POP DUP3 DUP3 PUSH1 0x5 SWAP2 DUP3 PUSH2 0x23D4 SWAP3 SWAP2 SWAP1 PUSH2 0x3F6D JUMP JUMPDEST POP DUP6 PUSH1 0xE0 ADD CALLDATALOAD PUSH1 0x9 DUP2 SWAP1 SSTORE POP DUP6 PUSH2 0x100 ADD CALLDATALOAD PUSH1 0xC DUP2 SWAP1 SSTORE POP DUP6 PUSH2 0x120 ADD CALLDATALOAD PUSH1 0xD DUP2 SWAP1 SSTORE POP DUP6 PUSH2 0x140 ADD CALLDATALOAD PUSH1 0xA DUP2 SWAP1 SSTORE POP PUSH2 0xBB8 PUSH1 0xB DUP2 SWAP1 SSTORE POP PUSH8 0xDE0B6B3A7640000 PUSH1 0xE DUP2 SWAP1 SSTORE POP NUMBER PUSH1 0xF DUP2 SWAP1 SSTORE POP DUP1 ISZERO PUSH2 0x2443 JUMPI PUSH0 PUSH0 PUSH1 0x1 PUSH2 0x100 EXP DUP2 SLOAD DUP2 PUSH1 0xFF MUL NOT AND SWAP1 DUP4 ISZERO ISZERO MUL OR SWAP1 SSTORE POP JUMPDEST POP POP POP POP POP POP JUMP JUMPDEST PUSH1 0x2 PUSH0 SWAP1 SLOAD SWAP1 PUSH2 0x100 EXP SWAP1 DIV PUSH20 0xFFFFFFFFFFFFFFFFFFFFFFFFFFFFFFFFFFFFFFFF AND DUP2 JUMP JUMPDEST PUSH1 0x9 SLOAD DUP2 JUMP JUMPDEST PUSH0 DUP2 GT PUSH2 0x24B8 JUMPI PUSH1 0x40 MLOAD PUSH32 0x8C379A000000000000000000000000000000000000000000000000000000000 DUP2 MSTORE PUSH1 0x4 ADD PUSH2 0x24AF SWAP1 PUSH2 0x36CD JUMP JUMPDEST PUSH1 0x40 MLOAD DUP1 SWAP2 SUB SWAP1 REVERT JUMPDEST PUSH2 0x24C0 PUSH2 0x1D12 JUMP JUMPDEST PUSH2 0x24C8 PUSH2 0x1B6E JUMP JUMPDEST DUP2 GT ISZERO PUSH2 0x250A JUMPI PUSH1 0x40 MLOAD PUSH32 0x8C379A000000000000000000000000000000000000000000000000000000000 DUP2 MSTORE PUSH1 0x4 ADD PUSH2 0x2501 SWAP1 PUSH2 0x3805 JUMP JUMPDEST PUSH1 0x40 MLOAD DUP1 SWAP2 SUB SWAP1 REVERT JUMPDEST PUSH0 PUSH1 0x12 PUSH0 CALLER PUSH20 0xFFFFFFFFFFFFFFFFFFFFFFFFFFFFFFFFFFFFFFFF AND PUSH20 0xFFFFFFFFFFFFFFFFFFFFFFFFFFFFFFFFFFFFFFFF AND DUP2 MSTORE PUSH1 0x20 ADD SWAP1 DUP2 MSTORE PUSH1 0x20 ADD PUSH0 KECCAK256 SWAP1 POP PUSH0 PUSH2 0x2554 DUP4 PUSH2 0x2CF7 JUMP JUMPDEST SWAP1 POP DUP1 DUP3 PUSH1 0x1 ADD PUSH0 DUP3 DUP3 SLOAD PUSH2 0x2569 SWAP2 SWAP1 PUSH2 0x3720 JUMP JUMPDEST SWAP3 POP POP DUP2 SWAP1 SSTORE POP DUP3 DUP3 PUSH1 0x2 ADD PUSH0 DUP3 DUP3 SLOAD PUSH2 0x2583 SWAP2 SWAP1 PUSH2 0x3720 JUMP JUMPDEST SWAP3 POP POP DUP2 SWAP1 SSTORE POP DUP1 PUSH1 0x10 PUSH0 DUP3 DUP3 SLOAD PUSH2 0x259B SWAP2 SWAP1 PUSH2 0x3720 JUMP JUMPDEST SWAP3 POP POP DUP2 SWAP1 SSTORE POP PUSH2 0x25AB CALLER PUSH2 0x296C JUMP JUMPDEST PUSH2 0x25EA JUMPI PUSH1 0x40 MLOAD PUSH32 0x8C379A000000000000000000000000000000000000000000000000000000000 DUP2 MSTORE PUSH1 0x4 ADD PUSH2 0x25E1 SWAP1 PUSH2 0x4084 JUMP JUMPDEST PUSH1 0x40 MLOAD DUP1 SWAP2 SUB SWAP1 REVERT JUMPDEST PUSH1 0x1 PUSH0 SWAP1 SLOAD SWAP1 PUSH2 0x100 EXP SWAP1 DIV PUSH20 0xFFFFFFFFFFFFFFFFFFFFFFFFFFFFFFFFFFFFFFFF AND PUSH20 0xFFFFFFFFFFFFFFFFFFFFFFFFFFFFFFFFFFFFFFFF AND PUSH4 0xA9059CBB CALLER DUP6 PUSH1 0x40 MLOAD DUP4 PUSH4 0xFFFFFFFF AND PUSH1 0xE0 SHL DUP2 MSTORE PUSH1 0x4 ADD PUSH2 0x2646 SWAP3 SWAP2 SWAP1 PUSH2 0x3505 JUMP JUMPDEST PUSH1 0x20 PUSH1 0x40 MLOAD DUP1 DUP4 SUB DUP2 PUSH0 DUP8 GAS CALL ISZERO DUP1 ISZERO PUSH2 0x2662 JUMPI RETURNDATASIZE PUSH0 PUSH0 RETURNDATACOPY RETURNDATASIZE PUSH0 REVERT JUMPDEST POP POP POP POP PUSH1 0x40 MLOAD RETURNDATASIZE PUSH1 0x1F NOT PUSH1 0x1F DUP3 ADD AND DUP3 ADD DUP1 PUSH1 0x40 MSTORE POP DUP2 ADD SWAP1 PUSH2 0x2686 SWAP2 SWAP1 PUSH2 0x3561 JUMP JUMPDEST POP POP POP POP JUMP JUMPDEST PUSH0 PUSH2 0x2695 PUSH2 0x292E JUMP JUMPDEST PUSH2 0x269D PUSH2 0x1B6E JUMP JUMPDEST PUSH2 0x26A7 SWAP2 SWAP1 PUSH2 0x3720 JUMP JUMPDEST SWAP1 POP SWAP1 JUMP JUMPDEST PUSH0 PUSH1 0x2 SWAP1 SLOAD SWAP1 PUSH2 0x100 EXP SWAP1 DIV PUSH20 0xFFFFFFFFFFFFFFFFFFFFFFFFFFFFFFFFFFFFFFFF AND PUSH20 0xFFFFFFFFFFFFFFFFFFFFFFFFFFFFFFFFFFFFFFFF AND CALLER PUSH20 0xFFFFFFFFFFFFFFFFFFFFFFFFFFFFFFFFFFFFFFFF AND EQ PUSH2 0x2704 JUMPI PUSH0 PUSH0 REVERT JUMPDEST PUSH2 0x2710 DUP4 GT ISZERO PUSH2 0x2749 JUMPI PUSH1 0x40 MLOAD PUSH32 0x8C379A000000000000000000000000000000000000000000000000000000000 DUP2 MSTORE PUSH1 0x4 ADD PUSH2 0x2740 SWAP1 PUSH2 0x3D19 JUMP JUMPDEST PUSH1 0x40 MLOAD DUP1 SWAP2 SUB SWAP1 REVERT JUMPDEST PUSH2 0x2710 DUP2 GT ISZERO PUSH2 0x278E JUMPI PUSH1 0x40 MLOAD PUSH32 0x8C379A000000000000000000000000000000000000000000000000000000000 DUP2 MSTORE PUSH1 0x4 ADD PUSH2 0x2785 SWAP1 PUSH2 0x3D81 JUMP JUMPDEST PUSH1 0x40 MLOAD DUP1 SWAP2 SUB SWAP1 REVERT JUMPDEST PUSH2 0x2796 PUSH2 0x1D12 JUMP JUMPDEST DUP3 PUSH1 0x9 DUP2 SWAP1 SSTORE POP DUP2 PUSH1 0xC DUP2 SWAP1 SSTORE POP DUP1 PUSH1 0xA DUP2 SWAP1 SSTORE POP POP POP POP JUMP JUMPDEST PUSH0 PUSH0 PUSH1 0x12 PUSH0 DUP5 PUSH20 0xFFFFFFFFFFFFFFFFFFFFFFFFFFFFFFFFFFFFFFFF AND PUSH20 0xFFFFFFFFFFFFFFFFFFFFFFFFFFFFFFFFFFFFFFFF AND DUP2 MSTORE PUSH1 0x20 ADD SWAP1 DUP2 MSTORE PUSH1 0x20 ADD PUSH0 KECCAK256 PUSH1 0x1 ADD SLOAD SWAP1 POP PUSH0 DUP2 EQ PUSH2 0x2827 JUMPI PUSH8 0xDE0B6B3A7640000 PUSH2 0x280D PUSH2 0x2D2C JUMP JUMPDEST DUP3 PUSH2 0x2818 SWAP2 SWAP1 PUSH2 0x3434 JUMP JUMPDEST PUSH2 0x2822 SWAP2 SWAP1 PUSH2 0x34A2 JUMP JUMPDEST PUSH2 0x2829 JUMP JUMPDEST PUSH0 JUMPDEST SWAP2 POP POP SWAP2 SWAP1 POP JUMP JUMPDEST PUSH0 PUSH1 0x2 SWAP1 SLOAD SWAP1 PUSH2 0x100 EXP SWAP1 DIV PUSH20 0xFFFFFFFFFFFFFFFFFFFFFFFFFFFFFFFFFFFFFFFF AND PUSH20 0xFFFFFFFFFFFFFFFFFFFFFFFFFFFFFFFFFFFFFFFF AND CALLER PUSH20 0xFFFFFFFFFFFFFFFFFFFFFFFFFFFFFFFFFFFFFFFF AND EQ PUSH2 0x2889 JUMPI PUSH0 PUSH0 REVERT JUMPDEST PUSH0 PUSH20 0xFFFFFFFFFFFFFFFFFFFFFFFFFFFFFFFFFFFFFFFF AND DUP2 PUSH20 0xFFFFFFFFFFFFFFFFFFFFFFFFFFFFFFFFFFFFFFFF AND SUB PUSH2 0x28C0 JUMPI PUSH0 PUSH0 REVERT JUMPDEST DUP1 PUSH0 PUSH1 0x2 PUSH2 0x100 EXP DUP2 SLOAD DUP2 PUSH20 0xFFFFFFFFFFFFFFFFFFFFFFFFFFFFFFFFFFFFFFFF MUL NOT AND SWAP1 DUP4 PUSH20 0xFFFFFFFFFFFFFFFFFFFFFFFFFFFFFFFFFFFFFFFF AND MUL OR SWAP1 SSTORE POP POP JUMP JUMPDEST PUSH1 0x11 SLOAD DUP2 JUMP JUMPDEST PUSH1 0x6 PUSH0 SWAP1 SLOAD SWAP1 PUSH2 0x100 EXP SWAP1 DIV PUSH20 0xFFFFFFFFFFFFFFFFFFFFFFFFFFFFFFFFFFFFFFFF AND DUP2 JUMP JUMPDEST PUSH0 PUSH0 PUSH1 0x10 SLOAD EQ PUSH2 0x2965 JUMPI PUSH8 0xDE0B6B3A7640000 PUSH2 0x2949 PUSH2 0x2D2C JUMP JUMPDEST PUSH1 0x10 SLOAD PUSH2 0x2956 SWAP2 SWAP1 PUSH2 0x3434 JUMP JUMPDEST PUSH2 0x2960 SWAP2 SWAP1 PUSH2 0x34A2 JUMP JUMPDEST PUSH2 0x2967 JUMP JUMPDEST PUSH0 JUMPDEST SWAP1 POP SWAP1 JUMP JUMPDEST PUSH0 PUSH1 0x9 SLOAD PUSH2 0x2979 DUP4 PUSH2 0x19BE JUMP JUMPDEST LT SWAP1 POP SWAP2 SWAP1 POP JUMP JUMPDEST PUSH0 PUSH0 PUSH32 0x360894A13BA1A3210667C828492DB98DCA3E2076CC3735A920A3CA505D382BBC PUSH0 SHL SWAP1 POP DUP1 SLOAD SWAP2 POP POP SWAP1 JUMP JUMPDEST PUSH0 PUSH1 0x2 SWAP1 SLOAD SWAP1 PUSH2 0x100 EXP SWAP1 DIV PUSH20 0xFFFFFFFFFFFFFFFFFFFFFFFFFFFFFFFFFFFFFFFF AND PUSH20 0xFFFFFFFFFFFFFFFFFFFFFFFFFFFFFFFFFFFFFFFF AND CALLER PUSH20 0xFFFFFFFFFFFFFFFFFFFFFFFFFFFFFFFFFFFFFFFF AND EQ PUSH2 0x2A08 JUMPI PUSH0 PUSH0 REVERT JUMPDEST POP JUMP JUMPDEST PUSH0 PUSH20 0xFFFFFFFFFFFFFFFFFFFFFFFFFFFFFFFFFFFFFFFF AND DUP4 PUSH20 0xFFFFFFFFFFFFFFFFFFFFFFFFFFFFFFFFFFFFFFFF AND SUB PUSH2 0x2A79 JUMPI PUSH1 0x40 MLOAD PUSH32 0x8C379A000000000000000000000000000000000000000000000000000000000 DUP2 MSTORE PUSH1 0x4 ADD PUSH2 0x2A70 SWAP1 PUSH2 0x40EC JUMP JUMPDEST PUSH1 0x40 MLOAD DUP1 SWAP2 SUB SWAP1 REVERT JUMPDEST PUSH2 0x2A82 DUP4 PUSH2 0x2DAA JUMP JUMPDEST DUP1 DUP1 PUSH2 0x2A8E JUMPI POP PUSH0 DUP3 MLOAD GT JUMPDEST ISZERO PUSH2 0x2B43 JUMPI PUSH0 PUSH0 DUP5 PUSH20 0xFFFFFFFFFFFFFFFFFFFFFFFFFFFFFFFFFFFFFFFF AND DUP5 PUSH1 0x40 MLOAD PUSH2 0x2ABA SWAP2 SWAP1 PUSH2 0x414E JUMP JUMPDEST PUSH0 PUSH1 0x40 MLOAD DUP1 DUP4 SUB DUP2 DUP6 GAS DELEGATECALL SWAP2 POP POP RETURNDATASIZE DUP1 PUSH0 DUP2 EQ PUSH2 0x2AF2 JUMPI PUSH1 0x40 MLOAD SWAP2 POP PUSH1 0x1F NOT PUSH1 0x3F RETURNDATASIZE ADD AND DUP3 ADD PUSH1 0x40 MSTORE RETURNDATASIZE DUP3 MSTORE RETURNDATASIZE PUSH0 PUSH1 0x20 DUP5 ADD RETURNDATACOPY PUSH2 0x2AF7 JUMP JUMPDEST PUSH1 0x60 SWAP2 POP JUMPDEST POP SWAP2 POP SWAP2 POP DUP2 DUP2 SWAP1 PUSH2 0x2B3F JUMPI PUSH1 0x40 MLOAD PUSH32 0x8C379A000000000000000000000000000000000000000000000000000000000 DUP2 MSTORE PUSH1 0x4 ADD PUSH2 0x2B36 SWAP2 SWAP1 PUSH2 0x2FF6 JUMP JUMPDEST PUSH1 0x40 MLOAD DUP1 SWAP2 SUB SWAP1 REVERT JUMPDEST POP POP POP JUMPDEST POP POP POP JUMP JUMPDEST PUSH0 PUSH0 DUP3 PUSH20 0xFFFFFFFFFFFFFFFFFFFFFFFFFFFFFFFFFFFFFFFF AND PUSH4 0x313CE567 PUSH1 0x40 MLOAD DUP2 PUSH4 0xFFFFFFFF AND PUSH1 0xE0 SHL DUP2 MSTORE PUSH1 0x4 ADD PUSH1 0x20 PUSH1 0x40 MLOAD DUP1 DUP4 SUB DUP2 DUP7 GAS STATICCALL ISZERO DUP1 ISZERO PUSH2 0x2B93 JUMPI RETURNDATASIZE PUSH0 PUSH0 RETURNDATACOPY RETURNDATASIZE PUSH0 REVERT JUMPDEST POP POP POP POP PUSH1 0x40 MLOAD RETURNDATASIZE PUSH1 0x1F NOT PUSH1 0x1F DUP3 ADD AND DUP3 ADD DUP1 PUSH1 0x40 MSTORE POP DUP2 ADD SWAP1 PUSH2 0x2BB7 SWAP2 SWAP1 PUSH2 0x419A JUMP JUMPDEST SWAP1 POP DUP1 PUSH1 0xA PUSH2 0x2BC6 SWAP2 SWAP1 PUSH2 0x42F4 JUMP JUMPDEST PUSH1 0x3 PUSH0 SWAP1 SLOAD SWAP1 PUSH2 0x100 EXP SWAP1 DIV PUSH20 0xFFFFFFFFFFFFFFFFFFFFFFFFFFFFFFFFFFFFFFFF AND PUSH20 0xFFFFFFFFFFFFFFFFFFFFFFFFFFFFFFFFFFFFFFFF AND PUSH4 0x41976E09 DUP6 PUSH1 0x40 MLOAD DUP3 PUSH4 0xFFFFFFFF AND PUSH1 0xE0 SHL DUP2 MSTORE PUSH1 0x4 ADD PUSH2 0x2C20 SWAP2 SWAP1 PUSH2 0x2F6D JUMP JUMPDEST PUSH1 0x20 PUSH1 0x40 MLOAD DUP1 DUP4 SUB DUP2 DUP7 GAS STATICCALL ISZERO DUP1 ISZERO PUSH2 0x2C3B JUMPI RETURNDATASIZE PUSH0 PUSH0 RETURNDATACOPY RETURNDATASIZE PUSH0 REVERT JUMPDEST POP POP POP POP PUSH1 0x40 MLOAD RETURNDATASIZE PUSH1 0x1F NOT PUSH1 0x1F DUP3 ADD AND DUP3 ADD DUP1 PUSH1 0x40 MSTORE POP DUP2 ADD SWAP1 PUSH2 0x2C5F SWAP2 SWAP1 PUSH2 0x39CC JUMP JUMPDEST DUP6 PUSH2 0x2C6A SWAP2 SWAP1 PUSH2 0x3434 JUMP JUMPDEST PUSH2 0x2C74 SWAP2 SWAP1 PUSH2 0x34A2 JUMP JUMPDEST SWAP2 POP POP SWAP3 SWAP2 POP POP JUMP JUMPDEST PUSH0 PUSH20 0xFFFFFFFFFFFFFFFFFFFFFFFFFFFFFFFFFFFFFFFF AND DUP2 PUSH20 0xFFFFFFFFFFFFFFFFFFFFFFFFFFFFFFFFFFFFFFFF AND SUB PUSH2 0x2CB4 JUMPI PUSH0 PUSH0 REVERT JUMPDEST DUP1 PUSH0 PUSH1 0x2 PUSH2 0x100 EXP DUP2 SLOAD DUP2 PUSH20 0xFFFFFFFFFFFFFFFFFFFFFFFFFFFFFFFFFFFFFFFF MUL NOT AND SWAP1 DUP4 PUSH20 0xFFFFFFFFFFFFFFFFFFFFFFFFFFFFFFFFFFFFFFFF AND MUL OR SWAP1 SSTORE POP POP JUMP JUMPDEST PUSH0 PUSH1 0xE SLOAD PUSH8 0xDE0B6B3A7640000 DUP4 PUSH2 0x2D0F SWAP2 SWAP1 PUSH2 0x3434 JUMP JUMPDEST PUSH2 0x2D19 SWAP2 SWAP1 PUSH2 0x34A2 JUMP JUMPDEST SWAP1 POP PUSH0 DUP2 SUB PUSH2 0x2D27 JUMPI PUSH1 0x1 SWAP1 POP JUMPDEST SWAP2 SWAP1 POP JUMP JUMPDEST PUSH0 PUSH1 0xE SLOAD SWAP1 POP PUSH1 0xF SLOAD NUMBER GT DUP1 ISZERO PUSH2 0x2D44 JUMPI POP PUSH0 PUSH1 0x10 SLOAD GT JUMPDEST ISZERO PUSH2 0x2DA7 JUMPI PUSH0 PUSH1 0xF SLOAD NUMBER PUSH2 0x2D58 SWAP2 SWAP1 PUSH2 0x34D2 JUMP JUMPDEST SWAP1 POP PUSH0 PUSH1 0xD SLOAD DUP3 PUSH1 0xC SLOAD PUSH2 0x2D6C SWAP2 SWAP1 PUSH2 0x3434 JUMP JUMPDEST PUSH2 0x2D76 SWAP2 SWAP1 PUSH2 0x34A2 JUMP JUMPDEST SWAP1 POP PUSH8 0xDE0B6B3A7640000 DUP2 DUP5 PUSH2 0x2D8D SWAP2 SWAP1 PUSH2 0x3434 JUMP JUMPDEST PUSH2 0x2D97 SWAP2 SWAP1 PUSH2 0x34A2 JUMP JUMPDEST DUP4 PUSH2 0x2DA2 SWAP2 SWAP1 PUSH2 0x3720 JUMP JUMPDEST SWAP3 POP POP POP JUMPDEST SWAP1 JUMP JUMPDEST PUSH0 PUSH32 0x360894A13BA1A3210667C828492DB98DCA3E2076CC3735A920A3CA505D382BBC PUSH0 SHL SWAP1 POP DUP2 DUP2 SSTORE POP POP JUMP JUMPDEST PUSH0 PUSH20 0xFFFFFFFFFFFFFFFFFFFFFFFFFFFFFFFFFFFFFFFF DUP3 AND SWAP1 POP SWAP2 SWAP1 POP JUMP JUMPDEST PUSH0 DUP2 SWAP1 POP SWAP2 SWAP1 POP JUMP JUMPDEST PUSH0 PUSH2 0x2E19 PUSH2 0x2E14 PUSH2 0x2E0F DUP5 PUSH2 0x2DD7 JUMP JUMPDEST PUSH2 0x2DF6 JUMP JUMPDEST PUSH2 0x2DD7 JUMP JUMPDEST SWAP1 POP SWAP2 SWAP1 POP JUMP JUMPDEST PUSH0 PUSH2 0x2E2A DUP3 PUSH2 0x2DFF JUMP JUMPDEST SWAP1 POP SWAP2 SWAP1 POP JUMP JUMPDEST PUSH0 PUSH2 0x2E3B DUP3 PUSH2 0x2E20 JUMP JUMPDEST SWAP1 POP SWAP2 SWAP1 POP JUMP JUMPDEST PUSH2 0x2E4B DUP2 PUSH2 0x2E31 JUMP JUMPDEST DUP3 MSTORE POP POP JUMP JUMPDEST PUSH0 PUSH1 0x20 DUP3 ADD SWAP1 POP PUSH2 0x2E64 PUSH0 DUP4 ADD DUP5 PUSH2 0x2E42 JUMP JUMPDEST SWAP3 SWAP2 POP POP JUMP JUMPDEST PUSH0 DUP2 SWAP1 POP SWAP2 SWAP1 POP JUMP JUMPDEST PUSH2 0x2E7C DUP2 PUSH2 0x2E6A JUMP JUMPDEST DUP3 MSTORE POP POP JUMP JUMPDEST PUSH0 PUSH1 0x20 DUP3 ADD SWAP1 POP PUSH2 0x2E95 PUSH0 DUP4 ADD DUP5 PUSH2 0x2E73 JUMP JUMPDEST SWAP3 SWAP2 POP POP JUMP JUMPDEST PUSH0 PUSH0 REVERT JUMPDEST PUSH0 PUSH0 REVERT JUMPDEST PUSH0 PUSH2 0x2EAD DUP3 PUSH2 0x2DD7 JUMP JUMPDEST SWAP1 POP SWAP2 SWAP1 POP JUMP JUMPDEST PUSH2 0x2EBD DUP2 PUSH2 0x2EA3 JUMP JUMPDEST DUP2 EQ PUSH2 0x2EC7 JUMPI PUSH0 PUSH0 REVERT JUMPDEST POP JUMP JUMPDEST PUSH0 DUP2 CALLDATALOAD SWAP1 POP PUSH2 0x2ED8 DUP2 PUSH2 0x2EB4 JUMP JUMPDEST SWAP3 SWAP2 POP POP JUMP JUMPDEST PUSH0 PUSH1 0x20 DUP3 DUP5 SUB SLT ISZERO PUSH2 0x2EF3 JUMPI PUSH2 0x2EF2 PUSH2 0x2E9B JUMP JUMPDEST JUMPDEST PUSH0 PUSH2 0x2F00 DUP5 DUP3 DUP6 ADD PUSH2 0x2ECA JUMP JUMPDEST SWAP2 POP POP SWAP3 SWAP2 POP POP JUMP JUMPDEST PUSH2 0x2F12 DUP2 PUSH2 0x2E6A JUMP JUMPDEST DUP2 EQ PUSH2 0x2F1C JUMPI PUSH0 PUSH0 REVERT JUMPDEST POP JUMP JUMPDEST PUSH0 DUP2 CALLDATALOAD SWAP1 POP PUSH2 0x2F2D DUP2 PUSH2 0x2F09 JUMP JUMPDEST SWAP3 SWAP2 POP POP JUMP JUMPDEST PUSH0 PUSH1 0x20 DUP3 DUP5 SUB SLT ISZERO PUSH2 0x2F48 JUMPI PUSH2 0x2F47 PUSH2 0x2E9B JUMP JUMPDEST JUMPDEST PUSH0 PUSH2 0x2F55 DUP5 DUP3 DUP6 ADD PUSH2 0x2F1F JUMP JUMPDEST SWAP2 POP POP SWAP3 SWAP2 POP POP JUMP JUMPDEST PUSH2 0x2F67 DUP2 PUSH2 0x2EA3 JUMP JUMPDEST DUP3 MSTORE POP POP JUMP JUMPDEST PUSH0 PUSH1 0x20 DUP3 ADD SWAP1 POP PUSH2 0x2F80 PUSH0 DUP4 ADD DUP5 PUSH2 0x2F5E JUMP JUMPDEST SWAP3 SWAP2 POP POP JUMP JUMPDEST PUSH0 DUP2 MLOAD SWAP1 POP SWAP2 SWAP1 POP JUMP JUMPDEST PUSH0 DUP3 DUP3 MSTORE PUSH1 0x20 DUP3 ADD SWAP1 POP SWAP3 SWAP2 POP POP JUMP JUMPDEST DUP3 DUP2 DUP4 MCOPY PUSH0 DUP4 DUP4 ADD MSTORE POP POP POP JUMP JUMPDEST PUSH0 PUSH1 0x1F NOT PUSH1 0x1F DUP4 ADD AND SWAP1 POP SWAP2 SWAP1 POP JUMP JUMPDEST PUSH0 PUSH2 0x2FC8 DUP3 PUSH2 0x2F86 JUMP JUMPDEST PUSH2 0x2FD2 DUP2 DUP6 PUSH2 0x2F90 JUMP JUMPDEST SWAP4 POP PUSH2 0x2FE2 DUP2 DUP6 PUSH1 0x20 DUP7 ADD PUSH2 0x2FA0 JUMP JUMPDEST PUSH2 0x2FEB DUP2 PUSH2 0x2FAE JUMP JUMPDEST DUP5 ADD SWAP2 POP POP SWAP3 SWAP2 POP POP JUMP JUMPDEST PUSH0 PUSH1 0x20 DUP3 ADD SWAP1 POP DUP2 DUP2 SUB PUSH0 DUP4 ADD MSTORE PUSH2 0x300E DUP2 DUP5 PUSH2 0x2FBE JUMP JUMPDEST SWAP1 POP SWAP3 SWAP2 POP POP JUMP JUMPDEST PUSH0 PUSH0 REVERT JUMPDEST PUSH0 PUSH0 REVERT JUMPDEST PUSH0 PUSH0 REVERT JUMPDEST PUSH0 PUSH0 DUP4 PUSH1 0x1F DUP5 ADD SLT PUSH2 0x3037 JUMPI PUSH2 0x3036 PUSH2 0x3016 JUMP JUMPDEST JUMPDEST DUP3 CALLDATALOAD SWAP1 POP PUSH8 0xFFFFFFFFFFFFFFFF DUP2 GT ISZERO PUSH2 0x3054 JUMPI PUSH2 0x3053 PUSH2 0x301A JUMP JUMPDEST JUMPDEST PUSH1 0x20 DUP4 ADD SWAP2 POP DUP4 PUSH1 0x1 DUP3 MUL DUP4 ADD GT ISZERO PUSH2 0x3070 JUMPI PUSH2 0x306F PUSH2 0x301E JUMP JUMPDEST JUMPDEST SWAP3 POP SWAP3 SWAP1 POP JUMP JUMPDEST PUSH0 PUSH0 PUSH0 PUSH1 0x40 DUP5 DUP7 SUB SLT ISZERO PUSH2 0x308E JUMPI PUSH2 0x308D PUSH2 0x2E9B JUMP JUMPDEST JUMPDEST PUSH0 PUSH2 0x309B DUP7 DUP3 DUP8 ADD PUSH2 0x2ECA JUMP JUMPDEST SWAP4 POP POP PUSH1 0x20 DUP5 ADD CALLDATALOAD PUSH8 0xFFFFFFFFFFFFFFFF DUP2 GT ISZERO PUSH2 0x30BC JUMPI PUSH2 0x30BB PUSH2 0x2E9F JUMP JUMPDEST JUMPDEST PUSH2 0x30C8 DUP7 DUP3 DUP8 ADD PUSH2 0x3022 JUMP JUMPDEST SWAP3 POP SWAP3 POP POP SWAP3 POP SWAP3 POP SWAP3 JUMP JUMPDEST PUSH0 DUP2 SWAP1 POP SWAP2 SWAP1 POP JUMP JUMPDEST PUSH2 0x30E6 DUP2 PUSH2 0x30D4 JUMP JUMPDEST DUP3 MSTORE POP POP JUMP JUMPDEST PUSH0 PUSH1 0x20 DUP3 ADD SWAP1 POP PUSH2 0x30FF PUSH0 DUP4 ADD DUP5 PUSH2 0x30DD JUMP JUMPDEST SWAP3 SWAP2 POP POP JUMP JUMPDEST PUSH0 PUSH1 0x60 DUP3 ADD SWAP1 POP PUSH2 0x3118 PUSH0 DUP4 ADD DUP7 PUSH2 0x2E73 JUMP JUMPDEST PUSH2 0x3125 PUSH1 0x20 DUP4 ADD DUP6 PUSH2 0x2E73 JUMP JUMPDEST PUSH2 0x3132 PUSH1 0x40 DUP4 ADD DUP5 PUSH2 0x2E73 JUMP JUMPDEST SWAP5 SWAP4 POP POP POP POP JUMP JUMPDEST PUSH0 PUSH2 0x3144 DUP3 PUSH2 0x2E20 JUMP JUMPDEST SWAP1 POP SWAP2 SWAP1 POP JUMP JUMPDEST PUSH2 0x3154 DUP2 PUSH2 0x313A JUMP JUMPDEST DUP3 MSTORE POP POP JUMP JUMPDEST PUSH0 PUSH1 0x20 DUP3 ADD SWAP1 POP PUSH2 0x316D PUSH0 DUP4 ADD DUP5 PUSH2 0x314B JUMP JUMPDEST SWAP3 SWAP2 POP POP JUMP JUMPDEST PUSH0 PUSH0 REVERT JUMPDEST PUSH0 PUSH2 0x160 DUP3 DUP5 SUB SLT ISZERO PUSH2 0x318D JUMPI PUSH2 0x318C PUSH2 0x3173 JUMP JUMPDEST JUMPDEST DUP2 SWAP1 POP SWAP3 SWAP2 POP POP JUMP JUMPDEST PUSH0 PUSH0 DUP4 PUSH1 0x1F DUP5 ADD SLT PUSH2 0x31AB JUMPI PUSH2 0x31AA PUSH2 0x3016 JUMP JUMPDEST JUMPDEST DUP3 CALLDATALOAD SWAP1 POP PUSH8 0xFFFFFFFFFFFFFFFF DUP2 GT ISZERO PUSH2 0x31C8 JUMPI PUSH2 0x31C7 PUSH2 0x301A JUMP JUMPDEST JUMPDEST PUSH1 0x20 DUP4 ADD SWAP2 POP DUP4 PUSH1 0x1 DUP3 MUL DUP4 ADD GT ISZERO PUSH2 0x31E4 JUMPI PUSH2 0x31E3 PUSH2 0x301E JUMP JUMPDEST JUMPDEST SWAP3 POP SWAP3 SWAP1 POP JUMP JUMPDEST PUSH0 PUSH0 PUSH0 PUSH0 PUSH0 PUSH2 0x1A0 DUP7 DUP9 SUB SLT ISZERO PUSH2 0x3205 JUMPI PUSH2 0x3204 PUSH2 0x2E9B JUMP JUMPDEST JUMPDEST PUSH0 PUSH2 0x3212 DUP9 DUP3 DUP10 ADD PUSH2 0x3177 JUMP JUMPDEST SWAP6 POP POP PUSH2 0x160 DUP7 ADD CALLDATALOAD PUSH8 0xFFFFFFFFFFFFFFFF DUP2 GT ISZERO PUSH2 0x3234 JUMPI PUSH2 0x3233 PUSH2 0x2E9F JUMP JUMPDEST JUMPDEST PUSH2 0x3240 DUP9 DUP3 DUP10 ADD PUSH2 0x3196 JUMP JUMPDEST SWAP5 POP SWAP5 POP POP PUSH2 0x180 DUP7 ADD CALLDATALOAD PUSH8 0xFFFFFFFFFFFFFFFF DUP2 GT ISZERO PUSH2 0x3264 JUMPI PUSH2 0x3263 PUSH2 0x2E9F JUMP JUMPDEST JUMPDEST PUSH2 0x3270 DUP9 DUP3 DUP10 ADD PUSH2 0x3196 JUMP JUMPDEST SWAP3 POP SWAP3 POP POP SWAP3 SWAP6 POP SWAP3 SWAP6 SWAP1 SWAP4 POP JUMP JUMPDEST PUSH0 PUSH0 PUSH0 PUSH1 0x60 DUP5 DUP7 SUB SLT ISZERO PUSH2 0x3296 JUMPI PUSH2 0x3295 PUSH2 0x2E9B JUMP JUMPDEST JUMPDEST PUSH0 PUSH2 0x32A3 DUP7 DUP3 DUP8 ADD PUSH2 0x2F1F JUMP JUMPDEST SWAP4 POP POP PUSH1 0x20 PUSH2 0x32B4 DUP7 DUP3 DUP8 ADD PUSH2 0x2F1F JUMP JUMPDEST SWAP3 POP POP PUSH1 0x40 PUSH2 0x32C5 DUP7 DUP3 DUP8 ADD PUSH2 0x2F1F JUMP JUMPDEST SWAP2 POP POP SWAP3 POP SWAP3 POP SWAP3 JUMP JUMPDEST PUSH32 0x4E4F545F4C495155494441544F52000000000000000000000000000000000000 PUSH0 DUP3 ADD MSTORE POP JUMP JUMPDEST PUSH0 PUSH2 0x3303 PUSH1 0xE DUP4 PUSH2 0x2F90 JUMP JUMPDEST SWAP2 POP PUSH2 0x330E DUP3 PUSH2 0x32CF JUMP JUMPDEST PUSH1 0x20 DUP3 ADD SWAP1 POP SWAP2 SWAP1 POP JUMP JUMPDEST PUSH0 PUSH1 0x20 DUP3 ADD SWAP1 POP DUP2 DUP2 SUB PUSH0 DUP4 ADD MSTORE PUSH2 0x3330 DUP2 PUSH2 0x32F7 JUMP JUMPDEST SWAP1 POP SWAP2 SWAP1 POP JUMP JUMPDEST PUSH32 0x504F534954494F4E5F4845414C54485900000000000000000000000000000000 PUSH0 DUP3 ADD MSTORE POP JUMP JUMPDEST PUSH0 PUSH2 0x336B PUSH1 0x10 DUP4 PUSH2 0x2F90 JUMP JUMPDEST SWAP2 POP PUSH2 0x3376 DUP3 PUSH2 0x3337 JUMP JUMPDEST PUSH1 0x20 DUP3 ADD SWAP1 POP SWAP2 SWAP1 POP JUMP JUMPDEST PUSH0 PUSH1 0x20 DUP3 ADD SWAP1 POP DUP2 DUP2 SUB PUSH0 DUP4 ADD MSTORE PUSH2 0x3398 DUP2 PUSH2 0x335F JUMP JUMPDEST SWAP1 POP SWAP2 SWAP1 POP JUMP JUMPDEST PUSH32 0x4E4F5F4445425400000000000000000000000000000000000000000000000000 PUSH0 DUP3 ADD MSTORE POP JUMP JUMPDEST PUSH0 PUSH2 0x33D3 PUSH1 0x7 DUP4 PUSH2 0x2F90 JUMP JUMPDEST SWAP2 POP PUSH2 0x33DE DUP3 PUSH2 0x339F JUMP JUMPDEST PUSH1 0x20 DUP3 ADD SWAP1 POP SWAP2 SWAP1 POP JUMP JUMPDEST PUSH0 PUSH1 0x20 DUP3 ADD SWAP1 POP DUP2 DUP2 SUB PUSH0 DUP4 ADD MSTORE PUSH2 0x3400 DUP2 PUSH2 0x33C7 JUMP JUMPDEST SWAP1 POP SWAP2 SWAP1 POP JUMP JUMPDEST PUSH32 0x4E487B7100000000000000000000000000000000000000000000000000000000 PUSH0 MSTORE PUSH1 0x11 PUSH1 0x4 MSTORE PUSH1 0x24 PUSH0 REVERT JUMPDEST PUSH0 PUSH2 0x343E DUP3 PUSH2 0x2E6A JUMP JUMPDEST SWAP2 POP PUSH2 0x3449 DUP4 PUSH2 0x2E6A JUMP JUMPDEST SWAP3 POP DUP3 DUP3 MUL PUSH2 0x3457 DUP2 PUSH2 0x2E6A JUMP JUMPDEST SWAP2 POP DUP3 DUP3 DIV DUP5 EQ DUP4 ISZERO OR PUSH2 0x346E JUMPI PUSH2 0x346D PUSH2 0x3407 JUMP JUMPDEST JUMPDEST POP SWAP3 SWAP2 POP POP JUMP JUMPDEST PUSH32 0x4E487B7100000000000000000000000000000000000000000000000000000000 PUSH0 MSTORE PUSH1 0x12 PUSH1 0x4 MSTORE PUSH1 0x24 PUSH0 REVERT JUMPDEST PUSH0 PUSH2 0x34AC DUP3 PUSH2 0x2E6A JUMP JUMPDEST SWAP2 POP PUSH2 0x34B7 DUP4 PUSH2 0x2E6A JUMP JUMPDEST SWAP3 POP DUP3 PUSH2 0x34C7 JUMPI PUSH2 0x34C6 PUSH2 0x3475 JUMP JUMPDEST JUMPDEST DUP3 DUP3 DIV SWAP1 POP SWAP3 SWAP2 POP POP JUMP JUMPDEST PUSH0 PUSH2 0x34DC DUP3 PUSH2 0x2E6A JUMP JUMPDEST SWAP2 POP PUSH2 0x34E7 DUP4 PUSH2 0x2E6A JUMP JUMPDEST SWAP3 POP DUP3 DUP3 SUB SWAP1 POP DUP2 DUP2 GT ISZERO PUSH2 0x34FF JUMPI PUSH2 0x34FE PUSH2 0x3407 JUMP JUMPDEST JUMPDEST SWAP3 SWAP2 POP POP JUMP JUMPDEST PUSH0 PUSH1 0x40 DUP3 ADD SWAP1 POP PUSH2 0x3518 PUSH0 DUP4 ADD DUP6 PUSH2 0x2F5E JUMP JUMPDEST PUSH2 0x3525 PUSH1 0x20 DUP4 ADD DUP5 PUSH2 0x2E73 JUMP JUMPDEST SWAP4 SWAP3 POP POP POP JUMP JUMPDEST PUSH0 DUP2 ISZERO ISZERO SWAP1 POP SWAP2 SWAP1 POP JUMP JUMPDEST PUSH2 0x3540 DUP2 PUSH2 0x352C JUMP JUMPDEST DUP2 EQ PUSH2 0x354A JUMPI PUSH0 PUSH0 REVERT JUMPDEST POP JUMP JUMPDEST PUSH0 DUP2 MLOAD SWAP1 POP PUSH2 0x355B DUP2 PUSH2 0x3537 JUMP JUMPDEST SWAP3 SWAP2 POP POP JUMP JUMPDEST PUSH0 PUSH1 0x20 DUP3 DUP5 SUB SLT ISZERO PUSH2 0x3576 JUMPI PUSH2 0x3575 PUSH2 0x2E9B JUMP JUMPDEST JUMPDEST PUSH0 PUSH2 0x3583 DUP5 DUP3 DUP6 ADD PUSH2 0x354D JUMP JUMPDEST SWAP2 POP POP SWAP3 SWAP2 POP POP JUMP JUMPDEST PUSH0 PUSH1 0x40 DUP3 ADD SWAP1 POP PUSH2 0x359F PUSH0 DUP4 ADD DUP6 PUSH2 0x2E73 JUMP JUMPDEST PUSH2 0x35AC PUSH1 0x20 DUP4 ADD DUP5 PUSH2 0x2E73 JUMP JUMPDEST SWAP4 SWAP3 POP POP POP JUMP JUMPDEST PUSH32 0x4E4F545F44454C454741544543414C4C00000000000000000000000000000000 PUSH0 DUP3 ADD MSTORE POP JUMP JUMPDEST PUSH0 PUSH2 0x35E7 PUSH1 0x10 DUP4 PUSH2 0x2F90 JUMP JUMPDEST SWAP2 POP PUSH2 0x35F2 DUP3 PUSH2 0x35B3 JUMP JUMPDEST PUSH1 0x20 DUP3 ADD SWAP1 POP SWAP2 SWAP1 POP JUMP JUMPDEST PUSH0 PUSH1 0x20 DUP3 ADD SWAP1 POP DUP2 DUP2 SUB PUSH0 DUP4 ADD MSTORE PUSH2 0x3614 DUP2 PUSH2 0x35DB JUMP JUMPDEST SWAP1 POP SWAP2 SWAP1 POP JUMP JUMPDEST PUSH32 0x494E4143544956455F50524F5859000000000000000000000000000000000000 PUSH0 DUP3 ADD MSTORE POP JUMP JUMPDEST PUSH0 PUSH2 0x364F PUSH1 0xE DUP4 PUSH2 0x2F90 JUMP JUMPDEST SWAP2 POP PUSH2 0x365A DUP3 PUSH2 0x361B JUMP JUMPDEST PUSH1 0x20 DUP3 ADD SWAP1 POP SWAP2 SWAP1 POP JUMP JUMPDEST PUSH0 PUSH1 0x20 DUP3 ADD SWAP1 POP DUP2 DUP2 SUB PUSH0 DUP4 ADD MSTORE PUSH2 0x367C DUP2 PUSH2 0x3643 JUMP JUMPDEST SWAP1 POP SWAP2 SWAP1 POP JUMP JUMPDEST PUSH32 0x5A45524F5F414D4F554E54000000000000000000000000000000000000000000 PUSH0 DUP3 ADD MSTORE POP JUMP JUMPDEST PUSH0 PUSH2 0x36B7 PUSH1 0xB DUP4 PUSH2 0x2F90 JUMP JUMPDEST SWAP2 POP PUSH2 0x36C2 DUP3 PUSH2 0x3683 JUMP JUMPDEST PUSH1 0x20 DUP3 ADD SWAP1 POP SWAP2 SWAP1 POP JUMP JUMPDEST PUSH0 PUSH1 0x20 DUP3 ADD SWAP1 POP DUP2 DUP2 SUB PUSH0 DUP4 ADD MSTORE PUSH2 0x36E4 DUP2 PUSH2 0x36AB JUMP JUMPDEST SWAP1 POP SWAP2 SWAP1 POP JUMP JUMPDEST PUSH0 PUSH1 0x60 DUP3 ADD SWAP1 POP PUSH2 0x36FE PUSH0 DUP4 ADD DUP7 PUSH2 0x2F5E JUMP JUMPDEST PUSH2 0x370B PUSH1 0x20 DUP4 ADD DUP6 PUSH2 0x2F5E JUMP JUMPDEST PUSH2 0x3718 PUSH1 0x40 DUP4 ADD DUP5 PUSH2 0x2E73 JUMP JUMPDEST SWAP5 SWAP4 POP POP POP POP JUMP JUMPDEST PUSH0 PUSH2 0x372A DUP3 PUSH2 0x2E6A JUMP JUMPDEST SWAP2 POP PUSH2 0x3735 DUP4 PUSH2 0x2E6A JUMP JUMPDEST SWAP3 POP DUP3 DUP3 ADD SWAP1 POP DUP1 DUP3 GT ISZERO PUSH2 0x374D JUMPI PUSH2 0x374C PUSH2 0x3407 JUMP JUMPDEST JUMPDEST SWAP3 SWAP2 POP POP JUMP JUMPDEST PUSH32 0x4E4F545F5641554C540000000000000000000000000000000000000000000000 PUSH0 DUP3 ADD MSTORE POP JUMP JUMPDEST PUSH0 PUSH2 0x3787 PUSH1 0x9 DUP4 PUSH2 0x2F90 JUMP JUMPDEST SWAP2 POP PUSH2 0x3792 DUP3 PUSH2 0x3753 JUMP JUMPDEST PUSH1 0x20 DUP3 ADD SWAP1 POP SWAP2 SWAP1 POP JUMP JUMPDEST PUSH0 PUSH1 0x20 DUP3 ADD SWAP1 POP DUP2 DUP2 SUB PUSH0 DUP4 ADD MSTORE PUSH2 0x37B4 DUP2 PUSH2 0x377B JUMP JUMPDEST SWAP1 POP SWAP2 SWAP1 POP JUMP JUMPDEST PUSH32 0x494E53554646494349454E545F4C495155494449545900000000000000000000 PUSH0 DUP3 ADD MSTORE POP JUMP JUMPDEST PUSH0 PUSH2 0x37EF PUSH1 0x16 DUP4 PUSH2 0x2F90 JUMP JUMPDEST SWAP2 POP PUSH2 0x37FA DUP3 PUSH2 0x37BB JUMP JUMPDEST PUSH1 0x20 DUP3 ADD SWAP1 POP SWAP2 SWAP1 POP JUMP JUMPDEST PUSH0 PUSH1 0x20 DUP3 ADD SWAP1 POP DUP2 DUP2 SUB PUSH0 DUP4 ADD MSTORE PUSH2 0x381C DUP2 PUSH2 0x37E3 JUMP JUMPDEST SWAP1 POP SWAP2 SWAP1 POP JUMP JUMPDEST PUSH32 0x4E487B7100000000000000000000000000000000000000000000000000000000 PUSH0 MSTORE PUSH1 0x22 PUSH1 0x4 MSTORE PUSH1 0x24 PUSH0 REVERT JUMPDEST PUSH0 PUSH1 0x2 DUP3 DIV SWAP1 POP PUSH1 0x1 DUP3 AND DUP1 PUSH2 0x3867 JUMPI PUSH1 0x7F DUP3 AND SWAP2 POP JUMPDEST PUSH1 0x20 DUP3 LT DUP2 SUB PUSH2 0x387A JUMPI PUSH2 0x3879 PUSH2 0x3823 JUMP JUMPDEST JUMPDEST POP SWAP2 SWAP1 POP JUMP JUMPDEST PUSH32 0x4F4E4C595F494D504C454D454E544154494F4E00000000000000000000000000 PUSH0 DUP3 ADD MSTORE POP JUMP JUMPDEST PUSH0 PUSH2 0x38B4 PUSH1 0x13 DUP4 PUSH2 0x2F90 JUMP JUMPDEST SWAP2 POP PUSH2 0x38BF DUP3 PUSH2 0x3880 JUMP JUMPDEST PUSH1 0x20 DUP3 ADD SWAP1 POP SWAP2 SWAP1 POP JUMP JUMPDEST PUSH0 PUSH1 0x20 DUP3 ADD SWAP1 POP DUP2 DUP2 SUB PUSH0 DUP4 ADD MSTORE PUSH2 0x38E1 DUP2 PUSH2 0x38A8 JUMP JUMPDEST SWAP1 POP SWAP2 SWAP1 POP JUMP JUMPDEST PUSH32 0x455843454544535F434F4C4C41544552414C0000000000000000000000000000 PUSH0 DUP3 ADD MSTORE POP JUMP JUMPDEST PUSH0 PUSH2 0x391C PUSH1 0x12 DUP4 PUSH2 0x2F90 JUMP JUMPDEST SWAP2 POP PUSH2 0x3927 DUP3 PUSH2 0x38E8 JUMP JUMPDEST PUSH1 0x20 DUP3 ADD SWAP1 POP SWAP2 SWAP1 POP JUMP JUMPDEST PUSH0 PUSH1 0x20 DUP3 ADD SWAP1 POP DUP2 DUP2 SUB PUSH0 DUP4 ADD MSTORE PUSH2 0x3949 DUP2 PUSH2 0x3910 JUMP JUMPDEST SWAP1 POP SWAP2 SWAP1 POP JUMP JUMPDEST PUSH32 0x574F554C445F42455F4C4951554944415441424C450000000000000000000000 PUSH0 DUP3 ADD MSTORE POP JUMP JUMPDEST PUSH0 PUSH2 0x3984 PUSH1 0x15 DUP4 PUSH2 0x2F90 JUMP JUMPDEST SWAP2 POP PUSH2 0x398F DUP3 PUSH2 0x3950 JUMP JUMPDEST PUSH1 0x20 DUP3 ADD SWAP1 POP SWAP2 SWAP1 POP JUMP JUMPDEST PUSH0 PUSH1 0x20 DUP3 ADD SWAP1 POP DUP2 DUP2 SUB PUSH0 DUP4 ADD MSTORE PUSH2 0x39B1 DUP2 PUSH2 0x3978 JUMP JUMPDEST SWAP1 POP SWAP2 SWAP1 POP JUMP JUMPDEST PUSH0 DUP2 MLOAD SWAP1 POP PUSH2 0x39C6 DUP2 PUSH2 0x2F09 JUMP JUMPDEST SWAP3 SWAP2 POP POP JUMP JUMPDEST PUSH0 PUSH1 0x20 DUP3 DUP5 SUB SLT ISZERO PUSH2 0x39E1 JUMPI PUSH2 0x39E0 PUSH2 0x2E9B JUMP JUMPDEST JUMPDEST PUSH0 PUSH2 0x39EE DUP5 DUP3 DUP6 ADD PUSH2 0x39B8 JUMP JUMPDEST SWAP2 POP POP SWAP3 SWAP2 POP POP JUMP JUMPDEST PUSH32 0x414C52454144595F494E495449414C495A454400000000000000000000000000 PUSH0 DUP3 ADD MSTORE POP JUMP JUMPDEST PUSH0 PUSH2 0x3A2B PUSH1 0x13 DUP4 PUSH2 0x2F90 JUMP JUMPDEST SWAP2 POP PUSH2 0x3A36 DUP3 PUSH2 0x39F7 JUMP JUMPDEST PUSH1 0x20 DUP3 ADD SWAP1 POP SWAP2 SWAP1 POP JUMP JUMPDEST PUSH0 PUSH1 0x20 DUP3 ADD SWAP1 POP DUP2 DUP2 SUB PUSH0 DUP4 ADD MSTORE PUSH2 0x3A58 DUP2 PUSH2 0x3A1F JUMP JUMPDEST SWAP1 POP SWAP2 SWAP1 POP JUMP JUMPDEST PUSH32 0x5A45524F5F5641554C5400000000000000000000000000000000000000000000 PUSH0 DUP3 ADD MSTORE POP JUMP JUMPDEST PUSH0 PUSH2 0x3A93 PUSH1 0xA DUP4 PUSH2 0x2F90 JUMP JUMPDEST SWAP2 POP PUSH2 0x3A9E DUP3 PUSH2 0x3A5F JUMP JUMPDEST PUSH1 0x20 DUP3 ADD SWAP1 POP SWAP2 SWAP1 POP JUMP JUMPDEST PUSH0 PUSH1 0x20 DUP3 ADD SWAP1 POP DUP2 DUP2 SUB PUSH0 DUP4 ADD MSTORE PUSH2 0x3AC0 DUP2 PUSH2 0x3A87 JUMP JUMPDEST SWAP1 POP SWAP2 SWAP1 POP JUMP JUMPDEST PUSH32 0x5A45524F5F4C4F414E0000000000000000000000000000000000000000000000 PUSH0 DUP3 ADD MSTORE POP JUMP JUMPDEST PUSH0 PUSH2 0x3AFB PUSH1 0x9 DUP4 PUSH2 0x2F90 JUMP JUMPDEST SWAP2 POP PUSH2 0x3B06 DUP3 PUSH2 0x3AC7 JUMP JUMPDEST PUSH1 0x20 DUP3 ADD SWAP1 POP SWAP2 SWAP1 POP JUMP JUMPDEST PUSH0 PUSH1 0x20 DUP3 ADD SWAP1 POP DUP2 DUP2 SUB PUSH0 DUP4 ADD MSTORE PUSH2 0x3B28 DUP2 PUSH2 0x3AEF JUMP JUMPDEST SWAP1 POP SWAP2 SWAP1 POP JUMP JUMPDEST PUSH32 0x5A45524F5F434F4C4C41544552414C0000000000000000000000000000000000 PUSH0 DUP3 ADD MSTORE POP JUMP JUMPDEST PUSH0 PUSH2 0x3B63 PUSH1 0xF DUP4 PUSH2 0x2F90 JUMP JUMPDEST SWAP2 POP PUSH2 0x3B6E DUP3 PUSH2 0x3B2F JUMP JUMPDEST PUSH1 0x20 DUP3 ADD SWAP1 POP SWAP2 SWAP1 POP JUMP JUMPDEST PUSH0 PUSH1 0x20 DUP3 ADD SWAP1 POP DUP2 DUP2 SUB PUSH0 DUP4 ADD MSTORE PUSH2 0x3B90 DUP2 PUSH2 0x3B57 JUMP JUMPDEST SWAP1 POP SWAP2 SWAP1 POP JUMP JUMPDEST PUSH32 0x5A45524F5F4F5241434C45000000000000000000000000000000000000000000 PUSH0 DUP3 ADD MSTORE POP JUMP JUMPDEST PUSH0 PUSH2 0x3BCB PUSH1 0xB DUP4 PUSH2 0x2F90 JUMP JUMPDEST SWAP2 POP PUSH2 0x3BD6 DUP3 PUSH2 0x3B97 JUMP JUMPDEST PUSH1 0x20 DUP3 ADD SWAP1 POP SWAP2 SWAP1 POP JUMP JUMPDEST PUSH0 PUSH1 0x20 DUP3 ADD SWAP1 POP DUP2 DUP2 SUB PUSH0 DUP4 ADD MSTORE PUSH2 0x3BF8 DUP2 PUSH2 0x3BBF JUMP JUMPDEST SWAP1 POP SWAP2 SWAP1 POP JUMP JUMPDEST PUSH32 0x5A45524F5F545245415355525900000000000000000000000000000000000000 PUSH0 DUP3 ADD MSTORE POP JUMP JUMPDEST PUSH0 PUSH2 0x3C33 PUSH1 0xD DUP4 PUSH2 0x2F90 JUMP JUMPDEST SWAP2 POP PUSH2 0x3C3E DUP3 PUSH2 0x3BFF JUMP JUMPDEST PUSH1 0x20 DUP3 ADD SWAP1 POP SWAP2 SWAP1 POP JUMP JUMPDEST PUSH0 PUSH1 0x20 DUP3 ADD SWAP1 POP DUP2 DUP2 SUB PUSH0 DUP4 ADD MSTORE PUSH2 0x3C60 DUP2 PUSH2 0x3C27 JUMP JUMPDEST SWAP1 POP SWAP2 SWAP1 POP JUMP JUMPDEST PUSH32 0x5A45524F5F425059000000000000000000000000000000000000000000000000 PUSH0 DUP3 ADD MSTORE POP JUMP JUMPDEST PUSH0 PUSH2 0x3C9B PUSH1 0x8 DUP4 PUSH2 0x2F90 JUMP JUMPDEST SWAP2 POP PUSH2 0x3CA6 DUP3 PUSH2 0x3C67 JUMP JUMPDEST PUSH1 0x20 DUP3 ADD SWAP1 POP SWAP2 SWAP1 POP JUMP JUMPDEST PUSH0 PUSH1 0x20 DUP3 ADD SWAP1 POP DUP2 DUP2 SUB PUSH0 DUP4 ADD MSTORE PUSH2 0x3CC8 DUP2 PUSH2 0x3C8F JUMP JUMPDEST SWAP1 POP SWAP2 SWAP1 POP JUMP JUMPDEST PUSH32 0x4241445F4C4C5456000000000000000000000000000000000000000000000000 PUSH0 DUP3 ADD MSTORE POP JUMP JUMPDEST PUSH0 PUSH2 0x3D03 PUSH1 0x8 DUP4 PUSH2 0x2F90 JUMP JUMPDEST SWAP2 POP PUSH2 0x3D0E DUP3 PUSH2 0x3CCF JUMP JUMPDEST PUSH1 0x20 DUP3 ADD SWAP1 POP SWAP2 SWAP1 POP JUMP JUMPDEST PUSH0 PUSH1 0x20 DUP3 ADD SWAP1 POP DUP2 DUP2 SUB PUSH0 DUP4 ADD MSTORE PUSH2 0x3D30 DUP2 PUSH2 0x3CF7 JUMP JUMPDEST SWAP1 POP SWAP2 SWAP1 POP JUMP JUMPDEST PUSH32 0x4241445F4C49515F424F4E555300000000000000000000000000000000000000 PUSH0 DUP3 ADD MSTORE POP JUMP JUMPDEST PUSH0 PUSH2 0x3D6B PUSH1 0xD DUP4 PUSH2 0x2F90 JUMP JUMPDEST SWAP2 POP PUSH2 0x3D76 DUP3 PUSH2 0x3D37 JUMP JUMPDEST PUSH1 0x20 DUP3 ADD SWAP1 POP SWAP2 SWAP1 POP JUMP JUMPDEST PUSH0 PUSH1 0x20 DUP3 ADD SWAP1 POP DUP2 DUP2 SUB PUSH0 DUP4 ADD MSTORE PUSH2 0x3D98 DUP2 PUSH2 0x3D5F JUMP JUMPDEST SWAP1 POP SWAP2 SWAP1 POP JUMP JUMPDEST PUSH0 DUP3 SWAP1 POP SWAP3 SWAP2 POP POP JUMP JUMPDEST PUSH32 0x4E487B7100000000000000000000000000000000000000000000000000000000 PUSH0 MSTORE PUSH1 0x41 PUSH1 0x4 MSTORE PUSH1 0x24 PUSH0 REVERT JUMPDEST PUSH0 DUP2 SWAP1 POP DUP2 PUSH0 MSTORE PUSH1 0x20 PUSH0 KECCAK256 SWAP1 POP SWAP2 SWAP1 POP JUMP JUMPDEST PUSH0 PUSH1 0x20 PUSH1 0x1F DUP4 ADD DIV SWAP1 POP SWAP2 SWAP1 POP JUMP JUMPDEST PUSH0 DUP3 DUP3 SHL SWAP1 POP SWAP3 SWAP2 POP POP JUMP JUMPDEST PUSH0 PUSH1 0x8 DUP4 MUL PUSH2 0x3E32 PUSH32 0xFFFFFFFFFFFFFFFFFFFFFFFFFFFFFFFFFFFFFFFFFFFFFFFFFFFFFFFFFFFFFFFF DUP3 PUSH2 0x3DF7 JUMP JUMPDEST PUSH2 0x3E3C DUP7 DUP4 PUSH2 0x3DF7 JUMP JUMPDEST SWAP6 POP DUP1 NOT DUP5 AND SWAP4 POP DUP1 DUP7 AND DUP5 OR SWAP3 POP POP POP SWAP4 SWAP3 POP POP POP JUMP JUMPDEST PUSH0 PUSH2 0x3E6E PUSH2 0x3E69 PUSH2 0x3E64 DUP5 PUSH2 0x2E6A JUMP JUMPDEST PUSH2 0x2DF6 JUMP JUMPDEST PUSH2 0x2E6A JUMP JUMPDEST SWAP1 POP SWAP2 SWAP1 POP JUMP JUMPDEST PUSH0 DUP2 SWAP1 POP SWAP2 SWAP1 POP JUMP JUMPDEST PUSH2 0x3E87 DUP4 PUSH2 0x3E54 JUMP JUMPDEST PUSH2 0x3E9B PUSH2 0x3E93 DUP3 PUSH2 0x3E75 JUMP JUMPDEST DUP5 DUP5 SLOAD PUSH2 0x3E03 JUMP JUMPDEST DUP3 SSTORE POP POP POP POP JUMP JUMPDEST PUSH0 PUSH0 SWAP1 POP SWAP1 JUMP JUMPDEST PUSH2 0x3EB2 PUSH2 0x3EA3 JUMP JUMPDEST PUSH2 0x3EBD DUP2 DUP5 DUP5 PUSH2 0x3E7E JUMP JUMPDEST POP POP POP JUMP JUMPDEST JUMPDEST DUP2 DUP2 LT ISZERO PUSH2 0x3EE0 JUMPI PUSH2 0x3ED5 PUSH0 DUP3 PUSH2 0x3EAA JUMP JUMPDEST PUSH1 0x1 DUP2 ADD SWAP1 POP PUSH2 0x3EC3 JUMP JUMPDEST POP POP JUMP JUMPDEST PUSH1 0x1F DUP3 GT ISZERO PUSH2 0x3F25 JUMPI PUSH2 0x3EF6 DUP2 PUSH2 0x3DD6 JUMP JUMPDEST PUSH2 0x3EFF DUP5 PUSH2 0x3DE8 JUMP JUMPDEST DUP2 ADD PUSH1 0x20 DUP6 LT ISZERO PUSH2 0x3F0E JUMPI DUP2 SWAP1 POP JUMPDEST PUSH2 0x3F22 PUSH2 0x3F1A DUP6 PUSH2 0x3DE8 JUMP JUMPDEST DUP4 ADD DUP3 PUSH2 0x3EC2 JUMP JUMPDEST POP POP JUMPDEST POP POP POP JUMP JUMPDEST PUSH0 DUP3 DUP3 SHR SWAP1 POP SWAP3 SWAP2 POP POP JUMP JUMPDEST PUSH0 PUSH2 0x3F45 PUSH0 NOT DUP5 PUSH1 0x8 MUL PUSH2 0x3F2A JUMP JUMPDEST NOT DUP1 DUP4 AND SWAP2 POP POP SWAP3 SWAP2 POP POP JUMP JUMPDEST PUSH0 PUSH2 0x3F5D DUP4 DUP4 PUSH2 0x3F36 JUMP JUMPDEST SWAP2 POP DUP3 PUSH1 0x2 MUL DUP3 OR SWAP1 POP SWAP3 SWAP2 POP POP JUMP JUMPDEST PUSH2 0x3F77 DUP4 DUP4 PUSH2 0x3D9F JUMP JUMPDEST PUSH8 0xFFFFFFFFFFFFFFFF DUP2 GT ISZERO PUSH2 0x3F90 JUMPI PUSH2 0x3F8F PUSH2 0x3DA9 JUMP JUMPDEST JUMPDEST PUSH2 0x3F9A DUP3 SLOAD PUSH2 0x3850 JUMP JUMPDEST PUSH2 0x3FA5 DUP3 DUP3 DUP6 PUSH2 0x3EE4 JUMP JUMPDEST PUSH0 PUSH1 0x1F DUP4 GT PUSH1 0x1 DUP2 EQ PUSH2 0x3FD2 JUMPI PUSH0 DUP5 ISZERO PUSH2 0x3FC0 JUMPI DUP3 DUP8 ADD CALLDATALOAD SWAP1 POP JUMPDEST PUSH2 0x3FCA DUP6 DUP3 PUSH2 0x3F52 JUMP JUMPDEST DUP7 SSTORE POP PUSH2 0x4031 JUMP JUMPDEST PUSH1 0x1F NOT DUP5 AND PUSH2 0x3FE0 DUP7 PUSH2 0x3DD6 JUMP JUMPDEST PUSH0 JUMPDEST DUP3 DUP2 LT ISZERO PUSH2 0x4007 JUMPI DUP5 DUP10 ADD CALLDATALOAD DUP3 SSTORE PUSH1 0x1 DUP3 ADD SWAP2 POP PUSH1 0x20 DUP6 ADD SWAP5 POP PUSH1 0x20 DUP2 ADD SWAP1 POP PUSH2 0x3FE2 JUMP JUMPDEST DUP7 DUP4 LT ISZERO PUSH2 0x4024 JUMPI DUP5 DUP10 ADD CALLDATALOAD PUSH2 0x4020 PUSH1 0x1F DUP10 AND DUP3 PUSH2 0x3F36 JUMP JUMPDEST DUP4 SSTORE POP JUMPDEST PUSH1 0x1 PUSH1 0x2 DUP9 MUL ADD DUP9 SSTORE POP POP POP JUMPDEST POP POP POP POP POP POP POP JUMP JUMPDEST PUSH32 0x424F52524F575F425245414B535F4C4C54560000000000000000000000000000 PUSH0 DUP3 ADD MSTORE POP JUMP JUMPDEST PUSH0 PUSH2 0x406E PUSH1 0x12 DUP4 PUSH2 0x2F90 JUMP JUMPDEST SWAP2 POP PUSH2 0x4079 DUP3 PUSH2 0x403A JUMP JUMPDEST PUSH1 0x20 DUP3 ADD SWAP1 POP SWAP2 SWAP1 POP JUMP JUMPDEST PUSH0 PUSH1 0x20 DUP3 ADD SWAP1 POP DUP2 DUP2 SUB PUSH0 DUP4 ADD MSTORE PUSH2 0x409B DUP2 PUSH2 0x4062 JUMP JUMPDEST SWAP1 POP SWAP2 SWAP1 POP JUMP JUMPDEST PUSH32 0x5A45524F5F494D504C0000000000000000000000000000000000000000000000 PUSH0 DUP3 ADD MSTORE POP JUMP JUMPDEST PUSH0 PUSH2 0x40D6 PUSH1 0x9 DUP4 PUSH2 0x2F90 JUMP JUMPDEST SWAP2 POP PUSH2 0x40E1 DUP3 PUSH2 0x40A2 JUMP JUMPDEST PUSH1 0x20 DUP3 ADD SWAP1 POP SWAP2 SWAP1 POP JUMP JUMPDEST PUSH0 PUSH1 0x20 DUP3 ADD SWAP1 POP DUP2 DUP2 SUB PUSH0 DUP4 ADD MSTORE PUSH2 0x4103 DUP2 PUSH2 0x40CA JUMP JUMPDEST SWAP1 POP SWAP2 SWAP1 POP JUMP JUMPDEST PUSH0 DUP2 MLOAD SWAP1 POP SWAP2 SWAP1 POP JUMP JUMPDEST PUSH0 DUP2 SWAP1 POP SWAP3 SWAP2 POP POP JUMP JUMPDEST PUSH0 PUSH2 0x4128 DUP3 PUSH2 0x410A JUMP JUMPDEST PUSH2 0x4132 DUP2 DUP6 PUSH2 0x4114 JUMP JUMPDEST SWAP4 POP PUSH2 0x4142 DUP2 DUP6 PUSH1 0x20 DUP7 ADD PUSH2 0x2FA0 JUMP JUMPDEST DUP1 DUP5 ADD SWAP2 POP POP SWAP3 SWAP2 POP POP JUMP JUMPDEST PUSH0 PUSH2 0x4159 DUP3 DUP5 PUSH2 0x411E JUMP JUMPDEST SWAP2 POP DUP2 SWAP1 POP SWAP3 SWAP2 POP POP JUMP JUMPDEST PUSH0 PUSH1 0xFF DUP3 AND SWAP1 POP SWAP2 SWAP1 POP JUMP JUMPDEST PUSH2 0x4179 DUP2 PUSH2 0x4164 JUMP JUMPDEST DUP2 EQ PUSH2 0x4183 JUMPI PUSH0 PUSH0 REVERT JUMPDEST POP JUMP JUMPDEST PUSH0 DUP2 MLOAD SWAP1 POP PUSH2 0x4194 DUP2 PUSH2 0x4170 JUMP JUMPDEST SWAP3 SWAP2 POP POP JUMP JUMPDEST PUSH0 PUSH1 0x20 DUP3 DUP5 SUB SLT ISZERO PUSH2 0x41AF JUMPI PUSH2 0x41AE PUSH2 0x2E9B JUMP JUMPDEST JUMPDEST PUSH0 PUSH2 0x41BC DUP5 DUP3 DUP6 ADD PUSH2 0x4186 JUMP JUMPDEST SWAP2 POP POP SWAP3 SWAP2 POP POP JUMP JUMPDEST PUSH0 DUP2 PUSH1 0x1 SHR SWAP1 POP SWAP2 SWAP1 POP JUMP JUMPDEST PUSH0 PUSH0 DUP3 SWAP2 POP DUP4 SWAP1 POP JUMPDEST PUSH1 0x1 DUP6 GT ISZERO PUSH2 0x421A JUMPI DUP1 DUP7 DIV DUP2 GT ISZERO PUSH2 0x41F6 JUMPI PUSH2 0x41F5 PUSH2 0x3407 JUMP JUMPDEST JUMPDEST PUSH1 0x1 DUP6 AND ISZERO PUSH2 0x4205 JUMPI DUP1 DUP3 MUL SWAP2 POP JUMPDEST DUP1 DUP2 MUL SWAP1 POP PUSH2 0x4213 DUP6 PUSH2 0x41C5 JUMP JUMPDEST SWAP5 POP PUSH2 0x41DA JUMP JUMPDEST SWAP5 POP SWAP5 SWAP3 POP POP POP JUMP JUMPDEST PUSH0 DUP3 PUSH2 0x4232 JUMPI PUSH1 0x1 SWAP1 POP PUSH2 0x42ED JUMP JUMPDEST DUP2 PUSH2 0x423F JUMPI PUSH0 SWAP1 POP PUSH2 0x42ED JUMP JUMPDEST DUP2 PUSH1 0x1 DUP2 EQ PUSH2 0x4255 JUMPI PUSH1 0x2 DUP2 EQ PUSH2 0x425F JUMPI PUSH2 0x428E JUMP JUMPDEST PUSH1 0x1 SWAP2 POP POP PUSH2 0x42ED JUMP JUMPDEST PUSH1 0xFF DUP5 GT ISZERO PUSH2 0x4271 JUMPI PUSH2 0x4270 PUSH2 0x3407 JUMP JUMPDEST JUMPDEST DUP4 PUSH1 0x2 EXP SWAP2 POP DUP5 DUP3 GT ISZERO PUSH2 0x4288 JUMPI PUSH2 0x4287 PUSH2 0x3407 JUMP JUMPDEST JUMPDEST POP PUSH2 0x42ED JUMP JUMPDEST POP PUSH1 0x20 DUP4 LT PUSH2 0x133 DUP4 LT AND PUSH1 0x4E DUP5 LT PUSH1 0xB DUP5 LT AND OR ISZERO PUSH2 0x42C3 JUMPI DUP3 DUP3 EXP SWAP1 POP DUP4 DUP2 GT ISZERO PUSH2 0x42BE JUMPI PUSH2 0x42BD PUSH2 0x3407 JUMP JUMPDEST JUMPDEST PUSH2 0x42ED JUMP JUMPDEST PUSH2 0x42D0 DUP5 DUP5 DUP5 PUSH1 0x1 PUSH2 0x41D1 JUMP JUMPDEST SWAP3 POP SWAP1 POP DUP2 DUP5 DIV DUP2 GT ISZERO PUSH2 0x42E7 JUMPI PUSH2 0x42E6 PUSH2 0x3407 JUMP JUMPDEST JUMPDEST DUP2 DUP2 MUL SWAP1 POP JUMPDEST SWAP4 SWAP3 POP POP POP JUMP JUMPDEST PUSH0 PUSH2 0x42FE DUP3 PUSH2 0x2E6A JUMP JUMPDEST SWAP2 POP PUSH2 0x4309 DUP4 PUSH2 0x4164 JUMP JUMPDEST SWAP3 POP PUSH2 0x4336 PUSH32 0xFFFFFFFFFFFFFFFFFFFFFFFFFFFFFFFFFFFFFFFFFFFFFFFFFFFFFFFFFFFFFFFF DUP5 DUP5 PUSH2 0x4223 JUMP JUMPDEST SWAP1 POP SWAP3 SWAP2 POP POP JUMP INVALID LOG2 PUSH5 0x6970667358 0x22 SLT KECCAK256 0x29 SWAP15 LOG4 0xEF PUSH14 0x344E1FF26CA01F052C6064432866 DUP8 0xF6 0xD9 TLOAD 0xC2 DUP14 0x2C SWAP16 SELFDESTRUCT 0xFC MLOAD DUP8 0x29 PUSH5 0x736F6C6343 STOP ADDMOD 0x1E STOP CALLER "
				},
				"gasEstimates": {
					"creation": {
						"codeDepositCost": "3453600",
						"executionCost": "infinite",
						"totalCost": "infinite"
					},
					"external": {
						"INDEX_SCALE()": "438",
						"accrueInterest()": "infinite",
						"assetManage()": "infinite",
						"availableLiquidity()": "infinite",
						"blocksPerYear()": "2492",
						"borrow(uint256)": "infinite",
						"borrowIndex()": "2536",
						"collateralToken()": "infinite",
						"currentLtvBps(address)": "infinite",
						"debtOf(address)": "infinite",
						"healthFactor(address)": "infinite",
						"initialize((address,address,address,address,address,address,address,uint256,uint256,uint256,uint256),string,string)": "infinite",
						"interestRate()": "2537",
						"lastAccrueBlock()": "2560",
						"liquidate(address)": "infinite",
						"liquidationBonusBps()": "2516",
						"liquidator()": "2576",
						"lltvBps()": "2492",
						"loanToken()": "infinite",
						"onVaultDeposit(uint256)": "2964",
						"onVaultWithdraw(uint256)": "infinite",
						"oracle()": "infinite",
						"owner()": "2603",
						"ownershipTransfer(address)": "27084",
						"positions(address)": "infinite",
						"protocolFeeBps()": "2493",
						"protocolReserves()": "2513",
						"proxiableUUID()": "infinite",
						"repay(uint256)": "infinite",
						"setRiskParams(uint256,uint256,uint256)": "infinite",
						"shareName()": "infinite",
						"supplyCollateral(uint256)": "infinite",
						"title()": "infinite",
						"totalBorrowShares()": "2494",
						"totalDebt()": "infinite",
						"treasury()": "2619",
						"upgradeTo(address)": "infinite",
						"upgradeToAndCall(address,bytes)": "infinite",
						"vault()": "2618",
						"withdrawCollateral(uint256)": "infinite"
					},
					"internal": {
						"_authorizeUpgrade(address)": "2230",
						"_isHealthy(address)": "infinite",
						"_projectedBorrowIndex()": "infinite",
						"_sharesForBorrowAmount(uint256)": "infinite",
						"_tokenValue(uint256,address)": "infinite"
					}
				},
				"methodIdentifiers": {
					"INDEX_SCALE()": "27776ab5",
					"accrueInterest()": "a6afed95",
					"assetManage()": "c82f6d2f",
					"availableLiquidity()": "74375359",
					"blocksPerYear()": "a385fb96",
					"borrow(uint256)": "c5ebeaec",
					"borrowIndex()": "aa5af0fd",
					"collateralToken()": "b2016bd4",
					"currentLtvBps(address)": "6711a640",
					"debtOf(address)": "d283e75f",
					"healthFactor(address)": "6ad9f9df",
					"initialize((address,address,address,address,address,address,address,uint256,uint256,uint256,uint256),string,string)": "b1c0be34",
					"interestRate()": "7c3a00fd",
					"lastAccrueBlock()": "29962904",
					"liquidate(address)": "2f865568",
					"liquidationBonusBps()": "19970d8e",
					"liquidator()": "4046ebae",
					"lltvBps()": "b3604c96",
					"loanToken()": "06d37817",
					"onVaultDeposit(uint256)": "4b92917a",
					"onVaultWithdraw(uint256)": "3e3722b6",
					"oracle()": "7dc0d1d0",
					"owner()": "8da5cb5b",
					"ownershipTransfer(address)": "d3a417a2",
					"positions(address)": "55f57510",
					"protocolFeeBps()": "35659fb8",
					"protocolReserves()": "d681a449",
					"proxiableUUID()": "52d1902d",
					"repay(uint256)": "371fd8e6",
					"setRiskParams(uint256,uint256,uint256)": "ced65b01",
					"shareName()": "76e9790a",
					"supplyCollateral(uint256)": "367febea",
					"title()": "4a79d50c",
					"totalBorrowShares()": "136cf1f7",
					"totalDebt()": "fc7b9c18",
					"treasury()": "61d027b3",
					"upgradeTo(address)": "3659cfe6",
					"upgradeToAndCall(address,bytes)": "4f1ef286",
					"vault()": "fbfa77cf",
					"withdrawCollateral(uint256)": "6112fe2e"
				}
			},
			"storageLayout": {
				"storage": [
					{
						"astId": 1512,
						"contract": "contracts/protocol/Market.sol:Market",
						"label": "_initialized",
						"offset": 0,
						"slot": "0",
						"type": "t_bool"
					},
					{
						"astId": 1515,
						"contract": "contracts/protocol/Market.sol:Market",
						"label": "_initializing",
						"offset": 1,
						"slot": "0",
						"type": "t_bool"
					},
					{
						"astId": 7,
						"contract": "contracts/protocol/Market.sol:Market",
						"label": "owner",
						"offset": 2,
						"slot": "0",
						"type": "t_address"
					},
					{
						"astId": 248,
						"contract": "contracts/protocol/Market.sol:Market",
						"label": "loanToken",
						"offset": 0,
						"slot": "1",
						"type": "t_contract(IERC20)137"
					},
					{
						"astId": 251,
						"contract": "contracts/protocol/Market.sol:Market",
						"label": "collateralToken",
						"offset": 0,
						"slot": "2",
						"type": "t_contract(IERC20)137"
					},
					{
						"astId": 254,
						"contract": "contracts/protocol/Market.sol:Market",
						"label": "oracle",
						"offset": 0,
						"slot": "3",
						"type": "t_contract(IOracle)192"
					},
					{
						"astId": 256,
						"contract": "contracts/protocol/Market.sol:Market",
						"label": "title",
						"offset": 0,
						"slot": "4",
						"type": "t_string_storage"
					},
					{
						"astId": 258,
						"contract": "contracts/protocol/Market.sol:Market",
						"label": "shareName",
						"offset": 0,
						"slot": "5",
						"type": "t_string_storage"
					},
					{
						"astId": 260,
						"contract": "contracts/protocol/Market.sol:Market",
						"label": "vault",
						"offset": 0,
						"slot": "6",
						"type": "t_address"
					},
					{
						"astId": 262,
						"contract": "contracts/protocol/Market.sol:Market",
						"label": "treasury",
						"offset": 0,
						"slot": "7",
						"type": "t_address"
					},
					{
						"astId": 264,
						"contract": "contracts/protocol/Market.sol:Market",
						"label": "liquidator",
						"offset": 0,
						"slot": "8",
						"type": "t_address"
					},
					{
						"astId": 266,
						"contract": "contracts/protocol/Market.sol:Market",
						"label": "lltvBps",
						"offset": 0,
						"slot": "9",
						"type": "t_uint256"
					},
					{
						"astId": 268,
						"contract": "contracts/protocol/Market.sol:Market",
						"label": "liquidationBonusBps",
						"offset": 0,
						"slot": "10",
						"type": "t_uint256"
					},
					{
						"astId": 270,
						"contract": "contracts/protocol/Market.sol:Market",
						"label": "protocolFeeBps",
						"offset": 0,
						"slot": "11",
						"type": "t_uint256"
					},
					{
						"astId": 272,
						"contract": "contracts/protocol/Market.sol:Market",
						"label": "interestRate",
						"offset": 0,
						"slot": "12",
						"type": "t_uint256"
					},
					{
						"astId": 274,
						"contract": "contracts/protocol/Market.sol:Market",
						"label": "blocksPerYear",
						"offset": 0,
						"slot": "13",
						"type": "t_uint256"
					},
					{
						"astId": 276,
						"contract": "contracts/protocol/Market.sol:Market",
						"label": "borrowIndex",
						"offset": 0,
						"slot": "14",
						"type": "t_uint256"
					},
					{
						"astId": 278,
						"contract": "contracts/protocol/Market.sol:Market",
						"label": "lastAccrueBlock",
						"offset": 0,
						"slot": "15",
						"type": "t_uint256"
					},
					{
						"astId": 280,
						"contract": "contracts/protocol/Market.sol:Market",
						"label": "totalBorrowShares",
						"offset": 0,
						"slot": "16",
						"type": "t_uint256"
					},
					{
						"astId": 282,
						"contract": "contracts/protocol/Market.sol:Market",
						"label": "protocolReserves",
						"offset": 0,
						"slot": "17",
						"type": "t_uint256"
					},
					{
						"astId": 287,
						"contract": "contracts/protocol/Market.sol:Market",
						"label": "positions",
						"offset": 0,
						"slot": "18",
						"type": "t_mapping(t_address,t_struct(Position)222_storage)"
					}
				],
				"types": {
					"t_address": {
						"encoding": "inplace",
						"label": "address",
						"numberOfBytes": "20"
					},
					"t_bool": {
						"encoding": "inplace",
						"label": "bool",
						"numberOfBytes": "1"
					},
					"t_contract(IERC20)137": {
						"encoding": "inplace",
						"label": "contract IERC20",
						"numberOfBytes": "20"
					},
					"t_contract(IOracle)192": {
						"encoding": "inplace",
						"label": "contract IOracle",
						"numberOfBytes": "20"
					},
					"t_mapping(t_address,t_struct(Position)222_storage)": {
						"encoding": "mapping",
						"key": "t_address",
						"label": "mapping(address => struct Market.Position)",
						"numberOfBytes": "32",
						"value": "t_struct(Position)222_storage"
					},
					"t_string_storage": {
						"encoding": "bytes",
						"label": "string",
						"numberOfBytes": "32"
					},
					"t_struct(Position)222_storage": {
						"encoding": "inplace",
						"label": "struct Market.Position",
						"members": [
							{
								"astId": 217,
								"contract": "contracts/protocol/Market.sol:Market",
								"label": "collateralShares",
								"offset": 0,
								"slot": "0",
								"type": "t_uint256"
							},
							{
								"astId": 219,
								"contract": "contracts/protocol/Market.sol:Market",
								"label": "borrowShares",
								"offset": 0,
								"slot": "1",
								"type": "t_uint256"
							},
							{
								"astId": 221,
								"contract": "contracts/protocol/Market.sol:Market",
								"label": "principal",
								"offset": 0,
								"slot": "2",
								"type": "t_uint256"
							}
						],
						"numberOfBytes": "96"
					},
					"t_uint256": {
						"encoding": "inplace",
						"label": "uint256",
						"numberOfBytes": "32"
					}
				}
			},
			"userdoc": {
				"kind": "user",
				"methods": {
					"proxiableUUID()": {
						"notice": "UUID UUPS-слота по EIP-1822."
					},
					"upgradeTo(address)": {
						"notice": "Обновить implementation."
					},
					"upgradeToAndCall(address,bytes)": {
						"notice": "Обновить implementation и сразу вызвать migration-хук."
					}
				},
				"version": 1
			}
		}
	}
}