{
	"protocol/Vault.sol": {
		"Vault": {
			"abi": [
				{
					"anonymous": false,
					"inputs": [
						{
							"indexed": true,
							"internalType": "address",
							"name": "owner",
							"type": "address"
						},
						{
							"indexed": true,
							"internalType": "address",
							"name": "spender",
							"type": "address"
						},
						{
							"indexed": false,
							"internalType": "uint256",
							"name": "value",
							"type": "uint256"
						}
					],
					"name": "Approval",
					"type": "event"
				},
				{
					"anonymous": false,
					"inputs": [
						{
							"indexed": true,
							"internalType": "address",
							"name": "caller",
							"type": "address"
						},
						{
							"indexed": true,
							"internalType": "address",
							"name": "owner",
							"type": "address"
						},
						{
							"indexed": false,
							"internalType": "uint256",
							"name": "assets",
							"type": "uint256"
						},
						{
							"indexed": false,
							"internalType": "uint256",
							"name": "shares",
							"type": "uint256"
						}
					],
					"name": "Deposit",
					"type": "event"
				},
				{
					"anonymous": false,
					"inputs": [
						{
							"indexed": true,
							"internalType": "address",
							"name": "from",
							"type": "address"
						},
						{
							"indexed": true,
							"internalType": "address",
							"name": "to",
							"type": "address"
						},
						{
							"indexed": false,
							"internalType": "uint256",
							"name": "value",
							"type": "uint256"
						}
					],
					"name": "Transfer",
					"type": "event"
				},
				{
					"anonymous": false,
					"inputs": [
						{
							"indexed": true,
							"internalType": "address",
							"name": "caller",
							"type": "address"
						},
						{
							"indexed": true,
							"internalType": "address",
							"name": "receiver",
							"type": "address"
						},
						{
							"indexed": true,
							"internalType": "address",
							"name": "owner",
							"type": "address"
						},
						{
							"indexed": false,
							"internalType": "uint256",
							"name": "assets",
							"type": "uint256"
						},
						{
							"indexed": false,
							"internalType": "uint256",
							"name": "shares",
							"type": "uint256"
						}
					],
					"name": "Withdraw",
					"type": "event"
				},
				{
					"inputs": [
						{
							"internalType": "address",
							"name": "market_",
							"type": "address"
						}
					],
					"name": "addMarket",
					"outputs": [],
					"stateMutability": "nonpayable",
					"type": "function"
				},
				{
					"inputs": [
						{
							"internalType": "address",
							"name": "market_",
							"type": "address"
						},
						{
							"internalType": "uint256",
							"name": "amount",
							"type": "uint256"
						}
					],
					"name": "allocateToMarket",
					"outputs": [],
					"stateMutability": "nonpayable",
					"type": "function"
				},
				{
					"inputs": [
						{
							"internalType": "address",
							"name": "owner",
							"type": "address"
						},
						{
							"internalType": "address",
							"name": "spender",
							"type": "address"
						}
					],
					"name": "allowance",
					"outputs": [
						{
							"internalType": "uint256",
							"name": "",
							"type": "uint256"
						}
					],
					"stateMutability": "view",
					"type": "function"
				},
				{
					"inputs": [
						{
							"internalType": "address",
							"name": "spender",
							"type": "address"
						},
						{
							"internalType": "uint256",
							"name": "amount",
							"type": "uint256"
						}
					],
					"name": "approve",
					"outputs": [
						{
							"internalType": "bool",
							"name": "",
							"type": "bool"
						}
					],
					"stateMutability": "nonpayable",
					"type": "function"
				},
				{
					"inputs": [],
					"name": "asset",
					"outputs": [
						{
							"internalType": "address",
							"name": "",
							"type": "address"
						}
					],
					"stateMutability": "view",
					"type": "function"
				},
				{
					"inputs": [
						{
							"internalType": "address",
							"name": "account",
							"type": "address"
						}
					],
					"name": "balanceOf",
					"outputs": [
						{
							"internalType": "uint256",
							"name": "",
							"type": "uint256"
						}
					],
					"stateMutability": "view",
					"type": "function"
				},
				{
					"inputs": [
						{
							"internalType": "uint256",
							"name": "shares",
							"type": "uint256"
						}
					],
					"name": "convertToAssets",
					"outputs": [
						{
							"internalType": "uint256",
							"name": "",
							"type": "uint256"
						}
					],
					"stateMutability": "view",
					"type": "function"
				},
				{
					"inputs": [
						{
							"internalType": "uint256",
							"name": "assets_",
							"type": "uint256"
						}
					],
					"name": "convertToShares",
					"outputs": [
						{
							"internalType": "uint256",
							"name": "",
							"type": "uint256"
						}
					],
					"stateMutability": "view",
					"type": "function"
				},
				{
					"inputs": [
						{
							"internalType": "address",
							"name": "market_",
							"type": "address"
						},
						{
							"internalType": "uint256",
							"name": "amount",
							"type": "uint256"
						}
					],
					"name": "deallocateTomarket",
					"outputs": [],
					"stateMutability": "nonpayable",
					"type": "function"
				},
				{
					"inputs": [],
					"name": "decimals",
					"outputs": [
						{
							"internalType": "uint256",
							"name": "",
							"type": "uint256"
						}
					],
					"stateMutability": "view",
					"type": "function"
				},
				{
					"inputs": [
						{
							"internalType": "uint256",
							"name": "assets_",
							"type": "uint256"
						},
						{
							"internalType": "address",
							"name": "receiver",
							"type": "address"
						}
					],
					"name": "deposit",
					"outputs": [
						{
							"internalType": "uint256",
							"name": "shares",
							"type": "uint256"
						}
					],
					"stateMutability": "nonpayable",
					"type": "function"
				},
				{
					"inputs": [],
					"name": "idleLiquidity",
					"outputs": [
						{
							"internalType": "uint256",
							"name": "",
							"type": "uint256"
						}
					],
					"stateMutability": "view",
					"type": "function"
				},
				{
					"inputs": [
						{
							"internalType": "address",
							"name": "owner_",
							"type": "address"
						},
						{
							"internalType": "address",
							"name": "asset_",
							"type": "address"
						},
						{
							"internalType": "string",
							"name": "title_",
							"type": "string"
						},
						{
							"internalType": "string",
							"name": "shareName_",
							"type": "string"
						},
						{
							"internalType": "string",
							"name": "shareSymbol_",
							"type": "string"
						},
						{
							"internalType": "uint256",
							"name": "minDeposit_",
							"type": "uint256"
						}
					],
					"name": "initialize",
					"outputs": [],
					"stateMutability": "nonpayable",
					"type": "function"
				},
				{
					"inputs": [
						{
							"internalType": "address",
							"name": "",
							"type": "address"
						}
					],
					"name": "isMarket",
					"outputs": [
						{
							"internalType": "bool",
							"name": "",
							"type": "bool"
						}
					],
					"stateMutability": "view",
					"type": "function"
				},
				{
					"inputs": [
						{
							"internalType": "uint256",
							"name": "",
							"type": "uint256"
						}
					],
					"name": "markets",
					"outputs": [
						{
							"internalType": "address",
							"name": "",
							"type": "address"
						}
					],
					"stateMutability": "view",
					"type": "function"
				},
				{
					"inputs": [],
					"name": "minDeposit",
					"outputs": [
						{
							"internalType": "uint256",
							"name": "",
							"type": "uint256"
						}
					],
					"stateMutability": "view",
					"type": "function"
				},
				{
					"inputs": [
						{
							"internalType": "uint256",
							"name": "shares",
							"type": "uint256"
						},
						{
							"internalType": "address",
							"name": "receiver",
							"type": "address"
						}
					],
					"name": "mint",
					"outputs": [
						{
							"internalType": "uint256",
							"name": "assets_",
							"type": "uint256"
						}
					],
					"stateMutability": "nonpayable",
					"type": "function"
				},
				{
					"inputs": [],
					"name": "name",
					"outputs": [
						{
							"internalType": "string",
							"name": "",
							"type": "string"
						}
					],
					"stateMutability": "view",
					"type": "function"
				},
				{
					"inputs": [],
					"name": "owner",
					"outputs": [
						{
							"internalType": "address",
							"name": "",
							"type": "address"
						}
					],
					"stateMutability": "view",
					"type": "function"
				},
				{
					"inputs": [
						{
							"internalType": "address",
							"name": "newOwner",
							"type": "address"
						}
					],
					"name": "ownershipTransfer",
					"outputs": [],
					"stateMutability": "nonpayable",
					"type": "function"
				},
				{
					"inputs": [],
					"name": "proxiableUUID",
					"outputs": [
						{
							"internalType": "bytes32",
							"name": "",
							"type": "bytes32"
						}
					],
					"stateMutability": "view",
					"type": "function"
				},
				{
					"inputs": [
						{
							"internalType": "uint256",
							"name": "shares",
							"type": "uint256"
						},
						{
							"internalType": "address",
							"name": "receiver",
							"type": "address"
						},
						{
							"internalType": "address",
							"name": "owner",
							"type": "address"
						}
					],
					"name": "redeem",
					"outputs": [
						{
							"internalType": "uint256",
							"name": "assets_",
							"type": "uint256"
						}
					],
					"stateMutability": "nonpayable",
					"type": "function"
				},
				{
					"inputs": [],
					"name": "symbol",
					"outputs": [
						{
							"internalType": "string",
							"name": "",
							"type": "string"
						}
					],
					"stateMutability": "view",
					"type": "function"
				},
				{
					"inputs": [],
					"name": "title",
					"outputs": [
						{
							"internalType": "string",
							"name": "",
							"type": "string"
						}
					],
					"stateMutability": "view",
					"type": "function"
				},
				{
					"inputs": [],
					"name": "totalAssets",
					"outputs": [
						{
							"internalType": "uint256",
							"name": "total",
							"type": "uint256"
						}
					],
					"stateMutability": "view",
					"type": "function"
				},
				{
					"inputs": [],
					"name": "totalSupply",
					"outputs": [
						{
							"internalType": "uint256",
							"name": "",
							"type": "uint256"
						}
					],
					"stateMutability": "view",
					"type": "function"
				},
				{
					"inputs": [
						{
							"internalType": "address",
							"name": "to",
							"type": "address"
						},
						{
							"internalType": "uint256",
							"name": "amount",
							"type": "uint256"
						}
					],
					"name": "transfer",
					"outputs": [
						{
							"internalType": "bool",
							"name": "",
							"type": "bool"
						}
					],
					"stateMutability": "nonpayable",
					"type": "function"
				},
				{
					"inputs": [
						{
							"internalType": "address",
							"name": "from",
							"type": "address"
						},
						{
							"internalType": "address",
							"name": "to",
							"type": "address"
						},
						{
							"internalType": "uint256",
							"name": "amount",
							"type": "uint256"
						}
					],
					"name": "transferFrom",
					"outputs": [
						{
							"internalType": "bool",
							"name": "",
							"type": "bool"
						}
					],
					"stateMutability": "nonpayable",
					"type": "function"
				},
				{
					"inputs": [
						{
							"internalType": "address",
							"name": "newImplementation",
							"type": "address"
						}
					],
					"name": "upgradeTo",
					"outputs": [],
					"stateMutability": "nonpayable",
					"type": "function"
				},
				{
					"inputs": [
						{
							"internalType": "address",
							"name": "newImplementation",
							"type": "address"
						},
						{
							"internalType": "bytes",
							"name": "data",
							"type": "bytes"
						}
					],
					"name": "upgradeToAndCall",
					"outputs": [],
					"stateMutability": "payable",
					"type": "function"
				},
				{
					"inputs": [
						{
							"internalType": "uint256",
							"name": "assets_",
							"type": "uint256"
						},
						{
							"internalType": "address",
							"name": "receiver",
							"type": "address"
						},
						{
							"internalType": "address",
							"name": "owner_",
							"type": "address"
						}
					],
					"name": "withdraw",
					"outputs": [
						{
							"internalType": "uint256",
							"name": "shares",
							"type": "uint256"
						}
					],
					"stateMutability": "nonpayable",
					"type": "function"
				}
			],
			"devdoc": {
				"events": {
					"Approval(address,address,uint256)": {
						"details": "Срабатывает при изменении allowance."
					},
					"Deposit(address,address,uint256,uint256)": {
						"details": "Событие при deposit/mint."
					},
					"Transfer(address,address,uint256)": {
						"details": "Срабатывает при переводе токенов."
					},
					"Withdraw(address,address,address,uint256,uint256)": {
						"details": "Событие при withdraw/redeem."
					}
				},
				"kind": "dev",
				"methods": {},
				"version": 1
			},
			"evm": {
				"assembly": "    /* \"protocol/Vault.sol\":337:2638  contract Vault is Ownable, ERC4626Upgradeable, UUPSUpgradeable {... */\n  mstore(0x40, 0xa0)\n    /* \"proxy/UUPSUpgradeable.sol\":1021:1025  this */\n  address\n    /* \"proxy/UUPSUpgradeable.sol\":978:1026  address private immutable __self = address(this) */\n  0xffffffffffffffffffffffffffffffffffffffff\n  and\n  0x80\n  swap1\n  0xffffffffffffffffffffffffffffffffffffffff\n  and\n  dup2\n  mstore\n  pop\n    /* \"protocol/Vault.sol\":337:2638  contract Vault is Ownable, ERC4626Upgradeable, UUPSUpgradeable {... */\n  callvalue\n  dup1\n  iszero\n  tag_1\n  jumpi\n  revert(0x00, 0x00)\ntag_1:\n  pop\n  mload(0x80)\n  codecopy(0x00, dataOffset(sub_0), dataSize(sub_0))\n  0x00\n  assignImmutable(\"0xe07291691b14f575b5cfdac2c09a610941d76185383eed85c94ea499aff65392\")\n  return(0x00, dataSize(sub_0))\nstop\n\nsub_0: assembly {\n        /* \"protocol/Vault.sol\":337:2638  contract Vault is Ownable, ERC4626Upgradeable, UUPSUpgradeable {... */\n      mstore(0x40, 0x80)\n      jumpi(tag_1, lt(calldatasize, 0x04))\n      shr(0xe0, calldataload(0x00))\n      dup1\n      0x6e553f65\n      gt\n      tag_33\n      jumpi\n      dup1\n      0xa9059cbb\n      gt\n      tag_34\n      jumpi\n      dup1\n      0xc6e6f592\n      gt\n      tag_35\n      jumpi\n      dup1\n      0xc6e6f592\n      eq\n      tag_29\n      jumpi\n      dup1\n      0xd3a417a2\n      eq\n      tag_30\n      jumpi\n      dup1\n      0xdd62ed3e\n      eq\n      tag_31\n      jumpi\n      dup1\n      0xded96d48\n      eq\n      tag_32\n      jumpi\n      jump(tag_1)\n    tag_35:\n      dup1\n      0xa9059cbb\n      eq\n      tag_25\n      jumpi\n      dup1\n      0xb1283e77\n      eq\n      tag_26\n      jumpi\n      dup1\n      0xb460af94\n      eq\n      tag_27\n      jumpi\n      dup1\n      0xba087652\n      eq\n      tag_28\n      jumpi\n      jump(tag_1)\n    tag_34:\n      dup1\n      0x92f6b31c\n      gt\n      tag_36\n      jumpi\n      dup1\n      0x92f6b31c\n      eq\n      tag_21\n      jumpi\n      dup1\n      0x93e30633\n      eq\n      tag_22\n      jumpi\n      dup1\n      0x94bf804d\n      eq\n      tag_23\n      jumpi\n      dup1\n      0x95d89b41\n      eq\n      tag_24\n      jumpi\n      jump(tag_1)\n    tag_36:\n      dup1\n      0x6e553f65\n      eq\n      tag_17\n      jumpi\n      dup1\n      0x6ec934da\n      eq\n      tag_18\n      jumpi\n      dup1\n      0x70a08231\n      eq\n      tag_19\n      jumpi\n      dup1\n      0x8da5cb5b\n      eq\n      tag_20\n      jumpi\n      jump(tag_1)\n    tag_33:\n      dup1\n      0x3659cfe6\n      gt\n      tag_37\n      jumpi\n      dup1\n      0x4f1ef286\n      gt\n      tag_38\n      jumpi\n      dup1\n      0x4f1ef286\n      eq\n      tag_13\n      jumpi\n      dup1\n      0x52d1902d\n      eq\n      tag_14\n      jumpi\n      dup1\n      0x65745f51\n      eq\n      tag_15\n      jumpi\n      dup1\n      0x66adf46a\n      eq\n      tag_16\n      jumpi\n      jump(tag_1)\n    tag_38:\n      dup1\n      0x3659cfe6\n      eq\n      tag_9\n      jumpi\n      dup1\n      0x38d52e0f\n      eq\n      tag_10\n      jumpi\n      dup1\n      0x41b3d185\n      eq\n      tag_11\n      jumpi\n      dup1\n      0x4a79d50c\n      eq\n      tag_12\n      jumpi\n      jump(tag_1)\n    tag_37:\n      dup1\n      0x095ea7b3\n      gt\n      tag_39\n      jumpi\n      dup1\n      0x095ea7b3\n      eq\n      tag_5\n      jumpi\n      dup1\n      0x18160ddd\n      eq\n      tag_6\n      jumpi\n      dup1\n      0x23b872dd\n      eq\n      tag_7\n      jumpi\n      dup1\n      0x313ce567\n      eq\n      tag_8\n      jumpi\n      jump(tag_1)\n    tag_39:\n      dup1\n      0x01e1d114\n      eq\n      tag_2\n      jumpi\n      dup1\n      0x06fdde03\n      eq\n      tag_3\n      jumpi\n      dup1\n      0x07a2d13a\n      eq\n      tag_4\n      jumpi\n    tag_1:\n      revert(0x00, 0x00)\n        /* \"protocol/Vault.sol\":924:1254  function totalAssets() public override view returns (uint total) {... */\n    tag_2:\n      callvalue\n      dup1\n      iszero\n      tag_40\n      jumpi\n      revert(0x00, 0x00)\n    tag_40:\n      pop\n      tag_41\n      tag_42\n      jump\t// in\n    tag_41:\n      mload(0x40)\n      tag_43\n      swap2\n      swap1\n      tag_44\n      jump\t// in\n    tag_43:\n      mload(0x40)\n      dup1\n      swap2\n      sub\n      swap1\n      return\n        /* \"token/ERC20Upgradeable.sol\":1510:1593  function name() external view returns (string memory) {... */\n    tag_3:\n      callvalue\n      dup1\n      iszero\n      tag_45\n      jumpi\n      revert(0x00, 0x00)\n    tag_45:\n      pop\n      tag_46\n      tag_47\n      jump\t// in\n    tag_46:\n      mload(0x40)\n      tag_48\n      swap2\n      swap1\n      tag_49\n      jump\t// in\n    tag_48:\n      mload(0x40)\n      dup1\n      swap2\n      sub\n      swap1\n      return\n        /* \"token/ERC4626Upgradeable.sol\":1827:2190  function convertToAssets(uint256 shares) public view returns (uint256) {... */\n    tag_4:\n      callvalue\n      dup1\n      iszero\n      tag_50\n      jumpi\n      revert(0x00, 0x00)\n    tag_50:\n      pop\n      tag_51\n      0x04\n      dup1\n      calldatasize\n      sub\n      dup2\n      add\n      swap1\n      tag_52\n      swap2\n      swap1\n      tag_53\n      jump\t// in\n    tag_52:\n      tag_54\n      jump\t// in\n    tag_51:\n      mload(0x40)\n      tag_55\n      swap2\n      swap1\n      tag_44\n      jump\t// in\n    tag_55:\n      mload(0x40)\n      dup1\n      swap2\n      sub\n      swap1\n      return\n        /* \"token/ERC20Upgradeable.sol\":2286:2435  function approve(address spender, uint256 amount) external returns (bool) {... */\n    tag_5:\n      callvalue\n      dup1\n      iszero\n      tag_56\n      jumpi\n      revert(0x00, 0x00)\n    tag_56:\n      pop\n      tag_57\n      0x04\n      dup1\n      calldatasize\n      sub\n      dup2\n      add\n      swap1\n      tag_58\n      swap2\n      swap1\n      tag_59\n      jump\t// in\n    tag_58:\n      tag_60\n      jump\t// in\n    tag_57:\n      mload(0x40)\n      tag_61\n      swap2\n      swap1\n      tag_62\n      jump\t// in\n    tag_61:\n      mload(0x40)\n      dup1\n      swap2\n      sub\n      swap1\n      return\n        /* \"token/ERC20Upgradeable.sol\":1780:1871  function totalSupply() external view returns (uint256) {... */\n    tag_6:\n      callvalue\n      dup1\n      iszero\n      tag_63\n      jumpi\n      revert(0x00, 0x00)\n    tag_63:\n      pop\n      tag_64\n      tag_65\n      jump\t// in\n    tag_64:\n      mload(0x40)\n      tag_66\n      swap2\n      swap1\n      tag_44\n      jump\t// in\n    tag_66:\n      mload(0x40)\n      dup1\n      swap2\n      sub\n      swap1\n      return\n        /* \"token/ERC20Upgradeable.sol\":2441:2960  function transferFrom(address from, address to, uint256 amount) external returns (bool) {... */\n    tag_7:\n      callvalue\n      dup1\n      iszero\n      tag_67\n      jumpi\n      revert(0x00, 0x00)\n    tag_67:\n      pop\n      tag_68\n      0x04\n      dup1\n      calldatasize\n      sub\n      dup2\n      add\n      swap1\n      tag_69\n      swap2\n      swap1\n      tag_70\n      jump\t// in\n    tag_69:\n      tag_71\n      jump\t// in\n    tag_68:\n      mload(0x40)\n      tag_72\n      swap2\n      swap1\n      tag_62\n      jump\t// in\n    tag_72:\n      mload(0x40)\n      dup1\n      swap2\n      sub\n      swap1\n      return\n        /* \"token/ERC20Upgradeable.sol\":1692:1774  function decimals() external view returns (uint) {... */\n    tag_8:\n      callvalue\n      dup1\n      iszero\n      tag_73\n      jumpi\n      revert(0x00, 0x00)\n    tag_73:\n      pop\n      tag_74\n      tag_75\n      jump\t// in\n    tag_74:\n      mload(0x40)\n      tag_76\n      swap2\n      swap1\n      tag_44\n      jump\t// in\n    tag_76:\n      mload(0x40)\n      dup1\n      swap2\n      sub\n      swap1\n      return\n        /* \"proxy/UUPSUpgradeable.sol\":1745:1927  function upgradeTo(address newImplementation) external onlyProxy {... */\n    tag_9:\n      callvalue\n      dup1\n      iszero\n      tag_77\n      jumpi\n      revert(0x00, 0x00)\n    tag_77:\n      pop\n      tag_78\n      0x04\n      dup1\n      calldatasize\n      sub\n      dup2\n      add\n      swap1\n      tag_79\n      swap2\n      swap1\n      tag_80\n      jump\t// in\n    tag_79:\n      tag_81\n      jump\t// in\n    tag_78:\n      stop\n        /* \"token/ERC4626Upgradeable.sol\":1296:1382  function asset() public view returns (address) {... */\n    tag_10:\n      callvalue\n      dup1\n      iszero\n      tag_82\n      jumpi\n      revert(0x00, 0x00)\n    tag_82:\n      pop\n      tag_83\n      tag_84\n      jump\t// in\n    tag_83:\n      mload(0x40)\n      tag_85\n      swap2\n      swap1\n      tag_86\n      jump\t// in\n    tag_85:\n      mload(0x40)\n      dup1\n      swap2\n      sub\n      swap1\n      return\n        /* \"protocol/Vault.sol\":431:453  uint public minDeposit */\n    tag_11:\n      callvalue\n      dup1\n      iszero\n      tag_87\n      jumpi\n      revert(0x00, 0x00)\n    tag_87:\n      pop\n      tag_88\n      tag_89\n      jump\t// in\n    tag_88:\n      mload(0x40)\n      tag_90\n      swap2\n      swap1\n      tag_44\n      jump\t// in\n    tag_90:\n      mload(0x40)\n      dup1\n      swap2\n      sub\n      swap1\n      return\n        /* \"protocol/Vault.sol\":406:425  string public title */\n    tag_12:\n      callvalue\n      dup1\n      iszero\n      tag_91\n      jumpi\n      revert(0x00, 0x00)\n    tag_91:\n      pop\n      tag_92\n      tag_93\n      jump\t// in\n    tag_92:\n      mload(0x40)\n      tag_94\n      swap2\n      swap1\n      tag_49\n      jump\t// in\n    tag_94:\n      mload(0x40)\n      dup1\n      swap2\n      sub\n      swap1\n      return\n        /* \"proxy/UUPSUpgradeable.sol\":2028:2240  function upgradeToAndCall(address newImplementation, bytes calldata data) external payable onlyProxy {... */\n    tag_13:\n      tag_95\n      0x04\n      dup1\n      calldatasize\n      sub\n      dup2\n      add\n      swap1\n      tag_96\n      swap2\n      swap1\n      tag_97\n      jump\t// in\n    tag_96:\n      tag_98\n      jump\t// in\n    tag_95:\n      stop\n        /* \"proxy/UUPSUpgradeable.sol\":1577:1690  function proxiableUUID() external view notDelegated returns (bytes32) {... */\n    tag_14:\n      callvalue\n      dup1\n      iszero\n      tag_99\n      jumpi\n      revert(0x00, 0x00)\n    tag_99:\n      pop\n      tag_100\n      tag_101\n      jump\t// in\n    tag_100:\n      mload(0x40)\n      tag_102\n      swap2\n      swap1\n      tag_103\n      jump\t// in\n    tag_102:\n      mload(0x40)\n      dup1\n      swap2\n      sub\n      swap1\n      return\n        /* \"protocol/Vault.sol\":2119:2355  function deallocateTomarket(... */\n    tag_15:\n      callvalue\n      dup1\n      iszero\n      tag_104\n      jumpi\n      revert(0x00, 0x00)\n    tag_104:\n      pop\n      tag_105\n      0x04\n      dup1\n      calldatasize\n      sub\n      dup2\n      add\n      swap1\n      tag_106\n      swap2\n      swap1\n      tag_59\n      jump\t// in\n    tag_106:\n      tag_107\n      jump\t// in\n    tag_105:\n      stop\n        /* \"protocol/Vault.sol\":1852:2114  function allocateToMarket(address market_, uint amount) external onlyOwner {... */\n    tag_16:\n      callvalue\n      dup1\n      iszero\n      tag_108\n      jumpi\n      revert(0x00, 0x00)\n    tag_108:\n      pop\n      tag_109\n      0x04\n      dup1\n      calldatasize\n      sub\n      dup2\n      add\n      swap1\n      tag_110\n      swap2\n      swap1\n      tag_59\n      jump\t// in\n    tag_110:\n      tag_111\n      jump\t// in\n    tag_109:\n      stop\n        /* \"protocol/Vault.sol\":1382:1594  function deposit(... */\n    tag_17:\n      callvalue\n      dup1\n      iszero\n      tag_112\n      jumpi\n      revert(0x00, 0x00)\n    tag_112:\n      pop\n      tag_113\n      0x04\n      dup1\n      calldatasize\n      sub\n      dup2\n      add\n      swap1\n      tag_114\n      swap2\n      swap1\n      tag_115\n      jump\t// in\n    tag_114:\n      tag_116\n      jump\t// in\n    tag_113:\n      mload(0x40)\n      tag_117\n      swap2\n      swap1\n      tag_44\n      jump\t// in\n    tag_117:\n      mload(0x40)\n      dup1\n      swap2\n      sub\n      swap1\n      return\n        /* \"protocol/Vault.sol\":489:529  mapping(address => bool) public isMarket */\n    tag_18:\n      callvalue\n      dup1\n      iszero\n      tag_118\n      jumpi\n      revert(0x00, 0x00)\n    tag_118:\n      pop\n      tag_119\n      0x04\n      dup1\n      calldatasize\n      sub\n      dup2\n      add\n      swap1\n      tag_120\n      swap2\n      swap1\n      tag_80\n      jump\t// in\n    tag_120:\n      tag_121\n      jump\t// in\n    tag_119:\n      mload(0x40)\n      tag_122\n      swap2\n      swap1\n      tag_62\n      jump\t// in\n    tag_122:\n      mload(0x40)\n      dup1\n      swap2\n      sub\n      swap1\n      return\n        /* \"token/ERC20Upgradeable.sol\":1877:1987  function balanceOf(address account) external view returns (uint256) {... */\n    tag_19:\n      callvalue\n      dup1\n      iszero\n      tag_123\n      jumpi\n      revert(0x00, 0x00)\n    tag_123:\n      pop\n      tag_124\n      0x04\n      dup1\n      calldatasize\n      sub\n      dup2\n      add\n      swap1\n      tag_125\n      swap2\n      swap1\n      tag_80\n      jump\t// in\n    tag_125:\n      tag_126\n      jump\t// in\n    tag_124:\n      mload(0x40)\n      tag_127\n      swap2\n      swap1\n      tag_44\n      jump\t// in\n    tag_127:\n      mload(0x40)\n      dup1\n      swap2\n      sub\n      swap1\n      return\n        /* \"acess/Ownable.sol\":133:153  address public owner */\n    tag_20:\n      callvalue\n      dup1\n      iszero\n      tag_128\n      jumpi\n      revert(0x00, 0x00)\n    tag_128:\n      pop\n      tag_129\n      tag_130\n      jump\t// in\n    tag_129:\n      mload(0x40)\n      tag_131\n      swap2\n      swap1\n      tag_86\n      jump\t// in\n    tag_131:\n      mload(0x40)\n      dup1\n      swap2\n      sub\n      swap1\n      return\n        /* \"protocol/Vault.sol\":1260:1376  function idleLiquidity() public view returns (uint) {... */\n    tag_21:\n      callvalue\n      dup1\n      iszero\n      tag_132\n      jumpi\n      revert(0x00, 0x00)\n    tag_132:\n      pop\n      tag_133\n      tag_134\n      jump\t// in\n    tag_133:\n      mload(0x40)\n      tag_135\n      swap2\n      swap1\n      tag_44\n      jump\t// in\n    tag_135:\n      mload(0x40)\n      dup1\n      swap2\n      sub\n      swap1\n      return\n        /* \"protocol/Vault.sol\":2361:2565  function addMarket(address market_) external onlyOwner {... */\n    tag_22:\n      callvalue\n      dup1\n      iszero\n      tag_136\n      jumpi\n      revert(0x00, 0x00)\n    tag_136:\n      pop\n      tag_137\n      0x04\n      dup1\n      calldatasize\n      sub\n      dup2\n      add\n      swap1\n      tag_138\n      swap2\n      swap1\n      tag_80\n      jump\t// in\n    tag_138:\n      tag_139\n      jump\t// in\n    tag_137:\n      stop\n        /* \"token/ERC4626Upgradeable.sol\":2595:2985  function mint(uint256 shares, address receiver) public virtual returns (uint256 assets_) {... */\n    tag_23:\n      callvalue\n      dup1\n      iszero\n      tag_140\n      jumpi\n      revert(0x00, 0x00)\n    tag_140:\n      pop\n      tag_141\n      0x04\n      dup1\n      calldatasize\n      sub\n      dup2\n      add\n      swap1\n      tag_142\n      swap2\n      swap1\n      tag_115\n      jump\t// in\n    tag_142:\n      tag_143\n      jump\t// in\n    tag_141:\n      mload(0x40)\n      tag_144\n      swap2\n      swap1\n      tag_44\n      jump\t// in\n    tag_144:\n      mload(0x40)\n      dup1\n      swap2\n      sub\n      swap1\n      return\n        /* \"token/ERC20Upgradeable.sol\":1599:1686  function symbol() external view returns (string memory) {... */\n    tag_24:\n      callvalue\n      dup1\n      iszero\n      tag_145\n      jumpi\n      revert(0x00, 0x00)\n    tag_145:\n      pop\n      tag_146\n      tag_147\n      jump\t// in\n    tag_146:\n      mload(0x40)\n      tag_148\n      swap2\n      swap1\n      tag_49\n      jump\t// in\n    tag_148:\n      mload(0x40)\n      dup1\n      swap2\n      sub\n      swap1\n      return\n        /* \"token/ERC20Upgradeable.sol\":2139:2280  function transfer(address to, uint256 amount) external returns (bool) {... */\n    tag_25:\n      callvalue\n      dup1\n      iszero\n      tag_149\n      jumpi\n      revert(0x00, 0x00)\n    tag_149:\n      pop\n      tag_150\n      0x04\n      dup1\n      calldatasize\n      sub\n      dup2\n      add\n      swap1\n      tag_151\n      swap2\n      swap1\n      tag_59\n      jump\t// in\n    tag_151:\n      tag_152\n      jump\t// in\n    tag_150:\n      mload(0x40)\n      tag_153\n      swap2\n      swap1\n      tag_62\n      jump\t// in\n    tag_153:\n      mload(0x40)\n      dup1\n      swap2\n      sub\n      swap1\n      return\n        /* \"protocol/Vault.sol\":459:483  address[] public markets */\n    tag_26:\n      callvalue\n      dup1\n      iszero\n      tag_154\n      jumpi\n      revert(0x00, 0x00)\n    tag_154:\n      pop\n      tag_155\n      0x04\n      dup1\n      calldatasize\n      sub\n      dup2\n      add\n      swap1\n      tag_156\n      swap2\n      swap1\n      tag_53\n      jump\t// in\n    tag_156:\n      tag_157\n      jump\t// in\n    tag_155:\n      mload(0x40)\n      tag_158\n      swap2\n      swap1\n      tag_86\n      jump\t// in\n    tag_158:\n      mload(0x40)\n      dup1\n      swap2\n      sub\n      swap1\n      return\n        /* \"protocol/Vault.sol\":1600:1846  function withdraw(... */\n    tag_27:\n      callvalue\n      dup1\n      iszero\n      tag_159\n      jumpi\n      revert(0x00, 0x00)\n    tag_159:\n      pop\n      tag_160\n      0x04\n      dup1\n      calldatasize\n      sub\n      dup2\n      add\n      swap1\n      tag_161\n      swap2\n      swap1\n      tag_162\n      jump\t// in\n    tag_161:\n      tag_163\n      jump\t// in\n    tag_160:\n      mload(0x40)\n      tag_164\n      swap2\n      swap1\n      tag_44\n      jump\t// in\n    tag_164:\n      mload(0x40)\n      dup1\n      swap2\n      sub\n      swap1\n      return\n        /* \"token/ERC4626Upgradeable.sol\":3833:4476  function redeem(uint256 shares, address receiver, address owner) public virtual returns (uint256 assets_) {... */\n    tag_28:\n      callvalue\n      dup1\n      iszero\n      tag_165\n      jumpi\n      revert(0x00, 0x00)\n    tag_165:\n      pop\n      tag_166\n      0x04\n      dup1\n      calldatasize\n      sub\n      dup2\n      add\n      swap1\n      tag_167\n      swap2\n      swap1\n      tag_162\n      jump\t// in\n    tag_167:\n      tag_168\n      jump\t// in\n    tag_166:\n      mload(0x40)\n      tag_169\n      swap2\n      swap1\n      tag_44\n      jump\t// in\n    tag_169:\n      mload(0x40)\n      dup1\n      swap2\n      sub\n      swap1\n      return\n        /* \"token/ERC4626Upgradeable.sol\":1455:1821  function convertToShares(uint256 assets_) public view returns (uint256) {... */\n    tag_29:\n      callvalue\n      dup1\n      iszero\n      tag_170\n      jumpi\n      revert(0x00, 0x00)\n    tag_170:\n      pop\n      tag_171\n      0x04\n      dup1\n      calldatasize\n      sub\n      dup2\n      add\n      swap1\n      tag_172\n      swap2\n      swap1\n      tag_53\n      jump\t// in\n    tag_172:\n      tag_173\n      jump\t// in\n    tag_171:\n      mload(0x40)\n      tag_174\n      swap2\n      swap1\n      tag_44\n      jump\t// in\n    tag_174:\n      mload(0x40)\n      dup1\n      swap2\n      sub\n      swap1\n      return\n        /* \"acess/Ownable.sol\":394:532  function ownershipTransfer(address newOwner) external onlyOwner {... */\n    tag_30:\n      callvalue\n      dup1\n      iszero\n      tag_175\n      jumpi\n      revert(0x00, 0x00)\n    tag_175:\n      pop\n      tag_176\n      0x04\n      dup1\n      calldatasize\n      sub\n      dup2\n      add\n      swap1\n      tag_177\n      swap2\n      swap1\n      tag_80\n      jump\t// in\n    tag_177:\n      tag_178\n      jump\t// in\n    tag_176:\n      stop\n        /* \"token/ERC20Upgradeable.sol\":1993:2133  function allowance(address owner, address spender) public view virtual returns (uint256) {... */\n    tag_31:\n      callvalue\n      dup1\n      iszero\n      tag_179\n      jumpi\n      revert(0x00, 0x00)\n    tag_179:\n      pop\n      tag_180\n      0x04\n      dup1\n      calldatasize\n      sub\n      dup2\n      add\n      swap1\n      tag_181\n      swap2\n      swap1\n      tag_182\n      jump\t// in\n    tag_181:\n      tag_183\n      jump\t// in\n    tag_180:\n      mload(0x40)\n      tag_184\n      swap2\n      swap1\n      tag_44\n      jump\t// in\n    tag_184:\n      mload(0x40)\n      dup1\n      swap2\n      sub\n      swap1\n      return\n        /* \"protocol/Vault.sol\":536:918  function initialize(... */\n    tag_32:\n      callvalue\n      dup1\n      iszero\n      tag_185\n      jumpi\n      revert(0x00, 0x00)\n    tag_185:\n      pop\n      tag_186\n      0x04\n      dup1\n      calldatasize\n      sub\n      dup2\n      add\n      swap1\n      tag_187\n      swap2\n      swap1\n      tag_188\n      jump\t// in\n    tag_187:\n      tag_189\n      jump\t// in\n    tag_186:\n      stop\n        /* \"protocol/Vault.sol\":924:1254  function totalAssets() public override view returns (uint total) {... */\n    tag_42:\n        /* \"protocol/Vault.sol\":977:987  uint total */\n      0x00\n        /* \"protocol/Vault.sol\":1014:1021  asset() */\n      tag_191\n        /* \"protocol/Vault.sol\":1014:1019  asset */\n      tag_84\n        /* \"protocol/Vault.sol\":1014:1021  asset() */\n      jump\t// in\n    tag_191:\n        /* \"protocol/Vault.sol\":1007:1032  IERC20(asset()).balanceOf */\n      0xffffffffffffffffffffffffffffffffffffffff\n      and\n      0x70a08231\n        /* \"protocol/Vault.sol\":1041:1045  this */\n      address\n        /* \"protocol/Vault.sol\":1007:1047  IERC20(asset()).balanceOf(address(this)) */\n      mload(0x40)\n      dup3\n      0xffffffff\n      and\n      0xe0\n      shl\n      dup2\n      mstore\n      0x04\n      add\n      tag_192\n      swap2\n      swap1\n      tag_86\n      jump\t// in\n    tag_192:\n      0x20\n      mload(0x40)\n      dup1\n      dup4\n      sub\n      dup2\n      dup7\n      gas\n      staticcall\n      iszero\n      dup1\n      iszero\n      tag_194\n      jumpi\n      returndatacopy(0x00, 0x00, returndatasize)\n      revert(0x00, returndatasize)\n    tag_194:\n      pop\n      pop\n      pop\n      pop\n      mload(0x40)\n      returndatasize\n      not(0x1f)\n      0x1f\n      dup3\n      add\n      and\n      dup3\n      add\n      dup1\n      0x40\n      mstore\n      pop\n      dup2\n      add\n      swap1\n      tag_195\n      swap2\n      swap1\n      tag_196\n      jump\t// in\n    tag_195:\n        /* \"protocol/Vault.sol\":999:1047  total = IERC20(asset()).balanceOf(address(this)) */\n      swap1\n      pop\n        /* \"protocol/Vault.sol\":1062:1068  uint i */\n      0x00\n        /* \"protocol/Vault.sol\":1071:1072  0 */\n      0x00\n        /* \"protocol/Vault.sol\":1062:1072  uint i = 0 */\n      swap1\n      pop\n        /* \"protocol/Vault.sol\":1057:1248  for (uint i = 0; i < markets.length; ) {... */\n    tag_197:\n        /* \"protocol/Vault.sol\":1078:1085  markets */\n      0x0a\n        /* \"protocol/Vault.sol\":1078:1092  markets.length */\n      dup1\n      sload\n      swap1\n      pop\n        /* \"protocol/Vault.sol\":1074:1075  i */\n      dup2\n        /* \"protocol/Vault.sol\":1074:1092  i < markets.length */\n      lt\n        /* \"protocol/Vault.sol\":1057:1248  for (uint i = 0; i < markets.length; ) {... */\n      iszero\n      tag_198\n      jumpi\n        /* \"protocol/Vault.sol\":1114:1122  isMarket */\n      0x0b\n        /* \"protocol/Vault.sol\":1114:1134  isMarket[markets[i]] */\n      0x00\n        /* \"protocol/Vault.sol\":1123:1130  markets */\n      0x0a\n        /* \"protocol/Vault.sol\":1131:1132  i */\n      dup4\n        /* \"protocol/Vault.sol\":1123:1133  markets[i] */\n      dup2\n      sload\n      dup2\n      lt\n      tag_200\n      jumpi\n      tag_201\n      tag_202\n      jump\t// in\n    tag_201:\n    tag_200:\n      swap1\n      0x00\n      mstore\n      keccak256(0x00, 0x20)\n      add\n      0x00\n      swap1\n      sload\n      swap1\n      0x0100\n      exp\n      swap1\n      div\n      0xffffffffffffffffffffffffffffffffffffffff\n      and\n        /* \"protocol/Vault.sol\":1114:1134  isMarket[markets[i]] */\n      0xffffffffffffffffffffffffffffffffffffffff\n      and\n      0xffffffffffffffffffffffffffffffffffffffff\n      and\n      dup2\n      mstore\n      0x20\n      add\n      swap1\n      dup2\n      mstore\n      0x20\n      add\n      0x00\n      keccak256\n      0x00\n      swap1\n      sload\n      swap1\n      0x0100\n      exp\n      swap1\n      div\n      0xff\n      and\n        /* \"protocol/Vault.sol\":1110:1178  if (isMarket[markets[i]]) total += IMarket(markets[i]).assetManage() */\n      iszero\n      tag_204\n      jumpi\n        /* \"protocol/Vault.sol\":1153:1160  markets */\n      0x0a\n        /* \"protocol/Vault.sol\":1161:1162  i */\n      dup2\n        /* \"protocol/Vault.sol\":1153:1163  markets[i] */\n      dup2\n      sload\n      dup2\n      lt\n      tag_205\n      jumpi\n      tag_206\n      tag_202\n      jump\t// in\n    tag_206:\n    tag_205:\n      swap1\n      0x00\n      mstore\n      keccak256(0x00, 0x20)\n      add\n      0x00\n      swap1\n      sload\n      swap1\n      0x0100\n      exp\n      swap1\n      div\n      0xffffffffffffffffffffffffffffffffffffffff\n      and\n        /* \"protocol/Vault.sol\":1145:1176  IMarket(markets[i]).assetManage */\n      0xffffffffffffffffffffffffffffffffffffffff\n      and\n      0xc82f6d2f\n        /* \"protocol/Vault.sol\":1145:1178  IMarket(markets[i]).assetManage() */\n      mload(0x40)\n      dup2\n      0xffffffff\n      and\n      0xe0\n      shl\n      dup2\n      mstore\n      0x04\n      add\n      0x20\n      mload(0x40)\n      dup1\n      dup4\n      sub\n      dup2\n      dup7\n      gas\n      staticcall\n      iszero\n      dup1\n      iszero\n      tag_209\n      jumpi\n      returndatacopy(0x00, 0x00, returndatasize)\n      revert(0x00, returndatasize)\n    tag_209:\n      pop\n      pop\n      pop\n      pop\n      mload(0x40)\n      returndatasize\n      not(0x1f)\n      0x1f\n      dup3\n      add\n      and\n      dup3\n      add\n      dup1\n      0x40\n      mstore\n      pop\n      dup2\n      add\n      swap1\n      tag_210\n      swap2\n      swap1\n      tag_196\n      jump\t// in\n    tag_210:\n        /* \"protocol/Vault.sol\":1136:1178  total += IMarket(markets[i]).assetManage() */\n      dup3\n      tag_211\n      swap2\n      swap1\n      tag_212\n      jump\t// in\n    tag_211:\n      swap2\n      pop\n        /* \"protocol/Vault.sol\":1110:1178  if (isMarket[markets[i]]) total += IMarket(markets[i]).assetManage() */\n    tag_204:\n        /* \"protocol/Vault.sol\":1220:1223  ++i */\n      dup1\n      0x01\n      add\n      swap1\n      pop\n        /* \"protocol/Vault.sol\":1057:1248  for (uint i = 0; i < markets.length; ) {... */\n      jump(tag_197)\n    tag_198:\n      pop\n        /* \"protocol/Vault.sol\":924:1254  function totalAssets() public override view returns (uint total) {... */\n      swap1\n      jump\t// out\n        /* \"token/ERC20Upgradeable.sol\":1510:1593  function name() external view returns (string memory) {... */\n    tag_47:\n        /* \"token/ERC20Upgradeable.sol\":1549:1562  string memory */\n      0x60\n        /* \"token/ERC20Upgradeable.sol\":1581:1586  _name */\n      0x01\n        /* \"token/ERC20Upgradeable.sol\":1574:1586  return _name */\n      dup1\n      sload\n      tag_214\n      swap1\n      tag_215\n      jump\t// in\n    tag_214:\n      dup1\n      0x1f\n      add\n      0x20\n      dup1\n      swap2\n      div\n      mul\n      0x20\n      add\n      mload(0x40)\n      swap1\n      dup2\n      add\n      0x40\n      mstore\n      dup1\n      swap3\n      swap2\n      swap1\n      dup2\n      dup2\n      mstore\n      0x20\n      add\n      dup3\n      dup1\n      sload\n      tag_216\n      swap1\n      tag_215\n      jump\t// in\n    tag_216:\n      dup1\n      iszero\n      tag_217\n      jumpi\n      dup1\n      0x1f\n      lt\n      tag_218\n      jumpi\n      0x0100\n      dup1\n      dup4\n      sload\n      div\n      mul\n      dup4\n      mstore\n      swap2\n      0x20\n      add\n      swap2\n      jump(tag_217)\n    tag_218:\n      dup3\n      add\n      swap2\n      swap1\n      0x00\n      mstore\n      keccak256(0x00, 0x20)\n      swap1\n    tag_219:\n      dup2\n      sload\n      dup2\n      mstore\n      swap1\n      0x01\n      add\n      swap1\n      0x20\n      add\n      dup1\n      dup4\n      gt\n      tag_219\n      jumpi\n      dup3\n      swap1\n      sub\n      0x1f\n      and\n      dup3\n      add\n      swap2\n    tag_217:\n      pop\n      pop\n      pop\n      pop\n      pop\n      swap1\n      pop\n        /* \"token/ERC20Upgradeable.sol\":1510:1593  function name() external view returns (string memory) {... */\n      swap1\n      jump\t// out\n        /* \"token/ERC4626Upgradeable.sol\":1827:2190  function convertToAssets(uint256 shares) public view returns (uint256) {... */\n    tag_54:\n        /* \"token/ERC4626Upgradeable.sol\":1889:1896  uint256 */\n      0x00\n        /* \"token/ERC4626Upgradeable.sol\":1908:1922  uint256 supply */\n      0x00\n        /* \"token/ERC4626Upgradeable.sol\":1925:1929  this */\n      address\n        /* \"token/ERC4626Upgradeable.sol\":1925:1941  this.totalSupply */\n      0xffffffffffffffffffffffffffffffffffffffff\n      and\n      0x18160ddd\n        /* \"token/ERC4626Upgradeable.sol\":1925:1943  this.totalSupply() */\n      mload(0x40)\n      dup2\n      0xffffffff\n      and\n      0xe0\n      shl\n      dup2\n      mstore\n      0x04\n      add\n      0x20\n      mload(0x40)\n      dup1\n      dup4\n      sub\n      dup2\n      dup7\n      gas\n      staticcall\n      iszero\n      dup1\n      iszero\n      tag_222\n      jumpi\n      returndatacopy(0x00, 0x00, returndatasize)\n      revert(0x00, returndatasize)\n    tag_222:\n      pop\n      pop\n      pop\n      pop\n      mload(0x40)\n      returndatasize\n      not(0x1f)\n      0x1f\n      dup3\n      add\n      and\n      dup3\n      add\n      dup1\n      0x40\n      mstore\n      pop\n      dup2\n      add\n      swap1\n      tag_223\n      swap2\n      swap1\n      tag_196\n      jump\t// in\n    tag_223:\n        /* \"token/ERC4626Upgradeable.sol\":1908:1943  uint256 supply = this.totalSupply() */\n      swap1\n      pop\n        /* \"token/ERC4626Upgradeable.sol\":1953:1972  uint256 assetsTotal */\n      0x00\n        /* \"token/ERC4626Upgradeable.sol\":1975:1988  totalAssets() */\n      tag_224\n        /* \"token/ERC4626Upgradeable.sol\":1975:1986  totalAssets */\n      tag_42\n        /* \"token/ERC4626Upgradeable.sol\":1975:1988  totalAssets() */\n      jump\t// in\n    tag_224:\n        /* \"token/ERC4626Upgradeable.sol\":1953:1988  uint256 assetsTotal = totalAssets() */\n      swap1\n      pop\n        /* \"token/ERC4626Upgradeable.sol\":2074:2075  0 */\n      0x00\n        /* \"token/ERC4626Upgradeable.sol\":2064:2070  supply */\n      dup3\n        /* \"token/ERC4626Upgradeable.sol\":2064:2075  supply == 0 */\n      eq\n        /* \"token/ERC4626Upgradeable.sol\":2064:2095  supply == 0 || assetsTotal == 0 */\n      dup1\n      tag_225\n      jumpi\n      pop\n        /* \"token/ERC4626Upgradeable.sol\":2094:2095  0 */\n      0x00\n        /* \"token/ERC4626Upgradeable.sol\":2079:2090  assetsTotal */\n      dup2\n        /* \"token/ERC4626Upgradeable.sol\":2079:2095  assetsTotal == 0 */\n      eq\n        /* \"token/ERC4626Upgradeable.sol\":2064:2095  supply == 0 || assetsTotal == 0 */\n    tag_225:\n        /* \"token/ERC4626Upgradeable.sol\":2060:2135  if (supply == 0 || assetsTotal == 0) {... */\n      iszero\n      tag_226\n      jumpi\n        /* \"token/ERC4626Upgradeable.sol\":2118:2124  shares */\n      dup4\n        /* \"token/ERC4626Upgradeable.sol\":2111:2124  return shares */\n      swap3\n      pop\n      pop\n      pop\n      jump(tag_220)\n        /* \"token/ERC4626Upgradeable.sol\":2060:2135  if (supply == 0 || assetsTotal == 0) {... */\n    tag_226:\n        /* \"token/ERC4626Upgradeable.sol\":2177:2183  supply */\n      dup2\n        /* \"token/ERC4626Upgradeable.sol\":2162:2173  assetsTotal */\n      dup2\n        /* \"token/ERC4626Upgradeable.sol\":2153:2159  shares */\n      dup6\n        /* \"token/ERC4626Upgradeable.sol\":2153:2173  shares * assetsTotal */\n      tag_227\n      swap2\n      swap1\n      tag_228\n      jump\t// in\n    tag_227:\n        /* \"token/ERC4626Upgradeable.sol\":2152:2183  (shares * assetsTotal) / supply */\n      tag_229\n      swap2\n      swap1\n      tag_230\n      jump\t// in\n    tag_229:\n        /* \"token/ERC4626Upgradeable.sol\":2145:2183  return (shares * assetsTotal) / supply */\n      swap3\n      pop\n      pop\n      pop\n        /* \"token/ERC4626Upgradeable.sol\":1827:2190  function convertToAssets(uint256 shares) public view returns (uint256) {... */\n    tag_220:\n      swap2\n      swap1\n      pop\n      jump\t// out\n        /* \"token/ERC20Upgradeable.sol\":2286:2435  function approve(address spender, uint256 amount) external returns (bool) {... */\n    tag_60:\n        /* \"token/ERC20Upgradeable.sol\":2354:2358  bool */\n      0x00\n        /* \"token/ERC20Upgradeable.sol\":2370:2407  _approve(msg.sender, spender, amount) */\n      tag_232\n        /* \"token/ERC20Upgradeable.sol\":2379:2389  msg.sender */\n      caller\n        /* \"token/ERC20Upgradeable.sol\":2391:2398  spender */\n      dup5\n        /* \"token/ERC20Upgradeable.sol\":2400:2406  amount */\n      dup5\n        /* \"token/ERC20Upgradeable.sol\":2370:2378  _approve */\n      tag_233\n        /* \"token/ERC20Upgradeable.sol\":2370:2407  _approve(msg.sender, spender, amount) */\n      jump\t// in\n    tag_232:\n        /* \"token/ERC20Upgradeable.sol\":2424:2428  true */\n      0x01\n        /* \"token/ERC20Upgradeable.sol\":2417:2428  return true */\n      swap1\n      pop\n        /* \"token/ERC20Upgradeable.sol\":2286:2435  function approve(address spender, uint256 amount) external returns (bool) {... */\n      swap3\n      swap2\n      pop\n      pop\n      jump\t// out\n        /* \"token/ERC20Upgradeable.sol\":1780:1871  function totalSupply() external view returns (uint256) {... */\n    tag_65:\n        /* \"token/ERC20Upgradeable.sol\":1826:1833  uint256 */\n      0x00\n        /* \"token/ERC20Upgradeable.sol\":1852:1864  _totalSupply */\n      sload(0x04)\n        /* \"token/ERC20Upgradeable.sol\":1845:1864  return _totalSupply */\n      swap1\n      pop\n        /* \"token/ERC20Upgradeable.sol\":1780:1871  function totalSupply() external view returns (uint256) {... */\n      swap1\n      jump\t// out\n        /* \"token/ERC20Upgradeable.sol\":2441:2960  function transferFrom(address from, address to, uint256 amount) external returns (bool) {... */\n    tag_71:\n        /* \"token/ERC20Upgradeable.sol\":2523:2527  bool */\n      0x00\n        /* \"token/ERC20Upgradeable.sol\":2539:2563  uint256 currentAllowance */\n      0x00\n        /* \"token/ERC20Upgradeable.sol\":2566:2577  _allowances */\n      0x06\n        /* \"token/ERC20Upgradeable.sol\":2566:2583  _allowances[from] */\n      0x00\n        /* \"token/ERC20Upgradeable.sol\":2578:2582  from */\n      dup7\n        /* \"token/ERC20Upgradeable.sol\":2566:2583  _allowances[from] */\n      0xffffffffffffffffffffffffffffffffffffffff\n      and\n      0xffffffffffffffffffffffffffffffffffffffff\n      and\n      dup2\n      mstore\n      0x20\n      add\n      swap1\n      dup2\n      mstore\n      0x20\n      add\n      0x00\n      keccak256\n        /* \"token/ERC20Upgradeable.sol\":2566:2595  _allowances[from][msg.sender] */\n      0x00\n        /* \"token/ERC20Upgradeable.sol\":2584:2594  msg.sender */\n      caller\n        /* \"token/ERC20Upgradeable.sol\":2566:2595  _allowances[from][msg.sender] */\n      0xffffffffffffffffffffffffffffffffffffffff\n      and\n      0xffffffffffffffffffffffffffffffffffffffff\n      and\n      dup2\n      mstore\n      0x20\n      add\n      swap1\n      dup2\n      mstore\n      0x20\n      add\n      0x00\n      keccak256\n      sload\n        /* \"token/ERC20Upgradeable.sol\":2539:2595  uint256 currentAllowance = _allowances[from][msg.sender] */\n      swap1\n      pop\n        /* \"token/ERC20Upgradeable.sol\":2723:2740  type(uint256).max */\n      0xffffffffffffffffffffffffffffffffffffffffffffffffffffffffffffffff\n        /* \"token/ERC20Upgradeable.sol\":2703:2719  currentAllowance */\n      dup2\n        /* \"token/ERC20Upgradeable.sol\":2703:2740  currentAllowance != type(uint256).max */\n      eq\n        /* \"token/ERC20Upgradeable.sol\":2699:2895  if (currentAllowance != type(uint256).max) {... */\n      tag_236\n      jumpi\n        /* \"token/ERC20Upgradeable.sol\":2784:2790  amount */\n      dup3\n        /* \"token/ERC20Upgradeable.sol\":2764:2780  currentAllowance */\n      dup2\n        /* \"token/ERC20Upgradeable.sol\":2764:2790  currentAllowance >= amount */\n      lt\n      iszero\n        /* \"token/ERC20Upgradeable.sol\":2756:2817  require(currentAllowance >= amount, \"INSUFFICIENT_ALLOWANCE\") */\n      tag_237\n      jumpi\n      mload(0x40)\n      0x08c379a000000000000000000000000000000000000000000000000000000000\n      dup2\n      mstore\n      0x04\n      add\n      tag_238\n      swap1\n      tag_239\n      jump\t// in\n    tag_238:\n      mload(0x40)\n      dup1\n      swap2\n      sub\n      swap1\n      revert\n    tag_237:\n        /* \"token/ERC20Upgradeable.sol\":2831:2884  _approve(from, msg.sender, currentAllowance - amount) */\n      tag_240\n        /* \"token/ERC20Upgradeable.sol\":2840:2844  from */\n      dup6\n        /* \"token/ERC20Upgradeable.sol\":2846:2856  msg.sender */\n      caller\n        /* \"token/ERC20Upgradeable.sol\":2877:2883  amount */\n      dup6\n        /* \"token/ERC20Upgradeable.sol\":2858:2874  currentAllowance */\n      dup5\n        /* \"token/ERC20Upgradeable.sol\":2858:2883  currentAllowance - amount */\n      tag_241\n      swap2\n      swap1\n      tag_242\n      jump\t// in\n    tag_241:\n        /* \"token/ERC20Upgradeable.sol\":2831:2839  _approve */\n      tag_233\n        /* \"token/ERC20Upgradeable.sol\":2831:2884  _approve(from, msg.sender, currentAllowance - amount) */\n      jump\t// in\n    tag_240:\n        /* \"token/ERC20Upgradeable.sol\":2699:2895  if (currentAllowance != type(uint256).max) {... */\n    tag_236:\n        /* \"token/ERC20Upgradeable.sol\":2905:2932  _transfer(from, to, amount) */\n      tag_243\n        /* \"token/ERC20Upgradeable.sol\":2915:2919  from */\n      dup6\n        /* \"token/ERC20Upgradeable.sol\":2921:2923  to */\n      dup6\n        /* \"token/ERC20Upgradeable.sol\":2925:2931  amount */\n      dup6\n        /* \"token/ERC20Upgradeable.sol\":2905:2914  _transfer */\n      tag_244\n        /* \"token/ERC20Upgradeable.sol\":2905:2932  _transfer(from, to, amount) */\n      jump\t// in\n    tag_243:\n        /* \"token/ERC20Upgradeable.sol\":2949:2953  true */\n      0x01\n        /* \"token/ERC20Upgradeable.sol\":2942:2953  return true */\n      swap2\n      pop\n      pop\n        /* \"token/ERC20Upgradeable.sol\":2441:2960  function transferFrom(address from, address to, uint256 amount) external returns (bool) {... */\n      swap4\n      swap3\n      pop\n      pop\n      pop\n      jump\t// out\n        /* \"token/ERC20Upgradeable.sol\":1692:1774  function decimals() external view returns (uint) {... */\n    tag_75:\n        /* \"token/ERC20Upgradeable.sol\":1735:1739  uint */\n      0x00\n        /* \"token/ERC20Upgradeable.sol\":1758:1767  _decimals */\n      0x03\n      0x00\n      swap1\n      sload\n      swap1\n      0x0100\n      exp\n      swap1\n      div\n      0xff\n      and\n        /* \"token/ERC20Upgradeable.sol\":1751:1767  return _decimals */\n      0xff\n      and\n      swap1\n      pop\n        /* \"token/ERC20Upgradeable.sol\":1692:1774  function decimals() external view returns (uint) {... */\n      swap1\n      jump\t// out\n        /* \"proxy/UUPSUpgradeable.sol\":1745:1927  function upgradeTo(address newImplementation) external onlyProxy {... */\n    tag_81:\n        /* \"proxy/UUPSUpgradeable.sol\":1200:1206  __self */\n      immutable(\"0xe07291691b14f575b5cfdac2c09a610941d76185383eed85c94ea499aff65392\")\n        /* \"proxy/UUPSUpgradeable.sol\":1183:1206  address(this) != __self */\n      0xffffffffffffffffffffffffffffffffffffffff\n      and\n        /* \"proxy/UUPSUpgradeable.sol\":1191:1195  this */\n      address\n        /* \"proxy/UUPSUpgradeable.sol\":1183:1206  address(this) != __self */\n      0xffffffffffffffffffffffffffffffffffffffff\n      and\n      sub\n        /* \"proxy/UUPSUpgradeable.sol\":1175:1227  require(address(this) != __self, \"NOT_DELEGATECALL\") */\n      tag_247\n      jumpi\n      mload(0x40)\n      0x08c379a000000000000000000000000000000000000000000000000000000000\n      dup2\n      mstore\n      0x04\n      add\n      tag_248\n      swap1\n      tag_249\n      jump\t// in\n    tag_248:\n      mload(0x40)\n      dup1\n      swap2\n      sub\n      swap1\n      revert\n    tag_247:\n        /* \"proxy/UUPSUpgradeable.sol\":1269:1275  __self */\n      immutable(\"0xe07291691b14f575b5cfdac2c09a610941d76185383eed85c94ea499aff65392\")\n        /* \"proxy/UUPSUpgradeable.sol\":1245:1275  _getImplementation() == __self */\n      0xffffffffffffffffffffffffffffffffffffffff\n      and\n        /* \"proxy/UUPSUpgradeable.sol\":1245:1265  _getImplementation() */\n      tag_250\n        /* \"proxy/UUPSUpgradeable.sol\":1245:1263  _getImplementation */\n      tag_251\n        /* \"proxy/UUPSUpgradeable.sol\":1245:1265  _getImplementation() */\n      jump\t// in\n    tag_250:\n        /* \"proxy/UUPSUpgradeable.sol\":1245:1275  _getImplementation() == __self */\n      0xffffffffffffffffffffffffffffffffffffffff\n      and\n      eq\n        /* \"proxy/UUPSUpgradeable.sol\":1237:1294  require(_getImplementation() == __self, \"INACTIVE_PROXY\") */\n      tag_252\n      jumpi\n      mload(0x40)\n      0x08c379a000000000000000000000000000000000000000000000000000000000\n      dup2\n      mstore\n      0x04\n      add\n      tag_253\n      swap1\n      tag_254\n      jump\t// in\n    tag_253:\n      mload(0x40)\n      dup1\n      swap2\n      sub\n      swap1\n      revert\n    tag_252:\n        /* \"proxy/UUPSUpgradeable.sol\":1820:1856  _authorizeUpgrade(newImplementation) */\n      tag_256\n        /* \"proxy/UUPSUpgradeable.sol\":1838:1855  newImplementation */\n      dup2\n        /* \"proxy/UUPSUpgradeable.sol\":1820:1837  _authorizeUpgrade */\n      tag_257\n        /* \"proxy/UUPSUpgradeable.sol\":1820:1856  _authorizeUpgrade(newImplementation) */\n      jump\t// in\n    tag_256:\n        /* \"proxy/UUPSUpgradeable.sol\":1866:1920  _upgradeToAndCall(newImplementation, bytes(\"\"), false) */\n      tag_258\n        /* \"proxy/UUPSUpgradeable.sol\":1884:1901  newImplementation */\n      dup2\n        /* \"proxy/UUPSUpgradeable.sol\":1903:1912  bytes(\"\") */\n      mload(0x40)\n      dup1\n      0x20\n      add\n      0x40\n      mstore\n      dup1\n      0x00\n      dup2\n      mstore\n      pop\n        /* \"proxy/UUPSUpgradeable.sol\":1914:1919  false */\n      0x00\n        /* \"proxy/UUPSUpgradeable.sol\":1866:1883  _upgradeToAndCall */\n      tag_259\n        /* \"proxy/UUPSUpgradeable.sol\":1866:1920  _upgradeToAndCall(newImplementation, bytes(\"\"), false) */\n      jump\t// in\n    tag_258:\n        /* \"proxy/UUPSUpgradeable.sol\":1745:1927  function upgradeTo(address newImplementation) external onlyProxy {... */\n      pop\n      jump\t// out\n        /* \"token/ERC4626Upgradeable.sol\":1296:1382  function asset() public view returns (address) {... */\n    tag_84:\n        /* \"token/ERC4626Upgradeable.sol\":1334:1341  address */\n      0x00\n        /* \"token/ERC4626Upgradeable.sol\":1368:1374  _asset */\n      0x07\n      0x00\n      swap1\n      sload\n      swap1\n      0x0100\n      exp\n      swap1\n      div\n      0xffffffffffffffffffffffffffffffffffffffff\n      and\n        /* \"token/ERC4626Upgradeable.sol\":1353:1375  return address(_asset) */\n      swap1\n      pop\n        /* \"token/ERC4626Upgradeable.sol\":1296:1382  function asset() public view returns (address) {... */\n      swap1\n      jump\t// out\n        /* \"protocol/Vault.sol\":431:453  uint public minDeposit */\n    tag_89:\n      sload(0x09)\n      dup2\n      jump\t// out\n        /* \"protocol/Vault.sol\":406:425  string public title */\n    tag_93:\n      0x08\n      dup1\n      sload\n      tag_261\n      swap1\n      tag_215\n      jump\t// in\n    tag_261:\n      dup1\n      0x1f\n      add\n      0x20\n      dup1\n      swap2\n      div\n      mul\n      0x20\n      add\n      mload(0x40)\n      swap1\n      dup2\n      add\n      0x40\n      mstore\n      dup1\n      swap3\n      swap2\n      swap1\n      dup2\n      dup2\n      mstore\n      0x20\n      add\n      dup3\n      dup1\n      sload\n      tag_262\n      swap1\n      tag_215\n      jump\t// in\n    tag_262:\n      dup1\n      iszero\n      tag_263\n      jumpi\n      dup1\n      0x1f\n      lt\n      tag_264\n      jumpi\n      0x0100\n      dup1\n      dup4\n      sload\n      div\n      mul\n      dup4\n      mstore\n      swap2\n      0x20\n      add\n      swap2\n      jump(tag_263)\n    tag_264:\n      dup3\n      add\n      swap2\n      swap1\n      0x00\n      mstore\n      keccak256(0x00, 0x20)\n      swap1\n    tag_265:\n      dup2\n      sload\n      dup2\n      mstore\n      swap1\n      0x01\n      add\n      swap1\n      0x20\n      add\n      dup1\n      dup4\n      gt\n      tag_265\n      jumpi\n      dup3\n      swap1\n      sub\n      0x1f\n      and\n      dup3\n      add\n      swap2\n    tag_263:\n      pop\n      pop\n      pop\n      pop\n      pop\n      dup2\n      jump\t// out\n        /* \"proxy/UUPSUpgradeable.sol\":2028:2240  function upgradeToAndCall(address newImplementation, bytes calldata data) external payable onlyProxy {... */\n    tag_98:\n        /* \"proxy/UUPSUpgradeable.sol\":1200:1206  __self */\n      immutable(\"0xe07291691b14f575b5cfdac2c09a610941d76185383eed85c94ea499aff65392\")\n        /* \"proxy/UUPSUpgradeable.sol\":1183:1206  address(this) != __self */\n      0xffffffffffffffffffffffffffffffffffffffff\n      and\n        /* \"proxy/UUPSUpgradeable.sol\":1191:1195  this */\n      address\n        /* \"proxy/UUPSUpgradeable.sol\":1183:1206  address(this) != __self */\n      0xffffffffffffffffffffffffffffffffffffffff\n      and\n      sub\n        /* \"proxy/UUPSUpgradeable.sol\":1175:1227  require(address(this) != __self, \"NOT_DELEGATECALL\") */\n      tag_267\n      jumpi\n      mload(0x40)\n      0x08c379a000000000000000000000000000000000000000000000000000000000\n      dup2\n      mstore\n      0x04\n      add\n      tag_268\n      swap1\n      tag_249\n      jump\t// in\n    tag_268:\n      mload(0x40)\n      dup1\n      swap2\n      sub\n      swap1\n      revert\n    tag_267:\n        /* \"proxy/UUPSUpgradeable.sol\":1269:1275  __self */\n      immutable(\"0xe07291691b14f575b5cfdac2c09a610941d76185383eed85c94ea499aff65392\")\n        /* \"proxy/UUPSUpgradeable.sol\":1245:1275  _getImplementation() == __self */\n      0xffffffffffffffffffffffffffffffffffffffff\n      and\n        /* \"proxy/UUPSUpgradeable.sol\":1245:1265  _getImplementation() */\n      tag_269\n        /* \"proxy/UUPSUpgradeable.sol\":1245:1263  _getImplementation */\n      tag_251\n        /* \"proxy/UUPSUpgradeable.sol\":1245:1265  _getImplementation() */\n      jump\t// in\n    tag_269:\n        /* \"proxy/UUPSUpgradeable.sol\":1245:1275  _getImplementation() == __self */\n      0xffffffffffffffffffffffffffffffffffffffff\n      and\n      eq\n        /* \"proxy/UUPSUpgradeable.sol\":1237:1294  require(_getImplementation() == __self, \"INACTIVE_PROXY\") */\n      tag_270\n      jumpi\n      mload(0x40)\n      0x08c379a000000000000000000000000000000000000000000000000000000000\n      dup2\n      mstore\n      0x04\n      add\n      tag_271\n      swap1\n      tag_254\n      jump\t// in\n    tag_271:\n      mload(0x40)\n      dup1\n      swap2\n      sub\n      swap1\n      revert\n    tag_270:\n        /* \"proxy/UUPSUpgradeable.sol\":2139:2175  _authorizeUpgrade(newImplementation) */\n      tag_273\n        /* \"proxy/UUPSUpgradeable.sol\":2157:2174  newImplementation */\n      dup4\n        /* \"proxy/UUPSUpgradeable.sol\":2139:2156  _authorizeUpgrade */\n      tag_257\n        /* \"proxy/UUPSUpgradeable.sol\":2139:2175  _authorizeUpgrade(newImplementation) */\n      jump\t// in\n    tag_273:\n        /* \"proxy/UUPSUpgradeable.sol\":2185:2233  _upgradeToAndCall(newImplementation, data, true) */\n      tag_274\n        /* \"proxy/UUPSUpgradeable.sol\":2203:2220  newImplementation */\n      dup4\n        /* \"proxy/UUPSUpgradeable.sol\":2222:2226  data */\n      dup4\n      dup4\n        /* \"proxy/UUPSUpgradeable.sol\":2185:2233  _upgradeToAndCall(newImplementation, data, true) */\n      dup1\n      dup1\n      0x1f\n      add\n      0x20\n      dup1\n      swap2\n      div\n      mul\n      0x20\n      add\n      mload(0x40)\n      swap1\n      dup2\n      add\n      0x40\n      mstore\n      dup1\n      swap4\n      swap3\n      swap2\n      swap1\n      dup2\n      dup2\n      mstore\n      0x20\n      add\n      dup4\n      dup4\n      dup1\n      dup3\n      dup5\n      calldatacopy\n      0x00\n      dup2\n      dup5\n      add\n      mstore\n      not(0x1f)\n      0x1f\n      dup3\n      add\n      and\n      swap1\n      pop\n      dup1\n      dup4\n      add\n      swap3\n      pop\n      pop\n      pop\n      pop\n      pop\n      pop\n      pop\n        /* \"proxy/UUPSUpgradeable.sol\":2228:2232  true */\n      0x01\n        /* \"proxy/UUPSUpgradeable.sol\":2185:2202  _upgradeToAndCall */\n      tag_259\n        /* \"proxy/UUPSUpgradeable.sol\":2185:2233  _upgradeToAndCall(newImplementation, data, true) */\n      jump\t// in\n    tag_274:\n        /* \"proxy/UUPSUpgradeable.sol\":2028:2240  function upgradeToAndCall(address newImplementation, bytes calldata data) external payable onlyProxy {... */\n      pop\n      pop\n      pop\n      jump\t// out\n        /* \"proxy/UUPSUpgradeable.sol\":1577:1690  function proxiableUUID() external view notDelegated returns (bytes32) {... */\n    tag_101:\n        /* \"proxy/UUPSUpgradeable.sol\":1638:1645  bytes32 */\n      0x00\n        /* \"proxy/UUPSUpgradeable.sol\":1471:1477  __self */\n      immutable(\"0xe07291691b14f575b5cfdac2c09a610941d76185383eed85c94ea499aff65392\")\n        /* \"proxy/UUPSUpgradeable.sol\":1454:1477  address(this) == __self */\n      0xffffffffffffffffffffffffffffffffffffffff\n      and\n        /* \"proxy/UUPSUpgradeable.sol\":1462:1466  this */\n      address\n        /* \"proxy/UUPSUpgradeable.sol\":1454:1477  address(this) == __self */\n      0xffffffffffffffffffffffffffffffffffffffff\n      and\n      eq\n        /* \"proxy/UUPSUpgradeable.sol\":1446:1501  require(address(this) == __self, \"ONLY_IMPLEMENTATION\") */\n      tag_276\n      jumpi\n      mload(0x40)\n      0x08c379a000000000000000000000000000000000000000000000000000000000\n      dup2\n      mstore\n      0x04\n      add\n      tag_277\n      swap1\n      tag_278\n      jump\t// in\n    tag_277:\n      mload(0x40)\n      dup1\n      swap2\n      sub\n      swap1\n      revert\n    tag_276:\n        /* \"proxy/UUPSUpgradeable.sol\":793:859  0x360894A13BA1A3210667C828492DB98DCA3E2076CC3735A920A3CA505D382BBC */\n      0x360894a13ba1a3210667c828492db98dca3e2076cc3735a920a3ca505d382bbc\n        /* \"proxy/UUPSUpgradeable.sol\":1664:1683  IMPLEMENTATION_SLOT */\n      0x00\n      shl\n        /* \"proxy/UUPSUpgradeable.sol\":1657:1683  return IMPLEMENTATION_SLOT */\n      swap1\n      pop\n        /* \"proxy/UUPSUpgradeable.sol\":1577:1690  function proxiableUUID() external view notDelegated returns (bytes32) {... */\n      swap1\n      jump\t// out\n        /* \"protocol/Vault.sol\":2119:2355  function deallocateTomarket(... */\n    tag_107:\n        /* \"acess/Ownable.sol\":213:218  owner */\n      0x00\n      0x02\n      swap1\n      sload\n      swap1\n      0x0100\n      exp\n      swap1\n      div\n      0xffffffffffffffffffffffffffffffffffffffff\n      and\n        /* \"acess/Ownable.sol\":199:218  msg.sender == owner */\n      0xffffffffffffffffffffffffffffffffffffffff\n      and\n        /* \"acess/Ownable.sol\":199:209  msg.sender */\n      caller\n        /* \"acess/Ownable.sol\":199:218  msg.sender == owner */\n      0xffffffffffffffffffffffffffffffffffffffff\n      and\n      eq\n        /* \"acess/Ownable.sol\":191:219  require(msg.sender == owner) */\n      tag_281\n      jumpi\n      revert(0x00, 0x00)\n    tag_281:\n        /* \"protocol/Vault.sol\":2236:2244  isMarket */\n      0x0b\n        /* \"protocol/Vault.sol\":2236:2253  isMarket[market_] */\n      0x00\n        /* \"protocol/Vault.sol\":2245:2252  market_ */\n      dup4\n        /* \"protocol/Vault.sol\":2236:2253  isMarket[market_] */\n      0xffffffffffffffffffffffffffffffffffffffff\n      and\n      0xffffffffffffffffffffffffffffffffffffffff\n      and\n      dup2\n      mstore\n      0x20\n      add\n      swap1\n      dup2\n      mstore\n      0x20\n      add\n      0x00\n      keccak256\n      0x00\n      swap1\n      sload\n      swap1\n      0x0100\n      exp\n      swap1\n      div\n      0xff\n      and\n        /* \"protocol/Vault.sol\":2228:2254  require(isMarket[market_]) */\n      tag_283\n      jumpi\n      revert(0x00, 0x00)\n    tag_283:\n        /* \"protocol/Vault.sol\":2282:2297  idleLiquidity() */\n      tag_284\n        /* \"protocol/Vault.sol\":2282:2295  idleLiquidity */\n      tag_134\n        /* \"protocol/Vault.sol\":2282:2297  idleLiquidity() */\n      jump\t// in\n    tag_284:\n        /* \"protocol/Vault.sol\":2272:2278  amount */\n      dup2\n        /* \"protocol/Vault.sol\":2272:2297  amount <= idleLiquidity() */\n      gt\n      iszero\n        /* \"protocol/Vault.sol\":2264:2298  require(amount <= idleLiquidity()) */\n      tag_285\n      jumpi\n      revert(0x00, 0x00)\n    tag_285:\n        /* \"protocol/Vault.sol\":2316:2323  market_ */\n      dup2\n        /* \"protocol/Vault.sol\":2308:2340  IMarket(market_).onVaultWithdraw */\n      0xffffffffffffffffffffffffffffffffffffffff\n      and\n      0x3e3722b6\n        /* \"protocol/Vault.sol\":2341:2347  amount */\n      dup3\n        /* \"protocol/Vault.sol\":2308:2348  IMarket(market_).onVaultWithdraw(amount) */\n      mload(0x40)\n      dup3\n      0xffffffff\n      and\n      0xe0\n      shl\n      dup2\n      mstore\n      0x04\n      add\n      tag_286\n      swap2\n      swap1\n      tag_44\n      jump\t// in\n    tag_286:\n      0x00\n      mload(0x40)\n      dup1\n      dup4\n      sub\n      dup2\n      0x00\n      dup8\n      dup1\n      extcodesize\n      iszero\n      dup1\n      iszero\n      tag_287\n      jumpi\n      revert(0x00, 0x00)\n    tag_287:\n      pop\n      gas\n      call\n      iszero\n      dup1\n      iszero\n      tag_289\n      jumpi\n      returndatacopy(0x00, 0x00, returndatasize)\n      revert(0x00, returndatasize)\n    tag_289:\n      pop\n      pop\n      pop\n      pop\n        /* \"protocol/Vault.sol\":2119:2355  function deallocateTomarket(... */\n      pop\n      pop\n      jump\t// out\n        /* \"protocol/Vault.sol\":1852:2114  function allocateToMarket(address market_, uint amount) external onlyOwner {... */\n    tag_111:\n        /* \"acess/Ownable.sol\":213:218  owner */\n      0x00\n      0x02\n      swap1\n      sload\n      swap1\n      0x0100\n      exp\n      swap1\n      div\n      0xffffffffffffffffffffffffffffffffffffffff\n      and\n        /* \"acess/Ownable.sol\":199:218  msg.sender == owner */\n      0xffffffffffffffffffffffffffffffffffffffff\n      and\n        /* \"acess/Ownable.sol\":199:209  msg.sender */\n      caller\n        /* \"acess/Ownable.sol\":199:218  msg.sender == owner */\n      0xffffffffffffffffffffffffffffffffffffffff\n      and\n      eq\n        /* \"acess/Ownable.sol\":191:219  require(msg.sender == owner) */\n      tag_291\n      jumpi\n      revert(0x00, 0x00)\n    tag_291:\n        /* \"protocol/Vault.sol\":1945:1953  isMarket */\n      0x0b\n        /* \"protocol/Vault.sol\":1945:1962  isMarket[market_] */\n      0x00\n        /* \"protocol/Vault.sol\":1954:1961  market_ */\n      dup4\n        /* \"protocol/Vault.sol\":1945:1962  isMarket[market_] */\n      0xffffffffffffffffffffffffffffffffffffffff\n      and\n      0xffffffffffffffffffffffffffffffffffffffff\n      and\n      dup2\n      mstore\n      0x20\n      add\n      swap1\n      dup2\n      mstore\n      0x20\n      add\n      0x00\n      keccak256\n      0x00\n      swap1\n      sload\n      swap1\n      0x0100\n      exp\n      swap1\n      div\n      0xff\n      and\n        /* \"protocol/Vault.sol\":1937:1963  require(isMarket[market_]) */\n      tag_293\n      jumpi\n      revert(0x00, 0x00)\n    tag_293:\n        /* \"protocol/Vault.sol\":1991:2006  idleLiquidity() */\n      tag_294\n        /* \"protocol/Vault.sol\":1991:2004  idleLiquidity */\n      tag_134\n        /* \"protocol/Vault.sol\":1991:2006  idleLiquidity() */\n      jump\t// in\n    tag_294:\n        /* \"protocol/Vault.sol\":1981:1987  amount */\n      dup2\n        /* \"protocol/Vault.sol\":1981:2006  amount <= idleLiquidity() */\n      gt\n      iszero\n        /* \"protocol/Vault.sol\":1973:2007  require(amount <= idleLiquidity()) */\n      tag_295\n      jumpi\n      revert(0x00, 0x00)\n    tag_295:\n        /* \"protocol/Vault.sol\":2024:2031  asset() */\n      tag_296\n        /* \"protocol/Vault.sol\":2024:2029  asset */\n      tag_84\n        /* \"protocol/Vault.sol\":2024:2031  asset() */\n      jump\t// in\n    tag_296:\n        /* \"protocol/Vault.sol\":2017:2041  IERC20(asset()).transfer */\n      0xffffffffffffffffffffffffffffffffffffffff\n      and\n      0xa9059cbb\n        /* \"protocol/Vault.sol\":2042:2049  market_ */\n      dup4\n        /* \"protocol/Vault.sol\":2051:2057  amount */\n      dup4\n        /* \"protocol/Vault.sol\":2017:2058  IERC20(asset()).transfer(market_, amount) */\n      mload(0x40)\n      dup4\n      0xffffffff\n      and\n      0xe0\n      shl\n      dup2\n      mstore\n      0x04\n      add\n      tag_297\n      swap3\n      swap2\n      swap1\n      tag_298\n      jump\t// in\n    tag_297:\n      0x20\n      mload(0x40)\n      dup1\n      dup4\n      sub\n      dup2\n      0x00\n      dup8\n      gas\n      call\n      iszero\n      dup1\n      iszero\n      tag_300\n      jumpi\n      returndatacopy(0x00, 0x00, returndatasize)\n      revert(0x00, returndatasize)\n    tag_300:\n      pop\n      pop\n      pop\n      pop\n      mload(0x40)\n      returndatasize\n      not(0x1f)\n      0x1f\n      dup3\n      add\n      and\n      dup3\n      add\n      dup1\n      0x40\n      mstore\n      pop\n      dup2\n      add\n      swap1\n      tag_301\n      swap2\n      swap1\n      tag_302\n      jump\t// in\n    tag_301:\n      pop\n        /* \"protocol/Vault.sol\":2076:2083  market_ */\n      dup2\n        /* \"protocol/Vault.sol\":2068:2099  IMarket(market_).onVaultDeposit */\n      0xffffffffffffffffffffffffffffffffffffffff\n      and\n      0x4b92917a\n        /* \"protocol/Vault.sol\":2100:2106  amount */\n      dup3\n        /* \"protocol/Vault.sol\":2068:2107  IMarket(market_).onVaultDeposit(amount) */\n      mload(0x40)\n      dup3\n      0xffffffff\n      and\n      0xe0\n      shl\n      dup2\n      mstore\n      0x04\n      add\n      tag_303\n      swap2\n      swap1\n      tag_44\n      jump\t// in\n    tag_303:\n      0x00\n      mload(0x40)\n      dup1\n      dup4\n      sub\n      dup2\n      0x00\n      dup8\n      dup1\n      extcodesize\n      iszero\n      dup1\n      iszero\n      tag_304\n      jumpi\n      revert(0x00, 0x00)\n    tag_304:\n      pop\n      gas\n      call\n      iszero\n      dup1\n      iszero\n      tag_306\n      jumpi\n      returndatacopy(0x00, 0x00, returndatasize)\n      revert(0x00, returndatasize)\n    tag_306:\n      pop\n      pop\n      pop\n      pop\n        /* \"protocol/Vault.sol\":1852:2114  function allocateToMarket(address market_, uint amount) external onlyOwner {... */\n      pop\n      pop\n      jump\t// out\n        /* \"protocol/Vault.sol\":1382:1594  function deposit(... */\n    tag_116:\n        /* \"protocol/Vault.sol\":1478:1489  uint shares */\n      0x00\n        /* \"protocol/Vault.sol\":1520:1535  idleLiquidity() */\n      tag_308\n        /* \"protocol/Vault.sol\":1520:1533  idleLiquidity */\n      tag_134\n        /* \"protocol/Vault.sol\":1520:1535  idleLiquidity() */\n      jump\t// in\n    tag_308:\n        /* \"protocol/Vault.sol\":1509:1516  assets_ */\n      dup4\n        /* \"protocol/Vault.sol\":1509:1535  assets_ <= idleLiquidity() */\n      gt\n      iszero\n        /* \"protocol/Vault.sol\":1501:1536  require(assets_ <= idleLiquidity()) */\n      tag_309\n      jumpi\n      revert(0x00, 0x00)\n    tag_309:\n        /* \"protocol/Vault.sol\":1555:1587  super.deposit(assets_, receiver) */\n      tag_310\n        /* \"protocol/Vault.sol\":1569:1576  assets_ */\n      dup4\n        /* \"protocol/Vault.sol\":1578:1586  receiver */\n      dup4\n        /* \"protocol/Vault.sol\":1555:1568  super.deposit */\n      tag_311\n        /* \"protocol/Vault.sol\":1555:1587  super.deposit(assets_, receiver) */\n      jump\t// in\n    tag_310:\n        /* \"protocol/Vault.sol\":1546:1587  shares = super.deposit(assets_, receiver) */\n      swap1\n      pop\n        /* \"protocol/Vault.sol\":1382:1594  function deposit(... */\n      swap3\n      swap2\n      pop\n      pop\n      jump\t// out\n        /* \"protocol/Vault.sol\":489:529  mapping(address => bool) public isMarket */\n    tag_121:\n      mstore(0x20, 0x0b)\n      dup1\n      0x00\n      mstore\n      keccak256(0x00, 0x40)\n      0x00\n      swap2\n      pop\n      sload\n      swap1\n      0x0100\n      exp\n      swap1\n      div\n      0xff\n      and\n      dup2\n      jump\t// out\n        /* \"token/ERC20Upgradeable.sol\":1877:1987  function balanceOf(address account) external view returns (uint256) {... */\n    tag_126:\n        /* \"token/ERC20Upgradeable.sol\":1936:1943  uint256 */\n      0x00\n        /* \"token/ERC20Upgradeable.sol\":1962:1971  _balances */\n      0x05\n        /* \"token/ERC20Upgradeable.sol\":1962:1980  _balances[account] */\n      0x00\n        /* \"token/ERC20Upgradeable.sol\":1972:1979  account */\n      dup4\n        /* \"token/ERC20Upgradeable.sol\":1962:1980  _balances[account] */\n      0xffffffffffffffffffffffffffffffffffffffff\n      and\n      0xffffffffffffffffffffffffffffffffffffffff\n      and\n      dup2\n      mstore\n      0x20\n      add\n      swap1\n      dup2\n      mstore\n      0x20\n      add\n      0x00\n      keccak256\n      sload\n        /* \"token/ERC20Upgradeable.sol\":1955:1980  return _balances[account] */\n      swap1\n      pop\n        /* \"token/ERC20Upgradeable.sol\":1877:1987  function balanceOf(address account) external view returns (uint256) {... */\n      swap2\n      swap1\n      pop\n      jump\t// out\n        /* \"acess/Ownable.sol\":133:153  address public owner */\n    tag_130:\n      0x00\n      0x02\n      swap1\n      sload\n      swap1\n      0x0100\n      exp\n      swap1\n      div\n      0xffffffffffffffffffffffffffffffffffffffff\n      and\n      dup2\n      jump\t// out\n        /* \"protocol/Vault.sol\":1260:1376  function idleLiquidity() public view returns (uint) {... */\n    tag_134:\n        /* \"protocol/Vault.sol\":1306:1310  uint */\n      0x00\n        /* \"protocol/Vault.sol\":1336:1343  asset() */\n      tag_314\n        /* \"protocol/Vault.sol\":1336:1341  asset */\n      tag_84\n        /* \"protocol/Vault.sol\":1336:1343  asset() */\n      jump\t// in\n    tag_314:\n        /* \"protocol/Vault.sol\":1329:1354  IERC20(asset()).balanceOf */\n      0xffffffffffffffffffffffffffffffffffffffff\n      and\n      0x70a08231\n        /* \"protocol/Vault.sol\":1363:1367  this */\n      address\n        /* \"protocol/Vault.sol\":1329:1369  IERC20(asset()).balanceOf(address(this)) */\n      mload(0x40)\n      dup3\n      0xffffffff\n      and\n      0xe0\n      shl\n      dup2\n      mstore\n      0x04\n      add\n      tag_315\n      swap2\n      swap1\n      tag_86\n      jump\t// in\n    tag_315:\n      0x20\n      mload(0x40)\n      dup1\n      dup4\n      sub\n      dup2\n      dup7\n      gas\n      staticcall\n      iszero\n      dup1\n      iszero\n      tag_317\n      jumpi\n      returndatacopy(0x00, 0x00, returndatasize)\n      revert(0x00, returndatasize)\n    tag_317:\n      pop\n      pop\n      pop\n      pop\n      mload(0x40)\n      returndatasize\n      not(0x1f)\n      0x1f\n      dup3\n      add\n      and\n      dup3\n      add\n      dup1\n      0x40\n      mstore\n      pop\n      dup2\n      add\n      swap1\n      tag_318\n      swap2\n      swap1\n      tag_196\n      jump\t// in\n    tag_318:\n        /* \"protocol/Vault.sol\":1322:1369  return IERC20(asset()).balanceOf(address(this)) */\n      swap1\n      pop\n        /* \"protocol/Vault.sol\":1260:1376  function idleLiquidity() public view returns (uint) {... */\n      swap1\n      jump\t// out\n        /* \"protocol/Vault.sol\":2361:2565  function addMarket(address market_) external onlyOwner {... */\n    tag_139:\n        /* \"acess/Ownable.sol\":213:218  owner */\n      0x00\n      0x02\n      swap1\n      sload\n      swap1\n      0x0100\n      exp\n      swap1\n      div\n      0xffffffffffffffffffffffffffffffffffffffff\n      and\n        /* \"acess/Ownable.sol\":199:218  msg.sender == owner */\n      0xffffffffffffffffffffffffffffffffffffffff\n      and\n        /* \"acess/Ownable.sol\":199:209  msg.sender */\n      caller\n        /* \"acess/Ownable.sol\":199:218  msg.sender == owner */\n      0xffffffffffffffffffffffffffffffffffffffff\n      and\n      eq\n        /* \"acess/Ownable.sol\":191:219  require(msg.sender == owner) */\n      tag_320\n      jumpi\n      revert(0x00, 0x00)\n    tag_320:\n        /* \"protocol/Vault.sol\":2453:2454  0 */\n      0x00\n        /* \"protocol/Vault.sol\":2434:2455  market_ != address(0) */\n      0xffffffffffffffffffffffffffffffffffffffff\n      and\n        /* \"protocol/Vault.sol\":2434:2441  market_ */\n      dup2\n        /* \"protocol/Vault.sol\":2434:2455  market_ != address(0) */\n      0xffffffffffffffffffffffffffffffffffffffff\n      and\n      sub\n        /* \"protocol/Vault.sol\":2426:2456  require(market_ != address(0)) */\n      tag_322\n      jumpi\n      revert(0x00, 0x00)\n    tag_322:\n        /* \"protocol/Vault.sol\":2475:2483  isMarket */\n      0x0b\n        /* \"protocol/Vault.sol\":2475:2492  isMarket[market_] */\n      0x00\n        /* \"protocol/Vault.sol\":2484:2491  market_ */\n      dup3\n        /* \"protocol/Vault.sol\":2475:2492  isMarket[market_] */\n      0xffffffffffffffffffffffffffffffffffffffff\n      and\n      0xffffffffffffffffffffffffffffffffffffffff\n      and\n      dup2\n      mstore\n      0x20\n      add\n      swap1\n      dup2\n      mstore\n      0x20\n      add\n      0x00\n      keccak256\n      0x00\n      swap1\n      sload\n      swap1\n      0x0100\n      exp\n      swap1\n      div\n      0xff\n      and\n        /* \"protocol/Vault.sol\":2474:2492  !isMarket[market_] */\n      iszero\n        /* \"protocol/Vault.sol\":2466:2493  require(!isMarket[market_]) */\n      tag_323\n      jumpi\n      revert(0x00, 0x00)\n    tag_323:\n        /* \"protocol/Vault.sol\":2523:2527  true */\n      0x01\n        /* \"protocol/Vault.sol\":2503:2511  isMarket */\n      0x0b\n        /* \"protocol/Vault.sol\":2503:2520  isMarket[market_] */\n      0x00\n        /* \"protocol/Vault.sol\":2512:2519  market_ */\n      dup4\n        /* \"protocol/Vault.sol\":2503:2520  isMarket[market_] */\n      0xffffffffffffffffffffffffffffffffffffffff\n      and\n      0xffffffffffffffffffffffffffffffffffffffff\n      and\n      dup2\n      mstore\n      0x20\n      add\n      swap1\n      dup2\n      mstore\n      0x20\n      add\n      0x00\n      keccak256\n      0x00\n        /* \"protocol/Vault.sol\":2503:2527  isMarket[market_] = true */\n      0x0100\n      exp\n      dup2\n      sload\n      dup2\n      0xff\n      mul\n      not\n      and\n      swap1\n      dup4\n      iszero\n      iszero\n      mul\n      or\n      swap1\n      sstore\n      pop\n        /* \"protocol/Vault.sol\":2537:2544  markets */\n      0x0a\n        /* \"protocol/Vault.sol\":2550:2557  market_ */\n      dup2\n        /* \"protocol/Vault.sol\":2537:2558  markets.push(market_) */\n      swap1\n      dup1\n      0x01\n      dup2\n      sload\n      add\n      dup1\n      dup3\n      sstore\n      dup1\n      swap2\n      pop\n      pop\n      0x01\n      swap1\n      sub\n      swap1\n      0x00\n      mstore\n      keccak256(0x00, 0x20)\n      add\n      0x00\n      swap1\n      swap2\n      swap1\n      swap2\n      swap1\n      swap2\n      0x0100\n      exp\n      dup2\n      sload\n      dup2\n      0xffffffffffffffffffffffffffffffffffffffff\n      mul\n      not\n      and\n      swap1\n      dup4\n      0xffffffffffffffffffffffffffffffffffffffff\n      and\n      mul\n      or\n      swap1\n      sstore\n      pop\n        /* \"protocol/Vault.sol\":2361:2565  function addMarket(address market_) external onlyOwner {... */\n      pop\n      jump\t// out\n        /* \"token/ERC4626Upgradeable.sol\":2595:2985  function mint(uint256 shares, address receiver) public virtual returns (uint256 assets_) {... */\n    tag_143:\n        /* \"token/ERC4626Upgradeable.sol\":2667:2682  uint256 assets_ */\n      0x00\n        /* \"token/ERC4626Upgradeable.sol\":2711:2712  0 */\n      0x00\n        /* \"token/ERC4626Upgradeable.sol\":2702:2708  shares */\n      dup4\n        /* \"token/ERC4626Upgradeable.sol\":2702:2712  shares > 0 */\n      gt\n        /* \"token/ERC4626Upgradeable.sol\":2694:2728  require(shares > 0, \"ZERO_SHARES\") */\n      tag_326\n      jumpi\n      mload(0x40)\n      0x08c379a000000000000000000000000000000000000000000000000000000000\n      dup2\n      mstore\n      0x04\n      add\n      tag_327\n      swap1\n      tag_328\n      jump\t// in\n    tag_327:\n      mload(0x40)\n      dup1\n      swap2\n      sub\n      swap1\n      revert\n    tag_326:\n        /* \"token/ERC4626Upgradeable.sol\":2749:2772  convertToAssets(shares) */\n      tag_329\n        /* \"token/ERC4626Upgradeable.sol\":2765:2771  shares */\n      dup4\n        /* \"token/ERC4626Upgradeable.sol\":2749:2764  convertToAssets */\n      tag_54\n        /* \"token/ERC4626Upgradeable.sol\":2749:2772  convertToAssets(shares) */\n      jump\t// in\n    tag_329:\n        /* \"token/ERC4626Upgradeable.sol\":2739:2772  assets_ = convertToAssets(shares) */\n      swap1\n      pop\n        /* \"token/ERC4626Upgradeable.sol\":2800:2801  0 */\n      0x00\n        /* \"token/ERC4626Upgradeable.sol\":2790:2797  assets_ */\n      dup2\n        /* \"token/ERC4626Upgradeable.sol\":2790:2801  assets_ > 0 */\n      gt\n        /* \"token/ERC4626Upgradeable.sol\":2782:2817  require(assets_ > 0, \"ZERO_ASSETS\") */\n      tag_330\n      jumpi\n      mload(0x40)\n      0x08c379a000000000000000000000000000000000000000000000000000000000\n      dup2\n      mstore\n      0x04\n      add\n      tag_331\n      swap1\n      tag_332\n      jump\t// in\n    tag_331:\n      mload(0x40)\n      dup1\n      swap2\n      sub\n      swap1\n      revert\n    tag_330:\n        /* \"token/ERC4626Upgradeable.sol\":2828:2834  _asset */\n      0x07\n      0x00\n      swap1\n      sload\n      swap1\n      0x0100\n      exp\n      swap1\n      div\n      0xffffffffffffffffffffffffffffffffffffffff\n      and\n        /* \"token/ERC4626Upgradeable.sol\":2828:2847  _asset.transferFrom */\n      0xffffffffffffffffffffffffffffffffffffffff\n      and\n      0x23b872dd\n        /* \"token/ERC4626Upgradeable.sol\":2848:2858  msg.sender */\n      caller\n        /* \"token/ERC4626Upgradeable.sol\":2868:2872  this */\n      address\n        /* \"token/ERC4626Upgradeable.sol\":2875:2882  assets_ */\n      dup5\n        /* \"token/ERC4626Upgradeable.sol\":2828:2883  _asset.transferFrom(msg.sender, address(this), assets_) */\n      mload(0x40)\n      dup5\n      0xffffffff\n      and\n      0xe0\n      shl\n      dup2\n      mstore\n      0x04\n      add\n      tag_333\n      swap4\n      swap3\n      swap2\n      swap1\n      tag_334\n      jump\t// in\n    tag_333:\n      0x20\n      mload(0x40)\n      dup1\n      dup4\n      sub\n      dup2\n      0x00\n      dup8\n      gas\n      call\n      iszero\n      dup1\n      iszero\n      tag_336\n      jumpi\n      returndatacopy(0x00, 0x00, returndatasize)\n      revert(0x00, returndatasize)\n    tag_336:\n      pop\n      pop\n      pop\n      pop\n      mload(0x40)\n      returndatasize\n      not(0x1f)\n      0x1f\n      dup3\n      add\n      and\n      dup3\n      add\n      dup1\n      0x40\n      mstore\n      pop\n      dup2\n      add\n      swap1\n      tag_337\n      swap2\n      swap1\n      tag_302\n      jump\t// in\n    tag_337:\n      pop\n        /* \"token/ERC4626Upgradeable.sol\":2893:2916  _mint(receiver, shares) */\n      tag_338\n        /* \"token/ERC4626Upgradeable.sol\":2899:2907  receiver */\n      dup3\n        /* \"token/ERC4626Upgradeable.sol\":2909:2915  shares */\n      dup5\n        /* \"token/ERC4626Upgradeable.sol\":2893:2898  _mint */\n      tag_339\n        /* \"token/ERC4626Upgradeable.sol\":2893:2916  _mint(receiver, shares) */\n      jump\t// in\n    tag_338:\n        /* \"token/ERC4626Upgradeable.sol\":2952:2960  receiver */\n      dup2\n        /* \"token/ERC4626Upgradeable.sol\":2932:2978  Deposit(msg.sender, receiver, assets_, shares) */\n      0xffffffffffffffffffffffffffffffffffffffff\n      and\n        /* \"token/ERC4626Upgradeable.sol\":2940:2950  msg.sender */\n      caller\n        /* \"token/ERC4626Upgradeable.sol\":2932:2978  Deposit(msg.sender, receiver, assets_, shares) */\n      0xffffffffffffffffffffffffffffffffffffffff\n      and\n      0xdcbc1c05240f31ff3ad067ef1ee35ce4997762752e3a095284754544f4c709d7\n        /* \"token/ERC4626Upgradeable.sol\":2962:2969  assets_ */\n      dup4\n        /* \"token/ERC4626Upgradeable.sol\":2971:2977  shares */\n      dup7\n        /* \"token/ERC4626Upgradeable.sol\":2932:2978  Deposit(msg.sender, receiver, assets_, shares) */\n      mload(0x40)\n      tag_340\n      swap3\n      swap2\n      swap1\n      tag_341\n      jump\t// in\n    tag_340:\n      mload(0x40)\n      dup1\n      swap2\n      sub\n      swap1\n      log3\n        /* \"token/ERC4626Upgradeable.sol\":2595:2985  function mint(uint256 shares, address receiver) public virtual returns (uint256 assets_) {... */\n      swap3\n      swap2\n      pop\n      pop\n      jump\t// out\n        /* \"token/ERC20Upgradeable.sol\":1599:1686  function symbol() external view returns (string memory) {... */\n    tag_147:\n        /* \"token/ERC20Upgradeable.sol\":1640:1653  string memory */\n      0x60\n        /* \"token/ERC20Upgradeable.sol\":1672:1679  _symbol */\n      0x02\n        /* \"token/ERC20Upgradeable.sol\":1665:1679  return _symbol */\n      dup1\n      sload\n      tag_343\n      swap1\n      tag_215\n      jump\t// in\n    tag_343:\n      dup1\n      0x1f\n      add\n      0x20\n      dup1\n      swap2\n      div\n      mul\n      0x20\n      add\n      mload(0x40)\n      swap1\n      dup2\n      add\n      0x40\n      mstore\n      dup1\n      swap3\n      swap2\n      swap1\n      dup2\n      dup2\n      mstore\n      0x20\n      add\n      dup3\n      dup1\n      sload\n      tag_344\n      swap1\n      tag_215\n      jump\t// in\n    tag_344:\n      dup1\n      iszero\n      tag_345\n      jumpi\n      dup1\n      0x1f\n      lt\n      tag_346\n      jumpi\n      0x0100\n      dup1\n      dup4\n      sload\n      div\n      mul\n      dup4\n      mstore\n      swap2\n      0x20\n      add\n      swap2\n      jump(tag_345)\n    tag_346:\n      dup3\n      add\n      swap2\n      swap1\n      0x00\n      mstore\n      keccak256(0x00, 0x20)\n      swap1\n    tag_347:\n      dup2\n      sload\n      dup2\n      mstore\n      swap1\n      0x01\n      add\n      swap1\n      0x20\n      add\n      dup1\n      dup4\n      gt\n      tag_347\n      jumpi\n      dup3\n      swap1\n      sub\n      0x1f\n      and\n      dup3\n      add\n      swap2\n    tag_345:\n      pop\n      pop\n      pop\n      pop\n      pop\n      swap1\n      pop\n        /* \"token/ERC20Upgradeable.sol\":1599:1686  function symbol() external view returns (string memory) {... */\n      swap1\n      jump\t// out\n        /* \"token/ERC20Upgradeable.sol\":2139:2280  function transfer(address to, uint256 amount) external returns (bool) {... */\n    tag_152:\n        /* \"token/ERC20Upgradeable.sol\":2203:2207  bool */\n      0x00\n        /* \"token/ERC20Upgradeable.sol\":2219:2252  _transfer(msg.sender, to, amount) */\n      tag_349\n        /* \"token/ERC20Upgradeable.sol\":2229:2239  msg.sender */\n      caller\n        /* \"token/ERC20Upgradeable.sol\":2241:2243  to */\n      dup5\n        /* \"token/ERC20Upgradeable.sol\":2245:2251  amount */\n      dup5\n        /* \"token/ERC20Upgradeable.sol\":2219:2228  _transfer */\n      tag_244\n        /* \"token/ERC20Upgradeable.sol\":2219:2252  _transfer(msg.sender, to, amount) */\n      jump\t// in\n    tag_349:\n        /* \"token/ERC20Upgradeable.sol\":2269:2273  true */\n      0x01\n        /* \"token/ERC20Upgradeable.sol\":2262:2273  return true */\n      swap1\n      pop\n        /* \"token/ERC20Upgradeable.sol\":2139:2280  function transfer(address to, uint256 amount) external returns (bool) {... */\n      swap3\n      swap2\n      pop\n      pop\n      jump\t// out\n        /* \"protocol/Vault.sol\":459:483  address[] public markets */\n    tag_157:\n      0x0a\n      dup2\n      dup2\n      sload\n      dup2\n      lt\n      tag_350\n      jumpi\n      0x00\n      dup1\n      revert\n    tag_350:\n      swap1\n      0x00\n      mstore\n      keccak256(0x00, 0x20)\n      add\n      0x00\n      swap2\n      pop\n      sload\n      swap1\n      0x0100\n      exp\n      swap1\n      div\n      0xffffffffffffffffffffffffffffffffffffffff\n      and\n      dup2\n      jump\t// out\n        /* \"protocol/Vault.sol\":1600:1846  function withdraw(... */\n    tag_163:\n        /* \"protocol/Vault.sol\":1721:1732  uint shares */\n      0x00\n        /* \"protocol/Vault.sol\":1763:1778  idleLiquidity() */\n      tag_353\n        /* \"protocol/Vault.sol\":1763:1776  idleLiquidity */\n      tag_134\n        /* \"protocol/Vault.sol\":1763:1778  idleLiquidity() */\n      jump\t// in\n    tag_353:\n        /* \"protocol/Vault.sol\":1752:1759  assets_ */\n      dup5\n        /* \"protocol/Vault.sol\":1752:1778  assets_ <= idleLiquidity() */\n      gt\n      iszero\n        /* \"protocol/Vault.sol\":1744:1779  require(assets_ <= idleLiquidity()) */\n      tag_354\n      jumpi\n      revert(0x00, 0x00)\n    tag_354:\n        /* \"protocol/Vault.sol\":1798:1839  super.withdraw(assets_, receiver, owner_) */\n      tag_355\n        /* \"protocol/Vault.sol\":1813:1820  assets_ */\n      dup5\n        /* \"protocol/Vault.sol\":1822:1830  receiver */\n      dup5\n        /* \"protocol/Vault.sol\":1832:1838  owner_ */\n      dup5\n        /* \"protocol/Vault.sol\":1798:1812  super.withdraw */\n      tag_356\n        /* \"protocol/Vault.sol\":1798:1839  super.withdraw(assets_, receiver, owner_) */\n      jump\t// in\n    tag_355:\n        /* \"protocol/Vault.sol\":1789:1839  shares = super.withdraw(assets_, receiver, owner_) */\n      swap1\n      pop\n        /* \"protocol/Vault.sol\":1600:1846  function withdraw(... */\n      swap4\n      swap3\n      pop\n      pop\n      pop\n      jump\t// out\n        /* \"token/ERC4626Upgradeable.sol\":3833:4476  function redeem(uint256 shares, address receiver, address owner) public virtual returns (uint256 assets_) {... */\n    tag_168:\n        /* \"token/ERC4626Upgradeable.sol\":3922:3937  uint256 assets_ */\n      0x00\n        /* \"token/ERC4626Upgradeable.sol\":3966:3967  0 */\n      0x00\n        /* \"token/ERC4626Upgradeable.sol\":3957:3963  shares */\n      dup5\n        /* \"token/ERC4626Upgradeable.sol\":3957:3967  shares > 0 */\n      gt\n        /* \"token/ERC4626Upgradeable.sol\":3949:3983  require(shares > 0, \"ZERO_SHARES\") */\n      tag_358\n      jumpi\n      mload(0x40)\n      0x08c379a000000000000000000000000000000000000000000000000000000000\n      dup2\n      mstore\n      0x04\n      add\n      tag_359\n      swap1\n      tag_328\n      jump\t// in\n    tag_359:\n      mload(0x40)\n      dup1\n      swap2\n      sub\n      swap1\n      revert\n    tag_358:\n        /* \"token/ERC4626Upgradeable.sol\":4004:4027  convertToAssets(shares) */\n      tag_360\n        /* \"token/ERC4626Upgradeable.sol\":4020:4026  shares */\n      dup5\n        /* \"token/ERC4626Upgradeable.sol\":4004:4019  convertToAssets */\n      tag_54\n        /* \"token/ERC4626Upgradeable.sol\":4004:4027  convertToAssets(shares) */\n      jump\t// in\n    tag_360:\n        /* \"token/ERC4626Upgradeable.sol\":3994:4027  assets_ = convertToAssets(shares) */\n      swap1\n      pop\n        /* \"token/ERC4626Upgradeable.sol\":4051:4061  msg.sender */\n      caller\n        /* \"token/ERC4626Upgradeable.sol\":4042:4061  owner != msg.sender */\n      0xffffffffffffffffffffffffffffffffffffffff\n      and\n        /* \"token/ERC4626Upgradeable.sol\":4042:4047  owner */\n      dup3\n        /* \"token/ERC4626Upgradeable.sol\":4042:4061  owner != msg.sender */\n      0xffffffffffffffffffffffffffffffffffffffff\n      and\n      eq\n        /* \"token/ERC4626Upgradeable.sol\":4038:4325  if (owner != msg.sender) {... */\n      tag_361\n      jumpi\n        /* \"token/ERC4626Upgradeable.sol\":4077:4092  uint256 allowed */\n      0x00\n        /* \"token/ERC4626Upgradeable.sol\":4095:4123  allowance(owner, msg.sender) */\n      tag_362\n        /* \"token/ERC4626Upgradeable.sol\":4105:4110  owner */\n      dup4\n        /* \"token/ERC4626Upgradeable.sol\":4112:4122  msg.sender */\n      caller\n        /* \"token/ERC4626Upgradeable.sol\":4095:4104  allowance */\n      tag_183\n        /* \"token/ERC4626Upgradeable.sol\":4095:4123  allowance(owner, msg.sender) */\n      jump\t// in\n    tag_362:\n        /* \"token/ERC4626Upgradeable.sol\":4077:4123  uint256 allowed = allowance(owner, msg.sender) */\n      swap1\n      pop\n        /* \"token/ERC4626Upgradeable.sol\":4156:4162  shares */\n      dup5\n        /* \"token/ERC4626Upgradeable.sol\":4145:4152  allowed */\n      dup2\n        /* \"token/ERC4626Upgradeable.sol\":4145:4162  allowed >= shares */\n      lt\n      iszero\n        /* \"token/ERC4626Upgradeable.sol\":4137:4189  require(allowed >= shares, \"INSUFFICIENT_ALLOWANCE\") */\n      tag_363\n      jumpi\n      mload(0x40)\n      0x08c379a000000000000000000000000000000000000000000000000000000000\n      dup2\n      mstore\n      0x04\n      add\n      tag_364\n      swap1\n      tag_239\n      jump\t// in\n    tag_364:\n      mload(0x40)\n      dup1\n      swap2\n      sub\n      swap1\n      revert\n    tag_363:\n        /* \"token/ERC4626Upgradeable.sol\":4218:4235  type(uint256).max */\n      0xffffffffffffffffffffffffffffffffffffffffffffffffffffffffffffffff\n        /* \"token/ERC4626Upgradeable.sol\":4207:4214  allowed */\n      dup2\n        /* \"token/ERC4626Upgradeable.sol\":4207:4235  allowed != type(uint256).max */\n      eq\n        /* \"token/ERC4626Upgradeable.sol\":4203:4315  if (allowed != type(uint256).max) {... */\n      tag_365\n      jumpi\n        /* \"token/ERC4626Upgradeable.sol\":4255:4300  _approve(owner, msg.sender, allowed - shares) */\n      tag_366\n        /* \"token/ERC4626Upgradeable.sol\":4264:4269  owner */\n      dup4\n        /* \"token/ERC4626Upgradeable.sol\":4271:4281  msg.sender */\n      caller\n        /* \"token/ERC4626Upgradeable.sol\":4293:4299  shares */\n      dup8\n        /* \"token/ERC4626Upgradeable.sol\":4283:4290  allowed */\n      dup5\n        /* \"token/ERC4626Upgradeable.sol\":4283:4299  allowed - shares */\n      tag_367\n      swap2\n      swap1\n      tag_242\n      jump\t// in\n    tag_367:\n        /* \"token/ERC4626Upgradeable.sol\":4255:4263  _approve */\n      tag_233\n        /* \"token/ERC4626Upgradeable.sol\":4255:4300  _approve(owner, msg.sender, allowed - shares) */\n      jump\t// in\n    tag_366:\n        /* \"token/ERC4626Upgradeable.sol\":4203:4315  if (allowed != type(uint256).max) {... */\n    tag_365:\n        /* \"token/ERC4626Upgradeable.sol\":4063:4325  {... */\n      pop\n        /* \"token/ERC4626Upgradeable.sol\":4038:4325  if (owner != msg.sender) {... */\n    tag_361:\n        /* \"token/ERC4626Upgradeable.sol\":4335:4355  _burn(owner, shares) */\n      tag_368\n        /* \"token/ERC4626Upgradeable.sol\":4341:4346  owner */\n      dup3\n        /* \"token/ERC4626Upgradeable.sol\":4348:4354  shares */\n      dup6\n        /* \"token/ERC4626Upgradeable.sol\":4335:4340  _burn */\n      tag_369\n        /* \"token/ERC4626Upgradeable.sol\":4335:4355  _burn(owner, shares) */\n      jump\t// in\n    tag_368:\n        /* \"token/ERC4626Upgradeable.sol\":4365:4371  _asset */\n      0x07\n      0x00\n      swap1\n      sload\n      swap1\n      0x0100\n      exp\n      swap1\n      div\n      0xffffffffffffffffffffffffffffffffffffffff\n      and\n        /* \"token/ERC4626Upgradeable.sol\":4365:4380  _asset.transfer */\n      0xffffffffffffffffffffffffffffffffffffffff\n      and\n      0xa9059cbb\n        /* \"token/ERC4626Upgradeable.sol\":4381:4389  receiver */\n      dup5\n        /* \"token/ERC4626Upgradeable.sol\":4391:4398  assets_ */\n      dup4\n        /* \"token/ERC4626Upgradeable.sol\":4365:4399  _asset.transfer(receiver, assets_) */\n      mload(0x40)\n      dup4\n      0xffffffff\n      and\n      0xe0\n      shl\n      dup2\n      mstore\n      0x04\n      add\n      tag_370\n      swap3\n      swap2\n      swap1\n      tag_298\n      jump\t// in\n    tag_370:\n      0x20\n      mload(0x40)\n      dup1\n      dup4\n      sub\n      dup2\n      0x00\n      dup8\n      gas\n      call\n      iszero\n      dup1\n      iszero\n      tag_372\n      jumpi\n      returndatacopy(0x00, 0x00, returndatasize)\n      revert(0x00, returndatasize)\n    tag_372:\n      pop\n      pop\n      pop\n      pop\n      mload(0x40)\n      returndatasize\n      not(0x1f)\n      0x1f\n      dup3\n      add\n      and\n      dup3\n      add\n      dup1\n      0x40\n      mstore\n      pop\n      dup2\n      add\n      swap1\n      tag_373\n      swap2\n      swap1\n      tag_302\n      jump\t// in\n    tag_373:\n      pop\n        /* \"token/ERC4626Upgradeable.sol\":4446:4451  owner */\n      dup2\n        /* \"token/ERC4626Upgradeable.sol\":4415:4469  Withdraw(msg.sender, receiver, owner, assets_, shares) */\n      0xffffffffffffffffffffffffffffffffffffffff\n      and\n        /* \"token/ERC4626Upgradeable.sol\":4436:4444  receiver */\n      dup4\n        /* \"token/ERC4626Upgradeable.sol\":4415:4469  Withdraw(msg.sender, receiver, owner, assets_, shares) */\n      0xffffffffffffffffffffffffffffffffffffffff\n      and\n        /* \"token/ERC4626Upgradeable.sol\":4424:4434  msg.sender */\n      caller\n        /* \"token/ERC4626Upgradeable.sol\":4415:4469  Withdraw(msg.sender, receiver, owner, assets_, shares) */\n      0xffffffffffffffffffffffffffffffffffffffff\n      and\n      0xfbde797d201c681b91056529119e0b02407c7bb96a4a2c75c01fc9667232c8db\n        /* \"token/ERC4626Upgradeable.sol\":4453:4460  assets_ */\n      dup5\n        /* \"token/ERC4626Upgradeable.sol\":4462:4468  shares */\n      dup9\n        /* \"token/ERC4626Upgradeable.sol\":4415:4469  Withdraw(msg.sender, receiver, owner, assets_, shares) */\n      mload(0x40)\n      tag_374\n      swap3\n      swap2\n      swap1\n      tag_341\n      jump\t// in\n    tag_374:\n      mload(0x40)\n      dup1\n      swap2\n      sub\n      swap1\n      log4\n        /* \"token/ERC4626Upgradeable.sol\":3833:4476  function redeem(uint256 shares, address receiver, address owner) public virtual returns (uint256 assets_) {... */\n      swap4\n      swap3\n      pop\n      pop\n      pop\n      jump\t// out\n        /* \"token/ERC4626Upgradeable.sol\":1455:1821  function convertToShares(uint256 assets_) public view returns (uint256) {... */\n    tag_173:\n        /* \"token/ERC4626Upgradeable.sol\":1518:1525  uint256 */\n      0x00\n        /* \"token/ERC4626Upgradeable.sol\":1537:1551  uint256 supply */\n      0x00\n        /* \"token/ERC4626Upgradeable.sol\":1554:1558  this */\n      address\n        /* \"token/ERC4626Upgradeable.sol\":1554:1570  this.totalSupply */\n      0xffffffffffffffffffffffffffffffffffffffff\n      and\n      0x18160ddd\n        /* \"token/ERC4626Upgradeable.sol\":1554:1572  this.totalSupply() */\n      mload(0x40)\n      dup2\n      0xffffffff\n      and\n      0xe0\n      shl\n      dup2\n      mstore\n      0x04\n      add\n      0x20\n      mload(0x40)\n      dup1\n      dup4\n      sub\n      dup2\n      dup7\n      gas\n      staticcall\n      iszero\n      dup1\n      iszero\n      tag_377\n      jumpi\n      returndatacopy(0x00, 0x00, returndatasize)\n      revert(0x00, returndatasize)\n    tag_377:\n      pop\n      pop\n      pop\n      pop\n      mload(0x40)\n      returndatasize\n      not(0x1f)\n      0x1f\n      dup3\n      add\n      and\n      dup3\n      add\n      dup1\n      0x40\n      mstore\n      pop\n      dup2\n      add\n      swap1\n      tag_378\n      swap2\n      swap1\n      tag_196\n      jump\t// in\n    tag_378:\n        /* \"token/ERC4626Upgradeable.sol\":1537:1572  uint256 supply = this.totalSupply() */\n      swap1\n      pop\n        /* \"token/ERC4626Upgradeable.sol\":1582:1601  uint256 assetsTotal */\n      0x00\n        /* \"token/ERC4626Upgradeable.sol\":1604:1617  totalAssets() */\n      tag_379\n        /* \"token/ERC4626Upgradeable.sol\":1604:1615  totalAssets */\n      tag_42\n        /* \"token/ERC4626Upgradeable.sol\":1604:1617  totalAssets() */\n      jump\t// in\n    tag_379:\n        /* \"token/ERC4626Upgradeable.sol\":1582:1617  uint256 assetsTotal = totalAssets() */\n      swap1\n      pop\n        /* \"token/ERC4626Upgradeable.sol\":1703:1704  0 */\n      0x00\n        /* \"token/ERC4626Upgradeable.sol\":1693:1699  supply */\n      dup3\n        /* \"token/ERC4626Upgradeable.sol\":1693:1704  supply == 0 */\n      eq\n        /* \"token/ERC4626Upgradeable.sol\":1693:1724  supply == 0 || assetsTotal == 0 */\n      dup1\n      tag_380\n      jumpi\n      pop\n        /* \"token/ERC4626Upgradeable.sol\":1723:1724  0 */\n      0x00\n        /* \"token/ERC4626Upgradeable.sol\":1708:1719  assetsTotal */\n      dup2\n        /* \"token/ERC4626Upgradeable.sol\":1708:1724  assetsTotal == 0 */\n      eq\n        /* \"token/ERC4626Upgradeable.sol\":1693:1724  supply == 0 || assetsTotal == 0 */\n    tag_380:\n        /* \"token/ERC4626Upgradeable.sol\":1689:1765  if (supply == 0 || assetsTotal == 0) {... */\n      iszero\n      tag_381\n      jumpi\n        /* \"token/ERC4626Upgradeable.sol\":1747:1754  assets_ */\n      dup4\n        /* \"token/ERC4626Upgradeable.sol\":1740:1754  return assets_ */\n      swap3\n      pop\n      pop\n      pop\n      jump(tag_375)\n        /* \"token/ERC4626Upgradeable.sol\":1689:1765  if (supply == 0 || assetsTotal == 0) {... */\n    tag_381:\n        /* \"token/ERC4626Upgradeable.sol\":1803:1814  assetsTotal */\n      dup1\n        /* \"token/ERC4626Upgradeable.sol\":1793:1799  supply */\n      dup3\n        /* \"token/ERC4626Upgradeable.sol\":1783:1790  assets_ */\n      dup6\n        /* \"token/ERC4626Upgradeable.sol\":1783:1799  assets_ * supply */\n      tag_382\n      swap2\n      swap1\n      tag_228\n      jump\t// in\n    tag_382:\n        /* \"token/ERC4626Upgradeable.sol\":1782:1814  (assets_ * supply) / assetsTotal */\n      tag_383\n      swap2\n      swap1\n      tag_230\n      jump\t// in\n    tag_383:\n        /* \"token/ERC4626Upgradeable.sol\":1775:1814  return (assets_ * supply) / assetsTotal */\n      swap3\n      pop\n      pop\n      pop\n        /* \"token/ERC4626Upgradeable.sol\":1455:1821  function convertToShares(uint256 assets_) public view returns (uint256) {... */\n    tag_375:\n      swap2\n      swap1\n      pop\n      jump\t// out\n        /* \"acess/Ownable.sol\":394:532  function ownershipTransfer(address newOwner) external onlyOwner {... */\n    tag_178:\n        /* \"acess/Ownable.sol\":213:218  owner */\n      0x00\n      0x02\n      swap1\n      sload\n      swap1\n      0x0100\n      exp\n      swap1\n      div\n      0xffffffffffffffffffffffffffffffffffffffff\n      and\n        /* \"acess/Ownable.sol\":199:218  msg.sender == owner */\n      0xffffffffffffffffffffffffffffffffffffffff\n      and\n        /* \"acess/Ownable.sol\":199:209  msg.sender */\n      caller\n        /* \"acess/Ownable.sol\":199:218  msg.sender == owner */\n      0xffffffffffffffffffffffffffffffffffffffff\n      and\n      eq\n        /* \"acess/Ownable.sol\":191:219  require(msg.sender == owner) */\n      tag_385\n      jumpi\n      revert(0x00, 0x00)\n    tag_385:\n        /* \"acess/Ownable.sol\":496:497  0 */\n      0x00\n        /* \"acess/Ownable.sol\":476:498  newOwner != address(0) */\n      0xffffffffffffffffffffffffffffffffffffffff\n      and\n        /* \"acess/Ownable.sol\":476:484  newOwner */\n      dup2\n        /* \"acess/Ownable.sol\":476:498  newOwner != address(0) */\n      0xffffffffffffffffffffffffffffffffffffffff\n      and\n      sub\n        /* \"acess/Ownable.sol\":468:499  require(newOwner != address(0)) */\n      tag_387\n      jumpi\n      revert(0x00, 0x00)\n    tag_387:\n        /* \"acess/Ownable.sol\":517:525  newOwner */\n      dup1\n        /* \"acess/Ownable.sol\":509:514  owner */\n      0x00\n      0x02\n        /* \"acess/Ownable.sol\":509:525  owner = newOwner */\n      0x0100\n      exp\n      dup2\n      sload\n      dup2\n      0xffffffffffffffffffffffffffffffffffffffff\n      mul\n      not\n      and\n      swap1\n      dup4\n      0xffffffffffffffffffffffffffffffffffffffff\n      and\n      mul\n      or\n      swap1\n      sstore\n      pop\n        /* \"acess/Ownable.sol\":394:532  function ownershipTransfer(address newOwner) external onlyOwner {... */\n      pop\n      jump\t// out\n        /* \"token/ERC20Upgradeable.sol\":1993:2133  function allowance(address owner, address spender) public view virtual returns (uint256) {... */\n    tag_183:\n        /* \"token/ERC20Upgradeable.sol\":2073:2080  uint256 */\n      0x00\n        /* \"token/ERC20Upgradeable.sol\":2099:2110  _allowances */\n      0x06\n        /* \"token/ERC20Upgradeable.sol\":2099:2117  _allowances[owner] */\n      0x00\n        /* \"token/ERC20Upgradeable.sol\":2111:2116  owner */\n      dup5\n        /* \"token/ERC20Upgradeable.sol\":2099:2117  _allowances[owner] */\n      0xffffffffffffffffffffffffffffffffffffffff\n      and\n      0xffffffffffffffffffffffffffffffffffffffff\n      and\n      dup2\n      mstore\n      0x20\n      add\n      swap1\n      dup2\n      mstore\n      0x20\n      add\n      0x00\n      keccak256\n        /* \"token/ERC20Upgradeable.sol\":2099:2126  _allowances[owner][spender] */\n      0x00\n        /* \"token/ERC20Upgradeable.sol\":2118:2125  spender */\n      dup4\n        /* \"token/ERC20Upgradeable.sol\":2099:2126  _allowances[owner][spender] */\n      0xffffffffffffffffffffffffffffffffffffffff\n      and\n      0xffffffffffffffffffffffffffffffffffffffff\n      and\n      dup2\n      mstore\n      0x20\n      add\n      swap1\n      dup2\n      mstore\n      0x20\n      add\n      0x00\n      keccak256\n      sload\n        /* \"token/ERC20Upgradeable.sol\":2092:2126  return _allowances[owner][spender] */\n      swap1\n      pop\n        /* \"token/ERC20Upgradeable.sol\":1993:2133  function allowance(address owner, address spender) public view virtual returns (uint256) {... */\n      swap3\n      swap2\n      pop\n      pop\n      jump\t// out\n        /* \"protocol/Vault.sol\":536:918  function initialize(... */\n    tag_189:\n        /* \"utils/Init.sol\":1076:1088  _initialized */\n      0x00\n      0x00\n      swap1\n      sload\n      swap1\n      0x0100\n      exp\n      swap1\n      div\n      0xff\n      and\n        /* \"utils/Init.sol\":1075:1088  !_initialized */\n      iszero\n        /* \"utils/Init.sol\":1075:1105  !_initialized || _initializing */\n      dup1\n      tag_390\n      jumpi\n      pop\n        /* \"utils/Init.sol\":1092:1105  _initializing */\n      0x00\n      0x01\n      swap1\n      sload\n      swap1\n      0x0100\n      exp\n      swap1\n      div\n      0xff\n      and\n        /* \"utils/Init.sol\":1075:1105  !_initialized || _initializing */\n    tag_390:\n        /* \"utils/Init.sol\":1067:1129  require(!_initialized || _initializing, \"ALREADY_INITIALIZED\") */\n      tag_391\n      jumpi\n      mload(0x40)\n      0x08c379a000000000000000000000000000000000000000000000000000000000\n      dup2\n      mstore\n      0x04\n      add\n      tag_392\n      swap1\n      tag_393\n      jump\t// in\n    tag_392:\n      mload(0x40)\n      dup1\n      swap2\n      sub\n      swap1\n      revert\n    tag_391:\n        /* \"utils/Init.sol\":1139:1154  bool isTopLevel */\n      0x00\n        /* \"utils/Init.sol\":1158:1171  _initializing */\n      0x00\n      0x01\n      swap1\n      sload\n      swap1\n      0x0100\n      exp\n      swap1\n      div\n      0xff\n      and\n        /* \"utils/Init.sol\":1157:1171  !_initializing */\n      iszero\n        /* \"utils/Init.sol\":1139:1171  bool isTopLevel = !_initializing */\n      swap1\n      pop\n        /* \"utils/Init.sol\":1186:1196  isTopLevel */\n      dup1\n        /* \"utils/Init.sol\":1182:1244  if (isTopLevel) { _initializing = true; _initialized = true; } */\n      iszero\n      tag_394\n      jumpi\n        /* \"utils/Init.sol\":1216:1220  true */\n      0x01\n        /* \"utils/Init.sol\":1200:1213  _initializing */\n      0x00\n      0x01\n        /* \"utils/Init.sol\":1200:1220  _initializing = true */\n      0x0100\n      exp\n      dup2\n      sload\n      dup2\n      0xff\n      mul\n      not\n      and\n      swap1\n      dup4\n      iszero\n      iszero\n      mul\n      or\n      swap1\n      sstore\n      pop\n        /* \"utils/Init.sol\":1237:1241  true */\n      0x01\n        /* \"utils/Init.sol\":1222:1234  _initialized */\n      0x00\n      0x00\n        /* \"utils/Init.sol\":1222:1241  _initialized = true */\n      0x0100\n      exp\n      dup2\n      sload\n      dup2\n      0xff\n      mul\n      not\n      and\n      swap1\n      dup4\n      iszero\n      iszero\n      mul\n      or\n      swap1\n      sstore\n      pop\n        /* \"utils/Init.sol\":1182:1244  if (isTopLevel) { _initializing = true; _initialized = true; } */\n    tag_394:\n        /* \"protocol/Vault.sol\":773:795  __Ownable_init(owner_) */\n      tag_396\n        /* \"protocol/Vault.sol\":788:794  owner_ */\n      dup11\n        /* \"protocol/Vault.sol\":773:787  __Ownable_init */\n      tag_397\n        /* \"protocol/Vault.sol\":773:795  __Ownable_init(owner_) */\n      jump\t// in\n    tag_396:\n        /* \"protocol/Vault.sol\":805:853  __ERC4626_init(asset_, shareName_, shareSymbol_) */\n      tag_398\n        /* \"protocol/Vault.sol\":820:826  asset_ */\n      dup10\n        /* \"protocol/Vault.sol\":828:838  shareName_ */\n      dup8\n      dup8\n        /* \"protocol/Vault.sol\":805:853  __ERC4626_init(asset_, shareName_, shareSymbol_) */\n      dup1\n      dup1\n      0x1f\n      add\n      0x20\n      dup1\n      swap2\n      div\n      mul\n      0x20\n      add\n      mload(0x40)\n      swap1\n      dup2\n      add\n      0x40\n      mstore\n      dup1\n      swap4\n      swap3\n      swap2\n      swap1\n      dup2\n      dup2\n      mstore\n      0x20\n      add\n      dup4\n      dup4\n      dup1\n      dup3\n      dup5\n      calldatacopy\n      0x00\n      dup2\n      dup5\n      add\n      mstore\n      not(0x1f)\n      0x1f\n      dup3\n      add\n      and\n      swap1\n      pop\n      dup1\n      dup4\n      add\n      swap3\n      pop\n      pop\n      pop\n      pop\n      pop\n      pop\n      pop\n        /* \"protocol/Vault.sol\":840:852  shareSymbol_ */\n      dup7\n      dup7\n        /* \"protocol/Vault.sol\":805:853  __ERC4626_init(asset_, shareName_, shareSymbol_) */\n      dup1\n      dup1\n      0x1f\n      add\n      0x20\n      dup1\n      swap2\n      div\n      mul\n      0x20\n      add\n      mload(0x40)\n      swap1\n      dup2\n      add\n      0x40\n      mstore\n      dup1\n      swap4\n      swap3\n      swap2\n      swap1\n      dup2\n      dup2\n      mstore\n      0x20\n      add\n      dup4\n      dup4\n      dup1\n      dup3\n      dup5\n      calldatacopy\n      0x00\n      dup2\n      dup5\n      add\n      mstore\n      not(0x1f)\n      0x1f\n      dup3\n      add\n      and\n      swap1\n      pop\n      dup1\n      dup4\n      add\n      swap3\n      pop\n      pop\n      pop\n      pop\n      pop\n      pop\n      pop\n        /* \"protocol/Vault.sol\":805:819  __ERC4626_init */\n      tag_399\n        /* \"protocol/Vault.sol\":805:853  __ERC4626_init(asset_, shareName_, shareSymbol_) */\n      jump\t// in\n    tag_398:\n        /* \"protocol/Vault.sol\":871:877  title_ */\n      dup8\n      dup8\n        /* \"protocol/Vault.sol\":863:868  title */\n      0x08\n        /* \"protocol/Vault.sol\":863:877  title = title_ */\n      swap2\n      dup3\n      tag_400\n      swap3\n      swap2\n      swap1\n      tag_401\n      jump\t// in\n    tag_400:\n      pop\n        /* \"protocol/Vault.sol\":900:911  minDeposit_ */\n      dup2\n        /* \"protocol/Vault.sol\":887:897  minDeposit */\n      0x09\n        /* \"protocol/Vault.sol\":887:911  minDeposit = minDeposit_ */\n      dup2\n      swap1\n      sstore\n      pop\n        /* \"utils/Init.sol\":1270:1280  isTopLevel */\n      dup1\n        /* \"utils/Init.sol\":1266:1303  if (isTopLevel) _initializing = false */\n      iszero\n      tag_402\n      jumpi\n        /* \"utils/Init.sol\":1298:1303  false */\n      0x00\n        /* \"utils/Init.sol\":1282:1295  _initializing */\n      0x00\n      0x01\n        /* \"utils/Init.sol\":1282:1303  _initializing = false */\n      0x0100\n      exp\n      dup2\n      sload\n      dup2\n      0xff\n      mul\n      not\n      and\n      swap1\n      dup4\n      iszero\n      iszero\n      mul\n      or\n      swap1\n      sstore\n      pop\n        /* \"utils/Init.sol\":1266:1303  if (isTopLevel) _initializing = false */\n    tag_402:\n        /* \"utils/Init.sol\":1057:1310  {... */\n      pop\n        /* \"protocol/Vault.sol\":536:918  function initialize(... */\n      pop\n      pop\n      pop\n      pop\n      pop\n      pop\n      pop\n      pop\n      pop\n      jump\t// out\n        /* \"token/ERC20Upgradeable.sol\":3030:3216  function _approve(address owner_, address spender, uint256 amount) internal virtual {... */\n    tag_233:\n        /* \"token/ERC20Upgradeable.sol\":3155:3161  amount */\n      dup1\n        /* \"token/ERC20Upgradeable.sol\":3124:3135  _allowances */\n      0x06\n        /* \"token/ERC20Upgradeable.sol\":3124:3143  _allowances[owner_] */\n      0x00\n        /* \"token/ERC20Upgradeable.sol\":3136:3142  owner_ */\n      dup6\n        /* \"token/ERC20Upgradeable.sol\":3124:3143  _allowances[owner_] */\n      0xffffffffffffffffffffffffffffffffffffffff\n      and\n      0xffffffffffffffffffffffffffffffffffffffff\n      and\n      dup2\n      mstore\n      0x20\n      add\n      swap1\n      dup2\n      mstore\n      0x20\n      add\n      0x00\n      keccak256\n        /* \"token/ERC20Upgradeable.sol\":3124:3152  _allowances[owner_][spender] */\n      0x00\n        /* \"token/ERC20Upgradeable.sol\":3144:3151  spender */\n      dup5\n        /* \"token/ERC20Upgradeable.sol\":3124:3152  _allowances[owner_][spender] */\n      0xffffffffffffffffffffffffffffffffffffffff\n      and\n      0xffffffffffffffffffffffffffffffffffffffff\n      and\n      dup2\n      mstore\n      0x20\n      add\n      swap1\n      dup2\n      mstore\n      0x20\n      add\n      0x00\n      keccak256\n        /* \"token/ERC20Upgradeable.sol\":3124:3161  _allowances[owner_][spender] = amount */\n      dup2\n      swap1\n      sstore\n      pop\n        /* \"token/ERC20Upgradeable.sol\":3193:3200  spender */\n      dup2\n        /* \"token/ERC20Upgradeable.sol\":3176:3209  Approval(owner_, spender, amount) */\n      0xffffffffffffffffffffffffffffffffffffffff\n      and\n        /* \"token/ERC20Upgradeable.sol\":3185:3191  owner_ */\n      dup4\n        /* \"token/ERC20Upgradeable.sol\":3176:3209  Approval(owner_, spender, amount) */\n      0xffffffffffffffffffffffffffffffffffffffff\n      and\n      0x8c5be1e5ebec7d5bd14f71427d1e84f3dd0314c0f7b2291e5b200ac8c7c3b925\n        /* \"token/ERC20Upgradeable.sol\":3202:3208  amount */\n      dup4\n        /* \"token/ERC20Upgradeable.sol\":3176:3209  Approval(owner_, spender, amount) */\n      mload(0x40)\n      tag_404\n      swap2\n      swap1\n      tag_44\n      jump\t// in\n    tag_404:\n      mload(0x40)\n      dup1\n      swap2\n      sub\n      swap1\n      log3\n        /* \"token/ERC20Upgradeable.sol\":3030:3216  function _approve(address owner_, address spender, uint256 amount) internal virtual {... */\n      pop\n      pop\n      pop\n      jump\t// out\n        /* \"token/ERC20Upgradeable.sol\":3272:3664  function _transfer(address from, address to, uint256 amount) internal {... */\n    tag_244:\n        /* \"token/ERC20Upgradeable.sol\":3374:3375  0 */\n      0x00\n        /* \"token/ERC20Upgradeable.sol\":3360:3376  to != address(0) */\n      0xffffffffffffffffffffffffffffffffffffffff\n      and\n        /* \"token/ERC20Upgradeable.sol\":3360:3362  to */\n      dup3\n        /* \"token/ERC20Upgradeable.sol\":3360:3376  to != address(0) */\n      0xffffffffffffffffffffffffffffffffffffffff\n      and\n      sub\n        /* \"token/ERC20Upgradeable.sol\":3352:3388  require(to != address(0), \"ZERO_TO\") */\n      tag_406\n      jumpi\n      mload(0x40)\n      0x08c379a000000000000000000000000000000000000000000000000000000000\n      dup2\n      mstore\n      0x04\n      add\n      tag_407\n      swap1\n      tag_408\n      jump\t// in\n    tag_407:\n      mload(0x40)\n      dup1\n      swap2\n      sub\n      swap1\n      revert\n    tag_406:\n        /* \"token/ERC20Upgradeable.sol\":3398:3417  uint256 fromBalance */\n      0x00\n        /* \"token/ERC20Upgradeable.sol\":3420:3429  _balances */\n      0x05\n        /* \"token/ERC20Upgradeable.sol\":3420:3435  _balances[from] */\n      0x00\n        /* \"token/ERC20Upgradeable.sol\":3430:3434  from */\n      dup6\n        /* \"token/ERC20Upgradeable.sol\":3420:3435  _balances[from] */\n      0xffffffffffffffffffffffffffffffffffffffff\n      and\n      0xffffffffffffffffffffffffffffffffffffffff\n      and\n      dup2\n      mstore\n      0x20\n      add\n      swap1\n      dup2\n      mstore\n      0x20\n      add\n      0x00\n      keccak256\n      sload\n        /* \"token/ERC20Upgradeable.sol\":3398:3435  uint256 fromBalance = _balances[from] */\n      swap1\n      pop\n        /* \"token/ERC20Upgradeable.sol\":3468:3474  amount */\n      dup2\n        /* \"token/ERC20Upgradeable.sol\":3453:3464  fromBalance */\n      dup2\n        /* \"token/ERC20Upgradeable.sol\":3453:3474  fromBalance >= amount */\n      lt\n      iszero\n        /* \"token/ERC20Upgradeable.sol\":3445:3499  require(fromBalance >= amount, \"INSUFFICIENT_BALANCE\") */\n      tag_409\n      jumpi\n      mload(0x40)\n      0x08c379a000000000000000000000000000000000000000000000000000000000\n      dup2\n      mstore\n      0x04\n      add\n      tag_410\n      swap1\n      tag_411\n      jump\t// in\n    tag_410:\n      mload(0x40)\n      dup1\n      swap2\n      sub\n      swap1\n      revert\n    tag_409:\n        /* \"token/ERC20Upgradeable.sol\":3566:3572  amount */\n      dup2\n        /* \"token/ERC20Upgradeable.sol\":3552:3563  fromBalance */\n      dup2\n        /* \"token/ERC20Upgradeable.sol\":3552:3572  fromBalance - amount */\n      sub\n        /* \"token/ERC20Upgradeable.sol\":3534:3543  _balances */\n      0x05\n        /* \"token/ERC20Upgradeable.sol\":3534:3549  _balances[from] */\n      0x00\n        /* \"token/ERC20Upgradeable.sol\":3544:3548  from */\n      dup7\n        /* \"token/ERC20Upgradeable.sol\":3534:3549  _balances[from] */\n      0xffffffffffffffffffffffffffffffffffffffff\n      and\n      0xffffffffffffffffffffffffffffffffffffffff\n      and\n      dup2\n      mstore\n      0x20\n      add\n      swap1\n      dup2\n      mstore\n      0x20\n      add\n      0x00\n      keccak256\n        /* \"token/ERC20Upgradeable.sol\":3534:3572  _balances[from] = fromBalance - amount */\n      dup2\n      swap1\n      sstore\n      pop\n        /* \"token/ERC20Upgradeable.sol\":3610:3616  amount */\n      dup2\n        /* \"token/ERC20Upgradeable.sol\":3593:3602  _balances */\n      0x05\n        /* \"token/ERC20Upgradeable.sol\":3593:3606  _balances[to] */\n      0x00\n        /* \"token/ERC20Upgradeable.sol\":3603:3605  to */\n      dup6\n        /* \"token/ERC20Upgradeable.sol\":3593:3606  _balances[to] */\n      0xffffffffffffffffffffffffffffffffffffffff\n      and\n      0xffffffffffffffffffffffffffffffffffffffff\n      and\n      dup2\n      mstore\n      0x20\n      add\n      swap1\n      dup2\n      mstore\n      0x20\n      add\n      0x00\n      keccak256\n      0x00\n        /* \"token/ERC20Upgradeable.sol\":3593:3616  _balances[to] += amount */\n      dup3\n      dup3\n      sload\n      tag_412\n      swap2\n      swap1\n      tag_212\n      jump\t// in\n    tag_412:\n      swap3\n      pop\n      pop\n      dup2\n      swap1\n      sstore\n      pop\n        /* \"token/ERC20Upgradeable.sol\":3646:3648  to */\n      dup3\n        /* \"token/ERC20Upgradeable.sol\":3631:3657  Transfer(from, to, amount) */\n      0xffffffffffffffffffffffffffffffffffffffff\n      and\n        /* \"token/ERC20Upgradeable.sol\":3640:3644  from */\n      dup5\n        /* \"token/ERC20Upgradeable.sol\":3631:3657  Transfer(from, to, amount) */\n      0xffffffffffffffffffffffffffffffffffffffff\n      and\n      0xddf252ad1be2c89b69c2b068fc378daa952ba7f163c4a11628f55a4df523b3ef\n        /* \"token/ERC20Upgradeable.sol\":3650:3656  amount */\n      dup5\n        /* \"token/ERC20Upgradeable.sol\":3631:3657  Transfer(from, to, amount) */\n      mload(0x40)\n      tag_413\n      swap2\n      swap1\n      tag_44\n      jump\t// in\n    tag_413:\n      mload(0x40)\n      dup1\n      swap2\n      sub\n      swap1\n      log3\n        /* \"token/ERC20Upgradeable.sol\":3342:3664  {... */\n      pop\n        /* \"token/ERC20Upgradeable.sol\":3272:3664  function _transfer(address from, address to, uint256 amount) internal {... */\n      pop\n      pop\n      pop\n      jump\t// out\n        /* \"proxy/UUPSUpgradeable.sol\":2514:2693  function _getImplementation() internal view returns (address impl) {... */\n    tag_251:\n        /* \"proxy/UUPSUpgradeable.sol\":2567:2579  address impl */\n      0x00\n        /* \"proxy/UUPSUpgradeable.sol\":2591:2603  bytes32 slot */\n      0x00\n        /* \"proxy/UUPSUpgradeable.sol\":793:859  0x360894A13BA1A3210667C828492DB98DCA3E2076CC3735A920A3CA505D382BBC */\n      0x360894a13ba1a3210667c828492db98dca3e2076cc3735a920a3ca505d382bbc\n        /* \"proxy/UUPSUpgradeable.sol\":2606:2625  IMPLEMENTATION_SLOT */\n      0x00\n      shl\n        /* \"proxy/UUPSUpgradeable.sol\":2591:2625  bytes32 slot = IMPLEMENTATION_SLOT */\n      swap1\n      pop\n        /* \"proxy/UUPSUpgradeable.sol\":2672:2676  slot */\n      dup1\n        /* \"proxy/UUPSUpgradeable.sol\":2666:2677  sload(slot) */\n      sload\n        /* \"proxy/UUPSUpgradeable.sol\":2658:2677  impl := sload(slot) */\n      swap2\n      pop\n        /* \"proxy/UUPSUpgradeable.sol\":2644:2687  {... */\n      pop\n        /* \"proxy/UUPSUpgradeable.sol\":2514:2693  function _getImplementation() internal view returns (address impl) {... */\n      swap1\n      jump\t// out\n        /* \"protocol/Vault.sol\":2570:2636  function _authorizeUpgrade(address) internal override onlyOwner {} */\n    tag_257:\n        /* \"acess/Ownable.sol\":213:218  owner */\n      0x00\n      0x02\n      swap1\n      sload\n      swap1\n      0x0100\n      exp\n      swap1\n      div\n      0xffffffffffffffffffffffffffffffffffffffff\n      and\n        /* \"acess/Ownable.sol\":199:218  msg.sender == owner */\n      0xffffffffffffffffffffffffffffffffffffffff\n      and\n        /* \"acess/Ownable.sol\":199:209  msg.sender */\n      caller\n        /* \"acess/Ownable.sol\":199:218  msg.sender == owner */\n      0xffffffffffffffffffffffffffffffffffffffff\n      and\n      eq\n        /* \"acess/Ownable.sol\":191:219  require(msg.sender == owner) */\n      tag_416\n      jumpi\n      revert(0x00, 0x00)\n    tag_416:\n        /* \"protocol/Vault.sol\":2570:2636  function _authorizeUpgrade(address) internal override onlyOwner {} */\n      pop\n      jump\t// out\n        /* \"proxy/UUPSUpgradeable.sol\":2809:3197  function _upgradeToAndCall(address newImplementation, bytes memory data, bool forceCall) internal {... */\n    tag_259:\n        /* \"proxy/UUPSUpgradeable.sol\":2954:2955  0 */\n      0x00\n        /* \"proxy/UUPSUpgradeable.sol\":2925:2956  newImplementation != address(0) */\n      0xffffffffffffffffffffffffffffffffffffffff\n      and\n        /* \"proxy/UUPSUpgradeable.sol\":2925:2942  newImplementation */\n      dup4\n        /* \"proxy/UUPSUpgradeable.sol\":2925:2956  newImplementation != address(0) */\n      0xffffffffffffffffffffffffffffffffffffffff\n      and\n      sub\n        /* \"proxy/UUPSUpgradeable.sol\":2917:2970  require(newImplementation != address(0), \"ZERO_IMPL\") */\n      tag_419\n      jumpi\n      mload(0x40)\n      0x08c379a000000000000000000000000000000000000000000000000000000000\n      dup2\n      mstore\n      0x04\n      add\n      tag_420\n      swap1\n      tag_421\n      jump\t// in\n    tag_420:\n      mload(0x40)\n      dup1\n      swap2\n      sub\n      swap1\n      revert\n    tag_419:\n        /* \"proxy/UUPSUpgradeable.sol\":2980:3017  _setImplementation(newImplementation) */\n      tag_422\n        /* \"proxy/UUPSUpgradeable.sol\":2999:3016  newImplementation */\n      dup4\n        /* \"proxy/UUPSUpgradeable.sol\":2980:2998  _setImplementation */\n      tag_423\n        /* \"proxy/UUPSUpgradeable.sol\":2980:3017  _setImplementation(newImplementation) */\n      jump\t// in\n    tag_422:\n        /* \"proxy/UUPSUpgradeable.sol\":3032:3041  forceCall */\n      dup1\n        /* \"proxy/UUPSUpgradeable.sol\":3032:3060  forceCall || data.length > 0 */\n      dup1\n      tag_424\n      jumpi\n      pop\n        /* \"proxy/UUPSUpgradeable.sol\":3059:3060  0 */\n      0x00\n        /* \"proxy/UUPSUpgradeable.sol\":3045:3049  data */\n      dup3\n        /* \"proxy/UUPSUpgradeable.sol\":3045:3056  data.length */\n      mload\n        /* \"proxy/UUPSUpgradeable.sol\":3045:3060  data.length > 0 */\n      gt\n        /* \"proxy/UUPSUpgradeable.sol\":3032:3060  forceCall || data.length > 0 */\n    tag_424:\n        /* \"proxy/UUPSUpgradeable.sol\":3028:3191  if (forceCall || data.length > 0) {... */\n      iszero\n      tag_425\n      jumpi\n        /* \"proxy/UUPSUpgradeable.sol\":3077:3084  bool ok */\n      0x00\n        /* \"proxy/UUPSUpgradeable.sol\":3086:3102  bytes memory err */\n      0x00\n        /* \"proxy/UUPSUpgradeable.sol\":3106:3123  newImplementation */\n      dup5\n        /* \"proxy/UUPSUpgradeable.sol\":3106:3136  newImplementation.delegatecall */\n      0xffffffffffffffffffffffffffffffffffffffff\n      and\n        /* \"proxy/UUPSUpgradeable.sol\":3137:3141  data */\n      dup5\n        /* \"proxy/UUPSUpgradeable.sol\":3106:3142  newImplementation.delegatecall(data) */\n      mload(0x40)\n      tag_426\n      swap2\n      swap1\n      tag_427\n      jump\t// in\n    tag_426:\n      0x00\n      mload(0x40)\n      dup1\n      dup4\n      sub\n      dup2\n      dup6\n      gas\n      delegatecall\n      swap2\n      pop\n      pop\n      returndatasize\n      dup1\n      0x00\n      dup2\n      eq\n      tag_430\n      jumpi\n      mload(0x40)\n      swap2\n      pop\n      and(add(returndatasize, 0x3f), not(0x1f))\n      dup3\n      add\n      0x40\n      mstore\n      returndatasize\n      dup3\n      mstore\n      returndatasize\n      0x00\n      0x20\n      dup5\n      add\n      returndatacopy\n      jump(tag_429)\n    tag_430:\n      0x60\n      swap2\n      pop\n    tag_429:\n      pop\n        /* \"proxy/UUPSUpgradeable.sol\":3076:3142  (bool ok, bytes memory err) = newImplementation.delegatecall(data) */\n      swap2\n      pop\n      swap2\n      pop\n        /* \"proxy/UUPSUpgradeable.sol\":3164:3166  ok */\n      dup2\n        /* \"proxy/UUPSUpgradeable.sol\":3175:3178  err */\n      dup2\n        /* \"proxy/UUPSUpgradeable.sol\":3156:3180  require(ok, string(err)) */\n      swap1\n      tag_431\n      jumpi\n      mload(0x40)\n      0x08c379a000000000000000000000000000000000000000000000000000000000\n      dup2\n      mstore\n      0x04\n      add\n      tag_432\n      swap2\n      swap1\n      tag_49\n      jump\t// in\n    tag_432:\n      mload(0x40)\n      dup1\n      swap2\n      sub\n      swap1\n      revert\n    tag_431:\n      pop\n        /* \"proxy/UUPSUpgradeable.sol\":3062:3191  {... */\n      pop\n      pop\n        /* \"proxy/UUPSUpgradeable.sol\":3028:3191  if (forceCall || data.length > 0) {... */\n    tag_425:\n        /* \"proxy/UUPSUpgradeable.sol\":2809:3197  function _upgradeToAndCall(address newImplementation, bytes memory data, bool forceCall) internal {... */\n      pop\n      pop\n      pop\n      jump\t// out\n        /* \"token/ERC4626Upgradeable.sol\":2196:2589  function deposit(uint256 assets_, address receiver) public virtual returns (uint256 shares) {... */\n    tag_311:\n        /* \"token/ERC4626Upgradeable.sol\":2272:2286  uint256 shares */\n      0x00\n        /* \"token/ERC4626Upgradeable.sol\":2316:2317  0 */\n      0x00\n        /* \"token/ERC4626Upgradeable.sol\":2306:2313  assets_ */\n      dup4\n        /* \"token/ERC4626Upgradeable.sol\":2306:2317  assets_ > 0 */\n      gt\n        /* \"token/ERC4626Upgradeable.sol\":2298:2333  require(assets_ > 0, \"ZERO_ASSETS\") */\n      tag_434\n      jumpi\n      mload(0x40)\n      0x08c379a000000000000000000000000000000000000000000000000000000000\n      dup2\n      mstore\n      0x04\n      add\n      tag_435\n      swap1\n      tag_332\n      jump\t// in\n    tag_435:\n      mload(0x40)\n      dup1\n      swap2\n      sub\n      swap1\n      revert\n    tag_434:\n        /* \"token/ERC4626Upgradeable.sol\":2353:2377  convertToShares(assets_) */\n      tag_436\n        /* \"token/ERC4626Upgradeable.sol\":2369:2376  assets_ */\n      dup4\n        /* \"token/ERC4626Upgradeable.sol\":2353:2368  convertToShares */\n      tag_173\n        /* \"token/ERC4626Upgradeable.sol\":2353:2377  convertToShares(assets_) */\n      jump\t// in\n    tag_436:\n        /* \"token/ERC4626Upgradeable.sol\":2344:2377  shares = convertToShares(assets_) */\n      swap1\n      pop\n        /* \"token/ERC4626Upgradeable.sol\":2404:2405  0 */\n      0x00\n        /* \"token/ERC4626Upgradeable.sol\":2395:2401  shares */\n      dup2\n        /* \"token/ERC4626Upgradeable.sol\":2395:2405  shares > 0 */\n      gt\n        /* \"token/ERC4626Upgradeable.sol\":2387:2421  require(shares > 0, \"ZERO_SHARES\") */\n      tag_437\n      jumpi\n      mload(0x40)\n      0x08c379a000000000000000000000000000000000000000000000000000000000\n      dup2\n      mstore\n      0x04\n      add\n      tag_438\n      swap1\n      tag_328\n      jump\t// in\n    tag_438:\n      mload(0x40)\n      dup1\n      swap2\n      sub\n      swap1\n      revert\n    tag_437:\n        /* \"token/ERC4626Upgradeable.sol\":2432:2438  _asset */\n      0x07\n      0x00\n      swap1\n      sload\n      swap1\n      0x0100\n      exp\n      swap1\n      div\n      0xffffffffffffffffffffffffffffffffffffffff\n      and\n        /* \"token/ERC4626Upgradeable.sol\":2432:2451  _asset.transferFrom */\n      0xffffffffffffffffffffffffffffffffffffffff\n      and\n      0x23b872dd\n        /* \"token/ERC4626Upgradeable.sol\":2452:2462  msg.sender */\n      caller\n        /* \"token/ERC4626Upgradeable.sol\":2472:2476  this */\n      address\n        /* \"token/ERC4626Upgradeable.sol\":2479:2486  assets_ */\n      dup7\n        /* \"token/ERC4626Upgradeable.sol\":2432:2487  _asset.transferFrom(msg.sender, address(this), assets_) */\n      mload(0x40)\n      dup5\n      0xffffffff\n      and\n      0xe0\n      shl\n      dup2\n      mstore\n      0x04\n      add\n      tag_439\n      swap4\n      swap3\n      swap2\n      swap1\n      tag_334\n      jump\t// in\n    tag_439:\n      0x20\n      mload(0x40)\n      dup1\n      dup4\n      sub\n      dup2\n      0x00\n      dup8\n      gas\n      call\n      iszero\n      dup1\n      iszero\n      tag_441\n      jumpi\n      returndatacopy(0x00, 0x00, returndatasize)\n      revert(0x00, returndatasize)\n    tag_441:\n      pop\n      pop\n      pop\n      pop\n      mload(0x40)\n      returndatasize\n      not(0x1f)\n      0x1f\n      dup3\n      add\n      and\n      dup3\n      add\n      dup1\n      0x40\n      mstore\n      pop\n      dup2\n      add\n      swap1\n      tag_442\n      swap2\n      swap1\n      tag_302\n      jump\t// in\n    tag_442:\n      pop\n        /* \"token/ERC4626Upgradeable.sol\":2497:2520  _mint(receiver, shares) */\n      tag_443\n        /* \"token/ERC4626Upgradeable.sol\":2503:2511  receiver */\n      dup3\n        /* \"token/ERC4626Upgradeable.sol\":2513:2519  shares */\n      dup3\n        /* \"token/ERC4626Upgradeable.sol\":2497:2502  _mint */\n      tag_339\n        /* \"token/ERC4626Upgradeable.sol\":2497:2520  _mint(receiver, shares) */\n      jump\t// in\n    tag_443:\n        /* \"token/ERC4626Upgradeable.sol\":2556:2564  receiver */\n      dup2\n        /* \"token/ERC4626Upgradeable.sol\":2536:2582  Deposit(msg.sender, receiver, assets_, shares) */\n      0xffffffffffffffffffffffffffffffffffffffff\n      and\n        /* \"token/ERC4626Upgradeable.sol\":2544:2554  msg.sender */\n      caller\n        /* \"token/ERC4626Upgradeable.sol\":2536:2582  Deposit(msg.sender, receiver, assets_, shares) */\n      0xffffffffffffffffffffffffffffffffffffffff\n      and\n      0xdcbc1c05240f31ff3ad067ef1ee35ce4997762752e3a095284754544f4c709d7\n        /* \"token/ERC4626Upgradeable.sol\":2566:2573  assets_ */\n      dup6\n        /* \"token/ERC4626Upgradeable.sol\":2575:2581  shares */\n      dup5\n        /* \"token/ERC4626Upgradeable.sol\":2536:2582  Deposit(msg.sender, receiver, assets_, shares) */\n      mload(0x40)\n      tag_444\n      swap3\n      swap2\n      swap1\n      tag_341\n      jump\t// in\n    tag_444:\n      mload(0x40)\n      dup1\n      swap2\n      sub\n      swap1\n      log3\n        /* \"token/ERC4626Upgradeable.sol\":2196:2589  function deposit(uint256 assets_, address receiver) public virtual returns (uint256 shares) {... */\n      swap3\n      swap2\n      pop\n      pop\n      jump\t// out\n        /* \"token/ERC20Upgradeable.sol\":3710:3935  function _mint(address to, uint256 amount) internal virtual {... */\n    tag_339:\n        /* \"token/ERC20Upgradeable.sol\":3802:3803  0 */\n      0x00\n        /* \"token/ERC20Upgradeable.sol\":3788:3804  to != address(0) */\n      0xffffffffffffffffffffffffffffffffffffffff\n      and\n        /* \"token/ERC20Upgradeable.sol\":3788:3790  to */\n      dup3\n        /* \"token/ERC20Upgradeable.sol\":3788:3804  to != address(0) */\n      0xffffffffffffffffffffffffffffffffffffffff\n      and\n      sub\n        /* \"token/ERC20Upgradeable.sol\":3780:3816  require(to != address(0), \"ZERO_TO\") */\n      tag_446\n      jumpi\n      mload(0x40)\n      0x08c379a000000000000000000000000000000000000000000000000000000000\n      dup2\n      mstore\n      0x04\n      add\n      tag_447\n      swap1\n      tag_408\n      jump\t// in\n    tag_447:\n      mload(0x40)\n      dup1\n      swap2\n      sub\n      swap1\n      revert\n    tag_446:\n        /* \"token/ERC20Upgradeable.sol\":3842:3848  amount */\n      dup1\n        /* \"token/ERC20Upgradeable.sol\":3826:3838  _totalSupply */\n      0x04\n      0x00\n        /* \"token/ERC20Upgradeable.sol\":3826:3848  _totalSupply += amount */\n      dup3\n      dup3\n      sload\n      tag_448\n      swap2\n      swap1\n      tag_212\n      jump\t// in\n    tag_448:\n      swap3\n      pop\n      pop\n      dup2\n      swap1\n      sstore\n      pop\n        /* \"token/ERC20Upgradeable.sol\":3875:3881  amount */\n      dup1\n        /* \"token/ERC20Upgradeable.sol\":3858:3867  _balances */\n      0x05\n        /* \"token/ERC20Upgradeable.sol\":3858:3871  _balances[to] */\n      0x00\n        /* \"token/ERC20Upgradeable.sol\":3868:3870  to */\n      dup5\n        /* \"token/ERC20Upgradeable.sol\":3858:3871  _balances[to] */\n      0xffffffffffffffffffffffffffffffffffffffff\n      and\n      0xffffffffffffffffffffffffffffffffffffffff\n      and\n      dup2\n      mstore\n      0x20\n      add\n      swap1\n      dup2\n      mstore\n      0x20\n      add\n      0x00\n      keccak256\n      0x00\n        /* \"token/ERC20Upgradeable.sol\":3858:3881  _balances[to] += amount */\n      dup3\n      dup3\n      sload\n      tag_449\n      swap2\n      swap1\n      tag_212\n      jump\t// in\n    tag_449:\n      swap3\n      pop\n      pop\n      dup2\n      swap1\n      sstore\n      pop\n        /* \"token/ERC20Upgradeable.sol\":3917:3919  to */\n      dup2\n        /* \"token/ERC20Upgradeable.sol\":3896:3928  Transfer(address(0), to, amount) */\n      0xffffffffffffffffffffffffffffffffffffffff\n      and\n        /* \"token/ERC20Upgradeable.sol\":3913:3914  0 */\n      0x00\n        /* \"token/ERC20Upgradeable.sol\":3896:3928  Transfer(address(0), to, amount) */\n      0xffffffffffffffffffffffffffffffffffffffff\n      and\n      0xddf252ad1be2c89b69c2b068fc378daa952ba7f163c4a11628f55a4df523b3ef\n        /* \"token/ERC20Upgradeable.sol\":3921:3927  amount */\n      dup4\n        /* \"token/ERC20Upgradeable.sol\":3896:3928  Transfer(address(0), to, amount) */\n      mload(0x40)\n      tag_450\n      swap2\n      swap1\n      tag_44\n      jump\t// in\n    tag_450:\n      mload(0x40)\n      dup1\n      swap2\n      sub\n      swap1\n      log3\n        /* \"token/ERC20Upgradeable.sol\":3710:3935  function _mint(address to, uint256 amount) internal virtual {... */\n      pop\n      pop\n      jump\t// out\n        /* \"token/ERC4626Upgradeable.sol\":2991:3827  function withdraw(uint256 assets_, address receiver, address owner) public virtual returns (uint256 shares) {... */\n    tag_356:\n        /* \"token/ERC4626Upgradeable.sol\":3083:3097  uint256 shares */\n      0x00\n        /* \"token/ERC4626Upgradeable.sol\":3127:3128  0 */\n      0x00\n        /* \"token/ERC4626Upgradeable.sol\":3117:3124  assets_ */\n      dup5\n        /* \"token/ERC4626Upgradeable.sol\":3117:3128  assets_ > 0 */\n      gt\n        /* \"token/ERC4626Upgradeable.sol\":3109:3144  require(assets_ > 0, \"ZERO_ASSETS\") */\n      tag_452\n      jumpi\n      mload(0x40)\n      0x08c379a000000000000000000000000000000000000000000000000000000000\n      dup2\n      mstore\n      0x04\n      add\n      tag_453\n      swap1\n      tag_332\n      jump\t// in\n    tag_453:\n      mload(0x40)\n      dup1\n      swap2\n      sub\n      swap1\n      revert\n    tag_452:\n        /* \"token/ERC4626Upgradeable.sol\":3270:3294  convertToShares(assets_) */\n      tag_454\n        /* \"token/ERC4626Upgradeable.sol\":3286:3293  assets_ */\n      dup5\n        /* \"token/ERC4626Upgradeable.sol\":3270:3285  convertToShares */\n      tag_173\n        /* \"token/ERC4626Upgradeable.sol\":3270:3294  convertToShares(assets_) */\n      jump\t// in\n    tag_454:\n        /* \"token/ERC4626Upgradeable.sol\":3261:3294  shares = convertToShares(assets_) */\n      swap1\n      pop\n        /* \"token/ERC4626Upgradeable.sol\":3334:3341  assets_ */\n      dup4\n        /* \"token/ERC4626Upgradeable.sol\":3308:3331  convertToAssets(shares) */\n      tag_455\n        /* \"token/ERC4626Upgradeable.sol\":3324:3330  shares */\n      dup3\n        /* \"token/ERC4626Upgradeable.sol\":3308:3323  convertToAssets */\n      tag_54\n        /* \"token/ERC4626Upgradeable.sol\":3308:3331  convertToAssets(shares) */\n      jump\t// in\n    tag_455:\n        /* \"token/ERC4626Upgradeable.sol\":3308:3341  convertToAssets(shares) < assets_ */\n      lt\n        /* \"token/ERC4626Upgradeable.sol\":3304:3379  if (convertToAssets(shares) < assets_) {... */\n      iszero\n      tag_456\n      jumpi\n        /* \"token/ERC4626Upgradeable.sol\":3367:3368  1 */\n      0x01\n        /* \"token/ERC4626Upgradeable.sol\":3357:3368  shares += 1 */\n      dup2\n      tag_457\n      swap2\n      swap1\n      tag_212\n      jump\t// in\n    tag_457:\n      swap1\n      pop\n        /* \"token/ERC4626Upgradeable.sol\":3304:3379  if (convertToAssets(shares) < assets_) {... */\n    tag_456:\n        /* \"token/ERC4626Upgradeable.sol\":3402:3412  msg.sender */\n      caller\n        /* \"token/ERC4626Upgradeable.sol\":3393:3412  owner != msg.sender */\n      0xffffffffffffffffffffffffffffffffffffffff\n      and\n        /* \"token/ERC4626Upgradeable.sol\":3393:3398  owner */\n      dup3\n        /* \"token/ERC4626Upgradeable.sol\":3393:3412  owner != msg.sender */\n      0xffffffffffffffffffffffffffffffffffffffff\n      and\n      eq\n        /* \"token/ERC4626Upgradeable.sol\":3389:3676  if (owner != msg.sender) {... */\n      tag_458\n      jumpi\n        /* \"token/ERC4626Upgradeable.sol\":3428:3443  uint256 allowed */\n      0x00\n        /* \"token/ERC4626Upgradeable.sol\":3446:3474  allowance(owner, msg.sender) */\n      tag_459\n        /* \"token/ERC4626Upgradeable.sol\":3456:3461  owner */\n      dup4\n        /* \"token/ERC4626Upgradeable.sol\":3463:3473  msg.sender */\n      caller\n        /* \"token/ERC4626Upgradeable.sol\":3446:3455  allowance */\n      tag_183\n        /* \"token/ERC4626Upgradeable.sol\":3446:3474  allowance(owner, msg.sender) */\n      jump\t// in\n    tag_459:\n        /* \"token/ERC4626Upgradeable.sol\":3428:3474  uint256 allowed = allowance(owner, msg.sender) */\n      swap1\n      pop\n        /* \"token/ERC4626Upgradeable.sol\":3507:3513  shares */\n      dup2\n        /* \"token/ERC4626Upgradeable.sol\":3496:3503  allowed */\n      dup2\n        /* \"token/ERC4626Upgradeable.sol\":3496:3513  allowed >= shares */\n      lt\n      iszero\n        /* \"token/ERC4626Upgradeable.sol\":3488:3540  require(allowed >= shares, \"INSUFFICIENT_ALLOWANCE\") */\n      tag_460\n      jumpi\n      mload(0x40)\n      0x08c379a000000000000000000000000000000000000000000000000000000000\n      dup2\n      mstore\n      0x04\n      add\n      tag_461\n      swap1\n      tag_239\n      jump\t// in\n    tag_461:\n      mload(0x40)\n      dup1\n      swap2\n      sub\n      swap1\n      revert\n    tag_460:\n        /* \"token/ERC4626Upgradeable.sol\":3569:3586  type(uint256).max */\n      0xffffffffffffffffffffffffffffffffffffffffffffffffffffffffffffffff\n        /* \"token/ERC4626Upgradeable.sol\":3558:3565  allowed */\n      dup2\n        /* \"token/ERC4626Upgradeable.sol\":3558:3586  allowed != type(uint256).max */\n      eq\n        /* \"token/ERC4626Upgradeable.sol\":3554:3666  if (allowed != type(uint256).max) {... */\n      tag_462\n      jumpi\n        /* \"token/ERC4626Upgradeable.sol\":3606:3651  _approve(owner, msg.sender, allowed - shares) */\n      tag_463\n        /* \"token/ERC4626Upgradeable.sol\":3615:3620  owner */\n      dup4\n        /* \"token/ERC4626Upgradeable.sol\":3622:3632  msg.sender */\n      caller\n        /* \"token/ERC4626Upgradeable.sol\":3644:3650  shares */\n      dup5\n        /* \"token/ERC4626Upgradeable.sol\":3634:3641  allowed */\n      dup5\n        /* \"token/ERC4626Upgradeable.sol\":3634:3650  allowed - shares */\n      tag_464\n      swap2\n      swap1\n      tag_242\n      jump\t// in\n    tag_464:\n        /* \"token/ERC4626Upgradeable.sol\":3606:3614  _approve */\n      tag_233\n        /* \"token/ERC4626Upgradeable.sol\":3606:3651  _approve(owner, msg.sender, allowed - shares) */\n      jump\t// in\n    tag_463:\n        /* \"token/ERC4626Upgradeable.sol\":3554:3666  if (allowed != type(uint256).max) {... */\n    tag_462:\n        /* \"token/ERC4626Upgradeable.sol\":3414:3676  {... */\n      pop\n        /* \"token/ERC4626Upgradeable.sol\":3389:3676  if (owner != msg.sender) {... */\n    tag_458:\n        /* \"token/ERC4626Upgradeable.sol\":3686:3706  _burn(owner, shares) */\n      tag_465\n        /* \"token/ERC4626Upgradeable.sol\":3692:3697  owner */\n      dup3\n        /* \"token/ERC4626Upgradeable.sol\":3699:3705  shares */\n      dup3\n        /* \"token/ERC4626Upgradeable.sol\":3686:3691  _burn */\n      tag_369\n        /* \"token/ERC4626Upgradeable.sol\":3686:3706  _burn(owner, shares) */\n      jump\t// in\n    tag_465:\n        /* \"token/ERC4626Upgradeable.sol\":3716:3722  _asset */\n      0x07\n      0x00\n      swap1\n      sload\n      swap1\n      0x0100\n      exp\n      swap1\n      div\n      0xffffffffffffffffffffffffffffffffffffffff\n      and\n        /* \"token/ERC4626Upgradeable.sol\":3716:3731  _asset.transfer */\n      0xffffffffffffffffffffffffffffffffffffffff\n      and\n      0xa9059cbb\n        /* \"token/ERC4626Upgradeable.sol\":3732:3740  receiver */\n      dup5\n        /* \"token/ERC4626Upgradeable.sol\":3742:3749  assets_ */\n      dup7\n        /* \"token/ERC4626Upgradeable.sol\":3716:3750  _asset.transfer(receiver, assets_) */\n      mload(0x40)\n      dup4\n      0xffffffff\n      and\n      0xe0\n      shl\n      dup2\n      mstore\n      0x04\n      add\n      tag_466\n      swap3\n      swap2\n      swap1\n      tag_298\n      jump\t// in\n    tag_466:\n      0x20\n      mload(0x40)\n      dup1\n      dup4\n      sub\n      dup2\n      0x00\n      dup8\n      gas\n      call\n      iszero\n      dup1\n      iszero\n      tag_468\n      jumpi\n      returndatacopy(0x00, 0x00, returndatasize)\n      revert(0x00, returndatasize)\n    tag_468:\n      pop\n      pop\n      pop\n      pop\n      mload(0x40)\n      returndatasize\n      not(0x1f)\n      0x1f\n      dup3\n      add\n      and\n      dup3\n      add\n      dup1\n      0x40\n      mstore\n      pop\n      dup2\n      add\n      swap1\n      tag_469\n      swap2\n      swap1\n      tag_302\n      jump\t// in\n    tag_469:\n      pop\n        /* \"token/ERC4626Upgradeable.sol\":3797:3802  owner */\n      dup2\n        /* \"token/ERC4626Upgradeable.sol\":3766:3820  Withdraw(msg.sender, receiver, owner, assets_, shares) */\n      0xffffffffffffffffffffffffffffffffffffffff\n      and\n        /* \"token/ERC4626Upgradeable.sol\":3787:3795  receiver */\n      dup4\n        /* \"token/ERC4626Upgradeable.sol\":3766:3820  Withdraw(msg.sender, receiver, owner, assets_, shares) */\n      0xffffffffffffffffffffffffffffffffffffffff\n      and\n        /* \"token/ERC4626Upgradeable.sol\":3775:3785  msg.sender */\n      caller\n        /* \"token/ERC4626Upgradeable.sol\":3766:3820  Withdraw(msg.sender, receiver, owner, assets_, shares) */\n      0xffffffffffffffffffffffffffffffffffffffff\n      and\n      0xfbde797d201c681b91056529119e0b02407c7bb96a4a2c75c01fc9667232c8db\n        /* \"token/ERC4626Upgradeable.sol\":3804:3811  assets_ */\n      dup8\n        /* \"token/ERC4626Upgradeable.sol\":3813:3819  shares */\n      dup6\n        /* \"token/ERC4626Upgradeable.sol\":3766:3820  Withdraw(msg.sender, receiver, owner, assets_, shares) */\n      mload(0x40)\n      tag_470\n      swap3\n      swap2\n      swap1\n      tag_341\n      jump\t// in\n    tag_470:\n      mload(0x40)\n      dup1\n      swap2\n      sub\n      swap1\n      log4\n        /* \"token/ERC4626Upgradeable.sol\":2991:3827  function withdraw(uint256 assets_, address receiver, address owner) public virtual returns (uint256 shares) {... */\n      swap4\n      swap3\n      pop\n      pop\n      pop\n      jump\t// out\n        /* \"token/ERC20Upgradeable.sol\":3981:4326  function _burn(address from, uint256 amount) internal virtual {... */\n    tag_369:\n        /* \"token/ERC20Upgradeable.sol\":4053:4072  uint256 fromBalance */\n      0x00\n        /* \"token/ERC20Upgradeable.sol\":4075:4084  _balances */\n      0x05\n        /* \"token/ERC20Upgradeable.sol\":4075:4090  _balances[from] */\n      0x00\n        /* \"token/ERC20Upgradeable.sol\":4085:4089  from */\n      dup5\n        /* \"token/ERC20Upgradeable.sol\":4075:4090  _balances[from] */\n      0xffffffffffffffffffffffffffffffffffffffff\n      and\n      0xffffffffffffffffffffffffffffffffffffffff\n      and\n      dup2\n      mstore\n      0x20\n      add\n      swap1\n      dup2\n      mstore\n      0x20\n      add\n      0x00\n      keccak256\n      sload\n        /* \"token/ERC20Upgradeable.sol\":4053:4090  uint256 fromBalance = _balances[from] */\n      swap1\n      pop\n        /* \"token/ERC20Upgradeable.sol\":4123:4129  amount */\n      dup2\n        /* \"token/ERC20Upgradeable.sol\":4108:4119  fromBalance */\n      dup2\n        /* \"token/ERC20Upgradeable.sol\":4108:4129  fromBalance >= amount */\n      lt\n      iszero\n        /* \"token/ERC20Upgradeable.sol\":4100:4154  require(fromBalance >= amount, \"INSUFFICIENT_BALANCE\") */\n      tag_472\n      jumpi\n      mload(0x40)\n      0x08c379a000000000000000000000000000000000000000000000000000000000\n      dup2\n      mstore\n      0x04\n      add\n      tag_473\n      swap1\n      tag_411\n      jump\t// in\n    tag_473:\n      mload(0x40)\n      dup1\n      swap2\n      sub\n      swap1\n      revert\n    tag_472:\n        /* \"token/ERC20Upgradeable.sol\":4221:4227  amount */\n      dup2\n        /* \"token/ERC20Upgradeable.sol\":4207:4218  fromBalance */\n      dup2\n        /* \"token/ERC20Upgradeable.sol\":4207:4227  fromBalance - amount */\n      sub\n        /* \"token/ERC20Upgradeable.sol\":4189:4198  _balances */\n      0x05\n        /* \"token/ERC20Upgradeable.sol\":4189:4204  _balances[from] */\n      0x00\n        /* \"token/ERC20Upgradeable.sol\":4199:4203  from */\n      dup6\n        /* \"token/ERC20Upgradeable.sol\":4189:4204  _balances[from] */\n      0xffffffffffffffffffffffffffffffffffffffff\n      and\n      0xffffffffffffffffffffffffffffffffffffffff\n      and\n      dup2\n      mstore\n      0x20\n      add\n      swap1\n      dup2\n      mstore\n      0x20\n      add\n      0x00\n      keccak256\n        /* \"token/ERC20Upgradeable.sol\":4189:4227  _balances[from] = fromBalance - amount */\n      dup2\n      swap1\n      sstore\n      pop\n        /* \"token/ERC20Upgradeable.sol\":4264:4270  amount */\n      dup2\n        /* \"token/ERC20Upgradeable.sol\":4248:4260  _totalSupply */\n      0x04\n      0x00\n        /* \"token/ERC20Upgradeable.sol\":4248:4270  _totalSupply -= amount */\n      dup3\n      dup3\n      sload\n      tag_474\n      swap2\n      swap1\n      tag_242\n      jump\t// in\n    tag_474:\n      swap3\n      pop\n      pop\n      dup2\n      swap1\n      sstore\n      pop\n        /* \"token/ERC20Upgradeable.sol\":4308:4309  0 */\n      0x00\n        /* \"token/ERC20Upgradeable.sol\":4285:4319  Transfer(from, address(0), amount) */\n      0xffffffffffffffffffffffffffffffffffffffff\n      and\n        /* \"token/ERC20Upgradeable.sol\":4294:4298  from */\n      dup4\n        /* \"token/ERC20Upgradeable.sol\":4285:4319  Transfer(from, address(0), amount) */\n      0xffffffffffffffffffffffffffffffffffffffff\n      and\n      0xddf252ad1be2c89b69c2b068fc378daa952ba7f163c4a11628f55a4df523b3ef\n        /* \"token/ERC20Upgradeable.sol\":4312:4318  amount */\n      dup5\n        /* \"token/ERC20Upgradeable.sol\":4285:4319  Transfer(from, address(0), amount) */\n      mload(0x40)\n      tag_475\n      swap2\n      swap1\n      tag_44\n      jump\t// in\n    tag_475:\n      mload(0x40)\n      dup1\n      swap2\n      sub\n      swap1\n      log3\n        /* \"token/ERC20Upgradeable.sol\":4043:4326  {... */\n      pop\n        /* \"token/ERC20Upgradeable.sol\":3981:4326  function _burn(address from, uint256 amount) internal virtual {... */\n      pop\n      pop\n      jump\t// out\n        /* \"acess/Ownable.sol\":243:389  function __Ownable_init(address initializeOwner) internal {... */\n    tag_397:\n        /* \"acess/Ownable.sol\":346:347  0 */\n      0x00\n        /* \"acess/Ownable.sol\":319:348  initializeOwner != address(0) */\n      0xffffffffffffffffffffffffffffffffffffffff\n      and\n        /* \"acess/Ownable.sol\":319:334  initializeOwner */\n      dup2\n        /* \"acess/Ownable.sol\":319:348  initializeOwner != address(0) */\n      0xffffffffffffffffffffffffffffffffffffffff\n      and\n      sub\n        /* \"acess/Ownable.sol\":311:349  require(initializeOwner != address(0)) */\n      tag_477\n      jumpi\n      revert(0x00, 0x00)\n    tag_477:\n        /* \"acess/Ownable.sol\":367:382  initializeOwner */\n      dup1\n        /* \"acess/Ownable.sol\":359:364  owner */\n      0x00\n      0x02\n        /* \"acess/Ownable.sol\":359:382  owner = initializeOwner */\n      0x0100\n      exp\n      dup2\n      sload\n      dup2\n      0xffffffffffffffffffffffffffffffffffffffff\n      mul\n      not\n      and\n      swap1\n      dup4\n      0xffffffffffffffffffffffffffffffffffffffff\n      and\n      mul\n      or\n      swap1\n      sstore\n      pop\n        /* \"acess/Ownable.sol\":243:389  function __Ownable_init(address initializeOwner) internal {... */\n      pop\n      jump\t// out\n        /* \"token/ERC4626Upgradeable.sol\":1033:1290  function __ERC4626_init(... */\n    tag_399:\n        /* \"token/ERC4626Upgradeable.sol\":1192:1193  0 */\n      0x00\n        /* \"token/ERC4626Upgradeable.sol\":1174:1194  asset_ != address(0) */\n      0xffffffffffffffffffffffffffffffffffffffff\n      and\n        /* \"token/ERC4626Upgradeable.sol\":1174:1180  asset_ */\n      dup4\n        /* \"token/ERC4626Upgradeable.sol\":1174:1194  asset_ != address(0) */\n      0xffffffffffffffffffffffffffffffffffffffff\n      and\n      sub\n        /* \"token/ERC4626Upgradeable.sol\":1166:1209  require(asset_ != address(0), \"ZERO_ASSET\") */\n      tag_479\n      jumpi\n      mload(0x40)\n      0x08c379a000000000000000000000000000000000000000000000000000000000\n      dup2\n      mstore\n      0x04\n      add\n      tag_480\n      swap1\n      tag_481\n      jump\t// in\n    tag_480:\n      mload(0x40)\n      dup1\n      swap2\n      sub\n      swap1\n      revert\n    tag_479:\n        /* \"token/ERC4626Upgradeable.sol\":1219:1250  __ERC20_init(name_, symbol_, 6) */\n      tag_482\n        /* \"token/ERC4626Upgradeable.sol\":1232:1237  name_ */\n      dup3\n        /* \"token/ERC4626Upgradeable.sol\":1239:1246  symbol_ */\n      dup3\n        /* \"token/ERC4626Upgradeable.sol\":1248:1249  6 */\n      0x06\n        /* \"token/ERC4626Upgradeable.sol\":1219:1231  __ERC20_init */\n      tag_483\n        /* \"token/ERC4626Upgradeable.sol\":1219:1250  __ERC20_init(name_, symbol_, 6) */\n      jump\t// in\n    tag_482:\n        /* \"token/ERC4626Upgradeable.sol\":1276:1282  asset_ */\n      dup3\n        /* \"token/ERC4626Upgradeable.sol\":1260:1266  _asset */\n      0x07\n      0x00\n        /* \"token/ERC4626Upgradeable.sol\":1260:1283  _asset = IERC20(asset_) */\n      0x0100\n      exp\n      dup2\n      sload\n      dup2\n      0xffffffffffffffffffffffffffffffffffffffff\n      mul\n      not\n      and\n      swap1\n      dup4\n      0xffffffffffffffffffffffffffffffffffffffff\n      and\n      mul\n      or\n      swap1\n      sstore\n      pop\n        /* \"token/ERC4626Upgradeable.sol\":1033:1290  function __ERC4626_init(... */\n      pop\n      pop\n      pop\n      jump\t// out\n        /* \"proxy/UUPSUpgradeable.sol\":3266:3453  function _setImplementation(address newImplementation) private {... */\n    tag_423:\n        /* \"proxy/UUPSUpgradeable.sol\":3339:3351  bytes32 slot */\n      0x00\n        /* \"proxy/UUPSUpgradeable.sol\":793:859  0x360894A13BA1A3210667C828492DB98DCA3E2076CC3735A920A3CA505D382BBC */\n      0x360894a13ba1a3210667c828492db98dca3e2076cc3735a920a3ca505d382bbc\n        /* \"proxy/UUPSUpgradeable.sol\":3354:3373  IMPLEMENTATION_SLOT */\n      0x00\n      shl\n        /* \"proxy/UUPSUpgradeable.sol\":3339:3373  bytes32 slot = IMPLEMENTATION_SLOT */\n      swap1\n      pop\n        /* \"proxy/UUPSUpgradeable.sol\":3419:3436  newImplementation */\n      dup2\n        /* \"proxy/UUPSUpgradeable.sol\":3413:3417  slot */\n      dup2\n        /* \"proxy/UUPSUpgradeable.sol\":3406:3437  sstore(slot, newImplementation) */\n      sstore\n        /* \"proxy/UUPSUpgradeable.sol\":3392:3447  {... */\n      pop\n        /* \"proxy/UUPSUpgradeable.sol\":3266:3453  function _setImplementation(address newImplementation) private {... */\n      pop\n      jump\t// out\n        /* \"token/ERC20Upgradeable.sol\":1258:1504  function __ERC20_init(string memory name_, string memory symbol_, uint8 decimals_) internal {... */\n    tag_483:\n        /* \"token/ERC20Upgradeable.sol\":1391:1392  0 */\n      0x00\n        /* \"token/ERC20Upgradeable.sol\":1374:1379  _name */\n      0x01\n        /* \"token/ERC20Upgradeable.sol\":1368:1387  bytes(_name).length */\n      dup1\n      sload\n      tag_486\n      swap1\n      tag_215\n      jump\t// in\n    tag_486:\n      swap1\n      pop\n        /* \"token/ERC20Upgradeable.sol\":1368:1392  bytes(_name).length == 0 */\n      eq\n        /* \"token/ERC20Upgradeable.sol\":1360:1416  require(bytes(_name).length == 0, \"ALREADY_INITIALIZED\") */\n      tag_487\n      jumpi\n      mload(0x40)\n      0x08c379a000000000000000000000000000000000000000000000000000000000\n      dup2\n      mstore\n      0x04\n      add\n      tag_488\n      swap1\n      tag_393\n      jump\t// in\n    tag_488:\n      mload(0x40)\n      dup1\n      swap2\n      sub\n      swap1\n      revert\n    tag_487:\n        /* \"token/ERC20Upgradeable.sol\":1434:1439  name_ */\n      dup3\n        /* \"token/ERC20Upgradeable.sol\":1426:1431  _name */\n      0x01\n        /* \"token/ERC20Upgradeable.sol\":1426:1439  _name = name_ */\n      swap1\n      dup2\n      tag_489\n      swap2\n      swap1\n      tag_490\n      jump\t// in\n    tag_489:\n      pop\n        /* \"token/ERC20Upgradeable.sol\":1459:1466  symbol_ */\n      dup2\n        /* \"token/ERC20Upgradeable.sol\":1449:1456  _symbol */\n      0x02\n        /* \"token/ERC20Upgradeable.sol\":1449:1466  _symbol = symbol_ */\n      swap1\n      dup2\n      tag_491\n      swap2\n      swap1\n      tag_490\n      jump\t// in\n    tag_491:\n      pop\n        /* \"token/ERC20Upgradeable.sol\":1488:1497  decimals_ */\n      dup1\n        /* \"token/ERC20Upgradeable.sol\":1476:1485  _decimals */\n      0x03\n      0x00\n        /* \"token/ERC20Upgradeable.sol\":1476:1497  _decimals = decimals_ */\n      0x0100\n      exp\n      dup2\n      sload\n      dup2\n      0xff\n      mul\n      not\n      and\n      swap1\n      dup4\n      0xff\n      and\n      mul\n      or\n      swap1\n      sstore\n      pop\n        /* \"token/ERC20Upgradeable.sol\":1258:1504  function __ERC20_init(string memory name_, string memory symbol_, uint8 decimals_) internal {... */\n      pop\n      pop\n      pop\n      jump\t// out\n        /* \"#utility.yul\":7:84   */\n    tag_492:\n        /* \"#utility.yul\":44:51   */\n      0x00\n        /* \"#utility.yul\":73:78   */\n      dup2\n        /* \"#utility.yul\":62:78   */\n      swap1\n      pop\n        /* \"#utility.yul\":7:84   */\n      swap2\n      swap1\n      pop\n      jump\t// out\n        /* \"#utility.yul\":90:208   */\n    tag_493:\n        /* \"#utility.yul\":177:201   */\n      tag_569\n        /* \"#utility.yul\":195:200   */\n      dup2\n        /* \"#utility.yul\":177:201   */\n      tag_492\n      jump\t// in\n    tag_569:\n        /* \"#utility.yul\":172:175   */\n      dup3\n        /* \"#utility.yul\":165:202   */\n      mstore\n        /* \"#utility.yul\":90:208   */\n      pop\n      pop\n      jump\t// out\n        /* \"#utility.yul\":214:436   */\n    tag_44:\n        /* \"#utility.yul\":307:311   */\n      0x00\n        /* \"#utility.yul\":345:347   */\n      0x20\n        /* \"#utility.yul\":334:343   */\n      dup3\n        /* \"#utility.yul\":330:348   */\n      add\n        /* \"#utility.yul\":322:348   */\n      swap1\n      pop\n        /* \"#utility.yul\":358:429   */\n      tag_571\n        /* \"#utility.yul\":426:427   */\n      0x00\n        /* \"#utility.yul\":415:424   */\n      dup4\n        /* \"#utility.yul\":411:428   */\n      add\n        /* \"#utility.yul\":402:408   */\n      dup5\n        /* \"#utility.yul\":358:429   */\n      tag_493\n      jump\t// in\n    tag_571:\n        /* \"#utility.yul\":214:436   */\n      swap3\n      swap2\n      pop\n      pop\n      jump\t// out\n        /* \"#utility.yul\":442:541   */\n    tag_494:\n        /* \"#utility.yul\":494:500   */\n      0x00\n        /* \"#utility.yul\":528:533   */\n      dup2\n        /* \"#utility.yul\":522:534   */\n      mload\n        /* \"#utility.yul\":512:534   */\n      swap1\n      pop\n        /* \"#utility.yul\":442:541   */\n      swap2\n      swap1\n      pop\n      jump\t// out\n        /* \"#utility.yul\":547:716   */\n    tag_495:\n        /* \"#utility.yul\":631:642   */\n      0x00\n        /* \"#utility.yul\":665:671   */\n      dup3\n        /* \"#utility.yul\":660:663   */\n      dup3\n        /* \"#utility.yul\":653:672   */\n      mstore\n        /* \"#utility.yul\":705:709   */\n      0x20\n        /* \"#utility.yul\":700:703   */\n      dup3\n        /* \"#utility.yul\":696:710   */\n      add\n        /* \"#utility.yul\":681:710   */\n      swap1\n      pop\n        /* \"#utility.yul\":547:716   */\n      swap3\n      swap2\n      pop\n      pop\n      jump\t// out\n        /* \"#utility.yul\":722:861   */\n    tag_496:\n        /* \"#utility.yul\":811:817   */\n      dup3\n        /* \"#utility.yul\":806:809   */\n      dup2\n        /* \"#utility.yul\":801:804   */\n      dup4\n        /* \"#utility.yul\":795:818   */\n      mcopy\n        /* \"#utility.yul\":852:853   */\n      0x00\n        /* \"#utility.yul\":843:849   */\n      dup4\n        /* \"#utility.yul\":838:841   */\n      dup4\n        /* \"#utility.yul\":834:850   */\n      add\n        /* \"#utility.yul\":827:854   */\n      mstore\n        /* \"#utility.yul\":722:861   */\n      pop\n      pop\n      pop\n      jump\t// out\n        /* \"#utility.yul\":867:969   */\n    tag_497:\n        /* \"#utility.yul\":908:914   */\n      0x00\n        /* \"#utility.yul\":959:961   */\n      0x1f\n        /* \"#utility.yul\":955:962   */\n      not\n        /* \"#utility.yul\":950:952   */\n      0x1f\n        /* \"#utility.yul\":943:948   */\n      dup4\n        /* \"#utility.yul\":939:953   */\n      add\n        /* \"#utility.yul\":935:963   */\n      and\n        /* \"#utility.yul\":925:963   */\n      swap1\n      pop\n        /* \"#utility.yul\":867:969   */\n      swap2\n      swap1\n      pop\n      jump\t// out\n        /* \"#utility.yul\":975:1352   */\n    tag_498:\n        /* \"#utility.yul\":1063:1066   */\n      0x00\n        /* \"#utility.yul\":1091:1130   */\n      tag_577\n        /* \"#utility.yul\":1124:1129   */\n      dup3\n        /* \"#utility.yul\":1091:1130   */\n      tag_494\n      jump\t// in\n    tag_577:\n        /* \"#utility.yul\":1146:1217   */\n      tag_578\n        /* \"#utility.yul\":1210:1216   */\n      dup2\n        /* \"#utility.yul\":1205:1208   */\n      dup6\n        /* \"#utility.yul\":1146:1217   */\n      tag_495\n      jump\t// in\n    tag_578:\n        /* \"#utility.yul\":1139:1217   */\n      swap4\n      pop\n        /* \"#utility.yul\":1226:1291   */\n      tag_579\n        /* \"#utility.yul\":1284:1290   */\n      dup2\n        /* \"#utility.yul\":1279:1282   */\n      dup6\n        /* \"#utility.yul\":1272:1276   */\n      0x20\n        /* \"#utility.yul\":1265:1270   */\n      dup7\n        /* \"#utility.yul\":1261:1277   */\n      add\n        /* \"#utility.yul\":1226:1291   */\n      tag_496\n      jump\t// in\n    tag_579:\n        /* \"#utility.yul\":1316:1345   */\n      tag_580\n        /* \"#utility.yul\":1338:1344   */\n      dup2\n        /* \"#utility.yul\":1316:1345   */\n      tag_497\n      jump\t// in\n    tag_580:\n        /* \"#utility.yul\":1311:1314   */\n      dup5\n        /* \"#utility.yul\":1307:1346   */\n      add\n        /* \"#utility.yul\":1300:1346   */\n      swap2\n      pop\n        /* \"#utility.yul\":1067:1352   */\n      pop\n        /* \"#utility.yul\":975:1352   */\n      swap3\n      swap2\n      pop\n      pop\n      jump\t// out\n        /* \"#utility.yul\":1358:1671   */\n    tag_49:\n        /* \"#utility.yul\":1471:1475   */\n      0x00\n        /* \"#utility.yul\":1509:1511   */\n      0x20\n        /* \"#utility.yul\":1498:1507   */\n      dup3\n        /* \"#utility.yul\":1494:1512   */\n      add\n        /* \"#utility.yul\":1486:1512   */\n      swap1\n      pop\n        /* \"#utility.yul\":1558:1567   */\n      dup2\n        /* \"#utility.yul\":1552:1556   */\n      dup2\n        /* \"#utility.yul\":1548:1568   */\n      sub\n        /* \"#utility.yul\":1544:1545   */\n      0x00\n        /* \"#utility.yul\":1533:1542   */\n      dup4\n        /* \"#utility.yul\":1529:1546   */\n      add\n        /* \"#utility.yul\":1522:1569   */\n      mstore\n        /* \"#utility.yul\":1586:1664   */\n      tag_582\n        /* \"#utility.yul\":1659:1663   */\n      dup2\n        /* \"#utility.yul\":1650:1656   */\n      dup5\n        /* \"#utility.yul\":1586:1664   */\n      tag_498\n      jump\t// in\n    tag_582:\n        /* \"#utility.yul\":1578:1664   */\n      swap1\n      pop\n        /* \"#utility.yul\":1358:1671   */\n      swap3\n      swap2\n      pop\n      pop\n      jump\t// out\n        /* \"#utility.yul\":1758:1875   */\n    tag_500:\n        /* \"#utility.yul\":1867:1868   */\n      0x00\n        /* \"#utility.yul\":1864:1865   */\n      0x00\n        /* \"#utility.yul\":1857:1869   */\n      revert\n        /* \"#utility.yul\":1881:1998   */\n    tag_501:\n        /* \"#utility.yul\":1990:1991   */\n      0x00\n        /* \"#utility.yul\":1987:1988   */\n      0x00\n        /* \"#utility.yul\":1980:1992   */\n      revert\n        /* \"#utility.yul\":2004:2126   */\n    tag_502:\n        /* \"#utility.yul\":2077:2101   */\n      tag_587\n        /* \"#utility.yul\":2095:2100   */\n      dup2\n        /* \"#utility.yul\":2077:2101   */\n      tag_492\n      jump\t// in\n    tag_587:\n        /* \"#utility.yul\":2070:2075   */\n      dup2\n        /* \"#utility.yul\":2067:2102   */\n      eq\n        /* \"#utility.yul\":2057:2120   */\n      tag_588\n      jumpi\n        /* \"#utility.yul\":2116:2117   */\n      0x00\n        /* \"#utility.yul\":2113:2114   */\n      0x00\n        /* \"#utility.yul\":2106:2118   */\n      revert\n        /* \"#utility.yul\":2057:2120   */\n    tag_588:\n        /* \"#utility.yul\":2004:2126   */\n      pop\n      jump\t// out\n        /* \"#utility.yul\":2132:2271   */\n    tag_503:\n        /* \"#utility.yul\":2178:2183   */\n      0x00\n        /* \"#utility.yul\":2216:2222   */\n      dup2\n        /* \"#utility.yul\":2203:2223   */\n      calldataload\n        /* \"#utility.yul\":2194:2223   */\n      swap1\n      pop\n        /* \"#utility.yul\":2232:2265   */\n      tag_590\n        /* \"#utility.yul\":2259:2264   */\n      dup2\n        /* \"#utility.yul\":2232:2265   */\n      tag_502\n      jump\t// in\n    tag_590:\n        /* \"#utility.yul\":2132:2271   */\n      swap3\n      swap2\n      pop\n      pop\n      jump\t// out\n        /* \"#utility.yul\":2277:2606   */\n    tag_53:\n        /* \"#utility.yul\":2336:2342   */\n      0x00\n        /* \"#utility.yul\":2385:2387   */\n      0x20\n        /* \"#utility.yul\":2373:2382   */\n      dup3\n        /* \"#utility.yul\":2364:2371   */\n      dup5\n        /* \"#utility.yul\":2360:2383   */\n      sub\n        /* \"#utility.yul\":2356:2388   */\n      slt\n        /* \"#utility.yul\":2353:2472   */\n      iszero\n      tag_592\n      jumpi\n        /* \"#utility.yul\":2391:2470   */\n      tag_593\n      tag_500\n      jump\t// in\n    tag_593:\n        /* \"#utility.yul\":2353:2472   */\n    tag_592:\n        /* \"#utility.yul\":2511:2512   */\n      0x00\n        /* \"#utility.yul\":2536:2589   */\n      tag_594\n        /* \"#utility.yul\":2581:2588   */\n      dup5\n        /* \"#utility.yul\":2572:2578   */\n      dup3\n        /* \"#utility.yul\":2561:2570   */\n      dup6\n        /* \"#utility.yul\":2557:2579   */\n      add\n        /* \"#utility.yul\":2536:2589   */\n      tag_503\n      jump\t// in\n    tag_594:\n        /* \"#utility.yul\":2526:2589   */\n      swap2\n      pop\n        /* \"#utility.yul\":2482:2599   */\n      pop\n        /* \"#utility.yul\":2277:2606   */\n      swap3\n      swap2\n      pop\n      pop\n      jump\t// out\n        /* \"#utility.yul\":2612:2738   */\n    tag_504:\n        /* \"#utility.yul\":2649:2656   */\n      0x00\n        /* \"#utility.yul\":2689:2731   */\n      0xffffffffffffffffffffffffffffffffffffffff\n        /* \"#utility.yul\":2682:2687   */\n      dup3\n        /* \"#utility.yul\":2678:2732   */\n      and\n        /* \"#utility.yul\":2667:2732   */\n      swap1\n      pop\n        /* \"#utility.yul\":2612:2738   */\n      swap2\n      swap1\n      pop\n      jump\t// out\n        /* \"#utility.yul\":2744:2840   */\n    tag_505:\n        /* \"#utility.yul\":2781:2788   */\n      0x00\n        /* \"#utility.yul\":2810:2834   */\n      tag_597\n        /* \"#utility.yul\":2828:2833   */\n      dup3\n        /* \"#utility.yul\":2810:2834   */\n      tag_504\n      jump\t// in\n    tag_597:\n        /* \"#utility.yul\":2799:2834   */\n      swap1\n      pop\n        /* \"#utility.yul\":2744:2840   */\n      swap2\n      swap1\n      pop\n      jump\t// out\n        /* \"#utility.yul\":2846:2968   */\n    tag_506:\n        /* \"#utility.yul\":2919:2943   */\n      tag_599\n        /* \"#utility.yul\":2937:2942   */\n      dup2\n        /* \"#utility.yul\":2919:2943   */\n      tag_505\n      jump\t// in\n    tag_599:\n        /* \"#utility.yul\":2912:2917   */\n      dup2\n        /* \"#utility.yul\":2909:2944   */\n      eq\n        /* \"#utility.yul\":2899:2962   */\n      tag_600\n      jumpi\n        /* \"#utility.yul\":2958:2959   */\n      0x00\n        /* \"#utility.yul\":2955:2956   */\n      0x00\n        /* \"#utility.yul\":2948:2960   */\n      revert\n        /* \"#utility.yul\":2899:2962   */\n    tag_600:\n        /* \"#utility.yul\":2846:2968   */\n      pop\n      jump\t// out\n        /* \"#utility.yul\":2974:3113   */\n    tag_507:\n        /* \"#utility.yul\":3020:3025   */\n      0x00\n        /* \"#utility.yul\":3058:3064   */\n      dup2\n        /* \"#utility.yul\":3045:3065   */\n      calldataload\n        /* \"#utility.yul\":3036:3065   */\n      swap1\n      pop\n        /* \"#utility.yul\":3074:3107   */\n      tag_602\n        /* \"#utility.yul\":3101:3106   */\n      dup2\n        /* \"#utility.yul\":3074:3107   */\n      tag_506\n      jump\t// in\n    tag_602:\n        /* \"#utility.yul\":2974:3113   */\n      swap3\n      swap2\n      pop\n      pop\n      jump\t// out\n        /* \"#utility.yul\":3119:3593   */\n    tag_59:\n        /* \"#utility.yul\":3187:3193   */\n      0x00\n        /* \"#utility.yul\":3195:3201   */\n      0x00\n        /* \"#utility.yul\":3244:3246   */\n      0x40\n        /* \"#utility.yul\":3232:3241   */\n      dup4\n        /* \"#utility.yul\":3223:3230   */\n      dup6\n        /* \"#utility.yul\":3219:3242   */\n      sub\n        /* \"#utility.yul\":3215:3247   */\n      slt\n        /* \"#utility.yul\":3212:3331   */\n      iszero\n      tag_604\n      jumpi\n        /* \"#utility.yul\":3250:3329   */\n      tag_605\n      tag_500\n      jump\t// in\n    tag_605:\n        /* \"#utility.yul\":3212:3331   */\n    tag_604:\n        /* \"#utility.yul\":3370:3371   */\n      0x00\n        /* \"#utility.yul\":3395:3448   */\n      tag_606\n        /* \"#utility.yul\":3440:3447   */\n      dup6\n        /* \"#utility.yul\":3431:3437   */\n      dup3\n        /* \"#utility.yul\":3420:3429   */\n      dup7\n        /* \"#utility.yul\":3416:3438   */\n      add\n        /* \"#utility.yul\":3395:3448   */\n      tag_507\n      jump\t// in\n    tag_606:\n        /* \"#utility.yul\":3385:3448   */\n      swap3\n      pop\n        /* \"#utility.yul\":3341:3458   */\n      pop\n        /* \"#utility.yul\":3497:3499   */\n      0x20\n        /* \"#utility.yul\":3523:3576   */\n      tag_607\n        /* \"#utility.yul\":3568:3575   */\n      dup6\n        /* \"#utility.yul\":3559:3565   */\n      dup3\n        /* \"#utility.yul\":3548:3557   */\n      dup7\n        /* \"#utility.yul\":3544:3566   */\n      add\n        /* \"#utility.yul\":3523:3576   */\n      tag_503\n      jump\t// in\n    tag_607:\n        /* \"#utility.yul\":3513:3576   */\n      swap2\n      pop\n        /* \"#utility.yul\":3468:3586   */\n      pop\n        /* \"#utility.yul\":3119:3593   */\n      swap3\n      pop\n      swap3\n      swap1\n      pop\n      jump\t// out\n        /* \"#utility.yul\":3599:3689   */\n    tag_508:\n        /* \"#utility.yul\":3633:3640   */\n      0x00\n        /* \"#utility.yul\":3676:3681   */\n      dup2\n        /* \"#utility.yul\":3669:3682   */\n      iszero\n        /* \"#utility.yul\":3662:3683   */\n      iszero\n        /* \"#utility.yul\":3651:3683   */\n      swap1\n      pop\n        /* \"#utility.yul\":3599:3689   */\n      swap2\n      swap1\n      pop\n      jump\t// out\n        /* \"#utility.yul\":3695:3804   */\n    tag_509:\n        /* \"#utility.yul\":3776:3797   */\n      tag_610\n        /* \"#utility.yul\":3791:3796   */\n      dup2\n        /* \"#utility.yul\":3776:3797   */\n      tag_508\n      jump\t// in\n    tag_610:\n        /* \"#utility.yul\":3771:3774   */\n      dup3\n        /* \"#utility.yul\":3764:3798   */\n      mstore\n        /* \"#utility.yul\":3695:3804   */\n      pop\n      pop\n      jump\t// out\n        /* \"#utility.yul\":3810:4020   */\n    tag_62:\n        /* \"#utility.yul\":3897:3901   */\n      0x00\n        /* \"#utility.yul\":3935:3937   */\n      0x20\n        /* \"#utility.yul\":3924:3933   */\n      dup3\n        /* \"#utility.yul\":3920:3938   */\n      add\n        /* \"#utility.yul\":3912:3938   */\n      swap1\n      pop\n        /* \"#utility.yul\":3948:4013   */\n      tag_612\n        /* \"#utility.yul\":4010:4011   */\n      0x00\n        /* \"#utility.yul\":3999:4008   */\n      dup4\n        /* \"#utility.yul\":3995:4012   */\n      add\n        /* \"#utility.yul\":3986:3992   */\n      dup5\n        /* \"#utility.yul\":3948:4013   */\n      tag_509\n      jump\t// in\n    tag_612:\n        /* \"#utility.yul\":3810:4020   */\n      swap3\n      swap2\n      pop\n      pop\n      jump\t// out\n        /* \"#utility.yul\":4026:4645   */\n    tag_70:\n        /* \"#utility.yul\":4103:4109   */\n      0x00\n        /* \"#utility.yul\":4111:4117   */\n      0x00\n        /* \"#utility.yul\":4119:4125   */\n      0x00\n        /* \"#utility.yul\":4168:4170   */\n      0x60\n        /* \"#utility.yul\":4156:4165   */\n      dup5\n        /* \"#utility.yul\":4147:4154   */\n      dup7\n        /* \"#utility.yul\":4143:4166   */\n      sub\n        /* \"#utility.yul\":4139:4171   */\n      slt\n        /* \"#utility.yul\":4136:4255   */\n      iszero\n      tag_614\n      jumpi\n        /* \"#utility.yul\":4174:4253   */\n      tag_615\n      tag_500\n      jump\t// in\n    tag_615:\n        /* \"#utility.yul\":4136:4255   */\n    tag_614:\n        /* \"#utility.yul\":4294:4295   */\n      0x00\n        /* \"#utility.yul\":4319:4372   */\n      tag_616\n        /* \"#utility.yul\":4364:4371   */\n      dup7\n        /* \"#utility.yul\":4355:4361   */\n      dup3\n        /* \"#utility.yul\":4344:4353   */\n      dup8\n        /* \"#utility.yul\":4340:4362   */\n      add\n        /* \"#utility.yul\":4319:4372   */\n      tag_507\n      jump\t// in\n    tag_616:\n        /* \"#utility.yul\":4309:4372   */\n      swap4\n      pop\n        /* \"#utility.yul\":4265:4382   */\n      pop\n        /* \"#utility.yul\":4421:4423   */\n      0x20\n        /* \"#utility.yul\":4447:4500   */\n      tag_617\n        /* \"#utility.yul\":4492:4499   */\n      dup7\n        /* \"#utility.yul\":4483:4489   */\n      dup3\n        /* \"#utility.yul\":4472:4481   */\n      dup8\n        /* \"#utility.yul\":4468:4490   */\n      add\n        /* \"#utility.yul\":4447:4500   */\n      tag_507\n      jump\t// in\n    tag_617:\n        /* \"#utility.yul\":4437:4500   */\n      swap3\n      pop\n        /* \"#utility.yul\":4392:4510   */\n      pop\n        /* \"#utility.yul\":4549:4551   */\n      0x40\n        /* \"#utility.yul\":4575:4628   */\n      tag_618\n        /* \"#utility.yul\":4620:4627   */\n      dup7\n        /* \"#utility.yul\":4611:4617   */\n      dup3\n        /* \"#utility.yul\":4600:4609   */\n      dup8\n        /* \"#utility.yul\":4596:4618   */\n      add\n        /* \"#utility.yul\":4575:4628   */\n      tag_503\n      jump\t// in\n    tag_618:\n        /* \"#utility.yul\":4565:4628   */\n      swap2\n      pop\n        /* \"#utility.yul\":4520:4638   */\n      pop\n        /* \"#utility.yul\":4026:4645   */\n      swap3\n      pop\n      swap3\n      pop\n      swap3\n      jump\t// out\n        /* \"#utility.yul\":4651:4980   */\n    tag_80:\n        /* \"#utility.yul\":4710:4716   */\n      0x00\n        /* \"#utility.yul\":4759:4761   */\n      0x20\n        /* \"#utility.yul\":4747:4756   */\n      dup3\n        /* \"#utility.yul\":4738:4745   */\n      dup5\n        /* \"#utility.yul\":4734:4757   */\n      sub\n        /* \"#utility.yul\":4730:4762   */\n      slt\n        /* \"#utility.yul\":4727:4846   */\n      iszero\n      tag_620\n      jumpi\n        /* \"#utility.yul\":4765:4844   */\n      tag_621\n      tag_500\n      jump\t// in\n    tag_621:\n        /* \"#utility.yul\":4727:4846   */\n    tag_620:\n        /* \"#utility.yul\":4885:4886   */\n      0x00\n        /* \"#utility.yul\":4910:4963   */\n      tag_622\n        /* \"#utility.yul\":4955:4962   */\n      dup5\n        /* \"#utility.yul\":4946:4952   */\n      dup3\n        /* \"#utility.yul\":4935:4944   */\n      dup6\n        /* \"#utility.yul\":4931:4953   */\n      add\n        /* \"#utility.yul\":4910:4963   */\n      tag_507\n      jump\t// in\n    tag_622:\n        /* \"#utility.yul\":4900:4963   */\n      swap2\n      pop\n        /* \"#utility.yul\":4856:4973   */\n      pop\n        /* \"#utility.yul\":4651:4980   */\n      swap3\n      swap2\n      pop\n      pop\n      jump\t// out\n        /* \"#utility.yul\":4986:5104   */\n    tag_510:\n        /* \"#utility.yul\":5073:5097   */\n      tag_624\n        /* \"#utility.yul\":5091:5096   */\n      dup2\n        /* \"#utility.yul\":5073:5097   */\n      tag_505\n      jump\t// in\n    tag_624:\n        /* \"#utility.yul\":5068:5071   */\n      dup3\n        /* \"#utility.yul\":5061:5098   */\n      mstore\n        /* \"#utility.yul\":4986:5104   */\n      pop\n      pop\n      jump\t// out\n        /* \"#utility.yul\":5110:5332   */\n    tag_86:\n        /* \"#utility.yul\":5203:5207   */\n      0x00\n        /* \"#utility.yul\":5241:5243   */\n      0x20\n        /* \"#utility.yul\":5230:5239   */\n      dup3\n        /* \"#utility.yul\":5226:5244   */\n      add\n        /* \"#utility.yul\":5218:5244   */\n      swap1\n      pop\n        /* \"#utility.yul\":5254:5325   */\n      tag_626\n        /* \"#utility.yul\":5322:5323   */\n      0x00\n        /* \"#utility.yul\":5311:5320   */\n      dup4\n        /* \"#utility.yul\":5307:5324   */\n      add\n        /* \"#utility.yul\":5298:5304   */\n      dup5\n        /* \"#utility.yul\":5254:5325   */\n      tag_510\n      jump\t// in\n    tag_626:\n        /* \"#utility.yul\":5110:5332   */\n      swap3\n      swap2\n      pop\n      pop\n      jump\t// out\n        /* \"#utility.yul\":5338:5455   */\n    tag_511:\n        /* \"#utility.yul\":5447:5448   */\n      0x00\n        /* \"#utility.yul\":5444:5445   */\n      0x00\n        /* \"#utility.yul\":5437:5449   */\n      revert\n        /* \"#utility.yul\":5461:5578   */\n    tag_512:\n        /* \"#utility.yul\":5570:5571   */\n      0x00\n        /* \"#utility.yul\":5567:5568   */\n      0x00\n        /* \"#utility.yul\":5560:5572   */\n      revert\n        /* \"#utility.yul\":5584:5701   */\n    tag_513:\n        /* \"#utility.yul\":5693:5694   */\n      0x00\n        /* \"#utility.yul\":5690:5691   */\n      0x00\n        /* \"#utility.yul\":5683:5695   */\n      revert\n        /* \"#utility.yul\":5720:6272   */\n    tag_514:\n        /* \"#utility.yul\":5777:5785   */\n      0x00\n        /* \"#utility.yul\":5787:5793   */\n      0x00\n        /* \"#utility.yul\":5837:5840   */\n      dup4\n        /* \"#utility.yul\":5830:5834   */\n      0x1f\n        /* \"#utility.yul\":5822:5828   */\n      dup5\n        /* \"#utility.yul\":5818:5835   */\n      add\n        /* \"#utility.yul\":5814:5841   */\n      slt\n        /* \"#utility.yul\":5804:5926   */\n      tag_631\n      jumpi\n        /* \"#utility.yul\":5845:5924   */\n      tag_632\n      tag_511\n      jump\t// in\n    tag_632:\n        /* \"#utility.yul\":5804:5926   */\n    tag_631:\n        /* \"#utility.yul\":5958:5964   */\n      dup3\n        /* \"#utility.yul\":5945:5965   */\n      calldataload\n        /* \"#utility.yul\":5935:5965   */\n      swap1\n      pop\n        /* \"#utility.yul\":5988:6006   */\n      0xffffffffffffffff\n        /* \"#utility.yul\":5980:5986   */\n      dup2\n        /* \"#utility.yul\":5977:6007   */\n      gt\n        /* \"#utility.yul\":5974:6091   */\n      iszero\n      tag_633\n      jumpi\n        /* \"#utility.yul\":6010:6089   */\n      tag_634\n      tag_512\n      jump\t// in\n    tag_634:\n        /* \"#utility.yul\":5974:6091   */\n    tag_633:\n        /* \"#utility.yul\":6124:6128   */\n      0x20\n        /* \"#utility.yul\":6116:6122   */\n      dup4\n        /* \"#utility.yul\":6112:6129   */\n      add\n        /* \"#utility.yul\":6100:6129   */\n      swap2\n      pop\n        /* \"#utility.yul\":6178:6181   */\n      dup4\n        /* \"#utility.yul\":6170:6174   */\n      0x01\n        /* \"#utility.yul\":6162:6168   */\n      dup3\n        /* \"#utility.yul\":6158:6175   */\n      mul\n        /* \"#utility.yul\":6148:6156   */\n      dup4\n        /* \"#utility.yul\":6144:6176   */\n      add\n        /* \"#utility.yul\":6141:6182   */\n      gt\n        /* \"#utility.yul\":6138:6266   */\n      iszero\n      tag_635\n      jumpi\n        /* \"#utility.yul\":6185:6264   */\n      tag_636\n      tag_513\n      jump\t// in\n    tag_636:\n        /* \"#utility.yul\":6138:6266   */\n    tag_635:\n        /* \"#utility.yul\":5720:6272   */\n      swap3\n      pop\n      swap3\n      swap1\n      pop\n      jump\t// out\n        /* \"#utility.yul\":6278:6950   */\n    tag_97:\n        /* \"#utility.yul\":6357:6363   */\n      0x00\n        /* \"#utility.yul\":6365:6371   */\n      0x00\n        /* \"#utility.yul\":6373:6379   */\n      0x00\n        /* \"#utility.yul\":6422:6424   */\n      0x40\n        /* \"#utility.yul\":6410:6419   */\n      dup5\n        /* \"#utility.yul\":6401:6408   */\n      dup7\n        /* \"#utility.yul\":6397:6420   */\n      sub\n        /* \"#utility.yul\":6393:6425   */\n      slt\n        /* \"#utility.yul\":6390:6509   */\n      iszero\n      tag_638\n      jumpi\n        /* \"#utility.yul\":6428:6507   */\n      tag_639\n      tag_500\n      jump\t// in\n    tag_639:\n        /* \"#utility.yul\":6390:6509   */\n    tag_638:\n        /* \"#utility.yul\":6548:6549   */\n      0x00\n        /* \"#utility.yul\":6573:6626   */\n      tag_640\n        /* \"#utility.yul\":6618:6625   */\n      dup7\n        /* \"#utility.yul\":6609:6615   */\n      dup3\n        /* \"#utility.yul\":6598:6607   */\n      dup8\n        /* \"#utility.yul\":6594:6616   */\n      add\n        /* \"#utility.yul\":6573:6626   */\n      tag_507\n      jump\t// in\n    tag_640:\n        /* \"#utility.yul\":6563:6626   */\n      swap4\n      pop\n        /* \"#utility.yul\":6519:6636   */\n      pop\n        /* \"#utility.yul\":6703:6705   */\n      0x20\n        /* \"#utility.yul\":6692:6701   */\n      dup5\n        /* \"#utility.yul\":6688:6706   */\n      add\n        /* \"#utility.yul\":6675:6707   */\n      calldataload\n        /* \"#utility.yul\":6734:6752   */\n      0xffffffffffffffff\n        /* \"#utility.yul\":6726:6732   */\n      dup2\n        /* \"#utility.yul\":6723:6753   */\n      gt\n        /* \"#utility.yul\":6720:6837   */\n      iszero\n      tag_641\n      jumpi\n        /* \"#utility.yul\":6756:6835   */\n      tag_642\n      tag_501\n      jump\t// in\n    tag_642:\n        /* \"#utility.yul\":6720:6837   */\n    tag_641:\n        /* \"#utility.yul\":6869:6933   */\n      tag_643\n        /* \"#utility.yul\":6925:6932   */\n      dup7\n        /* \"#utility.yul\":6916:6922   */\n      dup3\n        /* \"#utility.yul\":6905:6914   */\n      dup8\n        /* \"#utility.yul\":6901:6923   */\n      add\n        /* \"#utility.yul\":6869:6933   */\n      tag_514\n      jump\t// in\n    tag_643:\n        /* \"#utility.yul\":6851:6933   */\n      swap3\n      pop\n      swap3\n      pop\n        /* \"#utility.yul\":6646:6943   */\n      pop\n        /* \"#utility.yul\":6278:6950   */\n      swap3\n      pop\n      swap3\n      pop\n      swap3\n      jump\t// out\n        /* \"#utility.yul\":6956:7033   */\n    tag_515:\n        /* \"#utility.yul\":6993:7000   */\n      0x00\n        /* \"#utility.yul\":7022:7027   */\n      dup2\n        /* \"#utility.yul\":7011:7027   */\n      swap1\n      pop\n        /* \"#utility.yul\":6956:7033   */\n      swap2\n      swap1\n      pop\n      jump\t// out\n        /* \"#utility.yul\":7039:7157   */\n    tag_516:\n        /* \"#utility.yul\":7126:7150   */\n      tag_646\n        /* \"#utility.yul\":7144:7149   */\n      dup2\n        /* \"#utility.yul\":7126:7150   */\n      tag_515\n      jump\t// in\n    tag_646:\n        /* \"#utility.yul\":7121:7124   */\n      dup3\n        /* \"#utility.yul\":7114:7151   */\n      mstore\n        /* \"#utility.yul\":7039:7157   */\n      pop\n      pop\n      jump\t// out\n        /* \"#utility.yul\":7163:7385   */\n    tag_103:\n        /* \"#utility.yul\":7256:7260   */\n      0x00\n        /* \"#utility.yul\":7294:7296   */\n      0x20\n        /* \"#utility.yul\":7283:7292   */\n      dup3\n        /* \"#utility.yul\":7279:7297   */\n      add\n        /* \"#utility.yul\":7271:7297   */\n      swap1\n      pop\n        /* \"#utility.yul\":7307:7378   */\n      tag_648\n        /* \"#utility.yul\":7375:7376   */\n      0x00\n        /* \"#utility.yul\":7364:7373   */\n      dup4\n        /* \"#utility.yul\":7360:7377   */\n      add\n        /* \"#utility.yul\":7351:7357   */\n      dup5\n        /* \"#utility.yul\":7307:7378   */\n      tag_516\n      jump\t// in\n    tag_648:\n        /* \"#utility.yul\":7163:7385   */\n      swap3\n      swap2\n      pop\n      pop\n      jump\t// out\n        /* \"#utility.yul\":7391:7865   */\n    tag_115:\n        /* \"#utility.yul\":7459:7465   */\n      0x00\n        /* \"#utility.yul\":7467:7473   */\n      0x00\n        /* \"#utility.yul\":7516:7518   */\n      0x40\n        /* \"#utility.yul\":7504:7513   */\n      dup4\n        /* \"#utility.yul\":7495:7502   */\n      dup6\n        /* \"#utility.yul\":7491:7514   */\n      sub\n        /* \"#utility.yul\":7487:7519   */\n      slt\n        /* \"#utility.yul\":7484:7603   */\n      iszero\n      tag_650\n      jumpi\n        /* \"#utility.yul\":7522:7601   */\n      tag_651\n      tag_500\n      jump\t// in\n    tag_651:\n        /* \"#utility.yul\":7484:7603   */\n    tag_650:\n        /* \"#utility.yul\":7642:7643   */\n      0x00\n        /* \"#utility.yul\":7667:7720   */\n      tag_652\n        /* \"#utility.yul\":7712:7719   */\n      dup6\n        /* \"#utility.yul\":7703:7709   */\n      dup3\n        /* \"#utility.yul\":7692:7701   */\n      dup7\n        /* \"#utility.yul\":7688:7710   */\n      add\n        /* \"#utility.yul\":7667:7720   */\n      tag_503\n      jump\t// in\n    tag_652:\n        /* \"#utility.yul\":7657:7720   */\n      swap3\n      pop\n        /* \"#utility.yul\":7613:7730   */\n      pop\n        /* \"#utility.yul\":7769:7771   */\n      0x20\n        /* \"#utility.yul\":7795:7848   */\n      tag_653\n        /* \"#utility.yul\":7840:7847   */\n      dup6\n        /* \"#utility.yul\":7831:7837   */\n      dup3\n        /* \"#utility.yul\":7820:7829   */\n      dup7\n        /* \"#utility.yul\":7816:7838   */\n      add\n        /* \"#utility.yul\":7795:7848   */\n      tag_507\n      jump\t// in\n    tag_653:\n        /* \"#utility.yul\":7785:7848   */\n      swap2\n      pop\n        /* \"#utility.yul\":7740:7858   */\n      pop\n        /* \"#utility.yul\":7391:7865   */\n      swap3\n      pop\n      swap3\n      swap1\n      pop\n      jump\t// out\n        /* \"#utility.yul\":7871:8490   */\n    tag_162:\n        /* \"#utility.yul\":7948:7954   */\n      0x00\n        /* \"#utility.yul\":7956:7962   */\n      0x00\n        /* \"#utility.yul\":7964:7970   */\n      0x00\n        /* \"#utility.yul\":8013:8015   */\n      0x60\n        /* \"#utility.yul\":8001:8010   */\n      dup5\n        /* \"#utility.yul\":7992:7999   */\n      dup7\n        /* \"#utility.yul\":7988:8011   */\n      sub\n        /* \"#utility.yul\":7984:8016   */\n      slt\n        /* \"#utility.yul\":7981:8100   */\n      iszero\n      tag_655\n      jumpi\n        /* \"#utility.yul\":8019:8098   */\n      tag_656\n      tag_500\n      jump\t// in\n    tag_656:\n        /* \"#utility.yul\":7981:8100   */\n    tag_655:\n        /* \"#utility.yul\":8139:8140   */\n      0x00\n        /* \"#utility.yul\":8164:8217   */\n      tag_657\n        /* \"#utility.yul\":8209:8216   */\n      dup7\n        /* \"#utility.yul\":8200:8206   */\n      dup3\n        /* \"#utility.yul\":8189:8198   */\n      dup8\n        /* \"#utility.yul\":8185:8207   */\n      add\n        /* \"#utility.yul\":8164:8217   */\n      tag_503\n      jump\t// in\n    tag_657:\n        /* \"#utility.yul\":8154:8217   */\n      swap4\n      pop\n        /* \"#utility.yul\":8110:8227   */\n      pop\n        /* \"#utility.yul\":8266:8268   */\n      0x20\n        /* \"#utility.yul\":8292:8345   */\n      tag_658\n        /* \"#utility.yul\":8337:8344   */\n      dup7\n        /* \"#utility.yul\":8328:8334   */\n      dup3\n        /* \"#utility.yul\":8317:8326   */\n      dup8\n        /* \"#utility.yul\":8313:8335   */\n      add\n        /* \"#utility.yul\":8292:8345   */\n      tag_507\n      jump\t// in\n    tag_658:\n        /* \"#utility.yul\":8282:8345   */\n      swap3\n      pop\n        /* \"#utility.yul\":8237:8355   */\n      pop\n        /* \"#utility.yul\":8394:8396   */\n      0x40\n        /* \"#utility.yul\":8420:8473   */\n      tag_659\n        /* \"#utility.yul\":8465:8472   */\n      dup7\n        /* \"#utility.yul\":8456:8462   */\n      dup3\n        /* \"#utility.yul\":8445:8454   */\n      dup8\n        /* \"#utility.yul\":8441:8463   */\n      add\n        /* \"#utility.yul\":8420:8473   */\n      tag_507\n      jump\t// in\n    tag_659:\n        /* \"#utility.yul\":8410:8473   */\n      swap2\n      pop\n        /* \"#utility.yul\":8365:8483   */\n      pop\n        /* \"#utility.yul\":7871:8490   */\n      swap3\n      pop\n      swap3\n      pop\n      swap3\n      jump\t// out\n        /* \"#utility.yul\":8496:8970   */\n    tag_182:\n        /* \"#utility.yul\":8564:8570   */\n      0x00\n        /* \"#utility.yul\":8572:8578   */\n      0x00\n        /* \"#utility.yul\":8621:8623   */\n      0x40\n        /* \"#utility.yul\":8609:8618   */\n      dup4\n        /* \"#utility.yul\":8600:8607   */\n      dup6\n        /* \"#utility.yul\":8596:8619   */\n      sub\n        /* \"#utility.yul\":8592:8624   */\n      slt\n        /* \"#utility.yul\":8589:8708   */\n      iszero\n      tag_661\n      jumpi\n        /* \"#utility.yul\":8627:8706   */\n      tag_662\n      tag_500\n      jump\t// in\n    tag_662:\n        /* \"#utility.yul\":8589:8708   */\n    tag_661:\n        /* \"#utility.yul\":8747:8748   */\n      0x00\n        /* \"#utility.yul\":8772:8825   */\n      tag_663\n        /* \"#utility.yul\":8817:8824   */\n      dup6\n        /* \"#utility.yul\":8808:8814   */\n      dup3\n        /* \"#utility.yul\":8797:8806   */\n      dup7\n        /* \"#utility.yul\":8793:8815   */\n      add\n        /* \"#utility.yul\":8772:8825   */\n      tag_507\n      jump\t// in\n    tag_663:\n        /* \"#utility.yul\":8762:8825   */\n      swap3\n      pop\n        /* \"#utility.yul\":8718:8835   */\n      pop\n        /* \"#utility.yul\":8874:8876   */\n      0x20\n        /* \"#utility.yul\":8900:8953   */\n      tag_664\n        /* \"#utility.yul\":8945:8952   */\n      dup6\n        /* \"#utility.yul\":8936:8942   */\n      dup3\n        /* \"#utility.yul\":8925:8934   */\n      dup7\n        /* \"#utility.yul\":8921:8943   */\n      add\n        /* \"#utility.yul\":8900:8953   */\n      tag_507\n      jump\t// in\n    tag_664:\n        /* \"#utility.yul\":8890:8953   */\n      swap2\n      pop\n        /* \"#utility.yul\":8845:8963   */\n      pop\n        /* \"#utility.yul\":8496:8970   */\n      swap3\n      pop\n      swap3\n      swap1\n      pop\n      jump\t// out\n        /* \"#utility.yul\":8990:9543   */\n    tag_517:\n        /* \"#utility.yul\":9048:9056   */\n      0x00\n        /* \"#utility.yul\":9058:9064   */\n      0x00\n        /* \"#utility.yul\":9108:9111   */\n      dup4\n        /* \"#utility.yul\":9101:9105   */\n      0x1f\n        /* \"#utility.yul\":9093:9099   */\n      dup5\n        /* \"#utility.yul\":9089:9106   */\n      add\n        /* \"#utility.yul\":9085:9112   */\n      slt\n        /* \"#utility.yul\":9075:9197   */\n      tag_666\n      jumpi\n        /* \"#utility.yul\":9116:9195   */\n      tag_667\n      tag_511\n      jump\t// in\n    tag_667:\n        /* \"#utility.yul\":9075:9197   */\n    tag_666:\n        /* \"#utility.yul\":9229:9235   */\n      dup3\n        /* \"#utility.yul\":9216:9236   */\n      calldataload\n        /* \"#utility.yul\":9206:9236   */\n      swap1\n      pop\n        /* \"#utility.yul\":9259:9277   */\n      0xffffffffffffffff\n        /* \"#utility.yul\":9251:9257   */\n      dup2\n        /* \"#utility.yul\":9248:9278   */\n      gt\n        /* \"#utility.yul\":9245:9362   */\n      iszero\n      tag_668\n      jumpi\n        /* \"#utility.yul\":9281:9360   */\n      tag_669\n      tag_512\n      jump\t// in\n    tag_669:\n        /* \"#utility.yul\":9245:9362   */\n    tag_668:\n        /* \"#utility.yul\":9395:9399   */\n      0x20\n        /* \"#utility.yul\":9387:9393   */\n      dup4\n        /* \"#utility.yul\":9383:9400   */\n      add\n        /* \"#utility.yul\":9371:9400   */\n      swap2\n      pop\n        /* \"#utility.yul\":9449:9452   */\n      dup4\n        /* \"#utility.yul\":9441:9445   */\n      0x01\n        /* \"#utility.yul\":9433:9439   */\n      dup3\n        /* \"#utility.yul\":9429:9446   */\n      mul\n        /* \"#utility.yul\":9419:9427   */\n      dup4\n        /* \"#utility.yul\":9415:9447   */\n      add\n        /* \"#utility.yul\":9412:9453   */\n      gt\n        /* \"#utility.yul\":9409:9537   */\n      iszero\n      tag_670\n      jumpi\n        /* \"#utility.yul\":9456:9535   */\n      tag_671\n      tag_513\n      jump\t// in\n    tag_671:\n        /* \"#utility.yul\":9409:9537   */\n    tag_670:\n        /* \"#utility.yul\":8990:9543   */\n      swap3\n      pop\n      swap3\n      swap1\n      pop\n      jump\t// out\n        /* \"#utility.yul\":9549:11206   */\n    tag_188:\n        /* \"#utility.yul\":9689:9695   */\n      0x00\n        /* \"#utility.yul\":9697:9703   */\n      0x00\n        /* \"#utility.yul\":9705:9711   */\n      0x00\n        /* \"#utility.yul\":9713:9719   */\n      0x00\n        /* \"#utility.yul\":9721:9727   */\n      0x00\n        /* \"#utility.yul\":9729:9735   */\n      0x00\n        /* \"#utility.yul\":9737:9743   */\n      0x00\n        /* \"#utility.yul\":9745:9751   */\n      0x00\n        /* \"#utility.yul\":9753:9759   */\n      0x00\n        /* \"#utility.yul\":9802:9805   */\n      0xc0\n        /* \"#utility.yul\":9790:9799   */\n      dup11\n        /* \"#utility.yul\":9781:9788   */\n      dup13\n        /* \"#utility.yul\":9777:9800   */\n      sub\n        /* \"#utility.yul\":9773:9806   */\n      slt\n        /* \"#utility.yul\":9770:9890   */\n      iszero\n      tag_673\n      jumpi\n        /* \"#utility.yul\":9809:9888   */\n      tag_674\n      tag_500\n      jump\t// in\n    tag_674:\n        /* \"#utility.yul\":9770:9890   */\n    tag_673:\n        /* \"#utility.yul\":9929:9930   */\n      0x00\n        /* \"#utility.yul\":9954:10007   */\n      tag_675\n        /* \"#utility.yul\":9999:10006   */\n      dup13\n        /* \"#utility.yul\":9990:9996   */\n      dup3\n        /* \"#utility.yul\":9979:9988   */\n      dup14\n        /* \"#utility.yul\":9975:9997   */\n      add\n        /* \"#utility.yul\":9954:10007   */\n      tag_507\n      jump\t// in\n    tag_675:\n        /* \"#utility.yul\":9944:10007   */\n      swap10\n      pop\n        /* \"#utility.yul\":9900:10017   */\n      pop\n        /* \"#utility.yul\":10056:10058   */\n      0x20\n        /* \"#utility.yul\":10082:10135   */\n      tag_676\n        /* \"#utility.yul\":10127:10134   */\n      dup13\n        /* \"#utility.yul\":10118:10124   */\n      dup3\n        /* \"#utility.yul\":10107:10116   */\n      dup14\n        /* \"#utility.yul\":10103:10125   */\n      add\n        /* \"#utility.yul\":10082:10135   */\n      tag_507\n      jump\t// in\n    tag_676:\n        /* \"#utility.yul\":10072:10135   */\n      swap9\n      pop\n        /* \"#utility.yul\":10027:10145   */\n      pop\n        /* \"#utility.yul\":10212:10214   */\n      0x40\n        /* \"#utility.yul\":10201:10210   */\n      dup11\n        /* \"#utility.yul\":10197:10215   */\n      add\n        /* \"#utility.yul\":10184:10216   */\n      calldataload\n        /* \"#utility.yul\":10243:10261   */\n      0xffffffffffffffff\n        /* \"#utility.yul\":10235:10241   */\n      dup2\n        /* \"#utility.yul\":10232:10262   */\n      gt\n        /* \"#utility.yul\":10229:10346   */\n      iszero\n      tag_677\n      jumpi\n        /* \"#utility.yul\":10265:10344   */\n      tag_678\n      tag_501\n      jump\t// in\n    tag_678:\n        /* \"#utility.yul\":10229:10346   */\n    tag_677:\n        /* \"#utility.yul\":10378:10443   */\n      tag_679\n        /* \"#utility.yul\":10435:10442   */\n      dup13\n        /* \"#utility.yul\":10426:10432   */\n      dup3\n        /* \"#utility.yul\":10415:10424   */\n      dup14\n        /* \"#utility.yul\":10411:10433   */\n      add\n        /* \"#utility.yul\":10378:10443   */\n      tag_517\n      jump\t// in\n    tag_679:\n        /* \"#utility.yul\":10360:10443   */\n      swap8\n      pop\n      swap8\n      pop\n        /* \"#utility.yul\":10155:10453   */\n      pop\n        /* \"#utility.yul\":10520:10522   */\n      0x60\n        /* \"#utility.yul\":10509:10518   */\n      dup11\n        /* \"#utility.yul\":10505:10523   */\n      add\n        /* \"#utility.yul\":10492:10524   */\n      calldataload\n        /* \"#utility.yul\":10551:10569   */\n      0xffffffffffffffff\n        /* \"#utility.yul\":10543:10549   */\n      dup2\n        /* \"#utility.yul\":10540:10570   */\n      gt\n        /* \"#utility.yul\":10537:10654   */\n      iszero\n      tag_680\n      jumpi\n        /* \"#utility.yul\":10573:10652   */\n      tag_681\n      tag_501\n      jump\t// in\n    tag_681:\n        /* \"#utility.yul\":10537:10654   */\n    tag_680:\n        /* \"#utility.yul\":10686:10751   */\n      tag_682\n        /* \"#utility.yul\":10743:10750   */\n      dup13\n        /* \"#utility.yul\":10734:10740   */\n      dup3\n        /* \"#utility.yul\":10723:10732   */\n      dup14\n        /* \"#utility.yul\":10719:10741   */\n      add\n        /* \"#utility.yul\":10686:10751   */\n      tag_517\n      jump\t// in\n    tag_682:\n        /* \"#utility.yul\":10668:10751   */\n      swap6\n      pop\n      swap6\n      pop\n        /* \"#utility.yul\":10463:10761   */\n      pop\n        /* \"#utility.yul\":10828:10831   */\n      0x80\n        /* \"#utility.yul\":10817:10826   */\n      dup11\n        /* \"#utility.yul\":10813:10832   */\n      add\n        /* \"#utility.yul\":10800:10833   */\n      calldataload\n        /* \"#utility.yul\":10860:10878   */\n      0xffffffffffffffff\n        /* \"#utility.yul\":10852:10858   */\n      dup2\n        /* \"#utility.yul\":10849:10879   */\n      gt\n        /* \"#utility.yul\":10846:10963   */\n      iszero\n      tag_683\n      jumpi\n        /* \"#utility.yul\":10882:10961   */\n      tag_684\n      tag_501\n      jump\t// in\n    tag_684:\n        /* \"#utility.yul\":10846:10963   */\n    tag_683:\n        /* \"#utility.yul\":10995:11060   */\n      tag_685\n        /* \"#utility.yul\":11052:11059   */\n      dup13\n        /* \"#utility.yul\":11043:11049   */\n      dup3\n        /* \"#utility.yul\":11032:11041   */\n      dup14\n        /* \"#utility.yul\":11028:11050   */\n      add\n        /* \"#utility.yul\":10995:11060   */\n      tag_517\n      jump\t// in\n    tag_685:\n        /* \"#utility.yul\":10977:11060   */\n      swap4\n      pop\n      swap4\n      pop\n        /* \"#utility.yul\":10771:11070   */\n      pop\n        /* \"#utility.yul\":11109:11112   */\n      0xa0\n        /* \"#utility.yul\":11136:11189   */\n      tag_686\n        /* \"#utility.yul\":11181:11188   */\n      dup13\n        /* \"#utility.yul\":11172:11178   */\n      dup3\n        /* \"#utility.yul\":11161:11170   */\n      dup14\n        /* \"#utility.yul\":11157:11179   */\n      add\n        /* \"#utility.yul\":11136:11189   */\n      tag_503\n      jump\t// in\n    tag_686:\n        /* \"#utility.yul\":11126:11189   */\n      swap2\n      pop\n        /* \"#utility.yul\":11080:11199   */\n      pop\n        /* \"#utility.yul\":9549:11206   */\n      swap3\n      swap6\n      swap9\n      pop\n      swap3\n      swap6\n      swap9\n      pop\n      swap3\n      swap6\n      swap9\n      jump\t// out\n        /* \"#utility.yul\":11212:11355   */\n    tag_518:\n        /* \"#utility.yul\":11269:11274   */\n      0x00\n        /* \"#utility.yul\":11300:11306   */\n      dup2\n        /* \"#utility.yul\":11294:11307   */\n      mload\n        /* \"#utility.yul\":11285:11307   */\n      swap1\n      pop\n        /* \"#utility.yul\":11316:11349   */\n      tag_688\n        /* \"#utility.yul\":11343:11348   */\n      dup2\n        /* \"#utility.yul\":11316:11349   */\n      tag_502\n      jump\t// in\n    tag_688:\n        /* \"#utility.yul\":11212:11355   */\n      swap3\n      swap2\n      pop\n      pop\n      jump\t// out\n        /* \"#utility.yul\":11361:11712   */\n    tag_196:\n        /* \"#utility.yul\":11431:11437   */\n      0x00\n        /* \"#utility.yul\":11480:11482   */\n      0x20\n        /* \"#utility.yul\":11468:11477   */\n      dup3\n        /* \"#utility.yul\":11459:11466   */\n      dup5\n        /* \"#utility.yul\":11455:11478   */\n      sub\n        /* \"#utility.yul\":11451:11483   */\n      slt\n        /* \"#utility.yul\":11448:11567   */\n      iszero\n      tag_690\n      jumpi\n        /* \"#utility.yul\":11486:11565   */\n      tag_691\n      tag_500\n      jump\t// in\n    tag_691:\n        /* \"#utility.yul\":11448:11567   */\n    tag_690:\n        /* \"#utility.yul\":11606:11607   */\n      0x00\n        /* \"#utility.yul\":11631:11695   */\n      tag_692\n        /* \"#utility.yul\":11687:11694   */\n      dup5\n        /* \"#utility.yul\":11678:11684   */\n      dup3\n        /* \"#utility.yul\":11667:11676   */\n      dup6\n        /* \"#utility.yul\":11663:11685   */\n      add\n        /* \"#utility.yul\":11631:11695   */\n      tag_518\n      jump\t// in\n    tag_692:\n        /* \"#utility.yul\":11621:11695   */\n      swap2\n      pop\n        /* \"#utility.yul\":11577:11705   */\n      pop\n        /* \"#utility.yul\":11361:11712   */\n      swap3\n      swap2\n      pop\n      pop\n      jump\t// out\n        /* \"#utility.yul\":11718:11898   */\n    tag_202:\n        /* \"#utility.yul\":11766:11843   */\n      0x4e487b7100000000000000000000000000000000000000000000000000000000\n        /* \"#utility.yul\":11763:11764   */\n      0x00\n        /* \"#utility.yul\":11756:11844   */\n      mstore\n        /* \"#utility.yul\":11863:11867   */\n      0x32\n        /* \"#utility.yul\":11860:11861   */\n      0x04\n        /* \"#utility.yul\":11853:11868   */\n      mstore\n        /* \"#utility.yul\":11887:11891   */\n      0x24\n        /* \"#utility.yul\":11884:11885   */\n      0x00\n        /* \"#utility.yul\":11877:11892   */\n      revert\n        /* \"#utility.yul\":11904:12084   */\n    tag_519:\n        /* \"#utility.yul\":11952:12029   */\n      0x4e487b7100000000000000000000000000000000000000000000000000000000\n        /* \"#utility.yul\":11949:11950   */\n      0x00\n        /* \"#utility.yul\":11942:12030   */\n      mstore\n        /* \"#utility.yul\":12049:12053   */\n      0x11\n        /* \"#utility.yul\":12046:12047   */\n      0x04\n        /* \"#utility.yul\":12039:12054   */\n      mstore\n        /* \"#utility.yul\":12073:12077   */\n      0x24\n        /* \"#utility.yul\":12070:12071   */\n      0x00\n        /* \"#utility.yul\":12063:12078   */\n      revert\n        /* \"#utility.yul\":12090:12281   */\n    tag_212:\n        /* \"#utility.yul\":12130:12133   */\n      0x00\n        /* \"#utility.yul\":12149:12169   */\n      tag_696\n        /* \"#utility.yul\":12167:12168   */\n      dup3\n        /* \"#utility.yul\":12149:12169   */\n      tag_492\n      jump\t// in\n    tag_696:\n        /* \"#utility.yul\":12144:12169   */\n      swap2\n      pop\n        /* \"#utility.yul\":12183:12203   */\n      tag_697\n        /* \"#utility.yul\":12201:12202   */\n      dup4\n        /* \"#utility.yul\":12183:12203   */\n      tag_492\n      jump\t// in\n    tag_697:\n        /* \"#utility.yul\":12178:12203   */\n      swap3\n      pop\n        /* \"#utility.yul\":12226:12227   */\n      dup3\n        /* \"#utility.yul\":12223:12224   */\n      dup3\n        /* \"#utility.yul\":12219:12228   */\n      add\n        /* \"#utility.yul\":12212:12228   */\n      swap1\n      pop\n        /* \"#utility.yul\":12247:12250   */\n      dup1\n        /* \"#utility.yul\":12244:12245   */\n      dup3\n        /* \"#utility.yul\":12241:12251   */\n      gt\n        /* \"#utility.yul\":12238:12274   */\n      iszero\n      tag_698\n      jumpi\n        /* \"#utility.yul\":12254:12272   */\n      tag_699\n      tag_519\n      jump\t// in\n    tag_699:\n        /* \"#utility.yul\":12238:12274   */\n    tag_698:\n        /* \"#utility.yul\":12090:12281   */\n      swap3\n      swap2\n      pop\n      pop\n      jump\t// out\n        /* \"#utility.yul\":12287:12467   */\n    tag_520:\n        /* \"#utility.yul\":12335:12412   */\n      0x4e487b7100000000000000000000000000000000000000000000000000000000\n        /* \"#utility.yul\":12332:12333   */\n      0x00\n        /* \"#utility.yul\":12325:12413   */\n      mstore\n        /* \"#utility.yul\":12432:12436   */\n      0x22\n        /* \"#utility.yul\":12429:12430   */\n      0x04\n        /* \"#utility.yul\":12422:12437   */\n      mstore\n        /* \"#utility.yul\":12456:12460   */\n      0x24\n        /* \"#utility.yul\":12453:12454   */\n      0x00\n        /* \"#utility.yul\":12446:12461   */\n      revert\n        /* \"#utility.yul\":12473:12793   */\n    tag_215:\n        /* \"#utility.yul\":12517:12523   */\n      0x00\n        /* \"#utility.yul\":12554:12555   */\n      0x02\n        /* \"#utility.yul\":12548:12552   */\n      dup3\n        /* \"#utility.yul\":12544:12556   */\n      div\n        /* \"#utility.yul\":12534:12556   */\n      swap1\n      pop\n        /* \"#utility.yul\":12601:12602   */\n      0x01\n        /* \"#utility.yul\":12595:12599   */\n      dup3\n        /* \"#utility.yul\":12591:12603   */\n      and\n        /* \"#utility.yul\":12622:12640   */\n      dup1\n        /* \"#utility.yul\":12612:12693   */\n      tag_702\n      jumpi\n        /* \"#utility.yul\":12678:12682   */\n      0x7f\n        /* \"#utility.yul\":12670:12676   */\n      dup3\n        /* \"#utility.yul\":12666:12683   */\n      and\n        /* \"#utility.yul\":12656:12683   */\n      swap2\n      pop\n        /* \"#utility.yul\":12612:12693   */\n    tag_702:\n        /* \"#utility.yul\":12740:12742   */\n      0x20\n        /* \"#utility.yul\":12732:12738   */\n      dup3\n        /* \"#utility.yul\":12729:12743   */\n      lt\n        /* \"#utility.yul\":12709:12727   */\n      dup2\n        /* \"#utility.yul\":12706:12744   */\n      sub\n        /* \"#utility.yul\":12703:12787   */\n      tag_703\n      jumpi\n        /* \"#utility.yul\":12759:12777   */\n      tag_704\n      tag_520\n      jump\t// in\n    tag_704:\n        /* \"#utility.yul\":12703:12787   */\n    tag_703:\n        /* \"#utility.yul\":12524:12793   */\n      pop\n        /* \"#utility.yul\":12473:12793   */\n      swap2\n      swap1\n      pop\n      jump\t// out\n        /* \"#utility.yul\":12799:13209   */\n    tag_228:\n        /* \"#utility.yul\":12839:12846   */\n      0x00\n        /* \"#utility.yul\":12862:12882   */\n      tag_706\n        /* \"#utility.yul\":12880:12881   */\n      dup3\n        /* \"#utility.yul\":12862:12882   */\n      tag_492\n      jump\t// in\n    tag_706:\n        /* \"#utility.yul\":12857:12882   */\n      swap2\n      pop\n        /* \"#utility.yul\":12896:12916   */\n      tag_707\n        /* \"#utility.yul\":12914:12915   */\n      dup4\n        /* \"#utility.yul\":12896:12916   */\n      tag_492\n      jump\t// in\n    tag_707:\n        /* \"#utility.yul\":12891:12916   */\n      swap3\n      pop\n        /* \"#utility.yul\":12951:12952   */\n      dup3\n        /* \"#utility.yul\":12948:12949   */\n      dup3\n        /* \"#utility.yul\":12944:12953   */\n      mul\n        /* \"#utility.yul\":12973:13003   */\n      tag_708\n        /* \"#utility.yul\":12991:13002   */\n      dup2\n        /* \"#utility.yul\":12973:13003   */\n      tag_492\n      jump\t// in\n    tag_708:\n        /* \"#utility.yul\":12962:13003   */\n      swap2\n      pop\n        /* \"#utility.yul\":13152:13153   */\n      dup3\n        /* \"#utility.yul\":13143:13150   */\n      dup3\n        /* \"#utility.yul\":13139:13154   */\n      div\n        /* \"#utility.yul\":13136:13137   */\n      dup5\n        /* \"#utility.yul\":13133:13155   */\n      eq\n        /* \"#utility.yul\":13113:13114   */\n      dup4\n        /* \"#utility.yul\":13106:13115   */\n      iszero\n        /* \"#utility.yul\":13086:13169   */\n      or\n        /* \"#utility.yul\":13063:13202   */\n      tag_709\n      jumpi\n        /* \"#utility.yul\":13182:13200   */\n      tag_710\n      tag_519\n      jump\t// in\n    tag_710:\n        /* \"#utility.yul\":13063:13202   */\n    tag_709:\n        /* \"#utility.yul\":12847:13209   */\n      pop\n        /* \"#utility.yul\":12799:13209   */\n      swap3\n      swap2\n      pop\n      pop\n      jump\t// out\n        /* \"#utility.yul\":13215:13395   */\n    tag_521:\n        /* \"#utility.yul\":13263:13340   */\n      0x4e487b7100000000000000000000000000000000000000000000000000000000\n        /* \"#utility.yul\":13260:13261   */\n      0x00\n        /* \"#utility.yul\":13253:13341   */\n      mstore\n        /* \"#utility.yul\":13360:13364   */\n      0x12\n        /* \"#utility.yul\":13357:13358   */\n      0x04\n        /* \"#utility.yul\":13350:13365   */\n      mstore\n        /* \"#utility.yul\":13384:13388   */\n      0x24\n        /* \"#utility.yul\":13381:13382   */\n      0x00\n        /* \"#utility.yul\":13374:13389   */\n      revert\n        /* \"#utility.yul\":13401:13586   */\n    tag_230:\n        /* \"#utility.yul\":13441:13442   */\n      0x00\n        /* \"#utility.yul\":13458:13478   */\n      tag_713\n        /* \"#utility.yul\":13476:13477   */\n      dup3\n        /* \"#utility.yul\":13458:13478   */\n      tag_492\n      jump\t// in\n    tag_713:\n        /* \"#utility.yul\":13453:13478   */\n      swap2\n      pop\n        /* \"#utility.yul\":13492:13512   */\n      tag_714\n        /* \"#utility.yul\":13510:13511   */\n      dup4\n        /* \"#utility.yul\":13492:13512   */\n      tag_492\n      jump\t// in\n    tag_714:\n        /* \"#utility.yul\":13487:13512   */\n      swap3\n      pop\n        /* \"#utility.yul\":13531:13532   */\n      dup3\n        /* \"#utility.yul\":13521:13556   */\n      tag_715\n      jumpi\n        /* \"#utility.yul\":13536:13554   */\n      tag_716\n      tag_521\n      jump\t// in\n    tag_716:\n        /* \"#utility.yul\":13521:13556   */\n    tag_715:\n        /* \"#utility.yul\":13578:13579   */\n      dup3\n        /* \"#utility.yul\":13575:13576   */\n      dup3\n        /* \"#utility.yul\":13571:13580   */\n      div\n        /* \"#utility.yul\":13566:13580   */\n      swap1\n      pop\n        /* \"#utility.yul\":13401:13586   */\n      swap3\n      swap2\n      pop\n      pop\n      jump\t// out\n        /* \"#utility.yul\":13592:13764   */\n    tag_522:\n        /* \"#utility.yul\":13732:13756   */\n      0x494e53554646494349454e545f414c4c4f57414e434500000000000000000000\n        /* \"#utility.yul\":13728:13729   */\n      0x00\n        /* \"#utility.yul\":13720:13726   */\n      dup3\n        /* \"#utility.yul\":13716:13730   */\n      add\n        /* \"#utility.yul\":13709:13757   */\n      mstore\n        /* \"#utility.yul\":13592:13764   */\n      pop\n      jump\t// out\n        /* \"#utility.yul\":13770:14136   */\n    tag_523:\n        /* \"#utility.yul\":13912:13915   */\n      0x00\n        /* \"#utility.yul\":13933:14000   */\n      tag_719\n        /* \"#utility.yul\":13997:13999   */\n      0x16\n        /* \"#utility.yul\":13992:13995   */\n      dup4\n        /* \"#utility.yul\":13933:14000   */\n      tag_495\n      jump\t// in\n    tag_719:\n        /* \"#utility.yul\":13926:14000   */\n      swap2\n      pop\n        /* \"#utility.yul\":14009:14102   */\n      tag_720\n        /* \"#utility.yul\":14098:14101   */\n      dup3\n        /* \"#utility.yul\":14009:14102   */\n      tag_522\n      jump\t// in\n    tag_720:\n        /* \"#utility.yul\":14127:14129   */\n      0x20\n        /* \"#utility.yul\":14122:14125   */\n      dup3\n        /* \"#utility.yul\":14118:14130   */\n      add\n        /* \"#utility.yul\":14111:14130   */\n      swap1\n      pop\n        /* \"#utility.yul\":13770:14136   */\n      swap2\n      swap1\n      pop\n      jump\t// out\n        /* \"#utility.yul\":14142:14561   */\n    tag_239:\n        /* \"#utility.yul\":14308:14312   */\n      0x00\n        /* \"#utility.yul\":14346:14348   */\n      0x20\n        /* \"#utility.yul\":14335:14344   */\n      dup3\n        /* \"#utility.yul\":14331:14349   */\n      add\n        /* \"#utility.yul\":14323:14349   */\n      swap1\n      pop\n        /* \"#utility.yul\":14395:14404   */\n      dup2\n        /* \"#utility.yul\":14389:14393   */\n      dup2\n        /* \"#utility.yul\":14385:14405   */\n      sub\n        /* \"#utility.yul\":14381:14382   */\n      0x00\n        /* \"#utility.yul\":14370:14379   */\n      dup4\n        /* \"#utility.yul\":14366:14383   */\n      add\n        /* \"#utility.yul\":14359:14406   */\n      mstore\n        /* \"#utility.yul\":14423:14554   */\n      tag_722\n        /* \"#utility.yul\":14549:14553   */\n      dup2\n        /* \"#utility.yul\":14423:14554   */\n      tag_523\n      jump\t// in\n    tag_722:\n        /* \"#utility.yul\":14415:14554   */\n      swap1\n      pop\n        /* \"#utility.yul\":14142:14561   */\n      swap2\n      swap1\n      pop\n      jump\t// out\n        /* \"#utility.yul\":14567:14761   */\n    tag_242:\n        /* \"#utility.yul\":14607:14611   */\n      0x00\n        /* \"#utility.yul\":14627:14647   */\n      tag_724\n        /* \"#utility.yul\":14645:14646   */\n      dup3\n        /* \"#utility.yul\":14627:14647   */\n      tag_492\n      jump\t// in\n    tag_724:\n        /* \"#utility.yul\":14622:14647   */\n      swap2\n      pop\n        /* \"#utility.yul\":14661:14681   */\n      tag_725\n        /* \"#utility.yul\":14679:14680   */\n      dup4\n        /* \"#utility.yul\":14661:14681   */\n      tag_492\n      jump\t// in\n    tag_725:\n        /* \"#utility.yul\":14656:14681   */\n      swap3\n      pop\n        /* \"#utility.yul\":14705:14706   */\n      dup3\n        /* \"#utility.yul\":14702:14703   */\n      dup3\n        /* \"#utility.yul\":14698:14707   */\n      sub\n        /* \"#utility.yul\":14690:14707   */\n      swap1\n      pop\n        /* \"#utility.yul\":14729:14730   */\n      dup2\n        /* \"#utility.yul\":14723:14727   */\n      dup2\n        /* \"#utility.yul\":14720:14731   */\n      gt\n        /* \"#utility.yul\":14717:14754   */\n      iszero\n      tag_726\n      jumpi\n        /* \"#utility.yul\":14734:14752   */\n      tag_727\n      tag_519\n      jump\t// in\n    tag_727:\n        /* \"#utility.yul\":14717:14754   */\n    tag_726:\n        /* \"#utility.yul\":14567:14761   */\n      swap3\n      swap2\n      pop\n      pop\n      jump\t// out\n        /* \"#utility.yul\":14767:14933   */\n    tag_524:\n        /* \"#utility.yul\":14907:14925   */\n      0x4e4f545f44454c454741544543414c4c00000000000000000000000000000000\n        /* \"#utility.yul\":14903:14904   */\n      0x00\n        /* \"#utility.yul\":14895:14901   */\n      dup3\n        /* \"#utility.yul\":14891:14905   */\n      add\n        /* \"#utility.yul\":14884:14926   */\n      mstore\n        /* \"#utility.yul\":14767:14933   */\n      pop\n      jump\t// out\n        /* \"#utility.yul\":14939:15305   */\n    tag_525:\n        /* \"#utility.yul\":15081:15084   */\n      0x00\n        /* \"#utility.yul\":15102:15169   */\n      tag_730\n        /* \"#utility.yul\":15166:15168   */\n      0x10\n        /* \"#utility.yul\":15161:15164   */\n      dup4\n        /* \"#utility.yul\":15102:15169   */\n      tag_495\n      jump\t// in\n    tag_730:\n        /* \"#utility.yul\":15095:15169   */\n      swap2\n      pop\n        /* \"#utility.yul\":15178:15271   */\n      tag_731\n        /* \"#utility.yul\":15267:15270   */\n      dup3\n        /* \"#utility.yul\":15178:15271   */\n      tag_524\n      jump\t// in\n    tag_731:\n        /* \"#utility.yul\":15296:15298   */\n      0x20\n        /* \"#utility.yul\":15291:15294   */\n      dup3\n        /* \"#utility.yul\":15287:15299   */\n      add\n        /* \"#utility.yul\":15280:15299   */\n      swap1\n      pop\n        /* \"#utility.yul\":14939:15305   */\n      swap2\n      swap1\n      pop\n      jump\t// out\n        /* \"#utility.yul\":15311:15730   */\n    tag_249:\n        /* \"#utility.yul\":15477:15481   */\n      0x00\n        /* \"#utility.yul\":15515:15517   */\n      0x20\n        /* \"#utility.yul\":15504:15513   */\n      dup3\n        /* \"#utility.yul\":15500:15518   */\n      add\n        /* \"#utility.yul\":15492:15518   */\n      swap1\n      pop\n        /* \"#utility.yul\":15564:15573   */\n      dup2\n        /* \"#utility.yul\":15558:15562   */\n      dup2\n        /* \"#utility.yul\":15554:15574   */\n      sub\n        /* \"#utility.yul\":15550:15551   */\n      0x00\n        /* \"#utility.yul\":15539:15548   */\n      dup4\n        /* \"#utility.yul\":15535:15552   */\n      add\n        /* \"#utility.yul\":15528:15575   */\n      mstore\n        /* \"#utility.yul\":15592:15723   */\n      tag_733\n        /* \"#utility.yul\":15718:15722   */\n      dup2\n        /* \"#utility.yul\":15592:15723   */\n      tag_525\n      jump\t// in\n    tag_733:\n        /* \"#utility.yul\":15584:15723   */\n      swap1\n      pop\n        /* \"#utility.yul\":15311:15730   */\n      swap2\n      swap1\n      pop\n      jump\t// out\n        /* \"#utility.yul\":15736:15900   */\n    tag_526:\n        /* \"#utility.yul\":15876:15892   */\n      0x494e4143544956455f50524f5859000000000000000000000000000000000000\n        /* \"#utility.yul\":15872:15873   */\n      0x00\n        /* \"#utility.yul\":15864:15870   */\n      dup3\n        /* \"#utility.yul\":15860:15874   */\n      add\n        /* \"#utility.yul\":15853:15893   */\n      mstore\n        /* \"#utility.yul\":15736:15900   */\n      pop\n      jump\t// out\n        /* \"#utility.yul\":15906:16272   */\n    tag_527:\n        /* \"#utility.yul\":16048:16051   */\n      0x00\n        /* \"#utility.yul\":16069:16136   */\n      tag_736\n        /* \"#utility.yul\":16133:16135   */\n      0x0e\n        /* \"#utility.yul\":16128:16131   */\n      dup4\n        /* \"#utility.yul\":16069:16136   */\n      tag_495\n      jump\t// in\n    tag_736:\n        /* \"#utility.yul\":16062:16136   */\n      swap2\n      pop\n        /* \"#utility.yul\":16145:16238   */\n      tag_737\n        /* \"#utility.yul\":16234:16237   */\n      dup3\n        /* \"#utility.yul\":16145:16238   */\n      tag_526\n      jump\t// in\n    tag_737:\n        /* \"#utility.yul\":16263:16265   */\n      0x20\n        /* \"#utility.yul\":16258:16261   */\n      dup3\n        /* \"#utility.yul\":16254:16266   */\n      add\n        /* \"#utility.yul\":16247:16266   */\n      swap1\n      pop\n        /* \"#utility.yul\":15906:16272   */\n      swap2\n      swap1\n      pop\n      jump\t// out\n        /* \"#utility.yul\":16278:16697   */\n    tag_254:\n        /* \"#utility.yul\":16444:16448   */\n      0x00\n        /* \"#utility.yul\":16482:16484   */\n      0x20\n        /* \"#utility.yul\":16471:16480   */\n      dup3\n        /* \"#utility.yul\":16467:16485   */\n      add\n        /* \"#utility.yul\":16459:16485   */\n      swap1\n      pop\n        /* \"#utility.yul\":16531:16540   */\n      dup2\n        /* \"#utility.yul\":16525:16529   */\n      dup2\n        /* \"#utility.yul\":16521:16541   */\n      sub\n        /* \"#utility.yul\":16517:16518   */\n      0x00\n        /* \"#utility.yul\":16506:16515   */\n      dup4\n        /* \"#utility.yul\":16502:16519   */\n      add\n        /* \"#utility.yul\":16495:16542   */\n      mstore\n        /* \"#utility.yul\":16559:16690   */\n      tag_739\n        /* \"#utility.yul\":16685:16689   */\n      dup2\n        /* \"#utility.yul\":16559:16690   */\n      tag_527\n      jump\t// in\n    tag_739:\n        /* \"#utility.yul\":16551:16690   */\n      swap1\n      pop\n        /* \"#utility.yul\":16278:16697   */\n      swap2\n      swap1\n      pop\n      jump\t// out\n        /* \"#utility.yul\":16703:16872   */\n    tag_528:\n        /* \"#utility.yul\":16843:16864   */\n      0x4f4e4c595f494d504c454d454e544154494f4e00000000000000000000000000\n        /* \"#utility.yul\":16839:16840   */\n      0x00\n        /* \"#utility.yul\":16831:16837   */\n      dup3\n        /* \"#utility.yul\":16827:16841   */\n      add\n        /* \"#utility.yul\":16820:16865   */\n      mstore\n        /* \"#utility.yul\":16703:16872   */\n      pop\n      jump\t// out\n        /* \"#utility.yul\":16878:17244   */\n    tag_529:\n        /* \"#utility.yul\":17020:17023   */\n      0x00\n        /* \"#utility.yul\":17041:17108   */\n      tag_742\n        /* \"#utility.yul\":17105:17107   */\n      0x13\n        /* \"#utility.yul\":17100:17103   */\n      dup4\n        /* \"#utility.yul\":17041:17108   */\n      tag_495\n      jump\t// in\n    tag_742:\n        /* \"#utility.yul\":17034:17108   */\n      swap2\n      pop\n        /* \"#utility.yul\":17117:17210   */\n      tag_743\n        /* \"#utility.yul\":17206:17209   */\n      dup3\n        /* \"#utility.yul\":17117:17210   */\n      tag_528\n      jump\t// in\n    tag_743:\n        /* \"#utility.yul\":17235:17237   */\n      0x20\n        /* \"#utility.yul\":17230:17233   */\n      dup3\n        /* \"#utility.yul\":17226:17238   */\n      add\n        /* \"#utility.yul\":17219:17238   */\n      swap1\n      pop\n        /* \"#utility.yul\":16878:17244   */\n      swap2\n      swap1\n      pop\n      jump\t// out\n        /* \"#utility.yul\":17250:17669   */\n    tag_278:\n        /* \"#utility.yul\":17416:17420   */\n      0x00\n        /* \"#utility.yul\":17454:17456   */\n      0x20\n        /* \"#utility.yul\":17443:17452   */\n      dup3\n        /* \"#utility.yul\":17439:17457   */\n      add\n        /* \"#utility.yul\":17431:17457   */\n      swap1\n      pop\n        /* \"#utility.yul\":17503:17512   */\n      dup2\n        /* \"#utility.yul\":17497:17501   */\n      dup2\n        /* \"#utility.yul\":17493:17513   */\n      sub\n        /* \"#utility.yul\":17489:17490   */\n      0x00\n        /* \"#utility.yul\":17478:17487   */\n      dup4\n        /* \"#utility.yul\":17474:17491   */\n      add\n        /* \"#utility.yul\":17467:17514   */\n      mstore\n        /* \"#utility.yul\":17531:17662   */\n      tag_745\n        /* \"#utility.yul\":17657:17661   */\n      dup2\n        /* \"#utility.yul\":17531:17662   */\n      tag_529\n      jump\t// in\n    tag_745:\n        /* \"#utility.yul\":17523:17662   */\n      swap1\n      pop\n        /* \"#utility.yul\":17250:17669   */\n      swap2\n      swap1\n      pop\n      jump\t// out\n        /* \"#utility.yul\":17675:18007   */\n    tag_298:\n        /* \"#utility.yul\":17796:17800   */\n      0x00\n        /* \"#utility.yul\":17834:17836   */\n      0x40\n        /* \"#utility.yul\":17823:17832   */\n      dup3\n        /* \"#utility.yul\":17819:17837   */\n      add\n        /* \"#utility.yul\":17811:17837   */\n      swap1\n      pop\n        /* \"#utility.yul\":17847:17918   */\n      tag_747\n        /* \"#utility.yul\":17915:17916   */\n      0x00\n        /* \"#utility.yul\":17904:17913   */\n      dup4\n        /* \"#utility.yul\":17900:17917   */\n      add\n        /* \"#utility.yul\":17891:17897   */\n      dup6\n        /* \"#utility.yul\":17847:17918   */\n      tag_510\n      jump\t// in\n    tag_747:\n        /* \"#utility.yul\":17928:18000   */\n      tag_748\n        /* \"#utility.yul\":17996:17998   */\n      0x20\n        /* \"#utility.yul\":17985:17994   */\n      dup4\n        /* \"#utility.yul\":17981:17999   */\n      add\n        /* \"#utility.yul\":17972:17978   */\n      dup5\n        /* \"#utility.yul\":17928:18000   */\n      tag_493\n      jump\t// in\n    tag_748:\n        /* \"#utility.yul\":17675:18007   */\n      swap4\n      swap3\n      pop\n      pop\n      pop\n      jump\t// out\n        /* \"#utility.yul\":18013:18129   */\n    tag_530:\n        /* \"#utility.yul\":18083:18104   */\n      tag_750\n        /* \"#utility.yul\":18098:18103   */\n      dup2\n        /* \"#utility.yul\":18083:18104   */\n      tag_508\n      jump\t// in\n    tag_750:\n        /* \"#utility.yul\":18076:18081   */\n      dup2\n        /* \"#utility.yul\":18073:18105   */\n      eq\n        /* \"#utility.yul\":18063:18123   */\n      tag_751\n      jumpi\n        /* \"#utility.yul\":18119:18120   */\n      0x00\n        /* \"#utility.yul\":18116:18117   */\n      0x00\n        /* \"#utility.yul\":18109:18121   */\n      revert\n        /* \"#utility.yul\":18063:18123   */\n    tag_751:\n        /* \"#utility.yul\":18013:18129   */\n      pop\n      jump\t// out\n        /* \"#utility.yul\":18135:18272   */\n    tag_531:\n        /* \"#utility.yul\":18189:18194   */\n      0x00\n        /* \"#utility.yul\":18220:18226   */\n      dup2\n        /* \"#utility.yul\":18214:18227   */\n      mload\n        /* \"#utility.yul\":18205:18227   */\n      swap1\n      pop\n        /* \"#utility.yul\":18236:18266   */\n      tag_753\n        /* \"#utility.yul\":18260:18265   */\n      dup2\n        /* \"#utility.yul\":18236:18266   */\n      tag_530\n      jump\t// in\n    tag_753:\n        /* \"#utility.yul\":18135:18272   */\n      swap3\n      swap2\n      pop\n      pop\n      jump\t// out\n        /* \"#utility.yul\":18278:18623   */\n    tag_302:\n        /* \"#utility.yul\":18345:18351   */\n      0x00\n        /* \"#utility.yul\":18394:18396   */\n      0x20\n        /* \"#utility.yul\":18382:18391   */\n      dup3\n        /* \"#utility.yul\":18373:18380   */\n      dup5\n        /* \"#utility.yul\":18369:18392   */\n      sub\n        /* \"#utility.yul\":18365:18397   */\n      slt\n        /* \"#utility.yul\":18362:18481   */\n      iszero\n      tag_755\n      jumpi\n        /* \"#utility.yul\":18400:18479   */\n      tag_756\n      tag_500\n      jump\t// in\n    tag_756:\n        /* \"#utility.yul\":18362:18481   */\n    tag_755:\n        /* \"#utility.yul\":18520:18521   */\n      0x00\n        /* \"#utility.yul\":18545:18606   */\n      tag_757\n        /* \"#utility.yul\":18598:18605   */\n      dup5\n        /* \"#utility.yul\":18589:18595   */\n      dup3\n        /* \"#utility.yul\":18578:18587   */\n      dup6\n        /* \"#utility.yul\":18574:18596   */\n      add\n        /* \"#utility.yul\":18545:18606   */\n      tag_531\n      jump\t// in\n    tag_757:\n        /* \"#utility.yul\":18535:18606   */\n      swap2\n      pop\n        /* \"#utility.yul\":18491:18616   */\n      pop\n        /* \"#utility.yul\":18278:18623   */\n      swap3\n      swap2\n      pop\n      pop\n      jump\t// out\n        /* \"#utility.yul\":18629:18790   */\n    tag_532:\n        /* \"#utility.yul\":18769:18782   */\n      0x5a45524f5f534841524553000000000000000000000000000000000000000000\n        /* \"#utility.yul\":18765:18766   */\n      0x00\n        /* \"#utility.yul\":18757:18763   */\n      dup3\n        /* \"#utility.yul\":18753:18767   */\n      add\n        /* \"#utility.yul\":18746:18783   */\n      mstore\n        /* \"#utility.yul\":18629:18790   */\n      pop\n      jump\t// out\n        /* \"#utility.yul\":18796:19162   */\n    tag_533:\n        /* \"#utility.yul\":18938:18941   */\n      0x00\n        /* \"#utility.yul\":18959:19026   */\n      tag_760\n        /* \"#utility.yul\":19023:19025   */\n      0x0b\n        /* \"#utility.yul\":19018:19021   */\n      dup4\n        /* \"#utility.yul\":18959:19026   */\n      tag_495\n      jump\t// in\n    tag_760:\n        /* \"#utility.yul\":18952:19026   */\n      swap2\n      pop\n        /* \"#utility.yul\":19035:19128   */\n      tag_761\n        /* \"#utility.yul\":19124:19127   */\n      dup3\n        /* \"#utility.yul\":19035:19128   */\n      tag_532\n      jump\t// in\n    tag_761:\n        /* \"#utility.yul\":19153:19155   */\n      0x20\n        /* \"#utility.yul\":19148:19151   */\n      dup3\n        /* \"#utility.yul\":19144:19156   */\n      add\n        /* \"#utility.yul\":19137:19156   */\n      swap1\n      pop\n        /* \"#utility.yul\":18796:19162   */\n      swap2\n      swap1\n      pop\n      jump\t// out\n        /* \"#utility.yul\":19168:19587   */\n    tag_328:\n        /* \"#utility.yul\":19334:19338   */\n      0x00\n        /* \"#utility.yul\":19372:19374   */\n      0x20\n        /* \"#utility.yul\":19361:19370   */\n      dup3\n        /* \"#utility.yul\":19357:19375   */\n      add\n        /* \"#utility.yul\":19349:19375   */\n      swap1\n      pop\n        /* \"#utility.yul\":19421:19430   */\n      dup2\n        /* \"#utility.yul\":19415:19419   */\n      dup2\n        /* \"#utility.yul\":19411:19431   */\n      sub\n        /* \"#utility.yul\":19407:19408   */\n      0x00\n        /* \"#utility.yul\":19396:19405   */\n      dup4\n        /* \"#utility.yul\":19392:19409   */\n      add\n        /* \"#utility.yul\":19385:19432   */\n      mstore\n        /* \"#utility.yul\":19449:19580   */\n      tag_763\n        /* \"#utility.yul\":19575:19579   */\n      dup2\n        /* \"#utility.yul\":19449:19580   */\n      tag_533\n      jump\t// in\n    tag_763:\n        /* \"#utility.yul\":19441:19580   */\n      swap1\n      pop\n        /* \"#utility.yul\":19168:19587   */\n      swap2\n      swap1\n      pop\n      jump\t// out\n        /* \"#utility.yul\":19593:19754   */\n    tag_534:\n        /* \"#utility.yul\":19733:19746   */\n      0x5a45524f5f415353455453000000000000000000000000000000000000000000\n        /* \"#utility.yul\":19729:19730   */\n      0x00\n        /* \"#utility.yul\":19721:19727   */\n      dup3\n        /* \"#utility.yul\":19717:19731   */\n      add\n        /* \"#utility.yul\":19710:19747   */\n      mstore\n        /* \"#utility.yul\":19593:19754   */\n      pop\n      jump\t// out\n        /* \"#utility.yul\":19760:20126   */\n    tag_535:\n        /* \"#utility.yul\":19902:19905   */\n      0x00\n        /* \"#utility.yul\":19923:19990   */\n      tag_766\n        /* \"#utility.yul\":19987:19989   */\n      0x0b\n        /* \"#utility.yul\":19982:19985   */\n      dup4\n        /* \"#utility.yul\":19923:19990   */\n      tag_495\n      jump\t// in\n    tag_766:\n        /* \"#utility.yul\":19916:19990   */\n      swap2\n      pop\n        /* \"#utility.yul\":19999:20092   */\n      tag_767\n        /* \"#utility.yul\":20088:20091   */\n      dup3\n        /* \"#utility.yul\":19999:20092   */\n      tag_534\n      jump\t// in\n    tag_767:\n        /* \"#utility.yul\":20117:20119   */\n      0x20\n        /* \"#utility.yul\":20112:20115   */\n      dup3\n        /* \"#utility.yul\":20108:20120   */\n      add\n        /* \"#utility.yul\":20101:20120   */\n      swap1\n      pop\n        /* \"#utility.yul\":19760:20126   */\n      swap2\n      swap1\n      pop\n      jump\t// out\n        /* \"#utility.yul\":20132:20551   */\n    tag_332:\n        /* \"#utility.yul\":20298:20302   */\n      0x00\n        /* \"#utility.yul\":20336:20338   */\n      0x20\n        /* \"#utility.yul\":20325:20334   */\n      dup3\n        /* \"#utility.yul\":20321:20339   */\n      add\n        /* \"#utility.yul\":20313:20339   */\n      swap1\n      pop\n        /* \"#utility.yul\":20385:20394   */\n      dup2\n        /* \"#utility.yul\":20379:20383   */\n      dup2\n        /* \"#utility.yul\":20375:20395   */\n      sub\n        /* \"#utility.yul\":20371:20372   */\n      0x00\n        /* \"#utility.yul\":20360:20369   */\n      dup4\n        /* \"#utility.yul\":20356:20373   */\n      add\n        /* \"#utility.yul\":20349:20396   */\n      mstore\n        /* \"#utility.yul\":20413:20544   */\n      tag_769\n        /* \"#utility.yul\":20539:20543   */\n      dup2\n        /* \"#utility.yul\":20413:20544   */\n      tag_535\n      jump\t// in\n    tag_769:\n        /* \"#utility.yul\":20405:20544   */\n      swap1\n      pop\n        /* \"#utility.yul\":20132:20551   */\n      swap2\n      swap1\n      pop\n      jump\t// out\n        /* \"#utility.yul\":20557:20999   */\n    tag_334:\n        /* \"#utility.yul\":20706:20710   */\n      0x00\n        /* \"#utility.yul\":20744:20746   */\n      0x60\n        /* \"#utility.yul\":20733:20742   */\n      dup3\n        /* \"#utility.yul\":20729:20747   */\n      add\n        /* \"#utility.yul\":20721:20747   */\n      swap1\n      pop\n        /* \"#utility.yul\":20757:20828   */\n      tag_771\n        /* \"#utility.yul\":20825:20826   */\n      0x00\n        /* \"#utility.yul\":20814:20823   */\n      dup4\n        /* \"#utility.yul\":20810:20827   */\n      add\n        /* \"#utility.yul\":20801:20807   */\n      dup7\n        /* \"#utility.yul\":20757:20828   */\n      tag_510\n      jump\t// in\n    tag_771:\n        /* \"#utility.yul\":20838:20910   */\n      tag_772\n        /* \"#utility.yul\":20906:20908   */\n      0x20\n        /* \"#utility.yul\":20895:20904   */\n      dup4\n        /* \"#utility.yul\":20891:20909   */\n      add\n        /* \"#utility.yul\":20882:20888   */\n      dup6\n        /* \"#utility.yul\":20838:20910   */\n      tag_510\n      jump\t// in\n    tag_772:\n        /* \"#utility.yul\":20920:20992   */\n      tag_773\n        /* \"#utility.yul\":20988:20990   */\n      0x40\n        /* \"#utility.yul\":20977:20986   */\n      dup4\n        /* \"#utility.yul\":20973:20991   */\n      add\n        /* \"#utility.yul\":20964:20970   */\n      dup5\n        /* \"#utility.yul\":20920:20992   */\n      tag_493\n      jump\t// in\n    tag_773:\n        /* \"#utility.yul\":20557:20999   */\n      swap5\n      swap4\n      pop\n      pop\n      pop\n      pop\n      jump\t// out\n        /* \"#utility.yul\":21005:21337   */\n    tag_341:\n        /* \"#utility.yul\":21126:21130   */\n      0x00\n        /* \"#utility.yul\":21164:21166   */\n      0x40\n        /* \"#utility.yul\":21153:21162   */\n      dup3\n        /* \"#utility.yul\":21149:21167   */\n      add\n        /* \"#utility.yul\":21141:21167   */\n      swap1\n      pop\n        /* \"#utility.yul\":21177:21248   */\n      tag_775\n        /* \"#utility.yul\":21245:21246   */\n      0x00\n        /* \"#utility.yul\":21234:21243   */\n      dup4\n        /* \"#utility.yul\":21230:21247   */\n      add\n        /* \"#utility.yul\":21221:21227   */\n      dup6\n        /* \"#utility.yul\":21177:21248   */\n      tag_493\n      jump\t// in\n    tag_775:\n        /* \"#utility.yul\":21258:21330   */\n      tag_776\n        /* \"#utility.yul\":21326:21328   */\n      0x20\n        /* \"#utility.yul\":21315:21324   */\n      dup4\n        /* \"#utility.yul\":21311:21329   */\n      add\n        /* \"#utility.yul\":21302:21308   */\n      dup5\n        /* \"#utility.yul\":21258:21330   */\n      tag_493\n      jump\t// in\n    tag_776:\n        /* \"#utility.yul\":21005:21337   */\n      swap4\n      swap3\n      pop\n      pop\n      pop\n      jump\t// out\n        /* \"#utility.yul\":21343:21512   */\n    tag_536:\n        /* \"#utility.yul\":21483:21504   */\n      0x414c52454144595f494e495449414c495a454400000000000000000000000000\n        /* \"#utility.yul\":21479:21480   */\n      0x00\n        /* \"#utility.yul\":21471:21477   */\n      dup3\n        /* \"#utility.yul\":21467:21481   */\n      add\n        /* \"#utility.yul\":21460:21505   */\n      mstore\n        /* \"#utility.yul\":21343:21512   */\n      pop\n      jump\t// out\n        /* \"#utility.yul\":21518:21884   */\n    tag_537:\n        /* \"#utility.yul\":21660:21663   */\n      0x00\n        /* \"#utility.yul\":21681:21748   */\n      tag_779\n        /* \"#utility.yul\":21745:21747   */\n      0x13\n        /* \"#utility.yul\":21740:21743   */\n      dup4\n        /* \"#utility.yul\":21681:21748   */\n      tag_495\n      jump\t// in\n    tag_779:\n        /* \"#utility.yul\":21674:21748   */\n      swap2\n      pop\n        /* \"#utility.yul\":21757:21850   */\n      tag_780\n        /* \"#utility.yul\":21846:21849   */\n      dup3\n        /* \"#utility.yul\":21757:21850   */\n      tag_536\n      jump\t// in\n    tag_780:\n        /* \"#utility.yul\":21875:21877   */\n      0x20\n        /* \"#utility.yul\":21870:21873   */\n      dup3\n        /* \"#utility.yul\":21866:21878   */\n      add\n        /* \"#utility.yul\":21859:21878   */\n      swap1\n      pop\n        /* \"#utility.yul\":21518:21884   */\n      swap2\n      swap1\n      pop\n      jump\t// out\n        /* \"#utility.yul\":21890:22309   */\n    tag_393:\n        /* \"#utility.yul\":22056:22060   */\n      0x00\n        /* \"#utility.yul\":22094:22096   */\n      0x20\n        /* \"#utility.yul\":22083:22092   */\n      dup3\n        /* \"#utility.yul\":22079:22097   */\n      add\n        /* \"#utility.yul\":22071:22097   */\n      swap1\n      pop\n        /* \"#utility.yul\":22143:22152   */\n      dup2\n        /* \"#utility.yul\":22137:22141   */\n      dup2\n        /* \"#utility.yul\":22133:22153   */\n      sub\n        /* \"#utility.yul\":22129:22130   */\n      0x00\n        /* \"#utility.yul\":22118:22127   */\n      dup4\n        /* \"#utility.yul\":22114:22131   */\n      add\n        /* \"#utility.yul\":22107:22154   */\n      mstore\n        /* \"#utility.yul\":22171:22302   */\n      tag_782\n        /* \"#utility.yul\":22297:22301   */\n      dup2\n        /* \"#utility.yul\":22171:22302   */\n      tag_537\n      jump\t// in\n    tag_782:\n        /* \"#utility.yul\":22163:22302   */\n      swap1\n      pop\n        /* \"#utility.yul\":21890:22309   */\n      swap2\n      swap1\n      pop\n      jump\t// out\n        /* \"#utility.yul\":22315:22412   */\n    tag_538:\n        /* \"#utility.yul\":22374:22380   */\n      0x00\n        /* \"#utility.yul\":22402:22405   */\n      dup3\n        /* \"#utility.yul\":22392:22405   */\n      swap1\n      pop\n        /* \"#utility.yul\":22315:22412   */\n      swap3\n      swap2\n      pop\n      pop\n      jump\t// out\n        /* \"#utility.yul\":22418:22598   */\n    tag_539:\n        /* \"#utility.yul\":22466:22543   */\n      0x4e487b7100000000000000000000000000000000000000000000000000000000\n        /* \"#utility.yul\":22463:22464   */\n      0x00\n        /* \"#utility.yul\":22456:22544   */\n      mstore\n        /* \"#utility.yul\":22563:22567   */\n      0x41\n        /* \"#utility.yul\":22560:22561   */\n      0x04\n        /* \"#utility.yul\":22553:22568   */\n      mstore\n        /* \"#utility.yul\":22587:22591   */\n      0x24\n        /* \"#utility.yul\":22584:22585   */\n      0x00\n        /* \"#utility.yul\":22577:22592   */\n      revert\n        /* \"#utility.yul\":22604:22745   */\n    tag_540:\n        /* \"#utility.yul\":22653:22657   */\n      0x00\n        /* \"#utility.yul\":22676:22679   */\n      dup2\n        /* \"#utility.yul\":22668:22679   */\n      swap1\n      pop\n        /* \"#utility.yul\":22699:22702   */\n      dup2\n        /* \"#utility.yul\":22696:22697   */\n      0x00\n        /* \"#utility.yul\":22689:22703   */\n      mstore\n        /* \"#utility.yul\":22733:22737   */\n      0x20\n        /* \"#utility.yul\":22730:22731   */\n      0x00\n        /* \"#utility.yul\":22720:22738   */\n      keccak256\n        /* \"#utility.yul\":22712:22738   */\n      swap1\n      pop\n        /* \"#utility.yul\":22604:22745   */\n      swap2\n      swap1\n      pop\n      jump\t// out\n        /* \"#utility.yul\":22751:22844   */\n    tag_541:\n        /* \"#utility.yul\":22788:22794   */\n      0x00\n        /* \"#utility.yul\":22835:22837   */\n      0x20\n        /* \"#utility.yul\":22830:22832   */\n      0x1f\n        /* \"#utility.yul\":22823:22828   */\n      dup4\n        /* \"#utility.yul\":22819:22833   */\n      add\n        /* \"#utility.yul\":22815:22838   */\n      div\n        /* \"#utility.yul\":22805:22838   */\n      swap1\n      pop\n        /* \"#utility.yul\":22751:22844   */\n      swap2\n      swap1\n      pop\n      jump\t// out\n        /* \"#utility.yul\":22850:22957   */\n    tag_542:\n        /* \"#utility.yul\":22894:22902   */\n      0x00\n        /* \"#utility.yul\":22944:22949   */\n      dup3\n        /* \"#utility.yul\":22938:22942   */\n      dup3\n        /* \"#utility.yul\":22934:22950   */\n      shl\n        /* \"#utility.yul\":22913:22950   */\n      swap1\n      pop\n        /* \"#utility.yul\":22850:22957   */\n      swap3\n      swap2\n      pop\n      pop\n      jump\t// out\n        /* \"#utility.yul\":22963:23356   */\n    tag_543:\n        /* \"#utility.yul\":23032:23038   */\n      0x00\n        /* \"#utility.yul\":23082:23083   */\n      0x08\n        /* \"#utility.yul\":23070:23080   */\n      dup4\n        /* \"#utility.yul\":23066:23084   */\n      mul\n        /* \"#utility.yul\":23105:23202   */\n      tag_789\n        /* \"#utility.yul\":23135:23201   */\n      0xffffffffffffffffffffffffffffffffffffffffffffffffffffffffffffffff\n        /* \"#utility.yul\":23124:23133   */\n      dup3\n        /* \"#utility.yul\":23105:23202   */\n      tag_542\n      jump\t// in\n    tag_789:\n        /* \"#utility.yul\":23223:23262   */\n      tag_790\n        /* \"#utility.yul\":23253:23261   */\n      dup7\n        /* \"#utility.yul\":23242:23251   */\n      dup4\n        /* \"#utility.yul\":23223:23262   */\n      tag_542\n      jump\t// in\n    tag_790:\n        /* \"#utility.yul\":23211:23262   */\n      swap6\n      pop\n        /* \"#utility.yul\":23295:23299   */\n      dup1\n        /* \"#utility.yul\":23291:23300   */\n      not\n        /* \"#utility.yul\":23284:23289   */\n      dup5\n        /* \"#utility.yul\":23280:23301   */\n      and\n        /* \"#utility.yul\":23271:23301   */\n      swap4\n      pop\n        /* \"#utility.yul\":23344:23348   */\n      dup1\n        /* \"#utility.yul\":23334:23342   */\n      dup7\n        /* \"#utility.yul\":23330:23349   */\n      and\n        /* \"#utility.yul\":23323:23328   */\n      dup5\n        /* \"#utility.yul\":23320:23350   */\n      or\n        /* \"#utility.yul\":23310:23350   */\n      swap3\n      pop\n        /* \"#utility.yul\":23039:23356   */\n      pop\n      pop\n        /* \"#utility.yul\":22963:23356   */\n      swap4\n      swap3\n      pop\n      pop\n      pop\n      jump\t// out\n        /* \"#utility.yul\":23362:23422   */\n    tag_544:\n        /* \"#utility.yul\":23390:23393   */\n      0x00\n        /* \"#utility.yul\":23411:23416   */\n      dup2\n        /* \"#utility.yul\":23404:23416   */\n      swap1\n      pop\n        /* \"#utility.yul\":23362:23422   */\n      swap2\n      swap1\n      pop\n      jump\t// out\n        /* \"#utility.yul\":23428:23570   */\n    tag_545:\n        /* \"#utility.yul\":23478:23487   */\n      0x00\n        /* \"#utility.yul\":23511:23564   */\n      tag_793\n        /* \"#utility.yul\":23529:23563   */\n      tag_794\n        /* \"#utility.yul\":23538:23562   */\n      tag_795\n        /* \"#utility.yul\":23556:23561   */\n      dup5\n        /* \"#utility.yul\":23538:23562   */\n      tag_492\n      jump\t// in\n    tag_795:\n        /* \"#utility.yul\":23529:23563   */\n      tag_544\n      jump\t// in\n    tag_794:\n        /* \"#utility.yul\":23511:23564   */\n      tag_492\n      jump\t// in\n    tag_793:\n        /* \"#utility.yul\":23498:23564   */\n      swap1\n      pop\n        /* \"#utility.yul\":23428:23570   */\n      swap2\n      swap1\n      pop\n      jump\t// out\n        /* \"#utility.yul\":23576:23651   */\n    tag_546:\n        /* \"#utility.yul\":23619:23622   */\n      0x00\n        /* \"#utility.yul\":23640:23645   */\n      dup2\n        /* \"#utility.yul\":23633:23645   */\n      swap1\n      pop\n        /* \"#utility.yul\":23576:23651   */\n      swap2\n      swap1\n      pop\n      jump\t// out\n        /* \"#utility.yul\":23657:23926   */\n    tag_547:\n        /* \"#utility.yul\":23767:23806   */\n      tag_798\n        /* \"#utility.yul\":23798:23805   */\n      dup4\n        /* \"#utility.yul\":23767:23806   */\n      tag_545\n      jump\t// in\n    tag_798:\n        /* \"#utility.yul\":23828:23919   */\n      tag_799\n        /* \"#utility.yul\":23877:23918   */\n      tag_800\n        /* \"#utility.yul\":23901:23917   */\n      dup3\n        /* \"#utility.yul\":23877:23918   */\n      tag_546\n      jump\t// in\n    tag_800:\n        /* \"#utility.yul\":23869:23875   */\n      dup5\n        /* \"#utility.yul\":23862:23866   */\n      dup5\n        /* \"#utility.yul\":23856:23867   */\n      sload\n        /* \"#utility.yul\":23828:23919   */\n      tag_543\n      jump\t// in\n    tag_799:\n        /* \"#utility.yul\":23822:23826   */\n      dup3\n        /* \"#utility.yul\":23815:23920   */\n      sstore\n        /* \"#utility.yul\":23733:23926   */\n      pop\n        /* \"#utility.yul\":23657:23926   */\n      pop\n      pop\n      pop\n      jump\t// out\n        /* \"#utility.yul\":23932:24005   */\n    tag_548:\n        /* \"#utility.yul\":23977:23980   */\n      0x00\n        /* \"#utility.yul\":23998:23999   */\n      0x00\n        /* \"#utility.yul\":23991:23999   */\n      swap1\n      pop\n        /* \"#utility.yul\":23932:24005   */\n      swap1\n      jump\t// out\n        /* \"#utility.yul\":24011:24200   */\n    tag_549:\n        /* \"#utility.yul\":24088:24120   */\n      tag_803\n      tag_548\n      jump\t// in\n    tag_803:\n        /* \"#utility.yul\":24129:24194   */\n      tag_804\n        /* \"#utility.yul\":24187:24193   */\n      dup2\n        /* \"#utility.yul\":24179:24185   */\n      dup5\n        /* \"#utility.yul\":24173:24177   */\n      dup5\n        /* \"#utility.yul\":24129:24194   */\n      tag_547\n      jump\t// in\n    tag_804:\n        /* \"#utility.yul\":24064:24200   */\n      pop\n        /* \"#utility.yul\":24011:24200   */\n      pop\n      pop\n      jump\t// out\n        /* \"#utility.yul\":24206:24392   */\n    tag_550:\n        /* \"#utility.yul\":24266:24386   */\n    tag_806:\n        /* \"#utility.yul\":24283:24286   */\n      dup2\n        /* \"#utility.yul\":24276:24281   */\n      dup2\n        /* \"#utility.yul\":24273:24287   */\n      lt\n        /* \"#utility.yul\":24266:24386   */\n      iszero\n      tag_808\n      jumpi\n        /* \"#utility.yul\":24337:24376   */\n      tag_809\n        /* \"#utility.yul\":24374:24375   */\n      0x00\n        /* \"#utility.yul\":24367:24372   */\n      dup3\n        /* \"#utility.yul\":24337:24376   */\n      tag_549\n      jump\t// in\n    tag_809:\n        /* \"#utility.yul\":24310:24311   */\n      0x01\n        /* \"#utility.yul\":24303:24308   */\n      dup2\n        /* \"#utility.yul\":24299:24312   */\n      add\n        /* \"#utility.yul\":24290:24312   */\n      swap1\n      pop\n        /* \"#utility.yul\":24266:24386   */\n      jump(tag_806)\n    tag_808:\n        /* \"#utility.yul\":24206:24392   */\n      pop\n      pop\n      jump\t// out\n        /* \"#utility.yul\":24398:24941   */\n    tag_551:\n        /* \"#utility.yul\":24499:24501   */\n      0x1f\n        /* \"#utility.yul\":24494:24497   */\n      dup3\n        /* \"#utility.yul\":24491:24502   */\n      gt\n        /* \"#utility.yul\":24488:24934   */\n      iszero\n      tag_811\n      jumpi\n        /* \"#utility.yul\":24533:24571   */\n      tag_812\n        /* \"#utility.yul\":24565:24570   */\n      dup2\n        /* \"#utility.yul\":24533:24571   */\n      tag_540\n      jump\t// in\n    tag_812:\n        /* \"#utility.yul\":24617:24646   */\n      tag_813\n        /* \"#utility.yul\":24635:24645   */\n      dup5\n        /* \"#utility.yul\":24617:24646   */\n      tag_541\n      jump\t// in\n    tag_813:\n        /* \"#utility.yul\":24607:24615   */\n      dup2\n        /* \"#utility.yul\":24603:24647   */\n      add\n        /* \"#utility.yul\":24800:24802   */\n      0x20\n        /* \"#utility.yul\":24788:24798   */\n      dup6\n        /* \"#utility.yul\":24785:24803   */\n      lt\n        /* \"#utility.yul\":24782:24831   */\n      iszero\n      tag_814\n      jumpi\n        /* \"#utility.yul\":24821:24829   */\n      dup2\n        /* \"#utility.yul\":24806:24829   */\n      swap1\n      pop\n        /* \"#utility.yul\":24782:24831   */\n    tag_814:\n        /* \"#utility.yul\":24844:24924   */\n      tag_815\n        /* \"#utility.yul\":24900:24922   */\n      tag_816\n        /* \"#utility.yul\":24918:24921   */\n      dup6\n        /* \"#utility.yul\":24900:24922   */\n      tag_541\n      jump\t// in\n    tag_816:\n        /* \"#utility.yul\":24890:24898   */\n      dup4\n        /* \"#utility.yul\":24886:24923   */\n      add\n        /* \"#utility.yul\":24873:24884   */\n      dup3\n        /* \"#utility.yul\":24844:24924   */\n      tag_550\n      jump\t// in\n    tag_815:\n        /* \"#utility.yul\":24503:24934   */\n      pop\n      pop\n        /* \"#utility.yul\":24488:24934   */\n    tag_811:\n        /* \"#utility.yul\":24398:24941   */\n      pop\n      pop\n      pop\n      jump\t// out\n        /* \"#utility.yul\":24947:25064   */\n    tag_552:\n        /* \"#utility.yul\":25001:25009   */\n      0x00\n        /* \"#utility.yul\":25051:25056   */\n      dup3\n        /* \"#utility.yul\":25045:25049   */\n      dup3\n        /* \"#utility.yul\":25041:25057   */\n      shr\n        /* \"#utility.yul\":25020:25057   */\n      swap1\n      pop\n        /* \"#utility.yul\":24947:25064   */\n      swap3\n      swap2\n      pop\n      pop\n      jump\t// out\n        /* \"#utility.yul\":25070:25239   */\n    tag_553:\n        /* \"#utility.yul\":25114:25120   */\n      0x00\n        /* \"#utility.yul\":25147:25198   */\n      tag_819\n        /* \"#utility.yul\":25195:25196   */\n      0x00\n        /* \"#utility.yul\":25191:25197   */\n      not\n        /* \"#utility.yul\":25183:25188   */\n      dup5\n        /* \"#utility.yul\":25180:25181   */\n      0x08\n        /* \"#utility.yul\":25176:25189   */\n      mul\n        /* \"#utility.yul\":25147:25198   */\n      tag_552\n      jump\t// in\n    tag_819:\n        /* \"#utility.yul\":25143:25199   */\n      not\n        /* \"#utility.yul\":25228:25232   */\n      dup1\n        /* \"#utility.yul\":25222:25226   */\n      dup4\n        /* \"#utility.yul\":25218:25233   */\n      and\n        /* \"#utility.yul\":25208:25233   */\n      swap2\n      pop\n        /* \"#utility.yul\":25121:25239   */\n      pop\n        /* \"#utility.yul\":25070:25239   */\n      swap3\n      swap2\n      pop\n      pop\n      jump\t// out\n        /* \"#utility.yul\":25244:25539   */\n    tag_554:\n        /* \"#utility.yul\":25320:25324   */\n      0x00\n        /* \"#utility.yul\":25466:25495   */\n      tag_821\n        /* \"#utility.yul\":25491:25494   */\n      dup4\n        /* \"#utility.yul\":25485:25489   */\n      dup4\n        /* \"#utility.yul\":25466:25495   */\n      tag_553\n      jump\t// in\n    tag_821:\n        /* \"#utility.yul\":25458:25495   */\n      swap2\n      pop\n        /* \"#utility.yul\":25528:25531   */\n      dup3\n        /* \"#utility.yul\":25525:25526   */\n      0x02\n        /* \"#utility.yul\":25521:25532   */\n      mul\n        /* \"#utility.yul\":25515:25519   */\n      dup3\n        /* \"#utility.yul\":25512:25533   */\n      or\n        /* \"#utility.yul\":25504:25533   */\n      swap1\n      pop\n        /* \"#utility.yul\":25244:25539   */\n      swap3\n      swap2\n      pop\n      pop\n      jump\t// out\n        /* \"#utility.yul\":25544:26947   */\n    tag_401:\n        /* \"#utility.yul\":25668:25712   */\n      tag_823\n        /* \"#utility.yul\":25708:25711   */\n      dup4\n        /* \"#utility.yul\":25703:25706   */\n      dup4\n        /* \"#utility.yul\":25668:25712   */\n      tag_538\n      jump\t// in\n    tag_823:\n        /* \"#utility.yul\":25777:25795   */\n      0xffffffffffffffff\n        /* \"#utility.yul\":25769:25775   */\n      dup2\n        /* \"#utility.yul\":25766:25796   */\n      gt\n        /* \"#utility.yul\":25763:25819   */\n      iszero\n      tag_824\n      jumpi\n        /* \"#utility.yul\":25799:25817   */\n      tag_825\n      tag_539\n      jump\t// in\n    tag_825:\n        /* \"#utility.yul\":25763:25819   */\n    tag_824:\n        /* \"#utility.yul\":25843:25881   */\n      tag_826\n        /* \"#utility.yul\":25875:25879   */\n      dup3\n        /* \"#utility.yul\":25869:25880   */\n      sload\n        /* \"#utility.yul\":25843:25881   */\n      tag_215\n      jump\t// in\n    tag_826:\n        /* \"#utility.yul\":25928:25995   */\n      tag_827\n        /* \"#utility.yul\":25988:25994   */\n      dup3\n        /* \"#utility.yul\":25980:25986   */\n      dup3\n        /* \"#utility.yul\":25974:25978   */\n      dup6\n        /* \"#utility.yul\":25928:25995   */\n      tag_551\n      jump\t// in\n    tag_827:\n        /* \"#utility.yul\":26022:26023   */\n      0x00\n        /* \"#utility.yul\":26051:26053   */\n      0x1f\n        /* \"#utility.yul\":26043:26049   */\n      dup4\n        /* \"#utility.yul\":26040:26054   */\n      gt\n        /* \"#utility.yul\":26068:26069   */\n      0x01\n        /* \"#utility.yul\":26063:26695   */\n      dup2\n      eq\n      tag_829\n      jumpi\n        /* \"#utility.yul\":26739:26740   */\n      0x00\n        /* \"#utility.yul\":26756:26762   */\n      dup5\n        /* \"#utility.yul\":26753:26837   */\n      iszero\n      tag_830\n      jumpi\n        /* \"#utility.yul\":26812:26821   */\n      dup3\n        /* \"#utility.yul\":26807:26810   */\n      dup8\n        /* \"#utility.yul\":26803:26822   */\n      add\n        /* \"#utility.yul\":26790:26823   */\n      calldataload\n        /* \"#utility.yul\":26781:26823   */\n      swap1\n      pop\n        /* \"#utility.yul\":26753:26837   */\n    tag_830:\n        /* \"#utility.yul\":26863:26930   */\n      tag_831\n        /* \"#utility.yul\":26923:26929   */\n      dup6\n        /* \"#utility.yul\":26916:26921   */\n      dup3\n        /* \"#utility.yul\":26863:26930   */\n      tag_554\n      jump\t// in\n    tag_831:\n        /* \"#utility.yul\":26857:26861   */\n      dup7\n        /* \"#utility.yul\":26850:26931   */\n      sstore\n        /* \"#utility.yul\":26712:26941   */\n      pop\n        /* \"#utility.yul\":26033:26941   */\n      jump(tag_828)\n        /* \"#utility.yul\":26063:26695   */\n    tag_829:\n        /* \"#utility.yul\":26115:26119   */\n      0x1f\n        /* \"#utility.yul\":26111:26120   */\n      not\n        /* \"#utility.yul\":26103:26109   */\n      dup5\n        /* \"#utility.yul\":26099:26121   */\n      and\n        /* \"#utility.yul\":26149:26186   */\n      tag_832\n        /* \"#utility.yul\":26181:26185   */\n      dup7\n        /* \"#utility.yul\":26149:26186   */\n      tag_540\n      jump\t// in\n    tag_832:\n        /* \"#utility.yul\":26208:26209   */\n      0x00\n        /* \"#utility.yul\":26222:26437   */\n    tag_833:\n        /* \"#utility.yul\":26236:26243   */\n      dup3\n        /* \"#utility.yul\":26233:26234   */\n      dup2\n        /* \"#utility.yul\":26230:26244   */\n      lt\n        /* \"#utility.yul\":26222:26437   */\n      iszero\n      tag_835\n      jumpi\n        /* \"#utility.yul\":26322:26331   */\n      dup5\n        /* \"#utility.yul\":26317:26320   */\n      dup10\n        /* \"#utility.yul\":26313:26332   */\n      add\n        /* \"#utility.yul\":26300:26333   */\n      calldataload\n        /* \"#utility.yul\":26292:26298   */\n      dup3\n        /* \"#utility.yul\":26285:26334   */\n      sstore\n        /* \"#utility.yul\":26373:26374   */\n      0x01\n        /* \"#utility.yul\":26365:26371   */\n      dup3\n        /* \"#utility.yul\":26361:26375   */\n      add\n        /* \"#utility.yul\":26351:26375   */\n      swap2\n      pop\n        /* \"#utility.yul\":26420:26422   */\n      0x20\n        /* \"#utility.yul\":26409:26418   */\n      dup6\n        /* \"#utility.yul\":26405:26423   */\n      add\n        /* \"#utility.yul\":26392:26423   */\n      swap5\n      pop\n        /* \"#utility.yul\":26259:26263   */\n      0x20\n        /* \"#utility.yul\":26256:26257   */\n      dup2\n        /* \"#utility.yul\":26252:26264   */\n      add\n        /* \"#utility.yul\":26247:26264   */\n      swap1\n      pop\n        /* \"#utility.yul\":26222:26437   */\n      jump(tag_833)\n    tag_835:\n        /* \"#utility.yul\":26465:26471   */\n      dup7\n        /* \"#utility.yul\":26456:26463   */\n      dup4\n        /* \"#utility.yul\":26453:26472   */\n      lt\n        /* \"#utility.yul\":26450:26636   */\n      iszero\n      tag_836\n      jumpi\n        /* \"#utility.yul\":26530:26539   */\n      dup5\n        /* \"#utility.yul\":26525:26528   */\n      dup10\n        /* \"#utility.yul\":26521:26540   */\n      add\n        /* \"#utility.yul\":26508:26541   */\n      calldataload\n        /* \"#utility.yul\":26573:26621   */\n      tag_837\n        /* \"#utility.yul\":26615:26619   */\n      0x1f\n        /* \"#utility.yul\":26607:26613   */\n      dup10\n        /* \"#utility.yul\":26603:26620   */\n      and\n        /* \"#utility.yul\":26592:26601   */\n      dup3\n        /* \"#utility.yul\":26573:26621   */\n      tag_553\n      jump\t// in\n    tag_837:\n        /* \"#utility.yul\":26565:26571   */\n      dup4\n        /* \"#utility.yul\":26558:26622   */\n      sstore\n        /* \"#utility.yul\":26473:26636   */\n      pop\n        /* \"#utility.yul\":26450:26636   */\n    tag_836:\n        /* \"#utility.yul\":26682:26683   */\n      0x01\n        /* \"#utility.yul\":26678:26679   */\n      0x02\n        /* \"#utility.yul\":26670:26676   */\n      dup9\n        /* \"#utility.yul\":26666:26680   */\n      mul\n        /* \"#utility.yul\":26662:26684   */\n      add\n        /* \"#utility.yul\":26656:26660   */\n      dup9\n        /* \"#utility.yul\":26649:26685   */\n      sstore\n        /* \"#utility.yul\":26070:26695   */\n      pop\n      pop\n      pop\n        /* \"#utility.yul\":26033:26941   */\n    tag_828:\n      pop\n        /* \"#utility.yul\":25643:26947   */\n      pop\n      pop\n      pop\n        /* \"#utility.yul\":25544:26947   */\n      pop\n      pop\n      pop\n      jump\t// out\n        /* \"#utility.yul\":26953:27110   */\n    tag_555:\n        /* \"#utility.yul\":27093:27102   */\n      0x5a45524f5f544f00000000000000000000000000000000000000000000000000\n        /* \"#utility.yul\":27089:27090   */\n      0x00\n        /* \"#utility.yul\":27081:27087   */\n      dup3\n        /* \"#utility.yul\":27077:27091   */\n      add\n        /* \"#utility.yul\":27070:27103   */\n      mstore\n        /* \"#utility.yul\":26953:27110   */\n      pop\n      jump\t// out\n        /* \"#utility.yul\":27116:27481   */\n    tag_556:\n        /* \"#utility.yul\":27258:27261   */\n      0x00\n        /* \"#utility.yul\":27279:27345   */\n      tag_840\n        /* \"#utility.yul\":27343:27344   */\n      0x07\n        /* \"#utility.yul\":27338:27341   */\n      dup4\n        /* \"#utility.yul\":27279:27345   */\n      tag_495\n      jump\t// in\n    tag_840:\n        /* \"#utility.yul\":27272:27345   */\n      swap2\n      pop\n        /* \"#utility.yul\":27354:27447   */\n      tag_841\n        /* \"#utility.yul\":27443:27446   */\n      dup3\n        /* \"#utility.yul\":27354:27447   */\n      tag_555\n      jump\t// in\n    tag_841:\n        /* \"#utility.yul\":27472:27474   */\n      0x20\n        /* \"#utility.yul\":27467:27470   */\n      dup3\n        /* \"#utility.yul\":27463:27475   */\n      add\n        /* \"#utility.yul\":27456:27475   */\n      swap1\n      pop\n        /* \"#utility.yul\":27116:27481   */\n      swap2\n      swap1\n      pop\n      jump\t// out\n        /* \"#utility.yul\":27487:27906   */\n    tag_408:\n        /* \"#utility.yul\":27653:27657   */\n      0x00\n        /* \"#utility.yul\":27691:27693   */\n      0x20\n        /* \"#utility.yul\":27680:27689   */\n      dup3\n        /* \"#utility.yul\":27676:27694   */\n      add\n        /* \"#utility.yul\":27668:27694   */\n      swap1\n      pop\n        /* \"#utility.yul\":27740:27749   */\n      dup2\n        /* \"#utility.yul\":27734:27738   */\n      dup2\n        /* \"#utility.yul\":27730:27750   */\n      sub\n        /* \"#utility.yul\":27726:27727   */\n      0x00\n        /* \"#utility.yul\":27715:27724   */\n      dup4\n        /* \"#utility.yul\":27711:27728   */\n      add\n        /* \"#utility.yul\":27704:27751   */\n      mstore\n        /* \"#utility.yul\":27768:27899   */\n      tag_843\n        /* \"#utility.yul\":27894:27898   */\n      dup2\n        /* \"#utility.yul\":27768:27899   */\n      tag_556\n      jump\t// in\n    tag_843:\n        /* \"#utility.yul\":27760:27899   */\n      swap1\n      pop\n        /* \"#utility.yul\":27487:27906   */\n      swap2\n      swap1\n      pop\n      jump\t// out\n        /* \"#utility.yul\":27912:28082   */\n    tag_557:\n        /* \"#utility.yul\":28052:28074   */\n      0x494e53554646494349454e545f42414c414e4345000000000000000000000000\n        /* \"#utility.yul\":28048:28049   */\n      0x00\n        /* \"#utility.yul\":28040:28046   */\n      dup3\n        /* \"#utility.yul\":28036:28050   */\n      add\n        /* \"#utility.yul\":28029:28075   */\n      mstore\n        /* \"#utility.yul\":27912:28082   */\n      pop\n      jump\t// out\n        /* \"#utility.yul\":28088:28454   */\n    tag_558:\n        /* \"#utility.yul\":28230:28233   */\n      0x00\n        /* \"#utility.yul\":28251:28318   */\n      tag_846\n        /* \"#utility.yul\":28315:28317   */\n      0x14\n        /* \"#utility.yul\":28310:28313   */\n      dup4\n        /* \"#utility.yul\":28251:28318   */\n      tag_495\n      jump\t// in\n    tag_846:\n        /* \"#utility.yul\":28244:28318   */\n      swap2\n      pop\n        /* \"#utility.yul\":28327:28420   */\n      tag_847\n        /* \"#utility.yul\":28416:28419   */\n      dup3\n        /* \"#utility.yul\":28327:28420   */\n      tag_557\n      jump\t// in\n    tag_847:\n        /* \"#utility.yul\":28445:28447   */\n      0x20\n        /* \"#utility.yul\":28440:28443   */\n      dup3\n        /* \"#utility.yul\":28436:28448   */\n      add\n        /* \"#utility.yul\":28429:28448   */\n      swap1\n      pop\n        /* \"#utility.yul\":28088:28454   */\n      swap2\n      swap1\n      pop\n      jump\t// out\n        /* \"#utility.yul\":28460:28879   */\n    tag_411:\n        /* \"#utility.yul\":28626:28630   */\n      0x00\n        /* \"#utility.yul\":28664:28666   */\n      0x20\n        /* \"#utility.yul\":28653:28662   */\n      dup3\n        /* \"#utility.yul\":28649:28667   */\n      add\n        /* \"#utility.yul\":28641:28667   */\n      swap1\n      pop\n        /* \"#utility.yul\":28713:28722   */\n      dup2\n        /* \"#utility.yul\":28707:28711   */\n      dup2\n        /* \"#utility.yul\":28703:28723   */\n      sub\n        /* \"#utility.yul\":28699:28700   */\n      0x00\n        /* \"#utility.yul\":28688:28697   */\n      dup4\n        /* \"#utility.yul\":28684:28701   */\n      add\n        /* \"#utility.yul\":28677:28724   */\n      mstore\n        /* \"#utility.yul\":28741:28872   */\n      tag_849\n        /* \"#utility.yul\":28867:28871   */\n      dup2\n        /* \"#utility.yul\":28741:28872   */\n      tag_558\n      jump\t// in\n    tag_849:\n        /* \"#utility.yul\":28733:28872   */\n      swap1\n      pop\n        /* \"#utility.yul\":28460:28879   */\n      swap2\n      swap1\n      pop\n      jump\t// out\n        /* \"#utility.yul\":28885:29044   */\n    tag_559:\n        /* \"#utility.yul\":29025:29036   */\n      0x5a45524f5f494d504c0000000000000000000000000000000000000000000000\n        /* \"#utility.yul\":29021:29022   */\n      0x00\n        /* \"#utility.yul\":29013:29019   */\n      dup3\n        /* \"#utility.yul\":29009:29023   */\n      add\n        /* \"#utility.yul\":29002:29037   */\n      mstore\n        /* \"#utility.yul\":28885:29044   */\n      pop\n      jump\t// out\n        /* \"#utility.yul\":29050:29415   */\n    tag_560:\n        /* \"#utility.yul\":29192:29195   */\n      0x00\n        /* \"#utility.yul\":29213:29279   */\n      tag_852\n        /* \"#utility.yul\":29277:29278   */\n      0x09\n        /* \"#utility.yul\":29272:29275   */\n      dup4\n        /* \"#utility.yul\":29213:29279   */\n      tag_495\n      jump\t// in\n    tag_852:\n        /* \"#utility.yul\":29206:29279   */\n      swap2\n      pop\n        /* \"#utility.yul\":29288:29381   */\n      tag_853\n        /* \"#utility.yul\":29377:29380   */\n      dup3\n        /* \"#utility.yul\":29288:29381   */\n      tag_559\n      jump\t// in\n    tag_853:\n        /* \"#utility.yul\":29406:29408   */\n      0x20\n        /* \"#utility.yul\":29401:29404   */\n      dup3\n        /* \"#utility.yul\":29397:29409   */\n      add\n        /* \"#utility.yul\":29390:29409   */\n      swap1\n      pop\n        /* \"#utility.yul\":29050:29415   */\n      swap2\n      swap1\n      pop\n      jump\t// out\n        /* \"#utility.yul\":29421:29840   */\n    tag_421:\n        /* \"#utility.yul\":29587:29591   */\n      0x00\n        /* \"#utility.yul\":29625:29627   */\n      0x20\n        /* \"#utility.yul\":29614:29623   */\n      dup3\n        /* \"#utility.yul\":29610:29628   */\n      add\n        /* \"#utility.yul\":29602:29628   */\n      swap1\n      pop\n        /* \"#utility.yul\":29674:29683   */\n      dup2\n        /* \"#utility.yul\":29668:29672   */\n      dup2\n        /* \"#utility.yul\":29664:29684   */\n      sub\n        /* \"#utility.yul\":29660:29661   */\n      0x00\n        /* \"#utility.yul\":29649:29658   */\n      dup4\n        /* \"#utility.yul\":29645:29662   */\n      add\n        /* \"#utility.yul\":29638:29685   */\n      mstore\n        /* \"#utility.yul\":29702:29833   */\n      tag_855\n        /* \"#utility.yul\":29828:29832   */\n      dup2\n        /* \"#utility.yul\":29702:29833   */\n      tag_560\n      jump\t// in\n    tag_855:\n        /* \"#utility.yul\":29694:29833   */\n      swap1\n      pop\n        /* \"#utility.yul\":29421:29840   */\n      swap2\n      swap1\n      pop\n      jump\t// out\n        /* \"#utility.yul\":29846:29944   */\n    tag_561:\n        /* \"#utility.yul\":29897:29903   */\n      0x00\n        /* \"#utility.yul\":29931:29936   */\n      dup2\n        /* \"#utility.yul\":29925:29937   */\n      mload\n        /* \"#utility.yul\":29915:29937   */\n      swap1\n      pop\n        /* \"#utility.yul\":29846:29944   */\n      swap2\n      swap1\n      pop\n      jump\t// out\n        /* \"#utility.yul\":29950:30097   */\n    tag_562:\n        /* \"#utility.yul\":30051:30062   */\n      0x00\n        /* \"#utility.yul\":30088:30091   */\n      dup2\n        /* \"#utility.yul\":30073:30091   */\n      swap1\n      pop\n        /* \"#utility.yul\":29950:30097   */\n      swap3\n      swap2\n      pop\n      pop\n      jump\t// out\n        /* \"#utility.yul\":30103:30489   */\n    tag_563:\n        /* \"#utility.yul\":30207:30210   */\n      0x00\n        /* \"#utility.yul\":30235:30273   */\n      tag_859\n        /* \"#utility.yul\":30267:30272   */\n      dup3\n        /* \"#utility.yul\":30235:30273   */\n      tag_561\n      jump\t// in\n    tag_859:\n        /* \"#utility.yul\":30289:30377   */\n      tag_860\n        /* \"#utility.yul\":30370:30376   */\n      dup2\n        /* \"#utility.yul\":30365:30368   */\n      dup6\n        /* \"#utility.yul\":30289:30377   */\n      tag_562\n      jump\t// in\n    tag_860:\n        /* \"#utility.yul\":30282:30377   */\n      swap4\n      pop\n        /* \"#utility.yul\":30386:30451   */\n      tag_861\n        /* \"#utility.yul\":30444:30450   */\n      dup2\n        /* \"#utility.yul\":30439:30442   */\n      dup6\n        /* \"#utility.yul\":30432:30436   */\n      0x20\n        /* \"#utility.yul\":30425:30430   */\n      dup7\n        /* \"#utility.yul\":30421:30437   */\n      add\n        /* \"#utility.yul\":30386:30451   */\n      tag_496\n      jump\t// in\n    tag_861:\n        /* \"#utility.yul\":30476:30482   */\n      dup1\n        /* \"#utility.yul\":30471:30474   */\n      dup5\n        /* \"#utility.yul\":30467:30483   */\n      add\n        /* \"#utility.yul\":30460:30483   */\n      swap2\n      pop\n        /* \"#utility.yul\":30211:30489   */\n      pop\n        /* \"#utility.yul\":30103:30489   */\n      swap3\n      swap2\n      pop\n      pop\n      jump\t// out\n        /* \"#utility.yul\":30495:30766   */\n    tag_427:\n        /* \"#utility.yul\":30625:30628   */\n      0x00\n        /* \"#utility.yul\":30647:30740   */\n      tag_863\n        /* \"#utility.yul\":30736:30739   */\n      dup3\n        /* \"#utility.yul\":30727:30733   */\n      dup5\n        /* \"#utility.yul\":30647:30740   */\n      tag_563\n      jump\t// in\n    tag_863:\n        /* \"#utility.yul\":30640:30740   */\n      swap2\n      pop\n        /* \"#utility.yul\":30757:30760   */\n      dup2\n        /* \"#utility.yul\":30750:30760   */\n      swap1\n      pop\n        /* \"#utility.yul\":30495:30766   */\n      swap3\n      swap2\n      pop\n      pop\n      jump\t// out\n        /* \"#utility.yul\":30772:30932   */\n    tag_564:\n        /* \"#utility.yul\":30912:30924   */\n      0x5a45524f5f415353455400000000000000000000000000000000000000000000\n        /* \"#utility.yul\":30908:30909   */\n      0x00\n        /* \"#utility.yul\":30900:30906   */\n      dup3\n        /* \"#utility.yul\":30896:30910   */\n      add\n        /* \"#utility.yul\":30889:30925   */\n      mstore\n        /* \"#utility.yul\":30772:30932   */\n      pop\n      jump\t// out\n        /* \"#utility.yul\":30938:31304   */\n    tag_565:\n        /* \"#utility.yul\":31080:31083   */\n      0x00\n        /* \"#utility.yul\":31101:31168   */\n      tag_866\n        /* \"#utility.yul\":31165:31167   */\n      0x0a\n        /* \"#utility.yul\":31160:31163   */\n      dup4\n        /* \"#utility.yul\":31101:31168   */\n      tag_495\n      jump\t// in\n    tag_866:\n        /* \"#utility.yul\":31094:31168   */\n      swap2\n      pop\n        /* \"#utility.yul\":31177:31270   */\n      tag_867\n        /* \"#utility.yul\":31266:31269   */\n      dup3\n        /* \"#utility.yul\":31177:31270   */\n      tag_564\n      jump\t// in\n    tag_867:\n        /* \"#utility.yul\":31295:31297   */\n      0x20\n        /* \"#utility.yul\":31290:31293   */\n      dup3\n        /* \"#utility.yul\":31286:31298   */\n      add\n        /* \"#utility.yul\":31279:31298   */\n      swap1\n      pop\n        /* \"#utility.yul\":30938:31304   */\n      swap2\n      swap1\n      pop\n      jump\t// out\n        /* \"#utility.yul\":31310:31729   */\n    tag_481:\n        /* \"#utility.yul\":31476:31480   */\n      0x00\n        /* \"#utility.yul\":31514:31516   */\n      0x20\n        /* \"#utility.yul\":31503:31512   */\n      dup3\n        /* \"#utility.yul\":31499:31517   */\n      add\n        /* \"#utility.yul\":31491:31517   */\n      swap1\n      pop\n        /* \"#utility.yul\":31563:31572   */\n      dup2\n        /* \"#utility.yul\":31557:31561   */\n      dup2\n        /* \"#utility.yul\":31553:31573   */\n      sub\n        /* \"#utility.yul\":31549:31550   */\n      0x00\n        /* \"#utility.yul\":31538:31547   */\n      dup4\n        /* \"#utility.yul\":31534:31551   */\n      add\n        /* \"#utility.yul\":31527:31574   */\n      mstore\n        /* \"#utility.yul\":31591:31722   */\n      tag_869\n        /* \"#utility.yul\":31717:31721   */\n      dup2\n        /* \"#utility.yul\":31591:31722   */\n      tag_565\n      jump\t// in\n    tag_869:\n        /* \"#utility.yul\":31583:31722   */\n      swap1\n      pop\n        /* \"#utility.yul\":31310:31729   */\n      swap2\n      swap1\n      pop\n      jump\t// out\n        /* \"#utility.yul\":31735:33130   */\n    tag_490:\n        /* \"#utility.yul\":31852:31889   */\n      tag_871\n        /* \"#utility.yul\":31885:31888   */\n      dup3\n        /* \"#utility.yul\":31852:31889   */\n      tag_494\n      jump\t// in\n    tag_871:\n        /* \"#utility.yul\":31954:31972   */\n      0xffffffffffffffff\n        /* \"#utility.yul\":31946:31952   */\n      dup2\n        /* \"#utility.yul\":31943:31973   */\n      gt\n        /* \"#utility.yul\":31940:31996   */\n      iszero\n      tag_872\n      jumpi\n        /* \"#utility.yul\":31976:31994   */\n      tag_873\n      tag_539\n      jump\t// in\n    tag_873:\n        /* \"#utility.yul\":31940:31996   */\n    tag_872:\n        /* \"#utility.yul\":32020:32058   */\n      tag_874\n        /* \"#utility.yul\":32052:32056   */\n      dup3\n        /* \"#utility.yul\":32046:32057   */\n      sload\n        /* \"#utility.yul\":32020:32058   */\n      tag_215\n      jump\t// in\n    tag_874:\n        /* \"#utility.yul\":32105:32172   */\n      tag_875\n        /* \"#utility.yul\":32165:32171   */\n      dup3\n        /* \"#utility.yul\":32157:32163   */\n      dup3\n        /* \"#utility.yul\":32151:32155   */\n      dup6\n        /* \"#utility.yul\":32105:32172   */\n      tag_551\n      jump\t// in\n    tag_875:\n        /* \"#utility.yul\":32199:32200   */\n      0x00\n        /* \"#utility.yul\":32223:32227   */\n      0x20\n        /* \"#utility.yul\":32210:32227   */\n      swap1\n      pop\n        /* \"#utility.yul\":32255:32257   */\n      0x1f\n        /* \"#utility.yul\":32247:32253   */\n      dup4\n        /* \"#utility.yul\":32244:32258   */\n      gt\n        /* \"#utility.yul\":32272:32273   */\n      0x01\n        /* \"#utility.yul\":32267:32885   */\n      dup2\n      eq\n      tag_877\n      jumpi\n        /* \"#utility.yul\":32929:32930   */\n      0x00\n        /* \"#utility.yul\":32946:32952   */\n      dup5\n        /* \"#utility.yul\":32943:33020   */\n      iszero\n      tag_878\n      jumpi\n        /* \"#utility.yul\":32995:33004   */\n      dup3\n        /* \"#utility.yul\":32990:32993   */\n      dup8\n        /* \"#utility.yul\":32986:33005   */\n      add\n        /* \"#utility.yul\":32980:33006   */\n      mload\n        /* \"#utility.yul\":32971:33006   */\n      swap1\n      pop\n        /* \"#utility.yul\":32943:33020   */\n    tag_878:\n        /* \"#utility.yul\":33046:33113   */\n      tag_879\n        /* \"#utility.yul\":33106:33112   */\n      dup6\n        /* \"#utility.yul\":33099:33104   */\n      dup3\n        /* \"#utility.yul\":33046:33113   */\n      tag_554\n      jump\t// in\n    tag_879:\n        /* \"#utility.yul\":33040:33044   */\n      dup7\n        /* \"#utility.yul\":33033:33114   */\n      sstore\n        /* \"#utility.yul\":32902:33124   */\n      pop\n        /* \"#utility.yul\":32237:33124   */\n      jump(tag_876)\n        /* \"#utility.yul\":32267:32885   */\n    tag_877:\n        /* \"#utility.yul\":32319:32323   */\n      0x1f\n        /* \"#utility.yul\":32315:32324   */\n      not\n        /* \"#utility.yul\":32307:32313   */\n      dup5\n        /* \"#utility.yul\":32303:32325   */\n      and\n        /* \"#utility.yul\":32353:32390   */\n      tag_880\n        /* \"#utility.yul\":32385:32389   */\n      dup7\n        /* \"#utility.yul\":32353:32390   */\n      tag_540\n      jump\t// in\n    tag_880:\n        /* \"#utility.yul\":32412:32413   */\n      0x00\n        /* \"#utility.yul\":32426:32634   */\n    tag_881:\n        /* \"#utility.yul\":32440:32447   */\n      dup3\n        /* \"#utility.yul\":32437:32438   */\n      dup2\n        /* \"#utility.yul\":32434:32448   */\n      lt\n        /* \"#utility.yul\":32426:32634   */\n      iszero\n      tag_883\n      jumpi\n        /* \"#utility.yul\":32519:32528   */\n      dup5\n        /* \"#utility.yul\":32514:32517   */\n      dup10\n        /* \"#utility.yul\":32510:32529   */\n      add\n        /* \"#utility.yul\":32504:32530   */\n      mload\n        /* \"#utility.yul\":32496:32502   */\n      dup3\n        /* \"#utility.yul\":32489:32531   */\n      sstore\n        /* \"#utility.yul\":32570:32571   */\n      0x01\n        /* \"#utility.yul\":32562:32568   */\n      dup3\n        /* \"#utility.yul\":32558:32572   */\n      add\n        /* \"#utility.yul\":32548:32572   */\n      swap2\n      pop\n        /* \"#utility.yul\":32617:32619   */\n      0x20\n        /* \"#utility.yul\":32606:32615   */\n      dup6\n        /* \"#utility.yul\":32602:32620   */\n      add\n        /* \"#utility.yul\":32589:32620   */\n      swap5\n      pop\n        /* \"#utility.yul\":32463:32467   */\n      0x20\n        /* \"#utility.yul\":32460:32461   */\n      dup2\n        /* \"#utility.yul\":32456:32468   */\n      add\n        /* \"#utility.yul\":32451:32468   */\n      swap1\n      pop\n        /* \"#utility.yul\":32426:32634   */\n      jump(tag_881)\n    tag_883:\n        /* \"#utility.yul\":32662:32668   */\n      dup7\n        /* \"#utility.yul\":32653:32660   */\n      dup4\n        /* \"#utility.yul\":32650:32669   */\n      lt\n        /* \"#utility.yul\":32647:32826   */\n      iszero\n      tag_884\n      jumpi\n        /* \"#utility.yul\":32720:32729   */\n      dup5\n        /* \"#utility.yul\":32715:32718   */\n      dup10\n        /* \"#utility.yul\":32711:32730   */\n      add\n        /* \"#utility.yul\":32705:32731   */\n      mload\n        /* \"#utility.yul\":32763:32811   */\n      tag_885\n        /* \"#utility.yul\":32805:32809   */\n      0x1f\n        /* \"#utility.yul\":32797:32803   */\n      dup10\n        /* \"#utility.yul\":32793:32810   */\n      and\n        /* \"#utility.yul\":32782:32791   */\n      dup3\n        /* \"#utility.yul\":32763:32811   */\n      tag_553\n      jump\t// in\n    tag_885:\n        /* \"#utility.yul\":32755:32761   */\n      dup4\n        /* \"#utility.yul\":32748:32812   */\n      sstore\n        /* \"#utility.yul\":32670:32826   */\n      pop\n        /* \"#utility.yul\":32647:32826   */\n    tag_884:\n        /* \"#utility.yul\":32872:32873   */\n      0x01\n        /* \"#utility.yul\":32868:32869   */\n      0x02\n        /* \"#utility.yul\":32860:32866   */\n      dup9\n        /* \"#utility.yul\":32856:32870   */\n      mul\n        /* \"#utility.yul\":32852:32874   */\n      add\n        /* \"#utility.yul\":32846:32850   */\n      dup9\n        /* \"#utility.yul\":32839:32875   */\n      sstore\n        /* \"#utility.yul\":32274:32885   */\n      pop\n      pop\n      pop\n        /* \"#utility.yul\":32237:33124   */\n    tag_876:\n      pop\n        /* \"#utility.yul\":31827:33130   */\n      pop\n      pop\n      pop\n        /* \"#utility.yul\":31735:33130   */\n      pop\n      pop\n      jump\t// out\n\n    auxdata: 0xa26469706673582212204f59c49c62d0aea4a0c8a22d0ddae0bf31737c346a0e23c1ef14ad7580aa21d164736f6c634300081e0033\n}\n",
				"bytecode": {
					"linkReferences": {},
					"object": "60a06040523073ffffffffffffffffffffffffffffffffffffffff1660809073ffffffffffffffffffffffffffffffffffffffff16815250348015610042575f5ffd5b50608051613c916100775f395f8181610c3b01528181610cc901528181610e3d01528181610ecb0152610fbe0152613c915ff3fe6080604052600436106101d7575f3560e01c80636e553f6511610101578063a9059cbb11610094578063c6e6f59211610063578063c6e6f592146106f9578063d3a417a214610735578063dd62ed3e1461075d578063ded96d4814610799576101d7565b8063a9059cbb14610609578063b1283e7714610645578063b460af9414610681578063ba087652146106bd576101d7565b806392f6b31c116100d057806392f6b31c1461055157806393e306331461057b57806394bf804d146105a357806395d89b41146105df576101d7565b80636e553f65146104735780636ec934da146104af57806370a08231146104eb5780638da5cb5b14610527576101d7565b80633659cfe6116101795780634f1ef286116101485780634f1ef286146103dd57806352d1902d146103f957806365745f511461042357806366adf46a1461044b576101d7565b80633659cfe61461033757806338d52e0f1461035f57806341b3d185146103895780634a79d50c146103b3576101d7565b8063095ea7b3116101b5578063095ea7b31461026b57806318160ddd146102a757806323b872dd146102d1578063313ce5671461030d576101d7565b806301e1d114146101db57806306fdde031461020557806307a2d13a1461022f575b5f5ffd5b3480156101e6575f5ffd5b506101ef6107c1565b6040516101fc9190612bd7565b60405180910390f35b348015610210575f5ffd5b506102196109a4565b6040516102269190612c60565b60405180910390f35b34801561023a575f5ffd5b5061025560048036038101906102509190612cb2565b610a34565b6040516102629190612bd7565b60405180910390f35b348015610276575f5ffd5b50610291600480360381019061028c9190612d37565b610aed565b60405161029e9190612d8f565b60405180910390f35b3480156102b2575f5ffd5b506102bb610b03565b6040516102c89190612bd7565b60405180910390f35b3480156102dc575f5ffd5b506102f760048036038101906102f29190612da8565b610b0c565b6040516103049190612d8f565b60405180910390f35b348015610318575f5ffd5b50610321610c21565b60405161032e9190612bd7565b60405180910390f35b348015610342575f5ffd5b5061035d60048036038101906103589190612df8565b610c39565b005b34801561036a575f5ffd5b50610373610d81565b6040516103809190612e32565b60405180910390f35b348015610394575f5ffd5b5061039d610da9565b6040516103aa9190612bd7565b60405180910390f35b3480156103be575f5ffd5b506103c7610daf565b6040516103d49190612c60565b60405180910390f35b6103f760048036038101906103f29190612eac565b610e3b565b005b348015610404575f5ffd5b5061040d610fbb565b60405161041a9190612f21565b60405180910390f35b34801561042e575f5ffd5b5061044960048036038101906104449190612d37565b611072565b005b348015610456575f5ffd5b50610471600480360381019061046c9190612d37565b611199565b005b34801561047e575f5ffd5b5061049960048036038101906104949190612f3a565b611343565b6040516104a69190612bd7565b60405180910390f35b3480156104ba575f5ffd5b506104d560048036038101906104d09190612df8565b611369565b6040516104e29190612d8f565b60405180910390f35b3480156104f6575f5ffd5b50610511600480360381019061050c9190612df8565b611386565b60405161051e9190612bd7565b60405180910390f35b348015610532575f5ffd5b5061053b6113cc565b6040516105489190612e32565b60405180910390f35b34801561055c575f5ffd5b506105656113f1565b6040516105729190612bd7565b60405180910390f35b348015610586575f5ffd5b506105a1600480360381019061059c9190612df8565b611476565b005b3480156105ae575f5ffd5b506105c960048036038101906105c49190612f3a565b611610565b6040516105d69190612bd7565b60405180910390f35b3480156105ea575f5ffd5b506105f36117b6565b6040516106009190612c60565b60405180910390f35b348015610614575f5ffd5b5061062f600480360381019061062a9190612d37565b611846565b60405161063c9190612d8f565b60405180910390f35b348015610650575f5ffd5b5061066b60048036038101906106669190612cb2565b61185c565b6040516106789190612e32565b60405180910390f35b34801561068c575f5ffd5b506106a760048036038101906106a29190612f78565b611897565b6040516106b49190612bd7565b60405180910390f35b3480156106c8575f5ffd5b506106e360048036038101906106de9190612f78565b6118bf565b6040516106f09190612bd7565b60405180910390f35b348015610704575f5ffd5b5061071f600480360381019061071a9190612cb2565b611afc565b60405161072c9190612bd7565b60405180910390f35b348015610740575f5ffd5b5061075b60048036038101906107569190612df8565b611bb5565b005b348015610768575f5ffd5b50610783600480360381019061077e9190612fc8565b611c87565b6040516107909190612bd7565b60405180910390f35b3480156107a4575f5ffd5b506107bf60048036038101906107ba919061305b565b611d09565b005b5f6107ca610d81565b73ffffffffffffffffffffffffffffffffffffffff166370a08231306040518263ffffffff1660e01b81526004016108029190612e32565b602060405180830381865afa15801561081d573d5f5f3e3d5ffd5b505050506040513d601f19601f820116820180604052508101906108419190613158565b90505f5f90505b600a805490508110156109a057600b5f600a838154811061086c5761086b613183565b5b905f5260205f20015f9054906101000a900473ffffffffffffffffffffffffffffffffffffffff1673ffffffffffffffffffffffffffffffffffffffff1673ffffffffffffffffffffffffffffffffffffffff1681526020019081526020015f205f9054906101000a900460ff161561099557600a81815481106108f3576108f2613183565b5b905f5260205f20015f9054906101000a900473ffffffffffffffffffffffffffffffffffffffff1673ffffffffffffffffffffffffffffffffffffffff1663c82f6d2f6040518163ffffffff1660e01b8152600401602060405180830381865afa158015610963573d5f5f3e3d5ffd5b505050506040513d601f19601f820116820180604052508101906109879190613158565b8261099291906131dd565b91505b806001019050610848565b5090565b6060600180546109b39061323d565b80601f01602080910402602001604051908101604052809291908181526020018280546109df9061323d565b8015610a2a5780601f10610a0157610100808354040283529160200191610a2a565b820191905f5260205f20905b815481529060010190602001808311610a0d57829003601f168201915b5050505050905090565b5f5f3073ffffffffffffffffffffffffffffffffffffffff166318160ddd6040518163ffffffff1660e01b8152600401602060405180830381865afa158015610a7f573d5f5f3e3d5ffd5b505050506040513d601f19601f82011682018060405250810190610aa39190613158565b90505f610aae6107c1565b90505f821480610abd57505f81145b15610acc578392505050610ae8565b818185610ad9919061326d565b610ae391906132db565b925050505b919050565b5f610af9338484611e99565b6001905092915050565b5f600454905090565b5f5f60065f8673ffffffffffffffffffffffffffffffffffffffff1673ffffffffffffffffffffffffffffffffffffffff1681526020019081526020015f205f3373ffffffffffffffffffffffffffffffffffffffff1673ffffffffffffffffffffffffffffffffffffffff1681526020019081526020015f205490507fffffffffffffffffffffffffffffffffffffffffffffffffffffffffffffffff8114610c0a5782811015610bf3576040517f08c379a0000000000000000000000000000000000000000000000000000000008152600401610bea90613355565b60405180910390fd5b610c0985338584610c049190613373565b611e99565b5b610c15858585611f80565b60019150509392505050565b5f60035f9054906101000a900460ff1660ff16905090565b7f000000000000000000000000000000000000000000000000000000000000000073ffffffffffffffffffffffffffffffffffffffff163073ffffffffffffffffffffffffffffffffffffffff1603610cc7576040517f08c379a0000000000000000000000000000000000000000000000000000000008152600401610cbe906133f0565b60405180910390fd5b7f000000000000000000000000000000000000000000000000000000000000000073ffffffffffffffffffffffffffffffffffffffff16610d06612174565b73ffffffffffffffffffffffffffffffffffffffff1614610d5c576040517f08c379a0000000000000000000000000000000000000000000000000000000008152600401610d5390613458565b60405180910390fd5b610d65816121a3565b610d7e8160405180602001604052805f8152505f6121fe565b50565b5f60075f9054906101000a900473ffffffffffffffffffffffffffffffffffffffff16905090565b60095481565b60088054610dbc9061323d565b80601f0160208091040260200160405190810160405280929190818152602001828054610de89061323d565b8015610e335780601f10610e0a57610100808354040283529160200191610e33565b820191905f5260205f20905b815481529060010190602001808311610e1657829003601f168201915b505050505081565b7f000000000000000000000000000000000000000000000000000000000000000073ffffffffffffffffffffffffffffffffffffffff163073ffffffffffffffffffffffffffffffffffffffff1603610ec9576040517f08c379a0000000000000000000000000000000000000000000000000000000008152600401610ec0906133f0565b60405180910390fd5b7f000000000000000000000000000000000000000000000000000000000000000073ffffffffffffffffffffffffffffffffffffffff16610f08612174565b73ffffffffffffffffffffffffffffffffffffffff1614610f5e576040517f08c379a0000000000000000000000000000000000000000000000000000000008152600401610f5590613458565b60405180910390fd5b610f67836121a3565b610fb68383838080601f0160208091040260200160405190810160405280939291908181526020018383808284375f81840152601f19601f8201169050808301925050505050505060016121fe565b505050565b5f7f000000000000000000000000000000000000000000000000000000000000000073ffffffffffffffffffffffffffffffffffffffff163073ffffffffffffffffffffffffffffffffffffffff161461104a576040517f08c379a0000000000000000000000000000000000000000000000000000000008152600401611041906134c0565b60405180910390fd5b7f360894a13ba1a3210667c828492db98dca3e2076cc3735a920a3ca505d382bbc5f1b905090565b5f60029054906101000a900473ffffffffffffffffffffffffffffffffffffffff1673ffffffffffffffffffffffffffffffffffffffff163373ffffffffffffffffffffffffffffffffffffffff16146110ca575f5ffd5b600b5f8373ffffffffffffffffffffffffffffffffffffffff1673ffffffffffffffffffffffffffffffffffffffff1681526020019081526020015f205f9054906101000a900460ff1661111c575f5ffd5b6111246113f1565b81111561112f575f5ffd5b8173ffffffffffffffffffffffffffffffffffffffff16633e3722b6826040518263ffffffff1660e01b81526004016111689190612bd7565b5f604051808303815f87803b15801561117f575f5ffd5b505af1158015611191573d5f5f3e3d5ffd5b505050505050565b5f60029054906101000a900473ffffffffffffffffffffffffffffffffffffffff1673ffffffffffffffffffffffffffffffffffffffff163373ffffffffffffffffffffffffffffffffffffffff16146111f1575f5ffd5b600b5f8373ffffffffffffffffffffffffffffffffffffffff1673ffffffffffffffffffffffffffffffffffffffff1681526020019081526020015f205f9054906101000a900460ff16611243575f5ffd5b61124b6113f1565b811115611256575f5ffd5b61125e610d81565b73ffffffffffffffffffffffffffffffffffffffff1663a9059cbb83836040518363ffffffff1660e01b81526004016112989291906134de565b6020604051808303815f875af11580156112b4573d5f5f3e3d5ffd5b505050506040513d601f19601f820116820180604052508101906112d8919061352f565b508173ffffffffffffffffffffffffffffffffffffffff16634b92917a826040518263ffffffff1660e01b81526004016113129190612bd7565b5f604051808303815f87803b158015611329575f5ffd5b505af115801561133b573d5f5f3e3d5ffd5b505050505050565b5f61134c6113f1565b831115611357575f5ffd5b611361838361233b565b905092915050565b600b602052805f5260405f205f915054906101000a900460ff1681565b5f60055f8373ffffffffffffffffffffffffffffffffffffffff1673ffffffffffffffffffffffffffffffffffffffff1681526020019081526020015f20549050919050565b5f60029054906101000a900473ffffffffffffffffffffffffffffffffffffffff1681565b5f6113fa610d81565b73ffffffffffffffffffffffffffffffffffffffff166370a08231306040518263ffffffff1660e01b81526004016114329190612e32565b602060405180830381865afa15801561144d573d5f5f3e3d5ffd5b505050506040513d601f19601f820116820180604052508101906114719190613158565b905090565b5f60029054906101000a900473ffffffffffffffffffffffffffffffffffffffff1673ffffffffffffffffffffffffffffffffffffffff163373ffffffffffffffffffffffffffffffffffffffff16146114ce575f5ffd5b5f73ffffffffffffffffffffffffffffffffffffffff168173ffffffffffffffffffffffffffffffffffffffff1603611505575f5ffd5b600b5f8273ffffffffffffffffffffffffffffffffffffffff1673ffffffffffffffffffffffffffffffffffffffff1681526020019081526020015f205f9054906101000a900460ff1615611558575f5ffd5b6001600b5f8373ffffffffffffffffffffffffffffffffffffffff1673ffffffffffffffffffffffffffffffffffffffff1681526020019081526020015f205f6101000a81548160ff021916908315150217905550600a81908060018154018082558091505060019003905f5260205f20015f9091909190916101000a81548173ffffffffffffffffffffffffffffffffffffffff021916908373ffffffffffffffffffffffffffffffffffffffff16021790555050565b5f5f8311611653576040517f08c379a000000000000000000000000000000000000000000000000000000000815260040161164a906135a4565b60405180910390fd5b61165c83610a34565b90505f81116116a0576040517f08c379a00000000000000000000000000000000000000000000000000000000081526004016116979061360c565b60405180910390fd5b60075f9054906101000a900473ffffffffffffffffffffffffffffffffffffffff1673ffffffffffffffffffffffffffffffffffffffff166323b872dd3330846040518463ffffffff1660e01b81526004016116fe9392919061362a565b6020604051808303815f875af115801561171a573d5f5f3e3d5ffd5b505050506040513d601f19601f8201168201806040525081019061173e919061352f565b5061174982846124e1565b8173ffffffffffffffffffffffffffffffffffffffff163373ffffffffffffffffffffffffffffffffffffffff167fdcbc1c05240f31ff3ad067ef1ee35ce4997762752e3a095284754544f4c709d783866040516117a892919061365f565b60405180910390a392915050565b6060600280546117c59061323d565b80601f01602080910402602001604051908101604052809291908181526020018280546117f19061323d565b801561183c5780601f106118135761010080835404028352916020019161183c565b820191905f5260205f20905b81548152906001019060200180831161181f57829003601f168201915b5050505050905090565b5f611852338484611f80565b6001905092915050565b600a818154811061186b575f80fd5b905f5260205f20015f915054906101000a900473ffffffffffffffffffffffffffffffffffffffff1681565b5f6118a06113f1565b8411156118ab575f5ffd5b6118b6848484612623565b90509392505050565b5f5f8411611902576040517f08c379a00000000000000000000000000000000000000000000000000000000081526004016118f9906135a4565b60405180910390fd5b61190b84610a34565b90503373ffffffffffffffffffffffffffffffffffffffff168273ffffffffffffffffffffffffffffffffffffffff16146119d0575f61194b8333611c87565b905084811015611990576040517f08c379a000000000000000000000000000000000000000000000000000000000815260040161198790613355565b60405180910390fd5b7fffffffffffffffffffffffffffffffffffffffffffffffffffffffffffffffff81146119ce576119cd833387846119c89190613373565b611e99565b5b505b6119da8285612880565b60075f9054906101000a900473ffffffffffffffffffffffffffffffffffffffff1673ffffffffffffffffffffffffffffffffffffffff1663a9059cbb84836040518363ffffffff1660e01b8152600401611a369291906134de565b6020604051808303815f875af1158015611a52573d5f5f3e3d5ffd5b505050506040513d601f19601f82011682018060405250810190611a76919061352f565b508173ffffffffffffffffffffffffffffffffffffffff168373ffffffffffffffffffffffffffffffffffffffff163373ffffffffffffffffffffffffffffffffffffffff167ffbde797d201c681b91056529119e0b02407c7bb96a4a2c75c01fc9667232c8db8488604051611aed92919061365f565b60405180910390a49392505050565b5f5f3073ffffffffffffffffffffffffffffffffffffffff166318160ddd6040518163ffffffff1660e01b8152600401602060405180830381865afa158015611b47573d5f5f3e3d5ffd5b505050506040513d601f19601f82011682018060405250810190611b6b9190613158565b90505f611b766107c1565b90505f821480611b8557505f81145b15611b94578392505050611bb0565b808285611ba1919061326d565b611bab91906132db565b925050505b919050565b5f60029054906101000a900473ffffffffffffffffffffffffffffffffffffffff1673ffffffffffffffffffffffffffffffffffffffff163373ffffffffffffffffffffffffffffffffffffffff1614611c0d575f5ffd5b5f73ffffffffffffffffffffffffffffffffffffffff168173ffffffffffffffffffffffffffffffffffffffff1603611c44575f5ffd5b805f60026101000a81548173ffffffffffffffffffffffffffffffffffffffff021916908373ffffffffffffffffffffffffffffffffffffffff16021790555050565b5f60065f8473ffffffffffffffffffffffffffffffffffffffff1673ffffffffffffffffffffffffffffffffffffffff1681526020019081526020015f205f8373ffffffffffffffffffffffffffffffffffffffff1673ffffffffffffffffffffffffffffffffffffffff1681526020019081526020015f2054905092915050565b5f5f9054906101000a900460ff161580611d2e57505f60019054906101000a900460ff165b611d6d576040517f08c379a0000000000000000000000000000000000000000000000000000000008152600401611d64906136d0565b60405180910390fd5b5f5f60019054906101000a900460ff161590508015611dba5760015f60016101000a81548160ff02191690831515021790555060015f5f6101000a81548160ff0219169083151502179055505b611dc38a6129ca565b611e548987878080601f0160208091040260200160405190810160405280939291908181526020018383808284375f81840152601f19601f8201169050808301925050505050505086868080601f0160208091040260200160405190810160405280939291908181526020018383808284375f81840152601f19601f82011690508083019250505050505050612a44565b878760089182611e659291906138c5565b50816009819055508015611e8d575f5f60016101000a81548160ff0219169083151502179055505b50505050505050505050565b8060065f8573ffffffffffffffffffffffffffffffffffffffff1673ffffffffffffffffffffffffffffffffffffffff1681526020019081526020015f205f8473ffffffffffffffffffffffffffffffffffffffff1673ffffffffffffffffffffffffffffffffffffffff1681526020019081526020015f20819055508173ffffffffffffffffffffffffffffffffffffffff168373ffffffffffffffffffffffffffffffffffffffff167f8c5be1e5ebec7d5bd14f71427d1e84f3dd0314c0f7b2291e5b200ac8c7c3b92583604051611f739190612bd7565b60405180910390a3505050565b5f73ffffffffffffffffffffffffffffffffffffffff168273ffffffffffffffffffffffffffffffffffffffff1603611fee576040517f08c379a0000000000000000000000000000000000000000000000000000000008152600401611fe5906139dc565b60405180910390fd5b5f60055f8573ffffffffffffffffffffffffffffffffffffffff1673ffffffffffffffffffffffffffffffffffffffff1681526020019081526020015f2054905081811015612072576040517f08c379a000000000000000000000000000000000000000000000000000000000815260040161206990613a44565b60405180910390fd5b81810360055f8673ffffffffffffffffffffffffffffffffffffffff1673ffffffffffffffffffffffffffffffffffffffff1681526020019081526020015f20819055508160055f8573ffffffffffffffffffffffffffffffffffffffff1673ffffffffffffffffffffffffffffffffffffffff1681526020019081526020015f205f82825461210291906131dd565b925050819055508273ffffffffffffffffffffffffffffffffffffffff168473ffffffffffffffffffffffffffffffffffffffff167fddf252ad1be2c89b69c2b068fc378daa952ba7f163c4a11628f55a4df523b3ef846040516121669190612bd7565b60405180910390a350505050565b5f5f7f360894a13ba1a3210667c828492db98dca3e2076cc3735a920a3ca505d382bbc5f1b9050805491505090565b5f60029054906101000a900473ffffffffffffffffffffffffffffffffffffffff1673ffffffffffffffffffffffffffffffffffffffff163373ffffffffffffffffffffffffffffffffffffffff16146121fb575f5ffd5b50565b5f73ffffffffffffffffffffffffffffffffffffffff168373ffffffffffffffffffffffffffffffffffffffff160361226c576040517f08c379a000000000000000000000000000000000000000000000000000000000815260040161226390613aac565b60405180910390fd5b61227583612b03565b808061228157505f8251115b15612336575f5f8473ffffffffffffffffffffffffffffffffffffffff16846040516122ad9190613b0e565b5f60405180830381855af49150503d805f81146122e5576040519150601f19603f3d011682016040523d82523d5f602084013e6122ea565b606091505b5091509150818190612332576040517f08c379a00000000000000000000000000000000000000000000000000000000081526004016123299190612c60565b60405180910390fd5b5050505b505050565b5f5f831161237e576040517f08c379a00000000000000000000000000000000000000000000000000000000081526004016123759061360c565b60405180910390fd5b61238783611afc565b90505f81116123cb576040517f08c379a00000000000000000000000000000000000000000000000000000000081526004016123c2906135a4565b60405180910390fd5b60075f9054906101000a900473ffffffffffffffffffffffffffffffffffffffff1673ffffffffffffffffffffffffffffffffffffffff166323b872dd3330866040518463ffffffff1660e01b81526004016124299392919061362a565b6020604051808303815f875af1158015612445573d5f5f3e3d5ffd5b505050506040513d601f19601f82011682018060405250810190612469919061352f565b5061247482826124e1565b8173ffffffffffffffffffffffffffffffffffffffff163373ffffffffffffffffffffffffffffffffffffffff167fdcbc1c05240f31ff3ad067ef1ee35ce4997762752e3a095284754544f4c709d785846040516124d392919061365f565b60405180910390a392915050565b5f73ffffffffffffffffffffffffffffffffffffffff168273ffffffffffffffffffffffffffffffffffffffff160361254f576040517f08c379a0000000000000000000000000000000000000000000000000000000008152600401612546906139dc565b60405180910390fd5b8060045f82825461256091906131dd565b925050819055508060055f8473ffffffffffffffffffffffffffffffffffffffff1673ffffffffffffffffffffffffffffffffffffffff1681526020019081526020015f205f8282546125b391906131dd565b925050819055508173ffffffffffffffffffffffffffffffffffffffff165f73ffffffffffffffffffffffffffffffffffffffff167fddf252ad1be2c89b69c2b068fc378daa952ba7f163c4a11628f55a4df523b3ef836040516126179190612bd7565b60405180910390a35050565b5f5f8411612666576040517f08c379a000000000000000000000000000000000000000000000000000000000815260040161265d9061360c565b60405180910390fd5b61266f84611afc565b90508361267b82610a34565b10156126915760018161268e91906131dd565b90505b3373ffffffffffffffffffffffffffffffffffffffff168273ffffffffffffffffffffffffffffffffffffffff1614612754575f6126cf8333611c87565b905081811015612714576040517f08c379a000000000000000000000000000000000000000000000000000000000815260040161270b90613355565b60405180910390fd5b7fffffffffffffffffffffffffffffffffffffffffffffffffffffffffffffffff8114612752576127518333848461274c9190613373565b611e99565b5b505b61275e8282612880565b60075f9054906101000a900473ffffffffffffffffffffffffffffffffffffffff1673ffffffffffffffffffffffffffffffffffffffff1663a9059cbb84866040518363ffffffff1660e01b81526004016127ba9291906134de565b6020604051808303815f875af11580156127d6573d5f5f3e3d5ffd5b505050506040513d601f19601f820116820180604052508101906127fa919061352f565b508173ffffffffffffffffffffffffffffffffffffffff168373ffffffffffffffffffffffffffffffffffffffff163373ffffffffffffffffffffffffffffffffffffffff167ffbde797d201c681b91056529119e0b02407c7bb96a4a2c75c01fc9667232c8db878560405161287192919061365f565b60405180910390a49392505050565b5f60055f8473ffffffffffffffffffffffffffffffffffffffff1673ffffffffffffffffffffffffffffffffffffffff1681526020019081526020015f2054905081811015612904576040517f08c379a00000000000000000000000000000000000000000000000000000000081526004016128fb90613a44565b60405180910390fd5b81810360055f8573ffffffffffffffffffffffffffffffffffffffff1673ffffffffffffffffffffffffffffffffffffffff1681526020019081526020015f20819055508160045f8282546129599190613373565b925050819055505f73ffffffffffffffffffffffffffffffffffffffff168373ffffffffffffffffffffffffffffffffffffffff167fddf252ad1be2c89b69c2b068fc378daa952ba7f163c4a11628f55a4df523b3ef846040516129bd9190612bd7565b60405180910390a3505050565b5f73ffffffffffffffffffffffffffffffffffffffff168173ffffffffffffffffffffffffffffffffffffffff1603612a01575f5ffd5b805f60026101000a81548173ffffffffffffffffffffffffffffffffffffffff021916908373ffffffffffffffffffffffffffffffffffffffff16021790555050565b5f73ffffffffffffffffffffffffffffffffffffffff168373ffffffffffffffffffffffffffffffffffffffff1603612ab2576040517f08c379a0000000000000000000000000000000000000000000000000000000008152600401612aa990613b6e565b60405180910390fd5b612abe82826006612b30565b8260075f6101000a81548173ffffffffffffffffffffffffffffffffffffffff021916908373ffffffffffffffffffffffffffffffffffffffff160217905550505050565b5f7f360894a13ba1a3210667c828492db98dca3e2076cc3735a920a3ca505d382bbc5f1b90508181555050565b5f60018054612b3e9061323d565b905014612b80576040517f08c379a0000000000000000000000000000000000000000000000000000000008152600401612b77906136d0565b60405180910390fd5b8260019081612b8f9190613b8c565b508160029081612b9f9190613b8c565b508060035f6101000a81548160ff021916908360ff160217905550505050565b5f819050919050565b612bd181612bbf565b82525050565b5f602082019050612bea5f830184612bc8565b92915050565b5f81519050919050565b5f82825260208201905092915050565b8281835e5f83830152505050565b5f601f19601f8301169050919050565b5f612c3282612bf0565b612c3c8185612bfa565b9350612c4c818560208601612c0a565b612c5581612c18565b840191505092915050565b5f6020820190508181035f830152612c788184612c28565b905092915050565b5f5ffd5b5f5ffd5b612c9181612bbf565b8114612c9b575f5ffd5b50565b5f81359050612cac81612c88565b92915050565b5f60208284031215612cc757612cc6612c80565b5b5f612cd484828501612c9e565b91505092915050565b5f73ffffffffffffffffffffffffffffffffffffffff82169050919050565b5f612d0682612cdd565b9050919050565b612d1681612cfc565b8114612d20575f5ffd5b50565b5f81359050612d3181612d0d565b92915050565b5f5f60408385031215612d4d57612d4c612c80565b5b5f612d5a85828601612d23565b9250506020612d6b85828601612c9e565b9150509250929050565b5f8115159050919050565b612d8981612d75565b82525050565b5f602082019050612da25f830184612d80565b92915050565b5f5f5f60608486031215612dbf57612dbe612c80565b5b5f612dcc86828701612d23565b9350506020612ddd86828701612d23565b9250506040612dee86828701612c9e565b9150509250925092565b5f60208284031215612e0d57612e0c612c80565b5b5f612e1a84828501612d23565b91505092915050565b612e2c81612cfc565b82525050565b5f602082019050612e455f830184612e23565b92915050565b5f5ffd5b5f5ffd5b5f5ffd5b5f5f83601f840112612e6c57612e6b612e4b565b5b8235905067ffffffffffffffff811115612e8957612e88612e4f565b5b602083019150836001820283011115612ea557612ea4612e53565b5b9250929050565b5f5f5f60408486031215612ec357612ec2612c80565b5b5f612ed086828701612d23565b935050602084013567ffffffffffffffff811115612ef157612ef0612c84565b5b612efd86828701612e57565b92509250509250925092565b5f819050919050565b612f1b81612f09565b82525050565b5f602082019050612f345f830184612f12565b92915050565b5f5f60408385031215612f5057612f4f612c80565b5b5f612f5d85828601612c9e565b9250506020612f6e85828601612d23565b9150509250929050565b5f5f5f60608486031215612f8f57612f8e612c80565b5b5f612f9c86828701612c9e565b9350506020612fad86828701612d23565b9250506040612fbe86828701612d23565b9150509250925092565b5f5f60408385031215612fde57612fdd612c80565b5b5f612feb85828601612d23565b9250506020612ffc85828601612d23565b9150509250929050565b5f5f83601f84011261301b5761301a612e4b565b5b8235905067ffffffffffffffff81111561303857613037612e4f565b5b60208301915083600182028301111561305457613053612e53565b5b9250929050565b5f5f5f5f5f5f5f5f5f60c08a8c03121561307857613077612c80565b5b5f6130858c828d01612d23565b99505060206130968c828d01612d23565b98505060408a013567ffffffffffffffff8111156130b7576130b6612c84565b5b6130c38c828d01613006565b975097505060608a013567ffffffffffffffff8111156130e6576130e5612c84565b5b6130f28c828d01613006565b955095505060808a013567ffffffffffffffff81111561311557613114612c84565b5b6131218c828d01613006565b935093505060a06131348c828d01612c9e565b9150509295985092959850929598565b5f8151905061315281612c88565b92915050565b5f6020828403121561316d5761316c612c80565b5b5f61317a84828501613144565b91505092915050565b7f4e487b71000000000000000000000000000000000000000000000000000000005f52603260045260245ffd5b7f4e487b71000000000000000000000000000000000000000000000000000000005f52601160045260245ffd5b5f6131e782612bbf565b91506131f283612bbf565b925082820190508082111561320a576132096131b0565b5b92915050565b7f4e487b71000000000000000000000000000000000000000000000000000000005f52602260045260245ffd5b5f600282049050600182168061325457607f821691505b60208210810361326757613266613210565b5b50919050565b5f61327782612bbf565b915061328283612bbf565b925082820261329081612bbf565b915082820484148315176132a7576132a66131b0565b5b5092915050565b7f4e487b71000000000000000000000000000000000000000000000000000000005f52601260045260245ffd5b5f6132e582612bbf565b91506132f083612bbf565b925082613300576132ff6132ae565b5b828204905092915050565b7f494e53554646494349454e545f414c4c4f57414e4345000000000000000000005f82015250565b5f61333f601683612bfa565b915061334a8261330b565b602082019050919050565b5f6020820190508181035f83015261336c81613333565b9050919050565b5f61337d82612bbf565b915061338883612bbf565b92508282039050818111156133a05761339f6131b0565b5b92915050565b7f4e4f545f44454c454741544543414c4c000000000000000000000000000000005f82015250565b5f6133da601083612bfa565b91506133e5826133a6565b602082019050919050565b5f6020820190508181035f830152613407816133ce565b9050919050565b7f494e4143544956455f50524f58590000000000000000000000000000000000005f82015250565b5f613442600e83612bfa565b915061344d8261340e565b602082019050919050565b5f6020820190508181035f83015261346f81613436565b9050919050565b7f4f4e4c595f494d504c454d454e544154494f4e000000000000000000000000005f82015250565b5f6134aa601383612bfa565b91506134b582613476565b602082019050919050565b5f6020820190508181035f8301526134d78161349e565b9050919050565b5f6040820190506134f15f830185612e23565b6134fe6020830184612bc8565b9392505050565b61350e81612d75565b8114613518575f5ffd5b50565b5f8151905061352981613505565b92915050565b5f6020828403121561354457613543612c80565b5b5f6135518482850161351b565b91505092915050565b7f5a45524f5f5348415245530000000000000000000000000000000000000000005f82015250565b5f61358e600b83612bfa565b91506135998261355a565b602082019050919050565b5f6020820190508181035f8301526135bb81613582565b9050919050565b7f5a45524f5f4153534554530000000000000000000000000000000000000000005f82015250565b5f6135f6600b83612bfa565b9150613601826135c2565b602082019050919050565b5f6020820190508181035f830152613623816135ea565b9050919050565b5f60608201905061363d5f830186612e23565b61364a6020830185612e23565b6136576040830184612bc8565b949350505050565b5f6040820190506136725f830185612bc8565b61367f6020830184612bc8565b9392505050565b7f414c52454144595f494e495449414c495a4544000000000000000000000000005f82015250565b5f6136ba601383612bfa565b91506136c582613686565b602082019050919050565b5f6020820190508181035f8301526136e7816136ae565b9050919050565b5f82905092915050565b7f4e487b71000000000000000000000000000000000000000000000000000000005f52604160045260245ffd5b5f819050815f5260205f209050919050565b5f6020601f8301049050919050565b5f82821b905092915050565b5f600883026137817fffffffffffffffffffffffffffffffffffffffffffffffffffffffffffffffff82613746565b61378b8683613746565b95508019841693508086168417925050509392505050565b5f819050919050565b5f6137c66137c16137bc84612bbf565b6137a3565b612bbf565b9050919050565b5f819050919050565b6137df836137ac565b6137f36137eb826137cd565b848454613752565b825550505050565b5f5f905090565b61380a6137fb565b6138158184846137d6565b505050565b5b818110156138385761382d5f82613802565b60018101905061381b565b5050565b601f82111561387d5761384e81613725565b61385784613737565b81016020851015613866578190505b61387a61387285613737565b83018261381a565b50505b505050565b5f82821c905092915050565b5f61389d5f1984600802613882565b1980831691505092915050565b5f6138b5838361388e565b9150826002028217905092915050565b6138cf83836136ee565b67ffffffffffffffff8111156138e8576138e76136f8565b5b6138f2825461323d565b6138fd82828561383c565b5f601f83116001811461392a575f8415613918578287013590505b61392285826138aa565b865550613989565b601f19841661393886613725565b5f5b8281101561395f5784890135825560018201915060208501945060208101905061393a565b8683101561397c5784890135613978601f89168261388e565b8355505b6001600288020188555050505b50505050505050565b7f5a45524f5f544f000000000000000000000000000000000000000000000000005f82015250565b5f6139c6600783612bfa565b91506139d182613992565b602082019050919050565b5f6020820190508181035f8301526139f3816139ba565b9050919050565b7f494e53554646494349454e545f42414c414e43450000000000000000000000005f82015250565b5f613a2e601483612bfa565b9150613a39826139fa565b602082019050919050565b5f6020820190508181035f830152613a5b81613a22565b9050919050565b7f5a45524f5f494d504c00000000000000000000000000000000000000000000005f82015250565b5f613a96600983612bfa565b9150613aa182613a62565b602082019050919050565b5f6020820190508181035f830152613ac381613a8a565b9050919050565b5f81519050919050565b5f81905092915050565b5f613ae882613aca565b613af28185613ad4565b9350613b02818560208601612c0a565b80840191505092915050565b5f613b198284613ade565b915081905092915050565b7f5a45524f5f4153534554000000000000000000000000000000000000000000005f82015250565b5f613b58600a83612bfa565b9150613b6382613b24565b602082019050919050565b5f6020820190508181035f830152613b8581613b4c565b9050919050565b613b9582612bf0565b67ffffffffffffffff811115613bae57613bad6136f8565b5b613bb8825461323d565b613bc382828561383c565b5f60209050601f831160018114613bf4575f8415613be2578287015190505b613bec85826138aa565b865550613c53565b601f198416613c0286613725565b5f5b82811015613c2957848901518255600182019150602085019450602081019050613c04565b86831015613c465784890151613c42601f89168261388e565b8355505b6001600288020188555050505b50505050505056fea26469706673582212204f59c49c62d0aea4a0c8a22d0ddae0bf31737c346a0e23c1ef14ad7580aa21d164736f6c634300081e0033",
					"opcodes": "PUSH1 0xA0 PUSH1 0x40 MSTORE ADDRESS PUSH20 0xFFFFFFFFFFFFFFFFFFFFFFFFFFFFFFFFFFFFFFFF AND PUSH1 0x80 SWAP1 PUSH20 0xFFFFFFFFFFFFFFFFFFFFFFFFFFFFFFFFFFFFFFFF AND DUP2 MSTORE POP CALLVALUE DUP1 ISZERO PUSH2 0x42 JUMPI PUSH0 PUSH0 REVERT JUMPDEST POP PUSH1 0x80 MLOAD PUSH2 0x3C91 PUSH2 0x77 PUSH0 CODECOPY PUSH0 DUP2 DUP2 PUSH2 0xC3B ADD MSTORE DUP2 DUP2 PUSH2 0xCC9 ADD MSTORE DUP2 DUP2 PUSH2 0xE3D ADD MSTORE DUP2 DUP2 PUSH2 0xECB ADD MSTORE PUSH2 0xFBE ADD MSTORE PUSH2 0x3C91 PUSH0 RETURN INVALID PUSH1 0x80 PUSH1 0x40 MSTORE PUSH1 0x4 CALLDATASIZE LT PUSH2 0x1D7 JUMPI PUSH0 CALLDATALOAD PUSH1 0xE0 SHR DUP1 PUSH4 0x6E553F65 GT PUSH2 0x101 JUMPI DUP1 PUSH4 0xA9059CBB GT PUSH2 0x94 JUMPI DUP1 PUSH4 0xC6E6F592 GT PUSH2 0x63 JUMPI DUP1 PUSH4 0xC6E6F592 EQ PUSH2 0x6F9 JUMPI DUP1 PUSH4 0xD3A417A2 EQ PUSH2 0x735 JUMPI DUP1 PUSH4 0xDD62ED3E EQ PUSH2 0x75D JUMPI DUP1 PUSH4 0xDED96D48 EQ PUSH2 0x799 JUMPI PUSH2 0x1D7 JUMP JUMPDEST DUP1 PUSH4 0xA9059CBB EQ PUSH2 0x609 JUMPI DUP1 PUSH4 0xB1283E77 EQ PUSH2 0x645 JUMPI DUP1 PUSH4 0xB460AF94 EQ PUSH2 0x681 JUMPI DUP1 PUSH4 0xBA087652 EQ PUSH2 0x6BD JUMPI PUSH2 0x1D7 JUMP JUMPDEST DUP1 PUSH4 0x92F6B31C GT PUSH2 0xD0 JUMPI DUP1 PUSH4 0x92F6B31C EQ PUSH2 0x551 JUMPI DUP1 PUSH4 0x93E30633 EQ PUSH2 0x57B JUMPI DUP1 PUSH4 0x94BF804D EQ PUSH2 0x5A3 JUMPI DUP1 PUSH4 0x95D89B41 EQ PUSH2 0x5DF JUMPI PUSH2 0x1D7 JUMP JUMPDEST DUP1 PUSH4 0x6E553F65 EQ PUSH2 0x473 JUMPI DUP1 PUSH4 0x6EC934DA EQ PUSH2 0x4AF JUMPI DUP1 PUSH4 0x70A08231 EQ PUSH2 0x4EB JUMPI DUP1 PUSH4 0x8DA5CB5B EQ PUSH2 0x527 JUMPI PUSH2 0x1D7 JUMP JUMPDEST DUP1 PUSH4 0x3659CFE6 GT PUSH2 0x179 JUMPI DUP1 PUSH4 0x4F1EF286 GT PUSH2 0x148 JUMPI DUP1 PUSH4 0x4F1EF286 EQ PUSH2 0x3DD JUMPI DUP1 PUSH4 0x52D1902D EQ PUSH2 0x3F9 JUMPI DUP1 PUSH4 0x65745F51 EQ PUSH2 0x423 JUMPI DUP1 PUSH4 0x66ADF46A EQ PUSH2 0x44B JUMPI PUSH2 0x1D7 JUMP JUMPDEST DUP1 PUSH4 0x3659CFE6 EQ PUSH2 0x337 JUMPI DUP1 PUSH4 0x38D52E0F EQ PUSH2 0x35F JUMPI DUP1 PUSH4 0x41B3D185 EQ PUSH2 0x389 JUMPI DUP1 PUSH4 0x4A79D50C EQ PUSH2 0x3B3 JUMPI PUSH2 0x1D7 JUMP JUMPDEST DUP1 PUSH4 0x95EA7B3 GT PUSH2 0x1B5 JUMPI DUP1 PUSH4 0x95EA7B3 EQ PUSH2 0x26B JUMPI DUP1 PUSH4 0x18160DDD EQ PUSH2 0x2A7 JUMPI DUP1 PUSH4 0x23B872DD EQ PUSH2 0x2D1 JUMPI DUP1 PUSH4 0x313CE567 EQ PUSH2 0x30D JUMPI PUSH2 0x1D7 JUMP JUMPDEST DUP1 PUSH4 0x1E1D114 EQ PUSH2 0x1DB JUMPI DUP1 PUSH4 0x6FDDE03 EQ PUSH2 0x205 JUMPI DUP1 PUSH4 0x7A2D13A EQ PUSH2 0x22F JUMPI JUMPDEST PUSH0 PUSH0 REVERT JUMPDEST CALLVALUE DUP1 ISZERO PUSH2 0x1E6 JUMPI PUSH0 PUSH0 REVERT JUMPDEST POP PUSH2 0x1EF PUSH2 0x7C1 JUMP JUMPDEST PUSH1 0x40 MLOAD PUSH2 0x1FC SWAP2 SWAP1 PUSH2 0x2BD7 JUMP JUMPDEST PUSH1 0x40 MLOAD DUP1 SWAP2 SUB SWAP1 RETURN JUMPDEST CALLVALUE DUP1 ISZERO PUSH2 0x210 JUMPI PUSH0 PUSH0 REVERT JUMPDEST POP PUSH2 0x219 PUSH2 0x9A4 JUMP JUMPDEST PUSH1 0x40 MLOAD PUSH2 0x226 SWAP2 SWAP1 PUSH2 0x2C60 JUMP JUMPDEST PUSH1 0x40 MLOAD DUP1 SWAP2 SUB SWAP1 RETURN JUMPDEST CALLVALUE DUP1 ISZERO PUSH2 0x23A JUMPI PUSH0 PUSH0 REVERT JUMPDEST POP PUSH2 0x255 PUSH1 0x4 DUP1 CALLDATASIZE SUB DUP2 ADD SWAP1 PUSH2 0x250 SWAP2 SWAP1 PUSH2 0x2CB2 JUMP JUMPDEST PUSH2 0xA34 JUMP JUMPDEST PUSH1 0x40 MLOAD PUSH2 0x262 SWAP2 SWAP1 PUSH2 0x2BD7 JUMP JUMPDEST PUSH1 0x40 MLOAD DUP1 SWAP2 SUB SWAP1 RETURN JUMPDEST CALLVALUE DUP1 ISZERO PUSH2 0x276 JUMPI PUSH0 PUSH0 REVERT JUMPDEST POP PUSH2 0x291 PUSH1 0x4 DUP1 CALLDATASIZE SUB DUP2 ADD SWAP1 PUSH2 0x28C SWAP2 SWAP1 PUSH2 0x2D37 JUMP JUMPDEST PUSH2 0xAED JUMP JUMPDEST PUSH1 0x40 MLOAD PUSH2 0x29E SWAP2 SWAP1 PUSH2 0x2D8F JUMP JUMPDEST PUSH1 0x40 MLOAD DUP1 SWAP2 SUB SWAP1 RETURN JUMPDEST CALLVALUE DUP1 ISZERO PUSH2 0x2B2 JUMPI PUSH0 PUSH0 REVERT JUMPDEST POP PUSH2 0x2BB PUSH2 0xB03 JUMP JUMPDEST PUSH1 0x40 MLOAD PUSH2 0x2C8 SWAP2 SWAP1 PUSH2 0x2BD7 JUMP JUMPDEST PUSH1 0x40 MLOAD DUP1 SWAP2 SUB SWAP1 RETURN JUMPDEST CALLVALUE DUP1 ISZERO PUSH2 0x2DC JUMPI PUSH0 PUSH0 REVERT JUMPDEST POP PUSH2 0x2F7 PUSH1 0x4 DUP1 CALLDATASIZE SUB DUP2 ADD SWAP1 PUSH2 0x2F2 SWAP2 SWAP1 PUSH2 0x2DA8 JUMP JUMPDEST PUSH2 0xB0C JUMP JUMPDEST PUSH1 0x40 MLOAD PUSH2 0x304 SWAP2 SWAP1 PUSH2 0x2D8F JUMP JUMPDEST PUSH1 0x40 MLOAD DUP1 SWAP2 SUB SWAP1 RETURN JUMPDEST CALLVALUE DUP1 ISZERO PUSH2 0x318 JUMPI PUSH0 PUSH0 REVERT JUMPDEST POP PUSH2 0x321 PUSH2 0xC21 JUMP JUMPDEST PUSH1 0x40 MLOAD PUSH2 0x32E SWAP2 SWAP1 PUSH2 0x2BD7 JUMP JUMPDEST PUSH1 0x40 MLOAD DUP1 SWAP2 SUB SWAP1 RETURN JUMPDEST CALLVALUE DUP1 ISZERO PUSH2 0x342 JUMPI PUSH0 PUSH0 REVERT JUMPDEST POP PUSH2 0x35D PUSH1 0x4 DUP1 CALLDATASIZE SUB DUP2 ADD SWAP1 PUSH2 0x358 SWAP2 SWAP1 PUSH2 0x2DF8 JUMP JUMPDEST PUSH2 0xC39 JUMP JUMPDEST STOP JUMPDEST CALLVALUE DUP1 ISZERO PUSH2 0x36A JUMPI PUSH0 PUSH0 REVERT JUMPDEST POP PUSH2 0x373 PUSH2 0xD81 JUMP JUMPDEST PUSH1 0x40 MLOAD PUSH2 0x380 SWAP2 SWAP1 PUSH2 0x2E32 JUMP JUMPDEST PUSH1 0x40 MLOAD DUP1 SWAP2 SUB SWAP1 RETURN JUMPDEST CALLVALUE DUP1 ISZERO PUSH2 0x394 JUMPI PUSH0 PUSH0 REVERT JUMPDEST POP PUSH2 0x39D PUSH2 0xDA9 JUMP JUMPDEST PUSH1 0x40 MLOAD PUSH2 0x3AA SWAP2 SWAP1 PUSH2 0x2BD7 JUMP JUMPDEST PUSH1 0x40 MLOAD DUP1 SWAP2 SUB SWAP1 RETURN JUMPDEST CALLVALUE DUP1 ISZERO PUSH2 0x3BE JUMPI PUSH0 PUSH0 REVERT JUMPDEST POP PUSH2 0x3C7 PUSH2 0xDAF JUMP JUMPDEST PUSH1 0x40 MLOAD PUSH2 0x3D4 SWAP2 SWAP1 PUSH2 0x2C60 JUMP JUMPDEST PUSH1 0x40 MLOAD DUP1 SWAP2 SUB SWAP1 RETURN JUMPDEST PUSH2 0x3F7 PUSH1 0x4 DUP1 CALLDATASIZE SUB DUP2 ADD SWAP1 PUSH2 0x3F2 SWAP2 SWAP1 PUSH2 0x2EAC JUMP JUMPDEST PUSH2 0xE3B JUMP JUMPDEST STOP JUMPDEST CALLVALUE DUP1 ISZERO PUSH2 0x404 JUMPI PUSH0 PUSH0 REVERT JUMPDEST POP PUSH2 0x40D PUSH2 0xFBB JUMP JUMPDEST PUSH1 0x40 MLOAD PUSH2 0x41A SWAP2 SWAP1 PUSH2 0x2F21 JUMP JUMPDEST PUSH1 0x40 MLOAD DUP1 SWAP2 SUB SWAP1 RETURN JUMPDEST CALLVALUE DUP1 ISZERO PUSH2 0x42E JUMPI PUSH0 PUSH0 REVERT JUMPDEST POP PUSH2 0x449 PUSH1 0x4 DUP1 CALLDATASIZE SUB DUP2 ADD SWAP1 PUSH2 0x444 SWAP2 SWAP1 PUSH2 0x2D37 JUMP JUMPDEST PUSH2 0x1072 JUMP JUMPDEST STOP JUMPDEST CALLVALUE DUP1 ISZERO PUSH2 0x456 JUMPI PUSH0 PUSH0 REVERT JUMPDEST POP PUSH2 0x471 PUSH1 0x4 DUP1 CALLDATASIZE SUB DUP2 ADD SWAP1 PUSH2 0x46C SWAP2 SWAP1 PUSH2 0x2D37 JUMP JUMPDEST PUSH2 0x1199 JUMP JUMPDEST STOP JUMPDEST CALLVALUE DUP1 ISZERO PUSH2 0x47E JUMPI PUSH0 PUSH0 REVERT JUMPDEST POP PUSH2 0x499 PUSH1 0x4 DUP1 CALLDATASIZE SUB DUP2 ADD SWAP1 PUSH2 0x494 SWAP2 SWAP1 PUSH2 0x2F3A JUMP JUMPDEST PUSH2 0x1343 JUMP JUMPDEST PUSH1 0x40 MLOAD PUSH2 0x4A6 SWAP2 SWAP1 PUSH2 0x2BD7 JUMP JUMPDEST PUSH1 0x40 MLOAD DUP1 SWAP2 SUB SWAP1 RETURN JUMPDEST CALLVALUE DUP1 ISZERO PUSH2 0x4BA JUMPI PUSH0 PUSH0 REVERT JUMPDEST POP PUSH2 0x4D5 PUSH1 0x4 DUP1 CALLDATASIZE SUB DUP2 ADD SWAP1 PUSH2 0x4D0 SWAP2 SWAP1 PUSH2 0x2DF8 JUMP JUMPDEST PUSH2 0x1369 JUMP JUMPDEST PUSH1 0x40 MLOAD PUSH2 0x4E2 SWAP2 SWAP1 PUSH2 0x2D8F JUMP JUMPDEST PUSH1 0x40 MLOAD DUP1 SWAP2 SUB SWAP1 RETURN JUMPDEST CALLVALUE DUP1 ISZERO PUSH2 0x4F6 JUMPI PUSH0 PUSH0 REVERT JUMPDEST POP PUSH2 0x511 PUSH1 0x4 DUP1 CALLDATASIZE SUB DUP2 ADD SWAP1 PUSH2 0x50C SWAP2 SWAP1 PUSH2 0x2DF8 JUMP JUMPDEST PUSH2 0x1386 JUMP JUMPDEST PUSH1 0x40 MLOAD PUSH2 0x51E SWAP2 SWAP1 PUSH2 0x2BD7 JUMP JUMPDEST PUSH1 0x40 MLOAD DUP1 SWAP2 SUB SWAP1 RETURN JUMPDEST CALLVALUE DUP1 ISZERO PUSH2 0x532 JUMPI PUSH0 PUSH0 REVERT JUMPDEST POP PUSH2 0x53B PUSH2 0x13CC JUMP JUMPDEST PUSH1 0x40 MLOAD PUSH2 0x548 SWAP2 SWAP1 PUSH2 0x2E32 JUMP JUMPDEST PUSH1 0x40 MLOAD DUP1 SWAP2 SUB SWAP1 RETURN JUMPDEST CALLVALUE DUP1 ISZERO PUSH2 0x55C JUMPI PUSH0 PUSH0 REVERT JUMPDEST POP PUSH2 0x565 PUSH2 0x13F1 JUMP JUMPDEST PUSH1 0x40 MLOAD PUSH2 0x572 SWAP2 SWAP1 PUSH2 0x2BD7 JUMP JUMPDEST PUSH1 0x40 MLOAD DUP1 SWAP2 SUB SWAP1 RETURN JUMPDEST CALLVALUE DUP1 ISZERO PUSH2 0x586 JUMPI PUSH0 PUSH0 REVERT JUMPDEST POP PUSH2 0x5A1 PUSH1 0x4 DUP1 CALLDATASIZE SUB DUP2 ADD SWAP1 PUSH2 0x59C SWAP2 SWAP1 PUSH2 0x2DF8 JUMP JUMPDEST PUSH2 0x1476 JUMP JUMPDEST STOP JUMPDEST CALLVALUE DUP1 ISZERO PUSH2 0x5AE JUMPI PUSH0 PUSH0 REVERT JUMPDEST POP PUSH2 0x5C9 PUSH1 0x4 DUP1 CALLDATASIZE SUB DUP2 ADD SWAP1 PUSH2 0x5C4 SWAP2 SWAP1 PUSH2 0x2F3A JUMP JUMPDEST PUSH2 0x1610 JUMP JUMPDEST PUSH1 0x40 MLOAD PUSH2 0x5D6 SWAP2 SWAP1 PUSH2 0x2BD7 JUMP JUMPDEST PUSH1 0x40 MLOAD DUP1 SWAP2 SUB SWAP1 RETURN JUMPDEST CALLVALUE DUP1 ISZERO PUSH2 0x5EA JUMPI PUSH0 PUSH0 REVERT JUMPDEST POP PUSH2 0x5F3 PUSH2 0x17B6 JUMP JUMPDEST PUSH1 0x40 MLOAD PUSH2 0x600 SWAP2 SWAP1 PUSH2 0x2C60 JUMP JUMPDEST PUSH1 0x40 MLOAD DUP1 SWAP2 SUB SWAP1 RETURN JUMPDEST CALLVALUE DUP1 ISZERO PUSH2 0x614 JUMPI PUSH0 PUSH0 REVERT JUMPDEST POP PUSH2 0x62F PUSH1 0x4 DUP1 CALLDATASIZE SUB DUP2 ADD SWAP1 PUSH2 0x62A SWAP2 SWAP1 PUSH2 0x2D37 JUMP JUMPDEST PUSH2 0x1846 JUMP JUMPDEST PUSH1 0x40 MLOAD PUSH2 0x63C SWAP2 SWAP1 PUSH2 0x2D8F JUMP JUMPDEST PUSH1 0x40 MLOAD DUP1 SWAP2 SUB SWAP1 RETURN JUMPDEST CALLVALUE DUP1 ISZERO PUSH2 0x650 JUMPI PUSH0 PUSH0 REVERT JUMPDEST POP PUSH2 0x66B PUSH1 0x4 DUP1 CALLDATASIZE SUB DUP2 ADD SWAP1 PUSH2 0x666 SWAP2 SWAP1 PUSH2 0x2CB2 JUMP JUMPDEST PUSH2 0x185C JUMP JUMPDEST PUSH1 0x40 MLOAD PUSH2 0x678 SWAP2 SWAP1 PUSH2 0x2E32 JUMP JUMPDEST PUSH1 0x40 MLOAD DUP1 SWAP2 SUB SWAP1 RETURN JUMPDEST CALLVALUE DUP1 ISZERO PUSH2 0x68C JUMPI PUSH0 PUSH0 REVERT JUMPDEST POP PUSH2 0x6A7 PUSH1 0x4 DUP1 CALLDATASIZE SUB DUP2 ADD SWAP1 PUSH2 0x6A2 SWAP2 SWAP1 PUSH2 0x2F78 JUMP JUMPDEST PUSH2 0x1897 JUMP JUMPDEST PUSH1 0x40 MLOAD PUSH2 0x6B4 SWAP2 SWAP1 PUSH2 0x2BD7 JUMP JUMPDEST PUSH1 0x40 MLOAD DUP1 SWAP2 SUB SWAP1 RETURN JUMPDEST CALLVALUE DUP1 ISZERO PUSH2 0x6C8 JUMPI PUSH0 PUSH0 REVERT JUMPDEST POP PUSH2 0x6E3 PUSH1 0x4 DUP1 CALLDATASIZE SUB DUP2 ADD SWAP1 PUSH2 0x6DE SWAP2 SWAP1 PUSH2 0x2F78 JUMP JUMPDEST PUSH2 0x18BF JUMP JUMPDEST PUSH1 0x40 MLOAD PUSH2 0x6F0 SWAP2 SWAP1 PUSH2 0x2BD7 JUMP JUMPDEST PUSH1 0x40 MLOAD DUP1 SWAP2 SUB SWAP1 RETURN JUMPDEST CALLVALUE DUP1 ISZERO PUSH2 0x704 JUMPI PUSH0 PUSH0 REVERT JUMPDEST POP PUSH2 0x71F PUSH1 0x4 DUP1 CALLDATASIZE SUB DUP2 ADD SWAP1 PUSH2 0x71A SWAP2 SWAP1 PUSH2 0x2CB2 JUMP JUMPDEST PUSH2 0x1AFC JUMP JUMPDEST PUSH1 0x40 MLOAD PUSH2 0x72C SWAP2 SWAP1 PUSH2 0x2BD7 JUMP JUMPDEST PUSH1 0x40 MLOAD DUP1 SWAP2 SUB SWAP1 RETURN JUMPDEST CALLVALUE DUP1 ISZERO PUSH2 0x740 JUMPI PUSH0 PUSH0 REVERT JUMPDEST POP PUSH2 0x75B PUSH1 0x4 DUP1 CALLDATASIZE SUB DUP2 ADD SWAP1 PUSH2 0x756 SWAP2 SWAP1 PUSH2 0x2DF8 JUMP JUMPDEST PUSH2 0x1BB5 JUMP JUMPDEST STOP JUMPDEST CALLVALUE DUP1 ISZERO PUSH2 0x768 JUMPI PUSH0 PUSH0 REVERT JUMPDEST POP PUSH2 0x783 PUSH1 0x4 DUP1 CALLDATASIZE SUB DUP2 ADD SWAP1 PUSH2 0x77E SWAP2 SWAP1 PUSH2 0x2FC8 JUMP JUMPDEST PUSH2 0x1C87 JUMP JUMPDEST PUSH1 0x40 MLOAD PUSH2 0x790 SWAP2 SWAP1 PUSH2 0x2BD7 JUMP JUMPDEST PUSH1 0x40 MLOAD DUP1 SWAP2 SUB SWAP1 RETURN JUMPDEST CALLVALUE DUP1 ISZERO PUSH2 0x7A4 JUMPI PUSH0 PUSH0 REVERT JUMPDEST POP PUSH2 0x7BF PUSH1 0x4 DUP1 CALLDATASIZE SUB DUP2 ADD SWAP1 PUSH2 0x7BA SWAP2 SWAP1 PUSH2 0x305B JUMP JUMPDEST PUSH2 0x1D09 JUMP JUMPDEST STOP JUMPDEST PUSH0 PUSH2 0x7CA PUSH2 0xD81 JUMP JUMPDEST PUSH20 0xFFFFFFFFFFFFFFFFFFFFFFFFFFFFFFFFFFFFFFFF AND PUSH4 0x70A08231 ADDRESS PUSH1 0x40 MLOAD DUP3 PUSH4 0xFFFFFFFF AND PUSH1 0xE0 SHL DUP2 MSTORE PUSH1 0x4 ADD PUSH2 0x802 SWAP2 SWAP1 PUSH2 0x2E32 JUMP JUMPDEST PUSH1 0x20 PUSH1 0x40 MLOAD DUP1 DUP4 SUB DUP2 DUP7 GAS STATICCALL ISZERO DUP1 ISZERO PUSH2 0x81D JUMPI RETURNDATASIZE PUSH0 PUSH0 RETURNDATACOPY RETURNDATASIZE PUSH0 REVERT JUMPDEST POP POP POP POP PUSH1 0x40 MLOAD RETURNDATASIZE PUSH1 0x1F NOT PUSH1 0x1F DUP3 ADD AND DUP3 ADD DUP1 PUSH1 0x40 MSTORE POP DUP2 ADD SWAP1 PUSH2 0x841 SWAP2 SWAP1 PUSH2 0x3158 JUMP JUMPDEST SWAP1 POP PUSH0 PUSH0 SWAP1 POP JUMPDEST PUSH1 0xA DUP1 SLOAD SWAP1 POP DUP2 LT ISZERO PUSH2 0x9A0 JUMPI PUSH1 0xB PUSH0 PUSH1 0xA DUP4 DUP2 SLOAD DUP2 LT PUSH2 0x86C JUMPI PUSH2 0x86B PUSH2 0x3183 JUMP JUMPDEST JUMPDEST SWAP1 PUSH0 MSTORE PUSH1 0x20 PUSH0 KECCAK256 ADD PUSH0 SWAP1 SLOAD SWAP1 PUSH2 0x100 EXP SWAP1 DIV PUSH20 0xFFFFFFFFFFFFFFFFFFFFFFFFFFFFFFFFFFFFFFFF AND PUSH20 0xFFFFFFFFFFFFFFFFFFFFFFFFFFFFFFFFFFFFFFFF AND PUSH20 0xFFFFFFFFFFFFFFFFFFFFFFFFFFFFFFFFFFFFFFFF AND DUP2 MSTORE PUSH1 0x20 ADD SWAP1 DUP2 MSTORE PUSH1 0x20 ADD PUSH0 KECCAK256 PUSH0 SWAP1 SLOAD SWAP1 PUSH2 0x100 EXP SWAP1 DIV PUSH1 0xFF AND ISZERO PUSH2 0x995 JUMPI PUSH1 0xA DUP2 DUP2 SLOAD DUP2 LT PUSH2 0x8F3 JUMPI PUSH2 0x8F2 PUSH2 0x3183 JUMP JUMPDEST JUMPDEST SWAP1 PUSH0 MSTORE PUSH1 0x20 PUSH0 KECCAK256 ADD PUSH0 SWAP1 SLOAD SWAP1 PUSH2 0x100 EXP SWAP1 DIV PUSH20 0xFFFFFFFFFFFFFFFFFFFFFFFFFFFFFFFFFFFFFFFF AND PUSH20 0xFFFFFFFFFFFFFFFFFFFFFFFFFFFFFFFFFFFFFFFF AND PUSH4 0xC82F6D2F PUSH1 0x40 MLOAD DUP2 PUSH4 0xFFFFFFFF AND PUSH1 0xE0 SHL DUP2 MSTORE PUSH1 0x4 ADD PUSH1 0x20 PUSH1 0x40 MLOAD DUP1 DUP4 SUB DUP2 DUP7 GAS STATICCALL ISZERO DUP1 ISZERO PUSH2 0x963 JUMPI RETURNDATASIZE PUSH0 PUSH0 RETURNDATACOPY RETURNDATASIZE PUSH0 REVERT JUMPDEST POP POP POP POP PUSH1 0x40 MLOAD RETURNDATASIZE PUSH1 0x1F NOT PUSH1 0x1F DUP3 ADD AND DUP3 ADD DUP1 PUSH1 0x40 MSTORE POP DUP2 ADD SWAP1 PUSH2 0x987 SWAP2 SWAP1 PUSH2 0x3158 JUMP JUMPDEST DUP3 PUSH2 0x992 SWAP2 SWAP1 PUSH2 0x31DD JUMP JUMPDEST SWAP2 POP JUMPDEST DUP1 PUSH1 0x1 ADD SWAP1 POP PUSH2 0x848 JUMP JUMPDEST POP SWAP1 JUMP JUMPDEST PUSH1 0x60 PUSH1 0x1 DUP1 SLOAD PUSH2 0x9B3 SWAP1 PUSH2 0x323D JUMP JUMPDEST DUP1 PUSH1 0x1F ADD PUSH1 0x20 DUP1 SWAP2 DIV MUL PUSH1 0x20 ADD PUSH1 0x40 MLOAD SWAP1 DUP2 ADD PUSH1 0x40 MSTORE DUP1 SWAP3 SWAP2 SWAP1 DUP2 DUP2 MSTORE PUSH1 0x20 ADD DUP3 DUP1 SLOAD PUSH2 0x9DF SWAP1 PUSH2 0x323D JUMP JUMPDEST DUP1 ISZERO PUSH2 0xA2A JUMPI DUP1 PUSH1 0x1F LT PUSH2 0xA01 JUMPI PUSH2 0x100 DUP1 DUP4 SLOAD DIV MUL DUP4 MSTORE SWAP2 PUSH1 0x20 ADD SWAP2 PUSH2 0xA2A JUMP JUMPDEST DUP3 ADD SWAP2 SWAP1 PUSH0 MSTORE PUSH1 0x20 PUSH0 KECCAK256 SWAP1 JUMPDEST DUP2 SLOAD DUP2 MSTORE SWAP1 PUSH1 0x1 ADD SWAP1 PUSH1 0x20 ADD DUP1 DUP4 GT PUSH2 0xA0D JUMPI DUP3 SWAP1 SUB PUSH1 0x1F AND DUP3 ADD SWAP2 JUMPDEST POP POP POP POP POP SWAP1 POP SWAP1 JUMP JUMPDEST PUSH0 PUSH0 ADDRESS PUSH20 0xFFFFFFFFFFFFFFFFFFFFFFFFFFFFFFFFFFFFFFFF AND PUSH4 0x18160DDD PUSH1 0x40 MLOAD DUP2 PUSH4 0xFFFFFFFF AND PUSH1 0xE0 SHL DUP2 MSTORE PUSH1 0x4 ADD PUSH1 0x20 PUSH1 0x40 MLOAD DUP1 DUP4 SUB DUP2 DUP7 GAS STATICCALL ISZERO DUP1 ISZERO PUSH2 0xA7F JUMPI RETURNDATASIZE PUSH0 PUSH0 RETURNDATACOPY RETURNDATASIZE PUSH0 REVERT JUMPDEST POP POP POP POP PUSH1 0x40 MLOAD RETURNDATASIZE PUSH1 0x1F NOT PUSH1 0x1F DUP3 ADD AND DUP3 ADD DUP1 PUSH1 0x40 MSTORE POP DUP2 ADD SWAP1 PUSH2 0xAA3 SWAP2 SWAP1 PUSH2 0x3158 JUMP JUMPDEST SWAP1 POP PUSH0 PUSH2 0xAAE PUSH2 0x7C1 JUMP JUMPDEST SWAP1 POP PUSH0 DUP3 EQ DUP1 PUSH2 0xABD JUMPI POP PUSH0 DUP2 EQ JUMPDEST ISZERO PUSH2 0xACC JUMPI DUP4 SWAP3 POP POP POP PUSH2 0xAE8 JUMP JUMPDEST DUP2 DUP2 DUP6 PUSH2 0xAD9 SWAP2 SWAP1 PUSH2 0x326D JUMP JUMPDEST PUSH2 0xAE3 SWAP2 SWAP1 PUSH2 0x32DB JUMP JUMPDEST SWAP3 POP POP POP JUMPDEST SWAP2 SWAP1 POP JUMP JUMPDEST PUSH0 PUSH2 0xAF9 CALLER DUP5 DUP5 PUSH2 0x1E99 JUMP JUMPDEST PUSH1 0x1 SWAP1 POP SWAP3 SWAP2 POP POP JUMP JUMPDEST PUSH0 PUSH1 0x4 SLOAD SWAP1 POP SWAP1 JUMP JUMPDEST PUSH0 PUSH0 PUSH1 0x6 PUSH0 DUP7 PUSH20 0xFFFFFFFFFFFFFFFFFFFFFFFFFFFFFFFFFFFFFFFF AND PUSH20 0xFFFFFFFFFFFFFFFFFFFFFFFFFFFFFFFFFFFFFFFF AND DUP2 MSTORE PUSH1 0x20 ADD SWAP1 DUP2 MSTORE PUSH1 0x20 ADD PUSH0 KECCAK256 PUSH0 CALLER PUSH20 0xFFFFFFFFFFFFFFFFFFFFFFFFFFFFFFFFFFFFFFFF AND PUSH20 0xFFFFFFFFFFFFFFFFFFFFFFFFFFFFFFFFFFFFFFFF AND DUP2 MSTORE PUSH1 0x20 ADD SWAP1 DUP2 MSTORE PUSH1 0x20 ADD PUSH0 KECCAK256 SLOAD SWAP1 POP PUSH32 0xFFFFFFFFFFFFFFFFFFFFFFFFFFFFFFFFFFFFFFFFFFFFFFFFFFFFFFFFFFFFFFFF DUP2 EQ PUSH2 0xC0A JUMPI DUP3 DUP2 LT ISZERO PUSH2 0xBF3 JUMPI PUSH1 0x40 MLOAD PUSH32 0x8C379A000000000000000000000000000000000000000000000000000000000 DUP2 MSTORE PUSH1 0x4 ADD PUSH2 0xBEA SWAP1 PUSH2 0x3355 JUMP JUMPDEST PUSH1 0x40 MLOAD DUP1 SWAP2 SUB SWAP1 REVERT JUMPDEST PUSH2 0xC09 DUP6 CALLER DUP6 DUP5 PUSH2 0xC04 SWAP2 SWAP1 PUSH2 0x3373 JUMP JUMPDEST PUSH2 0x1E99 JUMP JUMPDEST JUMPDEST PUSH2 0xC15 DUP6 DUP6 DUP6 PUSH2 0x1F80 JUMP JUMPDEST PUSH1 0x1 SWAP2 POP POP SWAP4 SWAP3 POP POP POP JUMP JUMPDEST PUSH0 PUSH1 0x3 PUSH0 SWAP1 SLOAD SWAP1 PUSH2 0x100 EXP SWAP1 DIV PUSH1 0xFF AND PUSH1 0xFF AND SWAP1 POP SWAP1 JUMP JUMPDEST PUSH32 0x0 PUSH20 0xFFFFFFFFFFFFFFFFFFFFFFFFFFFFFFFFFFFFFFFF AND ADDRESS PUSH20 0xFFFFFFFFFFFFFFFFFFFFFFFFFFFFFFFFFFFFFFFF AND SUB PUSH2 0xCC7 JUMPI PUSH1 0x40 MLOAD PUSH32 0x8C379A000000000000000000000000000000000000000000000000000000000 DUP2 MSTORE PUSH1 0x4 ADD PUSH2 0xCBE SWAP1 PUSH2 0x33F0 JUMP JUMPDEST PUSH1 0x40 MLOAD DUP1 SWAP2 SUB SWAP1 REVERT JUMPDEST PUSH32 0x0 PUSH20 0xFFFFFFFFFFFFFFFFFFFFFFFFFFFFFFFFFFFFFFFF AND PUSH2 0xD06 PUSH2 0x2174 JUMP JUMPDEST PUSH20 0xFFFFFFFFFFFFFFFFFFFFFFFFFFFFFFFFFFFFFFFF AND EQ PUSH2 0xD5C JUMPI PUSH1 0x40 MLOAD PUSH32 0x8C379A000000000000000000000000000000000000000000000000000000000 DUP2 MSTORE PUSH1 0x4 ADD PUSH2 0xD53 SWAP1 PUSH2 0x3458 JUMP JUMPDEST PUSH1 0x40 MLOAD DUP1 SWAP2 SUB SWAP1 REVERT JUMPDEST PUSH2 0xD65 DUP2 PUSH2 0x21A3 JUMP JUMPDEST PUSH2 0xD7E DUP2 PUSH1 0x40 MLOAD DUP1 PUSH1 0x20 ADD PUSH1 0x40 MSTORE DUP1 PUSH0 DUP2 MSTORE POP PUSH0 PUSH2 0x21FE JUMP JUMPDEST POP JUMP JUMPDEST PUSH0 PUSH1 0x7 PUSH0 SWAP1 SLOAD SWAP1 PUSH2 0x100 EXP SWAP1 DIV PUSH20 0xFFFFFFFFFFFFFFFFFFFFFFFFFFFFFFFFFFFFFFFF AND SWAP1 POP SWAP1 JUMP JUMPDEST PUSH1 0x9 SLOAD DUP2 JUMP JUMPDEST PUSH1 0x8 DUP1 SLOAD PUSH2 0xDBC SWAP1 PUSH2 0x323D JUMP JUMPDEST DUP1 PUSH1 0x1F ADD PUSH1 0x20 DUP1 SWAP2 DIV MUL PUSH1 0x20 ADD PUSH1 0x40 MLOAD SWAP1 DUP2 ADD PUSH1 0x40 MSTORE DUP1 SWAP3 SWAP2 SWAP1 DUP2 DUP2 MSTORE PUSH1 0x20 ADD DUP3 DUP1 SLOAD PUSH2 0xDE8 SWAP1 PUSH2 0x323D JUMP JUMPDEST DUP1 ISZERO PUSH2 0xE33 JUMPI DUP1 PUSH1 0x1F LT PUSH2 0xE0A JUMPI PUSH2 0x100 DUP1 DUP4 SLOAD DIV MUL DUP4 MSTORE SWAP2 PUSH1 0x20 ADD SWAP2 PUSH2 0xE33 JUMP JUMPDEST DUP3 ADD SWAP2 SWAP1 PUSH0 MSTORE PUSH1 0x20 PUSH0 KECCAK256 SWAP1 JUMPDEST DUP2 SLOAD DUP2 MSTORE SWAP1 PUSH1 0x1 ADD SWAP1 PUSH1 0x20 ADD DUP1 DUP4 GT PUSH2 0xE16 JUMPI DUP3 SWAP1 SUB PUSH1 0x1F AND DUP3 ADD SWAP2 JUMPDEST POP POP POP POP POP DUP2 JUMP JUMPDEST PUSH32 0x0 PUSH20 0xFFFFFFFFFFFFFFFFFFFFFFFFFFFFFFFFFFFFFFFF AND ADDRESS PUSH20 0xFFFFFFFFFFFFFFFFFFFFFFFFFFFFFFFFFFFFFFFF AND SUB PUSH2 0xEC9 JUMPI PUSH1 0x40 MLOAD PUSH32 0x8C379A000000000000000000000000000000000000000000000000000000000 DUP2 MSTORE PUSH1 0x4 ADD PUSH2 0xEC0 SWAP1 PUSH2 0x33F0 JUMP JUMPDEST PUSH1 0x40 MLOAD DUP1 SWAP2 SUB SWAP1 REVERT JUMPDEST PUSH32 0x0 PUSH20 0xFFFFFFFFFFFFFFFFFFFFFFFFFFFFFFFFFFFFFFFF AND PUSH2 0xF08 PUSH2 0x2174 JUMP JUMPDEST PUSH20 0xFFFFFFFFFFFFFFFFFFFFFFFFFFFFFFFFFFFFFFFF AND EQ PUSH2 0xF5E JUMPI PUSH1 0x40 MLOAD PUSH32 0x8C379A000000000000000000000000000000000000000000000000000000000 DUP2 MSTORE PUSH1 0x4 ADD PUSH2 0xF55 SWAP1 PUSH2 0x3458 JUMP JUMPDEST PUSH1 0x40 MLOAD DUP1 SWAP2 SUB SWAP1 REVERT JUMPDEST PUSH2 0xF67 DUP4 PUSH2 0x21A3 JUMP JUMPDEST PUSH2 0xFB6 DUP4 DUP4 DUP4 DUP1 DUP1 PUSH1 0x1F ADD PUSH1 0x20 DUP1 SWAP2 DIV MUL PUSH1 0x20 ADD PUSH1 0x40 MLOAD SWAP1 DUP2 ADD PUSH1 0x40 MSTORE DUP1 SWAP4 SWAP3 SWAP2 SWAP1 DUP2 DUP2 MSTORE PUSH1 0x20 ADD DUP4 DUP4 DUP1 DUP3 DUP5 CALLDATACOPY PUSH0 DUP2 DUP5 ADD MSTORE PUSH1 0x1F NOT PUSH1 0x1F DUP3 ADD AND SWAP1 POP DUP1 DUP4 ADD SWAP3 POP POP POP POP POP POP POP PUSH1 0x1 PUSH2 0x21FE JUMP JUMPDEST POP POP POP JUMP JUMPDEST PUSH0 PUSH32 0x0 PUSH20 0xFFFFFFFFFFFFFFFFFFFFFFFFFFFFFFFFFFFFFFFF AND ADDRESS PUSH20 0xFFFFFFFFFFFFFFFFFFFFFFFFFFFFFFFFFFFFFFFF AND EQ PUSH2 0x104A JUMPI PUSH1 0x40 MLOAD PUSH32 0x8C379A000000000000000000000000000000000000000000000000000000000 DUP2 MSTORE PUSH1 0x4 ADD PUSH2 0x1041 SWAP1 PUSH2 0x34C0 JUMP JUMPDEST PUSH1 0x40 MLOAD DUP1 SWAP2 SUB SWAP1 REVERT JUMPDEST PUSH32 0x360894A13BA1A3210667C828492DB98DCA3E2076CC3735A920A3CA505D382BBC PUSH0 SHL SWAP1 POP SWAP1 JUMP JUMPDEST PUSH0 PUSH1 0x2 SWAP1 SLOAD SWAP1 PUSH2 0x100 EXP SWAP1 DIV PUSH20 0xFFFFFFFFFFFFFFFFFFFFFFFFFFFFFFFFFFFFFFFF AND PUSH20 0xFFFFFFFFFFFFFFFFFFFFFFFFFFFFFFFFFFFFFFFF AND CALLER PUSH20 0xFFFFFFFFFFFFFFFFFFFFFFFFFFFFFFFFFFFFFFFF AND EQ PUSH2 0x10CA JUMPI PUSH0 PUSH0 REVERT JUMPDEST PUSH1 0xB PUSH0 DUP4 PUSH20 0xFFFFFFFFFFFFFFFFFFFFFFFFFFFFFFFFFFFFFFFF AND PUSH20 0xFFFFFFFFFFFFFFFFFFFFFFFFFFFFFFFFFFFFFFFF AND DUP2 MSTORE PUSH1 0x20 ADD SWAP1 DUP2 MSTORE PUSH1 0x20 ADD PUSH0 KECCAK256 PUSH0 SWAP1 SLOAD SWAP1 PUSH2 0x100 EXP SWAP1 DIV PUSH1 0xFF AND PUSH2 0x111C JUMPI PUSH0 PUSH0 REVERT JUMPDEST PUSH2 0x1124 PUSH2 0x13F1 JUMP JUMPDEST DUP2 GT ISZERO PUSH2 0x112F JUMPI PUSH0 PUSH0 REVERT JUMPDEST DUP2 PUSH20 0xFFFFFFFFFFFFFFFFFFFFFFFFFFFFFFFFFFFFFFFF AND PUSH4 0x3E3722B6 DUP3 PUSH1 0x40 MLOAD DUP3 PUSH4 0xFFFFFFFF AND PUSH1 0xE0 SHL DUP2 MSTORE PUSH1 0x4 ADD PUSH2 0x1168 SWAP2 SWAP1 PUSH2 0x2BD7 JUMP JUMPDEST PUSH0 PUSH1 0x40 MLOAD DUP1 DUP4 SUB DUP2 PUSH0 DUP8 DUP1 EXTCODESIZE ISZERO DUP1 ISZERO PUSH2 0x117F JUMPI PUSH0 PUSH0 REVERT JUMPDEST POP GAS CALL ISZERO DUP1 ISZERO PUSH2 0x1191 JUMPI RETURNDATASIZE PUSH0 PUSH0 RETURNDATACOPY RETURNDATASIZE PUSH0 REVERT JUMPDEST POP POP POP POP POP POP JUMP JUMPDEST PUSH0 PUSH1 0x2 SWAP1 SLOAD SWAP1 PUSH2 0x100 EXP SWAP1 DIV PUSH20 0xFFFFFFFFFFFFFFFFFFFFFFFFFFFFFFFFFFFFFFFF AND PUSH20 0xFFFFFFFFFFFFFFFFFFFFFFFFFFFFFFFFFFFFFFFF AND CALLER PUSH20 0xFFFFFFFFFFFFFFFFFFFFFFFFFFFFFFFFFFFFFFFF AND EQ PUSH2 0x11F1 JUMPI PUSH0 PUSH0 REVERT JUMPDEST PUSH1 0xB PUSH0 DUP4 PUSH20 0xFFFFFFFFFFFFFFFFFFFFFFFFFFFFFFFFFFFFFFFF AND PUSH20 0xFFFFFFFFFFFFFFFFFFFFFFFFFFFFFFFFFFFFFFFF AND DUP2 MSTORE PUSH1 0x20 ADD SWAP1 DUP2 MSTORE PUSH1 0x20 ADD PUSH0 KECCAK256 PUSH0 SWAP1 SLOAD SWAP1 PUSH2 0x100 EXP SWAP1 DIV PUSH1 0xFF AND PUSH2 0x1243 JUMPI PUSH0 PUSH0 REVERT JUMPDEST PUSH2 0x124B PUSH2 0x13F1 JUMP JUMPDEST DUP2 GT ISZERO PUSH2 0x1256 JUMPI PUSH0 PUSH0 REVERT JUMPDEST PUSH2 0x125E PUSH2 0xD81 JUMP JUMPDEST PUSH20 0xFFFFFFFFFFFFFFFFFFFFFFFFFFFFFFFFFFFFFFFF AND PUSH4 0xA9059CBB DUP4 DUP4 PUSH1 0x40 MLOAD DUP4 PUSH4 0xFFFFFFFF AND PUSH1 0xE0 SHL DUP2 MSTORE PUSH1 0x4 ADD PUSH2 0x1298 SWAP3 SWAP2 SWAP1 PUSH2 0x34DE JUMP JUMPDEST PUSH1 0x20 PUSH1 0x40 MLOAD DUP1 DUP4 SUB DUP2 PUSH0 DUP8 GAS CALL ISZERO DUP1 ISZERO PUSH2 0x12B4 JUMPI RETURNDATASIZE PUSH0 PUSH0 RETURNDATACOPY RETURNDATASIZE PUSH0 REVERT JUMPDEST POP POP POP POP PUSH1 0x40 MLOAD RETURNDATASIZE PUSH1 0x1F NOT PUSH1 0x1F DUP3 ADD AND DUP3 ADD DUP1 PUSH1 0x40 MSTORE POP DUP2 ADD SWAP1 PUSH2 0x12D8 SWAP2 SWAP1 PUSH2 0x352F JUMP JUMPDEST POP DUP2 PUSH20 0xFFFFFFFFFFFFFFFFFFFFFFFFFFFFFFFFFFFFFFFF AND PUSH4 0x4B92917A DUP3 PUSH1 0x40 MLOAD DUP3 PUSH4 0xFFFFFFFF AND PUSH1 0xE0 SHL DUP2 MSTORE PUSH1 0x4 ADD PUSH2 0x1312 SWAP2 SWAP1 PUSH2 0x2BD7 JUMP JUMPDEST PUSH0 PUSH1 0x40 MLOAD DUP1 DUP4 SUB DUP2 PUSH0 DUP8 DUP1 EXTCODESIZE ISZERO DUP1 ISZERO PUSH2 0x1329 JUMPI PUSH0 PUSH0 REVERT JUMPDEST POP GAS CALL ISZERO DUP1 ISZERO PUSH2 0x133B JUMPI RETURNDATASIZE PUSH0 PUSH0 RETURNDATACOPY RETURNDATASIZE PUSH0 REVERT JUMPDEST POP POP POP POP POP POP JUMP JUMPDEST PUSH0 PUSH2 0x134C PUSH2 0x13F1 JUMP JUMPDEST DUP4 GT ISZERO PUSH2 0x1357 JUMPI PUSH0 PUSH0 REVERT JUMPDEST PUSH2 0x1361 DUP4 DUP4 PUSH2 0x233B JUMP JUMPDEST SWAP1 POP SWAP3 SWAP2 POP POP JUMP JUMPDEST PUSH1 0xB PUSH1 0x20 MSTORE DUP1 PUSH0 MSTORE PUSH1 0x40 PUSH0 KECCAK256 PUSH0 SWAP2 POP SLOAD SWAP1 PUSH2 0x100 EXP SWAP1 DIV PUSH1 0xFF AND DUP2 JUMP JUMPDEST PUSH0 PUSH1 0x5 PUSH0 DUP4 PUSH20 0xFFFFFFFFFFFFFFFFFFFFFFFFFFFFFFFFFFFFFFFF AND PUSH20 0xFFFFFFFFFFFFFFFFFFFFFFFFFFFFFFFFFFFFFFFF AND DUP2 MSTORE PUSH1 0x20 ADD SWAP1 DUP2 MSTORE PUSH1 0x20 ADD PUSH0 KECCAK256 SLOAD SWAP1 POP SWAP2 SWAP1 POP JUMP JUMPDEST PUSH0 PUSH1 0x2 SWAP1 SLOAD SWAP1 PUSH2 0x100 EXP SWAP1 DIV PUSH20 0xFFFFFFFFFFFFFFFFFFFFFFFFFFFFFFFFFFFFFFFF AND DUP2 JUMP JUMPDEST PUSH0 PUSH2 0x13FA PUSH2 0xD81 JUMP JUMPDEST PUSH20 0xFFFFFFFFFFFFFFFFFFFFFFFFFFFFFFFFFFFFFFFF AND PUSH4 0x70A08231 ADDRESS PUSH1 0x40 MLOAD DUP3 PUSH4 0xFFFFFFFF AND PUSH1 0xE0 SHL DUP2 MSTORE PUSH1 0x4 ADD PUSH2 0x1432 SWAP2 SWAP1 PUSH2 0x2E32 JUMP JUMPDEST PUSH1 0x20 PUSH1 0x40 MLOAD DUP1 DUP4 SUB DUP2 DUP7 GAS STATICCALL ISZERO DUP1 ISZERO PUSH2 0x144D JUMPI RETURNDATASIZE PUSH0 PUSH0 RETURNDATACOPY RETURNDATASIZE PUSH0 REVERT JUMPDEST POP POP POP POP PUSH1 0x40 MLOAD RETURNDATASIZE PUSH1 0x1F NOT PUSH1 0x1F DUP3 ADD AND DUP3 ADD DUP1 PUSH1 0x40 MSTORE POP DUP2 ADD SWAP1 PUSH2 0x1471 SWAP2 SWAP1 PUSH2 0x3158 JUMP JUMPDEST SWAP1 POP SWAP1 JUMP JUMPDEST PUSH0 PUSH1 0x2 SWAP1 SLOAD SWAP1 PUSH2 0x100 EXP SWAP1 DIV PUSH20 0xFFFFFFFFFFFFFFFFFFFFFFFFFFFFFFFFFFFFFFFF AND PUSH20 0xFFFFFFFFFFFFFFFFFFFFFFFFFFFFFFFFFFFFFFFF AND CALLER PUSH20 0xFFFFFFFFFFFFFFFFFFFFFFFFFFFFFFFFFFFFFFFF AND EQ PUSH2 0x14CE JUMPI PUSH0 PUSH0 REVERT JUMPDEST PUSH0 PUSH20 0xFFFFFFFFFFFFFFFFFFFFFFFFFFFFFFFFFFFFFFFF AND DUP2 PUSH20 0xFFFFFFFFFFFFFFFFFFFFFFFFFFFFFFFFFFFFFFFF AND SUB PUSH2 0x1505 JUMPI PUSH0 PUSH0 REVERT JUMPDEST PUSH1 0xB PUSH0 DUP3 PUSH20 0xFFFFFFFFFFFFFFFFFFFFFFFFFFFFFFFFFFFFFFFF AND PUSH20 0xFFFFFFFFFFFFFFFFFFFFFFFFFFFFFFFFFFFFFFFF AND DUP2 MSTORE PUSH1 0x20 ADD SWAP1 DUP2 MSTORE PUSH1 0x20 ADD PUSH0 KECCAK256 PUSH0 SWAP1 SLOAD SWAP1 PUSH2 0x100 EXP SWAP1 DIV PUSH1 0xFF AND ISZERO PUSH2 0x1558 JUMPI PUSH0 PUSH0 REVERT JUMPDEST PUSH1 0x1 PUSH1 0xB PUSH0 DUP4 PUSH20 0xFFFFFFFFFFFFFFFFFFFFFFFFFFFFFFFFFFFFFFFF AND PUSH20 0xFFFFFFFFFFFFFFFFFFFFFFFFFFFFFFFFFFFFFFFF AND DUP2 MSTORE PUSH1 0x20 ADD SWAP1 DUP2 MSTORE PUSH1 0x20 ADD PUSH0 KECCAK256 PUSH0 PUSH2 0x100 EXP DUP2 SLOAD DUP2 PUSH1 0xFF MUL NOT AND SWAP1 DUP4 ISZERO ISZERO MUL OR SWAP1 SSTORE POP PUSH1 0xA DUP2 SWAP1 DUP1 PUSH1 0x1 DUP2 SLOAD ADD DUP1 DUP3 SSTORE DUP1 SWAP2 POP POP PUSH1 0x1 SWAP1 SUB SWAP1 PUSH0 MSTORE PUSH1 0x20 PUSH0 KECCAK256 ADD PUSH0 SWAP1 SWAP2 SWAP1 SWAP2 SWAP1 SWAP2 PUSH2 0x100 EXP DUP2 SLOAD DUP2 PUSH20 0xFFFFFFFFFFFFFFFFFFFFFFFFFFFFFFFFFFFFFFFF MUL NOT AND SWAP1 DUP4 PUSH20 0xFFFFFFFFFFFFFFFFFFFFFFFFFFFFFFFFFFFFFFFF AND MUL OR SWAP1 SSTORE POP POP JUMP JUMPDEST PUSH0 PUSH0 DUP4 GT PUSH2 0x1653 JUMPI PUSH1 0x40 MLOAD PUSH32 0x8C379A000000000000000000000000000000000000000000000000000000000 DUP2 MSTORE PUSH1 0x4 ADD PUSH2 0x164A SWAP1 PUSH2 0x35A4 JUMP JUMPDEST PUSH1 0x40 MLOAD DUP1 SWAP2 SUB SWAP1 REVERT JUMPDEST PUSH2 0x165C DUP4 PUSH2 0xA34 JUMP JUMPDEST SWAP1 POP PUSH0 DUP2 GT PUSH2 0x16A0 JUMPI PUSH1 0x40 MLOAD PUSH32 0x8C379A000000000000000000000000000000000000000000000000000000000 DUP2 MSTORE PUSH1 0x4 ADD PUSH2 0x1697 SWAP1 PUSH2 0x360C JUMP JUMPDEST PUSH1 0x40 MLOAD DUP1 SWAP2 SUB SWAP1 REVERT JUMPDEST PUSH1 0x7 PUSH0 SWAP1 SLOAD SWAP1 PUSH2 0x100 EXP SWAP1 DIV PUSH20 0xFFFFFFFFFFFFFFFFFFFFFFFFFFFFFFFFFFFFFFFF AND PUSH20 0xFFFFFFFFFFFFFFFFFFFFFFFFFFFFFFFFFFFFFFFF AND PUSH4 0x23B872DD CALLER ADDRESS DUP5 PUSH1 0x40 MLOAD DUP5 PUSH4 0xFFFFFFFF AND PUSH1 0xE0 SHL DUP2 MSTORE PUSH1 0x4 ADD PUSH2 0x16FE SWAP4 SWAP3 SWAP2 SWAP1 PUSH2 0x362A JUMP JUMPDEST PUSH1 0x20 PUSH1 0x40 MLOAD DUP1 DUP4 SUB DUP2 PUSH0 DUP8 GAS CALL ISZERO DUP1 ISZERO PUSH2 0x171A JUMPI RETURNDATASIZE PUSH0 PUSH0 RETURNDATACOPY RETURNDATASIZE PUSH0 REVERT JUMPDEST POP POP POP POP PUSH1 0x40 MLOAD RETURNDATASIZE PUSH1 0x1F NOT PUSH1 0x1F DUP3 ADD AND DUP3 ADD DUP1 PUSH1 0x40 MSTORE POP DUP2 ADD SWAP1 PUSH2 0x173E SWAP2 SWAP1 PUSH2 0x352F JUMP JUMPDEST POP PUSH2 0x1749 DUP3 DUP5 PUSH2 0x24E1 JUMP JUMPDEST DUP2 PUSH20 0xFFFFFFFFFFFFFFFFFFFFFFFFFFFFFFFFFFFFFFFF AND CALLER PUSH20 0xFFFFFFFFFFFFFFFFFFFFFFFFFFFFFFFFFFFFFFFF AND PUSH32 0xDCBC1C05240F31FF3AD067EF1EE35CE4997762752E3A095284754544F4C709D7 DUP4 DUP7 PUSH1 0x40 MLOAD PUSH2 0x17A8 SWAP3 SWAP2 SWAP1 PUSH2 0x365F JUMP JUMPDEST PUSH1 0x40 MLOAD DUP1 SWAP2 SUB SWAP1 LOG3 SWAP3 SWAP2 POP POP JUMP JUMPDEST PUSH1 0x60 PUSH1 0x2 DUP1 SLOAD PUSH2 0x17C5 SWAP1 PUSH2 0x323D JUMP JUMPDEST DUP1 PUSH1 0x1F ADD PUSH1 0x20 DUP1 SWAP2 DIV MUL PUSH1 0x20 ADD PUSH1 0x40 MLOAD SWAP1 DUP2 ADD PUSH1 0x40 MSTORE DUP1 SWAP3 SWAP2 SWAP1 DUP2 DUP2 MSTORE PUSH1 0x20 ADD DUP3 DUP1 SLOAD PUSH2 0x17F1 SWAP1 PUSH2 0x323D JUMP JUMPDEST DUP1 ISZERO PUSH2 0x183C JUMPI DUP1 PUSH1 0x1F LT PUSH2 0x1813 JUMPI PUSH2 0x100 DUP1 DUP4 SLOAD DIV MUL DUP4 MSTORE SWAP2 PUSH1 0x20 ADD SWAP2 PUSH2 0x183C JUMP JUMPDEST DUP3 ADD SWAP2 SWAP1 PUSH0 MSTORE PUSH1 0x20 PUSH0 KECCAK256 SWAP1 JUMPDEST DUP2 SLOAD DUP2 MSTORE SWAP1 PUSH1 0x1 ADD SWAP1 PUSH1 0x20 ADD DUP1 DUP4 GT PUSH2 0x181F JUMPI DUP3 SWAP1 SUB PUSH1 0x1F AND DUP3 ADD SWAP2 JUMPDEST POP POP POP POP POP SWAP1 POP SWAP1 JUMP JUMPDEST PUSH0 PUSH2 0x1852 CALLER DUP5 DUP5 PUSH2 0x1F80 JUMP JUMPDEST PUSH1 0x1 SWAP1 POP SWAP3 SWAP2 POP POP JUMP JUMPDEST PUSH1 0xA DUP2 DUP2 SLOAD DUP2 LT PUSH2 0x186B JUMPI PUSH0 DUP1 REVERT JUMPDEST SWAP1 PUSH0 MSTORE PUSH1 0x20 PUSH0 KECCAK256 ADD PUSH0 SWAP2 POP SLOAD SWAP1 PUSH2 0x100 EXP SWAP1 DIV PUSH20 0xFFFFFFFFFFFFFFFFFFFFFFFFFFFFFFFFFFFFFFFF AND DUP2 JUMP JUMPDEST PUSH0 PUSH2 0x18A0 PUSH2 0x13F1 JUMP JUMPDEST DUP5 GT ISZERO PUSH2 0x18AB JUMPI PUSH0 PUSH0 REVERT JUMPDEST PUSH2 0x18B6 DUP5 DUP5 DUP5 PUSH2 0x2623 JUMP JUMPDEST SWAP1 POP SWAP4 SWAP3 POP POP POP JUMP JUMPDEST PUSH0 PUSH0 DUP5 GT PUSH2 0x1902 JUMPI PUSH1 0x40 MLOAD PUSH32 0x8C379A000000000000000000000000000000000000000000000000000000000 DUP2 MSTORE PUSH1 0x4 ADD PUSH2 0x18F9 SWAP1 PUSH2 0x35A4 JUMP JUMPDEST PUSH1 0x40 MLOAD DUP1 SWAP2 SUB SWAP1 REVERT JUMPDEST PUSH2 0x190B DUP5 PUSH2 0xA34 JUMP JUMPDEST SWAP1 POP CALLER PUSH20 0xFFFFFFFFFFFFFFFFFFFFFFFFFFFFFFFFFFFFFFFF AND DUP3 PUSH20 0xFFFFFFFFFFFFFFFFFFFFFFFFFFFFFFFFFFFFFFFF AND EQ PUSH2 0x19D0 JUMPI PUSH0 PUSH2 0x194B DUP4 CALLER PUSH2 0x1C87 JUMP JUMPDEST SWAP1 POP DUP5 DUP2 LT ISZERO PUSH2 0x1990 JUMPI PUSH1 0x40 MLOAD PUSH32 0x8C379A000000000000000000000000000000000000000000000000000000000 DUP2 MSTORE PUSH1 0x4 ADD PUSH2 0x1987 SWAP1 PUSH2 0x3355 JUMP JUMPDEST PUSH1 0x40 MLOAD DUP1 SWAP2 SUB SWAP1 REVERT JUMPDEST PUSH32 0xFFFFFFFFFFFFFFFFFFFFFFFFFFFFFFFFFFFFFFFFFFFFFFFFFFFFFFFFFFFFFFFF DUP2 EQ PUSH2 0x19CE JUMPI PUSH2 0x19CD DUP4 CALLER DUP8 DUP5 PUSH2 0x19C8 SWAP2 SWAP1 PUSH2 0x3373 JUMP JUMPDEST PUSH2 0x1E99 JUMP JUMPDEST JUMPDEST POP JUMPDEST PUSH2 0x19DA DUP3 DUP6 PUSH2 0x2880 JUMP JUMPDEST PUSH1 0x7 PUSH0 SWAP1 SLOAD SWAP1 PUSH2 0x100 EXP SWAP1 DIV PUSH20 0xFFFFFFFFFFFFFFFFFFFFFFFFFFFFFFFFFFFFFFFF AND PUSH20 0xFFFFFFFFFFFFFFFFFFFFFFFFFFFFFFFFFFFFFFFF AND PUSH4 0xA9059CBB DUP5 DUP4 PUSH1 0x40 MLOAD DUP4 PUSH4 0xFFFFFFFF AND PUSH1 0xE0 SHL DUP2 MSTORE PUSH1 0x4 ADD PUSH2 0x1A36 SWAP3 SWAP2 SWAP1 PUSH2 0x34DE JUMP JUMPDEST PUSH1 0x20 PUSH1 0x40 MLOAD DUP1 DUP4 SUB DUP2 PUSH0 DUP8 GAS CALL ISZERO DUP1 ISZERO PUSH2 0x1A52 JUMPI RETURNDATASIZE PUSH0 PUSH0 RETURNDATACOPY RETURNDATASIZE PUSH0 REVERT JUMPDEST POP POP POP POP PUSH1 0x40 MLOAD RETURNDATASIZE PUSH1 0x1F NOT PUSH1 0x1F DUP3 ADD AND DUP3 ADD DUP1 PUSH1 0x40 MSTORE POP DUP2 ADD SWAP1 PUSH2 0x1A76 SWAP2 SWAP1 PUSH2 0x352F JUMP JUMPDEST POP DUP2 PUSH20 0xFFFFFFFFFFFFFFFFFFFFFFFFFFFFFFFFFFFFFFFF AND DUP4 PUSH20 0xFFFFFFFFFFFFFFFFFFFFFFFFFFFFFFFFFFFFFFFF AND CALLER PUSH20 0xFFFFFFFFFFFFFFFFFFFFFFFFFFFFFFFFFFFFFFFF AND PUSH32 0xFBDE797D201C681B91056529119E0B02407C7BB96A4A2C75C01FC9667232C8DB DUP5 DUP9 PUSH1 0x40 MLOAD PUSH2 0x1AED SWAP3 SWAP2 SWAP1 PUSH2 0x365F JUMP JUMPDEST PUSH1 0x40 MLOAD DUP1 SWAP2 SUB SWAP1 LOG4 SWAP4 SWAP3 POP POP POP JUMP JUMPDEST PUSH0 PUSH0 ADDRESS PUSH20 0xFFFFFFFFFFFFFFFFFFFFFFFFFFFFFFFFFFFFFFFF AND PUSH4 0x18160DDD PUSH1 0x40 MLOAD DUP2 PUSH4 0xFFFFFFFF AND PUSH1 0xE0 SHL DUP2 MSTORE PUSH1 0x4 ADD PUSH1 0x20 PUSH1 0x40 MLOAD DUP1 DUP4 SUB DUP2 DUP7 GAS STATICCALL ISZERO DUP1 ISZERO PUSH2 0x1B47 JUMPI RETURNDATASIZE PUSH0 PUSH0 RETURNDATACOPY RETURNDATASIZE PUSH0 REVERT JUMPDEST POP POP POP POP PUSH1 0x40 MLOAD RETURNDATASIZE PUSH1 0x1F NOT PUSH1 0x1F DUP3 ADD AND DUP3 ADD DUP1 PUSH1 0x40 MSTORE POP DUP2 ADD SWAP1 PUSH2 0x1B6B SWAP2 SWAP1 PUSH2 0x3158 JUMP JUMPDEST SWAP1 POP PUSH0 PUSH2 0x1B76 PUSH2 0x7C1 JUMP JUMPDEST SWAP1 POP PUSH0 DUP3 EQ DUP1 PUSH2 0x1B85 JUMPI POP PUSH0 DUP2 EQ JUMPDEST ISZERO PUSH2 0x1B94 JUMPI DUP4 SWAP3 POP POP POP PUSH2 0x1BB0 JUMP JUMPDEST DUP1 DUP3 DUP6 PUSH2 0x1BA1 SWAP2 SWAP1 PUSH2 0x326D JUMP JUMPDEST PUSH2 0x1BAB SWAP2 SWAP1 PUSH2 0x32DB JUMP JUMPDEST SWAP3 POP POP POP JUMPDEST SWAP2 SWAP1 POP JUMP JUMPDEST PUSH0 PUSH1 0x2 SWAP1 SLOAD SWAP1 PUSH2 0x100 EXP SWAP1 DIV PUSH20 0xFFFFFFFFFFFFFFFFFFFFFFFFFFFFFFFFFFFFFFFF AND PUSH20 0xFFFFFFFFFFFFFFFFFFFFFFFFFFFFFFFFFFFFFFFF AND CALLER PUSH20 0xFFFFFFFFFFFFFFFFFFFFFFFFFFFFFFFFFFFFFFFF AND EQ PUSH2 0x1C0D JUMPI PUSH0 PUSH0 REVERT JUMPDEST PUSH0 PUSH20 0xFFFFFFFFFFFFFFFFFFFFFFFFFFFFFFFFFFFFFFFF AND DUP2 PUSH20 0xFFFFFFFFFFFFFFFFFFFFFFFFFFFFFFFFFFFFFFFF AND SUB PUSH2 0x1C44 JUMPI PUSH0 PUSH0 REVERT JUMPDEST DUP1 PUSH0 PUSH1 0x2 PUSH2 0x100 EXP DUP2 SLOAD DUP2 PUSH20 0xFFFFFFFFFFFFFFFFFFFFFFFFFFFFFFFFFFFFFFFF MUL NOT AND SWAP1 DUP4 PUSH20 0xFFFFFFFFFFFFFFFFFFFFFFFFFFFFFFFFFFFFFFFF AND MUL OR SWAP1 SSTORE POP POP JUMP JUMPDEST PUSH0 PUSH1 0x6 PUSH0 DUP5 PUSH20 0xFFFFFFFFFFFFFFFFFFFFFFFFFFFFFFFFFFFFFFFF AND PUSH20 0xFFFFFFFFFFFFFFFFFFFFFFFFFFFFFFFFFFFFFFFF AND DUP2 MSTORE PUSH1 0x20 ADD SWAP1 DUP2 MSTORE PUSH1 0x20 ADD PUSH0 KECCAK256 PUSH0 DUP4 PUSH20 0xFFFFFFFFFFFFFFFFFFFFFFFFFFFFFFFFFFFFFFFF AND PUSH20 0xFFFFFFFFFFFFFFFFFFFFFFFFFFFFFFFFFFFFFFFF AND DUP2 MSTORE PUSH1 0x20 ADD SWAP1 DUP2 MSTORE PUSH1 0x20 ADD PUSH0 KECCAK256 SLOAD SWAP1 POP SWAP3 SWAP2 POP POP JUMP JUMPDEST PUSH0 PUSH0 SWAP1 SLOAD SWAP1 PUSH2 0x100 EXP SWAP1 DIV PUSH1 0xFF AND ISZERO DUP1 PUSH2 0x1D2E JUMPI POP PUSH0 PUSH1 0x1 SWAP1 SLOAD SWAP1 PUSH2 0x100 EXP SWAP1 DIV PUSH1 0xFF AND JUMPDEST PUSH2 0x1D6D JUMPI PUSH1 0x40 MLOAD PUSH32 0x8C379A000000000000000000000000000000000000000000000000000000000 DUP2 MSTORE PUSH1 0x4 ADD PUSH2 0x1D64 SWAP1 PUSH2 0x36D0 JUMP JUMPDEST PUSH1 0x40 MLOAD DUP1 SWAP2 SUB SWAP1 REVERT JUMPDEST PUSH0 PUSH0 PUSH1 0x1 SWAP1 SLOAD SWAP1 PUSH2 0x100 EXP SWAP1 DIV PUSH1 0xFF AND ISZERO SWAP1 POP DUP1 ISZERO PUSH2 0x1DBA JUMPI PUSH1 0x1 PUSH0 PUSH1 0x1 PUSH2 0x100 EXP DUP2 SLOAD DUP2 PUSH1 0xFF MUL NOT AND SWAP1 DUP4 ISZERO ISZERO MUL OR SWAP1 SSTORE POP PUSH1 0x1 PUSH0 PUSH0 PUSH2 0x100 EXP DUP2 SLOAD DUP2 PUSH1 0xFF MUL NOT AND SWAP1 DUP4 ISZERO ISZERO MUL OR SWAP1 SSTORE POP JUMPDEST PUSH2 0x1DC3 DUP11 PUSH2 0x29CA JUMP JUMPDEST PUSH2 0x1E54 DUP10 DUP8 DUP8 DUP1 DUP1 PUSH1 0x1F ADD PUSH1 0x20 DUP1 SWAP2 DIV MUL PUSH1 0x20 ADD PUSH1 0x40 MLOAD SWAP1 DUP2 ADD PUSH1 0x40 MSTORE DUP1 SWAP4 SWAP3 SWAP2 SWAP1 DUP2 DUP2 MSTORE PUSH1 0x20 ADD DUP4 DUP4 DUP1 DUP3 DUP5 CALLDATACOPY PUSH0 DUP2 DUP5 ADD MSTORE PUSH1 0x1F NOT PUSH1 0x1F DUP3 ADD AND SWAP1 POP DUP1 DUP4 ADD SWAP3 POP POP POP POP POP POP POP DUP7 DUP7 DUP1 DUP1 PUSH1 0x1F ADD PUSH1 0x20 DUP1 SWAP2 DIV MUL PUSH1 0x20 ADD PUSH1 0x40 MLOAD SWAP1 DUP2 ADD PUSH1 0x40 MSTORE DUP1 SWAP4 SWAP3 SWAP2 SWAP1 DUP2 DUP2 MSTORE PUSH1 0x20 ADD DUP4 DUP4 DUP1 DUP3 DUP5 CALLDATACOPY PUSH0 DUP2 DUP5 ADD MSTORE PUSH1 0x1F NOT PUSH1 0x1F DUP3 ADD AND SWAP1 POP DUP1 DUP4 ADD SWAP3 POP POP POP POP POP POP POP PUSH2 0x2A44 JUMP JUMPDEST DUP8 DUP8 PUSH1 0x8 SWAP2 DUP3 PUSH2 0x1E65 SWAP3 SWAP2 SWAP1 PUSH2 0x38C5 JUMP JUMPDEST POP DUP2 PUSH1 0x9 DUP2 SWAP1 SSTORE POP DUP1 ISZERO PUSH2 0x1E8D JUMPI PUSH0 PUSH0 PUSH1 0x1 PUSH2 0x100 EXP DUP2 SLOAD DUP2 PUSH1 0xFF MUL NOT AND SWAP1 DUP4 ISZERO ISZERO MUL OR SWAP1 SSTORE POP JUMPDEST POP POP POP POP POP POP POP POP POP POP JUMP JUMPDEST DUP1 PUSH1 0x6 PUSH0 DUP6 PUSH20 0xFFFFFFFFFFFFFFFFFFFFFFFFFFFFFFFFFFFFFFFF AND PUSH20 0xFFFFFFFFFFFFFFFFFFFFFFFFFFFFFFFFFFFFFFFF AND DUP2 MSTORE PUSH1 0x20 ADD SWAP1 DUP2 MSTORE PUSH1 0x20 ADD PUSH0 KECCAK256 PUSH0 DUP5 PUSH20 0xFFFFFFFFFFFFFFFFFFFFFFFFFFFFFFFFFFFFFFFF AND PUSH20 0xFFFFFFFFFFFFFFFFFFFFFFFFFFFFFFFFFFFFFFFF AND DUP2 MSTORE PUSH1 0x20 ADD SWAP1 DUP2 MSTORE PUSH1 0x20 ADD PUSH0 KECCAK256 DUP2 SWAP1 SSTORE POP DUP2 PUSH20 0xFFFFFFFFFFFFFFFFFFFFFFFFFFFFFFFFFFFFFFFF AND DUP4 PUSH20 0xFFFFFFFFFFFFFFFFFFFFFFFFFFFFFFFFFFFFFFFF AND PUSH32 0x8C5BE1E5EBEC7D5BD14F71427D1E84F3DD0314C0F7B2291E5B200AC8C7C3B925 DUP4 PUSH1 0x40 MLOAD PUSH2 0x1F73 SWAP2 SWAP1 PUSH2 0x2BD7 JUMP JUMPDEST PUSH1 0x40 MLOAD DUP1 SWAP2 SUB SWAP1 LOG3 POP POP POP JUMP JUMPDEST PUSH0 PUSH20 0xFFFFFFFFFFFFFFFFFFFFFFFFFFFFFFFFFFFFFFFF AND DUP3 PUSH20 0xFFFFFFFFFFFFFFFFFFFFFFFFFFFFFFFFFFFFFFFF AND SUB PUSH2 0x1FEE JUMPI PUSH1 0x40 MLOAD PUSH32 0x8C379A000000000000000000000000000000000000000000000000000000000 DUP2 MSTORE PUSH1 0x4 ADD PUSH2 0x1FE5 SWAP1 PUSH2 0x39DC JUMP JUMPDEST PUSH1 0x40 MLOAD DUP1 SWAP2 SUB SWAP1 REVERT JUMPDEST PUSH0 PUSH1 0x5 PUSH0 DUP6 PUSH20 0xFFFFFFFFFFFFFFFFFFFFFFFFFFFFFFFFFFFFFFFF AND PUSH20 0xFFFFFFFFFFFFFFFFFFFFFFFFFFFFFFFFFFFFFFFF AND DUP2 MSTORE PUSH1 0x20 ADD SWAP1 DUP2 MSTORE PUSH1 0x20 ADD PUSH0 KECCAK256 SLOAD SWAP1 POP DUP2 DUP2 LT ISZERO PUSH2 0x2072 JUMPI PUSH1 0x40 MLOAD PUSH32 0x8C379A000000000000000000000000000000000000000000000000000000000 DUP2 MSTORE PUSH1 0x4 ADD PUSH2 0x2069 SWAP1 PUSH2 0x3A44 JUMP JUMPDEST PUSH1 0x40 MLOAD DUP1 SWAP2 SUB SWAP1 REVERT JUMPDEST DUP2 DUP2 SUB PUSH1 0x5 PUSH0 DUP7 PUSH20 0xFFFFFFFFFFFFFFFFFFFFFFFFFFFFFFFFFFFFFFFF AND PUSH20 0xFFFFFFFFFFFFFFFFFFFFFFFFFFFFFFFFFFFFFFFF AND DUP2 MSTORE PUSH1 0x20 ADD SWAP1 DUP2 MSTORE PUSH1 0x20 ADD PUSH0 KECCAK256 DUP2 SWAP1 SSTORE POP DUP2 PUSH1 0x5 PUSH0 DUP6 PUSH20 0xFFFFFFFFFFFFFFFFFFFFFFFFFFFFFFFFFFFFFFFF AND PUSH20 0xFFFFFFFFFFFFFFFFFFFFFFFFFFFFFFFFFFFFFFFF AND DUP2 MSTORE PUSH1 0x20 ADD SWAP1 DUP2 MSTORE PUSH1 0x20 ADD PUSH0 KECCAK256 PUSH0 DUP3 DUP3 SLOAD PUSH2 0x2102 SWAP2 SWAP1 PUSH2 0x31DD JUMP JUMPDEST SWAP3 POP POP DUP2 SWAP1 SSTORE POP DUP3 PUSH20 0xFFFFFFFFFFFFFFFFFFFFFFFFFFFFFFFFFFFFFFFF AND DUP5 PUSH20 0xFFFFFFFFFFFFFFFFFFFFFFFFFFFFFFFFFFFFFFFF AND PUSH32 0xDDF252AD1BE2C89B69C2B068FC378DAA952BA7F163C4A11628F55A4DF523B3EF DUP5 PUSH1 0x40 MLOAD PUSH2 0x2166 SWAP2 SWAP1 PUSH2 0x2BD7 JUMP JUMPDEST PUSH1 0x40 MLOAD DUP1 SWAP2 SUB SWAP1 LOG3 POP POP POP POP JUMP JUMPDEST PUSH0 PUSH0 PUSH32 0x360894A13BA1A3210667C828492DB98DCA3E2076CC3735A920A3CA505D382BBC PUSH0 SHL SWAP1 POP DUP1 SLOAD SWAP2 POP POP SWAP1 JUMP JUMPDEST PUSH0 PUSH1 0x2 SWAP1 SLOAD SWAP1 PUSH2 0x100 EXP SWAP1 DIV PUSH20 0xFFFFFFFFFFFFFFFFFFFFFFFFFFFFFFFFFFFFFFFF AND PUSH20 0xFFFFFFFFFFFFFFFFFFFFFFFFFFFFFFFFFFFFFFFF AND CALLER PUSH20 0xFFFFFFFFFFFFFFFFFFFFFFFFFFFFFFFFFFFFFFFF AND EQ PUSH2 0x21FB JUMPI PUSH0 PUSH0 REVERT JUMPDEST POP JUMP JUMPDEST PUSH0 PUSH20 0xFFFFFFFFFFFFFFFFFFFFFFFFFFFFFFFFFFFFFFFF AND DUP4 PUSH20 0xFFFFFFFFFFFFFFFFFFFFFFFFFFFFFFFFFFFFFFFF AND SUB PUSH2 0x226C JUMPI PUSH1 0x40 MLOAD PUSH32 0x8C379A000000000000000000000000000000000000000000000000000000000 DUP2 MSTORE PUSH1 0x4 ADD PUSH2 0x2263 SWAP1 PUSH2 0x3AAC JUMP JUMPDEST PUSH1 0x40 MLOAD DUP1 SWAP2 SUB SWAP1 REVERT JUMPDEST PUSH2 0x2275 DUP4 PUSH2 0x2B03 JUMP JUMPDEST DUP1 DUP1 PUSH2 0x2281 JUMPI POP PUSH0 DUP3 MLOAD GT JUMPDEST ISZERO PUSH2 0x2336 JUMPI PUSH0 PUSH0 DUP5 PUSH20 0xFFFFFFFFFFFFFFFFFFFFFFFFFFFFFFFFFFFFFFFF AND DUP5 PUSH1 0x40 MLOAD PUSH2 0x22AD SWAP2 SWAP1 PUSH2 0x3B0E JUMP JUMPDEST PUSH0 PUSH1 0x40 MLOAD DUP1 DUP4 SUB DUP2 DUP6 GAS DELEGATECALL SWAP2 POP POP RETURNDATASIZE DUP1 PUSH0 DUP2 EQ PUSH2 0x22E5 JUMPI PUSH1 0x40 MLOAD SWAP2 POP PUSH1 0x1F NOT PUSH1 0x3F RETURNDATASIZE ADD AND DUP3 ADD PUSH1 0x40 MSTORE RETURNDATASIZE DUP3 MSTORE RETURNDATASIZE PUSH0 PUSH1 0x20 DUP5 ADD RETURNDATACOPY PUSH2 0x22EA JUMP JUMPDEST PUSH1 0x60 SWAP2 POP JUMPDEST POP SWAP2 POP SWAP2 POP DUP2 DUP2 SWAP1 PUSH2 0x2332 JUMPI PUSH1 0x40 MLOAD PUSH32 0x8C379A000000000000000000000000000000000000000000000000000000000 DUP2 MSTORE PUSH1 0x4 ADD PUSH2 0x2329 SWAP2 SWAP1 PUSH2 0x2C60 JUMP JUMPDEST PUSH1 0x40 MLOAD DUP1 SWAP2 SUB SWAP1 REVERT JUMPDEST POP POP POP JUMPDEST POP POP POP JUMP JUMPDEST PUSH0 PUSH0 DUP4 GT PUSH2 0x237E JUMPI PUSH1 0x40 MLOAD PUSH32 0x8C379A000000000000000000000000000000000000000000000000000000000 DUP2 MSTORE PUSH1 0x4 ADD PUSH2 0x2375 SWAP1 PUSH2 0x360C JUMP JUMPDEST PUSH1 0x40 MLOAD DUP1 SWAP2 SUB SWAP1 REVERT JUMPDEST PUSH2 0x2387 DUP4 PUSH2 0x1AFC JUMP JUMPDEST SWAP1 POP PUSH0 DUP2 GT PUSH2 0x23CB JUMPI PUSH1 0x40 MLOAD PUSH32 0x8C379A000000000000000000000000000000000000000000000000000000000 DUP2 MSTORE PUSH1 0x4 ADD PUSH2 0x23C2 SWAP1 PUSH2 0x35A4 JUMP JUMPDEST PUSH1 0x40 MLOAD DUP1 SWAP2 SUB SWAP1 REVERT JUMPDEST PUSH1 0x7 PUSH0 SWAP1 SLOAD SWAP1 PUSH2 0x100 EXP SWAP1 DIV PUSH20 0xFFFFFFFFFFFFFFFFFFFFFFFFFFFFFFFFFFFFFFFF AND PUSH20 0xFFFFFFFFFFFFFFFFFFFFFFFFFFFFFFFFFFFFFFFF AND PUSH4 0x23B872DD CALLER ADDRESS DUP7 PUSH1 0x40 MLOAD DUP5 PUSH4 0xFFFFFFFF AND PUSH1 0xE0 SHL DUP2 MSTORE PUSH1 0x4 ADD PUSH2 0x2429 SWAP4 SWAP3 SWAP2 SWAP1 PUSH2 0x362A JUMP JUMPDEST PUSH1 0x20 PUSH1 0x40 MLOAD DUP1 DUP4 SUB DUP2 PUSH0 DUP8 GAS CALL ISZERO DUP1 ISZERO PUSH2 0x2445 JUMPI RETURNDATASIZE PUSH0 PUSH0 RETURNDATACOPY RETURNDATASIZE PUSH0 REVERT JUMPDEST POP POP POP POP PUSH1 0x40 MLOAD RETURNDATASIZE PUSH1 0x1F NOT PUSH1 0x1F DUP3 ADD AND DUP3 ADD DUP1 PUSH1 0x40 MSTORE POP DUP2 ADD SWAP1 PUSH2 0x2469 SWAP2 SWAP1 PUSH2 0x352F JUMP JUMPDEST POP PUSH2 0x2474 DUP3 DUP3 PUSH2 0x24E1 JUMP JUMPDEST DUP2 PUSH20 0xFFFFFFFFFFFFFFFFFFFFFFFFFFFFFFFFFFFFFFFF AND CALLER PUSH20 0xFFFFFFFFFFFFFFFFFFFFFFFFFFFFFFFFFFFFFFFF AND PUSH32 0xDCBC1C05240F31FF3AD067EF1EE35CE4997762752E3A095284754544F4C709D7 DUP6 DUP5 PUSH1 0x40 MLOAD PUSH2 0x24D3 SWAP3 SWAP2 SWAP1 PUSH2 0x365F JUMP JUMPDEST PUSH1 0x40 MLOAD DUP1 SWAP2 SUB SWAP1 LOG3 SWAP3 SWAP2 POP POP JUMP JUMPDEST PUSH0 PUSH20 0xFFFFFFFFFFFFFFFFFFFFFFFFFFFFFFFFFFFFFFFF AND DUP3 PUSH20 0xFFFFFFFFFFFFFFFFFFFFFFFFFFFFFFFFFFFFFFFF AND SUB PUSH2 0x254F JUMPI PUSH1 0x40 MLOAD PUSH32 0x8C379A000000000000000000000000000000000000000000000000000000000 DUP2 MSTORE PUSH1 0x4 ADD PUSH2 0x2546 SWAP1 PUSH2 0x39DC JUMP JUMPDEST PUSH1 0x40 MLOAD DUP1 SWAP2 SUB SWAP1 REVERT JUMPDEST DUP1 PUSH1 0x4 PUSH0 DUP3 DUP3 SLOAD PUSH2 0x2560 SWAP2 SWAP1 PUSH2 0x31DD JUMP JUMPDEST SWAP3 POP POP DUP2 SWAP1 SSTORE POP DUP1 PUSH1 0x5 PUSH0 DUP5 PUSH20 0xFFFFFFFFFFFFFFFFFFFFFFFFFFFFFFFFFFFFFFFF AND PUSH20 0xFFFFFFFFFFFFFFFFFFFFFFFFFFFFFFFFFFFFFFFF AND DUP2 MSTORE PUSH1 0x20 ADD SWAP1 DUP2 MSTORE PUSH1 0x20 ADD PUSH0 KECCAK256 PUSH0 DUP3 DUP3 SLOAD PUSH2 0x25B3 SWAP2 SWAP1 PUSH2 0x31DD JUMP JUMPDEST SWAP3 POP POP DUP2 SWAP1 SSTORE POP DUP2 PUSH20 0xFFFFFFFFFFFFFFFFFFFFFFFFFFFFFFFFFFFFFFFF AND PUSH0 PUSH20 0xFFFFFFFFFFFFFFFFFFFFFFFFFFFFFFFFFFFFFFFF AND PUSH32 0xDDF252AD1BE2C89B69C2B068FC378DAA952BA7F163C4A11628F55A4DF523B3EF DUP4 PUSH1 0x40 MLOAD PUSH2 0x2617 SWAP2 SWAP1 PUSH2 0x2BD7 JUMP JUMPDEST PUSH1 0x40 MLOAD DUP1 SWAP2 SUB SWAP1 LOG3 POP POP JUMP JUMPDEST PUSH0 PUSH0 DUP5 GT PUSH2 0x2666 JUMPI PUSH1 0x40 MLOAD PUSH32 0x8C379A000000000000000000000000000000000000000000000000000000000 DUP2 MSTORE PUSH1 0x4 ADD PUSH2 0x265D SWAP1 PUSH2 0x360C JUMP JUMPDEST PUSH1 0x40 MLOAD DUP1 SWAP2 SUB SWAP1 REVERT JUMPDEST PUSH2 0x266F DUP5 PUSH2 0x1AFC JUMP JUMPDEST SWAP1 POP DUP4 PUSH2 0x267B DUP3 PUSH2 0xA34 JUMP JUMPDEST LT ISZERO PUSH2 0x2691 JUMPI PUSH1 0x1 DUP2 PUSH2 0x268E SWAP2 SWAP1 PUSH2 0x31DD JUMP JUMPDEST SWAP1 POP JUMPDEST CALLER PUSH20 0xFFFFFFFFFFFFFFFFFFFFFFFFFFFFFFFFFFFFFFFF AND DUP3 PUSH20 0xFFFFFFFFFFFFFFFFFFFFFFFFFFFFFFFFFFFFFFFF AND EQ PUSH2 0x2754 JUMPI PUSH0 PUSH2 0x26CF DUP4 CALLER PUSH2 0x1C87 JUMP JUMPDEST SWAP1 POP DUP2 DUP2 LT ISZERO PUSH2 0x2714 JUMPI PUSH1 0x40 MLOAD PUSH32 0x8C379A000000000000000000000000000000000000000000000000000000000 DUP2 MSTORE PUSH1 0x4 ADD PUSH2 0x270B SWAP1 PUSH2 0x3355 JUMP JUMPDEST PUSH1 0x40 MLOAD DUP1 SWAP2 SUB SWAP1 REVERT JUMPDEST PUSH32 0xFFFFFFFFFFFFFFFFFFFFFFFFFFFFFFFFFFFFFFFFFFFFFFFFFFFFFFFFFFFFFFFF DUP2 EQ PUSH2 0x2752 JUMPI PUSH2 0x2751 DUP4 CALLER DUP5 DUP5 PUSH2 0x274C SWAP2 SWAP1 PUSH2 0x3373 JUMP JUMPDEST PUSH2 0x1E99 JUMP JUMPDEST JUMPDEST POP JUMPDEST PUSH2 0x275E DUP3 DUP3 PUSH2 0x2880 JUMP JUMPDEST PUSH1 0x7 PUSH0 SWAP1 SLOAD SWAP1 PUSH2 0x100 EXP SWAP1 DIV PUSH20 0xFFFFFFFFFFFFFFFFFFFFFFFFFFFFFFFFFFFFFFFF AND PUSH20 0xFFFFFFFFFFFFFFFFFFFFFFFFFFFFFFFFFFFFFFFF AND PUSH4 0xA9059CBB DUP5 DUP7 PUSH1 0x40 MLOAD DUP4 PUSH4 0xFFFFFFFF AND PUSH1 0xE0 SHL DUP2 MSTORE PUSH1 0x4 ADD PUSH2 0x27BA SWAP3 SWAP2 SWAP1 PUSH2 0x34DE JUMP JUMPDEST PUSH1 0x20 PUSH1 0x40 MLOAD DUP1 DUP4 SUB DUP2 PUSH0 DUP8 GAS CALL ISZERO DUP1 ISZERO PUSH2 0x27D6 JUMPI RETURNDATASIZE PUSH0 PUSH0 RETURNDATACOPY RETURNDATASIZE PUSH0 REVERT JUMPDEST POP POP POP POP PUSH1 0x40 MLOAD RETURNDATASIZE PUSH1 0x1F NOT PUSH1 0x1F DUP3 ADD AND DUP3 ADD DUP1 PUSH1 0x40 MSTORE POP DUP2 ADD SWAP1 PUSH2 0x27FA SWAP2 SWAP1 PUSH2 0x352F JUMP JUMPDEST POP DUP2 PUSH20 0xFFFFFFFFFFFFFFFFFFFFFFFFFFFFFFFFFFFFFFFF AND DUP4 PUSH20 0xFFFFFFFFFFFFFFFFFFFFFFFFFFFFFFFFFFFFFFFF AND CALLER PUSH20 0xFFFFFFFFFFFFFFFFFFFFFFFFFFFFFFFFFFFFFFFF AND PUSH32 0xFBDE797D201C681B91056529119E0B02407C7BB96A4A2C75C01FC9667232C8DB DUP8 DUP6 PUSH1 0x40 MLOAD PUSH2 0x2871 SWAP3 SWAP2 SWAP1 PUSH2 0x365F JUMP JUMPDEST PUSH1 0x40 MLOAD DUP1 SWAP2 SUB SWAP1 LOG4 SWAP4 SWAP3 POP POP POP JUMP JUMPDEST PUSH0 PUSH1 0x5 PUSH0 DUP5 PUSH20 0xFFFFFFFFFFFFFFFFFFFFFFFFFFFFFFFFFFFFFFFF AND PUSH20 0xFFFFFFFFFFFFFFFFFFFFFFFFFFFFFFFFFFFFFFFF AND DUP2 MSTORE PUSH1 0x20 ADD SWAP1 DUP2 MSTORE PUSH1 0x20 ADD PUSH0 KECCAK256 SLOAD SWAP1 POP DUP2 DUP2 LT ISZERO PUSH2 0x2904 JUMPI PUSH1 0x40 MLOAD PUSH32 0x8C379A000000000000000000000000000000000000000000000000000000000 DUP2 MSTORE PUSH1 0x4 ADD PUSH2 0x28FB SWAP1 PUSH2 0x3A44 JUMP JUMPDEST PUSH1 0x40 MLOAD DUP1 SWAP2 SUB SWAP1 REVERT JUMPDEST DUP2 DUP2 SUB PUSH1 0x5 PUSH0 DUP6 PUSH20 0xFFFFFFFFFFFFFFFFFFFFFFFFFFFFFFFFFFFFFFFF AND PUSH20 0xFFFFFFFFFFFFFFFFFFFFFFFFFFFFFFFFFFFFFFFF AND DUP2 MSTORE PUSH1 0x20 ADD SWAP1 DUP2 MSTORE PUSH1 0x20 ADD PUSH0 KECCAK256 DUP2 SWAP1 SSTORE POP DUP2 PUSH1 0x4 PUSH0 DUP3 DUP3 SLOAD PUSH2 0x2959 SWAP2 SWAP1 PUSH2 0x3373 JUMP JUMPDEST SWAP3 POP POP DUP2 SWAP1 SSTORE POP PUSH0 PUSH20 0xFFFFFFFFFFFFFFFFFFFFFFFFFFFFFFFFFFFFFFFF AND DUP4 PUSH20 0xFFFFFFFFFFFFFFFFFFFFFFFFFFFFFFFFFFFFFFFF AND PUSH32 0xDDF252AD1BE2C89B69C2B068FC378DAA952BA7F163C4A11628F55A4DF523B3EF DUP5 PUSH1 0x40 MLOAD PUSH2 0x29BD SWAP2 SWAP1 PUSH2 0x2BD7 JUMP JUMPDEST PUSH1 0x40 MLOAD DUP1 SWAP2 SUB SWAP1 LOG3 POP POP POP JUMP JUMPDEST PUSH0 PUSH20 0xFFFFFFFFFFFFFFFFFFFFFFFFFFFFFFFFFFFFFFFF AND DUP2 PUSH20 0xFFFFFFFFFFFFFFFFFFFFFFFFFFFFFFFFFFFFFFFF AND SUB PUSH2 0x2A01 JUMPI PUSH0 PUSH0 REVERT JUMPDEST DUP1 PUSH0 PUSH1 0x2 PUSH2 0x100 EXP DUP2 SLOAD DUP2 PUSH20 0xFFFFFFFFFFFFFFFFFFFFFFFFFFFFFFFFFFFFFFFF MUL NOT AND SWAP1 DUP4 PUSH20 0xFFFFFFFFFFFFFFFFFFFFFFFFFFFFFFFFFFFFFFFF AND MUL OR SWAP1 SSTORE POP POP JUMP JUMPDEST PUSH0 PUSH20 0xFFFFFFFFFFFFFFFFFFFFFFFFFFFFFFFFFFFFFFFF AND DUP4 PUSH20 0xFFFFFFFFFFFFFFFFFFFFFFFFFFFFFFFFFFFFFFFF AND SUB PUSH2 0x2AB2 JUMPI PUSH1 0x40 MLOAD PUSH32 0x8C379A000000000000000000000000000000000000000000000000000000000 DUP2 MSTORE PUSH1 0x4 ADD PUSH2 0x2AA9 SWAP1 PUSH2 0x3B6E JUMP JUMPDEST PUSH1 0x40 MLOAD DUP1 SWAP2 SUB SWAP1 REVERT JUMPDEST PUSH2 0x2ABE DUP3 DUP3 PUSH1 0x6 PUSH2 0x2B30 JUMP JUMPDEST DUP3 PUSH1 0x7 PUSH0 PUSH2 0x100 EXP DUP2 SLOAD DUP2 PUSH20 0xFFFFFFFFFFFFFFFFFFFFFFFFFFFFFFFFFFFFFFFF MUL NOT AND SWAP1 DUP4 PUSH20 0xFFFFFFFFFFFFFFFFFFFFFFFFFFFFFFFFFFFFFFFF AND MUL OR SWAP1 SSTORE POP POP POP POP JUMP JUMPDEST PUSH0 PUSH32 0x360894A13BA1A3210667C828492DB98DCA3E2076CC3735A920A3CA505D382BBC PUSH0 SHL SWAP1 POP DUP2 DUP2 SSTORE POP POP JUMP JUMPDEST PUSH0 PUSH1 0x1 DUP1 SLOAD PUSH2 0x2B3E SWAP1 PUSH2 0x323D JUMP JUMPDEST SWAP1 POP EQ PUSH2 0x2B80 JUMPI PUSH1 0x40 MLOAD PUSH32 0x8C379A000000000000000000000000000000000000000000000000000000000 DUP2 MSTORE PUSH1 0x4 ADD PUSH2 0x2B77 SWAP1 PUSH2 0x36D0 JUMP JUMPDEST PUSH1 0x40 MLOAD DUP1 SWAP2 SUB SWAP1 REVERT JUMPDEST DUP3 PUSH1 0x1 SWAP1 DUP2 PUSH2 0x2B8F SWAP2 SWAP1 PUSH2 0x3B8C JUMP JUMPDEST POP DUP2 PUSH1 0x2 SWAP1 DUP2 PUSH2 0x2B9F SWAP2 SWAP1 PUSH2 0x3B8C JUMP JUMPDEST POP DUP1 PUSH1 0x3 PUSH0 PUSH2 0x100 EXP DUP2 SLOAD DUP2 PUSH1 0xFF MUL NOT AND SWAP1 DUP4 PUSH1 0xFF AND MUL OR SWAP1 SSTORE POP POP POP POP JUMP JUMPDEST PUSH0 DUP2 SWAP1 POP SWAP2 SWAP1 POP JUMP JUMPDEST PUSH2 0x2BD1 DUP2 PUSH2 0x2BBF JUMP JUMPDEST DUP3 MSTORE POP POP JUMP JUMPDEST PUSH0 PUSH1 0x20 DUP3 ADD SWAP1 POP PUSH2 0x2BEA PUSH0 DUP4 ADD DUP5 PUSH2 0x2BC8 JUMP JUMPDEST SWAP3 SWAP2 POP POP JUMP JUMPDEST PUSH0 DUP2 MLOAD SWAP1 POP SWAP2 SWAP1 POP JUMP JUMPDEST PUSH0 DUP3 DUP3 MSTORE PUSH1 0x20 DUP3 ADD SWAP1 POP SWAP3 SWAP2 POP POP JUMP JUMPDEST DUP3 DUP2 DUP4 MCOPY PUSH0 DUP4 DUP4 ADD MSTORE POP POP POP JUMP JUMPDEST PUSH0 PUSH1 0x1F NOT PUSH1 0x1F DUP4 ADD AND SWAP1 POP SWAP2 SWAP1 POP JUMP JUMPDEST PUSH0 PUSH2 0x2C32 DUP3 PUSH2 0x2BF0 JUMP JUMPDEST PUSH2 0x2C3C DUP2 DUP6 PUSH2 0x2BFA JUMP JUMPDEST SWAP4 POP PUSH2 0x2C4C DUP2 DUP6 PUSH1 0x20 DUP7 ADD PUSH2 0x2C0A JUMP JUMPDEST PUSH2 0x2C55 DUP2 PUSH2 0x2C18 JUMP JUMPDEST DUP5 ADD SWAP2 POP POP SWAP3 SWAP2 POP POP JUMP JUMPDEST PUSH0 PUSH1 0x20 DUP3 ADD SWAP1 POP DUP2 DUP2 SUB PUSH0 DUP4 ADD MSTORE PUSH2 0x2C78 DUP2 DUP5 PUSH2 0x2C28 JUMP JUMPDEST SWAP1 POP SWAP3 SWAP2 POP POP JUMP JUMPDEST PUSH0 PUSH0 REVERT JUMPDEST PUSH0 PUSH0 REVERT JUMPDEST PUSH2 0x2C91 DUP2 PUSH2 0x2BBF JUMP JUMPDEST DUP2 EQ PUSH2 0x2C9B JUMPI PUSH0 PUSH0 REVERT JUMPDEST POP JUMP JUMPDEST PUSH0 DUP2 CALLDATALOAD SWAP1 POP PUSH2 0x2CAC DUP2 PUSH2 0x2C88 JUMP JUMPDEST SWAP3 SWAP2 POP POP JUMP JUMPDEST PUSH0 PUSH1 0x20 DUP3 DUP5 SUB SLT ISZERO PUSH2 0x2CC7 JUMPI PUSH2 0x2CC6 PUSH2 0x2C80 JUMP JUMPDEST JUMPDEST PUSH0 PUSH2 0x2CD4 DUP5 DUP3 DUP6 ADD PUSH2 0x2C9E JUMP JUMPDEST SWAP2 POP POP SWAP3 SWAP2 POP POP JUMP JUMPDEST PUSH0 PUSH20 0xFFFFFFFFFFFFFFFFFFFFFFFFFFFFFFFFFFFFFFFF DUP3 AND SWAP1 POP SWAP2 SWAP1 POP JUMP JUMPDEST PUSH0 PUSH2 0x2D06 DUP3 PUSH2 0x2CDD JUMP JUMPDEST SWAP1 POP SWAP2 SWAP1 POP JUMP JUMPDEST PUSH2 0x2D16 DUP2 PUSH2 0x2CFC JUMP JUMPDEST DUP2 EQ PUSH2 0x2D20 JUMPI PUSH0 PUSH0 REVERT JUMPDEST POP JUMP JUMPDEST PUSH0 DUP2 CALLDATALOAD SWAP1 POP PUSH2 0x2D31 DUP2 PUSH2 0x2D0D JUMP JUMPDEST SWAP3 SWAP2 POP POP JUMP JUMPDEST PUSH0 PUSH0 PUSH1 0x40 DUP4 DUP6 SUB SLT ISZERO PUSH2 0x2D4D JUMPI PUSH2 0x2D4C PUSH2 0x2C80 JUMP JUMPDEST JUMPDEST PUSH0 PUSH2 0x2D5A DUP6 DUP3 DUP7 ADD PUSH2 0x2D23 JUMP JUMPDEST SWAP3 POP POP PUSH1 0x20 PUSH2 0x2D6B DUP6 DUP3 DUP7 ADD PUSH2 0x2C9E JUMP JUMPDEST SWAP2 POP POP SWAP3 POP SWAP3 SWAP1 POP JUMP JUMPDEST PUSH0 DUP2 ISZERO ISZERO SWAP1 POP SWAP2 SWAP1 POP JUMP JUMPDEST PUSH2 0x2D89 DUP2 PUSH2 0x2D75 JUMP JUMPDEST DUP3 MSTORE POP POP JUMP JUMPDEST PUSH0 PUSH1 0x20 DUP3 ADD SWAP1 POP PUSH2 0x2DA2 PUSH0 DUP4 ADD DUP5 PUSH2 0x2D80 JUMP JUMPDEST SWAP3 SWAP2 POP POP JUMP JUMPDEST PUSH0 PUSH0 PUSH0 PUSH1 0x60 DUP5 DUP7 SUB SLT ISZERO PUSH2 0x2DBF JUMPI PUSH2 0x2DBE PUSH2 0x2C80 JUMP JUMPDEST JUMPDEST PUSH0 PUSH2 0x2DCC DUP7 DUP3 DUP8 ADD PUSH2 0x2D23 JUMP JUMPDEST SWAP4 POP POP PUSH1 0x20 PUSH2 0x2DDD DUP7 DUP3 DUP8 ADD PUSH2 0x2D23 JUMP JUMPDEST SWAP3 POP POP PUSH1 0x40 PUSH2 0x2DEE DUP7 DUP3 DUP8 ADD PUSH2 0x2C9E JUMP JUMPDEST SWAP2 POP POP SWAP3 POP SWAP3 POP SWAP3 JUMP JUMPDEST PUSH0 PUSH1 0x20 DUP3 DUP5 SUB SLT ISZERO PUSH2 0x2E0D JUMPI PUSH2 0x2E0C PUSH2 0x2C80 JUMP JUMPDEST JUMPDEST PUSH0 PUSH2 0x2E1A DUP5 DUP3 DUP6 ADD PUSH2 0x2D23 JUMP JUMPDEST SWAP2 POP POP SWAP3 SWAP2 POP POP JUMP JUMPDEST PUSH2 0x2E2C DUP2 PUSH2 0x2CFC JUMP JUMPDEST DUP3 MSTORE POP POP JUMP JUMPDEST PUSH0 PUSH1 0x20 DUP3 ADD SWAP1 POP PUSH2 0x2E45 PUSH0 DUP4 ADD DUP5 PUSH2 0x2E23 JUMP JUMPDEST SWAP3 SWAP2 POP POP JUMP JUMPDEST PUSH0 PUSH0 REVERT JUMPDEST PUSH0 PUSH0 REVERT JUMPDEST PUSH0 PUSH0 REVERT JUMPDEST PUSH0 PUSH0 DUP4 PUSH1 0x1F DUP5 ADD SLT PUSH2 0x2E6C JUMPI PUSH2 0x2E6B PUSH2 0x2E4B JUMP JUMPDEST JUMPDEST DUP3 CALLDATALOAD SWAP1 POP PUSH8 0xFFFFFFFFFFFFFFFF DUP2 GT ISZERO PUSH2 0x2E89 JUMPI PUSH2 0x2E88 PUSH2 0x2E4F JUMP JUMPDEST JUMPDEST PUSH1 0x20 DUP4 ADD SWAP2 POP DUP4 PUSH1 0x1 DUP3 MUL DUP4 ADD GT ISZERO PUSH2 0x2EA5 JUMPI PUSH2 0x2EA4 PUSH2 0x2E53 JUMP JUMPDEST JUMPDEST SWAP3 POP SWAP3 SWAP1 POP JUMP JUMPDEST PUSH0 PUSH0 PUSH0 PUSH1 0x40 DUP5 DUP7 SUB SLT ISZERO PUSH2 0x2EC3 JUMPI PUSH2 0x2EC2 PUSH2 0x2C80 JUMP JUMPDEST JUMPDEST PUSH0 PUSH2 0x2ED0 DUP7 DUP3 DUP8 ADD PUSH2 0x2D23 JUMP JUMPDEST SWAP4 POP POP PUSH1 0x20 DUP5 ADD CALLDATALOAD PUSH8 0xFFFFFFFFFFFFFFFF DUP2 GT ISZERO PUSH2 0x2EF1 JUMPI PUSH2 0x2EF0 PUSH2 0x2C84 JUMP JUMPDEST JUMPDEST PUSH2 0x2EFD DUP7 DUP3 DUP8 ADD PUSH2 0x2E57 JUMP JUMPDEST SWAP3 POP SWAP3 POP POP SWAP3 POP SWAP3 POP SWAP3 JUMP JUMPDEST PUSH0 DUP2 SWAP1 POP SWAP2 SWAP1 POP JUMP JUMPDEST PUSH2 0x2F1B DUP2 PUSH2 0x2F09 JUMP JUMPDEST DUP3 MSTORE POP POP JUMP JUMPDEST PUSH0 PUSH1 0x20 DUP3 ADD SWAP1 POP PUSH2 0x2F34 PUSH0 DUP4 ADD DUP5 PUSH2 0x2F12 JUMP JUMPDEST SWAP3 SWAP2 POP POP JUMP JUMPDEST PUSH0 PUSH0 PUSH1 0x40 DUP4 DUP6 SUB SLT ISZERO PUSH2 0x2F50 JUMPI PUSH2 0x2F4F PUSH2 0x2C80 JUMP JUMPDEST JUMPDEST PUSH0 PUSH2 0x2F5D DUP6 DUP3 DUP7 ADD PUSH2 0x2C9E JUMP JUMPDEST SWAP3 POP POP PUSH1 0x20 PUSH2 0x2F6E DUP6 DUP3 DUP7 ADD PUSH2 0x2D23 JUMP JUMPDEST SWAP2 POP POP SWAP3 POP SWAP3 SWAP1 POP JUMP JUMPDEST PUSH0 PUSH0 PUSH0 PUSH1 0x60 DUP5 DUP7 SUB SLT ISZERO PUSH2 0x2F8F JUMPI PUSH2 0x2F8E PUSH2 0x2C80 JUMP JUMPDEST JUMPDEST PUSH0 PUSH2 0x2F9C DUP7 DUP3 DUP8 ADD PUSH2 0x2C9E JUMP JUMPDEST SWAP4 POP POP PUSH1 0x20 PUSH2 0x2FAD DUP7 DUP3 DUP8 ADD PUSH2 0x2D23 JUMP JUMPDEST SWAP3 POP POP PUSH1 0x40 PUSH2 0x2FBE DUP7 DUP3 DUP8 ADD PUSH2 0x2D23 JUMP JUMPDEST SWAP2 POP POP SWAP3 POP SWAP3 POP SWAP3 JUMP JUMPDEST PUSH0 PUSH0 PUSH1 0x40 DUP4 DUP6 SUB SLT ISZERO PUSH2 0x2FDE JUMPI PUSH2 0x2FDD PUSH2 0x2C80 JUMP JUMPDEST JUMPDEST PUSH0 PUSH2 0x2FEB DUP6 DUP3 DUP7 ADD PUSH2 0x2D23 JUMP JUMPDEST SWAP3 POP POP PUSH1 0x20 PUSH2 0x2FFC DUP6 DUP3 DUP7 ADD PUSH2 0x2D23 JUMP JUMPDEST SWAP2 POP POP SWAP3 POP SWAP3 SWAP1 POP JUMP JUMPDEST PUSH0 PUSH0 DUP4 PUSH1 0x1F DUP5 ADD SLT PUSH2 0x301B JUMPI PUSH2 0x301A PUSH2 0x2E4B JUMP JUMPDEST JUMPDEST DUP3 CALLDATALOAD SWAP1 POP PUSH8 0xFFFFFFFFFFFFFFFF DUP2 GT ISZERO PUSH2 0x3038 JUMPI PUSH2 0x3037 PUSH2 0x2E4F JUMP JUMPDEST JUMPDEST PUSH1 0x20 DUP4 ADD SWAP2 POP DUP4 PUSH1 0x1 DUP3 MUL DUP4 ADD GT ISZERO PUSH2 0x3054 JUMPI PUSH2 0x3053 PUSH2 0x2E53 JUMP JUMPDEST JUMPDEST SWAP3 POP SWAP3 SWAP1 POP JUMP JUMPDEST PUSH0 PUSH0 PUSH0 PUSH0 PUSH0 PUSH0 PUSH0 PUSH0 PUSH0 PUSH1 0xC0 DUP11 DUP13 SUB SLT ISZERO PUSH2 0x3078 JUMPI PUSH2 0x3077 PUSH2 0x2C80 JUMP JUMPDEST JUMPDEST PUSH0 PUSH2 0x3085 DUP13 DUP3 DUP14 ADD PUSH2 0x2D23 JUMP JUMPDEST SWAP10 POP POP PUSH1 0x20 PUSH2 0x3096 DUP13 DUP3 DUP14 ADD PUSH2 0x2D23 JUMP JUMPDEST SWAP9 POP POP PUSH1 0x40 DUP11 ADD CALLDATALOAD PUSH8 0xFFFFFFFFFFFFFFFF DUP2 GT ISZERO PUSH2 0x30B7 JUMPI PUSH2 0x30B6 PUSH2 0x2C84 JUMP JUMPDEST JUMPDEST PUSH2 0x30C3 DUP13 DUP3 DUP14 ADD PUSH2 0x3006 JUMP JUMPDEST SWAP8 POP SWAP8 POP POP PUSH1 0x60 DUP11 ADD CALLDATALOAD PUSH8 0xFFFFFFFFFFFFFFFF DUP2 GT ISZERO PUSH2 0x30E6 JUMPI PUSH2 0x30E5 PUSH2 0x2C84 JUMP JUMPDEST JUMPDEST PUSH2 0x30F2 DUP13 DUP3 DUP14 ADD PUSH2 0x3006 JUMP JUMPDEST SWAP6 POP SWAP6 POP POP PUSH1 0x80 DUP11 ADD CALLDATALOAD PUSH8 0xFFFFFFFFFFFFFFFF DUP2 GT ISZERO PUSH2 0x3115 JUMPI PUSH2 0x3114 PUSH2 0x2C84 JUMP JUMPDEST JUMPDEST PUSH2 0x3121 DUP13 DUP3 DUP14 ADD PUSH2 0x3006 JUMP JUMPDEST SWAP4 POP SWAP4 POP POP PUSH1 0xA0 PUSH2 0x3134 DUP13 DUP3 DUP14 ADD PUSH2 0x2C9E JUMP JUMPDEST SWAP2 POP POP SWAP3 SWAP6 SWAP9 POP SWAP3 SWAP6 SWAP9 POP SWAP3 SWAP6 SWAP9 JUMP JUMPDEST PUSH0 DUP2 MLOAD SWAP1 POP PUSH2 0x3152 DUP2 PUSH2 0x2C88 JUMP JUMPDEST SWAP3 SWAP2 POP POP JUMP JUMPDEST PUSH0 PUSH1 0x20 DUP3 DUP5 SUB SLT ISZERO PUSH2 0x316D JUMPI PUSH2 0x316C PUSH2 0x2C80 JUMP JUMPDEST JUMPDEST PUSH0 PUSH2 0x317A DUP5 DUP3 DUP6 ADD PUSH2 0x3144 JUMP JUMPDEST SWAP2 POP POP SWAP3 SWAP2 POP POP JUMP JUMPDEST PUSH32 0x4E487B7100000000000000000000000000000000000000000000000000000000 PUSH0 MSTORE PUSH1 0x32 PUSH1 0x4 MSTORE PUSH1 0x24 PUSH0 REVERT JUMPDEST PUSH32 0x4E487B7100000000000000000000000000000000000000000000000000000000 PUSH0 MSTORE PUSH1 0x11 PUSH1 0x4 MSTORE PUSH1 0x24 PUSH0 REVERT JUMPDEST PUSH0 PUSH2 0x31E7 DUP3 PUSH2 0x2BBF JUMP JUMPDEST SWAP2 POP PUSH2 0x31F2 DUP4 PUSH2 0x2BBF JUMP JUMPDEST SWAP3 POP DUP3 DUP3 ADD SWAP1 POP DUP1 DUP3 GT ISZERO PUSH2 0x320A JUMPI PUSH2 0x3209 PUSH2 0x31B0 JUMP JUMPDEST JUMPDEST SWAP3 SWAP2 POP POP JUMP JUMPDEST PUSH32 0x4E487B7100000000000000000000000000000000000000000000000000000000 PUSH0 MSTORE PUSH1 0x22 PUSH1 0x4 MSTORE PUSH1 0x24 PUSH0 REVERT JUMPDEST PUSH0 PUSH1 0x2 DUP3 DIV SWAP1 POP PUSH1 0x1 DUP3 AND DUP1 PUSH2 0x3254 JUMPI PUSH1 0x7F DUP3 AND SWAP2 POP JUMPDEST PUSH1 0x20 DUP3 LT DUP2 SUB PUSH2 0x3267 JUMPI PUSH2 0x3266 PUSH2 0x3210 JUMP JUMPDEST JUMPDEST POP SWAP2 SWAP1 POP JUMP JUMPDEST PUSH0 PUSH2 0x3277 DUP3 PUSH2 0x2BBF JUMP JUMPDEST SWAP2 POP PUSH2 0x3282 DUP4 PUSH2 0x2BBF JUMP JUMPDEST SWAP3 POP DUP3 DUP3 MUL PUSH2 0x3290 DUP2 PUSH2 0x2BBF JUMP JUMPDEST SWAP2 POP DUP3 DUP3 DIV DUP5 EQ DUP4 ISZERO OR PUSH2 0x32A7 JUMPI PUSH2 0x32A6 PUSH2 0x31B0 JUMP JUMPDEST JUMPDEST POP SWAP3 SWAP2 POP POP JUMP JUMPDEST PUSH32 0x4E487B7100000000000000000000000000000000000000000000000000000000 PUSH0 MSTORE PUSH1 0x12 PUSH1 0x4 MSTORE PUSH1 0x24 PUSH0 REVERT JUMPDEST PUSH0 PUSH2 0x32E5 DUP3 PUSH2 0x2BBF JUMP JUMPDEST SWAP2 POP PUSH2 0x32F0 DUP4 PUSH2 0x2BBF JUMP JUMPDEST SWAP3 POP DUP3 PUSH2 0x3300 JUMPI PUSH2 0x32FF PUSH2 0x32AE JUMP JUMPDEST JUMPDEST DUP3 DUP3 DIV SWAP1 POP SWAP3 SWAP2 POP POP JUMP JUMPDEST PUSH32 0x494E53554646494349454E545F414C4C4F57414E434500000000000000000000 PUSH0 DUP3 ADD MSTORE POP JUMP JUMPDEST PUSH0 PUSH2 0x333F PUSH1 0x16 DUP4 PUSH2 0x2BFA JUMP JUMPDEST SWAP2 POP PUSH2 0x334A DUP3 PUSH2 0x330B JUMP JUMPDEST PUSH1 0x20 DUP3 ADD SWAP1 POP SWAP2 SWAP1 POP JUMP JUMPDEST PUSH0 PUSH1 0x20 DUP3 ADD SWAP1 POP DUP2 DUP2 SUB PUSH0 DUP4 ADD MSTORE PUSH2 0x336C DUP2 PUSH2 0x3333 JUMP JUMPDEST SWAP1 POP SWAP2 SWAP1 POP JUMP JUMPDEST PUSH0 PUSH2 0x337D DUP3 PUSH2 0x2BBF JUMP JUMPDEST SWAP2 POP PUSH2 0x3388 DUP4 PUSH2 0x2BBF JUMP JUMPDEST SWAP3 POP DUP3 DUP3 SUB SWAP1 POP DUP2 DUP2 GT ISZERO PUSH2 0x33A0 JUMPI PUSH2 0x339F PUSH2 0x31B0 JUMP JUMPDEST JUMPDEST SWAP3 SWAP2 POP POP JUMP JUMPDEST PUSH32 0x4E4F545F44454C454741544543414C4C00000000000000000000000000000000 PUSH0 DUP3 ADD MSTORE POP JUMP JUMPDEST PUSH0 PUSH2 0x33DA PUSH1 0x10 DUP4 PUSH2 0x2BFA JUMP JUMPDEST SWAP2 POP PUSH2 0x33E5 DUP3 PUSH2 0x33A6 JUMP JUMPDEST PUSH1 0x20 DUP3 ADD SWAP1 POP SWAP2 SWAP1 POP JUMP JUMPDEST PUSH0 PUSH1 0x20 DUP3 ADD SWAP1 POP DUP2 DUP2 SUB PUSH0 DUP4 ADD MSTORE PUSH2 0x3407 DUP2 PUSH2 0x33CE JUMP JUMPDEST SWAP1 POP SWAP2 SWAP1 POP JUMP JUMPDEST PUSH32 0x494E4143544956455F50524F5859000000000000000000000000000000000000 PUSH0 DUP3 ADD MSTORE POP JUMP JUMPDEST PUSH0 PUSH2 0x3442 PUSH1 0xE DUP4 PUSH2 0x2BFA JUMP JUMPDEST SWAP2 POP PUSH2 0x344D DUP3 PUSH2 0x340E JUMP JUMPDEST PUSH1 0x20 DUP3 ADD SWAP1 POP SWAP2 SWAP1 POP JUMP JUMPDEST PUSH0 PUSH1 0x20 DUP3 ADD SWAP1 POP DUP2 DUP2 SUB PUSH0 DUP4 ADD MSTORE PUSH2 0x346F DUP2 PUSH2 0x3436 JUMP JUMPDEST SWAP1 POP SWAP2 SWAP1 POP JUMP JUMPDEST PUSH32 0x4F4E4C595F494D504C454D454E544154494F4E00000000000000000000000000 PUSH0 DUP3 ADD MSTORE POP JUMP JUMPDEST PUSH0 PUSH2 0x34AA PUSH1 0x13 DUP4 PUSH2 0x2BFA JUMP JUMPDEST SWAP2 POP PUSH2 0x34B5 DUP3 PUSH2 0x3476 JUMP JUMPDEST PUSH1 0x20 DUP3 ADD SWAP1 POP SWAP2 SWAP1 POP JUMP JUMPDEST PUSH0 PUSH1 0x20 DUP3 ADD SWAP1 POP DUP2 DUP2 SUB PUSH0 DUP4 ADD MSTORE PUSH2 0x34D7 DUP2 PUSH2 0x349E JUMP JUMPDEST SWAP1 POP SWAP2 SWAP1 POP JUMP JUMPDEST PUSH0 PUSH1 0x40 DUP3 ADD SWAP1 POP PUSH2 0x34F1 PUSH0 DUP4 ADD DUP6 PUSH2 0x2E23 JUMP JUMPDEST PUSH2 0x34FE PUSH1 0x20 DUP4 ADD DUP5 PUSH2 0x2BC8 JUMP JUMPDEST SWAP4 SWAP3 POP POP POP JUMP JUMPDEST PUSH2 0x350E DUP2 PUSH2 0x2D75 JUMP JUMPDEST DUP2 EQ PUSH2 0x3518 JUMPI PUSH0 PUSH0 REVERT JUMPDEST POP JUMP JUMPDEST PUSH0 DUP2 MLOAD SWAP1 POP PUSH2 0x3529 DUP2 PUSH2 0x3505 JUMP JUMPDEST SWAP3 SWAP2 POP POP JUMP JUMPDEST PUSH0 PUSH1 0x20 DUP3 DUP5 SUB SLT ISZERO PUSH2 0x3544 JUMPI PUSH2 0x3543 PUSH2 0x2C80 JUMP JUMPDEST JUMPDEST PUSH0 PUSH2 0x3551 DUP5 DUP3 DUP6 ADD PUSH2 0x351B JUMP JUMPDEST SWAP2 POP POP SWAP3 SWAP2 POP POP JUMP JUMPDEST PUSH32 0x5A45524F5F534841524553000000000000000000000000000000000000000000 PUSH0 DUP3 ADD MSTORE POP JUMP JUMPDEST PUSH0 PUSH2 0x358E PUSH1 0xB DUP4 PUSH2 0x2BFA JUMP JUMPDEST SWAP2 POP PUSH2 0x3599 DUP3 PUSH2 0x355A JUMP JUMPDEST PUSH1 0x20 DUP3 ADD SWAP1 POP SWAP2 SWAP1 POP JUMP JUMPDEST PUSH0 PUSH1 0x20 DUP3 ADD SWAP1 POP DUP2 DUP2 SUB PUSH0 DUP4 ADD MSTORE PUSH2 0x35BB DUP2 PUSH2 0x3582 JUMP JUMPDEST SWAP1 POP SWAP2 SWAP1 POP JUMP JUMPDEST PUSH32 0x5A45524F5F415353455453000000000000000000000000000000000000000000 PUSH0 DUP3 ADD MSTORE POP JUMP JUMPDEST PUSH0 PUSH2 0x35F6 PUSH1 0xB DUP4 PUSH2 0x2BFA JUMP JUMPDEST SWAP2 POP PUSH2 0x3601 DUP3 PUSH2 0x35C2 JUMP JUMPDEST PUSH1 0x20 DUP3 ADD SWAP1 POP SWAP2 SWAP1 POP JUMP JUMPDEST PUSH0 PUSH1 0x20 DUP3 ADD SWAP1 POP DUP2 DUP2 SUB PUSH0 DUP4 ADD MSTORE PUSH2 0x3623 DUP2 PUSH2 0x35EA JUMP JUMPDEST SWAP1 POP SWAP2 SWAP1 POP JUMP JUMPDEST PUSH0 PUSH1 0x60 DUP3 ADD SWAP1 POP PUSH2 0x363D PUSH0 DUP4 ADD DUP7 PUSH2 0x2E23 JUMP JUMPDEST PUSH2 0x364A PUSH1 0x20 DUP4 ADD DUP6 PUSH2 0x2E23 JUMP JUMPDEST PUSH2 0x3657 PUSH1 0x40 DUP4 ADD DUP5 PUSH2 0x2BC8 JUMP JUMPDEST SWAP5 SWAP4 POP POP POP POP JUMP JUMPDEST PUSH0 PUSH1 0x40 DUP3 ADD SWAP1 POP PUSH2 0x3672 PUSH0 DUP4 ADD DUP6 PUSH2 0x2BC8 JUMP JUMPDEST PUSH2 0x367F PUSH1 0x20 DUP4 ADD DUP5 PUSH2 0x2BC8 JUMP JUMPDEST SWAP4 SWAP3 POP POP POP JUMP JUMPDEST PUSH32 0x414C52454144595F494E495449414C495A454400000000000000000000000000 PUSH0 DUP3 ADD MSTORE POP JUMP JUMPDEST PUSH0 PUSH2 0x36BA PUSH1 0x13 DUP4 PUSH2 0x2BFA JUMP JUMPDEST SWAP2 POP PUSH2 0x36C5 DUP3 PUSH2 0x3686 JUMP JUMPDEST PUSH1 0x20 DUP3 ADD SWAP1 POP SWAP2 SWAP1 POP JUMP JUMPDEST PUSH0 PUSH1 0x20 DUP3 ADD SWAP1 POP DUP2 DUP2 SUB PUSH0 DUP4 ADD MSTORE PUSH2 0x36E7 DUP2 PUSH2 0x36AE JUMP JUMPDEST SWAP1 POP SWAP2 SWAP1 POP JUMP JUMPDEST PUSH0 DUP3 SWAP1 POP SWAP3 SWAP2 POP POP JUMP JUMPDEST PUSH32 0x4E487B7100000000000000000000000000000000000000000000000000000000 PUSH0 MSTORE PUSH1 0x41 PUSH1 0x4 MSTORE PUSH1 0x24 PUSH0 REVERT JUMPDEST PUSH0 DUP2 SWAP1 POP DUP2 PUSH0 MSTORE PUSH1 0x20 PUSH0 KECCAK256 SWAP1 POP SWAP2 SWAP1 POP JUMP JUMPDEST PUSH0 PUSH1 0x20 PUSH1 0x1F DUP4 ADD DIV SWAP1 POP SWAP2 SWAP1 POP JUMP JUMPDEST PUSH0 DUP3 DUP3 SHL SWAP1 POP SWAP3 SWAP2 POP POP JUMP JUMPDEST PUSH0 PUSH1 0x8 DUP4 MUL PUSH2 0x3781 PUSH32 0xFFFFFFFFFFFFFFFFFFFFFFFFFFFFFFFFFFFFFFFFFFFFFFFFFFFFFFFFFFFFFFFF DUP3 PUSH2 0x3746 JUMP JUMPDEST PUSH2 0x378B DUP7 DUP4 PUSH2 0x3746 JUMP JUMPDEST SWAP6 POP DUP1 NOT DUP5 AND SWAP4 POP DUP1 DUP7 AND DUP5 OR SWAP3 POP POP POP SWAP4 SWAP3 POP POP POP JUMP JUMPDEST PUSH0 DUP2 SWAP1 POP SWAP2 SWAP1 POP JUMP JUMPDEST PUSH0 PUSH2 0x37C6 PUSH2 0x37C1 PUSH2 0x37BC DUP5 PUSH2 0x2BBF JUMP JUMPDEST PUSH2 0x37A3 JUMP JUMPDEST PUSH2 0x2BBF JUMP JUMPDEST SWAP1 POP SWAP2 SWAP1 POP JUMP JUMPDEST PUSH0 DUP2 SWAP1 POP SWAP2 SWAP1 POP JUMP JUMPDEST PUSH2 0x37DF DUP4 PUSH2 0x37AC JUMP JUMPDEST PUSH2 0x37F3 PUSH2 0x37EB DUP3 PUSH2 0x37CD JUMP JUMPDEST DUP5 DUP5 SLOAD PUSH2 0x3752 JUMP JUMPDEST DUP3 SSTORE POP POP POP POP JUMP JUMPDEST PUSH0 PUSH0 SWAP1 POP SWAP1 JUMP JUMPDEST PUSH2 0x380A PUSH2 0x37FB JUMP JUMPDEST PUSH2 0x3815 DUP2 DUP5 DUP5 PUSH2 0x37D6 JUMP JUMPDEST POP POP POP JUMP JUMPDEST JUMPDEST DUP2 DUP2 LT ISZERO PUSH2 0x3838 JUMPI PUSH2 0x382D PUSH0 DUP3 PUSH2 0x3802 JUMP JUMPDEST PUSH1 0x1 DUP2 ADD SWAP1 POP PUSH2 0x381B JUMP JUMPDEST POP POP JUMP JUMPDEST PUSH1 0x1F DUP3 GT ISZERO PUSH2 0x387D JUMPI PUSH2 0x384E DUP2 PUSH2 0x3725 JUMP JUMPDEST PUSH2 0x3857 DUP5 PUSH2 0x3737 JUMP JUMPDEST DUP2 ADD PUSH1 0x20 DUP6 LT ISZERO PUSH2 0x3866 JUMPI DUP2 SWAP1 POP JUMPDEST PUSH2 0x387A PUSH2 0x3872 DUP6 PUSH2 0x3737 JUMP JUMPDEST DUP4 ADD DUP3 PUSH2 0x381A JUMP JUMPDEST POP POP JUMPDEST POP POP POP JUMP JUMPDEST PUSH0 DUP3 DUP3 SHR SWAP1 POP SWAP3 SWAP2 POP POP JUMP JUMPDEST PUSH0 PUSH2 0x389D PUSH0 NOT DUP5 PUSH1 0x8 MUL PUSH2 0x3882 JUMP JUMPDEST NOT DUP1 DUP4 AND SWAP2 POP POP SWAP3 SWAP2 POP POP JUMP JUMPDEST PUSH0 PUSH2 0x38B5 DUP4 DUP4 PUSH2 0x388E JUMP JUMPDEST SWAP2 POP DUP3 PUSH1 0x2 MUL DUP3 OR SWAP1 POP SWAP3 SWAP2 POP POP JUMP JUMPDEST PUSH2 0x38CF DUP4 DUP4 PUSH2 0x36EE JUMP JUMPDEST PUSH8 0xFFFFFFFFFFFFFFFF DUP2 GT ISZERO PUSH2 0x38E8 JUMPI PUSH2 0x38E7 PUSH2 0x36F8 JUMP JUMPDEST JUMPDEST PUSH2 0x38F2 DUP3 SLOAD PUSH2 0x323D JUMP JUMPDEST PUSH2 0x38FD DUP3 DUP3 DUP6 PUSH2 0x383C JUMP JUMPDEST PUSH0 PUSH1 0x1F DUP4 GT PUSH1 0x1 DUP2 EQ PUSH2 0x392A JUMPI PUSH0 DUP5 ISZERO PUSH2 0x3918 JUMPI DUP3 DUP8 ADD CALLDATALOAD SWAP1 POP JUMPDEST PUSH2 0x3922 DUP6 DUP3 PUSH2 0x38AA JUMP JUMPDEST DUP7 SSTORE POP PUSH2 0x3989 JUMP JUMPDEST PUSH1 0x1F NOT DUP5 AND PUSH2 0x3938 DUP7 PUSH2 0x3725 JUMP JUMPDEST PUSH0 JUMPDEST DUP3 DUP2 LT ISZERO PUSH2 0x395F JUMPI DUP5 DUP10 ADD CALLDATALOAD DUP3 SSTORE PUSH1 0x1 DUP3 ADD SWAP2 POP PUSH1 0x20 DUP6 ADD SWAP5 POP PUSH1 0x20 DUP2 ADD SWAP1 POP PUSH2 0x393A JUMP JUMPDEST DUP7 DUP4 LT ISZERO PUSH2 0x397C JUMPI DUP5 DUP10 ADD CALLDATALOAD PUSH2 0x3978 PUSH1 0x1F DUP10 AND DUP3 PUSH2 0x388E JUMP JUMPDEST DUP4 SSTORE POP JUMPDEST PUSH1 0x1 PUSH1 0x2 DUP9 MUL ADD DUP9 SSTORE POP POP POP JUMPDEST POP POP POP POP POP POP POP JUMP JUMPDEST PUSH32 0x5A45524F5F544F00000000000000000000000000000000000000000000000000 PUSH0 DUP3 ADD MSTORE POP JUMP JUMPDEST PUSH0 PUSH2 0x39C6 PUSH1 0x7 DUP4 PUSH2 0x2BFA JUMP JUMPDEST SWAP2 POP PUSH2 0x39D1 DUP3 PUSH2 0x3992 JUMP JUMPDEST PUSH1 0x20 DUP3 ADD SWAP1 POP SWAP2 SWAP1 POP JUMP JUMPDEST PUSH0 PUSH1 0x20 DUP3 ADD SWAP1 POP DUP2 DUP2 SUB PUSH0 DUP4 ADD MSTORE PUSH2 0x39F3 DUP2 PUSH2 0x39BA JUMP JUMPDEST SWAP1 POP SWAP2 SWAP1 POP JUMP JUMPDEST PUSH32 0x494E53554646494349454E545F42414C414E4345000000000000000000000000 PUSH0 DUP3 ADD MSTORE POP JUMP JUMPDEST PUSH0 PUSH2 0x3A2E PUSH1 0x14 DUP4 PUSH2 0x2BFA JUMP JUMPDEST SWAP2 POP PUSH2 0x3A39 DUP3 PUSH2 0x39FA JUMP JUMPDEST PUSH1 0x20 DUP3 ADD SWAP1 POP SWAP2 SWAP1 POP JUMP JUMPDEST PUSH0 PUSH1 0x20 DUP3 ADD SWAP1 POP DUP2 DUP2 SUB PUSH0 DUP4 ADD MSTORE PUSH2 0x3A5B DUP2 PUSH2 0x3A22 JUMP JUMPDEST SWAP1 POP SWAP2 SWAP1 POP JUMP JUMPDEST PUSH32 0x5A45524F5F494D504C0000000000000000000000000000000000000000000000 PUSH0 DUP3 ADD MSTORE POP JUMP JUMPDEST PUSH0 PUSH2 0x3A96 PUSH1 0x9 DUP4 PUSH2 0x2BFA JUMP JUMPDEST SWAP2 POP PUSH2 0x3AA1 DUP3 PUSH2 0x3A62 JUMP JUMPDEST PUSH1 0x20 DUP3 ADD SWAP1 POP SWAP2 SWAP1 POP JUMP JUMPDEST PUSH0 PUSH1 0x20 DUP3 ADD SWAP1 POP DUP2 DUP2 SUB PUSH0 DUP4 ADD MSTORE PUSH2 0x3AC3 DUP2 PUSH2 0x3A8A JUMP JUMPDEST SWAP1 POP SWAP2 SWAP1 POP JUMP JUMPDEST PUSH0 DUP2 MLOAD SWAP1 POP SWAP2 SWAP1 POP JUMP JUMPDEST PUSH0 DUP2 SWAP1 POP SWAP3 SWAP2 POP POP JUMP JUMPDEST PUSH0 PUSH2 0x3AE8 DUP3 PUSH2 0x3ACA JUMP JUMPDEST PUSH2 0x3AF2 DUP2 DUP6 PUSH2 0x3AD4 JUMP JUMPDEST SWAP4 POP PUSH2 0x3B02 DUP2 DUP6 PUSH1 0x20 DUP7 ADD PUSH2 0x2C0A JUMP JUMPDEST DUP1 DUP5 ADD SWAP2 POP POP SWAP3 SWAP2 POP POP JUMP JUMPDEST PUSH0 PUSH2 0x3B19 DUP3 DUP5 PUSH2 0x3ADE JUMP JUMPDEST SWAP2 POP DUP2 SWAP1 POP SWAP3 SWAP2 POP POP JUMP JUMPDEST PUSH32 0x5A45524F5F415353455400000000000000000000000000000000000000000000 PUSH0 DUP3 ADD MSTORE POP JUMP JUMPDEST PUSH0 PUSH2 0x3B58 PUSH1 0xA DUP4 PUSH2 0x2BFA JUMP JUMPDEST SWAP2 POP PUSH2 0x3B63 DUP3 PUSH2 0x3B24 JUMP JUMPDEST PUSH1 0x20 DUP3 ADD SWAP1 POP SWAP2 SWAP1 POP JUMP JUMPDEST PUSH0 PUSH1 0x20 DUP3 ADD SWAP1 POP DUP2 DUP2 SUB PUSH0 DUP4 ADD MSTORE PUSH2 0x3B85 DUP2 PUSH2 0x3B4C JUMP JUMPDEST SWAP1 POP SWAP2 SWAP1 POP JUMP JUMPDEST PUSH2 0x3B95 DUP3 PUSH2 0x2BF0 JUMP JUMPDEST PUSH8 0xFFFFFFFFFFFFFFFF DUP2 GT ISZERO PUSH2 0x3BAE JUMPI PUSH2 0x3BAD PUSH2 0x36F8 JUMP JUMPDEST JUMPDEST PUSH2 0x3BB8 DUP3 SLOAD PUSH2 0x323D JUMP JUMPDEST PUSH2 0x3BC3 DUP3 DUP3 DUP6 PUSH2 0x383C JUMP JUMPDEST PUSH0 PUSH1 0x20 SWAP1 POP PUSH1 0x1F DUP4 GT PUSH1 0x1 DUP2 EQ PUSH2 0x3BF4 JUMPI PUSH0 DUP5 ISZERO PUSH2 0x3BE2 JUMPI DUP3 DUP8 ADD MLOAD SWAP1 POP JUMPDEST PUSH2 0x3BEC DUP6 DUP3 PUSH2 0x38AA JUMP JUMPDEST DUP7 SSTORE POP PUSH2 0x3C53 JUMP JUMPDEST PUSH1 0x1F NOT DUP5 AND PUSH2 0x3C02 DUP7 PUSH2 0x3725 JUMP JUMPDEST PUSH0 JUMPDEST DUP3 DUP2 LT ISZERO PUSH2 0x3C29 JUMPI DUP5 DUP10 ADD MLOAD DUP3 SSTORE PUSH1 0x1 DUP3 ADD SWAP2 POP PUSH1 0x20 DUP6 ADD SWAP5 POP PUSH1 0x20 DUP2 ADD SWAP1 POP PUSH2 0x3C04 JUMP JUMPDEST DUP7 DUP4 LT ISZERO PUSH2 0x3C46 JUMPI DUP5 DUP10 ADD MLOAD PUSH2 0x3C42 PUSH1 0x1F DUP10 AND DUP3 PUSH2 0x388E JUMP JUMPDEST DUP4 SSTORE POP JUMPDEST PUSH1 0x1 PUSH1 0x2 DUP9 MUL ADD DUP9 SSTORE POP POP POP JUMPDEST POP POP POP POP POP POP JUMP INVALID LOG2 PUSH5 0x6970667358 0x22 SLT KECCAK256 0x4F MSIZE 0xC4 SWAP13 PUSH3 0xD0AEA4 LOG0 0xC8 LOG2 0x2D 0xD 0xDA RJUMP 0xBF31 PUSH20 0x7C346A0E23C1EF14AD7580AA21D164736F6C6343 STOP ADDMOD 0x1E STOP CALLER "
				},
				"gasEstimates": {
					"creation": {
						"codeDepositCost": "3101000",
						"executionCost": "infinite",
						"totalCost": "infinite"
					},
					"external": {
						"addMarket(address)": "77942",
						"allocateToMarket(address,uint256)": "infinite",
						"allowance(address,address)": "infinite",
						"approve(address,uint256)": "infinite",
						"asset()": "2583",
						"balanceOf(address)": "2919",
						"convertToAssets(uint256)": "infinite",
						"convertToShares(uint256)": "infinite",
						"deallocateTomarket(address,uint256)": "infinite",
						"decimals()": "2585",
						"deposit(uint256,address)": "infinite",
						"idleLiquidity()": "infinite",
						"initialize(address,address,string,string,string,uint256)": "infinite",
						"isMarket(address)": "2901",
						"markets(uint256)": "5011",
						"minDeposit()": "2515",
						"mint(uint256,address)": "infinite",
						"name()": "infinite",
						"owner()": "2670",
						"ownershipTransfer(address)": "27084",
						"proxiableUUID()": "infinite",
						"redeem(uint256,address,address)": "infinite",
						"symbol()": "infinite",
						"title()": "infinite",
						"totalAssets()": "infinite",
						"totalSupply()": "2500",
						"transfer(address,uint256)": "infinite",
						"transferFrom(address,address,uint256)": "infinite",
						"upgradeTo(address)": "infinite",
						"upgradeToAndCall(address,bytes)": "infinite",
						"withdraw(uint256,address,address)": "infinite"
					},
					"internal": {
						"_authorizeUpgrade(address)": "2230"
					}
				},
				"methodIdentifiers": {
					"addMarket(address)": "93e30633",
					"allocateToMarket(address,uint256)": "66adf46a",
					"allowance(address,address)": "dd62ed3e",
					"approve(address,uint256)": "095ea7b3",
					"asset()": "38d52e0f",
					"balanceOf(address)": "70a08231",
					"convertToAssets(uint256)": "07a2d13a",
					"convertToShares(uint256)": "c6e6f592",
					"deallocateTomarket(address,uint256)": "65745f51",
					"decimals()": "313ce567",
					"deposit(uint256,address)": "6e553f65",
					"idleLiquidity()": "92f6b31c",
					"initialize(address,address,string,string,string,uint256)": "ded96d48",
					"isMarket(address)": "6ec934da",
					"markets(uint256)": "b1283e77",
					"minDeposit()": "41b3d185",
					"mint(uint256,address)": "94bf804d",
					"name()": "06fdde03",
					"owner()": "8da5cb5b",
					"ownershipTransfer(address)": "d3a417a2",
					"proxiableUUID()": "52d1902d",
					"redeem(uint256,address,address)": "ba087652",
					"symbol()": "95d89b41",
					"title()": "4a79d50c",
					"totalAssets()": "01e1d114",
					"totalSupply()": "18160ddd",
					"transfer(address,uint256)": "a9059cbb",
					"transferFrom(address,address,uint256)": "23b872dd",
					"upgradeTo(address)": "3659cfe6",
					"upgradeToAndCall(address,bytes)": "4f1ef286",
					"withdraw(uint256,address,address)": "b460af94"
				}
			},
			"storageLayout": {
				"storage": [
					{
						"astId": 1589,
						"contract": "protocol/Vault.sol:Vault",
						"label": "_initialized",
						"offset": 0,
						"slot": "0",
						"type": "t_bool"
					},
					{
						"astId": 1592,
						"contract": "protocol/Vault.sol:Vault",
						"label": "_initializing",
						"offset": 1,
						"slot": "0",
						"type": "t_bool"
					},
					{
						"astId": 7,
						"contract": "protocol/Vault.sol:Vault",
						"label": "owner",
						"offset": 2,
						"slot": "0",
						"type": "t_address"
					},
					{
						"astId": 785,
						"contract": "protocol/Vault.sol:Vault",
						"label": "_name",
						"offset": 0,
						"slot": "1",
						"type": "t_string_storage"
					},
					{
						"astId": 787,
						"contract": "protocol/Vault.sol:Vault",
						"label": "_symbol",
						"offset": 0,
						"slot": "2",
						"type": "t_string_storage"
					},
					{
						"astId": 789,
						"contract": "protocol/Vault.sol:Vault",
						"label": "_decimals",
						"offset": 0,
						"slot": "3",
						"type": "t_uint8"
					},
					{
						"astId": 792,
						"contract": "protocol/Vault.sol:Vault",
						"label": "_totalSupply",
						"offset": 0,
						"slot": "4",
						"type": "t_uint256"
					},
					{
						"astId": 796,
						"contract": "protocol/Vault.sol:Vault",
						"label": "_balances",
						"offset": 0,
						"slot": "5",
						"type": "t_mapping(t_address,t_uint256)"
					},
					{
						"astId": 802,
						"contract": "protocol/Vault.sol:Vault",
						"label": "_allowances",
						"offset": 0,
						"slot": "6",
						"type": "t_mapping(t_address,t_mapping(t_address,t_uint256))"
					},
					{
						"astId": 1168,
						"contract": "protocol/Vault.sol:Vault",
						"label": "_asset",
						"offset": 0,
						"slot": "7",
						"type": "t_contract(IERC20)137"
					},
					{
						"astId": 302,
						"contract": "protocol/Vault.sol:Vault",
						"label": "title",
						"offset": 0,
						"slot": "8",
						"type": "t_string_storage"
					},
					{
						"astId": 304,
						"contract": "protocol/Vault.sol:Vault",
						"label": "minDeposit",
						"offset": 0,
						"slot": "9",
						"type": "t_uint256"
					},
					{
						"astId": 307,
						"contract": "protocol/Vault.sol:Vault",
						"label": "markets",
						"offset": 0,
						"slot": "10",
						"type": "t_array(t_address)dyn_storage"
					},
					{
						"astId": 311,
						"contract": "protocol/Vault.sol:Vault",
						"label": "isMarket",
						"offset": 0,
						"slot": "11",
						"type": "t_mapping(t_address,t_bool)"
					}
				],
				"types": {
					"t_address": {
						"encoding": "inplace",
						"label": "address",
						"numberOfBytes": "20"
					},
					"t_array(t_address)dyn_storage": {
						"base": "t_address",
						"encoding": "dynamic_array",
						"label": "address[]",
						"numberOfBytes": "32"
					},
					"t_bool": {
						"encoding": "inplace",
						"label": "bool",
						"numberOfBytes": "1"
					},
					"t_contract(IERC20)137": {
						"encoding": "inplace",
						"label": "contract IERC20",
						"numberOfBytes": "20"
					},
					"t_mapping(t_address,t_bool)": {
						"encoding": "mapping",
						"key": "t_address",
						"label": "mapping(address => bool)",
						"numberOfBytes": "32",
						"value": "t_bool"
					},
					"t_mapping(t_address,t_mapping(t_address,t_uint256))": {
						"encoding": "mapping",
						"key": "t_address",
						"label": "mapping(address => mapping(address => uint256))",
						"numberOfBytes": "32",
						"value": "t_mapping(t_address,t_uint256)"
					},
					"t_mapping(t_address,t_uint256)": {
						"encoding": "mapping",
						"key": "t_address",
						"label": "mapping(address => uint256)",
						"numberOfBytes": "32",
						"value": "t_uint256"
					},
					"t_string_storage": {
						"encoding": "bytes",
						"label": "string",
						"numberOfBytes": "32"
					},
					"t_uint256": {
						"encoding": "inplace",
						"label": "uint256",
						"numberOfBytes": "32"
					},
					"t_uint8": {
						"encoding": "inplace",
						"label": "uint8",
						"numberOfBytes": "1"
					}
				}
			},
			"userdoc": {
				"kind": "user",
				"methods": {
					"allowance(address,address)": {
						"notice": "Текущий allowance от owner к spender."
					},
					"approve(address,uint256)": {
						"notice": "Установка allowance для spender."
					},
					"asset()": {
						"notice": "Адрес базового актива."
					},
					"balanceOf(address)": {
						"notice": "Баланс аккаунта."
					},
					"convertToAssets(uint256)": {
						"notice": "Конвертация shares в активы."
					},
					"mint(uint256,address)": {
						"notice": "Выпуск shares за соответствующее количество активов."
					},
					"proxiableUUID()": {
						"notice": "UUID UUPS-слота по EIP-1822."
					},
					"redeem(uint256,address,address)": {
						"notice": "Погашение shares в актив."
					},
					"totalAssets()": {
						"notice": "Общие активы под управлением."
					},
					"totalSupply()": {
						"notice": "Общее количество токенов."
					},
					"transfer(address,uint256)": {
						"notice": "Перевод токенов получателю."
					},
					"transferFrom(address,address,uint256)": {
						"notice": "Перевод токенов по allowance."
					},
					"upgradeTo(address)": {
						"notice": "Обновить implementation."
					},
					"upgradeToAndCall(address,bytes)": {
						"notice": "Обновить implementation и сразу вызвать migration-хук."
					}
				},
				"version": 1
			}
		}
	}
}