{
	"data": {
		"bytecode": {
			"linkReferences": {},
			"object": "60a06040523073ffffffffffffffffffffffffffffffffffffffff1660809073ffffffffffffffffffffffffffffffffffffffff16815250348015610042575f5ffd5b506080516143746100775f395f8181610d8201528181610e100152818161156c015281816115fa01526116ed01526143745ff3fe60806040526004361061023a575f3560e01c80636ad9f9df1161012d578063b2016bd4116100aa578063d283e75f1161006e578063d283e75f14610812578063d3a417a21461084e578063d681a44914610876578063fbfa77cf146108a0578063fc7b9c18146108ca5761023a565b8063b2016bd414610744578063b3604c961461076e578063c5ebeaec14610798578063c82f6d2f146107c0578063ced65b01146107ea5761023a565b80638da5cb5b116100f15780638da5cb5b14610688578063a385fb96146106b2578063a6afed95146106dc578063aa5af0fd146106f2578063b1c0be341461071c5761023a565b80636ad9f9df146105a457806374375359146105e057806376e9790a1461060a5780637c3a00fd146106345780637dc0d1d01461065e5761023a565b80633e3722b6116101bb57806352d1902d1161017f57806352d1902d146104ae57806355f57510146104d85780636112fe2e1461051657806361d027b31461053e5780636711a640146105685761023a565b80633e3722b6146103ee5780634046ebae146104165780634a79d50c146104405780634b92917a1461046a5780634f1ef286146104925761023a565b80632f865568116102025780632f8655681461031057806335659fb8146103385780633659cfe614610362578063367febea1461038a578063371fd8e6146103b25761023a565b806306d378171461023e578063136cf1f71461026857806319970d8e1461029257806327776ab5146102bc57806329962904146102e6575b5f5ffd5b348015610249575f5ffd5b506102526108f4565b60405161025f9190612e51565b60405180910390f35b348015610273575f5ffd5b5061027c610919565b6040516102899190612e82565b60405180910390f35b34801561029d575f5ffd5b506102a661091f565b6040516102b39190612e82565b60405180910390f35b3480156102c7575f5ffd5b506102d0610925565b6040516102dd9190612e82565b60405180910390f35b3480156102f1575f5ffd5b506102fa610931565b6040516103079190612e82565b60405180910390f35b34801561031b575f5ffd5b5061033660048036038101906103319190612ede565b610937565b005b348015610343575f5ffd5b5061034c610d7a565b6040516103599190612e82565b60405180910390f35b34801561036d575f5ffd5b5061038860048036038101906103839190612ede565b610d80565b005b348015610395575f5ffd5b506103b060048036038101906103ab9190612f33565b610ec8565b005b3480156103bd575f5ffd5b506103d860048036038101906103d39190612f33565b611001565b6040516103e59190612e82565b60405180910390f35b3480156103f9575f5ffd5b50610414600480360381019061040f9190612f33565b61128d565b005b348015610421575f5ffd5b5061042a611427565b6040516104379190612f6d565b60405180910390f35b34801561044b575f5ffd5b5061045461144c565b6040516104619190612ff6565b60405180910390f35b348015610475575f5ffd5b50610490600480360381019061048b9190612f33565b6114d8565b005b6104ac60048036038101906104a79190613077565b61156a565b005b3480156104b9575f5ffd5b506104c26116ea565b6040516104cf91906130ec565b60405180910390f35b3480156104e3575f5ffd5b506104fe60048036038101906104f99190612ede565b6117a1565b60405161050d93929190613105565b60405180910390f35b348015610521575f5ffd5b5061053c60048036038101906105379190612f33565b6117c7565b005b348015610549575f5ffd5b50610552611999565b60405161055f9190612f6d565b60405180910390f35b348015610573575f5ffd5b5061058e60048036038101906105899190612ede565b6119be565b60405161059b9190612e82565b60405180910390f35b3480156105af575f5ffd5b506105ca60048036038101906105c59190612ede565b611b07565b6040516105d79190612e82565b60405180910390f35b3480156105eb575f5ffd5b506105f4611b6e565b6040516106019190612e82565b60405180910390f35b348015610615575f5ffd5b5061061e611c30565b60405161062b9190612ff6565b60405180910390f35b34801561063f575f5ffd5b50610648611cbc565b6040516106559190612e82565b60405180910390f35b348015610669575f5ffd5b50610672611cc2565b60405161067f919061315a565b60405180910390f35b348015610693575f5ffd5b5061069c611ce7565b6040516106a99190612f6d565b60405180910390f35b3480156106bd575f5ffd5b506106c6611d0c565b6040516106d39190612e82565b60405180910390f35b3480156106e7575f5ffd5b506106f0611d12565b005b3480156106fd575f5ffd5b50610706611d9a565b6040516107139190612e82565b60405180910390f35b348015610727575f5ffd5b50610742600480360381019061073d91906131eb565b611da0565b005b34801561074f575f5ffd5b5061075861244b565b6040516107659190612e51565b60405180910390f35b348015610779575f5ffd5b50610782612470565b60405161078f9190612e82565b60405180910390f35b3480156107a3575f5ffd5b506107be60048036038101906107b99190612f33565b612476565b005b3480156107cb575f5ffd5b506107d461268c565b6040516107e19190612e82565b60405180910390f35b3480156107f5575f5ffd5b50610810600480360381019061080b919061327f565b6126ac565b005b34801561081d575f5ffd5b5061083860048036038101906108339190612ede565b6127b0565b6040516108459190612e82565b60405180910390f35b348015610859575f5ffd5b50610874600480360381019061086f9190612ede565b612831565b005b348015610881575f5ffd5b5061088a612903565b6040516108979190612e82565b60405180910390f35b3480156108ab575f5ffd5b506108b4612909565b6040516108c19190612f6d565b60405180910390f35b3480156108d5575f5ffd5b506108de61292e565b6040516108eb9190612e82565b60405180910390f35b60015f9054906101000a900473ffffffffffffffffffffffffffffffffffffffff1681565b60105481565b600a5481565b670de0b6b3a764000081565b600f5481565b60085f9054906101000a900473ffffffffffffffffffffffffffffffffffffffff1673ffffffffffffffffffffffffffffffffffffffff163373ffffffffffffffffffffffffffffffffffffffff1614806109de57505f60029054906101000a900473ffffffffffffffffffffffffffffffffffffffff1673ffffffffffffffffffffffffffffffffffffffff163373ffffffffffffffffffffffffffffffffffffffff16145b610a1d576040517f08c379a0000000000000000000000000000000000000000000000000000000008152600401610a1490613319565b60405180910390fd5b610a25611d12565b610a2e8161296c565b15610a6e576040517f08c379a0000000000000000000000000000000000000000000000000000000008152600401610a6590613381565b60405180910390fd5b5f60125f8373ffffffffffffffffffffffffffffffffffffffff1673ffffffffffffffffffffffffffffffffffffffff1681526020019081526020015f2090505f610ab8836127b0565b90505f8111610afc576040517f08c379a0000000000000000000000000000000000000000000000000000000008152600401610af3906133e9565b60405180910390fd5b5f612710600a54845f0154610b119190613434565b610b1b91906134a2565b90505f81845f0154610b2d91906134d2565b90505f821115610bd55760025f9054906101000a900473ffffffffffffffffffffffffffffffffffffffff1673ffffffffffffffffffffffffffffffffffffffff1663a9059cbb33846040518363ffffffff1660e01b8152600401610b93929190613505565b6020604051808303815f875af1158015610baf573d5f5f3e3d5ffd5b505050506040513d601f19601f82011682018060405250810190610bd39190613561565b505b5f811115610c9c5760025f9054906101000a900473ffffffffffffffffffffffffffffffffffffffff1673ffffffffffffffffffffffffffffffffffffffff1663a9059cbb60075f9054906101000a900473ffffffffffffffffffffffffffffffffffffffff16836040518363ffffffff1660e01b8152600401610c5a929190613505565b6020604051808303815f875af1158015610c76573d5f5f3e3d5ffd5b505050506040513d601f19601f82011682018060405250810190610c9a9190613561565b505b836001015460105f828254610cb191906134d2565b9250508190555060125f8673ffffffffffffffffffffffffffffffffffffffff1673ffffffffffffffffffffffffffffffffffffffff1681526020019081526020015f205f5f82015f9055600182015f9055600282015f905550503373ffffffffffffffffffffffffffffffffffffffff168573ffffffffffffffffffffffffffffffffffffffff167f1f0c6615429d1cdae0dfa233abf91d3b31cdbdd82c8081389832a61e1072f1ea8585604051610d6b92919061358c565b60405180910390a35050505050565b600b5481565b7f000000000000000000000000000000000000000000000000000000000000000073ffffffffffffffffffffffffffffffffffffffff163073ffffffffffffffffffffffffffffffffffffffff1603610e0e576040517f08c379a0000000000000000000000000000000000000000000000000000000008152600401610e05906135fd565b60405180910390fd5b7f000000000000000000000000000000000000000000000000000000000000000073ffffffffffffffffffffffffffffffffffffffff16610e4d612981565b73ffffffffffffffffffffffffffffffffffffffff1614610ea3576040517f08c379a0000000000000000000000000000000000000000000000000000000008152600401610e9a90613665565b60405180910390fd5b610eac816129b0565b610ec58160405180602001604052805f8152505f612a0b565b50565b5f8111610f0a576040517f08c379a0000000000000000000000000000000000000000000000000000000008152600401610f01906136cd565b60405180910390fd5b60025f9054906101000a900473ffffffffffffffffffffffffffffffffffffffff1673ffffffffffffffffffffffffffffffffffffffff166323b872dd3330846040518463ffffffff1660e01b8152600401610f68939291906136eb565b6020604051808303815f875af1158015610f84573d5f5f3e3d5ffd5b505050506040513d601f19601f82011682018060405250810190610fa89190613561565b508060125f3373ffffffffffffffffffffffffffffffffffffffff1673ffffffffffffffffffffffffffffffffffffffff1681526020019081526020015f205f015f828254610ff79190613720565b9250508190555050565b5f5f8211611044576040517f08c379a000000000000000000000000000000000000000000000000000000000815260040161103b906136cd565b60405180910390fd5b61104c611d12565b5f60125f3373ffffffffffffffffffffffffffffffffffffffff1673ffffffffffffffffffffffffffffffffffffffff1681526020019081526020015f2090505f611096336127b0565b90505f81116110da576040517f08c379a00000000000000000000000000000000000000000000000000000000081526004016110d1906133e9565b60405180910390fd5b5f8185116110e857846110ea565b815b905060015f9054906101000a900473ffffffffffffffffffffffffffffffffffffffff1673ffffffffffffffffffffffffffffffffffffffff166323b872dd3330846040518463ffffffff1660e01b815260040161114a939291906136eb565b6020604051808303815f875af1158015611166573d5f5f3e3d5ffd5b505050506040513d601f19601f8201168201806040525081019061118a9190613561565b505f818460020154116111a15783600201546111a3565b815b905080846002015f8282546111b891906134d2565b92505081905550612710600b5482846111d191906134d2565b6111db9190613434565b6111e591906134a2565b60115f8282546111f59190613720565b925050819055505f83831461122a57600e54670de0b6b3a76400008461121b9190613434565b61122591906134a2565b611230565b84600101545b9050846001015481111561124657846001015490505b80856001015f82825461125991906134d2565b925050819055508060105f82825461127191906134d2565b92505081905550611281336127b0565b95505050505050919050565b60065f9054906101000a900473ffffffffffffffffffffffffffffffffffffffff1673ffffffffffffffffffffffffffffffffffffffff163373ffffffffffffffffffffffffffffffffffffffff161461131c576040517f08c379a00000000000000000000000000000000000000000000000000000000081526004016113139061379d565b60405180910390fd5b611324611b6e565b811115611366576040517f08c379a000000000000000000000000000000000000000000000000000000000815260040161135d90613805565b60405180910390fd5b60015f9054906101000a900473ffffffffffffffffffffffffffffffffffffffff1673ffffffffffffffffffffffffffffffffffffffff1663a9059cbb60065f9054906101000a900473ffffffffffffffffffffffffffffffffffffffff16836040518363ffffffff1660e01b81526004016113e3929190613505565b6020604051808303815f875af11580156113ff573d5f5f3e3d5ffd5b505050506040513d601f19601f820116820180604052508101906114239190613561565b5050565b60085f9054906101000a900473ffffffffffffffffffffffffffffffffffffffff1681565b6004805461145990613850565b80601f016020809104026020016040519081016040528092919081815260200182805461148590613850565b80156114d05780601f106114a7576101008083540402835291602001916114d0565b820191905f5260205f20905b8154815290600101906020018083116114b357829003601f168201915b505050505081565b60065f9054906101000a900473ffffffffffffffffffffffffffffffffffffffff1673ffffffffffffffffffffffffffffffffffffffff163373ffffffffffffffffffffffffffffffffffffffff1614611567576040517f08c379a000000000000000000000000000000000000000000000000000000000815260040161155e9061379d565b60405180910390fd5b50565b7f000000000000000000000000000000000000000000000000000000000000000073ffffffffffffffffffffffffffffffffffffffff163073ffffffffffffffffffffffffffffffffffffffff16036115f8576040517f08c379a00000000000000000000000000000000000000000000000000000000081526004016115ef906135fd565b60405180910390fd5b7f000000000000000000000000000000000000000000000000000000000000000073ffffffffffffffffffffffffffffffffffffffff16611637612981565b73ffffffffffffffffffffffffffffffffffffffff161461168d576040517f08c379a000000000000000000000000000000000000000000000000000000000815260040161168490613665565b60405180910390fd5b611696836129b0565b6116e58383838080601f0160208091040260200160405190810160405280939291908181526020018383808284375f81840152601f19601f820116905080830192505050505050506001612a0b565b505050565b5f7f000000000000000000000000000000000000000000000000000000000000000073ffffffffffffffffffffffffffffffffffffffff163073ffffffffffffffffffffffffffffffffffffffff1614611779576040517f08c379a0000000000000000000000000000000000000000000000000000000008152600401611770906138ca565b60405180910390fd5b7f360894a13ba1a3210667c828492db98dca3e2076cc3735a920a3ca505d382bbc5f1b905090565b6012602052805f5260405f205f91509050805f0154908060010154908060020154905083565b5f8111611809576040517f08c379a0000000000000000000000000000000000000000000000000000000008152600401611800906136cd565b60405180910390fd5b611811611d12565b5f60125f3373ffffffffffffffffffffffffffffffffffffffff1673ffffffffffffffffffffffffffffffffffffffff1681526020019081526020015f209050805f0154821115611897576040517f08c379a000000000000000000000000000000000000000000000000000000000815260040161188e90613932565b60405180910390fd5b81815f015f8282546118a991906134d2565b925050819055506118b93361296c565b6118f8576040517f08c379a00000000000000000000000000000000000000000000000000000000081526004016118ef9061399a565b60405180910390fd5b60025f9054906101000a900473ffffffffffffffffffffffffffffffffffffffff1673ffffffffffffffffffffffffffffffffffffffff1663a9059cbb33846040518363ffffffff1660e01b8152600401611954929190613505565b6020604051808303815f875af1158015611970573d5f5f3e3d5ffd5b505050506040513d601f19601f820116820180604052508101906119949190613561565b505050565b60075f9054906101000a900473ffffffffffffffffffffffffffffffffffffffff1681565b5f5f60125f8473ffffffffffffffffffffffffffffffffffffffff1673ffffffffffffffffffffffffffffffffffffffff1681526020019081526020015f2090505f611a09846127b0565b90505f8103611a1c575f92505050611b02565b5f825f015403611a50577fffffffffffffffffffffffffffffffffffffffffffffffffffffffffffffffff92505050611b02565b5f611a7c8260015f9054906101000a900473ffffffffffffffffffffffffffffffffffffffff16612b48565b90505f611aad845f015460025f9054906101000a900473ffffffffffffffffffffffffffffffffffffffff16612b48565b90505f8103611ae2577fffffffffffffffffffffffffffffffffffffffffffffffffffffffffffffffff945050505050611b02565b8061271083611af19190613434565b611afb91906134a2565b9450505050505b919050565b5f5f611b12836119be565b90505f8103611b44577fffffffffffffffffffffffffffffffffffffffffffffffffffffffffffffffff915050611b69565b80670de0b6b3a7640000600954611b5b9190613434565b611b6591906134a2565b9150505b919050565b5f5f60015f9054906101000a900473ffffffffffffffffffffffffffffffffffffffff1673ffffffffffffffffffffffffffffffffffffffff166370a08231306040518263ffffffff1660e01b8152600401611bca9190612f6d565b602060405180830381865afa158015611be5573d5f5f3e3d5ffd5b505050506040513d601f19601f82011682018060405250810190611c0991906139cc565b9050601154811115611c285760115481611c2391906134d2565b611c2a565b5f5b91505090565b60058054611c3d90613850565b80601f0160208091040260200160405190810160405280929190818152602001828054611c6990613850565b8015611cb45780601f10611c8b57610100808354040283529160200191611cb4565b820191905f5260205f20905b815481529060010190602001808311611c9757829003601f168201915b505050505081565b600c5481565b60035f9054906101000a900473ffffffffffffffffffffffffffffffffffffffff1681565b5f60029054906101000a900473ffffffffffffffffffffffffffffffffffffffff1681565b600d5481565b600f54430315611d98575f6010541115611d90575f600f5443611d3591906134d2565b90505f600d5482600c54611d499190613434565b611d5391906134a2565b9050670de0b6b3a764000081600e54611d6c9190613434565b611d7691906134a2565b600e5f828254611d869190613720565b9250508190555050505b43600f819055505b565b600e5481565b5f5f9054906101000a900460ff161580611dc557505f60019054906101000a900460ff165b611e04576040517f08c379a0000000000000000000000000000000000000000000000000000000008152600401611dfb90613a41565b60405180910390fd5b5f5f60019054906101000a900460ff161590508015611e515760015f60016101000a81548160ff02191690831515021790555060015f5f6101000a81548160ff0219169083151502179055505b5f73ffffffffffffffffffffffffffffffffffffffff16866020016020810190611e7b9190612ede565b73ffffffffffffffffffffffffffffffffffffffff1603611ed1576040517f08c379a0000000000000000000000000000000000000000000000000000000008152600401611ec890613aa9565b60405180910390fd5b5f73ffffffffffffffffffffffffffffffffffffffff16866040016020810190611efb9190612ede565b73ffffffffffffffffffffffffffffffffffffffff1603611f51576040517f08c379a0000000000000000000000000000000000000000000000000000000008152600401611f4890613b11565b60405180910390fd5b5f73ffffffffffffffffffffffffffffffffffffffff16866060016020810190611f7b9190612ede565b73ffffffffffffffffffffffffffffffffffffffff1603611fd1576040517f08c379a0000000000000000000000000000000000000000000000000000000008152600401611fc890613b79565b60405180910390fd5b5f73ffffffffffffffffffffffffffffffffffffffff16866080016020810190611ffb9190612ede565b73ffffffffffffffffffffffffffffffffffffffff1603612051576040517f08c379a000000000000000000000000000000000000000000000000000000000815260040161204890613be1565b60405180910390fd5b5f73ffffffffffffffffffffffffffffffffffffffff168660a001602081019061207b9190612ede565b73ffffffffffffffffffffffffffffffffffffffff16036120d1576040517f08c379a00000000000000000000000000000000000000000000000000000000081526004016120c890613c49565b60405180910390fd5b5f86610120013511612118576040517f08c379a000000000000000000000000000000000000000000000000000000000815260040161210f90613cb1565b60405180910390fd5b6127108660e001351115612161576040517f08c379a000000000000000000000000000000000000000000000000000000000815260040161215890613d19565b60405180910390fd5b61271086610140013511156121ab576040517f08c379a00000000000000000000000000000000000000000000000000000000081526004016121a290613d81565b60405180910390fd5b6121c5865f0160208101906121c09190612ede565b612c7d565b8560200160208101906121d89190612ede565b60065f6101000a81548173ffffffffffffffffffffffffffffffffffffffff021916908373ffffffffffffffffffffffffffffffffffffffff16021790555085604001602081019061222a9190612ede565b60015f6101000a81548173ffffffffffffffffffffffffffffffffffffffff021916908373ffffffffffffffffffffffffffffffffffffffff16021790555085606001602081019061227c9190612ede565b60025f6101000a81548173ffffffffffffffffffffffffffffffffffffffff021916908373ffffffffffffffffffffffffffffffffffffffff1602179055508560800160208101906122ce9190612ede565b60035f6101000a81548173ffffffffffffffffffffffffffffffffffffffff021916908373ffffffffffffffffffffffffffffffffffffffff1602179055508560a00160208101906123209190612ede565b60075f6101000a81548173ffffffffffffffffffffffffffffffffffffffff021916908373ffffffffffffffffffffffffffffffffffffffff1602179055508560c00160208101906123729190612ede565b60085f6101000a81548173ffffffffffffffffffffffffffffffffffffffff021916908373ffffffffffffffffffffffffffffffffffffffff1602179055508484600491826123c2929190613f6d565b508282600591826123d4929190613f6d565b508560e00135600981905550856101000135600c81905550856101200135600d81905550856101400135600a81905550610bb8600b81905550670de0b6b3a7640000600e8190555043600f819055508015612443575f5f60016101000a81548160ff0219169083151502179055505b505050505050565b60025f9054906101000a900473ffffffffffffffffffffffffffffffffffffffff1681565b60095481565b5f81116124b8576040517f08c379a00000000000000000000000000000000000000000000000000000000081526004016124af906136cd565b60405180910390fd5b6124c0611d12565b6124c8611b6e565b81111561250a576040517f08c379a000000000000000000000000000000000000000000000000000000000815260040161250190613805565b60405180910390fd5b5f60125f3373ffffffffffffffffffffffffffffffffffffffff1673ffffffffffffffffffffffffffffffffffffffff1681526020019081526020015f2090505f61255483612cf7565b905080826001015f8282546125699190613720565b9250508190555082826002015f8282546125839190613720565b925050819055508060105f82825461259b9190613720565b925050819055506125ab3361296c565b6125ea576040517f08c379a00000000000000000000000000000000000000000000000000000000081526004016125e190614084565b60405180910390fd5b60015f9054906101000a900473ffffffffffffffffffffffffffffffffffffffff1673ffffffffffffffffffffffffffffffffffffffff1663a9059cbb33856040518363ffffffff1660e01b8152600401612646929190613505565b6020604051808303815f875af1158015612662573d5f5f3e3d5ffd5b505050506040513d601f19601f820116820180604052508101906126869190613561565b50505050565b5f61269561292e565b61269d611b6e565b6126a79190613720565b905090565b5f60029054906101000a900473ffffffffffffffffffffffffffffffffffffffff1673ffffffffffffffffffffffffffffffffffffffff163373ffffffffffffffffffffffffffffffffffffffff1614612704575f5ffd5b612710831115612749576040517f08c379a000000000000000000000000000000000000000000000000000000000815260040161274090613d19565b60405180910390fd5b61271081111561278e576040517f08c379a000000000000000000000000000000000000000000000000000000000815260040161278590613d81565b60405180910390fd5b612796611d12565b8260098190555081600c8190555080600a81905550505050565b5f5f60125f8473ffffffffffffffffffffffffffffffffffffffff1673ffffffffffffffffffffffffffffffffffffffff1681526020019081526020015f206001015490505f811461282757670de0b6b3a764000061280d612d2c565b826128189190613434565b61282291906134a2565b612829565b5f5b915050919050565b5f60029054906101000a900473ffffffffffffffffffffffffffffffffffffffff1673ffffffffffffffffffffffffffffffffffffffff163373ffffffffffffffffffffffffffffffffffffffff1614612889575f5ffd5b5f73ffffffffffffffffffffffffffffffffffffffff168173ffffffffffffffffffffffffffffffffffffffff16036128c0575f5ffd5b805f60026101000a81548173ffffffffffffffffffffffffffffffffffffffff021916908373ffffffffffffffffffffffffffffffffffffffff16021790555050565b60115481565b60065f9054906101000a900473ffffffffffffffffffffffffffffffffffffffff1681565b5f5f6010541461296557670de0b6b3a7640000612949612d2c565b6010546129569190613434565b61296091906134a2565b612967565b5f5b905090565b5f600954612979836119be565b109050919050565b5f5f7f360894a13ba1a3210667c828492db98dca3e2076cc3735a920a3ca505d382bbc5f1b9050805491505090565b5f60029054906101000a900473ffffffffffffffffffffffffffffffffffffffff1673ffffffffffffffffffffffffffffffffffffffff163373ffffffffffffffffffffffffffffffffffffffff1614612a08575f5ffd5b50565b5f73ffffffffffffffffffffffffffffffffffffffff168373ffffffffffffffffffffffffffffffffffffffff1603612a79576040517f08c379a0000000000000000000000000000000000000000000000000000000008152600401612a70906140ec565b60405180910390fd5b612a8283612daa565b8080612a8e57505f8251115b15612b43575f5f8473ffffffffffffffffffffffffffffffffffffffff1684604051612aba919061414e565b5f60405180830381855af49150503d805f8114612af2576040519150601f19603f3d011682016040523d82523d5f602084013e612af7565b606091505b5091509150818190612b3f576040517f08c379a0000000000000000000000000000000000000000000000000000000008152600401612b369190612ff6565b60405180910390fd5b5050505b505050565b5f5f8273ffffffffffffffffffffffffffffffffffffffff1663313ce5676040518163ffffffff1660e01b8152600401602060405180830381865afa158015612b93573d5f5f3e3d5ffd5b505050506040513d601f19601f82011682018060405250810190612bb7919061419a565b905080600a612bc691906142f4565b60035f9054906101000a900473ffffffffffffffffffffffffffffffffffffffff1673ffffffffffffffffffffffffffffffffffffffff166341976e09856040518263ffffffff1660e01b8152600401612c209190612f6d565b602060405180830381865afa158015612c3b573d5f5f3e3d5ffd5b505050506040513d601f19601f82011682018060405250810190612c5f91906139cc565b85612c6a9190613434565b612c7491906134a2565b91505092915050565b5f73ffffffffffffffffffffffffffffffffffffffff168173ffffffffffffffffffffffffffffffffffffffff1603612cb4575f5ffd5b805f60026101000a81548173ffffffffffffffffffffffffffffffffffffffff021916908373ffffffffffffffffffffffffffffffffffffffff16021790555050565b5f600e54670de0b6b3a764000083612d0f9190613434565b612d1991906134a2565b90505f8103612d2757600190505b919050565b5f600e549050600f5443118015612d4457505f601054115b15612da7575f600f5443612d5891906134d2565b90505f600d5482600c54612d6c9190613434565b612d7691906134a2565b9050670de0b6b3a76400008184612d8d9190613434565b612d9791906134a2565b83612da29190613720565b925050505b90565b5f7f360894a13ba1a3210667c828492db98dca3e2076cc3735a920a3ca505d382bbc5f1b90508181555050565b5f73ffffffffffffffffffffffffffffffffffffffff82169050919050565b5f819050919050565b5f612e19612e14612e0f84612dd7565b612df6565b612dd7565b9050919050565b5f612e2a82612dff565b9050919050565b5f612e3b82612e20565b9050919050565b612e4b81612e31565b82525050565b5f602082019050612e645f830184612e42565b92915050565b5f819050919050565b612e7c81612e6a565b82525050565b5f602082019050612e955f830184612e73565b92915050565b5f5ffd5b5f5ffd5b5f612ead82612dd7565b9050919050565b612ebd81612ea3565b8114612ec7575f5ffd5b50565b5f81359050612ed881612eb4565b92915050565b5f60208284031215612ef357612ef2612e9b565b5b5f612f0084828501612eca565b91505092915050565b612f1281612e6a565b8114612f1c575f5ffd5b50565b5f81359050612f2d81612f09565b92915050565b5f60208284031215612f4857612f47612e9b565b5b5f612f5584828501612f1f565b91505092915050565b612f6781612ea3565b82525050565b5f602082019050612f805f830184612f5e565b92915050565b5f81519050919050565b5f82825260208201905092915050565b8281835e5f83830152505050565b5f601f19601f8301169050919050565b5f612fc882612f86565b612fd28185612f90565b9350612fe2818560208601612fa0565b612feb81612fae565b840191505092915050565b5f6020820190508181035f83015261300e8184612fbe565b905092915050565b5f5ffd5b5f5ffd5b5f5ffd5b5f5f83601f84011261303757613036613016565b5b8235905067ffffffffffffffff8111156130545761305361301a565b5b6020830191508360018202830111156130705761306f61301e565b5b9250929050565b5f5f5f6040848603121561308e5761308d612e9b565b5b5f61309b86828701612eca565b935050602084013567ffffffffffffffff8111156130bc576130bb612e9f565b5b6130c886828701613022565b92509250509250925092565b5f819050919050565b6130e6816130d4565b82525050565b5f6020820190506130ff5f8301846130dd565b92915050565b5f6060820190506131185f830186612e73565b6131256020830185612e73565b6131326040830184612e73565b949350505050565b5f61314482612e20565b9050919050565b6131548161313a565b82525050565b5f60208201905061316d5f83018461314b565b92915050565b5f5ffd5b5f610160828403121561318d5761318c613173565b5b81905092915050565b5f5f83601f8401126131ab576131aa613016565b5b8235905067ffffffffffffffff8111156131c8576131c761301a565b5b6020830191508360018202830111156131e4576131e361301e565b5b9250929050565b5f5f5f5f5f6101a0868803121561320557613204612e9b565b5b5f61321288828901613177565b95505061016086013567ffffffffffffffff81111561323457613233612e9f565b5b61324088828901613196565b945094505061018086013567ffffffffffffffff81111561326457613263612e9f565b5b61327088828901613196565b92509250509295509295909350565b5f5f5f6060848603121561329657613295612e9b565b5b5f6132a386828701612f1f565b93505060206132b486828701612f1f565b92505060406132c586828701612f1f565b9150509250925092565b7f4e4f545f4c495155494441544f520000000000000000000000000000000000005f82015250565b5f613303600e83612f90565b915061330e826132cf565b602082019050919050565b5f6020820190508181035f830152613330816132f7565b9050919050565b7f504f534954494f4e5f4845414c544859000000000000000000000000000000005f82015250565b5f61336b601083612f90565b915061337682613337565b602082019050919050565b5f6020820190508181035f8301526133988161335f565b9050919050565b7f4e4f5f44454254000000000000000000000000000000000000000000000000005f82015250565b5f6133d3600783612f90565b91506133de8261339f565b602082019050919050565b5f6020820190508181035f830152613400816133c7565b9050919050565b7f4e487b71000000000000000000000000000000000000000000000000000000005f52601160045260245ffd5b5f61343e82612e6a565b915061344983612e6a565b925082820261345781612e6a565b9150828204841483151761346e5761346d613407565b5b5092915050565b7f4e487b71000000000000000000000000000000000000000000000000000000005f52601260045260245ffd5b5f6134ac82612e6a565b91506134b783612e6a565b9250826134c7576134c6613475565b5b828204905092915050565b5f6134dc82612e6a565b91506134e783612e6a565b92508282039050818111156134ff576134fe613407565b5b92915050565b5f6040820190506135185f830185612f5e565b6135256020830184612e73565b9392505050565b5f8115159050919050565b6135408161352c565b811461354a575f5ffd5b50565b5f8151905061355b81613537565b92915050565b5f6020828403121561357657613575612e9b565b5b5f6135838482850161354d565b91505092915050565b5f60408201905061359f5f830185612e73565b6135ac6020830184612e73565b9392505050565b7f4e4f545f44454c454741544543414c4c000000000000000000000000000000005f82015250565b5f6135e7601083612f90565b91506135f2826135b3565b602082019050919050565b5f6020820190508181035f830152613614816135db565b9050919050565b7f494e4143544956455f50524f58590000000000000000000000000000000000005f82015250565b5f61364f600e83612f90565b915061365a8261361b565b602082019050919050565b5f6020820190508181035f83015261367c81613643565b9050919050565b7f5a45524f5f414d4f554e540000000000000000000000000000000000000000005f82015250565b5f6136b7600b83612f90565b91506136c282613683565b602082019050919050565b5f6020820190508181035f8301526136e4816136ab565b9050919050565b5f6060820190506136fe5f830186612f5e565b61370b6020830185612f5e565b6137186040830184612e73565b949350505050565b5f61372a82612e6a565b915061373583612e6a565b925082820190508082111561374d5761374c613407565b5b92915050565b7f4e4f545f5641554c5400000000000000000000000000000000000000000000005f82015250565b5f613787600983612f90565b915061379282613753565b602082019050919050565b5f6020820190508181035f8301526137b48161377b565b9050919050565b7f494e53554646494349454e545f4c4951554944495459000000000000000000005f82015250565b5f6137ef601683612f90565b91506137fa826137bb565b602082019050919050565b5f6020820190508181035f83015261381c816137e3565b9050919050565b7f4e487b71000000000000000000000000000000000000000000000000000000005f52602260045260245ffd5b5f600282049050600182168061386757607f821691505b60208210810361387a57613879613823565b5b50919050565b7f4f4e4c595f494d504c454d454e544154494f4e000000000000000000000000005f82015250565b5f6138b4601383612f90565b91506138bf82613880565b602082019050919050565b5f6020820190508181035f8301526138e1816138a8565b9050919050565b7f455843454544535f434f4c4c41544552414c00000000000000000000000000005f82015250565b5f61391c601283612f90565b9150613927826138e8565b602082019050919050565b5f6020820190508181035f83015261394981613910565b9050919050565b7f574f554c445f42455f4c4951554944415441424c4500000000000000000000005f82015250565b5f613984601583612f90565b915061398f82613950565b602082019050919050565b5f6020820190508181035f8301526139b181613978565b9050919050565b5f815190506139c681612f09565b92915050565b5f602082840312156139e1576139e0612e9b565b5b5f6139ee848285016139b8565b91505092915050565b7f414c52454144595f494e495449414c495a4544000000000000000000000000005f82015250565b5f613a2b601383612f90565b9150613a36826139f7565b602082019050919050565b5f6020820190508181035f830152613a5881613a1f565b9050919050565b7f5a45524f5f5641554c54000000000000000000000000000000000000000000005f82015250565b5f613a93600a83612f90565b9150613a9e82613a5f565b602082019050919050565b5f6020820190508181035f830152613ac081613a87565b9050919050565b7f5a45524f5f4c4f414e00000000000000000000000000000000000000000000005f82015250565b5f613afb600983612f90565b9150613b0682613ac7565b602082019050919050565b5f6020820190508181035f830152613b2881613aef565b9050919050565b7f5a45524f5f434f4c4c41544552414c00000000000000000000000000000000005f82015250565b5f613b63600f83612f90565b9150613b6e82613b2f565b602082019050919050565b5f6020820190508181035f830152613b9081613b57565b9050919050565b7f5a45524f5f4f5241434c450000000000000000000000000000000000000000005f82015250565b5f613bcb600b83612f90565b9150613bd682613b97565b602082019050919050565b5f6020820190508181035f830152613bf881613bbf565b9050919050565b7f5a45524f5f5452454153555259000000000000000000000000000000000000005f82015250565b5f613c33600d83612f90565b9150613c3e82613bff565b602082019050919050565b5f6020820190508181035f830152613c6081613c27565b9050919050565b7f5a45524f5f4250590000000000000000000000000000000000000000000000005f82015250565b5f613c9b600883612f90565b9150613ca682613c67565b602082019050919050565b5f6020820190508181035f830152613cc881613c8f565b9050919050565b7f4241445f4c4c54560000000000000000000000000000000000000000000000005f82015250565b5f613d03600883612f90565b9150613d0e82613ccf565b602082019050919050565b5f6020820190508181035f830152613d3081613cf7565b9050919050565b7f4241445f4c49515f424f4e5553000000000000000000000000000000000000005f82015250565b5f613d6b600d83612f90565b9150613d7682613d37565b602082019050919050565b5f6020820190508181035f830152613d9881613d5f565b9050919050565b5f82905092915050565b7f4e487b71000000000000000000000000000000000000000000000000000000005f52604160045260245ffd5b5f819050815f5260205f209050919050565b5f6020601f8301049050919050565b5f82821b905092915050565b5f60088302613e327fffffffffffffffffffffffffffffffffffffffffffffffffffffffffffffffff82613df7565b613e3c8683613df7565b95508019841693508086168417925050509392505050565b5f613e6e613e69613e6484612e6a565b612df6565b612e6a565b9050919050565b5f819050919050565b613e8783613e54565b613e9b613e9382613e75565b848454613e03565b825550505050565b5f5f905090565b613eb2613ea3565b613ebd818484613e7e565b505050565b5b81811015613ee057613ed55f82613eaa565b600181019050613ec3565b5050565b601f821115613f2557613ef681613dd6565b613eff84613de8565b81016020851015613f0e578190505b613f22613f1a85613de8565b830182613ec2565b50505b505050565b5f82821c905092915050565b5f613f455f1984600802613f2a565b1980831691505092915050565b5f613f5d8383613f36565b9150826002028217905092915050565b613f778383613d9f565b67ffffffffffffffff811115613f9057613f8f613da9565b5b613f9a8254613850565b613fa5828285613ee4565b5f601f831160018114613fd2575f8415613fc0578287013590505b613fca8582613f52565b865550614031565b601f198416613fe086613dd6565b5f5b8281101561400757848901358255600182019150602085019450602081019050613fe2565b868310156140245784890135614020601f891682613f36565b8355505b6001600288020188555050505b50505050505050565b7f424f52524f575f425245414b535f4c4c545600000000000000000000000000005f82015250565b5f61406e601283612f90565b91506140798261403a565b602082019050919050565b5f6020820190508181035f83015261409b81614062565b9050919050565b7f5a45524f5f494d504c00000000000000000000000000000000000000000000005f82015250565b5f6140d6600983612f90565b91506140e1826140a2565b602082019050919050565b5f6020820190508181035f830152614103816140ca565b9050919050565b5f81519050919050565b5f81905092915050565b5f6141288261410a565b6141328185614114565b9350614142818560208601612fa0565b80840191505092915050565b5f614159828461411e565b915081905092915050565b5f60ff82169050919050565b61417981614164565b8114614183575f5ffd5b50565b5f8151905061419481614170565b92915050565b5f602082840312156141af576141ae612e9b565b5b5f6141bc84828501614186565b91505092915050565b5f8160011c9050919050565b5f5f8291508390505b600185111561421a578086048111156141f6576141f5613407565b5b60018516156142055780820291505b8081029050614213856141c5565b94506141da565b94509492505050565b5f8261423257600190506142ed565b8161423f575f90506142ed565b8160018114614255576002811461425f5761428e565b60019150506142ed565b60ff84111561427157614270613407565b5b8360020a91508482111561428857614287613407565b5b506142ed565b5060208310610133831016604e8410600b84101617156142c35782820a9050838111156142be576142bd613407565b5b6142ed565b6142d084848460016141d1565b925090508184048111156142e7576142e6613407565b5b81810290505b9392505050565b5f6142fe82612e6a565b915061430983614164565b92506143367fffffffffffffffffffffffffffffffffffffffffffffffffffffffffffffffff8484614223565b90509291505056fea2646970667358221220299ea4ef6d344e1ff26ca01f052c606443286687f6d95cc28d2c9ffffc51872964736f6c634300081e0033",
			"opcodes": "PUSH1 0xA0 PUSH1 0x40 MSTORE ADDRESS PUSH20 0xFFFFFFFFFFFFFFFFFFFFFFFFFFFFFFFFFFFFFFFF AND PUSH1 0x80 SWAP1 PUSH20 0xFFFFFFFFFFFFFFFFFFFFFFFFFFFFFFFFFFFFFFFF AND DUP2 MSTORE POP CALLVALUE DUP1 ISZERO PUSH2 0x42 JUMPI PUSH0 PUSH0 REVERT JUMPDEST POP PUSH1 0x80 MLOAD PUSH2 0x4374 PUSH2 0x77 PUSH0 CODECOPY PUSH0 DUP2 DUP2 PUSH2 0xD82 ADD MSTORE DUP2 DUP2 PUSH2 0xE10 ADD MSTORE DUP2 DUP2 PUSH2 0x156C ADD MSTORE DUP2 DUP2 PUSH2 0x15FA ADD MSTORE PUSH2 0x16ED ADD MSTORE PUSH2 0x4374 PUSH0 RETURN INVALID PUSH1 0x80 PUSH1 0x40 MSTORE PUSH1 0x4 CALLDATASIZE LT PUSH2 0x23A JUMPI PUSH0 CALLDATALOAD PUSH1 0xE0 SHR DUP1 PUSH4 0x6AD9F9DF GT PUSH2 0x12D JUMPI DUP1 PUSH4 0xB2016BD4 GT PUSH2 0xAA JUMPI DUP1 PUSH4 0xD283E75F GT PUSH2 0x6E JUMPI DUP1 PUSH4 0xD283E75F EQ PUSH2 0x812 JUMPI DUP1 PUSH4 0xD3A417A2 EQ PUSH2 0x84E JUMPI DUP1 PUSH4 0xD681A449 EQ PUSH2 0x876 JUMPI DUP1 PUSH4 0xFBFA77CF EQ PUSH2 0x8A0 JUMPI DUP1 PUSH4 0xFC7B9C18 EQ PUSH2 0x8CA JUMPI PUSH2 0x23A JUMP JUMPDEST DUP1 PUSH4 0xB2016BD4 EQ PUSH2 0x744 JUMPI DUP1 PUSH4 0xB3604C96 EQ PUSH2 0x76E JUMPI DUP1 PUSH4 0xC5EBEAEC EQ PUSH2 0x798 JUMPI DUP1 PUSH4 0xC82F6D2F EQ PUSH2 0x7C0 JUMPI DUP1 PUSH4 0xCED65B01 EQ PUSH2 0x7EA JUMPI PUSH2 0x23A JUMP JUMPDEST DUP1 PUSH4 0x8DA5CB5B GT PUSH2 0xF1 JUMPI DUP1 PUSH4 0x8DA5CB5B EQ PUSH2 0x688 JUMPI DUP1 PUSH4 0xA385FB96 EQ PUSH2 0x6B2 JUMPI DUP1 PUSH4 0xA6AFED95 EQ PUSH2 0x6DC JUMPI DUP1 PUSH4 0xAA5AF0FD EQ PUSH2 0x6F2 JUMPI DUP1 PUSH4 0xB1C0BE34 EQ PUSH2 0x71C JUMPI PUSH2 0x23A JUMP JUMPDEST DUP1 PUSH4 0x6AD9F9DF EQ PUSH2 0x5A4 JUMPI DUP1 PUSH4 0x74375359 EQ PUSH2 0x5E0 JUMPI DUP1 PUSH4 0x76E9790A EQ PUSH2 0x60A JUMPI DUP1 PUSH4 0x7C3A00FD EQ PUSH2 0x634 JUMPI DUP1 PUSH4 0x7DC0D1D0 EQ PUSH2 0x65E JUMPI PUSH2 0x23A JUMP JUMPDEST DUP1 PUSH4 0x3E3722B6 GT PUSH2 0x1BB JUMPI DUP1 PUSH4 0x52D1902D GT PUSH2 0x17F JUMPI DUP1 PUSH4 0x52D1902D EQ PUSH2 0x4AE JUMPI DUP1 PUSH4 0x55F57510 EQ PUSH2 0x4D8 JUMPI DUP1 PUSH4 0x6112FE2E EQ PUSH2 0x516 JUMPI DUP1 PUSH4 0x61D027B3 EQ PUSH2 0x53E JUMPI DUP1 PUSH4 0x6711A640 EQ PUSH2 0x568 JUMPI PUSH2 0x23A JUMP JUMPDEST DUP1 PUSH4 0x3E3722B6 EQ PUSH2 0x3EE JUMPI DUP1 PUSH4 0x4046EBAE EQ PUSH2 0x416 JUMPI DUP1 PUSH4 0x4A79D50C EQ PUSH2 0x440 JUMPI DUP1 PUSH4 0x4B92917A EQ PUSH2 0x46A JUMPI DUP1 PUSH4 0x4F1EF286 EQ PUSH2 0x492 JUMPI PUSH2 0x23A JUMP JUMPDEST DUP1 PUSH4 0x2F865568 GT PUSH2 0x202 JUMPI DUP1 PUSH4 0x2F865568 EQ PUSH2 0x310 JUMPI DUP1 PUSH4 0x35659FB8 EQ PUSH2 0x338 JUMPI DUP1 PUSH4 0x3659CFE6 EQ PUSH2 0x362 JUMPI DUP1 PUSH4 0x367FEBEA EQ PUSH2 0x38A JUMPI DUP1 PUSH4 0x371FD8E6 EQ PUSH2 0x3B2 JUMPI PUSH2 0x23A JUMP JUMPDEST DUP1 PUSH4 0x6D37817 EQ PUSH2 0x23E JUMPI DUP1 PUSH4 0x136CF1F7 EQ PUSH2 0x268 JUMPI DUP1 PUSH4 0x19970D8E EQ PUSH2 0x292 JUMPI DUP1 PUSH4 0x27776AB5 EQ PUSH2 0x2BC JUMPI DUP1 PUSH4 0x29962904 EQ PUSH2 0x2E6 JUMPI JUMPDEST PUSH0 PUSH0 REVERT JUMPDEST CALLVALUE DUP1 ISZERO PUSH2 0x249 JUMPI PUSH0 PUSH0 REVERT JUMPDEST POP PUSH2 0x252 PUSH2 0x8F4 JUMP JUMPDEST PUSH1 0x40 MLOAD PUSH2 0x25F SWAP2 SWAP1 PUSH2 0x2E51 JUMP JUMPDEST PUSH1 0x40 MLOAD DUP1 SWAP2 SUB SWAP1 RETURN JUMPDEST CALLVALUE DUP1 ISZERO PUSH2 0x273 JUMPI PUSH0 PUSH0 REVERT JUMPDEST POP PUSH2 0x27C PUSH2 0x919 JUMP JUMPDEST PUSH1 0x40 MLOAD PUSH2 0x289 SWAP2 SWAP1 PUSH2 0x2E82 JUMP JUMPDEST PUSH1 0x40 MLOAD DUP1 SWAP2 SUB SWAP1 RETURN JUMPDEST CALLVALUE DUP1 ISZERO PUSH2 0x29D JUMPI PUSH0 PUSH0 REVERT JUMPDEST POP PUSH2 0x2A6 PUSH2 0x91F JUMP JUMPDEST PUSH1 0x40 MLOAD PUSH2 0x2B3 SWAP2 SWAP1 PUSH2 0x2E82 JUMP JUMPDEST PUSH1 0x40 MLOAD DUP1 SWAP2 SUB SWAP1 RETURN JUMPDEST CALLVALUE DUP1 ISZERO PUSH2 0x2C7 JUMPI PUSH0 PUSH0 REVERT JUMPDEST POP PUSH2 0x2D0 PUSH2 0x925 JUMP JUMPDEST PUSH1 0x40 MLOAD PUSH2 0x2DD SWAP2 SWAP1 PUSH2 0x2E82 JUMP JUMPDEST PUSH1 0x40 MLOAD DUP1 SWAP2 SUB SWAP1 RETURN JUMPDEST CALLVALUE DUP1 ISZERO PUSH2 0x2F1 JUMPI PUSH0 PUSH0 REVERT JUMPDEST POP PUSH2 0x2FA PUSH2 0x931 JUMP JUMPDEST PUSH1 0x40 MLOAD PUSH2 0x307 SWAP2 SWAP1 PUSH2 0x2E82 JUMP JUMPDEST PUSH1 0x40 MLOAD DUP1 SWAP2 SUB SWAP1 RETURN JUMPDEST CALLVALUE DUP1 ISZERO PUSH2 0x31B JUMPI PUSH0 PUSH0 REVERT JUMPDEST POP PUSH2 0x336 PUSH1 0x4 DUP1 CALLDATASIZE SUB DUP2 ADD SWAP1 PUSH2 0x331 SWAP2 SWAP1 PUSH2 0x2EDE JUMP JUMPDEST PUSH2 0x937 JUMP JUMPDEST STOP JUMPDEST CALLVALUE DUP1 ISZERO PUSH2 0x343 JUMPI PUSH0 PUSH0 REVERT JUMPDEST POP PUSH2 0x34C PUSH2 0xD7A JUMP JUMPDEST PUSH1 0x40 MLOAD PUSH2 0x359 SWAP2 SWAP1 PUSH2 0x2E82 JUMP JUMPDEST PUSH1 0x40 MLOAD DUP1 SWAP2 SUB SWAP1 RETURN JUMPDEST CALLVALUE DUP1 ISZERO PUSH2 0x36D JUMPI PUSH0 PUSH0 REVERT JUMPDEST POP PUSH2 0x388 PUSH1 0x4 DUP1 CALLDATASIZE SUB DUP2 ADD SWAP1 PUSH2 0x383 SWAP2 SWAP1 PUSH2 0x2EDE JUMP JUMPDEST PUSH2 0xD80 JUMP JUMPDEST STOP JUMPDEST CALLVALUE DUP1 ISZERO PUSH2 0x395 JUMPI PUSH0 PUSH0 REVERT JUMPDEST POP PUSH2 0x3B0 PUSH1 0x4 DUP1 CALLDATASIZE SUB DUP2 ADD SWAP1 PUSH2 0x3AB SWAP2 SWAP1 PUSH2 0x2F33 JUMP JUMPDEST PUSH2 0xEC8 JUMP JUMPDEST STOP JUMPDEST CALLVALUE DUP1 ISZERO PUSH2 0x3BD JUMPI PUSH0 PUSH0 REVERT JUMPDEST POP PUSH2 0x3D8 PUSH1 0x4 DUP1 CALLDATASIZE SUB DUP2 ADD SWAP1 PUSH2 0x3D3 SWAP2 SWAP1 PUSH2 0x2F33 JUMP JUMPDEST PUSH2 0x1001 JUMP JUMPDEST PUSH1 0x40 MLOAD PUSH2 0x3E5 SWAP2 SWAP1 PUSH2 0x2E82 JUMP JUMPDEST PUSH1 0x40 MLOAD DUP1 SWAP2 SUB SWAP1 RETURN JUMPDEST CALLVALUE DUP1 ISZERO PUSH2 0x3F9 JUMPI PUSH0 PUSH0 REVERT JUMPDEST POP PUSH2 0x414 PUSH1 0x4 DUP1 CALLDATASIZE SUB DUP2 ADD SWAP1 PUSH2 0x40F SWAP2 SWAP1 PUSH2 0x2F33 JUMP JUMPDEST PUSH2 0x128D JUMP JUMPDEST STOP JUMPDEST CALLVALUE DUP1 ISZERO PUSH2 0x421 JUMPI PUSH0 PUSH0 REVERT JUMPDEST POP PUSH2 0x42A PUSH2 0x1427 JUMP JUMPDEST PUSH1 0x40 MLOAD PUSH2 0x437 SWAP2 SWAP1 PUSH2 0x2F6D JUMP JUMPDEST PUSH1 0x40 MLOAD DUP1 SWAP2 SUB SWAP1 RETURN JUMPDEST CALLVALUE DUP1 ISZERO PUSH2 0x44B JUMPI PUSH0 PUSH0 REVERT JUMPDEST POP PUSH2 0x454 PUSH2 0x144C JUMP JUMPDEST PUSH1 0x40 MLOAD PUSH2 0x461 SWAP2 SWAP1 PUSH2 0x2FF6 JUMP JUMPDEST PUSH1 0x40 MLOAD DUP1 SWAP2 SUB SWAP1 RETURN JUMPDEST CALLVALUE DUP1 ISZERO PUSH2 0x475 JUMPI PUSH0 PUSH0 REVERT JUMPDEST POP PUSH2 0x490 PUSH1 0x4 DUP1 CALLDATASIZE SUB DUP2 ADD SWAP1 PUSH2 0x48B SWAP2 SWAP1 PUSH2 0x2F33 JUMP JUMPDEST PUSH2 0x14D8 JUMP JUMPDEST STOP JUMPDEST PUSH2 0x4AC PUSH1 0x4 DUP1 CALLDATASIZE SUB DUP2 ADD SWAP1 PUSH2 0x4A7 SWAP2 SWAP1 PUSH2 0x3077 JUMP JUMPDEST PUSH2 0x156A JUMP JUMPDEST STOP JUMPDEST CALLVALUE DUP1 ISZERO PUSH2 0x4B9 JUMPI PUSH0 PUSH0 REVERT JUMPDEST POP PUSH2 0x4C2 PUSH2 0x16EA JUMP JUMPDEST PUSH1 0x40 MLOAD PUSH2 0x4CF SWAP2 SWAP1 PUSH2 0x30EC JUMP JUMPDEST PUSH1 0x40 MLOAD DUP1 SWAP2 SUB SWAP1 RETURN JUMPDEST CALLVALUE DUP1 ISZERO PUSH2 0x4E3 JUMPI PUSH0 PUSH0 REVERT JUMPDEST POP PUSH2 0x4FE PUSH1 0x4 DUP1 CALLDATASIZE SUB DUP2 ADD SWAP1 PUSH2 0x4F9 SWAP2 SWAP1 PUSH2 0x2EDE JUMP JUMPDEST PUSH2 0x17A1 JUMP JUMPDEST PUSH1 0x40 MLOAD PUSH2 0x50D SWAP4 SWAP3 SWAP2 SWAP1 PUSH2 0x3105 JUMP JUMPDEST PUSH1 0x40 MLOAD DUP1 SWAP2 SUB SWAP1 RETURN JUMPDEST CALLVALUE DUP1 ISZERO PUSH2 0x521 JUMPI PUSH0 PUSH0 REVERT JUMPDEST POP PUSH2 0x53C PUSH1 0x4 DUP1 CALLDATASIZE SUB DUP2 ADD SWAP1 PUSH2 0x537 SWAP2 SWAP1 PUSH2 0x2F33 JUMP JUMPDEST PUSH2 0x17C7 JUMP JUMPDEST STOP JUMPDEST CALLVALUE DUP1 ISZERO PUSH2 0x549 JUMPI PUSH0 PUSH0 REVERT JUMPDEST POP PUSH2 0x552 PUSH2 0x1999 JUMP JUMPDEST PUSH1 0x40 MLOAD PUSH2 0x55F SWAP2 SWAP1 PUSH2 0x2F6D JUMP JUMPDEST PUSH1 0x40 MLOAD DUP1 SWAP2 SUB SWAP1 RETURN JUMPDEST CALLVALUE DUP1 ISZERO PUSH2 0x573 JUMPI PUSH0 PUSH0 REVERT JUMPDEST POP PUSH2 0x58E PUSH1 0x4 DUP1 CALLDATASIZE SUB DUP2 ADD SWAP1 PUSH2 0x589 SWAP2 SWAP1 PUSH2 0x2EDE JUMP JUMPDEST PUSH2 0x19BE JUMP JUMPDEST PUSH1 0x40 MLOAD PUSH2 0x59B SWAP2 SWAP1 PUSH2 0x2E82 JUMP JUMPDEST PUSH1 0x40 MLOAD DUP1 SWAP2 SUB SWAP1 RETURN JUMPDEST CALLVALUE DUP1 ISZERO PUSH2 0x5AF JUMPI PUSH0 PUSH0 REVERT JUMPDEST POP PUSH2 0x5CA PUSH1 0x4 DUP1 CALLDATASIZE SUB DUP2 ADD SWAP1 PUSH2 0x5C5 SWAP2 SWAP1 PUSH2 0x2EDE JUMP JUMPDEST PUSH2 0x1B07 JUMP JUMPDEST PUSH1 0x40 MLOAD PUSH2 0x5D7 SWAP2 SWAP1 PUSH2 0x2E82 JUMP JUMPDEST PUSH1 0x40 MLOAD DUP1 SWAP2 SUB SWAP1 RETURN JUMPDEST CALLVALUE DUP1 ISZERO PUSH2 0x5EB JUMPI PUSH0 PUSH0 REVERT JUMPDEST POP PUSH2 0x5F4 PUSH2 0x1B6E JUMP JUMPDEST PUSH1 0x40 MLOAD PUSH2 0x601 SWAP2 SWAP1 PUSH2 0x2E82 JUMP JUMPDEST PUSH1 0x40 MLOAD DUP1 SWAP2 SUB SWAP1 RETURN JUMPDEST CALLVALUE DUP1 ISZERO PUSH2 0x615 JUMPI PUSH0 PUSH0 REVERT JUMPDEST POP PUSH2 0x61E PUSH2 0x1C30 JUMP JUMPDEST PUSH1 0x40 MLOAD PUSH2 0x62B SWAP2 SWAP1 PUSH2 0x2FF6 JUMP JUMPDEST PUSH1 0x40 MLOAD DUP1 SWAP2 SUB SWAP1 RETURN JUMPDEST CALLVALUE DUP1 ISZERO PUSH2 0x63F JUMPI PUSH0 PUSH0 REVERT JUMPDEST POP PUSH2 0x648 PUSH2 0x1CBC JUMP JUMPDEST PUSH1 0x40 MLOAD PUSH2 0x655 SWAP2 SWAP1 PUSH2 0x2E82 JUMP JUMPDEST PUSH1 0x40 MLOAD DUP1 SWAP2 SUB SWAP1 RETURN JUMPDEST CALLVALUE DUP1 ISZERO PUSH2 0x669 JUMPI PUSH0 PUSH0 REVERT JUMPDEST POP PUSH2 0x672 PUSH2 0x1CC2 JUMP JUMPDEST PUSH1 0x40 MLOAD PUSH2 0x67F SWAP2 SWAP1 PUSH2 0x315A JUMP JUMPDEST PUSH1 0x40 MLOAD DUP1 SWAP2 SUB SWAP1 RETURN JUMPDEST CALLVALUE DUP1 ISZERO PUSH2 0x693 JUMPI PUSH0 PUSH0 REVERT JUMPDEST POP PUSH2 0x69C PUSH2 0x1CE7 JUMP JUMPDEST PUSH1 0x40 MLOAD PUSH2 0x6A9 SWAP2 SWAP1 PUSH2 0x2F6D JUMP JUMPDEST PUSH1 0x40 MLOAD DUP1 SWAP2 SUB SWAP1 RETURN JUMPDEST CALLVALUE DUP1 ISZERO PUSH2 0x6BD JUMPI PUSH0 PUSH0 REVERT JUMPDEST POP PUSH2 0x6C6 PUSH2 0x1D0C JUMP JUMPDEST PUSH1 0x40 MLOAD PUSH2 0x6D3 SWAP2 SWAP1 PUSH2 0x2E82 JUMP JUMPDEST PUSH1 0x40 MLOAD DUP1 SWAP2 SUB SWAP1 RETURN JUMPDEST CALLVALUE DUP1 ISZERO PUSH2 0x6E7 JUMPI PUSH0 PUSH0 REVERT JUMPDEST POP PUSH2 0x6F0 PUSH2 0x1D12 JUMP JUMPDEST STOP JUMPDEST CALLVALUE DUP1 ISZERO PUSH2 0x6FD JUMPI PUSH0 PUSH0 REVERT JUMPDEST POP PUSH2 0x706 PUSH2 0x1D9A JUMP JUMPDEST PUSH1 0x40 MLOAD PUSH2 0x713 SWAP2 SWAP1 PUSH2 0x2E82 JUMP JUMPDEST PUSH1 0x40 MLOAD DUP1 SWAP2 SUB SWAP1 RETURN JUMPDEST CALLVALUE DUP1 ISZERO PUSH2 0x727 JUMPI PUSH0 PUSH0 REVERT JUMPDEST POP PUSH2 0x742 PUSH1 0x4 DUP1 CALLDATASIZE SUB DUP2 ADD SWAP1 PUSH2 0x73D SWAP2 SWAP1 PUSH2 0x31EB JUMP JUMPDEST PUSH2 0x1DA0 JUMP JUMPDEST STOP JUMPDEST CALLVALUE DUP1 ISZERO PUSH2 0x74F JUMPI PUSH0 PUSH0 REVERT JUMPDEST POP PUSH2 0x758 PUSH2 0x244B JUMP JUMPDEST PUSH1 0x40 MLOAD PUSH2 0x765 SWAP2 SWAP1 PUSH2 0x2E51 JUMP JUMPDEST PUSH1 0x40 MLOAD DUP1 SWAP2 SUB SWAP1 RETURN JUMPDEST CALLVALUE DUP1 ISZERO PUSH2 0x779 JUMPI PUSH0 PUSH0 REVERT JUMPDEST POP PUSH2 0x782 PUSH2 0x2470 JUMP JUMPDEST PUSH1 0x40 MLOAD PUSH2 0x78F SWAP2 SWAP1 PUSH2 0x2E82 JUMP JUMPDEST PUSH1 0x40 MLOAD DUP1 SWAP2 SUB SWAP1 RETURN JUMPDEST CALLVALUE DUP1 ISZERO PUSH2 0x7A3 JUMPI PUSH0 PUSH0 REVERT JUMPDEST POP PUSH2 0x7BE PUSH1 0x4 DUP1 CALLDATASIZE SUB DUP2 ADD SWAP1 PUSH2 0x7B9 SWAP2 SWAP1 PUSH2 0x2F33 JUMP JUMPDEST PUSH2 0x2476 JUMP JUMPDEST STOP JUMPDEST CALLVALUE DUP1 ISZERO PUSH2 0x7CB JUMPI PUSH0 PUSH0 REVERT JUMPDEST POP PUSH2 0x7D4 PUSH2 0x268C JUMP JUMPDEST PUSH1 0x40 MLOAD PUSH2 0x7E1 SWAP2 SWAP1 PUSH2 0x2E82 JUMP JUMPDEST PUSH1 0x40 MLOAD DUP1 SWAP2 SUB SWAP1 RETURN JUMPDEST CALLVALUE DUP1 ISZERO PUSH2 0x7F5 JUMPI PUSH0 PUSH0 REVERT JUMPDEST POP PUSH2 0x810 PUSH1 0x4 DUP1 CALLDATASIZE SUB DUP2 ADD SWAP1 PUSH2 0x80B SWAP2 SWAP1 PUSH2 0x327F JUMP JUMPDEST PUSH2 0x26AC JUMP JUMPDEST STOP JUMPDEST CALLVALUE DUP1 ISZERO PUSH2 0x81D JUMPI PUSH0 PUSH0 REVERT JUMPDEST POP PUSH2 0x838 PUSH1 0x4 DUP1 CALLDATASIZE SUB DUP2 ADD SWAP1 PUSH2 0x833 SWAP2 SWAP1 PUSH2 0x2EDE JUMP JUMPDEST PUSH2 0x27B0 JUMP JUMPDEST PUSH1 0x40 MLOAD PUSH2 0x845 SWAP2 SWAP1 PUSH2 0x2E82 JUMP JUMPDEST PUSH1 0x40 MLOAD DUP1 SWAP2 SUB SWAP1 RETURN JUMPDEST CALLVALUE DUP1 ISZERO PUSH2 0x859 JUMPI PUSH0 PUSH0 REVERT JUMPDEST POP PUSH2 0x874 PUSH1 0x4 DUP1 CALLDATASIZE SUB DUP2 ADD SWAP1 PUSH2 0x86F SWAP2 SWAP1 PUSH2 0x2EDE JUMP JUMPDEST PUSH2 0x2831 JUMP JUMPDEST STOP JUMPDEST CALLVALUE DUP1 ISZERO PUSH2 0x881 JUMPI PUSH0 PUSH0 REVERT JUMPDEST POP PUSH2 0x88A PUSH2 0x2903 JUMP JUMPDEST PUSH1 0x40 MLOAD PUSH2 0x897 SWAP2 SWAP1 PUSH2 0x2E82 JUMP JUMPDEST PUSH1 0x40 MLOAD DUP1 SWAP2 SUB SWAP1 RETURN JUMPDEST CALLVALUE DUP1 ISZERO PUSH2 0x8AB JUMPI PUSH0 PUSH0 REVERT JUMPDEST POP PUSH2 0x8B4 PUSH2 0x2909 JUMP JUMPDEST PUSH1 0x40 MLOAD PUSH2 0x8C1 SWAP2 SWAP1 PUSH2 0x2F6D JUMP JUMPDEST PUSH1 0x40 MLOAD DUP1 SWAP2 SUB SWAP1 RETURN JUMPDEST CALLVALUE DUP1 ISZERO PUSH2 0x8D5 JUMPI PUSH0 PUSH0 REVERT JUMPDEST POP PUSH2 0x8DE PUSH2 0x292E JUMP JUMPDEST PUSH1 0x40 MLOAD PUSH2 0x8EB SWAP2 SWAP1 PUSH2 0x2E82 JUMP JUMPDEST PUSH1 0x40 MLOAD DUP1 SWAP2 SUB SWAP1 RETURN JUMPDEST PUSH1 0x1 PUSH0 SWAP1 SLOAD SWAP1 PUSH2 0x100 EXP SWAP1 DIV PUSH20 0xFFFFFFFFFFFFFFFFFFFFFFFFFFFFFFFFFFFFFFFF AND DUP2 JUMP JUMPDEST PUSH1 0x10 SLOAD DUP2 JUMP JUMPDEST PUSH1 0xA SLOAD DUP2 JUMP JUMPDEST PUSH8 0xDE0B6B3A7640000 DUP2 JUMP JUMPDEST PUSH1 0xF SLOAD DUP2 JUMP JUMPDEST PUSH1 0x8 PUSH0 SWAP1 SLOAD SWAP1 PUSH2 0x100 EXP SWAP1 DIV PUSH20 0xFFFFFFFFFFFFFFFFFFFFFFFFFFFFFFFFFFFFFFFF AND PUSH20 0xFFFFFFFFFFFFFFFFFFFFFFFFFFFFFFFFFFFFFFFF AND CALLER PUSH20 0xFFFFFFFFFFFFFFFFFFFFFFFFFFFFFFFFFFFFFFFF AND EQ DUP1 PUSH2 0x9DE JUMPI POP PUSH0 PUSH1 0x2 SWAP1 SLOAD SWAP1 PUSH2 0x100 EXP SWAP1 DIV PUSH20 0xFFFFFFFFFFFFFFFFFFFFFFFFFFFFFFFFFFFFFFFF AND PUSH20 0xFFFFFFFFFFFFFFFFFFFFFFFFFFFFFFFFFFFFFFFF AND CALLER PUSH20 0xFFFFFFFFFFFFFFFFFFFFFFFFFFFFFFFFFFFFFFFF AND EQ JUMPDEST PUSH2 0xA1D JUMPI PUSH1 0x40 MLOAD PUSH32 0x8C379A000000000000000000000000000000000000000000000000000000000 DUP2 MSTORE PUSH1 0x4 ADD PUSH2 0xA14 SWAP1 PUSH2 0x3319 JUMP JUMPDEST PUSH1 0x40 MLOAD DUP1 SWAP2 SUB SWAP1 REVERT JUMPDEST PUSH2 0xA25 PUSH2 0x1D12 JUMP JUMPDEST PUSH2 0xA2E DUP2 PUSH2 0x296C JUMP JUMPDEST ISZERO PUSH2 0xA6E JUMPI PUSH1 0x40 MLOAD PUSH32 0x8C379A000000000000000000000000000000000000000000000000000000000 DUP2 MSTORE PUSH1 0x4 ADD PUSH2 0xA65 SWAP1 PUSH2 0x3381 JUMP JUMPDEST PUSH1 0x40 MLOAD DUP1 SWAP2 SUB SWAP1 REVERT JUMPDEST PUSH0 PUSH1 0x12 PUSH0 DUP4 PUSH20 0xFFFFFFFFFFFFFFFFFFFFFFFFFFFFFFFFFFFFFFFF AND PUSH20 0xFFFFFFFFFFFFFFFFFFFFFFFFFFFFFFFFFFFFFFFF AND DUP2 MSTORE PUSH1 0x20 ADD SWAP1 DUP2 MSTORE PUSH1 0x20 ADD PUSH0 KECCAK256 SWAP1 POP PUSH0 PUSH2 0xAB8 DUP4 PUSH2 0x27B0 JUMP JUMPDEST SWAP1 POP PUSH0 DUP2 GT PUSH2 0xAFC JUMPI PUSH1 0x40 MLOAD PUSH32 0x8C379A000000000000000000000000000000000000000000000000000000000 DUP2 MSTORE PUSH1 0x4 ADD PUSH2 0xAF3 SWAP1 PUSH2 0x33E9 JUMP JUMPDEST PUSH1 0x40 MLOAD DUP1 SWAP2 SUB SWAP1 REVERT JUMPDEST PUSH0 PUSH2 0x2710 PUSH1 0xA SLOAD DUP5 PUSH0 ADD SLOAD PUSH2 0xB11 SWAP2 SWAP1 PUSH2 0x3434 JUMP JUMPDEST PUSH2 0xB1B SWAP2 SWAP1 PUSH2 0x34A2 JUMP JUMPDEST SWAP1 POP PUSH0 DUP2 DUP5 PUSH0 ADD SLOAD PUSH2 0xB2D SWAP2 SWAP1 PUSH2 0x34D2 JUMP JUMPDEST SWAP1 POP PUSH0 DUP3 GT ISZERO PUSH2 0xBD5 JUMPI PUSH1 0x2 PUSH0 SWAP1 SLOAD SWAP1 PUSH2 0x100 EXP SWAP1 DIV PUSH20 0xFFFFFFFFFFFFFFFFFFFFFFFFFFFFFFFFFFFFFFFF AND PUSH20 0xFFFFFFFFFFFFFFFFFFFFFFFFFFFFFFFFFFFFFFFF AND PUSH4 0xA9059CBB CALLER DUP5 PUSH1 0x40 MLOAD DUP4 PUSH4 0xFFFFFFFF AND PUSH1 0xE0 SHL DUP2 MSTORE PUSH1 0x4 ADD PUSH2 0xB93 SWAP3 SWAP2 SWAP1 PUSH2 0x3505 JUMP JUMPDEST PUSH1 0x20 PUSH1 0x40 MLOAD DUP1 DUP4 SUB DUP2 PUSH0 DUP8 GAS CALL ISZERO DUP1 ISZERO PUSH2 0xBAF JUMPI RETURNDATASIZE PUSH0 PUSH0 RETURNDATACOPY RETURNDATASIZE PUSH0 REVERT JUMPDEST POP POP POP POP PUSH1 0x40 MLOAD RETURNDATASIZE PUSH1 0x1F NOT PUSH1 0x1F DUP3 ADD AND DUP3 ADD DUP1 PUSH1 0x40 MSTORE POP DUP2 ADD SWAP1 PUSH2 0xBD3 SWAP2 SWAP1 PUSH2 0x3561 JUMP JUMPDEST POP JUMPDEST PUSH0 DUP2 GT ISZERO PUSH2 0xC9C JUMPI PUSH1 0x2 PUSH0 SWAP1 SLOAD SWAP1 PUSH2 0x100 EXP SWAP1 DIV PUSH20 0xFFFFFFFFFFFFFFFFFFFFFFFFFFFFFFFFFFFFFFFF AND PUSH20 0xFFFFFFFFFFFFFFFFFFFFFFFFFFFFFFFFFFFFFFFF AND PUSH4 0xA9059CBB PUSH1 0x7 PUSH0 SWAP1 SLOAD SWAP1 PUSH2 0x100 EXP SWAP1 DIV PUSH20 0xFFFFFFFFFFFFFFFFFFFFFFFFFFFFFFFFFFFFFFFF AND DUP4 PUSH1 0x40 MLOAD DUP4 PUSH4 0xFFFFFFFF AND PUSH1 0xE0 SHL DUP2 MSTORE PUSH1 0x4 ADD PUSH2 0xC5A SWAP3 SWAP2 SWAP1 PUSH2 0x3505 JUMP JUMPDEST PUSH1 0x20 PUSH1 0x40 MLOAD DUP1 DUP4 SUB DUP2 PUSH0 DUP8 GAS CALL ISZERO DUP1 ISZERO PUSH2 0xC76 JUMPI RETURNDATASIZE PUSH0 PUSH0 RETURNDATACOPY RETURNDATASIZE PUSH0 REVERT JUMPDEST POP POP POP POP PUSH1 0x40 MLOAD RETURNDATASIZE PUSH1 0x1F NOT PUSH1 0x1F DUP3 ADD AND DUP3 ADD DUP1 PUSH1 0x40 MSTORE POP DUP2 ADD SWAP1 PUSH2 0xC9A SWAP2 SWAP1 PUSH2 0x3561 JUMP JUMPDEST POP JUMPDEST DUP4 PUSH1 0x1 ADD SLOAD PUSH1 0x10 PUSH0 DUP3 DUP3 SLOAD PUSH2 0xCB1 SWAP2 SWAP1 PUSH2 0x34D2 JUMP JUMPDEST SWAP3 POP POP DUP2 SWAP1 SSTORE POP PUSH1 0x12 PUSH0 DUP7 PUSH20 0xFFFFFFFFFFFFFFFFFFFFFFFFFFFFFFFFFFFFFFFF AND PUSH20 0xFFFFFFFFFFFFFFFFFFFFFFFFFFFFFFFFFFFFFFFF AND DUP2 MSTORE PUSH1 0x20 ADD SWAP1 DUP2 MSTORE PUSH1 0x20 ADD PUSH0 KECCAK256 PUSH0 PUSH0 DUP3 ADD PUSH0 SWAP1 SSTORE PUSH1 0x1 DUP3 ADD PUSH0 SWAP1 SSTORE PUSH1 0x2 DUP3 ADD PUSH0 SWAP1 SSTORE POP POP CALLER PUSH20 0xFFFFFFFFFFFFFFFFFFFFFFFFFFFFFFFFFFFFFFFF AND DUP6 PUSH20 0xFFFFFFFFFFFFFFFFFFFFFFFFFFFFFFFFFFFFFFFF AND PUSH32 0x1F0C6615429D1CDAE0DFA233ABF91D3B31CDBDD82C8081389832A61E1072F1EA DUP6 DUP6 PUSH1 0x40 MLOAD PUSH2 0xD6B SWAP3 SWAP2 SWAP1 PUSH2 0x358C JUMP JUMPDEST PUSH1 0x40 MLOAD DUP1 SWAP2 SUB SWAP1 LOG3 POP POP POP POP POP JUMP JUMPDEST PUSH1 0xB SLOAD DUP2 JUMP JUMPDEST PUSH32 0x0 PUSH20 0xFFFFFFFFFFFFFFFFFFFFFFFFFFFFFFFFFFFFFFFF AND ADDRESS PUSH20 0xFFFFFFFFFFFFFFFFFFFFFFFFFFFFFFFFFFFFFFFF AND SUB PUSH2 0xE0E JUMPI PUSH1 0x40 MLOAD PUSH32 0x8C379A000000000000000000000000000000000000000000000000000000000 DUP2 MSTORE PUSH1 0x4 ADD PUSH2 0xE05 SWAP1 PUSH2 0x35FD JUMP JUMPDEST PUSH1 0x40 MLOAD DUP1 SWAP2 SUB SWAP1 REVERT JUMPDEST PUSH32 0x0 PUSH20 0xFFFFFFFFFFFFFFFFFFFFFFFFFFFFFFFFFFFFFFFF AND PUSH2 0xE4D PUSH2 0x2981 JUMP JUMPDEST PUSH20 0xFFFFFFFFFFFFFFFFFFFFFFFFFFFFFFFFFFFFFFFF AND EQ PUSH2 0xEA3 JUMPI PUSH1 0x40 MLOAD PUSH32 0x8C379A000000000000000000000000000000000000000000000000000000000 DUP2 MSTORE PUSH1 0x4 ADD PUSH2 0xE9A SWAP1 PUSH2 0x3665 JUMP JUMPDEST PUSH1 0x40 MLOAD DUP1 SWAP2 SUB SWAP1 REVERT JUMPDEST PUSH2 0xEAC DUP2 PUSH2 0x29B0 JUMP JUMPDEST PUSH2 0xEC5 DUP2 PUSH1 0x40 MLOAD DUP1 PUSH1 0x20 ADD PUSH1 0x40 MSTORE DUP1 PUSH0 DUP2 MSTORE POP PUSH0 PUSH2 0x2A0B JUMP JUMPDEST POP JUMP JUMPDEST PUSH0 DUP2 GT PUSH2 0xF0A JUMPI PUSH1 0x40 MLOAD PUSH32 0x8C379A000000000000000000000000000000000000000000000000000000000 DUP2 MSTORE PUSH1 0x4 ADD PUSH2 0xF01 SWAP1 PUSH2 0x36CD JUMP JUMPDEST PUSH1 0x40 MLOAD DUP1 SWAP2 SUB SWAP1 REVERT JUMPDEST PUSH1 0x2 PUSH0 SWAP1 SLOAD SWAP1 PUSH2 0x100 EXP SWAP1 DIV PUSH20 0xFFFFFFFFFFFFFFFFFFFFFFFFFFFFFFFFFFFFFFFF AND PUSH20 0xFFFFFFFFFFFFFFFFFFFFFFFFFFFFFFFFFFFFFFFF AND PUSH4 0x23B872DD CALLER ADDRESS DUP5 PUSH1 0x40 MLOAD DUP5 PUSH4 0xFFFFFFFF AND PUSH1 0xE0 SHL DUP2 MSTORE PUSH1 0x4 ADD PUSH2 0xF68 SWAP4 SWAP3 SWAP2 SWAP1 PUSH2 0x36EB JUMP JUMPDEST PUSH1 0x20 PUSH1 0x40 MLOAD DUP1 DUP4 SUB DUP2 PUSH0 DUP8 GAS CALL ISZERO DUP1 ISZERO PUSH2 0xF84 JUMPI RETURNDATASIZE PUSH0 PUSH0 RETURNDATACOPY RETURNDATASIZE PUSH0 REVERT JUMPDEST POP POP POP POP PUSH1 0x40 MLOAD RETURNDATASIZE PUSH1 0x1F NOT PUSH1 0x1F DUP3 ADD AND DUP3 ADD DUP1 PUSH1 0x40 MSTORE POP DUP2 ADD SWAP1 PUSH2 0xFA8 SWAP2 SWAP1 PUSH2 0x3561 JUMP JUMPDEST POP DUP1 PUSH1 0x12 PUSH0 CALLER PUSH20 0xFFFFFFFFFFFFFFFFFFFFFFFFFFFFFFFFFFFFFFFF AND PUSH20 0xFFFFFFFFFFFFFFFFFFFFFFFFFFFFFFFFFFFFFFFF AND DUP2 MSTORE PUSH1 0x20 ADD SWAP1 DUP2 MSTORE PUSH1 0x20 ADD PUSH0 KECCAK256 PUSH0 ADD PUSH0 DUP3 DUP3 SLOAD PUSH2 0xFF7 SWAP2 SWAP1 PUSH2 0x3720 JUMP JUMPDEST SWAP3 POP POP DUP2 SWAP1 SSTORE POP POP JUMP JUMPDEST PUSH0 PUSH0 DUP3 GT PUSH2 0x1044 JUMPI PUSH1 0x40 MLOAD PUSH32 0x8C379A000000000000000000000000000000000000000000000000000000000 DUP2 MSTORE PUSH1 0x4 ADD PUSH2 0x103B SWAP1 PUSH2 0x36CD JUMP JUMPDEST PUSH1 0x40 MLOAD DUP1 SWAP2 SUB SWAP1 REVERT JUMPDEST PUSH2 0x104C PUSH2 0x1D12 JUMP JUMPDEST PUSH0 PUSH1 0x12 PUSH0 CALLER PUSH20 0xFFFFFFFFFFFFFFFFFFFFFFFFFFFFFFFFFFFFFFFF AND PUSH20 0xFFFFFFFFFFFFFFFFFFFFFFFFFFFFFFFFFFFFFFFF AND DUP2 MSTORE PUSH1 0x20 ADD SWAP1 DUP2 MSTORE PUSH1 0x20 ADD PUSH0 KECCAK256 SWAP1 POP PUSH0 PUSH2 0x1096 CALLER PUSH2 0x27B0 JUMP JUMPDEST SWAP1 POP PUSH0 DUP2 GT PUSH2 0x10DA JUMPI PUSH1 0x40 MLOAD PUSH32 0x8C379A000000000000000000000000000000000000000000000000000000000 DUP2 MSTORE PUSH1 0x4 ADD PUSH2 0x10D1 SWAP1 PUSH2 0x33E9 JUMP JUMPDEST PUSH1 0x40 MLOAD DUP1 SWAP2 SUB SWAP1 REVERT JUMPDEST PUSH0 DUP2 DUP6 GT PUSH2 0x10E8 JUMPI DUP5 PUSH2 0x10EA JUMP JUMPDEST DUP2 JUMPDEST SWAP1 POP PUSH1 0x1 PUSH0 SWAP1 SLOAD SWAP1 PUSH2 0x100 EXP SWAP1 DIV PUSH20 0xFFFFFFFFFFFFFFFFFFFFFFFFFFFFFFFFFFFFFFFF AND PUSH20 0xFFFFFFFFFFFFFFFFFFFFFFFFFFFFFFFFFFFFFFFF AND PUSH4 0x23B872DD CALLER ADDRESS DUP5 PUSH1 0x40 MLOAD DUP5 PUSH4 0xFFFFFFFF AND PUSH1 0xE0 SHL DUP2 MSTORE PUSH1 0x4 ADD PUSH2 0x114A SWAP4 SWAP3 SWAP2 SWAP1 PUSH2 0x36EB JUMP JUMPDEST PUSH1 0x20 PUSH1 0x40 MLOAD DUP1 DUP4 SUB DUP2 PUSH0 DUP8 GAS CALL ISZERO DUP1 ISZERO PUSH2 0x1166 JUMPI RETURNDATASIZE PUSH0 PUSH0 RETURNDATACOPY RETURNDATASIZE PUSH0 REVERT JUMPDEST POP POP POP POP PUSH1 0x40 MLOAD RETURNDATASIZE PUSH1 0x1F NOT PUSH1 0x1F DUP3 ADD AND DUP3 ADD DUP1 PUSH1 0x40 MSTORE POP DUP2 ADD SWAP1 PUSH2 0x118A SWAP2 SWAP1 PUSH2 0x3561 JUMP JUMPDEST POP PUSH0 DUP2 DUP5 PUSH1 0x2 ADD SLOAD GT PUSH2 0x11A1 JUMPI DUP4 PUSH1 0x2 ADD SLOAD PUSH2 0x11A3 JUMP JUMPDEST DUP2 JUMPDEST SWAP1 POP DUP1 DUP5 PUSH1 0x2 ADD PUSH0 DUP3 DUP3 SLOAD PUSH2 0x11B8 SWAP2 SWAP1 PUSH2 0x34D2 JUMP JUMPDEST SWAP3 POP POP DUP2 SWAP1 SSTORE POP PUSH2 0x2710 PUSH1 0xB SLOAD DUP3 DUP5 PUSH2 0x11D1 SWAP2 SWAP1 PUSH2 0x34D2 JUMP JUMPDEST PUSH2 0x11DB SWAP2 SWAP1 PUSH2 0x3434 JUMP JUMPDEST PUSH2 0x11E5 SWAP2 SWAP1 PUSH2 0x34A2 JUMP JUMPDEST PUSH1 0x11 PUSH0 DUP3 DUP3 SLOAD PUSH2 0x11F5 SWAP2 SWAP1 PUSH2 0x3720 JUMP JUMPDEST SWAP3 POP POP DUP2 SWAP1 SSTORE POP PUSH0 DUP4 DUP4 EQ PUSH2 0x122A JUMPI PUSH1 0xE SLOAD PUSH8 0xDE0B6B3A7640000 DUP5 PUSH2 0x121B SWAP2 SWAP1 PUSH2 0x3434 JUMP JUMPDEST PUSH2 0x1225 SWAP2 SWAP1 PUSH2 0x34A2 JUMP JUMPDEST PUSH2 0x1230 JUMP JUMPDEST DUP5 PUSH1 0x1 ADD SLOAD JUMPDEST SWAP1 POP DUP5 PUSH1 0x1 ADD SLOAD DUP2 GT ISZERO PUSH2 0x1246 JUMPI DUP5 PUSH1 0x1 ADD SLOAD SWAP1 POP JUMPDEST DUP1 DUP6 PUSH1 0x1 ADD PUSH0 DUP3 DUP3 SLOAD PUSH2 0x1259 SWAP2 SWAP1 PUSH2 0x34D2 JUMP JUMPDEST SWAP3 POP POP DUP2 SWAP1 SSTORE POP DUP1 PUSH1 0x10 PUSH0 DUP3 DUP3 SLOAD PUSH2 0x1271 SWAP2 SWAP1 PUSH2 0x34D2 JUMP JUMPDEST SWAP3 POP POP DUP2 SWAP1 SSTORE POP PUSH2 0x1281 CALLER PUSH2 0x27B0 JUMP JUMPDEST SWAP6 POP POP POP POP POP POP SWAP2 SWAP1 POP JUMP JUMPDEST PUSH1 0x6 PUSH0 SWAP1 SLOAD SWAP1 PUSH2 0x100 EXP SWAP1 DIV PUSH20 0xFFFFFFFFFFFFFFFFFFFFFFFFFFFFFFFFFFFFFFFF AND PUSH20 0xFFFFFFFFFFFFFFFFFFFFFFFFFFFFFFFFFFFFFFFF AND CALLER PUSH20 0xFFFFFFFFFFFFFFFFFFFFFFFFFFFFFFFFFFFFFFFF AND EQ PUSH2 0x131C JUMPI PUSH1 0x40 MLOAD PUSH32 0x8C379A000000000000000000000000000000000000000000000000000000000 DUP2 MSTORE PUSH1 0x4 ADD PUSH2 0x1313 SWAP1 PUSH2 0x379D JUMP JUMPDEST PUSH1 0x40 MLOAD DUP1 SWAP2 SUB SWAP1 REVERT JUMPDEST PUSH2 0x1324 PUSH2 0x1B6E JUMP JUMPDEST DUP2 GT ISZERO PUSH2 0x1366 JUMPI PUSH1 0x40 MLOAD PUSH32 0x8C379A000000000000000000000000000000000000000000000000000000000 DUP2 MSTORE PUSH1 0x4 ADD PUSH2 0x135D SWAP1 PUSH2 0x3805 JUMP JUMPDEST PUSH1 0x40 MLOAD DUP1 SWAP2 SUB SWAP1 REVERT JUMPDEST PUSH1 0x1 PUSH0 SWAP1 SLOAD SWAP1 PUSH2 0x100 EXP SWAP1 DIV PUSH20 0xFFFFFFFFFFFFFFFFFFFFFFFFFFFFFFFFFFFFFFFF AND PUSH20 0xFFFFFFFFFFFFFFFFFFFFFFFFFFFFFFFFFFFFFFFF AND PUSH4 0xA9059CBB PUSH1 0x6 PUSH0 SWAP1 SLOAD SWAP1 PUSH2 0x100 EXP SWAP1 DIV PUSH20 0xFFFFFFFFFFFFFFFFFFFFFFFFFFFFFFFFFFFFFFFF AND DUP4 PUSH1 0x40 MLOAD DUP4 PUSH4 0xFFFFFFFF AND PUSH1 0xE0 SHL DUP2 MSTORE PUSH1 0x4 ADD PUSH2 0x13E3 SWAP3 SWAP2 SWAP1 PUSH2 0x3505 JUMP JUMPDEST PUSH1 0x20 PUSH1 0x40 MLOAD DUP1 DUP4 SUB DUP2 PUSH0 DUP8 GAS CALL ISZERO DUP1 ISZERO PUSH2 0x13FF JUMPI RETURNDATASIZE PUSH0 PUSH0 RETURNDATACOPY RETURNDATASIZE PUSH0 REVERT JUMPDEST POP POP POP POP PUSH1 0x40 MLOAD RETURNDATASIZE PUSH1 0x1F NOT PUSH1 0x1F DUP3 ADD AND DUP3 ADD DUP1 PUSH1 0x40 MSTORE POP DUP2 ADD SWAP1 PUSH2 0x1423 SWAP2 SWAP1 PUSH2 0x3561 JUMP JUMPDEST POP POP JUMP JUMPDEST PUSH1 0x8 PUSH0 SWAP1 SLOAD SWAP1 PUSH2 0x100 EXP SWAP1 DIV PUSH20 0xFFFFFFFFFFFFFFFFFFFFFFFFFFFFFFFFFFFFFFFF AND DUP2 JUMP JUMPDEST PUSH1 0x4 DUP1 SLOAD PUSH2 0x1459 SWAP1 PUSH2 0x3850 JUMP JUMPDEST DUP1 PUSH1 0x1F ADD PUSH1 0x20 DUP1 SWAP2 DIV MUL PUSH1 0x20 ADD PUSH1 0x40 MLOAD SWAP1 DUP2 ADD PUSH1 0x40 MSTORE DUP1 SWAP3 SWAP2 SWAP1 DUP2 DUP2 MSTORE PUSH1 0x20 ADD DUP3 DUP1 SLOAD PUSH2 0x1485 SWAP1 PUSH2 0x3850 JUMP JUMPDEST DUP1 ISZERO PUSH2 0x14D0 JUMPI DUP1 PUSH1 0x1F LT PUSH2 0x14A7 JUMPI PUSH2 0x100 DUP1 DUP4 SLOAD DIV MUL DUP4 MSTORE SWAP2 PUSH1 0x20 ADD SWAP2 PUSH2 0x14D0 JUMP JUMPDEST DUP3 ADD SWAP2 SWAP1 PUSH0 MSTORE PUSH1 0x20 PUSH0 KECCAK256 SWAP1 JUMPDEST DUP2 SLOAD DUP2 MSTORE SWAP1 PUSH1 0x1 ADD SWAP1 PUSH1 0x20 ADD DUP1 DUP4 GT PUSH2 0x14B3 JUMPI DUP3 SWAP1 SUB PUSH1 0x1F AND DUP3 ADD SWAP2 JUMPDEST POP POP POP POP POP DUP2 JUMP JUMPDEST PUSH1 0x6 PUSH0 SWAP1 SLOAD SWAP1 PUSH2 0x100 EXP SWAP1 DIV PUSH20 0xFFFFFFFFFFFFFFFFFFFFFFFFFFFFFFFFFFFFFFFF AND PUSH20 0xFFFFFFFFFFFFFFFFFFFFFFFFFFFFFFFFFFFFFFFF AND CALLER PUSH20 0xFFFFFFFFFFFFFFFFFFFFFFFFFFFFFFFFFFFFFFFF AND EQ PUSH2 0x1567 JUMPI PUSH1 0x40 MLOAD PUSH32 0x8C379A000000000000000000000000000000000000000000000000000000000 DUP2 MSTORE PUSH1 0x4 ADD PUSH2 0x155E SWAP1 PUSH2 0x379D JUMP JUMPDEST PUSH1 0x40 MLOAD DUP1 SWAP2 SUB SWAP1 REVERT JUMPDEST POP JUMP JUMPDEST PUSH32 0x0 PUSH20 0xFFFFFFFFFFFFFFFFFFFFFFFFFFFFFFFFFFFFFFFF AND ADDRESS PUSH20 0xFFFFFFFFFFFFFFFFFFFFFFFFFFFFFFFFFFFFFFFF AND SUB PUSH2 0x15F8 JUMPI PUSH1 0x40 MLOAD PUSH32 0x8C379A000000000000000000000000000000000000000000000000000000000 DUP2 MSTORE PUSH1 0x4 ADD PUSH2 0x15EF SWAP1 PUSH2 0x35FD JUMP JUMPDEST PUSH1 0x40 MLOAD DUP1 SWAP2 SUB SWAP1 REVERT JUMPDEST PUSH32 0x0 PUSH20 0xFFFFFFFFFFFFFFFFFFFFFFFFFFFFFFFFFFFFFFFF AND PUSH2 0x1637 PUSH2 0x2981 JUMP JUMPDEST PUSH20 0xFFFFFFFFFFFFFFFFFFFFFFFFFFFFFFFFFFFFFFFF AND EQ PUSH2 0x168D JUMPI PUSH1 0x40 MLOAD PUSH32 0x8C379A000000000000000000000000000000000000000000000000000000000 DUP2 MSTORE PUSH1 0x4 ADD PUSH2 0x1684 SWAP1 PUSH2 0x3665 JUMP JUMPDEST PUSH1 0x40 MLOAD DUP1 SWAP2 SUB SWAP1 REVERT JUMPDEST PUSH2 0x1696 DUP4 PUSH2 0x29B0 JUMP JUMPDEST PUSH2 0x16E5 DUP4 DUP4 DUP4 DUP1 DUP1 PUSH1 0x1F ADD PUSH1 0x20 DUP1 SWAP2 DIV MUL PUSH1 0x20 ADD PUSH1 0x40 MLOAD SWAP1 DUP2 ADD PUSH1 0x40 MSTORE DUP1 SWAP4 SWAP3 SWAP2 SWAP1 DUP2 DUP2 MSTORE PUSH1 0x20 ADD DUP4 DUP4 DUP1 DUP3 DUP5 CALLDATACOPY PUSH0 DUP2 DUP5 ADD MSTORE PUSH1 0x1F NOT PUSH1 0x1F DUP3 ADD AND SWAP1 POP DUP1 DUP4 ADD SWAP3 POP POP POP POP POP POP POP PUSH1 0x1 PUSH2 0x2A0B JUMP JUMPDEST POP POP POP JUMP JUMPDEST PUSH0 PUSH32 0x0 PUSH20 0xFFFFFFFFFFFFFFFFFFFFFFFFFFFFFFFFFFFFFFFF AND ADDRESS PUSH20 0xFFFFFFFFFFFFFFFFFFFFFFFFFFFFFFFFFFFFFFFF AND EQ PUSH2 0x1779 JUMPI PUSH1 0x40 MLOAD PUSH32 0x8C379A000000000000000000000000000000000000000000000000000000000 DUP2 MSTORE PUSH1 0x4 ADD PUSH2 0x1770 SWAP1 PUSH2 0x38CA JUMP JUMPDEST PUSH1 0x40 MLOAD DUP1 SWAP2 SUB SWAP1 REVERT JUMPDEST PUSH32 0x360894A13BA1A3210667C828492DB98DCA3E2076CC3735A920A3CA505D382BBC PUSH0 SHL SWAP1 POP SWAP1 JUMP JUMPDEST PUSH1 0x12 PUSH1 0x20 MSTORE DUP1 PUSH0 MSTORE PUSH1 0x40 PUSH0 KECCAK256 PUSH0 SWAP2 POP SWAP1 POP DUP1 PUSH0 ADD SLOAD SWAP1 DUP1 PUSH1 0x1 ADD SLOAD SWAP1 DUP1 PUSH1 0x2 ADD SLOAD SWAP1 POP DUP4 JUMP JUMPDEST PUSH0 DUP2 GT PUSH2 0x1809 JUMPI PUSH1 0x40 MLOAD PUSH32 0x8C379A000000000000000000000000000000000000000000000000000000000 DUP2 MSTORE PUSH1 0x4 ADD PUSH2 0x1800 SWAP1 PUSH2 0x36CD JUMP JUMPDEST PUSH1 0x40 MLOAD DUP1 SWAP2 SUB SWAP1 REVERT JUMPDEST PUSH2 0x1811 PUSH2 0x1D12 JUMP JUMPDEST PUSH0 PUSH1 0x12 PUSH0 CALLER PUSH20 0xFFFFFFFFFFFFFFFFFFFFFFFFFFFFFFFFFFFFFFFF AND PUSH20 0xFFFFFFFFFFFFFFFFFFFFFFFFFFFFFFFFFFFFFFFF AND DUP2 MSTORE PUSH1 0x20 ADD SWAP1 DUP2 MSTORE PUSH1 0x20 ADD PUSH0 KECCAK256 SWAP1 POP DUP1 PUSH0 ADD SLOAD DUP3 GT ISZERO PUSH2 0x1897 JUMPI PUSH1 0x40 MLOAD PUSH32 0x8C379A000000000000000000000000000000000000000000000000000000000 DUP2 MSTORE PUSH1 0x4 ADD PUSH2 0x188E SWAP1 PUSH2 0x3932 JUMP JUMPDEST PUSH1 0x40 MLOAD DUP1 SWAP2 SUB SWAP1 REVERT JUMPDEST DUP2 DUP2 PUSH0 ADD PUSH0 DUP3 DUP3 SLOAD PUSH2 0x18A9 SWAP2 SWAP1 PUSH2 0x34D2 JUMP JUMPDEST SWAP3 POP POP DUP2 SWAP1 SSTORE POP PUSH2 0x18B9 CALLER PUSH2 0x296C JUMP JUMPDEST PUSH2 0x18F8 JUMPI PUSH1 0x40 MLOAD PUSH32 0x8C379A000000000000000000000000000000000000000000000000000000000 DUP2 MSTORE PUSH1 0x4 ADD PUSH2 0x18EF SWAP1 PUSH2 0x399A JUMP JUMPDEST PUSH1 0x40 MLOAD DUP1 SWAP2 SUB SWAP1 REVERT JUMPDEST PUSH1 0x2 PUSH0 SWAP1 SLOAD SWAP1 PUSH2 0x100 EXP SWAP1 DIV PUSH20 0xFFFFFFFFFFFFFFFFFFFFFFFFFFFFFFFFFFFFFFFF AND PUSH20 0xFFFFFFFFFFFFFFFFFFFFFFFFFFFFFFFFFFFFFFFF AND PUSH4 0xA9059CBB CALLER DUP5 PUSH1 0x40 MLOAD DUP4 PUSH4 0xFFFFFFFF AND PUSH1 0xE0 SHL DUP2 MSTORE PUSH1 0x4 ADD PUSH2 0x1954 SWAP3 SWAP2 SWAP1 PUSH2 0x3505 JUMP JUMPDEST PUSH1 0x20 PUSH1 0x40 MLOAD DUP1 DUP4 SUB DUP2 PUSH0 DUP8 GAS CALL ISZERO DUP1 ISZERO PUSH2 0x1970 JUMPI RETURNDATASIZE PUSH0 PUSH0 RETURNDATACOPY RETURNDATASIZE PUSH0 REVERT JUMPDEST POP POP POP POP PUSH1 0x40 MLOAD RETURNDATASIZE PUSH1 0x1F NOT PUSH1 0x1F DUP3 ADD AND DUP3 ADD DUP1 PUSH1 0x40 MSTORE POP DUP2 ADD SWAP1 PUSH2 0x1994 SWAP2 SWAP1 PUSH2 0x3561 JUMP JUMPDEST POP POP POP JUMP JUMPDEST PUSH1 0x7 PUSH0 SWAP1 SLOAD SWAP1 PUSH2 0x100 EXP SWAP1 DIV PUSH20 0xFFFFFFFFFFFFFFFFFFFFFFFFFFFFFFFFFFFFFFFF AND DUP2 JUMP JUMPDEST PUSH0 PUSH0 PUSH1 0x12 PUSH0 DUP5 PUSH20 0xFFFFFFFFFFFFFFFFFFFFFFFFFFFFFFFFFFFFFFFF AND PUSH20 0xFFFFFFFFFFFFFFFFFFFFFFFFFFFFFFFFFFFFFFFF AND DUP2 MSTORE PUSH1 0x20 ADD SWAP1 DUP2 MSTORE PUSH1 0x20 ADD PUSH0 KECCAK256 SWAP1 POP PUSH0 PUSH2 0x1A09 DUP5 PUSH2 0x27B0 JUMP JUMPDEST SWAP1 POP PUSH0 DUP2 SUB PUSH2 0x1A1C JUMPI PUSH0 SWAP3 POP POP POP PUSH2 0x1B02 JUMP JUMPDEST PUSH0 DUP3 PUSH0 ADD SLOAD SUB PUSH2 0x1A50 JUMPI PUSH32 0xFFFFFFFFFFFFFFFFFFFFFFFFFFFFFFFFFFFFFFFFFFFFFFFFFFFFFFFFFFFFFFFF SWAP3 POP POP POP PUSH2 0x1B02 JUMP JUMPDEST PUSH0 PUSH2 0x1A7C DUP3 PUSH1 0x1 PUSH0 SWAP1 SLOAD SWAP1 PUSH2 0x100 EXP SWAP1 DIV PUSH20 0xFFFFFFFFFFFFFFFFFFFFFFFFFFFFFFFFFFFFFFFF AND PUSH2 0x2B48 JUMP JUMPDEST SWAP1 POP PUSH0 PUSH2 0x1AAD DUP5 PUSH0 ADD SLOAD PUSH1 0x2 PUSH0 SWAP1 SLOAD SWAP1 PUSH2 0x100 EXP SWAP1 DIV PUSH20 0xFFFFFFFFFFFFFFFFFFFFFFFFFFFFFFFFFFFFFFFF AND PUSH2 0x2B48 JUMP JUMPDEST SWAP1 POP PUSH0 DUP2 SUB PUSH2 0x1AE2 JUMPI PUSH32 0xFFFFFFFFFFFFFFFFFFFFFFFFFFFFFFFFFFFFFFFFFFFFFFFFFFFFFFFFFFFFFFFF SWAP5 POP POP POP POP POP PUSH2 0x1B02 JUMP JUMPDEST DUP1 PUSH2 0x2710 DUP4 PUSH2 0x1AF1 SWAP2 SWAP1 PUSH2 0x3434 JUMP JUMPDEST PUSH2 0x1AFB SWAP2 SWAP1 PUSH2 0x34A2 JUMP JUMPDEST SWAP5 POP POP POP POP POP JUMPDEST SWAP2 SWAP1 POP JUMP JUMPDEST PUSH0 PUSH0 PUSH2 0x1B12 DUP4 PUSH2 0x19BE JUMP JUMPDEST SWAP1 POP PUSH0 DUP2 SUB PUSH2 0x1B44 JUMPI PUSH32 0xFFFFFFFFFFFFFFFFFFFFFFFFFFFFFFFFFFFFFFFFFFFFFFFFFFFFFFFFFFFFFFFF SWAP2 POP POP PUSH2 0x1B69 JUMP JUMPDEST DUP1 PUSH8 0xDE0B6B3A7640000 PUSH1 0x9 SLOAD PUSH2 0x1B5B SWAP2 SWAP1 PUSH2 0x3434 JUMP JUMPDEST PUSH2 0x1B65 SWAP2 SWAP1 PUSH2 0x34A2 JUMP JUMPDEST SWAP2 POP POP JUMPDEST SWAP2 SWAP1 POP JUMP JUMPDEST PUSH0 PUSH0 PUSH1 0x1 PUSH0 SWAP1 SLOAD SWAP1 PUSH2 0x100 EXP SWAP1 DIV PUSH20 0xFFFFFFFFFFFFFFFFFFFFFFFFFFFFFFFFFFFFFFFF AND PUSH20 0xFFFFFFFFFFFFFFFFFFFFFFFFFFFFFFFFFFFFFFFF AND PUSH4 0x70A08231 ADDRESS PUSH1 0x40 MLOAD DUP3 PUSH4 0xFFFFFFFF AND PUSH1 0xE0 SHL DUP2 MSTORE PUSH1 0x4 ADD PUSH2 0x1BCA SWAP2 SWAP1 PUSH2 0x2F6D JUMP JUMPDEST PUSH1 0x20 PUSH1 0x40 MLOAD DUP1 DUP4 SUB DUP2 DUP7 GAS STATICCALL ISZERO DUP1 ISZERO PUSH2 0x1BE5 JUMPI RETURNDATASIZE PUSH0 PUSH0 RETURNDATACOPY RETURNDATASIZE PUSH0 REVERT JUMPDEST POP POP POP POP PUSH1 0x40 MLOAD RETURNDATASIZE PUSH1 0x1F NOT PUSH1 0x1F DUP3 ADD AND DUP3 ADD DUP1 PUSH1 0x40 MSTORE POP DUP2 ADD SWAP1 PUSH2 0x1C09 SWAP2 SWAP1 PUSH2 0x39CC JUMP JUMPDEST SWAP1 POP PUSH1 0x11 SLOAD DUP2 GT ISZERO PUSH2 0x1C28 JUMPI PUSH1 0x11 SLOAD DUP2 PUSH2 0x1C23 SWAP2 SWAP1 PUSH2 0x34D2 JUMP JUMPDEST PUSH2 0x1C2A JUMP JUMPDEST PUSH0 JUMPDEST SWAP2 POP POP SWAP1 JUMP JUMPDEST PUSH1 0x5 DUP1 SLOAD PUSH2 0x1C3D SWAP1 PUSH2 0x3850 JUMP JUMPDEST DUP1 PUSH1 0x1F ADD PUSH1 0x20 DUP1 SWAP2 DIV MUL PUSH1 0x20 ADD PUSH1 0x40 MLOAD SWAP1 DUP2 ADD PUSH1 0x40 MSTORE DUP1 SWAP3 SWAP2 SWAP1 DUP2 DUP2 MSTORE PUSH1 0x20 ADD DUP3 DUP1 SLOAD PUSH2 0x1C69 SWAP1 PUSH2 0x3850 JUMP JUMPDEST DUP1 ISZERO PUSH2 0x1CB4 JUMPI DUP1 PUSH1 0x1F LT PUSH2 0x1C8B JUMPI PUSH2 0x100 DUP1 DUP4 SLOAD DIV MUL DUP4 MSTORE SWAP2 PUSH1 0x20 ADD SWAP2 PUSH2 0x1CB4 JUMP JUMPDEST DUP3 ADD SWAP2 SWAP1 PUSH0 MSTORE PUSH1 0x20 PUSH0 KECCAK256 SWAP1 JUMPDEST DUP2 SLOAD DUP2 MSTORE SWAP1 PUSH1 0x1 ADD SWAP1 PUSH1 0x20 ADD DUP1 DUP4 GT PUSH2 0x1C97 JUMPI DUP3 SWAP1 SUB PUSH1 0x1F AND DUP3 ADD SWAP2 JUMPDEST POP POP POP POP POP DUP2 JUMP JUMPDEST PUSH1 0xC SLOAD DUP2 JUMP JUMPDEST PUSH1 0x3 PUSH0 SWAP1 SLOAD SWAP1 PUSH2 0x100 EXP SWAP1 DIV PUSH20 0xFFFFFFFFFFFFFFFFFFFFFFFFFFFFFFFFFFFFFFFF AND DUP2 JUMP JUMPDEST PUSH0 PUSH1 0x2 SWAP1 SLOAD SWAP1 PUSH2 0x100 EXP SWAP1 DIV PUSH20 0xFFFFFFFFFFFFFFFFFFFFFFFFFFFFFFFFFFFFFFFF AND DUP2 JUMP JUMPDEST PUSH1 0xD SLOAD DUP2 JUMP JUMPDEST PUSH1 0xF SLOAD NUMBER SUB ISZERO PUSH2 0x1D98 JUMPI PUSH0 PUSH1 0x10 SLOAD GT ISZERO PUSH2 0x1D90 JUMPI PUSH0 PUSH1 0xF SLOAD NUMBER PUSH2 0x1D35 SWAP2 SWAP1 PUSH2 0x34D2 JUMP JUMPDEST SWAP1 POP PUSH0 PUSH1 0xD SLOAD DUP3 PUSH1 0xC SLOAD PUSH2 0x1D49 SWAP2 SWAP1 PUSH2 0x3434 JUMP JUMPDEST PUSH2 0x1D53 SWAP2 SWAP1 PUSH2 0x34A2 JUMP JUMPDEST SWAP1 POP PUSH8 0xDE0B6B3A7640000 DUP2 PUSH1 0xE SLOAD PUSH2 0x1D6C SWAP2 SWAP1 PUSH2 0x3434 JUMP JUMPDEST PUSH2 0x1D76 SWAP2 SWAP1 PUSH2 0x34A2 JUMP JUMPDEST PUSH1 0xE PUSH0 DUP3 DUP3 SLOAD PUSH2 0x1D86 SWAP2 SWAP1 PUSH2 0x3720 JUMP JUMPDEST SWAP3 POP POP DUP2 SWAP1 SSTORE POP POP POP JUMPDEST NUMBER PUSH1 0xF DUP2 SWAP1 SSTORE POP JUMPDEST JUMP JUMPDEST PUSH1 0xE SLOAD DUP2 JUMP JUMPDEST PUSH0 PUSH0 SWAP1 SLOAD SWAP1 PUSH2 0x100 EXP SWAP1 DIV PUSH1 0xFF AND ISZERO DUP1 PUSH2 0x1DC5 JUMPI POP PUSH0 PUSH1 0x1 SWAP1 SLOAD SWAP1 PUSH2 0x100 EXP SWAP1 DIV PUSH1 0xFF AND JUMPDEST PUSH2 0x1E04 JUMPI PUSH1 0x40 MLOAD PUSH32 0x8C379A000000000000000000000000000000000000000000000000000000000 DUP2 MSTORE PUSH1 0x4 ADD PUSH2 0x1DFB SWAP1 PUSH2 0x3A41 JUMP JUMPDEST PUSH1 0x40 MLOAD DUP1 SWAP2 SUB SWAP1 REVERT JUMPDEST PUSH0 PUSH0 PUSH1 0x1 SWAP1 SLOAD SWAP1 PUSH2 0x100 EXP SWAP1 DIV PUSH1 0xFF AND ISZERO SWAP1 POP DUP1 ISZERO PUSH2 0x1E51 JUMPI PUSH1 0x1 PUSH0 PUSH1 0x1 PUSH2 0x100 EXP DUP2 SLOAD DUP2 PUSH1 0xFF MUL NOT AND SWAP1 DUP4 ISZERO ISZERO MUL OR SWAP1 SSTORE POP PUSH1 0x1 PUSH0 PUSH0 PUSH2 0x100 EXP DUP2 SLOAD DUP2 PUSH1 0xFF MUL NOT AND SWAP1 DUP4 ISZERO ISZERO MUL OR SWAP1 SSTORE POP JUMPDEST PUSH0 PUSH20 0xFFFFFFFFFFFFFFFFFFFFFFFFFFFFFFFFFFFFFFFF AND DUP7 PUSH1 0x20 ADD PUSH1 0x20 DUP2 ADD SWAP1 PUSH2 0x1E7B SWAP2 SWAP1 PUSH2 0x2EDE JUMP JUMPDEST PUSH20 0xFFFFFFFFFFFFFFFFFFFFFFFFFFFFFFFFFFFFFFFF AND SUB PUSH2 0x1ED1 JUMPI PUSH1 0x40 MLOAD PUSH32 0x8C379A000000000000000000000000000000000000000000000000000000000 DUP2 MSTORE PUSH1 0x4 ADD PUSH2 0x1EC8 SWAP1 PUSH2 0x3AA9 JUMP JUMPDEST PUSH1 0x40 MLOAD DUP1 SWAP2 SUB SWAP1 REVERT JUMPDEST PUSH0 PUSH20 0xFFFFFFFFFFFFFFFFFFFFFFFFFFFFFFFFFFFFFFFF AND DUP7 PUSH1 0x40 ADD PUSH1 0x20 DUP2 ADD SWAP1 PUSH2 0x1EFB SWAP2 SWAP1 PUSH2 0x2EDE JUMP JUMPDEST PUSH20 0xFFFFFFFFFFFFFFFFFFFFFFFFFFFFFFFFFFFFFFFF AND SUB PUSH2 0x1F51 JUMPI PUSH1 0x40 MLOAD PUSH32 0x8C379A000000000000000000000000000000000000000000000000000000000 DUP2 MSTORE PUSH1 0x4 ADD PUSH2 0x1F48 SWAP1 PUSH2 0x3B11 JUMP JUMPDEST PUSH1 0x40 MLOAD DUP1 SWAP2 SUB SWAP1 REVERT JUMPDEST PUSH0 PUSH20 0xFFFFFFFFFFFFFFFFFFFFFFFFFFFFFFFFFFFFFFFF AND DUP7 PUSH1 0x60 ADD PUSH1 0x20 DUP2 ADD SWAP1 PUSH2 0x1F7B SWAP2 SWAP1 PUSH2 0x2EDE JUMP JUMPDEST PUSH20 0xFFFFFFFFFFFFFFFFFFFFFFFFFFFFFFFFFFFFFFFF AND SUB PUSH2 0x1FD1 JUMPI PUSH1 0x40 MLOAD PUSH32 0x8C379A000000000000000000000000000000000000000000000000000000000 DUP2 MSTORE PUSH1 0x4 ADD PUSH2 0x1FC8 SWAP1 PUSH2 0x3B79 JUMP JUMPDEST PUSH1 0x40 MLOAD DUP1 SWAP2 SUB SWAP1 REVERT JUMPDEST PUSH0 PUSH20 0xFFFFFFFFFFFFFFFFFFFFFFFFFFFFFFFFFFFFFFFF AND DUP7 PUSH1 0x80 ADD PUSH1 0x20 DUP2 ADD SWAP1 PUSH2 0x1FFB SWAP2 SWAP1 PUSH2 0x2EDE JUMP JUMPDEST PUSH20 0xFFFFFFFFFFFFFFFFFFFFFFFFFFFFFFFFFFFFFFFF AND SUB PUSH2 0x2051 JUMPI PUSH1 0x40 MLOAD PUSH32 0x8C379A000000000000000000000000000000000000000000000000000000000 DUP2 MSTORE PUSH1 0x4 ADD PUSH2 0x2048 SWAP1 PUSH2 0x3BE1 JUMP JUMPDEST PUSH1 0x40 MLOAD DUP1 SWAP2 SUB SWAP1 REVERT JUMPDEST PUSH0 PUSH20 0xFFFFFFFFFFFFFFFFFFFFFFFFFFFFFFFFFFFFFFFF AND DUP7 PUSH1 0xA0 ADD PUSH1 0x20 DUP2 ADD SWAP1 PUSH2 0x207B SWAP2 SWAP1 PUSH2 0x2EDE JUMP JUMPDEST PUSH20 0xFFFFFFFFFFFFFFFFFFFFFFFFFFFFFFFFFFFFFFFF AND SUB PUSH2 0x20D1 JUMPI PUSH1 0x40 MLOAD PUSH32 0x8C379A000000000000000000000000000000000000000000000000000000000 DUP2 MSTORE PUSH1 0x4 ADD PUSH2 0x20C8 SWAP1 PUSH2 0x3C49 JUMP JUMPDEST PUSH1 0x40 MLOAD DUP1 SWAP2 SUB SWAP1 REVERT JUMPDEST PUSH0 DUP7 PUSH2 0x120 ADD CALLDATALOAD GT PUSH2 0x2118 JUMPI PUSH1 0x40 MLOAD PUSH32 0x8C379A000000000000000000000000000000000000000000000000000000000 DUP2 MSTORE PUSH1 0x4 ADD PUSH2 0x210F SWAP1 PUSH2 0x3CB1 JUMP JUMPDEST PUSH1 0x40 MLOAD DUP1 SWAP2 SUB SWAP1 REVERT JUMPDEST PUSH2 0x2710 DUP7 PUSH1 0xE0 ADD CALLDATALOAD GT ISZERO PUSH2 0x2161 JUMPI PUSH1 0x40 MLOAD PUSH32 0x8C379A000000000000000000000000000000000000000000000000000000000 DUP2 MSTORE PUSH1 0x4 ADD PUSH2 0x2158 SWAP1 PUSH2 0x3D19 JUMP JUMPDEST PUSH1 0x40 MLOAD DUP1 SWAP2 SUB SWAP1 REVERT JUMPDEST PUSH2 0x2710 DUP7 PUSH2 0x140 ADD CALLDATALOAD GT ISZERO PUSH2 0x21AB JUMPI PUSH1 0x40 MLOAD PUSH32 0x8C379A000000000000000000000000000000000000000000000000000000000 DUP2 MSTORE PUSH1 0x4 ADD PUSH2 0x21A2 SWAP1 PUSH2 0x3D81 JUMP JUMPDEST PUSH1 0x40 MLOAD DUP1 SWAP2 SUB SWAP1 REVERT JUMPDEST PUSH2 0x21C5 DUP7 PUSH0 ADD PUSH1 0x20 DUP2 ADD SWAP1 PUSH2 0x21C0 SWAP2 SWAP1 PUSH2 0x2EDE JUMP JUMPDEST PUSH2 0x2C7D JUMP JUMPDEST DUP6 PUSH1 0x20 ADD PUSH1 0x20 DUP2 ADD SWAP1 PUSH2 0x21D8 SWAP2 SWAP1 PUSH2 0x2EDE JUMP JUMPDEST PUSH1 0x6 PUSH0 PUSH2 0x100 EXP DUP2 SLOAD DUP2 PUSH20 0xFFFFFFFFFFFFFFFFFFFFFFFFFFFFFFFFFFFFFFFF MUL NOT AND SWAP1 DUP4 PUSH20 0xFFFFFFFFFFFFFFFFFFFFFFFFFFFFFFFFFFFFFFFF AND MUL OR SWAP1 SSTORE POP DUP6 PUSH1 0x40 ADD PUSH1 0x20 DUP2 ADD SWAP1 PUSH2 0x222A SWAP2 SWAP1 PUSH2 0x2EDE JUMP JUMPDEST PUSH1 0x1 PUSH0 PUSH2 0x100 EXP DUP2 SLOAD DUP2 PUSH20 0xFFFFFFFFFFFFFFFFFFFFFFFFFFFFFFFFFFFFFFFF MUL NOT AND SWAP1 DUP4 PUSH20 0xFFFFFFFFFFFFFFFFFFFFFFFFFFFFFFFFFFFFFFFF AND MUL OR SWAP1 SSTORE POP DUP6 PUSH1 0x60 ADD PUSH1 0x20 DUP2 ADD SWAP1 PUSH2 0x227C SWAP2 SWAP1 PUSH2 0x2EDE JUMP JUMPDEST PUSH1 0x2 PUSH0 PUSH2 0x100 EXP DUP2 SLOAD DUP2 PUSH20 0xFFFFFFFFFFFFFFFFFFFFFFFFFFFFFFFFFFFFFFFF MUL NOT AND SWAP1 DUP4 PUSH20 0xFFFFFFFFFFFFFFFFFFFFFFFFFFFFFFFFFFFFFFFF AND MUL OR SWAP1 SSTORE POP DUP6 PUSH1 0x80 ADD PUSH1 0x20 DUP2 ADD SWAP1 PUSH2 0x22CE SWAP2 SWAP1 PUSH2 0x2EDE JUMP JUMPDEST PUSH1 0x3 PUSH0 PUSH2 0x100 EXP DUP2 SLOAD DUP2 PUSH20 0xFFFFFFFFFFFFFFFFFFFFFFFFFFFFFFFFFFFFFFFF MUL NOT AND SWAP1 DUP4 PUSH20 0xFFFFFFFFFFFFFFFFFFFFFFFFFFFFFFFFFFFFFFFF AND MUL OR SWAP1 SSTORE POP DUP6 PUSH1 0xA0 ADD PUSH1 0x20 DUP2 ADD SWAP1 PUSH2 0x2320 SWAP2 SWAP1 PUSH2 0x2EDE JUMP JUMPDEST PUSH1 0x7 PUSH0 PUSH2 0x100 EXP DUP2 SLOAD DUP2 PUSH20 0xFFFFFFFFFFFFFFFFFFFFFFFFFFFFFFFFFFFFFFFF MUL NOT AND SWAP1 DUP4 PUSH20 0xFFFFFFFFFFFFFFFFFFFFFFFFFFFFFFFFFFFFFFFF AND MUL OR SWAP1 SSTORE POP DUP6 PUSH1 0xC0 ADD PUSH1 0x20 DUP2 ADD SWAP1 PUSH2 0x2372 SWAP2 SWAP1 PUSH2 0x2EDE JUMP JUMPDEST PUSH1 0x8 PUSH0 PUSH2 0x100 EXP DUP2 SLOAD DUP2 PUSH20 0xFFFFFFFFFFFFFFFFFFFFFFFFFFFFFFFFFFFFFFFF MUL NOT AND SWAP1 DUP4 PUSH20 0xFFFFFFFFFFFFFFFFFFFFFFFFFFFFFFFFFFFFFFFF AND MUL OR SWAP1 SSTORE POP DUP5 DUP5 PUSH1 0x4 SWAP2 DUP3 PUSH2 0x23C2 SWAP3 SWAP2 SWAP1 PUSH2 0x3F6D JUMP JUMPDEST POP DUP3 DUP3 PUSH1 0x5 SWAP2 DUP3 PUSH2 0x23D4 SWAP3 SWAP2 SWAP1 PUSH2 0x3F6D JUMP JUMPDEST POP DUP6 PUSH1 0xE0 ADD CALLDATALOAD PUSH1 0x9 DUP2 SWAP1 SSTORE POP DUP6 PUSH2 0x100 ADD CALLDATALOAD PUSH1 0xC DUP2 SWAP1 SSTORE POP DUP6 PUSH2 0x120 ADD CALLDATALOAD PUSH1 0xD DUP2 SWAP1 SSTORE POP DUP6 PUSH2 0x140 ADD CALLDATALOAD PUSH1 0xA DUP2 SWAP1 SSTORE POP PUSH2 0xBB8 PUSH1 0xB DUP2 SWAP1 SSTORE POP PUSH8 0xDE0B6B3A7640000 PUSH1 0xE DUP2 SWAP1 SSTORE POP NUMBER PUSH1 0xF DUP2 SWAP1 SSTORE POP DUP1 ISZERO PUSH2 0x2443 JUMPI PUSH0 PUSH0 PUSH1 0x1 PUSH2 0x100 EXP DUP2 SLOAD DUP2 PUSH1 0xFF MUL NOT AND SWAP1 DUP4 ISZERO ISZERO MUL OR SWAP1 SSTORE POP JUMPDEST POP POP POP POP POP POP JUMP JUMPDEST PUSH1 0x2 PUSH0 SWAP1 SLOAD SWAP1 PUSH2 0x100 EXP SWAP1 DIV PUSH20 0xFFFFFFFFFFFFFFFFFFFFFFFFFFFFFFFFFFFFFFFF AND DUP2 JUMP JUMPDEST PUSH1 0x9 SLOAD DUP2 JUMP JUMPDEST PUSH0 DUP2 GT PUSH2 0x24B8 JUMPI PUSH1 0x40 MLOAD PUSH32 0x8C379A000000000000000000000000000000000000000000000000000000000 DUP2 MSTORE PUSH1 0x4 ADD PUSH2 0x24AF SWAP1 PUSH2 0x36CD JUMP JUMPDEST PUSH1 0x40 MLOAD DUP1 SWAP2 SUB SWAP1 REVERT JUMPDEST PUSH2 0x24C0 PUSH2 0x1D12 JUMP JUMPDEST PUSH2 0x24C8 PUSH2 0x1B6E JUMP JUMPDEST DUP2 GT ISZERO PUSH2 0x250A JUMPI PUSH1 0x40 MLOAD PUSH32 0x8C379A000000000000000000000000000000000000000000000000000000000 DUP2 MSTORE PUSH1 0x4 ADD PUSH2 0x2501 SWAP1 PUSH2 0x3805 JUMP JUMPDEST PUSH1 0x40 MLOAD DUP1 SWAP2 SUB SWAP1 REVERT JUMPDEST PUSH0 PUSH1 0x12 PUSH0 CALLER PUSH20 0xFFFFFFFFFFFFFFFFFFFFFFFFFFFFFFFFFFFFFFFF AND PUSH20 0xFFFFFFFFFFFFFFFFFFFFFFFFFFFFFFFFFFFFFFFF AND DUP2 MSTORE PUSH1 0x20 ADD SWAP1 DUP2 MSTORE PUSH1 0x20 ADD PUSH0 KECCAK256 SWAP1 POP PUSH0 PUSH2 0x2554 DUP4 PUSH2 0x2CF7 JUMP JUMPDEST SWAP1 POP DUP1 DUP3 PUSH1 0x1 ADD PUSH0 DUP3 DUP3 SLOAD PUSH2 0x2569 SWAP2 SWAP1 PUSH2 0x3720 JUMP JUMPDEST SWAP3 POP POP DUP2 SWAP1 SSTORE POP DUP3 DUP3 PUSH1 0x2 ADD PUSH0 DUP3 DUP3 SLOAD PUSH2 0x2583 SWAP2 SWAP1 PUSH2 0x3720 JUMP JUMPDEST SWAP3 POP POP DUP2 SWAP1 SSTORE POP DUP1 PUSH1 0x10 PUSH0 DUP3 DUP3 SLOAD PUSH2 0x259B SWAP2 SWAP1 PUSH2 0x3720 JUMP JUMPDEST SWAP3 POP POP DUP2 SWAP1 SSTORE POP PUSH2 0x25AB CALLER PUSH2 0x296C JUMP JUMPDEST PUSH2 0x25EA JUMPI PUSH1 0x40 MLOAD PUSH32 0x8C379A000000000000000000000000000000000000000000000000000000000 DUP2 MSTORE PUSH1 0x4 ADD PUSH2 0x25E1 SWAP1 PUSH2 0x4084 JUMP JUMPDEST PUSH1 0x40 MLOAD DUP1 SWAP2 SUB SWAP1 REVERT JUMPDEST PUSH1 0x1 PUSH0 SWAP1 SLOAD SWAP1 PUSH2 0x100 EXP SWAP1 DIV PUSH20 0xFFFFFFFFFFFFFFFFFFFFFFFFFFFFFFFFFFFFFFFF AND PUSH20 0xFFFFFFFFFFFFFFFFFFFFFFFFFFFFFFFFFFFFFFFF AND PUSH4 0xA9059CBB CALLER DUP6 PUSH1 0x40 MLOAD DUP4 PUSH4 0xFFFFFFFF AND PUSH1 0xE0 SHL DUP2 MSTORE PUSH1 0x4 ADD PUSH2 0x2646 SWAP3 SWAP2 SWAP1 PUSH2 0x3505 JUMP JUMPDEST PUSH1 0x20 PUSH1 0x40 MLOAD DUP1 DUP4 SUB DUP2 PUSH0 DUP8 GAS CALL ISZERO DUP1 ISZERO PUSH2 0x2662 JUMPI RETURNDATASIZE PUSH0 PUSH0 RETURNDATACOPY RETURNDATASIZE PUSH0 REVERT JUMPDEST POP POP POP POP PUSH1 0x40 MLOAD RETURNDATASIZE PUSH1 0x1F NOT PUSH1 0x1F DUP3 ADD AND DUP3 ADD DUP1 PUSH1 0x40 MSTORE POP DUP2 ADD SWAP1 PUSH2 0x2686 SWAP2 SWAP1 PUSH2 0x3561 JUMP JUMPDEST POP POP POP POP JUMP JUMPDEST PUSH0 PUSH2 0x2695 PUSH2 0x292E JUMP JUMPDEST PUSH2 0x269D PUSH2 0x1B6E JUMP JUMPDEST PUSH2 0x26A7 SWAP2 SWAP1 PUSH2 0x3720 JUMP JUMPDEST SWAP1 POP SWAP1 JUMP JUMPDEST PUSH0 PUSH1 0x2 SWAP1 SLOAD SWAP1 PUSH2 0x100 EXP SWAP1 DIV PUSH20 0xFFFFFFFFFFFFFFFFFFFFFFFFFFFFFFFFFFFFFFFF AND PUSH20 0xFFFFFFFFFFFFFFFFFFFFFFFFFFFFFFFFFFFFFFFF AND CALLER PUSH20 0xFFFFFFFFFFFFFFFFFFFFFFFFFFFFFFFFFFFFFFFF AND EQ PUSH2 0x2704 JUMPI PUSH0 PUSH0 REVERT JUMPDEST PUSH2 0x2710 DUP4 GT ISZERO PUSH2 0x2749 JUMPI PUSH1 0x40 MLOAD PUSH32 0x8C379A000000000000000000000000000000000000000000000000000000000 DUP2 MSTORE PUSH1 0x4 ADD PUSH2 0x2740 SWAP1 PUSH2 0x3D19 JUMP JUMPDEST PUSH1 0x40 MLOAD DUP1 SWAP2 SUB SWAP1 REVERT JUMPDEST PUSH2 0x2710 DUP2 GT ISZERO PUSH2 0x278E JUMPI PUSH1 0x40 MLOAD PUSH32 0x8C379A000000000000000000000000000000000000000000000000000000000 DUP2 MSTORE PUSH1 0x4 ADD PUSH2 0x2785 SWAP1 PUSH2 0x3D81 JUMP JUMPDEST PUSH1 0x40 MLOAD DUP1 SWAP2 SUB SWAP1 REVERT JUMPDEST PUSH2 0x2796 PUSH2 0x1D12 JUMP JUMPDEST DUP3 PUSH1 0x9 DUP2 SWAP1 SSTORE POP DUP2 PUSH1 0xC DUP2 SWAP1 SSTORE POP DUP1 PUSH1 0xA DUP2 SWAP1 SSTORE POP POP POP POP JUMP JUMPDEST PUSH0 PUSH0 PUSH1 0x12 PUSH0 DUP5 PUSH20 0xFFFFFFFFFFFFFFFFFFFFFFFFFFFFFFFFFFFFFFFF AND PUSH20 0xFFFFFFFFFFFFFFFFFFFFFFFFFFFFFFFFFFFFFFFF AND DUP2 MSTORE PUSH1 0x20 ADD SWAP1 DUP2 MSTORE PUSH1 0x20 ADD PUSH0 KECCAK256 PUSH1 0x1 ADD SLOAD SWAP1 POP PUSH0 DUP2 EQ PUSH2 0x2827 JUMPI PUSH8 0xDE0B6B3A7640000 PUSH2 0x280D PUSH2 0x2D2C JUMP JUMPDEST DUP3 PUSH2 0x2818 SWAP2 SWAP1 PUSH2 0x3434 JUMP JUMPDEST PUSH2 0x2822 SWAP2 SWAP1 PUSH2 0x34A2 JUMP JUMPDEST PUSH2 0x2829 JUMP JUMPDEST PUSH0 JUMPDEST SWAP2 POP POP SWAP2 SWAP1 POP JUMP JUMPDEST PUSH0 PUSH1 0x2 SWAP1 SLOAD SWAP1 PUSH2 0x100 EXP SWAP1 DIV PUSH20 0xFFFFFFFFFFFFFFFFFFFFFFFFFFFFFFFFFFFFFFFF AND PUSH20 0xFFFFFFFFFFFFFFFFFFFFFFFFFFFFFFFFFFFFFFFF AND CALLER PUSH20 0xFFFFFFFFFFFFFFFFFFFFFFFFFFFFFFFFFFFFFFFF AND EQ PUSH2 0x2889 JUMPI PUSH0 PUSH0 REVERT JUMPDEST PUSH0 PUSH20 0xFFFFFFFFFFFFFFFFFFFFFFFFFFFFFFFFFFFFFFFF AND DUP2 PUSH20 0xFFFFFFFFFFFFFFFFFFFFFFFFFFFFFFFFFFFFFFFF AND SUB PUSH2 0x28C0 JUMPI PUSH0 PUSH0 REVERT JUMPDEST DUP1 PUSH0 PUSH1 0x2 PUSH2 0x100 EXP DUP2 SLOAD DUP2 PUSH20 0xFFFFFFFFFFFFFFFFFFFFFFFFFFFFFFFFFFFFFFFF MUL NOT AND SWAP1 DUP4 PUSH20 0xFFFFFFFFFFFFFFFFFFFFFFFFFFFFFFFFFFFFFFFF AND MUL OR SWAP1 SSTORE POP POP JUMP JUMPDEST PUSH1 0x11 SLOAD DUP2 JUMP JUMPDEST PUSH1 0x6 PUSH0 SWAP1 SLOAD SWAP1 PUSH2 0x100 EXP SWAP1 DIV PUSH20 0xFFFFFFFFFFFFFFFFFFFFFFFFFFFFFFFFFFFFFFFF AND DUP2 JUMP JUMPDEST PUSH0 PUSH0 PUSH1 0x10 SLOAD EQ PUSH2 0x2965 JUMPI PUSH8 0xDE0B6B3A7640000 PUSH2 0x2949 PUSH2 0x2D2C JUMP JUMPDEST PUSH1 0x10 SLOAD PUSH2 0x2956 SWAP2 SWAP1 PUSH2 0x3434 JUMP JUMPDEST PUSH2 0x2960 SWAP2 SWAP1 PUSH2 0x34A2 JUMP JUMPDEST PUSH2 0x2967 JUMP JUMPDEST PUSH0 JUMPDEST SWAP1 POP SWAP1 JUMP JUMPDEST PUSH0 PUSH1 0x9 SLOAD PUSH2 0x2979 DUP4 PUSH2 0x19BE JUMP JUMPDEST LT SWAP1 POP SWAP2 SWAP1 POP JUMP JUMPDEST PUSH0 PUSH0 PUSH32 0x360894A13BA1A3210667C828492DB98DCA3E2076CC3735A920A3CA505D382BBC PUSH0 SHL SWAP1 POP DUP1 SLOAD SWAP2 POP POP SWAP1 JUMP JUMPDEST PUSH0 PUSH1 0x2 SWAP1 SLOAD SWAP1 PUSH2 0x100 EXP SWAP1 DIV PUSH20 0xFFFFFFFFFFFFFFFFFFFFFFFFFFFFFFFFFFFFFFFF AND PUSH20 0xFFFFFFFFFFFFFFFFFFFFFFFFFFFFFFFFFFFFFFFF AND CALLER PUSH20 0xFFFFFFFFFFFFFFFFFFFFFFFFFFFFFFFFFFFFFFFF AND EQ PUSH2 0x2A08 JUMPI PUSH0 PUSH0 REVERT JUMPDEST POP JUMP JUMPDEST PUSH0 PUSH20 0xFFFFFFFFFFFFFFFFFFFFFFFFFFFFFFFFFFFFFFFF AND DUP4 PUSH20 0xFFFFFFFFFFFFFFFFFFFFFFFFFFFFFFFFFFFFFFFF AND SUB PUSH2 0x2A79 JUMPI PUSH1 0x40 MLOAD PUSH32 0x8C379A000000000000000000000000000000000000000000000000000000000 DUP2 MSTORE PUSH1 0x4 ADD PUSH2 0x2A70 SWAP1 PUSH2 0x40EC JUMP JUMPDEST PUSH1 0x40 MLOAD DUP1 SWAP2 SUB SWAP1 REVERT JUMPDEST PUSH2 0x2A82 DUP4 PUSH2 0x2DAA JUMP JUMPDEST DUP1 DUP1 PUSH2 0x2A8E JUMPI POP PUSH0 DUP3 MLOAD GT JUMPDEST ISZERO PUSH2 0x2B43 JUMPI PUSH0 PUSH0 DUP5 PUSH20 0xFFFFFFFFFFFFFFFFFFFFFFFFFFFFFFFFFFFFFFFF AND DUP5 PUSH1 0x40 MLOAD PUSH2 0x2ABA SWAP2 SWAP1 PUSH2 0x414E JUMP JUMPDEST PUSH0 PUSH1 0x40 MLOAD DUP1 DUP4 SUB DUP2 DUP6 GAS DELEGATECALL SWAP2 POP POP RETURNDATASIZE DUP1 PUSH0 DUP2 EQ PUSH2 0x2AF2 JUMPI PUSH1 0x40 MLOAD SWAP2 POP PUSH1 0x1F NOT PUSH1 0x3F RETURNDATASIZE ADD AND DUP3 ADD PUSH1 0x40 MSTORE RETURNDATASIZE DUP3 MSTORE RETURNDATASIZE PUSH0 PUSH1 0x20 DUP5 ADD RETURNDATACOPY PUSH2 0x2AF7 JUMP JUMPDEST PUSH1 0x60 SWAP2 POP JUMPDEST POP SWAP2 POP SWAP2 POP DUP2 DUP2 SWAP1 PUSH2 0x2B3F JUMPI PUSH1 0x40 MLOAD PUSH32 0x8C379A000000000000000000000000000000000000000000000000000000000 DUP2 MSTORE PUSH1 0x4 ADD PUSH2 0x2B36 SWAP2 SWAP1 PUSH2 0x2FF6 JUMP JUMPDEST PUSH1 0x40 MLOAD DUP1 SWAP2 SUB SWAP1 REVERT JUMPDEST POP POP POP JUMPDEST POP POP POP JUMP JUMPDEST PUSH0 PUSH0 DUP3 PUSH20 0xFFFFFFFFFFFFFFFFFFFFFFFFFFFFFFFFFFFFFFFF AND PUSH4 0x313CE567 PUSH1 0x40 MLOAD DUP2 PUSH4 0xFFFFFFFF AND PUSH1 0xE0 SHL DUP2 MSTORE PUSH1 0x4 ADD PUSH1 0x20 PUSH1 0x40 MLOAD DUP1 DUP4 SUB DUP2 DUP7 GAS STATICCALL ISZERO DUP1 ISZERO PUSH2 0x2B93 JUMPI RETURNDATASIZE PUSH0 PUSH0 RETURNDATACOPY RETURNDATASIZE PUSH0 REVERT JUMPDEST POP POP POP POP PUSH1 0x40 MLOAD RETURNDATASIZE PUSH1 0x1F NOT PUSH1 0x1F DUP3 ADD AND DUP3 ADD DUP1 PUSH1 0x40 MSTORE POP DUP2 ADD SWAP1 PUSH2 0x2BB7 SWAP2 SWAP1 PUSH2 0x419A JUMP JUMPDEST SWAP1 POP DUP1 PUSH1 0xA PUSH2 0x2BC6 SWAP2 SWAP1 PUSH2 0x42F4 JUMP JUMPDEST PUSH1 0x3 PUSH0 SWAP1 SLOAD SWAP1 PUSH2 0x100 EXP SWAP1 DIV PUSH20 0xFFFFFFFFFFFFFFFFFFFFFFFFFFFFFFFFFFFFFFFF AND PUSH20 0xFFFFFFFFFFFFFFFFFFFFFFFFFFFFFFFFFFFFFFFF AND PUSH4 0x41976E09 DUP6 PUSH1 0x40 MLOAD DUP3 PUSH4 0xFFFFFFFF AND PUSH1 0xE0 SHL DUP2 MSTORE PUSH1 0x4 ADD PUSH2 0x2C20 SWAP2 SWAP1 PUSH2 0x2F6D JUMP JUMPDEST PUSH1 0x20 PUSH1 0x40 MLOAD DUP1 DUP4 SUB DUP2 DUP7 GAS STATICCALL ISZERO DUP1 ISZERO PUSH2 0x2C3B JUMPI RETURNDATASIZE PUSH0 PUSH0 RETURNDATACOPY RETURNDATASIZE PUSH0 REVERT JUMPDEST POP POP POP POP PUSH1 0x40 MLOAD RETURNDATASIZE PUSH1 0x1F NOT PUSH1 0x1F DUP3 ADD AND DUP3 ADD DUP1 PUSH1 0x40 MSTORE POP DUP2 ADD SWAP1 PUSH2 0x2C5F SWAP2 SWAP1 PUSH2 0x39CC JUMP JUMPDEST DUP6 PUSH2 0x2C6A SWAP2 SWAP1 PUSH2 0x3434 JUMP JUMPDEST PUSH2 0x2C74 SWAP2 SWAP1 PUSH2 0x34A2 JUMP JUMPDEST SWAP2 POP POP SWAP3 SWAP2 POP POP JUMP JUMPDEST PUSH0 PUSH20 0xFFFFFFFFFFFFFFFFFFFFFFFFFFFFFFFFFFFFFFFF AND DUP2 PUSH20 0xFFFFFFFFFFFFFFFFFFFFFFFFFFFFFFFFFFFFFFFF AND SUB PUSH2 0x2CB4 JUMPI PUSH0 PUSH0 REVERT JUMPDEST DUP1 PUSH0 PUSH1 0x2 PUSH2 0x100 EXP DUP2 SLOAD DUP2 PUSH20 0xFFFFFFFFFFFFFFFFFFFFFFFFFFFFFFFFFFFFFFFF MUL NOT AND SWAP1 DUP4 PUSH20 0xFFFFFFFFFFFFFFFFFFFFFFFFFFFFFFFFFFFFFFFF AND MUL OR SWAP1 SSTORE POP POP JUMP JUMPDEST PUSH0 PUSH1 0xE SLOAD PUSH8 0xDE0B6B3A7640000 DUP4 PUSH2 0x2D0F SWAP2 SWAP1 PUSH2 0x3434 JUMP JUMPDEST PUSH2 0x2D19 SWAP2 SWAP1 PUSH2 0x34A2 JUMP JUMPDEST SWAP1 POP PUSH0 DUP2 SUB PUSH2 0x2D27 JUMPI PUSH1 0x1 SWAP1 POP JUMPDEST SWAP2 SWAP1 POP JUMP JUMPDEST PUSH0 PUSH1 0xE SLOAD SWAP1 POP PUSH1 0xF SLOAD NUMBER GT DUP1 ISZERO PUSH2 0x2D44 JUMPI POP PUSH0 PUSH1 0x10 SLOAD GT JUMPDEST ISZERO PUSH2 0x2DA7 JUMPI PUSH0 PUSH1 0xF SLOAD NUMBER PUSH2 0x2D58 SWAP2 SWAP1 PUSH2 0x34D2 JUMP JUMPDEST SWAP1 POP PUSH0 PUSH1 0xD SLOAD DUP3 PUSH1 0xC SLOAD PUSH2 0x2D6C SWAP2 SWAP1 PUSH2 0x3434 JUMP JUMPDEST PUSH2 0x2D76 SWAP2 SWAP1 PUSH2 0x34A2 JUMP JUMPDEST SWAP1 POP PUSH8 0xDE0B6B3A7640000 DUP2 DUP5 PUSH2 0x2D8D SWAP2 SWAP1 PUSH2 0x3434 JUMP JUMPDEST PUSH2 0x2D97 SWAP2 SWAP1 PUSH2 0x34A2 JUMP JUMPDEST DUP4 PUSH2 0x2DA2 SWAP2 SWAP1 PUSH2 0x3720 JUMP JUMPDEST SWAP3 POP POP POP JUMPDEST SWAP1 JUMP JUMPDEST PUSH0 PUSH32 0x360894A13BA1A3210667C828492DB98DCA3E2076CC3735A920A3CA505D382BBC PUSH0 SHL SWAP1 POP DUP2 DUP2 SSTORE POP POP JUMP JUMPDEST PUSH0 PUSH20 0xFFFFFFFFFFFFFFFFFFFFFFFFFFFFFFFFFFFFFFFF DUP3 AND SWAP1 POP SWAP2 SWAP1 POP JUMP JUMPDEST PUSH0 DUP2 SWAP1 POP SWAP2 SWAP1 POP JUMP JUMPDEST PUSH0 PUSH2 0x2E19 PUSH2 0x2E14 PUSH2 0x2E0F DUP5 PUSH2 0x2DD7 JUMP JUMPDEST PUSH2 0x2DF6 JUMP JUMPDEST PUSH2 0x2DD7 JUMP JUMPDEST SWAP1 POP SWAP2 SWAP1 POP JUMP JUMPDEST PUSH0 PUSH2 0x2E2A DUP3 PUSH2 0x2DFF JUMP JUMPDEST SWAP1 POP SWAP2 SWAP1 POP JUMP JUMPDEST PUSH0 PUSH2 0x2E3B DUP3 PUSH2 0x2E20 JUMP JUMPDEST SWAP1 POP SWAP2 SWAP1 POP JUMP JUMPDEST PUSH2 0x2E4B DUP2 PUSH2 0x2E31 JUMP JUMPDEST DUP3 MSTORE POP POP JUMP JUMPDEST PUSH0 PUSH1 0x20 DUP3 ADD SWAP1 POP PUSH2 0x2E64 PUSH0 DUP4 ADD DUP5 PUSH2 0x2E42 JUMP JUMPDEST SWAP3 SWAP2 POP POP JUMP JUMPDEST PUSH0 DUP2 SWAP1 POP SWAP2 SWAP1 POP JUMP JUMPDEST PUSH2 0x2E7C DUP2 PUSH2 0x2E6A JUMP JUMPDEST DUP3 MSTORE POP POP JUMP JUMPDEST PUSH0 PUSH1 0x20 DUP3 ADD SWAP1 POP PUSH2 0x2E95 PUSH0 DUP4 ADD DUP5 PUSH2 0x2E73 JUMP JUMPDEST SWAP3 SWAP2 POP POP JUMP JUMPDEST PUSH0 PUSH0 REVERT JUMPDEST PUSH0 PUSH0 REVERT JUMPDEST PUSH0 PUSH2 0x2EAD DUP3 PUSH2 0x2DD7 JUMP JUMPDEST SWAP1 POP SWAP2 SWAP1 POP JUMP JUMPDEST PUSH2 0x2EBD DUP2 PUSH2 0x2EA3 JUMP JUMPDEST DUP2 EQ PUSH2 0x2EC7 JUMPI PUSH0 PUSH0 REVERT JUMPDEST POP JUMP JUMPDEST PUSH0 DUP2 CALLDATALOAD SWAP1 POP PUSH2 0x2ED8 DUP2 PUSH2 0x2EB4 JUMP JUMPDEST SWAP3 SWAP2 POP POP JUMP JUMPDEST PUSH0 PUSH1 0x20 DUP3 DUP5 SUB SLT ISZERO PUSH2 0x2EF3 JUMPI PUSH2 0x2EF2 PUSH2 0x2E9B JUMP JUMPDEST JUMPDEST PUSH0 PUSH2 0x2F00 DUP5 DUP3 DUP6 ADD PUSH2 0x2ECA JUMP JUMPDEST SWAP2 POP POP SWAP3 SWAP2 POP POP JUMP JUMPDEST PUSH2 0x2F12 DUP2 PUSH2 0x2E6A JUMP JUMPDEST DUP2 EQ PUSH2 0x2F1C JUMPI PUSH0 PUSH0 REVERT JUMPDEST POP JUMP JUMPDEST PUSH0 DUP2 CALLDATALOAD SWAP1 POP PUSH2 0x2F2D DUP2 PUSH2 0x2F09 JUMP JUMPDEST SWAP3 SWAP2 POP POP JUMP JUMPDEST PUSH0 PUSH1 0x20 DUP3 DUP5 SUB SLT ISZERO PUSH2 0x2F48 JUMPI PUSH2 0x2F47 PUSH2 0x2E9B JUMP JUMPDEST JUMPDEST PUSH0 PUSH2 0x2F55 DUP5 DUP3 DUP6 ADD PUSH2 0x2F1F JUMP JUMPDEST SWAP2 POP POP SWAP3 SWAP2 POP POP JUMP JUMPDEST PUSH2 0x2F67 DUP2 PUSH2 0x2EA3 JUMP JUMPDEST DUP3 MSTORE POP POP JUMP JUMPDEST PUSH0 PUSH1 0x20 DUP3 ADD SWAP1 POP PUSH2 0x2F80 PUSH0 DUP4 ADD DUP5 PUSH2 0x2F5E JUMP JUMPDEST SWAP3 SWAP2 POP POP JUMP JUMPDEST PUSH0 DUP2 MLOAD SWAP1 POP SWAP2 SWAP1 POP JUMP JUMPDEST PUSH0 DUP3 DUP3 MSTORE PUSH1 0x20 DUP3 ADD SWAP1 POP SWAP3 SWAP2 POP POP JUMP JUMPDEST DUP3 DUP2 DUP4 MCOPY PUSH0 DUP4 DUP4 ADD MSTORE POP POP POP JUMP JUMPDEST PUSH0 PUSH1 0x1F NOT PUSH1 0x1F DUP4 ADD AND SWAP1 POP SWAP2 SWAP1 POP JUMP JUMPDEST PUSH0 PUSH2 0x2FC8 DUP3 PUSH2 0x2F86 JUMP JUMPDEST PUSH2 0x2FD2 DUP2 DUP6 PUSH2 0x2F90 JUMP JUMPDEST SWAP4 POP PUSH2 0x2FE2 DUP2 DUP6 PUSH1 0x20 DUP7 ADD PUSH2 0x2FA0 JUMP JUMPDEST PUSH2 0x2FEB DUP2 PUSH2 0x2FAE JUMP JUMPDEST DUP5 ADD SWAP2 POP POP SWAP3 SWAP2 POP POP JUMP JUMPDEST PUSH0 PUSH1 0x20 DUP3 ADD SWAP1 POP DUP2 DUP2 SUB PUSH0 DUP4 ADD MSTORE PUSH2 0x300E DUP2 DUP5 PUSH2 0x2FBE JUMP JUMPDEST SWAP1 POP SWAP3 SWAP2 POP POP JUMP JUMPDEST PUSH0 PUSH0 REVERT JUMPDEST PUSH0 PUSH0 REVERT JUMPDEST PUSH0 PUSH0 REVERT JUMPDEST PUSH0 PUSH0 DUP4 PUSH1 0x1F DUP5 ADD SLT PUSH2 0x3037 JUMPI PUSH2 0x3036 PUSH2 0x3016 JUMP JUMPDEST JUMPDEST DUP3 CALLDATALOAD SWAP1 POP PUSH8 0xFFFFFFFFFFFFFFFF DUP2 GT ISZERO PUSH2 0x3054 JUMPI PUSH2 0x3053 PUSH2 0x301A JUMP JUMPDEST JUMPDEST PUSH1 0x20 DUP4 ADD SWAP2 POP DUP4 PUSH1 0x1 DUP3 MUL DUP4 ADD GT ISZERO PUSH2 0x3070 JUMPI PUSH2 0x306F PUSH2 0x301E JUMP JUMPDEST JUMPDEST SWAP3 POP SWAP3 SWAP1 POP JUMP JUMPDEST PUSH0 PUSH0 PUSH0 PUSH1 0x40 DUP5 DUP7 SUB SLT ISZERO PUSH2 0x308E JUMPI PUSH2 0x308D PUSH2 0x2E9B JUMP JUMPDEST JUMPDEST PUSH0 PUSH2 0x309B DUP7 DUP3 DUP8 ADD PUSH2 0x2ECA JUMP JUMPDEST SWAP4 POP POP PUSH1 0x20 DUP5 ADD CALLDATALOAD PUSH8 0xFFFFFFFFFFFFFFFF DUP2 GT ISZERO PUSH2 0x30BC JUMPI PUSH2 0x30BB PUSH2 0x2E9F JUMP JUMPDEST JUMPDEST PUSH2 0x30C8 DUP7 DUP3 DUP8 ADD PUSH2 0x3022 JUMP JUMPDEST SWAP3 POP SWAP3 POP POP SWAP3 POP SWAP3 POP SWAP3 JUMP JUMPDEST PUSH0 DUP2 SWAP1 POP SWAP2 SWAP1 POP JUMP JUMPDEST PUSH2 0x30E6 DUP2 PUSH2 0x30D4 JUMP JUMPDEST DUP3 MSTORE POP POP JUMP JUMPDEST PUSH0 PUSH1 0x20 DUP3 ADD SWAP1 POP PUSH2 0x30FF PUSH0 DUP4 ADD DUP5 PUSH2 0x30DD JUMP JUMPDEST SWAP3 SWAP2 POP POP JUMP JUMPDEST PUSH0 PUSH1 0x60 DUP3 ADD SWAP1 POP PUSH2 0x3118 PUSH0 DUP4 ADD DUP7 PUSH2 0x2E73 JUMP JUMPDEST PUSH2 0x3125 PUSH1 0x20 DUP4 ADD DUP6 PUSH2 0x2E73 JUMP JUMPDEST PUSH2 0x3132 PUSH1 0x40 DUP4 ADD DUP5 PUSH2 0x2E73 JUMP JUMPDEST SWAP5 SWAP4 POP POP POP POP JUMP JUMPDEST PUSH0 PUSH2 0x3144 DUP3 PUSH2 0x2E20 JUMP JUMPDEST SWAP1 POP SWAP2 SWAP1 POP JUMP JUMPDEST PUSH2 0x3154 DUP2 PUSH2 0x313A JUMP JUMPDEST DUP3 MSTORE POP POP JUMP JUMPDEST PUSH0 PUSH1 0x20 DUP3 ADD SWAP1 POP PUSH2 0x316D PUSH0 DUP4 ADD DUP5 PUSH2 0x314B JUMP JUMPDEST SWAP3 SWAP2 POP POP JUMP JUMPDEST PUSH0 PUSH0 REVERT JUMPDEST PUSH0 PUSH2 0x160 DUP3 DUP5 SUB SLT ISZERO PUSH2 0x318D JUMPI PUSH2 0x318C PUSH2 0x3173 JUMP JUMPDEST JUMPDEST DUP2 SWAP1 POP SWAP3 SWAP2 POP POP JUMP JUMPDEST PUSH0 PUSH0 DUP4 PUSH1 0x1F DUP5 ADD SLT PUSH2 0x31AB JUMPI PUSH2 0x31AA PUSH2 0x3016 JUMP JUMPDEST JUMPDEST DUP3 CALLDATALOAD SWAP1 POP PUSH8 0xFFFFFFFFFFFFFFFF DUP2 GT ISZERO PUSH2 0x31C8 JUMPI PUSH2 0x31C7 PUSH2 0x301A JUMP JUMPDEST JUMPDEST PUSH1 0x20 DUP4 ADD SWAP2 POP DUP4 PUSH1 0x1 DUP3 MUL DUP4 ADD GT ISZERO PUSH2 0x31E4 JUMPI PUSH2 0x31E3 PUSH2 0x301E JUMP JUMPDEST JUMPDEST SWAP3 POP SWAP3 SWAP1 POP JUMP JUMPDEST PUSH0 PUSH0 PUSH0 PUSH0 PUSH0 PUSH2 0x1A0 DUP7 DUP9 SUB SLT ISZERO PUSH2 0x3205 JUMPI PUSH2 0x3204 PUSH2 0x2E9B JUMP JUMPDEST JUMPDEST PUSH0 PUSH2 0x3212 DUP9 DUP3 DUP10 ADD PUSH2 0x3177 JUMP JUMPDEST SWAP6 POP POP PUSH2 0x160 DUP7 ADD CALLDATALOAD PUSH8 0xFFFFFFFFFFFFFFFF DUP2 GT ISZERO PUSH2 0x3234 JUMPI PUSH2 0x3233 PUSH2 0x2E9F JUMP JUMPDEST JUMPDEST PUSH2 0x3240 DUP9 DUP3 DUP10 ADD PUSH2 0x3196 JUMP JUMPDEST SWAP5 POP SWAP5 POP POP PUSH2 0x180 DUP7 ADD CALLDATALOAD PUSH8 0xFFFFFFFFFFFFFFFF DUP2 GT ISZERO PUSH2 0x3264 JUMPI PUSH2 0x3263 PUSH2 0x2E9F JUMP JUMPDEST JUMPDEST PUSH2 0x3270 DUP9 DUP3 DUP10 ADD PUSH2 0x3196 JUMP JUMPDEST SWAP3 POP SWAP3 POP POP SWAP3 SWAP6 POP SWAP3 SWAP6 SWAP1 SWAP4 POP JUMP JUMPDEST PUSH0 PUSH0 PUSH0 PUSH1 0x60 DUP5 DUP7 SUB SLT ISZERO PUSH2 0x3296 JUMPI PUSH2 0x3295 PUSH2 0x2E9B JUMP JUMPDEST JUMPDEST PUSH0 PUSH2 0x32A3 DUP7 DUP3 DUP8 ADD PUSH2 0x2F1F JUMP JUMPDEST SWAP4 POP POP PUSH1 0x20 PUSH2 0x32B4 DUP7 DUP3 DUP8 ADD PUSH2 0x2F1F JUMP JUMPDEST SWAP3 POP POP PUSH1 0x40 PUSH2 0x32C5 DUP7 DUP3 DUP8 ADD PUSH2 0x2F1F JUMP JUMPDEST SWAP2 POP POP SWAP3 POP SWAP3 POP SWAP3 JUMP JUMPDEST PUSH32 0x4E4F545F4C495155494441544F52000000000000000000000000000000000000 PUSH0 DUP3 ADD MSTORE POP JUMP JUMPDEST PUSH0 PUSH2 0x3303 PUSH1 0xE DUP4 PUSH2 0x2F90 JUMP JUMPDEST SWAP2 POP PUSH2 0x330E DUP3 PUSH2 0x32CF JUMP JUMPDEST PUSH1 0x20 DUP3 ADD SWAP1 POP SWAP2 SWAP1 POP JUMP JUMPDEST PUSH0 PUSH1 0x20 DUP3 ADD SWAP1 POP DUP2 DUP2 SUB PUSH0 DUP4 ADD MSTORE PUSH2 0x3330 DUP2 PUSH2 0x32F7 JUMP JUMPDEST SWAP1 POP SWAP2 SWAP1 POP JUMP JUMPDEST PUSH32 0x504F534954494F4E5F4845414C54485900000000000000000000000000000000 PUSH0 DUP3 ADD MSTORE POP JUMP JUMPDEST PUSH0 PUSH2 0x336B PUSH1 0x10 DUP4 PUSH2 0x2F90 JUMP JUMPDEST SWAP2 POP PUSH2 0x3376 DUP3 PUSH2 0x3337 JUMP JUMPDEST PUSH1 0x20 DUP3 ADD SWAP1 POP SWAP2 SWAP1 POP JUMP JUMPDEST PUSH0 PUSH1 0x20 DUP3 ADD SWAP1 POP DUP2 DUP2 SUB PUSH0 DUP4 ADD MSTORE PUSH2 0x3398 DUP2 PUSH2 0x335F JUMP JUMPDEST SWAP1 POP SWAP2 SWAP1 POP JUMP JUMPDEST PUSH32 0x4E4F5F4445425400000000000000000000000000000000000000000000000000 PUSH0 DUP3 ADD MSTORE POP JUMP JUMPDEST PUSH0 PUSH2 0x33D3 PUSH1 0x7 DUP4 PUSH2 0x2F90 JUMP JUMPDEST SWAP2 POP PUSH2 0x33DE DUP3 PUSH2 0x339F JUMP JUMPDEST PUSH1 0x20 DUP3 ADD SWAP1 POP SWAP2 SWAP1 POP JUMP JUMPDEST PUSH0 PUSH1 0x20 DUP3 ADD SWAP1 POP DUP2 DUP2 SUB PUSH0 DUP4 ADD MSTORE PUSH2 0x3400 DUP2 PUSH2 0x33C7 JUMP JUMPDEST SWAP1 POP SWAP2 SWAP1 POP JUMP JUMPDEST PUSH32 0x4E487B7100000000000000000000000000000000000000000000000000000000 PUSH0 MSTORE PUSH1 0x11 PUSH1 0x4 MSTORE PUSH1 0x24 PUSH0 REVERT JUMPDEST PUSH0 PUSH2 0x343E DUP3 PUSH2 0x2E6A JUMP JUMPDEST SWAP2 POP PUSH2 0x3449 DUP4 PUSH2 0x2E6A JUMP JUMPDEST SWAP3 POP DUP3 DUP3 MUL PUSH2 0x3457 DUP2 PUSH2 0x2E6A JUMP JUMPDEST SWAP2 POP DUP3 DUP3 DIV DUP5 EQ DUP4 ISZERO OR PUSH2 0x346E JUMPI PUSH2 0x346D PUSH2 0x3407 JUMP JUMPDEST JUMPDEST POP SWAP3 SWAP2 POP POP JUMP JUMPDEST PUSH32 0x4E487B7100000000000000000000000000000000000000000000000000000000 PUSH0 MSTORE PUSH1 0x12 PUSH1 0x4 MSTORE PUSH1 0x24 PUSH0 REVERT JUMPDEST PUSH0 PUSH2 0x34AC DUP3 PUSH2 0x2E6A JUMP JUMPDEST SWAP2 POP PUSH2 0x34B7 DUP4 PUSH2 0x2E6A JUMP JUMPDEST SWAP3 POP DUP3 PUSH2 0x34C7 JUMPI PUSH2 0x34C6 PUSH2 0x3475 JUMP JUMPDEST JUMPDEST DUP3 DUP3 DIV SWAP1 POP SWAP3 SWAP2 POP POP JUMP JUMPDEST PUSH0 PUSH2 0x34DC DUP3 PUSH2 0x2E6A JUMP JUMPDEST SWAP2 POP PUSH2 0x34E7 DUP4 PUSH2 0x2E6A JUMP JUMPDEST SWAP3 POP DUP3 DUP3 SUB SWAP1 POP DUP2 DUP2 GT ISZERO PUSH2 0x34FF JUMPI PUSH2 0x34FE PUSH2 0x3407 JUMP JUMPDEST JUMPDEST SWAP3 SWAP2 POP POP JUMP JUMPDEST PUSH0 PUSH1 0x40 DUP3 ADD SWAP1 POP PUSH2 0x3518 PUSH0 DUP4 ADD DUP6 PUSH2 0x2F5E JUMP JUMPDEST PUSH2 0x3525 PUSH1 0x20 DUP4 ADD DUP5 PUSH2 0x2E73 JUMP JUMPDEST SWAP4 SWAP3 POP POP POP JUMP JUMPDEST PUSH0 DUP2 ISZERO ISZERO SWAP1 POP SWAP2 SWAP1 POP JUMP JUMPDEST PUSH2 0x3540 DUP2 PUSH2 0x352C JUMP JUMPDEST DUP2 EQ PUSH2 0x354A JUMPI PUSH0 PUSH0 REVERT JUMPDEST POP JUMP JUMPDEST PUSH0 DUP2 MLOAD SWAP1 POP PUSH2 0x355B DUP2 PUSH2 0x3537 JUMP JUMPDEST SWAP3 SWAP2 POP POP JUMP JUMPDEST PUSH0 PUSH1 0x20 DUP3 DUP5 SUB SLT ISZERO PUSH2 0x3576 JUMPI PUSH2 0x3575 PUSH2 0x2E9B JUMP JUMPDEST JUMPDEST PUSH0 PUSH2 0x3583 DUP5 DUP3 DUP6 ADD PUSH2 0x354D JUMP JUMPDEST SWAP2 POP POP SWAP3 SWAP2 POP POP JUMP JUMPDEST PUSH0 PUSH1 0x40 DUP3 ADD SWAP1 POP PUSH2 0x359F PUSH0 DUP4 ADD DUP6 PUSH2 0x2E73 JUMP JUMPDEST PUSH2 0x35AC PUSH1 0x20 DUP4 ADD DUP5 PUSH2 0x2E73 JUMP JUMPDEST SWAP4 SWAP3 POP POP POP JUMP JUMPDEST PUSH32 0x4E4F545F44454C454741544543414C4C00000000000000000000000000000000 PUSH0 DUP3 ADD MSTORE POP JUMP JUMPDEST PUSH0 PUSH2 0x35E7 PUSH1 0x10 DUP4 PUSH2 0x2F90 JUMP JUMPDEST SWAP2 POP PUSH2 0x35F2 DUP3 PUSH2 0x35B3 JUMP JUMPDEST PUSH1 0x20 DUP3 ADD SWAP1 POP SWAP2 SWAP1 POP JUMP JUMPDEST PUSH0 PUSH1 0x20 DUP3 ADD SWAP1 POP DUP2 DUP2 SUB PUSH0 DUP4 ADD MSTORE PUSH2 0x3614 DUP2 PUSH2 0x35DB JUMP JUMPDEST SWAP1 POP SWAP2 SWAP1 POP JUMP JUMPDEST PUSH32 0x494E4143544956455F50524F5859000000000000000000000000000000000000 PUSH0 DUP3 ADD MSTORE POP JUMP JUMPDEST PUSH0 PUSH2 0x364F PUSH1 0xE DUP4 PUSH2 0x2F90 JUMP JUMPDEST SWAP2 POP PUSH2 0x365A DUP3 PUSH2 0x361B JUMP JUMPDEST PUSH1 0x20 DUP3 ADD SWAP1 POP SWAP2 SWAP1 POP JUMP JUMPDEST PUSH0 PUSH1 0x20 DUP3 ADD SWAP1 POP DUP2 DUP2 SUB PUSH0 DUP4 ADD MSTORE PUSH2 0x367C DUP2 PUSH2 0x3643 JUMP JUMPDEST SWAP1 POP SWAP2 SWAP1 POP JUMP JUMPDEST PUSH32 0x5A45524F5F414D4F554E54000000000000000000000000000000000000000000 PUSH0 DUP3 ADD MSTORE POP JUMP JUMPDEST PUSH0 PUSH2 0x36B7 PUSH1 0xB DUP4 PUSH2 0x2F90 JUMP JUMPDEST SWAP2 POP PUSH2 0x36C2 DUP3 PUSH2 0x3683 JUMP JUMPDEST PUSH1 0x20 DUP3 ADD SWAP1 POP SWAP2 SWAP1 POP JUMP JUMPDEST PUSH0 PUSH1 0x20 DUP3 ADD SWAP1 POP DUP2 DUP2 SUB PUSH0 DUP4 ADD MSTORE PUSH2 0x36E4 DUP2 PUSH2 0x36AB JUMP JUMPDEST SWAP1 POP SWAP2 SWAP1 POP JUMP JUMPDEST PUSH0 PUSH1 0x60 DUP3 ADD SWAP1 POP PUSH2 0x36FE PUSH0 DUP4 ADD DUP7 PUSH2 0x2F5E JUMP JUMPDEST PUSH2 0x370B PUSH1 0x20 DUP4 ADD DUP6 PUSH2 0x2F5E JUMP JUMPDEST PUSH2 0x3718 PUSH1 0x40 DUP4 ADD DUP5 PUSH2 0x2E73 JUMP JUMPDEST SWAP5 SWAP4 POP POP POP POP JUMP JUMPDEST PUSH0 PUSH2 0x372A DUP3 PUSH2 0x2E6A JUMP JUMPDEST SWAP2 POP PUSH2 0x3735 DUP4 PUSH2 0x2E6A JUMP JUMPDEST SWAP3 POP DUP3 DUP3 ADD SWAP1 POP DUP1 DUP3 GT ISZERO PUSH2 0x374D JUMPI PUSH2 0x374C PUSH2 0x3407 JUMP JUMPDEST JUMPDEST SWAP3 SWAP2 POP POP JUMP JUMPDEST PUSH32 0x4E4F545F5641554C540000000000000000000000000000000000000000000000 PUSH0 DUP3 ADD MSTORE POP JUMP JUMPDEST PUSH0 PUSH2 0x3787 PUSH1 0x9 DUP4 PUSH2 0x2F90 JUMP JUMPDEST SWAP2 POP PUSH2 0x3792 DUP3 PUSH2 0x3753 JUMP JUMPDEST PUSH1 0x20 DUP3 ADD SWAP1 POP SWAP2 SWAP1 POP JUMP JUMPDEST PUSH0 PUSH1 0x20 DUP3 ADD SWAP1 POP DUP2 DUP2 SUB PUSH0 DUP4 ADD MSTORE PUSH2 0x37B4 DUP2 PUSH2 0x377B JUMP JUMPDEST SWAP1 POP SWAP2 SWAP1 POP JUMP JUMPDEST PUSH32 0x494E53554646494349454E545F4C495155494449545900000000000000000000 PUSH0 DUP3 ADD MSTORE POP JUMP JUMPDEST PUSH0 PUSH2 0x37EF PUSH1 0x16 DUP4 PUSH2 0x2F90 JUMP JUMPDEST SWAP2 POP PUSH2 0x37FA DUP3 PUSH2 0x37BB JUMP JUMPDEST PUSH1 0x20 DUP3 ADD SWAP1 POP SWAP2 SWAP1 POP JUMP JUMPDEST PUSH0 PUSH1 0x20 DUP3 ADD SWAP1 POP DUP2 DUP2 SUB PUSH0 DUP4 ADD MSTORE PUSH2 0x381C DUP2 PUSH2 0x37E3 JUMP JUMPDEST SWAP1 POP SWAP2 SWAP1 POP JUMP JUMPDEST PUSH32 0x4E487B7100000000000000000000000000000000000000000000000000000000 PUSH0 MSTORE PUSH1 0x22 PUSH1 0x4 MSTORE PUSH1 0x24 PUSH0 REVERT JUMPDEST PUSH0 PUSH1 0x2 DUP3 DIV SWAP1 POP PUSH1 0x1 DUP3 AND DUP1 PUSH2 0x3867 JUMPI PUSH1 0x7F DUP3 AND SWAP2 POP JUMPDEST PUSH1 0x20 DUP3 LT DUP2 SUB PUSH2 0x387A JUMPI PUSH2 0x3879 PUSH2 0x3823 JUMP JUMPDEST JUMPDEST POP SWAP2 SWAP1 POP JUMP JUMPDEST PUSH32 0x4F4E4C595F494D504C454D454E544154494F4E00000000000000000000000000 PUSH0 DUP3 ADD MSTORE POP JUMP JUMPDEST PUSH0 PUSH2 0x38B4 PUSH1 0x13 DUP4 PUSH2 0x2F90 JUMP JUMPDEST SWAP2 POP PUSH2 0x38BF DUP3 PUSH2 0x3880 JUMP JUMPDEST PUSH1 0x20 DUP3 ADD SWAP1 POP SWAP2 SWAP1 POP JUMP JUMPDEST PUSH0 PUSH1 0x20 DUP3 ADD SWAP1 POP DUP2 DUP2 SUB PUSH0 DUP4 ADD MSTORE PUSH2 0x38E1 DUP2 PUSH2 0x38A8 JUMP JUMPDEST SWAP1 POP SWAP2 SWAP1 POP JUMP JUMPDEST PUSH32 0x455843454544535F434F4C4C41544552414C0000000000000000000000000000 PUSH0 DUP3 ADD MSTORE POP JUMP JUMPDEST PUSH0 PUSH2 0x391C PUSH1 0x12 DUP4 PUSH2 0x2F90 JUMP JUMPDEST SWAP2 POP PUSH2 0x3927 DUP3 PUSH2 0x38E8 JUMP JUMPDEST PUSH1 0x20 DUP3 ADD SWAP1 POP SWAP2 SWAP1 POP JUMP JUMPDEST PUSH0 PUSH1 0x20 DUP3 ADD SWAP1 POP DUP2 DUP2 SUB PUSH0 DUP4 ADD MSTORE PUSH2 0x3949 DUP2 PUSH2 0x3910 JUMP JUMPDEST SWAP1 POP SWAP2 SWAP1 POP JUMP JUMPDEST PUSH32 0x574F554C445F42455F4C4951554944415441424C450000000000000000000000 PUSH0 DUP3 ADD MSTORE POP JUMP JUMPDEST PUSH0 PUSH2 0x3984 PUSH1 0x15 DUP4 PUSH2 0x2F90 JUMP JUMPDEST SWAP2 POP PUSH2 0x398F DUP3 PUSH2 0x3950 JUMP JUMPDEST PUSH1 0x20 DUP3 ADD SWAP1 POP SWAP2 SWAP1 POP JUMP JUMPDEST PUSH0 PUSH1 0x20 DUP3 ADD SWAP1 POP DUP2 DUP2 SUB PUSH0 DUP4 ADD MSTORE PUSH2 0x39B1 DUP2 PUSH2 0x3978 JUMP JUMPDEST SWAP1 POP SWAP2 SWAP1 POP JUMP JUMPDEST PUSH0 DUP2 MLOAD SWAP1 POP PUSH2 0x39C6 DUP2 PUSH2 0x2F09 JUMP JUMPDEST SWAP3 SWAP2 POP POP JUMP JUMPDEST PUSH0 PUSH1 0x20 DUP3 DUP5 SUB SLT ISZERO PUSH2 0x39E1 JUMPI PUSH2 0x39E0 PUSH2 0x2E9B JUMP JUMPDEST JUMPDEST PUSH0 PUSH2 0x39EE DUP5 DUP3 DUP6 ADD PUSH2 0x39B8 JUMP JUMPDEST SWAP2 POP POP SWAP3 SWAP2 POP POP JUMP JUMPDEST PUSH32 0x414C52454144595F494E495449414C495A454400000000000000000000000000 PUSH0 DUP3 ADD MSTORE POP JUMP JUMPDEST PUSH0 PUSH2 0x3A2B PUSH1 0x13 DUP4 PUSH2 0x2F90 JUMP JUMPDEST SWAP2 POP PUSH2 0x3A36 DUP3 PUSH2 0x39F7 JUMP JUMPDEST PUSH1 0x20 DUP3 ADD SWAP1 POP SWAP2 SWAP1 POP JUMP JUMPDEST PUSH0 PUSH1 0x20 DUP3 ADD SWAP1 POP DUP2 DUP2 SUB PUSH0 DUP4 ADD MSTORE PUSH2 0x3A58 DUP2 PUSH2 0x3A1F JUMP JUMPDEST SWAP1 POP SWAP2 SWAP1 POP JUMP JUMPDEST PUSH32 0x5A45524F5F5641554C5400000000000000000000000000000000000000000000 PUSH0 DUP3 ADD MSTORE POP JUMP JUMPDEST PUSH0 PUSH2 0x3A93 PUSH1 0xA DUP4 PUSH2 0x2F90 JUMP JUMPDEST SWAP2 POP PUSH2 0x3A9E DUP3 PUSH2 0x3A5F JUMP JUMPDEST PUSH1 0x20 DUP3 ADD SWAP1 POP SWAP2 SWAP1 POP JUMP JUMPDEST PUSH0 PUSH1 0x20 DUP3 ADD SWAP1 POP DUP2 DUP2 SUB PUSH0 DUP4 ADD MSTORE PUSH2 0x3AC0 DUP2 PUSH2 0x3A87 JUMP JUMPDEST SWAP1 POP SWAP2 SWAP1 POP JUMP JUMPDEST PUSH32 0x5A45524F5F4C4F414E0000000000000000000000000000000000000000000000 PUSH0 DUP3 ADD MSTORE POP JUMP JUMPDEST PUSH0 PUSH2 0x3AFB PUSH1 0x9 DUP4 PUSH2 0x2F90 JUMP JUMPDEST SWAP2 POP PUSH2 0x3B06 DUP3 PUSH2 0x3AC7 JUMP JUMPDEST PUSH1 0x20 DUP3 ADD SWAP1 POP SWAP2 SWAP1 POP JUMP JUMPDEST PUSH0 PUSH1 0x20 DUP3 ADD SWAP1 POP DUP2 DUP2 SUB PUSH0 DUP4 ADD MSTORE PUSH2 0x3B28 DUP2 PUSH2 0x3AEF JUMP JUMPDEST SWAP1 POP SWAP2 SWAP1 POP JUMP JUMPDEST PUSH32 0x5A45524F5F434F4C4C41544552414C0000000000000000000000000000000000 PUSH0 DUP3 ADD MSTORE POP JUMP JUMPDEST PUSH0 PUSH2 0x3B63 PUSH1 0xF DUP4 PUSH2 0x2F90 JUMP JUMPDEST SWAP2 POP PUSH2 0x3B6E DUP3 PUSH2 0x3B2F JUMP JUMPDEST PUSH1 0x20 DUP3 ADD SWAP1 POP SWAP2 SWAP1 POP JUMP JUMPDEST PUSH0 PUSH1 0x20 DUP3 ADD SWAP1 POP DUP2 DUP2 SUB PUSH0 DUP4 ADD MSTORE PUSH2 0x3B90 DUP2 PUSH2 0x3B57 JUMP JUMPDEST SWAP1 POP SWAP2 SWAP1 POP JUMP JUMPDEST PUSH32 0x5A45524F5F4F5241434C45000000000000000000000000000000000000000000 PUSH0 DUP3 ADD MSTORE POP JUMP JUMPDEST PUSH0 PUSH2 0x3BCB PUSH1 0xB DUP4 PUSH2 0x2F90 JUMP JUMPDEST SWAP2 POP PUSH2 0x3BD6 DUP3 PUSH2 0x3B97 JUMP JUMPDEST PUSH1 0x20 DUP3 ADD SWAP1 POP SWAP2 SWAP1 POP JUMP JUMPDEST PUSH0 PUSH1 0x20 DUP3 ADD SWAP1 POP DUP2 DUP2 SUB PUSH0 DUP4 ADD MSTORE PUSH2 0x3BF8 DUP2 PUSH2 0x3BBF JUMP JUMPDEST SWAP1 POP SWAP2 SWAP1 POP JUMP JUMPDEST PUSH32 0x5A45524F5F545245415355525900000000000000000000000000000000000000 PUSH0 DUP3 ADD MSTORE POP JUMP JUMPDEST PUSH0 PUSH2 0x3C33 PUSH1 0xD DUP4 PUSH2 0x2F90 JUMP JUMPDEST SWAP2 POP PUSH2 0x3C3E DUP3 PUSH2 0x3BFF JUMP JUMPDEST PUSH1 0x20 DUP3 ADD SWAP1 POP SWAP2 SWAP1 POP JUMP JUMPDEST PUSH0 PUSH1 0x20 DUP3 ADD SWAP1 POP DUP2 DUP2 SUB PUSH0 DUP4 ADD MSTORE PUSH2 0x3C60 DUP2 PUSH2 0x3C27 JUMP JUMPDEST SWAP1 POP SWAP2 SWAP1 POP JUMP JUMPDEST PUSH32 0x5A45524F5F425059000000000000000000000000000000000000000000000000 PUSH0 DUP3 ADD MSTORE POP JUMP JUMPDEST PUSH0 PUSH2 0x3C9B PUSH1 0x8 DUP4 PUSH2 0x2F90 JUMP JUMPDEST SWAP2 POP PUSH2 0x3CA6 DUP3 PUSH2 0x3C67 JUMP JUMPDEST PUSH1 0x20 DUP3 ADD SWAP1 POP SWAP2 SWAP1 POP JUMP JUMPDEST PUSH0 PUSH1 0x20 DUP3 ADD SWAP1 POP DUP2 DUP2 SUB PUSH0 DUP4 ADD MSTORE PUSH2 0x3CC8 DUP2 PUSH2 0x3C8F JUMP JUMPDEST SWAP1 POP SWAP2 SWAP1 POP JUMP JUMPDEST PUSH32 0x4241445F4C4C5456000000000000000000000000000000000000000000000000 PUSH0 DUP3 ADD MSTORE POP JUMP JUMPDEST PUSH0 PUSH2 0x3D03 PUSH1 0x8 DUP4 PUSH2 0x2F90 JUMP JUMPDEST SWAP2 POP PUSH2 0x3D0E DUP3 PUSH2 0x3CCF JUMP JUMPDEST PUSH1 0x20 DUP3 ADD SWAP1 POP SWAP2 SWAP1 POP JUMP JUMPDEST PUSH0 PUSH1 0x20 DUP3 ADD SWAP1 POP DUP2 DUP2 SUB PUSH0 DUP4 ADD MSTORE PUSH2 0x3D30 DUP2 PUSH2 0x3CF7 JUMP JUMPDEST SWAP1 POP SWAP2 SWAP1 POP JUMP JUMPDEST PUSH32 0x4241445F4C49515F424F4E555300000000000000000000000000000000000000 PUSH0 DUP3 ADD MSTORE POP JUMP JUMPDEST PUSH0 PUSH2 0x3D6B PUSH1 0xD DUP4 PUSH2 0x2F90 JUMP JUMPDEST SWAP2 POP PUSH2 0x3D76 DUP3 PUSH2 0x3D37 JUMP JUMPDEST PUSH1 0x20 DUP3 ADD SWAP1 POP SWAP2 SWAP1 POP JUMP JUMPDEST PUSH0 PUSH1 0x20 DUP3 ADD SWAP1 POP DUP2 DUP2 SUB PUSH0 DUP4 ADD MSTORE PUSH2 0x3D98 DUP2 PUSH2 0x3D5F JUMP JUMPDEST SWAP1 POP SWAP2 SWAP1 POP JUMP JUMPDEST PUSH0 DUP3 SWAP1 POP SWAP3 SWAP2 POP POP JUMP JUMPDEST PUSH32 0x4E487B7100000000000000000000000000000000000000000000000000000000 PUSH0 MSTORE PUSH1 0x41 PUSH1 0x4 MSTORE PUSH1 0x24 PUSH0 REVERT JUMPDEST PUSH0 DUP2 SWAP1 POP DUP2 PUSH0 MSTORE PUSH1 0x20 PUSH0 KECCAK256 SWAP1 POP SWAP2 SWAP1 POP JUMP JUMPDEST PUSH0 PUSH1 0x20 PUSH1 0x1F DUP4 ADD DIV SWAP1 POP SWAP2 SWAP1 POP JUMP JUMPDEST PUSH0 DUP3 DUP3 SHL SWAP1 POP SWAP3 SWAP2 POP POP JUMP JUMPDEST PUSH0 PUSH1 0x8 DUP4 MUL PUSH2 0x3E32 PUSH32 0xFFFFFFFFFFFFFFFFFFFFFFFFFFFFFFFFFFFFFFFFFFFFFFFFFFFFFFFFFFFFFFFF DUP3 PUSH2 0x3DF7 JUMP JUMPDEST PUSH2 0x3E3C DUP7 DUP4 PUSH2 0x3DF7 JUMP JUMPDEST SWAP6 POP DUP1 NOT DUP5 AND SWAP4 POP DUP1 DUP7 AND DUP5 OR SWAP3 POP POP POP SWAP4 SWAP3 POP POP POP JUMP JUMPDEST PUSH0 PUSH2 0x3E6E PUSH2 0x3E69 PUSH2 0x3E64 DUP5 PUSH2 0x2E6A JUMP JUMPDEST PUSH2 0x2DF6 JUMP JUMPDEST PUSH2 0x2E6A JUMP JUMPDEST SWAP1 POP SWAP2 SWAP1 POP JUMP JUMPDEST PUSH0 DUP2 SWAP1 POP SWAP2 SWAP1 POP JUMP JUMPDEST PUSH2 0x3E87 DUP4 PUSH2 0x3E54 JUMP JUMPDEST PUSH2 0x3E9B PUSH2 0x3E93 DUP3 PUSH2 0x3E75 JUMP JUMPDEST DUP5 DUP5 SLOAD PUSH2 0x3E03 JUMP JUMPDEST DUP3 SSTORE POP POP POP POP JUMP JUMPDEST PUSH0 PUSH0 SWAP1 POP SWAP1 JUMP JUMPDEST PUSH2 0x3EB2 PUSH2 0x3EA3 JUMP JUMPDEST PUSH2 0x3EBD DUP2 DUP5 DUP5 PUSH2 0x3E7E JUMP JUMPDEST POP POP POP JUMP JUMPDEST JUMPDEST DUP2 DUP2 LT ISZERO PUSH2 0x3EE0 JUMPI PUSH2 0x3ED5 PUSH0 DUP3 PUSH2 0x3EAA JUMP JUMPDEST PUSH1 0x1 DUP2 ADD SWAP1 POP PUSH2 0x3EC3 JUMP JUMPDEST POP POP JUMP JUMPDEST PUSH1 0x1F DUP3 GT ISZERO PUSH2 0x3F25 JUMPI PUSH2 0x3EF6 DUP2 PUSH2 0x3DD6 JUMP JUMPDEST PUSH2 0x3EFF DUP5 PUSH2 0x3DE8 JUMP JUMPDEST DUP2 ADD PUSH1 0x20 DUP6 LT ISZERO PUSH2 0x3F0E JUMPI DUP2 SWAP1 POP JUMPDEST PUSH2 0x3F22 PUSH2 0x3F1A DUP6 PUSH2 0x3DE8 JUMP JUMPDEST DUP4 ADD DUP3 PUSH2 0x3EC2 JUMP JUMPDEST POP POP JUMPDEST POP POP POP JUMP JUMPDEST PUSH0 DUP3 DUP3 SHR SWAP1 POP SWAP3 SWAP2 POP POP JUMP JUMPDEST PUSH0 PUSH2 0x3F45 PUSH0 NOT DUP5 PUSH1 0x8 MUL PUSH2 0x3F2A JUMP JUMPDEST NOT DUP1 DUP4 AND SWAP2 POP POP SWAP3 SWAP2 POP POP JUMP JUMPDEST PUSH0 PUSH2 0x3F5D DUP4 DUP4 PUSH2 0x3F36 JUMP JUMPDEST SWAP2 POP DUP3 PUSH1 0x2 MUL DUP3 OR SWAP1 POP SWAP3 SWAP2 POP POP JUMP JUMPDEST PUSH2 0x3F77 DUP4 DUP4 PUSH2 0x3D9F JUMP JUMPDEST PUSH8 0xFFFFFFFFFFFFFFFF DUP2 GT ISZERO PUSH2 0x3F90 JUMPI PUSH2 0x3F8F PUSH2 0x3DA9 JUMP JUMPDEST JUMPDEST PUSH2 0x3F9A DUP3 SLOAD PUSH2 0x3850 JUMP JUMPDEST PUSH2 0x3FA5 DUP3 DUP3 DUP6 PUSH2 0x3EE4 JUMP JUMPDEST PUSH0 PUSH1 0x1F DUP4 GT PUSH1 0x1 DUP2 EQ PUSH2 0x3FD2 JUMPI PUSH0 DUP5 ISZERO PUSH2 0x3FC0 JUMPI DUP3 DUP8 ADD CALLDATALOAD SWAP1 POP JUMPDEST PUSH2 0x3FCA DUP6 DUP3 PUSH2 0x3F52 JUMP JUMPDEST DUP7 SSTORE POP PUSH2 0x4031 JUMP JUMPDEST PUSH1 0x1F NOT DUP5 AND PUSH2 0x3FE0 DUP7 PUSH2 0x3DD6 JUMP JUMPDEST PUSH0 JUMPDEST DUP3 DUP2 LT ISZERO PUSH2 0x4007 JUMPI DUP5 DUP10 ADD CALLDATALOAD DUP3 SSTORE PUSH1 0x1 DUP3 ADD SWAP2 POP PUSH1 0x20 DUP6 ADD SWAP5 POP PUSH1 0x20 DUP2 ADD SWAP1 POP PUSH2 0x3FE2 JUMP JUMPDEST DUP7 DUP4 LT ISZERO PUSH2 0x4024 JUMPI DUP5 DUP10 ADD CALLDATALOAD PUSH2 0x4020 PUSH1 0x1F DUP10 AND DUP3 PUSH2 0x3F36 JUMP JUMPDEST DUP4 SSTORE POP JUMPDEST PUSH1 0x1 PUSH1 0x2 DUP9 MUL ADD DUP9 SSTORE POP POP POP JUMPDEST POP POP POP POP POP POP POP JUMP JUMPDEST PUSH32 0x424F52524F575F425245414B535F4C4C54560000000000000000000000000000 PUSH0 DUP3 ADD MSTORE POP JUMP JUMPDEST PUSH0 PUSH2 0x406E PUSH1 0x12 DUP4 PUSH2 0x2F90 JUMP JUMPDEST SWAP2 POP PUSH2 0x4079 DUP3 PUSH2 0x403A JUMP JUMPDEST PUSH1 0x20 DUP3 ADD SWAP1 POP SWAP2 SWAP1 POP JUMP JUMPDEST PUSH0 PUSH1 0x20 DUP3 ADD SWAP1 POP DUP2 DUP2 SUB PUSH0 DUP4 ADD MSTORE PUSH2 0x409B DUP2 PUSH2 0x4062 JUMP JUMPDEST SWAP1 POP SWAP2 SWAP1 POP JUMP JUMPDEST PUSH32 0x5A45524F5F494D504C0000000000000000000000000000000000000000000000 PUSH0 DUP3 ADD MSTORE POP JUMP JUMPDEST PUSH0 PUSH2 0x40D6 PUSH1 0x9 DUP4 PUSH2 0x2F90 JUMP JUMPDEST SWAP2 POP PUSH2 0x40E1 DUP3 PUSH2 0x40A2 JUMP JUMPDEST PUSH1 0x20 DUP3 ADD SWAP1 POP SWAP2 SWAP1 POP JUMP JUMPDEST PUSH0 PUSH1 0x20 DUP3 ADD SWAP1 POP DUP2 DUP2 SUB PUSH0 DUP4 ADD MSTORE PUSH2 0x4103 DUP2 PUSH2 0x40CA JUMP JUMPDEST SWAP1 POP SWAP2 SWAP1 POP JUMP JUMPDEST PUSH0 DUP2 MLOAD SWAP1 POP SWAP2 SWAP1 POP JUMP JUMPDEST PUSH0 DUP2 SWAP1 POP SWAP3 SWAP2 POP POP JUMP JUMPDEST PUSH0 PUSH2 0x4128 DUP3 PUSH2 0x410A JUMP JUMPDEST PUSH2 0x4132 DUP2 DUP6 PUSH2 0x4114 JUMP JUMPDEST SWAP4 POP PUSH2 0x4142 DUP2 DUP6 PUSH1 0x20 DUP7 ADD PUSH2 0x2FA0 JUMP JUMPDEST DUP1 DUP5 ADD SWAP2 POP POP SWAP3 SWAP2 POP POP JUMP JUMPDEST PUSH0 PUSH2 0x4159 DUP3 DUP5 PUSH2 0x411E JUMP JUMPDEST SWAP2 POP DUP2 SWAP1 POP SWAP3 SWAP2 POP POP JUMP JUMPDEST PUSH0 PUSH1 0xFF DUP3 AND SWAP1 POP SWAP2 SWAP1 POP JUMP JUMPDEST PUSH2 0x4179 DUP2 PUSH2 0x4164 JUMP JUMPDEST DUP2 EQ PUSH2 0x4183 JUMPI PUSH0 PUSH0 REVERT JUMPDEST POP JUMP JUMPDEST PUSH0 DUP2 MLOAD SWAP1 POP PUSH2 0x4194 DUP2 PUSH2 0x4170 JUMP JUMPDEST SWAP3 SWAP2 POP POP JUMP JUMPDEST PUSH0 PUSH1 0x20 DUP3 DUP5 SUB SLT ISZERO PUSH2 0x41AF JUMPI PUSH2 0x41AE PUSH2 0x2E9B JUMP JUMPDEST JUMPDEST PUSH0 PUSH2 0x41BC DUP5 DUP3 DUP6 ADD PUSH2 0x4186 JUMP JUMPDEST SWAP2 POP POP SWAP3 SWAP2 POP POP JUMP JUMPDEST PUSH0 DUP2 PUSH1 0x1 SHR SWAP1 POP SWAP2 SWAP1 POP JUMP JUMPDEST PUSH0 PUSH0 DUP3 SWAP2 POP DUP4 SWAP1 POP JUMPDEST PUSH1 0x1 DUP6 GT ISZERO PUSH2 0x421A JUMPI DUP1 DUP7 DIV DUP2 GT ISZERO PUSH2 0x41F6 JUMPI PUSH2 0x41F5 PUSH2 0x3407 JUMP JUMPDEST JUMPDEST PUSH1 0x1 DUP6 AND ISZERO PUSH2 0x4205 JUMPI DUP1 DUP3 MUL SWAP2 POP JUMPDEST DUP1 DUP2 MUL SWAP1 POP PUSH2 0x4213 DUP6 PUSH2 0x41C5 JUMP JUMPDEST SWAP5 POP PUSH2 0x41DA JUMP JUMPDEST SWAP5 POP SWAP5 SWAP3 POP POP POP JUMP JUMPDEST PUSH0 DUP3 PUSH2 0x4232 JUMPI PUSH1 0x1 SWAP1 POP PUSH2 0x42ED JUMP JUMPDEST DUP2 PUSH2 0x423F JUMPI PUSH0 SWAP1 POP PUSH2 0x42ED JUMP JUMPDEST DUP2 PUSH1 0x1 DUP2 EQ PUSH2 0x4255 JUMPI PUSH1 0x2 DUP2 EQ PUSH2 0x425F JUMPI PUSH2 0x428E JUMP JUMPDEST PUSH1 0x1 SWAP2 POP POP PUSH2 0x42ED JUMP JUMPDEST PUSH1 0xFF DUP5 GT ISZERO PUSH2 0x4271 JUMPI PUSH2 0x4270 PUSH2 0x3407 JUMP JUMPDEST JUMPDEST DUP4 PUSH1 0x2 EXP SWAP2 POP DUP5 DUP3 GT ISZERO PUSH2 0x4288 JUMPI PUSH2 0x4287 PUSH2 0x3407 JUMP JUMPDEST JUMPDEST POP PUSH2 0x42ED JUMP JUMPDEST POP PUSH1 0x20 DUP4 LT PUSH2 0x133 DUP4 LT AND PUSH1 0x4E DUP5 LT PUSH1 0xB DUP5 LT AND OR ISZERO PUSH2 0x42C3 JUMPI DUP3 DUP3 EXP SWAP1 POP DUP4 DUP2 GT ISZERO PUSH2 0x42BE JUMPI PUSH2 0x42BD PUSH2 0x3407 JUMP JUMPDEST JUMPDEST PUSH2 0x42ED JUMP JUMPDEST PUSH2 0x42D0 DUP5 DUP5 DUP5 PUSH1 0x1 PUSH2 0x41D1 JUMP JUMPDEST SWAP3 POP SWAP1 POP DUP2 DUP5 DIV DUP2 GT ISZERO PUSH2 0x42E7 JUMPI PUSH2 0x42E6 PUSH2 0x3407 JUMP JUMPDEST JUMPDEST DUP2 DUP2 MUL SWAP1 POP JUMPDEST SWAP4 SWAP3 POP POP POP JUMP JUMPDEST PUSH0 PUSH2 0x42FE DUP3 PUSH2 0x2E6A JUMP JUMPDEST SWAP2 POP PUSH2 0x4309 DUP4 PUSH2 0x4164 JUMP JUMPDEST SWAP3 POP PUSH2 0x4336 PUSH32 0xFFFFFFFFFFFFFFFFFFFFFFFFFFFFFFFFFFFFFFFFFFFFFFFFFFFFFFFFFFFFFFFF DUP5 DUP5 PUSH2 0x4223 JUMP JUMPDEST SWAP1 POP SWAP3 SWAP2 POP POP JUMP INVALID LOG2 PUSH5 0x6970667358 0x22 SLT KECCAK256 0x29 SWAP15 LOG4 0xEF PUSH14 0x344E1FF26CA01F052C6064432866 DUP8 0xF6 0xD9 TLOAD 0xC2 DUP14 0x2C SWAP16 SELFDESTRUCT 0xFC MLOAD DUP8 0x29 PUSH5 0x736F6C6343 STOP ADDMOD 0x1E STOP CALLER "
		},
		"gasEstimates": {
			"creation": {
				"codeDepositCost": "3453600",
				"executionCost": "infinite",
				"totalCost": "infinite"
			},
			"external": {
				"INDEX_SCALE()": "438",
				"accrueInterest()": "infinite",
				"assetManage()": "infinite",
				"availableLiquidity()": "infinite",
				"blocksPerYear()": "2492",
				"borrow(uint256)": "infinite",
				"borrowIndex()": "2536",
				"collateralToken()": "infinite",
				"currentLtvBps(address)": "infinite",
				"debtOf(address)": "infinite",
				"healthFactor(address)": "infinite",
				"initialize((address,address,address,address,address,address,address,uint256,uint256,uint256,uint256),string,string)": "infinite",
				"interestRate()": "2537",
				"lastAccrueBlock()": "2560",
				"liquidate(address)": "infinite",
				"liquidationBonusBps()": "2516",
				"liquidator()": "2576",
				"lltvBps()": "2492",
				"loanToken()": "infinite",
				"onVaultDeposit(uint256)": "2964",
				"onVaultWithdraw(uint256)": "infinite",
				"oracle()": "infinite",
				"owner()": "2603",
				"ownershipTransfer(address)": "27084",
				"positions(address)": "infinite",
				"protocolFeeBps()": "2493",
				"protocolReserves()": "2513",
				"proxiableUUID()": "infinite",
				"repay(uint256)": "infinite",
				"setRiskParams(uint256,uint256,uint256)": "infinite",
				"shareName()": "infinite",
				"supplyCollateral(uint256)": "infinite",
				"title()": "infinite",
				"totalBorrowShares()": "2494",
				"totalDebt()": "infinite",
				"treasury()": "2619",
				"upgradeTo(address)": "infinite",
				"upgradeToAndCall(address,bytes)": "infinite",
				"vault()": "2618",
				"withdrawCollateral(uint256)": "infinite"
			},
			"internal": {
				"_authorizeUpgrade(address)": "2230",
				"_isHealthy(address)": "infinite",
				"_projectedBorrowIndex()": "infinite",
				"_sharesForBorrowAmount(uint256)": "infinite",
				"_tokenValue(uint256,address)": "infinite"
			}
		},
		"methodIdentifiers": {
			"INDEX_SCALE()": "27776ab5",
			"accrueInterest()": "a6afed95",
			"assetManage()": "c82f6d2f",
			"availableLiquidity()": "74375359",
			"blocksPerYear()": "a385fb96",
			"borrow(uint256)": "c5ebeaec",
			"borrowIndex()": "aa5af0fd",
			"collateralToken()": "b2016bd4",
			"currentLtvBps(address)": "6711a640",
			"debtOf(address)": "d283e75f",
			"healthFactor(address)": "6ad9f9df",
			"initialize((address,address,address,address,address,address,address,uint256,uint256,uint256,uint256),string,string)": "b1c0be34",
			"interestRate()": "7c3a00fd",
			"lastAccrueBlock()": "29962904",
			"liquidate(address)": "2f865568",
			"liquidationBonusBps()": "19970d8e",
			"liquidator()": "4046ebae",
			"lltvBps()": "b3604c96",
			"loanToken()": "06d37817",
			"onVaultDeposit(uint256)": "4b92917a",
			"onVaultWithdraw(uint256)": "3e3722b6",
			"oracle()": "7dc0d1d0",
			"owner()": "8da5cb5b",
			"ownershipTransfer(address)": "d3a417a2",
			"positions(address)": "55f57510",
			"protocolFeeBps()": "35659fb8",
			"protocolReserves()": "d681a449",
			"proxiableUUID()": "52d1902d",
			"repay(uint256)": "371fd8e6",
			"setRiskParams(uint256,uint256,uint256)": "ced65b01",
			"shareName()": "76e9790a",
			"supplyCollateral(uint256)": "367febea",
			"title()": "4a79d50c",
			"totalBorrowShares()": "136cf1f7",
			"totalDebt()": "fc7b9c18",
			"treasury()": "61d027b3",
			"upgradeTo(address)": "3659cfe6",
			"upgradeToAndCall(address,bytes)": "4f1ef286",
			"vault()": "fbfa77cf",
			"withdrawCollateral(uint256)": "6112fe2e"
		}
	},
	"abi": [
		{
			"anonymous": false,
			"inputs": [
				{
					"indexed": true,
					"internalType": "address",
					"name": "borrower",
					"type": "address"
				},
				{
					"indexed": true,
					"internalType": "address",
					"name": "liquidator_",
					"type": "address"
				},
				{
					"indexed": false,
					"internalType": "uint256",
					"name": "debt",
					"type": "uint256"
				},
				{
					"indexed": false,
					"internalType": "uint256",
					"name": "rewardCollateral",
					"type": "uint256"
				}
			],
			"name": "Liquidated",
			"type": "event"
		},
		{
			"inputs": [],
			"name": "INDEX_SCALE",
			"outputs": [
				{
					"internalType": "uint256",
					"name": "",
					"type": "uint256"
				}
			],
			"stateMutability": "view",
			"type": "function"
		},
		{
			"inputs": [],
			"name": "accrueInterest",
			"outputs": [],
			"stateMutability": "nonpayable",
			"type": "function"
		},
		{
			"inputs": [],
			"name": "assetManage",
			"outputs": [
				{
					"internalType": "uint256",
					"name": "",
					"type": "uint256"
				}
			],
			"stateMutability": "view",
			"type": "function"
		},
		{
			"inputs": [],
			"name": "availableLiquidity",
			"outputs": [
				{
					"internalType": "uint256",
					"name": "",
					"type": "uint256"
				}
			],
			"stateMutability": "view",
			"type": "function"
		},
		{
			"inputs": [],
			"name": "blocksPerYear",
			"outputs": [
				{
					"internalType": "uint256",
					"name": "",
					"type": "uint256"
				}
			],
			"stateMutability": "view",
			"type": "function"
		},
		{
			"inputs": [
				{
					"internalType": "uint256",
					"name": "amount",
					"type": "uint256"
				}
			],
			"name": "borrow",
			"outputs": [],
			"stateMutability": "nonpayable",
			"type": "function"
		},
		{
			"inputs": [],
			"name": "borrowIndex",
			"outputs": [
				{
					"internalType": "uint256",
					"name": "",
					"type": "uint256"
				}
			],
			"stateMutability": "view",
			"type": "function"
		},
		{
			"inputs": [],
			"name": "collateralToken",
			"outputs": [
				{
					"internalType": "contract IERC20",
					"name": "",
					"type": "address"
				}
			],
			"stateMutability": "view",
			"type": "function"
		},
		{
			"inputs": [
				{
					"internalType": "address",
					"name": "borrower",
					"type": "address"
				}
			],
			"name": "currentLtvBps",
			"outputs": [
				{
					"internalType": "uint256",
					"name": "",
					"type": "uint256"
				}
			],
			"stateMutability": "view",
			"type": "function"
		},
		{
			"inputs": [
				{
					"internalType": "address",
					"name": "borrower",
					"type": "address"
				}
			],
			"name": "debtOf",
			"outputs": [
				{
					"internalType": "uint256",
					"name": "",
					"type": "uint256"
				}
			],
			"stateMutability": "view",
			"type": "function"
		},
		{
			"inputs": [
				{
					"internalType": "address",
					"name": "borrower",
					"type": "address"
				}
			],
			"name": "healthFactor",
			"outputs": [
				{
					"internalType": "uint256",
					"name": "",
					"type": "uint256"
				}
			],
			"stateMutability": "view",
			"type": "function"
		},
		{
			"inputs": [
				{
					"components": [
						{
							"internalType": "address",
							"name": "owner",
							"type": "address"
						},
						{
							"internalType": "address",
							"name": "vault",
							"type": "address"
						},
						{
							"internalType": "address",
							"name": "loanToken",
							"type": "address"
						},
						{
							"internalType": "address",
							"name": "collateralToken",
							"type": "address"
						},
						{
							"internalType": "address",
							"name": "oracle",
							"type": "address"
						},
						{
							"internalType": "address",
							"name": "treasury",
							"type": "address"
						},
						{
							"internalType": "address",
							"name": "liquidator",
							"type": "address"
						},
						{
							"internalType": "uint256",
							"name": "lltvBps",
							"type": "uint256"
						},
						{
							"internalType": "uint256",
							"name": "interestRate",
							"type": "uint256"
						},
						{
							"internalType": "uint256",
							"name": "blocksPerYear",
							"type": "uint256"
						},
						{
							"internalType": "uint256",
							"name": "liquidationBonusBps",
							"type": "uint256"
						}
					],
					"internalType": "struct Market.InitParams",
					"name": "p",
					"type": "tuple"
				},
				{
					"internalType": "string",
					"name": "title_",
					"type": "string"
				},
				{
					"internalType": "string",
					"name": "shareName_",
					"type": "string"
				}
			],
			"name": "initialize",
			"outputs": [],
			"stateMutability": "nonpayable",
			"type": "function"
		},
		{
			"inputs": [],
			"name": "interestRate",
			"outputs": [
				{
					"internalType": "uint256",
					"name": "",
					"type": "uint256"
				}
			],
			"stateMutability": "view",
			"type": "function"
		},
		{
			"inputs": [],
			"name": "lastAccrueBlock",
			"outputs": [
				{
					"internalType": "uint256",
					"name": "",
					"type": "uint256"
				}
			],
			"stateMutability": "view",
			"type": "function"
		},
		{
			"inputs": [
				{
					"internalType": "address",
					"name": "borrower",
					"type": "address"
				}
			],
			"name": "liquidate",
			"outputs": [],
			"stateMutability": "nonpayable",
			"type": "function"
		},
		{
			"inputs": [],
			"name": "liquidationBonusBps",
			"outputs": [
				{
					"internalType": "uint256",
					"name": "",
					"type": "uint256"
				}
			],
			"stateMutability": "view",
			"type": "function"
		},
		{
			"inputs": [],
			"name": "liquidator",
			"outputs": [
				{
					"internalType": "address",
					"name": "",
					"type": "address"
				}
			],
			"stateMutability": "view",
			"type": "function"
		},
		{
			"inputs": [],
			"name": "lltvBps",
			"outputs": [
				{
					"internalType": "uint256",
					"name": "",
					"type": "uint256"
				}
			],
			"stateMutability": "view",
			"type": "function"
		},
		{
			"inputs": [],
			"name": "loanToken",
			"outputs": [
				{
					"internalType": "contract IERC20",
					"name": "",
					"type": "address"
				}
			],
			"stateMutability": "view",
			"type": "function"
		},
		{
			"inputs": [
				{
					"internalType": "uint256",
					"name": "",
					"type": "uint256"
				}
			],
			"name": "onVaultDeposit",
			"outputs": [],
			"stateMutability": "nonpayable",
			"type": "function"
		},
		{
			"inputs": [
				{
					"internalType": "uint256",
					"name": "amount",
					"type": "uint256"
				}
			],
			"name": "onVaultWithdraw",
			"outputs": [],
			"stateMutability": "nonpayable",
			"type": "function"
		},
		{
			"inputs": [],
			"name": "oracle",
			"outputs": [
				{
					"internalType": "contract IOracle",
					"name": "",
					"type": "address"
				}
			],
			"stateMutability": "view",
			"type": "function"
		},
		{
			"inputs": [],
			"name": "owner",
			"outputs": [
				{
					"internalType": "address",
					"name": "",
					"type": "address"
				}
			],
			"stateMutability": "view",
			"type": "function"
		},
		{
			"inputs": [
				{
					"internalType": "address",
					"name": "newOwner",
					"type": "address"
				}
			],
			"name": "ownershipTransfer",
			"outputs": [],
			"stateMutability": "nonpayable",
			"type": "function"
		},
		{
			"inputs": [
				{
					"internalType": "address",
					"name": "",
					"type": "address"
				}
			],
			"name": "positions",
			"outputs": [
				{
					"internalType": "uint256",
					"name": "collateralShares",
					"type": "uint256"
				},
				{
					"internalType": "uint256",
					"name": "borrowShares",
					"type": "uint256"
				},
				{
					"internalType": "uint256",
					"name": "principal",
					"type": "uint256"
				}
			],
			"stateMutability": "view",
			"type": "function"
		},
		{
			"inputs": [],
			"name": "protocolFeeBps",
			"outputs": [
				{
					"internalType": "uint256",
					"name": "",
					"type": "uint256"
				}
			],
			"stateMutability": "view",
			"type": "function"
		},
		{
			"inputs": [],
			"name": "protocolReserves",
			"outputs": [
				{
					"internalType": "uint256",
					"name": "",
					"type": "uint256"
				}
			],
			"stateMutability": "view",
			"type": "function"
		},
		{
			"inputs": [],
			"name": "proxiableUUID",
			"outputs": [
				{
					"internalType": "bytes32",
					"name": "",
					"type": "bytes32"
				}
			],
			"stateMutability": "view",
			"type": "function"
		},
		{
			"inputs": [
				{
					"internalType": "uint256",
					"name": "amount",
					"type": "uint256"
				}
			],
			"name": "repay",
			"outputs": [
				{
					"internalType": "uint256",
					"name": "remainingDebt",
					"type": "uint256"
				}
			],
			"stateMutability": "nonpayable",
			"type": "function"
		},
		{
			"inputs": [
				{
					"internalType": "uint256",
					"name": "newLltvBps",
					"type": "uint256"
				},
				{
					"internalType": "uint256",
					"name": "newInterestRate",
					"type": "uint256"
				},
				{
					"internalType": "uint256",
					"name": "newLiquidationBonusBps",
					"type": "uint256"
				}
			],
			"name": "setRiskParams",
			"outputs": [],
			"stateMutability": "nonpayable",
			"type": "function"
		},
		{
			"inputs": [],
			"name": "shareName",
			"outputs": [
				{
					"internalType": "string",
					"name": "",
					"type": "string"
				}
			],
			"stateMutability": "view",
			"type": "function"
		},
		{
			"inputs": [
				{
					"internalType": "uint256",
					"name": "amount",
					"type": "uint256"
				}
			],
			"name": "supplyCollateral",
			"outputs": [],
			"stateMutability": "nonpayable",
			"type": "function"
		},
		{
			"inputs": [],
			"name": "title",
			"outputs": [
				{
					"internalType": "string",
					"name": "",
					"type": "string"
				}
			],
			"stateMutability": "view",
			"type": "function"
		},
		{
			"inputs": [],
			"name": "totalBorrowShares",
			"outputs": [
				{
					"internalType": "uint256",
					"name": "",
					"type": "uint256"
				}
			],
			"stateMutability": "view",
			"type": "function"
		},
		{
			"inputs": [],
			"name": "totalDebt",
			"outputs": [
				{
					"internalType": "uint256",
					"name": "",
					"type": "uint256"
				}
			],
			"stateMutability": "view",
			"type": "function"
		},
		{
			"inputs": [],
			"name": "treasury",
			"outputs": [
				{
					"internalType": "address",
					"name": "",
					"type": "address"
				}
			],
			"stateMutability": "view",
			"type": "function"
		},
		{
			"inputs": [
				{
					"internalType": "address",
					"name": "newImplementation",
					"type": "address"
				}
			],
			"name": "upgradeTo",
			"outputs": [],
			"stateMutability": "nonpayable",
			"type": "function"
		},
		{
			"inputs": [
				{
					"internalType": "address",
					"name": "newImplementation",
					"type": "address"
				},
				{
					"internalType": "bytes",
					"name": "data",
					"type": "bytes"
				}
			],
			"name": "upgradeToAndCall",
			"outputs": [],
			"stateMutability": "payable",
			"type": "function"
		},
		{
			"inputs": [],
			"name": "vault",
			"outputs": [
				{
					"internalType": "address",
					"name": "",
					"type": "address"
				}
			],
			"stateMutability": "view",
			"type": "function"
		},
		{
			"inputs": [
				{
					"internalType": "uint256",
					"name": "amount",
					"type": "uint256"
				}
			],
			"name": "withdrawCollateral",
			"outputs": [],
			"stateMutability": "nonpayable",
			"type": "function"
		}
	]
}