{
	"data": {
		"bytecode": {
			"linkReferences": {},
			"object": "60a06040523073ffffffffffffffffffffffffffffffffffffffff1660809073ffffffffffffffffffffffffffffffffffffffff16815250348015610042575f5ffd5b5060805161389f6100775f395f8181610f3601528181610fc4015281816115aa01528181611638015261172b015261389f5ff3fe608060405260043610610270575f3560e01c8063743753591161014e578063b1c0be34116100c0578063d283e75f11610079578063d283e75f14610924578063d3a417a214610960578063d681a44914610988578063f0f44260146109b2578063fbfa77cf146109da578063fc7b9c1814610a0457610270565b8063b1c0be341461082e578063b2016bd414610856578063b3604c9614610880578063c5ebeaec146108aa578063c82f6d2f146108d2578063ced65b01146108fc57610270565b80637dc0d1d0116101125780637dc0d1d0146107345780638da5cb5b1461075e578063a03b3c9514610788578063a385fb96146107c4578063a6afed95146107ee578063aa5af0fd1461080457610270565b8063743753591461063e57806376e9790a146106685780637924d93f1461069257806379f057a2146106ce5780637c3a00fd1461070a57610270565b8063371fd8e6116101e75780634f1ef286116101ab5780634f1ef2861461052c57806352d1902d1461054857806355f57510146105725780636112fe2e146105b057806361d027b3146105d85780636ad9f9df1461060257610270565b8063371fd8e61461044c5780633e3722b6146104885780634046ebae146104b05780634a79d50c146104da5780634b92917a1461050457610270565b806327776ab51161023957806327776ab51461035657806329962904146103805780632f865568146103aa57806335659fb8146103d25780633659cfe6146103fc578063367febea1461042457610270565b8062249b441461027457806301c76f81146102b057806306d37817146102d8578063136cf1f71461030257806319970d8e1461032c575b5f5ffd5b34801561027f575f5ffd5b5061029a60048036038101906102959190612baa565b610a2e565b6040516102a79190612be4565b60405180910390f35b3480156102bb575f5ffd5b506102d660048036038101906102d19190612c57565b610a6e565b005b3480156102e3575f5ffd5b506102ec610b09565b6040516102f99190612cdd565b60405180910390f35b34801561030d575f5ffd5b50610316610b2e565b6040516103239190612be4565b60405180910390f35b348015610337575f5ffd5b50610340610b34565b60405161034d9190612be4565b60405180910390f35b348015610361575f5ffd5b5061036a610b3a565b6040516103779190612be4565b60405180910390f35b34801561038b575f5ffd5b50610394610b46565b6040516103a19190612be4565b60405180910390f35b3480156103b5575f5ffd5b506103d060048036038101906103cb9190612c57565b610b4c565b005b3480156103dd575f5ffd5b506103e6610f2e565b6040516103f39190612be4565b60405180910390f35b348015610407575f5ffd5b50610422600480360381019061041d9190612c57565b610f34565b005b34801561042f575f5ffd5b5061044a60048036038101906104459190612baa565b61107c565b005b348015610457575f5ffd5b50610472600480360381019061046d9190612baa565b611173565b60405161047f9190612be4565b60405180910390f35b348015610493575f5ffd5b506104ae60048036038101906104a99190612baa565b611391565b005b3480156104bb575f5ffd5b506104c461149c565b6040516104d19190612d05565b60405180910390f35b3480156104e5575f5ffd5b506104ee6114c1565b6040516104fb9190612d8e565b60405180910390f35b34801561050f575f5ffd5b5061052a60048036038101906105259190612baa565b61154d565b005b61054660048036038101906105419190612e0f565b6115a8565b005b348015610553575f5ffd5b5061055c611728565b6040516105699190612e84565b60405180910390f35b34801561057d575f5ffd5b5061059860048036038101906105939190612c57565b6117df565b6040516105a793929190612e9d565b60405180910390f35b3480156105bb575f5ffd5b506105d660048036038101906105d19190612baa565b611805565b005b3480156105e3575f5ffd5b506105ec611932565b6040516105f99190612d05565b60405180910390f35b34801561060d575f5ffd5b5061062860048036038101906106239190612c57565b611957565b6040516106359190612be4565b60405180910390f35b348015610649575f5ffd5b506106526119be565b60405161065f9190612be4565b60405180910390f35b348015610673575f5ffd5b5061067c611a80565b6040516106899190612d8e565b60405180910390f35b34801561069d575f5ffd5b506106b860048036038101906106b39190612baa565b611b0c565b6040516106c59190612d05565b60405180910390f35b3480156106d9575f5ffd5b506106f460048036038101906106ef9190612c57565b611b47565b6040516107019190612be4565b60405180910390f35b348015610715575f5ffd5b5061071e611dbe565b60405161072b9190612be4565b60405180910390f35b34801561073f575f5ffd5b50610748611dc4565b6040516107559190612ef2565b60405180910390f35b348015610769575f5ffd5b50610772611de9565b60405161077f9190612d05565b60405180910390f35b348015610793575f5ffd5b506107ae60048036038101906107a99190612c57565b611e0e565b6040516107bb9190612f25565b60405180910390f35b3480156107cf575f5ffd5b506107d8611e23565b6040516107e59190612be4565b60405180910390f35b3480156107f9575f5ffd5b50610802611e29565b005b34801561080f575f5ffd5b50610818611ea8565b6040516108259190612be4565b60405180910390f35b348015610839575f5ffd5b50610854600480360381019061084f9190612fb6565b611eae565b005b348015610861575f5ffd5b5061086a612356565b6040516108779190612cdd565b60405180910390f35b34801561088b575f5ffd5b5061089461237b565b6040516108a19190612be4565b60405180910390f35b3480156108b5575f5ffd5b506108d060048036038101906108cb9190612baa565b612381565b005b3480156108dd575f5ffd5b506108e6612552565b6040516108f39190612be4565b60405180910390f35b348015610907575f5ffd5b50610922600480360381019061091d919061304a565b612572565b005b34801561092f575f5ffd5b5061094a60048036038101906109459190612c57565b612600565b6040516109579190612be4565b60405180910390f35b34801561096b575f5ffd5b5061098660048036038101906109819190612c57565b6126b8565b005b348015610993575f5ffd5b5061099c61278a565b6040516109a99190612be4565b60405180910390f35b3480156109bd575f5ffd5b506109d860048036038101906109d39190612c57565b612790565b005b3480156109e5575f5ffd5b506109ee61282b565b6040516109fb9190612d05565b60405180910390f35b348015610a0f575f5ffd5b50610a18612850565b604051610a259190612be4565b60405180910390f35b5f5f8211610a3a575f5ffd5b601054670de0b6b3a764000083610a5191906130c7565b610a5b9190613135565b90505f8103610a6957600190505b919050565b5f60029054906101000a900473ffffffffffffffffffffffffffffffffffffffff1673ffffffffffffffffffffffffffffffffffffffff163373ffffffffffffffffffffffffffffffffffffffff1614610ac6575f5ffd5b8060085f6101000a81548173ffffffffffffffffffffffffffffffffffffffff021916908373ffffffffffffffffffffffffffffffffffffffff16021790555050565b60035f9054906101000a900473ffffffffffffffffffffffffffffffffffffffff1681565b60135481565b600e5481565b670de0b6b3a764000081565b600f5481565b60085f9054906101000a900473ffffffffffffffffffffffffffffffffffffffff1673ffffffffffffffffffffffffffffffffffffffff163373ffffffffffffffffffffffffffffffffffffffff161480610bf357505f60029054906101000a900473ffffffffffffffffffffffffffffffffffffffff1673ffffffffffffffffffffffffffffffffffffffff163373ffffffffffffffffffffffffffffffffffffffff16145b610bfb575f5ffd5b610c03611e29565b610c0c81611e0e565b15610c15575f5ffd5b5f60025f8373ffffffffffffffffffffffffffffffffffffffff1673ffffffffffffffffffffffffffffffffffffffff1681526020019081526020015f2090505f610c5f83612600565b90505f8111610c6c575f5ffd5b5f612710600e54845f0154610c8191906130c7565b610c8b9190613135565b90505f81845f0154610c9d9190613165565b90505f821115610d455760045f9054906101000a900473ffffffffffffffffffffffffffffffffffffffff1673ffffffffffffffffffffffffffffffffffffffff1663a9059cbb33846040518363ffffffff1660e01b8152600401610d03929190613198565b6020604051808303815f875af1158015610d1f573d5f5f3e3d5ffd5b505050506040513d601f19601f82011682018060405250810190610d4391906131e9565b505b5f811115610e0c5760045f9054906101000a900473ffffffffffffffffffffffffffffffffffffffff1673ffffffffffffffffffffffffffffffffffffffff1663a9059cbb600a5f9054906101000a900473ffffffffffffffffffffffffffffffffffffffff16836040518363ffffffff1660e01b8152600401610dca929190613198565b6020604051808303815f875af1158015610de6573d5f5f3e3d5ffd5b505050506040513d601f19601f82011682018060405250810190610e0a91906131e9565b505b836001015460135f828254610e219190613165565b9250508190555060025f8673ffffffffffffffffffffffffffffffffffffffff1673ffffffffffffffffffffffffffffffffffffffff1681526020019081526020015f205f5f82015f9055600182015f9055600282015f905550506001805480610e8e57610e8d613214565b5b600190038181905f5260205f20015f6101000a81549073ffffffffffffffffffffffffffffffffffffffff021916905590553373ffffffffffffffffffffffffffffffffffffffff168573ffffffffffffffffffffffffffffffffffffffff167f1f0c6615429d1cdae0dfa233abf91d3b31cdbdd82c8081389832a61e1072f1ea8585604051610f1f929190613241565b60405180910390a35050505050565b60115481565b7f000000000000000000000000000000000000000000000000000000000000000073ffffffffffffffffffffffffffffffffffffffff163073ffffffffffffffffffffffffffffffffffffffff1603610fc2576040517f08c379a0000000000000000000000000000000000000000000000000000000008152600401610fb9906132b2565b60405180910390fd5b7f000000000000000000000000000000000000000000000000000000000000000073ffffffffffffffffffffffffffffffffffffffff1661100161288e565b73ffffffffffffffffffffffffffffffffffffffff1614611057576040517f08c379a000000000000000000000000000000000000000000000000000000000815260040161104e9061331a565b60405180910390fd5b611060816128bd565b6110798160405180602001604052805f8152505f612918565b50565b60045f9054906101000a900473ffffffffffffffffffffffffffffffffffffffff1673ffffffffffffffffffffffffffffffffffffffff166323b872dd3330846040518463ffffffff1660e01b81526004016110da93929190613338565b6020604051808303815f875af11580156110f6573d5f5f3e3d5ffd5b505050506040513d601f19601f8201168201806040525081019061111a91906131e9565b508060025f3373ffffffffffffffffffffffffffffffffffffffff1673ffffffffffffffffffffffffffffffffffffffff1681526020019081526020015f205f015f828254611169919061336d565b9250508190555050565b5f5f821161117f575f5ffd5b611187611e29565b5f60025f3373ffffffffffffffffffffffffffffffffffffffff1673ffffffffffffffffffffffffffffffffffffffff1681526020019081526020015f2090505f6111d133612600565b90505f81116111de575f5ffd5b5f8185116111ec57846111ee565b815b905060035f9054906101000a900473ffffffffffffffffffffffffffffffffffffffff1673ffffffffffffffffffffffffffffffffffffffff166323b872dd3330846040518463ffffffff1660e01b815260040161124e93929190613338565b6020604051808303815f875af115801561126a573d5f5f3e3d5ffd5b505050506040513d601f19601f8201168201806040525081019061128e91906131e9565b505f818460020154116112a55783600201546112a7565b815b905080846002015f8282546112bc9190613165565b925050819055506103e860115482846112d59190613165565b6112df91906130c7565b6112e99190613135565b60115f8282546112f9919061336d565b925050819055505f83831461132e57601054670de0b6b3a76400008461131f91906130c7565b6113299190613135565b611334565b84600101545b9050846001015481111561134a57846001015490505b80856001015f82825461135d9190613165565b925050819055508060135f8282546113759190613165565b9250508190555061138533612600565b95505050505050919050565b60095f9054906101000a900473ffffffffffffffffffffffffffffffffffffffff1673ffffffffffffffffffffffffffffffffffffffff163373ffffffffffffffffffffffffffffffffffffffff16146113e9575f5ffd5b6113f16119be565b8111156113fc575f5ffd5b60035f9054906101000a900473ffffffffffffffffffffffffffffffffffffffff1673ffffffffffffffffffffffffffffffffffffffff1663a9059cbb33836040518363ffffffff1660e01b8152600401611458929190613198565b6020604051808303815f875af1158015611474573d5f5f3e3d5ffd5b505050506040513d601f19601f8201168201806040525081019061149891906131e9565b5050565b60085f9054906101000a900473ffffffffffffffffffffffffffffffffffffffff1681565b600680546114ce906133cd565b80601f01602080910402602001604051908101604052809291908181526020018280546114fa906133cd565b80156115455780601f1061151c57610100808354040283529160200191611545565b820191905f5260205f20905b81548152906001019060200180831161152857829003601f168201915b505050505081565b60095f9054906101000a900473ffffffffffffffffffffffffffffffffffffffff1673ffffffffffffffffffffffffffffffffffffffff163373ffffffffffffffffffffffffffffffffffffffff16146115a5575f5ffd5b50565b7f000000000000000000000000000000000000000000000000000000000000000073ffffffffffffffffffffffffffffffffffffffff163073ffffffffffffffffffffffffffffffffffffffff1603611636576040517f08c379a000000000000000000000000000000000000000000000000000000000815260040161162d906132b2565b60405180910390fd5b7f000000000000000000000000000000000000000000000000000000000000000073ffffffffffffffffffffffffffffffffffffffff1661167561288e565b73ffffffffffffffffffffffffffffffffffffffff16146116cb576040517f08c379a00000000000000000000000000000000000000000000000000000000081526004016116c29061331a565b60405180910390fd5b6116d4836128bd565b6117238383838080601f0160208091040260200160405190810160405280939291908181526020018383808284375f81840152601f19601f820116905080830192505050505050506001612918565b505050565b5f7f000000000000000000000000000000000000000000000000000000000000000073ffffffffffffffffffffffffffffffffffffffff163073ffffffffffffffffffffffffffffffffffffffff16146117b7576040517f08c379a00000000000000000000000000000000000000000000000000000000081526004016117ae90613447565b60405180910390fd5b7f360894a13ba1a3210667c828492db98dca3e2076cc3735a920a3ca505d382bbc5f1b905090565b6002602052805f5260405f205f91509050805f0154908060010154908060020154905083565b5f8111611810575f5ffd5b611818611e29565b5f60025f3373ffffffffffffffffffffffffffffffffffffffff1673ffffffffffffffffffffffffffffffffffffffff1681526020019081526020015f209050805f0154821115611867575f5ffd5b81815f015f8282546118799190613165565b9250508190555061188933611e0e565b611891575f5ffd5b60045f9054906101000a900473ffffffffffffffffffffffffffffffffffffffff1673ffffffffffffffffffffffffffffffffffffffff1663a9059cbb33846040518363ffffffff1660e01b81526004016118ed929190613198565b6020604051808303815f875af1158015611909573d5f5f3e3d5ffd5b505050506040513d601f19601f8201168201806040525081019061192d91906131e9565b505050565b600a5f9054906101000a900473ffffffffffffffffffffffffffffffffffffffff1681565b5f5f61196283611b47565b90505f8103611994577fffffffffffffffffffffffffffffffffffffffffffffffffffffffffffffffff9150506119b9565b80670de0b6b3a7640000600b546119ab91906130c7565b6119b59190613135565b9150505b919050565b5f5f60035f9054906101000a900473ffffffffffffffffffffffffffffffffffffffff1673ffffffffffffffffffffffffffffffffffffffff166370a08231306040518263ffffffff1660e01b8152600401611a1a9190612d05565b602060405180830381865afa158015611a35573d5f5f3e3d5ffd5b505050506040513d601f19601f82011682018060405250810190611a599190613479565b9050601254811115611a785760125481611a739190613165565b611a7a565b5f5b91505090565b60078054611a8d906133cd565b80601f0160208091040260200160405190810160405280929190818152602001828054611ab9906133cd565b8015611b045780601f10611adb57610100808354040283529160200191611b04565b820191905f5260205f20905b815481529060010190602001808311611ae757829003601f168201915b505050505081565b60018181548110611b1b575f80fd5b905f5260205f20015f915054906101000a900473ffffffffffffffffffffffffffffffffffffffff1681565b5f5f73ffffffffffffffffffffffffffffffffffffffff168273ffffffffffffffffffffffffffffffffffffffff1603611b7f575f5ffd5b5f611b8983612600565b90505f60025f8573ffffffffffffffffffffffffffffffffffffffff1673ffffffffffffffffffffffffffffffffffffffff1681526020019081526020015f2090505f8203611bdc575f92505050611db9565b5f815f015403611c10577fffffffffffffffffffffffffffffffffffffffffffffffffffffffffffffffff92505050611db9565b60055f9054906101000a900473ffffffffffffffffffffffffffffffffffffffff1673ffffffffffffffffffffffffffffffffffffffff166341976e0960045f9054906101000a900473ffffffffffffffffffffffffffffffffffffffff166040518263ffffffff1660e01b8152600401611c8b9190612d05565b602060405180830381865afa158015611ca6573d5f5f3e3d5ffd5b505050506040513d601f19601f82011682018060405250810190611cca9190613479565b815f0154611cd891906130c7565b61271060055f9054906101000a900473ffffffffffffffffffffffffffffffffffffffff1673ffffffffffffffffffffffffffffffffffffffff166341976e0960035f9054906101000a900473ffffffffffffffffffffffffffffffffffffffff166040518263ffffffff1660e01b8152600401611d569190612d05565b602060405180830381865afa158015611d71573d5f5f3e3d5ffd5b505050506040513d601f19601f82011682018060405250810190611d959190613479565b84611da091906130c7565b611daa91906130c7565b611db49190613135565b925050505b919050565b600c5481565b60055f9054906101000a900473ffffffffffffffffffffffffffffffffffffffff1681565b5f60029054906101000a900473ffffffffffffffffffffffffffffffffffffffff1681565b5f600b54611e1b83611b47565b109050919050565b600d5481565b600f54430315611ea6575f6013541115611e96575f600f5443611e4c9190613165565b90505f600d5482600c54611e6091906130c7565b611e6a9190613135565b9050670de0b6b3a764000081601054611e8391906130c7565b611e8d9190613135565b60108190555050505b43600f54611ea49190613165565b505b565b60105481565b5f5f9054906101000a900460ff161580611ed357505f60019054906101000a900460ff165b611f12576040517f08c379a0000000000000000000000000000000000000000000000000000000008152600401611f09906134ee565b60405180910390fd5b5f5f60019054906101000a900460ff161590508015611f5f5760015f60016101000a81548160ff02191690831515021790555060015f5f6101000a81548160ff0219169083151502179055505b5f73ffffffffffffffffffffffffffffffffffffffff168660c0016020810190611f899190612c57565b73ffffffffffffffffffffffffffffffffffffffff1603611fa8575f5ffd5b5f73ffffffffffffffffffffffffffffffffffffffff16866060016020810190611fd29190612c57565b73ffffffffffffffffffffffffffffffffffffffff1603611ff1575f5ffd5b5f73ffffffffffffffffffffffffffffffffffffffff1686608001602081019061201b9190612c57565b73ffffffffffffffffffffffffffffffffffffffff160361203a575f5ffd5b5f73ffffffffffffffffffffffffffffffffffffffff168660a00160208101906120649190612c57565b73ffffffffffffffffffffffffffffffffffffffff1603612083575f5ffd5b5f600d5411612090575f5ffd5b61271086610140013511156120a3575f5ffd5b620186a08660e0013511156120b6575f5ffd5b6120d0865f0160208101906120cb9190612c57565b612a55565b8484600691826120e19291906136da565b508282600791826120f39291906136da565b508560600160208101906121079190612c57565b60035f6101000a81548173ffffffffffffffffffffffffffffffffffffffff021916908373ffffffffffffffffffffffffffffffffffffffff1602179055508560800160208101906121599190612c57565b60045f6101000a81548173ffffffffffffffffffffffffffffffffffffffff021916908373ffffffffffffffffffffffffffffffffffffffff1602179055508560a00160208101906121ab9190612c57565b60055f6101000a81548173ffffffffffffffffffffffffffffffffffffffff021916908373ffffffffffffffffffffffffffffffffffffffff1602179055508560c00160208101906121fd9190612c57565b60095f6101000a81548173ffffffffffffffffffffffffffffffffffffffff021916908373ffffffffffffffffffffffffffffffffffffffff16021790555085604001602081019061224f9190612c57565b600a5f6101000a81548173ffffffffffffffffffffffffffffffffffffffff021916908373ffffffffffffffffffffffffffffffffffffffff1602179055508560200160208101906122a19190612c57565b60085f6101000a81548173ffffffffffffffffffffffffffffffffffffffff021916908373ffffffffffffffffffffffffffffffffffffffff1602179055508560e00135600b8190555043600f81905550856101200135600d81905550856101000135600c81905550670de0b6b3a7640000601081905550856101400135600e81905550617530601181905550801561234e575f5f60016101000a81548160ff0219169083151502179055505b505050505050565b60045f9054906101000a900473ffffffffffffffffffffffffffffffffffffffff1681565b600b5481565b5f811161238c575f5ffd5b612394611e29565b61239c6119be565b8111156123a7575f5ffd5b5f60025f3373ffffffffffffffffffffffffffffffffffffffff1673ffffffffffffffffffffffffffffffffffffffff1681526020019081526020015f2090505f6123f183610a2e565b905080826001015f828254612406919061336d565b9250508190555080826002015f828254612420919061336d565b925050819055508060135f828254612438919061336d565b9250508190555061244833611e0e565b612450575f5ffd5b60035f9054906101000a900473ffffffffffffffffffffffffffffffffffffffff1673ffffffffffffffffffffffffffffffffffffffff1663a9059cbb33856040518363ffffffff1660e01b81526004016124ac929190613198565b6020604051808303815f875af11580156124c8573d5f5f3e3d5ffd5b505050506040513d601f19601f820116820180604052508101906124ec91906131e9565b50600133908060018154018082558091505060019003905f5260205f20015f9091909190916101000a81548173ffffffffffffffffffffffffffffffffffffffff021916908373ffffffffffffffffffffffffffffffffffffffff160217905550505050565b5f61255b612850565b6125636119be565b61256d919061336d565b905090565b5f60029054906101000a900473ffffffffffffffffffffffffffffffffffffffff1673ffffffffffffffffffffffffffffffffffffffff163373ffffffffffffffffffffffffffffffffffffffff16146125ca575f5ffd5b6127108311156125d8575f5ffd5b6127108311156125e6575f5ffd5b82600b8190555081600c8190555080600e81905550505050565b5f5f73ffffffffffffffffffffffffffffffffffffffff168273ffffffffffffffffffffffffffffffffffffffff1603612638575f5ffd5b5f60025f8473ffffffffffffffffffffffffffffffffffffffff1673ffffffffffffffffffffffffffffffffffffffff1681526020019081526020015f206001015490505f81146126ae57670de0b6b3a7640000612694612acf565b8261269f91906130c7565b6126a99190613135565b6126b0565b5f5b915050919050565b5f60029054906101000a900473ffffffffffffffffffffffffffffffffffffffff1673ffffffffffffffffffffffffffffffffffffffff163373ffffffffffffffffffffffffffffffffffffffff1614612710575f5ffd5b5f73ffffffffffffffffffffffffffffffffffffffff168173ffffffffffffffffffffffffffffffffffffffff1603612747575f5ffd5b805f60026101000a81548173ffffffffffffffffffffffffffffffffffffffff021916908373ffffffffffffffffffffffffffffffffffffffff16021790555050565b60125481565b5f60029054906101000a900473ffffffffffffffffffffffffffffffffffffffff1673ffffffffffffffffffffffffffffffffffffffff163373ffffffffffffffffffffffffffffffffffffffff16146127e8575f5ffd5b80600a5f6101000a81548173ffffffffffffffffffffffffffffffffffffffff021916908373ffffffffffffffffffffffffffffffffffffffff16021790555050565b60095f9054906101000a900473ffffffffffffffffffffffffffffffffffffffff1681565b5f5f6013541461288757670de0b6b3a764000061286b612acf565b60135461287891906130c7565b6128829190613135565b612889565b5f5b905090565b5f5f7f360894a13ba1a3210667c828492db98dca3e2076cc3735a920a3ca505d382bbc5f1b9050805491505090565b5f60029054906101000a900473ffffffffffffffffffffffffffffffffffffffff1673ffffffffffffffffffffffffffffffffffffffff163373ffffffffffffffffffffffffffffffffffffffff1614612915575f5ffd5b50565b5f73ffffffffffffffffffffffffffffffffffffffff168373ffffffffffffffffffffffffffffffffffffffff1603612986576040517f08c379a000000000000000000000000000000000000000000000000000000000815260040161297d906137f1565b60405180910390fd5b61298f83612b42565b808061299b57505f8251115b15612a50575f5f8473ffffffffffffffffffffffffffffffffffffffff16846040516129c79190613853565b5f60405180830381855af49150503d805f81146129ff576040519150601f19603f3d011682016040523d82523d5f602084013e612a04565b606091505b5091509150818190612a4c576040517f08c379a0000000000000000000000000000000000000000000000000000000008152600401612a439190612d8e565b60405180910390fd5b5050505b505050565b5f73ffffffffffffffffffffffffffffffffffffffff168173ffffffffffffffffffffffffffffffffffffffff1603612a8c575f5ffd5b805f60026101000a81548173ffffffffffffffffffffffffffffffffffffffff021916908373ffffffffffffffffffffffffffffffffffffffff16021790555050565b5f6010549050600f5443148015612ae757505f601354115b15612b3f575f600f5443612afb9190613165565b90505f600d5482600c54612b0f91906130c7565b612b199190613135565b9050670de0b6b3a76400008184612b3091906130c7565b612b3a9190613135565b925050505b90565b5f7f360894a13ba1a3210667c828492db98dca3e2076cc3735a920a3ca505d382bbc5f1b90508181555050565b5f5ffd5b5f5ffd5b5f819050919050565b612b8981612b77565b8114612b93575f5ffd5b50565b5f81359050612ba481612b80565b92915050565b5f60208284031215612bbf57612bbe612b6f565b5b5f612bcc84828501612b96565b91505092915050565b612bde81612b77565b82525050565b5f602082019050612bf75f830184612bd5565b92915050565b5f73ffffffffffffffffffffffffffffffffffffffff82169050919050565b5f612c2682612bfd565b9050919050565b612c3681612c1c565b8114612c40575f5ffd5b50565b5f81359050612c5181612c2d565b92915050565b5f60208284031215612c6c57612c6b612b6f565b5b5f612c7984828501612c43565b91505092915050565b5f819050919050565b5f612ca5612ca0612c9b84612bfd565b612c82565b612bfd565b9050919050565b5f612cb682612c8b565b9050919050565b5f612cc782612cac565b9050919050565b612cd781612cbd565b82525050565b5f602082019050612cf05f830184612cce565b92915050565b612cff81612c1c565b82525050565b5f602082019050612d185f830184612cf6565b92915050565b5f81519050919050565b5f82825260208201905092915050565b8281835e5f83830152505050565b5f601f19601f8301169050919050565b5f612d6082612d1e565b612d6a8185612d28565b9350612d7a818560208601612d38565b612d8381612d46565b840191505092915050565b5f6020820190508181035f830152612da68184612d56565b905092915050565b5f5ffd5b5f5ffd5b5f5ffd5b5f5f83601f840112612dcf57612dce612dae565b5b8235905067ffffffffffffffff811115612dec57612deb612db2565b5b602083019150836001820283011115612e0857612e07612db6565b5b9250929050565b5f5f5f60408486031215612e2657612e25612b6f565b5b5f612e3386828701612c43565b935050602084013567ffffffffffffffff811115612e5457612e53612b73565b5b612e6086828701612dba565b92509250509250925092565b5f819050919050565b612e7e81612e6c565b82525050565b5f602082019050612e975f830184612e75565b92915050565b5f606082019050612eb05f830186612bd5565b612ebd6020830185612bd5565b612eca6040830184612bd5565b949350505050565b5f612edc82612cac565b9050919050565b612eec81612ed2565b82525050565b5f602082019050612f055f830184612ee3565b92915050565b5f8115159050919050565b612f1f81612f0b565b82525050565b5f602082019050612f385f830184612f16565b92915050565b5f5ffd5b5f6101608284031215612f5857612f57612f3e565b5b81905092915050565b5f5f83601f840112612f7657612f75612dae565b5b8235905067ffffffffffffffff811115612f9357612f92612db2565b5b602083019150836001820283011115612faf57612fae612db6565b5b9250929050565b5f5f5f5f5f6101a08688031215612fd057612fcf612b6f565b5b5f612fdd88828901612f42565b95505061016086013567ffffffffffffffff811115612fff57612ffe612b73565b5b61300b88828901612f61565b945094505061018086013567ffffffffffffffff81111561302f5761302e612b73565b5b61303b88828901612f61565b92509250509295509295909350565b5f5f5f6060848603121561306157613060612b6f565b5b5f61306e86828701612b96565b935050602061307f86828701612b96565b925050604061309086828701612b96565b9150509250925092565b7f4e487b71000000000000000000000000000000000000000000000000000000005f52601160045260245ffd5b5f6130d182612b77565b91506130dc83612b77565b92508282026130ea81612b77565b915082820484148315176131015761310061309a565b5b5092915050565b7f4e487b71000000000000000000000000000000000000000000000000000000005f52601260045260245ffd5b5f61313f82612b77565b915061314a83612b77565b92508261315a57613159613108565b5b828204905092915050565b5f61316f82612b77565b915061317a83612b77565b92508282039050818111156131925761319161309a565b5b92915050565b5f6040820190506131ab5f830185612cf6565b6131b86020830184612bd5565b9392505050565b6131c881612f0b565b81146131d2575f5ffd5b50565b5f815190506131e3816131bf565b92915050565b5f602082840312156131fe576131fd612b6f565b5b5f61320b848285016131d5565b91505092915050565b7f4e487b71000000000000000000000000000000000000000000000000000000005f52603160045260245ffd5b5f6040820190506132545f830185612bd5565b6132616020830184612bd5565b9392505050565b7f4e4f545f44454c454741544543414c4c000000000000000000000000000000005f82015250565b5f61329c601083612d28565b91506132a782613268565b602082019050919050565b5f6020820190508181035f8301526132c981613290565b9050919050565b7f494e4143544956455f50524f58590000000000000000000000000000000000005f82015250565b5f613304600e83612d28565b915061330f826132d0565b602082019050919050565b5f6020820190508181035f830152613331816132f8565b9050919050565b5f60608201905061334b5f830186612cf6565b6133586020830185612cf6565b6133656040830184612bd5565b949350505050565b5f61337782612b77565b915061338283612b77565b925082820190508082111561339a5761339961309a565b5b92915050565b7f4e487b71000000000000000000000000000000000000000000000000000000005f52602260045260245ffd5b5f60028204905060018216806133e457607f821691505b6020821081036133f7576133f66133a0565b5b50919050565b7f4f4e4c595f494d504c454d454e544154494f4e000000000000000000000000005f82015250565b5f613431601383612d28565b915061343c826133fd565b602082019050919050565b5f6020820190508181035f83015261345e81613425565b9050919050565b5f8151905061347381612b80565b92915050565b5f6020828403121561348e5761348d612b6f565b5b5f61349b84828501613465565b91505092915050565b7f414c52454144595f494e495449414c495a4544000000000000000000000000005f82015250565b5f6134d8601383612d28565b91506134e3826134a4565b602082019050919050565b5f6020820190508181035f830152613505816134cc565b9050919050565b5f82905092915050565b7f4e487b71000000000000000000000000000000000000000000000000000000005f52604160045260245ffd5b5f819050815f5260205f209050919050565b5f6020601f8301049050919050565b5f82821b905092915050565b5f6008830261359f7fffffffffffffffffffffffffffffffffffffffffffffffffffffffffffffffff82613564565b6135a98683613564565b95508019841693508086168417925050509392505050565b5f6135db6135d66135d184612b77565b612c82565b612b77565b9050919050565b5f819050919050565b6135f4836135c1565b613608613600826135e2565b848454613570565b825550505050565b5f5f905090565b61361f613610565b61362a8184846135eb565b505050565b5b8181101561364d576136425f82613617565b600181019050613630565b5050565b601f8211156136925761366381613543565b61366c84613555565b8101602085101561367b578190505b61368f61368785613555565b83018261362f565b50505b505050565b5f82821c905092915050565b5f6136b25f1984600802613697565b1980831691505092915050565b5f6136ca83836136a3565b9150826002028217905092915050565b6136e4838361350c565b67ffffffffffffffff8111156136fd576136fc613516565b5b61370782546133cd565b613712828285613651565b5f601f83116001811461373f575f841561372d578287013590505b61373785826136bf565b86555061379e565b601f19841661374d86613543565b5f5b828110156137745784890135825560018201915060208501945060208101905061374f565b86831015613791578489013561378d601f8916826136a3565b8355505b6001600288020188555050505b50505050505050565b7f5a45524f5f494d504c00000000000000000000000000000000000000000000005f82015250565b5f6137db600983612d28565b91506137e6826137a7565b602082019050919050565b5f6020820190508181035f830152613808816137cf565b9050919050565b5f81519050919050565b5f81905092915050565b5f61382d8261380f565b6138378185613819565b9350613847818560208601612d38565b80840191505092915050565b5f61385e8284613823565b91508190509291505056fea26469706673582212209f9b76e7dbb05ca5e23a210353b82c7656002b9eb98468d00d9b2311daeba50664736f6c634300081e0033",
			"opcodes": "PUSH1 0xA0 PUSH1 0x40 MSTORE ADDRESS PUSH20 0xFFFFFFFFFFFFFFFFFFFFFFFFFFFFFFFFFFFFFFFF AND PUSH1 0x80 SWAP1 PUSH20 0xFFFFFFFFFFFFFFFFFFFFFFFFFFFFFFFFFFFFFFFF AND DUP2 MSTORE POP CALLVALUE DUP1 ISZERO PUSH2 0x42 JUMPI PUSH0 PUSH0 REVERT JUMPDEST POP PUSH1 0x80 MLOAD PUSH2 0x389F PUSH2 0x77 PUSH0 CODECOPY PUSH0 DUP2 DUP2 PUSH2 0xF36 ADD MSTORE DUP2 DUP2 PUSH2 0xFC4 ADD MSTORE DUP2 DUP2 PUSH2 0x15AA ADD MSTORE DUP2 DUP2 PUSH2 0x1638 ADD MSTORE PUSH2 0x172B ADD MSTORE PUSH2 0x389F PUSH0 RETURN INVALID PUSH1 0x80 PUSH1 0x40 MSTORE PUSH1 0x4 CALLDATASIZE LT PUSH2 0x270 JUMPI PUSH0 CALLDATALOAD PUSH1 0xE0 SHR DUP1 PUSH4 0x74375359 GT PUSH2 0x14E JUMPI DUP1 PUSH4 0xB1C0BE34 GT PUSH2 0xC0 JUMPI DUP1 PUSH4 0xD283E75F GT PUSH2 0x79 JUMPI DUP1 PUSH4 0xD283E75F EQ PUSH2 0x924 JUMPI DUP1 PUSH4 0xD3A417A2 EQ PUSH2 0x960 JUMPI DUP1 PUSH4 0xD681A449 EQ PUSH2 0x988 JUMPI DUP1 PUSH4 0xF0F44260 EQ PUSH2 0x9B2 JUMPI DUP1 PUSH4 0xFBFA77CF EQ PUSH2 0x9DA JUMPI DUP1 PUSH4 0xFC7B9C18 EQ PUSH2 0xA04 JUMPI PUSH2 0x270 JUMP JUMPDEST DUP1 PUSH4 0xB1C0BE34 EQ PUSH2 0x82E JUMPI DUP1 PUSH4 0xB2016BD4 EQ PUSH2 0x856 JUMPI DUP1 PUSH4 0xB3604C96 EQ PUSH2 0x880 JUMPI DUP1 PUSH4 0xC5EBEAEC EQ PUSH2 0x8AA JUMPI DUP1 PUSH4 0xC82F6D2F EQ PUSH2 0x8D2 JUMPI DUP1 PUSH4 0xCED65B01 EQ PUSH2 0x8FC JUMPI PUSH2 0x270 JUMP JUMPDEST DUP1 PUSH4 0x7DC0D1D0 GT PUSH2 0x112 JUMPI DUP1 PUSH4 0x7DC0D1D0 EQ PUSH2 0x734 JUMPI DUP1 PUSH4 0x8DA5CB5B EQ PUSH2 0x75E JUMPI DUP1 PUSH4 0xA03B3C95 EQ PUSH2 0x788 JUMPI DUP1 PUSH4 0xA385FB96 EQ PUSH2 0x7C4 JUMPI DUP1 PUSH4 0xA6AFED95 EQ PUSH2 0x7EE JUMPI DUP1 PUSH4 0xAA5AF0FD EQ PUSH2 0x804 JUMPI PUSH2 0x270 JUMP JUMPDEST DUP1 PUSH4 0x74375359 EQ PUSH2 0x63E JUMPI DUP1 PUSH4 0x76E9790A EQ PUSH2 0x668 JUMPI DUP1 PUSH4 0x7924D93F EQ PUSH2 0x692 JUMPI DUP1 PUSH4 0x79F057A2 EQ PUSH2 0x6CE JUMPI DUP1 PUSH4 0x7C3A00FD EQ PUSH2 0x70A JUMPI PUSH2 0x270 JUMP JUMPDEST DUP1 PUSH4 0x371FD8E6 GT PUSH2 0x1E7 JUMPI DUP1 PUSH4 0x4F1EF286 GT PUSH2 0x1AB JUMPI DUP1 PUSH4 0x4F1EF286 EQ PUSH2 0x52C JUMPI DUP1 PUSH4 0x52D1902D EQ PUSH2 0x548 JUMPI DUP1 PUSH4 0x55F57510 EQ PUSH2 0x572 JUMPI DUP1 PUSH4 0x6112FE2E EQ PUSH2 0x5B0 JUMPI DUP1 PUSH4 0x61D027B3 EQ PUSH2 0x5D8 JUMPI DUP1 PUSH4 0x6AD9F9DF EQ PUSH2 0x602 JUMPI PUSH2 0x270 JUMP JUMPDEST DUP1 PUSH4 0x371FD8E6 EQ PUSH2 0x44C JUMPI DUP1 PUSH4 0x3E3722B6 EQ PUSH2 0x488 JUMPI DUP1 PUSH4 0x4046EBAE EQ PUSH2 0x4B0 JUMPI DUP1 PUSH4 0x4A79D50C EQ PUSH2 0x4DA JUMPI DUP1 PUSH4 0x4B92917A EQ PUSH2 0x504 JUMPI PUSH2 0x270 JUMP JUMPDEST DUP1 PUSH4 0x27776AB5 GT PUSH2 0x239 JUMPI DUP1 PUSH4 0x27776AB5 EQ PUSH2 0x356 JUMPI DUP1 PUSH4 0x29962904 EQ PUSH2 0x380 JUMPI DUP1 PUSH4 0x2F865568 EQ PUSH2 0x3AA JUMPI DUP1 PUSH4 0x35659FB8 EQ PUSH2 0x3D2 JUMPI DUP1 PUSH4 0x3659CFE6 EQ PUSH2 0x3FC JUMPI DUP1 PUSH4 0x367FEBEA EQ PUSH2 0x424 JUMPI PUSH2 0x270 JUMP JUMPDEST DUP1 PUSH3 0x249B44 EQ PUSH2 0x274 JUMPI DUP1 PUSH4 0x1C76F81 EQ PUSH2 0x2B0 JUMPI DUP1 PUSH4 0x6D37817 EQ PUSH2 0x2D8 JUMPI DUP1 PUSH4 0x136CF1F7 EQ PUSH2 0x302 JUMPI DUP1 PUSH4 0x19970D8E EQ PUSH2 0x32C JUMPI JUMPDEST PUSH0 PUSH0 REVERT JUMPDEST CALLVALUE DUP1 ISZERO PUSH2 0x27F JUMPI PUSH0 PUSH0 REVERT JUMPDEST POP PUSH2 0x29A PUSH1 0x4 DUP1 CALLDATASIZE SUB DUP2 ADD SWAP1 PUSH2 0x295 SWAP2 SWAP1 PUSH2 0x2BAA JUMP JUMPDEST PUSH2 0xA2E JUMP JUMPDEST PUSH1 0x40 MLOAD PUSH2 0x2A7 SWAP2 SWAP1 PUSH2 0x2BE4 JUMP JUMPDEST PUSH1 0x40 MLOAD DUP1 SWAP2 SUB SWAP1 RETURN JUMPDEST CALLVALUE DUP1 ISZERO PUSH2 0x2BB JUMPI PUSH0 PUSH0 REVERT JUMPDEST POP PUSH2 0x2D6 PUSH1 0x4 DUP1 CALLDATASIZE SUB DUP2 ADD SWAP1 PUSH2 0x2D1 SWAP2 SWAP1 PUSH2 0x2C57 JUMP JUMPDEST PUSH2 0xA6E JUMP JUMPDEST STOP JUMPDEST CALLVALUE DUP1 ISZERO PUSH2 0x2E3 JUMPI PUSH0 PUSH0 REVERT JUMPDEST POP PUSH2 0x2EC PUSH2 0xB09 JUMP JUMPDEST PUSH1 0x40 MLOAD PUSH2 0x2F9 SWAP2 SWAP1 PUSH2 0x2CDD JUMP JUMPDEST PUSH1 0x40 MLOAD DUP1 SWAP2 SUB SWAP1 RETURN JUMPDEST CALLVALUE DUP1 ISZERO PUSH2 0x30D JUMPI PUSH0 PUSH0 REVERT JUMPDEST POP PUSH2 0x316 PUSH2 0xB2E JUMP JUMPDEST PUSH1 0x40 MLOAD PUSH2 0x323 SWAP2 SWAP1 PUSH2 0x2BE4 JUMP JUMPDEST PUSH1 0x40 MLOAD DUP1 SWAP2 SUB SWAP1 RETURN JUMPDEST CALLVALUE DUP1 ISZERO PUSH2 0x337 JUMPI PUSH0 PUSH0 REVERT JUMPDEST POP PUSH2 0x340 PUSH2 0xB34 JUMP JUMPDEST PUSH1 0x40 MLOAD PUSH2 0x34D SWAP2 SWAP1 PUSH2 0x2BE4 JUMP JUMPDEST PUSH1 0x40 MLOAD DUP1 SWAP2 SUB SWAP1 RETURN JUMPDEST CALLVALUE DUP1 ISZERO PUSH2 0x361 JUMPI PUSH0 PUSH0 REVERT JUMPDEST POP PUSH2 0x36A PUSH2 0xB3A JUMP JUMPDEST PUSH1 0x40 MLOAD PUSH2 0x377 SWAP2 SWAP1 PUSH2 0x2BE4 JUMP JUMPDEST PUSH1 0x40 MLOAD DUP1 SWAP2 SUB SWAP1 RETURN JUMPDEST CALLVALUE DUP1 ISZERO PUSH2 0x38B JUMPI PUSH0 PUSH0 REVERT JUMPDEST POP PUSH2 0x394 PUSH2 0xB46 JUMP JUMPDEST PUSH1 0x40 MLOAD PUSH2 0x3A1 SWAP2 SWAP1 PUSH2 0x2BE4 JUMP JUMPDEST PUSH1 0x40 MLOAD DUP1 SWAP2 SUB SWAP1 RETURN JUMPDEST CALLVALUE DUP1 ISZERO PUSH2 0x3B5 JUMPI PUSH0 PUSH0 REVERT JUMPDEST POP PUSH2 0x3D0 PUSH1 0x4 DUP1 CALLDATASIZE SUB DUP2 ADD SWAP1 PUSH2 0x3CB SWAP2 SWAP1 PUSH2 0x2C57 JUMP JUMPDEST PUSH2 0xB4C JUMP JUMPDEST STOP JUMPDEST CALLVALUE DUP1 ISZERO PUSH2 0x3DD JUMPI PUSH0 PUSH0 REVERT JUMPDEST POP PUSH2 0x3E6 PUSH2 0xF2E JUMP JUMPDEST PUSH1 0x40 MLOAD PUSH2 0x3F3 SWAP2 SWAP1 PUSH2 0x2BE4 JUMP JUMPDEST PUSH1 0x40 MLOAD DUP1 SWAP2 SUB SWAP1 RETURN JUMPDEST CALLVALUE DUP1 ISZERO PUSH2 0x407 JUMPI PUSH0 PUSH0 REVERT JUMPDEST POP PUSH2 0x422 PUSH1 0x4 DUP1 CALLDATASIZE SUB DUP2 ADD SWAP1 PUSH2 0x41D SWAP2 SWAP1 PUSH2 0x2C57 JUMP JUMPDEST PUSH2 0xF34 JUMP JUMPDEST STOP JUMPDEST CALLVALUE DUP1 ISZERO PUSH2 0x42F JUMPI PUSH0 PUSH0 REVERT JUMPDEST POP PUSH2 0x44A PUSH1 0x4 DUP1 CALLDATASIZE SUB DUP2 ADD SWAP1 PUSH2 0x445 SWAP2 SWAP1 PUSH2 0x2BAA JUMP JUMPDEST PUSH2 0x107C JUMP JUMPDEST STOP JUMPDEST CALLVALUE DUP1 ISZERO PUSH2 0x457 JUMPI PUSH0 PUSH0 REVERT JUMPDEST POP PUSH2 0x472 PUSH1 0x4 DUP1 CALLDATASIZE SUB DUP2 ADD SWAP1 PUSH2 0x46D SWAP2 SWAP1 PUSH2 0x2BAA JUMP JUMPDEST PUSH2 0x1173 JUMP JUMPDEST PUSH1 0x40 MLOAD PUSH2 0x47F SWAP2 SWAP1 PUSH2 0x2BE4 JUMP JUMPDEST PUSH1 0x40 MLOAD DUP1 SWAP2 SUB SWAP1 RETURN JUMPDEST CALLVALUE DUP1 ISZERO PUSH2 0x493 JUMPI PUSH0 PUSH0 REVERT JUMPDEST POP PUSH2 0x4AE PUSH1 0x4 DUP1 CALLDATASIZE SUB DUP2 ADD SWAP1 PUSH2 0x4A9 SWAP2 SWAP1 PUSH2 0x2BAA JUMP JUMPDEST PUSH2 0x1391 JUMP JUMPDEST STOP JUMPDEST CALLVALUE DUP1 ISZERO PUSH2 0x4BB JUMPI PUSH0 PUSH0 REVERT JUMPDEST POP PUSH2 0x4C4 PUSH2 0x149C JUMP JUMPDEST PUSH1 0x40 MLOAD PUSH2 0x4D1 SWAP2 SWAP1 PUSH2 0x2D05 JUMP JUMPDEST PUSH1 0x40 MLOAD DUP1 SWAP2 SUB SWAP1 RETURN JUMPDEST CALLVALUE DUP1 ISZERO PUSH2 0x4E5 JUMPI PUSH0 PUSH0 REVERT JUMPDEST POP PUSH2 0x4EE PUSH2 0x14C1 JUMP JUMPDEST PUSH1 0x40 MLOAD PUSH2 0x4FB SWAP2 SWAP1 PUSH2 0x2D8E JUMP JUMPDEST PUSH1 0x40 MLOAD DUP1 SWAP2 SUB SWAP1 RETURN JUMPDEST CALLVALUE DUP1 ISZERO PUSH2 0x50F JUMPI PUSH0 PUSH0 REVERT JUMPDEST POP PUSH2 0x52A PUSH1 0x4 DUP1 CALLDATASIZE SUB DUP2 ADD SWAP1 PUSH2 0x525 SWAP2 SWAP1 PUSH2 0x2BAA JUMP JUMPDEST PUSH2 0x154D JUMP JUMPDEST STOP JUMPDEST PUSH2 0x546 PUSH1 0x4 DUP1 CALLDATASIZE SUB DUP2 ADD SWAP1 PUSH2 0x541 SWAP2 SWAP1 PUSH2 0x2E0F JUMP JUMPDEST PUSH2 0x15A8 JUMP JUMPDEST STOP JUMPDEST CALLVALUE DUP1 ISZERO PUSH2 0x553 JUMPI PUSH0 PUSH0 REVERT JUMPDEST POP PUSH2 0x55C PUSH2 0x1728 JUMP JUMPDEST PUSH1 0x40 MLOAD PUSH2 0x569 SWAP2 SWAP1 PUSH2 0x2E84 JUMP JUMPDEST PUSH1 0x40 MLOAD DUP1 SWAP2 SUB SWAP1 RETURN JUMPDEST CALLVALUE DUP1 ISZERO PUSH2 0x57D JUMPI PUSH0 PUSH0 REVERT JUMPDEST POP PUSH2 0x598 PUSH1 0x4 DUP1 CALLDATASIZE SUB DUP2 ADD SWAP1 PUSH2 0x593 SWAP2 SWAP1 PUSH2 0x2C57 JUMP JUMPDEST PUSH2 0x17DF JUMP JUMPDEST PUSH1 0x40 MLOAD PUSH2 0x5A7 SWAP4 SWAP3 SWAP2 SWAP1 PUSH2 0x2E9D JUMP JUMPDEST PUSH1 0x40 MLOAD DUP1 SWAP2 SUB SWAP1 RETURN JUMPDEST CALLVALUE DUP1 ISZERO PUSH2 0x5BB JUMPI PUSH0 PUSH0 REVERT JUMPDEST POP PUSH2 0x5D6 PUSH1 0x4 DUP1 CALLDATASIZE SUB DUP2 ADD SWAP1 PUSH2 0x5D1 SWAP2 SWAP1 PUSH2 0x2BAA JUMP JUMPDEST PUSH2 0x1805 JUMP JUMPDEST STOP JUMPDEST CALLVALUE DUP1 ISZERO PUSH2 0x5E3 JUMPI PUSH0 PUSH0 REVERT JUMPDEST POP PUSH2 0x5EC PUSH2 0x1932 JUMP JUMPDEST PUSH1 0x40 MLOAD PUSH2 0x5F9 SWAP2 SWAP1 PUSH2 0x2D05 JUMP JUMPDEST PUSH1 0x40 MLOAD DUP1 SWAP2 SUB SWAP1 RETURN JUMPDEST CALLVALUE DUP1 ISZERO PUSH2 0x60D JUMPI PUSH0 PUSH0 REVERT JUMPDEST POP PUSH2 0x628 PUSH1 0x4 DUP1 CALLDATASIZE SUB DUP2 ADD SWAP1 PUSH2 0x623 SWAP2 SWAP1 PUSH2 0x2C57 JUMP JUMPDEST PUSH2 0x1957 JUMP JUMPDEST PUSH1 0x40 MLOAD PUSH2 0x635 SWAP2 SWAP1 PUSH2 0x2BE4 JUMP JUMPDEST PUSH1 0x40 MLOAD DUP1 SWAP2 SUB SWAP1 RETURN JUMPDEST CALLVALUE DUP1 ISZERO PUSH2 0x649 JUMPI PUSH0 PUSH0 REVERT JUMPDEST POP PUSH2 0x652 PUSH2 0x19BE JUMP JUMPDEST PUSH1 0x40 MLOAD PUSH2 0x65F SWAP2 SWAP1 PUSH2 0x2BE4 JUMP JUMPDEST PUSH1 0x40 MLOAD DUP1 SWAP2 SUB SWAP1 RETURN JUMPDEST CALLVALUE DUP1 ISZERO PUSH2 0x673 JUMPI PUSH0 PUSH0 REVERT JUMPDEST POP PUSH2 0x67C PUSH2 0x1A80 JUMP JUMPDEST PUSH1 0x40 MLOAD PUSH2 0x689 SWAP2 SWAP1 PUSH2 0x2D8E JUMP JUMPDEST PUSH1 0x40 MLOAD DUP1 SWAP2 SUB SWAP1 RETURN JUMPDEST CALLVALUE DUP1 ISZERO PUSH2 0x69D JUMPI PUSH0 PUSH0 REVERT JUMPDEST POP PUSH2 0x6B8 PUSH1 0x4 DUP1 CALLDATASIZE SUB DUP2 ADD SWAP1 PUSH2 0x6B3 SWAP2 SWAP1 PUSH2 0x2BAA JUMP JUMPDEST PUSH2 0x1B0C JUMP JUMPDEST PUSH1 0x40 MLOAD PUSH2 0x6C5 SWAP2 SWAP1 PUSH2 0x2D05 JUMP JUMPDEST PUSH1 0x40 MLOAD DUP1 SWAP2 SUB SWAP1 RETURN JUMPDEST CALLVALUE DUP1 ISZERO PUSH2 0x6D9 JUMPI PUSH0 PUSH0 REVERT JUMPDEST POP PUSH2 0x6F4 PUSH1 0x4 DUP1 CALLDATASIZE SUB DUP2 ADD SWAP1 PUSH2 0x6EF SWAP2 SWAP1 PUSH2 0x2C57 JUMP JUMPDEST PUSH2 0x1B47 JUMP JUMPDEST PUSH1 0x40 MLOAD PUSH2 0x701 SWAP2 SWAP1 PUSH2 0x2BE4 JUMP JUMPDEST PUSH1 0x40 MLOAD DUP1 SWAP2 SUB SWAP1 RETURN JUMPDEST CALLVALUE DUP1 ISZERO PUSH2 0x715 JUMPI PUSH0 PUSH0 REVERT JUMPDEST POP PUSH2 0x71E PUSH2 0x1DBE JUMP JUMPDEST PUSH1 0x40 MLOAD PUSH2 0x72B SWAP2 SWAP1 PUSH2 0x2BE4 JUMP JUMPDEST PUSH1 0x40 MLOAD DUP1 SWAP2 SUB SWAP1 RETURN JUMPDEST CALLVALUE DUP1 ISZERO PUSH2 0x73F JUMPI PUSH0 PUSH0 REVERT JUMPDEST POP PUSH2 0x748 PUSH2 0x1DC4 JUMP JUMPDEST PUSH1 0x40 MLOAD PUSH2 0x755 SWAP2 SWAP1 PUSH2 0x2EF2 JUMP JUMPDEST PUSH1 0x40 MLOAD DUP1 SWAP2 SUB SWAP1 RETURN JUMPDEST CALLVALUE DUP1 ISZERO PUSH2 0x769 JUMPI PUSH0 PUSH0 REVERT JUMPDEST POP PUSH2 0x772 PUSH2 0x1DE9 JUMP JUMPDEST PUSH1 0x40 MLOAD PUSH2 0x77F SWAP2 SWAP1 PUSH2 0x2D05 JUMP JUMPDEST PUSH1 0x40 MLOAD DUP1 SWAP2 SUB SWAP1 RETURN JUMPDEST CALLVALUE DUP1 ISZERO PUSH2 0x793 JUMPI PUSH0 PUSH0 REVERT JUMPDEST POP PUSH2 0x7AE PUSH1 0x4 DUP1 CALLDATASIZE SUB DUP2 ADD SWAP1 PUSH2 0x7A9 SWAP2 SWAP1 PUSH2 0x2C57 JUMP JUMPDEST PUSH2 0x1E0E JUMP JUMPDEST PUSH1 0x40 MLOAD PUSH2 0x7BB SWAP2 SWAP1 PUSH2 0x2F25 JUMP JUMPDEST PUSH1 0x40 MLOAD DUP1 SWAP2 SUB SWAP1 RETURN JUMPDEST CALLVALUE DUP1 ISZERO PUSH2 0x7CF JUMPI PUSH0 PUSH0 REVERT JUMPDEST POP PUSH2 0x7D8 PUSH2 0x1E23 JUMP JUMPDEST PUSH1 0x40 MLOAD PUSH2 0x7E5 SWAP2 SWAP1 PUSH2 0x2BE4 JUMP JUMPDEST PUSH1 0x40 MLOAD DUP1 SWAP2 SUB SWAP1 RETURN JUMPDEST CALLVALUE DUP1 ISZERO PUSH2 0x7F9 JUMPI PUSH0 PUSH0 REVERT JUMPDEST POP PUSH2 0x802 PUSH2 0x1E29 JUMP JUMPDEST STOP JUMPDEST CALLVALUE DUP1 ISZERO PUSH2 0x80F JUMPI PUSH0 PUSH0 REVERT JUMPDEST POP PUSH2 0x818 PUSH2 0x1EA8 JUMP JUMPDEST PUSH1 0x40 MLOAD PUSH2 0x825 SWAP2 SWAP1 PUSH2 0x2BE4 JUMP JUMPDEST PUSH1 0x40 MLOAD DUP1 SWAP2 SUB SWAP1 RETURN JUMPDEST CALLVALUE DUP1 ISZERO PUSH2 0x839 JUMPI PUSH0 PUSH0 REVERT JUMPDEST POP PUSH2 0x854 PUSH1 0x4 DUP1 CALLDATASIZE SUB DUP2 ADD SWAP1 PUSH2 0x84F SWAP2 SWAP1 PUSH2 0x2FB6 JUMP JUMPDEST PUSH2 0x1EAE JUMP JUMPDEST STOP JUMPDEST CALLVALUE DUP1 ISZERO PUSH2 0x861 JUMPI PUSH0 PUSH0 REVERT JUMPDEST POP PUSH2 0x86A PUSH2 0x2356 JUMP JUMPDEST PUSH1 0x40 MLOAD PUSH2 0x877 SWAP2 SWAP1 PUSH2 0x2CDD JUMP JUMPDEST PUSH1 0x40 MLOAD DUP1 SWAP2 SUB SWAP1 RETURN JUMPDEST CALLVALUE DUP1 ISZERO PUSH2 0x88B JUMPI PUSH0 PUSH0 REVERT JUMPDEST POP PUSH2 0x894 PUSH2 0x237B JUMP JUMPDEST PUSH1 0x40 MLOAD PUSH2 0x8A1 SWAP2 SWAP1 PUSH2 0x2BE4 JUMP JUMPDEST PUSH1 0x40 MLOAD DUP1 SWAP2 SUB SWAP1 RETURN JUMPDEST CALLVALUE DUP1 ISZERO PUSH2 0x8B5 JUMPI PUSH0 PUSH0 REVERT JUMPDEST POP PUSH2 0x8D0 PUSH1 0x4 DUP1 CALLDATASIZE SUB DUP2 ADD SWAP1 PUSH2 0x8CB SWAP2 SWAP1 PUSH2 0x2BAA JUMP JUMPDEST PUSH2 0x2381 JUMP JUMPDEST STOP JUMPDEST CALLVALUE DUP1 ISZERO PUSH2 0x8DD JUMPI PUSH0 PUSH0 REVERT JUMPDEST POP PUSH2 0x8E6 PUSH2 0x2552 JUMP JUMPDEST PUSH1 0x40 MLOAD PUSH2 0x8F3 SWAP2 SWAP1 PUSH2 0x2BE4 JUMP JUMPDEST PUSH1 0x40 MLOAD DUP1 SWAP2 SUB SWAP1 RETURN JUMPDEST CALLVALUE DUP1 ISZERO PUSH2 0x907 JUMPI PUSH0 PUSH0 REVERT JUMPDEST POP PUSH2 0x922 PUSH1 0x4 DUP1 CALLDATASIZE SUB DUP2 ADD SWAP1 PUSH2 0x91D SWAP2 SWAP1 PUSH2 0x304A JUMP JUMPDEST PUSH2 0x2572 JUMP JUMPDEST STOP JUMPDEST CALLVALUE DUP1 ISZERO PUSH2 0x92F JUMPI PUSH0 PUSH0 REVERT JUMPDEST POP PUSH2 0x94A PUSH1 0x4 DUP1 CALLDATASIZE SUB DUP2 ADD SWAP1 PUSH2 0x945 SWAP2 SWAP1 PUSH2 0x2C57 JUMP JUMPDEST PUSH2 0x2600 JUMP JUMPDEST PUSH1 0x40 MLOAD PUSH2 0x957 SWAP2 SWAP1 PUSH2 0x2BE4 JUMP JUMPDEST PUSH1 0x40 MLOAD DUP1 SWAP2 SUB SWAP1 RETURN JUMPDEST CALLVALUE DUP1 ISZERO PUSH2 0x96B JUMPI PUSH0 PUSH0 REVERT JUMPDEST POP PUSH2 0x986 PUSH1 0x4 DUP1 CALLDATASIZE SUB DUP2 ADD SWAP1 PUSH2 0x981 SWAP2 SWAP1 PUSH2 0x2C57 JUMP JUMPDEST PUSH2 0x26B8 JUMP JUMPDEST STOP JUMPDEST CALLVALUE DUP1 ISZERO PUSH2 0x993 JUMPI PUSH0 PUSH0 REVERT JUMPDEST POP PUSH2 0x99C PUSH2 0x278A JUMP JUMPDEST PUSH1 0x40 MLOAD PUSH2 0x9A9 SWAP2 SWAP1 PUSH2 0x2BE4 JUMP JUMPDEST PUSH1 0x40 MLOAD DUP1 SWAP2 SUB SWAP1 RETURN JUMPDEST CALLVALUE DUP1 ISZERO PUSH2 0x9BD JUMPI PUSH0 PUSH0 REVERT JUMPDEST POP PUSH2 0x9D8 PUSH1 0x4 DUP1 CALLDATASIZE SUB DUP2 ADD SWAP1 PUSH2 0x9D3 SWAP2 SWAP1 PUSH2 0x2C57 JUMP JUMPDEST PUSH2 0x2790 JUMP JUMPDEST STOP JUMPDEST CALLVALUE DUP1 ISZERO PUSH2 0x9E5 JUMPI PUSH0 PUSH0 REVERT JUMPDEST POP PUSH2 0x9EE PUSH2 0x282B JUMP JUMPDEST PUSH1 0x40 MLOAD PUSH2 0x9FB SWAP2 SWAP1 PUSH2 0x2D05 JUMP JUMPDEST PUSH1 0x40 MLOAD DUP1 SWAP2 SUB SWAP1 RETURN JUMPDEST CALLVALUE DUP1 ISZERO PUSH2 0xA0F JUMPI PUSH0 PUSH0 REVERT JUMPDEST POP PUSH2 0xA18 PUSH2 0x2850 JUMP JUMPDEST PUSH1 0x40 MLOAD PUSH2 0xA25 SWAP2 SWAP1 PUSH2 0x2BE4 JUMP JUMPDEST PUSH1 0x40 MLOAD DUP1 SWAP2 SUB SWAP1 RETURN JUMPDEST PUSH0 PUSH0 DUP3 GT PUSH2 0xA3A JUMPI PUSH0 PUSH0 REVERT JUMPDEST PUSH1 0x10 SLOAD PUSH8 0xDE0B6B3A7640000 DUP4 PUSH2 0xA51 SWAP2 SWAP1 PUSH2 0x30C7 JUMP JUMPDEST PUSH2 0xA5B SWAP2 SWAP1 PUSH2 0x3135 JUMP JUMPDEST SWAP1 POP PUSH0 DUP2 SUB PUSH2 0xA69 JUMPI PUSH1 0x1 SWAP1 POP JUMPDEST SWAP2 SWAP1 POP JUMP JUMPDEST PUSH0 PUSH1 0x2 SWAP1 SLOAD SWAP1 PUSH2 0x100 EXP SWAP1 DIV PUSH20 0xFFFFFFFFFFFFFFFFFFFFFFFFFFFFFFFFFFFFFFFF AND PUSH20 0xFFFFFFFFFFFFFFFFFFFFFFFFFFFFFFFFFFFFFFFF AND CALLER PUSH20 0xFFFFFFFFFFFFFFFFFFFFFFFFFFFFFFFFFFFFFFFF AND EQ PUSH2 0xAC6 JUMPI PUSH0 PUSH0 REVERT JUMPDEST DUP1 PUSH1 0x8 PUSH0 PUSH2 0x100 EXP DUP2 SLOAD DUP2 PUSH20 0xFFFFFFFFFFFFFFFFFFFFFFFFFFFFFFFFFFFFFFFF MUL NOT AND SWAP1 DUP4 PUSH20 0xFFFFFFFFFFFFFFFFFFFFFFFFFFFFFFFFFFFFFFFF AND MUL OR SWAP1 SSTORE POP POP JUMP JUMPDEST PUSH1 0x3 PUSH0 SWAP1 SLOAD SWAP1 PUSH2 0x100 EXP SWAP1 DIV PUSH20 0xFFFFFFFFFFFFFFFFFFFFFFFFFFFFFFFFFFFFFFFF AND DUP2 JUMP JUMPDEST PUSH1 0x13 SLOAD DUP2 JUMP JUMPDEST PUSH1 0xE SLOAD DUP2 JUMP JUMPDEST PUSH8 0xDE0B6B3A7640000 DUP2 JUMP JUMPDEST PUSH1 0xF SLOAD DUP2 JUMP JUMPDEST PUSH1 0x8 PUSH0 SWAP1 SLOAD SWAP1 PUSH2 0x100 EXP SWAP1 DIV PUSH20 0xFFFFFFFFFFFFFFFFFFFFFFFFFFFFFFFFFFFFFFFF AND PUSH20 0xFFFFFFFFFFFFFFFFFFFFFFFFFFFFFFFFFFFFFFFF AND CALLER PUSH20 0xFFFFFFFFFFFFFFFFFFFFFFFFFFFFFFFFFFFFFFFF AND EQ DUP1 PUSH2 0xBF3 JUMPI POP PUSH0 PUSH1 0x2 SWAP1 SLOAD SWAP1 PUSH2 0x100 EXP SWAP1 DIV PUSH20 0xFFFFFFFFFFFFFFFFFFFFFFFFFFFFFFFFFFFFFFFF AND PUSH20 0xFFFFFFFFFFFFFFFFFFFFFFFFFFFFFFFFFFFFFFFF AND CALLER PUSH20 0xFFFFFFFFFFFFFFFFFFFFFFFFFFFFFFFFFFFFFFFF AND EQ JUMPDEST PUSH2 0xBFB JUMPI PUSH0 PUSH0 REVERT JUMPDEST PUSH2 0xC03 PUSH2 0x1E29 JUMP JUMPDEST PUSH2 0xC0C DUP2 PUSH2 0x1E0E JUMP JUMPDEST ISZERO PUSH2 0xC15 JUMPI PUSH0 PUSH0 REVERT JUMPDEST PUSH0 PUSH1 0x2 PUSH0 DUP4 PUSH20 0xFFFFFFFFFFFFFFFFFFFFFFFFFFFFFFFFFFFFFFFF AND PUSH20 0xFFFFFFFFFFFFFFFFFFFFFFFFFFFFFFFFFFFFFFFF AND DUP2 MSTORE PUSH1 0x20 ADD SWAP1 DUP2 MSTORE PUSH1 0x20 ADD PUSH0 KECCAK256 SWAP1 POP PUSH0 PUSH2 0xC5F DUP4 PUSH2 0x2600 JUMP JUMPDEST SWAP1 POP PUSH0 DUP2 GT PUSH2 0xC6C JUMPI PUSH0 PUSH0 REVERT JUMPDEST PUSH0 PUSH2 0x2710 PUSH1 0xE SLOAD DUP5 PUSH0 ADD SLOAD PUSH2 0xC81 SWAP2 SWAP1 PUSH2 0x30C7 JUMP JUMPDEST PUSH2 0xC8B SWAP2 SWAP1 PUSH2 0x3135 JUMP JUMPDEST SWAP1 POP PUSH0 DUP2 DUP5 PUSH0 ADD SLOAD PUSH2 0xC9D SWAP2 SWAP1 PUSH2 0x3165 JUMP JUMPDEST SWAP1 POP PUSH0 DUP3 GT ISZERO PUSH2 0xD45 JUMPI PUSH1 0x4 PUSH0 SWAP1 SLOAD SWAP1 PUSH2 0x100 EXP SWAP1 DIV PUSH20 0xFFFFFFFFFFFFFFFFFFFFFFFFFFFFFFFFFFFFFFFF AND PUSH20 0xFFFFFFFFFFFFFFFFFFFFFFFFFFFFFFFFFFFFFFFF AND PUSH4 0xA9059CBB CALLER DUP5 PUSH1 0x40 MLOAD DUP4 PUSH4 0xFFFFFFFF AND PUSH1 0xE0 SHL DUP2 MSTORE PUSH1 0x4 ADD PUSH2 0xD03 SWAP3 SWAP2 SWAP1 PUSH2 0x3198 JUMP JUMPDEST PUSH1 0x20 PUSH1 0x40 MLOAD DUP1 DUP4 SUB DUP2 PUSH0 DUP8 GAS CALL ISZERO DUP1 ISZERO PUSH2 0xD1F JUMPI RETURNDATASIZE PUSH0 PUSH0 RETURNDATACOPY RETURNDATASIZE PUSH0 REVERT JUMPDEST POP POP POP POP PUSH1 0x40 MLOAD RETURNDATASIZE PUSH1 0x1F NOT PUSH1 0x1F DUP3 ADD AND DUP3 ADD DUP1 PUSH1 0x40 MSTORE POP DUP2 ADD SWAP1 PUSH2 0xD43 SWAP2 SWAP1 PUSH2 0x31E9 JUMP JUMPDEST POP JUMPDEST PUSH0 DUP2 GT ISZERO PUSH2 0xE0C JUMPI PUSH1 0x4 PUSH0 SWAP1 SLOAD SWAP1 PUSH2 0x100 EXP SWAP1 DIV PUSH20 0xFFFFFFFFFFFFFFFFFFFFFFFFFFFFFFFFFFFFFFFF AND PUSH20 0xFFFFFFFFFFFFFFFFFFFFFFFFFFFFFFFFFFFFFFFF AND PUSH4 0xA9059CBB PUSH1 0xA PUSH0 SWAP1 SLOAD SWAP1 PUSH2 0x100 EXP SWAP1 DIV PUSH20 0xFFFFFFFFFFFFFFFFFFFFFFFFFFFFFFFFFFFFFFFF AND DUP4 PUSH1 0x40 MLOAD DUP4 PUSH4 0xFFFFFFFF AND PUSH1 0xE0 SHL DUP2 MSTORE PUSH1 0x4 ADD PUSH2 0xDCA SWAP3 SWAP2 SWAP1 PUSH2 0x3198 JUMP JUMPDEST PUSH1 0x20 PUSH1 0x40 MLOAD DUP1 DUP4 SUB DUP2 PUSH0 DUP8 GAS CALL ISZERO DUP1 ISZERO PUSH2 0xDE6 JUMPI RETURNDATASIZE PUSH0 PUSH0 RETURNDATACOPY RETURNDATASIZE PUSH0 REVERT JUMPDEST POP POP POP POP PUSH1 0x40 MLOAD RETURNDATASIZE PUSH1 0x1F NOT PUSH1 0x1F DUP3 ADD AND DUP3 ADD DUP1 PUSH1 0x40 MSTORE POP DUP2 ADD SWAP1 PUSH2 0xE0A SWAP2 SWAP1 PUSH2 0x31E9 JUMP JUMPDEST POP JUMPDEST DUP4 PUSH1 0x1 ADD SLOAD PUSH1 0x13 PUSH0 DUP3 DUP3 SLOAD PUSH2 0xE21 SWAP2 SWAP1 PUSH2 0x3165 JUMP JUMPDEST SWAP3 POP POP DUP2 SWAP1 SSTORE POP PUSH1 0x2 PUSH0 DUP7 PUSH20 0xFFFFFFFFFFFFFFFFFFFFFFFFFFFFFFFFFFFFFFFF AND PUSH20 0xFFFFFFFFFFFFFFFFFFFFFFFFFFFFFFFFFFFFFFFF AND DUP2 MSTORE PUSH1 0x20 ADD SWAP1 DUP2 MSTORE PUSH1 0x20 ADD PUSH0 KECCAK256 PUSH0 PUSH0 DUP3 ADD PUSH0 SWAP1 SSTORE PUSH1 0x1 DUP3 ADD PUSH0 SWAP1 SSTORE PUSH1 0x2 DUP3 ADD PUSH0 SWAP1 SSTORE POP POP PUSH1 0x1 DUP1 SLOAD DUP1 PUSH2 0xE8E JUMPI PUSH2 0xE8D PUSH2 0x3214 JUMP JUMPDEST JUMPDEST PUSH1 0x1 SWAP1 SUB DUP2 DUP2 SWAP1 PUSH0 MSTORE PUSH1 0x20 PUSH0 KECCAK256 ADD PUSH0 PUSH2 0x100 EXP DUP2 SLOAD SWAP1 PUSH20 0xFFFFFFFFFFFFFFFFFFFFFFFFFFFFFFFFFFFFFFFF MUL NOT AND SWAP1 SSTORE SWAP1 SSTORE CALLER PUSH20 0xFFFFFFFFFFFFFFFFFFFFFFFFFFFFFFFFFFFFFFFF AND DUP6 PUSH20 0xFFFFFFFFFFFFFFFFFFFFFFFFFFFFFFFFFFFFFFFF AND PUSH32 0x1F0C6615429D1CDAE0DFA233ABF91D3B31CDBDD82C8081389832A61E1072F1EA DUP6 DUP6 PUSH1 0x40 MLOAD PUSH2 0xF1F SWAP3 SWAP2 SWAP1 PUSH2 0x3241 JUMP JUMPDEST PUSH1 0x40 MLOAD DUP1 SWAP2 SUB SWAP1 LOG3 POP POP POP POP POP JUMP JUMPDEST PUSH1 0x11 SLOAD DUP2 JUMP JUMPDEST PUSH32 0x0 PUSH20 0xFFFFFFFFFFFFFFFFFFFFFFFFFFFFFFFFFFFFFFFF AND ADDRESS PUSH20 0xFFFFFFFFFFFFFFFFFFFFFFFFFFFFFFFFFFFFFFFF AND SUB PUSH2 0xFC2 JUMPI PUSH1 0x40 MLOAD PUSH32 0x8C379A000000000000000000000000000000000000000000000000000000000 DUP2 MSTORE PUSH1 0x4 ADD PUSH2 0xFB9 SWAP1 PUSH2 0x32B2 JUMP JUMPDEST PUSH1 0x40 MLOAD DUP1 SWAP2 SUB SWAP1 REVERT JUMPDEST PUSH32 0x0 PUSH20 0xFFFFFFFFFFFFFFFFFFFFFFFFFFFFFFFFFFFFFFFF AND PUSH2 0x1001 PUSH2 0x288E JUMP JUMPDEST PUSH20 0xFFFFFFFFFFFFFFFFFFFFFFFFFFFFFFFFFFFFFFFF AND EQ PUSH2 0x1057 JUMPI PUSH1 0x40 MLOAD PUSH32 0x8C379A000000000000000000000000000000000000000000000000000000000 DUP2 MSTORE PUSH1 0x4 ADD PUSH2 0x104E SWAP1 PUSH2 0x331A JUMP JUMPDEST PUSH1 0x40 MLOAD DUP1 SWAP2 SUB SWAP1 REVERT JUMPDEST PUSH2 0x1060 DUP2 PUSH2 0x28BD JUMP JUMPDEST PUSH2 0x1079 DUP2 PUSH1 0x40 MLOAD DUP1 PUSH1 0x20 ADD PUSH1 0x40 MSTORE DUP1 PUSH0 DUP2 MSTORE POP PUSH0 PUSH2 0x2918 JUMP JUMPDEST POP JUMP JUMPDEST PUSH1 0x4 PUSH0 SWAP1 SLOAD SWAP1 PUSH2 0x100 EXP SWAP1 DIV PUSH20 0xFFFFFFFFFFFFFFFFFFFFFFFFFFFFFFFFFFFFFFFF AND PUSH20 0xFFFFFFFFFFFFFFFFFFFFFFFFFFFFFFFFFFFFFFFF AND PUSH4 0x23B872DD CALLER ADDRESS DUP5 PUSH1 0x40 MLOAD DUP5 PUSH4 0xFFFFFFFF AND PUSH1 0xE0 SHL DUP2 MSTORE PUSH1 0x4 ADD PUSH2 0x10DA SWAP4 SWAP3 SWAP2 SWAP1 PUSH2 0x3338 JUMP JUMPDEST PUSH1 0x20 PUSH1 0x40 MLOAD DUP1 DUP4 SUB DUP2 PUSH0 DUP8 GAS CALL ISZERO DUP1 ISZERO PUSH2 0x10F6 JUMPI RETURNDATASIZE PUSH0 PUSH0 RETURNDATACOPY RETURNDATASIZE PUSH0 REVERT JUMPDEST POP POP POP POP PUSH1 0x40 MLOAD RETURNDATASIZE PUSH1 0x1F NOT PUSH1 0x1F DUP3 ADD AND DUP3 ADD DUP1 PUSH1 0x40 MSTORE POP DUP2 ADD SWAP1 PUSH2 0x111A SWAP2 SWAP1 PUSH2 0x31E9 JUMP JUMPDEST POP DUP1 PUSH1 0x2 PUSH0 CALLER PUSH20 0xFFFFFFFFFFFFFFFFFFFFFFFFFFFFFFFFFFFFFFFF AND PUSH20 0xFFFFFFFFFFFFFFFFFFFFFFFFFFFFFFFFFFFFFFFF AND DUP2 MSTORE PUSH1 0x20 ADD SWAP1 DUP2 MSTORE PUSH1 0x20 ADD PUSH0 KECCAK256 PUSH0 ADD PUSH0 DUP3 DUP3 SLOAD PUSH2 0x1169 SWAP2 SWAP1 PUSH2 0x336D JUMP JUMPDEST SWAP3 POP POP DUP2 SWAP1 SSTORE POP POP JUMP JUMPDEST PUSH0 PUSH0 DUP3 GT PUSH2 0x117F JUMPI PUSH0 PUSH0 REVERT JUMPDEST PUSH2 0x1187 PUSH2 0x1E29 JUMP JUMPDEST PUSH0 PUSH1 0x2 PUSH0 CALLER PUSH20 0xFFFFFFFFFFFFFFFFFFFFFFFFFFFFFFFFFFFFFFFF AND PUSH20 0xFFFFFFFFFFFFFFFFFFFFFFFFFFFFFFFFFFFFFFFF AND DUP2 MSTORE PUSH1 0x20 ADD SWAP1 DUP2 MSTORE PUSH1 0x20 ADD PUSH0 KECCAK256 SWAP1 POP PUSH0 PUSH2 0x11D1 CALLER PUSH2 0x2600 JUMP JUMPDEST SWAP1 POP PUSH0 DUP2 GT PUSH2 0x11DE JUMPI PUSH0 PUSH0 REVERT JUMPDEST PUSH0 DUP2 DUP6 GT PUSH2 0x11EC JUMPI DUP5 PUSH2 0x11EE JUMP JUMPDEST DUP2 JUMPDEST SWAP1 POP PUSH1 0x3 PUSH0 SWAP1 SLOAD SWAP1 PUSH2 0x100 EXP SWAP1 DIV PUSH20 0xFFFFFFFFFFFFFFFFFFFFFFFFFFFFFFFFFFFFFFFF AND PUSH20 0xFFFFFFFFFFFFFFFFFFFFFFFFFFFFFFFFFFFFFFFF AND PUSH4 0x23B872DD CALLER ADDRESS DUP5 PUSH1 0x40 MLOAD DUP5 PUSH4 0xFFFFFFFF AND PUSH1 0xE0 SHL DUP2 MSTORE PUSH1 0x4 ADD PUSH2 0x124E SWAP4 SWAP3 SWAP2 SWAP1 PUSH2 0x3338 JUMP JUMPDEST PUSH1 0x20 PUSH1 0x40 MLOAD DUP1 DUP4 SUB DUP2 PUSH0 DUP8 GAS CALL ISZERO DUP1 ISZERO PUSH2 0x126A JUMPI RETURNDATASIZE PUSH0 PUSH0 RETURNDATACOPY RETURNDATASIZE PUSH0 REVERT JUMPDEST POP POP POP POP PUSH1 0x40 MLOAD RETURNDATASIZE PUSH1 0x1F NOT PUSH1 0x1F DUP3 ADD AND DUP3 ADD DUP1 PUSH1 0x40 MSTORE POP DUP2 ADD SWAP1 PUSH2 0x128E SWAP2 SWAP1 PUSH2 0x31E9 JUMP JUMPDEST POP PUSH0 DUP2 DUP5 PUSH1 0x2 ADD SLOAD GT PUSH2 0x12A5 JUMPI DUP4 PUSH1 0x2 ADD SLOAD PUSH2 0x12A7 JUMP JUMPDEST DUP2 JUMPDEST SWAP1 POP DUP1 DUP5 PUSH1 0x2 ADD PUSH0 DUP3 DUP3 SLOAD PUSH2 0x12BC SWAP2 SWAP1 PUSH2 0x3165 JUMP JUMPDEST SWAP3 POP POP DUP2 SWAP1 SSTORE POP PUSH2 0x3E8 PUSH1 0x11 SLOAD DUP3 DUP5 PUSH2 0x12D5 SWAP2 SWAP1 PUSH2 0x3165 JUMP JUMPDEST PUSH2 0x12DF SWAP2 SWAP1 PUSH2 0x30C7 JUMP JUMPDEST PUSH2 0x12E9 SWAP2 SWAP1 PUSH2 0x3135 JUMP JUMPDEST PUSH1 0x11 PUSH0 DUP3 DUP3 SLOAD PUSH2 0x12F9 SWAP2 SWAP1 PUSH2 0x336D JUMP JUMPDEST SWAP3 POP POP DUP2 SWAP1 SSTORE POP PUSH0 DUP4 DUP4 EQ PUSH2 0x132E JUMPI PUSH1 0x10 SLOAD PUSH8 0xDE0B6B3A7640000 DUP5 PUSH2 0x131F SWAP2 SWAP1 PUSH2 0x30C7 JUMP JUMPDEST PUSH2 0x1329 SWAP2 SWAP1 PUSH2 0x3135 JUMP JUMPDEST PUSH2 0x1334 JUMP JUMPDEST DUP5 PUSH1 0x1 ADD SLOAD JUMPDEST SWAP1 POP DUP5 PUSH1 0x1 ADD SLOAD DUP2 GT ISZERO PUSH2 0x134A JUMPI DUP5 PUSH1 0x1 ADD SLOAD SWAP1 POP JUMPDEST DUP1 DUP6 PUSH1 0x1 ADD PUSH0 DUP3 DUP3 SLOAD PUSH2 0x135D SWAP2 SWAP1 PUSH2 0x3165 JUMP JUMPDEST SWAP3 POP POP DUP2 SWAP1 SSTORE POP DUP1 PUSH1 0x13 PUSH0 DUP3 DUP3 SLOAD PUSH2 0x1375 SWAP2 SWAP1 PUSH2 0x3165 JUMP JUMPDEST SWAP3 POP POP DUP2 SWAP1 SSTORE POP PUSH2 0x1385 CALLER PUSH2 0x2600 JUMP JUMPDEST SWAP6 POP POP POP POP POP POP SWAP2 SWAP1 POP JUMP JUMPDEST PUSH1 0x9 PUSH0 SWAP1 SLOAD SWAP1 PUSH2 0x100 EXP SWAP1 DIV PUSH20 0xFFFFFFFFFFFFFFFFFFFFFFFFFFFFFFFFFFFFFFFF AND PUSH20 0xFFFFFFFFFFFFFFFFFFFFFFFFFFFFFFFFFFFFFFFF AND CALLER PUSH20 0xFFFFFFFFFFFFFFFFFFFFFFFFFFFFFFFFFFFFFFFF AND EQ PUSH2 0x13E9 JUMPI PUSH0 PUSH0 REVERT JUMPDEST PUSH2 0x13F1 PUSH2 0x19BE JUMP JUMPDEST DUP2 GT ISZERO PUSH2 0x13FC JUMPI PUSH0 PUSH0 REVERT JUMPDEST PUSH1 0x3 PUSH0 SWAP1 SLOAD SWAP1 PUSH2 0x100 EXP SWAP1 DIV PUSH20 0xFFFFFFFFFFFFFFFFFFFFFFFFFFFFFFFFFFFFFFFF AND PUSH20 0xFFFFFFFFFFFFFFFFFFFFFFFFFFFFFFFFFFFFFFFF AND PUSH4 0xA9059CBB CALLER DUP4 PUSH1 0x40 MLOAD DUP4 PUSH4 0xFFFFFFFF AND PUSH1 0xE0 SHL DUP2 MSTORE PUSH1 0x4 ADD PUSH2 0x1458 SWAP3 SWAP2 SWAP1 PUSH2 0x3198 JUMP JUMPDEST PUSH1 0x20 PUSH1 0x40 MLOAD DUP1 DUP4 SUB DUP2 PUSH0 DUP8 GAS CALL ISZERO DUP1 ISZERO PUSH2 0x1474 JUMPI RETURNDATASIZE PUSH0 PUSH0 RETURNDATACOPY RETURNDATASIZE PUSH0 REVERT JUMPDEST POP POP POP POP PUSH1 0x40 MLOAD RETURNDATASIZE PUSH1 0x1F NOT PUSH1 0x1F DUP3 ADD AND DUP3 ADD DUP1 PUSH1 0x40 MSTORE POP DUP2 ADD SWAP1 PUSH2 0x1498 SWAP2 SWAP1 PUSH2 0x31E9 JUMP JUMPDEST POP POP JUMP JUMPDEST PUSH1 0x8 PUSH0 SWAP1 SLOAD SWAP1 PUSH2 0x100 EXP SWAP1 DIV PUSH20 0xFFFFFFFFFFFFFFFFFFFFFFFFFFFFFFFFFFFFFFFF AND DUP2 JUMP JUMPDEST PUSH1 0x6 DUP1 SLOAD PUSH2 0x14CE SWAP1 PUSH2 0x33CD JUMP JUMPDEST DUP1 PUSH1 0x1F ADD PUSH1 0x20 DUP1 SWAP2 DIV MUL PUSH1 0x20 ADD PUSH1 0x40 MLOAD SWAP1 DUP2 ADD PUSH1 0x40 MSTORE DUP1 SWAP3 SWAP2 SWAP1 DUP2 DUP2 MSTORE PUSH1 0x20 ADD DUP3 DUP1 SLOAD PUSH2 0x14FA SWAP1 PUSH2 0x33CD JUMP JUMPDEST DUP1 ISZERO PUSH2 0x1545 JUMPI DUP1 PUSH1 0x1F LT PUSH2 0x151C JUMPI PUSH2 0x100 DUP1 DUP4 SLOAD DIV MUL DUP4 MSTORE SWAP2 PUSH1 0x20 ADD SWAP2 PUSH2 0x1545 JUMP JUMPDEST DUP3 ADD SWAP2 SWAP1 PUSH0 MSTORE PUSH1 0x20 PUSH0 KECCAK256 SWAP1 JUMPDEST DUP2 SLOAD DUP2 MSTORE SWAP1 PUSH1 0x1 ADD SWAP1 PUSH1 0x20 ADD DUP1 DUP4 GT PUSH2 0x1528 JUMPI DUP3 SWAP1 SUB PUSH1 0x1F AND DUP3 ADD SWAP2 JUMPDEST POP POP POP POP POP DUP2 JUMP JUMPDEST PUSH1 0x9 PUSH0 SWAP1 SLOAD SWAP1 PUSH2 0x100 EXP SWAP1 DIV PUSH20 0xFFFFFFFFFFFFFFFFFFFFFFFFFFFFFFFFFFFFFFFF AND PUSH20 0xFFFFFFFFFFFFFFFFFFFFFFFFFFFFFFFFFFFFFFFF AND CALLER PUSH20 0xFFFFFFFFFFFFFFFFFFFFFFFFFFFFFFFFFFFFFFFF AND EQ PUSH2 0x15A5 JUMPI PUSH0 PUSH0 REVERT JUMPDEST POP JUMP JUMPDEST PUSH32 0x0 PUSH20 0xFFFFFFFFFFFFFFFFFFFFFFFFFFFFFFFFFFFFFFFF AND ADDRESS PUSH20 0xFFFFFFFFFFFFFFFFFFFFFFFFFFFFFFFFFFFFFFFF AND SUB PUSH2 0x1636 JUMPI PUSH1 0x40 MLOAD PUSH32 0x8C379A000000000000000000000000000000000000000000000000000000000 DUP2 MSTORE PUSH1 0x4 ADD PUSH2 0x162D SWAP1 PUSH2 0x32B2 JUMP JUMPDEST PUSH1 0x40 MLOAD DUP1 SWAP2 SUB SWAP1 REVERT JUMPDEST PUSH32 0x0 PUSH20 0xFFFFFFFFFFFFFFFFFFFFFFFFFFFFFFFFFFFFFFFF AND PUSH2 0x1675 PUSH2 0x288E JUMP JUMPDEST PUSH20 0xFFFFFFFFFFFFFFFFFFFFFFFFFFFFFFFFFFFFFFFF AND EQ PUSH2 0x16CB JUMPI PUSH1 0x40 MLOAD PUSH32 0x8C379A000000000000000000000000000000000000000000000000000000000 DUP2 MSTORE PUSH1 0x4 ADD PUSH2 0x16C2 SWAP1 PUSH2 0x331A JUMP JUMPDEST PUSH1 0x40 MLOAD DUP1 SWAP2 SUB SWAP1 REVERT JUMPDEST PUSH2 0x16D4 DUP4 PUSH2 0x28BD JUMP JUMPDEST PUSH2 0x1723 DUP4 DUP4 DUP4 DUP1 DUP1 PUSH1 0x1F ADD PUSH1 0x20 DUP1 SWAP2 DIV MUL PUSH1 0x20 ADD PUSH1 0x40 MLOAD SWAP1 DUP2 ADD PUSH1 0x40 MSTORE DUP1 SWAP4 SWAP3 SWAP2 SWAP1 DUP2 DUP2 MSTORE PUSH1 0x20 ADD DUP4 DUP4 DUP1 DUP3 DUP5 CALLDATACOPY PUSH0 DUP2 DUP5 ADD MSTORE PUSH1 0x1F NOT PUSH1 0x1F DUP3 ADD AND SWAP1 POP DUP1 DUP4 ADD SWAP3 POP POP POP POP POP POP POP PUSH1 0x1 PUSH2 0x2918 JUMP JUMPDEST POP POP POP JUMP JUMPDEST PUSH0 PUSH32 0x0 PUSH20 0xFFFFFFFFFFFFFFFFFFFFFFFFFFFFFFFFFFFFFFFF AND ADDRESS PUSH20 0xFFFFFFFFFFFFFFFFFFFFFFFFFFFFFFFFFFFFFFFF AND EQ PUSH2 0x17B7 JUMPI PUSH1 0x40 MLOAD PUSH32 0x8C379A000000000000000000000000000000000000000000000000000000000 DUP2 MSTORE PUSH1 0x4 ADD PUSH2 0x17AE SWAP1 PUSH2 0x3447 JUMP JUMPDEST PUSH1 0x40 MLOAD DUP1 SWAP2 SUB SWAP1 REVERT JUMPDEST PUSH32 0x360894A13BA1A3210667C828492DB98DCA3E2076CC3735A920A3CA505D382BBC PUSH0 SHL SWAP1 POP SWAP1 JUMP JUMPDEST PUSH1 0x2 PUSH1 0x20 MSTORE DUP1 PUSH0 MSTORE PUSH1 0x40 PUSH0 KECCAK256 PUSH0 SWAP2 POP SWAP1 POP DUP1 PUSH0 ADD SLOAD SWAP1 DUP1 PUSH1 0x1 ADD SLOAD SWAP1 DUP1 PUSH1 0x2 ADD SLOAD SWAP1 POP DUP4 JUMP JUMPDEST PUSH0 DUP2 GT PUSH2 0x1810 JUMPI PUSH0 PUSH0 REVERT JUMPDEST PUSH2 0x1818 PUSH2 0x1E29 JUMP JUMPDEST PUSH0 PUSH1 0x2 PUSH0 CALLER PUSH20 0xFFFFFFFFFFFFFFFFFFFFFFFFFFFFFFFFFFFFFFFF AND PUSH20 0xFFFFFFFFFFFFFFFFFFFFFFFFFFFFFFFFFFFFFFFF AND DUP2 MSTORE PUSH1 0x20 ADD SWAP1 DUP2 MSTORE PUSH1 0x20 ADD PUSH0 KECCAK256 SWAP1 POP DUP1 PUSH0 ADD SLOAD DUP3 GT ISZERO PUSH2 0x1867 JUMPI PUSH0 PUSH0 REVERT JUMPDEST DUP2 DUP2 PUSH0 ADD PUSH0 DUP3 DUP3 SLOAD PUSH2 0x1879 SWAP2 SWAP1 PUSH2 0x3165 JUMP JUMPDEST SWAP3 POP POP DUP2 SWAP1 SSTORE POP PUSH2 0x1889 CALLER PUSH2 0x1E0E JUMP JUMPDEST PUSH2 0x1891 JUMPI PUSH0 PUSH0 REVERT JUMPDEST PUSH1 0x4 PUSH0 SWAP1 SLOAD SWAP1 PUSH2 0x100 EXP SWAP1 DIV PUSH20 0xFFFFFFFFFFFFFFFFFFFFFFFFFFFFFFFFFFFFFFFF AND PUSH20 0xFFFFFFFFFFFFFFFFFFFFFFFFFFFFFFFFFFFFFFFF AND PUSH4 0xA9059CBB CALLER DUP5 PUSH1 0x40 MLOAD DUP4 PUSH4 0xFFFFFFFF AND PUSH1 0xE0 SHL DUP2 MSTORE PUSH1 0x4 ADD PUSH2 0x18ED SWAP3 SWAP2 SWAP1 PUSH2 0x3198 JUMP JUMPDEST PUSH1 0x20 PUSH1 0x40 MLOAD DUP1 DUP4 SUB DUP2 PUSH0 DUP8 GAS CALL ISZERO DUP1 ISZERO PUSH2 0x1909 JUMPI RETURNDATASIZE PUSH0 PUSH0 RETURNDATACOPY RETURNDATASIZE PUSH0 REVERT JUMPDEST POP POP POP POP PUSH1 0x40 MLOAD RETURNDATASIZE PUSH1 0x1F NOT PUSH1 0x1F DUP3 ADD AND DUP3 ADD DUP1 PUSH1 0x40 MSTORE POP DUP2 ADD SWAP1 PUSH2 0x192D SWAP2 SWAP1 PUSH2 0x31E9 JUMP JUMPDEST POP POP POP JUMP JUMPDEST PUSH1 0xA PUSH0 SWAP1 SLOAD SWAP1 PUSH2 0x100 EXP SWAP1 DIV PUSH20 0xFFFFFFFFFFFFFFFFFFFFFFFFFFFFFFFFFFFFFFFF AND DUP2 JUMP JUMPDEST PUSH0 PUSH0 PUSH2 0x1962 DUP4 PUSH2 0x1B47 JUMP JUMPDEST SWAP1 POP PUSH0 DUP2 SUB PUSH2 0x1994 JUMPI PUSH32 0xFFFFFFFFFFFFFFFFFFFFFFFFFFFFFFFFFFFFFFFFFFFFFFFFFFFFFFFFFFFFFFFF SWAP2 POP POP PUSH2 0x19B9 JUMP JUMPDEST DUP1 PUSH8 0xDE0B6B3A7640000 PUSH1 0xB SLOAD PUSH2 0x19AB SWAP2 SWAP1 PUSH2 0x30C7 JUMP JUMPDEST PUSH2 0x19B5 SWAP2 SWAP1 PUSH2 0x3135 JUMP JUMPDEST SWAP2 POP POP JUMPDEST SWAP2 SWAP1 POP JUMP JUMPDEST PUSH0 PUSH0 PUSH1 0x3 PUSH0 SWAP1 SLOAD SWAP1 PUSH2 0x100 EXP SWAP1 DIV PUSH20 0xFFFFFFFFFFFFFFFFFFFFFFFFFFFFFFFFFFFFFFFF AND PUSH20 0xFFFFFFFFFFFFFFFFFFFFFFFFFFFFFFFFFFFFFFFF AND PUSH4 0x70A08231 ADDRESS PUSH1 0x40 MLOAD DUP3 PUSH4 0xFFFFFFFF AND PUSH1 0xE0 SHL DUP2 MSTORE PUSH1 0x4 ADD PUSH2 0x1A1A SWAP2 SWAP1 PUSH2 0x2D05 JUMP JUMPDEST PUSH1 0x20 PUSH1 0x40 MLOAD DUP1 DUP4 SUB DUP2 DUP7 GAS STATICCALL ISZERO DUP1 ISZERO PUSH2 0x1A35 JUMPI RETURNDATASIZE PUSH0 PUSH0 RETURNDATACOPY RETURNDATASIZE PUSH0 REVERT JUMPDEST POP POP POP POP PUSH1 0x40 MLOAD RETURNDATASIZE PUSH1 0x1F NOT PUSH1 0x1F DUP3 ADD AND DUP3 ADD DUP1 PUSH1 0x40 MSTORE POP DUP2 ADD SWAP1 PUSH2 0x1A59 SWAP2 SWAP1 PUSH2 0x3479 JUMP JUMPDEST SWAP1 POP PUSH1 0x12 SLOAD DUP2 GT ISZERO PUSH2 0x1A78 JUMPI PUSH1 0x12 SLOAD DUP2 PUSH2 0x1A73 SWAP2 SWAP1 PUSH2 0x3165 JUMP JUMPDEST PUSH2 0x1A7A JUMP JUMPDEST PUSH0 JUMPDEST SWAP2 POP POP SWAP1 JUMP JUMPDEST PUSH1 0x7 DUP1 SLOAD PUSH2 0x1A8D SWAP1 PUSH2 0x33CD JUMP JUMPDEST DUP1 PUSH1 0x1F ADD PUSH1 0x20 DUP1 SWAP2 DIV MUL PUSH1 0x20 ADD PUSH1 0x40 MLOAD SWAP1 DUP2 ADD PUSH1 0x40 MSTORE DUP1 SWAP3 SWAP2 SWAP1 DUP2 DUP2 MSTORE PUSH1 0x20 ADD DUP3 DUP1 SLOAD PUSH2 0x1AB9 SWAP1 PUSH2 0x33CD JUMP JUMPDEST DUP1 ISZERO PUSH2 0x1B04 JUMPI DUP1 PUSH1 0x1F LT PUSH2 0x1ADB JUMPI PUSH2 0x100 DUP1 DUP4 SLOAD DIV MUL DUP4 MSTORE SWAP2 PUSH1 0x20 ADD SWAP2 PUSH2 0x1B04 JUMP JUMPDEST DUP3 ADD SWAP2 SWAP1 PUSH0 MSTORE PUSH1 0x20 PUSH0 KECCAK256 SWAP1 JUMPDEST DUP2 SLOAD DUP2 MSTORE SWAP1 PUSH1 0x1 ADD SWAP1 PUSH1 0x20 ADD DUP1 DUP4 GT PUSH2 0x1AE7 JUMPI DUP3 SWAP1 SUB PUSH1 0x1F AND DUP3 ADD SWAP2 JUMPDEST POP POP POP POP POP DUP2 JUMP JUMPDEST PUSH1 0x1 DUP2 DUP2 SLOAD DUP2 LT PUSH2 0x1B1B JUMPI PUSH0 DUP1 REVERT JUMPDEST SWAP1 PUSH0 MSTORE PUSH1 0x20 PUSH0 KECCAK256 ADD PUSH0 SWAP2 POP SLOAD SWAP1 PUSH2 0x100 EXP SWAP1 DIV PUSH20 0xFFFFFFFFFFFFFFFFFFFFFFFFFFFFFFFFFFFFFFFF AND DUP2 JUMP JUMPDEST PUSH0 PUSH0 PUSH20 0xFFFFFFFFFFFFFFFFFFFFFFFFFFFFFFFFFFFFFFFF AND DUP3 PUSH20 0xFFFFFFFFFFFFFFFFFFFFFFFFFFFFFFFFFFFFFFFF AND SUB PUSH2 0x1B7F JUMPI PUSH0 PUSH0 REVERT JUMPDEST PUSH0 PUSH2 0x1B89 DUP4 PUSH2 0x2600 JUMP JUMPDEST SWAP1 POP PUSH0 PUSH1 0x2 PUSH0 DUP6 PUSH20 0xFFFFFFFFFFFFFFFFFFFFFFFFFFFFFFFFFFFFFFFF AND PUSH20 0xFFFFFFFFFFFFFFFFFFFFFFFFFFFFFFFFFFFFFFFF AND DUP2 MSTORE PUSH1 0x20 ADD SWAP1 DUP2 MSTORE PUSH1 0x20 ADD PUSH0 KECCAK256 SWAP1 POP PUSH0 DUP3 SUB PUSH2 0x1BDC JUMPI PUSH0 SWAP3 POP POP POP PUSH2 0x1DB9 JUMP JUMPDEST PUSH0 DUP2 PUSH0 ADD SLOAD SUB PUSH2 0x1C10 JUMPI PUSH32 0xFFFFFFFFFFFFFFFFFFFFFFFFFFFFFFFFFFFFFFFFFFFFFFFFFFFFFFFFFFFFFFFF SWAP3 POP POP POP PUSH2 0x1DB9 JUMP JUMPDEST PUSH1 0x5 PUSH0 SWAP1 SLOAD SWAP1 PUSH2 0x100 EXP SWAP1 DIV PUSH20 0xFFFFFFFFFFFFFFFFFFFFFFFFFFFFFFFFFFFFFFFF AND PUSH20 0xFFFFFFFFFFFFFFFFFFFFFFFFFFFFFFFFFFFFFFFF AND PUSH4 0x41976E09 PUSH1 0x4 PUSH0 SWAP1 SLOAD SWAP1 PUSH2 0x100 EXP SWAP1 DIV PUSH20 0xFFFFFFFFFFFFFFFFFFFFFFFFFFFFFFFFFFFFFFFF AND PUSH1 0x40 MLOAD DUP3 PUSH4 0xFFFFFFFF AND PUSH1 0xE0 SHL DUP2 MSTORE PUSH1 0x4 ADD PUSH2 0x1C8B SWAP2 SWAP1 PUSH2 0x2D05 JUMP JUMPDEST PUSH1 0x20 PUSH1 0x40 MLOAD DUP1 DUP4 SUB DUP2 DUP7 GAS STATICCALL ISZERO DUP1 ISZERO PUSH2 0x1CA6 JUMPI RETURNDATASIZE PUSH0 PUSH0 RETURNDATACOPY RETURNDATASIZE PUSH0 REVERT JUMPDEST POP POP POP POP PUSH1 0x40 MLOAD RETURNDATASIZE PUSH1 0x1F NOT PUSH1 0x1F DUP3 ADD AND DUP3 ADD DUP1 PUSH1 0x40 MSTORE POP DUP2 ADD SWAP1 PUSH2 0x1CCA SWAP2 SWAP1 PUSH2 0x3479 JUMP JUMPDEST DUP2 PUSH0 ADD SLOAD PUSH2 0x1CD8 SWAP2 SWAP1 PUSH2 0x30C7 JUMP JUMPDEST PUSH2 0x2710 PUSH1 0x5 PUSH0 SWAP1 SLOAD SWAP1 PUSH2 0x100 EXP SWAP1 DIV PUSH20 0xFFFFFFFFFFFFFFFFFFFFFFFFFFFFFFFFFFFFFFFF AND PUSH20 0xFFFFFFFFFFFFFFFFFFFFFFFFFFFFFFFFFFFFFFFF AND PUSH4 0x41976E09 PUSH1 0x3 PUSH0 SWAP1 SLOAD SWAP1 PUSH2 0x100 EXP SWAP1 DIV PUSH20 0xFFFFFFFFFFFFFFFFFFFFFFFFFFFFFFFFFFFFFFFF AND PUSH1 0x40 MLOAD DUP3 PUSH4 0xFFFFFFFF AND PUSH1 0xE0 SHL DUP2 MSTORE PUSH1 0x4 ADD PUSH2 0x1D56 SWAP2 SWAP1 PUSH2 0x2D05 JUMP JUMPDEST PUSH1 0x20 PUSH1 0x40 MLOAD DUP1 DUP4 SUB DUP2 DUP7 GAS STATICCALL ISZERO DUP1 ISZERO PUSH2 0x1D71 JUMPI RETURNDATASIZE PUSH0 PUSH0 RETURNDATACOPY RETURNDATASIZE PUSH0 REVERT JUMPDEST POP POP POP POP PUSH1 0x40 MLOAD RETURNDATASIZE PUSH1 0x1F NOT PUSH1 0x1F DUP3 ADD AND DUP3 ADD DUP1 PUSH1 0x40 MSTORE POP DUP2 ADD SWAP1 PUSH2 0x1D95 SWAP2 SWAP1 PUSH2 0x3479 JUMP JUMPDEST DUP5 PUSH2 0x1DA0 SWAP2 SWAP1 PUSH2 0x30C7 JUMP JUMPDEST PUSH2 0x1DAA SWAP2 SWAP1 PUSH2 0x30C7 JUMP JUMPDEST PUSH2 0x1DB4 SWAP2 SWAP1 PUSH2 0x3135 JUMP JUMPDEST SWAP3 POP POP POP JUMPDEST SWAP2 SWAP1 POP JUMP JUMPDEST PUSH1 0xC SLOAD DUP2 JUMP JUMPDEST PUSH1 0x5 PUSH0 SWAP1 SLOAD SWAP1 PUSH2 0x100 EXP SWAP1 DIV PUSH20 0xFFFFFFFFFFFFFFFFFFFFFFFFFFFFFFFFFFFFFFFF AND DUP2 JUMP JUMPDEST PUSH0 PUSH1 0x2 SWAP1 SLOAD SWAP1 PUSH2 0x100 EXP SWAP1 DIV PUSH20 0xFFFFFFFFFFFFFFFFFFFFFFFFFFFFFFFFFFFFFFFF AND DUP2 JUMP JUMPDEST PUSH0 PUSH1 0xB SLOAD PUSH2 0x1E1B DUP4 PUSH2 0x1B47 JUMP JUMPDEST LT SWAP1 POP SWAP2 SWAP1 POP JUMP JUMPDEST PUSH1 0xD SLOAD DUP2 JUMP JUMPDEST PUSH1 0xF SLOAD NUMBER SUB ISZERO PUSH2 0x1EA6 JUMPI PUSH0 PUSH1 0x13 SLOAD GT ISZERO PUSH2 0x1E96 JUMPI PUSH0 PUSH1 0xF SLOAD NUMBER PUSH2 0x1E4C SWAP2 SWAP1 PUSH2 0x3165 JUMP JUMPDEST SWAP1 POP PUSH0 PUSH1 0xD SLOAD DUP3 PUSH1 0xC SLOAD PUSH2 0x1E60 SWAP2 SWAP1 PUSH2 0x30C7 JUMP JUMPDEST PUSH2 0x1E6A SWAP2 SWAP1 PUSH2 0x3135 JUMP JUMPDEST SWAP1 POP PUSH8 0xDE0B6B3A7640000 DUP2 PUSH1 0x10 SLOAD PUSH2 0x1E83 SWAP2 SWAP1 PUSH2 0x30C7 JUMP JUMPDEST PUSH2 0x1E8D SWAP2 SWAP1 PUSH2 0x3135 JUMP JUMPDEST PUSH1 0x10 DUP2 SWAP1 SSTORE POP POP POP JUMPDEST NUMBER PUSH1 0xF SLOAD PUSH2 0x1EA4 SWAP2 SWAP1 PUSH2 0x3165 JUMP JUMPDEST POP JUMPDEST JUMP JUMPDEST PUSH1 0x10 SLOAD DUP2 JUMP JUMPDEST PUSH0 PUSH0 SWAP1 SLOAD SWAP1 PUSH2 0x100 EXP SWAP1 DIV PUSH1 0xFF AND ISZERO DUP1 PUSH2 0x1ED3 JUMPI POP PUSH0 PUSH1 0x1 SWAP1 SLOAD SWAP1 PUSH2 0x100 EXP SWAP1 DIV PUSH1 0xFF AND JUMPDEST PUSH2 0x1F12 JUMPI PUSH1 0x40 MLOAD PUSH32 0x8C379A000000000000000000000000000000000000000000000000000000000 DUP2 MSTORE PUSH1 0x4 ADD PUSH2 0x1F09 SWAP1 PUSH2 0x34EE JUMP JUMPDEST PUSH1 0x40 MLOAD DUP1 SWAP2 SUB SWAP1 REVERT JUMPDEST PUSH0 PUSH0 PUSH1 0x1 SWAP1 SLOAD SWAP1 PUSH2 0x100 EXP SWAP1 DIV PUSH1 0xFF AND ISZERO SWAP1 POP DUP1 ISZERO PUSH2 0x1F5F JUMPI PUSH1 0x1 PUSH0 PUSH1 0x1 PUSH2 0x100 EXP DUP2 SLOAD DUP2 PUSH1 0xFF MUL NOT AND SWAP1 DUP4 ISZERO ISZERO MUL OR SWAP1 SSTORE POP PUSH1 0x1 PUSH0 PUSH0 PUSH2 0x100 EXP DUP2 SLOAD DUP2 PUSH1 0xFF MUL NOT AND SWAP1 DUP4 ISZERO ISZERO MUL OR SWAP1 SSTORE POP JUMPDEST PUSH0 PUSH20 0xFFFFFFFFFFFFFFFFFFFFFFFFFFFFFFFFFFFFFFFF AND DUP7 PUSH1 0xC0 ADD PUSH1 0x20 DUP2 ADD SWAP1 PUSH2 0x1F89 SWAP2 SWAP1 PUSH2 0x2C57 JUMP JUMPDEST PUSH20 0xFFFFFFFFFFFFFFFFFFFFFFFFFFFFFFFFFFFFFFFF AND SUB PUSH2 0x1FA8 JUMPI PUSH0 PUSH0 REVERT JUMPDEST PUSH0 PUSH20 0xFFFFFFFFFFFFFFFFFFFFFFFFFFFFFFFFFFFFFFFF AND DUP7 PUSH1 0x60 ADD PUSH1 0x20 DUP2 ADD SWAP1 PUSH2 0x1FD2 SWAP2 SWAP1 PUSH2 0x2C57 JUMP JUMPDEST PUSH20 0xFFFFFFFFFFFFFFFFFFFFFFFFFFFFFFFFFFFFFFFF AND SUB PUSH2 0x1FF1 JUMPI PUSH0 PUSH0 REVERT JUMPDEST PUSH0 PUSH20 0xFFFFFFFFFFFFFFFFFFFFFFFFFFFFFFFFFFFFFFFF AND DUP7 PUSH1 0x80 ADD PUSH1 0x20 DUP2 ADD SWAP1 PUSH2 0x201B SWAP2 SWAP1 PUSH2 0x2C57 JUMP JUMPDEST PUSH20 0xFFFFFFFFFFFFFFFFFFFFFFFFFFFFFFFFFFFFFFFF AND SUB PUSH2 0x203A JUMPI PUSH0 PUSH0 REVERT JUMPDEST PUSH0 PUSH20 0xFFFFFFFFFFFFFFFFFFFFFFFFFFFFFFFFFFFFFFFF AND DUP7 PUSH1 0xA0 ADD PUSH1 0x20 DUP2 ADD SWAP1 PUSH2 0x2064 SWAP2 SWAP1 PUSH2 0x2C57 JUMP JUMPDEST PUSH20 0xFFFFFFFFFFFFFFFFFFFFFFFFFFFFFFFFFFFFFFFF AND SUB PUSH2 0x2083 JUMPI PUSH0 PUSH0 REVERT JUMPDEST PUSH0 PUSH1 0xD SLOAD GT PUSH2 0x2090 JUMPI PUSH0 PUSH0 REVERT JUMPDEST PUSH2 0x2710 DUP7 PUSH2 0x140 ADD CALLDATALOAD GT ISZERO PUSH2 0x20A3 JUMPI PUSH0 PUSH0 REVERT JUMPDEST PUSH3 0x186A0 DUP7 PUSH1 0xE0 ADD CALLDATALOAD GT ISZERO PUSH2 0x20B6 JUMPI PUSH0 PUSH0 REVERT JUMPDEST PUSH2 0x20D0 DUP7 PUSH0 ADD PUSH1 0x20 DUP2 ADD SWAP1 PUSH2 0x20CB SWAP2 SWAP1 PUSH2 0x2C57 JUMP JUMPDEST PUSH2 0x2A55 JUMP JUMPDEST DUP5 DUP5 PUSH1 0x6 SWAP2 DUP3 PUSH2 0x20E1 SWAP3 SWAP2 SWAP1 PUSH2 0x36DA JUMP JUMPDEST POP DUP3 DUP3 PUSH1 0x7 SWAP2 DUP3 PUSH2 0x20F3 SWAP3 SWAP2 SWAP1 PUSH2 0x36DA JUMP JUMPDEST POP DUP6 PUSH1 0x60 ADD PUSH1 0x20 DUP2 ADD SWAP1 PUSH2 0x2107 SWAP2 SWAP1 PUSH2 0x2C57 JUMP JUMPDEST PUSH1 0x3 PUSH0 PUSH2 0x100 EXP DUP2 SLOAD DUP2 PUSH20 0xFFFFFFFFFFFFFFFFFFFFFFFFFFFFFFFFFFFFFFFF MUL NOT AND SWAP1 DUP4 PUSH20 0xFFFFFFFFFFFFFFFFFFFFFFFFFFFFFFFFFFFFFFFF AND MUL OR SWAP1 SSTORE POP DUP6 PUSH1 0x80 ADD PUSH1 0x20 DUP2 ADD SWAP1 PUSH2 0x2159 SWAP2 SWAP1 PUSH2 0x2C57 JUMP JUMPDEST PUSH1 0x4 PUSH0 PUSH2 0x100 EXP DUP2 SLOAD DUP2 PUSH20 0xFFFFFFFFFFFFFFFFFFFFFFFFFFFFFFFFFFFFFFFF MUL NOT AND SWAP1 DUP4 PUSH20 0xFFFFFFFFFFFFFFFFFFFFFFFFFFFFFFFFFFFFFFFF AND MUL OR SWAP1 SSTORE POP DUP6 PUSH1 0xA0 ADD PUSH1 0x20 DUP2 ADD SWAP1 PUSH2 0x21AB SWAP2 SWAP1 PUSH2 0x2C57 JUMP JUMPDEST PUSH1 0x5 PUSH0 PUSH2 0x100 EXP DUP2 SLOAD DUP2 PUSH20 0xFFFFFFFFFFFFFFFFFFFFFFFFFFFFFFFFFFFFFFFF MUL NOT AND SWAP1 DUP4 PUSH20 0xFFFFFFFFFFFFFFFFFFFFFFFFFFFFFFFFFFFFFFFF AND MUL OR SWAP1 SSTORE POP DUP6 PUSH1 0xC0 ADD PUSH1 0x20 DUP2 ADD SWAP1 PUSH2 0x21FD SWAP2 SWAP1 PUSH2 0x2C57 JUMP JUMPDEST PUSH1 0x9 PUSH0 PUSH2 0x100 EXP DUP2 SLOAD DUP2 PUSH20 0xFFFFFFFFFFFFFFFFFFFFFFFFFFFFFFFFFFFFFFFF MUL NOT AND SWAP1 DUP4 PUSH20 0xFFFFFFFFFFFFFFFFFFFFFFFFFFFFFFFFFFFFFFFF AND MUL OR SWAP1 SSTORE POP DUP6 PUSH1 0x40 ADD PUSH1 0x20 DUP2 ADD SWAP1 PUSH2 0x224F SWAP2 SWAP1 PUSH2 0x2C57 JUMP JUMPDEST PUSH1 0xA PUSH0 PUSH2 0x100 EXP DUP2 SLOAD DUP2 PUSH20 0xFFFFFFFFFFFFFFFFFFFFFFFFFFFFFFFFFFFFFFFF MUL NOT AND SWAP1 DUP4 PUSH20 0xFFFFFFFFFFFFFFFFFFFFFFFFFFFFFFFFFFFFFFFF AND MUL OR SWAP1 SSTORE POP DUP6 PUSH1 0x20 ADD PUSH1 0x20 DUP2 ADD SWAP1 PUSH2 0x22A1 SWAP2 SWAP1 PUSH2 0x2C57 JUMP JUMPDEST PUSH1 0x8 PUSH0 PUSH2 0x100 EXP DUP2 SLOAD DUP2 PUSH20 0xFFFFFFFFFFFFFFFFFFFFFFFFFFFFFFFFFFFFFFFF MUL NOT AND SWAP1 DUP4 PUSH20 0xFFFFFFFFFFFFFFFFFFFFFFFFFFFFFFFFFFFFFFFF AND MUL OR SWAP1 SSTORE POP DUP6 PUSH1 0xE0 ADD CALLDATALOAD PUSH1 0xB DUP2 SWAP1 SSTORE POP NUMBER PUSH1 0xF DUP2 SWAP1 SSTORE POP DUP6 PUSH2 0x120 ADD CALLDATALOAD PUSH1 0xD DUP2 SWAP1 SSTORE POP DUP6 PUSH2 0x100 ADD CALLDATALOAD PUSH1 0xC DUP2 SWAP1 SSTORE POP PUSH8 0xDE0B6B3A7640000 PUSH1 0x10 DUP2 SWAP1 SSTORE POP DUP6 PUSH2 0x140 ADD CALLDATALOAD PUSH1 0xE DUP2 SWAP1 SSTORE POP PUSH2 0x7530 PUSH1 0x11 DUP2 SWAP1 SSTORE POP DUP1 ISZERO PUSH2 0x234E JUMPI PUSH0 PUSH0 PUSH1 0x1 PUSH2 0x100 EXP DUP2 SLOAD DUP2 PUSH1 0xFF MUL NOT AND SWAP1 DUP4 ISZERO ISZERO MUL OR SWAP1 SSTORE POP JUMPDEST POP POP POP POP POP POP JUMP JUMPDEST PUSH1 0x4 PUSH0 SWAP1 SLOAD SWAP1 PUSH2 0x100 EXP SWAP1 DIV PUSH20 0xFFFFFFFFFFFFFFFFFFFFFFFFFFFFFFFFFFFFFFFF AND DUP2 JUMP JUMPDEST PUSH1 0xB SLOAD DUP2 JUMP JUMPDEST PUSH0 DUP2 GT PUSH2 0x238C JUMPI PUSH0 PUSH0 REVERT JUMPDEST PUSH2 0x2394 PUSH2 0x1E29 JUMP JUMPDEST PUSH2 0x239C PUSH2 0x19BE JUMP JUMPDEST DUP2 GT ISZERO PUSH2 0x23A7 JUMPI PUSH0 PUSH0 REVERT JUMPDEST PUSH0 PUSH1 0x2 PUSH0 CALLER PUSH20 0xFFFFFFFFFFFFFFFFFFFFFFFFFFFFFFFFFFFFFFFF AND PUSH20 0xFFFFFFFFFFFFFFFFFFFFFFFFFFFFFFFFFFFFFFFF AND DUP2 MSTORE PUSH1 0x20 ADD SWAP1 DUP2 MSTORE PUSH1 0x20 ADD PUSH0 KECCAK256 SWAP1 POP PUSH0 PUSH2 0x23F1 DUP4 PUSH2 0xA2E JUMP JUMPDEST SWAP1 POP DUP1 DUP3 PUSH1 0x1 ADD PUSH0 DUP3 DUP3 SLOAD PUSH2 0x2406 SWAP2 SWAP1 PUSH2 0x336D JUMP JUMPDEST SWAP3 POP POP DUP2 SWAP1 SSTORE POP DUP1 DUP3 PUSH1 0x2 ADD PUSH0 DUP3 DUP3 SLOAD PUSH2 0x2420 SWAP2 SWAP1 PUSH2 0x336D JUMP JUMPDEST SWAP3 POP POP DUP2 SWAP1 SSTORE POP DUP1 PUSH1 0x13 PUSH0 DUP3 DUP3 SLOAD PUSH2 0x2438 SWAP2 SWAP1 PUSH2 0x336D JUMP JUMPDEST SWAP3 POP POP DUP2 SWAP1 SSTORE POP PUSH2 0x2448 CALLER PUSH2 0x1E0E JUMP JUMPDEST PUSH2 0x2450 JUMPI PUSH0 PUSH0 REVERT JUMPDEST PUSH1 0x3 PUSH0 SWAP1 SLOAD SWAP1 PUSH2 0x100 EXP SWAP1 DIV PUSH20 0xFFFFFFFFFFFFFFFFFFFFFFFFFFFFFFFFFFFFFFFF AND PUSH20 0xFFFFFFFFFFFFFFFFFFFFFFFFFFFFFFFFFFFFFFFF AND PUSH4 0xA9059CBB CALLER DUP6 PUSH1 0x40 MLOAD DUP4 PUSH4 0xFFFFFFFF AND PUSH1 0xE0 SHL DUP2 MSTORE PUSH1 0x4 ADD PUSH2 0x24AC SWAP3 SWAP2 SWAP1 PUSH2 0x3198 JUMP JUMPDEST PUSH1 0x20 PUSH1 0x40 MLOAD DUP1 DUP4 SUB DUP2 PUSH0 DUP8 GAS CALL ISZERO DUP1 ISZERO PUSH2 0x24C8 JUMPI RETURNDATASIZE PUSH0 PUSH0 RETURNDATACOPY RETURNDATASIZE PUSH0 REVERT JUMPDEST POP POP POP POP PUSH1 0x40 MLOAD RETURNDATASIZE PUSH1 0x1F NOT PUSH1 0x1F DUP3 ADD AND DUP3 ADD DUP1 PUSH1 0x40 MSTORE POP DUP2 ADD SWAP1 PUSH2 0x24EC SWAP2 SWAP1 PUSH2 0x31E9 JUMP JUMPDEST POP PUSH1 0x1 CALLER SWAP1 DUP1 PUSH1 0x1 DUP2 SLOAD ADD DUP1 DUP3 SSTORE DUP1 SWAP2 POP POP PUSH1 0x1 SWAP1 SUB SWAP1 PUSH0 MSTORE PUSH1 0x20 PUSH0 KECCAK256 ADD PUSH0 SWAP1 SWAP2 SWAP1 SWAP2 SWAP1 SWAP2 PUSH2 0x100 EXP DUP2 SLOAD DUP2 PUSH20 0xFFFFFFFFFFFFFFFFFFFFFFFFFFFFFFFFFFFFFFFF MUL NOT AND SWAP1 DUP4 PUSH20 0xFFFFFFFFFFFFFFFFFFFFFFFFFFFFFFFFFFFFFFFF AND MUL OR SWAP1 SSTORE POP POP POP POP JUMP JUMPDEST PUSH0 PUSH2 0x255B PUSH2 0x2850 JUMP JUMPDEST PUSH2 0x2563 PUSH2 0x19BE JUMP JUMPDEST PUSH2 0x256D SWAP2 SWAP1 PUSH2 0x336D JUMP JUMPDEST SWAP1 POP SWAP1 JUMP JUMPDEST PUSH0 PUSH1 0x2 SWAP1 SLOAD SWAP1 PUSH2 0x100 EXP SWAP1 DIV PUSH20 0xFFFFFFFFFFFFFFFFFFFFFFFFFFFFFFFFFFFFFFFF AND PUSH20 0xFFFFFFFFFFFFFFFFFFFFFFFFFFFFFFFFFFFFFFFF AND CALLER PUSH20 0xFFFFFFFFFFFFFFFFFFFFFFFFFFFFFFFFFFFFFFFF AND EQ PUSH2 0x25CA JUMPI PUSH0 PUSH0 REVERT JUMPDEST PUSH2 0x2710 DUP4 GT ISZERO PUSH2 0x25D8 JUMPI PUSH0 PUSH0 REVERT JUMPDEST PUSH2 0x2710 DUP4 GT ISZERO PUSH2 0x25E6 JUMPI PUSH0 PUSH0 REVERT JUMPDEST DUP3 PUSH1 0xB DUP2 SWAP1 SSTORE POP DUP2 PUSH1 0xC DUP2 SWAP1 SSTORE POP DUP1 PUSH1 0xE DUP2 SWAP1 SSTORE POP POP POP POP JUMP JUMPDEST PUSH0 PUSH0 PUSH20 0xFFFFFFFFFFFFFFFFFFFFFFFFFFFFFFFFFFFFFFFF AND DUP3 PUSH20 0xFFFFFFFFFFFFFFFFFFFFFFFFFFFFFFFFFFFFFFFF AND SUB PUSH2 0x2638 JUMPI PUSH0 PUSH0 REVERT JUMPDEST PUSH0 PUSH1 0x2 PUSH0 DUP5 PUSH20 0xFFFFFFFFFFFFFFFFFFFFFFFFFFFFFFFFFFFFFFFF AND PUSH20 0xFFFFFFFFFFFFFFFFFFFFFFFFFFFFFFFFFFFFFFFF AND DUP2 MSTORE PUSH1 0x20 ADD SWAP1 DUP2 MSTORE PUSH1 0x20 ADD PUSH0 KECCAK256 PUSH1 0x1 ADD SLOAD SWAP1 POP PUSH0 DUP2 EQ PUSH2 0x26AE JUMPI PUSH8 0xDE0B6B3A7640000 PUSH2 0x2694 PUSH2 0x2ACF JUMP JUMPDEST DUP3 PUSH2 0x269F SWAP2 SWAP1 PUSH2 0x30C7 JUMP JUMPDEST PUSH2 0x26A9 SWAP2 SWAP1 PUSH2 0x3135 JUMP JUMPDEST PUSH2 0x26B0 JUMP JUMPDEST PUSH0 JUMPDEST SWAP2 POP POP SWAP2 SWAP1 POP JUMP JUMPDEST PUSH0 PUSH1 0x2 SWAP1 SLOAD SWAP1 PUSH2 0x100 EXP SWAP1 DIV PUSH20 0xFFFFFFFFFFFFFFFFFFFFFFFFFFFFFFFFFFFFFFFF AND PUSH20 0xFFFFFFFFFFFFFFFFFFFFFFFFFFFFFFFFFFFFFFFF AND CALLER PUSH20 0xFFFFFFFFFFFFFFFFFFFFFFFFFFFFFFFFFFFFFFFF AND EQ PUSH2 0x2710 JUMPI PUSH0 PUSH0 REVERT JUMPDEST PUSH0 PUSH20 0xFFFFFFFFFFFFFFFFFFFFFFFFFFFFFFFFFFFFFFFF AND DUP2 PUSH20 0xFFFFFFFFFFFFFFFFFFFFFFFFFFFFFFFFFFFFFFFF AND SUB PUSH2 0x2747 JUMPI PUSH0 PUSH0 REVERT JUMPDEST DUP1 PUSH0 PUSH1 0x2 PUSH2 0x100 EXP DUP2 SLOAD DUP2 PUSH20 0xFFFFFFFFFFFFFFFFFFFFFFFFFFFFFFFFFFFFFFFF MUL NOT AND SWAP1 DUP4 PUSH20 0xFFFFFFFFFFFFFFFFFFFFFFFFFFFFFFFFFFFFFFFF AND MUL OR SWAP1 SSTORE POP POP JUMP JUMPDEST PUSH1 0x12 SLOAD DUP2 JUMP JUMPDEST PUSH0 PUSH1 0x2 SWAP1 SLOAD SWAP1 PUSH2 0x100 EXP SWAP1 DIV PUSH20 0xFFFFFFFFFFFFFFFFFFFFFFFFFFFFFFFFFFFFFFFF AND PUSH20 0xFFFFFFFFFFFFFFFFFFFFFFFFFFFFFFFFFFFFFFFF AND CALLER PUSH20 0xFFFFFFFFFFFFFFFFFFFFFFFFFFFFFFFFFFFFFFFF AND EQ PUSH2 0x27E8 JUMPI PUSH0 PUSH0 REVERT JUMPDEST DUP1 PUSH1 0xA PUSH0 PUSH2 0x100 EXP DUP2 SLOAD DUP2 PUSH20 0xFFFFFFFFFFFFFFFFFFFFFFFFFFFFFFFFFFFFFFFF MUL NOT AND SWAP1 DUP4 PUSH20 0xFFFFFFFFFFFFFFFFFFFFFFFFFFFFFFFFFFFFFFFF AND MUL OR SWAP1 SSTORE POP POP JUMP JUMPDEST PUSH1 0x9 PUSH0 SWAP1 SLOAD SWAP1 PUSH2 0x100 EXP SWAP1 DIV PUSH20 0xFFFFFFFFFFFFFFFFFFFFFFFFFFFFFFFFFFFFFFFF AND DUP2 JUMP JUMPDEST PUSH0 PUSH0 PUSH1 0x13 SLOAD EQ PUSH2 0x2887 JUMPI PUSH8 0xDE0B6B3A7640000 PUSH2 0x286B PUSH2 0x2ACF JUMP JUMPDEST PUSH1 0x13 SLOAD PUSH2 0x2878 SWAP2 SWAP1 PUSH2 0x30C7 JUMP JUMPDEST PUSH2 0x2882 SWAP2 SWAP1 PUSH2 0x3135 JUMP JUMPDEST PUSH2 0x2889 JUMP JUMPDEST PUSH0 JUMPDEST SWAP1 POP SWAP1 JUMP JUMPDEST PUSH0 PUSH0 PUSH32 0x360894A13BA1A3210667C828492DB98DCA3E2076CC3735A920A3CA505D382BBC PUSH0 SHL SWAP1 POP DUP1 SLOAD SWAP2 POP POP SWAP1 JUMP JUMPDEST PUSH0 PUSH1 0x2 SWAP1 SLOAD SWAP1 PUSH2 0x100 EXP SWAP1 DIV PUSH20 0xFFFFFFFFFFFFFFFFFFFFFFFFFFFFFFFFFFFFFFFF AND PUSH20 0xFFFFFFFFFFFFFFFFFFFFFFFFFFFFFFFFFFFFFFFF AND CALLER PUSH20 0xFFFFFFFFFFFFFFFFFFFFFFFFFFFFFFFFFFFFFFFF AND EQ PUSH2 0x2915 JUMPI PUSH0 PUSH0 REVERT JUMPDEST POP JUMP JUMPDEST PUSH0 PUSH20 0xFFFFFFFFFFFFFFFFFFFFFFFFFFFFFFFFFFFFFFFF AND DUP4 PUSH20 0xFFFFFFFFFFFFFFFFFFFFFFFFFFFFFFFFFFFFFFFF AND SUB PUSH2 0x2986 JUMPI PUSH1 0x40 MLOAD PUSH32 0x8C379A000000000000000000000000000000000000000000000000000000000 DUP2 MSTORE PUSH1 0x4 ADD PUSH2 0x297D SWAP1 PUSH2 0x37F1 JUMP JUMPDEST PUSH1 0x40 MLOAD DUP1 SWAP2 SUB SWAP1 REVERT JUMPDEST PUSH2 0x298F DUP4 PUSH2 0x2B42 JUMP JUMPDEST DUP1 DUP1 PUSH2 0x299B JUMPI POP PUSH0 DUP3 MLOAD GT JUMPDEST ISZERO PUSH2 0x2A50 JUMPI PUSH0 PUSH0 DUP5 PUSH20 0xFFFFFFFFFFFFFFFFFFFFFFFFFFFFFFFFFFFFFFFF AND DUP5 PUSH1 0x40 MLOAD PUSH2 0x29C7 SWAP2 SWAP1 PUSH2 0x3853 JUMP JUMPDEST PUSH0 PUSH1 0x40 MLOAD DUP1 DUP4 SUB DUP2 DUP6 GAS DELEGATECALL SWAP2 POP POP RETURNDATASIZE DUP1 PUSH0 DUP2 EQ PUSH2 0x29FF JUMPI PUSH1 0x40 MLOAD SWAP2 POP PUSH1 0x1F NOT PUSH1 0x3F RETURNDATASIZE ADD AND DUP3 ADD PUSH1 0x40 MSTORE RETURNDATASIZE DUP3 MSTORE RETURNDATASIZE PUSH0 PUSH1 0x20 DUP5 ADD RETURNDATACOPY PUSH2 0x2A04 JUMP JUMPDEST PUSH1 0x60 SWAP2 POP JUMPDEST POP SWAP2 POP SWAP2 POP DUP2 DUP2 SWAP1 PUSH2 0x2A4C JUMPI PUSH1 0x40 MLOAD PUSH32 0x8C379A000000000000000000000000000000000000000000000000000000000 DUP2 MSTORE PUSH1 0x4 ADD PUSH2 0x2A43 SWAP2 SWAP1 PUSH2 0x2D8E JUMP JUMPDEST PUSH1 0x40 MLOAD DUP1 SWAP2 SUB SWAP1 REVERT JUMPDEST POP POP POP JUMPDEST POP POP POP JUMP JUMPDEST PUSH0 PUSH20 0xFFFFFFFFFFFFFFFFFFFFFFFFFFFFFFFFFFFFFFFF AND DUP2 PUSH20 0xFFFFFFFFFFFFFFFFFFFFFFFFFFFFFFFFFFFFFFFF AND SUB PUSH2 0x2A8C JUMPI PUSH0 PUSH0 REVERT JUMPDEST DUP1 PUSH0 PUSH1 0x2 PUSH2 0x100 EXP DUP2 SLOAD DUP2 PUSH20 0xFFFFFFFFFFFFFFFFFFFFFFFFFFFFFFFFFFFFFFFF MUL NOT AND SWAP1 DUP4 PUSH20 0xFFFFFFFFFFFFFFFFFFFFFFFFFFFFFFFFFFFFFFFF AND MUL OR SWAP1 SSTORE POP POP JUMP JUMPDEST PUSH0 PUSH1 0x10 SLOAD SWAP1 POP PUSH1 0xF SLOAD NUMBER EQ DUP1 ISZERO PUSH2 0x2AE7 JUMPI POP PUSH0 PUSH1 0x13 SLOAD GT JUMPDEST ISZERO PUSH2 0x2B3F JUMPI PUSH0 PUSH1 0xF SLOAD NUMBER PUSH2 0x2AFB SWAP2 SWAP1 PUSH2 0x3165 JUMP JUMPDEST SWAP1 POP PUSH0 PUSH1 0xD SLOAD DUP3 PUSH1 0xC SLOAD PUSH2 0x2B0F SWAP2 SWAP1 PUSH2 0x30C7 JUMP JUMPDEST PUSH2 0x2B19 SWAP2 SWAP1 PUSH2 0x3135 JUMP JUMPDEST SWAP1 POP PUSH8 0xDE0B6B3A7640000 DUP2 DUP5 PUSH2 0x2B30 SWAP2 SWAP1 PUSH2 0x30C7 JUMP JUMPDEST PUSH2 0x2B3A SWAP2 SWAP1 PUSH2 0x3135 JUMP JUMPDEST SWAP3 POP POP POP JUMPDEST SWAP1 JUMP JUMPDEST PUSH0 PUSH32 0x360894A13BA1A3210667C828492DB98DCA3E2076CC3735A920A3CA505D382BBC PUSH0 SHL SWAP1 POP DUP2 DUP2 SSTORE POP POP JUMP JUMPDEST PUSH0 PUSH0 REVERT JUMPDEST PUSH0 PUSH0 REVERT JUMPDEST PUSH0 DUP2 SWAP1 POP SWAP2 SWAP1 POP JUMP JUMPDEST PUSH2 0x2B89 DUP2 PUSH2 0x2B77 JUMP JUMPDEST DUP2 EQ PUSH2 0x2B93 JUMPI PUSH0 PUSH0 REVERT JUMPDEST POP JUMP JUMPDEST PUSH0 DUP2 CALLDATALOAD SWAP1 POP PUSH2 0x2BA4 DUP2 PUSH2 0x2B80 JUMP JUMPDEST SWAP3 SWAP2 POP POP JUMP JUMPDEST PUSH0 PUSH1 0x20 DUP3 DUP5 SUB SLT ISZERO PUSH2 0x2BBF JUMPI PUSH2 0x2BBE PUSH2 0x2B6F JUMP JUMPDEST JUMPDEST PUSH0 PUSH2 0x2BCC DUP5 DUP3 DUP6 ADD PUSH2 0x2B96 JUMP JUMPDEST SWAP2 POP POP SWAP3 SWAP2 POP POP JUMP JUMPDEST PUSH2 0x2BDE DUP2 PUSH2 0x2B77 JUMP JUMPDEST DUP3 MSTORE POP POP JUMP JUMPDEST PUSH0 PUSH1 0x20 DUP3 ADD SWAP1 POP PUSH2 0x2BF7 PUSH0 DUP4 ADD DUP5 PUSH2 0x2BD5 JUMP JUMPDEST SWAP3 SWAP2 POP POP JUMP JUMPDEST PUSH0 PUSH20 0xFFFFFFFFFFFFFFFFFFFFFFFFFFFFFFFFFFFFFFFF DUP3 AND SWAP1 POP SWAP2 SWAP1 POP JUMP JUMPDEST PUSH0 PUSH2 0x2C26 DUP3 PUSH2 0x2BFD JUMP JUMPDEST SWAP1 POP SWAP2 SWAP1 POP JUMP JUMPDEST PUSH2 0x2C36 DUP2 PUSH2 0x2C1C JUMP JUMPDEST DUP2 EQ PUSH2 0x2C40 JUMPI PUSH0 PUSH0 REVERT JUMPDEST POP JUMP JUMPDEST PUSH0 DUP2 CALLDATALOAD SWAP1 POP PUSH2 0x2C51 DUP2 PUSH2 0x2C2D JUMP JUMPDEST SWAP3 SWAP2 POP POP JUMP JUMPDEST PUSH0 PUSH1 0x20 DUP3 DUP5 SUB SLT ISZERO PUSH2 0x2C6C JUMPI PUSH2 0x2C6B PUSH2 0x2B6F JUMP JUMPDEST JUMPDEST PUSH0 PUSH2 0x2C79 DUP5 DUP3 DUP6 ADD PUSH2 0x2C43 JUMP JUMPDEST SWAP2 POP POP SWAP3 SWAP2 POP POP JUMP JUMPDEST PUSH0 DUP2 SWAP1 POP SWAP2 SWAP1 POP JUMP JUMPDEST PUSH0 PUSH2 0x2CA5 PUSH2 0x2CA0 PUSH2 0x2C9B DUP5 PUSH2 0x2BFD JUMP JUMPDEST PUSH2 0x2C82 JUMP JUMPDEST PUSH2 0x2BFD JUMP JUMPDEST SWAP1 POP SWAP2 SWAP1 POP JUMP JUMPDEST PUSH0 PUSH2 0x2CB6 DUP3 PUSH2 0x2C8B JUMP JUMPDEST SWAP1 POP SWAP2 SWAP1 POP JUMP JUMPDEST PUSH0 PUSH2 0x2CC7 DUP3 PUSH2 0x2CAC JUMP JUMPDEST SWAP1 POP SWAP2 SWAP1 POP JUMP JUMPDEST PUSH2 0x2CD7 DUP2 PUSH2 0x2CBD JUMP JUMPDEST DUP3 MSTORE POP POP JUMP JUMPDEST PUSH0 PUSH1 0x20 DUP3 ADD SWAP1 POP PUSH2 0x2CF0 PUSH0 DUP4 ADD DUP5 PUSH2 0x2CCE JUMP JUMPDEST SWAP3 SWAP2 POP POP JUMP JUMPDEST PUSH2 0x2CFF DUP2 PUSH2 0x2C1C JUMP JUMPDEST DUP3 MSTORE POP POP JUMP JUMPDEST PUSH0 PUSH1 0x20 DUP3 ADD SWAP1 POP PUSH2 0x2D18 PUSH0 DUP4 ADD DUP5 PUSH2 0x2CF6 JUMP JUMPDEST SWAP3 SWAP2 POP POP JUMP JUMPDEST PUSH0 DUP2 MLOAD SWAP1 POP SWAP2 SWAP1 POP JUMP JUMPDEST PUSH0 DUP3 DUP3 MSTORE PUSH1 0x20 DUP3 ADD SWAP1 POP SWAP3 SWAP2 POP POP JUMP JUMPDEST DUP3 DUP2 DUP4 MCOPY PUSH0 DUP4 DUP4 ADD MSTORE POP POP POP JUMP JUMPDEST PUSH0 PUSH1 0x1F NOT PUSH1 0x1F DUP4 ADD AND SWAP1 POP SWAP2 SWAP1 POP JUMP JUMPDEST PUSH0 PUSH2 0x2D60 DUP3 PUSH2 0x2D1E JUMP JUMPDEST PUSH2 0x2D6A DUP2 DUP6 PUSH2 0x2D28 JUMP JUMPDEST SWAP4 POP PUSH2 0x2D7A DUP2 DUP6 PUSH1 0x20 DUP7 ADD PUSH2 0x2D38 JUMP JUMPDEST PUSH2 0x2D83 DUP2 PUSH2 0x2D46 JUMP JUMPDEST DUP5 ADD SWAP2 POP POP SWAP3 SWAP2 POP POP JUMP JUMPDEST PUSH0 PUSH1 0x20 DUP3 ADD SWAP1 POP DUP2 DUP2 SUB PUSH0 DUP4 ADD MSTORE PUSH2 0x2DA6 DUP2 DUP5 PUSH2 0x2D56 JUMP JUMPDEST SWAP1 POP SWAP3 SWAP2 POP POP JUMP JUMPDEST PUSH0 PUSH0 REVERT JUMPDEST PUSH0 PUSH0 REVERT JUMPDEST PUSH0 PUSH0 REVERT JUMPDEST PUSH0 PUSH0 DUP4 PUSH1 0x1F DUP5 ADD SLT PUSH2 0x2DCF JUMPI PUSH2 0x2DCE PUSH2 0x2DAE JUMP JUMPDEST JUMPDEST DUP3 CALLDATALOAD SWAP1 POP PUSH8 0xFFFFFFFFFFFFFFFF DUP2 GT ISZERO PUSH2 0x2DEC JUMPI PUSH2 0x2DEB PUSH2 0x2DB2 JUMP JUMPDEST JUMPDEST PUSH1 0x20 DUP4 ADD SWAP2 POP DUP4 PUSH1 0x1 DUP3 MUL DUP4 ADD GT ISZERO PUSH2 0x2E08 JUMPI PUSH2 0x2E07 PUSH2 0x2DB6 JUMP JUMPDEST JUMPDEST SWAP3 POP SWAP3 SWAP1 POP JUMP JUMPDEST PUSH0 PUSH0 PUSH0 PUSH1 0x40 DUP5 DUP7 SUB SLT ISZERO PUSH2 0x2E26 JUMPI PUSH2 0x2E25 PUSH2 0x2B6F JUMP JUMPDEST JUMPDEST PUSH0 PUSH2 0x2E33 DUP7 DUP3 DUP8 ADD PUSH2 0x2C43 JUMP JUMPDEST SWAP4 POP POP PUSH1 0x20 DUP5 ADD CALLDATALOAD PUSH8 0xFFFFFFFFFFFFFFFF DUP2 GT ISZERO PUSH2 0x2E54 JUMPI PUSH2 0x2E53 PUSH2 0x2B73 JUMP JUMPDEST JUMPDEST PUSH2 0x2E60 DUP7 DUP3 DUP8 ADD PUSH2 0x2DBA JUMP JUMPDEST SWAP3 POP SWAP3 POP POP SWAP3 POP SWAP3 POP SWAP3 JUMP JUMPDEST PUSH0 DUP2 SWAP1 POP SWAP2 SWAP1 POP JUMP JUMPDEST PUSH2 0x2E7E DUP2 PUSH2 0x2E6C JUMP JUMPDEST DUP3 MSTORE POP POP JUMP JUMPDEST PUSH0 PUSH1 0x20 DUP3 ADD SWAP1 POP PUSH2 0x2E97 PUSH0 DUP4 ADD DUP5 PUSH2 0x2E75 JUMP JUMPDEST SWAP3 SWAP2 POP POP JUMP JUMPDEST PUSH0 PUSH1 0x60 DUP3 ADD SWAP1 POP PUSH2 0x2EB0 PUSH0 DUP4 ADD DUP7 PUSH2 0x2BD5 JUMP JUMPDEST PUSH2 0x2EBD PUSH1 0x20 DUP4 ADD DUP6 PUSH2 0x2BD5 JUMP JUMPDEST PUSH2 0x2ECA PUSH1 0x40 DUP4 ADD DUP5 PUSH2 0x2BD5 JUMP JUMPDEST SWAP5 SWAP4 POP POP POP POP JUMP JUMPDEST PUSH0 PUSH2 0x2EDC DUP3 PUSH2 0x2CAC JUMP JUMPDEST SWAP1 POP SWAP2 SWAP1 POP JUMP JUMPDEST PUSH2 0x2EEC DUP2 PUSH2 0x2ED2 JUMP JUMPDEST DUP3 MSTORE POP POP JUMP JUMPDEST PUSH0 PUSH1 0x20 DUP3 ADD SWAP1 POP PUSH2 0x2F05 PUSH0 DUP4 ADD DUP5 PUSH2 0x2EE3 JUMP JUMPDEST SWAP3 SWAP2 POP POP JUMP JUMPDEST PUSH0 DUP2 ISZERO ISZERO SWAP1 POP SWAP2 SWAP1 POP JUMP JUMPDEST PUSH2 0x2F1F DUP2 PUSH2 0x2F0B JUMP JUMPDEST DUP3 MSTORE POP POP JUMP JUMPDEST PUSH0 PUSH1 0x20 DUP3 ADD SWAP1 POP PUSH2 0x2F38 PUSH0 DUP4 ADD DUP5 PUSH2 0x2F16 JUMP JUMPDEST SWAP3 SWAP2 POP POP JUMP JUMPDEST PUSH0 PUSH0 REVERT JUMPDEST PUSH0 PUSH2 0x160 DUP3 DUP5 SUB SLT ISZERO PUSH2 0x2F58 JUMPI PUSH2 0x2F57 PUSH2 0x2F3E JUMP JUMPDEST JUMPDEST DUP2 SWAP1 POP SWAP3 SWAP2 POP POP JUMP JUMPDEST PUSH0 PUSH0 DUP4 PUSH1 0x1F DUP5 ADD SLT PUSH2 0x2F76 JUMPI PUSH2 0x2F75 PUSH2 0x2DAE JUMP JUMPDEST JUMPDEST DUP3 CALLDATALOAD SWAP1 POP PUSH8 0xFFFFFFFFFFFFFFFF DUP2 GT ISZERO PUSH2 0x2F93 JUMPI PUSH2 0x2F92 PUSH2 0x2DB2 JUMP JUMPDEST JUMPDEST PUSH1 0x20 DUP4 ADD SWAP2 POP DUP4 PUSH1 0x1 DUP3 MUL DUP4 ADD GT ISZERO PUSH2 0x2FAF JUMPI PUSH2 0x2FAE PUSH2 0x2DB6 JUMP JUMPDEST JUMPDEST SWAP3 POP SWAP3 SWAP1 POP JUMP JUMPDEST PUSH0 PUSH0 PUSH0 PUSH0 PUSH0 PUSH2 0x1A0 DUP7 DUP9 SUB SLT ISZERO PUSH2 0x2FD0 JUMPI PUSH2 0x2FCF PUSH2 0x2B6F JUMP JUMPDEST JUMPDEST PUSH0 PUSH2 0x2FDD DUP9 DUP3 DUP10 ADD PUSH2 0x2F42 JUMP JUMPDEST SWAP6 POP POP PUSH2 0x160 DUP7 ADD CALLDATALOAD PUSH8 0xFFFFFFFFFFFFFFFF DUP2 GT ISZERO PUSH2 0x2FFF JUMPI PUSH2 0x2FFE PUSH2 0x2B73 JUMP JUMPDEST JUMPDEST PUSH2 0x300B DUP9 DUP3 DUP10 ADD PUSH2 0x2F61 JUMP JUMPDEST SWAP5 POP SWAP5 POP POP PUSH2 0x180 DUP7 ADD CALLDATALOAD PUSH8 0xFFFFFFFFFFFFFFFF DUP2 GT ISZERO PUSH2 0x302F JUMPI PUSH2 0x302E PUSH2 0x2B73 JUMP JUMPDEST JUMPDEST PUSH2 0x303B DUP9 DUP3 DUP10 ADD PUSH2 0x2F61 JUMP JUMPDEST SWAP3 POP SWAP3 POP POP SWAP3 SWAP6 POP SWAP3 SWAP6 SWAP1 SWAP4 POP JUMP JUMPDEST PUSH0 PUSH0 PUSH0 PUSH1 0x60 DUP5 DUP7 SUB SLT ISZERO PUSH2 0x3061 JUMPI PUSH2 0x3060 PUSH2 0x2B6F JUMP JUMPDEST JUMPDEST PUSH0 PUSH2 0x306E DUP7 DUP3 DUP8 ADD PUSH2 0x2B96 JUMP JUMPDEST SWAP4 POP POP PUSH1 0x20 PUSH2 0x307F DUP7 DUP3 DUP8 ADD PUSH2 0x2B96 JUMP JUMPDEST SWAP3 POP POP PUSH1 0x40 PUSH2 0x3090 DUP7 DUP3 DUP8 ADD PUSH2 0x2B96 JUMP JUMPDEST SWAP2 POP POP SWAP3 POP SWAP3 POP SWAP3 JUMP JUMPDEST PUSH32 0x4E487B7100000000000000000000000000000000000000000000000000000000 PUSH0 MSTORE PUSH1 0x11 PUSH1 0x4 MSTORE PUSH1 0x24 PUSH0 REVERT JUMPDEST PUSH0 PUSH2 0x30D1 DUP3 PUSH2 0x2B77 JUMP JUMPDEST SWAP2 POP PUSH2 0x30DC DUP4 PUSH2 0x2B77 JUMP JUMPDEST SWAP3 POP DUP3 DUP3 MUL PUSH2 0x30EA DUP2 PUSH2 0x2B77 JUMP JUMPDEST SWAP2 POP DUP3 DUP3 DIV DUP5 EQ DUP4 ISZERO OR PUSH2 0x3101 JUMPI PUSH2 0x3100 PUSH2 0x309A JUMP JUMPDEST JUMPDEST POP SWAP3 SWAP2 POP POP JUMP JUMPDEST PUSH32 0x4E487B7100000000000000000000000000000000000000000000000000000000 PUSH0 MSTORE PUSH1 0x12 PUSH1 0x4 MSTORE PUSH1 0x24 PUSH0 REVERT JUMPDEST PUSH0 PUSH2 0x313F DUP3 PUSH2 0x2B77 JUMP JUMPDEST SWAP2 POP PUSH2 0x314A DUP4 PUSH2 0x2B77 JUMP JUMPDEST SWAP3 POP DUP3 PUSH2 0x315A JUMPI PUSH2 0x3159 PUSH2 0x3108 JUMP JUMPDEST JUMPDEST DUP3 DUP3 DIV SWAP1 POP SWAP3 SWAP2 POP POP JUMP JUMPDEST PUSH0 PUSH2 0x316F DUP3 PUSH2 0x2B77 JUMP JUMPDEST SWAP2 POP PUSH2 0x317A DUP4 PUSH2 0x2B77 JUMP JUMPDEST SWAP3 POP DUP3 DUP3 SUB SWAP1 POP DUP2 DUP2 GT ISZERO PUSH2 0x3192 JUMPI PUSH2 0x3191 PUSH2 0x309A JUMP JUMPDEST JUMPDEST SWAP3 SWAP2 POP POP JUMP JUMPDEST PUSH0 PUSH1 0x40 DUP3 ADD SWAP1 POP PUSH2 0x31AB PUSH0 DUP4 ADD DUP6 PUSH2 0x2CF6 JUMP JUMPDEST PUSH2 0x31B8 PUSH1 0x20 DUP4 ADD DUP5 PUSH2 0x2BD5 JUMP JUMPDEST SWAP4 SWAP3 POP POP POP JUMP JUMPDEST PUSH2 0x31C8 DUP2 PUSH2 0x2F0B JUMP JUMPDEST DUP2 EQ PUSH2 0x31D2 JUMPI PUSH0 PUSH0 REVERT JUMPDEST POP JUMP JUMPDEST PUSH0 DUP2 MLOAD SWAP1 POP PUSH2 0x31E3 DUP2 PUSH2 0x31BF JUMP JUMPDEST SWAP3 SWAP2 POP POP JUMP JUMPDEST PUSH0 PUSH1 0x20 DUP3 DUP5 SUB SLT ISZERO PUSH2 0x31FE JUMPI PUSH2 0x31FD PUSH2 0x2B6F JUMP JUMPDEST JUMPDEST PUSH0 PUSH2 0x320B DUP5 DUP3 DUP6 ADD PUSH2 0x31D5 JUMP JUMPDEST SWAP2 POP POP SWAP3 SWAP2 POP POP JUMP JUMPDEST PUSH32 0x4E487B7100000000000000000000000000000000000000000000000000000000 PUSH0 MSTORE PUSH1 0x31 PUSH1 0x4 MSTORE PUSH1 0x24 PUSH0 REVERT JUMPDEST PUSH0 PUSH1 0x40 DUP3 ADD SWAP1 POP PUSH2 0x3254 PUSH0 DUP4 ADD DUP6 PUSH2 0x2BD5 JUMP JUMPDEST PUSH2 0x3261 PUSH1 0x20 DUP4 ADD DUP5 PUSH2 0x2BD5 JUMP JUMPDEST SWAP4 SWAP3 POP POP POP JUMP JUMPDEST PUSH32 0x4E4F545F44454C454741544543414C4C00000000000000000000000000000000 PUSH0 DUP3 ADD MSTORE POP JUMP JUMPDEST PUSH0 PUSH2 0x329C PUSH1 0x10 DUP4 PUSH2 0x2D28 JUMP JUMPDEST SWAP2 POP PUSH2 0x32A7 DUP3 PUSH2 0x3268 JUMP JUMPDEST PUSH1 0x20 DUP3 ADD SWAP1 POP SWAP2 SWAP1 POP JUMP JUMPDEST PUSH0 PUSH1 0x20 DUP3 ADD SWAP1 POP DUP2 DUP2 SUB PUSH0 DUP4 ADD MSTORE PUSH2 0x32C9 DUP2 PUSH2 0x3290 JUMP JUMPDEST SWAP1 POP SWAP2 SWAP1 POP JUMP JUMPDEST PUSH32 0x494E4143544956455F50524F5859000000000000000000000000000000000000 PUSH0 DUP3 ADD MSTORE POP JUMP JUMPDEST PUSH0 PUSH2 0x3304 PUSH1 0xE DUP4 PUSH2 0x2D28 JUMP JUMPDEST SWAP2 POP PUSH2 0x330F DUP3 PUSH2 0x32D0 JUMP JUMPDEST PUSH1 0x20 DUP3 ADD SWAP1 POP SWAP2 SWAP1 POP JUMP JUMPDEST PUSH0 PUSH1 0x20 DUP3 ADD SWAP1 POP DUP2 DUP2 SUB PUSH0 DUP4 ADD MSTORE PUSH2 0x3331 DUP2 PUSH2 0x32F8 JUMP JUMPDEST SWAP1 POP SWAP2 SWAP1 POP JUMP JUMPDEST PUSH0 PUSH1 0x60 DUP3 ADD SWAP1 POP PUSH2 0x334B PUSH0 DUP4 ADD DUP7 PUSH2 0x2CF6 JUMP JUMPDEST PUSH2 0x3358 PUSH1 0x20 DUP4 ADD DUP6 PUSH2 0x2CF6 JUMP JUMPDEST PUSH2 0x3365 PUSH1 0x40 DUP4 ADD DUP5 PUSH2 0x2BD5 JUMP JUMPDEST SWAP5 SWAP4 POP POP POP POP JUMP JUMPDEST PUSH0 PUSH2 0x3377 DUP3 PUSH2 0x2B77 JUMP JUMPDEST SWAP2 POP PUSH2 0x3382 DUP4 PUSH2 0x2B77 JUMP JUMPDEST SWAP3 POP DUP3 DUP3 ADD SWAP1 POP DUP1 DUP3 GT ISZERO PUSH2 0x339A JUMPI PUSH2 0x3399 PUSH2 0x309A JUMP JUMPDEST JUMPDEST SWAP3 SWAP2 POP POP JUMP JUMPDEST PUSH32 0x4E487B7100000000000000000000000000000000000000000000000000000000 PUSH0 MSTORE PUSH1 0x22 PUSH1 0x4 MSTORE PUSH1 0x24 PUSH0 REVERT JUMPDEST PUSH0 PUSH1 0x2 DUP3 DIV SWAP1 POP PUSH1 0x1 DUP3 AND DUP1 PUSH2 0x33E4 JUMPI PUSH1 0x7F DUP3 AND SWAP2 POP JUMPDEST PUSH1 0x20 DUP3 LT DUP2 SUB PUSH2 0x33F7 JUMPI PUSH2 0x33F6 PUSH2 0x33A0 JUMP JUMPDEST JUMPDEST POP SWAP2 SWAP1 POP JUMP JUMPDEST PUSH32 0x4F4E4C595F494D504C454D454E544154494F4E00000000000000000000000000 PUSH0 DUP3 ADD MSTORE POP JUMP JUMPDEST PUSH0 PUSH2 0x3431 PUSH1 0x13 DUP4 PUSH2 0x2D28 JUMP JUMPDEST SWAP2 POP PUSH2 0x343C DUP3 PUSH2 0x33FD JUMP JUMPDEST PUSH1 0x20 DUP3 ADD SWAP1 POP SWAP2 SWAP1 POP JUMP JUMPDEST PUSH0 PUSH1 0x20 DUP3 ADD SWAP1 POP DUP2 DUP2 SUB PUSH0 DUP4 ADD MSTORE PUSH2 0x345E DUP2 PUSH2 0x3425 JUMP JUMPDEST SWAP1 POP SWAP2 SWAP1 POP JUMP JUMPDEST PUSH0 DUP2 MLOAD SWAP1 POP PUSH2 0x3473 DUP2 PUSH2 0x2B80 JUMP JUMPDEST SWAP3 SWAP2 POP POP JUMP JUMPDEST PUSH0 PUSH1 0x20 DUP3 DUP5 SUB SLT ISZERO PUSH2 0x348E JUMPI PUSH2 0x348D PUSH2 0x2B6F JUMP JUMPDEST JUMPDEST PUSH0 PUSH2 0x349B DUP5 DUP3 DUP6 ADD PUSH2 0x3465 JUMP JUMPDEST SWAP2 POP POP SWAP3 SWAP2 POP POP JUMP JUMPDEST PUSH32 0x414C52454144595F494E495449414C495A454400000000000000000000000000 PUSH0 DUP3 ADD MSTORE POP JUMP JUMPDEST PUSH0 PUSH2 0x34D8 PUSH1 0x13 DUP4 PUSH2 0x2D28 JUMP JUMPDEST SWAP2 POP PUSH2 0x34E3 DUP3 PUSH2 0x34A4 JUMP JUMPDEST PUSH1 0x20 DUP3 ADD SWAP1 POP SWAP2 SWAP1 POP JUMP JUMPDEST PUSH0 PUSH1 0x20 DUP3 ADD SWAP1 POP DUP2 DUP2 SUB PUSH0 DUP4 ADD MSTORE PUSH2 0x3505 DUP2 PUSH2 0x34CC JUMP JUMPDEST SWAP1 POP SWAP2 SWAP1 POP JUMP JUMPDEST PUSH0 DUP3 SWAP1 POP SWAP3 SWAP2 POP POP JUMP JUMPDEST PUSH32 0x4E487B7100000000000000000000000000000000000000000000000000000000 PUSH0 MSTORE PUSH1 0x41 PUSH1 0x4 MSTORE PUSH1 0x24 PUSH0 REVERT JUMPDEST PUSH0 DUP2 SWAP1 POP DUP2 PUSH0 MSTORE PUSH1 0x20 PUSH0 KECCAK256 SWAP1 POP SWAP2 SWAP1 POP JUMP JUMPDEST PUSH0 PUSH1 0x20 PUSH1 0x1F DUP4 ADD DIV SWAP1 POP SWAP2 SWAP1 POP JUMP JUMPDEST PUSH0 DUP3 DUP3 SHL SWAP1 POP SWAP3 SWAP2 POP POP JUMP JUMPDEST PUSH0 PUSH1 0x8 DUP4 MUL PUSH2 0x359F PUSH32 0xFFFFFFFFFFFFFFFFFFFFFFFFFFFFFFFFFFFFFFFFFFFFFFFFFFFFFFFFFFFFFFFF DUP3 PUSH2 0x3564 JUMP JUMPDEST PUSH2 0x35A9 DUP7 DUP4 PUSH2 0x3564 JUMP JUMPDEST SWAP6 POP DUP1 NOT DUP5 AND SWAP4 POP DUP1 DUP7 AND DUP5 OR SWAP3 POP POP POP SWAP4 SWAP3 POP POP POP JUMP JUMPDEST PUSH0 PUSH2 0x35DB PUSH2 0x35D6 PUSH2 0x35D1 DUP5 PUSH2 0x2B77 JUMP JUMPDEST PUSH2 0x2C82 JUMP JUMPDEST PUSH2 0x2B77 JUMP JUMPDEST SWAP1 POP SWAP2 SWAP1 POP JUMP JUMPDEST PUSH0 DUP2 SWAP1 POP SWAP2 SWAP1 POP JUMP JUMPDEST PUSH2 0x35F4 DUP4 PUSH2 0x35C1 JUMP JUMPDEST PUSH2 0x3608 PUSH2 0x3600 DUP3 PUSH2 0x35E2 JUMP JUMPDEST DUP5 DUP5 SLOAD PUSH2 0x3570 JUMP JUMPDEST DUP3 SSTORE POP POP POP POP JUMP JUMPDEST PUSH0 PUSH0 SWAP1 POP SWAP1 JUMP JUMPDEST PUSH2 0x361F PUSH2 0x3610 JUMP JUMPDEST PUSH2 0x362A DUP2 DUP5 DUP5 PUSH2 0x35EB JUMP JUMPDEST POP POP POP JUMP JUMPDEST JUMPDEST DUP2 DUP2 LT ISZERO PUSH2 0x364D JUMPI PUSH2 0x3642 PUSH0 DUP3 PUSH2 0x3617 JUMP JUMPDEST PUSH1 0x1 DUP2 ADD SWAP1 POP PUSH2 0x3630 JUMP JUMPDEST POP POP JUMP JUMPDEST PUSH1 0x1F DUP3 GT ISZERO PUSH2 0x3692 JUMPI PUSH2 0x3663 DUP2 PUSH2 0x3543 JUMP JUMPDEST PUSH2 0x366C DUP5 PUSH2 0x3555 JUMP JUMPDEST DUP2 ADD PUSH1 0x20 DUP6 LT ISZERO PUSH2 0x367B JUMPI DUP2 SWAP1 POP JUMPDEST PUSH2 0x368F PUSH2 0x3687 DUP6 PUSH2 0x3555 JUMP JUMPDEST DUP4 ADD DUP3 PUSH2 0x362F JUMP JUMPDEST POP POP JUMPDEST POP POP POP JUMP JUMPDEST PUSH0 DUP3 DUP3 SHR SWAP1 POP SWAP3 SWAP2 POP POP JUMP JUMPDEST PUSH0 PUSH2 0x36B2 PUSH0 NOT DUP5 PUSH1 0x8 MUL PUSH2 0x3697 JUMP JUMPDEST NOT DUP1 DUP4 AND SWAP2 POP POP SWAP3 SWAP2 POP POP JUMP JUMPDEST PUSH0 PUSH2 0x36CA DUP4 DUP4 PUSH2 0x36A3 JUMP JUMPDEST SWAP2 POP DUP3 PUSH1 0x2 MUL DUP3 OR SWAP1 POP SWAP3 SWAP2 POP POP JUMP JUMPDEST PUSH2 0x36E4 DUP4 DUP4 PUSH2 0x350C JUMP JUMPDEST PUSH8 0xFFFFFFFFFFFFFFFF DUP2 GT ISZERO PUSH2 0x36FD JUMPI PUSH2 0x36FC PUSH2 0x3516 JUMP JUMPDEST JUMPDEST PUSH2 0x3707 DUP3 SLOAD PUSH2 0x33CD JUMP JUMPDEST PUSH2 0x3712 DUP3 DUP3 DUP6 PUSH2 0x3651 JUMP JUMPDEST PUSH0 PUSH1 0x1F DUP4 GT PUSH1 0x1 DUP2 EQ PUSH2 0x373F JUMPI PUSH0 DUP5 ISZERO PUSH2 0x372D JUMPI DUP3 DUP8 ADD CALLDATALOAD SWAP1 POP JUMPDEST PUSH2 0x3737 DUP6 DUP3 PUSH2 0x36BF JUMP JUMPDEST DUP7 SSTORE POP PUSH2 0x379E JUMP JUMPDEST PUSH1 0x1F NOT DUP5 AND PUSH2 0x374D DUP7 PUSH2 0x3543 JUMP JUMPDEST PUSH0 JUMPDEST DUP3 DUP2 LT ISZERO PUSH2 0x3774 JUMPI DUP5 DUP10 ADD CALLDATALOAD DUP3 SSTORE PUSH1 0x1 DUP3 ADD SWAP2 POP PUSH1 0x20 DUP6 ADD SWAP5 POP PUSH1 0x20 DUP2 ADD SWAP1 POP PUSH2 0x374F JUMP JUMPDEST DUP7 DUP4 LT ISZERO PUSH2 0x3791 JUMPI DUP5 DUP10 ADD CALLDATALOAD PUSH2 0x378D PUSH1 0x1F DUP10 AND DUP3 PUSH2 0x36A3 JUMP JUMPDEST DUP4 SSTORE POP JUMPDEST PUSH1 0x1 PUSH1 0x2 DUP9 MUL ADD DUP9 SSTORE POP POP POP JUMPDEST POP POP POP POP POP POP POP JUMP JUMPDEST PUSH32 0x5A45524F5F494D504C0000000000000000000000000000000000000000000000 PUSH0 DUP3 ADD MSTORE POP JUMP JUMPDEST PUSH0 PUSH2 0x37DB PUSH1 0x9 DUP4 PUSH2 0x2D28 JUMP JUMPDEST SWAP2 POP PUSH2 0x37E6 DUP3 PUSH2 0x37A7 JUMP JUMPDEST PUSH1 0x20 DUP3 ADD SWAP1 POP SWAP2 SWAP1 POP JUMP JUMPDEST PUSH0 PUSH1 0x20 DUP3 ADD SWAP1 POP DUP2 DUP2 SUB PUSH0 DUP4 ADD MSTORE PUSH2 0x3808 DUP2 PUSH2 0x37CF JUMP JUMPDEST SWAP1 POP SWAP2 SWAP1 POP JUMP JUMPDEST PUSH0 DUP2 MLOAD SWAP1 POP SWAP2 SWAP1 POP JUMP JUMPDEST PUSH0 DUP2 SWAP1 POP SWAP3 SWAP2 POP POP JUMP JUMPDEST PUSH0 PUSH2 0x382D DUP3 PUSH2 0x380F JUMP JUMPDEST PUSH2 0x3837 DUP2 DUP6 PUSH2 0x3819 JUMP JUMPDEST SWAP4 POP PUSH2 0x3847 DUP2 DUP6 PUSH1 0x20 DUP7 ADD PUSH2 0x2D38 JUMP JUMPDEST DUP1 DUP5 ADD SWAP2 POP POP SWAP3 SWAP2 POP POP JUMP JUMPDEST PUSH0 PUSH2 0x385E DUP3 DUP5 PUSH2 0x3823 JUMP JUMPDEST SWAP2 POP DUP2 SWAP1 POP SWAP3 SWAP2 POP POP JUMP INVALID LOG2 PUSH5 0x6970667358 0x22 SLT KECCAK256 SWAP16 SWAP12 PUSH23 0xE7DBB05CA5E23A210353B82C7656002B9EB98468D00D9B 0x23 GT 0xDA 0xEB 0xA5 MOD PUSH5 0x736F6C6343 STOP ADDMOD 0x1E STOP CALLER "
		},
		"gasEstimates": {
			"creation": {
				"codeDepositCost": "2899000",
				"executionCost": "infinite",
				"totalCost": "infinite"
			},
			"external": {
				"INDEX_SCALE()": "371",
				"_isHealthy(address)": "infinite",
				"_sharesForBorrowAmount(uint256)": "infinite",
				"accrueInterest()": "infinite",
				"assetManage()": "infinite",
				"availableLiquidity()": "infinite",
				"blocksPerYear()": "2536",
				"borrow(uint256)": "infinite",
				"borrowIndex()": "2580",
				"borrowers(uint256)": "5034",
				"collateralToken()": "infinite",
				"currentLltvBps(address)": "infinite",
				"debtOf(address)": "infinite",
				"healthFactor(address)": "infinite",
				"initialize((address,address,address,address,address,address,address,uint256,uint256,uint256,uint256),string,string)": "infinite",
				"interestRate()": "2559",
				"lastAccrueBlock()": "2493",
				"liquidate(address)": "infinite",
				"liquidationBonusBps()": "2560",
				"liquidator()": "2598",
				"lltvBps()": "2514",
				"loanToken()": "infinite",
				"onVaultDeposit(uint256)": "2704",
				"onVaultWithdraw(uint256)": "infinite",
				"oracle()": "infinite",
				"owner()": "2625",
				"ownershipTransfer(address)": "27084",
				"positions(address)": "infinite",
				"protocolFeeBps()": "2537",
				"protocolReserves()": "2513",
				"proxiableUUID()": "infinite",
				"repay(uint256)": "infinite",
				"setLiquidator(address)": "27003",
				"setRiskParams(uint256,uint256,uint256)": "infinite",
				"setTreasury(address)": "27044",
				"shareName()": "infinite",
				"supplyCollateral(uint256)": "infinite",
				"title()": "infinite",
				"totalBorrowShares()": "2538",
				"totalDebt()": "infinite",
				"treasury()": "2641",
				"upgradeTo(address)": "infinite",
				"upgradeToAndCall(address,bytes)": "infinite",
				"vault()": "2640",
				"withdrawCollateral(uint256)": "infinite"
			},
			"internal": {
				"_authorizeUpgrade(address)": "2230",
				"_projectedBorrowIndex()": "infinite"
			}
		},
		"methodIdentifiers": {
			"INDEX_SCALE()": "27776ab5",
			"_isHealthy(address)": "a03b3c95",
			"_sharesForBorrowAmount(uint256)": "00249b44",
			"accrueInterest()": "a6afed95",
			"assetManage()": "c82f6d2f",
			"availableLiquidity()": "74375359",
			"blocksPerYear()": "a385fb96",
			"borrow(uint256)": "c5ebeaec",
			"borrowIndex()": "aa5af0fd",
			"borrowers(uint256)": "7924d93f",
			"collateralToken()": "b2016bd4",
			"currentLltvBps(address)": "79f057a2",
			"debtOf(address)": "d283e75f",
			"healthFactor(address)": "6ad9f9df",
			"initialize((address,address,address,address,address,address,address,uint256,uint256,uint256,uint256),string,string)": "b1c0be34",
			"interestRate()": "7c3a00fd",
			"lastAccrueBlock()": "29962904",
			"liquidate(address)": "2f865568",
			"liquidationBonusBps()": "19970d8e",
			"liquidator()": "4046ebae",
			"lltvBps()": "b3604c96",
			"loanToken()": "06d37817",
			"onVaultDeposit(uint256)": "4b92917a",
			"onVaultWithdraw(uint256)": "3e3722b6",
			"oracle()": "7dc0d1d0",
			"owner()": "8da5cb5b",
			"ownershipTransfer(address)": "d3a417a2",
			"positions(address)": "55f57510",
			"protocolFeeBps()": "35659fb8",
			"protocolReserves()": "d681a449",
			"proxiableUUID()": "52d1902d",
			"repay(uint256)": "371fd8e6",
			"setLiquidator(address)": "01c76f81",
			"setRiskParams(uint256,uint256,uint256)": "ced65b01",
			"setTreasury(address)": "f0f44260",
			"shareName()": "76e9790a",
			"supplyCollateral(uint256)": "367febea",
			"title()": "4a79d50c",
			"totalBorrowShares()": "136cf1f7",
			"totalDebt()": "fc7b9c18",
			"treasury()": "61d027b3",
			"upgradeTo(address)": "3659cfe6",
			"upgradeToAndCall(address,bytes)": "4f1ef286",
			"vault()": "fbfa77cf",
			"withdrawCollateral(uint256)": "6112fe2e"
		}
	},
	"abi": [
		{
			"anonymous": false,
			"inputs": [
				{
					"indexed": true,
					"internalType": "address",
					"name": "borrower",
					"type": "address"
				},
				{
					"indexed": true,
					"internalType": "address",
					"name": "liquidator",
					"type": "address"
				},
				{
					"indexed": false,
					"internalType": "uint256",
					"name": "debt",
					"type": "uint256"
				},
				{
					"indexed": false,
					"internalType": "uint256",
					"name": "rewardCollateral",
					"type": "uint256"
				}
			],
			"name": "Liquidated",
			"type": "event"
		},
		{
			"inputs": [],
			"name": "INDEX_SCALE",
			"outputs": [
				{
					"internalType": "uint256",
					"name": "",
					"type": "uint256"
				}
			],
			"stateMutability": "view",
			"type": "function"
		},
		{
			"inputs": [
				{
					"internalType": "address",
					"name": "borrower",
					"type": "address"
				}
			],
			"name": "_isHealthy",
			"outputs": [
				{
					"internalType": "bool",
					"name": "",
					"type": "bool"
				}
			],
			"stateMutability": "view",
			"type": "function"
		},
		{
			"inputs": [
				{
					"internalType": "uint256",
					"name": "amount",
					"type": "uint256"
				}
			],
			"name": "_sharesForBorrowAmount",
			"outputs": [
				{
					"internalType": "uint256",
					"name": "shares",
					"type": "uint256"
				}
			],
			"stateMutability": "view",
			"type": "function"
		},
		{
			"inputs": [],
			"name": "accrueInterest",
			"outputs": [],
			"stateMutability": "nonpayable",
			"type": "function"
		},
		{
			"inputs": [],
			"name": "assetManage",
			"outputs": [
				{
					"internalType": "uint256",
					"name": "",
					"type": "uint256"
				}
			],
			"stateMutability": "view",
			"type": "function"
		},
		{
			"inputs": [],
			"name": "availableLiquidity",
			"outputs": [
				{
					"internalType": "uint256",
					"name": "",
					"type": "uint256"
				}
			],
			"stateMutability": "view",
			"type": "function"
		},
		{
			"inputs": [],
			"name": "blocksPerYear",
			"outputs": [
				{
					"internalType": "uint256",
					"name": "",
					"type": "uint256"
				}
			],
			"stateMutability": "view",
			"type": "function"
		},
		{
			"inputs": [
				{
					"internalType": "uint256",
					"name": "amount",
					"type": "uint256"
				}
			],
			"name": "borrow",
			"outputs": [],
			"stateMutability": "nonpayable",
			"type": "function"
		},
		{
			"inputs": [],
			"name": "borrowIndex",
			"outputs": [
				{
					"internalType": "uint256",
					"name": "",
					"type": "uint256"
				}
			],
			"stateMutability": "view",
			"type": "function"
		},
		{
			"inputs": [
				{
					"internalType": "uint256",
					"name": "",
					"type": "uint256"
				}
			],
			"name": "borrowers",
			"outputs": [
				{
					"internalType": "address",
					"name": "",
					"type": "address"
				}
			],
			"stateMutability": "view",
			"type": "function"
		},
		{
			"inputs": [],
			"name": "collateralToken",
			"outputs": [
				{
					"internalType": "contract IERC20",
					"name": "",
					"type": "address"
				}
			],
			"stateMutability": "view",
			"type": "function"
		},
		{
			"inputs": [
				{
					"internalType": "address",
					"name": "borrower",
					"type": "address"
				}
			],
			"name": "currentLltvBps",
			"outputs": [
				{
					"internalType": "uint256",
					"name": "",
					"type": "uint256"
				}
			],
			"stateMutability": "view",
			"type": "function"
		},
		{
			"inputs": [
				{
					"internalType": "address",
					"name": "borrower",
					"type": "address"
				}
			],
			"name": "debtOf",
			"outputs": [
				{
					"internalType": "uint256",
					"name": "",
					"type": "uint256"
				}
			],
			"stateMutability": "view",
			"type": "function"
		},
		{
			"inputs": [
				{
					"internalType": "address",
					"name": "borrower",
					"type": "address"
				}
			],
			"name": "healthFactor",
			"outputs": [
				{
					"internalType": "uint256",
					"name": "",
					"type": "uint256"
				}
			],
			"stateMutability": "view",
			"type": "function"
		},
		{
			"inputs": [
				{
					"components": [
						{
							"internalType": "address",
							"name": "owner",
							"type": "address"
						},
						{
							"internalType": "address",
							"name": "liquidator",
							"type": "address"
						},
						{
							"internalType": "address",
							"name": "treasury",
							"type": "address"
						},
						{
							"internalType": "address",
							"name": "loanToken",
							"type": "address"
						},
						{
							"internalType": "address",
							"name": "collateralToken",
							"type": "address"
						},
						{
							"internalType": "address",
							"name": "oracle",
							"type": "address"
						},
						{
							"internalType": "address",
							"name": "vault",
							"type": "address"
						},
						{
							"internalType": "uint256",
							"name": "lltvBps",
							"type": "uint256"
						},
						{
							"internalType": "uint256",
							"name": "interestRate",
							"type": "uint256"
						},
						{
							"internalType": "uint256",
							"name": "blocksPerYear",
							"type": "uint256"
						},
						{
							"internalType": "uint256",
							"name": "liquidationBonusBps",
							"type": "uint256"
						}
					],
					"internalType": "struct Market.InitParams",
					"name": "p",
					"type": "tuple"
				},
				{
					"internalType": "string",
					"name": "title_",
					"type": "string"
				},
				{
					"internalType": "string",
					"name": "shareName_",
					"type": "string"
				}
			],
			"name": "initialize",
			"outputs": [],
			"stateMutability": "nonpayable",
			"type": "function"
		},
		{
			"inputs": [],
			"name": "interestRate",
			"outputs": [
				{
					"internalType": "uint256",
					"name": "",
					"type": "uint256"
				}
			],
			"stateMutability": "view",
			"type": "function"
		},
		{
			"inputs": [],
			"name": "lastAccrueBlock",
			"outputs": [
				{
					"internalType": "uint256",
					"name": "",
					"type": "uint256"
				}
			],
			"stateMutability": "view",
			"type": "function"
		},
		{
			"inputs": [
				{
					"internalType": "address",
					"name": "borrower",
					"type": "address"
				}
			],
			"name": "liquidate",
			"outputs": [],
			"stateMutability": "nonpayable",
			"type": "function"
		},
		{
			"inputs": [],
			"name": "liquidationBonusBps",
			"outputs": [
				{
					"internalType": "uint256",
					"name": "",
					"type": "uint256"
				}
			],
			"stateMutability": "view",
			"type": "function"
		},
		{
			"inputs": [],
			"name": "liquidator",
			"outputs": [
				{
					"internalType": "address",
					"name": "",
					"type": "address"
				}
			],
			"stateMutability": "view",
			"type": "function"
		},
		{
			"inputs": [],
			"name": "lltvBps",
			"outputs": [
				{
					"internalType": "uint256",
					"name": "",
					"type": "uint256"
				}
			],
			"stateMutability": "view",
			"type": "function"
		},
		{
			"inputs": [],
			"name": "loanToken",
			"outputs": [
				{
					"internalType": "contract IERC20",
					"name": "",
					"type": "address"
				}
			],
			"stateMutability": "view",
			"type": "function"
		},
		{
			"inputs": [
				{
					"internalType": "uint256",
					"name": "amount",
					"type": "uint256"
				}
			],
			"name": "onVaultDeposit",
			"outputs": [],
			"stateMutability": "nonpayable",
			"type": "function"
		},
		{
			"inputs": [
				{
					"internalType": "uint256",
					"name": "amount",
					"type": "uint256"
				}
			],
			"name": "onVaultWithdraw",
			"outputs": [],
			"stateMutability": "nonpayable",
			"type": "function"
		},
		{
			"inputs": [],
			"name": "oracle",
			"outputs": [
				{
					"internalType": "contract IOracle",
					"name": "",
					"type": "address"
				}
			],
			"stateMutability": "view",
			"type": "function"
		},
		{
			"inputs": [],
			"name": "owner",
			"outputs": [
				{
					"internalType": "address",
					"name": "",
					"type": "address"
				}
			],
			"stateMutability": "view",
			"type": "function"
		},
		{
			"inputs": [
				{
					"internalType": "address",
					"name": "newOwner",
					"type": "address"
				}
			],
			"name": "ownershipTransfer",
			"outputs": [],
			"stateMutability": "nonpayable",
			"type": "function"
		},
		{
			"inputs": [
				{
					"internalType": "address",
					"name": "",
					"type": "address"
				}
			],
			"name": "positions",
			"outputs": [
				{
					"internalType": "uint256",
					"name": "collateralShares",
					"type": "uint256"
				},
				{
					"internalType": "uint256",
					"name": "borrowShares",
					"type": "uint256"
				},
				{
					"internalType": "uint256",
					"name": "principal",
					"type": "uint256"
				}
			],
			"stateMutability": "view",
			"type": "function"
		},
		{
			"inputs": [],
			"name": "protocolFeeBps",
			"outputs": [
				{
					"internalType": "uint256",
					"name": "",
					"type": "uint256"
				}
			],
			"stateMutability": "view",
			"type": "function"
		},
		{
			"inputs": [],
			"name": "protocolReserves",
			"outputs": [
				{
					"internalType": "uint256",
					"name": "",
					"type": "uint256"
				}
			],
			"stateMutability": "view",
			"type": "function"
		},
		{
			"inputs": [],
			"name": "proxiableUUID",
			"outputs": [
				{
					"internalType": "bytes32",
					"name": "",
					"type": "bytes32"
				}
			],
			"stateMutability": "view",
			"type": "function"
		},
		{
			"inputs": [
				{
					"internalType": "uint256",
					"name": "amount",
					"type": "uint256"
				}
			],
			"name": "repay",
			"outputs": [
				{
					"internalType": "uint256",
					"name": "remainingDebt",
					"type": "uint256"
				}
			],
			"stateMutability": "nonpayable",
			"type": "function"
		},
		{
			"inputs": [
				{
					"internalType": "address",
					"name": "newLiquidator",
					"type": "address"
				}
			],
			"name": "setLiquidator",
			"outputs": [],
			"stateMutability": "nonpayable",
			"type": "function"
		},
		{
			"inputs": [
				{
					"internalType": "uint256",
					"name": "newLltvBps",
					"type": "uint256"
				},
				{
					"internalType": "uint256",
					"name": "newInterestRate",
					"type": "uint256"
				},
				{
					"internalType": "uint256",
					"name": "newLiquidationBonusBps",
					"type": "uint256"
				}
			],
			"name": "setRiskParams",
			"outputs": [],
			"stateMutability": "nonpayable",
			"type": "function"
		},
		{
			"inputs": [
				{
					"internalType": "address",
					"name": "newTreasury",
					"type": "address"
				}
			],
			"name": "setTreasury",
			"outputs": [],
			"stateMutability": "nonpayable",
			"type": "function"
		},
		{
			"inputs": [],
			"name": "shareName",
			"outputs": [
				{
					"internalType": "string",
					"name": "",
					"type": "string"
				}
			],
			"stateMutability": "view",
			"type": "function"
		},
		{
			"inputs": [
				{
					"internalType": "uint256",
					"name": "amount",
					"type": "uint256"
				}
			],
			"name": "supplyCollateral",
			"outputs": [],
			"stateMutability": "nonpayable",
			"type": "function"
		},
		{
			"inputs": [],
			"name": "title",
			"outputs": [
				{
					"internalType": "string",
					"name": "",
					"type": "string"
				}
			],
			"stateMutability": "view",
			"type": "function"
		},
		{
			"inputs": [],
			"name": "totalBorrowShares",
			"outputs": [
				{
					"internalType": "uint256",
					"name": "",
					"type": "uint256"
				}
			],
			"stateMutability": "view",
			"type": "function"
		},
		{
			"inputs": [],
			"name": "totalDebt",
			"outputs": [
				{
					"internalType": "uint256",
					"name": "",
					"type": "uint256"
				}
			],
			"stateMutability": "view",
			"type": "function"
		},
		{
			"inputs": [],
			"name": "treasury",
			"outputs": [
				{
					"internalType": "address",
					"name": "",
					"type": "address"
				}
			],
			"stateMutability": "view",
			"type": "function"
		},
		{
			"inputs": [
				{
					"internalType": "address",
					"name": "newImplementation",
					"type": "address"
				}
			],
			"name": "upgradeTo",
			"outputs": [],
			"stateMutability": "nonpayable",
			"type": "function"
		},
		{
			"inputs": [
				{
					"internalType": "address",
					"name": "newImplementation",
					"type": "address"
				},
				{
					"internalType": "bytes",
					"name": "data",
					"type": "bytes"
				}
			],
			"name": "upgradeToAndCall",
			"outputs": [],
			"stateMutability": "payable",
			"type": "function"
		},
		{
			"inputs": [],
			"name": "vault",
			"outputs": [
				{
					"internalType": "address",
					"name": "",
					"type": "address"
				}
			],
			"stateMutability": "view",
			"type": "function"
		},
		{
			"inputs": [
				{
					"internalType": "uint256",
					"name": "amount",
					"type": "uint256"
				}
			],
			"name": "withdrawCollateral",
			"outputs": [],
			"stateMutability": "nonpayable",
			"type": "function"
		}
	]
}